{"abi":[{"type":"constructor","inputs":[],"stateMutability":"nonpayable"},{"type":"function","name":"ADMIN_ROLE","inputs":[],"outputs":[{"name":"","type":"bytes32","internalType":"bytes32"}],"stateMutability":"view"},{"type":"function","name":"DEFAULT_ADMIN_ROLE","inputs":[],"outputs":[{"name":"","type":"bytes32","internalType":"bytes32"}],"stateMutability":"view"},{"type":"function","name":"EXECUTOR_ROLE","inputs":[],"outputs":[{"name":"","type":"bytes32","internalType":"bytes32"}],"stateMutability":"view"},{"type":"function","name":"addInitialLiquidity","inputs":[{"name":"token_","type":"address","internalType":"address"},{"name":"amountToken_","type":"uint256","internalType":"uint256"},{"name":"amountAsset_","type":"uint256","internalType":"uint256"}],"outputs":[{"name":"","type":"uint256","internalType":"uint256"},{"name":"","type":"uint256","internalType":"uint256"}],"stateMutability":"nonpayable"},{"type":"function","name":"approval","inputs":[{"name":"pair","type":"address","internalType":"address"},{"name":"asset","type":"address","internalType":"address"},{"name":"spender","type":"address","internalType":"address"},{"name":"amount","type":"uint256","internalType":"uint256"}],"outputs":[],"stateMutability":"nonpayable"},{"type":"function","name":"assetToken","inputs":[],"outputs":[{"name":"","type":"address","internalType":"address"}],"stateMutability":"view"},{"type":"function","name":"buy","inputs":[{"name":"amountIn","type":"uint256","internalType":"uint256"},{"name":"tokenAddress","type":"address","internalType":"address"},{"name":"to","type":"address","internalType":"address"}],"outputs":[{"name":"","type":"uint256","internalType":"uint256"},{"name":"","type":"uint256","internalType":"uint256"}],"stateMutability":"nonpayable"},{"type":"function","name":"factory","inputs":[],"outputs":[{"name":"","type":"address","internalType":"contract FFactory"}],"stateMutability":"view"},{"type":"function","name":"getAmountsOut","inputs":[{"name":"token","type":"address","internalType":"address"},{"name":"assetToken_","type":"address","internalType":"address"},{"name":"amountIn","type":"uint256","internalType":"uint256"}],"outputs":[{"name":"_amountOut","type":"uint256","internalType":"uint256"}],"stateMutability":"view"},{"type":"function","name":"getRoleAdmin","inputs":[{"name":"role","type":"bytes32","internalType":"bytes32"}],"outputs":[{"name":"","type":"bytes32","internalType":"bytes32"}],"stateMutability":"view"},{"type":"function","name":"graduate","inputs":[{"name":"tokenAddress","type":"address","internalType":"address"}],"outputs":[],"stateMutability":"nonpayable"},{"type":"function","name":"grantRole","inputs":[{"name":"role","type":"bytes32","internalType":"bytes32"},{"name":"account","type":"address","internalType":"address"}],"outputs":[],"stateMutability":"nonpayable"},{"type":"function","name":"hasRole","inputs":[{"name":"role","type":"bytes32","internalType":"bytes32"},{"name":"account","type":"address","internalType":"address"}],"outputs":[{"name":"","type":"bool","internalType":"bool"}],"stateMutability":"view"},{"type":"function","name":"initialize","inputs":[{"name":"factory_","type":"address","internalType":"address"},{"name":"assetToken_","type":"address","internalType":"address"}],"outputs":[],"stateMutability":"nonpayable"},{"type":"function","name":"renounceRole","inputs":[{"name":"role","type":"bytes32","internalType":"bytes32"},{"name":"callerConfirmation","type":"address","internalType":"address"}],"outputs":[],"stateMutability":"nonpayable"},{"type":"function","name":"revokeRole","inputs":[{"name":"role","type":"bytes32","internalType":"bytes32"},{"name":"account","type":"address","internalType":"address"}],"outputs":[],"stateMutability":"nonpayable"},{"type":"function","name":"sell","inputs":[{"name":"amountIn","type":"uint256","internalType":"uint256"},{"name":"tokenAddress","type":"address","internalType":"address"},{"name":"to","type":"address","internalType":"address"}],"outputs":[{"name":"","type":"uint256","internalType":"uint256"},{"name":"","type":"uint256","internalType":"uint256"}],"stateMutability":"nonpayable"},{"type":"function","name":"setTaxManager","inputs":[{"name":"newManager","type":"address","internalType":"address"}],"outputs":[],"stateMutability":"nonpayable"},{"type":"function","name":"supportsInterface","inputs":[{"name":"interfaceId","type":"bytes4","internalType":"bytes4"}],"outputs":[{"name":"","type":"bool","internalType":"bool"}],"stateMutability":"view"},{"type":"function","name":"taxManager","inputs":[],"outputs":[{"name":"","type":"address","internalType":"address"}],"stateMutability":"view"},{"type":"event","name":"Initialized","inputs":[{"name":"version","type":"uint64","indexed":false,"internalType":"uint64"}],"anonymous":false},{"type":"event","name":"RoleAdminChanged","inputs":[{"name":"role","type":"bytes32","indexed":true,"internalType":"bytes32"},{"name":"previousAdminRole","type":"bytes32","indexed":true,"internalType":"bytes32"},{"name":"newAdminRole","type":"bytes32","indexed":true,"internalType":"bytes32"}],"anonymous":false},{"type":"event","name":"RoleGranted","inputs":[{"name":"role","type":"bytes32","indexed":true,"internalType":"bytes32"},{"name":"account","type":"address","indexed":true,"internalType":"address"},{"name":"sender","type":"address","indexed":true,"internalType":"address"}],"anonymous":false},{"type":"event","name":"RoleRevoked","inputs":[{"name":"role","type":"bytes32","indexed":true,"internalType":"bytes32"},{"name":"account","type":"address","indexed":true,"internalType":"address"},{"name":"sender","type":"address","indexed":true,"internalType":"address"}],"anonymous":false},{"type":"error","name":"AccessControlBadConfirmation","inputs":[]},{"type":"error","name":"AccessControlUnauthorizedAccount","inputs":[{"name":"account","type":"address","internalType":"address"},{"name":"neededRole","type":"bytes32","internalType":"bytes32"}]},{"type":"error","name":"AddressEmptyCode","inputs":[{"name":"target","type":"address","internalType":"address"}]},{"type":"error","name":"AddressInsufficientBalance","inputs":[{"name":"account","type":"address","internalType":"address"}]},{"type":"error","name":"FailedInnerCall","inputs":[]},{"type":"error","name":"InvalidInitialization","inputs":[]},{"type":"error","name":"NotInitializing","inputs":[]},{"type":"error","name":"ReentrancyGuardReentrantCall","inputs":[]},{"type":"error","name":"SafeERC20FailedOperation","inputs":[{"name":"token","type":"address","internalType":"address"}]}],"bytecode":{"object":"0x6080806040523460d0577ff0c57e16840df040f15088dc2f81fe391c3923bec73e23a9662efc9c229c6a005460ff8160401c1660c1576002600160401b03196001600160401b03821601605c575b604051611a2690816100d58239f35b6001600160401b0319166001600160401b039081177ff0c57e16840df040f15088dc2f81fe391c3923bec73e23a9662efc9c229c6a005581527fc7f505b2f371ae2175ee4913f4499e1f2633a7b5936321eed1cdaeb6115181d290602090a15f80604d565b63f92ee8a960e01b5f5260045ffd5b5f80fdfe6080806040526004361015610012575f80fd5b5f905f3560e01c90816301ffc9a7146111b55750806307bd02651461117b578063095e3913146110d35780631083f761146110ab578063248a9ca31461108d5780632f2ff15d1461105c57806336568abe1461101657806345608d0014610fdf578063485cc95514610e175780634d23773014610def5780636f08e177146109a657806375b238fc1461096b57806391d1485414610915578063a217fddf146108f9578063ab3c475a146107fe578063ba37fd38146106a7578063c45a015514610680578063d547741f14610645578063e753858a146102a65763ff6d8d05146100fa575f80fd5b3461021f57602036600319011261021f57806101796020610119611208565b61012161153c565b6101296117e0565b61013d6001600160a01b038216151561128c565b835460015460405163e6a4390560e01b81526001600160a01b039384166004820152908316602482015293849290911690829081906044820190565b03915afa908115610222578291610277575b5060405163c66f245560e01b8152906001600160a01b0316602082600481845afa91821561026c578392610231575b50803b1561022d57604051635c921eb960e01b8152336004820152602481019290925282908290604490829084905af180156102225761020a575b5060015f805160206119b18339815191525580f35b81610214916112d8565b61021f57805f6101f5565b80fd5b6040513d84823e3d90fd5b5050fd5b925090506020823d602011610264575b8161024e602093836112d8565b8101031261026057829151905f6101ba565b5f80fd5b3d9150610241565b6040513d85823e3d90fd5b610299915060203d60201161029f575b61029181836112d8565b81019061130e565b5f61018b565b503d610287565b503461021f576102b536611234565b916102be61153c565b6102c66117e0565b6102da6001600160a01b038316151561128c565b6102ee6001600160a01b038416151561128c565b801561060057835460015460405163e6a4390560e01b81526001600160a01b038581166004830152918216602482018190529095909487939192909116602087604481845afa9687156104fe5784976105df575b50604051634f7041a560e01b8152602081600481855afa9081156105445785916105a7575b5095602060646103798860049a6114ff565b049260405198898092630e2ad37b60e41b82525afa958615610544578897869761056c575b50826103c06103e795936103b688966103d59561136c565b9b8c968792611818565b600154889087906001600160a01b0316611818565b6001546001600160a01b031690611379565b936001600160a01b031690813b15610568576040516302ccb1b360e41b81526001600160a01b0391909116600482015260248101859052828160448183865af190811561026c57839161054f575b5050602090608460405180948193635673b02d60e01b83528160048401528860248401528960448401528160648401525af1801561054457610509575b506002546001600160a01b03908116911681146104ab575b6040838360015f805160206119b18339815191525582519182526020820152f35b60408491600482518094819363951d833d60e01b83525af180156104fe57604094501561048a576104f190843d86116104f7575b6104e981836112d8565b81019061151f565b5061048a565b503d6104df565b6040513d86823e3d90fd5b6020813d60201161053c575b81610522602093836112d8565b810103126105385761053390611512565b610472565b8480fd5b3d9150610515565b6040513d87823e3d90fd5b81610559916112d8565b61056457815f610435565b5080fd5b8280fd5b6103d5919750926103c06103e795936103b6836105988a9860203d60201161029f5761029181836112d8565b9b95509650509395505061039e565b9450506020843d6020116105d7575b816105c3602093836112d8565b810103126102605792518793906020610367565b3d91506105b6565b6105f991975060203d60201161029f5761029181836112d8565b955f610342565b60405162461bcd60e51b815260206004820152601f60248201527f616d6f756e74496e206d7573742062652067726561746572207468616e2030006044820152606490fd5b503461021f57604036600319011261021f5761067c60043561066561121e565b906106776106728261126e565b6115ab565b611744565b5080f35b503461021f578060031936011261021f57546040516001600160a01b039091168152602090f35b503461021f57606036600319011261021f576106c1611208565b602435908261072a604435926106d561153c565b6001600160a01b038116906020906106ee83151561128c565b845460015460405163e6a4390560e01b81526001600160a01b039384166004820152908316602482015294859290911690829081906044820190565b03915afa801561026c578560209385926107dd575b508161074d92933390611818565b604051630d9778e560e11b8152600481018690526024810185905295869160449183916001600160a01b03165af180156107d057610796575b6040838382519182526020820152f35b6020843d6020116107c8575b816107af602093836112d8565b8101031261021f57506107c3604093611512565b610786565b3d91506107a2565b50604051903d90823e3d90fd5b61074d92506107f890853d871161029f5761029181836112d8565b9161073f565b503461021f57608036600319011261021f57610818611208565b61082061121e565b906044356001600160a01b03811691828203610538576108949361085760209461084861153c565b6108506117e0565b151561128c565b604051632e2952f960e11b81526001600160a01b039384166004820152921660248301526064803560448401529193849283918791839190820190565b03926001600160a01b03165af18015610222576108c0575060015f805160206119b18339815191525580f35b6020813d6020116108f1575b816108d9602093836112d8565b81010312610564576108ea90611512565b505f6101f5565b3d91506108cc565b503461021f578060031936011261021f57602090604051908152f35b503461021f57604036600319011261021f57604061093161121e565b9160043581525f80516020611991833981519152602052209060018060a01b03165f52602052602060ff60405f2054166040519015158152f35b503461021f578060031936011261021f5760206040517fa49807205ce4d355092ef5a8a18f56e8913cf4a201fbe287825b095693c217758152f35b5034610260576109b536611234565b6109bd6117e0565b6109c561153c565b6001600160a01b03821691821515906109dd8261128c565b6109f16001600160a01b038416151561128c565b5f5460015460405163e6a4390560e01b81526001600160a01b03848116600483015291821660248201529160209183916044918391165afa908115610cc1575f91610dd0575b506001600160a01b03811692610a4c9061128c565b5f5460015460405163e6a4390560e01b81526001600160a01b0394851660048201529084166024820181905293909160209183916044918391165afa908115610cc1575f91610db1575b5060408051630240bc6b60e21b81526001600160a01b039290921692919081600481865afa928315610cc1575f915f94610d74575b5090602060049260405193848092637464fc3d60e01b82525afa8015610cc157899488935f92610d37575b508590610b2897155f14610d265791610b16610b1c92610b22959461132d565b9061134e565b9061136c565b96611818565b5f5460405163cc1776d360e01b815292906001600160a01b0316602084600481845afa8015610cc15785945f91610ced575b50610b696004956064926114ff565b04916020610b77848861136c565b9260405196878092630e2ad37b60e41b82525afa948515610cc1575f95610ccc575b50833b1561026057604051635c921eb960e01b81526001600160a01b0391909116600482015260248101919091525f8160448183875af18015610cc157610caa575b50908591813b1561056857604051635c921eb960e01b81526001600160a01b03851660048201526024810191909152828160448183865af190811561026c578391610c95575b5050602090608460405180948193635673b02d60e01b83528960048401528160248401528160448401528860648401525af180156105445761050957506002546001600160a01b03908116911681146104ab576040838360015f805160206119b18339815191525582519182526020820152f35b81610c9f916112d8565b61056457815f610c21565b610cb8919296505f906112d8565b5f94905f610bdb565b6040513d5f823e3d90fd5b610ce691955060203d60201161029f5761029181836112d8565b935f610b99565b9450506020843d602011610d1e575b81610d09602093836112d8565b81010312610260579251849390610b69610b5a565b3d9150610cfc565b91610b16610b1c92610b229561132d565b95509250506020843d602011610d6c575b81610d55602093836112d8565b810103126102605792518893879290919085610af6565b3d9150610d48565b915092506040813d604011610da9575b81610d91604093836112d8565b81010312610260578051602091820151939091610acb565b3d9150610d84565b610dca915060203d60201161029f5761029181836112d8565b5f610a96565b610de9915060203d60201161029f5761029181836112d8565b5f610a37565b34610260575f366003190112610260576002546040516001600160a01b039091168152602090f35b3461026057604036600319011261026057610e30611208565b610e3861121e565b5f805160206119d1833981519152549160ff8360401c16159267ffffffffffffffff811680159081610fd7575b6001149081610fcd575b159081610fc4575b50610fb55767ffffffffffffffff1981166001175f805160206119d18339815191525583610f89575b50610ea9611907565b610eb1611907565b60015f805160206119b183398151915255610eca611907565b610ed3336115f1565b506001600160a01b031690610ee982151561128c565b6001600160a01b031690610efe82151561128c565b6bffffffffffffffffffffffff60a01b5f5416175f556bffffffffffffffffffffffff60a01b6001541617600155610f3257005b68ff0000000000000000195f805160206119d183398151915254165f805160206119d1833981519152557fc7f505b2f371ae2175ee4913f4499e1f2633a7b5936321eed1cdaeb6115181d2602060405160018152a1005b68ffffffffffffffffff191668010000000000000001175f805160206119d18339815191525583610ea0565b63f92ee8a960e01b5f5260045ffd5b90501585610e77565b303b159150610e6f565b859150610e65565b3461026057606036600319011261026057602061100e610ffd611208565b61100561121e565b60443591611379565b604051908152f35b346102605760403660031901126102605761102f61121e565b336001600160a01b0382160361104d5761104b90600435611744565b005b63334bd91960e11b5f5260045ffd5b346102605760403660031901126102605761104b60043561107b61121e565b906110886106728261126e565b6116a0565b3461026057602036600319011261026057602061100e60043561126e565b34610260575f366003190112610260576001546040516001600160a01b039091168152602090f35b34610260576020366003190112610260576110ec611208565b335f9081527fb16e88c42fd4e48df2dd6a2eabd6bc9aec654ec170056b470819f8892cc6431c602052604090205460ff161561114457600280546001600160a01b0319166001600160a01b0392909216919091179055005b63e2517d3f60e01b5f52336004527fa49807205ce4d355092ef5a8a18f56e8913cf4a201fbe287825b095693c2177560245260445ffd5b34610260575f3660031901126102605760206040517fd8aa0f3194971a2a116679f7c2090f6939c8d4e01a2a8d7e41d55e5351469e638152f35b34610260576020366003190112610260576004359063ffffffff60e01b821680920361026057602091637965db0b60e01b81149081156111f7575b5015158152f35b6301ffc9a760e01b149050836111f0565b600435906001600160a01b038216820361026057565b602435906001600160a01b038216820361026057565b606090600319011261026057600435906024356001600160a01b038116810361026057906044356001600160a01b03811681036102605790565b5f525f80516020611991833981519152602052600160405f20015490565b1561129357565b60405162461bcd60e51b815260206004820152601f60248201527f5a65726f2061646472657373657320617265206e6f7420616c6c6f7765642e006044820152606490fd5b90601f8019910116810190811067ffffffffffffffff8211176112fa57604052565b634e487b7160e01b5f52604160045260245ffd5b9081602091031261026057516001600160a01b03811681036102605790565b9190820180921161133a57565b634e487b7160e01b5f52601160045260245ffd5b8115611358570490565b634e487b7160e01b5f52601260045260245ffd5b9190820391821161133a57565b909161138f6001600160a01b038316151561128c565b5f5460015460405163e6a4390560e01b81526001600160a01b0394851660048201529084166024820181905293909160209183916044918391165afa908115610cc1575f916114e0575b5060408051630240bc6b60e21b81526001600160a01b03929092169491939084600481885afa918215610cc1575f945f936114a0575b5060206004959660405196878092637464fc3d60e01b82525afa948515610cc1575f9561146c575b506001600160a01b03160361145b5791610b16610b1c92611458959461132d565b90565b91610b16610b1c926114589561132d565b9094506020813d602011611498575b81611488602093836112d8565b810103126102605751935f611437565b3d915061147b565b95925093506040853d6040116114d8575b816114be604093836112d8565b81010312610260578451602095860151929590949061140f565b3d91506114b1565b6114f9915060203d60201161029f5761029181836112d8565b5f6113d9565b8181029291811591840414171561133a57565b5190811515820361026057565b919082604091031261026057602061153683611512565b92015190565b335f9081527f52fce5e8a5d0d9e8d1ea29f4525e512e9c27bf92cae50374d497f918ab48f382602052604090205460ff161561157457565b63e2517d3f60e01b5f52336004527fd8aa0f3194971a2a116679f7c2090f6939c8d4e01a2a8d7e41d55e5351469e6360245260445ffd5b5f8181525f805160206119918339815191526020908152604080832033845290915290205460ff16156115db5750565b63e2517d3f60e01b5f523360045260245260445ffd5b6001600160a01b0381165f9081527fb7db2dd08fcb62d0c9e08c51941cae53c267786a0b75803fb7960902fc8ef97d602052604090205460ff1661169b576001600160a01b03165f8181527fb7db2dd08fcb62d0c9e08c51941cae53c267786a0b75803fb7960902fc8ef97d60205260408120805460ff191660011790553391907f2f8788117e7eff1d82e926ec794901d17c78024a50270940304540a733656f0d8180a4600190565b505f90565b5f8181525f80516020611991833981519152602090815260408083206001600160a01b038616845290915290205460ff1661173e575f8181525f80516020611991833981519152602090815260408083206001600160a01b0395909516808452949091528120805460ff19166001179055339291907f2f8788117e7eff1d82e926ec794901d17c78024a50270940304540a733656f0d9080a4600190565b50505f90565b5f8181525f80516020611991833981519152602090815260408083206001600160a01b038616845290915290205460ff161561173e575f8181525f80516020611991833981519152602090815260408083206001600160a01b0395909516808452949091528120805460ff19169055339291907ff6391f5c32d9c69d2a47ea670b442974b53935d1edc7fd64eb21e047a839171b9080a4600190565b60025f805160206119b183398151915254146118095760025f805160206119b183398151915255565b633ee5aeb560e01b5f5260045ffd5b6040516323b872dd60e01b602082019081526001600160a01b039384166024830152939092166044830152606480830194909452928152915f91829161185f6084866112d8565b60018060a01b031693519082855af13d156118fb573d67ffffffffffffffff81116112fa576118b091604051916118a06020601f19601f84011601846112d8565b82523d5f602084013e5b83611932565b80519081151591826118d8575b50506118c65750565b635274afe760e01b5f5260045260245ffd5b81925090602091810103126102605760206118f39101611512565b155f806118bd565b6118b0906060906118aa565b60ff5f805160206119d18339815191525460401c161561192357565b631afcd79f60e31b5f5260045ffd5b90611956575080511561194757805190602001fd5b630a12f52160e11b5f5260045ffd5b81511580611987575b611967575090565b639996b31560e01b5f9081526001600160a01b0391909116600452602490fd5b50803b1561195f56fe02dd7bc7dec4dceedda775e58dd541e08a116c6c53815c0bd028192f7b6268009b779b17422d0df92223018b32b4d1fa46e071723d6817e2486d003becc55f00f0c57e16840df040f15088dc2f81fe391c3923bec73e23a9662efc9c229c6a00a26469706673582212204e69fbb326be25f70dc74bf092c4348f59805a48383a43462fa532fa8c3045d264736f6c634300081a0033","linkReferences":{}},"methodIdentifiers":{"ADMIN_ROLE()":"75b238fc","DEFAULT_ADMIN_ROLE()":"a217fddf","EXECUTOR_ROLE()":"07bd0265","addInitialLiquidity(address,uint256,uint256)":"ba37fd38","approval(address,address,address,uint256)":"ab3c475a","assetToken()":"1083f761","buy(uint256,address,address)":"e753858a","factory()":"c45a0155","getAmountsOut(address,address,uint256)":"45608d00","getRoleAdmin(bytes32)":"248a9ca3","graduate(address)":"ff6d8d05","grantRole(bytes32,address)":"2f2ff15d","hasRole(bytes32,address)":"91d14854","initialize(address,address)":"485cc955","renounceRole(bytes32,address)":"36568abe","revokeRole(bytes32,address)":"d547741f","sell(uint256,address,address)":"6f08e177","setTaxManager(address)":"095e3913","supportsInterface(bytes4)":"01ffc9a7","taxManager()":"4d237730"},"id":25}