{"abi":[{"type":"constructor","inputs":[],"stateMutability":"nonpayable"},{"type":"receive","stateMutability":"payable"},{"type":"function","name":"acceptOwnership","inputs":[],"outputs":[],"stateMutability":"nonpayable"},{"type":"function","name":"addBlacklistAddress","inputs":[{"name":"blacklistAddress","type":"address","internalType":"address"}],"outputs":[],"stateMutability":"nonpayable"},{"type":"function","name":"addInitialLiquidity","inputs":[{"name":"lpOwner","type":"address","internalType":"address"}],"outputs":[],"stateMutability":"nonpayable"},{"type":"function","name":"addLiquidityPool","inputs":[{"name":"newLiquidityPool_","type":"address","internalType":"address"}],"outputs":[],"stateMutability":"nonpayable"},{"type":"function","name":"addValidCaller","inputs":[{"name":"newValidCallerHash_","type":"bytes32","internalType":"bytes32"}],"outputs":[],"stateMutability":"nonpayable"},{"type":"function","name":"allowance","inputs":[{"name":"owner","type":"address","internalType":"address"},{"name":"spender","type":"address","internalType":"address"}],"outputs":[{"name":"","type":"uint256","internalType":"uint256"}],"stateMutability":"view"},{"type":"function","name":"approve","inputs":[{"name":"spender","type":"address","internalType":"address"},{"name":"amount","type":"uint256","internalType":"uint256"}],"outputs":[{"name":"","type":"bool","internalType":"bool"}],"stateMutability":"nonpayable"},{"type":"function","name":"balanceOf","inputs":[{"name":"account","type":"address","internalType":"address"}],"outputs":[{"name":"","type":"uint256","internalType":"uint256"}],"stateMutability":"view"},{"type":"function","name":"blacklists","inputs":[{"name":"","type":"address","internalType":"address"}],"outputs":[{"name":"","type":"bool","internalType":"bool"}],"stateMutability":"view"},{"type":"function","name":"botProtectionDurationInSeconds","inputs":[],"outputs":[{"name":"","type":"uint256","internalType":"uint256"}],"stateMutability":"view"},{"type":"function","name":"burn","inputs":[{"name":"value","type":"uint256","internalType":"uint256"}],"outputs":[],"stateMutability":"nonpayable"},{"type":"function","name":"burnFrom","inputs":[{"name":"account","type":"address","internalType":"address"},{"name":"value","type":"uint256","internalType":"uint256"}],"outputs":[],"stateMutability":"nonpayable"},{"type":"function","name":"decimals","inputs":[],"outputs":[{"name":"","type":"uint8","internalType":"uint8"}],"stateMutability":"view"},{"type":"function","name":"decreaseAllowance","inputs":[{"name":"spender","type":"address","internalType":"address"},{"name":"subtractedValue","type":"uint256","internalType":"uint256"}],"outputs":[{"name":"","type":"bool","internalType":"bool"}],"stateMutability":"nonpayable"},{"type":"function","name":"distributeTaxTokens","inputs":[],"outputs":[],"stateMutability":"nonpayable"},{"type":"function","name":"fundedDate","inputs":[],"outputs":[{"name":"","type":"uint32","internalType":"uint32"}],"stateMutability":"view"},{"type":"function","name":"increaseAllowance","inputs":[{"name":"spender","type":"address","internalType":"address"},{"name":"addedValue","type":"uint256","internalType":"uint256"}],"outputs":[{"name":"","type":"bool","internalType":"bool"}],"stateMutability":"nonpayable"},{"type":"function","name":"initialize","inputs":[{"name":"integrationAddresses_","type":"address[3]","internalType":"address[3]"},{"name":"baseParams_","type":"bytes","internalType":"bytes"},{"name":"supplyParams_","type":"bytes","internalType":"bytes"},{"name":"taxParams_","type":"bytes","internalType":"bytes"}],"outputs":[],"stateMutability":"nonpayable"},{"type":"function","name":"isLiquidityPool","inputs":[{"name":"queryAddress_","type":"address","internalType":"address"}],"outputs":[{"name":"","type":"bool","internalType":"bool"}],"stateMutability":"view"},{"type":"function","name":"isValidCaller","inputs":[{"name":"queryHash_","type":"bytes32","internalType":"bytes32"}],"outputs":[{"name":"","type":"bool","internalType":"bool"}],"stateMutability":"view"},{"type":"function","name":"liquidityPools","inputs":[],"outputs":[{"name":"liquidityPools_","type":"address[]","internalType":"address[]"}],"stateMutability":"view"},{"type":"function","name":"name","inputs":[],"outputs":[{"name":"","type":"string","internalType":"string"}],"stateMutability":"view"},{"type":"function","name":"owner","inputs":[],"outputs":[{"name":"","type":"address","internalType":"address"}],"stateMutability":"view"},{"type":"function","name":"pairToken","inputs":[],"outputs":[{"name":"","type":"address","internalType":"address"}],"stateMutability":"view"},{"type":"function","name":"pendingOwner","inputs":[],"outputs":[{"name":"","type":"address","internalType":"address"}],"stateMutability":"view"},{"type":"function","name":"projectBuyTaxBasisPoints","inputs":[],"outputs":[{"name":"","type":"uint16","internalType":"uint16"}],"stateMutability":"view"},{"type":"function","name":"projectSellTaxBasisPoints","inputs":[],"outputs":[{"name":"","type":"uint16","internalType":"uint16"}],"stateMutability":"view"},{"type":"function","name":"projectTaxPendingSwap","inputs":[],"outputs":[{"name":"","type":"uint128","internalType":"uint128"}],"stateMutability":"view"},{"type":"function","name":"projectTaxRecipient","inputs":[],"outputs":[{"name":"","type":"address","internalType":"address"}],"stateMutability":"view"},{"type":"function","name":"removeBlacklistAddress","inputs":[{"name":"blacklistAddress","type":"address","internalType":"address"}],"outputs":[],"stateMutability":"nonpayable"},{"type":"function","name":"removeLiquidityPool","inputs":[{"name":"removedLiquidityPool_","type":"address","internalType":"address"}],"outputs":[],"stateMutability":"nonpayable"},{"type":"function","name":"removeValidCaller","inputs":[{"name":"removedValidCallerHash_","type":"bytes32","internalType":"bytes32"}],"outputs":[],"stateMutability":"nonpayable"},{"type":"function","name":"renounceOwnership","inputs":[],"outputs":[],"stateMutability":"nonpayable"},{"type":"function","name":"setProjectTaxRates","inputs":[{"name":"newProjectBuyTaxBasisPoints_","type":"uint16","internalType":"uint16"},{"name":"newProjectSellTaxBasisPoints_","type":"uint16","internalType":"uint16"}],"outputs":[],"stateMutability":"nonpayable"},{"type":"function","name":"setProjectTaxRecipient","inputs":[{"name":"projectTaxRecipient_","type":"address","internalType":"address"}],"outputs":[],"stateMutability":"nonpayable"},{"type":"function","name":"setSwapThresholdBasisPoints","inputs":[{"name":"swapThresholdBasisPoints_","type":"uint16","internalType":"uint16"}],"outputs":[],"stateMutability":"nonpayable"},{"type":"function","name":"swapThresholdBasisPoints","inputs":[],"outputs":[{"name":"","type":"uint16","internalType":"uint16"}],"stateMutability":"view"},{"type":"function","name":"symbol","inputs":[],"outputs":[{"name":"","type":"string","internalType":"string"}],"stateMutability":"view"},{"type":"function","name":"totalBuyTaxBasisPoints","inputs":[],"outputs":[{"name":"","type":"uint256","internalType":"uint256"}],"stateMutability":"view"},{"type":"function","name":"totalSellTaxBasisPoints","inputs":[],"outputs":[{"name":"","type":"uint256","internalType":"uint256"}],"stateMutability":"view"},{"type":"function","name":"totalSupply","inputs":[],"outputs":[{"name":"","type":"uint256","internalType":"uint256"}],"stateMutability":"view"},{"type":"function","name":"transfer","inputs":[{"name":"to","type":"address","internalType":"address"},{"name":"amount","type":"uint256","internalType":"uint256"}],"outputs":[{"name":"","type":"bool","internalType":"bool"}],"stateMutability":"nonpayable"},{"type":"function","name":"transferFrom","inputs":[{"name":"from","type":"address","internalType":"address"},{"name":"to","type":"address","internalType":"address"},{"name":"amount","type":"uint256","internalType":"uint256"}],"outputs":[{"name":"","type":"bool","internalType":"bool"}],"stateMutability":"nonpayable"},{"type":"function","name":"transferOwnership","inputs":[{"name":"newOwner","type":"address","internalType":"address"}],"outputs":[],"stateMutability":"nonpayable"},{"type":"function","name":"uniswapV2Pair","inputs":[],"outputs":[{"name":"","type":"address","internalType":"address"}],"stateMutability":"view"},{"type":"function","name":"validCallers","inputs":[],"outputs":[{"name":"validCallerHashes_","type":"bytes32[]","internalType":"bytes32[]"}],"stateMutability":"view"},{"type":"function","name":"vault","inputs":[],"outputs":[{"name":"","type":"address","internalType":"address"}],"stateMutability":"view"},{"type":"function","name":"withdrawERC20","inputs":[{"name":"token_","type":"address","internalType":"address"},{"name":"amount_","type":"uint256","internalType":"uint256"}],"outputs":[],"stateMutability":"nonpayable"},{"type":"function","name":"withdrawETH","inputs":[{"name":"amount_","type":"uint256","internalType":"uint256"}],"outputs":[],"stateMutability":"nonpayable"},{"type":"event","name":"Approval","inputs":[{"name":"owner","type":"address","indexed":true,"internalType":"address"},{"name":"spender","type":"address","indexed":true,"internalType":"address"},{"name":"value","type":"uint256","indexed":false,"internalType":"uint256"}],"anonymous":false},{"type":"event","name":"AutoSwapThresholdUpdated","inputs":[{"name":"oldThreshold","type":"uint256","indexed":false,"internalType":"uint256"},{"name":"newThreshold","type":"uint256","indexed":false,"internalType":"uint256"}],"anonymous":false},{"type":"event","name":"ExternalCallError","inputs":[{"name":"identifier","type":"uint256","indexed":false,"internalType":"uint256"}],"anonymous":false},{"type":"event","name":"InitialLiquidityAdded","inputs":[{"name":"tokenA","type":"uint256","indexed":false,"internalType":"uint256"},{"name":"tokenB","type":"uint256","indexed":false,"internalType":"uint256"},{"name":"lpToken","type":"uint256","indexed":false,"internalType":"uint256"}],"anonymous":false},{"type":"event","name":"Initialized","inputs":[{"name":"version","type":"uint64","indexed":false,"internalType":"uint64"}],"anonymous":false},{"type":"event","name":"LimitsUpdated","inputs":[{"name":"oldMaxTokensPerTransaction","type":"uint256","indexed":false,"internalType":"uint256"},{"name":"newMaxTokensPerTransaction","type":"uint256","indexed":false,"internalType":"uint256"},{"name":"oldMaxTokensPerWallet","type":"uint256","indexed":false,"internalType":"uint256"},{"name":"newMaxTokensPerWallet","type":"uint256","indexed":false,"internalType":"uint256"}],"anonymous":false},{"type":"event","name":"LiquidityPoolAdded","inputs":[{"name":"addedPool","type":"address","indexed":false,"internalType":"address"}],"anonymous":false},{"type":"event","name":"LiquidityPoolCreated","inputs":[{"name":"addedPool","type":"address","indexed":false,"internalType":"address"}],"anonymous":false},{"type":"event","name":"LiquidityPoolRemoved","inputs":[{"name":"removedPool","type":"address","indexed":false,"internalType":"address"}],"anonymous":false},{"type":"event","name":"OwnershipTransferStarted","inputs":[{"name":"previousOwner","type":"address","indexed":true,"internalType":"address"},{"name":"newOwner","type":"address","indexed":true,"internalType":"address"}],"anonymous":false},{"type":"event","name":"OwnershipTransferred","inputs":[{"name":"previousOwner","type":"address","indexed":true,"internalType":"address"},{"name":"newOwner","type":"address","indexed":true,"internalType":"address"}],"anonymous":false},{"type":"event","name":"ProjectTaxBasisPointsChanged","inputs":[{"name":"oldBuyBasisPoints","type":"uint256","indexed":false,"internalType":"uint256"},{"name":"newBuyBasisPoints","type":"uint256","indexed":false,"internalType":"uint256"},{"name":"oldSellBasisPoints","type":"uint256","indexed":false,"internalType":"uint256"},{"name":"newSellBasisPoints","type":"uint256","indexed":false,"internalType":"uint256"}],"anonymous":false},{"type":"event","name":"ProjectTaxRecipientUpdated","inputs":[{"name":"treasury","type":"address","indexed":false,"internalType":"address"}],"anonymous":false},{"type":"event","name":"RevenueAutoSwap","inputs":[],"anonymous":false},{"type":"event","name":"Transfer","inputs":[{"name":"from","type":"address","indexed":true,"internalType":"address"},{"name":"to","type":"address","indexed":true,"internalType":"address"},{"name":"value","type":"uint256","indexed":false,"internalType":"uint256"}],"anonymous":false},{"type":"event","name":"ValidCallerAdded","inputs":[{"name":"addedValidCaller","type":"bytes32","indexed":false,"internalType":"bytes32"}],"anonymous":false},{"type":"event","name":"ValidCallerRemoved","inputs":[{"name":"removedValidCaller","type":"bytes32","indexed":false,"internalType":"bytes32"}],"anonymous":false},{"type":"error","name":"AdapterParamsMustBeEmpty","inputs":[]},{"type":"error","name":"AdditionToPoolIsBelowPerTransactionMinimum","inputs":[]},{"type":"error","name":"AdditionToPoolWouldExceedPerAddressCap","inputs":[]},{"type":"error","name":"AdditionToPoolWouldExceedPoolCap","inputs":[]},{"type":"error","name":"AddressAlreadySet","inputs":[]},{"type":"error","name":"AddressEmptyCode","inputs":[{"name":"target","type":"address","internalType":"address"}]},{"type":"error","name":"AddressInsufficientBalance","inputs":[{"name":"account","type":"address","internalType":"address"}]},{"type":"error","name":"AllowanceDecreasedBelowZero","inputs":[]},{"type":"error","name":"AlreadyInitialised","inputs":[]},{"type":"error","name":"ApprovalCallerNotOwnerNorApproved","inputs":[]},{"type":"error","name":"ApprovalQueryForNonexistentToken","inputs":[]},{"type":"error","name":"ApproveFromTheZeroAddress","inputs":[]},{"type":"error","name":"ApproveToTheZeroAddress","inputs":[]},{"type":"error","name":"AuctionStatusIsNotEnded","inputs":[]},{"type":"error","name":"AuctionStatusIsNotOpen","inputs":[]},{"type":"error","name":"AuxCallFailed","inputs":[{"name":"modules","type":"address[]","internalType":"address[]"},{"name":"value","type":"uint256","internalType":"uint256"},{"name":"data","type":"bytes","internalType":"bytes"},{"name":"txGas","type":"uint256","internalType":"uint256"}]},{"type":"error","name":"BalanceMismatch","inputs":[]},{"type":"error","name":"BalanceQueryForZeroAddress","inputs":[]},{"type":"error","name":"BidMustBeBelowTheFloorForRefundDuringAuction","inputs":[]},{"type":"error","name":"BidMustBeBelowTheFloorWhenReducingQuantity","inputs":[]},{"type":"error","name":"BondingCurveError","inputs":[{"name":"error","type":"uint8","internalType":"enum IErrors.BondingCurveErrorType"}]},{"type":"error","name":"BurnExceedsBalance","inputs":[]},{"type":"error","name":"BurnFromTheZeroAddress","inputs":[]},{"type":"error","name":"CallerIsNotAdminNorFactory","inputs":[]},{"type":"error","name":"CallerIsNotDepositBoxOwner","inputs":[]},{"type":"error","name":"CallerIsNotFactory","inputs":[]},{"type":"error","name":"CallerIsNotFactoryOrProjectOwner","inputs":[]},{"type":"error","name":"CallerIsNotFactoryProjectOwnerOrPool","inputs":[]},{"type":"error","name":"CallerIsNotPlatformAdmin","inputs":[{"name":"caller","type":"address","internalType":"address"}]},{"type":"error","name":"CallerIsNotSuperAdmin","inputs":[{"name":"caller","type":"address","internalType":"address"}]},{"type":"error","name":"CallerIsNotTheManager","inputs":[]},{"type":"error","name":"CallerIsNotTheOwner","inputs":[]},{"type":"error","name":"CallerMustBeLzApp","inputs":[]},{"type":"error","name":"CanOnlyReduce","inputs":[]},{"type":"error","name":"CannotAddLiquidityOnCreateAndUseDRIPool","inputs":[]},{"type":"error","name":"CannotSetNewManagerToTheZeroAddress","inputs":[]},{"type":"error","name":"CannotSetNewOwnerToTheZeroAddress","inputs":[]},{"type":"error","name":"CannotSetToZeroAddress","inputs":[]},{"type":"error","name":"CannotWithdrawThisToken","inputs":[]},{"type":"error","name":"CollectionAlreadyRevealed","inputs":[]},{"type":"error","name":"ContractIsDecommissioned","inputs":[]},{"type":"error","name":"ContractIsNotPaused","inputs":[]},{"type":"error","name":"ContractIsPaused","inputs":[]},{"type":"error","name":"DecreasedAllowanceBelowZero","inputs":[]},{"type":"error","name":"DeployerOnly","inputs":[]},{"type":"error","name":"DeploymentError","inputs":[]},{"type":"error","name":"DepositBoxIsNotOpen","inputs":[]},{"type":"error","name":"DestinationIsNotTrustedSource","inputs":[]},{"type":"error","name":"DriPoolAddressCannotBeAddressZero","inputs":[]},{"type":"error","name":"FailedInnerCall","inputs":[]},{"type":"error","name":"GasLimitIsTooLow","inputs":[]},{"type":"error","name":"IncorrectConfirmationValue","inputs":[]},{"type":"error","name":"IncorrectPayment","inputs":[]},{"type":"error","name":"InitialLiquidityAlreadyAdded","inputs":[]},{"type":"error","name":"InitialLiquidityNotYetAdded","inputs":[]},{"type":"error","name":"InsufficientAllowance","inputs":[]},{"type":"error","name":"InvalidAdapterParams","inputs":[]},{"type":"error","name":"InvalidAddress","inputs":[]},{"type":"error","name":"InvalidEndpointCaller","inputs":[]},{"type":"error","name":"InvalidInitialization","inputs":[]},{"type":"error","name":"InvalidMinGas","inputs":[]},{"type":"error","name":"InvalidOracleSignature","inputs":[]},{"type":"error","name":"InvalidPayload","inputs":[]},{"type":"error","name":"InvalidReceiver","inputs":[]},{"type":"error","name":"InvalidSourceSendingContract","inputs":[]},{"type":"error","name":"InvalidTotalShares","inputs":[]},{"type":"error","name":"LPLockUpMustFitUint88","inputs":[]},{"type":"error","name":"LimitsCanOnlyBeRaised","inputs":[]},{"type":"error","name":"LiquidityPoolCannotBeAddressZero","inputs":[]},{"type":"error","name":"LiquidityPoolMustBeAContractAddress","inputs":[]},{"type":"error","name":"ListLengthMismatch","inputs":[]},{"type":"error","name":"MachineAddressCannotBeAddressZero","inputs":[]},{"type":"error","name":"ManagerUnauthorizedAccount","inputs":[]},{"type":"error","name":"MaxBidQuantityIs255","inputs":[]},{"type":"error","name":"MaxPublicMintAllowanceExceeded","inputs":[{"name":"requested","type":"uint256","internalType":"uint256"},{"name":"alreadyMinted","type":"uint256","internalType":"uint256"},{"name":"maxAllowance","type":"uint256","internalType":"uint256"}]},{"type":"error","name":"MaxSupplyTooHigh","inputs":[]},{"type":"error","name":"MaxTokensPerTxnExceeded","inputs":[]},{"type":"error","name":"MaxTokensPerWalletExceeded","inputs":[]},{"type":"error","name":"MetadataIsLocked","inputs":[]},{"type":"error","name":"MinGasLimitNotSet","inputs":[]},{"type":"error","name":"MintERC2309QuantityExceedsLimit","inputs":[]},{"type":"error","name":"MintToZeroAddress","inputs":[]},{"type":"error","name":"MintZeroQuantity","inputs":[]},{"type":"error","name":"MintingIsClosedForever","inputs":[]},{"type":"error","name":"NewBuyTaxBasisPointsExceedsMaximum","inputs":[]},{"type":"error","name":"NewSellTaxBasisPointsExceedsMaximum","inputs":[]},{"type":"error","name":"NoETHForLiquidityPair","inputs":[]},{"type":"error","name":"NoPaymentDue","inputs":[]},{"type":"error","name":"NoRefundForCaller","inputs":[]},{"type":"error","name":"NoStoredMessage","inputs":[]},{"type":"error","name":"NoTokenForLiquidityPair","inputs":[]},{"type":"error","name":"NoTrustedPathRecord","inputs":[]},{"type":"error","name":"NotInitializing","inputs":[]},{"type":"error","name":"NothingToClaim","inputs":[]},{"type":"error","name":"OperationDidNotSucceed","inputs":[]},{"type":"error","name":"OracleSignatureHasExpired","inputs":[]},{"type":"error","name":"OwnableInvalidOwner","inputs":[{"name":"owner","type":"address","internalType":"address"}]},{"type":"error","name":"OwnableUnauthorizedAccount","inputs":[{"name":"account","type":"address","internalType":"address"}]},{"type":"error","name":"OwnerQueryForNonexistentToken","inputs":[]},{"type":"error","name":"OwnershipNotInitializedForExtraData","inputs":[]},{"type":"error","name":"ParamTooLargeEndDate","inputs":[]},{"type":"error","name":"ParamTooLargeMinETH","inputs":[]},{"type":"error","name":"ParamTooLargePerAddressMax","inputs":[]},{"type":"error","name":"ParamTooLargePoolPerTxnMinETH","inputs":[]},{"type":"error","name":"ParamTooLargePoolSupply","inputs":[]},{"type":"error","name":"ParamTooLargeStartDate","inputs":[]},{"type":"error","name":"ParamTooLargeVestingDays","inputs":[]},{"type":"error","name":"ParametersDoNotMatchSignedMessage","inputs":[]},{"type":"error","name":"PassedConfigDoesNotMatchApproved","inputs":[]},{"type":"error","name":"PauseCutOffHasPassed","inputs":[]},{"type":"error","name":"PaymentMustCoverPerMintFee","inputs":[]},{"type":"error","name":"PermitDidNotSucceed","inputs":[]},{"type":"error","name":"PlatformAdminCannotBeAddressZero","inputs":[]},{"type":"error","name":"PlatformTreasuryCannotBeAddressZero","inputs":[]},{"type":"error","name":"PoolIsAboveMinimum","inputs":[]},{"type":"error","name":"PoolIsBelowMinimum","inputs":[]},{"type":"error","name":"PoolPhaseIsClosed","inputs":[]},{"type":"error","name":"PoolPhaseIsNotAfter","inputs":[]},{"type":"error","name":"PoolVestingNotYetComplete","inputs":[]},{"type":"error","name":"ProjectOwnerCannotBeAddressZero","inputs":[]},{"type":"error","name":"ProofInvalid","inputs":[]},{"type":"error","name":"QuantityExceedsMaxPossibleCollectionSupply","inputs":[]},{"type":"error","name":"QuantityExceedsRemainingCollectionSupply","inputs":[]},{"type":"error","name":"QuantityExceedsRemainingPhaseSupply","inputs":[]},{"type":"error","name":"ReferralIdAlreadyUsed","inputs":[]},{"type":"error","name":"RequestingMoreThanAvailableBalance","inputs":[]},{"type":"error","name":"RequestingMoreThanRemainingAllocation","inputs":[{"name":"previouslyMinted","type":"uint256","internalType":"uint256"},{"name":"requested","type":"uint256","internalType":"uint256"},{"name":"remainingAllocation","type":"uint256","internalType":"uint256"}]},{"type":"error","name":"RoyaltyFeeWillExceedSalePrice","inputs":[]},{"type":"error","name":"SafeERC20FailedOperation","inputs":[{"name":"token","type":"address","internalType":"address"}]},{"type":"error","name":"ShareTotalCannotBeZero","inputs":[]},{"type":"error","name":"SliceOutOfBounds","inputs":[]},{"type":"error","name":"SliceOverflow","inputs":[]},{"type":"error","name":"SuperAdminCannotBeAddressZero","inputs":[]},{"type":"error","name":"SupplyTotalMismatch","inputs":[]},{"type":"error","name":"SupportWindowIsNotOpen","inputs":[]},{"type":"error","name":"TaxFreeAddressCannotBeAddressZero","inputs":[]},{"type":"error","name":"TaxPeriodStillInForce","inputs":[]},{"type":"error","name":"TemplateCannotBeAddressZero","inputs":[]},{"type":"error","name":"TemplateNotFound","inputs":[]},{"type":"error","name":"ThisMintIsClosed","inputs":[]},{"type":"error","name":"TotalSharesMustMatchDenominator","inputs":[]},{"type":"error","name":"TransferAmountExceedsBalance","inputs":[]},{"type":"error","name":"TransferCallerNotOwnerNorApproved","inputs":[]},{"type":"error","name":"TransferFailed","inputs":[]},{"type":"error","name":"TransferFromIncorrectOwner","inputs":[]},{"type":"error","name":"TransferFromZeroAddress","inputs":[]},{"type":"error","name":"TransferToBlacklistedAddress","inputs":[]},{"type":"error","name":"TransferToNonERC721ReceiverImplementer","inputs":[]},{"type":"error","name":"TransferToZeroAddress","inputs":[]},{"type":"error","name":"URIQueryForNonexistentToken","inputs":[]},{"type":"error","name":"UnrecognisedVRFMode","inputs":[]},{"type":"error","name":"VRFCoordinatorCannotBeAddressZero","inputs":[]},{"type":"error","name":"ValueExceedsMaximum","inputs":[]}],"bytecode":{"object":"0x6080806040523460d0577ff0c57e16840df040f15088dc2f81fe391c3923bec73e23a9662efc9c229c6a005460ff8160401c1660c1576002600160401b03196001600160401b03821601605c575b6040516132fd90816100d58239f35b6001600160401b0319166001600160401b039081177ff0c57e16840df040f15088dc2f81fe391c3923bec73e23a9662efc9c229c6a005581527fc7f505b2f371ae2175ee4913f4499e1f2633a7b5936321eed1cdaeb6115181d290602090a15f80604d565b63f92ee8a960e01b5f5260045ffd5b5f80fdfe608080604052600436101561001c575b50361561001a575f80fd5b005b5f3560e01c908163038272b6146120f15750806306fdde031461205f578063095ea7b31461203957806310b828c91461201357806316c0212914611fd657806318160ddd14611fb957806323b872dd14611f665780632d405ede14611ef35780632ead095514611ea0578063313ce56714611e85578063326b3b8b14611de05780633950935114611d925780633de35b7914611d6a57806342966c6814611d4d57806349bd5a5e14611d265780634bed5ad214611d0257806359cabbe41461184557806363a9c1f21461182857806370a08231146117f0578063715018a61461177357806379ba50971461172757806379cc6790146116f757806384b1df5214610d4f5780638589287a14610cd55780638da5cb5b14610ca1578063900ce6ba14610c2b578063936b293414610b0657806395d89b4114610a435780639808751d146109a4578063a1db9782146108a0578063a457c2d714610841578063a45cae0214610376578063a9059cbb146107ee578063ae22107f14610764578063b0d750971461073e578063b2c5c9eb1461071a578063b498d39f14610664578063bfe3098f14610638578063d6efd7c3146105ac578063dd62ed3e1461055c578063e30c397814610528578063e37d9e95146104ae578063e85455d714610481578063ea8b242414610459578063ee6a934c1461039a578063eeae0f9714610376578063f14210a6146102f3578063f2fde38b1461026f5763fbfa77cf14610243575f61000f565b3461026b575f36600319011261026b576006546040516001600160a01b039091168152602090f35b5f80fd5b3461026b57602036600319011261026b5761028861213c565b610290612d91565b5f805160206132a883398151915280546001600160a01b0319166001600160a01b039283169081179091555f80516020613208833981519152549091167f38d16b8cac22d99fc7c124b9cd0de2d3fa1faef420bfe791d8c362d765e227005f80a3005b3461026b57602036600319011261026b575f80516020613208833981519152546001600160a01b031633141580610361575b610352575f808080600435335af161033b6122d2565b501561034357005b6312171d8360e31b5f5260045ffd5b63faa39fbf60e01b5f5260045ffd5b506010546001600160a01b0316331415610325565b3461026b575f36600319011261026b57602061ffff60025460c81c16604051908152f35b3461026b57602036600319011261026b576103b361213c565b5f80516020613208833981519152546001600160a01b031633141580610444575b610352576001600160a01b038116908115610435573b156104265760208161041c7fb893f883ef734b712208a877459424ee509832c57e0461fb1ac99ed4d42f2d89936130e7565b50604051908152a1005b630f9da0c760e41b5f5260045ffd5b63b47cdee560e01b5f5260045ffd5b506010546001600160a01b03163314156103d4565b3461026b575f36600319011261026b576004546040516001600160a01b039091168152602090f35b3461026b57602036600319011261026b5760206104a461049f61213c565b6122a3565b6040519015158152f35b3461026b57602036600319011261026b5760043560018060a01b035f80516020613208833981519152541633141580610513575b6103525760208161041c7ff7d7abaf8b0e82705f2ef671054dd11a306d870da0bbb8be1ff24bd0096de7ba9361313c565b506010546001600160a01b03163314156104e2565b3461026b575f36600319011261026b575f805160206132a8833981519152546040516001600160a01b039091168152602090f35b3461026b57604036600319011261026b5761057561213c565b61057d612152565b6001600160a01b039182165f908152600b60209081526040808320949093168252928352819020549051908152f35b3461026b575f36600319011261026b57604051806020600e54918281520190600e5f527fbb7b4a454dc3493923482f07822329ed19e8244eff582cc204f8554c3620c3fd905f5b8181106106225761061e8561060a81870382612179565b6040519182916020835260208301906121fb565b0390f35b82548452602090930192600192830192016105f3565b3461026b57602036600319011261026b576004355f52600d602052602060405f20541515604051908152f35b3461026b575f36600319011261026b57604051806020600c5492838152018092600c5f527fdf6966c971051c3d54ec59162606531493a51404a002842f56009d7e5cf4a8c7905f5b81811061070457505050816106c2910382612179565b604051918291602083019060208452518091526040830191905f5b8181106106eb575050500390f35b82518452859450602093840193909201916001016106dd565b82548452602090930192600192830192016106ac565b3461026b575f36600319011261026b57602061ffff60025460d81c16604051908152f35b3461026b575f36600319011261026b5760206001600160801b0360055416604051908152f35b3461026b57602036600319011261026b5761077d61213c565b5f80516020613208833981519152546001600160a01b0316331415806107d9575b610352577f59c3fbcae88f30e9b0e35c132a7f68c53231dffa4722f197c7ecb0ee013eee60906020906001600160a01b031661041c8161303c565b506010546001600160a01b031633141561079e565b3461026b57604036600319011261026b5761082561080a61213c565b610813336122a3565b908115610830575b6024359033612926565b602060405160018152f35b905061083b816122a3565b9061081b565b3461026b57604036600319011261026b5761085a61213c565b60243590335f52600b60205260405f2060018060a01b0382165f5260205260405f2054918083106108915761082592039033612301565b637b5591b560e11b5f5260045ffd5b3461026b57604036600319011261026b576108b961213c565b5f80516020613208833981519152546001600160a01b03163314158061098f575b610352576001600160a01b03163081146109805760405163a9059cbb60e01b602082019081523360248084019190915235604480840191909152825261093e915f918291610929606482612179565b519082865af16109376122d2565b90836131a9565b8051908115159182610965575b505061095357005b635274afe760e01b5f5260045260245ffd5b6109789250602080918301019101612d79565b15828061094b565b63992501b360e01b5f5260045ffd5b506010546001600160a01b03163314156108da565b3461026b57602036600319011261026b576109bd61213c565b5f80516020613208833981519152546001600160a01b031633141580610a2e575b61035257600480546001600160a01b0319166001600160a01b0390921691821790556040519081527fa4eea51cd2f21eac6612ba054a363ae2fd59698fc258ab414313cd73f69f2b8590602090a1005b506010546001600160a01b03163314156109de565b3461026b575f36600319011261026b576040515f600854610a6381612237565b8084529060018116908115610ae25750600114610a97575b61061e83610a8b81850382612179565b60405191829182612112565b91905060085f525f80516020613248833981519152915f905b808210610ac857509091508101602001610a8b610a7b565b919260018160209254838588010152019101909291610ab0565b60ff191660208086019190915291151560051b84019091019150610a8b9050610a7b565b3461026b57604036600319011261026b57610b1f612168565b6024359061ffff82169081830361026b575f80516020613208833981519152546001600160a01b031633141580610c16575b610352576002549161ffff60c81b8260c81b169361ffff60d81b9060d81b1692838563ffffffff60c81b198316171761ffff808260d81c169160c81c16019061ffff8211610c02577f8da1f77a22734510b762a9625e69e737d7c0cc48984e810e5802fb341eb80a3e9560809560ff61ffff8095161515169160ff63ffffffff60c81b011984161717176002558160405194818360c81c16865216602085015260d81c1660408301526060820152a1005b634e487b7160e01b5f52601160045260245ffd5b506010546001600160a01b0316331415610b51565b3461026b57602036600319011261026b57610c4461213c565b5f80516020613208833981519152546001600160a01b031633141580610c8c575b610352576001600160a01b03165f908152601160205260409020805460ff19166001179055005b506010546001600160a01b0316331415610c65565b3461026b575f36600319011261026b575f80516020613208833981519152546040516001600160a01b039091168152602090f35b3461026b57602036600319011261026b5760043560018060a01b035f80516020613208833981519152541633141580610d3a575b6103525760208161041c7fdd5aeaec2032ed464aed048b9014721d48de827cef3d77f78f0a76f1f0136dd493612f61565b506010546001600160a01b0316331415610d09565b3461026b5760c036600319011261026b57366023121561026b57604051606081018181106001600160401b0382111761149157604052803660641161026b576004905b606482106116d757826064356001600160401b03811161026b57610dba9036906004016121b5565b906084356001600160401b03811161026b57610dda9036906004016121b5565b9060a4356001600160401b03811161026b57610dfa9036906004016121b5565b905f80516020613288833981519152549360ff8560401c1615946001600160401b038116801590816116cf575b60011490816116c5575b1590816116bc575b506116ad5767ffffffffffffffff1981166001175f805160206132888339815191525585611681575b508151610e77906001600160a01b0316612db1565b80518101906040816020840193031261026b5760208101516001600160401b03811161026b57826020610eac92840101612e1c565b916040820151916001600160401b03831161026b57610ece9201602001612e1c565b8051906001600160401b038211611491578190610eec600854612237565b601f811161160f575b50602090601f831160011461159e575f92611593575b50508160011b915f199060031b1c1916176008555b8051906001600160401b038211611491578190610f3e600754612237565b601f8111611521575b50602090601f83116001146114b0575f926114a5575b50508160011b915f199060031b1c1916176007555b602081015160028054610100600160a81b03191660089290921b610100600160a81b031691909117905560400151600380546001600160a01b0319166001600160a01b0392909216919091179055815160e09083018390031261026b5760405160e081018181106001600160401b03821117611491576040526020830151815260408301519160208201928352606084015192604083019384526080850151606084015260a0850151608084015261103860e060c08701519660a086019788520161227c565b60c0840190815260808380518101031261026b5760405190608082018281106001600160401b038211176114915760405260208401518252604084015160208301526110926080606086015195604085019687520161227c565b946060830195865280516110a9885186519061226f565b03611482576001600160801b0390511161147357611107926110fd9160018060a01b039051166001600160601b0360a01b6006541617600655516110f6670de0b6b3a76400008092612290565b9651612290565b9551600155612e62565b15159060ff6002549161ffff60e81b905160e81b1692169061010062ff000160e81b0316171760025560018060a01b039051166001600160601b0360a01b600454161760045580611463575b5080611447575b5060025460405163c45a015560e01b81529060081c6001600160a01b0316602082600481845afa918215611380575f9261140b575b5060035460405163e6a4390560e01b81523060048201526001600160a01b0391821660248201819052909390929160209185916044918391165afa928315611380575f936113cf575b506001600160a01b03831615611293575b50506001600160a01b03166111fd816130e7565b506001600160601b0360a01b5f5416175f55336001600160601b0360a01b6010541617601055600160a01b60ff60a01b19600354161760035561123c57005b68ff0000000000000000195f8051602061328883398151915254165f80516020613288833981519152557fc7f505b2f371ae2175ee4913f4499e1f2633a7b5936321eed1cdaeb6115181d2602060405160018152a1005b60405163c45a015560e01b81529250602090839060049082905afa918215611380575f9261138b575b506040516364e329cb60e11b81523060048201526001600160a01b039091166024820152906020908290815f81604481015b03926001600160a01b03165af1908115611380575f91611346575b506040516001600160a01b03821681527f969ffc8569f9af3993220e04ac05164e5db4e3d9f8b1a47f64e7de9a04b8ea2f90602090a182806111e9565b90506020813d602011611378575b8161136160209383612179565b8101031261026b576113729061227c565b82611309565b3d9150611354565b6040513d5f823e3d90fd5b91506020823d6020116113c7575b816113a660209383612179565b8101031261026b576112ee6020916113be5f9461227c565b935091506112bc565b3d9150611399565b9092506020813d602011611403575b816113eb60209383612179565b8101031261026b576113fc9061227c565b91846111d8565b3d91506113de565b9091506020813d60201161143f575b8161142760209383612179565b8101031261026b576114389061227c565b908361118f565b3d915061141a565b60065461145d91906001600160a01b0316612ed6565b8161115a565b61146d9030612ed6565b82611153565b637f47720f60e11b5f5260045ffd5b6361cf53d560e01b5f5260045ffd5b634e487b7160e01b5f52604160045260245ffd5b015190508680610f5d565b60075f9081525f805160206132288339815191529350601f198516905b81811061150957509084600195949392106114f1575b505050811b01600755610f72565b01515f1960f88460031b161c191690558680806114e3565b929360206001819287860151815501950193016114cd565b90915060075f52601f830160051c5f8051602061322883398151915201906020841061157e575b90601f8493920160051c5f8051602061322883398151915201905b8181106115705750610f47565b5f8155849350600101611563565b5f805160206132288339815191529150611548565b015190508780610f0b565b60085f9081525f805160206132488339815191529350601f198516905b8181106115f757509084600195949392106115df575b505050811b01600855610f20565b01515f1960f88460031b161c191690558780806115d1565b929360206001819287860151815501950193016115bb565b90915060085f52601f830160051c5f8051602061324883398151915201906020841061166c575b90601f8493920160051c5f8051602061324883398151915201905b81811061165e5750610ef5565b5f8155849350600101611651565b5f805160206132488339815191529150611636565b68ffffffffffffffffff191668010000000000000001175f805160206132888339815191525585610e62565b63f92ee8a960e01b5f5260045ffd5b90501587610e39565b303b159150610e31565b879150610e27565b81356001600160a01b038116810361026b57815260209182019101610d92565b3461026b57604036600319011261026b5761001a61171361213c565b60243590611722823383612364565b612cfc565b3461026b575f36600319011261026b575f805160206132a883398151915254336001600160a01b03909116036117605761001a33612db1565b63118cdaa760e01b5f523360045260245ffd5b3461026b575f36600319011261026b5761178b612d91565b5f805160206132a883398151915280546001600160a01b03199081169091555f80516020613208833981519152805491821690555f906001600160a01b03167f8be0079c531659141344cd1fd0a4f28419497f9722a3daafe3b4186f6b6457e08280a3005b3461026b57602036600319011261026b576001600160a01b0361181161213c565b165f52600a602052602060405f2054604051908152f35b3461026b575f36600319011261026b576020600154604051908152f35b3461026b57602036600319011261026b5761185e61213c565b5f80516020613208833981519152546001600160a01b031633141580611ced575b6103525760025463ffffffff8160a81c16611cde5763ffffffff60a81b19164260a81b63ffffffff60a81b16176002819055305f908152600a602052604090205415611ccf5760081c6001600160a01b03163015611cc0578015611cb157305f52600b60205260405f2060018060a01b0382165f5260205260405f205f1990556040515f1981527f8c5be1e5ebec7d5bd14f71427d1e84f3dd0314c0f7b2291e5b200ac8c7c3b92560203092a360035460025460405163095ea7b360e01b81526001600160a01b0360089290921c821660048201525f19602482015291602091839160449183915f91165af1801561138057611c94575b5060025460405163c45a015560e01b8152906020908290600490829060081c6001600160a01b03165afa908115611380575f91611c5a575b5060035460405163e6a4390560e01b81523060048201526001600160a01b0391821660248201819052939092909160209184916044918391165afa918215611380575f92611c1e575b50305f52600a6020526024602060405f205494604051928380926370a0823160e01b82523060048301525afa908115611380575f91611bec575b50611a3d8484306123d3565b60035460405163a9059cbb60e01b81526001600160a01b03858116600483015260248201849052909491602091869160449183915f91165af1908115611380575f94602092611bd1575b506040516335313c2160e11b815230600482015294859160249183916001600160a01b03165af1928315611380575f93611b7b575b50907fbf59dda00152e02f20e18cab7307c8afe0714e7f69cf24a1377cbbddcb40f9bb6060611b43956020959460405191825286820152846040820152a16003805460ff60a01b191690555f805460405163a9059cbb60e01b81526001600160a01b0393841660048201526024810194909452929485939092169183919082906044820190565b03925af1801561138057611b5357005b61001a9060203d602011611b74575b611b6c8183612179565b810190612d79565b503d611b62565b9250906020833d602011611bc9575b81611b9760209383612179565b8101031261026b57915191907fbf59dda00152e02f20e18cab7307c8afe0714e7f69cf24a1377cbbddcb40f9bb611abc565b3d9150611b8a565b611be790833d8511611b7457611b6c8183612179565b611a87565b90506020813d602011611c16575b81611c0760209383612179565b8101031261026b575184611a31565b3d9150611bfa565b9091506020813d602011611c52575b81611c3a60209383612179565b8101031261026b57611c4b9061227c565b90836119f7565b3d9150611c2d565b90506020813d602011611c8c575b81611c7560209383612179565b8101031261026b57611c869061227c565b826119ae565b3d9150611c68565b611cac9060203d602011611b7457611b6c8183612179565b611976565b63b2fa1ef360e01b5f5260045ffd5b6356fdae6560e11b5f5260045ffd5b6330d86fb160e11b5f5260045ffd5b63b1f3376760e01b5f5260045ffd5b506010546001600160a01b031633141561187f565b3461026b575f36600319011261026b57602061ffff60025460e81c16604051908152f35b3461026b575f36600319011261026b575f546040516001600160a01b039091168152602090f35b3461026b57602036600319011261026b5761001a60043533612cfc565b3461026b575f36600319011261026b576003546040516001600160a01b039091168152602090f35b3461026b57604036600319011261026b57610825611dae61213c565b335f52600b60205260405f2060018060a01b0382165f52602052611dd960405f20602435905461226f565b9033612301565b3461026b57602036600319011261026b57611df9612168565b5f80516020613208833981519152546001600160a01b031633141580611e70575b6103525760407fe4351c45b53ffb7ebad0b66cc0f1a3dfe2963c099421eeaded141104df39206a9161ffff600254918160e81b8160e81b168260e81b198416176002558184519360e81c168352166020820152a1005b506010546001600160a01b0316331415611e1a565b3461026b575f36600319011261026b57602060405160128152f35b3461026b575f36600319011261026b576005546001600160801b03811680611ec457005b6fffffffffffffffffffffffffffffffff1990911660055560045461001a91906001600160a01b0316306123d3565b3461026b57602036600319011261026b57611f0c61213c565b5f80516020613208833981519152546001600160a01b031633141580611f51575b610352576001600160a01b03165f908152601160205260409020805460ff19169055005b506010546001600160a01b0316331415611f2d565b3461026b57606036600319011261026b57610825611f8261213c565b611f8a612152565b60443590611f99823385612364565b611fa2836122a3565b9283612926579250611fb3816122a3565b92612926565b3461026b575f36600319011261026b576020600954604051908152f35b3461026b57602036600319011261026b576001600160a01b03611ff761213c565b165f526011602052602060ff60405f2054166040519015158152f35b3461026b575f36600319011261026b57602063ffffffff60025460a81c16604051908152f35b3461026b57604036600319011261026b5761082561205561213c565b6024359033612301565b3461026b575f36600319011261026b576040515f60075461207f81612237565b8084529060018116908115610ae257506001146120a65761061e83610a8b81850382612179565b91905060075f525f80516020613228833981519152915f905b8082106120d757509091508101602001610a8b610a7b565b9192600181602092548385880101520191019092916120bf565b3461026b575f36600319011261026b5760209061ffff60025460d81c168152f35b602060409281835280519182918282860152018484015e5f828201840152601f01601f1916010190565b600435906001600160a01b038216820361026b57565b602435906001600160a01b038216820361026b57565b6004359061ffff8216820361026b57565b90601f801991011681019081106001600160401b0382111761149157604052565b6001600160401b03811161149157601f01601f191660200190565b81601f8201121561026b578035906121cc8261219a565b926121da6040519485612179565b8284526020838301011161026b57815f926020809301838601378301015290565b90602080835192838152019201905f5b8181106122185750505090565b82516001600160a01b031684526020938401939092019160010161220b565b90600182811c92168015612265575b602083101461225157565b634e487b7160e01b5f52602260045260245ffd5b91607f1691612246565b91908201809211610c0257565b51906001600160a01b038216820361026b57565b81810292918115918404141715610c0257565b5f546001600160a01b03918216911681149081156122bf575090565b90505f52600f60205260405f2054151590565b3d156122fc573d906122e38261219a565b916122f16040519384612179565b82523d5f602084013e565b606090565b6001600160a01b0316908115611cc0576001600160a01b0316918215611cb15760207f8c5be1e5ebec7d5bd14f71427d1e84f3dd0314c0f7b2291e5b200ac8c7c3b92591835f52600b825260405f20855f5282528060405f2055604051908152a3565b6001600160a01b038082165f908152600b6020908152604080832093861683529290522054929091906001840161239c575b50505050565b8084106123b7576123ae930391612301565b5f808080612396565b6313be252b60e01b5f5260045ffd5b91908203918211610c0257565b6001600160a01b038116801593909291905f90851580612914575b6128e7575b5f546001600160a01b038581169791168714806128dd575b806128ca575b6128bb576128ac57851561289d57845f52600a60205260405f20549381851061288e5760025460ff81166125cd575b5091602093915f80516020613268833981519152959381936002549060ff8216806125c6575b806125b6575b6124aa575b50505061248190604093946123c6565b868252600a855282822055868152600a84522061249f82825461226f565b9055604051908152a3565b6124b485936122a3565b806125a6575b1561253f57505061ffff60025460d81c168061250e575b505b806124e0575b8080612471565b604093509061248191308452600a875284842081815401905584518181528989893093a381039350906124d9565b61271090830204906005546001600160801b038084168183160116906001600160801b03191617600555015f6124d1565b612548906122a3565b80612596575b612559575b506124d3565b60c81c61ffff1680156125535761271091508202046005546001600160801b038083168183160116906001600160801b031916176005555f612553565b5061ffff8160c81c16151561254e565b5061ffff8260d81c1615156124ba565b5060ff60035460a01c161561246c565b5084612466565b305f52600a60205260405f205480916127106125f360095461ffff8460e81c1690612290565b0490818310158061287e575b8061286e575b80612857575b80612840575b80612836575b612624575b505050612440565b6003805460ff60a01b198116600160a01b179091559160148082029180159083049091141715610c025780841161282e575b5060405191612666606084612179565b6002835260403660208501373061267c8461318c565b526001600160a01b031661268f83613199565b526004546001600160a01b0390811692914261025881019260089290921c909116908210610c0257803b1561026b576126f55f809460405196879586948593635c11d79560e01b85528b600486015285602486015260a0604486015260a48501906121fb565b916064840152608483015203925af19081612819575b5061276b57505091602093915f8051602061326883398151915295937f60dc41faad9fe4f70f304dcef26d96d71e98ec8e21e4a340921d94dfe46307dc8660405160058152a15b60ff60a01b19600354166003559193958193955f61261c565b818110156127ed576001600160801b036127946005549361278f8386169485612290565b612eb8565b1690036001600160801b0381116127d9579160209593916001600160801b035f8051602061326883398151915298969416906001600160801b03191617600555612752565b634e487b7160e01b85526011600452602485fd5b505091602093915f8051602061326883398151915295936001600160801b031960055416600555612752565b6128269196505f90612179565b5f945f61270b565b92505f612656565b50308a1415612617565b50600881901c6001600160a01b03168b1415612611565b50600881901c6001600160a01b03168a141561260b565b50612878886122a3565b15612605565b5060ff60035460a01c16156125ff565b635dd58b8b60e01b5f5260045ffd5b633a954ecd60e21b5f5260045ffd5b630b07e54560e11b5f5260045ffd5b630d970b4560e21b5f5260045ffd5b5063ffffffff60025460a81c1615612411565b503086141561240b565b6001600160a01b0384165f9081526011602052604090205460ff16156123f35761346960f11b5f5260045ffd5b506001600160a01b03841615156123ee565b6001600160a01b038116801594909390925f9190861580612cea575b612cbd575b5f546001600160a01b03828116989116881480612cb3575b80612ca0575b6128bb576128ac57861561289d57855f52600a60205260405f20549482861061288e5760025460ff81166129e0575b50918391602095935f8051602061326883398151915297955082946002549160ff831690816129d8575b50806125b6576124aa5750505061248190604093946123c6565b90505f6129be565b305f52600a60205260405f20548091612710612a0660095461ffff8460e81c1690612290565b04908183101580612c90575b80612c80575b80612c69575b80612c52575b80612c48575b612a37575b505050612994565b6003805460ff60a01b198116600160a01b179091559160148082029180159083049091141715610c0257808411612c40575b5060405191612a79606084612179565b60028352604036602085013730612a8f8461318c565b526001600160a01b0316612aa283613199565b526004546001600160a01b0390811692914261025881019260089290921c909116908210610c0257803b1561026b57612b085f809460405196879586948593635c11d79560e01b85528b600486015285602486015260a0604486015260a48501906121fb565b916064840152608483015203925af19081612c2b575b50612b80575050915f80516020613268833981519152959391602095937f60dc41faad9fe4f70f304dcef26d96d71e98ec8e21e4a340921d94dfe46307dc8760405160058152a15b60ff60a01b1960035416600355919395819395975f612a2f565b81811015612bfe576001600160801b03612ba46005549361278f8386169485612290565b1690036001600160801b038111612bea57915f80516020613268833981519152979593916001600160801b03602098969416906001600160801b03191617600555612b66565b634e487b7160e01b86526011600452602486fd5b5050915f80516020613268833981519152959391602095936001600160801b031960055416600555612b66565b612c389197505f90612179565b5f955f612b1e565b92505f612a69565b50308b1415612a2a565b50600881901c6001600160a01b03168c1415612a24565b50600881901c6001600160a01b03168b1415612a1e565b50612c8a896122a3565b15612a18565b5060ff60035460a01c1615612a12565b5063ffffffff60025460a81c1615612965565b503087141561295f565b6001600160a01b0381165f9081526011602052604090205460ff16156129475761346960f11b5f5260045ffd5b506001600160a01b0381161515612942565b6001600160a01b03168015612d6a57805f52600a60205260405f205491808310612d5b576020815f80516020613268833981519152925f95858752600a84520360408620556001600160801b03811660095403600955604051908152a3565b63588569f760e01b5f5260045ffd5b6304fca6bd60e41b5f5260045ffd5b9081602091031261026b5751801515810361026b5790565b5f80516020613208833981519152546001600160a01b0316330361176057565b5f805160206132a883398151915280546001600160a01b03199081169091555f8051602061320883398151915280549182166001600160a01b0393841690811790915591167f8be0079c531659141344cd1fd0a4f28419497f9722a3daafe3b4186f6b6457e05f80a3565b81601f8201121561026b57805190612e338261219a565b92612e416040519485612179565b8284526020838301011161026b57815f9260208093018386015e8301015290565b805190811580612eac575b15612e785750505f90565b60025490602061ffff60d81b91015160d81b169161ffff60c81b9060c81b169063ffffffff60c81b19161717600255600190565b50602081015115612e6d565b8115612ec2570490565b634e487b7160e01b5f52601260045260245ffd5b6001600160a01b0316908115612f2a575f80516020613268833981519152602082612f0d6001600160801b035f951660095461226f565b600955848452600a825260408420818154019055604051908152a3565b622e076360e81b5f5260045ffd5b8054821015612f4d575f5260205f2001905f90565b634e487b7160e01b5f52603260045260245ffd5b5f818152600d60205260409020548015613036575f198101818111610c0257600c545f19810191908211610c0257818103612fe8575b505050600c548015612fd4575f1901612fb181600c612f38565b8154905f199060031b1b19169055600c555f52600d6020525f6040812055600190565b634e487b7160e01b5f52603160045260245ffd5b613020612ff961300a93600c612f38565b90549060031b1c928392600c612f38565b819391549060031b91821b915f19901b19161790565b90555f52600d60205260405f20555f8080612f97565b50505f90565b5f818152600f60205260409020548015613036575f198101818111610c0257600e545f19810191908211610c02578181036130af575b505050600e548015612fd4575f190161308c81600e612f38565b8154905f199060031b1b19169055600e555f52600f6020525f6040812055600190565b6130d16130c061300a93600e612f38565b90549060031b1c928392600e612f38565b90555f52600f60205260405f20555f8080613072565b805f52600f60205260405f2054155f1461313757600e54600160401b8110156114915761312061300a826001859401600e55600e612f38565b9055600e54905f52600f60205260405f2055600190565b505f90565b805f52600d60205260405f2054155f1461313757600c54600160401b8110156114915761317561300a826001859401600c55600c612f38565b9055600c54905f52600d60205260405f2055600190565b805115612f4d5760200190565b805160011015612f4d5760400190565b906131cd57508051156131be57805190602001fd5b630a12f52160e11b5f5260045ffd5b815115806131fe575b6131de575090565b639996b31560e01b5f9081526001600160a01b0391909116600452602490fd5b50803b156131d656fe9016d09d72d40fdae2fd8ceac6b6234c7706214fd39c1cd1e609a0528c199300a66cc928b5edb82af9bd49922954155ab7b0942694bea4ce44661d9a8736c688f3f7a9fe364faab93b216da50a3214154f22a0a2b415b23a84c8169e8b636ee3ddf252ad1be2c89b69c2b068fc378daa952ba7f163c4a11628f55a4df523b3eff0c57e16840df040f15088dc2f81fe391c3923bec73e23a9662efc9c229c6a00237e158222e3e6968b72b9db0d8043aacf074ad9f650f0d1606b4d82ee432c00a26469706673582212203f4a07b9b29edfaa32e08f96ac0f4d25d0dbbaa19d2918b0b62b7b86e0c4579e64736f6c634300081a0033","linkReferences":{}},"methodIdentifiers":{"acceptOwnership()":"79ba5097","addBlacklistAddress(address)":"900ce6ba","addInitialLiquidity(address)":"59cabbe4","addLiquidityPool(address)":"ee6a934c","addValidCaller(bytes32)":"e37d9e95","allowance(address,address)":"dd62ed3e","approve(address,uint256)":"095ea7b3","balanceOf(address)":"70a08231","blacklists(address)":"16c02129","botProtectionDurationInSeconds()":"63a9c1f2","burn(uint256)":"42966c68","burnFrom(address,uint256)":"79cc6790","decimals()":"313ce567","decreaseAllowance(address,uint256)":"a457c2d7","distributeTaxTokens()":"2ead0955","fundedDate()":"10b828c9","increaseAllowance(address,uint256)":"39509351","initialize(address[3],bytes,bytes,bytes)":"84b1df52","isLiquidityPool(address)":"e85455d7","isValidCaller(bytes32)":"bfe3098f","liquidityPools()":"d6efd7c3","name()":"06fdde03","owner()":"8da5cb5b","pairToken()":"3de35b79","pendingOwner()":"e30c3978","projectBuyTaxBasisPoints()":"a45cae02","projectSellTaxBasisPoints()":"b2c5c9eb","projectTaxPendingSwap()":"b0d75097","projectTaxRecipient()":"ea8b2424","removeBlacklistAddress(address)":"2d405ede","removeLiquidityPool(address)":"ae22107f","removeValidCaller(bytes32)":"8589287a","renounceOwnership()":"715018a6","setProjectTaxRates(uint16,uint16)":"936b2934","setProjectTaxRecipient(address)":"9808751d","setSwapThresholdBasisPoints(uint16)":"326b3b8b","swapThresholdBasisPoints()":"4bed5ad2","symbol()":"95d89b41","totalBuyTaxBasisPoints()":"eeae0f97","totalSellTaxBasisPoints()":"038272b6","totalSupply()":"18160ddd","transfer(address,uint256)":"a9059cbb","transferFrom(address,address,uint256)":"23b872dd","transferOwnership(address)":"f2fde38b","uniswapV2Pair()":"49bd5a5e","validCallers()":"b498d39f","vault()":"fbfa77cf","withdrawERC20(address,uint256)":"a1db9782","withdrawETH(uint256)":"f14210a6"},"id":100}