{"abi":[{"type":"function","name":"DEFAULT_ADMIN_ROLE","inputs":[],"outputs":[{"name":"","type":"bytes32","internalType":"bytes32"}],"stateMutability":"view"},{"type":"function","name":"DENOMINATOR","inputs":[],"outputs":[{"name":"","type":"uint256","internalType":"uint256"}],"stateMutability":"view"},{"type":"function","name":"GOV_ROLE","inputs":[],"outputs":[{"name":"","type":"bytes32","internalType":"bytes32"}],"stateMutability":"view"},{"type":"function","name":"LOOP_LIMIT","inputs":[],"outputs":[{"name":"","type":"uint8","internalType":"uint8"}],"stateMutability":"view"},{"type":"function","name":"TOKEN_SAVER_ROLE","inputs":[],"outputs":[{"name":"","type":"bytes32","internalType":"bytes32"}],"stateMutability":"view"},{"type":"function","name":"agentNft","inputs":[],"outputs":[{"name":"","type":"address","internalType":"address"}],"stateMutability":"view"},{"type":"function","name":"agentRewardCount","inputs":[{"name":"virtualId","type":"uint256","internalType":"uint256"}],"outputs":[{"name":"","type":"uint256","internalType":"uint256"}],"stateMutability":"view"},{"type":"function","name":"claimAllStakerRewards","inputs":[{"name":"virtualIds","type":"uint256[]","internalType":"uint256[]"}],"outputs":[],"stateMutability":"nonpayable"},{"type":"function","name":"claimAllValidatorRewards","inputs":[{"name":"virtualIds","type":"uint256[]","internalType":"uint256[]"}],"outputs":[],"stateMutability":"nonpayable"},{"type":"function","name":"claimStakerRewards","inputs":[{"name":"virtualId","type":"uint256","internalType":"uint256"}],"outputs":[],"stateMutability":"nonpayable"},{"type":"function","name":"claimValidatorRewards","inputs":[{"name":"virtualId","type":"uint256","internalType":"uint256"}],"outputs":[],"stateMutability":"nonpayable"},{"type":"function","name":"distributeRewards","inputs":[{"name":"amount","type":"uint256","internalType":"uint256"},{"name":"virtualIds","type":"uint256[]","internalType":"uint256[]"},{"name":"shouldShareWithProtocol","type":"bool","internalType":"bool"}],"outputs":[],"stateMutability":"nonpayable"},{"type":"function","name":"getAgentReward","inputs":[{"name":"virtualId","type":"uint256","internalType":"uint256"},{"name":"pos","type":"uint256","internalType":"uint256"}],"outputs":[{"name":"","type":"tuple","internalType":"struct IAgentRewardV3.AgentReward","components":[{"name":"id","type":"uint256","internalType":"uint256"},{"name":"rewardIndex","type":"uint256","internalType":"uint256"},{"name":"stakerAmount","type":"uint256","internalType":"uint256"},{"name":"validatorAmount","type":"uint256","internalType":"uint256"},{"name":"totalProposals","type":"uint256","internalType":"uint256"},{"name":"totalStaked","type":"uint256","internalType":"uint256"}]}],"stateMutability":"view"},{"type":"function","name":"getAgentRewardCount","inputs":[{"name":"virtualId","type":"uint256","internalType":"uint256"}],"outputs":[{"name":"","type":"uint256","internalType":"uint256"}],"stateMutability":"view"},{"type":"function","name":"getClaimableStakerRewards","inputs":[{"name":"account","type":"address","internalType":"address"},{"name":"virtualId","type":"uint256","internalType":"uint256"}],"outputs":[{"name":"totalClaimable","type":"uint256","internalType":"uint256"},{"name":"numRewards","type":"uint256","internalType":"uint256"}],"stateMutability":"view"},{"type":"function","name":"getClaimableValidatorRewards","inputs":[{"name":"account","type":"address","internalType":"address"},{"name":"virtualId","type":"uint256","internalType":"uint256"}],"outputs":[{"name":"totalClaimable","type":"uint256","internalType":"uint256"},{"name":"numRewards","type":"uint256","internalType":"uint256"}],"stateMutability":"view"},{"type":"function","name":"getLPValue","inputs":[{"name":"virtualId","type":"uint256","internalType":"uint256"}],"outputs":[{"name":"","type":"uint256","internalType":"uint256"}],"stateMutability":"view"},{"type":"function","name":"getPastRewardSettings","inputs":[{"name":"timepoint","type":"uint32","internalType":"uint32"}],"outputs":[{"name":"","type":"tuple","internalType":"struct RewardSettingsCheckpointsV2.RewardSettings","components":[{"name":"protocolShares","type":"uint16","internalType":"uint16"},{"name":"stakerShares","type":"uint16","internalType":"uint16"}]}],"stateMutability":"view"},{"type":"function","name":"getReward","inputs":[{"name":"pos","type":"uint256","internalType":"uint256"}],"outputs":[{"name":"","type":"tuple","internalType":"struct IAgentRewardV3.Reward","components":[{"name":"blockNumber","type":"uint256","internalType":"uint256"},{"name":"amount","type":"uint256","internalType":"uint256"},{"name":"lpValues","type":"uint256[]","internalType":"uint256[]"},{"name":"virtualIds","type":"uint256[]","internalType":"uint256[]"}]}],"stateMutability":"view"},{"type":"function","name":"getRewardSettings","inputs":[],"outputs":[{"name":"","type":"tuple","internalType":"struct RewardSettingsCheckpointsV2.RewardSettings","components":[{"name":"protocolShares","type":"uint16","internalType":"uint16"},{"name":"stakerShares","type":"uint16","internalType":"uint16"}]}],"stateMutability":"view"},{"type":"function","name":"getRoleAdmin","inputs":[{"name":"role","type":"bytes32","internalType":"bytes32"}],"outputs":[{"name":"","type":"bytes32","internalType":"bytes32"}],"stateMutability":"view"},{"type":"function","name":"getTotalClaimableStakerRewards","inputs":[{"name":"account","type":"address","internalType":"address"},{"name":"virtualIds","type":"uint256[]","internalType":"uint256[]"}],"outputs":[{"name":"totalClaimable","type":"uint256","internalType":"uint256"}],"stateMutability":"view"},{"type":"function","name":"getTotalClaimableValidatorRewards","inputs":[{"name":"account","type":"address","internalType":"address"},{"name":"virtualIds","type":"uint256[]","internalType":"uint256[]"}],"outputs":[{"name":"totalClaimable","type":"uint256","internalType":"uint256"}],"stateMutability":"view"},{"type":"function","name":"grantRole","inputs":[{"name":"role","type":"bytes32","internalType":"bytes32"},{"name":"account","type":"address","internalType":"address"}],"outputs":[],"stateMutability":"nonpayable"},{"type":"function","name":"hasRole","inputs":[{"name":"role","type":"bytes32","internalType":"bytes32"},{"name":"account","type":"address","internalType":"address"}],"outputs":[{"name":"","type":"bool","internalType":"bool"}],"stateMutability":"view"},{"type":"function","name":"initialize","inputs":[{"name":"rewardToken_","type":"address","internalType":"address"},{"name":"agentNft_","type":"address","internalType":"address"},{"name":"settings_","type":"tuple","internalType":"struct RewardSettingsCheckpointsV2.RewardSettings","components":[{"name":"protocolShares","type":"uint16","internalType":"uint16"},{"name":"stakerShares","type":"uint16","internalType":"uint16"}]}],"outputs":[],"stateMutability":"nonpayable"},{"type":"function","name":"protocolRewards","inputs":[],"outputs":[{"name":"","type":"uint256","internalType":"uint256"}],"stateMutability":"view"},{"type":"function","name":"renounceRole","inputs":[{"name":"role","type":"bytes32","internalType":"bytes32"},{"name":"callerConfirmation","type":"address","internalType":"address"}],"outputs":[],"stateMutability":"nonpayable"},{"type":"function","name":"revokeRole","inputs":[{"name":"role","type":"bytes32","internalType":"bytes32"},{"name":"account","type":"address","internalType":"address"}],"outputs":[],"stateMutability":"nonpayable"},{"type":"function","name":"rewardCount","inputs":[],"outputs":[{"name":"","type":"uint256","internalType":"uint256"}],"stateMutability":"view"},{"type":"function","name":"rewardToken","inputs":[],"outputs":[{"name":"","type":"address","internalType":"address"}],"stateMutability":"view"},{"type":"function","name":"saveToken","inputs":[{"name":"_token","type":"address","internalType":"address"},{"name":"_receiver","type":"address","internalType":"address"},{"name":"_amount","type":"uint256","internalType":"uint256"}],"outputs":[],"stateMutability":"nonpayable"},{"type":"function","name":"setRewardSettings","inputs":[{"name":"protocolShares_","type":"uint16","internalType":"uint16"},{"name":"stakerShares_","type":"uint16","internalType":"uint16"}],"outputs":[],"stateMutability":"nonpayable"},{"type":"function","name":"supportsInterface","inputs":[{"name":"interfaceId","type":"bytes4","internalType":"bytes4"}],"outputs":[{"name":"","type":"bool","internalType":"bool"}],"stateMutability":"view"},{"type":"function","name":"updateRefContracts","inputs":[{"name":"rewardToken_","type":"address","internalType":"address"},{"name":"agentNft_","type":"address","internalType":"address"}],"outputs":[],"stateMutability":"nonpayable"},{"type":"event","name":"Initialized","inputs":[{"name":"version","type":"uint64","indexed":false,"internalType":"uint64"}],"anonymous":false},{"type":"event","name":"NewAgentReward","inputs":[{"name":"virtualId","type":"uint256","indexed":true,"internalType":"uint256"},{"name":"id","type":"uint256","indexed":false,"internalType":"uint256"}],"anonymous":false},{"type":"event","name":"NewReward","inputs":[{"name":"pos","type":"uint256","indexed":false,"internalType":"uint256"},{"name":"virtualIds","type":"uint256[]","indexed":false,"internalType":"uint256[]"}],"anonymous":false},{"type":"event","name":"RefContractsUpdated","inputs":[{"name":"rewardToken","type":"address","indexed":false,"internalType":"address"},{"name":"agentNft","type":"address","indexed":false,"internalType":"address"}],"anonymous":false},{"type":"event","name":"RewardSettingsUpdated","inputs":[{"name":"protocolShares","type":"uint16","indexed":false,"internalType":"uint16"},{"name":"stakerShares","type":"uint16","indexed":false,"internalType":"uint16"}],"anonymous":false},{"type":"event","name":"RoleAdminChanged","inputs":[{"name":"role","type":"bytes32","indexed":true,"internalType":"bytes32"},{"name":"previousAdminRole","type":"bytes32","indexed":true,"internalType":"bytes32"},{"name":"newAdminRole","type":"bytes32","indexed":true,"internalType":"bytes32"}],"anonymous":false},{"type":"event","name":"RoleGranted","inputs":[{"name":"role","type":"bytes32","indexed":true,"internalType":"bytes32"},{"name":"account","type":"address","indexed":true,"internalType":"address"},{"name":"sender","type":"address","indexed":true,"internalType":"address"}],"anonymous":false},{"type":"event","name":"RoleRevoked","inputs":[{"name":"role","type":"bytes32","indexed":true,"internalType":"bytes32"},{"name":"account","type":"address","indexed":true,"internalType":"address"},{"name":"sender","type":"address","indexed":true,"internalType":"address"}],"anonymous":false},{"type":"event","name":"StakerRewardClaimed","inputs":[{"name":"virtualId","type":"uint256","indexed":true,"internalType":"uint256"},{"name":"staker","type":"address","indexed":true,"internalType":"address"},{"name":"numRewards","type":"uint256","indexed":false,"internalType":"uint256"},{"name":"amount","type":"uint256","indexed":false,"internalType":"uint256"}],"anonymous":false},{"type":"event","name":"TokenSaved","inputs":[{"name":"by","type":"address","indexed":true,"internalType":"address"},{"name":"receiver","type":"address","indexed":true,"internalType":"address"},{"name":"token","type":"address","indexed":true,"internalType":"address"},{"name":"amount","type":"uint256","indexed":false,"internalType":"uint256"}],"anonymous":false},{"type":"event","name":"ValidatorRewardClaimed","inputs":[{"name":"virtualId","type":"uint256","indexed":true,"internalType":"uint256"},{"name":"validator","type":"address","indexed":true,"internalType":"address"},{"name":"amount","type":"uint256","indexed":false,"internalType":"uint256"}],"anonymous":false},{"type":"error","name":"AccessControlBadConfirmation","inputs":[]},{"type":"error","name":"AccessControlUnauthorizedAccount","inputs":[{"name":"account","type":"address","internalType":"address"},{"name":"neededRole","type":"bytes32","internalType":"bytes32"}]},{"type":"error","name":"AddressEmptyCode","inputs":[{"name":"target","type":"address","internalType":"address"}]},{"type":"error","name":"AddressInsufficientBalance","inputs":[{"name":"account","type":"address","internalType":"address"}]},{"type":"error","name":"CheckpointUnorderedInsertion","inputs":[]},{"type":"error","name":"ERC5805FutureLookup","inputs":[{"name":"timepoint","type":"uint256","internalType":"uint256"},{"name":"clock","type":"uint32","internalType":"uint32"}]},{"type":"error","name":"FailedInnerCall","inputs":[]},{"type":"error","name":"InvalidInitialization","inputs":[]},{"type":"error","name":"NotGovError","inputs":[]},{"type":"error","name":"NotInitializing","inputs":[]},{"type":"error","name":"NotOwnerError","inputs":[]},{"type":"error","name":"SafeCastOverflowedUintDowncast","inputs":[{"name":"bits","type":"uint8","internalType":"uint8"},{"name":"value","type":"uint256","internalType":"uint256"}]},{"type":"error","name":"SafeERC20FailedOperation","inputs":[{"name":"token","type":"address","internalType":"address"}]}],"bytecode":{"object":"0x608080604052346015576128ef908161001a8239f35b5f80fdfe6080806040526004361015610012575f80fd5b5f3560e01c90816301ffc9a7146116ec575080631b9731fb146116ce5780631c4b774b14611666578063248a9ca314611634578063295cccba1461158157806329df6479146115645780632f2ff15d1461152757806336568abe146114e357806343397b771461045157806372f67916146114a6578063756d3a09146113d757806376175b061461139d57806379085425146113805780637bc31f701461135957806389e53e6b146113355780639038ef06146113025780639159102514611262578063918f86741461124657806391d14854146111fe57806393d045cd146111a25780639845f1fb14610b615780639afdb2c214610a5b5780639cbef4a914610a33578063a217fddf14610a19578063ae9563631461088f578063b536818a14610855578063c14ac73a1461083a578063cf0ca1941461066f578063d2de18a0146105b7578063d547741f14610573578063d8bd0da4146104a5578063dfd91cdc14610456578063ed7987b414610451578063f1d60b24146101c95763f7c618c11461019d575f80fd5b346101c5575f3660031901126101c5576002546040516001600160a01b039091168152602090f35b5f80fd5b346101c55760803660031901126101c5576101e2611788565b6101ea611772565b60403660431901126101c55760405190610203826117fe565b60443561ffff811681036101c55782526064359061ffff821682036101c557602083019182525f8051602061289a833981519152549360ff8560401c1615946001600160401b03811680159081610449575b600114908161043f575b159081610436575b506104275767ffffffffffffffff1981166001175f8051602061289a83398151915255856103fb575b50600280546001600160a01b039283166001600160a01b0319918216179091556003805493909216921691909117905560065480156103b4575f1981019081116103e7576102dd8161251b565b506103006001604051926102f0846117fe565b63ffffffff815416845201612550565b602082015263ffffffff8151166103d8575163ffffffff166103b457600161032a61ffff9261251b565b500192511663ffff00008354925160101b169163ffffffff1916171790555b61035233612364565b506001805561035d57005b68ff0000000000000000195f8051602061289a83398151915254165f8051602061289a833981519152557fc7f505b2f371ae2175ee4913f4499e1f2633a7b5936321eed1cdaeb6115181d2602060405160018152a1005b50506040516103d3916103c6826117fe565b5f825260208201526127d5565b610349565b632520601d60e01b5f5260045ffd5b634e487b7160e01b5f52601160045260245ffd5b68ffffffffffffffffff191668010000000000000001175f8051602061289a8339815191525585610290565b63f92ee8a960e01b5f5260045ffd5b90501587610267565b303b15915061025f565b879150610255565b61179e565b346101c557610464366118ae565b5f91825b825184101561049a5761049260019161048b6104848787611b4e565b5185611c97565b5090611b41565b930192610468565b602090604051908152f35b346101c55760203660031901126101c5576004356001600160401b0381116101c5576104d5903690600401611851565b60016008546104e760ff821615611af6565b60ff1916176008555f90815b815181101561054e5780610522600161050d819486611b4e565b51956105198733611c97565b93908092611b41565b96335f52600960205260405f20905f5260205261054460405f20918254611b41565b81550155016104f3565b60025461056790849033906001600160a01b03166122f0565b6008805460ff19169055005b346101c55760403660031901126101c5576105b5600435610592611772565b906105b06105ab825f525f602052600160405f20015490565b61232c565b61249b565b005b346101c55760203660031901126101c55760043560016008546105dd60ff821615611af6565b60ff1916176008556105ef8133611c97565b9190335f52600960205260405f20825f5260205282600160405f20610615848254611b41565b8155015560025461063290829033906001600160a01b03166122f0565b60405192835260208301527fbabba3a0541a52d8f0c10ec16b80b1c224e840a2dec9449abc37b2c718c2a7de60403393a36008805460ff19169055005b346101c55760403660031901126101c55760043561ffff81168091036101c55760243561ffff81168091036101c557335f9081527ff42cf6f079dae9a1c4905bf4a189ed49c3efccf20a4af60f202bafa7d7d85a03602052604090205460ff161561082b576106dd436125b8565b91604051916106eb836117fe565b81835260208301818152600654939084156107e2575f1985019485116103e7576107148561251b565b5094610738600160405197610728896117fe565b63ffffffff815416895201612550565b602087015263ffffffff8087511697168097116103d857867fac6be3927d791586090aea397f7c4e22aeec9d0fc408dd0ab3e43b3f2accf5a79763ffffffff6040985116145f146107be5750600161079261ffff9261251b565b500192511663ffff00008354925160101b169163ffffffff1916171790555b82519182526020820152a1005b9150506107dd918551916107d1836117fe565b825260208201526127d5565b6107b1565b50604093507fac6be3927d791586090aea397f7c4e22aeec9d0fc408dd0ab3e43b3f2accf5a7946107dd9163ffffffff86519261081e846117fe565b16825260208201526127d5565b631f43c9cf60e31b5f5260045ffd5b346101c5575f3660031901126101c557602060405160648152f35b346101c5575f3660031901126101c55760206040517f0603f2636f0ca34ae3ea5a23bb826e2bd2ffd59fb1c01edc1ba10fba2899d1ba8152f35b346101c55760203660031901126101c55760043563ffffffff81168091036101c5576108b9611fb0565b5063ffffffff6108c8436125b8565b1680821015610a0357506108da611fb0565b50600654905f9180600581116109bc575b5091905b82821061096557828061093d575061093960405161090c816117fe565b5f81525f60208201525b60405191829182919091602061ffff816040840195828151168552015116910152565b0390f35b5f1981019081116103e75761096060016109596109399361251b565b5001612550565b610916565b909161097881841860011c828516611b41565b908263ffffffff6109888461251b565b505416111561099a5750915b906108ef565b9250600181018091111561099457634e487b7160e01b5f52601160045260245ffd5b806109c96109cf92612695565b906122e3565b9063ffffffff6109de8361251b565b5054168310156109f057505b836108eb565b9250600181018091116103e757916109ea565b90631f2fd49d60e01b5f5260045260245260445ffd5b346101c5575f3660031901126101c55760206040515f8152f35b346101c5575f3660031901126101c5576003546040516001600160a01b039091168152602090f35b346101c55760603660031901126101c557610a74611788565b610a7c611772565b335f9081527fd6258023de8dfbb5912550ba7b6613517bf13c442784ee5998ddac4edb10529a602052604090205490916044359160ff1615610b07576001600160a01b031691610acd8282856122f0565b6040519182526001600160a01b03169033907f30d87cec6b4c56cede1018725d1e6d9304e2f7ee6d25b004b7e2183f793f26bc90602090a4005b60405162461bcd60e51b815260206004820152602c60248201527f546f6b656e53617665722e6f6e6c79546f6b656e53617665723a207065726d6960448201526b1cdcda5bdb8819195b9a595960a21b6064820152608490fd5b346101c55760603660031901126101c5576004356024356001600160401b0381116101c557610b94903690600401611851565b906044359081151582036101c557335f9081527ff42cf6f079dae9a1c4905bf4a189ed49c3efccf20a4af60f202bafa7d7d85a03602052604090205460ff161561082b57801561116c576002546040516323b872dd60e01b602082015233602482015230604482015260648082018490528152610c709291610c2a91906001600160a01b0316610c25608483611819565b6125e3565b610c32611fb0565b50610c3b612573565b921561116557612710610c5a61ffff610c52612573565b511683611c66565b04610c6781600754611b41565b600755906122e3565b91600454815193610c808561183a565b92610c8e6040519485611819565b858452601f19610c9d8761183a565b013660208601375f905f5b878110611128575081156110ef57604051610cc2816117c8565b4381526020810190848252604081018781526060820192848452600160401b881015610fbe5760018801600455610cf888611a13565b939093610fab575183555160018301555180519060028301906001600160401b038311610fbe57600160401b8311610fbe5781548383558084106110c9575b50602001905f5260205f205f5b8381106110b557505050506003019051908151916001600160401b038311610fbe57600160401b8311610fbe57815483835580841061108f575b5060209099989901905f5260205f205f5b83811061107b575050505060405160408101858252604060208301528251809152606082019060208401905f5b8181106110655750505090807f1424534c4be6c4f9d8d2177daa3c4cfc32c0fe81d008781f922fa4d6b8be615f920390a160205f9701965b868110610dfd57005b610e078183611b4e565b5190610e2684610e2187610e1b858c611b4e565b51611c66565b611c79565b60015492905f1984146103e7576001840160015560018060a01b0360035416906040519463020e5c6160e51b8652836004870152602086602481865afa958615611003578d905f97611030575b505f612710610e8961ffff602494511686611c66565b049460405192838092635652386760e11b82528960048301525afa908115611003576004916020915f9161100e575b505160405163368d719960e21b815292839182906001600160a01b03165afa908115611003575f91610fd2575b50845f526005602052610efc8460405f20946122e3565b9660405190610f0a826117e3565b83825260208201948d86526040830196875260608301998a526080830193845260a083019182528054600160401b811015610fbe57610f4e91600182018155612243565b939093610fab576001997f7359be50093766679cdd45e9615fcd90d19df2faf3709de5c567187a82d9a7cf97602097600595518755518c87015551600286015551600385015551600484015551910155604051908152a201610df4565b634e487b7160e01b5f525f60045260245ffd5b634e487b7160e01b5f52604160045260245ffd5b90506020813d8211610ffb575b81610fec60209383611819565b810103126101c557518e610ee5565b3d9150610fdf565b6040513d5f823e3d90fd5b61102a91503d805f833e6110228183611819565b810190611b62565b5f610eb8565b9650506020863d821161105d575b8161104b60209383611819565b810103126101c5579451948c5f610e73565b3d915061103e565b8251845260209384019390920191600101610dbc565b825181830155602090920191600101610d8f565b825f528360205f2091820191015b8181106110aa5750610d7e565b5f815560010161109d565b600190602084519401938184015501610d44565b825f528360205f2091820191015b8181106110e45750610d37565b5f81556001016110d7565b60405162461bcd60e51b8152602060048201526011602482015270496e76616c6964204c502076616c75657360781b6044820152606490fd5b9161115e60019161114261113c8686611b4e565b5161193a565b61114c868a611b4e565b526111578589611b4e565b5190611b41565b9201610ca8565b5f906122e3565b60405162461bcd60e51b815260206004820152600e60248201526d125b9d985b1a5908185b5bdd5b9d60921b6044820152606490fd5b346101c55760403660031901126101c55760c06111c360243560043561225c565b60a0604051918051835260208101516020840152604081015160408401526060810151606084015260808101516080840152015160a0820152f35b346101c55760403660031901126101c557611217611772565b6004355f525f60205260405f209060018060a01b03165f52602052602060ff60405f2054166040519015158152f35b346101c5575f3660031901126101c55760206040516127108152f35b346101c55760203660031901126101c5576004356001600160401b0381116101c557611292903690600401611851565b60016008546112a460ff821615611af6565b60ff1916176008555f90815b815181101561054e57806112d660016112ca819486611b4e565b51956105198733611fc8565b96335f52600a60205260405f20905f526020526112f860405f20918254611b41565b81550155016112b0565b346101c55760403660031901126101c5576040611329611320611788565b60243590611fc8565b82519182526020820152f35b346101c5575f3660031901126101c55761134d611fb0565b50610939610916612573565b346101c55760403660031901126101c5576040611329611377611788565b60243590611c97565b346101c5575f3660031901126101c5576020600454604051908152f35b346101c5575f3660031901126101c55760206040517fd9d917c4034cff8a8c5fa1e40f9fbaf906b827c33ae3ab1fcabbb616cb8ef24d8152f35b346101c55760403660031901126101c5576113f0611788565b6113f8611772565b335f9081527ff42cf6f079dae9a1c4905bf4a189ed49c3efccf20a4af60f202bafa7d7d85a03602052604090205490919060ff161561082b577f17eb3201ecbba4a28a83bf810a0b98f1867e7c56f760aa909bc63a64fdeba9d79160409160018060a01b031690816bffffffffffffffffffffffff60a01b600254161760025560018060a01b0316806bffffffffffffffffffffffff60a01b600354161760035582519182526020820152a1005b346101c5576114b4366118ae565b5f91825b825184101561049a576114db60019161048b6114d48787611b4e565b5185611fc8565b9301926114b8565b346101c55760403660031901126101c5576114fc611772565b336001600160a01b03821603611518576105b59060043561249b565b63334bd91960e11b5f5260045ffd5b346101c55760403660031901126101c5576105b5600435611546611772565b9061155f6105ab825f525f602052600160405f20015490565b612413565b346101c5575f3660031901126101c5576020600754604051908152f35b346101c55760203660031901126101c55760043560016008546115a760ff821615611af6565b60ff1916176008556115b98133611fc8565b919091335f52600a60205260405f20825f52602052600160405f206115df858254611b41565b815501556002546115fc90839033906001600160a01b03166122f0565b6040519182527f6c69b517f2ad63051caec865e7d73f276d42c4c29887061091d78119e525b4b460203393a36008805460ff19169055005b346101c55760203660031901126101c557602061165e6004355f525f602052600160405f20015490565b604051908152f35b346101c55760203660031901126101c557610939611685600435611a8d565b60405191829160208352805160208401526020810151604084015260606116ba604083015160808387015260a086019061173f565b910151838203601f1901608085015261173f565b346101c55760203660031901126101c557602061165e60043561193a565b346101c55760203660031901126101c5576004359063ffffffff60e01b82168092036101c557602091637965db0b60e01b811490811561172e575b5015158152f35b6301ffc9a760e01b14905083611727565b90602080835192838152019201905f5b81811061175c5750505090565b825184526020938401939092019160010161174f565b602435906001600160a01b03821682036101c557565b600435906001600160a01b03821682036101c557565b346101c55760203660031901126101c5576004355f526005602052602060405f2054604051908152f35b608081019081106001600160401b03821117610fbe57604052565b60c081019081106001600160401b03821117610fbe57604052565b604081019081106001600160401b03821117610fbe57604052565b90601f801991011681019081106001600160401b03821117610fbe57604052565b6001600160401b038111610fbe5760051b60200190565b9080601f830112156101c55781356118688161183a565b926118766040519485611819565b81845260208085019260051b8201019283116101c557602001905b82821061189e5750505090565b8135815260209182019101611891565b9060406003198301126101c5576004356001600160a01b03811681036101c55791602435906001600160401b0382116101c5576118ed91600401611851565b90565b51906001600160a01b03821682036101c557565b908160409103126101c557611932602060405192611921846117fe565b61192a816118f0565b8452016118f0565b602082015290565b6003546040805163fcf9e6db60e01b8152600481019390935290829060249082906001600160a01b03165afa908115611003575f916119e4575b50516002546040516370a0823160e01b81526001600160a01b0392831660048201529160209183916024918391165afa908115611003575f916119b5575090565b90506020813d6020116119dc575b816119d060209383611819565b810103126101c5575190565b3d91506119c3565b611a06915060403d604011611a0c575b6119fe8183611819565b810190611904565b5f611974565b503d6119f4565b600454811015611a2f5760045f5260205f209060021b01905f90565b634e487b7160e01b5f52603260045260245ffd5b90604051918281549182825260208201905f5260205f20925f5b818110611a74575050611a7292500383611819565b565b8454835260019485019487945060209093019201611a5d565b611ab690606080604051611aa0816117c8565b5f81525f60208201528160408201520152611a13565b50611aee600360405192611ac9846117c8565b8054845260018101546020850152611ae360028201611a43565b604085015201611a43565b606082015290565b15611afd57565b60405162461bcd60e51b815260206004820152600e60248201526d31b0b73737ba103932b2b73a32b960911b6044820152606490fd5b60640190816064116103e757565b919082018092116103e757565b8051821015611a2f5760209160051b010190565b6020818303126101c5578051906001600160401b0382116101c557019060a0828203126101c5576040519160a083018381106001600160401b03821117610fbe57604052611baf816118f0565b8352611bbd602082016118f0565b6020840152611bce604082016118f0565b6040840152611bdf606082016118f0565b60608401526080810151906001600160401b0382116101c557019080601f830112156101c557815190611c118261183a565b92611c1f6040519485611819565b82845260208085019360051b8201019182116101c557602001915b818310611c4c57505050608082015290565b825160ff811681036101c557815260209283019201611c3a565b818102929181159184041417156103e757565b8115611c83570490565b634e487b7160e01b5f52601260045260245ffd5b90915f9260018060a01b0383165f52600960205260405f20815f5260205260405f20611cde6020600160405193611ccd856117fe565b805485520154920191808352611b33565b825f52600560205260405f20548082105f14611fa85750905b819460018060a01b03600354169360405163fcf9e6db60e01b8152816004820152604081602481895afa908115611003576024915f918291611f89575b5060200151604051635652386760e11b8152600481018590526001600160a01b03909116979092839182905afa908115611003575f91611f6f575b505192519493926001600160a01b031691905b838610611d9157505050505050565b909192939497611da1898361225c565b90611de6611db26020840151611a8d565b8051604051622f640360e91b81526001600160a01b0388166004820152602481019190915291602090839081906044820190565b03818c5afa918215611003575f92611f30575b50805160405163209e1f0d60e01b81526001600160a01b039093166004840152602483015260208280604481015b03818a5afa918215611003575f92611efc575b505160405163d7b7d40560e01b81526001600160a01b038716600482015260248101919091526020816044818c5afa908115611003575f91611ec4575b50836080611ea9611eb89594611ea4611e99611eb296604060019b0151611c66565b60a086015190611c79565b611c66565b91015190611c79565b90611b41565b98019493929190611d82565b90506020929192813d8211611ef4575b81611ee160209383611819565b810103126101c557519091906001611e77565b3d9150611ed4565b9091506020813d8211611f28575b81611f1760209383611819565b810103126101c55751906020611e3a565b3d9150611f0a565b91506020823d8211611f67575b81611f4a60209383611819565b810103126101c5576020611f60611e27936118f0565b9250611df9565b3d9150611f3d565b611f8391503d805f833e6110228183611819565b5f611d6f565b611fa2915060403d604011611a0c576119fe8183611819565b5f611d34565b905090611cf7565b60405190611fbd826117fe565b5f6020838281520152565b915f9260018060a01b0381165f52600a60205260405f20835f5260205260405f209061200f6020600160405194611ffe866117fe565b805486520154930192808452611b33565b845f52600560205260405f20548082105f1461223b5750905b819460018060a01b03600354169060405163fcf9e6db60e01b8152816004820152604081602481865afa908115611003576024915f91829161221c575b5060200151604051635652386760e11b8152600481018590526001600160a01b03909116949092839182905afa908115611003575f91612202575b50519451946001600160a01b0316939291905b8386106120c257505050505050565b9091929394976120d2898361225c565b906121186120e36020840151611a8d565b805160405163209e1f0d60e01b81526001600160a01b0389166004820152602481019190915291602090839081906044820190565b03818c5afa918215611003575f926121ce575b5051604051630748d63560e31b81526001600160a01b03881660048201526024810191909152602081604481895afa908115611003575f91612196575b50836080611ea961218a9594611ea4611e99611eb296606060019b0151611c66565b980194939291906120b3565b90506020929192813d82116121c6575b816121b360209383611819565b810103126101c557519091906001612168565b3d91506121a6565b9091506020813d82116121fa575b816121e960209383611819565b810103126101c5575190602061212b565b3d91506121dc565b61221691503d805f833e6110228183611819565b5f6120a0565b612235915060403d604011611a0c576119fe8183611819565b5f612065565b905090612028565b8054821015611a2f575f52600660205f20910201905f90565b9061229d915f60a0604051612270816117e3565b82815282602082015282604082015282606082015282608082015201525f52600560205260405f20612243565b506005604051916122ad836117e3565b8054835260018101546020840152600281015460408401526003810154606084015260048101546080840152015460a082015290565b919082039182116103e757565b60405163a9059cbb60e01b60208201526001600160a01b03929092166024830152604480830193909352918152611a7291610c25606483611819565b5f8181526020818152604080832033845290915290205460ff161561234e5750565b63e2517d3f60e01b5f523360045260245260445ffd5b6001600160a01b0381165f9081527fad3228b676f7d3cd4284a5443f17f1962b36e491b30a40b2405849e597ba5fb5602052604090205460ff1661240e576001600160a01b03165f8181527fad3228b676f7d3cd4284a5443f17f1962b36e491b30a40b2405849e597ba5fb560205260408120805460ff191660011790553391907f2f8788117e7eff1d82e926ec794901d17c78024a50270940304540a733656f0d8180a4600190565b505f90565b5f818152602081815260408083206001600160a01b038616845290915290205460ff16612495575f818152602081815260408083206001600160a01b0395909516808452949091528120805460ff19166001179055339291907f2f8788117e7eff1d82e926ec794901d17c78024a50270940304540a733656f0d9080a4600190565b50505f90565b5f818152602081815260408083206001600160a01b038616845290915290205460ff1615612495575f818152602081815260408083206001600160a01b0395909516808452949091528120805460ff19169055339291907ff6391f5c32d9c69d2a47ea670b442974b53935d1edc7fd64eb21e047a839171b9080a4600190565b600654811015611a2f5760065f5260205f209060011b01905f90565b8054821015611a2f575f5260205f209060011b01905f90565b9060405161255d816117fe565b602061ffff829454818116845260101c16910152565b61257b611fb0565b506006548061259d5750604051612591816117fe565b5f81525f602082015290565b5f1981019081116103e75760016109596118ed926006612537565b63ffffffff81116125cc5763ffffffff1690565b6306dfcc6560e41b5f52602060045260245260445ffd5b81516001600160a01b03909116915f91829160200182855af13d15612689573d6001600160401b038111610fbe5761263d916040519161262d6020601f19601f8401160184611819565b82523d5f602084013e5b8361283b565b8051908115159182612665575b50506126535750565b635274afe760e01b5f5260045260245ffd5b81925090602091810103126101c557602001518015908115036101c5575f8061264a565b61263d90606090612637565b801561240e576127636001825f908460801c806127c9575b508060401c806127bc575b508060201c806127af575b508060101c806127a2575b508060081c80612795575b508060041c80612788575b508060021c8061277b575b50821c612774575b811c1b6127048184611c79565b0160011c6127128184611c79565b0160011c6127208184611c79565b0160011c61272e8184611c79565b0160011c61273c8184611c79565b0160011c61274a8184611c79565b0160011c6127588184611c79565b0160011c8092611c79565b8082101561276f575090565b905090565b81016126f7565b600291509101905f6126ef565b600491509101905f6126e4565b600891509101905f6126d9565b601091509101905f6126ce565b602091509101905f6126c3565b604091509101905f6126b8565b9150506080905f6126ad565b600654600160401b811015610fbe578060016127f692016006556006612537565b610fab57600160209163ffffffff84511663ffffffff198254161781550191015161ffff81511663ffff00006020845493015160101b169163ffffffff191617179055565b9061285f575080511561285057805190602001fd5b630a12f52160e11b5f5260045ffd5b81511580612890575b612870575090565b639996b31560e01b5f9081526001600160a01b0391909116600452602490fd5b50803b1561286856fef0c57e16840df040f15088dc2f81fe391c3923bec73e23a9662efc9c229c6a00a26469706673582212205a16c496a4c499afafb6510300b05c5311a0bbe20a522ae5b50c0358f0780cc264736f6c634300081a0033","linkReferences":{}},"methodIdentifiers":{"DEFAULT_ADMIN_ROLE()":"a217fddf","DENOMINATOR()":"918f8674","GOV_ROLE()":"b536818a","LOOP_LIMIT()":"c14ac73a","TOKEN_SAVER_ROLE()":"76175b06","agentNft()":"9cbef4a9","agentRewardCount(uint256)":"43397b77","claimAllStakerRewards(uint256[])":"d8bd0da4","claimAllValidatorRewards(uint256[])":"91591025","claimStakerRewards(uint256)":"d2de18a0","claimValidatorRewards(uint256)":"295cccba","distributeRewards(uint256,uint256[],bool)":"9845f1fb","getAgentReward(uint256,uint256)":"93d045cd","getAgentRewardCount(uint256)":"ed7987b4","getClaimableStakerRewards(address,uint256)":"7bc31f70","getClaimableValidatorRewards(address,uint256)":"9038ef06","getLPValue(uint256)":"1b9731fb","getPastRewardSettings(uint32)":"ae956363","getReward(uint256)":"1c4b774b","getRewardSettings()":"89e53e6b","getRoleAdmin(bytes32)":"248a9ca3","getTotalClaimableStakerRewards(address,uint256[])":"dfd91cdc","getTotalClaimableValidatorRewards(address,uint256[])":"72f67916","grantRole(bytes32,address)":"2f2ff15d","hasRole(bytes32,address)":"91d14854","initialize(address,address,(uint16,uint16))":"f1d60b24","protocolRewards()":"29df6479","renounceRole(bytes32,address)":"36568abe","revokeRole(bytes32,address)":"d547741f","rewardCount()":"79085425","rewardToken()":"f7c618c1","saveToken(address,address,uint256)":"9afdb2c2","setRewardSettings(uint16,uint16)":"cf0ca194","supportsInterface(bytes4)":"01ffc9a7","updateRefContracts(address,address)":"756d3a09"},"id":2}