{"abi":[{"type":"constructor","inputs":[{"name":"_initialSupply","type":"uint256","internalType":"uint256"},{"name":"initialOwner","type":"address","internalType":"address"}],"stateMutability":"nonpayable"},{"type":"function","name":"allowance","inputs":[{"name":"owner","type":"address","internalType":"address"},{"name":"spender","type":"address","internalType":"address"}],"outputs":[{"name":"","type":"uint256","internalType":"uint256"}],"stateMutability":"view"},{"type":"function","name":"approve","inputs":[{"name":"spender","type":"address","internalType":"address"},{"name":"value","type":"uint256","internalType":"uint256"}],"outputs":[{"name":"","type":"bool","internalType":"bool"}],"stateMutability":"nonpayable"},{"type":"function","name":"balanceOf","inputs":[{"name":"account","type":"address","internalType":"address"}],"outputs":[{"name":"","type":"uint256","internalType":"uint256"}],"stateMutability":"view"},{"type":"function","name":"cap","inputs":[],"outputs":[{"name":"","type":"uint256","internalType":"uint256"}],"stateMutability":"view"},{"type":"function","name":"decimals","inputs":[],"outputs":[{"name":"","type":"uint8","internalType":"uint8"}],"stateMutability":"view"},{"type":"function","name":"mint","inputs":[{"name":"_to","type":"address","internalType":"address"},{"name":"_amount","type":"uint256","internalType":"uint256"}],"outputs":[],"stateMutability":"nonpayable"},{"type":"function","name":"name","inputs":[],"outputs":[{"name":"","type":"string","internalType":"string"}],"stateMutability":"view"},{"type":"function","name":"owner","inputs":[],"outputs":[{"name":"","type":"address","internalType":"address"}],"stateMutability":"view"},{"type":"function","name":"renounceOwnership","inputs":[],"outputs":[],"stateMutability":"nonpayable"},{"type":"function","name":"symbol","inputs":[],"outputs":[{"name":"","type":"string","internalType":"string"}],"stateMutability":"view"},{"type":"function","name":"totalSupply","inputs":[],"outputs":[{"name":"","type":"uint256","internalType":"uint256"}],"stateMutability":"view"},{"type":"function","name":"transfer","inputs":[{"name":"to","type":"address","internalType":"address"},{"name":"value","type":"uint256","internalType":"uint256"}],"outputs":[{"name":"","type":"bool","internalType":"bool"}],"stateMutability":"nonpayable"},{"type":"function","name":"transferFrom","inputs":[{"name":"from","type":"address","internalType":"address"},{"name":"to","type":"address","internalType":"address"},{"name":"value","type":"uint256","internalType":"uint256"}],"outputs":[{"name":"","type":"bool","internalType":"bool"}],"stateMutability":"nonpayable"},{"type":"function","name":"transferOwnership","inputs":[{"name":"newOwner","type":"address","internalType":"address"}],"outputs":[],"stateMutability":"nonpayable"},{"type":"event","name":"Approval","inputs":[{"name":"owner","type":"address","indexed":true,"internalType":"address"},{"name":"spender","type":"address","indexed":true,"internalType":"address"},{"name":"value","type":"uint256","indexed":false,"internalType":"uint256"}],"anonymous":false},{"type":"event","name":"OwnershipTransferred","inputs":[{"name":"previousOwner","type":"address","indexed":true,"internalType":"address"},{"name":"newOwner","type":"address","indexed":true,"internalType":"address"}],"anonymous":false},{"type":"event","name":"Transfer","inputs":[{"name":"from","type":"address","indexed":true,"internalType":"address"},{"name":"to","type":"address","indexed":true,"internalType":"address"},{"name":"value","type":"uint256","indexed":false,"internalType":"uint256"}],"anonymous":false},{"type":"error","name":"ERC20ExceededCap","inputs":[{"name":"increasedSupply","type":"uint256","internalType":"uint256"},{"name":"cap","type":"uint256","internalType":"uint256"}]},{"type":"error","name":"ERC20InsufficientAllowance","inputs":[{"name":"spender","type":"address","internalType":"address"},{"name":"allowance","type":"uint256","internalType":"uint256"},{"name":"needed","type":"uint256","internalType":"uint256"}]},{"type":"error","name":"ERC20InsufficientBalance","inputs":[{"name":"sender","type":"address","internalType":"address"},{"name":"balance","type":"uint256","internalType":"uint256"},{"name":"needed","type":"uint256","internalType":"uint256"}]},{"type":"error","name":"ERC20InvalidApprover","inputs":[{"name":"approver","type":"address","internalType":"address"}]},{"type":"error","name":"ERC20InvalidCap","inputs":[{"name":"cap","type":"uint256","internalType":"uint256"}]},{"type":"error","name":"ERC20InvalidReceiver","inputs":[{"name":"receiver","type":"address","internalType":"address"}]},{"type":"error","name":"ERC20InvalidSender","inputs":[{"name":"sender","type":"address","internalType":"address"}]},{"type":"error","name":"ERC20InvalidSpender","inputs":[{"name":"spender","type":"address","internalType":"address"}]},{"type":"error","name":"OwnableInvalidOwner","inputs":[{"name":"owner","type":"address","internalType":"address"}]},{"type":"error","name":"OwnableUnauthorizedAccount","inputs":[{"name":"account","type":"address","internalType":"address"}]}],"bytecode":{"object":"0x60a06040523461045557610d016040813803918261001c81610459565b9384928339810103126104555780516020909101516001600160a01b038116908190036104555761004d6040610459565b91601083526f159a5c9d1d585b08141c9bdd1bd8dbdb60821b60208401526100756040610459565b60078152661592549515505360ca1b602082015283519092906001600160401b03811161036657600354600181811c9116801561044b575b602082101461034857601f81116103e8575b50602094601f8211600114610385579481929394955f9261037a575b50508160011b915f199060031b1c1916176003555b82516001600160401b03811161036657600454600181811c9116801561035c575b602082101461034857601f81116102e5575b506020601f821160011461028257819293945f92610277575b50508160011b915f199060031b1c1916176004555b6b033b2e3c9fd0803ce8000000608052801561026457600580546001600160a01b0319811683179091556001600160a01b03167f8be0079c531659141344cd1fd0a4f28419497f9722a3daafe3b4186f6b6457e05f80a333156102515760025481810180911161023d57600255335f525f60205260405f208181540190556040519081525f7fddf252ad1be2c89b69c2b068fc378daa952ba7f163c4a11628f55a4df523b3ef60203393a360805160025481811161022857604051610882908161047f823960805181818161041b01526104990152f35b63279e7e1560e21b5f5260045260245260445ffd5b634e487b7160e01b5f52601160045260245ffd5b63ec442f0560e01b5f525f60045260245ffd5b631e4fbdf760e01b5f525f60045260245ffd5b015190505f8061013c565b601f1982169060045f52805f20915f5b8181106102cd575095836001959697106102b5575b505050811b01600455610151565b01515f1960f88460031b161c191690555f80806102a7565b9192602060018192868b015181550194019201610292565b60045f527f8a35acfbc15ff81a39ae7d344fd709f28e8600b4aa8c65c6b64bfe7fe36bd19b601f830160051c8101916020841061033e575b601f0160051c01905b8181106103335750610123565b5f8155600101610326565b909150819061031d565b634e487b7160e01b5f52602260045260245ffd5b90607f1690610111565b634e487b7160e01b5f52604160045260245ffd5b015190505f806100db565b601f1982169560035f52805f20915f5b8881106103d0575083600195969798106103b8575b505050811b016003556100f0565b01515f1960f88460031b161c191690555f80806103aa565b91926020600181928685015181550194019201610395565b60035f527fc2575a0e9e593c00f959f8c92f12db2869c3395a3b0502d05e2516446f71f85b601f830160051c81019160208410610441575b601f0160051c01905b81811061043657506100bf565b5f8155600101610429565b9091508190610420565b90607f16906100ad565b5f80fd5b6040519190601f01601f191682016001600160401b038111838210176103665760405256fe6080806040526004361015610012575f80fd5b5f3560e01c90816306fdde031461065657508063095ea7b3146105d457806318160ddd146105b757806323b872dd146104d7578063313ce567146104bc578063355274ea1461048257806340c10f191461039657806370a082311461035f578063715018a6146103045780638da5cb5b146102dc57806395d89b41146101c1578063a9059cbb14610190578063dd62ed3e146101405763f2fde38b146100b6575f80fd5b3461013c57602036600319011261013c576100cf61074f565b6100d7610825565b6001600160a01b0316801561012957600580546001600160a01b0319811683179091556001600160a01b03167f8be0079c531659141344cd1fd0a4f28419497f9722a3daafe3b4186f6b6457e05f80a3005b631e4fbdf760e01b5f525f60045260245ffd5b5f80fd5b3461013c57604036600319011261013c5761015961074f565b610161610765565b6001600160a01b039182165f908152600160209081526040808320949093168252928352819020549051908152f35b3461013c57604036600319011261013c576101b66101ac61074f565b602435903361077b565b602060405160018152f35b3461013c575f36600319011261013c576040515f6004548060011c906001811680156102d2575b6020831081146102be578285529081156102a2575060011461024d575b50819003601f01601f191681019067ffffffffffffffff8211818310176102395761023582918260405282610725565b0390f35b634e487b7160e01b5f52604160045260245ffd5b905060045f527f8a35acfbc15ff81a39ae7d344fd709f28e8600b4aa8c65c6b64bfe7fe36bd19b5f905b82821061028c57506020915082010182610205565b6001816020925483858801015201910190610277565b90506020925060ff191682840152151560051b82010182610205565b634e487b7160e01b5f52602260045260245ffd5b91607f16916101e8565b3461013c575f36600319011261013c576005546040516001600160a01b039091168152602090f35b3461013c575f36600319011261013c5761031c610825565b600580546001600160a01b031981169091555f906001600160a01b03167f8be0079c531659141344cd1fd0a4f28419497f9722a3daafe3b4186f6b6457e08280a3005b3461013c57602036600319011261013c576001600160a01b0361038061074f565b165f525f602052602060405f2054604051908152f35b3461013c57604036600319011261013c576103af61074f565b602435906103bb610825565b6001600160a01b031690811561046f576002549080820180921161045b5760207fddf252ad1be2c89b69c2b068fc378daa952ba7f163c4a11628f55a4df523b3ef915f9360025584845283825260408420818154019055604051908152a37f000000000000000000000000000000000000000000000000000000000000000060025481811161044657005b63279e7e1560e21b5f5260045260245260445ffd5b634e487b7160e01b5f52601160045260245ffd5b63ec442f0560e01b5f525f60045260245ffd5b3461013c575f36600319011261013c5760206040517f00000000000000000000000000000000000000000000000000000000000000008152f35b3461013c575f36600319011261013c57602060405160128152f35b3461013c57606036600319011261013c576104f061074f565b6104f8610765565b6001600160a01b0382165f818152600160208181526040808420338552909152909120549193604435939290918101610537575b506101b6935061077b565b83811061059c578415610589573315610576576101b6945f52600160205260405f2060018060a01b0333165f526020528360405f20910390558461052c565b634a1406b160e11b5f525f60045260245ffd5b63e602df0560e01b5f525f60045260245ffd5b8390637dc7a0d960e11b5f523360045260245260445260645ffd5b3461013c575f36600319011261013c576020600254604051908152f35b3461013c57604036600319011261013c576105ed61074f565b602435903315610589576001600160a01b031690811561057657335f52600160205260405f20825f526020528060405f20556040519081527f8c5be1e5ebec7d5bd14f71427d1e84f3dd0314c0f7b2291e5b200ac8c7c3b92560203392a3602060405160018152f35b3461013c575f36600319011261013c575f6003548060011c9060018116801561071b575b6020831081146102be578285529081156102a257506001146106c65750819003601f01601f191681019067ffffffffffffffff8211818310176102395761023582918260405282610725565b905060035f527fc2575a0e9e593c00f959f8c92f12db2869c3395a3b0502d05e2516446f71f85b5f905b82821061070557506020915082010182610205565b60018160209254838588010152019101906106f0565b91607f169161067a565b602060409281835280519182918282860152018484015e5f828201840152601f01601f1916010190565b600435906001600160a01b038216820361013c57565b602435906001600160a01b038216820361013c57565b6001600160a01b0316908115610812576001600160a01b031691821561046f57815f525f60205260405f20548181106107f957817fddf252ad1be2c89b69c2b068fc378daa952ba7f163c4a11628f55a4df523b3ef92602092855f525f84520360405f2055845f525f825260405f20818154019055604051908152a3565b8263391434e360e21b5f5260045260245260445260645ffd5b634b637e8f60e11b5f525f60045260245ffd5b6005546001600160a01b0316330361083957565b63118cdaa760e01b5f523360045260245ffdfea26469706673582212205fe20124a4275614032247097362e7603839e205925a33e4bfeda4135b7c5dd764736f6c634300081a0033","linkReferences":{}},"methodIdentifiers":{"allowance(address,address)":"dd62ed3e","approve(address,uint256)":"095ea7b3","balanceOf(address)":"70a08231","cap()":"355274ea","decimals()":"313ce567","mint(address,uint256)":"40c10f19","name()":"06fdde03","owner()":"8da5cb5b","renounceOwnership()":"715018a6","symbol()":"95d89b41","totalSupply()":"18160ddd","transfer(address,uint256)":"a9059cbb","transferFrom(address,address,uint256)":"23b872dd","transferOwnership(address)":"f2fde38b"},"id":88}