{"abi":[{"type":"constructor","inputs":[],"stateMutability":"nonpayable"},{"type":"function","name":"ADMIN_ROLE","inputs":[],"outputs":[{"name":"","type":"bytes32","internalType":"bytes32"}],"stateMutability":"view"},{"type":"function","name":"DEFAULT_ADMIN_ROLE","inputs":[],"outputs":[{"name":"","type":"bytes32","internalType":"bytes32"}],"stateMutability":"view"},{"type":"function","name":"EXECUTOR_ROLE","inputs":[],"outputs":[{"name":"","type":"bytes32","internalType":"bytes32"}],"stateMutability":"view"},{"type":"function","name":"agentTaxAmounts","inputs":[{"name":"tokenAddress","type":"address","internalType":"address"}],"outputs":[{"name":"amountCollected","type":"uint256","internalType":"uint256"},{"name":"amountSwapped","type":"uint256","internalType":"uint256"}],"stateMutability":"view"},{"type":"function","name":"assetToken","inputs":[],"outputs":[{"name":"","type":"address","internalType":"address"}],"stateMutability":"view"},{"type":"function","name":"dcaSell","inputs":[{"name":"tokenAddresses","type":"address[]","internalType":"address[]"},{"name":"minConversionRate","type":"uint256","internalType":"uint256"},{"name":"rateDenom","type":"uint256","internalType":"uint256"},{"name":"maxOverride","type":"uint256","internalType":"uint256"}],"outputs":[],"stateMutability":"nonpayable"},{"type":"function","name":"feeRate","inputs":[],"outputs":[{"name":"","type":"uint16","internalType":"uint16"}],"stateMutability":"view"},{"type":"function","name":"getRoleAdmin","inputs":[{"name":"role","type":"bytes32","internalType":"bytes32"}],"outputs":[{"name":"","type":"bytes32","internalType":"bytes32"}],"stateMutability":"view"},{"type":"function","name":"grantRole","inputs":[{"name":"role","type":"bytes32","internalType":"bytes32"},{"name":"account","type":"address","internalType":"address"}],"outputs":[],"stateMutability":"nonpayable"},{"type":"function","name":"handleAgentTaxes","inputs":[{"name":"tokenAddress","type":"address","internalType":"address"},{"name":"creator","type":"address","internalType":"address"},{"name":"checksum","type":"bytes","internalType":"bytes"},{"name":"amount","type":"uint256","internalType":"uint256"},{"name":"minOutput","type":"uint256","internalType":"uint256"}],"outputs":[],"stateMutability":"nonpayable"},{"type":"function","name":"hasRole","inputs":[{"name":"role","type":"bytes32","internalType":"bytes32"},{"name":"account","type":"address","internalType":"address"}],"outputs":[{"name":"","type":"bool","internalType":"bool"}],"stateMutability":"view"},{"type":"function","name":"initialize","inputs":[{"name":"defaultAdmin_","type":"address","internalType":"address"},{"name":"assetToken_","type":"address","internalType":"address"},{"name":"taxToken_","type":"address","internalType":"address"},{"name":"router_","type":"address","internalType":"address"},{"name":"treasury_","type":"address","internalType":"address"},{"name":"minSwapThreshold_","type":"uint256","internalType":"uint256"},{"name":"maxSwapThreshold_","type":"uint256","internalType":"uint256"}],"outputs":[],"stateMutability":"nonpayable"},{"type":"function","name":"maxSwapThreshold","inputs":[],"outputs":[{"name":"","type":"uint256","internalType":"uint256"}],"stateMutability":"view"},{"type":"function","name":"minSwapThreshold","inputs":[],"outputs":[{"name":"","type":"uint256","internalType":"uint256"}],"stateMutability":"view"},{"type":"function","name":"renounceRole","inputs":[{"name":"role","type":"bytes32","internalType":"bytes32"},{"name":"callerConfirmation","type":"address","internalType":"address"}],"outputs":[],"stateMutability":"nonpayable"},{"type":"function","name":"revokeRole","inputs":[{"name":"role","type":"bytes32","internalType":"bytes32"},{"name":"account","type":"address","internalType":"address"}],"outputs":[],"stateMutability":"nonpayable"},{"type":"function","name":"router","inputs":[],"outputs":[{"name":"","type":"address","internalType":"contract IRouter"}],"stateMutability":"view"},{"type":"function","name":"supportsInterface","inputs":[{"name":"interfaceId","type":"bytes4","internalType":"bytes4"}],"outputs":[{"name":"","type":"bool","internalType":"bool"}],"stateMutability":"view"},{"type":"function","name":"taxHistory","inputs":[{"name":"checksum","type":"bytes","internalType":"bytes"}],"outputs":[{"name":"tokenAddress","type":"address","internalType":"address"},{"name":"amount","type":"uint256","internalType":"uint256"}],"stateMutability":"view"},{"type":"function","name":"taxToken","inputs":[],"outputs":[{"name":"","type":"address","internalType":"address"}],"stateMutability":"view"},{"type":"function","name":"treasury","inputs":[],"outputs":[{"name":"","type":"address","internalType":"address"}],"stateMutability":"view"},{"type":"function","name":"updateCreator","inputs":[{"name":"tokenAddress","type":"address","internalType":"address"},{"name":"creator","type":"address","internalType":"address"}],"outputs":[],"stateMutability":"nonpayable"},{"type":"function","name":"updateSwapParams","inputs":[{"name":"router_","type":"address","internalType":"address"},{"name":"assetToken_","type":"address","internalType":"address"},{"name":"feeRate_","type":"uint16","internalType":"uint16"}],"outputs":[],"stateMutability":"nonpayable"},{"type":"function","name":"updateSwapThresholds","inputs":[{"name":"minSwapThreshold_","type":"uint256","internalType":"uint256"},{"name":"maxSwapThreshold_","type":"uint256","internalType":"uint256"}],"outputs":[],"stateMutability":"nonpayable"},{"type":"function","name":"updateTreasury","inputs":[{"name":"treasury_","type":"address","internalType":"address"}],"outputs":[],"stateMutability":"nonpayable"},{"type":"function","name":"withdraw","inputs":[{"name":"token","type":"address","internalType":"address"}],"outputs":[],"stateMutability":"nonpayable"},{"type":"event","name":"CreatorUpdated","inputs":[{"name":"tokenAddress","type":"address","indexed":false,"internalType":"address"},{"name":"oldCreator","type":"address","indexed":false,"internalType":"address"},{"name":"newCreator","type":"address","indexed":false,"internalType":"address"}],"anonymous":false},{"type":"event","name":"Initialized","inputs":[{"name":"version","type":"uint64","indexed":false,"internalType":"uint64"}],"anonymous":false},{"type":"event","name":"RoleAdminChanged","inputs":[{"name":"role","type":"bytes32","indexed":true,"internalType":"bytes32"},{"name":"previousAdminRole","type":"bytes32","indexed":true,"internalType":"bytes32"},{"name":"newAdminRole","type":"bytes32","indexed":true,"internalType":"bytes32"}],"anonymous":false},{"type":"event","name":"RoleGranted","inputs":[{"name":"role","type":"bytes32","indexed":true,"internalType":"bytes32"},{"name":"account","type":"address","indexed":true,"internalType":"address"},{"name":"sender","type":"address","indexed":true,"internalType":"address"}],"anonymous":false},{"type":"event","name":"RoleRevoked","inputs":[{"name":"role","type":"bytes32","indexed":true,"internalType":"bytes32"},{"name":"account","type":"address","indexed":true,"internalType":"address"},{"name":"sender","type":"address","indexed":true,"internalType":"address"}],"anonymous":false},{"type":"event","name":"SwapExecuted","inputs":[{"name":"tokenAddress","type":"address","indexed":true,"internalType":"address"},{"name":"taxTokenAmount","type":"uint256","indexed":false,"internalType":"uint256"},{"name":"assetTokenAmount","type":"uint256","indexed":false,"internalType":"uint256"}],"anonymous":false},{"type":"event","name":"SwapParamsUpdated","inputs":[{"name":"oldRouter","type":"address","indexed":false,"internalType":"address"},{"name":"newRouter","type":"address","indexed":false,"internalType":"address"},{"name":"oldAsset","type":"address","indexed":false,"internalType":"address"},{"name":"newAsset","type":"address","indexed":false,"internalType":"address"},{"name":"oldFeeRate","type":"uint16","indexed":false,"internalType":"uint16"},{"name":"newFeeRate","type":"uint16","indexed":false,"internalType":"uint16"}],"anonymous":false},{"type":"event","name":"SwapThresholdUpdated","inputs":[{"name":"oldMinThreshold","type":"uint256","indexed":false,"internalType":"uint256"},{"name":"newMinThreshold","type":"uint256","indexed":false,"internalType":"uint256"},{"name":"oldMaxThreshold","type":"uint256","indexed":false,"internalType":"uint256"},{"name":"newMaxThreshold","type":"uint256","indexed":false,"internalType":"uint256"}],"anonymous":false},{"type":"event","name":"TaxCollected","inputs":[{"name":"checksum","type":"bytes","indexed":true,"internalType":"bytes"},{"name":"tokenAddress","type":"address","indexed":false,"internalType":"address"},{"name":"amount","type":"uint256","indexed":false,"internalType":"uint256"}],"anonymous":false},{"type":"event","name":"TreasuryUpdated","inputs":[{"name":"oldTreasury","type":"address","indexed":false,"internalType":"address"},{"name":"newTreasury","type":"address","indexed":false,"internalType":"address"}],"anonymous":false},{"type":"error","name":"AccessControlBadConfirmation","inputs":[]},{"type":"error","name":"AccessControlUnauthorizedAccount","inputs":[{"name":"account","type":"address","internalType":"address"},{"name":"neededRole","type":"bytes32","internalType":"bytes32"}]},{"type":"error","name":"AddressEmptyCode","inputs":[{"name":"target","type":"address","internalType":"address"}]},{"type":"error","name":"AddressInsufficientBalance","inputs":[{"name":"account","type":"address","internalType":"address"}]},{"type":"error","name":"ChecksumExists","inputs":[{"name":"checksum","type":"bytes","internalType":"bytes"}]},{"type":"error","name":"CreatorNotSet","inputs":[{"name":"tokenAddress","type":"address","internalType":"address"}]},{"type":"error","name":"FailedInnerCall","inputs":[]},{"type":"error","name":"InvalidCreator","inputs":[{"name":"creator","type":"address","internalType":"address"}]},{"type":"error","name":"InvalidInitialization","inputs":[]},{"type":"error","name":"NotInitializing","inputs":[]},{"type":"error","name":"ReentrancyGuardReentrantCall","inputs":[]},{"type":"error","name":"SafeERC20FailedOperation","inputs":[{"name":"token","type":"address","internalType":"address"}]}],"bytecode":{"object":"0x6080806040523460d0577ff0c57e16840df040f15088dc2f81fe391c3923bec73e23a9662efc9c229c6a005460ff8160401c1660c1576002600160401b03196001600160401b03821601605c575b60405161206090816100d58239f35b6001600160401b0319166001600160401b039081177ff0c57e16840df040f15088dc2f81fe391c3923bec73e23a9662efc9c229c6a005581527fc7f505b2f371ae2175ee4913f4499e1f2633a7b5936321eed1cdaeb6115181d290602090a15f80604d565b63f92ee8a960e01b5f5260045ffd5b5f80fdfe6080806040526004361015610012575f80fd5b5f3560e01c90816301ffc9a7146112e45750806303f2a0771461101c57806307bd026514610fe25780631083f76114610fbb57806315ca79ac14610ef85780631fc928ae14610ed0578063248a9ca314610eaa57806328eb219b14610df25780632f2ff15d14610dc157806335c1e13b14610d4f57806336568abe14610d0b57806351cff8d914610c6457806361d027b314610c3c57806375b238fc14610c025780637760b81614610bc15780637e9aa0dc146109385780637f51bb1f146108b2578063876449531461089557806391d1485414610840578063978bbdb91461081c578063a217fddf14610802578063acef1a44146107e5578063b18464cd1461052b578063b33f95271461019e578063d547741f146101665763f887ea401461013a575f80fd5b34610162575f366003190112610162576002546040516001600160a01b039091168152602090f35b5f80fd5b346101625760403660031901126101625761019c60043561018561134d565b9061019761019282611491565b611639565b611cd8565b005b346101625760e0366003190112610162576101b7611337565b6101bf61134d565b906044356001600160a01b038116919082900361016257606435916001600160a01b038316808403610162576084356001600160a01b03811694908590036101625760a4359260c435925f8051602061200b833981519152549760ff8960401c16159867ffffffffffffffff811680159081610523575b6001149081610519575b159081610510575b506105015767ffffffffffffffff1981166001175f8051602061200b83398151915255896104d5575b5061027a611f41565b610282611f41565b61028a611f41565b60015f80516020611feb833981519152556001600160a01b031696828814610480576001600160a01b0387161561044b577f9a406f83dc9a92c8bd8f5abc852923a196fe3a87dd6d9ebe8272e928bd5d94fd9761039b7f587bb77b71846725053e80527336133c084bad5ea8ad8e90a53238d2102351c19560c09561ffff9461034060809c6103318c8e61031f8c151561151e565b61032a8615156114df565b1115611450565b61033a81611ab9565b50611b8a565b50846001600160601b0360a01b5f5416175f55816001600160601b0360a01b6001541617600155866001600160601b0360a01b60025416176002556001600160601b0360a01b60035416176003558960045588600555611db2565b61017760a31b8260a01b1960035416179081600355604051935f855260208501525f604085015260608401525f8884015260a01c1660a0820152a1604051915f835260208301525f60408301526060820152a16103f457005b68ff0000000000000000195f8051602061200b83398151915254165f8051602061200b833981519152557fc7f505b2f371ae2175ee4913f4499e1f2633a7b5936321eed1cdaeb6115181d2602060405160018152a1005b60405162461bcd60e51b815260206004820152600d60248201526c24b73b30b634b21030b236b4b760991b6044820152606490fd5b60405162461bcd60e51b815260206004820152602760248201527f417373657420746f6b656e2063616e6e6f742062652073616d652061732074616044820152663c103a37b5b2b760c91b6064820152608490fd5b68ffffffffffffffffff191668010000000000000001175f8051602061200b8339815191525589610271565b63f92ee8a960e01b5f5260045ffd5b9050158b610248565b303b159150610240565b8b9150610236565b3461016257606036600319011261016257610544611337565b61054c61134d565b906044359061ffff8216808303610162576105656115ca565b6001600160a01b0382169361057b85151561151e565b6001600160a01b03169384156107aa576001546001600160a01b03169285841461076557612710831161072d577f587bb77b71846725053e80527336133c084bad5ea8ad8e90a53238d2102351c19560c09561ffff936106826002549460018060a01b038616985f54948460035498886001600160601b0360a01b8916175f556001600160601b0360a01b16176002558860a01b9060a01b168860a01b198816176003556040515f806020830163095ea7b360e01b81528d60248501528160448501526044845261064d606485611393565b83519082865af161065c611f12565b816106fe575b50806106f4575b156106b0575b50506001546001600160a01b0316611db2565b604051968752602087015260018060a01b03166040860152606085015260a01c16608083015260a0820152a1005b6106ed916106e860405163095ea7b360e01b60208201528d60248201525f6044820152604481526106e2606482611393565b82611ea7565b611ea7565b8b8061066f565b50813b1515610669565b8051801592508215610713575b50508e610662565b6107269250602080918301019101611e8f565b8e8061070b565b60405162461bcd60e51b815260206004820152601060248201526f496e76616c696420666565207261746560801b6044820152606490fd5b60405162461bcd60e51b815260206004820152601960248201527f41737365742063616e6e6f742062652074617820746f6b656e000000000000006044820152606490fd5b60405162461bcd60e51b815260206004820152601360248201527224b73b30b634b21030b9b9b2ba103a37b5b2b760691b6044820152606490fd5b34610162575f366003190112610162576020600554604051908152f35b34610162575f3660031901126101625760206040515f8152f35b34610162575f36600319011261016257602061ffff60035460a01c16604051908152f35b346101625760403660031901126101625761085961134d565b6004355f525f80516020611fcb83398151915260205260405f209060018060a01b03165f52602052602060ff60405f2054166040519015158152f35b34610162575f366003190112610162576020600454604051908152f35b34610162576020366003190112610162577f4ab5be82436d353e61ca18726e984e561f5c1cc7c6d38b29d2553c790434705a60406108ee611337565b6108f66115ca565b6001600160a01b031661090a8115156114df565b600380546001600160a01b03198116831790915582516001600160a01b0390911681526020810191909152a1005b346101625760803660031901126101625760043567ffffffffffffffff8111610162573660238201121561016257806004013561097481611417565b916109826040519384611393565b8183526024602084019260051b8201019036821161016257602401915b818310610ba157606435846024356044356109b861155b565b8115610b5c57801580610b17576064845111610ae0575f5b845181101561019c578451811015610acc5760208160051b86010160018060a01b0390511690815f526007602052610a27602060405f20604051610a1381611363565b6001825492838352015492839101526114bf565b6004548110610ac25785888211610aba575b610a42916114cc565b83610aa65784900460025f80516020611feb8339815191525414610a975787610a7e9160019460025f80516020611feb83398151915255611735565b5050815f80516020611feb833981519152555b016109d0565b633ee5aeb560e01b5f5260045ffd5b634e487b7160e01b5f52601260045260245ffd5b889150610a39565b5060019150610a91565b634e487b7160e01b5f52603260045260245ffd5b60405162461bcd60e51b815260206004820152600f60248201526e546f6f206d616e7920746f6b656e7360881b6044820152606490fd5b60405162461bcd60e51b815260206004820152601860248201527f496e76616c696420726174652064656e6f6d696e61746f7200000000000000006044820152606490fd5b60405162461bcd60e51b815260206004820152601760248201527f496e76616c696420636f6e76657273696f6e20726174650000000000000000006044820152606490fd5b82356001600160a01b03811681036101625781526020928301920161099f565b34610162576020366003190112610162576001600160a01b03610be2611337565b165f5260076020526040805f206001815491015482519182526020820152f35b34610162575f3660031901126101625760206040517fa49807205ce4d355092ef5a8a18f56e8913cf4a201fbe287825b095693c217758152f35b34610162575f366003190112610162576003546040516001600160a01b039091168152602090f35b3461016257602036600319011261016257610c7d611337565b610c856115ca565b6003546040516370a0823160e01b8152306004820152916001600160a01b039081169116602083602481855afa918215610d00575f92610cca575b61019c9350611d74565b91506020833d602011610cf8575b81610ce560209383611393565b810103126101625761019c925191610cc0565b3d9150610cd8565b6040513d5f823e3d90fd5b3461016257604036600319011261016257610d2461134d565b336001600160a01b03821603610d405761019c90600435611cd8565b63334bd91960e11b5f5260045ffd5b346101625760203660031901126101625760043567ffffffffffffffff8111610162576020610d83819236906004016113d1565b604051928184925191829101835e6006908201908152030190208054600190910154604080516001600160a01b039093168352602083019190915290f35b346101625760403660031901126101625761019c600435610de061134d565b90610ded61019282611491565b611c34565b3461016257604036600319011261016257610e0b611337565b610e1361134d565b610e1b6115ca565b6001600160a01b0316908115610e97576001600160a01b039081165f8181526008602090815260409182902080546001600160a01b031981168717909155825193845290931692820192909252908101919091527f23c7bf40a4385714a78a5764985a90d92d38dbfa4f640a1532e1821a103b181690606090a1005b5063fec99a9d60e01b5f5260045260245ffd5b34610162576020366003190112610162576020610ec8600435611491565b604051908152f35b34610162575f366003190112610162576001546040516001600160a01b039091168152602090f35b3461016257604036600319011261016257600435602435610f176115ca565b610f2381831115611450565b8015610f76577f9a406f83dc9a92c8bd8f5abc852923a196fe3a87dd6d9ebe8272e928bd5d94fd9160809160045491600554908060045582600555604051938452602084015260408301526060820152a1005b60405162461bcd60e51b815260206004820152601e60248201527f4d6178207468726573686f6c64206d75737420626520706f73697469766500006044820152606490fd5b34610162575f366003190112610162575f546040516001600160a01b039091168152602090f35b34610162575f3660031901126101625760206040517fd8aa0f3194971a2a116679f7c2090f6939c8d4e01a2a8d7e41d55e5351469e638152f35b346101625760a036600319011261016257611035611337565b61103d61134d565b60443567ffffffffffffffff81116101625761105d9036906004016113d1565b906064359161106a61155b565b6001600160a01b0384169182156112a7576001600160a01b031692831561127057801561123a5781511561120257825f52600760205260405f20916040519080519160208201928084835e60069082019081528190036020019020546001600160a01b03166111c6579060016111339392604051926110e884611363565b878452602080850192868452604051928391518091835e600690820190815203019020925183546001600160a01b03191660a084901b8490039190911617835551910155825461142f565b90555f818152600860205260409020546001600160a01b03168290036111a2575b505060055460025f80516020611feb8339815191525414610a975761118d9160025f80516020611feb8339815191525560843590611735565b505060015f80516020611feb83398151915255005b5f52600860205260405f20906001600160601b0360a01b8254161790558180611154565b60449060405192839163bf0f514b60e01b8352602060048401525180918160248501528484015e5f828201840152601f01601f19168101030190fd5b60405162461bcd60e51b815260206004820152601060248201526f496e76616c696420636865636b73756d60801b6044820152606490fd5b60405162461bcd60e51b815260206004820152600e60248201526d125b9d985b1a5908185b5bdd5b9d60921b6044820152606490fd5b60405162461bcd60e51b815260206004820152600f60248201526e24b73b30b634b21031b932b0ba37b960891b6044820152606490fd5b60405162461bcd60e51b8152602060048201526015602482015274496e76616c696420746f6b656e206164647265737360581b6044820152606490fd5b34610162576020366003190112610162576004359063ffffffff60e01b821680920361016257602091637965db0b60e01b8114908115611326575b5015158152f35b6301ffc9a760e01b1490508361131f565b600435906001600160a01b038216820361016257565b602435906001600160a01b038216820361016257565b6040810190811067ffffffffffffffff82111761137f57604052565b634e487b7160e01b5f52604160045260245ffd5b90601f8019910116810190811067ffffffffffffffff82111761137f57604052565b67ffffffffffffffff811161137f57601f01601f191660200190565b81601f82011215610162578035906113e8826113b5565b926113f66040519485611393565b8284526020838301011161016257815f926020809301838601378301015290565b67ffffffffffffffff811161137f5760051b60200190565b9190820180921161143c57565b634e487b7160e01b5f52601160045260245ffd5b1561145757565b60405162461bcd60e51b8152602060048201526012602482015271496e76616c6964207468726573686f6c647360701b6044820152606490fd5b5f525f80516020611fcb833981519152602052600160405f20015490565b805160011015610acc5760400190565b9190820391821161143c57565b8181029291811591840414171561143c57565b156114e657565b60405162461bcd60e51b815260206004820152601060248201526f496e76616c696420747265617375727960801b6044820152606490fd5b1561152557565b60405162461bcd60e51b815260206004820152600e60248201526d24b73b30b634b2103937baba32b960911b6044820152606490fd5b335f9081527f52fce5e8a5d0d9e8d1ea29f4525e512e9c27bf92cae50374d497f918ab48f382602052604090205460ff161561159357565b63e2517d3f60e01b5f52336004527fd8aa0f3194971a2a116679f7c2090f6939c8d4e01a2a8d7e41d55e5351469e6360245260445ffd5b335f9081527fb16e88c42fd4e48df2dd6a2eabd6bc9aec654ec170056b470819f8892cc6431c602052604090205460ff161561160257565b63e2517d3f60e01b5f52336004527fa49807205ce4d355092ef5a8a18f56e8913cf4a201fbe287825b095693c2177560245260445ffd5b5f8181525f80516020611fcb8339815191526020908152604080832033845290915290205460ff16156116695750565b63e2517d3f60e01b5f523360045260245260445ffd5b6020818303126101625780519067ffffffffffffffff821161016257019080601f830112156101625781516116b381611417565b926116c16040519485611393565b81845260208085019260051b82010192831161016257602001905b8282106116e95750505090565b81518152602091820191016116dc565b90602080835192838152019201905f5b8181106117165750505090565b82516001600160a01b0316845260209384019390920191600101611709565b6001600160a01b03165f8181526007602052604090206001810180549154939493909181811015611aad57611769916114bf565b6001546040516370a0823160e01b81523060048201526001600160a01b0390911690602081602481855afa8015610d005783915f91611a78575b5010611a3c575f848152600860205260409020546001600160a01b0316948515611a29576004548310611a1c57808311611a14575b50604051906117e8606083611393565b60028252602082016040368237825115610acc57525f546001600160a01b0316611811826114af565b5260018060a01b03600254169560405163d06ca61f60e01b8152836004820152604060248201525f818061184860448201876116f9565b03818b5afa8015610d00576001915f916119fa575b505111156119b557603c42019687421161143c575f92836118a8936040519a8b95869485936338ed173960e01b85528a6004860152602485015260a0604485015260a48401906116f9565b90306064840152608483015203925af1928315610d0057611949955f9461198d575b5083946118da61194294956114af565b51917f2d043ce009ff53fd444b0f4f5ff4c3f4ee293265203f77f156eeb33b595dfc4f60408051868152856020820152a261192c61271061192461ffff60035460a01c16856114cc565b0480936114bf565b80611971575b50508061194f575b50825461142f565b90556114af565b51600191565b5f5460035461196b92916001600160a01b039182169116611d74565b5f61193a565b5f5461198692906001600160a01b0316611d74565b5f80611932565b6119429394506119ae903d805f833e6119a68183611393565b81019061167f565b93926118ca565b60405162461bcd60e51b815260206004820152601b60248201527f4661696c656420746f20666574636820746f6b656e20707269636500000000006044820152606490fd5b611a0e91503d805f833e6119a68183611393565b5f61185d565b91505f6117d8565b505050505050505f905f90565b84635b2427d760e11b5f5260045260245ffd5b60405162461bcd60e51b8152602060048201526014602482015273496e73756666696369656e742062616c616e636560601b6044820152606490fd5b9150506020813d602011611aa5575b81611a9460209383611393565b81010312610162578290515f6117a3565b3d9150611a87565b5050505050505f905f90565b6001600160a01b0381165f9081527fb16e88c42fd4e48df2dd6a2eabd6bc9aec654ec170056b470819f8892cc6431c602052604090205460ff16611b85576001600160a01b03165f8181527fb16e88c42fd4e48df2dd6a2eabd6bc9aec654ec170056b470819f8892cc6431c60205260408120805460ff191660011790553391907fa49807205ce4d355092ef5a8a18f56e8913cf4a201fbe287825b095693c21775907f2f8788117e7eff1d82e926ec794901d17c78024a50270940304540a733656f0d9080a4600190565b505f90565b6001600160a01b0381165f9081527fb7db2dd08fcb62d0c9e08c51941cae53c267786a0b75803fb7960902fc8ef97d602052604090205460ff16611b85576001600160a01b03165f8181527fb7db2dd08fcb62d0c9e08c51941cae53c267786a0b75803fb7960902fc8ef97d60205260408120805460ff191660011790553391907f2f8788117e7eff1d82e926ec794901d17c78024a50270940304540a733656f0d8180a4600190565b5f8181525f80516020611fcb833981519152602090815260408083206001600160a01b038616845290915290205460ff16611cd2575f8181525f80516020611fcb833981519152602090815260408083206001600160a01b0395909516808452949091528120805460ff19166001179055339291907f2f8788117e7eff1d82e926ec794901d17c78024a50270940304540a733656f0d9080a4600190565b50505f90565b5f8181525f80516020611fcb833981519152602090815260408083206001600160a01b038616845290915290205460ff1615611cd2575f8181525f80516020611fcb833981519152602090815260408083206001600160a01b0395909516808452949091528120805460ff19169055339291907ff6391f5c32d9c69d2a47ea670b442974b53935d1edc7fd64eb21e047a839171b9080a4600190565b60405163a9059cbb60e01b60208201526001600160a01b03929092166024830152604480830193909352918152611db0916106e8606483611393565b565b60405190602082019263095ea7b360e01b845260018060a01b0316928360248401525f19604484015260448352611dea606484611393565b82516001600160a01b038316915f91829182855af190611e08611f12565b82611e5d575b5081611e52575b5015611e2057505050565b6106e8611db0936040519063095ea7b360e01b602083015260248201525f6044820152604481526106e2606482611393565b90503b15155f611e15565b80519192508115918215611e75575b5050905f611e0e565b611e889250602080918301019101611e8f565b5f80611e6c565b90816020910312610162575180151581036101625790565b5f80611ecf9260018060a01b03169360208151910182865af1611ec8611f12565b9083611f6c565b8051908115159182611ef7575b5050611ee55750565b635274afe760e01b5f5260045260245ffd5b611f0a9250602080918301019101611e8f565b155f80611edc565b3d15611f3c573d90611f23826113b5565b91611f316040519384611393565b82523d5f602084013e565b606090565b60ff5f8051602061200b8339815191525460401c1615611f5d57565b631afcd79f60e31b5f5260045ffd5b90611f905750805115611f8157805190602001fd5b630a12f52160e11b5f5260045ffd5b81511580611fc1575b611fa1575090565b639996b31560e01b5f9081526001600160a01b0391909116600452602490fd5b50803b15611f9956fe02dd7bc7dec4dceedda775e58dd541e08a116c6c53815c0bd028192f7b6268009b779b17422d0df92223018b32b4d1fa46e071723d6817e2486d003becc55f00f0c57e16840df040f15088dc2f81fe391c3923bec73e23a9662efc9c229c6a00a2646970667358221220b9758c8d10d7afbb1ce450fdebd274584cf94d6bd0f21d8fa5b5ce8c97c9fa5764736f6c634300081a0033","linkReferences":{}},"methodIdentifiers":{"ADMIN_ROLE()":"75b238fc","DEFAULT_ADMIN_ROLE()":"a217fddf","EXECUTOR_ROLE()":"07bd0265","agentTaxAmounts(address)":"7760b816","assetToken()":"1083f761","dcaSell(address[],uint256,uint256,uint256)":"7e9aa0dc","feeRate()":"978bbdb9","getRoleAdmin(bytes32)":"248a9ca3","grantRole(bytes32,address)":"2f2ff15d","handleAgentTaxes(address,address,bytes,uint256,uint256)":"03f2a077","hasRole(bytes32,address)":"91d14854","initialize(address,address,address,address,address,uint256,uint256)":"b33f9527","maxSwapThreshold()":"acef1a44","minSwapThreshold()":"87644953","renounceRole(bytes32,address)":"36568abe","revokeRole(bytes32,address)":"d547741f","router()":"f887ea40","supportsInterface(bytes4)":"01ffc9a7","taxHistory(bytes)":"35c1e13b","taxToken()":"1fc928ae","treasury()":"61d027b3","updateCreator(address,address)":"28eb219b","updateSwapParams(address,address,uint16)":"b18464cd","updateSwapThresholds(uint256,uint256)":"15ca79ac","updateTreasury(address)":"7f51bb1f","withdraw(address)":"51cff8d9"},"id":74}