{"abi":[{"type":"constructor","inputs":[],"stateMutability":"nonpayable"},{"type":"function","name":"ADMIN_ROLE","inputs":[],"outputs":[{"name":"","type":"bytes32","internalType":"bytes32"}],"stateMutability":"view"},{"type":"function","name":"DEFAULT_ADMIN_ROLE","inputs":[],"outputs":[{"name":"","type":"bytes32","internalType":"bytes32"}],"stateMutability":"view"},{"type":"function","name":"EXECUTOR_ROLE","inputs":[],"outputs":[{"name":"","type":"bytes32","internalType":"bytes32"}],"stateMutability":"view"},{"type":"function","name":"addInitialLiquidity","inputs":[{"name":"token_","type":"address","internalType":"address"},{"name":"amountToken_","type":"uint256","internalType":"uint256"},{"name":"amountAsset_","type":"uint256","internalType":"uint256"}],"outputs":[{"name":"","type":"uint256","internalType":"uint256"},{"name":"","type":"uint256","internalType":"uint256"}],"stateMutability":"nonpayable"},{"type":"function","name":"antiSniperTaxManager","inputs":[],"outputs":[{"name":"","type":"address","internalType":"address"}],"stateMutability":"view"},{"type":"function","name":"approval","inputs":[{"name":"pair","type":"address","internalType":"address"},{"name":"asset","type":"address","internalType":"address"},{"name":"spender","type":"address","internalType":"address"},{"name":"amount","type":"uint256","internalType":"uint256"}],"outputs":[],"stateMutability":"nonpayable"},{"type":"function","name":"assetToken","inputs":[],"outputs":[{"name":"","type":"address","internalType":"address"}],"stateMutability":"view"},{"type":"function","name":"bondingV2","inputs":[],"outputs":[{"name":"","type":"address","internalType":"contract IBondingV2ForRouter"}],"stateMutability":"view"},{"type":"function","name":"bondingV4","inputs":[],"outputs":[{"name":"","type":"address","internalType":"contract IBondingV4ForRouter"}],"stateMutability":"view"},{"type":"function","name":"buy","inputs":[{"name":"amountIn","type":"uint256","internalType":"uint256"},{"name":"tokenAddress","type":"address","internalType":"address"},{"name":"to","type":"address","internalType":"address"},{"name":"isInitialPurchase","type":"bool","internalType":"bool"}],"outputs":[{"name":"","type":"uint256","internalType":"uint256"},{"name":"","type":"uint256","internalType":"uint256"}],"stateMutability":"nonpayable"},{"type":"function","name":"drainPrivatePool","inputs":[{"name":"tokenAddress","type":"address","internalType":"address"},{"name":"recipient","type":"address","internalType":"address"}],"outputs":[{"name":"","type":"uint256","internalType":"uint256"},{"name":"","type":"uint256","internalType":"uint256"}],"stateMutability":"nonpayable"},{"type":"function","name":"drainUniV2Pool","inputs":[{"name":"agentToken","type":"address","internalType":"address"},{"name":"veToken","type":"address","internalType":"address"},{"name":"recipient","type":"address","internalType":"address"},{"name":"deadline","type":"uint256","internalType":"uint256"}],"outputs":[],"stateMutability":"nonpayable"},{"type":"function","name":"factory","inputs":[],"outputs":[{"name":"","type":"address","internalType":"contract FFactoryV2"}],"stateMutability":"view"},{"type":"function","name":"getAmountsOut","inputs":[{"name":"token","type":"address","internalType":"address"},{"name":"assetToken_","type":"address","internalType":"address"},{"name":"amountIn","type":"uint256","internalType":"uint256"}],"outputs":[{"name":"_amountOut","type":"uint256","internalType":"uint256"}],"stateMutability":"view"},{"type":"function","name":"getRoleAdmin","inputs":[{"name":"role","type":"bytes32","internalType":"bytes32"}],"outputs":[{"name":"","type":"bytes32","internalType":"bytes32"}],"stateMutability":"view"},{"type":"function","name":"graduate","inputs":[{"name":"tokenAddress","type":"address","internalType":"address"}],"outputs":[],"stateMutability":"nonpayable"},{"type":"function","name":"grantRole","inputs":[{"name":"role","type":"bytes32","internalType":"bytes32"},{"name":"account","type":"address","internalType":"address"}],"outputs":[],"stateMutability":"nonpayable"},{"type":"function","name":"hasAntiSniperTax","inputs":[{"name":"pairAddress","type":"address","internalType":"address"}],"outputs":[{"name":"","type":"bool","internalType":"bool"}],"stateMutability":"view"},{"type":"function","name":"hasRole","inputs":[{"name":"role","type":"bytes32","internalType":"bytes32"},{"name":"account","type":"address","internalType":"address"}],"outputs":[{"name":"","type":"bool","internalType":"bool"}],"stateMutability":"view"},{"type":"function","name":"initialize","inputs":[{"name":"factory_","type":"address","internalType":"address"},{"name":"assetToken_","type":"address","internalType":"address"}],"outputs":[],"stateMutability":"nonpayable"},{"type":"function","name":"renounceRole","inputs":[{"name":"role","type":"bytes32","internalType":"bytes32"},{"name":"callerConfirmation","type":"address","internalType":"address"}],"outputs":[],"stateMutability":"nonpayable"},{"type":"function","name":"resetTime","inputs":[{"name":"tokenAddress","type":"address","internalType":"address"},{"name":"newStartTime","type":"uint256","internalType":"uint256"}],"outputs":[],"stateMutability":"nonpayable"},{"type":"function","name":"revokeRole","inputs":[{"name":"role","type":"bytes32","internalType":"bytes32"},{"name":"account","type":"address","internalType":"address"}],"outputs":[],"stateMutability":"nonpayable"},{"type":"function","name":"sell","inputs":[{"name":"amountIn","type":"uint256","internalType":"uint256"},{"name":"tokenAddress","type":"address","internalType":"address"},{"name":"to","type":"address","internalType":"address"}],"outputs":[{"name":"","type":"uint256","internalType":"uint256"},{"name":"","type":"uint256","internalType":"uint256"}],"stateMutability":"nonpayable"},{"type":"function","name":"setAntiSniperTaxManager","inputs":[{"name":"newManager","type":"address","internalType":"address"}],"outputs":[],"stateMutability":"nonpayable"},{"type":"function","name":"setBondingV2","inputs":[{"name":"bondingV2_","type":"address","internalType":"address"}],"outputs":[],"stateMutability":"nonpayable"},{"type":"function","name":"setBondingV4","inputs":[{"name":"bondingV4_","type":"address","internalType":"address"}],"outputs":[],"stateMutability":"nonpayable"},{"type":"function","name":"setTaxManager","inputs":[{"name":"newManager","type":"address","internalType":"address"}],"outputs":[],"stateMutability":"nonpayable"},{"type":"function","name":"setTaxStartTime","inputs":[{"name":"pairAddress","type":"address","internalType":"address"},{"name":"_taxStartTime","type":"uint256","internalType":"uint256"}],"outputs":[],"stateMutability":"nonpayable"},{"type":"function","name":"supportsInterface","inputs":[{"name":"interfaceId","type":"bytes4","internalType":"bytes4"}],"outputs":[{"name":"","type":"bool","internalType":"bool"}],"stateMutability":"view"},{"type":"function","name":"taxManager","inputs":[],"outputs":[{"name":"","type":"address","internalType":"address"}],"stateMutability":"view"},{"type":"event","name":"Initialized","inputs":[{"name":"version","type":"uint64","indexed":false,"internalType":"uint64"}],"anonymous":false},{"type":"event","name":"PrivatePoolDrained","inputs":[{"name":"token","type":"address","indexed":true,"internalType":"address"},{"name":"recipient","type":"address","indexed":true,"internalType":"address"},{"name":"assetAmount","type":"uint256","indexed":false,"internalType":"uint256"},{"name":"tokenAmount","type":"uint256","indexed":false,"internalType":"uint256"}],"anonymous":false},{"type":"event","name":"RoleAdminChanged","inputs":[{"name":"role","type":"bytes32","indexed":true,"internalType":"bytes32"},{"name":"previousAdminRole","type":"bytes32","indexed":true,"internalType":"bytes32"},{"name":"newAdminRole","type":"bytes32","indexed":true,"internalType":"bytes32"}],"anonymous":false},{"type":"event","name":"RoleGranted","inputs":[{"name":"role","type":"bytes32","indexed":true,"internalType":"bytes32"},{"name":"account","type":"address","indexed":true,"internalType":"address"},{"name":"sender","type":"address","indexed":true,"internalType":"address"}],"anonymous":false},{"type":"event","name":"RoleRevoked","inputs":[{"name":"role","type":"bytes32","indexed":true,"internalType":"bytes32"},{"name":"account","type":"address","indexed":true,"internalType":"address"},{"name":"sender","type":"address","indexed":true,"internalType":"address"}],"anonymous":false},{"type":"event","name":"UniV2PoolDrained","inputs":[{"name":"token","type":"address","indexed":true,"internalType":"address"},{"name":"veToken","type":"address","indexed":true,"internalType":"address"},{"name":"recipient","type":"address","indexed":true,"internalType":"address"},{"name":"veTokenAmount","type":"uint256","indexed":false,"internalType":"uint256"}],"anonymous":false},{"type":"error","name":"AccessControlBadConfirmation","inputs":[]},{"type":"error","name":"AccessControlUnauthorizedAccount","inputs":[{"name":"account","type":"address","internalType":"address"},{"name":"neededRole","type":"bytes32","internalType":"bytes32"}]},{"type":"error","name":"AddressEmptyCode","inputs":[{"name":"target","type":"address","internalType":"address"}]},{"type":"error","name":"AddressInsufficientBalance","inputs":[{"name":"account","type":"address","internalType":"address"}]},{"type":"error","name":"FailedInnerCall","inputs":[]},{"type":"error","name":"InvalidInitialization","inputs":[]},{"type":"error","name":"NotInitializing","inputs":[]},{"type":"error","name":"ReentrancyGuardReentrantCall","inputs":[]},{"type":"error","name":"SafeERC20FailedOperation","inputs":[{"name":"token","type":"address","internalType":"address"}]}],"bytecode":{"object":"0x6080806040523460d0577ff0c57e16840df040f15088dc2f81fe391c3923bec73e23a9662efc9c229c6a005460ff8160401c1660c1576002600160401b03196001600160401b03821601605c575b604051612afe90816100d58239f35b6001600160401b0319166001600160401b039081177ff0c57e16840df040f15088dc2f81fe391c3923bec73e23a9662efc9c229c6a005581527fc7f505b2f371ae2175ee4913f4499e1f2633a7b5936321eed1cdaeb6115181d290602090a15f80604d565b63f92ee8a960e01b5f5260045ffd5b5f80fdfe6080806040526004361015610012575f80fd5b5f905f3560e01c90816301ffc9a714611f455750806307bd026514611f0b578063095e391314611ec85780631083f76114611ea057806315d478cb14611e78578063248a9ca314611e5a5780632f2ff15d14611e275780633354358514611d1e57806334df907114611cde57806336568abe14611c995780634024dced146118bd57806345608d0014611885578063467678c81461185c578063485cc9551461169b5780634d2377301461167257806366b591a1146116495780636c6c887e146110d45780636f08e17714610c6957806375b238fc14610c2e57806389f0bc5214610bc157806391d1485414610b6b578063a217fddf14610b4f578063ab3c475a14610a8f578063b283aaf814610a03578063ba37fd38146108d5578063baa5cca2146108a7578063bae7a7b4146104ca578063bdc177611461043e578063c45a015514610417578063d547741f146103dc5763ff6d8d0514610173575f80fd5b346102f95760203660031901126102f957806101f26020610192611f98565b61019a6123df565b6101a26125e7565b6101b66001600160a01b03821615156120db565b835460015460405163e6a4390560e01b81526001600160a01b039384166004820152908316602482015293849290911690829081906044820190565b03915afa9081156102fc5782916103ad575b5060405163c66f245560e01b8152906001600160a01b0316602082600481845afa9182156103a257839261036b575b506040516316d3df1560e31b815291602083600481855afa928315610320578493610330575b50813b1561032b57604051635c921eb960e01b81523360048201526024810191909152838160448183865af190811561032057849161030b575b5050803b15610307576040516302ccb1b360e41b8152336004820152602481019290925282908290604490829084905af180156102fc576102e4575b5060015f80516020612a898339815191525580f35b816102ee91612046565b6102f957805f6102cf565b80fd5b6040513d84823e3d90fd5b5050fd5b8161031591612046565b61030757825f610293565b6040513d86823e3d90fd5b505050fd5b935091506020833d602011610363575b8161034d60209383612046565b8101031261035f57839251915f610259565b5f80fd5b3d9150610340565b925090506020823d60201161039a575b8161038860209383612046565b8101031261035f57829151905f610233565b3d915061037b565b6040513d85823e3d90fd5b6103cf915060203d6020116103d5575b6103c78183612046565b81019061207c565b5f610204565b503d6103bd565b50346102f95760403660031901126102f9576104136004356103fc611fae565b9061040e61040982612028565b61244e565b61261f565b5080f35b50346102f957806003193601126102f957546040516001600160a01b039091168152602090f35b50346102f95760203660031901126102f957610458611f98565b610460612370565b6001600160a01b03168015610485576001600160601b0360a01b600554161760055580f35b60405162461bcd60e51b815260206004820152601860248201527f5a65726f2061646472657373206e6f7420616c6c6f77656400000000000000006044820152606490fd5b50346102f95760803660031901126102f9576004356104e7611fae565b6104ef611fc4565b918360643591821592831503610764576105076123df565b61050f6125e7565b6105236001600160a01b03851615156120db565b6105376001600160a01b03861615156120db565b610542811515612311565b815460015460405163e6a4390560e01b81526001600160a01b0387811660048301529182166024820181905291909216959194906020866044818a5afa95861561089c578596610877575b506020600495969760405196878092634f7041a560e01b82525afa9485156107dd5788958891889161083c575b50879361082b575b60636105ce858361213f565b116107f3575b916106139161060b8761060660646105fd816105f48560049d9c9b61235d565b049b8c9961235d565b04998a9261217e565b61217e565b9a8b926126bb565b6001548654604051630e2ad37b60e41b8152946001600160a01b0392831693926020928792918391165afa80156107e85786610658938b968a936107bc575b506126bb565b8261076c575b60015461067593506001600160a01b03169061218b565b926001600160a01b031690813b15610768576040516302ccb1b360e41b81526001600160a01b0391909116600482015260248101849052828160448183865af19081156103a257839161074f575b5050602090608460405180948193635673b02d60e01b83528160048401528760248401528860448401528160648401525af180156103205760409450610722575b5060015f80516020612a898339815191525582519182526020820152f35b6107439060203d602011610748575b61073b8183612046565b810190612127565b610704565b503d610731565b8161075991612046565b61076457815f6106c3565b5080fd5b8280fd5b60015485546040516310bdadd760e31b815293506001600160a01b039182169160209185916004918391165afa9384156107dd5761067594866107b7938b968a936107bc57506126bb565b61065e565b6107d691935060203d6020116103d5576103c78183612046565b915f610652565b6040513d88823e3d90fd5b6040513d89823e3d90fd5b949650509193505081606303606381116108175787948794909390929087906105d4565b634e487b7160e01b88526011600452602488fd5b9250610836816127a2565b926105c2565b9650505094506020843d60201161086f575b8161085b60209383612046565b8101031261035f578794868895515f6105ba565b3d915061084e565b6004959650610894602091823d84116103d5576103c78183612046565b96955061058d565b6040513d87823e3d90fd5b50346102f95760203660031901126102f95760206108cb6108c6611f98565b6127a2565b1515604051908152f35b50346102f95760603660031901126102f9576108ef611f98565b6024359082610958604435926109036123df565b6001600160a01b0381169060209061091c8315156120db565b845460015460405163e6a4390560e01b81526001600160a01b039384166004820152908316602482015294859290911690829081906044820190565b03915afa80156103a2578560209385926109e2575b508161097b929333906126bb565b604051630d9778e560e11b8152600481018690526024810185905292839160449183916001600160a01b03165af1801561032057604094506109c5575b5082519182526020820152f35b6109dd9060203d6020116107485761073b8183612046565b6109b8565b61097b92506109fd90853d87116103d5576103c78183612046565b9161096d565b50346102f95760203660031901126102f957610a1d611f98565b610a25612370565b6001600160a01b03168015610a4a576001600160601b0360a01b600454161760045580f35b60405162461bcd60e51b815260206004820152601960248201527f496e76616c696420426f6e64696e6756322061646472657373000000000000006044820152606490fd5b50346102f957610b04602082610aa436611fda565b9390610aae6123df565b610ab66125e7565b610aca6001600160a01b03821615156120db565b604051632e2952f960e11b81526001600160a01b039182166004820152921660248301526044820193909352938492839182906064820190565b03926001600160a01b03165af180156102fc57610b30575060015f80516020612a898339815191525580f35b610b489060203d6020116107485761073b8183612046565b505f6102cf565b50346102f957806003193601126102f957602090604051908152f35b50346102f95760403660031901126102f9576040610b87611fae565b9160043581525f80516020612a69833981519152602052209060018060a01b03165f52602052602060ff60405f2054166040519015158152f35b50346102f95760403660031901126102f95780610bdc611f98565b610be46123df565b6001600160a01b0316803b15610c2b5781809160246040518094819363112212ff60e01b8352833560048401525af1610c1a5750f35b81610c2491612046565b6102f95780f35b50fd5b50346102f957806003193601126102f95760206040517fa49807205ce4d355092ef5a8a18f56e8913cf4a201fbe287825b095693c217758152f35b50346102f95760603660031901126102f957600435610c86611fae565b82610c8f611fc4565b91610c986125e7565b610ca06123df565b6001600160a01b0381169283151591610cb8836120db565b610ccc6001600160a01b03831615156120db565b610cd7861515612311565b835460015460405163e6a4390560e01b81526001600160a01b03848116600483015291821660248201529160209183916044918391165afa90811561089c5785916110b5575b506001600160a01b03811693610d32906120db565b845460015460405163e6a4390560e01b81526001600160a01b0394851660048201529084166024820181905293909160209183916044918391165afa9081156107dd578691611096575b5060408051630240bc6b60e21b81526001600160a01b0392909216939082600481875afa80156107e85787928891611057575b50602060049560405196878092637464fc3d60e01b82525afa91821561104c578a95899361100b575b509185610e0f969594928894155f14610ffa5791610dfd610e0392610e09959461213f565b90612160565b9061217e565b976126bb565b825460405163cc1776d360e01b81526001600160a01b0390911690602081600481855afa801561089c5786918691610fbe575b50610e526004939260649261235d565b04926020610e60858961217e565b9260405194858092630e2ad37b60e41b82525afa9283156107dd578693610f9d575b50843b15610f9957604051635c921eb960e01b81526001600160a01b039190911660048201526024810191909152848160448183885af190811561089c578591610f84575b5050823b15610f8057604051635c921eb960e01b81526001600160a01b039190911660048201526024810191909152828160448183865af19081156103a2578391610f6b575b5050602090608460405180948193635673b02d60e01b83528860048401528160248401528160448401528760648401525af180156103205760409450610722575060015f80516020612a898339815191525582519182526020820152f35b81610f7591612046565b61076457815f610f0d565b8380fd5b81610f8e91612046565b610f8057835f610ec7565b8580fd5b610fb791935060203d6020116103d5576103c78183612046565b915f610e82565b92955050506020813d602011610ff2575b81610fdc60209383612046565b8101031261035f57518693908590610e52610e42565b3d9150610fcf565b91610dfd610e0392610e099561213f565b94939850945090506020833d602011611044575b8161102c60209383612046565b8101031261035f579151899689949293909285610dd8565b3d915061101f565b6040513d8a823e3d90fd5b9250506040823d60401161108e575b8161107360409383612046565b8101031261108a5781516020928301519092610daf565b8680fd5b3d9150611066565b6110af915060203d6020116103d5576103c78183612046565b5f610d7c565b6110ce915060203d6020116103d5576103c78183612046565b5f610d1d565b50346102f9576110e336611fda565b6110ee9291926123df565b6110f66125e7565b6004546001600160a01b03169361110e85151561209b565b6001600160a01b031691821561160f576001600160a01b03169283156115d8576001600160a01b031693841561159f5760405163165e279560e01b815260048101849052602081602481855afa9081156107e8578791611580575b501561152957604051631083f76160e01b8152602081600481885afa9081156107e857879161150a575b50604051630dfe168160e01b8152906001600160a01b0316602082600481845afa90811561104c5760049289926114e8575b506020906040519384809263d21220a760e01b82525afa91821561104c5788926114c7575b506001600160a01b031684811480156114b5575b15611470576001546001600160a01b031690811491821561145d575b50501561140e57604051634d853ee560e01b815291602083600481885afa9283156107e85787936113ed575b506040516370a0823160e01b81526001600160a01b039093166004840152602083602481885afa9283156107e85787936113b9575b50821561137c5760046020889360405192838092633ef883f560e11b82525afa9081156103a257839161135d575b506001600160a01b031690813b1561076857829160c4839260405194859384926364777ac960e01b84528b60048501528c602485015289604485015282606485015282608485015260a48401525af180156102fc57611344575b505060207f75666e2ef3d5200b1d59c9e9fd06a928e14dec7c13a38910609b908615d5942d91604051908152a460015f80516020612a898339815191525580f35b8161134e91612046565b61135957845f611303565b8480fd5b611376915060203d6020116103d5576103c78183612046565b5f6112a9565b60405162461bcd60e51b81526020600482015260156024820152742737903634b8bab4b234ba3c903a3790323930b4b760591b6044820152606490fd5b9092506020813d6020116113e5575b816113d560209383612046565b8101031261035f5751915f61127b565b3d91506113c8565b61140791935060203d6020116103d5576103c78183612046565b915f611246565b60405162461bcd60e51b815260206004820152602160248201527f7665546f6b656e20646f6573206e6f74206d61746368206173736574546f6b656044820152603760f91b6064820152608490fd5b6001600160a01b03161490505f8061121a565b60405162461bcd60e51b815260206004820152601c60248201527f7665546f6b656e20646f6573206e6f74206d6174636820746f6b656e000000006044820152606490fd5b506001600160a01b03821685146111fe565b6114e191925060203d6020116103d5576103c78183612046565b905f6111ea565b602091925061150390823d84116103d5576103c78183612046565b91906111c5565b611523915060203d6020116103d5576103c78183612046565b5f611193565b60405162461bcd60e51b815260206004820152602960248201527f6167656e74546f6b656e20646f6573206e6f7420616c6c6f77206c697175696460448201526834ba3c90323930b4b760b91b6064820152608490fd5b611599915060203d6020116107485761073b8183612046565b5f611169565b60405162461bcd60e51b8152602060048201526011602482015270125b9d985b1a59081c9958da5c1a595b9d607a1b6044820152606490fd5b60405162461bcd60e51b815260206004820152600f60248201526e24b73b30b634b2103b32aa37b5b2b760891b6044820152606490fd5b60405162461bcd60e51b815260206004820152601260248201527124b73b30b634b21030b3b2b73a2a37b5b2b760711b6044820152606490fd5b50346102f957806003193601126102f9576003546040516001600160a01b039091168152602090f35b50346102f957806003193601126102f9576002546040516001600160a01b039091168152602090f35b50346102f95760403660031901126102f9576116b5611f98565b6116bd611fae565b5f80516020612aa9833981519152549160ff8360401c16159267ffffffffffffffff811680159081611854575b600114908161184a575b159081611841575b506118325767ffffffffffffffff1981166001175f80516020612aa98339815191525583611806575b5061172e6129df565b6117366129df565b60015f80516020612a898339815191525561174f6129df565b61175833612494565b506001600160a01b03169061176e8215156120db565b6001600160a01b0316906117838215156120db565b6001600160601b0360a01b8454161783556001600160601b0360a01b60015416176001556117ae5780f35b68ff0000000000000000195f80516020612aa983398151915254165f80516020612aa9833981519152557fc7f505b2f371ae2175ee4913f4499e1f2633a7b5936321eed1cdaeb6115181d2602060405160018152a180f35b68ffffffffffffffffff191668010000000000000001175f80516020612aa9833981519152555f611725565b63f92ee8a960e01b8552600485fd5b9050155f6116fc565b303b1591506116f4565b8591506116ea565b50346102f957806003193601126102f9576005546040516001600160a01b039091168152602090f35b50346102f95760603660031901126102f95760206118b56118a4611f98565b6118ac611fae565b6044359161218b565b604051908152f35b50346102f95760403660031901126102f9576118d7611f98565b6118df611fae565b6118e76123df565b6118ef6125e7565b6004546001600160a01b031661190681151561209b565b6001600160a01b0383169261191c8415156120db565b6001600160a01b038316916024906020906119388515156120db565b6040519283809263165e279560e01b82528960048301525afa9081156107dd578691611c7a575b5015611c2957845460015460405163e6a4390560e01b81526001600160a01b03938416600482015290831660248201529160209183916044918391165afa90811561089c578591611c0a575b506001600160a01b0316928315611bd45760405163c66f245560e01b8152938590602086600481845afa9586156102fc578296611b9d575b506040516316d3df1560e31b815294602086600481855afa9586156103a2578396611b66575b5086611b09575b85611aab575b50803b1561076457819060446040518094819363b3207f7960e01b83528a60048401528960248401525af1611a96575b50604094507f6780d7960d1ee98bd98b0fe1eae47483ed1f37ec80e9cd2b69d812ba64f19b99858051868152856020820152a360015f80516020612a898339815191525582519182526020820152f35b611aa1868092612046565b6113595784611a46565b813b15610768576040516302ccb1b360e41b81526001600160a01b0391909116600482015260248101869052828160448183865af19081156103a2578391611af4575b50611a16565b81611afe91612046565b61076457815f611aee565b813b1561076857604051635c921eb960e01b81526001600160a01b038216600482015260248101889052838160448183875af1908115610320578491611b51575b5050611a10565b81611b5b91612046565b61076857825f611b4a565b925094506020823d602011611b95575b81611b8360209383612046565b8101031261035f57869151945f611a09565b3d9150611b76565b915094506020813d602011611bcc575b81611bba60209383612046565b8101031261035f57859051945f6119e3565b3d9150611bad565b60405162461bcd60e51b815260206004820152600e60248201526d14185a5c881b9bdd08199bdd5b9960921b6044820152606490fd5b611c23915060203d6020116103d5576103c78183612046565b5f6119ab565b60405162461bcd60e51b8152602060048201526024808201527f546f6b656e20646f6573206e6f7420616c6c6f77206c697175696469747920646044820152633930b4b760e11b6064820152608490fd5b611c93915060203d6020116107485761073b8183612046565b5f61195f565b50346102f95760403660031901126102f957611cb3611fae565b336001600160a01b03821603611ccf576104139060043561261f565b63334bd91960e11b8252600482fd5b50346102f95760203660031901126102f957611cf8611f98565b611d00612370565b60018060a01b03166001600160601b0360a01b600354161760035580f35b503461035f57604036600319011261035f57611d896020611d3d611f98565b611d456123df565b611d4d6125e7565b5f5460015460405163e6a4390560e01b81526001600160a01b039384166004820152908316602482015293849290911690829081906044820190565b03915afa908115611dfd575f91611e08575b506001600160a01b0316803b1561035f575f8091602460405180948193631eb305b160e01b8352833560048401525af18015611dfd57611dea575060015f80516020612a898339815191525580f35b611df691505f90612046565b5f806102cf565b6040513d5f823e3d90fd5b611e21915060203d6020116103d5576103c78183612046565b5f611d9b565b3461035f57604036600319011261035f57611e58600435611e46611fae565b90611e5361040982612028565b612543565b005b3461035f57602036600319011261035f5760206118b5600435612028565b3461035f575f36600319011261035f576004546040516001600160a01b039091168152602090f35b3461035f575f36600319011261035f576001546040516001600160a01b039091168152602090f35b3461035f57602036600319011261035f57611ee1611f98565b611ee9612370565b600280546001600160a01b0319166001600160a01b0392909216919091179055005b3461035f575f36600319011261035f5760206040517fd8aa0f3194971a2a116679f7c2090f6939c8d4e01a2a8d7e41d55e5351469e638152f35b3461035f57602036600319011261035f576004359063ffffffff60e01b821680920361035f57602091637965db0b60e01b8114908115611f87575b5015158152f35b6301ffc9a760e01b14905083611f80565b600435906001600160a01b038216820361035f57565b602435906001600160a01b038216820361035f57565b604435906001600160a01b038216820361035f57565b608090600319011261035f576004356001600160a01b038116810361035f57906024356001600160a01b038116810361035f57906044356001600160a01b038116810361035f579060643590565b5f525f80516020612a69833981519152602052600160405f20015490565b90601f8019910116810190811067ffffffffffffffff82111761206857604052565b634e487b7160e01b5f52604160045260245ffd5b9081602091031261035f57516001600160a01b038116810361035f5790565b156120a257565b60405162461bcd60e51b8152602060048201526011602482015270109bdb991a5b99d58c881b9bdd081cd95d607a1b6044820152606490fd5b156120e257565b60405162461bcd60e51b815260206004820152601f60248201527f5a65726f2061646472657373657320617265206e6f7420616c6c6f7765642e006044820152606490fd5b9081602091031261035f5751801515810361035f5790565b9190820180921161214c57565b634e487b7160e01b5f52601160045260245ffd5b811561216a570490565b634e487b7160e01b5f52601260045260245ffd5b9190820391821161214c57565b90916121a16001600160a01b03831615156120db565b5f5460015460405163e6a4390560e01b81526001600160a01b0394851660048201529084166024820181905293909160209183916044918391165afa908115611dfd575f916122f2575b5060408051630240bc6b60e21b81526001600160a01b03929092169491939084600481885afa918215611dfd575f945f936122b2575b5060206004959660405196878092637464fc3d60e01b82525afa948515611dfd575f9561227e575b506001600160a01b03160361226d5791610dfd610e039261226a959461213f565b90565b91610dfd610e039261226a9561213f565b9094506020813d6020116122aa575b8161229a60209383612046565b8101031261035f5751935f612249565b3d915061228d565b95925093506040853d6040116122ea575b816122d060409383612046565b8101031261035f5784516020958601519295909490612221565b3d91506122c3565b61230b915060203d6020116103d5576103c78183612046565b5f6121eb565b1561231857565b60405162461bcd60e51b815260206004820152601f60248201527f616d6f756e74496e206d7573742062652067726561746572207468616e2030006044820152606490fd5b8181029291811591840414171561214c57565b335f9081527fb16e88c42fd4e48df2dd6a2eabd6bc9aec654ec170056b470819f8892cc6431c602052604090205460ff16156123a857565b63e2517d3f60e01b5f52336004527fa49807205ce4d355092ef5a8a18f56e8913cf4a201fbe287825b095693c2177560245260445ffd5b335f9081527f52fce5e8a5d0d9e8d1ea29f4525e512e9c27bf92cae50374d497f918ab48f382602052604090205460ff161561241757565b63e2517d3f60e01b5f52336004527fd8aa0f3194971a2a116679f7c2090f6939c8d4e01a2a8d7e41d55e5351469e6360245260445ffd5b5f8181525f80516020612a698339815191526020908152604080832033845290915290205460ff161561247e5750565b63e2517d3f60e01b5f523360045260245260445ffd5b6001600160a01b0381165f9081527fb7db2dd08fcb62d0c9e08c51941cae53c267786a0b75803fb7960902fc8ef97d602052604090205460ff1661253e576001600160a01b03165f8181527fb7db2dd08fcb62d0c9e08c51941cae53c267786a0b75803fb7960902fc8ef97d60205260408120805460ff191660011790553391907f2f8788117e7eff1d82e926ec794901d17c78024a50270940304540a733656f0d8180a4600190565b505f90565b5f8181525f80516020612a69833981519152602090815260408083206001600160a01b038616845290915290205460ff166125e1575f8181525f80516020612a69833981519152602090815260408083206001600160a01b0395909516808452949091528120805460ff19166001179055339291907f2f8788117e7eff1d82e926ec794901d17c78024a50270940304540a733656f0d9080a4600190565b50505f90565b60025f80516020612a8983398151915254146126105760025f80516020612a8983398151915255565b633ee5aeb560e01b5f5260045ffd5b5f8181525f80516020612a69833981519152602090815260408083206001600160a01b038616845290915290205460ff16156125e1575f8181525f80516020612a69833981519152602090815260408083206001600160a01b0395909516808452949091528120805460ff19169055339291907ff6391f5c32d9c69d2a47ea670b442974b53935d1edc7fd64eb21e047a839171b9080a4600190565b6040516323b872dd60e01b602082019081526001600160a01b039384166024830152939092166044830152606480830194909452928152915f918291612702608486612046565b60018060a01b031693519082855af13d15612796573d67ffffffffffffffff81116120685761275391604051916127436020601f19601f8401160184612046565b82523d5f602084013e5b83612a0a565b805190811515918261277b575b50506127695750565b635274afe760e01b5f5260045260245ffd5b61278e9250602080918301019101612127565b155f80612760565b6127539060609061274d565b60405162fc63d160e41b81526001600160a01b039190911690602081600481855afa908115611dfd575f916129c0575b506040516378e9792560e01b815291602083600481845afa928315611dfd575f9361298b575b506020600493916040519485809263387370c160e11b82525afa805f91612956575b6004945061295157505f5b80612949575b505f5460405163b497936560e01b81529360209185919082906001600160a01b03165afa928315611dfd575f93612915575b508042106129105761286f904261217e565b60055490915f916001600160a01b031690816128a8575b50501561289f575b808211156125e15761226a9161217e565b603c900461288e565b604051635b80cb9560e11b81526001600160a01b0390911660048201529150602090829060249082905afa5f91816128ef575b506128ea57505f5b5f80612886565b6128e3565b61290991925060203d6020116107485761073b8183612046565b905f6128db565b505090565b9092506020813d602011612941575b8161293160209383612046565b8101031261035f5751915f61285d565b3d9150612924565b90505f61282b565b612825565b90506020843d602011612983575b8161297160209383612046565b8101031261035f57600493519061281a565b3d9150612964565b92506020833d6020116129b8575b816129a660209383612046565b8101031261035f5791519160206127f8565b3d9150612999565b6129d9915060203d6020116103d5576103c78183612046565b5f6127d2565b60ff5f80516020612aa98339815191525460401c16156129fb57565b631afcd79f60e31b5f5260045ffd5b90612a2e5750805115612a1f57805190602001fd5b630a12f52160e11b5f5260045ffd5b81511580612a5f575b612a3f575090565b639996b31560e01b5f9081526001600160a01b0391909116600452602490fd5b50803b15612a3756fe02dd7bc7dec4dceedda775e58dd541e08a116c6c53815c0bd028192f7b6268009b779b17422d0df92223018b32b4d1fa46e071723d6817e2486d003becc55f00f0c57e16840df040f15088dc2f81fe391c3923bec73e23a9662efc9c229c6a00a264697066735822122034cd0e99260a3168cc8b33f3570b15cbd8d874eaef6b5d981c0399b2736e702064736f6c634300081a0033","linkReferences":{}},"methodIdentifiers":{"ADMIN_ROLE()":"75b238fc","DEFAULT_ADMIN_ROLE()":"a217fddf","EXECUTOR_ROLE()":"07bd0265","addInitialLiquidity(address,uint256,uint256)":"ba37fd38","antiSniperTaxManager()":"66b591a1","approval(address,address,address,uint256)":"ab3c475a","assetToken()":"1083f761","bondingV2()":"15d478cb","bondingV4()":"467678c8","buy(uint256,address,address,bool)":"bae7a7b4","drainPrivatePool(address,address)":"4024dced","drainUniV2Pool(address,address,address,uint256)":"6c6c887e","factory()":"c45a0155","getAmountsOut(address,address,uint256)":"45608d00","getRoleAdmin(bytes32)":"248a9ca3","graduate(address)":"ff6d8d05","grantRole(bytes32,address)":"2f2ff15d","hasAntiSniperTax(address)":"baa5cca2","hasRole(bytes32,address)":"91d14854","initialize(address,address)":"485cc955","renounceRole(bytes32,address)":"36568abe","resetTime(address,uint256)":"33543585","revokeRole(bytes32,address)":"d547741f","sell(uint256,address,address)":"6f08e177","setAntiSniperTaxManager(address)":"34df9071","setBondingV2(address)":"b283aaf8","setBondingV4(address)":"bdc17761","setTaxManager(address)":"095e3913","setTaxStartTime(address,uint256)":"89f0bc52","supportsInterface(bytes4)":"01ffc9a7","taxManager()":"4d237730"},"id":47}