{"abi":[{"type":"constructor","inputs":[{"name":"name_","type":"string","internalType":"string"},{"name":"symbol_","type":"string","internalType":"string"},{"name":"supply","type":"uint256","internalType":"uint256"},{"name":"_maxTx","type":"uint256","internalType":"uint256"}],"stateMutability":"nonpayable"},{"type":"function","name":"allowance","inputs":[{"name":"owner","type":"address","internalType":"address"},{"name":"spender","type":"address","internalType":"address"}],"outputs":[{"name":"","type":"uint256","internalType":"uint256"}],"stateMutability":"view"},{"type":"function","name":"approve","inputs":[{"name":"spender","type":"address","internalType":"address"},{"name":"amount","type":"uint256","internalType":"uint256"}],"outputs":[{"name":"","type":"bool","internalType":"bool"}],"stateMutability":"nonpayable"},{"type":"function","name":"balanceOf","inputs":[{"name":"account","type":"address","internalType":"address"}],"outputs":[{"name":"","type":"uint256","internalType":"uint256"}],"stateMutability":"view"},{"type":"function","name":"burnFrom","inputs":[{"name":"user","type":"address","internalType":"address"},{"name":"amount","type":"uint256","internalType":"uint256"}],"outputs":[],"stateMutability":"nonpayable"},{"type":"function","name":"decimals","inputs":[],"outputs":[{"name":"","type":"uint8","internalType":"uint8"}],"stateMutability":"pure"},{"type":"function","name":"excludeFromMaxTx","inputs":[{"name":"user","type":"address","internalType":"address"}],"outputs":[],"stateMutability":"nonpayable"},{"type":"function","name":"maxTx","inputs":[],"outputs":[{"name":"","type":"uint256","internalType":"uint256"}],"stateMutability":"view"},{"type":"function","name":"name","inputs":[],"outputs":[{"name":"","type":"string","internalType":"string"}],"stateMutability":"view"},{"type":"function","name":"owner","inputs":[],"outputs":[{"name":"","type":"address","internalType":"address"}],"stateMutability":"view"},{"type":"function","name":"renounceOwnership","inputs":[],"outputs":[],"stateMutability":"nonpayable"},{"type":"function","name":"symbol","inputs":[],"outputs":[{"name":"","type":"string","internalType":"string"}],"stateMutability":"view"},{"type":"function","name":"totalSupply","inputs":[],"outputs":[{"name":"","type":"uint256","internalType":"uint256"}],"stateMutability":"view"},{"type":"function","name":"transfer","inputs":[{"name":"recipient","type":"address","internalType":"address"},{"name":"amount","type":"uint256","internalType":"uint256"}],"outputs":[{"name":"","type":"bool","internalType":"bool"}],"stateMutability":"nonpayable"},{"type":"function","name":"transferFrom","inputs":[{"name":"sender","type":"address","internalType":"address"},{"name":"recipient","type":"address","internalType":"address"},{"name":"amount","type":"uint256","internalType":"uint256"}],"outputs":[{"name":"","type":"bool","internalType":"bool"}],"stateMutability":"nonpayable"},{"type":"function","name":"transferOwnership","inputs":[{"name":"newOwner","type":"address","internalType":"address"}],"outputs":[],"stateMutability":"nonpayable"},{"type":"function","name":"updateMaxTx","inputs":[{"name":"_maxTx","type":"uint256","internalType":"uint256"}],"outputs":[],"stateMutability":"nonpayable"},{"type":"event","name":"Approval","inputs":[{"name":"owner","type":"address","indexed":true,"internalType":"address"},{"name":"spender","type":"address","indexed":true,"internalType":"address"},{"name":"value","type":"uint256","indexed":false,"internalType":"uint256"}],"anonymous":false},{"type":"event","name":"MaxTxUpdated","inputs":[{"name":"_maxTx","type":"uint256","indexed":false,"internalType":"uint256"}],"anonymous":false},{"type":"event","name":"OwnershipTransferred","inputs":[{"name":"previousOwner","type":"address","indexed":true,"internalType":"address"},{"name":"newOwner","type":"address","indexed":true,"internalType":"address"}],"anonymous":false},{"type":"event","name":"Transfer","inputs":[{"name":"from","type":"address","indexed":true,"internalType":"address"},{"name":"to","type":"address","indexed":true,"internalType":"address"},{"name":"value","type":"uint256","indexed":false,"internalType":"uint256"}],"anonymous":false},{"type":"error","name":"OwnableInvalidOwner","inputs":[{"name":"owner","type":"address","internalType":"address"}]},{"type":"error","name":"OwnableUnauthorizedAccount","inputs":[{"name":"account","type":"address","internalType":"address"}]}],"bytecode":{"object":"0x60806040523461046b57610f64803803806100198161046f565b92833981019060808183031261046b5780516001600160401b03811161046b5782610045918301610494565b602082015190926001600160401b03821161046b57610065918301610494565b9060606040820151910151903315610458575f8054336001600160a01b0319821681178355916001600160a01b03909116907f8be0079c531659141344cd1fd0a4f28419497f9722a3daafe3b4186f6b6457e09080a383516001600160401b03811161036957600254600181811c9116801561044e575b602082101461034b57601f81116103eb575b50602094601f8211600114610388579481929394955f9261037d575b50508160011b915f199060031b1c1916176002555b82516001600160401b03811161036957600354600181811c9116801561035f575b602082101461034b57601f81116102e8575b506020601f821160011461028557819293945f9261027a575b50508160011b915f199060031b1c1916176003555b670de0b6b3a7640000810290808204670de0b6b3a764000014901517156102665780600155335f52600660205260405f2055335f52600860205260405f20600160ff19825416179055305f52600860205260405f20600160ff198254161790558060045560015490818102818104831482151715610266577fff3dd5e80294197918c284bbfc3dadd97d0b40ce92106110946329088f80068a91606460209204600555604051908152a16040519081525f7fddf252ad1be2c89b69c2b068fc378daa952ba7f163c4a11628f55a4df523b3ef60203393a3604051610a7e90816104e68239f35b634e487b7160e01b5f52601160045260245ffd5b015190505f8061016b565b601f1982169060035f52805f20915f5b8181106102d0575095836001959697106102b8575b505050811b01600355610180565b01515f1960f88460031b161c191690555f80806102aa565b9192602060018192868b015181550194019201610295565b60035f527fc2575a0e9e593c00f959f8c92f12db2869c3395a3b0502d05e2516446f71f85b601f830160051c81019160208410610341575b601f0160051c01905b8181106103365750610152565b5f8155600101610329565b9091508190610320565b634e487b7160e01b5f52602260045260245ffd5b90607f1690610140565b634e487b7160e01b5f52604160045260245ffd5b015190505f8061010a565b601f1982169560025f52805f20915f5b8881106103d3575083600195969798106103bb575b505050811b0160025561011f565b01515f1960f88460031b161c191690555f80806103ad565b91926020600181928685015181550194019201610398565b60025f527f405787fa12a823e0f2b7631cc41b3ba8828b3321ca811111fa75cd3aa3bb5ace601f830160051c81019160208410610444575b601f0160051c01905b81811061043957506100ee565b5f815560010161042c565b9091508190610423565b90607f16906100dc565b631e4fbdf760e01b5f525f60045260245ffd5b5f80fd5b6040519190601f01601f191682016001600160401b0381118382101761036957604052565b81601f8201121561046b578051906001600160401b038211610369576104c3601f8301601f191660200161046f565b928284526020838301011161046b57815f9260208093018386015e830101529056fe6080806040526004361015610012575f80fd5b5f3560e01c90816306fdde031461065f57508063095ea7b31461063957806318160ddd1461061c57806323b872dd146105b7578063313ce5671461059c57806370a0823114610564578063715018a61461050d5780637437681e146104f057806379cc6790146104365780638da5cb5b1461040f57806395d89b41146102f4578063a9059cbb146102c3578063c2d0ffca14610248578063db4cf1e0146101a5578063dd62ed3e146101555763f2fde38b146100cc575f80fd5b34610151576020366003190112610151576100e5610758565b6100ed610a22565b6001600160a01b0316801561013e575f80546001600160a01b03198116831782556001600160a01b0316907f8be0079c531659141344cd1fd0a4f28419497f9722a3daafe3b4186f6b6457e09080a3005b631e4fbdf760e01b5f525f60045260245ffd5b5f80fd5b346101515760403660031901126101515761016e610758565b61017661076e565b6001600160a01b039182165f908152600760209081526040808320949093168252928352819020549051908152f35b34610151576020366003190112610151576101be610758565b6101c6610a22565b6001600160a01b031680156101ef575f908152600860205260409020805460ff19166001179055005b60405162461bcd60e51b815260206004820152602b60248201527f45524332303a204578636c756465204d61782054782066726f6d20746865207a60448201526a65726f206164647265737360a81b6064820152608490fd5b3461015157602036600319011261015157600435610264610a22565b806004556001548082029082820414821517156102af577fff3dd5e80294197918c284bbfc3dadd97d0b40ce92106110946329088f80068a91606460209204600555604051908152a1005b634e487b7160e01b5f52601160045260245ffd5b34610151576040366003190112610151576102e96102df610758565b6024359033610895565b602060405160018152f35b34610151575f366003190112610151576040515f6003548060011c90600181168015610405575b6020831081146103f1578285529081156103d55750600114610380575b50819003601f01601f191681019067ffffffffffffffff82118183101761036c576103688291826040528261072e565b0390f35b634e487b7160e01b5f52604160045260245ffd5b905060035f527fc2575a0e9e593c00f959f8c92f12db2869c3395a3b0502d05e2516446f71f85b5f905b8282106103bf57506020915082010182610338565b60018160209254838588010152019101906103aa565b90506020925060ff191682840152151560051b82010182610338565b634e487b7160e01b5f52602260045260245ffd5b91607f169161031b565b34610151575f366003190112610151575f546040516001600160a01b039091168152602090f35b346101515760403660031901126101515761044f610758565b6024359061045b610a22565b6001600160a01b031680156104b9577fddf252ad1be2c89b69c2b068fc378daa952ba7f163c4a11628f55a4df523b3ef60205f93838552600682526104a4816040872054610784565b848652600683526040862055604051908152a3005b60405162461bcd60e51b815260206004820152600f60248201526e496e76616c6964206164647265737360881b6044820152606490fd5b34610151575f366003190112610151576020600454604051908152f35b34610151575f36600319011261015157610525610a22565b5f80546001600160a01b0319811682556001600160a01b03167f8be0079c531659141344cd1fd0a4f28419497f9722a3daafe3b4186f6b6457e08280a3005b34610151576020366003190112610151576001600160a01b03610585610758565b165f526006602052602060405f2054604051908152f35b34610151575f36600319011261015157602060405160128152f35b34610151576060366003190112610151576102e96105d3610758565b6106146105de61076e565b6105ec604435809285610895565b6001600160a01b0383165f908152600760209081526040808320338452909152902054610784565b903390610791565b34610151575f366003190112610151576020600154604051908152f35b34610151576040366003190112610151576102e9610655610758565b6024359033610791565b34610151575f366003190112610151575f6002548060011c90600181168015610724575b6020831081146103f1578285529081156103d557506001146106cf5750819003601f01601f191681019067ffffffffffffffff82118183101761036c576103688291826040528261072e565b905060025f527f405787fa12a823e0f2b7631cc41b3ba8828b3321ca811111fa75cd3aa3bb5ace5f905b82821061070e57506020915082010182610338565b60018160209254838588010152019101906106f9565b91607f1691610683565b602060409281835280519182918282860152018484015e5f828201840152601f01601f1916010190565b600435906001600160a01b038216820361015157565b602435906001600160a01b038216820361015157565b919082039182116102af57565b6001600160a01b0316908115610844576001600160a01b03169182156107f45760207f8c5be1e5ebec7d5bd14f71427d1e84f3dd0314c0f7b2291e5b200ac8c7c3b92591835f526007825260405f20855f5282528060405f2055604051908152a3565b60405162461bcd60e51b815260206004820152602260248201527f45524332303a20617070726f766520746f20746865207a65726f206164647265604482015261737360f01b6064820152608490fd5b60405162461bcd60e51b8152602060048201526024808201527f45524332303a20617070726f76652066726f6d20746865207a65726f206164646044820152637265737360e01b6064820152608490fd5b6001600160a01b03169081156109cf576001600160a01b031691821561097e57815f52600860205260ff60405f2054161561093f575b815f5260066020526108e18160405f2054610784565b825f52600660205260405f2055825f52600660205260405f20548181018091116102af577fddf252ad1be2c89b69c2b068fc378daa952ba7f163c4a11628f55a4df523b3ef91602091855f526006835260405f2055604051908152a3565b6005548111156108cb5760405162461bcd60e51b815260206004820152600d60248201526c08af0c6cacac8e6409ac2f0a8f609b1b6044820152606490fd5b60405162461bcd60e51b815260206004820152602360248201527f45524332303a207472616e7366657220746f20746865207a65726f206164647260448201526265737360e81b6064820152608490fd5b60405162461bcd60e51b815260206004820152602560248201527f45524332303a207472616e736665722066726f6d20746865207a65726f206164604482015264647265737360d81b6064820152608490fd5b5f546001600160a01b03163303610a3557565b63118cdaa760e01b5f523360045260245ffdfea26469706673582212209d69d73265608def03d1b15e908f0cf5bc29938e064a85b773597c406c89735e64736f6c634300081a0033","linkReferences":{}},"methodIdentifiers":{"allowance(address,address)":"dd62ed3e","approve(address,uint256)":"095ea7b3","balanceOf(address)":"70a08231","burnFrom(address,uint256)":"79cc6790","decimals()":"313ce567","excludeFromMaxTx(address)":"db4cf1e0","maxTx()":"7437681e","name()":"06fdde03","owner()":"8da5cb5b","renounceOwnership()":"715018a6","symbol()":"95d89b41","totalSupply()":"18160ddd","transfer(address,uint256)":"a9059cbb","transferFrom(address,address,uint256)":"23b872dd","transferOwnership(address)":"f2fde38b","updateMaxTx(uint256)":"c2d0ffca"},"id":22}