{"abi":[{"type":"constructor","inputs":[],"stateMutability":"nonpayable"},{"type":"function","name":"K","inputs":[],"outputs":[{"name":"","type":"uint256","internalType":"uint256"}],"stateMutability":"view"},{"type":"function","name":"VirtualIdBase","inputs":[],"outputs":[{"name":"","type":"uint256","internalType":"uint256"}],"stateMutability":"view"},{"type":"function","name":"agentFactory","inputs":[],"outputs":[{"name":"","type":"address","internalType":"address"}],"stateMutability":"view"},{"type":"function","name":"assetRate","inputs":[],"outputs":[{"name":"","type":"uint256","internalType":"uint256"}],"stateMutability":"view"},{"type":"function","name":"buy","inputs":[{"name":"amountIn","type":"uint256","internalType":"uint256"},{"name":"tokenAddress","type":"address","internalType":"address"},{"name":"amountOutMin","type":"uint256","internalType":"uint256"},{"name":"deadline","type":"uint256","internalType":"uint256"}],"outputs":[{"name":"","type":"bool","internalType":"bool"}],"stateMutability":"payable"},{"type":"function","name":"cancelLaunch","inputs":[{"name":"_tokenAddress","type":"address","internalType":"address"}],"outputs":[],"stateMutability":"nonpayable"},{"type":"function","name":"factory","inputs":[],"outputs":[{"name":"","type":"address","internalType":"contract FFactoryV2"}],"stateMutability":"view"},{"type":"function","name":"fee","inputs":[],"outputs":[{"name":"","type":"uint256","internalType":"uint256"}],"stateMutability":"view"},{"type":"function","name":"gradThreshold","inputs":[],"outputs":[{"name":"","type":"uint256","internalType":"uint256"}],"stateMutability":"view"},{"type":"function","name":"initialSupply","inputs":[],"outputs":[{"name":"","type":"uint256","internalType":"uint256"}],"stateMutability":"view"},{"type":"function","name":"initialize","inputs":[{"name":"factory_","type":"address","internalType":"address"},{"name":"router_","type":"address","internalType":"address"},{"name":"feeTo_","type":"address","internalType":"address"},{"name":"fee_","type":"uint256","internalType":"uint256"},{"name":"initialSupply_","type":"uint256","internalType":"uint256"},{"name":"assetRate_","type":"uint256","internalType":"uint256"},{"name":"maxTx_","type":"uint256","internalType":"uint256"},{"name":"agentFactory_","type":"address","internalType":"address"},{"name":"gradThreshold_","type":"uint256","internalType":"uint256"},{"name":"startTimeDelay_","type":"uint256","internalType":"uint256"}],"outputs":[],"stateMutability":"nonpayable"},{"type":"function","name":"launch","inputs":[{"name":"_tokenAddress","type":"address","internalType":"address"}],"outputs":[{"name":"","type":"address","internalType":"address"},{"name":"","type":"address","internalType":"address"},{"name":"","type":"uint256","internalType":"uint256"},{"name":"","type":"uint256","internalType":"uint256"}],"stateMutability":"nonpayable"},{"type":"function","name":"launchParams","inputs":[],"outputs":[{"name":"startTimeDelay","type":"uint256","internalType":"uint256"},{"name":"teamTokenReservedSupply","type":"uint256","internalType":"uint256"},{"name":"teamTokenReservedWallet","type":"address","internalType":"address"}],"stateMutability":"view"},{"type":"function","name":"maxTx","inputs":[],"outputs":[{"name":"","type":"uint256","internalType":"uint256"}],"stateMutability":"view"},{"type":"function","name":"owner","inputs":[],"outputs":[{"name":"","type":"address","internalType":"address"}],"stateMutability":"view"},{"type":"function","name":"preLaunch","inputs":[{"name":"_name","type":"string","internalType":"string"},{"name":"_ticker","type":"string","internalType":"string"},{"name":"cores","type":"uint8[]","internalType":"uint8[]"},{"name":"desc","type":"string","internalType":"string"},{"name":"img","type":"string","internalType":"string"},{"name":"urls","type":"string[4]","internalType":"string[4]"},{"name":"purchaseAmount","type":"uint256","internalType":"uint256"},{"name":"startTime","type":"uint256","internalType":"uint256"}],"outputs":[{"name":"","type":"address","internalType":"address"},{"name":"","type":"address","internalType":"address"},{"name":"","type":"uint256","internalType":"uint256"},{"name":"","type":"uint256","internalType":"uint256"}],"stateMutability":"nonpayable"},{"type":"function","name":"renounceOwnership","inputs":[],"outputs":[],"stateMutability":"nonpayable"},{"type":"function","name":"router","inputs":[],"outputs":[{"name":"","type":"address","internalType":"contract FRouterV2"}],"stateMutability":"view"},{"type":"function","name":"sell","inputs":[{"name":"amountIn","type":"uint256","internalType":"uint256"},{"name":"tokenAddress","type":"address","internalType":"address"},{"name":"amountOutMin","type":"uint256","internalType":"uint256"},{"name":"deadline","type":"uint256","internalType":"uint256"}],"outputs":[{"name":"","type":"bool","internalType":"bool"}],"stateMutability":"nonpayable"},{"type":"function","name":"setDeployParams","inputs":[{"name":"params","type":"tuple","internalType":"struct BondingV3.DeployParams","components":[{"name":"tbaSalt","type":"bytes32","internalType":"bytes32"},{"name":"tbaImplementation","type":"address","internalType":"address"},{"name":"daoVotingPeriod","type":"uint32","internalType":"uint32"},{"name":"daoThreshold","type":"uint256","internalType":"uint256"}]}],"outputs":[],"stateMutability":"nonpayable"},{"type":"function","name":"setLaunchParams","inputs":[{"name":"params","type":"tuple","internalType":"struct BondingV3.LaunchParams","components":[{"name":"startTimeDelay","type":"uint256","internalType":"uint256"},{"name":"teamTokenReservedSupply","type":"uint256","internalType":"uint256"},{"name":"teamTokenReservedWallet","type":"address","internalType":"address"}]}],"outputs":[],"stateMutability":"nonpayable"},{"type":"function","name":"setTokenParams","inputs":[{"name":"newSupply","type":"uint256","internalType":"uint256"},{"name":"newGradThreshold","type":"uint256","internalType":"uint256"},{"name":"newMaxTx","type":"uint256","internalType":"uint256"},{"name":"newAssetRate","type":"uint256","internalType":"uint256"},{"name":"newFee","type":"uint256","internalType":"uint256"},{"name":"newFeeTo","type":"address","internalType":"address"}],"outputs":[],"stateMutability":"nonpayable"},{"type":"function","name":"tokenInfo","inputs":[{"name":"","type":"address","internalType":"address"}],"outputs":[{"name":"creator","type":"address","internalType":"address"},{"name":"token","type":"address","internalType":"address"},{"name":"pair","type":"address","internalType":"address"},{"name":"agentToken","type":"address","internalType":"address"},{"name":"data","type":"tuple","internalType":"struct BondingV3.Data","components":[{"name":"token","type":"address","internalType":"address"},{"name":"name","type":"string","internalType":"string"},{"name":"_name","type":"string","internalType":"string"},{"name":"ticker","type":"string","internalType":"string"},{"name":"supply","type":"uint256","internalType":"uint256"},{"name":"price","type":"uint256","internalType":"uint256"},{"name":"marketCap","type":"uint256","internalType":"uint256"},{"name":"liquidity","type":"uint256","internalType":"uint256"},{"name":"volume","type":"uint256","internalType":"uint256"},{"name":"volume24H","type":"uint256","internalType":"uint256"},{"name":"prevPrice","type":"uint256","internalType":"uint256"},{"name":"lastUpdated","type":"uint256","internalType":"uint256"}]},{"name":"description","type":"string","internalType":"string"},{"name":"image","type":"string","internalType":"string"},{"name":"twitter","type":"string","internalType":"string"},{"name":"telegram","type":"string","internalType":"string"},{"name":"youtube","type":"string","internalType":"string"},{"name":"website","type":"string","internalType":"string"},{"name":"trading","type":"bool","internalType":"bool"},{"name":"tradingOnUniswap","type":"bool","internalType":"bool"},{"name":"applicationId","type":"uint256","internalType":"uint256"},{"name":"initialPurchase","type":"uint256","internalType":"uint256"},{"name":"virtualId","type":"uint256","internalType":"uint256"},{"name":"launchExecuted","type":"bool","internalType":"bool"}],"stateMutability":"view"},{"type":"function","name":"tokenInfos","inputs":[{"name":"","type":"uint256","internalType":"uint256"}],"outputs":[{"name":"","type":"address","internalType":"address"}],"stateMutability":"view"},{"type":"function","name":"transferOwnership","inputs":[{"name":"newOwner","type":"address","internalType":"address"}],"outputs":[],"stateMutability":"nonpayable"},{"type":"event","name":"CancelledLaunch","inputs":[{"name":"token","type":"address","indexed":true,"internalType":"address"},{"name":"pair","type":"address","indexed":true,"internalType":"address"},{"name":"","type":"uint256","indexed":false,"internalType":"uint256"},{"name":"initialPurchase","type":"uint256","indexed":false,"internalType":"uint256"}],"anonymous":false},{"type":"event","name":"Deployed","inputs":[{"name":"token","type":"address","indexed":true,"internalType":"address"},{"name":"amount0","type":"uint256","indexed":false,"internalType":"uint256"},{"name":"amount1","type":"uint256","indexed":false,"internalType":"uint256"}],"anonymous":false},{"type":"event","name":"Graduated","inputs":[{"name":"token","type":"address","indexed":true,"internalType":"address"},{"name":"agentToken","type":"address","indexed":false,"internalType":"address"}],"anonymous":false},{"type":"event","name":"Initialized","inputs":[{"name":"version","type":"uint64","indexed":false,"internalType":"uint64"}],"anonymous":false},{"type":"event","name":"Launched","inputs":[{"name":"token","type":"address","indexed":true,"internalType":"address"},{"name":"pair","type":"address","indexed":true,"internalType":"address"},{"name":"","type":"uint256","indexed":false,"internalType":"uint256"},{"name":"initialPurchase","type":"uint256","indexed":false,"internalType":"uint256"},{"name":"initialPurchasedAmount","type":"uint256","indexed":false,"internalType":"uint256"}],"anonymous":false},{"type":"event","name":"OwnershipTransferred","inputs":[{"name":"previousOwner","type":"address","indexed":true,"internalType":"address"},{"name":"newOwner","type":"address","indexed":true,"internalType":"address"}],"anonymous":false},{"type":"event","name":"PreLaunched","inputs":[{"name":"token","type":"address","indexed":true,"internalType":"address"},{"name":"pair","type":"address","indexed":true,"internalType":"address"},{"name":"","type":"uint256","indexed":false,"internalType":"uint256"},{"name":"initialPurchase","type":"uint256","indexed":false,"internalType":"uint256"}],"anonymous":false},{"type":"error","name":"AddressEmptyCode","inputs":[{"name":"target","type":"address","internalType":"address"}]},{"type":"error","name":"AddressInsufficientBalance","inputs":[{"name":"account","type":"address","internalType":"address"}]},{"type":"error","name":"FailedInnerCall","inputs":[]},{"type":"error","name":"InvalidInitialization","inputs":[]},{"type":"error","name":"InvalidInput","inputs":[]},{"type":"error","name":"InvalidTokenStatus","inputs":[]},{"type":"error","name":"NotInitializing","inputs":[]},{"type":"error","name":"OwnableInvalidOwner","inputs":[{"name":"owner","type":"address","internalType":"address"}]},{"type":"error","name":"OwnableUnauthorizedAccount","inputs":[{"name":"account","type":"address","internalType":"address"}]},{"type":"error","name":"ReentrancyGuardReentrantCall","inputs":[]},{"type":"error","name":"SafeERC20FailedOperation","inputs":[{"name":"token","type":"address","internalType":"address"}]},{"type":"error","name":"SlippageTooHigh","inputs":[]}],"bytecode":{"object":"0x6080806040523460d0577ff0c57e16840df040f15088dc2f81fe391c3923bec73e23a9662efc9c229c6a005460ff8160401c1660c1576002600160401b03196001600160401b03821601605c575b604051612c3290816100d58239f35b6001600160401b0319166001600160401b039081177ff0c57e16840df040f15088dc2f81fe391c3923bec73e23a9662efc9c229c6a005581527fc7f505b2f371ae2175ee4913f4499e1f2633a7b5936321eed1cdaeb6115181d290602090a15f80604d565b63f92ee8a960e01b5f5260045ffd5b5f80fdfe60a06040526004361015610011575f80fd5b5f803560e01c806318d80a6914611c0d578063214013ca14610e8d578063378dc3dc14610e6f5780633b85d77114610e4f57806343fb4d2414610db05780636edd12e014610d92578063706910ff14610d23578063715018a614610cba5780637437681e14610c9c5780637c13774b14610c3c5780637df107ea14610c135780638da5cb5b14610bde5780639e6e0c8914610b4e578063a932492f14610b2d578063b20c84c814610af6578063b233e056146109af578063b5d85c211461076c578063c45a015514610743578063ddca3f4314610725578063e33d206f14610584578063e8e6ed6914610566578063f2fde38b14610539578063f5dab711146101d3578063f887ea40146101aa5763ff0049e11461012d575f80fd5b346101a75760c03660031901126101a75760a4356001600160a01b03811690606435908290036101a35761015f612a06565b8015610194576004356003556024356006556044356007556005556084356004556001600160601b0360a01b82541617815580f35b63b4fa3fb360e01b8352600483fd5b8280fd5b80fd5b50346101a757806003193601126101a7576002546040516001600160a01b039091168152602090f35b50346101a75760203660031901126101a7576001600160a01b036101f5611e8c565b168152600c6020526040808220805460018201546002830154600384015494516001600160a01b0395861696938616959283169392909116916101808201908282106001600160401b03831117610525575060405260048401546001600160a01b0316815261026660058501611efc565b602082015261027760068501611efc565b604082015261028860078501611efc565b606082015260088401546080820152600984015460a0820152600a84015460c0820152600b84015460e0820152600c840154610100820152600d840154610120820152600e840154610140820152600f8401546101608201526102ed60108501611efc565b6102f960128601611efc565b61030560138701611efc565b61031160148801611efc565b9161031e60158901611efc565b9361032b60168a01611efc565b9560178a01549b60188b01549860198c01549a601a8d01549c601b015460ff169d604051608052608051526080516020015260805160400152608051606001526080516080016102209052600160a01b60019003815116608051610220015260208101516080516102400161018090526080516103a0016103ab91611fc8565b60408201519061021f1960805182030160805161026001526103cc91611fc8565b60608201519061021f1960805182030160805161028001526103ed91611fc8565b9060808101516080516102a0015260a08101516080516102c0015260c08101516080516102e0015260e0810151608051610300015261010081015160805161032001526101208101516080516103400152610140810151608051610360015261016001516080516103800152608051810360805160a0015261046e91611fc8565b608051810360805160c0015261048391611fc8565b608051810360805160e0015261049891611fc8565b608051810360805161010001526104ae91611fc8565b608051810360805161012001526104c491611fc8565b608051810360805161014001526104da91611fc8565b9460ff81161515608051610160015260081c60ff16151560805161018001526080516101a001526080516101c001526080516101e00152151560805161020001526080519003608051f35b634e487b7160e01b81526041600452602490fd5b50346101a75760203660031901126101a757610563610556611e8c565b61055e612a06565b612037565b80f35b50346101a757806003193601126101a7576020600554604051908152f35b50346101a75760203660031901126101a7576001600160a01b036105a6611e8c565b16808252600c6020526040822060018101546001600160a01b0316158015610710575b6101945780546001600160a01b03163381900361070157601b82019060ff8254166106f2578490601984019081548061065a575b505055600160ff19825416179055600260018060a01b039101541690808352600c6020527f7f9759070d2e707c297824b408d7d1739aa72e3329ae1bf3f77fb321d6856f936040601a81862001548151908152856020820152a380f35b600254604051631083f76160e01b81529290602090849060049082906001600160a01b03165afa80156106e75785906106a8575b6106a193506001600160a01b03166120e0565b5f806105fd565b506020833d6020116106df575b816106c260209383611df3565b810103126106db576106d66106a193611fec565b61068e565b8480fd5b3d91506106b5565b6040513d87823e3d90fd5b63d4181deb60e01b8552600485fd5b63b4fa3fb360e01b8452600484fd5b5060028101546001600160a01b0316156105c9565b50346101a757806003193601126101a7576020600454604051908152f35b50346101a757806003193601126101a7576001546040516001600160a01b039091168152602090f35b50346101a7576101403660031901126101a757610787611e8c565b61078f611ea2565b610797611eb8565b60e4356001600160a01b0381169260643592918490036109ab575f80516020612bdd833981519152549460ff8660401c1615956001600160401b038116801590816109a3575b6001149081610999575b159081610990575b506109815767ffffffffffffffff1981166001175f80516020612bdd8339815191525586610955575b50610821612ad3565b610829612ad3565b61083233612037565b61083a612ad3565b610842612ad3565b60015f80516020612bbd83398151915281905580546001600160a01b03199081166001600160a01b03938416179091556002805482169383169390931790925586549091169116178455670de0b6b3a76400008181029180159083049091141715610941576103e8900460045560843560035560a43560055560c4356007556001600160601b0360a01b60085416176008556101043560065561012435600e556108e95780f35b68ff0000000000000000195f80516020612bdd83398151915254165f80516020612bdd833981519152557fc7f505b2f371ae2175ee4913f4499e1f2633a7b5936321eed1cdaeb6115181d2602060405160018152a180f35b634e487b7160e01b84526011600452602484fd5b68ffffffffffffffffff191668010000000000000001175f80516020612bdd833981519152555f610818565b63f92ee8a960e01b8852600488fd5b9050155f6107ef565b303b1591506107e7565b8891506107dd565b8580fd5b50346101a7576109be36611ece565b6001600160a01b03909216808552600c6020526040852060170154909391929060ff16156106f257838552600c60205260ff601b60408720015416156106f2574211610701579060408492606460018060a01b03600254169183519586938492636f08e17760e01b845260048401528860248401523360448401525af1918215610aeb578492610ab8575b508115918215610aae575b5050610a9f57808252600c60205262015180610a77600f60408520015442612000565b11610a88575b602060405160018152f35b8152600c602052600f604042922001555f80610a7d565b63428637bb60e11b8252600482fd5b1090505f80610a54565b610adb91925060403d604011610ae4575b610ad38183611df3565b810190612021565b9050905f610a49565b503d610ac9565b6040513d86823e3d90fd5b50346101a757806003193601126101a7576060600e54600f5460018060a01b03601054169060405192835260208301526040820152f35b50346101a757806003193601126101a75760206040516502dd6aa18c008152f35b50346101a75760603660031901126101a757604051606081018181106001600160401b03821117610bca576040526004358152602081016024358152610b92611eb8565b9160408101928352610ba2612a06565b51600e5551600f5560018060a01b039051166001600160601b0360a01b601054161760105580f35b634e487b7160e01b83526041600452602483fd5b50346101a757806003193601126101a7575f80516020612b9d833981519152546040516001600160a01b039091168152602090f35b50346101a757806003193601126101a7576008546040516001600160a01b039091168152602090f35b50346101a75760203660031901126101a757600435600d54811015610c9857600d9091527fd7b6990105719101dabeb77144f2a3385c8033acd3af97e9423a695e81ad1eb501546040516001600160a01b039091168152602090f35b5080fd5b50346101a757806003193601126101a7576020600754604051908152f35b50346101a757806003193601126101a757610cd3612a06565b5f80516020612b9d83398151915280546001600160a01b0319811690915581906001600160a01b03167f8be0079c531659141344cd1fd0a4f28419497f9722a3daafe3b4186f6b6457e08280a380f35b50610d2d36611ece565b6001600160a01b038316808652600c602052604086206017015491949293929160ff1615610d83578552600c60205260ff601b60408720015416156106f257610d77945033612134565b50602060405160018152f35b63d4181deb60e01b8652600486fd5b50346101a757806003193601126101a7576020600654604051908152f35b50346101a75760803660031901126101a757604051610dce81611dc4565b6004358152610ddb611ea2565b602082019081526044359063ffffffff82168203610e4b576040830191825260608301926064358452610e0c612a06565b5160095551600a8054925163ffffffff60a01b60a09190911b166001600160a01b039092166001600160c01b03199093169290921717905551600b5580f35b8380fd5b50346101a757806003193601126101a75760206040516406fc23ac008152f35b50346101a757806003193601126101a7576020600354604051908152f35b503461184557602036600319011261184557610ea7611e8c565b610eaf6120a8565b6001600160a01b038181165f818152600c602052604090206001810154919392909116158015611bf8575b611ba857601b81019060ff825416611be9576002810180546040516378e9792560e01b81526001600160a01b0390911690602081600481855afa908115611b9d575f91611bb7575b504210611ba8576002546001600160a01b0316803b15611845576040516344f85e2960e11b81526001600160a01b039290921660048301524260248301525f908290604490829084905af18015611b9d57611b88575b5060198692019384549485611010575b5050608095606093601a93875f80516020612b5d83398151915260409560018060a01b03905416978893838752600c6020528888882001549088519182528b602083015288820152a3600160ff19825416179055858152600c6020522001549060015f80516020612bbd83398151915255604051938452602084015260408301526060820152f35b90925060018060a01b0360025416604051631083f76160e01b8152602081600481855afa9081156119c2578991611b4e575b5060405163095ea7b360e01b602082019081526001600160a01b03848116602484015260448084018b905283529192909116908a908190611084606486611df3565b84519082855af1611093612aa4565b81611b1f575b5080611b15575b15611ad0575b50505061012c42014211611abc57600154600254604051631083f76160e01b81526001600160a01b03918216959290911690602081600481895afa908115611659578a91611a7a575b5060405163e6a4390560e01b81526001600160a01b03808516600483015290911660248201529060209082908180604481015b03915afa9081156119c2578991611a3c575b5060408051630240bc6b60e21b81526001600160a01b0392909216919081600481855afa908115611659578a91611a1c575b5060408960848a8d84519a8b948593632eb9e9ed60e21b855260048501526024840152306044840152600160648401525af1958615611659578a966119f9575b50851580156119f2575b6119e357856111be91612000565b888a52600c602052620151806111db600f60408d20015442612000565b116119cd575b6006541015908161194d575b5080611934575b61123e575b509560609383875f80516020612b5d8339815191526040958560809c601a995061122e8660018060a01b0360105416876120e0565b5595505050935093819750610f88565b868852600c60205260408820906017820191825460ff8160081c16908115611928575b5061191957600154600254604051631083f76160e01b81526001600160a01b03918216949290911690602081600481885afa908115611883578d916118d7575b5060405163e6a4390560e01b81526001600160a01b03808516600483015290911660248201529060209082908180604481015b03915afa9081156118cc578c9161188e575b5060405163c66f245560e01b81526001600160a01b03919091169190602081600481865afa908115611883578d91611851575b506040516316d3df1560e31b8152948d90602087600481885afa9687156116ca578297611816575b50803b15610c98578180918f602490604051948593849263ff6d8d0560e01b845260048401525af180156116ca57611801575b50600254604051631083f76160e01b81529190602090839060049082906001600160a01b03165afa80156117f4578391906117b3575b6008546113c493506001600160a01b0390811691166120e0565b60085460188501805490928f926001600160a01b03169190823b15610e4b576044849283604051958694859362055c5b60e51b8552600485015260248401525af180156116ca5761179e575b508060048e9260018060a01b0360085416936040519283809263d6efd7c360e01b82525afa9182156117925780926116e9575b50508051156116d557602001518e916001600160a01b0390911690803b156101a3576040516309d02ad360e31b81526001600160a01b03868116600483015292909216602483015282908290604490829084905af19081156116ca578e859189936116a9575b506114b493506120e0565b54918215611664576020928d60a49260018060a01b036008541690670de0b6b3a764000060088901540495604051888101913360601b83524260348301526001600160601b03199060601b16605482015260488152611514606882611df3565b51902090670de0b6b3a76400006040519a8b98899763d2f5855960e01b895260048901526024880152046044860152606485015260848401525af1918215611659578a926115d7575b505f80516020612b5d8339815191526040958b60809c9660609a968d5f80516020612b7d8339815191526020601a9d996003849a0160018060a01b0382166001600160601b0360a01b8254161790558d519060018060a01b03168152a261010061ffff1982541617905596509b50955050509350936111f9565b9091506020813d602011611651575b816115f360209383611df3565b8101031261164d575f80516020612b5d8339815191526040958b60809c9660609a968d5f80516020612b7d8339815191526020601a9d996003611636859b611fec565b9b9f50509850505050969a5096509b50955061155d565b8980fd5b3d91506115e6565b6040513d8c823e3d90fd5b60405162461bcd60e51b815260206004820152601760248201527f4170706c69636174696f6e4964206e6f7420666f756e640000000000000000006044820152606490fd5b90506116b89250839150611df3565b6116c6578c85838e5f6114a9565b8c80fd5b6040513d84823e3d90fd5b634e487b7160e01b8f52603260045260248ffd5b9091503d8091833e6116fb8183611df3565b810190602081830312611789578051906001600160401b03821161178d57019080601f8301121561178957815161173181611e75565b9261173f6040519485611df3565b81845260208085019260051b82010192831161178357602001905b82821061176b575050505f8f611443565b6020809161177884611fec565b81520191019061175a565b50508f80fd5b8f80fd5b508f80fd5b604051903d90823e3d90fd5b816117a891611df3565b6116c6578c5f611410565b50506020813d6020116117ec575b816117ce60209383611df3565b810103126117e857816117e36113c492611fec565b6113aa565b8d80fd5b3d91506117c1565b50604051903d90823e3d90fd5b8161180b91611df3565b6116c6578c5f611374565b915095506020813d602011611849575b8161183360209383611df3565b81010312611845578d9051955f611341565b5f80fd5b3d9150611826565b90506020813d60201161187b575b8161186c60209383611df3565b8101031261184557515f611319565b3d915061185f565b6040513d8f823e3d90fd5b90506020813d6020116118c4575b816118a960209383611df3565b810103126118c0576118ba90611fec565b5f6112e6565b8b80fd5b3d915061189c565b6040513d8e823e3d90fd5b90506020813d602011611911575b816118f260209383611df3565b810103126116c6576112d491611909602092611fec565b9150916112a1565b3d91506118e5565b63d4181deb60e01b8a5260048afd5b60ff915016155f611261565b50868852600c60205260ff601760408a200154166111f4565b600254604051635d52e65160e11b81526004810192909252909150602090829060249082906001600160a01b03165afa9081156119c2578991611993575b50155f6111ed565b6119b5915060203d6020116119bb575b6119ad8183611df3565b81019061211c565b5f61198b565b503d6119a3565b6040513d8b823e3d90fd5b888a52600c60205242600f60408c2001556111e1565b63428637bb60e11b8a5260048afd5b50896111b0565b611a1391965060403d604011610ae457610ad38183611df3565b9050945f6111a6565b611a35915060403d604011610ae457610ad38183611df3565b505f611166565b90506020813d602011611a72575b81611a5760209383611df3565b81010312611a6e57611a6890611fec565b5f611134565b8880fd5b3d9150611a4a565b90506020813d602011611ab4575b81611a9560209383611df3565b8101031261164d5761112291611aac602092611fec565b9150916110ef565b3d9150611a88565b634e487b7160e01b87526011600452602487fd5b611b08611b0d936040519063095ea7b360e01b602083015260248201528b604482015260448152611b02606482611df3565b82612a39565b612a39565b5f80806110a6565b50803b15156110a0565b8051801592508215611b34575b50505f611099565b611b47925060208091830101910161211c565b5f80611b2c565b90506020813d602011611b80575b81611b6960209383611df3565b81010312611a6e57611b7a90611fec565b5f611042565b3d9150611b5c565b611b959196505f90611df3565b5f945f610f78565b6040513d5f823e3d90fd5b63b4fa3fb360e01b5f5260045ffd5b90506020813d602011611be1575b81611bd260209383611df3565b8101031261184557515f610f22565b3d9150611bc5565b63d4181deb60e01b5f5260045ffd5b5060028101546001600160a01b031615610eda565b3461184557610100366003190112611845576004356001600160401b03811161184557611c3e903690600401611e2f565b506024356001600160401b03811161184557611c5e903690600401611e2f565b506044356001600160401b03811161184557366023820112156118455780600401359060246020611c8e84611e75565b611c9b6040519182611df3565b848152019260051b8201019036821161184557602401915b818310611daa576064356001600160401b03811161184557611cd9903690600401611e2f565b506084356001600160401b03811161184557611cf9903690600401611e2f565b5060a4356001600160401b038111611845573660238201121561184557604051611d2281611dc4565b9060848101903682116118455780600401925b828410611d7b57611d446120a8565b60405162461bcd60e51b815260206004820152600f60248201526e139bdd081a5b5c1b195b595b9d1959608a1b6044820152606490fd5b83356001600160401b03811161184557602091611d9f839260043691870101611e2f565b815201930192611d35565b823560ff8116810361184557815260209283019201611cb3565b608081019081106001600160401b03821117611ddf57604052565b634e487b7160e01b5f52604160045260245ffd5b90601f801991011681019081106001600160401b03821117611ddf57604052565b6001600160401b038111611ddf57601f01601f191660200190565b81601f8201121561184557803590611e4682611e14565b92611e546040519485611df3565b8284526020838301011161184557815f926020809301838601378301015290565b6001600160401b038111611ddf5760051b60200190565b600435906001600160a01b038216820361184557565b602435906001600160a01b038216820361184557565b604435906001600160a01b038216820361184557565b608090600319011261184557600435906024356001600160a01b038116810361184557906044359060643590565b90604051915f8154908160011c9260018316928315611fbe575b602085108414611faa578487528693908115611f885750600114611f44575b50611f4292500383611df3565b565b90505f9291925260205f20905f915b818310611f6c575050906020611f42928201015f611f35565b6020919350806001915483858901015201910190918492611f53565b905060209250611f4294915060ff191682840152151560051b8201015f611f35565b634e487b7160e01b5f52602260045260245ffd5b93607f1693611f16565b805180835260209291819084018484015e5f828201840152601f01601f1916010190565b51906001600160a01b038216820361184557565b9190820391821161200d57565b634e487b7160e01b5f52601160045260245ffd5b9190826040910312611845576020825192015190565b6001600160a01b03168015612095575f80516020612b9d83398151915280546001600160a01b0319811683179091556001600160a01b03167f8be0079c531659141344cd1fd0a4f28419497f9722a3daafe3b4186f6b6457e05f80a3565b631e4fbdf760e01b5f525f60045260245ffd5b60025f80516020612bbd83398151915254146120d15760025f80516020612bbd83398151915255565b633ee5aeb560e01b5f5260045ffd5b60405163a9059cbb60e01b60208201526001600160a01b03929092166024830152604480830193909352918152611f4291611b08606483611df3565b90816020910312611845575180151581036118455790565b91929390935f914211611ba857600154600254604051631083f76160e01b81526001600160a01b039182169792909116906020816004818b5afa908115611b9d575f916129c4575b5060405163e6a4390560e01b81526001600160a01b03808916600483015290911660248201529060209082908180604481015b03915afa908115611b9d575f9161298a575b5060408051630240bc6b60e21b8152976001600160a01b039290921693919088600481875afa928315611b9d575f988994612962575b5060408051632eb9e9ed60e21b815260048101929092526001600160a01b038981166024840181905298166044830152606482018a90529098909189916084918391905af1968715611b9d575f9761293f575b508615908115612935575b50612926578561226491612000565b835f52600c60205262015180612281600f60405f20015442612000565b11612910575b600654101590816128ab575b5080612892575b6122a5575b50505090565b815f52600c60205260405f20906017820193845460ff8160081c16908115612886575b50611be957600154600254604051631083f76160e01b81526001600160a01b03918216939290911690602081600481875afa908115611b9d575f91612844575b5060405163e6a4390560e01b81526001600160a01b03808516600483015290911660248201529060209082908180604481015b03915afa908115611b9d575f9161280a575b5060405163c66f245560e01b81526001600160a01b03919091169190602081600481865afa908115611b9d575f916127d8575b506040516316d3df1560e31b815293602085600481875afa948515611b9d575f956127a4575b50803b15611845575f809160246040518094819363ff6d8d0560e01b83528d60048401525af18015611b9d5761278f575b50600254604051631083f76160e01b815290602090829060049082906001600160a01b03165afa80156126735782908790612752575b60085461242793506001600160a01b0390811691166120e0565b60018060a01b036008541660188701918254823b1561272e57906044889283604051958694859362055c5b60e51b8552600485015260248401525af180156126735790869161273d575b505060085460405163d6efd7c360e01b81526001600160a01b039091169086816004818c5afa908115612732578791612696575b5080511561268257602001516001600160a01b0316813b1561267e576040516309d02ad360e31b81526001600160a01b0385811660048301529190911660248201529086908290604490829084905af180156126735790869161265e575b50506125108483896120e0565b54918215611664576020928560a49260018060a01b036008541690670de0b6b3a764000060088b01540495604051888101913360601b83524260348301526001600160601b03199060601b16605482015260488152612570606882611df3565b51902090670de0b6b3a7640000604051998a98899763d2f5855960e01b895260048901526024880152046044860152606485015260848401525af191821561179257809261260b575b505060039190910180546001600160a01b0319166001600160a01b0390921691821790556040519081525f80516020612b7d83398151915290602090a2805461ffff19166101001790555f808061229f565b9091506020823d602011612656575b8161262760209383611df3565b810103126101a757505f80516020612b7d83398151915291600361264c602093611fec565b92508193506125b9565b3d915061261a565b8161266891611df3565b6106db57845f612503565b6040513d88823e3d90fd5b8680fd5b634e487b7160e01b87526032600452602487fd5b90503d8088833e6126a78183611df3565b81019060208183031261272e578051906001600160401b038211611a6e57019080601f8301121561272e5781516126dd81611e75565b926126eb6040519485611df3565b81845260208085019260051b82010192831161164d57602001905b828210612716575050505f6124a5565b6020809161272384611fec565b815201910190612706565b8780fd5b6040513d89823e3d90fd5b8161274791611df3565b6106db57845f612471565b50506020813d602011612787575b8161276d60209383611df3565b810103126109ab578161278261242792611fec565b61240d565b3d9150612760565b61279c9195505f90611df3565b5f935f6123d7565b9094506020813d6020116127d0575b816127c060209383611df3565b810103126118455751935f6123a6565b3d91506127b3565b90506020813d602011612802575b816127f360209383611df3565b8101031261184557515f612380565b3d91506127e6565b90506020813d60201161283c575b8161282560209383611df3565b810103126118455761283690611fec565b5f61234d565b3d9150612818565b90506020813d60201161287e575b8161285f60209383611df3565b810103126118455761233b91612876602092611fec565b915091612308565b3d9150612852565b60ff915016155f6122c8565b50815f52600c60205260ff601760405f2001541661229a565b600254604051635d52e65160e11b81526004810192909252909150602090829060249082906001600160a01b03165afa908115611b9d575f916128f1575b50155f612293565b61290a915060203d6020116119bb576119ad8183611df3565b5f6128e9565b835f52600c60205242600f60405f200155612287565b63428637bb60e11b5f5260045ffd5b905086105f612255565b61295991975060403d604011610ae457610ad38183611df3565b9050955f61224a565b604092919450612980608491843d8611610ae457610ad38183611df3565b50949192506121f7565b90506020813d6020116129bc575b816129a560209383611df3565b81010312611845576129b690611fec565b5f6121c1565b3d9150612998565b90506020813d6020116129fe575b816129df60209383611df3565b81010312611845576121af916129f6602092611fec565b91509161217c565b3d91506129d2565b5f80516020612b9d833981519152546001600160a01b03163303612a2657565b63118cdaa760e01b5f523360045260245ffd5b5f80612a619260018060a01b03169360208151910182865af1612a5a612aa4565b9083612afe565b8051908115159182612a89575b5050612a775750565b635274afe760e01b5f5260045260245ffd5b612a9c925060208091830101910161211c565b155f80612a6e565b3d15612ace573d90612ab582611e14565b91612ac36040519384611df3565b82523d5f602084013e565b606090565b60ff5f80516020612bdd8339815191525460401c1615612aef57565b631afcd79f60e31b5f5260045ffd5b90612b225750805115612b1357805190602001fd5b630a12f52160e11b5f5260045ffd5b81511580612b53575b612b33575090565b639996b31560e01b5f9081526001600160a01b0391909116600452602490fd5b50803b15612b2b56fed113672859919fb75607f9e7df716114585bc03e2c4cb89ca2b2a7e8220c90bc381d54fa425631e6266af114239150fae1d5db67bb65b4fa9ecc65013107e07e9016d09d72d40fdae2fd8ceac6b6234c7706214fd39c1cd1e609a0528c1993009b779b17422d0df92223018b32b4d1fa46e071723d6817e2486d003becc55f00f0c57e16840df040f15088dc2f81fe391c3923bec73e23a9662efc9c229c6a00a2646970667358221220673935a2760169536406c684da2b42cea6631cd860d5706228391bb8e5b0266e64736f6c634300081a0033","linkReferences":{}},"methodIdentifiers":{"K()":"a932492f","VirtualIdBase()":"3b85d771","agentFactory()":"7df107ea","assetRate()":"e8e6ed69","buy(uint256,address,uint256,uint256)":"706910ff","cancelLaunch(address)":"e33d206f","factory()":"c45a0155","fee()":"ddca3f43","gradThreshold()":"6edd12e0","initialSupply()":"378dc3dc","initialize(address,address,address,uint256,uint256,uint256,uint256,address,uint256,uint256)":"b5d85c21","launch(address)":"214013ca","launchParams()":"b20c84c8","maxTx()":"7437681e","owner()":"8da5cb5b","preLaunch(string,string,uint8[],string,string,string[4],uint256,uint256)":"18d80a69","renounceOwnership()":"715018a6","router()":"f887ea40","sell(uint256,address,uint256,uint256)":"b233e056","setDeployParams((bytes32,address,uint32,uint256))":"43fb4d24","setLaunchParams((uint256,uint256,address))":"9e6e0c89","setTokenParams(uint256,uint256,uint256,uint256,uint256,address)":"ff0049e1","tokenInfo(address)":"f5dab711","tokenInfos(uint256)":"7c13774b","transferOwnership(address)":"f2fde38b"},"id":41}