{"abi":[{"type":"constructor","inputs":[],"stateMutability":"nonpayable"},{"type":"function","name":"ADMIN_ROLE","inputs":[],"outputs":[{"name":"","type":"bytes32","internalType":"bytes32"}],"stateMutability":"view"},{"type":"function","name":"DEFAULT_ADMIN_ROLE","inputs":[],"outputs":[{"name":"","type":"bytes32","internalType":"bytes32"}],"stateMutability":"view"},{"type":"function","name":"MINTER_ROLE","inputs":[],"outputs":[{"name":"","type":"bytes32","internalType":"bytes32"}],"stateMutability":"view"},{"type":"function","name":"VALIDATOR_ADMIN_ROLE","inputs":[],"outputs":[{"name":"","type":"bytes32","internalType":"bytes32"}],"stateMutability":"view"},{"type":"function","name":"addCoreType","inputs":[{"name":"label","type":"string","internalType":"string"}],"outputs":[],"stateMutability":"nonpayable"},{"type":"function","name":"addValidator","inputs":[{"name":"virtualId","type":"uint256","internalType":"uint256"},{"name":"validator","type":"address","internalType":"address"}],"outputs":[],"stateMutability":"nonpayable"},{"type":"function","name":"approve","inputs":[{"name":"to","type":"address","internalType":"address"},{"name":"tokenId","type":"uint256","internalType":"uint256"}],"outputs":[],"stateMutability":"nonpayable"},{"type":"function","name":"balanceOf","inputs":[{"name":"owner","type":"address","internalType":"address"}],"outputs":[{"name":"","type":"uint256","internalType":"uint256"}],"stateMutability":"view"},{"type":"function","name":"coreTypes","inputs":[{"name":"","type":"uint8","internalType":"uint8"}],"outputs":[{"name":"","type":"string","internalType":"string"}],"stateMutability":"view"},{"type":"function","name":"getAllServices","inputs":[{"name":"virtualId","type":"uint256","internalType":"uint256"}],"outputs":[{"name":"","type":"uint256[]","internalType":"uint256[]"}],"stateMutability":"view"},{"type":"function","name":"getApproved","inputs":[{"name":"tokenId","type":"uint256","internalType":"uint256"}],"outputs":[{"name":"","type":"address","internalType":"address"}],"stateMutability":"view"},{"type":"function","name":"getContributionNft","inputs":[],"outputs":[{"name":"","type":"address","internalType":"address"}],"stateMutability":"view"},{"type":"function","name":"getEloCalculator","inputs":[],"outputs":[{"name":"","type":"address","internalType":"address"}],"stateMutability":"view"},{"type":"function","name":"getPastValidatorScore","inputs":[{"name":"virtualId","type":"uint256","internalType":"uint256"},{"name":"validator","type":"address","internalType":"address"},{"name":"timepoint","type":"uint256","internalType":"uint256"}],"outputs":[{"name":"","type":"uint256","internalType":"uint256"}],"stateMutability":"view"},{"type":"function","name":"getRoleAdmin","inputs":[{"name":"role","type":"bytes32","internalType":"bytes32"}],"outputs":[{"name":"","type":"bytes32","internalType":"bytes32"}],"stateMutability":"view"},{"type":"function","name":"getServiceNft","inputs":[],"outputs":[{"name":"","type":"address","internalType":"address"}],"stateMutability":"view"},{"type":"function","name":"getVotes","inputs":[{"name":"virtualId","type":"uint256","internalType":"uint256"},{"name":"validator","type":"address","internalType":"address"}],"outputs":[{"name":"","type":"uint256","internalType":"uint256"}],"stateMutability":"view"},{"type":"function","name":"grantRole","inputs":[{"name":"role","type":"bytes32","internalType":"bytes32"},{"name":"account","type":"address","internalType":"address"}],"outputs":[],"stateMutability":"nonpayable"},{"type":"function","name":"hasRole","inputs":[{"name":"role","type":"bytes32","internalType":"bytes32"},{"name":"account","type":"address","internalType":"address"}],"outputs":[{"name":"","type":"bool","internalType":"bool"}],"stateMutability":"view"},{"type":"function","name":"initialize","inputs":[{"name":"defaultAdmin","type":"address","internalType":"address"}],"outputs":[],"stateMutability":"nonpayable"},{"type":"function","name":"isApprovedForAll","inputs":[{"name":"owner","type":"address","internalType":"address"},{"name":"operator","type":"address","internalType":"address"}],"outputs":[{"name":"","type":"bool","internalType":"bool"}],"stateMutability":"view"},{"type":"function","name":"isBlacklisted","inputs":[{"name":"virtualId","type":"uint256","internalType":"uint256"}],"outputs":[{"name":"","type":"bool","internalType":"bool"}],"stateMutability":"view"},{"type":"function","name":"isValidator","inputs":[{"name":"virtualId","type":"uint256","internalType":"uint256"},{"name":"account","type":"address","internalType":"address"}],"outputs":[{"name":"","type":"bool","internalType":"bool"}],"stateMutability":"view"},{"type":"function","name":"migrateScoreFunctions","inputs":[],"outputs":[],"stateMutability":"nonpayable"},{"type":"function","name":"migrateVirtual","inputs":[{"name":"virtualId","type":"uint256","internalType":"uint256"},{"name":"dao","type":"address","internalType":"address"},{"name":"token","type":"address","internalType":"address"},{"name":"pool","type":"address","internalType":"address"},{"name":"veToken","type":"address","internalType":"address"}],"outputs":[],"stateMutability":"nonpayable"},{"type":"function","name":"mint","inputs":[{"name":"virtualId","type":"uint256","internalType":"uint256"},{"name":"to","type":"address","internalType":"address"},{"name":"newTokenURI","type":"string","internalType":"string"},{"name":"theDAO","type":"address","internalType":"address payable"},{"name":"founder","type":"address","internalType":"address"},{"name":"coreTypes","type":"uint8[]","internalType":"uint8[]"},{"name":"pool","type":"address","internalType":"address"},{"name":"token","type":"address","internalType":"address"}],"outputs":[{"name":"","type":"uint256","internalType":"uint256"}],"stateMutability":"nonpayable"},{"type":"function","name":"name","inputs":[],"outputs":[{"name":"","type":"string","internalType":"string"}],"stateMutability":"view"},{"type":"function","name":"nextVirtualId","inputs":[],"outputs":[{"name":"","type":"uint256","internalType":"uint256"}],"stateMutability":"view"},{"type":"function","name":"ownerOf","inputs":[{"name":"tokenId","type":"uint256","internalType":"uint256"}],"outputs":[{"name":"","type":"address","internalType":"address"}],"stateMutability":"view"},{"type":"function","name":"renounceRole","inputs":[{"name":"role","type":"bytes32","internalType":"bytes32"},{"name":"callerConfirmation","type":"address","internalType":"address"}],"outputs":[],"stateMutability":"nonpayable"},{"type":"function","name":"revokeRole","inputs":[{"name":"role","type":"bytes32","internalType":"bytes32"},{"name":"account","type":"address","internalType":"address"}],"outputs":[],"stateMutability":"nonpayable"},{"type":"function","name":"safeTransferFrom","inputs":[{"name":"from","type":"address","internalType":"address"},{"name":"to","type":"address","internalType":"address"},{"name":"tokenId","type":"uint256","internalType":"uint256"}],"outputs":[],"stateMutability":"nonpayable"},{"type":"function","name":"safeTransferFrom","inputs":[{"name":"from","type":"address","internalType":"address"},{"name":"to","type":"address","internalType":"address"},{"name":"tokenId","type":"uint256","internalType":"uint256"},{"name":"data","type":"bytes","internalType":"bytes"}],"outputs":[],"stateMutability":"nonpayable"},{"type":"function","name":"setApprovalForAll","inputs":[{"name":"operator","type":"address","internalType":"address"},{"name":"approved","type":"bool","internalType":"bool"}],"outputs":[],"stateMutability":"nonpayable"},{"type":"function","name":"setBlacklist","inputs":[{"name":"virtualId","type":"uint256","internalType":"uint256"},{"name":"value","type":"bool","internalType":"bool"}],"outputs":[],"stateMutability":"nonpayable"},{"type":"function","name":"setContributionService","inputs":[{"name":"contributionNft_","type":"address","internalType":"address"},{"name":"serviceNft_","type":"address","internalType":"address"}],"outputs":[],"stateMutability":"nonpayable"},{"type":"function","name":"setCoreTypes","inputs":[{"name":"virtualId","type":"uint256","internalType":"uint256"},{"name":"coreTypes","type":"uint8[]","internalType":"uint8[]"}],"outputs":[],"stateMutability":"nonpayable"},{"type":"function","name":"setDAO","inputs":[{"name":"virtualId","type":"uint256","internalType":"uint256"},{"name":"newDAO","type":"address","internalType":"address"}],"outputs":[],"stateMutability":"nonpayable"},{"type":"function","name":"setEloCalculator","inputs":[{"name":"eloCalculator","type":"address","internalType":"address"}],"outputs":[],"stateMutability":"nonpayable"},{"type":"function","name":"setTBA","inputs":[{"name":"virtualId","type":"uint256","internalType":"uint256"},{"name":"tba","type":"address","internalType":"address"}],"outputs":[],"stateMutability":"nonpayable"},{"type":"function","name":"setTokenURI","inputs":[{"name":"virtualId","type":"uint256","internalType":"uint256"},{"name":"newTokenURI","type":"string","internalType":"string"}],"outputs":[],"stateMutability":"nonpayable"},{"type":"function","name":"stakingTokenToVirtualId","inputs":[{"name":"stakingToken","type":"address","internalType":"address"}],"outputs":[{"name":"","type":"uint256","internalType":"uint256"}],"stateMutability":"view"},{"type":"function","name":"supportsInterface","inputs":[{"name":"interfaceId","type":"bytes4","internalType":"bytes4"}],"outputs":[{"name":"","type":"bool","internalType":"bool"}],"stateMutability":"view"},{"type":"function","name":"symbol","inputs":[],"outputs":[{"name":"","type":"string","internalType":"string"}],"stateMutability":"view"},{"type":"function","name":"tokenURI","inputs":[{"name":"tokenId","type":"uint256","internalType":"uint256"}],"outputs":[{"name":"","type":"string","internalType":"string"}],"stateMutability":"view"},{"type":"function","name":"totalProposals","inputs":[{"name":"virtualId","type":"uint256","internalType":"uint256"}],"outputs":[{"name":"","type":"uint256","internalType":"uint256"}],"stateMutability":"view"},{"type":"function","name":"totalStaked","inputs":[{"name":"virtualId","type":"uint256","internalType":"uint256"}],"outputs":[{"name":"","type":"uint256","internalType":"uint256"}],"stateMutability":"view"},{"type":"function","name":"totalSupply","inputs":[],"outputs":[{"name":"","type":"uint256","internalType":"uint256"}],"stateMutability":"view"},{"type":"function","name":"totalUptimeScore","inputs":[{"name":"virtualId","type":"uint256","internalType":"uint256"}],"outputs":[{"name":"","type":"uint256","internalType":"uint256"}],"stateMutability":"view"},{"type":"function","name":"transferFrom","inputs":[{"name":"from","type":"address","internalType":"address"},{"name":"to","type":"address","internalType":"address"},{"name":"tokenId","type":"uint256","internalType":"uint256"}],"outputs":[],"stateMutability":"nonpayable"},{"type":"function","name":"validatorAt","inputs":[{"name":"virtualId","type":"uint256","internalType":"uint256"},{"name":"index","type":"uint256","internalType":"uint256"}],"outputs":[{"name":"","type":"address","internalType":"address"}],"stateMutability":"view"},{"type":"function","name":"validatorCount","inputs":[{"name":"virtualId","type":"uint256","internalType":"uint256"}],"outputs":[{"name":"","type":"uint256","internalType":"uint256"}],"stateMutability":"view"},{"type":"function","name":"validatorScore","inputs":[{"name":"virtualId","type":"uint256","internalType":"uint256"},{"name":"validator","type":"address","internalType":"address"}],"outputs":[{"name":"","type":"uint256","internalType":"uint256"}],"stateMutability":"view"},{"type":"function","name":"virtualInfo","inputs":[{"name":"virtualId","type":"uint256","internalType":"uint256"}],"outputs":[{"name":"","type":"tuple","internalType":"struct IAgentNft.VirtualInfo","components":[{"name":"dao","type":"address","internalType":"address"},{"name":"token","type":"address","internalType":"address"},{"name":"founder","type":"address","internalType":"address"},{"name":"tba","type":"address","internalType":"address"},{"name":"coreTypes","type":"uint8[]","internalType":"uint8[]"}]}],"stateMutability":"view"},{"type":"function","name":"virtualInfos","inputs":[{"name":"","type":"uint256","internalType":"uint256"}],"outputs":[{"name":"dao","type":"address","internalType":"address"},{"name":"token","type":"address","internalType":"address"},{"name":"founder","type":"address","internalType":"address"},{"name":"tba","type":"address","internalType":"address"}],"stateMutability":"view"},{"type":"function","name":"virtualLP","inputs":[{"name":"virtualId","type":"uint256","internalType":"uint256"}],"outputs":[{"name":"","type":"tuple","internalType":"struct IAgentNft.VirtualLP","components":[{"name":"pool","type":"address","internalType":"address"},{"name":"veToken","type":"address","internalType":"address"}]}],"stateMutability":"view"},{"type":"function","name":"virtualLPs","inputs":[{"name":"","type":"uint256","internalType":"uint256"}],"outputs":[{"name":"pool","type":"address","internalType":"address"},{"name":"veToken","type":"address","internalType":"address"}],"stateMutability":"view"},{"type":"event","name":"AgentBlacklisted","inputs":[{"name":"virtualId","type":"uint256","indexed":true,"internalType":"uint256"},{"name":"value","type":"bool","indexed":false,"internalType":"bool"}],"anonymous":false},{"type":"event","name":"Approval","inputs":[{"name":"owner","type":"address","indexed":true,"internalType":"address"},{"name":"approved","type":"address","indexed":true,"internalType":"address"},{"name":"tokenId","type":"uint256","indexed":true,"internalType":"uint256"}],"anonymous":false},{"type":"event","name":"ApprovalForAll","inputs":[{"name":"owner","type":"address","indexed":true,"internalType":"address"},{"name":"operator","type":"address","indexed":true,"internalType":"address"},{"name":"approved","type":"bool","indexed":false,"internalType":"bool"}],"anonymous":false},{"type":"event","name":"BatchMetadataUpdate","inputs":[{"name":"_fromTokenId","type":"uint256","indexed":false,"internalType":"uint256"},{"name":"_toTokenId","type":"uint256","indexed":false,"internalType":"uint256"}],"anonymous":false},{"type":"event","name":"CoresUpdated","inputs":[{"name":"virtualId","type":"uint256","indexed":false,"internalType":"uint256"},{"name":"coreTypes","type":"uint8[]","indexed":false,"internalType":"uint8[]"}],"anonymous":false},{"type":"event","name":"Initialized","inputs":[{"name":"version","type":"uint64","indexed":false,"internalType":"uint64"}],"anonymous":false},{"type":"event","name":"MetadataUpdate","inputs":[{"name":"_tokenId","type":"uint256","indexed":false,"internalType":"uint256"}],"anonymous":false},{"type":"event","name":"NewCoreType","inputs":[{"name":"coreType","type":"uint8","indexed":false,"internalType":"uint8"},{"name":"label","type":"string","indexed":false,"internalType":"string"}],"anonymous":false},{"type":"event","name":"NewValidator","inputs":[{"name":"virtualId","type":"uint256","indexed":false,"internalType":"uint256"},{"name":"account","type":"address","indexed":false,"internalType":"address"}],"anonymous":false},{"type":"event","name":"RoleAdminChanged","inputs":[{"name":"role","type":"bytes32","indexed":true,"internalType":"bytes32"},{"name":"previousAdminRole","type":"bytes32","indexed":true,"internalType":"bytes32"},{"name":"newAdminRole","type":"bytes32","indexed":true,"internalType":"bytes32"}],"anonymous":false},{"type":"event","name":"RoleGranted","inputs":[{"name":"role","type":"bytes32","indexed":true,"internalType":"bytes32"},{"name":"account","type":"address","indexed":true,"internalType":"address"},{"name":"sender","type":"address","indexed":true,"internalType":"address"}],"anonymous":false},{"type":"event","name":"RoleRevoked","inputs":[{"name":"role","type":"bytes32","indexed":true,"internalType":"bytes32"},{"name":"account","type":"address","indexed":true,"internalType":"address"},{"name":"sender","type":"address","indexed":true,"internalType":"address"}],"anonymous":false},{"type":"event","name":"Transfer","inputs":[{"name":"from","type":"address","indexed":true,"internalType":"address"},{"name":"to","type":"address","indexed":true,"internalType":"address"},{"name":"tokenId","type":"uint256","indexed":true,"internalType":"uint256"}],"anonymous":false},{"type":"error","name":"AccessControlBadConfirmation","inputs":[]},{"type":"error","name":"AccessControlUnauthorizedAccount","inputs":[{"name":"account","type":"address","internalType":"address"},{"name":"neededRole","type":"bytes32","internalType":"bytes32"}]},{"type":"error","name":"ERC721IncorrectOwner","inputs":[{"name":"sender","type":"address","internalType":"address"},{"name":"tokenId","type":"uint256","internalType":"uint256"},{"name":"owner","type":"address","internalType":"address"}]},{"type":"error","name":"ERC721InsufficientApproval","inputs":[{"name":"operator","type":"address","internalType":"address"},{"name":"tokenId","type":"uint256","internalType":"uint256"}]},{"type":"error","name":"ERC721InvalidApprover","inputs":[{"name":"approver","type":"address","internalType":"address"}]},{"type":"error","name":"ERC721InvalidOperator","inputs":[{"name":"operator","type":"address","internalType":"address"}]},{"type":"error","name":"ERC721InvalidOwner","inputs":[{"name":"owner","type":"address","internalType":"address"}]},{"type":"error","name":"ERC721InvalidReceiver","inputs":[{"name":"receiver","type":"address","internalType":"address"}]},{"type":"error","name":"ERC721InvalidSender","inputs":[{"name":"sender","type":"address","internalType":"address"}]},{"type":"error","name":"ERC721NonexistentToken","inputs":[{"name":"tokenId","type":"uint256","internalType":"uint256"}]},{"type":"error","name":"InvalidInitialization","inputs":[]},{"type":"error","name":"NotInitializing","inputs":[]}],"bytecode":{"object":"0x6080806040523460d0577ff0c57e16840df040f15088dc2f81fe391c3923bec73e23a9662efc9c229c6a005460ff8160401c1660c1576002600160401b03196001600160401b03821601605c575b6040516150e290816100d58239f35b6001600160401b0319166001600160401b039081177ff0c57e16840df040f15088dc2f81fe391c3923bec73e23a9662efc9c229c6a005581527fc7f505b2f371ae2175ee4913f4499e1f2633a7b5936321eed1cdaeb6115181d290602090a15f80604d565b63f92ee8a960e01b5f5260045ffd5b5f80fdfe6080806040526004361015610012575f80fd5b5f3560e01c90816301ffc9a7146135df5750806306fdde0314613522578063081812fc146134d9578063095ea7b3146133ed57806309c88b3a14613392578063162094c41461333757806318160ddd1461330e5780631b534f04146132e45780631ca95e13146132a157806323b872dd1461328a57806323f2a73f14613241578063248a9ca3146132235780632f2ff15d146131f2578063336e3997146131af57806336568abe1461316b578063386924de146131315780633f11354a14612cb757806341cb8c2014612c5e57806342842e0e14612c355780634349644714612ab657806344ae85ea14612a7e5780634752f9ef14612a4f5780634b56175314612a2b5780634f1b9fac146129f75780635faef81a146129da5780636352211e146129bc5780636472c79f146122e35780636819736014612241578063691de489146121db5780636d6464b4146121bd57806370a082311461216e57806374aa04c51461208057806375b238fc1461204657806391d1485414611ff157806395d89b4114611f0f5780639a7e8c8e14611ee7578063a0ed2a5d14611e8a578063a217fddf14611e70578063a22cb46514611dd2578063aca470ce14611706578063b88d4fde146116a7578063b9f7fe531461167f578063c052bfb614611657578063c12032d314611629578063c4d66de814610f95578063c859b99814610f00578063c87b56dd14610ec9578063cc35cc4114610e8c578063d539139314610e52578063d547741f14610e1a578063d809a06f14610de7578063e3a9769c1461062c578063e985e9c5146105e0578063f0c21c4614610578578063f966108514610371578063fcf9e6db146103055763fdf864f11461028f575f80fd5b34610301576040366003190112610301576004357f74c656406c6054e1c2903f7594155283f5216e109f0ecb46a7eb59a9a597d61960206102ce61393b565b6102d6614856565b835f52600b82526102f68160405f209060ff801983541691151516179055565b6040519015158152a2005b5f80fd5b34610301576020366003190112610301575f6020604051610325816136ff565b82815201526004355f52600c6020526040805f208151610344816136ff565b81546001600160a01b03908116808352600190930154811660209283019081528451938452511690820152f35b34610301576040366003190112610301576004356024356001600160401b038111610301576103a49036906004016137fb565b815f5260086020526103c360018060a01b0360405f205416331461394a565b815f526008602052600460405f20019181516001600160401b03811161056457600160401b8111610564578354818555808210610518575b50602083019081945f5260205f208160051c915f5b8381106104d95750601f19811690038061048f575b50505050604051916040830191835260406020840152518091526060820192905f5b818110610476577fd6963befda3af041f398ffc13a89396d94a573f3a91593efc5420fffb11d672a84860385a1005b825160ff16855260209485019490920191600101610447565b925f935f5b8181106104a957505050015583808080610425565b90919460206104cf6001928460ff8a5116919060ff809160031b9316831b921b19161790565b9601929101610494565b5f805b602081106104f1575083820155600101610410565b865190969160019160209160ff60038b901b81811b199092169216901b17920196016104dc565b61054390855f5260205f20601f80850160051c82019281861680610549575b500160051c0190613bdf565b846103fb565b5f198501908154905f199060200360031b1c16905589610537565b634e487b7160e01b5f52604160045260245ffd5b34610301576040366003190112610301576004356105946136b8565b90805f5260086020526105b460018060a01b0360405f205416331461394a565b5f90815260086020526040902080546001600160a01b0319166001600160a01b03909216919091179055005b34610301576040366003190112610301576105f96136a2565b61060a6106046136b8565b91613b89565b9060018060a01b03165f52602052602060ff60405f2054166040519015158152f35b34610301576020366003190112610301576004355f52600860205260405f20604051610657816136e4565b81546001600160a01b03908116825260018301548116602080840191909152600284015482166040808501919091526003850154909216606084019081529151600490940180548086525f91825282822093959493859384019291905b81601f840110610c3f57916107d1939160809695935491818110610c2b575b818110610c14575b818110610bfd575b818110610be6575b818110610bd0575b818110610bb9575b818110610ba2575b818110610b8b575b818110610b74575b818110610b5d575b818110610b46575b818110610b2f575b818110610b18575b818110610b01575b818110610aea575b818110610ad3575b818110610abd575b818110610aa6575b818110610a8f575b818110610a78575b818110610a61575b818110610a4a575b818110610a33575b818110610a1c575b818110610a05575b8181106109ee575b8181106109d7575b8181106109c0575b8181106109a9575b818110610992575b81811061097b575b1061096d575b50038461371a565b0152600a5481516040516370a0823160e01b81526001600160a01b03918216600482015291169190602081602481865afa908115610930575f9161093b575b5061081a816137e4565b92610828604051948561371a565b818452610834826137e4565b602085019390601f19013685375f5b83811061088e578486604051918291602083019060208452518091526040830191905f5b818110610875575050500390f35b8251845285945060209384019390920191600101610867565b8151604051632f745c5960e01b81526001600160a01b0390911660048201526024810182905290602082604481875afa918215610930575f926108fd575b5086518110156108e95760019160208260051b8901015201610843565b634e487b7160e01b5f52603260045260245ffd5b9091506020813d8211610928575b816109186020938361371a565b81010312610301575190876108cc565b3d915061090b565b6040513d5f823e3d90fd5b90506020813d602011610965575b816109566020938361371a565b81010312610301575183610810565b3d9150610949565b60f81c8152602001876107c9565b92602060019160ff8560f01c1681520193016107c3565b92602060019160ff8560e81c1681520193016107bb565b92602060019160ff8560e01c1681520193016107b3565b92602060019160ff8560d81c1681520193016107ab565b92602060019160ff8560d01c1681520193016107a3565b92602060019160ff8560c81c16815201930161079b565b92602060019160ff8560c01c168152019301610793565b92602060019160ff8560b81c16815201930161078b565b92602060019160ff8560b01c168152019301610783565b92602060019160ff8560a81c16815201930161077b565b92602060019160ff8560a01c168152019301610773565b92602060019160ff8560981c16815201930161076b565b92602060019160ff8560901c168152019301610763565b92602060019160ff8560881c16815201930161075b565b92602060019160ff858b1c168152019301610753565b92602060019160ff8560781c16815201930161074b565b92602060019160ff8560701c168152019301610743565b92602060019160ff8560681c16815201930161073b565b92602060019160ff8560601c168152019301610733565b92602060019160ff8560581c16815201930161072b565b92602060019160ff8560501c168152019301610723565b92602060019160ff8560481c16815201930161071b565b92602060019160ff8560401c168152019301610713565b92602060019160ff8560381c16815201930161070b565b92602060019160ff8560301c168152019301610703565b92602060019160ff8560281c1681520193016106fb565b92602060019160ff85831c1681520193016106f3565b92602060019160ff8560181c1681520193016106eb565b92602060019160ff8560101c1681520193016106e3565b92602060019160ff8560081c1681520193016106db565b92602060019160ff851681520193016106d3565b935090916001610400602092865460ff8116825260ff8160081c168583015260ff8160101c16604083015260ff8160181c16606083015260ff81861c16608083015260ff8160281c1660a083015260ff8160301c1660c083015260ff8160381c1660e083015260ff8160401c1661010083015260ff8160481c1661012083015260ff8160501c1661014083015260ff8160581c1661016083015260ff8160601c1661018083015260ff8160681c166101a083015260ff8160701c166101c083015260ff8160781c166101e083015260ff8160801c1661020083015260ff8160881c1661022083015260ff8160901c1661024083015260ff8160981c1661026083015260ff8160a01c1661028083015260ff8160a81c166102a083015260ff8160b01c166102c083015260ff8160b81c166102e083015260ff8160c01c1661030083015260ff8160c81c1661032083015260ff8160d01c1661034083015260ff8160d81c1661036083015260ff8160e01c1661038083015260ff8160e81c166103a083015260ff8160f01c166103c083015260f81c6103e08201520194019201908593926106b4565b34610301576040366003190112610301576020610e086024356004356147ae565b6040516001600160a01b039091168152f35b3461030157604036600319011261030157610e50600435610e396136b8565b90610e4b610e4682613bc1565b614934565b614d91565b005b34610301575f3660031901126103015760206040517f9f2df0fed2c77648de5860a4cc508cd0818c85b8b8a1ab4ceeef8d981c8956a68152f35b34610301575f36600319011261030157610ea4614856565b600580546001600160c01b031916700200000000000000030000000000000001179055005b3461030157602036600319011261030157610efc610ee8600435614f39565b60405191829160208352602083019061367e565b0390f35b3461030157604036600319011261030157610f196136b8565b610f216148c5565b6004355f526008602052600360405f20019060018060a01b03825416610f5e5781546001600160a01b0319166001600160a01b0391909116179055005b60405162461bcd60e51b815260206004820152600f60248201526e15109048185b1c9958591e481cd95d608a1b6044820152606490fd5b3461030157602036600319011261030157610fae6136a2565b5f8051602061506d8339815191525460ff8160401c1615906001600160401b03811680159081611621575b6001149081611617575b15908161160e575b506115ff5767ffffffffffffffff1981166001175f8051602061506d83398151915255816115d3575b50604090815192611025838561371a565b60058452641059d95b9d60da1b6020850152825193611044848661371a565b60058552641051d1539560da1b602086015261105e614fc1565b611066614fc1565b8051906001600160401b0382116105645781906110905f8051602061500d83398151915254613863565b601f8111611579575b50602090601f83116001146114dd575f926114d2575b50508160011b915f199060031b1c1916175f8051602061500d833981519152555b83516001600160401b038111610564576110f75f8051602061508d83398151915254613863565b601f811161146d575b506020601f82116001146113ec5781906112ff9495965f926113e1575b50508160011b915f199060031b1c1916175f8051602061508d833981519152555b611146614fc1565b61114e614fc1565b60015460ff81169060ff61116183614f28565b169060ff1916176001555f525f602052835f2061117e8154613863565b601f81116113c1575b507f436f676e697469766520436f726500000000000000000000000000000000001c905560015460ff80821691906111be83614f28565b169060ff1916176001555f525f602052835f206111db8154613863565b601f81116113a1575b507f566f69636520616e6420536f756e6420436f7265000000000000000000000028905560015460ff808216919061121b83614f28565b169060ff1916176001555f525f602052835f206112388154613863565b601f8111611381575b5060166a56697375616c20436f726560a81b01905560015460ff808216919061126983614f28565b169060ff1916176001555f525f602052835f206112868154613863565b601f8111611361575b507f446f6d61696e2045787065727469736520436f7265000000000000000000002a90556112bb614fc1565b600580546001600160c01b0319167002000000000000000300000000000000011790556112e6614fc1565b6112ef81614af2565b506112f981614b8e565b50614c47565b50600160065561130b57005b60207fc7f505b2f371ae2175ee4913f4499e1f2633a7b5936321eed1cdaeb6115181d29168ff0000000000000000195f8051602061506d83398151915254165f8051602061506d833981519152555160018152a1005b61137b90825f52601f60205f20910160051c810190613bdf565b8561128f565b61139b90825f52601f60205f20910160051c810190613bdf565b85611241565b6113bb90825f52601f60205f20910160051c810190613bdf565b856111e4565b6113db90825f52601f60205f20910160051c810190613bdf565b85611187565b01519050868061111d565b601f198216955f8051602061508d8339815191525f52815f20965f5b8181106114555750916112ff9596979184600195941061143d575b505050811b015f8051602061508d8339815191525561113e565b01515f1960f88460031b161c19169055868080611423565b83830151895560019098019760209384019301611408565b5f8051602061508d8339815191525f526114c2907ff4bad0a69248f59680a4f2b3000328cec71a413447c96781cfe5996daa8c456e601f840160051c810191602085106114c8575b601f0160051c0190613bdf565b85611100565b90915081906114b5565b0151905086806110af565b5f8051602061500d8339815191525f9081527f37c58c799b6609234b945e882912ee9ad34948a1dfaa20a97485e1a7752bbf819350601f198516905b8181106115615750908460019594939210611549575b505050811b015f8051602061500d833981519152556110d0565b01515f1960f88460031b161c1916905586808061152f565b92936020600181928786015181550195019301611519565b5f8051602061500d8339815191525f526115cd907f37c58c799b6609234b945e882912ee9ad34948a1dfaa20a97485e1a7752bbf81601f850160051c810191602086106114c857601f0160051c0190613bdf565b87611099565b68ffffffffffffffffff191668010000000000000001175f8051602061506d8339815191525582611014565b63f92ee8a960e01b5f5260045ffd5b90501584610feb565b303b159150610fe3565b839150610fd9565b3461030157604036600319011261030157602061164f6116476136b8565b6004356143c6565b604051908152f35b34610301575f36600319011261030157600d546040516001600160a01b039091168152602090f35b34610301575f36600319011261030157600a546040516001600160a01b039091168152602090f35b34610301576080366003190112610301576116c06136a2565b6116c86136b8565b606435916001600160401b0383116103015736602384011215610301576116fc610e50933690602481600401359101613756565b9160443591614286565b346103015760203660031901126103015760606080604051611727816136e4565b5f81525f60208201525f60408201525f8382015201526004355f52600860205260405f20604051611757816136e4565b81546001600160a01b0390811682526001830154811660208084019182526002850154831660408086019182526003870154909416606086019081529351600490960180548088525f9182528382209497959492938692908301915b80601f830110611c2a576118cf945491818110611c16575b818110611bff575b818110611be8575b818110611bd1575b818110611bbb575b818110611ba4575b818110611b8d575b818110611b76575b818110611b5f575b818110611b48575b818110611b31575b818110611b1a575b818110611b03575b818110611aec575b818110611ad5575b818110611abe575b818110611aa7575b818110611a90575b818110611a79575b818110611a62575b818110611a4b575b818110611a34575b818110611a1d575b818110611a06575b8181106119ef575b8181106119d8575b8181106119c1575b8181106119aa575b818110611993575b81811061197c575b818110611965575b10611957575b50969594939296038361371a565b608083810192835260408051602080825295516001600160a01b03908116878301529651871691810191909152955185166060870152905190931692840192909252905160a080840152805160c08401819052839260e084019201905f5b81811061193b575050500390f35b825160ff1684528594506020938401939092019160010161192d565b60f81c8152602001886118c1565b92602060019160ff8560f01c1681520193016118bb565b92602060019160ff8560e81c1681520193016118b3565b92602060019160ff8560e01c1681520193016118ab565b92602060019160ff8560d81c1681520193016118a3565b92602060019160ff8560d01c16815201930161189b565b92602060019160ff8560c81c168152019301611893565b92602060019160ff8560c01c16815201930161188b565b92602060019160ff8560b81c168152019301611883565b92602060019160ff8560b01c16815201930161187b565b92602060019160ff8560a81c168152019301611873565b92602060019160ff8560a01c16815201930161186b565b92602060019160ff8560981c168152019301611863565b92602060019160ff8560901c16815201930161185b565b92602060019160ff8560881c168152019301611853565b92602060019160ff8560801c16815201930161184b565b92602060019160ff8560781c168152019301611843565b92602060019160ff8560701c16815201930161183b565b92602060019160ff8560681c168152019301611833565b92602060019160ff8560601c16815201930161182b565b92602060019160ff8560581c168152019301611823565b92602060019160ff8560501c16815201930161181b565b92602060019160ff8560481c168152019301611813565b92602060019160ff8560401c16815201930161180b565b92602060019160ff8560381c168152019301611803565b92602060019160ff8560301c1681520193016117fb565b92602060019160ff8560281c1681520193016117f3565b92602060019160ff85831c1681520193016117eb565b92602060019160ff8560181c1681520193016117e3565b92602060019160ff8560101c1681520193016117db565b92602060019160ff8560081c1681520193016117d3565b92602060019160ff851681520193016117cb565b916020919350610400600191865460ff8116825260ff8160081c168583015260ff8160101c16604083015260ff8160181c16606083015260ff81861c16608083015260ff8160281c1660a083015260ff8160301c1660c083015260ff8160381c1660e083015260ff8160401c1661010083015260ff8160481c1661012083015260ff8160501c1661014083015260ff8160581c1661016083015260ff8160601c1661018083015260ff8160681c166101a083015260ff8160701c166101c083015260ff8160781c166101e083015260ff8160801c1661020083015260ff8160881c1661022083015260ff8160901c1661024083015260ff8160981c1661026083015260ff8160a01c1661028083015260ff8160a81c166102a083015260ff8160b01c166102c083015260ff8160b81c166102e083015260ff8160c01c1661030083015260ff8160c81c1661032083015260ff8160d01c1661034083015260ff8160d81c1661036083015260ff8160e01c1661038083015260ff8160e81c166103a083015260ff8160f01c166103c083015260f81c6103e08201520194019201869293916117b3565b3461030157604036600319011261030157611deb6136a2565b611df361393b565b6001600160a01b03909116908115611e5d57611e0e33613b89565b825f52602052611e2d8160405f209060ff801983541691151516179055565b60405190151581527f17307eab39ab6107e8899845ad3d59bd9653f200f220920489ca2b5937696c3160203392a3005b50630b61174360e31b5f5260045260245ffd5b34610301575f3660031901126103015760206040515f8152f35b34610301576020366003190112610301575f600435815b815f52600460205260405f2054831015611edc57611ed4600191611ece611ec886866147ae565b856143c6565b90613c33565b920191611ea1565b602090604051908152f35b34610301575f366003190112610301576009546040516001600160a01b039091168152602090f35b34610301575f366003190112610301576040515f5f8051602061508d83398151915254611f3b81613863565b8084529060018116908115611fcd5750600114611f63575b610efc83610ee88185038261371a565b5f8051602061508d8339815191525f9081527ff4bad0a69248f59680a4f2b3000328cec71a413447c96781cfe5996daa8c456e939250905b808210611fb357509091508101602001610ee8611f53565b919260018160209254838588010152019101909291611f9b565b60ff191660208086019190915291151560051b84019091019150610ee89050611f53565b346103015760403660031901126103015761200a6136b8565b6004355f525f8051602061502d83398151915260205260405f209060018060a01b03165f52602052602060ff60405f2054166040519015158152f35b34610301575f3660031901126103015760206040517fa49807205ce4d355092ef5a8a18f56e8913cf4a201fbe287825b095693c217758152f35b346103015760a03660031901126103015760043561209c6136b8565b6044356001600160a01b0381168103610301576064356001600160a01b038116810361030157600191826120ce6136ce565b946120d7614856565b865f52600860205260405f2090828060a01b03166001600160601b0360a01b8254161781550190838060a01b03166001600160601b0360a01b825416179055835f52600c60205260405f2090828060a01b03166001600160601b0360a01b8254161781550160018060a01b0382166001600160601b0360a01b82541617905560018060a01b03165f52600760205260405f20555f80f35b34610301576020366003190112610301576121876136a2565b6001600160a01b038116156121aa576121a1602091613b51565b54604051908152f35b6322718ad960e21b5f525f60045260245ffd5b3461030157602036600319011261030157602061164f600435613c40565b34610301576020366003190112610301576004355f9081526008602090815260409182902080546001820154600283015460039093015485516001600160a01b039384168152918316948201949094529181169382019390935291166060820152608090f35b346103015760403660031901126103015761225a6136b8565b6004355f52600c602052602060018060a01b03600160405f20015416916024604051809481936309ab24eb60e41b835260018060a01b031660048301525afa8015610930575f906122b057602090604051908152f35b506020813d6020116122db575b816122ca6020938361371a565b810103126103015760209051611edc565b3d91506122bd565b34610301576060366003190112610301576004356122ff6136b8565b60018060a01b0381165f52600360205260405f20825f5260205260405f2054916001600160401b0360055460801c1660021461234957634e487b7160e01b5f52605160045260245ffd5b5f52600860205260405f20600460405191612363836136e4565b80546001600160a01b03908116845260018201548116602080860191909152600283015482166040808701919091526003840154909216606086015290519290910180548084525f918252828220928401925b81601f84011061281a57936020959381936124d89361251699975491818110612808575b8181106127f2575b8181106127dc575b8181106127c6575b8181106127b2575b81811061279c575b818110612786575b818110612770575b81811061275a575b818110612744575b81811061272e575b818110612718575b818110612702575b8181106126ec575b8181106126d6575b8181106126c0575b8181106126aa575b818110612694575b81811061267e575b818110612668575b818110612652575b81811061263c575b818110612626575b818110612610575b8181106125fa575b8181106125e4575b8181106125ce575b8181106125b8575b8181106125a2575b81811061258c575b818110612576575b10612569575b50038261371a565b60808201525160405163209e1f0d60e01b81526001600160a01b03928316600482015260448035602483015290948593909216918391829190820190565b03915afa908115610930575f91612536575b5060209161164f9190613c33565b90506020813d602011612561575b816125516020938361371a565b8101031261030157516020612528565b3d9150612544565b60f81c81528601896124d0565b928960019160ff8560f01c1681520193016124ca565b928960019160ff8560e81c1681520193016124c2565b928960019160ff8560e01c1681520193016124ba565b928960019160ff8560d81c1681520193016124b2565b928960019160ff8560d01c1681520193016124aa565b928960019160ff8560c81c1681520193016124a2565b928960019160ff8560c01c16815201930161249a565b928960019160ff8560b81c168152019301612492565b928960019160ff8560b01c16815201930161248a565b928960019160ff8560a81c168152019301612482565b928960019160ff8560a01c16815201930161247a565b928960019160ff8560981c168152019301612472565b928960019160ff8560901c16815201930161246a565b928960019160ff8560881c168152019301612462565b928960019160ff8560801c16815201930161245a565b928960019160ff8560781c168152019301612452565b928960019160ff8560701c16815201930161244a565b928960019160ff8560681c168152019301612442565b928960019160ff8560601c16815201930161243a565b928960019160ff8560581c168152019301612432565b928960019160ff8560501c16815201930161242a565b928960019160ff8560481c168152019301612422565b928960019160ff8560401c16815201930161241a565b928960019160ff8560381c168152019301612412565b928960019160ff8560301c16815201930161240a565b928960019160ff8560281c168152019301612402565b828a1c60ff168452928901926001016123fa565b928960019160ff8560181c1681520193016123f2565b928960019160ff8560101c1681520193016123ea565b928960019160ff8560081c1681520193016123e2565b60ff83168452928901926001016123da565b926001610400602092865460ff8116825260ff8160081c168583015260ff8160101c16604083015260ff8160181c16606083015260ff81861c16608083015260ff8160281c1660a083015260ff8160301c1660c083015260ff8160381c1660e083015260ff8160401c1661010083015260ff8160481c1661012083015260ff8160501c1661014083015260ff8160581c1661016083015260ff8160601c1661018083015260ff8160681c166101a083015260ff8160701c166101c083015260ff8160781c166101e083015260ff8160801c1661020083015260ff8160881c1661022083015260ff8160901c1661024083015260ff8160981c1661026083015260ff8160a01c1661028083015260ff8160a81c166102a083015260ff8160b01c166102c083015260ff8160b81c166102e083015260ff8160c01c1661030083015260ff8160c81c1661032083015260ff8160d01c1661034083015260ff8160d81c1661036083015260ff8160e01c1661038083015260ff8160e81c166103a083015260ff8160f01c166103c083015260f81c6103e08201520194019201916123b6565b34610301576020366003190112610301576020610e086004356147d8565b34610301575f366003190112610301576020600654604051908152f35b346103015760203660031901126103015760043560ff8116809103610301575f525f602052610efc610ee860405f2061389b565b3461030157604036600319011261030157610e50612a476136b8565b600435613bf5565b34610301576020366003190112610301576004355f52600b602052602060ff60405f2054166040519015158152f35b34610301576020366003190112610301576001600160a01b03612a9f6136a2565b165f526007602052602060405f2054604051908152f35b34610301576020366003190112610301576004356001600160401b03811161030157612ae690369060040161378c565b612aee614807565b6001549060ff82169160ff612b0284614f28565b169060ff191617600155815f525f60205260405f20918151926001600160401b03841161056457612b3d84612b378354613863565b8361497a565b602093601f8111600114612bb457807f9682c2f74922442a5e9927a764f668d2339f1ca83db196fbb3d5e97184dc2be8955f91612ba9575b508160011b915f199060031b1c19161790555b612ba4604051928392835260406020840152604083019061367e565b0390a1005b905084015186612b75565b601f19811694825f52805f20955f5b818110612c1d57509582916001937f9682c2f74922442a5e9927a764f668d2339f1ca83db196fbb3d5e97184dc2be89810612c05575b5050811b019055612b88565b8601515f1960f88460031b161c191690558680612bf9565b86830151885560019097019660209283019201612bc3565b3461030157610e50612c46366137aa565b9060405192612c5660208561371a565b5f8452614286565b34610301576020366003190112610301576004355f52600c6020526004602060018060a01b03600160405f20015416604051928380926318160ddd60e01b82525afa8015610930575f906122b057602090604051908152f35b346103015761010036600319011261030157600435612cd46136b8565b906044356001600160401b03811161030157612cf490369060040161378c565b6064356001600160a01b03811693919084900361030157612d136136ce565b9160a4356001600160401b03811161030157612d339036906004016137fb565b9460c435926001600160a01b03841684036103015760e435926001600160a01b038416840361030157612d646148c5565b6006548088036130f8575f1981146130e4576001016006556001600160a01b03811680156130d15787612d9681614f88565b6001600160a01b03811680151594919391612db5908661309557613b51565b805460010190555f8381527f80bb2b638cc20bc4d0a60d66940f3ab4a00c1d7b313497ca82fb0b4ab00793026020526040812080546001600160a01b031916841790557fddf252ad1be2c89b69c2b068fc378daa952ba7f163c4a11628f55a4df523b3ef9080a45061308257612e2b90866149b2565b5f85815260086020526040902080546001600160a01b0319166001600160a01b038316178155865190966004880191906001600160401b03821161056457600160401b8211610564576020908354838555808410613039575b5001915f5260205f208160051c915f5b838110612ffa5750601f198116900380612fae575b505050506002860180546001600160a01b0319166001600160a01b038616179055604051637e062a3560e11b81529190602090839060049082905afa918215610930575f92612f63575b50600195860180546001600160a01b03199081166001600160a01b03938416179091555f868152600c60209081526040808320805485169786169790971787559590980180549092169290931691821790558152600785522082905561164f90612f5d8184614e2d565b82614ed4565b90939291506020813d602011612fa6575b81612f816020938361371a565b8101031261030157516001600160a01b03811681036103015791929091906020612ef3565b3d9150612f74565b925f935f5b818110612fca575050500155602060048880612ea9565b9091946020612ff06001928460ff8a5116919060ff809160031b9316831b921b19161790565b9601929101612fb3565b5f805b60208110613012575083820155600101612e94565b865190969160019160209160ff60038b901b81811b199092169216901b1792019601612ffd565b61306290855f52835f20601f80870160051c8201928188168061306857500160051c0190613bdf565b8a612e84565b5f198501908154905f19908a0360031b1c1690558f610537565b6339e3563760e11b5f525f60045260245ffd5b5f8581525f8051602061504d8339815191526020526040902080546001600160a01b03191690556130c586613b51565b80545f19019055613b51565b633250574960e11b5f525f60045260245ffd5b634e487b7160e01b5f52601160045260245ffd5b60405162461bcd60e51b8152602060048201526011602482015270125b9d985b1a59081d9a5c9d1d585b1259607a1b6044820152606490fd5b34610301575f3660031901126103015760206040517ffa3e63d5771fd4999b619dee634be9dbb03c309738cc2adaadd49c4f5595adb08152f35b34610301576040366003190112610301576131846136b8565b336001600160a01b038216036131a057610e5090600435614d91565b63334bd91960e11b5f5260045ffd5b34610301576020366003190112610301576004355f52600c6020526040805f2060018060a01b03815416906001808060a01b039101541682519182526020820152f35b3461030157604036600319011261030157610e506004356132116136b8565b9061321e610e4682613bc1565b614d00565b3461030157602036600319011261030157602061164f600435613bc1565b346103015760403660031901126103015761325a6136b8565b6004355f52600260205260405f209060018060a01b03165f52602052602060ff60405f2054166040519015158152f35b3461030157610e5061329b366137aa565b91613996565b34610301576020366003190112610301576132ba6136a2565b6132c2614856565b600d80546001600160a01b0319166001600160a01b0392909216919091179055005b34610301576020366003190112610301576004355f526004602052602060405f2054604051908152f35b34610301575f366003190112610301576006545f1981019081116130e457602090604051908152f35b34610301576040366003190112610301576024356004356001600160401b0382116103015761336d610e5092369060040161378c565b90805f52600860205261338d60018060a01b0360405f205416331461394a565b6149b2565b34610301576040366003190112610301576133ab6136a2565b6133b36136b8565b906133bc614807565b600980546001600160a01b039283166001600160a01b031991821617909155600a8054939092169216919091179055005b34610301576040366003190112610301576134066136a2565b602435613412816147d8565b331515806134c6575b806134a3575b6134905781906001600160a01b0384811691167f8c5be1e5ebec7d5bd14f71427d1e84f3dd0314c0f7b2291e5b200ac8c7c3b9255f80a45f9081525f8051602061504d8339815191526020526040902080546001600160a01b0319166001600160a01b03909216919091179055005b63a9fbf51f60e01b5f523360045260245ffd5b506134ad81613b89565b335f908152602091909152604090205460ff1615613421565b506001600160a01b03811633141561341b565b34610301576020366003190112610301576020610e086004356134fb816147d8565b505f9081525f8051602061504d83398151915260205260409020546001600160a01b031690565b34610301575f366003190112610301576040515f5f8051602061500d8339815191525461354e81613863565b8084529060018116908115611fcd575060011461357557610efc83610ee88185038261371a565b5f8051602061500d8339815191525f9081527f37c58c799b6609234b945e882912ee9ad34948a1dfaa20a97485e1a7752bbf81939250905b8082106135c557509091508101602001610ee8611f53565b9192600181602092548385880101520191019092916135ad565b34610301576020366003190112610301576004359063ffffffff60e01b821680920361030157602091637965db0b60e01b8114908115613621575b5015158152f35b632483248360e11b81149150811561363b575b508361361a565b6380ac58cd60e01b81149150811561366d575b811561365c575b5083613634565b6301ffc9a760e01b14905083613655565b635b5e139f60e01b8114915061364e565b805180835260209291819084018484015e5f828201840152601f01601f1916010190565b600435906001600160a01b038216820361030157565b602435906001600160a01b038216820361030157565b608435906001600160a01b038216820361030157565b60a081019081106001600160401b0382111761056457604052565b604081019081106001600160401b0382111761056457604052565b90601f801991011681019081106001600160401b0382111761056457604052565b6001600160401b03811161056457601f01601f191660200190565b9291926137628261373b565b91613770604051938461371a565b829481845281830111610301578281602093845f960137010152565b9080601f83011215610301578160206137a793359101613756565b90565b6060906003190112610301576004356001600160a01b038116810361030157906024356001600160a01b0381168103610301579060443590565b6001600160401b0381116105645760051b60200190565b9080601f8301121561030157813590613813826137e4565b92613821604051948561371a565b82845260208085019360051b82010191821161030157602001915b8183106138495750505090565b823560ff811681036103015781526020928301920161383c565b90600182811c92168015613891575b602083101461387d57565b634e487b7160e01b5f52602260045260245ffd5b91607f1691613872565b9060405191825f8254926138ae84613863565b808452936001811690811561391957506001146138d5575b506138d39250038361371a565b565b90505f9291925260205f20905f915b8183106138fd5750509060206138d3928201015f6138c6565b60209193508060019154838589010152019101909184926138e4565b9050602092506138d394915060ff191682840152151560051b8201015f6138c6565b60243590811515820361030157565b1561395157565b60405162461bcd60e51b815260206004820152601960248201527f43616c6c6572206973206e6f74205649525455414c2044414f000000000000006044820152606490fd5b9091906001600160a01b03831680156130d157826139b381614f88565b9133151580613a9e575b506001600160a01b038316956139d79087613a6e57613b51565b60018154019055815f527f80bb2b638cc20bc4d0a60d66940f3ab4a00c1d7b313497ca82fb0b4ab007930260205260405f20816001600160601b0360a01b825416179055857fddf252ad1be2c89b69c2b068fc378daa952ba7f163c4a11628f55a4df523b3ef5f80a4506001600160a01b0316808303613a5657505050565b6364283d7b60e01b5f5260045260245260445260645ffd5b5f8481525f8051602061504d8339815191526020526040902080546001600160a01b03191690556130c585613b51565b90915080613aeb575b15613ab45783905f6139bd565b836001600160a01b038316613ad557637e27328960e01b5f5260045260245ffd5b63177e802f60e01b5f523360045260245260445ffd5b506001600160a01b03821633148015613b2f575b80613aa757505f8481525f8051602061504d83398151915260205260409020546001600160a01b03163314613aa7565b50613b3982613b89565b335f908152602091909152604090205460ff16613aff565b6001600160a01b03165f9081527f80bb2b638cc20bc4d0a60d66940f3ab4a00c1d7b313497ca82fb0b4ab00793036020526040902090565b6001600160a01b03165f9081527f80bb2b638cc20bc4d0a60d66940f3ab4a00c1d7b313497ca82fb0b4ab00793056020526040902090565b5f525f8051602061502d833981519152602052600160405f20015490565b818110613bea575050565b5f8155600101613bdf565b90815f52600260205260405f2060018060a01b0382165f5260205260ff60405f205416613c2f5781613c2a826138d394614e2d565b614ed4565b5050565b919082018092116130e457565b5f52600860205260405f2090600460405192613c5b846136e4565b80546001600160a01b03908116855260018201548116602080870191909152600283015482166040808801919091526003840154909216606087015290519290910180548084525f9182528282209284019593925b81601f8401106140e45792600495968193613dd0936020979654918181106140d2575b8181106140bc575b8181106140a6575b818110614090575b81811061407c575b818110614066575b818110614050575b81811061403a575b818110614024575b81811061400e575b818110613ff8575b818110613fe2575b818110613fcc575b818110613fb6575b818110613fa0575b818110613f8a575b818110613f74575b818110613f5e575b818110613f48575b818110613f32575b818110613f1c575b818110613f06575b818110613ef0575b818110613eda575b818110613ec4575b818110613eae575b818110613e98575b818110613e82575b818110613e6c575b818110613e56575b818110613e40575b10613e335750038261371a565b60808201525160405163368d719960e21b815292839182906001600160a01b03165afa908115610930575f91613e04575090565b90506020813d602011613e2b575b81613e1f6020938361371a565b81010312610301575190565b3d9150613e12565b60f81c815285015f6124d0565b928860019160ff8560f01c168152019301613dc3565b928860019160ff8560e81c168152019301613dbb565b928860019160ff8560e01c168152019301613db3565b928860019160ff8560d81c168152019301613dab565b928860019160ff8560d01c168152019301613da3565b928860019160ff8560c81c168152019301613d9b565b928860019160ff8560c01c168152019301613d93565b928860019160ff8560b81c168152019301613d8b565b928860019160ff8560b01c168152019301613d83565b928860019160ff8560a81c168152019301613d7b565b928860019160ff8560a01c168152019301613d73565b928860019160ff8560981c168152019301613d6b565b928860019160ff8560901c168152019301613d63565b928860019160ff8560881c168152019301613d5b565b928860019160ff8560801c168152019301613d53565b928860019160ff8560781c168152019301613d4b565b928860019160ff8560701c168152019301613d43565b928860019160ff8560681c168152019301613d3b565b928860019160ff8560601c168152019301613d33565b928860019160ff8560581c168152019301613d2b565b928860019160ff8560501c168152019301613d23565b928860019160ff8560481c168152019301613d1b565b928860019160ff8560401c168152019301613d13565b928860019160ff8560381c168152019301613d0b565b928860019160ff8560301c168152019301613d03565b928860019160ff8560281c168152019301613cfb565b82891c60ff16845292880192600101613cf3565b928860019160ff8560181c168152019301613ceb565b928860019160ff8560101c168152019301613ce3565b928860019160ff8560081c168152019301613cdb565b60ff8316845292880192600101613cd3565b956001610400602092895460ff8116825260ff8160081c168583015260ff8160101c16604083015260ff8160181c16606083015260ff81861c16608083015260ff8160281c1660a083015260ff8160301c1660c083015260ff8160381c1660e083015260ff8160401c1661010083015260ff8160481c1661012083015260ff8160501c1661014083015260ff8160581c1661016083015260ff8160601c1661018083015260ff8160681c166101a083015260ff8160701c166101c083015260ff8160781c166101e083015260ff8160801c1661020083015260ff8160881c1661022083015260ff8160901c1661024083015260ff8160981c1661026083015260ff8160a01c1661028083015260ff8160a81c166102a083015260ff8160b01c166102c083015260ff8160b81c166102e083015260ff8160c01c1661030083015260ff8160c81c1661032083015260ff8160d01c1661034083015260ff8160d81c1661036083015260ff8160e01c1661038083015260ff8160e81c166103a083015260ff8160f01c166103c083015260f81c6103e0820152019701920191613cb0565b9291614293818386613996565b813b6142a0575b50505050565b604051630a85bd0160e11b81523360048201526001600160a01b03948516602482015260448101919091526080606482015292169190602090829081906142eb90608483019061367e565b03815f865af15f9181614381575b5061434e57503d15614347573d61430f8161373b565b9061431d604051928361371a565b81523d5f602083013e5b805190816143425782633250574960e11b5f5260045260245ffd5b602001fd5b6060614327565b6001600160e01b03191663757a42ff60e11b0161436f57505f80808061429a565b633250574960e11b5f5260045260245ffd5b9091506020813d6020116143be575b8161439d6020938361371a565b8101031261030157516001600160e01b03198116810361030157905f6142f9565b3d9150614390565b919060018060a01b0316805f52600360205260405f20835f5260205260405f2054926001600160401b036005541660011461440f57634e487b7160e01b5f52605160045260245ffd5b5f52600860205260405f209260046040519461442a866136e4565b80546001600160a01b03908116875260018201548116602080890191909152600283015482166040808a01919091526003840154909216606089015290519290910180548084525f9182528282209284019793925b81601f8401106145f7579761457e92849260209798999a54918181106140d2578181106140bc578181106140a6578181106140905781811061407c57818110614066578181106140505781811061403a578181106140245781811061400e57818110613ff857818110613fe257818110613fcc57818110613fb657818110613fa057818110613f8a57818110613f7457818110613f5e57818110613f4857818110613f3257818110613f1c57818110613f0657818110613ef057818110613eda57818110613ec457818110613eae57818110613e9857818110613e8257818110613e6c57818110613e5657818110613e405710613e335750038261371a565b60808201525160405163099d7a2b60e11b81526004810194909452839060249082906001600160a01b03165afa8015610930575f906145c3575b6137a7925090613c33565b506020823d6020116145ef575b816145dd6020938361371a565b81010312610301576137a791516145b8565b3d91506145d0565b9760016104006020928b5460ff8116825260ff8160081c168583015260ff8160101c16604083015260ff8160181c16606083015260ff81861c16608083015260ff8160281c1660a083015260ff8160301c1660c083015260ff8160381c1660e083015260ff8160401c1661010083015260ff8160481c1661012083015260ff8160501c1661014083015260ff8160581c1661016083015260ff8160601c1661018083015260ff8160681c166101a083015260ff8160701c166101c083015260ff8160781c166101e083015260ff8160801c1661020083015260ff8160881c1661022083015260ff8160901c1661024083015260ff8160981c1661026083015260ff8160a01c1661028083015260ff8160a81c166102a083015260ff8160b01c166102c083015260ff8160b81c166102e083015260ff8160c01c1661030083015260ff8160c81c1661032083015260ff8160d01c1661034083015260ff8160d81c1661036083015260ff8160e01c1661038083015260ff8160e81c166103a083015260ff8160f01c166103c083015260f81c6103e082015201990192019161447f565b80548210156108e9575f5260205f2001905f90565b906147c3915f52600460205260405f20614799565b905460039190911b1c6001600160a01b031690565b6147e181614f88565b906001600160a01b038216156147f5575090565b637e27328960e01b5f5260045260245ffd5b335f9081527fb7db2dd08fcb62d0c9e08c51941cae53c267786a0b75803fb7960902fc8ef97d602052604090205460ff161561483f57565b63e2517d3f60e01b5f52336004525f60245260445ffd5b335f9081527fb16e88c42fd4e48df2dd6a2eabd6bc9aec654ec170056b470819f8892cc6431c602052604090205460ff161561488e57565b63e2517d3f60e01b5f52336004527fa49807205ce4d355092ef5a8a18f56e8913cf4a201fbe287825b095693c2177560245260445ffd5b335f9081527f549fe2656c81d2947b3b913f0a53b9ea86c71e049f3a1b8aa23c09a8a05cb8d4602052604090205460ff16156148fd57565b63e2517d3f60e01b5f52336004527f9f2df0fed2c77648de5860a4cc508cd0818c85b8b8a1ab4ceeef8d981c8956a660245260445ffd5b5f8181525f8051602061502d8339815191526020908152604080832033845290915290205460ff16156149645750565b63e2517d3f60e01b5f523360045260245260445ffd5b9190601f811161498957505050565b6138d3925f5260205f20906020601f840160051c830193106114c857601f0160051c0190613bdf565b919091805f527f0542a41881ee128a365a727b282c86fa859579490b9bb45aab8503648c8e790060205260405f2083516001600160401b03811161056457614a04816149fe8454613863565b8461497a565b6020601f8211600114614a6a57908060209493927ff8e1a15aba9398e019f0b49df1a4fde98ee17ae345cb5f6b5e2c27f5033e8ce796975f92614a5f575b50508160011b915f199060031b1c19161790555b604051908152a1565b015190505f80614a42565b601f19821695835f52815f20965f5b818110614ada575096600192849260209796957ff8e1a15aba9398e019f0b49df1a4fde98ee17ae345cb5f6b5e2c27f5033e8ce7999a10614ac2575b505050811b019055614a56565b01515f1960f88460031b161c191690555f8080614ab5565b83830151895560019098019760209384019301614a79565b6001600160a01b0381165f9081527fb7db2dd08fcb62d0c9e08c51941cae53c267786a0b75803fb7960902fc8ef97d602052604090205460ff16614b89576001600160a01b03165f8181527fb7db2dd08fcb62d0c9e08c51941cae53c267786a0b75803fb7960902fc8ef97d60205260408120805460ff191660011790553391905f80516020614fed8339815191528180a4600190565b505f90565b6001600160a01b0381165f9081527f65a726ee7c91e89ef3525766267873ea7774790138011645554b3fd61ac9eba3602052604090205460ff16614b89576001600160a01b03165f8181527f65a726ee7c91e89ef3525766267873ea7774790138011645554b3fd61ac9eba360205260408120805460ff191660011790553391907ffa3e63d5771fd4999b619dee634be9dbb03c309738cc2adaadd49c4f5595adb0905f80516020614fed8339815191529080a4600190565b6001600160a01b0381165f9081527fb16e88c42fd4e48df2dd6a2eabd6bc9aec654ec170056b470819f8892cc6431c602052604090205460ff16614b89576001600160a01b03165f8181527fb16e88c42fd4e48df2dd6a2eabd6bc9aec654ec170056b470819f8892cc6431c60205260408120805460ff191660011790553391907fa49807205ce4d355092ef5a8a18f56e8913cf4a201fbe287825b095693c21775905f80516020614fed8339815191529080a4600190565b5f8181525f8051602061502d833981519152602090815260408083206001600160a01b038616845290915290205460ff16614d8b575f8181525f8051602061502d833981519152602090815260408083206001600160a01b0395909516808452949091528120805460ff19166001179055339291905f80516020614fed8339815191529080a4600190565b50505f90565b5f8181525f8051602061502d833981519152602090815260408083206001600160a01b038616845290915290205460ff1615614d8b575f8181525f8051602061502d833981519152602090815260408083206001600160a01b0395909516808452949091528120805460ff19169055339291907ff6391f5c32d9c69d2a47ea670b442974b53935d1edc7fd64eb21e047a839171b9080a4600190565b90815f52600260205260405f2060018060a01b0382165f5260205260405f20600160ff19825416179055815f52600460205260405f2091825491600160401b83101561056457614ea6837fcbde0481b37e4b90d96b4492b49bcd7b48b260233519b878611a16a184b071aa956001604096018155614799565b81546001600160a01b0393841660039290921b82811b94901b191692909217905582519182526020820152a1565b6001600160401b0360055460401c16600314614efe57634e487b7160e01b5f52605160045260245ffd5b614f0781613c40565b9160018060a01b03165f52600360205260405f20905f5260205260405f2055565b60ff1660ff81146130e45760010190565b614f42816147d8565b505f527f0542a41881ee128a365a727b282c86fa859579490b9bb45aab8503648c8e7900602052614f7560405f2061389b565b5f604051614f8460208261371a565b5290565b5f9081527f80bb2b638cc20bc4d0a60d66940f3ab4a00c1d7b313497ca82fb0b4ab007930260205260409020546001600160a01b031690565b60ff5f8051602061506d8339815191525460401c1615614fdd57565b631afcd79f60e31b5f5260045ffdfe2f8788117e7eff1d82e926ec794901d17c78024a50270940304540a733656f0d80bb2b638cc20bc4d0a60d66940f3ab4a00c1d7b313497ca82fb0b4ab007930002dd7bc7dec4dceedda775e58dd541e08a116c6c53815c0bd028192f7b62680080bb2b638cc20bc4d0a60d66940f3ab4a00c1d7b313497ca82fb0b4ab0079304f0c57e16840df040f15088dc2f81fe391c3923bec73e23a9662efc9c229c6a0080bb2b638cc20bc4d0a60d66940f3ab4a00c1d7b313497ca82fb0b4ab0079301a26469706673582212201265f48366171084f691508a35476f21b87878ae300b138b58a88302c1689dd064736f6c634300081a0033","linkReferences":{}},"methodIdentifiers":{"ADMIN_ROLE()":"75b238fc","DEFAULT_ADMIN_ROLE()":"a217fddf","MINTER_ROLE()":"d5391393","VALIDATOR_ADMIN_ROLE()":"386924de","addCoreType(string)":"43496447","addValidator(uint256,address)":"4b561753","approve(address,uint256)":"095ea7b3","balanceOf(address)":"70a08231","coreTypes(uint8)":"4f1b9fac","getAllServices(uint256)":"e3a9769c","getApproved(uint256)":"081812fc","getContributionNft()":"9a7e8c8e","getEloCalculator()":"c052bfb6","getPastValidatorScore(uint256,address,uint256)":"6472c79f","getRoleAdmin(bytes32)":"248a9ca3","getServiceNft()":"b9f7fe53","getVotes(uint256,address)":"68197360","grantRole(bytes32,address)":"2f2ff15d","hasRole(bytes32,address)":"91d14854","initialize(address)":"c4d66de8","isApprovedForAll(address,address)":"e985e9c5","isBlacklisted(uint256)":"4752f9ef","isValidator(uint256,address)":"23f2a73f","migrateScoreFunctions()":"cc35cc41","migrateVirtual(uint256,address,address,address,address)":"74aa04c5","mint(uint256,address,string,address,address,uint8[],address,address)":"3f11354a","name()":"06fdde03","nextVirtualId()":"5faef81a","ownerOf(uint256)":"6352211e","renounceRole(bytes32,address)":"36568abe","revokeRole(bytes32,address)":"d547741f","safeTransferFrom(address,address,uint256)":"42842e0e","safeTransferFrom(address,address,uint256,bytes)":"b88d4fde","setApprovalForAll(address,bool)":"a22cb465","setBlacklist(uint256,bool)":"fdf864f1","setContributionService(address,address)":"09c88b3a","setCoreTypes(uint256,uint8[])":"f9661085","setDAO(uint256,address)":"f0c21c46","setEloCalculator(address)":"1ca95e13","setTBA(uint256,address)":"c859b998","setTokenURI(uint256,string)":"162094c4","stakingTokenToVirtualId(address)":"44ae85ea","supportsInterface(bytes4)":"01ffc9a7","symbol()":"95d89b41","tokenURI(uint256)":"c87b56dd","totalProposals(uint256)":"6d6464b4","totalStaked(uint256)":"41cb8c20","totalSupply()":"18160ddd","totalUptimeScore(uint256)":"a0ed2a5d","transferFrom(address,address,uint256)":"23b872dd","validatorAt(uint256,uint256)":"d809a06f","validatorCount(uint256)":"1b534f04","validatorScore(uint256,address)":"c12032d3","virtualInfo(uint256)":"aca470ce","virtualInfos(uint256)":"691de489","virtualLP(uint256)":"fcf9e6db","virtualLPs(uint256)":"336e3997"},"id":98}