{"abi":[{"type":"constructor","inputs":[],"stateMutability":"nonpayable"},{"type":"function","name":"DEFAULT_ADMIN_ROLE","inputs":[],"outputs":[{"name":"","type":"bytes32","internalType":"bytes32"}],"stateMutability":"view"},{"type":"function","name":"WITHDRAW_ROLE","inputs":[],"outputs":[{"name":"","type":"bytes32","internalType":"bytes32"}],"stateMutability":"view"},{"type":"function","name":"allDAOs","inputs":[{"name":"","type":"uint256","internalType":"uint256"}],"outputs":[{"name":"","type":"address","internalType":"address"}],"stateMutability":"view"},{"type":"function","name":"allTokens","inputs":[{"name":"","type":"uint256","internalType":"uint256"}],"outputs":[{"name":"","type":"address","internalType":"address"}],"stateMutability":"view"},{"type":"function","name":"allTradingTokens","inputs":[{"name":"","type":"uint256","internalType":"uint256"}],"outputs":[{"name":"","type":"address","internalType":"address"}],"stateMutability":"view"},{"type":"function","name":"applicationThreshold","inputs":[],"outputs":[{"name":"","type":"uint256","internalType":"uint256"}],"stateMutability":"view"},{"type":"function","name":"assetToken","inputs":[],"outputs":[{"name":"","type":"address","internalType":"address"}],"stateMutability":"view"},{"type":"function","name":"daoImplementation","inputs":[],"outputs":[{"name":"","type":"address","internalType":"address"}],"stateMutability":"view"},{"type":"function","name":"defaultDelegatee","inputs":[],"outputs":[{"name":"","type":"address","internalType":"address"}],"stateMutability":"view"},{"type":"function","name":"executeApplication","inputs":[{"name":"id","type":"uint256","internalType":"uint256"},{"name":"canStake","type":"bool","internalType":"bool"}],"outputs":[],"stateMutability":"nonpayable"},{"type":"function","name":"getApplication","inputs":[{"name":"proposalId","type":"uint256","internalType":"uint256"}],"outputs":[{"name":"","type":"tuple","internalType":"struct AgentFactoryV2.Application","components":[{"name":"name","type":"string","internalType":"string"},{"name":"symbol","type":"string","internalType":"string"},{"name":"tokenURI","type":"string","internalType":"string"},{"name":"status","type":"uint8","internalType":"enum AgentFactoryV2.ApplicationStatus"},{"name":"withdrawableAmount","type":"uint256","internalType":"uint256"},{"name":"proposer","type":"address","internalType":"address"},{"name":"cores","type":"uint8[]","internalType":"uint8[]"},{"name":"proposalEndBlock","type":"uint256","internalType":"uint256"},{"name":"virtualId","type":"uint256","internalType":"uint256"},{"name":"tbaSalt","type":"bytes32","internalType":"bytes32"},{"name":"tbaImplementation","type":"address","internalType":"address"},{"name":"daoVotingPeriod","type":"uint32","internalType":"uint32"},{"name":"daoThreshold","type":"uint256","internalType":"uint256"}]}],"stateMutability":"view"},{"type":"function","name":"getRoleAdmin","inputs":[{"name":"role","type":"bytes32","internalType":"bytes32"}],"outputs":[{"name":"","type":"bytes32","internalType":"bytes32"}],"stateMutability":"view"},{"type":"function","name":"gov","inputs":[],"outputs":[{"name":"","type":"address","internalType":"address"}],"stateMutability":"view"},{"type":"function","name":"grantRole","inputs":[{"name":"role","type":"bytes32","internalType":"bytes32"},{"name":"account","type":"address","internalType":"address"}],"outputs":[],"stateMutability":"nonpayable"},{"type":"function","name":"hasRole","inputs":[{"name":"role","type":"bytes32","internalType":"bytes32"},{"name":"account","type":"address","internalType":"address"}],"outputs":[{"name":"","type":"bool","internalType":"bool"}],"stateMutability":"view"},{"type":"function","name":"initialize","inputs":[{"name":"tokenImplementation_","type":"address","internalType":"address"},{"name":"veTokenImplementation_","type":"address","internalType":"address"},{"name":"daoImplementation_","type":"address","internalType":"address"},{"name":"tbaRegistry_","type":"address","internalType":"address"},{"name":"assetToken_","type":"address","internalType":"address"},{"name":"nft_","type":"address","internalType":"address"},{"name":"applicationThreshold_","type":"uint256","internalType":"uint256"},{"name":"vault_","type":"address","internalType":"address"}],"outputs":[],"stateMutability":"nonpayable"},{"type":"function","name":"maturityDuration","inputs":[],"outputs":[{"name":"","type":"uint256","internalType":"uint256"}],"stateMutability":"view"},{"type":"function","name":"nft","inputs":[],"outputs":[{"name":"","type":"address","internalType":"address"}],"stateMutability":"view"},{"type":"function","name":"pause","inputs":[],"outputs":[],"stateMutability":"nonpayable"},{"type":"function","name":"paused","inputs":[],"outputs":[{"name":"","type":"bool","internalType":"bool"}],"stateMutability":"view"},{"type":"function","name":"proposeAgent","inputs":[{"name":"name","type":"string","internalType":"string"},{"name":"symbol","type":"string","internalType":"string"},{"name":"tokenURI","type":"string","internalType":"string"},{"name":"cores","type":"uint8[]","internalType":"uint8[]"},{"name":"tbaSalt","type":"bytes32","internalType":"bytes32"},{"name":"tbaImplementation","type":"address","internalType":"address"},{"name":"daoVotingPeriod","type":"uint32","internalType":"uint32"},{"name":"daoThreshold","type":"uint256","internalType":"uint256"}],"outputs":[{"name":"","type":"uint256","internalType":"uint256"}],"stateMutability":"nonpayable"},{"type":"function","name":"renounceRole","inputs":[{"name":"role","type":"bytes32","internalType":"bytes32"},{"name":"callerConfirmation","type":"address","internalType":"address"}],"outputs":[],"stateMutability":"nonpayable"},{"type":"function","name":"revokeRole","inputs":[{"name":"role","type":"bytes32","internalType":"bytes32"},{"name":"account","type":"address","internalType":"address"}],"outputs":[],"stateMutability":"nonpayable"},{"type":"function","name":"setApplicationThreshold","inputs":[{"name":"newThreshold","type":"uint256","internalType":"uint256"}],"outputs":[],"stateMutability":"nonpayable"},{"type":"function","name":"setAssetToken","inputs":[{"name":"newToken","type":"address","internalType":"address"}],"outputs":[],"stateMutability":"nonpayable"},{"type":"function","name":"setImplementations","inputs":[{"name":"token","type":"address","internalType":"address"},{"name":"veToken","type":"address","internalType":"address"},{"name":"dao","type":"address","internalType":"address"}],"outputs":[],"stateMutability":"nonpayable"},{"type":"function","name":"setMaturityDuration","inputs":[{"name":"newDuration","type":"uint256","internalType":"uint256"}],"outputs":[],"stateMutability":"nonpayable"},{"type":"function","name":"setTokenAdmin","inputs":[{"name":"newTokenAdmin","type":"address","internalType":"address"}],"outputs":[],"stateMutability":"nonpayable"},{"type":"function","name":"setTokenSupplyParams","inputs":[{"name":"maxSupply","type":"uint256","internalType":"uint256"},{"name":"lpSupply","type":"uint256","internalType":"uint256"},{"name":"vaultSupply","type":"uint256","internalType":"uint256"},{"name":"maxTokensPerWallet","type":"uint256","internalType":"uint256"},{"name":"maxTokensPerTxn","type":"uint256","internalType":"uint256"},{"name":"botProtectionDurationInSeconds","type":"uint256","internalType":"uint256"},{"name":"vault","type":"address","internalType":"address"}],"outputs":[],"stateMutability":"nonpayable"},{"type":"function","name":"setTokenTaxParams","inputs":[{"name":"projectBuyTaxBasisPoints","type":"uint256","internalType":"uint256"},{"name":"projectSellTaxBasisPoints","type":"uint256","internalType":"uint256"},{"name":"taxSwapThresholdBasisPoints","type":"uint256","internalType":"uint256"},{"name":"projectTaxRecipient","type":"address","internalType":"address"}],"outputs":[],"stateMutability":"nonpayable"},{"type":"function","name":"setUniswapRouter","inputs":[{"name":"router","type":"address","internalType":"address"}],"outputs":[],"stateMutability":"nonpayable"},{"type":"function","name":"setVault","inputs":[{"name":"newVault","type":"address","internalType":"address"}],"outputs":[],"stateMutability":"nonpayable"},{"type":"function","name":"supportsInterface","inputs":[{"name":"interfaceId","type":"bytes4","internalType":"bytes4"}],"outputs":[{"name":"","type":"bool","internalType":"bool"}],"stateMutability":"view"},{"type":"function","name":"tbaRegistry","inputs":[],"outputs":[{"name":"","type":"address","internalType":"address"}],"stateMutability":"view"},{"type":"function","name":"tokenImplementation","inputs":[],"outputs":[{"name":"","type":"address","internalType":"address"}],"stateMutability":"view"},{"type":"function","name":"totalAgents","inputs":[],"outputs":[{"name":"","type":"uint256","internalType":"uint256"}],"stateMutability":"view"},{"type":"function","name":"unpause","inputs":[],"outputs":[],"stateMutability":"nonpayable"},{"type":"function","name":"veTokenImplementation","inputs":[],"outputs":[{"name":"","type":"address","internalType":"address"}],"stateMutability":"view"},{"type":"function","name":"withdraw","inputs":[{"name":"id","type":"uint256","internalType":"uint256"}],"outputs":[],"stateMutability":"nonpayable"},{"type":"event","name":"ApplicationThresholdUpdated","inputs":[{"name":"newThreshold","type":"uint256","indexed":false,"internalType":"uint256"}],"anonymous":false},{"type":"event","name":"GovUpdated","inputs":[{"name":"newGov","type":"address","indexed":false,"internalType":"address"}],"anonymous":false},{"type":"event","name":"ImplContractsUpdated","inputs":[{"name":"token","type":"address","indexed":false,"internalType":"address"},{"name":"dao","type":"address","indexed":false,"internalType":"address"}],"anonymous":false},{"type":"event","name":"Initialized","inputs":[{"name":"version","type":"uint64","indexed":false,"internalType":"uint64"}],"anonymous":false},{"type":"event","name":"NewApplication","inputs":[{"name":"id","type":"uint256","indexed":false,"internalType":"uint256"}],"anonymous":false},{"type":"event","name":"NewPersona","inputs":[{"name":"virtualId","type":"uint256","indexed":false,"internalType":"uint256"},{"name":"token","type":"address","indexed":false,"internalType":"address"},{"name":"dao","type":"address","indexed":false,"internalType":"address"},{"name":"tba","type":"address","indexed":false,"internalType":"address"},{"name":"veToken","type":"address","indexed":false,"internalType":"address"},{"name":"lp","type":"address","indexed":false,"internalType":"address"}],"anonymous":false},{"type":"event","name":"Paused","inputs":[{"name":"account","type":"address","indexed":false,"internalType":"address"}],"anonymous":false},{"type":"event","name":"RoleAdminChanged","inputs":[{"name":"role","type":"bytes32","indexed":true,"internalType":"bytes32"},{"name":"previousAdminRole","type":"bytes32","indexed":true,"internalType":"bytes32"},{"name":"newAdminRole","type":"bytes32","indexed":true,"internalType":"bytes32"}],"anonymous":false},{"type":"event","name":"RoleGranted","inputs":[{"name":"role","type":"bytes32","indexed":true,"internalType":"bytes32"},{"name":"account","type":"address","indexed":true,"internalType":"address"},{"name":"sender","type":"address","indexed":true,"internalType":"address"}],"anonymous":false},{"type":"event","name":"RoleRevoked","inputs":[{"name":"role","type":"bytes32","indexed":true,"internalType":"bytes32"},{"name":"account","type":"address","indexed":true,"internalType":"address"},{"name":"sender","type":"address","indexed":true,"internalType":"address"}],"anonymous":false},{"type":"event","name":"Unpaused","inputs":[{"name":"account","type":"address","indexed":false,"internalType":"address"}],"anonymous":false},{"type":"error","name":"AccessControlBadConfirmation","inputs":[]},{"type":"error","name":"AccessControlUnauthorizedAccount","inputs":[{"name":"account","type":"address","internalType":"address"},{"name":"neededRole","type":"bytes32","internalType":"bytes32"}]},{"type":"error","name":"AddressEmptyCode","inputs":[{"name":"target","type":"address","internalType":"address"}]},{"type":"error","name":"AddressInsufficientBalance","inputs":[{"name":"account","type":"address","internalType":"address"}]},{"type":"error","name":"ERC1167FailedCreateClone","inputs":[]},{"type":"error","name":"EnforcedPause","inputs":[]},{"type":"error","name":"ExpectedPause","inputs":[]},{"type":"error","name":"FailedInnerCall","inputs":[]},{"type":"error","name":"InvalidInitialization","inputs":[]},{"type":"error","name":"NotInitializing","inputs":[]},{"type":"error","name":"SafeERC20FailedOperation","inputs":[{"name":"token","type":"address","internalType":"address"}]}],"bytecode":{"object":"0x6080806040523460d0577ff0c57e16840df040f15088dc2f81fe391c3923bec73e23a9662efc9c229c6a005460ff8160401c1660c1576002600160401b03196001600160401b03821601605c575b604051613c1790816100d58239f35b6001600160401b0319166001600160401b039081177ff0c57e16840df040f15088dc2f81fe391c3923bec73e23a9662efc9c229c6a005581527fc7f505b2f371ae2175ee4913f4499e1f2633a7b5936321eed1cdaeb6115181d290602090a15f80604d565b63f92ee8a960e01b5f5260045ffd5b5f80fdfe6080806040526004361015610012575f80fd5b5f905f3560e01c90816301ffc9a71461339e57508063063513b7146133815780630c4cb55c146133595780631083f7611461333157806312d43a51146133095780631f2f4bfd14612ad7578063248a9ca314612aa557806326bde5aa14612a625780632a7d4a1f146128835780632e1a7d4d146127105780632f2ff15d146126d35780632f3a3d5d146126ab57806336568abe146126655780633f4ba83a146125e7578063468d198d146125bf57806347ccca02146125975780635c975abb146125695780635ca3cedf14612370578063634282af146122f85780636817031b146122b55780638456cb59146122445780638e659c0814611fd257806391d1485414611f8a5780639300d23814611f175780639cbe0bac14611eef5780639d69932614611ec75780639e4ec30a146116cb578063a217fddf146116b1578063aa3d000a1461046a578063b4136bd8146103fd578063bd1cf258146103af578063bea9849e1461036f578063c505371214610351578063d547741f1461030a578063d739ac29146102e7578063ddf44275146102c9578063e02023a11461028e578063e887b1cc1461020d5763f7457594146101cb575f80fd5b3461020a57602036600319011261020a576101e4613415565b6101ec6137bd565b60018060a01b03166001600160601b0360a01b601254161760125580f35b80fd5b503461020a57602036600319011261020a5760043590600e5482101561020a57600e5482101561027a57600e81527fbb7b4a454dc3493923482f07822329ed19e8244eff582cc204f8554c3620c3fd9091015460405160039290921b1c6001600160a01b03168152602090f35b634e487b7160e01b81526032600452602490fd5b503461020a578060031936011261020a5760206040517f5d8e12c39142ff96d79d04d15d1ba1269e4fe57bb9d26f43523628b34ba108ec8152f35b503461020a578060031936011261020a576020600654604051908152f35b503461020a57602036600319011261020a576103016137bd565b600435600a5580f35b503461020a57604036600319011261020a5761034d60043561032a61342b565b90610348610343825f525f602052600160405f20015490565b61380c565b61397b565b5080f35b503461020a578060031936011261020a576020600754604051908152f35b503461020a57602036600319011261020a57610389613415565b6103916137bd565b60018060a01b03166001600160601b0360a01b600f541617600f5580f35b503461020a57602036600319011261020a577fcfa33021ab0175831433b2f3bd8eeb24a22f5ae53ca0e660a246811754f9e34a60206004356103ef6137bd565b80600655604051908152a180f35b503461020a57602036600319011261020a576004359060085482101561020a5760085482101561027a57600881527ff3f7a9fe364faab93b216da50a3214154f22a0a2b415b23a84c8169e8b636ee39091015460405160039290921b1c6001600160a01b03168152602090f35b5034610e0c576040366003190112610e0c5760043560243590811515809203610e0c57600d546104a060ff8260a01c1615613663565b60ff60a01b1916600160a01b17600d555f818152600b6020526040902060039081015460ff169081101561169d576104d890156136db565b6012546001600160a01b031615611662575f52600b60205260405f206005810160018060a01b038154163314801561162b575b610514906136a0565b60048201905f8254925560038301600160ff1982541617905560018301906040519461054b866105448188613585565b03876134b4565b604051936105648561055d8187613585565b03866134b4565b600254610579906001600160a01b0316613ae0565b6040516001600160a01b03821698919690916060830191906001600160401b0383118484101761161757610607610615926105f59460405260018060a01b0360125416865260018060a01b03600f5416602087015260018060a01b036009541660408701526040519485936040602086015260608501906133f1565b838103601f19016040850152906133f1565b03601f1981018352826134b4565b883b15610e0c57604051634258efa960e11b8152915f600484015b600382106115f7575050506106509060c0606484015260c48301906133f1565b8181036003190160848301526014545f9161066a8261354d565b80825291600181169081156115d8575060011461157e575b50506003198282030160a4830152815f91601554906106a08261354d565b808252916001811690811561155e57506001146114fd575b5050805f920381838c5af180156114f2576114dd575b50600e54600160401b81101561138a578060016106f09201600e55600e613483565b81546001600160a01b0360039290921b91821b19169089901b17905560405163d6efd7c360e01b815288816004818b5afa9081156114d257899161142e575b5080511561141a5760209081015160095460405163a9059cbb60e01b81526001600160a01b0398891660048201526024810194909452908716968a94939291839160449183918891165af18015610e18576113fd575b50863b15610e6557604051631672aef960e21b81523060048201528281602481838c5af1908115610e185783916113e8575b505061080d9061081b6040519566029ba30b5b2b2160cd1b60208801526107f3876107e5602782018c613753565b03601f1981018952886134b4565b604051938491607360f81b60208401526021830190613753565b03601f1981018452836134b4565b83546010546001600160a01b039182169190610838908216613ae0565b1695610846600a5442613606565b6004546001600160a01b031693909290883b15610dca5786946108899461089b604051988997889763b2193b4d60e01b895260e060048a015260e48901906133f1565b878103600319016024890152906133f1565b9360448601528b6064860152608485015260a484015260c4830152038183885af18015610dce576113cf575b5050600754600160401b8110156113bb578060016108ea92016007556007613483565b81546001600160a01b0360039290921b91821b19169084901b1790556040519461093660048761091d6020820189613753565b632044414f60e01b815203601b198101895201876134b4565b600a85018054600b87015460035460a09290921c63ffffffff16989294928a926001600160a01b039061096a908216613ae0565b169960018060a01b0360045416918b3b156113b75784926109a8926040519586948594631c63df3560e21b865260a0600487015260a48601906133f1565b928c60248601526044850152606484015260848301520381838d5af18015610dce5761139e575b5050600854600160401b81101561138a578060016109f292016008556008613483565b81546001600160a01b0360039290921b82811b19909116908a901b1790915560048054604051632fd77c0d60e11b815298921690602090899081845afa97881561137f578a9861134b575b50600d548354604051631f889aa560e11b8152600481018b90526001600160a01b03928316602482015261010060448201528c9594939092909160068501918b918e9116610a92610104870160028901613585565b91606487015260848601526003198582030160a4860152602083549182815201928852602088209088915b81601f8401106111995786946020969486948c9486945491818110611187575b818110611171575b81811061115b575b818110611145575b818110611131575b81811061111b575b818110611105575b8181106110ef575b8181106110d9575b8181106110c3575b8181106110ad575b818110611097575b818110611081575b81811061106b575b818110611055575b81811061103f575b818110611029575b818110611013575b818110610ffd575b818110610fe7575b818110610fd1575b818110610fbb575b818110610fa5575b818110610f8f575b818110610f79575b818110610f63575b818110610f4d575b818110610f37575b818110610f21575b818110610f0b575b818110610ef5575b10610ee6575b5060c48301528b60e483015203925af18015610edb57610ea5575b5060088101889055600554945460099091015460048054604051638a54c52f60e01b81526001600160a01b0394851692810192909252602482019290925246604482015290821660648201526084810189905294602091869160a49183918791165af1938415610dce578294610e69575b506004546001600160a01b031693843b15610dd95782809160446040518094819363190b373360e31b83528d600484015260018060a01b0316998a60248401525af1908115610e18578391610e50575b505060405163095ea7b360e01b8152600481018690525f196024820152602081604481868b5af18015610e1857610e23575b506040516370a0823160e01b8152306004820152906020826024818a5afa918215610e18578392610ddd575b50546001600160a01b0316853b15610dd9576040519163a7d545db60e01b835260048301528060248301526044820152818160648183895af18015610dce57610dab575b50937ff9d151d23a5253296eb20ab40959cf48828ea2732d337416716e302ed83ca6589360c093888894604051958652602086015260408501526060840152608083015260a0820152a1600d805460ff60a01b1916905580f35b81610dbb919796959493976134b4565b610dca5790919293865f610d51565b8680fd5b6040513d84823e3d90fd5b8280fd5b925090506020823d602011610e10575b81610dfa602093836134b4565b81010312610e0c57889151905f610d0d565b5f80fd5b3d9150610ded565b6040513d85823e3d90fd5b610e449060203d602011610e49575b610e3c81836134b4565b81019061373b565b610ce1565b503d610e32565b81610e5a916134b4565b610e6557815f610caf565b5080fd5b9093506020813d602011610e9d575b81610e85602093836134b4565b81010312610e6557610e9690613727565b925f610c5f565b3d9150610e78565b9092506020813d602011610ed3575b81610ec1602093836134b4565b81010312610e0c575088916020610bee565b3d9150610eb4565b6040513d86823e3d90fd5b60f81c8252908701905f610bd3565b938a60019160ff8560f01c168152019401610bcd565b938a60019160ff8560e81c168152019401610bc5565b938a60019160ff8560e01c168152019401610bbd565b938a60019160ff8560d81c168152019401610bb5565b938a60019160ff8560d01c168152019401610bad565b938a60019160ff8560c81c168152019401610ba5565b938a60019160ff8560c01c168152019401610b9d565b938a60019160ff8560b81c168152019401610b95565b938a60019160ff8560b01c168152019401610b8d565b938a60019160ff8560a81c168152019401610b85565b938a60019160ff8560a01c168152019401610b7d565b938a60019160ff8560981c168152019401610b75565b938a60019160ff8560901c168152019401610b6d565b938a60019160ff8560881c168152019401610b65565b938a60019160ff8560801c168152019401610b5d565b938a60019160ff8560781c168152019401610b55565b938a60019160ff8560701c168152019401610b4d565b938a60019160ff8560681c168152019401610b45565b938a60019160ff8560601c168152019401610b3d565b938a60019160ff8560581c168152019401610b35565b938a60019160ff8560501c168152019401610b2d565b938a60019160ff8560481c168152019401610b25565b938a60019160ff8560401c168152019401610b1d565b938a60019160ff8560381c168152019401610b15565b938a60019160ff8560301c168152019401610b0d565b938a60019160ff8560281c168152019401610b05565b828b1c60ff168552938a0193600101610afd565b938a60019160ff8560181c168152019401610af5565b938a60019160ff8560101c168152019401610aed565b938a60019160ff8560081c168152019401610ae5565b60ff83168552938a0193600101610add565b9495969798509150916001610400602092865460ff8116825260ff8160081c168583015260ff8160101c16604083015260ff8160181c16606083015260ff81861c16608083015260ff8160281c1660a083015260ff8160301c1660c083015260ff8160381c1660e083015260ff8160401c1661010083015260ff8160481c1661012083015260ff8160501c1661014083015260ff8160581c1661016083015260ff8160601c1661018083015260ff8160681c166101a083015260ff8160701c166101c083015260ff8160781c166101e083015260ff8160801c1661020083015260ff8160881c1661022083015260ff8160901c1661024083015260ff8160981c1661026083015260ff8160a01c1661028083015260ff8160a81c166102a083015260ff8160b01c166102c083015260ff8160b81c166102e083015260ff8160c01c1661030083015260ff8160c81c1661032083015260ff8160d01c1661034083015260ff8160d81c1661036083015260ff8160e01c1661038083015260ff8160e81c166103a083015260ff8160f01c166103c083015260f81c6103e082015201940192018b918f989796959493610abd565b9097506020813d602011611377575b81611367602093836134b4565b81010312610e0c5751965f610a3d565b3d915061135a565b6040513d8c823e3d90fd5b634e487b7160e01b89526041600452602489fd5b816113a8916134b4565b6113b357875f6109cf565b8780fd5b8480fd5b634e487b7160e01b87526041600452602487fd5b816113d9916134b4565b6113e457855f6108c7565b8580fd5b816113f2916134b4565b610e6557815f6107b7565b6114159060203d602011610e4957610e3c81836134b4565b610785565b634e487b7160e01b89526032600452602489fd5b90503d808a833e61143f81836134b4565b8101906020818303126114ca578051906001600160401b0382116114ce57019080601f830112156114ca57815161147581613536565b9261148360405194856134b4565b81845260208085019260051b8201019283116114c657602001905b8282106114ae575050505f61072f565b602080916114bb84613727565b81520191019061149e565b8b80fd5b8980fd5b8a80fd5b6040513d8b823e3d90fd5b6114ea9198505f906134b4565b5f965f6106ce565b6040513d5f823e3d90fd5b60155f908152909350907f55f448fdea98c4d29eb340757ef0a66cd03dbb9538908a6a81d96026b71ec4755b818310611540575050602082915f940101926106b8565b60209194935080600191548385870101520191019092849293611529565b5f9550602092915092849360ff191683830152151560051b0101926106b8565b60145f9081529192507fce6d7b5282bd9a3661ae061feed1dbda4e52ab073b1f9285be6e155d9c38d4ec5b8383106115be57506020925001015f80610682565b6001816020929493945483858701015201910191906115a9565b90506020935060ff929192191683830152151560051b01015f80610682565b82516001600160a01b031681526020928301926001929092019101610630565b634e487b7160e01b5f52604160045260245ffd5b50335f9081527f20be27040b8e00df40bca0df34743417f3574a156386188f7d7f14369e5ee82b602052604090205460ff1661050b565b60405162461bcd60e51b8152602060048201526013602482015272151bdad95b8818591b5a5b881b9bdd081cd95d606a1b6044820152606490fd5b634e487b7160e01b5f52602160045260245ffd5b34610e0c575f366003190112610e0c5760206040515f8152f35b34610e0c57610100366003190112610e0c576004356001600160401b038111610e0c576116fc9036906004016134f0565b6024356001600160401b038111610e0c5761171b9036906004016134f0565b906044356001600160401b038111610e0c5761173b9036906004016134f0565b90606435926001600160401b038411610e0c5736602385011215610e0c57836004013561176781613536565b9461177560405196876134b4565b8186526024602087019260051b82010190368211610e0c57602401915b818310611ead575050506117a461346d565b60c43563ffffffff8116809103610e0c576117bd6139fb565b6009546040516370a0823160e01b81523360048201526001600160a01b0390911690602081602481855afa9081156114f2575f91611e7b575b50600654809110611e3657604051636eb1769f60e11b8152336004820152306024820152602081604481865afa80156114f25782915f91611e01575b5010611db157875115611d735761187991604051916323b872dd60e01b60208401523360248401523060448401526064830152606482526118746084836134b4565b613a22565b600154945f198614611d5f57600186016001556006546040519561189c87613498565b8652602086019485526040860191825260608601905f82526080870190815260a0870133815260c08801998a5260e08801914383526101008901935f85526101208a019560843587526101408b019860018060a01b031689526101608b019788526101808b019960e4358b528c5f52600b60205260405f209b5180516001600160401b0381116116175761193b818f611935815461354d565b90613629565b60208e6001601f841114611cfc5750819061196b935f92611c2b575b50508160011b915f199060031b1c19161790565b8c555b51805160018d01916001600160401b0382116116175761199882611992855461354d565b85613629565b602090601f8311600114611c99576119c692915f9183611c2b5750508160011b915f199060031b1c19161790565b90555b51805160028c01916001600160401b038211611617576119ed82611992855461354d565b602090601f8311600114611c3657611a1b92915f9183611c2b5750508160011b915f199060031b1c19161790565b90555b60038a019051600381101561169d57815460ff191660ff91909116179055516004890155516005880180546001600160a01b039092166001600160a01b0319909216919091179055975180516006880199916001600160401b03821161161757600160401b8211611617576020908b54838d55808410611be1575b5001995f5260205f208160051c915f5b838110611b9a5750601f198116900380611b49575b835160078b0155845160088b0155855160098b01558751600a8b018054895163ffffffff60a01b60a09190911b166001600160a01b039093166001600160c01b0319909116179190911790558851600b8b01556040518b81526020908c907f0ff47c4a3dc48719ecfd1876116e80d7d76ec7cb67248ae49449f9104747af29908390a1604051908152f35b9a5f9b5f5b818110611b69575050500198909855602097600b8a80611abe565b90919c6020611b908f928460ff6001955116919060ff809160031b9316831b921b19161790565b9e01929101611b4e565b5f805b60208110611bb2575083820155600101611aa9565b9d9060208f600192611bd89160ff865116919060ff809160031b9316831b921b19161790565b92019e01611b9d565b611c0b908d5f52835f20601f80870160051c82019281881680611c11575b500160051c0190613613565b8c611a99565b5f198501908154905f19908a0360031b1c1690555f611bff565b015190505f80611957565b90601f19831691845f52815f20925f5b818110611c815750908460019594939210611c69575b505050811b019055611a1e565b01515f1960f88460031b161c191690558f8080611c5c565b92936020600181928786015181550195019301611c46565b90601f19831691845f52815f20925f5b818110611ce45750908460019594939210611ccc575b505050811b0190556119c9565b01515f1960f88460031b161c191690555f8080611cbf565b92936020600181928786015181550195019301611ca9565b9192601f198416925f52815f20925f5b818110611d475750908460019594939210611d2f575b505050811b018c5561196e565b01515f1960f88460031b161c191690555f8080611d22565b92936020600181928786015181550195019301611d0c565b634e487b7160e01b5f52601160045260245ffd5b60405162461bcd60e51b815260206004820152601660248201527510dbdc995cc81b5d5cdd081899481c1c9bdd9a59195960521b6044820152606490fd5b60405162461bcd60e51b815260206004820152602260248201527f496e73756666696369656e7420617373657420746f6b656e20616c6c6f77616e604482015261636560f01b6064820152608490fd5b9150506020813d602011611e2e575b81611e1d602093836134b4565b81010312610e0c578190518a611832565b3d9150611e10565b60405162461bcd60e51b815260206004820152601860248201527f496e73756666696369656e7420617373657420746f6b656e00000000000000006044820152606490fd5b90506020813d602011611ea5575b81611e96602093836134b4565b81010312610e0c5751886117f6565b3d9150611e89565b823560ff81168103610e0c57815260209283019201611792565b34610e0c575f366003190112610e0c576003546040516001600160a01b039091168152602090f35b34610e0c575f366003190112610e0c576010546040516001600160a01b039091168152602090f35b34610e0c576060366003190112610e0c57611f30613415565b611f3861342b565b90611f41613457565b90611f4a6137bd565b600280546001600160a01b03199081166001600160a01b039384161790915560038054821693831693909317909255601080549092169216919091179055005b34610e0c576040366003190112610e0c57611fa361342b565b6004355f525f60205260405f209060018060a01b03165f52602052602060ff60405f2054166040519015158152f35b34610e0c57610100366003190112610e0c57611fec613415565b611ff461342b565b611ffc613457565b612004613441565b6084356001600160a01b03811690819003610e0c5761202161346d565b9260e4359460018060a01b038616809603610e0c575f80516020613bc2833981519152549660ff8860401c1615976001600160401b0381168015908161223c575b6001149081612232575b159081612229575b5061221a5767ffffffffffffffff1981166001175f80516020613bc283398151915255886121ee575b506120a6613ab5565b6120ae613ab5565b60ff195f80516020613ba283398151915254165f80516020613ba28339815191525560018060a01b03166001600160601b0360a01b600254161760025560018060a01b03166001600160601b0360a01b601054161760105560018060a01b03166001600160601b0360a01b60035416176003556001600160601b0360a01b600954161760095560018060a01b03166001600160601b0360a01b600554161760055560018060a01b03166001600160601b0360a01b600454161760045560c4356006556001805561217d33613844565b506001600160601b0360a01b600d541617600d5561219757005b68ff0000000000000000195f80516020613bc283398151915254165f80516020613bc2833981519152557fc7f505b2f371ae2175ee4913f4499e1f2633a7b5936321eed1cdaeb6115181d2602060405160018152a1005b68ffffffffffffffffff191668010000000000000001175f80516020613bc2833981519152558861209d565b63f92ee8a960e01b5f5260045ffd5b9050158a612074565b303b15915061206c565b8a9150612062565b34610e0c575f366003190112610e0c5761225c6137bd565b6122646139fb565b600160ff195f80516020613ba28339815191525416175f80516020613ba2833981519152557f62e78cea01bee320cd4e420270b5ea74000d11b0c9f74754ebdbfc544b05a2586020604051338152a1005b34610e0c576020366003190112610e0c576122ce613415565b6122d66137bd565b600d80546001600160a01b0319166001600160a01b0392909216919091179055005b34610e0c576020366003190112610e0c57600435600754811015610e0c5760075481101561235c5760075f527fa66cc928b5edb82af9bd49922954155ab7b0942694bea4ce44661d9a8736c68801546040516001600160a01b039091168152602090f35b634e487b7160e01b5f52603260045260245ffd5b34610e0c576080366003190112610e0c57600435602435604435612392613441565b9161239b6137bd565b6127108411158061255d575b80612551575b15612517576040519360208501526040840152606083015260018060a01b03166080820152608081526123e160a0826134b4565b80516001600160401b038111611617576123fc60155461354d565b601f81116124be575b50602091601f821160011461244357612433925f91836124385750508160011b915f199060031b1c19161790565b601555005b015190508380611957565b601f1982169260155f527f55f448fdea98c4d29eb340757ef0a66cd03dbb9538908a6a81d96026b71ec475915f5b8581106124a65750836001951061248e575b505050811b01601555005b01515f1960f88460031b161c19169055828080612483565b91926020600181928685015181550194019201612471565b60155f52612507907f55f448fdea98c4d29eb340757ef0a66cd03dbb9538908a6a81d96026b71ec475601f840160051c8101916020851061250d575b601f0160051c0190613613565b82612405565b90915081906124fa565b60405162461bcd60e51b8152602060048201526012602482015271496e76616c69642074617820706172616d7360701b6044820152606490fd5b506127108211156123ad565b506127108111156123a7565b34610e0c575f366003190112610e0c57602060ff5f80516020613ba283398151915254166040519015158152f35b34610e0c575f366003190112610e0c576004546040516001600160a01b039091168152602090f35b34610e0c575f366003190112610e0c576005546040516001600160a01b039091168152602090f35b34610e0c575f366003190112610e0c576125ff6137bd565b5f80516020613ba28339815191525460ff8116156126565760ff19165f80516020613ba2833981519152557f5db9ee0a495bf2e6ff9c91a7834c1ba4fdd244a5e8aa4e537bd38aeae4b073aa6020604051338152a1005b638dfc202b60e01b5f5260045ffd5b34610e0c576040366003190112610e0c5761267e61342b565b336001600160a01b0382160361269c5761269a9060043561397b565b005b63334bd91960e11b5f5260045ffd5b34610e0c575f366003190112610e0c576002546040516001600160a01b039091168152602090f35b34610e0c576040366003190112610e0c5761269a6004356126f261342b565b9061270b610343825f525f602052600160405f20015490565b6138f3565b34610e0c576020366003190112610e0c57600d5461273460ff8260a01c1615613663565b60ff60a01b1916600160a01b17600d556004355f908152600b60205260409020600581018054336001600160a01b039190911614801561284c575b612778906136a0565b600382019060ff825416600381101561169d5761279590156136db565b60078301544311156128075760049290920180545f909155815460ff1916600217909155600954915460405163a9059cbb60e01b60208201526001600160a01b03918216602482015260448101929092526127f89216611874826064810161080d565b600d805460ff60a01b19169055005b60405162461bcd60e51b815260206004820152601e60248201527f4170706c69636174696f6e206973206e6f74206d6174757265642079657400006044820152606490fd5b50335f9081527f20be27040b8e00df40bca0df34743417f3574a156386188f7d7f14369e5ee82b602052604090205460ff1661276f565b34610e0c5760e0366003190112610e0c5760043560c4356001600160a01b038116906044359060243590839003610e0c576128bc6137bd565b836128c78383613606565b11612a2c5760405193602085015260408401526060830152606435608083015260843560a083015260a43560c083015260e082015260e0815261290c610100826134b4565b80516001600160401b0381116116175761292760145461354d565b601f81116129de575b50602091601f82116001146129635761295e925f91836124385750508160011b915f199060031b1c19161790565b601455005b601f1982169260145f527fce6d7b5282bd9a3661ae061feed1dbda4e52ab073b1f9285be6e155d9c38d4ec915f5b8581106129c6575083600195106129ae575b505050811b01601455005b01515f1960f88460031b161c191690558280806129a3565b91926020600181928685015181550194019201612991565b60145f52612a26907fce6d7b5282bd9a3661ae061feed1dbda4e52ab073b1f9285be6e155d9c38d4ec601f840160051c8101916020851061250d57601f0160051c0190613613565b82612930565b60405162461bcd60e51b815260206004820152600e60248201526d496e76616c696420737570706c7960901b6044820152606490fd5b34610e0c576020366003190112610e0c57612a7b613415565b612a836137bd565b600980546001600160a01b0319166001600160a01b0392909216919091179055005b34610e0c576020366003190112610e0c576020612acf6004355f525f602052600160405f20015490565b604051908152f35b34610e0c576020366003190112610e0c575f610180604051612af881613498565b6060815260606020820152606060408201528260608201528260808201528260a0820152606060c08201528260e08201528261010082015282610120820152826101408201528261016082015201526004355f52600b60205260405f20604051612b6181613498565b604051612b7981612b728186613585565b03826134b4565b815260405191612b9783612b908160018501613585565b03846134b4565b6020820192835260405192612bba84612bb38160028601613585565b03856134b4565b6040830193845260ff600383015416916060840192600381101561169d57835260048101546080850190815260058201546001600160a01b031660a086019081526040516006840180548083525f9182526020808320849391840192905b81601f84011061316157549181811061314d575b818110613136575b81811061311f575b818110613108575b8181106130f2575b8181106130db575b8181106130c4575b8181106130ad575b818110613096575b81811061307f575b818110613068575b818110613051575b81811061303a575b818110613023575b81811061300c575b818110612ff5575b818110612fde575b818110612fc7575b818110612fb0575b818110612f99575b818110612f82575b818110612f6b575b818110612f54575b818110612f3d575b818110612f26575b818110612f0f575b818110612ef8575b818110612ee1575b818110612eca575b818110612eb3575b818110612e9c575b10612e8e575b5003612d2e90826134b4565b60c0870190815260078401549060e0880191825260088501549261010089019384526009860154946101208a01958652600a8701549a6101408b0197600160a01b600190038d1689526101608c019c60a01c63ffffffff168d52600b0154986101808c01998a526040519b60208d525160208d016101a090526101c08d01612db5916133f1565b90518c8203601f190160408e0152612dcd91906133f1565b90518b8203601f190160608d0152612de591906133f1565b9851600381101561169d5760808b01525160a08a0152516001600160a01b031660c089015251878703601f190160e08901528051808852602097880197909101905f5b818110612e755750509051610100880152505161012086015251610140850152516001600160a01b0316610160840152925163ffffffff1661018083015291516101a08201529081900390f35b825160ff16895260209889019890920191600101612e28565b60f81c81526020018a612d22565b92602060019160ff8560f01c168152019301612d1c565b92602060019160ff8560e81c168152019301612d14565b92602060019160ff8560e01c168152019301612d0c565b92602060019160ff8560d81c168152019301612d04565b92602060019160ff8560d01c168152019301612cfc565b92602060019160ff8560c81c168152019301612cf4565b92602060019160ff8560c01c168152019301612cec565b92602060019160ff8560b81c168152019301612ce4565b92602060019160ff8560b01c168152019301612cdc565b92602060019160ff8560a81c168152019301612cd4565b92602060019160ff8560a01c168152019301612ccc565b92602060019160ff8560981c168152019301612cc4565b92602060019160ff8560901c168152019301612cbc565b92602060019160ff8560881c168152019301612cb4565b92602060019160ff8560801c168152019301612cac565b92602060019160ff8560781c168152019301612ca4565b92602060019160ff8560701c168152019301612c9c565b92602060019160ff8560681c168152019301612c94565b92602060019160ff8560601c168152019301612c8c565b92602060019160ff8560581c168152019301612c84565b92602060019160ff8560501c168152019301612c7c565b92602060019160ff8560481c168152019301612c74565b92602060019160ff8560401c168152019301612c6c565b92602060019160ff8560381c168152019301612c64565b92602060019160ff8560301c168152019301612c5c565b92602060019160ff8560281c168152019301612c54565b92602060019160ff85831c168152019301612c4c565b92602060019160ff8560181c168152019301612c44565b92602060019160ff8560101c168152019301612c3c565b92602060019160ff8560081c168152019301612c34565b92602060019160ff85168152019301612c2c565b935090916001610400602092865460ff8116825260ff8160081c168583015260ff8160101c16604083015260ff8160181c16606083015260ff81861c16608083015260ff8160281c1660a083015260ff8160301c1660c083015260ff8160381c1660e083015260ff8160401c1661010083015260ff8160481c1661012083015260ff8160501c1661014083015260ff8160581c1661016083015260ff8160601c1661018083015260ff8160681c166101a083015260ff8160701c166101c083015260ff8160781c166101e083015260ff8160801c1661020083015260ff8160881c1661022083015260ff8160901c1661024083015260ff8160981c1661026083015260ff8160a01c1661028083015260ff8160a81c166102a083015260ff8160b01c166102c083015260ff8160b81c166102e083015260ff8160c01c1661030083015260ff8160c81c1661032083015260ff8160d01c1661034083015260ff8160d81c1661036083015260ff8160e01c1661038083015260ff8160e81c166103a083015260ff8160f01c166103c083015260f81c6103e0820152019401920190849392612c18565b34610e0c575f366003190112610e0c57600c546040516001600160a01b039091168152602090f35b34610e0c575f366003190112610e0c576009546040516001600160a01b039091168152602090f35b34610e0c575f366003190112610e0c576013546040516001600160a01b039091168152602090f35b34610e0c575f366003190112610e0c576020600a54604051908152f35b34610e0c576020366003190112610e0c576004359063ffffffff60e01b8216809203610e0c57602091637965db0b60e01b81149081156133e0575b5015158152f35b6301ffc9a760e01b149050836133d9565b805180835260209291819084018484015e5f828201840152601f01601f1916010190565b600435906001600160a01b0382168203610e0c57565b602435906001600160a01b0382168203610e0c57565b606435906001600160a01b0382168203610e0c57565b604435906001600160a01b0382168203610e0c57565b60a435906001600160a01b0382168203610e0c57565b805482101561235c575f5260205f2001905f90565b6101a081019081106001600160401b0382111761161757604052565b90601f801991011681019081106001600160401b0382111761161757604052565b6001600160401b03811161161757601f01601f191660200190565b81601f82011215610e0c57803590613507826134d5565b9261351560405194856134b4565b82845260208383010111610e0c57815f926020809301838601378301015290565b6001600160401b0381116116175760051b60200190565b90600182811c9216801561357b575b602083101461356757565b634e487b7160e01b5f52602260045260245ffd5b91607f169161355c565b5f92918154916135948361354d565b80835292600181169081156135e957506001146135b057505050565b5f9081526020812093945091925b8383106135cf575060209250010190565b6001816020929493945483858701015201910191906135be565b915050602093945060ff929192191683830152151560051b010190565b91908201809211611d5f57565b81811061361e575050565b5f8155600101613613565b9190601f811161363857505050565b613661925f5260205f20906020601f840160051c8301931061250d57601f0160051c0190613613565b565b1561366a57565b60405162461bcd60e51b815260206004820152600e60248201526d31b0b73737ba103932b2b73a32b960911b6044820152606490fd5b156136a757565b60405162461bcd60e51b815260206004820152600c60248201526b2737ba10383937b837b9b2b960a11b6044820152606490fd5b156136e257565b60405162461bcd60e51b815260206004820152601960248201527f4170706c69636174696f6e206973206e6f7420616374697665000000000000006044820152606490fd5b51906001600160a01b0382168203610e0c57565b90816020910312610e0c57518015158103610e0c5790565b5f92918154916137628361354d565b92600181169081156137aa575060011461377b57505050565b90919293505f5260205f205f905b8382106137965750500190565b600181602092548486015201910190613789565b60ff191683525050811515909102019150565b335f9081527fad3228b676f7d3cd4284a5443f17f1962b36e491b30a40b2405849e597ba5fb5602052604090205460ff16156137f557565b63e2517d3f60e01b5f52336004525f60245260445ffd5b5f8181526020818152604080832033845290915290205460ff161561382e5750565b63e2517d3f60e01b5f523360045260245260445ffd5b6001600160a01b0381165f9081527fad3228b676f7d3cd4284a5443f17f1962b36e491b30a40b2405849e597ba5fb5602052604090205460ff166138ee576001600160a01b03165f8181527fad3228b676f7d3cd4284a5443f17f1962b36e491b30a40b2405849e597ba5fb560205260408120805460ff191660011790553391907f2f8788117e7eff1d82e926ec794901d17c78024a50270940304540a733656f0d8180a4600190565b505f90565b5f818152602081815260408083206001600160a01b038616845290915290205460ff16613975575f818152602081815260408083206001600160a01b0395909516808452949091528120805460ff19166001179055339291907f2f8788117e7eff1d82e926ec794901d17c78024a50270940304540a733656f0d9080a4600190565b50505f90565b5f818152602081815260408083206001600160a01b038616845290915290205460ff1615613975575f818152602081815260408083206001600160a01b0395909516808452949091528120805460ff19169055339291907ff6391f5c32d9c69d2a47ea670b442974b53935d1edc7fd64eb21e047a839171b9080a4600190565b60ff5f80516020613ba28339815191525416613a1357565b63d93c066560e01b5f5260045ffd5b5f80613a6a9260018060a01b03169360208151910182865af13d15613aad573d90613a4c826134d5565b91613a5a60405193846134b4565b82523d5f602084013e5b83613b43565b8051908115159182613a92575b5050613a805750565b635274afe760e01b5f5260045260245ffd5b613aa5925060208091830101910161373b565b155f80613a77565b606090613a64565b60ff5f80516020613bc28339815191525460401c1615613ad157565b631afcd79f60e31b5f5260045ffd5b6e5af43d82803e903d91602b57fd5bf390763d602d80600a3d3981f3363d3d373d3d3d363d7300000062ffffff8260881c16175f5260781b17602052603760095ff0906001600160a01b03821615613b3457565b6330be1a3d60e21b5f5260045ffd5b90613b675750805115613b5857805190602001fd5b630a12f52160e11b5f5260045ffd5b81511580613b98575b613b78575090565b639996b31560e01b5f9081526001600160a01b0391909116600452602490fd5b50803b15613b7056fecd5ed15c6e187e77e9aee88184c21f4f2182ab5827cb3b7e07fbedcd63f03300f0c57e16840df040f15088dc2f81fe391c3923bec73e23a9662efc9c229c6a00a2646970667358221220e1c2cd5befe09a0aee0271530aa318341fee875d933a63d584167e55416e882964736f6c634300081a0033","linkReferences":{}},"methodIdentifiers":{"DEFAULT_ADMIN_ROLE()":"a217fddf","WITHDRAW_ROLE()":"e02023a1","allDAOs(uint256)":"b4136bd8","allTokens(uint256)":"634282af","allTradingTokens(uint256)":"e887b1cc","applicationThreshold()":"ddf44275","assetToken()":"1083f761","daoImplementation()":"9d699326","defaultDelegatee()":"0c4cb55c","executeApplication(uint256,bool)":"aa3d000a","getApplication(uint256)":"1f2f4bfd","getRoleAdmin(bytes32)":"248a9ca3","gov()":"12d43a51","grantRole(bytes32,address)":"2f2ff15d","hasRole(bytes32,address)":"91d14854","initialize(address,address,address,address,address,address,uint256,address)":"8e659c08","maturityDuration()":"063513b7","nft()":"47ccca02","pause()":"8456cb59","paused()":"5c975abb","proposeAgent(string,string,string,uint8[],bytes32,address,uint32,uint256)":"9e4ec30a","renounceRole(bytes32,address)":"36568abe","revokeRole(bytes32,address)":"d547741f","setApplicationThreshold(uint256)":"bd1cf258","setAssetToken(address)":"26bde5aa","setImplementations(address,address,address)":"9300d238","setMaturityDuration(uint256)":"d739ac29","setTokenAdmin(address)":"f7457594","setTokenSupplyParams(uint256,uint256,uint256,uint256,uint256,uint256,address)":"2a7d4a1f","setTokenTaxParams(uint256,uint256,uint256,address)":"5ca3cedf","setUniswapRouter(address)":"bea9849e","setVault(address)":"6817031b","supportsInterface(bytes4)":"01ffc9a7","tbaRegistry()":"468d198d","tokenImplementation()":"2f3a3d5d","totalAgents()":"c5053712","unpause()":"3f4ba83a","veTokenImplementation()":"9cbe0bac","withdraw(uint256)":"2e1a7d4d"},"id":92}