{"abi":[{"type":"constructor","inputs":[],"stateMutability":"nonpayable"},{"type":"fallback","stateMutability":"payable"},{"type":"receive","stateMutability":"payable"},{"type":"function","name":"admins","inputs":[{"name":"","type":"address","internalType":"address"}],"outputs":[{"name":"","type":"bool","internalType":"bool"}],"stateMutability":"view"},{"type":"function","name":"aggregate","inputs":[{"name":"calls","type":"tuple[]","internalType":"struct Multicall3.Call[]","components":[{"name":"target","type":"address","internalType":"address"},{"name":"callData","type":"bytes","internalType":"bytes"}]}],"outputs":[{"name":"blockNumber","type":"uint256","internalType":"uint256"},{"name":"returnData","type":"bytes[]","internalType":"bytes[]"}],"stateMutability":"payable"},{"type":"function","name":"aggregate3","inputs":[{"name":"calls","type":"tuple[]","internalType":"struct Multicall3.Call3[]","components":[{"name":"target","type":"address","internalType":"address"},{"name":"allowFailure","type":"bool","internalType":"bool"},{"name":"callData","type":"bytes","internalType":"bytes"}]}],"outputs":[{"name":"returnData","type":"tuple[]","internalType":"struct Multicall3.Result[]","components":[{"name":"success","type":"bool","internalType":"bool"},{"name":"returnData","type":"bytes","internalType":"bytes"}]}],"stateMutability":"payable"},{"type":"function","name":"aggregate3Value","inputs":[{"name":"calls","type":"tuple[]","internalType":"struct Multicall3.Call3Value[]","components":[{"name":"target","type":"address","internalType":"address"},{"name":"allowFailure","type":"bool","internalType":"bool"},{"name":"value","type":"uint256","internalType":"uint256"},{"name":"callData","type":"bytes","internalType":"bytes"}]}],"outputs":[{"name":"returnData","type":"tuple[]","internalType":"struct Multicall3.Result[]","components":[{"name":"success","type":"bool","internalType":"bool"},{"name":"returnData","type":"bytes","internalType":"bytes"}]}],"stateMutability":"payable"},{"type":"function","name":"approveToken","inputs":[{"name":"token","type":"address","internalType":"address"},{"name":"spender","type":"address","internalType":"address"},{"name":"amount","type":"uint256","internalType":"uint256"}],"outputs":[],"stateMutability":"nonpayable"},{"type":"function","name":"batchApproveTokens","inputs":[{"name":"tokens","type":"address[]","internalType":"address[]"},{"name":"spenders","type":"address[]","internalType":"address[]"},{"name":"amounts","type":"uint256[]","internalType":"uint256[]"}],"outputs":[],"stateMutability":"nonpayable"},{"type":"function","name":"batchTransferTokens","inputs":[{"name":"tokens","type":"address[]","internalType":"address[]"},{"name":"recipients","type":"address[]","internalType":"address[]"},{"name":"amounts","type":"uint256[]","internalType":"uint256[]"}],"outputs":[],"stateMutability":"nonpayable"},{"type":"function","name":"batchWithdrawERC20Tokens","inputs":[{"name":"tokens","type":"address[]","internalType":"address[]"},{"name":"recipients","type":"address[]","internalType":"address[]"},{"name":"amounts","type":"uint256[]","internalType":"uint256[]"}],"outputs":[],"stateMutability":"nonpayable"},{"type":"function","name":"blockAndAggregate","inputs":[{"name":"calls","type":"tuple[]","internalType":"struct Multicall3.Call[]","components":[{"name":"target","type":"address","internalType":"address"},{"name":"callData","type":"bytes","internalType":"bytes"}]}],"outputs":[{"name":"blockNumber","type":"uint256","internalType":"uint256"},{"name":"blockHash","type":"bytes32","internalType":"bytes32"},{"name":"returnData","type":"tuple[]","internalType":"struct Multicall3.Result[]","components":[{"name":"success","type":"bool","internalType":"bool"},{"name":"returnData","type":"bytes","internalType":"bytes"}]}],"stateMutability":"payable"},{"type":"function","name":"getBasefee","inputs":[],"outputs":[{"name":"basefee","type":"uint256","internalType":"uint256"}],"stateMutability":"view"},{"type":"function","name":"getBlockHash","inputs":[{"name":"blockNumber","type":"uint256","internalType":"uint256"}],"outputs":[{"name":"blockHash","type":"bytes32","internalType":"bytes32"}],"stateMutability":"view"},{"type":"function","name":"getBlockNumber","inputs":[],"outputs":[{"name":"blockNumber","type":"uint256","internalType":"uint256"}],"stateMutability":"view"},{"type":"function","name":"getChainId","inputs":[],"outputs":[{"name":"chainid","type":"uint256","internalType":"uint256"}],"stateMutability":"view"},{"type":"function","name":"getCurrentBlockCoinbase","inputs":[],"outputs":[{"name":"coinbase","type":"address","internalType":"address"}],"stateMutability":"view"},{"type":"function","name":"getCurrentBlockGasLimit","inputs":[],"outputs":[{"name":"gaslimit","type":"uint256","internalType":"uint256"}],"stateMutability":"view"},{"type":"function","name":"getCurrentBlockTimestamp","inputs":[],"outputs":[{"name":"timestamp","type":"uint256","internalType":"uint256"}],"stateMutability":"view"},{"type":"function","name":"getEthBalance","inputs":[{"name":"addr","type":"address","internalType":"address"}],"outputs":[{"name":"balance","type":"uint256","internalType":"uint256"}],"stateMutability":"view"},{"type":"function","name":"getLastBlockHash","inputs":[],"outputs":[{"name":"blockHash","type":"bytes32","internalType":"bytes32"}],"stateMutability":"view"},{"type":"function","name":"getTokenBalance","inputs":[{"name":"token","type":"address","internalType":"address"}],"outputs":[{"name":"","type":"uint256","internalType":"uint256"}],"stateMutability":"view"},{"type":"function","name":"grantAdmin","inputs":[{"name":"admin","type":"address","internalType":"address"}],"outputs":[],"stateMutability":"nonpayable"},{"type":"function","name":"isAdmin","inputs":[{"name":"account","type":"address","internalType":"address"}],"outputs":[{"name":"","type":"bool","internalType":"bool"}],"stateMutability":"view"},{"type":"function","name":"owner","inputs":[],"outputs":[{"name":"","type":"address","internalType":"address"}],"stateMutability":"view"},{"type":"function","name":"revokeAdmin","inputs":[{"name":"admin","type":"address","internalType":"address"}],"outputs":[],"stateMutability":"nonpayable"},{"type":"function","name":"transferOwnership","inputs":[{"name":"newOwner","type":"address","internalType":"address"}],"outputs":[],"stateMutability":"nonpayable"},{"type":"function","name":"transferToken","inputs":[{"name":"token","type":"address","internalType":"address"},{"name":"to","type":"address","internalType":"address"},{"name":"amount","type":"uint256","internalType":"uint256"}],"outputs":[],"stateMutability":"nonpayable"},{"type":"function","name":"tryAggregate","inputs":[{"name":"requireSuccess","type":"bool","internalType":"bool"},{"name":"calls","type":"tuple[]","internalType":"struct Multicall3.Call[]","components":[{"name":"target","type":"address","internalType":"address"},{"name":"callData","type":"bytes","internalType":"bytes"}]}],"outputs":[{"name":"returnData","type":"tuple[]","internalType":"struct Multicall3.Result[]","components":[{"name":"success","type":"bool","internalType":"bool"},{"name":"returnData","type":"bytes","internalType":"bytes"}]}],"stateMutability":"payable"},{"type":"function","name":"tryBlockAndAggregate","inputs":[{"name":"requireSuccess","type":"bool","internalType":"bool"},{"name":"calls","type":"tuple[]","internalType":"struct Multicall3.Call[]","components":[{"name":"target","type":"address","internalType":"address"},{"name":"callData","type":"bytes","internalType":"bytes"}]}],"outputs":[{"name":"blockNumber","type":"uint256","internalType":"uint256"},{"name":"blockHash","type":"bytes32","internalType":"bytes32"},{"name":"returnData","type":"tuple[]","internalType":"struct Multicall3.Result[]","components":[{"name":"success","type":"bool","internalType":"bool"},{"name":"returnData","type":"bytes","internalType":"bytes"}]}],"stateMutability":"payable"},{"type":"function","name":"withdrawERC20Token","inputs":[{"name":"token","type":"address","internalType":"address"},{"name":"to","type":"address","internalType":"address"},{"name":"amount","type":"uint256","internalType":"uint256"}],"outputs":[],"stateMutability":"nonpayable"},{"type":"function","name":"withdrawETH","inputs":[{"name":"to","type":"address","internalType":"address payable"},{"name":"amount","type":"uint256","internalType":"uint256"}],"outputs":[],"stateMutability":"nonpayable"},{"type":"event","name":"AdminGranted","inputs":[{"name":"admin","type":"address","indexed":true,"internalType":"address"}],"anonymous":false},{"type":"event","name":"AdminRevoked","inputs":[{"name":"admin","type":"address","indexed":true,"internalType":"address"}],"anonymous":false},{"type":"event","name":"OwnershipTransferred","inputs":[{"name":"previousOwner","type":"address","indexed":true,"internalType":"address"},{"name":"newOwner","type":"address","indexed":true,"internalType":"address"}],"anonymous":false},{"type":"event","name":"TokenApproved","inputs":[{"name":"token","type":"address","indexed":true,"internalType":"address"},{"name":"spender","type":"address","indexed":true,"internalType":"address"},{"name":"amount","type":"uint256","indexed":false,"internalType":"uint256"}],"anonymous":false},{"type":"event","name":"TokenTransferred","inputs":[{"name":"token","type":"address","indexed":true,"internalType":"address"},{"name":"to","type":"address","indexed":true,"internalType":"address"},{"name":"amount","type":"uint256","indexed":false,"internalType":"uint256"}],"anonymous":false},{"type":"error","name":"AddressEmptyCode","inputs":[{"name":"target","type":"address","internalType":"address"}]},{"type":"error","name":"AddressInsufficientBalance","inputs":[{"name":"account","type":"address","internalType":"address"}]},{"type":"error","name":"FailedInnerCall","inputs":[]},{"type":"error","name":"SafeERC20FailedOperation","inputs":[{"name":"token","type":"address","internalType":"address"}]}],"bytecode":{"object":"0x60808060405234604d575f80546001600160a01b031916339081178255907f8be0079c531659141344cd1fd0a4f28419497f9722a3daafe3b4186f6b6457e08180a3611cbd90816100528239f35b5f80fdfe60806040526004361015610018575b361561001657005b005b5f3560e01c80630f28c97d146101e257806314e83c78146101dd578063174dea71146101d857806324d7806c146101ab578063252dba42146101d357806327e86d6e146101ce5780632d345670146101c95780633408e470146101c457806335bb3e16146101bf578063399542e9146101ba5780633aecd0e3146101b55780633e64a696146101b0578063429b62e5146101ab57806342cbb15c146101a65780634782f779146101a15780634d2301cc1461019c57806357d1b31b146101975780636e21c90a1461019257806382ad56cb1461018d57806386d516e8146101885780638da5cb5b14610183578063a8b0574e1461017e578063bce38bd714610179578063c3077fa914610174578063d139f7d21461016f578063da3e33971461016a578063ee82ac5e14610165578063f2fde38b146101605763f5537ede0361000e57611354565b611268565b611249565b6111af565b611020565b610f94565b610f6b565b610f51565b610f2a565b610f10565b610e6a565b610d67565b610ca2565b610c4e565b610ba0565b610b86565b610635565b610b6c565b610ae7565b610a6d565b6108f3565b6108d9565b6107f0565b6107d2565b6106db565b610505565b6102a6565b346101fc575f3660031901126101fc576020604051428152f35b5f80fd5b9181601f840112156101fc5782359167ffffffffffffffff83116101fc576020808501948460051b0101116101fc57565b60606003198201126101fc5760043567ffffffffffffffff81116101fc578161025c91600401610200565b9290929160243567ffffffffffffffff81116101fc578161027f91600401610200565b929092916044359067ffffffffffffffff82116101fc576102a291600401610200565b9091565b346101fc576102b436610231565b60018060a097949395971b035f54163314801561041f575b6102d5906113c5565b81851480610416575b6102e790611426565b5f5b8581106102f257005b6102fd818786611491565b359061030882610624565b61031381858a611491565b3561031d81610624565b610328828589611491565b359261033e60018060a01b035f541633146116da565b6001600160a01b0316610352811515611852565b6001600160a01b038216916103688315156117a8565b6103738515156118ac565b6040516370a0823160e01b815230600482015290602082602481865afa958615610411576103ca816103da936103c48260019b5f80516020611c68833981519152985f916103e3575b50101561190d565b86611a51565b6040519081529081906020820190565b0390a3016102e9565b610404915060203d811161040a575b6103fc81836114c4565b81019061178e565b5f6103bc565b503d6103f2565b61179d565b508181146102de565b50335f9081526001602052604090205460ff166102cc565b60206003198201126101fc576004359067ffffffffffffffff82116101fc576102a291600401610200565b805180835260209291819084018484015e5f828201840152601f01601f1916010190565b9080602083519182815201916020808360051b8301019401925f915b8383106104b157505050505090565b90919293946020806104e2600193601f198682030187526040838b5180511515845201519181858201520190610462565b970193019301919392906104a2565b906020610502928181520190610486565b90565b61050e36610437565b5f546001600160a01b03163314801561060c575b61052b906113c5565b5f9061053681611503565b925f5b82811061055f5761055b8561054f863414611626565b604051918291826104f1565b0390f35b6105698186611571565b516020610577838686611585565b916105c45f806040860135809a019961058f876114a6565b9061059d60608901896115a7565b91906105ae604051809481936115da565b03925af16105ba6115e7565b8385015215158252565b5191013517156105d657600101610539565b62461bcd60e51b5f526020600452601760245276135d5b1d1a58d85b1b0cce8818d85b1b0819985a5b1959604a1b60445260645ffd5b50335f9081526001602052604090205460ff16610522565b6001600160a01b038116036101fc57565b346101fc5760203660031901126101fc5760043561065281610624565b60018060a01b03165f526001602052602060ff60405f2054166040519015158152f35b90604082019082526040602083015282518091526060820191602060608360051b8301019401925f915b8383106106ae57505050505090565b90919293946020806106cc600193605f198682030187528951610462565b9701930193019193929061069f565b6106e436610437565b9060018060a01b035f5416331480156107ba575b610701906113c5565b61070a826114eb565b9161071860405193846114c4565b808352601f19610727826114eb565b015f5b8181106107a95750505f5b81811061074b576040518061055b864383610675565b806107a35f8061075e6001958789611672565b8161077661076b836114a6565b9260208101906115a7565b9190610787604051809481936115da565b03925af16107936115e7565b61079d8489611571565b52611694565b01610735565b80606060208093880101520161072a565b50335f9081526001602052604090205460ff166106f8565b346101fc575f3660031901126101fc5760206040515f194301408152f35b346101fc5760203660031901126101fc5760043561080d81610624565b61082160018060a01b035f541633146116da565b6001600160a01b0381165f8181526001602052604090205490919060ff1615610888576001600160a01b03165f908152600160205260409020805460ff191690557f631ff1c4e1a02c54b480a34b810e03bcee61fe38efcb243930a7f820914923e25f80a2005b60405162461bcd60e51b815260206004820152602360248201527f4d756c746963616c6c333a2061646472657373206973206e6f7420616e20616460448201526236b4b760e91b6064820152608490fd5b346101fc575f3660031901126101fc576020604051468152f35b346101fc5760203660031901126101fc5760043561091081610624565b61092460018060a01b035f541633146116da565b6001600160a01b0381169081156109bb576109888161096f61096a61096661095f6109959660018060a01b03165f52600160205260405f2090565b5460ff1690565b1590565b611732565b6001600160a01b03165f90815260016020526040902090565b805460ff19166001179055565b7f1c4e23de8d72c94b22992bd4d7b6786b215ba876af214ff63e6a0ca38fc97af45f80a2005b60405162461bcd60e51b815260206004820152602560248201527f4d756c746963616c6c333a2061646d696e20697320746865207a65726f206164604482015264647265737360d81b6064820152608490fd5b801515036101fc57565b9060406003198301126101fc57600435610a3181610a0e565b916024359067ffffffffffffffff82116101fc576102a291600401610200565b6105029392606092825260208201528160408201520190610486565b610a7636610a18565b5f546001600160a01b031633148015610acf575b610a93906113c5565b5f19430191438311610abb57610aaa92409361198a565b9061055b6040519283924384610a51565b634e487b7160e01b5f52601160045260245ffd5b50335f9081526001602052604090205460ff16610a8a565b346101fc5760203660031901126101fc5760246020600435610b0881610624565b6040516370a0823160e01b815230600482015292839182906001600160a01b03165afa80156104115761055b915f91610b4d575b506040519081529081906020820190565b610b66915060203d60201161040a576103fc81836114c4565b5f610b3c565b346101fc575f3660031901126101fc576020604051488152f35b346101fc575f3660031901126101fc576020604051438152f35b346101fc5760403660031901126101fc57600435610bbd81610624565b60243590610bd560018060a01b035f541633146116da565b6001600160a01b031690610bea8215156117a8565b804710610c0a575f80808093610016955af1610c046115e7565b50611806565b606460405162461bcd60e51b815260206004820152602060248201527f4d756c746963616c6c333a20696e73756666696369656e742062616c616e63656044820152fd5b346101fc5760203660031901126101fc576020600435610c6d81610624565b31604051908152f35b60609060031901126101fc57600435610c8e81610624565b90602435610c9b81610624565b9060443590565b346101fc57610cb036610c76565b9091610cc660018060a01b035f541633146116da565b6001600160a01b031690610cdb821515611852565b6001600160a01b03831692610cf18415156117a8565b610cfc8215156118ac565b6040516370a0823160e01b815230600482015291602083602481875afa80156104115781610d49936103c4826103ca945f80516020611c68833981519152985f91610d4e5750101561190d565b0390a3005b610404915060203d60201161040a576103fc81836114c4565b346101fc57610d7536610231565b909291949360018060a01b035f541633148015610e52575b610d96906113c5565b85811480610e49575b610da890611426565b5f5b818110610db357005b80610dc16001928489611491565b35610dcb81610624565b610dd6828a88611491565b3590610de182610624565b5f80516020611c688339815191526020610dfc85898c611491565b3592610e11878060a01b035f541633146116da565b868060a01b031692610e24841515611852565b610e3c81888060a01b038716966103c48815156117a8565b604051908152a301610daa565b50858214610d9f565b50335f9081526001602052604090205460ff16610d8d565b610e7336610437565b9060018060a01b035f541633148015610ef8575b610e90906113c5565b610e9982611503565b905f5b838110610eb1576040518061055b85826104f1565b610ebb8184611571565b516020610ec9838786611968565b91610ee65f80610ed8866114a6565b8161059d60408901896115a7565b5191013517156105d657600101610e9c565b50335f9081526001602052604090205460ff16610e87565b346101fc575f3660031901126101fc576020604051458152f35b346101fc575f3660031901126101fc575f546040516001600160a01b039091168152602090f35b346101fc575f3660031901126101fc576020604051418152f35b61055b610f80610f7a36610a18565b9161198a565b604051918291602083526020830190610486565b610f9d36610437565b5f546001600160a01b031633148015611008575b610fba906113c5565b5f546001600160a01b031633148015610ff0575b610fd7906113c5565b5f19430190438211610abb57610aaa914092600161198a565b50335f9081526001602052604090205460ff16610fce565b50335f9081526001602052604090205460ff16610fb1565b346101fc5761102e36610231565b5f54919592916001600160a01b031633148015611197575b61104f906113c5565b8185148061118e575b61106190611426565b5f5b85811061106c57005b611077818786611491565b359061108282610624565b61108d818588611491565b359161109883610624565b6110a382858b611491565b359060018060a01b035f541633148015611176575b6110c1906113c5565b6001600160a01b03166110d5811515611852565b6001600160a01b03841691821561112157611118816103ca7fc532e6b60637d86dd3fe55f7548ed169de9c79cfdef610593bea3569f079bc659360019886611a94565b0390a301611063565b60405162461bcd60e51b815260206004820152602760248201527f4d756c746963616c6c333a207370656e64657220697320746865207a65726f206044820152666164647265737360c81b6064820152608490fd5b50335f9081526001602052604090205460ff166110b8565b50818114611058565b50335f9081526001602052604090205460ff16611046565b346101fc576111bd36610c76565b909160018060a01b035f541633148015611231575b6111db906113c5565b6001600160a01b0316906111f0821515611852565b6001600160a01b03831692831561112157816103ca7fc532e6b60637d86dd3fe55f7548ed169de9c79cfdef610593bea3569f079bc6593610d499386611a94565b50335f9081526001602052604090205460ff166111d2565b346101fc5760203660031901126101fc57602060043560405190408152f35b346101fc5760203660031901126101fc5760043561128581610624565b5f549061129c336001600160a01b038416146116da565b6001600160a01b03811680156112fd57610016926001600160a01b03167f8be0079c531659141344cd1fd0a4f28419497f9722a3daafe3b4186f6b6457e05f80a360018060a01b03166bffffffffffffffffffffffff60a01b5f5416175f55565b60405162461bcd60e51b815260206004820152602960248201527f4d756c746963616c6c333a206e6577206f776e657220697320746865207a65726044820152686f206164647265737360b81b6064820152608490fd5b346101fc5760205f80516020611c6883398151915261137236610c76565b929161138b60018060a09794971b035f541633146116da565b6001600160a01b0316926113a0841515611852565b6001600160a01b038516946113bc9082906103c48815156117a8565b604051908152a3005b156113cc57565b60405162461bcd60e51b815260206004820152602c60248201527f4d756c746963616c6c333a2063616c6c6572206973206e6f7420746865206f7760448201526b3732b91037b91030b236b4b760a11b6064820152608490fd5b1561142d57565b60405162461bcd60e51b815260206004820152602260248201527f4d756c746963616c6c333a20617272617973206c656e677468206d69736d61746044820152610c6d60f31b6064820152608490fd5b634e487b7160e01b5f52603260045260245ffd5b91908110156114a15760051b0190565b61147d565b3561050281610624565b634e487b7160e01b5f52604160045260245ffd5b90601f8019910116810190811067ffffffffffffffff8211176114e657604052565b6114b0565b67ffffffffffffffff81116114e65760051b60200190565b9061150d826114eb565b61151a60405191826114c4565b828152809261152b601f19916114eb565b015f5b81811061153a57505050565b60405190604082019180831067ffffffffffffffff8411176114e6576020926040525f81526060838201528282860101520161152e565b80518210156114a15760209160051b010190565b91908110156114a15760051b81013590607e19813603018212156101fc570190565b903590601e19813603018212156101fc570180359067ffffffffffffffff82116101fc576020019181360383136101fc57565b908092918237015f815290565b3d15611621573d9067ffffffffffffffff82116114e65760405191611616601f8201601f1916602001846114c4565b82523d5f602084013e565b606090565b1561162d57565b60405162461bcd60e51b815260206004820152601a60248201527f4d756c746963616c6c333a2076616c7565206d69736d617463680000000000006044820152606490fd5b91908110156114a15760051b81013590603e19813603018212156101fc570190565b1561169b57565b60405162461bcd60e51b8152602060048201526017602482015276135d5b1d1a58d85b1b0cce8818d85b1b0819985a5b1959604a1b6044820152606490fd5b156116e157565b60405162461bcd60e51b815260206004820152602360248201527f4d756c746963616c6c333a2063616c6c6572206973206e6f7420746865206f776044820152623732b960e91b6064820152608490fd5b1561173957565b60405162461bcd60e51b815260206004820152602760248201527f4d756c746963616c6c333a206164647265737320697320616c72656164792061604482015266371030b236b4b760c91b6064820152608490fd5b908160209103126101fc575190565b6040513d5f823e3d90fd5b156117af57565b60405162461bcd60e51b815260206004820152602960248201527f4d756c746963616c6c333a20726563697069656e7420697320746865207a65726044820152686f206164647265737360b81b6064820152608490fd5b1561180d57565b60405162461bcd60e51b815260206004820152601f60248201527f4d756c746963616c6c333a20455448207472616e73666572206661696c6564006044820152606490fd5b1561185957565b60405162461bcd60e51b815260206004820152602560248201527f4d756c746963616c6c333a20746f6b656e20697320746865207a65726f206164604482015264647265737360d81b6064820152608490fd5b156118b357565b60405162461bcd60e51b815260206004820152602c60248201527f4d756c746963616c6c333a20616d6f756e74206d75737420626520677265617460448201526b6572207468616e207a65726f60a01b6064820152608490fd5b1561191457565b60405162461bcd60e51b815260206004820152602660248201527f4d756c746963616c6c333a20696e73756666696369656e7420746f6b656e2062604482015265616c616e636560d01b6064820152608490fd5b91908110156114a15760051b81013590605e19813603018212156101fc570190565b919060018060a01b035f541633148015611a39575b6119a8906113c5565b6119b182611503565b925f5b8381106119c2575050505090565b806119cf60019287611571565b51835f806119de858a8a611672565b816119f88235926119ee84610624565b60208101906115a7565b9190826040519384928337810182815203925af1611a146115e7565b60208401521515809252611a2a575b50016119b4565b611a3390611694565b5f611a23565b50335f9081526001602052604090205460ff1661199f565b60405163a9059cbb60e01b60208201526001600160a01b03929092166024830152604480830193909352918152611a9291611a8d6064836114c4565b611b9e565b565b60405163095ea7b360e01b602082019081526001600160a01b03841660248301526044808301959095529381529192611b0190611ad26064856114c4565b83516001600160a01b038416915f91829182855af190611af06115e7565b82611b57575b5081611b5057501590565b611b0a57505050565b60405163095ea7b360e01b60208201526001600160a01b039390931660248401525f6044808501919091528352611a9292611a8d90611b4a6064826114c4565b82611b9e565b3b15919050565b80519192508115918215611b6f575b5050905f611af6565b611b829250602080918301019101611b89565b5f80611b66565b908160209103126101fc575161050281610a0e565b5f80611bc69260018060a01b03169360208151910182865af1611bbf6115e7565b9083611c09565b8051908115159182611bee575b5050611bdc5750565b635274afe760e01b5f5260045260245ffd5b611c019250602080918301019101611b89565b155f80611bd3565b90611c2d5750805115611c1e57805190602001fd5b630a12f52160e11b5f5260045ffd5b81511580611c5e575b611c3e575090565b639996b31560e01b5f9081526001600160a01b0391909116600452602490fd5b50803b15611c3656fe9c8515990fd8c61431c4ac8db9b81475f90c292a1dda77731e56c22e64fc7643a26469706673582212201eb7118e89e02328ad83893db8ae787a76e4284a49586bf9833d8d6cf319ba0464736f6c634300081a0033","linkReferences":{}},"methodIdentifiers":{"admins(address)":"429b62e5","aggregate((address,bytes)[])":"252dba42","aggregate3((address,bool,bytes)[])":"82ad56cb","aggregate3Value((address,bool,uint256,bytes)[])":"174dea71","approveToken(address,address,uint256)":"da3e3397","batchApproveTokens(address[],address[],uint256[])":"d139f7d2","batchTransferTokens(address[],address[],uint256[])":"6e21c90a","batchWithdrawERC20Tokens(address[],address[],uint256[])":"14e83c78","blockAndAggregate((address,bytes)[])":"c3077fa9","getBasefee()":"3e64a696","getBlockHash(uint256)":"ee82ac5e","getBlockNumber()":"42cbb15c","getChainId()":"3408e470","getCurrentBlockCoinbase()":"a8b0574e","getCurrentBlockGasLimit()":"86d516e8","getCurrentBlockTimestamp()":"0f28c97d","getEthBalance(address)":"4d2301cc","getLastBlockHash()":"27e86d6e","getTokenBalance(address)":"3aecd0e3","grantAdmin(address)":"35bb3e16","isAdmin(address)":"24d7806c","owner()":"8da5cb5b","revokeAdmin(address)":"2d345670","transferOwnership(address)":"f2fde38b","transferToken(address,address,uint256)":"f5537ede","tryAggregate(bool,(address,bytes)[])":"bce38bd7","tryBlockAndAggregate(bool,(address,bytes)[])":"399542e9","withdrawERC20Token(address,address,uint256)":"57d1b31b","withdrawETH(address,uint256)":"4782f779"},"id":58}