{"abi":[{"type":"constructor","inputs":[],"stateMutability":"nonpayable"},{"type":"function","name":"account","inputs":[{"name":"implementation","type":"address","internalType":"address"},{"name":"chainId","type":"uint256","internalType":"uint256"},{"name":"tokenContract","type":"address","internalType":"address"},{"name":"tokenId","type":"uint256","internalType":"uint256"},{"name":"salt","type":"uint256","internalType":"uint256"}],"outputs":[{"name":"","type":"address","internalType":"address"}],"stateMutability":"view"},{"type":"function","name":"accountExists","inputs":[{"name":"implementation","type":"address","internalType":"address"},{"name":"chainId","type":"uint256","internalType":"uint256"},{"name":"tokenContract","type":"address","internalType":"address"},{"name":"tokenId","type":"uint256","internalType":"uint256"},{"name":"salt","type":"uint256","internalType":"uint256"}],"outputs":[{"name":"","type":"bool","internalType":"bool"}],"stateMutability":"view"},{"type":"function","name":"createAccount","inputs":[{"name":"implementation","type":"address","internalType":"address"},{"name":"salt","type":"bytes32","internalType":"bytes32"},{"name":"chainId","type":"uint256","internalType":"uint256"},{"name":"tokenContract","type":"address","internalType":"address"},{"name":"tokenId","type":"uint256","internalType":"uint256"}],"outputs":[{"name":"","type":"address","internalType":"address"}],"stateMutability":"nonpayable"},{"type":"function","name":"getAccountCounter","inputs":[],"outputs":[{"name":"","type":"uint256","internalType":"uint256"}],"stateMutability":"view"},{"type":"event","name":"AccountCreated","inputs":[{"name":"account","type":"address","indexed":false,"internalType":"address"},{"name":"implementation","type":"address","indexed":true,"internalType":"address"},{"name":"chainId","type":"uint256","indexed":false,"internalType":"uint256"},{"name":"tokenContract","type":"address","indexed":true,"internalType":"address"},{"name":"tokenId","type":"uint256","indexed":true,"internalType":"uint256"},{"name":"salt","type":"uint256","indexed":false,"internalType":"uint256"}],"anonymous":false}],"bytecode":{"object":"0x6080806040523460155761037d908161001a8239f35b5f80fdfe60806040526004361015610011575f80fd5b5f3560e01c80634762f25d1461011e5780635e9bc536146100c757806369dd75cf146100aa57638a54c52f14610045575f80fd5b346100a65760a03660031901126100a6576004356001600160a01b03811681036100a6576064356001600160a01b03811681036100a657602091610094916084359160443590602435906101b9565b6040516001600160a01b039091168152f35b5f80fd5b346100a6575f3660031901126100a6576020600154604051908152f35b346100a6576100d536610177565b6001600160a01b039485165f9081526020818152604080832096835295815285822094871682529384528481209281529183528382209082528252829020549151919092168152f35b346100a65761012c36610177565b6001600160a01b039485165f90815260208181526040808320968352958152858220948716825293845284812092815291835283822090825282528290205491519190921615158152f35b60a09060031901126100a6576004356001600160a01b03811681036100a65790602435906044356001600160a01b03811681036100a657906064359060843590565b6001600160a01b038082165f818152602081815260408083208884528252808320858a16845282528083208a8452825280832087845290915290205493969590939091168061033d5750600154905f19821461032957600182016001556040519160208301936001600160601b03199060601b1684528560348401526001600160601b03198260601b16605484015286606884015287608884015260a883015260a8825260e082019180831067ffffffffffffffff841117610315577f07fba7bba1191da7ee1155dcfa0030701c9c9a9cc34a93b991fc6fd0c9268d8f9360609360405260018060a01b03915190201696845f525f60205260405f20865f5260205260405f2060018060a01b0383165f5260205260405f20875f5260205260405f20815f5260205260405f20886001600160601b0360a01b825416179055604051958887526020870152604086015260018060a01b031693a490565b634e487b7160e01b5f52604160045260245ffd5b634e487b7160e01b5f52601160045260245ffd5b955050505050509056fea26469706673582212201a49f4e4751c691e4c9572efc2d9e084ff8629eae6b862a51468ac48c323efa664736f6c634300081a0033","linkReferences":{}},"methodIdentifiers":{"account(address,uint256,address,uint256,uint256)":"5e9bc536","accountExists(address,uint256,address,uint256,uint256)":"4762f25d","createAccount(address,bytes32,uint256,address,uint256)":"8a54c52f","getAccountCounter()":"69dd75cf"},"id":54}