{"abi":[{"type":"constructor","inputs":[],"stateMutability":"nonpayable"},{"type":"receive","stateMutability":"payable"},{"type":"function","name":"BALLOT_TYPEHASH","inputs":[],"outputs":[{"name":"","type":"bytes32","internalType":"bytes32"}],"stateMutability":"view"},{"type":"function","name":"CLOCK_MODE","inputs":[],"outputs":[{"name":"","type":"string","internalType":"string"}],"stateMutability":"view"},{"type":"function","name":"COUNTING_MODE","inputs":[],"outputs":[{"name":"","type":"string","internalType":"string"}],"stateMutability":"pure"},{"type":"function","name":"EXTENDED_BALLOT_TYPEHASH","inputs":[],"outputs":[{"name":"","type":"bytes32","internalType":"bytes32"}],"stateMutability":"view"},{"type":"function","name":"cancel","inputs":[{"name":"proposalId","type":"uint256","internalType":"uint256"}],"outputs":[],"stateMutability":"nonpayable"},{"type":"function","name":"cancel","inputs":[{"name":"targets","type":"address[]","internalType":"address[]"},{"name":"values","type":"uint256[]","internalType":"uint256[]"},{"name":"calldatas","type":"bytes[]","internalType":"bytes[]"},{"name":"descriptionHash","type":"bytes32","internalType":"bytes32"}],"outputs":[{"name":"","type":"uint256","internalType":"uint256"}],"stateMutability":"nonpayable"},{"type":"function","name":"castVote","inputs":[{"name":"proposalId","type":"uint256","internalType":"uint256"},{"name":"support","type":"uint8","internalType":"uint8"}],"outputs":[{"name":"","type":"uint256","internalType":"uint256"}],"stateMutability":"nonpayable"},{"type":"function","name":"castVoteBySig","inputs":[{"name":"proposalId","type":"uint256","internalType":"uint256"},{"name":"support","type":"uint8","internalType":"uint8"},{"name":"voter","type":"address","internalType":"address"},{"name":"signature","type":"bytes","internalType":"bytes"}],"outputs":[{"name":"","type":"uint256","internalType":"uint256"}],"stateMutability":"nonpayable"},{"type":"function","name":"castVoteWithReason","inputs":[{"name":"proposalId","type":"uint256","internalType":"uint256"},{"name":"support","type":"uint8","internalType":"uint8"},{"name":"reason","type":"string","internalType":"string"}],"outputs":[{"name":"","type":"uint256","internalType":"uint256"}],"stateMutability":"nonpayable"},{"type":"function","name":"castVoteWithReasonAndParams","inputs":[{"name":"proposalId","type":"uint256","internalType":"uint256"},{"name":"support","type":"uint8","internalType":"uint8"},{"name":"reason","type":"string","internalType":"string"},{"name":"params","type":"bytes","internalType":"bytes"}],"outputs":[{"name":"","type":"uint256","internalType":"uint256"}],"stateMutability":"nonpayable"},{"type":"function","name":"castVoteWithReasonAndParamsBySig","inputs":[{"name":"proposalId","type":"uint256","internalType":"uint256"},{"name":"support","type":"uint8","internalType":"uint8"},{"name":"voter","type":"address","internalType":"address"},{"name":"reason","type":"string","internalType":"string"},{"name":"params","type":"bytes","internalType":"bytes"},{"name":"signature","type":"bytes","internalType":"bytes"}],"outputs":[{"name":"","type":"uint256","internalType":"uint256"}],"stateMutability":"nonpayable"},{"type":"function","name":"clock","inputs":[],"outputs":[{"name":"","type":"uint48","internalType":"uint48"}],"stateMutability":"view"},{"type":"function","name":"eip712Domain","inputs":[],"outputs":[{"name":"fields","type":"bytes1","internalType":"bytes1"},{"name":"name","type":"string","internalType":"string"},{"name":"version","type":"string","internalType":"string"},{"name":"chainId","type":"uint256","internalType":"uint256"},{"name":"verifyingContract","type":"address","internalType":"address"},{"name":"salt","type":"bytes32","internalType":"bytes32"},{"name":"extensions","type":"uint256[]","internalType":"uint256[]"}],"stateMutability":"view"},{"type":"function","name":"execute","inputs":[{"name":"targets","type":"address[]","internalType":"address[]"},{"name":"values","type":"uint256[]","internalType":"uint256[]"},{"name":"calldatas","type":"bytes[]","internalType":"bytes[]"},{"name":"descriptionHash","type":"bytes32","internalType":"bytes32"}],"outputs":[{"name":"","type":"uint256","internalType":"uint256"}],"stateMutability":"payable"},{"type":"function","name":"execute","inputs":[{"name":"proposalId","type":"uint256","internalType":"uint256"}],"outputs":[],"stateMutability":"payable"},{"type":"function","name":"getMaturity","inputs":[{"name":"proposalId","type":"uint256","internalType":"uint256"}],"outputs":[{"name":"","type":"uint256","internalType":"uint256"}],"stateMutability":"view"},{"type":"function","name":"getPastScore","inputs":[{"name":"account","type":"address","internalType":"address"},{"name":"timepoint","type":"uint256","internalType":"uint256"}],"outputs":[{"name":"","type":"uint256","internalType":"uint256"}],"stateMutability":"view"},{"type":"function","name":"getVotes","inputs":[{"name":"account","type":"address","internalType":"address"},{"name":"timepoint","type":"uint256","internalType":"uint256"}],"outputs":[{"name":"","type":"uint256","internalType":"uint256"}],"stateMutability":"view"},{"type":"function","name":"getVotesWithParams","inputs":[{"name":"account","type":"address","internalType":"address"},{"name":"timepoint","type":"uint256","internalType":"uint256"},{"name":"params","type":"bytes","internalType":"bytes"}],"outputs":[{"name":"","type":"uint256","internalType":"uint256"}],"stateMutability":"view"},{"type":"function","name":"hasVoted","inputs":[{"name":"proposalId","type":"uint256","internalType":"uint256"},{"name":"account","type":"address","internalType":"address"}],"outputs":[{"name":"","type":"bool","internalType":"bool"}],"stateMutability":"view"},{"type":"function","name":"hashProposal","inputs":[{"name":"targets","type":"address[]","internalType":"address[]"},{"name":"values","type":"uint256[]","internalType":"uint256[]"},{"name":"calldatas","type":"bytes[]","internalType":"bytes[]"},{"name":"descriptionHash","type":"bytes32","internalType":"bytes32"}],"outputs":[{"name":"","type":"uint256","internalType":"uint256"}],"stateMutability":"pure"},{"type":"function","name":"initialize","inputs":[{"name":"name","type":"string","internalType":"string"},{"name":"token","type":"address","internalType":"contract IVotes"},{"name":"agentNft","type":"address","internalType":"address"},{"name":"threshold","type":"uint256","internalType":"uint256"},{"name":"votingPeriod_","type":"uint32","internalType":"uint32"}],"outputs":[],"stateMutability":"nonpayable"},{"type":"function","name":"name","inputs":[],"outputs":[{"name":"","type":"string","internalType":"string"}],"stateMutability":"view"},{"type":"function","name":"nonces","inputs":[{"name":"owner","type":"address","internalType":"address"}],"outputs":[{"name":"","type":"uint256","internalType":"uint256"}],"stateMutability":"view"},{"type":"function","name":"onERC1155BatchReceived","inputs":[{"name":"","type":"address","internalType":"address"},{"name":"","type":"address","internalType":"address"},{"name":"","type":"uint256[]","internalType":"uint256[]"},{"name":"","type":"uint256[]","internalType":"uint256[]"},{"name":"","type":"bytes","internalType":"bytes"}],"outputs":[{"name":"","type":"bytes4","internalType":"bytes4"}],"stateMutability":"nonpayable"},{"type":"function","name":"onERC1155Received","inputs":[{"name":"","type":"address","internalType":"address"},{"name":"","type":"address","internalType":"address"},{"name":"","type":"uint256","internalType":"uint256"},{"name":"","type":"uint256","internalType":"uint256"},{"name":"","type":"bytes","internalType":"bytes"}],"outputs":[{"name":"","type":"bytes4","internalType":"bytes4"}],"stateMutability":"nonpayable"},{"type":"function","name":"onERC721Received","inputs":[{"name":"","type":"address","internalType":"address"},{"name":"","type":"address","internalType":"address"},{"name":"","type":"uint256","internalType":"uint256"},{"name":"","type":"bytes","internalType":"bytes"}],"outputs":[{"name":"","type":"bytes4","internalType":"bytes4"}],"stateMutability":"nonpayable"},{"type":"function","name":"proposalCount","inputs":[],"outputs":[{"name":"","type":"uint256","internalType":"uint256"}],"stateMutability":"view"},{"type":"function","name":"proposalDeadline","inputs":[{"name":"proposalId","type":"uint256","internalType":"uint256"}],"outputs":[{"name":"","type":"uint256","internalType":"uint256"}],"stateMutability":"view"},{"type":"function","name":"proposalDetails","inputs":[{"name":"proposalId","type":"uint256","internalType":"uint256"}],"outputs":[{"name":"","type":"address[]","internalType":"address[]"},{"name":"","type":"uint256[]","internalType":"uint256[]"},{"name":"","type":"bytes[]","internalType":"bytes[]"},{"name":"","type":"bytes32","internalType":"bytes32"}],"stateMutability":"view"},{"type":"function","name":"proposalDetailsAt","inputs":[{"name":"index","type":"uint256","internalType":"uint256"}],"outputs":[{"name":"","type":"uint256","internalType":"uint256"},{"name":"","type":"address[]","internalType":"address[]"},{"name":"","type":"uint256[]","internalType":"uint256[]"},{"name":"","type":"bytes[]","internalType":"bytes[]"},{"name":"","type":"bytes32","internalType":"bytes32"}],"stateMutability":"view"},{"type":"function","name":"proposalEta","inputs":[{"name":"proposalId","type":"uint256","internalType":"uint256"}],"outputs":[{"name":"","type":"uint256","internalType":"uint256"}],"stateMutability":"view"},{"type":"function","name":"proposalNeedsQueuing","inputs":[{"name":"","type":"uint256","internalType":"uint256"}],"outputs":[{"name":"","type":"bool","internalType":"bool"}],"stateMutability":"view"},{"type":"function","name":"proposalProposer","inputs":[{"name":"proposalId","type":"uint256","internalType":"uint256"}],"outputs":[{"name":"","type":"address","internalType":"address"}],"stateMutability":"view"},{"type":"function","name":"proposalSnapshot","inputs":[{"name":"proposalId","type":"uint256","internalType":"uint256"}],"outputs":[{"name":"","type":"uint256","internalType":"uint256"}],"stateMutability":"view"},{"type":"function","name":"proposalThreshold","inputs":[],"outputs":[{"name":"","type":"uint256","internalType":"uint256"}],"stateMutability":"view"},{"type":"function","name":"proposalVotes","inputs":[{"name":"proposalId","type":"uint256","internalType":"uint256"}],"outputs":[{"name":"againstVotes","type":"uint256","internalType":"uint256"},{"name":"forVotes","type":"uint256","internalType":"uint256"},{"name":"abstainVotes","type":"uint256","internalType":"uint256"}],"stateMutability":"view"},{"type":"function","name":"propose","inputs":[{"name":"targets","type":"address[]","internalType":"address[]"},{"name":"values","type":"uint256[]","internalType":"uint256[]"},{"name":"calldatas","type":"bytes[]","internalType":"bytes[]"},{"name":"description","type":"string","internalType":"string"}],"outputs":[{"name":"","type":"uint256","internalType":"uint256"}],"stateMutability":"nonpayable"},{"type":"function","name":"queue","inputs":[{"name":"targets","type":"address[]","internalType":"address[]"},{"name":"values","type":"uint256[]","internalType":"uint256[]"},{"name":"calldatas","type":"bytes[]","internalType":"bytes[]"},{"name":"descriptionHash","type":"bytes32","internalType":"bytes32"}],"outputs":[{"name":"","type":"uint256","internalType":"uint256"}],"stateMutability":"nonpayable"},{"type":"function","name":"queue","inputs":[{"name":"proposalId","type":"uint256","internalType":"uint256"}],"outputs":[],"stateMutability":"nonpayable"},{"type":"function","name":"quorum","inputs":[{"name":"blockNumber","type":"uint256","internalType":"uint256"}],"outputs":[{"name":"","type":"uint256","internalType":"uint256"}],"stateMutability":"view"},{"type":"function","name":"quorumDenominator","inputs":[],"outputs":[{"name":"","type":"uint256","internalType":"uint256"}],"stateMutability":"pure"},{"type":"function","name":"quorumNumerator","inputs":[{"name":"timepoint","type":"uint256","internalType":"uint256"}],"outputs":[{"name":"","type":"uint256","internalType":"uint256"}],"stateMutability":"view"},{"type":"function","name":"quorumNumerator","inputs":[],"outputs":[{"name":"","type":"uint256","internalType":"uint256"}],"stateMutability":"view"},{"type":"function","name":"relay","inputs":[{"name":"target","type":"address","internalType":"address"},{"name":"value","type":"uint256","internalType":"uint256"},{"name":"data","type":"bytes","internalType":"bytes"}],"outputs":[],"stateMutability":"payable"},{"type":"function","name":"scoreOf","inputs":[{"name":"account","type":"address","internalType":"address"}],"outputs":[{"name":"","type":"uint256","internalType":"uint256"}],"stateMutability":"view"},{"type":"function","name":"setProposalThreshold","inputs":[{"name":"newProposalThreshold","type":"uint256","internalType":"uint256"}],"outputs":[],"stateMutability":"nonpayable"},{"type":"function","name":"setVotingDelay","inputs":[{"name":"newVotingDelay","type":"uint48","internalType":"uint48"}],"outputs":[],"stateMutability":"nonpayable"},{"type":"function","name":"setVotingPeriod","inputs":[{"name":"newVotingPeriod","type":"uint32","internalType":"uint32"}],"outputs":[],"stateMutability":"nonpayable"},{"type":"function","name":"state","inputs":[{"name":"proposalId","type":"uint256","internalType":"uint256"}],"outputs":[{"name":"","type":"uint8","internalType":"enum IGovernor.ProposalState"}],"stateMutability":"view"},{"type":"function","name":"supportsInterface","inputs":[{"name":"interfaceId","type":"bytes4","internalType":"bytes4"}],"outputs":[{"name":"","type":"bool","internalType":"bool"}],"stateMutability":"view"},{"type":"function","name":"token","inputs":[],"outputs":[{"name":"","type":"address","internalType":"contract IERC5805"}],"stateMutability":"view"},{"type":"function","name":"totalScore","inputs":[],"outputs":[{"name":"","type":"uint256","internalType":"uint256"}],"stateMutability":"view"},{"type":"function","name":"updateQuorumNumerator","inputs":[{"name":"newQuorumNumerator","type":"uint256","internalType":"uint256"}],"outputs":[],"stateMutability":"nonpayable"},{"type":"function","name":"version","inputs":[],"outputs":[{"name":"","type":"string","internalType":"string"}],"stateMutability":"view"},{"type":"function","name":"votingDelay","inputs":[],"outputs":[{"name":"","type":"uint256","internalType":"uint256"}],"stateMutability":"view"},{"type":"function","name":"votingPeriod","inputs":[],"outputs":[{"name":"","type":"uint256","internalType":"uint256"}],"stateMutability":"view"},{"type":"event","name":"EIP712DomainChanged","inputs":[],"anonymous":false},{"type":"event","name":"Initialized","inputs":[{"name":"version","type":"uint64","indexed":false,"internalType":"uint64"}],"anonymous":false},{"type":"event","name":"ProposalCanceled","inputs":[{"name":"proposalId","type":"uint256","indexed":false,"internalType":"uint256"}],"anonymous":false},{"type":"event","name":"ProposalCreated","inputs":[{"name":"proposalId","type":"uint256","indexed":false,"internalType":"uint256"},{"name":"proposer","type":"address","indexed":false,"internalType":"address"},{"name":"targets","type":"address[]","indexed":false,"internalType":"address[]"},{"name":"values","type":"uint256[]","indexed":false,"internalType":"uint256[]"},{"name":"signatures","type":"string[]","indexed":false,"internalType":"string[]"},{"name":"calldatas","type":"bytes[]","indexed":false,"internalType":"bytes[]"},{"name":"voteStart","type":"uint256","indexed":false,"internalType":"uint256"},{"name":"voteEnd","type":"uint256","indexed":false,"internalType":"uint256"},{"name":"description","type":"string","indexed":false,"internalType":"string"}],"anonymous":false},{"type":"event","name":"ProposalExecuted","inputs":[{"name":"proposalId","type":"uint256","indexed":false,"internalType":"uint256"}],"anonymous":false},{"type":"event","name":"ProposalQueued","inputs":[{"name":"proposalId","type":"uint256","indexed":false,"internalType":"uint256"},{"name":"etaSeconds","type":"uint256","indexed":false,"internalType":"uint256"}],"anonymous":false},{"type":"event","name":"ProposalThresholdSet","inputs":[{"name":"oldProposalThreshold","type":"uint256","indexed":false,"internalType":"uint256"},{"name":"newProposalThreshold","type":"uint256","indexed":false,"internalType":"uint256"}],"anonymous":false},{"type":"event","name":"QuorumNumeratorUpdated","inputs":[{"name":"oldQuorumNumerator","type":"uint256","indexed":false,"internalType":"uint256"},{"name":"newQuorumNumerator","type":"uint256","indexed":false,"internalType":"uint256"}],"anonymous":false},{"type":"event","name":"ValidatorEloRating","inputs":[{"name":"proposalId","type":"uint256","indexed":false,"internalType":"uint256"},{"name":"voter","type":"address","indexed":false,"internalType":"address"},{"name":"score","type":"uint256","indexed":false,"internalType":"uint256"},{"name":"votes","type":"uint8[]","indexed":false,"internalType":"uint8[]"}],"anonymous":false},{"type":"event","name":"VoteCast","inputs":[{"name":"voter","type":"address","indexed":true,"internalType":"address"},{"name":"proposalId","type":"uint256","indexed":false,"internalType":"uint256"},{"name":"support","type":"uint8","indexed":false,"internalType":"uint8"},{"name":"weight","type":"uint256","indexed":false,"internalType":"uint256"},{"name":"reason","type":"string","indexed":false,"internalType":"string"}],"anonymous":false},{"type":"event","name":"VoteCastWithParams","inputs":[{"name":"voter","type":"address","indexed":true,"internalType":"address"},{"name":"proposalId","type":"uint256","indexed":false,"internalType":"uint256"},{"name":"support","type":"uint8","indexed":false,"internalType":"uint8"},{"name":"weight","type":"uint256","indexed":false,"internalType":"uint256"},{"name":"reason","type":"string","indexed":false,"internalType":"string"},{"name":"params","type":"bytes","indexed":false,"internalType":"bytes"}],"anonymous":false},{"type":"event","name":"VotingDelaySet","inputs":[{"name":"oldVotingDelay","type":"uint256","indexed":false,"internalType":"uint256"},{"name":"newVotingDelay","type":"uint256","indexed":false,"internalType":"uint256"}],"anonymous":false},{"type":"event","name":"VotingPeriodSet","inputs":[{"name":"oldVotingPeriod","type":"uint256","indexed":false,"internalType":"uint256"},{"name":"newVotingPeriod","type":"uint256","indexed":false,"internalType":"uint256"}],"anonymous":false},{"type":"error","name":"CheckpointUnorderedInsertion","inputs":[]},{"type":"error","name":"ERC5805FutureLookup","inputs":[{"name":"timepoint","type":"uint256","internalType":"uint256"},{"name":"clock","type":"uint48","internalType":"uint48"}]},{"type":"error","name":"FailedInnerCall","inputs":[]},{"type":"error","name":"GovernorAlreadyCastVote","inputs":[{"name":"voter","type":"address","internalType":"address"}]},{"type":"error","name":"GovernorAlreadyQueuedProposal","inputs":[{"name":"proposalId","type":"uint256","internalType":"uint256"}]},{"type":"error","name":"GovernorDisabledDeposit","inputs":[]},{"type":"error","name":"GovernorInsufficientProposerVotes","inputs":[{"name":"proposer","type":"address","internalType":"address"},{"name":"votes","type":"uint256","internalType":"uint256"},{"name":"threshold","type":"uint256","internalType":"uint256"}]},{"type":"error","name":"GovernorInvalidProposalLength","inputs":[{"name":"targets","type":"uint256","internalType":"uint256"},{"name":"calldatas","type":"uint256","internalType":"uint256"},{"name":"values","type":"uint256","internalType":"uint256"}]},{"type":"error","name":"GovernorInvalidQuorumFraction","inputs":[{"name":"quorumNumerator","type":"uint256","internalType":"uint256"},{"name":"quorumDenominator","type":"uint256","internalType":"uint256"}]},{"type":"error","name":"GovernorInvalidSignature","inputs":[{"name":"voter","type":"address","internalType":"address"}]},{"type":"error","name":"GovernorInvalidVoteType","inputs":[]},{"type":"error","name":"GovernorInvalidVotingPeriod","inputs":[{"name":"votingPeriod","type":"uint256","internalType":"uint256"}]},{"type":"error","name":"GovernorNonexistentProposal","inputs":[{"name":"proposalId","type":"uint256","internalType":"uint256"}]},{"type":"error","name":"GovernorNotQueuedProposal","inputs":[{"name":"proposalId","type":"uint256","internalType":"uint256"}]},{"type":"error","name":"GovernorOnlyExecutor","inputs":[{"name":"account","type":"address","internalType":"address"}]},{"type":"error","name":"GovernorOnlyProposer","inputs":[{"name":"account","type":"address","internalType":"address"}]},{"type":"error","name":"GovernorQueueNotImplemented","inputs":[]},{"type":"error","name":"GovernorRestrictedProposer","inputs":[{"name":"proposer","type":"address","internalType":"address"}]},{"type":"error","name":"GovernorUnexpectedProposalState","inputs":[{"name":"proposalId","type":"uint256","internalType":"uint256"},{"name":"current","type":"uint8","internalType":"enum IGovernor.ProposalState"},{"name":"expectedStates","type":"bytes32","internalType":"bytes32"}]},{"type":"error","name":"InvalidAccountNonce","inputs":[{"name":"account","type":"address","internalType":"address"},{"name":"currentNonce","type":"uint256","internalType":"uint256"}]},{"type":"error","name":"InvalidInitialization","inputs":[]},{"type":"error","name":"NotInitializing","inputs":[]},{"type":"error","name":"QueueEmpty","inputs":[]},{"type":"error","name":"QueueFull","inputs":[]},{"type":"error","name":"SafeCastOverflowedUintDowncast","inputs":[{"name":"bits","type":"uint8","internalType":"uint8"},{"name":"value","type":"uint256","internalType":"uint256"}]}],"bytecode":{"object":"0x6080806040523460d0577ff0c57e16840df040f15088dc2f81fe391c3923bec73e23a9662efc9c229c6a005460ff8160401c1660c1576002600160401b03196001600160401b03821601605c575b6040516153a990816100d58239f35b6001600160401b0319166001600160401b039081177ff0c57e16840df040f15088dc2f81fe391c3923bec73e23a9662efc9c229c6a005581527fc7f505b2f371ae2175ee4913f4499e1f2633a7b5936321eed1cdaeb6115181d290602090a15f80604d565b63f92ee8a960e01b5f5260045ffd5b5f80fdfe6080604052600436101561001a575b3615610018575f80fd5b005b5f3560e01c806301ffc9a7146103a957806302a251a3146103a457806306f3f9e61461039f57806306fdde031461039a578063133af45614610395578063143489d014610390578063150b7a021461038b578063160cbed71461038657806316e9eaec14610381578063209e1f0d1461037c5780632656227d146103775780632d63f693146103725780632e82db941461036d5780632fe3e261146103685780633932abb1146103635780633e4f49e61461035e57806340e58ee5146103595780634385963214610354578063452115d61461034f5780634bf5d7e91461034a578063544ffc9c1461034557806354fd4d5014610340578063567813881461033b5780635b8d0e0d146103365780635f398a141461033157806360c4247f1461032c578063718f7cd41461032757806379051887146103225780637b3c71d31461031d5780637d5e81e2146103185780637ecebe00146103135780637f1e7d411461030e57806384b0196e146103095780638ff262e31461030457806391ddadf4146102ff57806397c3d334146102fa5780639a802a6d146102f5578063a7713a70146102f0578063a9a95294146102eb578063ab58fb8e146102e6578063b58131b0146102e1578063bc197c81146102dc578063c006719f146102d7578063c01f9e37146102d2578063c28bc2fa146102cd578063c59057e4146102c8578063da35c664146102c3578063dd4e2ba5146102be578063ddf0b009146102b9578063deaaa7cc146102b4578063e540d01d146102af578063eb9019d4146102aa578063ece40cc1146102a5578063f23a6e61146102a0578063f8ce560a1461029b578063fc0c546a146102965763fe0d94c10361000e57611cd0565b611c9c565b611bee565b611b95565b611b71565b611adf565b611aad565b611a73565b611a21565b6119c2565b611999565b61197d565b611912565b6118f4565b6118d7565b61183e565b611815565b6117d6565b6117bb565b611799565b6116c1565b6116a5565b61167b565b611542565b611462565b611394565b61133a565b61129d565b611245565b611218565b611055565b611024565b610fa9565b610f00565b610e96565b610e70565b610e26565b610df7565b610ddb565b610da7565b610d4b565b610d1c565b610cc4565b610c8a565b610bd1565b610bb3565b610b9c565b610b04565b610ad5565b6109b8565b610797565b610685565b610634565b610531565b610453565b61041b565b346104175760203660031901126104175760043563ffffffff60e01b8116809103610417576020906332a2ad4360e11b8114908115610406575b81156103f5575b506040519015158152f35b6301ffc9a760e01b1490505f6103ea565b630271189760e51b811491506103e3565b5f80fd5b34610417575f36600319011261041757602061044b63ffffffff5f805160206152148339815191525460301c1690565b604051908152f35b346104175760203660031901126104175760043561046f612c63565b61271081116104e1577f0553476bf02ef2726e8ce5ced78d63e26e602e4a2257b1f559418e24b4633997906001600160d01b036104aa612c7f565b166104c56104b6612a60565b6104bf84613972565b90614955565b505060408051918252602082019290925290819081015b0390a1005b63243e544560e01b5f5260045261271060245260445ffd5b805180835260209291819084018484015e5f828201840152601f01601f1916010190565b90602061052e9281815201906104f9565b90565b34610417575f366003190112610417576040515f5f805160206153348339815191525461055d81611ce7565b80845290600181169081156105ff5750600114610595575b61059183610585818503826106e5565b6040519182918261051d565b0390f35b5f805160206153348339815191525f9081527fda13dda7583a39a3cd73e8830529c760837228fa4683752c823b17e10548aad5939250905b8082106105e557509091508101602001610585610575565b9192600181602092548385880101520191019092916105cd565b60ff191660208086019190915291151560051b840190910191506105859050610575565b6001600160a01b0381160361041757565b346104175760203660031901126104175760043561065181610623565b6001600160a01b03165f9081526001602090815260409091206001600160d01b039061067c90612cdb565b16604051908152f35b34610417576020366003190112610417576004355f9081525f805160206151f483398151915260209081526040909120546001600160a01b03166040516001600160a01b039091168152f35b634e487b7160e01b5f52604160045260245ffd5b90601f801991011681019081106001600160401b0382111761070657604052565b6106d1565b6040519061071a6080836106e5565b565b6040519061071a6040836106e5565b6001600160401b03811161070657601f01601f191660200190565b9291926107528261072b565b9161076060405193846106e5565b829481845281830111610417578281602093845f960137010152565b9080601f830112156104175781602061052e93359101610746565b34610417576080366003190112610417576107b3600435610623565b6107be602435610623565b6064356001600160401b038111610417576107dd90369060040161077c565b50604051630a85bd0160e11b8152602090f35b6001600160401b0381116107065760051b60200190565b9080601f8301121561041757813561081e816107f0565b9261082c60405194856106e5565b81845260208085019260051b82010192831161041757602001905b8282106108545750505090565b60208091833561086381610623565b815201910190610847565b9080601f83011215610417578135610885816107f0565b9261089360405194856106e5565b81845260208085019260051b82010192831161041757602001905b8282106108bb5750505090565b81358152602091820191016108ae565b9080601f830112156104175781356108e2816107f0565b926108f060405194856106e5565b81845260208085019260051b820101918383116104175760208201905b83821061091c57505050505090565b81356001600160401b0381116104175760209161093e8784809488010161077c565b81520191019061090d565b6080600319820112610417576004356001600160401b038111610417578161097391600401610807565b916024356001600160401b03811161041757826109929160040161086e565b91604435906001600160401b038211610417576109b1916004016108cb565b9060643590565b34610417576109c636610949565b92919091611d39565b90602080835192838152019201905f5b8181106109ec5750505090565b82516001600160a01b03168452602093840193909201916001016109df565b90602080835192838152019201905f5b818110610a285750505090565b8251845260209384019390920191600101610a1b565b9080602083519182815201916020808360051b8301019401925f915b838310610a6957505050505090565b9091929394602080610a87600193601f1986820301875289516104f9565b97019301930191939290610a5a565b949392610ac2606093610ab4610ad09460808a5260808a01906109cf565b9088820360208a0152610a0b565b908682036040880152610a3e565b930152565b3461041757602036600319011261041757610591610af4600435611ed3565b9060409492945194859485610a96565b3461041757604036600319011261041757600435610b2181610623565b60243565ffffffffffff610b33612a60565b169182821015610b86576001600160a01b03165f90815260016020526040902061059192506001600160d01b0391610b759190610b6f90612e2f565b90612e79565b604051911681529081906020820190565b50637669fc0f60e11b5f5260045260245260445ffd5b602061044b610baa36610949565b92919091611f97565b3461041757602036600319011261041757602061044b6004356120d0565b34610417576020366003190112610417576004355f8051602061525483398151915254811015610c8557610c6d905f805160206152548339815191525f527f417ab5363cd721cbd7a5446b963bb4274a7db26ef2bb28819834095c165ca17a0154610c7b610c3e82611ed3565b9392959091610c5f604051978897885260a0602089015260a08801906109cf565b908682036040880152610a0b565b908482036060860152610a3e565b9060808301520390f35b611f6f565b34610417575f3660031901126104175760206040517f3e83946653575f9a39005e1545185629e92736b7528ab20ca3816f315424a8118152f35b34610417575f36600319011261041757602065ffffffffffff5f805160206152148339815191525416604051908152f35b634e487b7160e01b5f52602160045260245ffd5b6008811015610d1757602452565b610cf5565b3461041757602036600319011261041757610d38600435612110565b6040516008821015610d17576020918152f35b34610417576020366003190112610417576004355f525f805160206152f483398151915260205261001860405f20600381015490610d8881611d5d565b90610da16002610d9a60018401611dae565b9201611df6565b91612218565b34610417576040366003190112610417576020610dd1602435600435610dcc82610623565b6121ea565b6040519015158152f35b3461041757602061044b610dee36610949565b92919091612218565b34610417575f36600319011261041757610591610e1261231c565b6040519182916020835260208301906104f9565b34610417576020366003190112610417576060610e5d6004355f525f60205260405f20908154906002600184015493015491929190565b9060405192835260208301526040820152f35b34610417575f36600319011261041757610591610e126123de565b60ff81160361041757565b3461041757604036600319011261041757602061044b600435602435610ebb81610e8b565b60405191610ec985846106e5565b5f83523390613100565b9181601f84011215610417578235916001600160401b038311610417576020838186019501011161041757565b346104175760c036600319011261041757602435600435610f2082610e8b565b60443590610f2d82610623565b6064356001600160401b03811161041757610f4c903690600401610ed3565b6084356001600160401b03811161041757610f6b90369060040161077c565b9160a435946001600160401b0386116104175761059196610f93610f9997369060040161077c565b956123fd565b6040519081529081906020820190565b3461041757608036600319011261041757602435600435610fc982610e8b565b6044356001600160401b03811161041757610fe8903690600401610ed3565b9091606435936001600160401b0385116104175761101c610f999461101461059197369060040161077c565b943691610746565b91339061329c565b3461041757602036600319011261041757602061044b600435612544565b6084359063ffffffff8216820361041757565b346104175760a0366003190112610417576004356001600160401b0381116104175761108590369060040161077c565b6024359061109282610623565b60443561109e81610623565b6064356110a9611042565b915f8051602061535483398151915254946001600160401b036110e76110da6110d68960ff9060401c1690565b1590565b976001600160401b031690565b1680159081611200575b60011490816111f6575b1590816111ed575b506111de57611146948661113d60016001600160401b03195f805160206153548339815191525416175f8051602061535483398151915255565b6111a9576126ad565b61114c57005b61117660ff60401b195f8051602061535483398151915254165f8051602061535483398151915255565b604051600181527fc7f505b2f371ae2175ee4913f4499e1f2633a7b5936321eed1cdaeb6115181d29080602081016104dc565b6111d9600160401b60ff60401b195f805160206153548339815191525416175f8051602061535483398151915255565b6126ad565b63f92ee8a960e01b5f5260045ffd5b9050155f611103565b303b1591506110fb565b8791506110f1565b65ffffffffffff81160361041757565b346104175760203660031901126104175761001860043561123881611208565b611240612c63565b61358b565b346104175760603660031901126104175760243560043561126582610e8b565b604435906001600160401b0382116104175760209261129561128e61044b943690600401610ed3565b3691610746565b913390613100565b34610417576080366003190112610417576004356001600160401b038111610417576112cd903690600401610807565b6024356001600160401b038111610417576112ec90369060040161086e565b906044356001600160401b0381116104175761130c9036906004016108cb565b90606435916001600160401b0383116104175761059193611334610f9994369060040161077c565b926128d3565b346104175760203660031901126104175760043561135781610623565b60018060a01b03165f527f5ab42ced628888259c08ac98db1eb0cf702fc1501344311d8b100cd1bfe4bb00602052602060405f2054604051908152f35b34610417576020366003190112610417576113e26004356113cd815f525f60205260405f20908154906002600184015493015491929190565b509190505f52600260205260405f2054612a42565b80612710105f146113fb57506020612710604051908152f35b60209061044b565b916114389061142a61052e97959693600f60f81b865260e0602087015260e08601906104f9565b9084820360408601526104f9565b60608301949094526001600160a01b031660808201525f60a082015280830360c090910152610a0b565b34610417575f366003190112610417577fa16a46d94261c7517cc8ff89f61c0ce93598e3c849801011dee649a6a557d100541580611519575b156114dc576114a86136d9565b6114b06137a4565b906105916040516114c26020826106e5565b5f8082523660208301376040519384933091469186611403565b60405162461bcd60e51b81526020600482015260156024820152741152540dcc4c8e88155b9a5b9a5d1a585b1a5e9959605a1b6044820152606490fd5b507fa16a46d94261c7517cc8ff89f61c0ce93598e3c849801011dee649a6a557d101541561149b565b346104175760803660031901126104175760243560043561156282610e8b565b6044359161156f83610623565b6064356001600160401b038111610417576110d661159461164192369060040161077c565b6001600160a01b0386165f9081527f5ab42ced628888259c08ac98db1eb0cf702fc1501344311d8b100cd1bfe4bb006020526040902080546001810190915561163b9060405160208101917ff2aad550cf55f045cb27e9c559f9889fdfb6e6cdaa032301d6ea397784ae51d7835288604083015260ff8816606083015260018060a01b038a16608083015260a082015260a0815261163360c0826106e5565b51902061311d565b866131a9565b61165c5790610f9991610591936116566122cd565b92613100565b6394ab6c0760e01b5f526001600160a01b03831660045260245ffd5b5ffd5b34610417575f366003190112610417576020611695612a60565b65ffffffffffff60405191168152f35b34610417575f3660031901126104175760206040516127108152f35b34610417576060366003190112610417576004356116de81610623565b6044356024356001600160401b03821161041757611702602092369060040161077c565b505f805160206152b483398151915254604051630748d63560e31b81526001600160a01b0394851660048201526024810192909252909283916044918391165afa801561179457610591915f91611765575b506040519081529081906020820190565b611787915060203d60201161178d575b61177f81836106e5565b8101906120f6565b5f611754565b503d611775565b612105565b34610417575f3660031901126104175760206001600160d01b0361067c612c7f565b346104175760203660031901126104175760206040515f8152f35b3461041757602036600319011261041757602061044b6004355f525f805160206151f483398151915260205265ffffffffffff600160405f2001541690565b34610417575f3660031901126104175760205f805160206152d483398151915254604051908152f35b346104175760a03660031901126104175761185a600435610623565b611865602435610623565b6044356001600160401b0381116104175761188490369060040161086e565b506064356001600160401b038111610417576118a490369060040161086e565b506084356001600160401b038111610417576118c490369060040161077c565b5060405163bc197c8160e01b8152602090f35b34610417575f366003190112610417576020600354604051908152f35b3461041757602036600319011261041757602061044b600435612ae6565b60603660031901126104175760043561192a81610623565b6024356044356001600160401b03811161041757610018925f9261195384933690600401610ed3565b919061195d612c63565b826040519384928337810185815203925af1611977612b45565b9061384f565b3461041757602061044b61199036610949565b92919091612b74565b34610417575f3660031901126104175760205f8051602061525483398151915254604051908152f35b34610417575f366003190112610417576105916040516119e36040826106e5565b602081527f737570706f72743d627261766f2671756f72756d3d666f722c6162737461696e60208201526040519182916020835260208301906104f9565b34610417576020366003190112610417576004355f525f805160206152f483398151915260205260405f20600381015490611a5b81611d5d565b90611a6d6002610d9a60018401611dae565b91611d39565b34610417575f3660031901126104175760206040517ff2aad550cf55f045cb27e9c559f9889fdfb6e6cdaa032301d6ea397784ae51d78152f35b346104175760203660031901126104175760043563ffffffff811681036104175761001890611ada612c63565b613875565b3461041757604036600319011261041757600435611afc81610623565b60206024355f604051611b0f84826106e5565b525f805160206152b483398151915254604051630748d63560e31b81526001600160a01b0394851660048201526024810192909252909283916044918391165afa801561179457610591915f9161176557506040519081529081906020820190565b3461041757602036600319011261041757610018600435611b90612c63565b61390e565b346104175760a036600319011261041757611bb1600435610623565b611bbc602435610623565b6084356001600160401b03811161041757611bdb90369060040161077c565b5060405163f23a6e6160e01b8152602090f35b346104175760203660031901126104175760246004355f805160206152b483398151915254604051632394e7a360e21b8152600481018390529260209184919082906001600160a01b03165afa918215611794576105919261271092611c65925f92611c77575b50611c5f90612544565b9061395f565b04604051918291829190602083019252565b611c5f919250611c959060203d60201161178d5761177f81836106e5565b9190611c55565b34610417575f366003190112610417575f805160206152b4833981519152546040516001600160a01b039091168152602090f35b602036600319011261041757610018600435612c1f565b90600182811c92168015611d15575b6020831014611d0157565b634e487b7160e01b5f52602260045260245ffd5b91607f1691611cf6565b5f525f805160206151f483398151915260205260405f2090565b91611d4d9391611d4893612b74565b612d31565b50634844252360e11b5f5260045ffd5b90604051918281549182825260208201905f5260205f20925f5b818110611d8c57505061071a925003836106e5565b84546001600160a01b0316835260019485019487945060209093019201611d77565b90604051918281549182825260208201905f5260205f20925f5b818110611ddd57505061071a925003836106e5565b8454835260019485019487945060209093019201611dc8565b90815491611e03836107f0565b92611e1160405194856106e5565b80845260208401915f5260205f20915f905b828210611e305750505050565b6040515f8554611e3f81611ce7565b8084529060018116908115611eb05750600114611e79575b5060019282611e6b859460209403826106e5565b815201940191019092611e23565b5f878152602081209092505b818310611e9a57505081016020016001611e57565b6001816020925483868801015201920191611e85565b60ff191660208581019190915291151560051b8401909101915060019050611e57565b805f525f805160206152f483398151915260205260405f209160405190608082018281106001600160401b0382111761070657604052611f1284611d5d565b8252611f2060018501611dae565b91602081019283526003611f3660028701611df6565b9560408301968752015493606082019480865215611f5d5750519151935192519193929190565b636ad0607560e01b5f5260045260245ffd5b634e487b7160e01b5f52603260045260245ffd5b8051821015610c855760209160051b010190565b919092611fa690828585612b74565b92602092611fb5603086612df1565b50611fd5611fc286611d1f565b805460ff60f01b1916600160f01b179055565b5f935b5090611fe49291612fac565b80612033575b61201e575b6040518181527f712ae1383f79ac853f8d882153778e0260ef8f03b504e2866e0593e04d2b291f90602090a190565b5f5f8051602061531483398151915255611fef565b5061205b6110d65f80516020615314833981519152546001600160801b0381169060801c1490565b611fea565b84518110156120c0576001903061209661208a61207d848a611f83565b516001600160a01b031690565b6001600160a01b031690565b146120a2575b01612060565b6120bb6120af8289611f83565b518a8151910120612f0a565b61209c565b5091955093909291611fe4611fd8565b5f525f805160206151f483398151915260205265ffffffffffff60405f205460a01c1690565b90816020910312610417575190565b6040513d5f823e3d90fd5b6121198161300d565b906008821015610d17576001821461212f575090565b8060206121576121a8935f525f60205260405f20908154906002600184015493015491929190565b505f805160206152b4833981519152549093915061218790612181906001600160a01b031661208a565b916120d0565b906040518080968194632394e7a360e21b8352600483019190602083019252565b03915afa918215611794575f926121c9575b50146121c35790565b50600490565b6121e391925060203d60201161178d5761177f81836106e5565b905f6121ba565b60ff91612213915f525f602052600360405f20019060018060a01b03165f5260205260405f2090565b541690565b92919061222783838387612b74565b61223081612d71565b505f9081525f805160206151f483398151915260205260409020546001600160a01b031633036122ba5761226393612b74565b61226e603b82612df1565b5061227881611d1f565b80546001600160f81b0316600160f81b1790556040518181527f789cf55be980739dad1d0699b93b58e806b51c9d96619bfa8fe0a28abaa7b30c90602090a190565b63233d98e360e01b5f523360045260245ffd5b604051906122dc6020836106e5565b5f8252565b604051906122f06040836106e5565b601d82527f6d6f64653d626c6f636b6e756d6265722666726f6d3d64656661756c740000006020830152565b5f805160206152b483398151915254604051634bf5d7e960e01b8152905f90829060049082906001600160a01b03165afa5f9181612363575b5061052e575061052e6122e1565b9091503d805f833e61237581836106e5565b810190602081830312610417578051906001600160401b038211610417570181601f82011215610417578051906123ab8261072b565b926123b960405194856106e5565b8284526020838301011161041757815f9260208093018386015e83010152905f612355565b604051906123ed6040836106e5565b60018252603160f81b6020830152565b9390929196956110d66124d7916124d18a6124508160018060a01b03165f527f5ab42ced628888259c08ac98db1eb0cf702fc1501344311d8b100cd1bfe4bb0060205260405f2080549060018201905590565b61245b36888a610746565b602081519101208b5160208d0120906040519260208401947f3e83946653575f9a39005e1545185629e92736b7528ab20ca3816f315424a81186528d604086015260ff8d16606086015260018060a01b0316608085015260a084015260c083015260e082015260e08152611633610100826106e5565b8a6131a9565b6124f25761052e9596916124ec913691610746565b9261329c565b6394ab6c0760e01b5f526001600160a01b03871660045260245ffd5b634e487b7160e01b5f52601160045260245ffd5b5f1981019190821161253057565b61250e565b60271981019190821161253057565b5f80516020615234833981519152545f19810181811161253057811115610c85577f293b0181c8ec34cd3252e741689bdc21b70ee7a0ec76216439035a5c3718909a905f805160206152348339815191525f520154908065ffffffffffff831611156126a6576125b49150612e2f565b5f8051602061523483398151915254905f829160058411612646575b6125e893505f80516020615234833981519152613b16565b806125fc57505f5b6001600160d01b031690565b61260861264191612522565b5f805160206152348339815191525f527f293b0181c8ec34cd3252e741689bdc21b70ee7a0ec76216439035a5c3718909b015460301c90565b6125f0565b9192612651816139a3565b8103908111612530576125e8935f805160206152348339815191525f5265ffffffffffff8260205f2001541665ffffffffffff8516105f146126945750916125d0565b9291506126a090612e5e565b906125d0565b5060301c90565b9493929091926126bb613fec565b6126c36123de565b6126cb613fec565b86516001600160401b038111610706576126fb816126f65f8051602061527483398151915254611ce7565b61402d565b6020601f82116001146127f55761071a97986127516127b897969461273d856127ab98966127a6965f916127ea575b508160011b915f199060031b1c19161790565b5f80516020615274833981519152556140f8565b6127795f7fa16a46d94261c7517cc8ff89f61c0ce93598e3c849801011dee649a6a557d10055565b6127a15f7fa16a46d94261c7517cc8ff89f61c0ce93598e3c849801011dee649a6a557d10155565b614217565b6134b4565b6127b3613fec565b6134d5565b6127c061351f565b6127c8613fec565b60018060a01b03166bffffffffffffffffffffffff60a01b6004541617600455565b90508501515f61272a565b5f805160206152748339815191525f52601f198216907f42ad5d3e1f2e6e70edcf6d991b8a3023d3fca8047a131592f9edb9fd9b89d57d915f5b81811061288a57506127b89796946001856127a69561071a9d9e956127ab9a986127519610612872575b5050811b015f80516020615274833981519152556140f8565b8601515f1960f88460031b161c191690555f80612859565b9192602060018192868f01518155019401920161282f565b65ffffffffffff5f199116019065ffffffffffff821161253057565b90816020910312610417575161052e81610623565b91939290936128e56110d68333613610565b612a2f5761291061290a6128ff6128fa612a60565b6128a2565b65ffffffffffff1690565b33612ba2565b946129265f805160206152d48339815191525490565b600480546020906129419061208a906001600160a01b031681565b604051634d3f464760e11b815292839182905afa908115611794575f91612a10575b50818810908161299c575b50612981575061052e94955033936146bb565b636121770b60e11b5f5233600452602487905260445260645ffd5b604051636e9960c360e01b81529150602090829060049082906001600160a01b03165afa908115611794575f916129e1575b506001600160a01b03163314155f61296e565b612a03915060203d602011612a09575b6129fb81836106e5565b8101906128be565b5f6129ce565b503d6129f1565b612a29915060203d602011612a09576129fb81836106e5565b5f612963565b63d9b3955760e01b5f523360045260245ffd5b8115612a4c570490565b634e487b7160e01b5f52601260045260245ffd5b5f805160206152b4833981519152546040516324776b7d60e21b815290602090829060049082906001600160a01b03165afa5f9181612aa9575b5061052e575061052e43612e2f565b9091506020813d602011612ade575b81612ac5602093836106e5565b810103126104175751612ad781611208565b905f612a9a565b3d9150612ab8565b805f525f805160206151f483398151915260205265ffffffffffff60405f205460a01c16905f525f805160206151f483398151915260205263ffffffff60405f205460d01c160165ffffffffffff81116125305765ffffffffffff1690565b3d15612b6f573d90612b568261072b565b91612b6460405193846106e5565b82523d5f602084013e565b606090565b9290612b8e612b9c92604051948593602085019788610a96565b03601f1981018352826106e5565b51902090565b906020905f604051612bb484826106e5565b525f805160206152b483398151915254604051630748d63560e31b81526001600160a01b0394851660048201526024810192909252909283916044918391165afa908115611794575f91612c06575090565b61052e915060203d60201161178d5761177f81836106e5565b5f525f805160206152f4833981519152602052612c6060405f20600381015490612c4881611d5d565b90612c5a6002610d9a60018401611dae565b91611f97565b50565b333003612c6c57565b6347096e4760e01b5f523360045260245ffd5b5f805160206152348339815191525480612c9857505f90565b805f19810111612530575f805160206152348339815191525f527f293b0181c8ec34cd3252e741689bdc21b70ee7a0ec76216439035a5c3718909a015460301c90565b80549081612ce95750505f90565b815f19810111612530575f525f199060205f2001015460301c90565b6008811015610d175760ff600191161b90565b600452606491906008811015610d17576024525f604452565b612d3a81612110565b906010612d4683612d05565b1615612d50575090565b6331b75e4d60e01b5f52600452612d679150610d09565b601060445260645ffd5b612d7a81612110565b906001612d8683612d05565b1615612d90575090565b6331b75e4d60e01b5f52600452612da79150610d09565b600160445260645ffd5b612dba81612110565b906002612dc683612d05565b1615612dd0575090565b6331b75e4d60e01b5f52600452612de79150610d09565b600260445260645ffd5b90612dfb82612110565b9181612e0684612d05565b1615612e1157505090565b6331b75e4d60e01b5f52600452612e2782610d09565b60445260645ffd5b65ffffffffffff8111612e475765ffffffffffff1690565b6306dfcc6560e41b5f52603060045260245260445ffd5b906001820180921161253057565b9190820180921161253057565b908154905f829160058411612eb7575b612e94935084613b16565b80612e9f5750505f90565b612ea890612522565b905f5260205f20015460301c90565b9192612ec2816139a3565b810390811161253057612e9493855f5265ffffffffffff8260205f2001541665ffffffffffff8516105f14612ef8575091612e89565b929150612f0490612e5e565b90612e89565b5f8051602061531483398151915254908160801c6001600160801b036001820193166001600160801b03841614612f9d575f527f7c712897014dbe49c045ef1299aa2d5f9e67e48eea4403efa21f1e0f3ac0cb0360205260405f20556001600160801b035f80516020615314833981519152549181199082199060801b16169116175f8051602061531483398151915255565b638acb5f2760e01b5f5260045ffd5b9291925f5b815181101561300657600190612fff5f806001600160a01b03612fd48588611f83565b5116612fe08589611f83565b5190612fec868c611f83565b5191602083519301915af1611977612b45565b5001612fb1565b5050509050565b61301681611d1f565b5460f881901c9060f01c60ff166130f9576130f357613034816120d0565b80156130df576130456128ff612a60565b809110156130d95761305682612ae6565b106130615750600190565b61306d6110d682613b7a565b80156130b7575b1561307f5750600390565b6130a9905f525f805160206151f483398151915260205265ffffffffffff600160405f2001541690565b6130b257600490565b600590565b506130d46110d6825f525f60205260405f20600181015490541090565b613074565b50505f90565b636ad0607560e01b5f52600482905260245ffd5b50600290565b5050600790565b9161052e9391604051936131156020866106e5565b5f855261329c565b604290613128615119565b613130615183565b6040519060208201927f8b73c3c69bb8fe3d512ecc4cf759cc79239f7b179b0ffacaa9a75d522b39400f8452604083015260608201524660808201523060a082015260a0815261318160c0826106e5565b519020906040519161190160f01b8352600283015260228201522090565b60041115610d1757565b906131b48382613c01565b506131c18195929561319f565b159384613260575b5083156131d7575b50505090565b5f935090612b8e61320f8594936040519283916020830195630b135d3f60e11b875260248401526040604484015260648301906104f9565b51915afa61321b612b45565b81613252575b81613230575b505f80806131d1565b90506020818051810103126104175760200151630b135d3f60e11b145f613227565b905060208151101590613221565b6001600160a01b0384811691161493505f6131c9565b5f1981146125305760010190565b6001600160d01b039081166001019190821161253057565b92936044946132ab83866121ea565b906132b586612db1565b506132bf866120d0565b5f805160206152b483398151915254604051630748d63560e31b81526001600160a01b0387811660048301819052602483019490945290999293926020928b928391165afa978815611794575f98613483575b509185939185936133298a60019960ff998c614c17565b8589858c8151155f146134485761336a9150937fb8e138887d0aa13bab447e82de9d5c1777041ecd21ca36ba824ff1e6c07ddda49460405194859485613c75565b0390a25b1580613438575b61338f575b50501614613386575090565b61052e90613f49565b6133a261339d600354613276565b600355565b6001600160a01b0382165f908152600160205260409020613401906133c643612e2f565b6133fb6133f66133f16125f06133ec8960018060a01b03165f52600160205260405f2090565b612cdb565b613972565b613284565b91614ab6565b50508686825115158061342d575b61341b575b505061337a565b61342493613d97565b5f808686613414565b50868686161461340f565b5061344382876121ea565b613375565b907fe2babfbac5889a709b63bb7f598b324e08bc5a4fb9ec647fb3cbc9ec07eb87129461347b9260405195869586613c3b565b0390a261336e565b60ff9593919850916134a7600197959360203d60201161178d5761177f81836106e5565b9891939550919395613312565b90611b9061071a926134c4613fec565b6134cc613fec565b611ada5f61358b565b6134dd613fec565b6134e5613fec565b60018060a01b03166bffffffffffffffffffffffff60a01b5f805160206152b48339815191525416175f805160206152b483398151915255565b613527613fec565b61352f613fec565b7f0553476bf02ef2726e8ce5ced78d63e26e602e4a2257b1f559418e24b463399760406001600160d01b03613562612c7f565b1661357961356e612a60565b6104bf6113ec613972565b505081519081526113ec6020820152a1565b7fc565b045403dc03c2eea82b81a0465edad9e2e7fc4d97e11421c209da93d7a93604065ffffffffffff805f8051602061521483398151915254169382519485521692836020820152a165ffffffffffff195f805160206152148339815191525416175f8051602061521483398151915255565b908151811015610c85570160200190565b8151603481106136bf5760131981840101516001600160a01b0319166b1b91f1b211f2119351b859f160a31b016136bf57915f9261364d81612535565b915b81831061366a575050506001600160a01b0391821691161490565b90919361369061368b61367d87856135ff565b516001600160f81b03191690565b614324565b90156136b45760019160ff9060041b6010600160a01b03169116179401919061364f565b505050505050600190565b505050600190565b90808210156136d4575090565b905090565b6040515f8051602061527483398151915254815f6136f683611ce7565b8083529260018116908115613785575060011461371a575b61052e925003826106e5565b505f805160206152748339815191525f90815290917f42ad5d3e1f2e6e70edcf6d991b8a3023d3fca8047a131592f9edb9fd9b89d57d5b81831061376957505090602061052e9282010161370e565b6020919350806001915483858801015201910190918392613751565b6020925061052e94915060ff191682840152151560051b82010161370e565b6040515f8051602061529483398151915254815f6137c183611ce7565b808352926001811690811561378557506001146137e45761052e925003826106e5565b505f805160206152948339815191525f90815290917f5f9ce34815f8e11431c7bb75a8e6886a91478f7ffc1dbb0a98dc240fddd76b755b81831061383357505090602061052e9282010161370e565b602091935080600191548385880101520191019091839261381b565b90919061071a575080511561386657805190602001fd5b630a12f52160e11b5f5260045ffd5b63ffffffff81169081156138fb5769ffffffff000000000000907f7e3f7f0708a84de9203036abaa450dccc85ad5ff52f78c170f3edb55cf5e882860405f80516020615214833981519152549481519063ffffffff8760301c1682526020820152a160301b169069ffffffff0000000000001916175f8051602061521483398151915255565b63f1cfbf0560e01b5f525f60045260245ffd5b5f805160206152d48339815191525460408051918252602082018390527fccb45da8d5717e6c4544694297c4ba5cf151d455c9bb0ed4fc7a38411bc0546191a15f805160206152d483398151915255565b8181029291811591840414171561253057565b6001600160d01b03811161398c576001600160d01b031690565b6306dfcc6560e41b5f5260d060045260245260445ffd5b8015613b115761052e90613aa7613aa0613a96613a8c613a82613a78613a6e613a646001613a525f8b608081901c80613b03575b50806139e6613a489260401c90565b80613af6575b506139f78160201c90565b80613ae9575b50613a088160101c90565b80613adc575b50613a198160081c90565b80613acf575b50613a2a8160041c90565b80613ac2575b50613a3b8160021c90565b80613ab5575b5060011c90565b613aad5760011c90565b1b613a5d818b612a42565b0160011c90565b613a5d818a612a42565b613a5d8189612a42565b613a5d8188612a42565b613a5d8187612a42565b613a5d8186612a42565b613a5d8185612a42565b8092612a42565b906136c7565b820160011c90565b600291509201915f613a41565b600491509201915f613a30565b600891509201915f613a1f565b601091509201915f613a0e565b602091509201915f6139fd565b604091509201915f6139ec565b608092509050613a486139d7565b505f90565b91905b838210613b265750505090565b9091928083169080841860011c820180921161253057845f5265ffffffffffff8260205f2001541665ffffffffffff8416105f14613b685750925b9190613b19565b939250613b7490612e5e565b91613b61565b805f525f6020526024613b9060405f20926120d0565b5f805160206152b483398151915254604051632394e7a360e21b8152600481018390529260209184919082906001600160a01b03165afa91821561179457613bfc9261271092613bea925f92611c775750611c5f90612544565b04916002600182015491015490612e6c565b101590565b8151919060418303613c3157613c2a9250602082015190606060408401519301515f1a90614b95565b9192909190565b50505f9160029190565b93909260ff613c679361052e97958752166020860152604085015260a0606085015260a08401906104f9565b9160808184039101526104f9565b909260ff60809361052e96958452166020830152604082015281606082015201906104f9565b90816020910312610417575180151581036104175790565b602081830312610417578051906001600160401b03821161041757019080601f83011215610417578151613ce6816107f0565b92613cf460405194856106e5565b81845260208085019260051b82010192831161041757602001905b828210613d1c5750505090565b602080918351613d2b81610e8b565b815201910190613d0f565b90602080835192838152019201905f5b818110613d535750505090565b825160ff16845260209384019390920191600101613d46565b909260809261052e9594835260018060a01b0316602083015260408201528160608201520190613d36565b919260046020613db361208a61208a845460018060a01b031690565b604051634d3f464760e11b815292839182905afa908115611794575f91613f2a575b506040516331a9108f60e11b8152600481018490526001600160a01b039190911690602081602481855afa908115611794575f91613f0b575b506001600160a01b031615613f0457604051638209c69960e01b81526004810184905290602090829060249082905afa908115611794575f91613ed5575b5015613ecf577ff1cd7e1d668275f9d580c0adbf414afb0b7163a48f0bed7353f9cbab029b797593613e8a82602080613eca95518301019101613cb3565b90613e9f613e988386614d1a565b918261395f565b613ebc613eb4865f52600260205260405f2090565b918254612e6c565b905560405194859485613d6c565b0390a1565b50505050565b613ef7915060203d602011613efd575b613eef81836106e5565b810190613c9b565b5f613e4c565b503d613ee5565b5050505050565b613f24915060203d602011612a09576129fb81836106e5565b5f613e0e565b613f43915060203d602011612a09576129fb81836106e5565b5f613dd5565b613f6b815f525f60205260405f20908154906002600184015493015491929190565b505f805160206152b4833981519152546001600160a01b031691506020613f91846120d0565b602460405180958193632394e7a360e21b835260048301525afa918215611794575f92613fcb575b5014613fc25750565b61071a90612c1f565b613fe591925060203d60201161178d5761177f81836106e5565b905f613fb9565b60ff5f805160206153548339815191525460401c161561400857565b631afcd79f60e31b5f5260045ffd5b818110614022575050565b5f8155600101614017565b90601f821161403a575050565b61071a915f805160206152748339815191525f5260205f20906020601f840160051c83019310614072575b601f0160051c0190614017565b9091508190614065565b90601f8211614089575050565b61071a915f805160206153348339815191525f5260205f20906020601f840160051c8301931061407257601f0160051c0190614017565b9190601f81116140cf57505050565b61071a925f5260205f20906020601f840160051c8301931061407257601f0160051c0190614017565b9081516001600160401b03811161070657614137816141245f8051602061529483398151915254611ce7565b5f805160206152948339815191526140c0565b602092601f821160011461418357614167929382915f92614178575b50508160011b915f199060031b1c19161790565b5f8051602061529483398151915255565b015190505f80614153565b5f805160206152948339815191525f52601f198216937f5f9ce34815f8e11431c7bb75a8e6886a91478f7ffc1dbb0a98dc240fddd76b75915f5b8681106141ff57508360019596106141e7575b505050811b015f8051602061529483398151915255565b01515f1960f88460031b161c191690555f80806141d0565b919260206001819286850151815501940192016141bd565b90614220613fec565b81516001600160401b038111610706576142508161424b5f8051602061533483398151915254611ce7565b61407c565b602092601f82116001146142905761427f929382915f926141785750508160011b915f199060031b1c19161790565b5f8051602061533483398151915255565b5f805160206153348339815191525f52601f198216937fda13dda7583a39a3cd73e8830529c760837228fa4683752c823b17e10548aad5915f5b86811061430c57508360019596106142f4575b505050811b015f8051602061533483398151915255565b01515f1960f88460031b161c191690555f80806142dd565b919260206001819286850151815501940192016142ca565b60f81c9081602f1080614397575b1561434457600191602f190160ff1690565b816040108061438d575b15614360576001916036190160ff1690565b8160601080614383575b1561437c576001916056190160ff1690565b5f91508190565b506067821061436a565b506047821061434e565b50603a8210614332565b5f8051602061525483398151915254600160401b81101561070657600181015f80516020615254833981519152555f8051602061525483398151915254811015610c85575f805160206152548339815191525f527f417ab5363cd721cbd7a5446b963bb4274a7db26ef2bb28819834095c165ca17a0155565b9181811061442757505050565b61071a925f5260205f209182019101614017565b8151916001600160401b03831161070657600160401b8311610706576020906144698484548186558561441a565b01905f5260205f205f5b8381106144805750505050565b600190602084519401938184015501614473565b91909182516001600160401b038111610706576144bb816144b58454611ce7565b846140c0565b6020601f82116001146144ee5781906144ea9394955f926141785750508160011b915f199060031b1c19161790565b9055565b601f19821690614501845f5260205f2090565b915f5b81811061453b57509583600195969710614523575b505050811b019055565b01515f1960f88460031b161c191690555f8080614519565b9192602060018192868b015181550194019201614504565b815191600160401b83116107065781548383558084106145ad575b5060206145809101915f5260205f2090565b5f915b8383106145905750505050565b60016020826145a183945186614494565b01920192019190614583565b825f528360205f2091820191015b8181106145c8575061456e565b806145d560019254611ce7565b806145e2575b50016145bb565b601f811183146145f757505f81555b5f6145db565b6146199083601f61460b855f5260205f2090565b920160051c82019101614017565b5f81815260208120818355556145f1565b9080518051906001600160401b03821161070657600160401b82116107065760209061465b8386548188558761441a565b01835f5260205f205f5b83811061469e5750505050606081614686602060039401516001860161443b565b614697604082015160028601614553565b0151910155565b82516001600160a01b031681830155602090920191600101614665565b9194939483516146d360208601918220838587612b74565b9484518451908181148015906148c9575b80156148c1575b6148a457505065ffffffffffff61471361470488611d1f565b5460a01c65ffffffffffff1690565b16614887577f7d84a6263ae0d98d3329bd7b46bb4e8d6f98cd35a7adb45c274c8b7fd5ebd5e086979861052e9761483a848961477b614750612a60565b65ffffffffffff61477465ffffffffffff5f80516020615214833981519152541690565b9116612e6c565b8961479a63ffffffff5f805160206152148339815191525460301c1690565b6148186147a688611d1f565b80546001600160a01b0319166001600160a01b038b161781556147ef6147cb86612e2f565b825465ffffffffffff60a01b191660a09190911b65ffffffffffff60a01b16178255565b6147f8836151c8565b815463ffffffff60d01b191660d09190911b63ffffffff60d01b16179055565b8c61482d6148268651615004565b9285612e6c565b94604051998a998a61504d565b0390a1614846876143a1565b5190209161485261070b565b938452602084015260408301526060820152614882835f525f805160206152f483398151915260205260405f2090565b61462a565b6116788661489481612110565b6331b75e4d60e01b5f5290612d18565b8451630447b05d60e41b5f5260049190915260245260445260645ffd5b5080156146eb565b5084518114156146e4565b805490600160401b8210156107065760018201808255821015610c85575f9081526020902001815160209092015160301b65ffffffffffff191665ffffffffffff92909216919091179055565b90604051604081018181106001600160401b0382111761070657604052915465ffffffffffff8116835260301c6020830152565b5f8051602061523483398151915254919291908115614a8d57816149bf6149ba61498565ffffffffffff95612522565b5f805160206152348339815191525f527f293b0181c8ec34cd3252e741689bdc21b70ee7a0ec76216439035a5c3718909b0190565b614921565b906149d0825165ffffffffffff1690565b8484169485911611614a7e5785602093614a33956149f76128ff865165ffffffffffff1690565b03614a375750614a0c614985614a2593612522565b9065ffffffffffff82549181199060301b169116179055565b01516001600160d01b031690565b9190565b9050614a799150614a57614a4961071c565b65ffffffffffff9092168252565b6001600160d01b038716818501525b5f805160206152348339815191526148d4565b614a25565b632520601d60e01b5f5260045ffd5b614ab19150614a9d614a4961071c565b6001600160d01b0384166020820152614a66565b5f9190565b805492939291908215614b7157614add6149ba614ad285612522565b835f5260205f200190565b9065ffffffffffff614af5835165ffffffffffff1690565b8185169182911611614a7e57614a33946020948892614b1d6128ff875165ffffffffffff1690565b03614b3e5750614a2592614b33614a0c92612522565b905f5260205f200190565b915050614a7991614b5e614b5061071c565b65ffffffffffff9093168352565b6001600160d01b038816828601526148d4565b614ab19250614b81614b5061071c565b6001600160d01b03851660208301526148d4565b91907f7fffffffffffffffffffffffffffffff5d576e7357a4501ddfe92f46681b20a08411614c0c579160209360809260ff5f9560405194855216868401526040830152606082015282805260015afa15611794575f516001600160a01b03811615614c0257905f905f90565b505f906001905f90565b5050505f9160039190565b614c2a60ff915f525f60205260405f2090565b92169060038214613ecf576001600160a01b0381165f90815260038401602081905260409091205460ff16614cd257614c8391614c76919060018060a01b03165f5260205260405f2090565b805460ff19166001179055565b80614c955750906144ea908254612e6c565b60018103614cad575060016144ea9101918254612e6c565b600203614cc35760026144ea9101918254612e6c565b6303599be160e11b5f5260045ffd5b6371c6af4960e01b5f526001600160a01b03821660045260245ffd5b90816020910312610417575161052e81610e8b565b60409061052e939281528160208201520190613d36565b600454909190614d349061208a906001600160a01b031681565b90604051634d3f464760e11b8152602081600481865afa908115611794575f91614fe5575b5060405163b9f7fe5360e01b815290602082600481875afa918215611794575f92614fc4575b5060405163ccc16f6960e01b81526004810186905294906001600160a01b0316602086602481845afa958615611794575f96614f9c575b506040516312903cd960e11b8152600481019290925260209082908180602481015b03915afa801561179457614e26926020925f92614f6d575b506040516387e2d55360e01b8152600481019790975260ff90911660248701526001600160a01b03169491829081906044820190565b0381875afa908115611794575f91614f4e575b5060649381614e4a575b5050505090565b604051637f1e7d4160e01b8152600481019290925292935091602090839060249082905afa918215611794575f92614f2b575b50602060049293604051938480926360295fdb60e11b82525afa801561179457614ec8936020935f92614f0c575b506040518095819482936301cc047760e71b845260048401614d03565b03916001600160a01b03165afa908115611794575f91614eed575b505f808080614e43565b614f06915060203d60201161178d5761177f81836106e5565b5f614ee3565b614f24919250843d8611612a09576129fb81836106e5565b905f614eab565b60049250614f47602091823d841161178d5761177f81836106e5565b9250614e7d565b614f67915060203d60201161178d5761177f81836106e5565b5f614e39565b614f8e919250833d8511614f95575b614f8681836106e5565b810190614cee565b905f614df0565b503d614f7c565b602091965091614fbb614dd893833d851161178d5761177f81836106e5565b96915091614db6565b614fde91925060203d602011612a09576129fb81836106e5565b905f614d7f565b614ffe915060203d602011612a09576129fb81836106e5565b5f614d59565b9061500e826107f0565b61501b60405191826106e5565b828152809261502c601f19916107f0565b01905f5b82811061503c57505050565b806060602080938501015201615030565b95999896979493919261508e9361508092885260018060a01b0316602088015261012060408801526101208701906109cf565b908582036060870152610a0b565b968388036080850152815180895260208901906020808260051b8c01019401915f905b8282106150ed575050505061052e969750906150d49184820360a0860152610a3e565b9360c083015260e08201526101008184039101526104f9565b9091929460208061510b6001938f601f1990820301865289516104f9565b9701920192019092916150b1565b6151216136d9565b8051908115615131576020012090565b50507fa16a46d94261c7517cc8ff89f61c0ce93598e3c849801011dee649a6a557d10054801561515e5790565b507fc5d2460186f7233c927e7db2dcc703c0e500b653ca82273b7bfad8045d85a47090565b61518b6137a4565b805190811561519b576020012090565b50507fa16a46d94261c7517cc8ff89f61c0ce93598e3c849801011dee649a6a557d10154801561515e5790565b63ffffffff81116151dc5763ffffffff1690565b6306dfcc6560e41b5f52602060045260245260445ffdfe7c712897014dbe49c045ef1299aa2d5f9e67e48eea4403efa21f1e0f3ac0cb0100d7616c8fe29c6c2fbe1d0c5bc8f2faa4c35b43746e70b24b4d532752affd01e770710421fd2cad75ad828c61aa98f2d77d423a440b67872d0f65554148e0007fd223d3380145bd26132714391e777c488a0df7ac2dd4b66419d8549fb3a600a16a46d94261c7517cc8ff89f61c0ce93598e3c849801011dee649a6a557d102a16a46d94261c7517cc8ff89f61c0ce93598e3c849801011dee649a6a557d1033ba4977254e415696610a40ebf2258dbfa0ec6a2ff64e84bfe715ff16977cc0000d7616c8fe29c6c2fbe1d0c5bc8f2faa4c35b43746e70b24b4d532752affd007fd223d3380145bd26132714391e777c488a0df7ac2dd4b66419d8549fb3a6017c712897014dbe49c045ef1299aa2d5f9e67e48eea4403efa21f1e0f3ac0cb027c712897014dbe49c045ef1299aa2d5f9e67e48eea4403efa21f1e0f3ac0cb00f0c57e16840df040f15088dc2f81fe391c3923bec73e23a9662efc9c229c6a00a2646970667358221220c80e7da66861aa4dd96b74374886dffc3b1851b977344f20b8a56899c7d4975064736f6c634300081a0033","linkReferences":{}},"methodIdentifiers":{"BALLOT_TYPEHASH()":"deaaa7cc","CLOCK_MODE()":"4bf5d7e9","COUNTING_MODE()":"dd4e2ba5","EXTENDED_BALLOT_TYPEHASH()":"2fe3e261","cancel(address[],uint256[],bytes[],bytes32)":"452115d6","cancel(uint256)":"40e58ee5","castVote(uint256,uint8)":"56781388","castVoteBySig(uint256,uint8,address,bytes)":"8ff262e3","castVoteWithReason(uint256,uint8,string)":"7b3c71d3","castVoteWithReasonAndParams(uint256,uint8,string,bytes)":"5f398a14","castVoteWithReasonAndParamsBySig(uint256,uint8,address,string,bytes,bytes)":"5b8d0e0d","clock()":"91ddadf4","eip712Domain()":"84b0196e","execute(address[],uint256[],bytes[],bytes32)":"2656227d","execute(uint256)":"fe0d94c1","getMaturity(uint256)":"7f1e7d41","getPastScore(address,uint256)":"209e1f0d","getVotes(address,uint256)":"eb9019d4","getVotesWithParams(address,uint256,bytes)":"9a802a6d","hasVoted(uint256,address)":"43859632","hashProposal(address[],uint256[],bytes[],bytes32)":"c59057e4","initialize(string,address,address,uint256,uint32)":"718f7cd4","name()":"06fdde03","nonces(address)":"7ecebe00","onERC1155BatchReceived(address,address,uint256[],uint256[],bytes)":"bc197c81","onERC1155Received(address,address,uint256,uint256,bytes)":"f23a6e61","onERC721Received(address,address,uint256,bytes)":"150b7a02","proposalCount()":"da35c664","proposalDeadline(uint256)":"c01f9e37","proposalDetails(uint256)":"16e9eaec","proposalDetailsAt(uint256)":"2e82db94","proposalEta(uint256)":"ab58fb8e","proposalNeedsQueuing(uint256)":"a9a95294","proposalProposer(uint256)":"143489d0","proposalSnapshot(uint256)":"2d63f693","proposalThreshold()":"b58131b0","proposalVotes(uint256)":"544ffc9c","propose(address[],uint256[],bytes[],string)":"7d5e81e2","queue(address[],uint256[],bytes[],bytes32)":"160cbed7","queue(uint256)":"ddf0b009","quorum(uint256)":"f8ce560a","quorumDenominator()":"97c3d334","quorumNumerator()":"a7713a70","quorumNumerator(uint256)":"60c4247f","relay(address,uint256,bytes)":"c28bc2fa","scoreOf(address)":"133af456","setProposalThreshold(uint256)":"ece40cc1","setVotingDelay(uint48)":"79051887","setVotingPeriod(uint32)":"e540d01d","state(uint256)":"3e4f49e6","supportsInterface(bytes4)":"01ffc9a7","token()":"fc0c546a","totalScore()":"c006719f","updateQuorumNumerator(uint256)":"06f3f9e6","version()":"54fd4d50","votingDelay()":"3932abb1","votingPeriod()":"02a251a3"},"id":91}