{"abi":[{"type":"function","name":"syncDeposit","inputs":[{"name":"childToken","type":"address","internalType":"address"},{"name":"amount","type":"uint256","internalType":"uint256"}],"outputs":[],"stateMutability":"nonpayable"},{"type":"function","name":"withdraw","inputs":[{"name":"childToken","type":"address","internalType":"address"},{"name":"amount","type":"uint256","internalType":"uint256"}],"outputs":[],"stateMutability":"nonpayable"}],"bytecode":{"object":"0x608080604052346015576101ae908161001a8239f35b5f80fdfe6080806040526004361015610012575f80fd5b5f905f3560e01c9081635fb8f61f146100ac575063f3fef3a314610034575f80fd5b3461009a57806100433661011c565b906001600160a01b0316803b156100a857604051632770a7eb60e21b8152336004820152602481019290925282908290604490829084905af1801561009d576100895750f35b8161009391610142565b61009a5780f35b80fd5b6040513d84823e3d90fd5b5050fd5b905034610118576100bc3661011c565b6001600160a01b0390911690813b15610118576340c10f1960e01b835233600484015260248301525f908290604490829084905af1801561010d576100ff575080f35b61010b91505f90610142565b005b6040513d5f823e3d90fd5b5f80fd5b6040906003190112610118576004356001600160a01b0381168103610118579060243590565b90601f8019910116810190811067ffffffffffffffff82111761016457604052565b634e487b7160e01b5f52604160045260245ffdfea264697066735822122023ea5c6b1a50cfadbe8588e15bed7bbf820702566ad7c092610a55b204a91ad064736f6c634300081a0033","linkReferences":{}},"methodIdentifiers":{"syncDeposit(address,uint256)":"5fb8f61f","withdraw(address,uint256)":"f3fef3a3"},"id":15}