{"abi":[{"type":"function","name":"DEFAULT_ADMIN_ROLE","inputs":[],"outputs":[{"name":"","type":"bytes32","internalType":"bytes32"}],"stateMutability":"view"},{"type":"function","name":"DENOMINATOR","inputs":[],"outputs":[{"name":"","type":"uint256","internalType":"uint256"}],"stateMutability":"view"},{"type":"function","name":"GOV_ROLE","inputs":[],"outputs":[{"name":"","type":"bytes32","internalType":"bytes32"}],"stateMutability":"view"},{"type":"function","name":"TOKEN_SAVER_ROLE","inputs":[],"outputs":[{"name":"","type":"bytes32","internalType":"bytes32"}],"stateMutability":"view"},{"type":"function","name":"agentNft","inputs":[],"outputs":[{"name":"","type":"address","internalType":"address"}],"stateMutability":"view"},{"type":"function","name":"claimAllRewards","inputs":[{"name":"virtualIds","type":"uint256[]","internalType":"uint256[]"},{"name":"contributionNftIds","type":"uint256[]","internalType":"uint256[]"}],"outputs":[],"stateMutability":"nonpayable"},{"type":"function","name":"contributionNft","inputs":[],"outputs":[{"name":"","type":"address","internalType":"address"}],"stateMutability":"view"},{"type":"function","name":"distributeRewards","inputs":[{"name":"amount","type":"uint256","internalType":"uint256"}],"outputs":[{"name":"","type":"uint32","internalType":"uint32"}],"stateMutability":"nonpayable"},{"type":"function","name":"distributeRewardsForAgents","inputs":[{"name":"mainRewardIndex","type":"uint32","internalType":"uint32"},{"name":"virtualIds","type":"uint256[]","internalType":"uint256[]"}],"outputs":[],"stateMutability":"nonpayable"},{"type":"function","name":"getChildrenRewards","inputs":[{"name":"nftId","type":"uint256","internalType":"uint256"}],"outputs":[{"name":"","type":"uint256","internalType":"uint256"}],"stateMutability":"view"},{"type":"function","name":"getMainReward","inputs":[{"name":"pos","type":"uint32","internalType":"uint32"}],"outputs":[{"name":"","type":"tuple","internalType":"struct IAgentReward.MainReward","components":[{"name":"blockNumber","type":"uint32","internalType":"uint32"},{"name":"amount","type":"uint256","internalType":"uint256"},{"name":"agentCount","type":"uint256","internalType":"uint256"},{"name":"totalStaked","type":"uint256","internalType":"uint256"}]}],"stateMutability":"view"},{"type":"function","name":"getPastRewardSettings","inputs":[{"name":"timepoint","type":"uint32","internalType":"uint32"}],"outputs":[{"name":"","type":"tuple","internalType":"struct RewardSettingsCheckpoints.RewardSettings","components":[{"name":"protocolShares","type":"uint16","internalType":"uint16"},{"name":"contributorShares","type":"uint16","internalType":"uint16"},{"name":"stakerShares","type":"uint16","internalType":"uint16"},{"name":"parentShares","type":"uint16","internalType":"uint16"},{"name":"stakeThreshold","type":"uint256","internalType":"uint256"}]}],"stateMutability":"view"},{"type":"function","name":"getReward","inputs":[{"name":"virtualId","type":"uint256","internalType":"uint256"},{"name":"pos","type":"uint32","internalType":"uint32"}],"outputs":[{"name":"","type":"tuple","internalType":"struct IAgentReward.Reward","components":[{"name":"id","type":"uint48","internalType":"uint48"},{"name":"mainIndex","type":"uint32","internalType":"uint32"},{"name":"totalStaked","type":"uint256","internalType":"uint256"},{"name":"validatorAmount","type":"uint256","internalType":"uint256"},{"name":"contributorAmount","type":"uint256","internalType":"uint256"},{"name":"coreAmount","type":"uint256","internalType":"uint256"}]}],"stateMutability":"view"},{"type":"function","name":"getRewardSettings","inputs":[],"outputs":[{"name":"","type":"tuple","internalType":"struct RewardSettingsCheckpoints.RewardSettings","components":[{"name":"protocolShares","type":"uint16","internalType":"uint16"},{"name":"contributorShares","type":"uint16","internalType":"uint16"},{"name":"stakerShares","type":"uint16","internalType":"uint16"},{"name":"parentShares","type":"uint16","internalType":"uint16"},{"name":"stakeThreshold","type":"uint256","internalType":"uint256"}]}],"stateMutability":"view"},{"type":"function","name":"getRoleAdmin","inputs":[{"name":"role","type":"bytes32","internalType":"bytes32"}],"outputs":[{"name":"","type":"bytes32","internalType":"bytes32"}],"stateMutability":"view"},{"type":"function","name":"getServiceReward","inputs":[{"name":"nftId","type":"uint256","internalType":"uint256"}],"outputs":[{"name":"","type":"tuple","internalType":"struct IAgentReward.ServiceReward","components":[{"name":"impact","type":"uint256","internalType":"uint256"},{"name":"amount","type":"uint256","internalType":"uint256"},{"name":"parentAmount","type":"uint256","internalType":"uint256"},{"name":"totalClaimed","type":"uint256","internalType":"uint256"},{"name":"totalClaimedParent","type":"uint256","internalType":"uint256"}]}],"stateMutability":"view"},{"type":"function","name":"getTotalClaimableRewards","inputs":[{"name":"account","type":"address","internalType":"address"},{"name":"virtualIds","type":"uint256[]","internalType":"uint256[]"},{"name":"contributionNftIds","type":"uint256[]","internalType":"uint256[]"}],"outputs":[{"name":"","type":"uint256","internalType":"uint256"}],"stateMutability":"view"},{"type":"function","name":"getVirtualTokenAddress","inputs":[{"name":"nft","type":"address","internalType":"contract IAgentNft"},{"name":"virtualId","type":"uint256","internalType":"uint256"}],"outputs":[{"name":"","type":"address","internalType":"address"}],"stateMutability":"view"},{"type":"function","name":"grantRole","inputs":[{"name":"role","type":"bytes32","internalType":"bytes32"},{"name":"account","type":"address","internalType":"address"}],"outputs":[],"stateMutability":"nonpayable"},{"type":"function","name":"hasRole","inputs":[{"name":"role","type":"bytes32","internalType":"bytes32"},{"name":"account","type":"address","internalType":"address"}],"outputs":[{"name":"","type":"bool","internalType":"bool"}],"stateMutability":"view"},{"type":"function","name":"initialize","inputs":[{"name":"rewardToken_","type":"address","internalType":"address"},{"name":"agentNft_","type":"address","internalType":"address"},{"name":"contributionNft_","type":"address","internalType":"address"},{"name":"serviceNft_","type":"address","internalType":"address"},{"name":"settings_","type":"tuple","internalType":"struct RewardSettingsCheckpoints.RewardSettings","components":[{"name":"protocolShares","type":"uint16","internalType":"uint16"},{"name":"contributorShares","type":"uint16","internalType":"uint16"},{"name":"stakerShares","type":"uint16","internalType":"uint16"},{"name":"parentShares","type":"uint16","internalType":"uint16"},{"name":"stakeThreshold","type":"uint256","internalType":"uint256"}]}],"outputs":[],"stateMutability":"nonpayable"},{"type":"function","name":"protocolRewards","inputs":[],"outputs":[{"name":"","type":"uint256","internalType":"uint256"}],"stateMutability":"view"},{"type":"function","name":"renounceRole","inputs":[{"name":"role","type":"bytes32","internalType":"bytes32"},{"name":"callerConfirmation","type":"address","internalType":"address"}],"outputs":[],"stateMutability":"nonpayable"},{"type":"function","name":"revokeRole","inputs":[{"name":"role","type":"bytes32","internalType":"bytes32"},{"name":"account","type":"address","internalType":"address"}],"outputs":[],"stateMutability":"nonpayable"},{"type":"function","name":"rewardCount","inputs":[{"name":"virtualId","type":"uint256","internalType":"uint256"}],"outputs":[{"name":"","type":"uint256","internalType":"uint256"}],"stateMutability":"view"},{"type":"function","name":"rewardToken","inputs":[],"outputs":[{"name":"","type":"address","internalType":"address"}],"stateMutability":"view"},{"type":"function","name":"saveToken","inputs":[{"name":"_token","type":"address","internalType":"address"},{"name":"_receiver","type":"address","internalType":"address"},{"name":"_amount","type":"uint256","internalType":"uint256"}],"outputs":[],"stateMutability":"nonpayable"},{"type":"function","name":"serviceNft","inputs":[],"outputs":[{"name":"","type":"address","internalType":"address"}],"stateMutability":"view"},{"type":"function","name":"setPrevTokens","inputs":[{"name":"virtualIds","type":"uint256[]","internalType":"uint256[]"},{"name":"tokens","type":"address[]","internalType":"address[]"}],"outputs":[],"stateMutability":"nonpayable"},{"type":"function","name":"setRewardSettings","inputs":[{"name":"protocolShares_","type":"uint16","internalType":"uint16"},{"name":"contributorShares_","type":"uint16","internalType":"uint16"},{"name":"stakerShares_","type":"uint16","internalType":"uint16"},{"name":"parentShares_","type":"uint16","internalType":"uint16"},{"name":"stakeThreshold_","type":"uint256","internalType":"uint256"}],"outputs":[],"stateMutability":"nonpayable"},{"type":"function","name":"supportsInterface","inputs":[{"name":"interfaceId","type":"bytes4","internalType":"bytes4"}],"outputs":[{"name":"","type":"bool","internalType":"bool"}],"stateMutability":"view"},{"type":"function","name":"updateRefContracts","inputs":[{"name":"rewardToken_","type":"address","internalType":"address"},{"name":"agentNft_","type":"address","internalType":"address"},{"name":"contributionNft_","type":"address","internalType":"address"},{"name":"serviceNft_","type":"address","internalType":"address"}],"outputs":[],"stateMutability":"nonpayable"},{"type":"function","name":"validatorPoolRewards","inputs":[],"outputs":[{"name":"","type":"uint256","internalType":"uint256"}],"stateMutability":"view"},{"type":"function","name":"withdrawProtocolRewards","inputs":[{"name":"recipient","type":"address","internalType":"address"}],"outputs":[],"stateMutability":"nonpayable"},{"type":"function","name":"withdrawValidatorPoolRewards","inputs":[{"name":"recipient","type":"address","internalType":"address"}],"outputs":[],"stateMutability":"nonpayable"},{"type":"event","name":"DatasetRewardsClaimed","inputs":[{"name":"nftId","type":"uint256","indexed":false,"internalType":"uint256"},{"name":"account","type":"address","indexed":false,"internalType":"address"},{"name":"total","type":"uint256","indexed":false,"internalType":"uint256"}],"anonymous":false},{"type":"event","name":"Initialized","inputs":[{"name":"version","type":"uint64","indexed":false,"internalType":"uint64"}],"anonymous":false},{"type":"event","name":"NewAgentReward","inputs":[{"name":"mainIndex","type":"uint32","indexed":false,"internalType":"uint32"},{"name":"virtualId","type":"uint256","indexed":false,"internalType":"uint256"},{"name":"validatorAmount","type":"uint256","indexed":false,"internalType":"uint256"},{"name":"contributorAmount","type":"uint256","indexed":false,"internalType":"uint256"},{"name":"coreAmount","type":"uint256","indexed":false,"internalType":"uint256"}],"anonymous":false},{"type":"event","name":"NewMainReward","inputs":[{"name":"pos","type":"uint32","indexed":true,"internalType":"uint32"},{"name":"amount","type":"uint256","indexed":false,"internalType":"uint256"},{"name":"agentCount","type":"uint256","indexed":false,"internalType":"uint256"},{"name":"totalStaked","type":"uint256","indexed":false,"internalType":"uint256"}],"anonymous":false},{"type":"event","name":"ParentSharesUpdated","inputs":[{"name":"shares","type":"uint256","indexed":false,"internalType":"uint256"}],"anonymous":false},{"type":"event","name":"RefContractsUpdated","inputs":[{"name":"rewardToken","type":"address","indexed":false,"internalType":"address"},{"name":"agentNft","type":"address","indexed":false,"internalType":"address"},{"name":"contributionNft","type":"address","indexed":false,"internalType":"address"},{"name":"serviceNft","type":"address","indexed":false,"internalType":"address"}],"anonymous":false},{"type":"event","name":"RewardSettingsUpdated","inputs":[{"name":"protocolShares","type":"uint16","indexed":false,"internalType":"uint16"},{"name":"contributorShares","type":"uint16","indexed":false,"internalType":"uint16"},{"name":"stakerShares","type":"uint16","indexed":false,"internalType":"uint16"},{"name":"parentShares","type":"uint16","indexed":false,"internalType":"uint16"},{"name":"stakeThreshold","type":"uint256","indexed":false,"internalType":"uint256"}],"anonymous":false},{"type":"event","name":"RoleAdminChanged","inputs":[{"name":"role","type":"bytes32","indexed":true,"internalType":"bytes32"},{"name":"previousAdminRole","type":"bytes32","indexed":true,"internalType":"bytes32"},{"name":"newAdminRole","type":"bytes32","indexed":true,"internalType":"bytes32"}],"anonymous":false},{"type":"event","name":"RoleGranted","inputs":[{"name":"role","type":"bytes32","indexed":true,"internalType":"bytes32"},{"name":"account","type":"address","indexed":true,"internalType":"address"},{"name":"sender","type":"address","indexed":true,"internalType":"address"}],"anonymous":false},{"type":"event","name":"RoleRevoked","inputs":[{"name":"role","type":"bytes32","indexed":true,"internalType":"bytes32"},{"name":"account","type":"address","indexed":true,"internalType":"address"},{"name":"sender","type":"address","indexed":true,"internalType":"address"}],"anonymous":false},{"type":"event","name":"ServiceRewardsClaimed","inputs":[{"name":"nftId","type":"uint256","indexed":false,"internalType":"uint256"},{"name":"account","type":"address","indexed":false,"internalType":"address"},{"name":"total","type":"uint256","indexed":false,"internalType":"uint256"},{"name":"childrenAmount","type":"uint256","indexed":false,"internalType":"uint256"}],"anonymous":false},{"type":"event","name":"StakeThresholdUpdated","inputs":[{"name":"threshold","type":"uint256","indexed":false,"internalType":"uint256"}],"anonymous":false},{"type":"event","name":"StakerRewardClaimed","inputs":[{"name":"virtualId","type":"uint256","indexed":false,"internalType":"uint256"},{"name":"amount","type":"uint256","indexed":false,"internalType":"uint256"},{"name":"staker","type":"address","indexed":false,"internalType":"address"}],"anonymous":false},{"type":"event","name":"TokenSaved","inputs":[{"name":"by","type":"address","indexed":true,"internalType":"address"},{"name":"receiver","type":"address","indexed":true,"internalType":"address"},{"name":"token","type":"address","indexed":true,"internalType":"address"},{"name":"amount","type":"uint256","indexed":false,"internalType":"uint256"}],"anonymous":false},{"type":"event","name":"ValidatorRewardClaimed","inputs":[{"name":"virtualId","type":"uint256","indexed":false,"internalType":"uint256"},{"name":"amount","type":"uint256","indexed":false,"internalType":"uint256"},{"name":"validator","type":"address","indexed":false,"internalType":"address"}],"anonymous":false},{"type":"error","name":"AccessControlBadConfirmation","inputs":[]},{"type":"error","name":"AccessControlUnauthorizedAccount","inputs":[{"name":"account","type":"address","internalType":"address"},{"name":"neededRole","type":"bytes32","internalType":"bytes32"}]},{"type":"error","name":"AddressEmptyCode","inputs":[{"name":"target","type":"address","internalType":"address"}]},{"type":"error","name":"AddressInsufficientBalance","inputs":[{"name":"account","type":"address","internalType":"address"}]},{"type":"error","name":"CheckpointUnorderedInsertion","inputs":[]},{"type":"error","name":"ERC5805FutureLookup","inputs":[{"name":"timepoint","type":"uint256","internalType":"uint256"},{"name":"clock","type":"uint32","internalType":"uint32"}]},{"type":"error","name":"FailedInnerCall","inputs":[]},{"type":"error","name":"InvalidInitialization","inputs":[]},{"type":"error","name":"NotGovError","inputs":[]},{"type":"error","name":"NotInitializing","inputs":[]},{"type":"error","name":"NotOwnerError","inputs":[]},{"type":"error","name":"SafeCastOverflowedUintDowncast","inputs":[{"name":"bits","type":"uint8","internalType":"uint8"},{"name":"value","type":"uint256","internalType":"uint256"}]},{"type":"error","name":"SafeERC20FailedOperation","inputs":[{"name":"token","type":"address","internalType":"address"}]}],"bytecode":{"object":"0x608080604052346015576135cc908161001a8239f35b5f80fdfe6080806040526004361015610012575f80fd5b5f3560e01c90816301ffc9a7146117a25750806304b0ed531461175d578063056903711461170e57806307c1aa1a146116e65780630e449aeb146115e85780631f1aea42146114fd578063248a9ca3146114d357806329df6479146114b65780632f2ff15d1461147957806336568abe146114355780633a23ab06146113e557806348d329ca146113bf5780634ba021dc1461132057806357ee9982146112a857806359974e3814610e7357806376175b0614610e3957806389e53e6b14610e15578063918f867414610df957806391d1485414610db15780639282495b14610b7f5780639afdb2c214610a795780639cbef4a914610a51578063a217fddf14610a37578063a834ab7114610933578063ae956363146108c0578063ae9c46ae14610759578063b43fb074146106c3578063b536818a14610689578063d547741f14610645578063db0a67331461058d578063dc247ba514610570578063e36f1d0414610546578063e56efef51461051e578063eca1358b146101cd5763f7c618c11461019d575f80fd5b346101c9575f3660031901126101c95760015460405160309190911c6001600160a01b03168152602090f35b5f80fd5b346101c9576101203660031901126101c9576101e76117f5565b6101ef61180b565b6101f7611821565b90610200611837565b9060a03660831901126101c95760405161021981611883565b60843561ffff811681036101c957815260a43561ffff811681036101c9576020820190815260c4359361ffff851685036101c9576040830194855260e4359561ffff871687036101c9576060840196875260808401946101043586525f80516020613577833981519152549860ff8a60401c1615996001600160401b03811680159081610516575b600114908161050c575b159081610503575b506104f45767ffffffffffffffff1981166001175f80516020613577833981519152558a6104c8575b50600180546601000000000000600160d01b03191660309290921b6601000000000000600160d01b0316919091179055600280546001600160a01b03199081166001600160a01b03938416179091556003805482169383169390931790925560048054909216921691909117905560075494851561047c575f1986019586116104b45761036886612783565b5061038b60016040519261037b8461189e565b63ffffffff8154168452016127b8565b602082015263ffffffff8151166104a5575163ffffffff1661047c576103b360029596612783565b509561ffff600188019451169261ffff60301b65ffff0000000063ffff00008754935160101b16935160201b16935160301b169361ffff60301b199165ffffffffffff191617161717179055519101555b61040d33612527565b50600165ffffffffffff198154161760015561042557005b68ff0000000000000000195f8051602061357783398151915254165f80516020613577833981519152557fc7f505b2f371ae2175ee4913f4499e1f2633a7b5936321eed1cdaeb6115181d2602060405160018152a1005b50509150506104a09150604051906104938261189e565b5f82526020820152613315565b610404565b632520601d60e01b5f5260045ffd5b634e487b7160e01b5f52601160045260245ffd5b68ffffffffffffffffff191668010000000000000001175f80516020613577833981519152558a6102dc565b63f92ee8a960e01b5f5260045ffd5b9050158c6102b3565b303b1591506102ab565b8c91506102a1565b346101c9575f3660031901126101c9576004546040516001600160a01b039091168152602090f35b346101c95760203660031901126101c9576004355f526006602052602060405f2054604051908152f35b346101c9575f3660031901126101c9576020600954604051908152f35b346101c95760203660031901126101c9576105a66117f5565b335f9081525f80516020613557833981519152602052604090205460ff16156106365760095480156105f1576001546105eb929060301c6001600160a01b03166126de565b5f600955005b60405162461bcd60e51b815260206004820152601960248201527f4e6f2076616c696461746f7220706f6f6c2072657761726473000000000000006044820152606490fd5b631f43c9cf60e31b5f5260045ffd5b346101c95760403660031901126101c95761068760043561066461180b565b9061068261067d825f525f602052600160405f20015490565b6124ef565b61265e565b005b346101c9575f3660031901126101c95760206040517f0603f2636f0ca34ae3ea5a23bb826e2bd2ffd59fb1c01edc1ba10fba2899d1ba8152f35b346101c95760403660031901126101c9576106dc61194e565b6024356001600160401b0381116101c9576106fb9036906004016118f1565b335f9081525f80516020613557833981519152602052604090205460ff161561063657610726611b03565b5061072f6127fb565b905f5b81518110156106875780610753848661074d60019587611b7c565b51612834565b01610732565b346101c95760403660031901126101c9576004356001600160401b0381116101c9576107899036906004016118f1565b602435906001600160401b0382116101c957366023830112156101c95781600401356107b4816118da565b926107c260405194856118b9565b8184526024602085019260051b820101903682116101c957602401915b8183106108a0575050335f9081525f80516020613557833981519152602052604090205460ff1615905061063657805182510361086b575f5b8151811015610687576001906001600160a01b036108368286611b7c565b51166108428285611b7c565b515f52601060205260405f20906bffffffffffffffffffffffff60a01b82541617905501610818565b60405162461bcd60e51b815260206004820152600d60248201526c125b9d985b1a59081a5b9c1d5d609a1b6044820152606490fd5b82356001600160a01b03811681036101c9578152602092830192016107df565b346101c95760203660031901126101c95761092f6108e46108df61194e565b611e1c565b6040519182918291909160808060a083019461ffff815116845261ffff602082015116602085015261ffff604082015116604085015261ffff60608201511660608501520151910152565b0390f35b346101c95760803660031901126101c95761094c6117f5565b61095461180b565b61095c611821565b91610965611837565b335f9081525f80516020613557833981519152602052604090205490939060ff161561063657600180546601000000000000600160d01b031916603084901b6601000000000000600160d01b0316179055600280546001600160a01b03199081166001600160a01b0395861690811790925560038054821693861693841790556004805490911695851695861790556040805194909316845260208401529082015260608101919091527fa76b17940d158ada820561f31a130c86950044ee45c624524fa055bbfd386b3790608090a1005b346101c9575f3660031901126101c95760206040515f8152f35b346101c9575f3660031901126101c9576002546040516001600160a01b039091168152602090f35b346101c95760603660031901126101c957610a926117f5565b610a9a61180b565b335f9081527fd6258023de8dfbb5912550ba7b6613517bf13c442784ee5998ddac4edb10529a602052604090205490916044359160ff1615610b25576001600160a01b031691610aeb8282856126de565b6040519182526001600160a01b03169033907f30d87cec6b4c56cede1018725d1e6d9304e2f7ee6d25b004b7e2183f793f26bc90602090a4005b60405162461bcd60e51b815260206004820152602c60248201527f546f6b656e53617665722e6f6e6c79546f6b656e53617665723a207065726d6960448201526b1cdcda5bdb8819195b9a595960a21b6064820152608490fd5b346101c95760a03660031901126101c95760043561ffff81168091036101c95760243561ffff81168091036101c9576044359161ffff83168093036101c95760643561ffff81168091036101c957335f9081525f805160206135578339815191526020526040902054608435919060ff161561063657610bfe43612758565b9460405194610c0c86611883565b848652602086018181526040870183815260608801978589526080810190878252600754938415155f14610d62575f1985019485116104b457610c4e85612783565b509a610c7360016040519d8e610c638161189e565b63ffffffff8254169052016127b8565b60208d015263ffffffff808d51169d16809d116104a5578c7ff24f4e6211663f2bd5348bf57d8577095eacae708ce9604d177fe3ac6c0ab5a39d63ffffffff60a09e5116145f14610d395750610ccb60029596612783565b509561ffff600188019451169261ffff60301b65ffff0000000063ffff00008754935160101b16935160201b16935160301b169361ffff60301b199165ffffffffffff191617161717179055519101555b6040519485526020850152604084015260608301526080820152a1005b945050509050610d5d925060405191610d518361189e565b82526020820152613315565b610d1c565b50905060a09850610d5d92507ff24f4e6211663f2bd5348bf57d8577095eacae708ce9604d177fe3ac6c0ab5a399915063ffffffff60405192610da48461189e565b1682526020820152613315565b346101c95760403660031901126101c957610dca61180b565b6004355f525f60205260405f209060018060a01b03165f52602052602060ff60405f2054166040519015158152f35b346101c9575f3660031901126101c95760206040516127108152f35b346101c9575f3660031901126101c957610e2d611b03565b5061092f6108e46127fb565b346101c9575f3660031901126101c95760206040517fd9d917c4034cff8a8c5fa1e40f9fbaf906b827c33ae3ab1fcabbb616cb8ef24d8152f35b346101c95760203660031901126101c957335f9081525f8051602061355783398151915260205260409020546004359060ff1615610636578015611272576001546040516323b872dd60e01b602082015233602482015230604482015260648082018490528152610efa9160301c6001600160a01b0316610ef56084836118b9565b613263565b610f02611b03565b50610f3e610f0e6127fb565b91612710610f2861ffff610f206127fb565b511683612719565b0490610f3682600854611ba4565b600855611cb3565b6002546040516318160ddd60e01b8152925f9283929091906001600160a01b0316602086600481845afa958615611233575f9661123e575b5094610f83600554612758565b63ffffffff6080600194019116965b828411156110a75750505050610fa743612758565b9263ffffffff60405194610fba86611868565b168452602084019282845260408501948186526060810190838252600554600160401b81101561109357806001610ff49201600555611bb1565b929092611080577f7b41475975a5b886cf9ebae456c452d6d52cbc40947997c7e4955d1fa0ee17fa9760609763ffffffff8060039551161663ffffffff198654161785555160018501555160028401555191015560405192835260208301526040820152a26005545f1981019081116104b457611072602091612758565b63ffffffff60405191168152f35b634e487b7160e01b5f525f60045260245ffd5b634e487b7160e01b5f52604160045260245ffd5b90919295946040519063020e5c6160e51b8252876004830152602082602481865afa918215611233575f92611200575b50835182106111f457816110ed6110f39261274a565b97611ba4565b966001549165ffffffffffff83169265ffffffffffff84146104b45765ffffffffffff60018501169065ffffffffffff191617600155815f52600660205260405f2092604051906111438261184d565b815260208101938b855260408201928352606082015f815260808301905f825260a08401925f84528054600160401b8110156110935761118891600182018155611d6f565b959095611080576111ec9765ffffffffffff600496511665ffffffffffff198854161787555169ffffffff00000000000087549160301b169069ffffffff00000000000019161786555160018601555160028501555160038401555191015561274a565b929190610f92565b95966111ec915061274a565b9091506020813d821161122b575b8161121b602093836118b9565b810103126101c9575190896110d7565b3d915061120e565b6040513d5f823e3d90fd5b9095506020813d60201161126a575b8161125a602093836118b9565b810103126101c957519486610f76565b3d915061124d565b60405162461bcd60e51b815260206004820152600e60248201526d125b9d985b1a5908185b5bdd5b9d60921b6044820152606490fd5b346101c95760403660031901126101c95760243563ffffffff811681036101c9576112d760c091600435611d88565b60a06040519165ffffffffffff815116835263ffffffff6020820151166020840152604081015160408401526060810151606084015260808101516080840152015160a0820152f35b346101c95760203660031901126101c9576113396117f5565b335f9081525f80516020613557833981519152602052604090205460ff16156106365760085480156113845760015461137e929060301c6001600160a01b03166126de565b5f600855005b60405162461bcd60e51b81526020600482015260136024820152724e6f2070726f746f636f6c207265776172647360681b6044820152606490fd5b346101c95760203660031901126101c95760206113dd600435611cc0565b604051908152f35b346101c95760203660031901126101c957608061140861140361194e565b611c05565b60606040519163ffffffff8151168352602081015160208401526040810151604084015201516060820152f35b346101c95760403660031901126101c95761144e61180b565b336001600160a01b0382160361146a576106879060043561265e565b63334bd91960e11b5f5260045ffd5b346101c95760403660031901126101c95761068760043561149861180b565b906114b161067d825f525f602052600160405f20015490565b6125d6565b346101c9575f3660031901126101c9576020600854604051908152f35b346101c95760203660031901126101c95760206113dd6004355f525f602052600160405f20015490565b346101c95760403660031901126101c9576004356001600160401b0381116101c95761152d9036906004016118f1565b6024356001600160401b0381116101c95761154c9036906004016118f1565b5f5b82518110156115c0578061158761156760019386611b7c565b5183600f5461157960ff821615612108565b60ff191617600f5533612145565b6115b060ff19600f54168361159c8488611b7c565b51916115a782612108565b17600f55612213565b60ff19600f5416600f550161154e565b505f5b815181101561068757806115e26115dc60019385611b7c565b516122d5565b016115c3565b346101c95760603660031901126101c9576116016117f5565b6024356001600160401b0381116101c9576116209036906004016118f1565b6044356001600160401b0381116101c95761163f9036906004016118f1565b905f925f935b825185101561168d5761168560019161167f61166b6116648988611b7c565b5186611f6b565b61167f6116788a89611b7c565b5187612011565b90611ba4565b940193611645565b835f915b81518310156116db576116d360019161167f6116ad8686611b7c565b5161167f6116cd6116bd83611b2d565b6060602082015191015190611cb3565b91611cc0565b920191611691565b602090604051908152f35b346101c9575f3660031901126101c9576003546040516001600160a01b039091168152602090f35b346101c95760203660031901126101c95760a061172c600435611b2d565b6080604051918051835260208101516020840152604081015160408401526060810151606084015201516080820152f35b346101c95760403660031901126101c9576004356001600160a01b03811681036101c95761179060209160243590611a74565b6040516001600160a01b039091168152f35b346101c95760203660031901126101c9576004359063ffffffff60e01b82168092036101c957602091637965db0b60e01b81149081156117e4575b5015158152f35b6301ffc9a760e01b149050836117dd565b600435906001600160a01b03821682036101c957565b602435906001600160a01b03821682036101c957565b604435906001600160a01b03821682036101c957565b606435906001600160a01b03821682036101c957565b60c081019081106001600160401b0382111761109357604052565b608081019081106001600160401b0382111761109357604052565b60a081019081106001600160401b0382111761109357604052565b604081019081106001600160401b0382111761109357604052565b90601f801991011681019081106001600160401b0382111761109357604052565b6001600160401b0381116110935760051b60200190565b9080601f830112156101c9578135611908816118da565b9261191660405194856118b9565b81845260208085019260051b8201019283116101c957602001905b82821061193e5750505090565b8135815260209182019101611931565b6004359063ffffffff821682036101c957565b51906001600160a01b03821682036101c957565b519060ff821682036101c957565b6020818303126101c9578051906001600160401b0382116101c957019060a0828203126101c957604051916119b783611883565b6119c081611961565b83526119ce60208201611961565b60208401526119df60408201611961565b60408401526119f060608201611961565b60608401526080810151906001600160401b0382116101c957019080601f830112156101c9578151611a21816118da565b92611a2f60405194856118b9565b81845260208085019260051b8201019283116101c957602001905b828210611a5c57505050608082015290565b60208091611a6984611975565b815201910190611a4a565b5f828152601060205260409020546001600160a01b0316918215611a9757505090565b604051635652386760e11b8152600481019190915291505f90829060249082906001600160a01b03165afa908115611233575f91611ae1575b50602001516001600160a01b031690565b611afd91503d805f833e611af581836118b9565b810190611983565b5f611ad0565b60405190611b1082611883565b5f6080838281528260208201528260408201528260608201520152565b611b35611b03565b505f52600c60205260405f20600460405191611b5083611883565b805483526001810154602084015260028101546040840152600381015460608401520154608082015290565b8051821015611b905760209160051b010190565b634e487b7160e01b5f52603260045260245ffd5b919082018092116104b457565b600554811015611b905760055f5260205f209060021b01905f90565b90604051611bda81611868565b60606003829463ffffffff815416845260018101546020850152600281015460408501520154910152565b611c31611c37915f6060604051611c1b81611868565b8281528260208201528260408201520152611bb1565b50611bcd565b90565b6020818303126101c9578051906001600160401b0382116101c957019080601f830112156101c9578151611c6d816118da565b92611c7b60405194856118b9565b81845260208085019260051b8201019283116101c957602001905b828210611ca35750505090565b8151815260209182019101611c96565b919082039182116104b457565b6003546040516349ae8dc360e01b815260048101929092525f91908290829060249082906001600160a01b03165afa908115611233575f91611d4d575b50611d06611b03565b505f915b8151831015611d4757611d3f60019161167f611d2f611d298787611b7c565b51611b2d565b6080604082015191015190611cb3565b920191611d0a565b91505090565b611d6991503d805f833e611d6181836118b9565b810190611c3a565b5f611cfd565b8054821015611b90575f52600560205f20910201905f90565b90611dc9915f60a0604051611d9c8161184d565b82815282602082015282604082015282606082015282608082015201525f52600660205260405f20611d6f565b50600460405191611dd98361184d565b63ffffffff815465ffffffffffff8116855260301c166020840152600181015460408401526002810154606084015260038101546080840152015460a082015290565b611e24611b03565b5063ffffffff80611e3443612758565b1691169080821015611f555750611e49611b03565b50600754905f918060058111611f0e575b5091905b828210611eb757505080611e975750604051611e7981611883565b5f81525f60208201525f60408201525f60608201525f608082015290565b5f1981019081116104b4576001611eb0611c3792612783565b50016127b8565b9091611eca81841860011c828516611ba4565b908263ffffffff611eda84612783565b5054161115611eec5750915b90611e5e565b92506001810180911115611ee657634e487b7160e01b5f52601160045260245ffd5b80611f1b611f21926133b8565b90611cb3565b9063ffffffff611f3083612783565b505416831015611f4257505b5f611e5a565b9250600181018091116104b45791611f3c565b90631f2fd49d60e01b5f5260045260245260445ffd5b90805f52600660205260405f205490811561200a5790602092611f988360018060a01b0360025416611a74565b9060018060a01b0381165f52600a855260405f20845f52855260405f2063ffffffff600160405192611fc98461189e565b8054845201541695869101525f94935b838510611fe857505050505090565b9091929394611fff60019161167f8686868b613033565b950193929190611fd9565b5050505f90565b90805f52600660205260405f205490811561200a579060209260018060a01b0316805f52600b845260405f20835f52845260405f2063ffffffff60016040519261205a8461189e565b8054845201541694859101525f93925b828410612078575050505090565b9091929361208e61208886612758565b83611d88565b6120ac63ffffffff6120a581602085015116611c05565b5116611e1c565b90845f52600e60205265ffffffffffff8060405f20925116165f5260205261ffff6040805f205492015116612710039161271083116104b4576127106120f76001946120fe94612719565b0490611ba4565b940192919061206a565b1561210f57565b60405162461bcd60e51b815260206004820152600e60248201526d31b0b73737ba103932b2b73a32b960911b6044820152606490fd5b61214f8282611f6b565b90811561220e577f42f11e929ce5ba1683d17c5418a57e4d7895aa71fd11052c1b0f2b9c5229424b828461220c955f52600660205260405f205460018060a01b0385165f52600a60205260405f20825f526020526121b060405f2091612758565b63ffffffff60018301911663ffffffff198254161790556121d2838254611ba4565b90556040805191825260208201929092526001600160a01b03841691810191909152606090a160015460301c6001600160a01b03166126de565b565b505050565b61221d8133612011565b80156122d1577f91f2c2e59ae9c7e1b5cc4bbe3fb77e2835fd3532ebdd0118a337980223a6703a6122b88361220c945f52600660205260405f2054335f52600b60205260405f20825f5260205261227760405f2091612758565b63ffffffff60018301911663ffffffff19825416179055612299858254611ba4565b9055604080519182526020820185905233908201529081906060820190565b0390a1600154339060301c6001600160a01b03166126de565b5050565b6003546040516331a9108f60e11b81526004810183905290602090829060249082906001600160a01b03165afa908115611233575f916124b5575b50336001600160a01b039091160361248057602491815f52600c60205260405f209060036001830154920161235161234a82548095611cb3565b8094611ba4565b90556003546040516349ae8dc360e01b815260048101859052945f9186919082906001600160a01b03165afa938415611233575f94612464575b505f905f5b8551811015612404576123a38187611b7c565b515f52600c60205260405f206004600282015491016123c481548093611cb3565b91826123d6575b505050600101612390565b82600194969781936123ee6123fb966123f595611ba4565b9055611ba4565b95611ba4565b92905f806123cb565b50935091811561220e577f84509fc9cac2261efb3b24d2a3bf43e427549b5b0729ff9e970fc8a1490581cf928261244b6080943360018060a01b0360015460301c166126de565b60405192835233602084015260408301526060820152a1565b6124799194503d805f833e611d6181836118b9565b925f61238b565b60405162461bcd60e51b815260206004820152600d60248201526c2737ba1027232a1037bbb732b960991b6044820152606490fd5b90506020813d6020116124e7575b816124d0602093836118b9565b810103126101c9576124e190611961565b5f612310565b3d91506124c3565b5f8181526020818152604080832033845290915290205460ff16156125115750565b63e2517d3f60e01b5f523360045260245260445ffd5b6001600160a01b0381165f9081527fad3228b676f7d3cd4284a5443f17f1962b36e491b30a40b2405849e597ba5fb5602052604090205460ff166125d1576001600160a01b03165f8181527fad3228b676f7d3cd4284a5443f17f1962b36e491b30a40b2405849e597ba5fb560205260408120805460ff191660011790553391907f2f8788117e7eff1d82e926ec794901d17c78024a50270940304540a733656f0d8180a4600190565b505f90565b5f818152602081815260408083206001600160a01b038616845290915290205460ff16612658575f818152602081815260408083206001600160a01b0395909516808452949091528120805460ff19166001179055339291907f2f8788117e7eff1d82e926ec794901d17c78024a50270940304540a733656f0d9080a4600190565b50505f90565b5f818152602081815260408083206001600160a01b038616845290915290205460ff1615612658575f818152602081815260408083206001600160a01b0395909516808452949091528120805460ff19169055339291907ff6391f5c32d9c69d2a47ea670b442974b53935d1edc7fd64eb21e047a839171b9080a4600190565b60405163a9059cbb60e01b60208201526001600160a01b03909216602483015260448083019390935291815261220c91610ef56064836118b9565b818102929181159184041417156104b457565b8115612736570490565b634e487b7160e01b5f52601260045260245ffd5b5f1981146104b45760010190565b63ffffffff811161276c5763ffffffff1690565b6306dfcc6560e41b5f52602060045260245260445ffd5b600754811015611b905760075f52600360205f20910201905f90565b8054821015611b90575f52600360205f20910201905f90565b906040516127c581611883565b60806001829461ffff81548181168652818160101c166020870152818160201c16604087015260301c1660608501520154910152565b612803611b03565b50600754806128195750604051611e7981611883565b5f1981019081116104b4576001611eb0611c3792600761279f565b929092805f52600660205260405f20541561302d57612855611c3185611bb1565b5f82815260066020526040902080549192915f1981019081116104b45761287b91611d6f565b5091825463ffffffff871663ffffffff8260301c160361301757600284015415801590613020575b613017576128ca60208301519260606128c160018801548096612719565b9101519061272c565b916128f16127106128e361ffff60208b01511686612719565b046003870194818655611cb3565b6002868101829055546040516306d4d3c160e21b8152600481018790529291906001600160a01b0316602084602481845afa938415611233575f94612fe3575b50604051631b59192d60e21b81526004810188905291602083602481855afa928315611233575f93612faf575b505f5b858110612dcd575050505050505080549260018060a01b036002541692604051635652386760e11b81528160048201525f81602481885afa8015611233576080915f91612db3575b5001516004546003545f84815260066020526040902080546001600160a01b039384169c949a92909316949193925f1981019081116104b4576024996129f36129fc925f94611d6f565b509b519061272c565b9760048b01988955604051998a80926338ea5da760e21b82528560048301525afa978815611233575f98612d97575b505f5b8851811015612b7b57808c6020612a476024948d611b7c565b51916040519485809263e6aed85760e01b82528560048301525afa908115611233578e935f92612b45575b508115612b3a57805f52600c6020528160405f20805415612b32575b505065ffffffffffff8d54165f52600d602052602060405f20916024604051809781936312903cd960e11b835260048301525afa938415611233575f94612af4575b5060ff600194165f52602052612aeb60405f20918254611ba4565b90555b01612a2e565b93506020843d8211612b2a575b81612b0e602093836118b9565b810103126101c95760ff612b23600195611975565b9450612ad0565b3d9150612b01565b55815f612a8e565b505060019150612aee565b935090506020833d8211612b73575b81612b61602093836118b9565b810103126101c9578d9251905f612a72565b3d9150612b54565b5090919295999498606061ffff91989598015116965f5b8551811015612d375780612ba78d9288611b7c565b51805f52600c60205260405f208c8154948515612d2a57612bd260249665ffffffffffff9254612719565b9154165f52600d60205260405f2060208c604051978880926312903cd960e11b82528860048301525afa8015611233578d965f91612ce0575b5091612c269160ff602094165f52835260405f20549061272c565b9260246040518097819363dbdd0aab60e01b835260048301525afa8015611233578c945f91612ca8575b50612c8791600195600292155f14612c905750612c6e5f8095611cb3565b612c7c878301918254611ba4565b905501918254611ba4565b90555b01612b92565b612710612ca0612c6e9287612719565b048095611cb3565b9450506020843d8211612cd8575b81612cc3602093836118b9565b810103126101c95792518b9390612c87612c50565b3d9150612cb6565b91929650506020813d8211612d22575b81612cfd602093836118b9565b810103126101c9578c9560209260ff612d18612c2694611975565b9294505091612c0b565b3d9150612cf0565b5050505060019150612c8a565b5094509450945096505060a093507f3b82ed67d9fe68169836bacb20a42229591c9b8376eb5a4314f8f2f0439671f4946004600283015491549201549263ffffffff604051951685526020850152604084015260608301526080820152a1565b612dac9198503d805f833e611d6181836118b9565b965f612a2b565b612dc791503d805f833e611af581836118b9565b5f6129a9565b6040519063d809a06f60e01b8252896004830152806024830152602082604481875afa918215611233575f92612f74575b50602460206001600160a01b03612e158d88611a74565b6040516309ab24eb60e41b81526001600160a01b038716600482015293849290918391165afa9081156112335787905f92612f3f575b50612e59612e5e9286612719565b61272c565b85612eaf57612e9e600193612ea6925f915b868060a01b03165f52600e6020528b65ffffffffffff8060405f209216165f526020528160405f2055611cb3565b600954611ba4565b60095501612961565b60405163c12032d360e01b8152600481018c90526001600160a01b0384166024820152602081604481895afa80156112335787915f91612f09575b509382612f03612e9e93612e59600198612ea697612719565b91612e70565b9150506020813d8211612f37575b81612f24602093836118b9565b810103126101c957518690612ea6612eea565b3d9150612f17565b9150506020813d8211612f6c575b81612f5a602093836118b9565b810103126101c9575186612e59612e4b565b3d9150612f4d565b9091506020813d8211612fa7575b81612f8f602093836118b9565b810103126101c957612fa090611961565b905f612dfe565b3d9150612f82565b9092506020813d602011612fdb575b81612fcb602093836118b9565b810103126101c95751915f61295e565b3d9150612fbe565b9093506020813d60201161300f575b81612fff602093836118b9565b810103126101c95751925f612931565b3d9150612ff2565b50505050915050565b50600384015415156128a3565b50915050565b9061304061304692612758565b90611d88565b61305963ffffffff602083015116611c05565b8051604051622f640360e91b81526001600160a01b03858116600483015263ffffffff90921660248201529194169290602081604481875afa908115611233575f91613229575b506001600160a01b03811694851561321f57613127936130c663ffffffff835116611e1c565b5f978852600e60209081526040808a20935165ffffffffffff168a5292815297829020548351925163d7b7d40560e01b81526001600160a01b03909616600487015263ffffffff929092166024860152969394909390859081906044820190565b0381885afa938415611233575f946131e7575b5051604051630748d63560e31b81526001600160a01b03909216600483015263ffffffff1660248201529260209084908180604481015b03915afa928315611233575f936131ac575b50604061319e6131a894612e59612710979561ffff95612719565b9201511690612719565b0490565b939192506020843d6020116131df575b816131c9602093836118b9565b810103126101c957925190929091906040613183565b3d91506131bc565b919093506020823d602011613217575b81613204602093836118b9565b810103126101c95790519261317161313a565b3d91506131f7565b5050505050505f90565b90506020813d60201161325b575b81613244602093836118b9565b810103126101c95761325590611961565b5f6130a0565b3d9150613237565b81516001600160a01b03909116915f91829160200182855af13d15613309573d6001600160401b038111611093576132bd91604051916132ad6020601f19601f84011601846118b9565b82523d5f602084013e5b836134f8565b80519081151591826132e5575b50506132d35750565b635274afe760e01b5f5260045260245ffd5b81925090602091810103126101c957602001518015908115036101c9575f806132ca565b6132bd906060906132b7565b600754600160401b811015611093578060016133369201600755600761279f565b9190916110805760808163ffffffff8060029451161663ffffffff198554161784556020600185019101519061ffff825116815463ffff0000602085015160101b1665ffff00000000604086015160201b169161ffff60301b606087015160301b169361ffff60301b199165ffffffffffff1916171617171790550151910155565b80156125d1576134866001825f908460801c806134ec575b508060401c806134df575b508060201c806134d2575b508060101c806134c5575b508060081c806134b8575b508060041c806134ab575b508060021c8061349e575b50821c613497575b811c1b613427818461272c565b0160011c613435818461272c565b0160011c613443818461272c565b0160011c613451818461272c565b0160011c61345f818461272c565b0160011c61346d818461272c565b0160011c61347b818461272c565b0160011c809261272c565b80821015613492575090565b905090565b810161341a565b600291509101905f613412565b600491509101905f613407565b600891509101905f6133fc565b601091509101905f6133f1565b602091509101905f6133e6565b604091509101905f6133db565b9150506080905f6133d0565b9061351c575080511561350d57805190602001fd5b630a12f52160e11b5f5260045ffd5b8151158061354d575b61352d575090565b639996b31560e01b5f9081526001600160a01b0391909116600452602490fd5b50803b1561352556fef42cf6f079dae9a1c4905bf4a189ed49c3efccf20a4af60f202bafa7d7d85a03f0c57e16840df040f15088dc2f81fe391c3923bec73e23a9662efc9c229c6a00a26469706673582212206a9e068f75cdb6fdddeeca8ed84ef1fa58c35ad26fd3b56226fb082bb6af1e6364736f6c634300081a0033","linkReferences":{}},"methodIdentifiers":{"DEFAULT_ADMIN_ROLE()":"a217fddf","DENOMINATOR()":"918f8674","GOV_ROLE()":"b536818a","TOKEN_SAVER_ROLE()":"76175b06","agentNft()":"9cbef4a9","claimAllRewards(uint256[],uint256[])":"1f1aea42","contributionNft()":"07c1aa1a","distributeRewards(uint256)":"59974e38","distributeRewardsForAgents(uint32,uint256[])":"b43fb074","getChildrenRewards(uint256)":"48d329ca","getMainReward(uint32)":"3a23ab06","getPastRewardSettings(uint32)":"ae956363","getReward(uint256,uint32)":"57ee9982","getRewardSettings()":"89e53e6b","getRoleAdmin(bytes32)":"248a9ca3","getServiceReward(uint256)":"05690371","getTotalClaimableRewards(address,uint256[],uint256[])":"0e449aeb","getVirtualTokenAddress(address,uint256)":"04b0ed53","grantRole(bytes32,address)":"2f2ff15d","hasRole(bytes32,address)":"91d14854","initialize(address,address,address,address,(uint16,uint16,uint16,uint16,uint256))":"eca1358b","protocolRewards()":"29df6479","renounceRole(bytes32,address)":"36568abe","revokeRole(bytes32,address)":"d547741f","rewardCount(uint256)":"e36f1d04","rewardToken()":"f7c618c1","saveToken(address,address,uint256)":"9afdb2c2","serviceNft()":"e56efef5","setPrevTokens(uint256[],address[])":"ae9c46ae","setRewardSettings(uint16,uint16,uint16,uint16,uint256)":"9282495b","supportsInterface(bytes4)":"01ffc9a7","updateRefContracts(address,address,address,address)":"a834ab71","validatorPoolRewards()":"dc247ba5","withdrawProtocolRewards(address)":"4ba021dc","withdrawValidatorPoolRewards(address)":"db0a6733"},"id":1}