{"abi":[{"type":"constructor","inputs":[],"stateMutability":"nonpayable"},{"type":"function","name":"ADMIN_ROLE","inputs":[],"outputs":[{"name":"","type":"bytes32","internalType":"bytes32"}],"stateMutability":"view"},{"type":"function","name":"CREATOR_ROLE","inputs":[],"outputs":[{"name":"","type":"bytes32","internalType":"bytes32"}],"stateMutability":"view"},{"type":"function","name":"DEFAULT_ADMIN_ROLE","inputs":[],"outputs":[{"name":"","type":"bytes32","internalType":"bytes32"}],"stateMutability":"view"},{"type":"function","name":"allPairsLength","inputs":[],"outputs":[{"name":"","type":"uint256","internalType":"uint256"}],"stateMutability":"view"},{"type":"function","name":"antiSniperBuyTaxStartValue","inputs":[],"outputs":[{"name":"","type":"uint256","internalType":"uint256"}],"stateMutability":"view"},{"type":"function","name":"antiSniperTaxVault","inputs":[],"outputs":[{"name":"","type":"address","internalType":"address"}],"stateMutability":"view"},{"type":"function","name":"buyTax","inputs":[],"outputs":[{"name":"","type":"uint256","internalType":"uint256"}],"stateMutability":"view"},{"type":"function","name":"createPair","inputs":[{"name":"tokenA","type":"address","internalType":"address"},{"name":"tokenB","type":"address","internalType":"address"},{"name":"startTime","type":"uint256","internalType":"uint256"},{"name":"startTimeDelay","type":"uint256","internalType":"uint256"}],"outputs":[{"name":"","type":"address","internalType":"address"}],"stateMutability":"nonpayable"},{"type":"function","name":"getPair","inputs":[{"name":"tokenA","type":"address","internalType":"address"},{"name":"tokenB","type":"address","internalType":"address"}],"outputs":[{"name":"","type":"address","internalType":"address"}],"stateMutability":"view"},{"type":"function","name":"getRoleAdmin","inputs":[{"name":"role","type":"bytes32","internalType":"bytes32"}],"outputs":[{"name":"","type":"bytes32","internalType":"bytes32"}],"stateMutability":"view"},{"type":"function","name":"grantRole","inputs":[{"name":"role","type":"bytes32","internalType":"bytes32"},{"name":"account","type":"address","internalType":"address"}],"outputs":[],"stateMutability":"nonpayable"},{"type":"function","name":"hasRole","inputs":[{"name":"role","type":"bytes32","internalType":"bytes32"},{"name":"account","type":"address","internalType":"address"}],"outputs":[{"name":"","type":"bool","internalType":"bool"}],"stateMutability":"view"},{"type":"function","name":"initialize","inputs":[{"name":"taxVault_","type":"address","internalType":"address"},{"name":"buyTax_","type":"uint256","internalType":"uint256"},{"name":"sellTax_","type":"uint256","internalType":"uint256"},{"name":"antiSniperBuyTaxStartValue_","type":"uint256","internalType":"uint256"},{"name":"antiSniperTaxVault_","type":"address","internalType":"address"}],"outputs":[],"stateMutability":"nonpayable"},{"type":"function","name":"pairs","inputs":[{"name":"","type":"uint256","internalType":"uint256"}],"outputs":[{"name":"","type":"address","internalType":"address"}],"stateMutability":"view"},{"type":"function","name":"renounceRole","inputs":[{"name":"role","type":"bytes32","internalType":"bytes32"},{"name":"callerConfirmation","type":"address","internalType":"address"}],"outputs":[],"stateMutability":"nonpayable"},{"type":"function","name":"revokeRole","inputs":[{"name":"role","type":"bytes32","internalType":"bytes32"},{"name":"account","type":"address","internalType":"address"}],"outputs":[],"stateMutability":"nonpayable"},{"type":"function","name":"router","inputs":[],"outputs":[{"name":"","type":"address","internalType":"address"}],"stateMutability":"view"},{"type":"function","name":"sellTax","inputs":[],"outputs":[{"name":"","type":"uint256","internalType":"uint256"}],"stateMutability":"view"},{"type":"function","name":"setRouter","inputs":[{"name":"router_","type":"address","internalType":"address"}],"outputs":[],"stateMutability":"nonpayable"},{"type":"function","name":"setTaxParams","inputs":[{"name":"newVault_","type":"address","internalType":"address"},{"name":"buyTax_","type":"uint256","internalType":"uint256"},{"name":"sellTax_","type":"uint256","internalType":"uint256"},{"name":"antiSniperBuyTaxStartValue_","type":"uint256","internalType":"uint256"},{"name":"antiSniperTaxVault_","type":"address","internalType":"address"}],"outputs":[],"stateMutability":"nonpayable"},{"type":"function","name":"supportsInterface","inputs":[{"name":"interfaceId","type":"bytes4","internalType":"bytes4"}],"outputs":[{"name":"","type":"bool","internalType":"bool"}],"stateMutability":"view"},{"type":"function","name":"taxVault","inputs":[],"outputs":[{"name":"","type":"address","internalType":"address"}],"stateMutability":"view"},{"type":"event","name":"Initialized","inputs":[{"name":"version","type":"uint64","indexed":false,"internalType":"uint64"}],"anonymous":false},{"type":"event","name":"PairCreated","inputs":[{"name":"tokenA","type":"address","indexed":true,"internalType":"address"},{"name":"tokenB","type":"address","indexed":true,"internalType":"address"},{"name":"pair","type":"address","indexed":false,"internalType":"address"},{"name":"","type":"uint256","indexed":false,"internalType":"uint256"}],"anonymous":false},{"type":"event","name":"RoleAdminChanged","inputs":[{"name":"role","type":"bytes32","indexed":true,"internalType":"bytes32"},{"name":"previousAdminRole","type":"bytes32","indexed":true,"internalType":"bytes32"},{"name":"newAdminRole","type":"bytes32","indexed":true,"internalType":"bytes32"}],"anonymous":false},{"type":"event","name":"RoleGranted","inputs":[{"name":"role","type":"bytes32","indexed":true,"internalType":"bytes32"},{"name":"account","type":"address","indexed":true,"internalType":"address"},{"name":"sender","type":"address","indexed":true,"internalType":"address"}],"anonymous":false},{"type":"event","name":"RoleRevoked","inputs":[{"name":"role","type":"bytes32","indexed":true,"internalType":"bytes32"},{"name":"account","type":"address","indexed":true,"internalType":"address"},{"name":"sender","type":"address","indexed":true,"internalType":"address"}],"anonymous":false},{"type":"error","name":"AccessControlBadConfirmation","inputs":[]},{"type":"error","name":"AccessControlUnauthorizedAccount","inputs":[{"name":"account","type":"address","internalType":"address"},{"name":"neededRole","type":"bytes32","internalType":"bytes32"}]},{"type":"error","name":"InvalidInitialization","inputs":[]},{"type":"error","name":"NotInitializing","inputs":[]},{"type":"error","name":"ReentrancyGuardReentrantCall","inputs":[]}],"bytecode":{"object":"0x6080806040523460d0577ff0c57e16840df040f15088dc2f81fe391c3923bec73e23a9662efc9c229c6a005460ff8160401c1660c1576002600160401b03196001600160401b03821601605c575b604051611b7e90816100d58239f35b6001600160401b0319166001600160401b039081177ff0c57e16840df040f15088dc2f81fe391c3923bec73e23a9662efc9c229c6a005581527fc7f505b2f371ae2175ee4913f4499e1f2633a7b5936321eed1cdaeb6115181d290602090a15f80604d565b63f92ee8a960e01b5f5260045ffd5b5f80fdfe6080806040526004361015610012575f80fd5b5f3560e01c90816301ffc9a71461091057508063035f962d14610693578063248a9ca31461066d5780632f2ff15d1461063c57806336568abe146105f85780634f7041a5146105db578063574f2ba3146105be5780636b174f7d146105555780636c28e349146103b557806375b238fc1461037b57806385ed6eb8146103535780638aeda25a1461031957806391d14854146102c4578063a217fddf146102aa578063b49793651461028d578063b91ac7881461024b578063c0d7865514610208578063cc1776d3146101eb578063d547741f146101b3578063e2ad37b01461018b578063e6a439051461013a5763f887ea401461010e575f80fd5b34610136575f366003190112610136576002546040516001600160a01b039091168152602090f35b5f80fd5b3461013657604036600319011261013657610153610963565b61015b610979565b6001600160a01b039182165f90815260208181526040808320938516835292815290829020549151919092168152f35b34610136575f366003190112610136576003546040516001600160a01b039091168152602090f35b34610136576040366003190112610136576101e96004356101d2610979565b906101e46101df826109fd565b610ad6565b610c6f565b005b34610136575f366003190112610136576020600554604051908152f35b3461013657602036600319011261013657610221610963565b610229610a67565b600280546001600160a01b0319166001600160a01b0392909216919091179055005b3461013657602036600319011261013657600435600154811015610136576102746020916109d1565b905460405160039290921b1c6001600160a01b03168152f35b34610136575f366003190112610136576020600654604051908152f35b34610136575f3660031901126101365760206040515f8152f35b34610136576040366003190112610136576102dd610979565b6004355f525f80516020611ae983398151915260205260405f209060018060a01b03165f52602052602060ff60405f2054166040519015158152f35b34610136575f3660031901126101365760206040517f828634d95e775031b9ff576b159a8509d3053581a8c9c4d7d86899e0afcd882f8152f35b34610136575f366003190112610136576007546040516001600160a01b039091168152602090f35b34610136575f3660031901126101365760206040517fa49807205ce4d355092ef5a8a18f56e8913cf4a201fbe287825b095693c217758152f35b34610136576103c33661098f565b925f80516020611b29833981519152929192549460ff8660401c16159567ffffffffffffffff81168015908161054d575b6001149081610543575b15908161053a575b5061052b5767ffffffffffffffff1981166001175f80516020611b2983398151915255866104ff575b50610438610d0b565b610440610d0b565b610448610d0b565b60015f80516020611b098339815191525561046233610b1c565b5060018060a01b03166001600160601b0360a01b600354161760035560045560055560065560018060a01b03166001600160601b0360a01b60075416176007556104a857005b68ff0000000000000000195f80516020611b2983398151915254165f80516020611b29833981519152557fc7f505b2f371ae2175ee4913f4499e1f2633a7b5936321eed1cdaeb6115181d2602060405160018152a1005b68ffffffffffffffffff191668010000000000000001175f80516020611b29833981519152558661042f565b63f92ee8a960e01b5f5260045ffd5b90501588610406565b303b1591506103fe565b8891506103f4565b34610136576105633661098f565b9361056f939193610a67565b6001600160a01b0316610583811515610a1b565b6001600160601b0360a01b600354161760035560045560055560065560018060a01b03166001600160601b0360a01b60075416176007555f80f35b34610136575f366003190112610136576020600154604051908152f35b34610136575f366003190112610136576020600454604051908152f35b3461013657604036600319011261013657610611610979565b336001600160a01b0382160361062d576101e990600435610c6f565b63334bd91960e11b5f5260045ffd5b34610136576040366003190112610136576101e960043561065b610979565b906106686101df826109fd565b610bcb565b3461013657602036600319011261013657602061068b6004356109fd565b604051908152f35b34610136576080366003190112610136576106ac610963565b6106b4610979565b335f9081527f7a5b68ff0f13768bc86eb4902144e89f1547a35d6d4bf0e23c2f18b32c5a92f1602052604090205490919060ff16156108d95760025f80516020611b0983398151915254146108ca5760025f80516020611b09833981519152556001600160a01b031690610729821515610a1b565b6001600160a01b031661073d811515610a1b565b6002546001600160a01b031680156108995760405190610db280830183811067ffffffffffffffff82111761087a5760a0928492610d3784398152856020820152846040820152604435606082015260643560808201520301905ff0801561088e575f83815260208181526040808320858452825280832080546001600160a01b03199081166001600160a01b0396909616958617909155838352818420878552909252909120805490911682179055600154929091906801000000000000000084101561087a57610817846001602096016001556109d1565b81549060031b9085821b9160018060a01b03901b19161790557f0d3648bd0f6ba80134a33ba9275ac585d9d315f0ad8355cddefde31afa28d0e9604060015481519086825287820152a360015f80516020611b0983398151915255604051908152f35b634e487b7160e01b5f52604160045260245ffd5b6040513d5f823e3d90fd5b60405162461bcd60e51b81526020600482015260096024820152682737903937baba32b960b91b6044820152606490fd5b633ee5aeb560e01b5f5260045ffd5b63e2517d3f60e01b5f52336004527f828634d95e775031b9ff576b159a8509d3053581a8c9c4d7d86899e0afcd882f60245260445ffd5b34610136576020366003190112610136576004359063ffffffff60e01b821680920361013657602091637965db0b60e01b8114908115610952575b5015158152f35b6301ffc9a760e01b1490508361094b565b600435906001600160a01b038216820361013657565b602435906001600160a01b038216820361013657565b60a0906003190112610136576004356001600160a01b038116810361013657906024359060443590606435906084356001600160a01b03811681036101365790565b6001548110156109e95760015f5260205f2001905f90565b634e487b7160e01b5f52603260045260245ffd5b5f525f80516020611ae9833981519152602052600160405f20015490565b15610a2257565b60405162461bcd60e51b815260206004820152601f60248201527f5a65726f2061646472657373657320617265206e6f7420616c6c6f7765642e006044820152606490fd5b335f9081527fb16e88c42fd4e48df2dd6a2eabd6bc9aec654ec170056b470819f8892cc6431c602052604090205460ff1615610a9f57565b63e2517d3f60e01b5f52336004527fa49807205ce4d355092ef5a8a18f56e8913cf4a201fbe287825b095693c2177560245260445ffd5b5f8181525f80516020611ae98339815191526020908152604080832033845290915290205460ff1615610b065750565b63e2517d3f60e01b5f523360045260245260445ffd5b6001600160a01b0381165f9081527fb7db2dd08fcb62d0c9e08c51941cae53c267786a0b75803fb7960902fc8ef97d602052604090205460ff16610bc6576001600160a01b03165f8181527fb7db2dd08fcb62d0c9e08c51941cae53c267786a0b75803fb7960902fc8ef97d60205260408120805460ff191660011790553391907f2f8788117e7eff1d82e926ec794901d17c78024a50270940304540a733656f0d8180a4600190565b505f90565b5f8181525f80516020611ae9833981519152602090815260408083206001600160a01b038616845290915290205460ff16610c69575f8181525f80516020611ae9833981519152602090815260408083206001600160a01b0395909516808452949091528120805460ff19166001179055339291907f2f8788117e7eff1d82e926ec794901d17c78024a50270940304540a733656f0d9080a4600190565b50505f90565b5f8181525f80516020611ae9833981519152602090815260408083206001600160a01b038616845290915290205460ff1615610c69575f8181525f80516020611ae9833981519152602090815260408083206001600160a01b0395909516808452949091528120805460ff19169055339291907ff6391f5c32d9c69d2a47ea670b442974b53935d1edc7fd64eb21e047a839171b9080a4600190565b60ff5f80516020611b298339815191525460401c1615610d2757565b631afcd79f60e31b5f5260045ffdfe6080346100f857601f610db238819003918201601f19168301916001600160401b038311848410176100fc5780849260a0946040528339810103126100f85761004781610110565b9061005460208201610110565b61006060408301610110565b606083015160809093015160015f55936001600160a01b031691610085831515610124565b6001600160a01b03169061009a821515610124565b6001600160a01b0316916100af831515610124565b60018060a01b0319600154161760015560018060a01b0319600254161760025560018060a01b031960035416176003556008556009555f600a55604051610c4190816101718239f35b5f80fd5b634e487b7160e01b5f52604160045260245ffd5b51906001600160a01b03821682036100f857565b1561012b57565b60405162461bcd60e51b815260206004820152601f60248201527f5a65726f2061646472657373657320617265206e6f7420616c6c6f7765642e006044820152606490fdfe6080806040526004361015610012575f80fd5b5f3560e01c9081630902f1ac1461090a575080630e06dfc9146108e95780630fc63d10146108c1578063112212ff146108035780631b2ef1ca146107305780631eb305b1146106885780632ccb1b301461062d5780635673b02d1461051c5780635c52a5f2146103cf5780635c921eb9146103725780635c9d6938146103495780635f64b55b1461032157806370e6e182146103045780637464fc3d146102e757806378e97925146102ca578063ab54e3b8146102ad578063b3207f7914610209578063b69ef8a8146101b6578063c66f2455146101245763f887ea40146100f8575f80fd5b34610120575f366003190112610120576001546040516001600160a01b039091168152602090f35b5f80fd5b34610120575f366003190112610120576003546040516370a0823160e01b815230600482015290602090829060249082906001600160a01b03165afa80156101ab575f90610178575b602090604051908152f35b506020813d6020116101a3575b8161019260209383610a25565b81010312610120576020905161016d565b3d9150610185565b6040513d5f823e3d90fd5b34610120575f366003190112610120576002546040516370a0823160e01b815230600482015290602090829060249082906001600160a01b03165afa80156101ab575f9061017857602090604051908152f35b34610120577fcf2aa50876cdfbb541206f89af0ee78d44a2abf8d328e37fa4917f982149848a604061023a3661092d565b61024f60018060a01b03600154163314610977565b600454908082106102a45761026391610aa0565b905b60048290556005549080821061029c5761027e91610aa0565b8060055561028c81836109ce565b60065582519182526020820152a1005b50505f61027e565b50505f90610265565b34610120575f366003190112610120576020600954604051908152f35b34610120575f366003190112610120576020600854604051908152f35b34610120575f366003190112610120576020600654604051908152f35b34610120575f366003190112610120576020600a54604051908152f35b34610120575f366003190112610120576003546040516001600160a01b039091168152602090f35b34610120575f36600319011261012057602061036a60055460045490610959565b604051908152f35b34610120576040366003190112610120576103cd61038e610943565b6103a360018060a01b03600154163314610977565b6103b76001600160a01b0382161515610a54565b60035460243591906001600160a01b0316610aad565b005b34610120576060366003190112610120576103e8610943565b6024356001600160a01b03811691908290036101205761041360018060a01b03600154163314610977565b6001600160a01b03811691610429831515610a54565b610434811515610a54565b60405163095ea7b360e01b602082019081526001600160a01b0393909316602482015260448035818301528152915f908190610471606486610a25565b84519082855af1610480610b6e565b816104ed575b50806104e3575b1561049e575b602060405160018152f35b6104d66104db936040519063095ea7b360e01b602083015260248201525f6044820152604481526104d0606482610a25565b82610b03565b610b03565b808080610493565b50803b151561048d565b8051801592508215610502575b505084610486565b6105159250602080918301019101610aeb565b84806104fa565b34610120576080366003190112610120576004356024356044359160643561054f60018060a01b03600154163314610977565b60085442106105f5577f298c349c742327269dc8de6ad66687767310c948ea309df826f5bd103e19d207938361059260809561058d86600454610a47565b610aa0565b6105a28461058d85600554610a47565b600654916040516105b2816109f5565b81815282602082015283604082015260604291015260045560055560065542600755604051938452602084015260408301526060820152a1602060405160018152f35b60405162461bcd60e51b815260206004820152601060248201526f14ddd85c081b9bdd081cdd185c9d195960821b6044820152606490fd5b34610120576040366003190112610120576103cd610649610943565b61065e60018060a01b03600154163314610977565b6106726001600160a01b0382161515610a54565b60025460243591906001600160a01b0316610aad565b34610120576020366003190112610120576004356106b160018060a01b03600154163314610977565b60025f5414610721576008549081421015610712576106d260095442610a47565b8110610712577fff1bf99918d35d7dd5182e2a06f26aa0b7673c48538bb8ce407af50f4b4ab2ca918160409260085582519182526020820152a160015f55005b632ca4094f60e21b5f5260045ffd5b633ee5aeb560e01b5f5260045ffd5b346101205761073e3661092d565b61075360018060a01b03600154163314610977565b6007546107cd5781816107896040937fcc9c58b575eabd3f6a1ee653e91fcea3ff546867ffc3782a3bbca1f9b6dbb8df956109ce565b8351610794816109f5565b838152826020820152818582015260604291015282600455816005556006554260075582519182526020820152a1602060405160018152f35b60405162461bcd60e51b815260206004820152600e60248201526d105b1c9958591e481b5a5b9d195960921b6044820152606490fd5b346101205760203660031901126101205760043561082c60018060a01b03600154163314610977565b6008548110610866576020817f387456294cf51936eef156333b6540d55f441ea39998b269a39f19a63cfbdee692600a55604051908152a1005b60405162461bcd60e51b815260206004820152602d60248201527f5461782073746172742074696d65206d7573742062652067726561746572207460448201526c68616e20737461727454696d6560981b6064820152608490fd5b34610120575f366003190112610120576002546040516001600160a01b039091168152602090f35b34610120575f36600319011261012057602061036a60045460055490610959565b34610120575f366003190112610120576040906004546005549082526020820152f35b6040906003190112610120576004359060243590565b600435906001600160a01b038216820361012057565b8115610963570490565b634e487b7160e01b5f52601260045260245ffd5b1561097e57565b60405162461bcd60e51b815260206004820152602260248201527f4f6e6c7920726f757465722063616e2063616c6c20746869732066756e63746960448201526137b760f11b6064820152608490fd5b818102929181159184041417156109e157565b634e487b7160e01b5f52601160045260245ffd5b6080810190811067ffffffffffffffff821117610a1157604052565b634e487b7160e01b5f52604160045260245ffd5b90601f8019910116810190811067ffffffffffffffff821117610a1157604052565b919082018092116109e157565b15610a5b57565b60405162461bcd60e51b815260206004820152601f60248201527f5a65726f2061646472657373657320617265206e6f7420616c6c6f7765642e006044820152606490fd5b919082039182116109e157565b60405163a9059cbb60e01b60208201526001600160a01b03929092166024830152604480830193909352918152610ae9916104d6606483610a25565b565b90816020910312610120575180151581036101205790565b5f80610b2b9260018060a01b03169360208151910182865af1610b24610b6e565b9083610bad565b8051908115159182610b53575b5050610b415750565b635274afe760e01b5f5260045260245ffd5b610b669250602080918301019101610aeb565b155f80610b38565b3d15610ba8573d9067ffffffffffffffff8211610a115760405191610b9d601f8201601f191660200184610a25565b82523d5f602084013e565b606090565b90610bd15750805115610bc257805190602001fd5b630a12f52160e11b5f5260045ffd5b81511580610c02575b610be2575090565b639996b31560e01b5f9081526001600160a01b0391909116600452602490fd5b50803b15610bda56fea264697066735822122066b2dd4d2f3e5f805680220776623d1a020cf30f41bfceefd039b6975a630f3764736f6c634300081a003302dd7bc7dec4dceedda775e58dd541e08a116c6c53815c0bd028192f7b6268009b779b17422d0df92223018b32b4d1fa46e071723d6817e2486d003becc55f00f0c57e16840df040f15088dc2f81fe391c3923bec73e23a9662efc9c229c6a00a26469706673582212205a8637040dcb50f65318b776c66765cae3a77ed9fe52dca45d0ac89f4620fdcb64736f6c634300081a0033","linkReferences":{}},"methodIdentifiers":{"ADMIN_ROLE()":"75b238fc","CREATOR_ROLE()":"8aeda25a","DEFAULT_ADMIN_ROLE()":"a217fddf","allPairsLength()":"574f2ba3","antiSniperBuyTaxStartValue()":"b4979365","antiSniperTaxVault()":"85ed6eb8","buyTax()":"4f7041a5","createPair(address,address,uint256,uint256)":"035f962d","getPair(address,address)":"e6a43905","getRoleAdmin(bytes32)":"248a9ca3","grantRole(bytes32,address)":"2f2ff15d","hasRole(bytes32,address)":"91d14854","initialize(address,uint256,uint256,uint256,address)":"6c28e349","pairs(uint256)":"b91ac788","renounceRole(bytes32,address)":"36568abe","revokeRole(bytes32,address)":"d547741f","router()":"f887ea40","sellTax()":"cc1776d3","setRouter(address)":"c0d78655","setTaxParams(address,uint256,uint256,uint256,address)":"6b174f7d","supportsInterface(bytes4)":"01ffc9a7","taxVault()":"e2ad37b0"},"id":45}