{"abi":[{"type":"constructor","inputs":[],"stateMutability":"nonpayable"},{"type":"function","name":"battleElo","inputs":[{"name":"currentRating","type":"uint256","internalType":"uint256"},{"name":"battles","type":"uint8[]","internalType":"uint8[]"}],"outputs":[{"name":"","type":"uint256","internalType":"uint256"}],"stateMutability":"view"},{"type":"function","name":"initialize","inputs":[{"name":"initialOwner","type":"address","internalType":"address"}],"outputs":[],"stateMutability":"nonpayable"},{"type":"function","name":"k","inputs":[],"outputs":[{"name":"","type":"uint256","internalType":"uint256"}],"stateMutability":"view"},{"type":"function","name":"owner","inputs":[],"outputs":[{"name":"","type":"address","internalType":"address"}],"stateMutability":"view"},{"type":"function","name":"renounceOwnership","inputs":[],"outputs":[],"stateMutability":"nonpayable"},{"type":"function","name":"setK","inputs":[{"name":"k_","type":"uint256","internalType":"uint256"}],"outputs":[],"stateMutability":"nonpayable"},{"type":"function","name":"transferOwnership","inputs":[{"name":"newOwner","type":"address","internalType":"address"}],"outputs":[],"stateMutability":"nonpayable"},{"type":"event","name":"Initialized","inputs":[{"name":"version","type":"uint64","indexed":false,"internalType":"uint64"}],"anonymous":false},{"type":"event","name":"OwnershipTransferred","inputs":[{"name":"previousOwner","type":"address","indexed":true,"internalType":"address"},{"name":"newOwner","type":"address","indexed":true,"internalType":"address"}],"anonymous":false},{"type":"error","name":"InvalidInitialization","inputs":[]},{"type":"error","name":"NotInitializing","inputs":[]},{"type":"error","name":"OwnableInvalidOwner","inputs":[{"name":"owner","type":"address","internalType":"address"}]},{"type":"error","name":"OwnableUnauthorizedAccount","inputs":[{"name":"account","type":"address","internalType":"address"}]}],"bytecode":{"object":"0x6080806040523460d0577ff0c57e16840df040f15088dc2f81fe391c3923bec73e23a9662efc9c229c6a005460ff8160401c1660c1576002600160401b03196001600160401b03821601605c575b60405161083490816100d58239f35b6001600160401b0319166001600160401b039081177ff0c57e16840df040f15088dc2f81fe391c3923bec73e23a9662efc9c229c6a005581527fc7f505b2f371ae2175ee4913f4499e1f2633a7b5936321eed1cdaeb6115181d290602090a15f80604d565b63f92ee8a960e01b5f5260045ffd5b5f80fdfe60806040526004361015610011575f80fd5b5f803560e01c806367de8be914610578578063715018a6146105115780638da5cb5b146104dd578063b4f40c61146104c1578063c4d66de81461036a578063e6023b80146100a65763f2fde38b14610067575f80fd5b346100a35760203660031901126100a3576004356001600160a01b038116810361009f5761009c90610097610623565b6105b2565b80f35b5080fd5b80fd5b50346102ca5760403660031901126102ca5760243567ffffffffffffffff81116102ca57366023820112156102ca5780600401359067ffffffffffffffff8211610356578160051b9060405192601f19603f840116840184811067ffffffffffffffff82111761035657604052835260246020840192820101903682116102ca57602401915b81831061033c575050506103e8805f8054916127108302905b85518310156103025761016360ff60208560051b8901015116610656565b601986831080156102f957838803905b806101816104668410610685565b6102e7575b156102de57610320035b0488600a60018316156102d65780925b60011c90815b61027c575050506101bf6101bf6101bf6101c4936106fc565b6106fc565b606401801561026857830490850281811091821561026157035b606481019081811161024d57606301908111610239579060646001939204905f146102205761021081610216936105a5565b96610598565b925b019193610145565b61022d8161023393610598565b966105a5565b92610218565b634e487b7160e01b89526011600452602489fd5b634e487b7160e01b5f52601160045260245ffd5b90036101de565b634e487b7160e01b5f52601260045260245ffd5b8060801c6102d2578002916102ce5781600182166102a3575b50908a9160011c90816101a6565b83819294939c500291818304036102c0575b505f9990918a610295565b6102ca575f6102b5565b5f80fd5b8a80fd5b8280fd5b6001926101a0565b61032001610190565b6102f46103208310610685565b610186565b87840390610173565b61030f8791600435610598565b6103e71981019190821161032857602082604051908152f35b634e487b7160e01b81526011600452602490fd5b823560ff811681036102ca5781526020928301920161012c565b634e487b7160e01b5f52604160045260245ffd5b346102ca5760203660031901126102ca576004356001600160a01b03811681036102ca575f805160206107df8339815191525460ff8160401c16159167ffffffffffffffff8216801590816104b9575b60011490816104af575b1590816104a6575b506104975767ffffffffffffffff1982166001175f805160206107df8339815191525561040a918361046b575b506104026106d1565b6100976106d1565b601e5f5561041457005b68ff0000000000000000195f805160206107df83398151915254165f805160206107df833981519152557fc7f505b2f371ae2175ee4913f4499e1f2633a7b5936321eed1cdaeb6115181d2602060405160018152a1005b68ffffffffffffffffff191668010000000000000001175f805160206107df83398151915255836103f9565b63f92ee8a960e01b5f5260045ffd5b905015846103cc565b303b1591506103c4565b8491506103ba565b346102ca575f3660031901126102ca5760205f54604051908152f35b346102ca575f3660031901126102ca575f805160206107bf833981519152546040516001600160a01b039091168152602090f35b346102ca575f3660031901126102ca57610529610623565b5f805160206107bf83398151915280546001600160a01b031981169091555f906001600160a01b03167f8be0079c531659141344cd1fd0a4f28419497f9722a3daafe3b4186f6b6457e08280a3005b346102ca5760203660031901126102ca57610591610623565b6004355f55005b9190820180921161024d57565b9190820391821161024d57565b6001600160a01b03168015610610575f805160206107bf83398151915280546001600160a01b0319811683179091556001600160a01b03167f8be0079c531659141344cd1fd0a4f28419497f9722a3daafe3b4186f6b6457e05f80a3565b631e4fbdf760e01b5f525f60045260245ffd5b5f805160206107bf833981519152546001600160a01b0316330361064357565b63118cdaa760e01b5f523360045260245ffd5b60ff16600181036106675750606490565b600281036106755750603290565b600314610680575f90565b603290565b1561068c57565b60405162461bcd60e51b815260206004820152601b60248201527f526174696e6720646966666572656e636520746f6f206c6172676500000000006044820152606490fd5b60ff5f805160206107df8339815191525460401c16156106ed57565b631afcd79f60e31b5f5260045ffd5b60b581600160881b8110156107a7575b8069010000000000000000006201000092101561079a575b6501000000000081101561078d575b6301000000811015610780575b010260121c8082040160011c8082040160011c8082040160011c8082040160011c8082040160011c8082040160011c8082040160011c8080920410900390565b60101c9160081b91610740565b60201c9160101b91610733565b60401c9160201b91610724565b5068b500000000000000009050608082901c61070c56fe9016d09d72d40fdae2fd8ceac6b6234c7706214fd39c1cd1e609a0528c199300f0c57e16840df040f15088dc2f81fe391c3923bec73e23a9662efc9c229c6a00a264697066735822122097a72e9286ce8eea747870f4ab9cbd2a36200d61c6f5288daaa85f7db4240c9a64736f6c634300081a0033","linkReferences":{}},"methodIdentifiers":{"battleElo(uint256,uint8[])":"e6023b80","initialize(address)":"c4d66de8","k()":"b4f40c61","owner()":"8da5cb5b","renounceOwnership()":"715018a6","setK(uint256)":"67de8be9","transferOwnership(address)":"f2fde38b"},"id":106}