{"abi":[{"type":"constructor","inputs":[],"stateMutability":"nonpayable"},{"type":"function","name":"approve","inputs":[{"name":"to","type":"address","internalType":"address"},{"name":"tokenId","type":"uint256","internalType":"uint256"}],"outputs":[],"stateMutability":"nonpayable"},{"type":"function","name":"balanceOf","inputs":[{"name":"owner","type":"address","internalType":"address"}],"outputs":[{"name":"","type":"uint256","internalType":"uint256"}],"stateMutability":"view"},{"type":"function","name":"contributionNft","inputs":[],"outputs":[{"name":"","type":"address","internalType":"address"}],"stateMutability":"view"},{"type":"function","name":"datasetImpactWeight","inputs":[],"outputs":[{"name":"","type":"uint16","internalType":"uint16"}],"stateMutability":"view"},{"type":"function","name":"getApproved","inputs":[{"name":"tokenId","type":"uint256","internalType":"uint256"}],"outputs":[{"name":"","type":"address","internalType":"address"}],"stateMutability":"view"},{"type":"function","name":"getCore","inputs":[{"name":"tokenId","type":"uint256","internalType":"uint256"}],"outputs":[{"name":"","type":"uint8","internalType":"uint8"}],"stateMutability":"view"},{"type":"function","name":"getCoreDatasetAt","inputs":[{"name":"virtualId","type":"uint256","internalType":"uint256"},{"name":"coreType","type":"uint8","internalType":"uint8"},{"name":"index","type":"uint256","internalType":"uint256"}],"outputs":[{"name":"","type":"uint256","internalType":"uint256"}],"stateMutability":"view"},{"type":"function","name":"getCoreDatasets","inputs":[{"name":"virtualId","type":"uint256","internalType":"uint256"},{"name":"coreType","type":"uint8","internalType":"uint8"}],"outputs":[{"name":"","type":"uint256[]","internalType":"uint256[]"}],"stateMutability":"view"},{"type":"function","name":"getCoreService","inputs":[{"name":"virtualId","type":"uint256","internalType":"uint256"},{"name":"coreType","type":"uint8","internalType":"uint8"}],"outputs":[{"name":"","type":"uint256","internalType":"uint256"}],"stateMutability":"view"},{"type":"function","name":"getImpact","inputs":[{"name":"tokenId","type":"uint256","internalType":"uint256"}],"outputs":[{"name":"","type":"uint256","internalType":"uint256"}],"stateMutability":"view"},{"type":"function","name":"getMaturity","inputs":[{"name":"tokenId","type":"uint256","internalType":"uint256"}],"outputs":[{"name":"","type":"uint256","internalType":"uint256"}],"stateMutability":"view"},{"type":"function","name":"initialize","inputs":[{"name":"initialAgentNft","type":"address","internalType":"address"},{"name":"initialContributionNft","type":"address","internalType":"address"},{"name":"initialDatasetImpactWeight","type":"uint16","internalType":"uint16"}],"outputs":[],"stateMutability":"nonpayable"},{"type":"function","name":"isApprovedForAll","inputs":[{"name":"owner","type":"address","internalType":"address"},{"name":"operator","type":"address","internalType":"address"}],"outputs":[{"name":"","type":"bool","internalType":"bool"}],"stateMutability":"view"},{"type":"function","name":"mint","inputs":[{"name":"virtualId","type":"uint256","internalType":"uint256"},{"name":"descHash","type":"bytes32","internalType":"bytes32"}],"outputs":[{"name":"","type":"uint256","internalType":"uint256"}],"stateMutability":"nonpayable"},{"type":"function","name":"name","inputs":[],"outputs":[{"name":"","type":"string","internalType":"string"}],"stateMutability":"view"},{"type":"function","name":"owner","inputs":[],"outputs":[{"name":"","type":"address","internalType":"address"}],"stateMutability":"view"},{"type":"function","name":"ownerOf","inputs":[{"name":"tokenId","type":"uint256","internalType":"uint256"}],"outputs":[{"name":"","type":"address","internalType":"address"}],"stateMutability":"view"},{"type":"function","name":"personaNft","inputs":[],"outputs":[{"name":"","type":"address","internalType":"address"}],"stateMutability":"view"},{"type":"function","name":"renounceOwnership","inputs":[],"outputs":[],"stateMutability":"nonpayable"},{"type":"function","name":"safeTransferFrom","inputs":[{"name":"from","type":"address","internalType":"address"},{"name":"to","type":"address","internalType":"address"},{"name":"tokenId","type":"uint256","internalType":"uint256"}],"outputs":[],"stateMutability":"nonpayable"},{"type":"function","name":"safeTransferFrom","inputs":[{"name":"from","type":"address","internalType":"address"},{"name":"to","type":"address","internalType":"address"},{"name":"tokenId","type":"uint256","internalType":"uint256"},{"name":"data","type":"bytes","internalType":"bytes"}],"outputs":[],"stateMutability":"nonpayable"},{"type":"function","name":"setApprovalForAll","inputs":[{"name":"operator","type":"address","internalType":"address"},{"name":"approved","type":"bool","internalType":"bool"}],"outputs":[],"stateMutability":"nonpayable"},{"type":"function","name":"setDatasetImpactWeight","inputs":[{"name":"weight","type":"uint16","internalType":"uint16"}],"outputs":[],"stateMutability":"nonpayable"},{"type":"function","name":"supportsInterface","inputs":[{"name":"interfaceId","type":"bytes4","internalType":"bytes4"}],"outputs":[{"name":"","type":"bool","internalType":"bool"}],"stateMutability":"view"},{"type":"function","name":"symbol","inputs":[],"outputs":[{"name":"","type":"string","internalType":"string"}],"stateMutability":"view"},{"type":"function","name":"tokenByIndex","inputs":[{"name":"index","type":"uint256","internalType":"uint256"}],"outputs":[{"name":"","type":"uint256","internalType":"uint256"}],"stateMutability":"view"},{"type":"function","name":"tokenOfOwnerByIndex","inputs":[{"name":"owner","type":"address","internalType":"address"},{"name":"index","type":"uint256","internalType":"uint256"}],"outputs":[{"name":"","type":"uint256","internalType":"uint256"}],"stateMutability":"view"},{"type":"function","name":"tokenURI","inputs":[{"name":"tokenId","type":"uint256","internalType":"uint256"}],"outputs":[{"name":"","type":"string","internalType":"string"}],"stateMutability":"view"},{"type":"function","name":"totalCoreDatasets","inputs":[{"name":"virtualId","type":"uint256","internalType":"uint256"},{"name":"coreType","type":"uint8","internalType":"uint8"}],"outputs":[{"name":"","type":"uint256","internalType":"uint256"}],"stateMutability":"view"},{"type":"function","name":"totalSupply","inputs":[],"outputs":[{"name":"","type":"uint256","internalType":"uint256"}],"stateMutability":"view"},{"type":"function","name":"transferFrom","inputs":[{"name":"from","type":"address","internalType":"address"},{"name":"to","type":"address","internalType":"address"},{"name":"tokenId","type":"uint256","internalType":"uint256"}],"outputs":[],"stateMutability":"nonpayable"},{"type":"function","name":"transferOwnership","inputs":[{"name":"newOwner","type":"address","internalType":"address"}],"outputs":[],"stateMutability":"nonpayable"},{"type":"function","name":"updateImpact","inputs":[{"name":"virtualId","type":"uint256","internalType":"uint256"},{"name":"proposalId","type":"uint256","internalType":"uint256"}],"outputs":[],"stateMutability":"nonpayable"},{"type":"event","name":"Approval","inputs":[{"name":"owner","type":"address","indexed":true,"internalType":"address"},{"name":"approved","type":"address","indexed":true,"internalType":"address"},{"name":"tokenId","type":"uint256","indexed":true,"internalType":"uint256"}],"anonymous":false},{"type":"event","name":"ApprovalForAll","inputs":[{"name":"owner","type":"address","indexed":true,"internalType":"address"},{"name":"operator","type":"address","indexed":true,"internalType":"address"},{"name":"approved","type":"bool","indexed":false,"internalType":"bool"}],"anonymous":false},{"type":"event","name":"BatchMetadataUpdate","inputs":[{"name":"_fromTokenId","type":"uint256","indexed":false,"internalType":"uint256"},{"name":"_toTokenId","type":"uint256","indexed":false,"internalType":"uint256"}],"anonymous":false},{"type":"event","name":"CoreServiceUpdated","inputs":[{"name":"virtualId","type":"uint256","indexed":false,"internalType":"uint256"},{"name":"coreType","type":"uint8","indexed":false,"internalType":"uint8"},{"name":"serviceId","type":"uint256","indexed":false,"internalType":"uint256"}],"anonymous":false},{"type":"event","name":"DatasetImpactUpdated","inputs":[{"name":"weight","type":"uint16","indexed":false,"internalType":"uint16"}],"anonymous":false},{"type":"event","name":"Initialized","inputs":[{"name":"version","type":"uint64","indexed":false,"internalType":"uint64"}],"anonymous":false},{"type":"event","name":"MetadataUpdate","inputs":[{"name":"_tokenId","type":"uint256","indexed":false,"internalType":"uint256"}],"anonymous":false},{"type":"event","name":"NewService","inputs":[{"name":"tokenId","type":"uint256","indexed":false,"internalType":"uint256"},{"name":"coreId","type":"uint8","indexed":false,"internalType":"uint8"},{"name":"maturity","type":"uint256","indexed":false,"internalType":"uint256"},{"name":"impact","type":"uint256","indexed":false,"internalType":"uint256"},{"name":"isModel","type":"bool","indexed":false,"internalType":"bool"}],"anonymous":false},{"type":"event","name":"OwnershipTransferred","inputs":[{"name":"previousOwner","type":"address","indexed":true,"internalType":"address"},{"name":"newOwner","type":"address","indexed":true,"internalType":"address"}],"anonymous":false},{"type":"event","name":"SetServiceScore","inputs":[{"name":"serviceId","type":"uint256","indexed":false,"internalType":"uint256"},{"name":"eloRating","type":"uint256","indexed":false,"internalType":"uint256"},{"name":"impact","type":"uint256","indexed":false,"internalType":"uint256"}],"anonymous":false},{"type":"event","name":"Transfer","inputs":[{"name":"from","type":"address","indexed":true,"internalType":"address"},{"name":"to","type":"address","indexed":true,"internalType":"address"},{"name":"tokenId","type":"uint256","indexed":true,"internalType":"uint256"}],"anonymous":false},{"type":"error","name":"ERC721EnumerableForbiddenBatchMint","inputs":[]},{"type":"error","name":"ERC721IncorrectOwner","inputs":[{"name":"sender","type":"address","internalType":"address"},{"name":"tokenId","type":"uint256","internalType":"uint256"},{"name":"owner","type":"address","internalType":"address"}]},{"type":"error","name":"ERC721InsufficientApproval","inputs":[{"name":"operator","type":"address","internalType":"address"},{"name":"tokenId","type":"uint256","internalType":"uint256"}]},{"type":"error","name":"ERC721InvalidApprover","inputs":[{"name":"approver","type":"address","internalType":"address"}]},{"type":"error","name":"ERC721InvalidOperator","inputs":[{"name":"operator","type":"address","internalType":"address"}]},{"type":"error","name":"ERC721InvalidOwner","inputs":[{"name":"owner","type":"address","internalType":"address"}]},{"type":"error","name":"ERC721InvalidReceiver","inputs":[{"name":"receiver","type":"address","internalType":"address"}]},{"type":"error","name":"ERC721InvalidSender","inputs":[{"name":"sender","type":"address","internalType":"address"}]},{"type":"error","name":"ERC721NonexistentToken","inputs":[{"name":"tokenId","type":"uint256","internalType":"uint256"}]},{"type":"error","name":"ERC721OutOfBoundsIndex","inputs":[{"name":"owner","type":"address","internalType":"address"},{"name":"index","type":"uint256","internalType":"uint256"}]},{"type":"error","name":"InvalidInitialization","inputs":[]},{"type":"error","name":"NotInitializing","inputs":[]},{"type":"error","name":"OwnableInvalidOwner","inputs":[{"name":"owner","type":"address","internalType":"address"}]},{"type":"error","name":"OwnableUnauthorizedAccount","inputs":[{"name":"account","type":"address","internalType":"address"}]}],"bytecode":{"object":"0x6080806040523460d0577ff0c57e16840df040f15088dc2f81fe391c3923bec73e23a9662efc9c229c6a005460ff8160401c1660c1576002600160401b03196001600160401b03821601605c575b60405161271390816100d58239f35b6001600160401b0319166001600160401b039081177ff0c57e16840df040f15088dc2f81fe391c3923bec73e23a9662efc9c229c6a005581527fc7f505b2f371ae2175ee4913f4499e1f2633a7b5936321eed1cdaeb6115181d290602090a15f80604d565b63f92ee8a960e01b5f5260045ffd5b5f80fdfe6080806040526004361015610012575f80fd5b5f3560e01c90816301ffc9a714611ac85750806306fdde0314611a1e57806307c1aa1a146119f6578063081812fc146119ad578063095ea7b3146118c15780631801fbe514610f6a57806318160ddd14610f4157806323b872dd14610f2a5780632435986914610eeb578063252079b214610eb457806327f98c1114610e275780632f745c5914610da95780633f98641c14610d5857806342842e0e14610d2f5780634f6ccce714610c875780635a03ac1e14610c115780636352211e14610be157806370a0823114610bb6578063715018a614610b4f5780637ebef5291461064b5780637f1e7d411461061757806387e2d553146105d85780638da5cb5b146105a457806395d89b41146104ae578063a22cb46514610416578063b88d4fde1461038e578063c5f69f681461036f578063c87b56dd14610282578063ce6d5e381461025e578063dcf75bef14610236578063e6aed85714610202578063e985e9c5146101b65763f2fde38b14610187575f80fd5b346101b25760203660031901126101b2576101b06101a3611b8b565b6101ab612526565b612486565b005b5f80fd5b346101b25760403660031901126101b2576101cf611b8b565b6101e06101da611ba1565b9161208a565b9060018060a01b03165f52602052602060ff60405f2054166040519015158152f35b346101b25760203660031901126101b25760043561021f816124f7565b505f526005602052602060405f2054604051908152f35b346101b2575f3660031901126101b2576001546040516001600160a01b039091168152602090f35b346101b2575f3660031901126101b257602061ffff60025460a01c16604051908152f35b346101b25760203660031901126101b25760025460405163c87b56dd60e01b81526004803590820152905f90829060249082906001600160a01b03165afa8015610364575f906102e9575b6102e590604051918291602083526020830190611b67565b0390f35b503d805f833e6102f98183611c34565b8101906020818303126101b25780519067ffffffffffffffff82116101b257019080601f830112156101b257815161033081611c56565b9161033e6040519384611c34565b818352602082850101116101b2576020815f92826102e596018386015e830101526102cd565b6040513d5f823e3d90fd5b346101b25760403660031901126101b2576101b0602435600435612276565b346101b25760803660031901126101b2576103a7611b8b565b6103af611ba1565b6064359167ffffffffffffffff83116101b257366023840112156101b2578260040135916103dc83611c56565b926103ea6040519485611c34565b80845236602482870101116101b2576020815f9260246101b09801838801378501015260443591612129565b346101b25760403660031901126101b25761042f611b8b565b602435908115158092036101b2576001600160a01b031690811561049b576104563361208a565b825f5260205260405f2060ff1981541660ff83161790556040519081527f17307eab39ab6107e8899845ad3d59bd9653f200f220920489ca2b5937696c3160203392a3005b50630b61174360e31b5f5260045260245ffd5b346101b2575f3660031901126101b2576040515f5f8051602061269e833981519152546104da81611c72565b80845290600181169081156105805750600114610516575b6102e58361050281850382611c34565b604051918291602083526020830190611b67565b5f8051602061269e8339815191525f9081527ff4bad0a69248f59680a4f2b3000328cec71a413447c96781cfe5996daa8c456e939250905b808210610566575090915081016020016105026104f2565b91926001816020925483858801015201910190929161054e565b60ff191660208086019190915291151560051b8401909101915061050290506104f2565b346101b2575f3660031901126101b2575f8051602061261e833981519152546040516001600160a01b039091168152602090f35b346101b25760403660031901126101b2576105f1611bf1565b6004355f52600660205260ff60405f2091165f52602052602060405f2054604051908152f35b346101b25760203660031901126101b257600435610634816124f7565b505f526004602052602060405f2054604051908152f35b346101b25760603660031901126101b257610664611b8b565b61066c611ba1565b6044359061ffff821682036101b2575f8051602061267e833981519152549160ff8360401c16159267ffffffffffffffff811680159081610b47575b6001149081610b3d575b159081610b34575b50610b255767ffffffffffffffff1981166001175f8051602061267e8339815191525583610af9575b5060409384516106f38682611c34565b60078152665365727669636560c81b60208201528551906107148783611c34565b6002825261565360f01b602083015261072b612592565b610733612592565b80519067ffffffffffffffff82116109d357819061075e5f805160206125fe83398151915254611c72565b601f8111610a7b575b50602090601f83116001146109f2575f926109e7575b50508160011b915f199060031b1c1916175f805160206125fe833981519152555b80519067ffffffffffffffff82116109d35781906107c95f8051602061269e83398151915254611c72565b601f8111610959575b50602090601f83116001146108db575f926108d0575b50508160011b915f199060031b1c1916175f8051602061269e833981519152555b610811612592565b610819612592565b610821612592565b610829612592565b61083233612486565b600180546001600160a01b0319166001600160a01b03928316179055600280546001600160b01b031916939091169290921760a09190911b61ffff60a01b1617905561087a57005b60207fc7f505b2f371ae2175ee4913f4499e1f2633a7b5936321eed1cdaeb6115181d29168ff0000000000000000195f8051602061267e83398151915254165f8051602061267e833981519152555160018152a1005b0151905087806107e8565b5f8051602061269e8339815191525f9081528281209350601f198516905b8181106109415750908460019594939210610929575b505050811b015f8051602061269e83398151915255610809565b01515f1960f88460031b161c1916905587808061090f565b929360206001819287860151815501950193016108f9565b5f8051602061269e8339815191525f529091507ff4bad0a69248f59680a4f2b3000328cec71a413447c96781cfe5996daa8c456e601f840160051c810191602085106109c9575b90601f859493920160051c01905b8181106109bb57506107d2565b5f81558493506001016109ae565b90915081906109a0565b634e487b7160e01b5f52604160045260245ffd5b01519050888061077d565b5f805160206125fe8339815191525f9081525f805160206126be8339815191529350601f198516905b818110610a635750908460019594939210610a4b575b505050811b015f805160206125fe8339815191525561079e565b01515f1960f88460031b161c19169055888080610a31565b92936020600181928786015181550195019301610a1b565b9091505f805160206125fe8339815191525f52601f830160051c5f805160206126be833981519152019060208410610ae4575b90601f8493920160051c5f805160206126be83398151915201905b818110610ad65750610767565b5f8155849350600101610ac9565b5f805160206126be8339815191529150610aae565b68ffffffffffffffffff191668010000000000000001175f8051602061267e83398151915255846106e3565b63f92ee8a960e01b5f5260045ffd5b905015866106ba565b303b1591506106b2565b8591506106a8565b346101b2575f3660031901126101b257610b67612526565b5f8051602061261e83398151915280546001600160a01b031981169091555f906001600160a01b03167f8be0079c531659141344cd1fd0a4f28419497f9722a3daafe3b4186f6b6457e08280a3005b346101b25760203660031901126101b2576020610bd9610bd4611b8b565b6120fa565b604051908152f35b346101b25760203660031901126101b2576020610bff6004356124f7565b6040516001600160a01b039091168152f35b346101b25760203660031901126101b25760043561ffff8116908181036101b2577f96bb86fe6b0f03915e6cdc0b513be478aa7b91d0330a1030518bd0c4dd0d116a91602091610c5f612526565b6002805461ffff60a01b191660a09290921b61ffff60a01b16919091179055604051908152a1005b346101b25760203660031901126101b2576004355f8051602061263e83398151915254811015610d19575f8051602061263e83398151915254811015610d05575f8051602061263e8339815191525f527fa42f15e5d656f8155fd7419d740a6073999f19cd6e061449ce4a257150545bf20154604051908152602090f35b634e487b7160e01b5f52603260045260245ffd5b63295f44f760e21b5f525f60045260245260445ffd5b346101b2576101b0610d4036611bb7565b9060405192610d50602085611c34565b5f8452612129565b346101b25760603660031901126101b257610d71611bf1565b6004355f52600760205260ff60405f2091165f526020526020610d9a60405f2060443590611cd9565b90549060031b1c604051908152f35b346101b25760403660031901126101b257610dc2611b8b565b60243590610dcf816120fa565b821015610e0a5760018060a01b03165f525f805160206125de83398151915260205260405f20905f52602052602060405f2054604051908152f35b63295f44f760e21b5f5260018060a01b031660045260245260445ffd5b346101b25760403660031901126101b257610e40611bf1565b6004355f52600760205260ff60405f2091165f5260205260405f206040519081602082549182815201915f5260205f20905f5b818110610e9e576102e585610e8a81870382611c34565b604051918291602083526020830190611c01565b8254845260209093019260019283019201610e73565b346101b25760203660031901126101b257600435610ed1816124f7565b505f526003602052602060ff60405f205416604051908152f35b346101b25760403660031901126101b257610f04611bf1565b6004355f52600760205260ff60405f2091165f52602052602060405f2054604051908152f35b346101b2576101b0610f3b36611bb7565b91611d39565b346101b2575f3660031901126101b25760205f8051602061263e83398151915254604051908152f35b346101b25760403660031901126101b25760246004358135905f60018060a01b036001541660405194858092635652386760e11b82528560048301525afa928315610364575f93611798575b5082516001600160a01b03163303611753578251604051631801fbe560e01b602082015260248101839052604480820185905281529291906001600160a01b0316611002606485611c34565b6040928351906110128583611c34565b60018252601f1985019060208301823682373061102e85611ccc565b5286519761103c888a611c34565b60018952833660208b01375f6110518a611ccc565b5287519361105f8986611c34565b600185525f5b81811061174057505061107784611ccc565b5261108183611ccc565b50865163316415f960e21b8152608060048201529351608485018190529397889460a4860192905f5b81811061171e575050508482036003190160248601526110ca9190611c01565b600319848203016044850152825180825260208201916020808360051b8301019501925f915b8383106116eb57505050505082602094928192606483015203915afa928315611494575f936116b7575b5060608401516001600160a01b031680156116a45761113884612559565b6001600160a01b038116801580159391829185611668575b611159836120c2565b805460010190555f8981527f80bb2b638cc20bc4d0a60d66940f3ab4a00c1d7b313497ca82fb0b4ab007930260205288812080546001600160a01b0319166001600160a01b0386161790558990849084907fddf252ad1be2c89b69c2b068fc378daa952ba7f163c4a11628f55a4df523b3ef9080a415611597575f8051602061263e83398151915254885f527f645e039705490088daad89bae25049a34f4a9072d398537b1ab2425f24cbed03602052875f205561121688611cee565b0361152f575b505061151c5760025482516312903cd960e11b81526004810185905290602090829060249082906001600160a01b03165afa908115611512575f916114d1575b50602494602091855f526003835260ff855f20911660ff1982541617905560018060a01b03905116835195868092637f1e7d4160e01b82528760048301525afa8015611494575f9061149e575b60249450835f526004602052825f2055602060018060a01b0360025416835195868092638209c69960e01b82528760048301525afa938415611494575f94611457575b5083156113cf5760a06020947fa9125a360b8b166ef7546b869159e4f0a4309857e23d58bf49d142ff287e226992855f52600387527f45c6adbf8d3cf8bc3057920eb2f540e959a3ef2be5ed2eed7d2e180c39d5c6df606060ff875f2054168751908482528a8201528888820152a16113658682612276565b5f5260068652835f20855f526003875260ff80865f205416165f52865284845f20555b845f526003865260ff845f20541690855f5260048752845f2054865f5260058852855f2054908651938885528985015286840152606083015215156080820152a151908152f35b5f526007602052805f20825f52600360205260ff80835f205416165f52602052805f208054600160401b8110156109d3576020946114528561143a847fa9125a360b8b166ef7546b869159e4f0a4309857e23d58bf49d142ff287e226996600160a097018155611cd9565b90919082549060031b91821b915f19901b1916179055565b611388565b9093506020813d60201161148c575b8161147360209383611c34565b810103126101b2575180151581036101b25792846112ec565b3d9150611466565b82513d5f823e3d90fd5b506020843d6020116114c9575b816114b860209383611c34565b810103126101b257602493516112a9565b3d91506114ab565b90506020813d60201161150a575b816114ec60209383611c34565b810103126101b257602494611502602092611cbe565b91509461125c565b3d91506114df565b83513d5f823e3d90fd5b6339e3563760e11b5f525f60045260245ffd5b611538816120fa565b5f19810191908211611583575f525f805160206125de833981519152602052845f20815f5260205285855f2055855f525f805160206125be833981519152602052845f20558661121c565b634e487b7160e01b5f52601160045260245ffd5b808214611216576115a7846120fa565b885f525f805160206125be833981519152602052875f2054818103611608575b50885f525f805160206125be8339815191526020525f88812055815f525f805160206125de833981519152602052875f20905f526020525f87812055611216565b825f525f805160206125de833981519152602052885f20825f52602052885f2054835f525f805160206125de833981519152602052895f20825f52602052808a5f20555f525f805160206125be833981519152602052885f20558a6115c7565b5f8981525f8051602061265e8339815191526020526040902080546001600160a01b0319169055611698856120c2565b80545f19019055611150565b633250574960e11b5f525f60045260245ffd5b9092506020813d6020116116e3575b816116d360209383611c34565b810103126101b25751918461111a565b3d91506116c6565b9193965091939460208061170b600193601f198682030187528a51611b67565b98019301930190928a96959492936110f0565b82516001600160a01b031685528b9750602094850194909201916001016110aa565b6060602082880181019190915201611065565b60405162461bcd60e51b815260206004820152601960248201527f43616c6c6572206973206e6f74205649525455414c2044414f000000000000006044820152606490fd5b9092503d805f833e6117aa8183611c34565b8101906020818303126101b25780519067ffffffffffffffff82116101b257019060a0828203126101b2576040519160a0830183811067ffffffffffffffff8211176109d3576040526117fc81611caa565b835261180a60208201611caa565b602084015261181b60408201611caa565b604084015261182c60608201611caa565b606084015260808101519067ffffffffffffffff82116101b257019080601f830112156101b25781519167ffffffffffffffff83116109d3578260051b90602082019361187c6040519586611c34565b84526020808501928201019283116101b257602001905b8282106118a95750505060808201529183610fb6565b602080916118b684611cbe565b815201910190611893565b346101b25760403660031901126101b2576118da611b8b565b6024356118e6816124f7565b3315158061199a575b80611977575b6119645781906001600160a01b0384811691167f8c5be1e5ebec7d5bd14f71427d1e84f3dd0314c0f7b2291e5b200ac8c7c3b9255f80a45f9081525f8051602061265e8339815191526020526040902080546001600160a01b0319166001600160a01b03909216919091179055005b63a9fbf51f60e01b5f523360045260245ffd5b506119818161208a565b335f908152602091909152604090205460ff16156118f5565b506001600160a01b0381163314156118ef565b346101b25760203660031901126101b2576020610bff6004356119cf816124f7565b505f9081525f8051602061265e83398151915260205260409020546001600160a01b031690565b346101b2575f3660031901126101b2576002546040516001600160a01b039091168152602090f35b346101b2575f3660031901126101b2576040515f5f805160206125fe83398151915254611a4a81611c72565b80845290600181169081156105805750600114611a71576102e58361050281850382611c34565b5f805160206125fe8339815191525f9081525f805160206126be833981519152939250905b808210611aae575090915081016020016105026104f2565b919260018160209254838588010152019101909291611a96565b346101b25760203660031901126101b2576004359063ffffffff60e01b82168092036101b257602091632483248360e11b8114908115611b0a575b5015158152f35b63780e9d6360e01b811491508115611b24575b5083611b03565b6380ac58cd60e01b811491508115611b56575b8115611b45575b5083611b1d565b6301ffc9a760e01b14905083611b3e565b635b5e139f60e01b81149150611b37565b805180835260209291819084018484015e5f828201840152601f01601f1916010190565b600435906001600160a01b03821682036101b257565b602435906001600160a01b03821682036101b257565b60609060031901126101b2576004356001600160a01b03811681036101b257906024356001600160a01b03811681036101b2579060443590565b6024359060ff821682036101b257565b90602080835192838152019201905f5b818110611c1e5750505090565b8251845260209384019390920191600101611c11565b90601f8019910116810190811067ffffffffffffffff8211176109d357604052565b67ffffffffffffffff81116109d357601f01601f191660200190565b90600182811c92168015611ca0575b6020831014611c8c57565b634e487b7160e01b5f52602260045260245ffd5b91607f1691611c81565b51906001600160a01b03821682036101b257565b519060ff821682036101b257565b805115610d055760200190565b8054821015610d05575f5260205f2001905f90565b5f8051602061263e8339815191525490600160401b8210156109d35761143a826001611d3794015f8051602061263e833981519152555f8051602061263e833981519152611cd9565b565b9091906001600160a01b03831680156116a457611d5583612559565b9033151580611fdc575b506001600160a01b0382169485158015611fa0575b611d7d826120c2565b60018154019055855f527f80bb2b638cc20bc4d0a60d66940f3ab4a00c1d7b313497ca82fb0b4ab007930260205260405f20836bffffffffffffffffffffffff60a01b8254161790558583887fddf252ad1be2c89b69c2b068fc378daa952ba7f163c4a11628f55a4df523b3ef5f80a415611ec6575f8051602061263e83398151915254855f527f645e039705490088daad89bae25049a34f4a9072d398537b1ab2425f24cbed0360205260405f2055611e3685611cee565b818603611e6e575b5050506001600160a01b0316808303611e5657505050565b6364283d7b60e01b5f5260045260245260445260645ffd5b611e77906120fa565b5f19810191908211611583575f525f805160206125de83398151915260205260405f20815f526020528360405f2055835f525f805160206125be83398151915260205260405f20555f80611e3e565b858214611e3657611ed6836120fa565b855f525f805160206125be83398151915260205260405f2054818103611f3b575b50855f525f805160206125be8339815191526020525f6040812055865f525f805160206125de83398151915260205260405f20905f526020525f6040812055611e36565b875f525f805160206125de83398151915260205260405f20825f5260205260405f2054885f525f805160206125de83398151915260205260405f20825f526020528060405f20555f525f805160206125be83398151915260205260405f20555f611ef7565b5f8681525f8051602061265e8339815191526020526040902080546001600160a01b0319169055611fd0846120c2565b80545f19019055611d74565b80612024575b15611fed575f611d5f565b836001600160a01b03831661200e57637e27328960e01b5f5260045260245ffd5b63177e802f60e01b5f523360045260245260445ffd5b506001600160a01b03821633148015612068575b80611fe257505f8481525f8051602061265e83398151915260205260409020546001600160a01b03163314611fe2565b506120728261208a565b335f908152602091909152604090205460ff16612038565b6001600160a01b03165f9081527f80bb2b638cc20bc4d0a60d66940f3ab4a00c1d7b313497ca82fb0b4ab00793056020526040902090565b6001600160a01b03165f9081527f80bb2b638cc20bc4d0a60d66940f3ab4a00c1d7b313497ca82fb0b4ab00793036020526040902090565b6001600160a01b0381161561211657612112906120c2565b5490565b6322718ad960e21b5f525f60045260245ffd5b9291612136818386611d39565b813b612143575b50505050565b604051630a85bd0160e11b81523360048201526001600160a01b039485166024820152604481019190915260806064820152921691906020908290819061218e906084830190611b67565b03815f865af15f9181612224575b506121f157503d156121ea573d6121b281611c56565b906121c06040519283611c34565b81523d5f602083013e5b805190816121e55782633250574960e11b5f5260045260245ffd5b602001fd5b60606121ca565b6001600160e01b03191663757a42ff60e11b0161221257505f80808061213d565b633250574960e11b5f5260045260245ffd5b9091506020813d602011612261575b8161224060209383611c34565b810103126101b257516001600160e01b0319811681036101b257905f61219c565b3d9150612233565b9190820391821161158357565b5f52600660205260405f20815f52600360205260ff8060405f205416165f5260205260405f2054815f52600460205260405f2054815f52600460205260405f2054105f1461247e575f82815260046020526040808220549282529020546122dc91612269565b905b6002546040516360a58cbd60e11b81526004810183905290602090829060249082906001600160a01b03165afa908115610364575f9161244c575b50815f5260056020528260405f205580612382575b505f81815260046020908152604080832054600583529281902054815194855291840192909252908201527fd4dd630f340a33010ac6e15bb9540a676dbeaf5ad85e43fa2f3f856ac40a19399150606090a1565b61ffff60025460a01c16808402908482041484151715611583575f828152600560205260409020612710909104908190557fd4dd630f340a33010ac6e15bb9540a676dbeaf5ad85e43fa2f3f856ac40a1939936123df9190612269565b825f52600560205260405f2055815f5260046020528260405f2054825f52600560205260405f20549061242960405192839286846040919493926060820195825260208201520152565b0390a1815f52600460205260405f2054905f52600460205260405f20555f61232e565b90506020813d602011612476575b8161246760209383611c34565b810103126101b257515f612319565b3d915061245a565b505f906122de565b6001600160a01b031680156124e4575f8051602061261e83398151915280546001600160a01b0319811683179091556001600160a01b03167f8be0079c531659141344cd1fd0a4f28419497f9722a3daafe3b4186f6b6457e05f80a3565b631e4fbdf760e01b5f525f60045260245ffd5b61250081612559565b906001600160a01b03821615612514575090565b637e27328960e01b5f5260045260245ffd5b5f8051602061261e833981519152546001600160a01b0316330361254657565b63118cdaa760e01b5f523360045260245ffd5b5f9081527f80bb2b638cc20bc4d0a60d66940f3ab4a00c1d7b313497ca82fb0b4ab007930260205260409020546001600160a01b031690565b60ff5f8051602061267e8339815191525460401c16156125ae57565b631afcd79f60e31b5f5260045ffdfe645e039705490088daad89bae25049a34f4a9072d398537b1ab2425f24cbed01645e039705490088daad89bae25049a34f4a9072d398537b1ab2425f24cbed0080bb2b638cc20bc4d0a60d66940f3ab4a00c1d7b313497ca82fb0b4ab00793009016d09d72d40fdae2fd8ceac6b6234c7706214fd39c1cd1e609a0528c199300645e039705490088daad89bae25049a34f4a9072d398537b1ab2425f24cbed0280bb2b638cc20bc4d0a60d66940f3ab4a00c1d7b313497ca82fb0b4ab0079304f0c57e16840df040f15088dc2f81fe391c3923bec73e23a9662efc9c229c6a0080bb2b638cc20bc4d0a60d66940f3ab4a00c1d7b313497ca82fb0b4ab007930137c58c799b6609234b945e882912ee9ad34948a1dfaa20a97485e1a7752bbf81a2646970667358221220069773cf8dc5ecba0f72dda44c854ae13a5ae031eb868a4720c55562da10a7e364736f6c634300081a0033","linkReferences":{}},"methodIdentifiers":{"approve(address,uint256)":"095ea7b3","balanceOf(address)":"70a08231","contributionNft()":"07c1aa1a","datasetImpactWeight()":"ce6d5e38","getApproved(uint256)":"081812fc","getCore(uint256)":"252079b2","getCoreDatasetAt(uint256,uint8,uint256)":"3f98641c","getCoreDatasets(uint256,uint8)":"27f98c11","getCoreService(uint256,uint8)":"87e2d553","getImpact(uint256)":"e6aed857","getMaturity(uint256)":"7f1e7d41","initialize(address,address,uint16)":"7ebef529","isApprovedForAll(address,address)":"e985e9c5","mint(uint256,bytes32)":"1801fbe5","name()":"06fdde03","owner()":"8da5cb5b","ownerOf(uint256)":"6352211e","personaNft()":"dcf75bef","renounceOwnership()":"715018a6","safeTransferFrom(address,address,uint256)":"42842e0e","safeTransferFrom(address,address,uint256,bytes)":"b88d4fde","setApprovalForAll(address,bool)":"a22cb465","setDatasetImpactWeight(uint16)":"5a03ac1e","supportsInterface(bytes4)":"01ffc9a7","symbol()":"95d89b41","tokenByIndex(uint256)":"4f6ccce7","tokenOfOwnerByIndex(address,uint256)":"2f745c59","tokenURI(uint256)":"c87b56dd","totalCoreDatasets(uint256,uint8)":"24359869","totalSupply()":"18160ddd","transferFrom(address,address,uint256)":"23b872dd","transferOwnership(address)":"f2fde38b","updateImpact(uint256,uint256)":"c5f69f68"},"id":10}