{"abi":[{"type":"function","name":"ADMIN_ROLE","inputs":[],"outputs":[{"name":"","type":"bytes32","internalType":"bytes32"}],"stateMutability":"view"},{"type":"function","name":"CLOCK_MODE","inputs":[],"outputs":[{"name":"","type":"string","internalType":"string"}],"stateMutability":"view"},{"type":"function","name":"DEFAULT_ADMIN_ROLE","inputs":[],"outputs":[{"name":"","type":"bytes32","internalType":"bytes32"}],"stateMutability":"view"},{"type":"function","name":"DENOM","inputs":[],"outputs":[{"name":"","type":"uint16","internalType":"uint16"}],"stateMutability":"view"},{"type":"function","name":"MAX_POSITIONS","inputs":[],"outputs":[{"name":"","type":"uint256","internalType":"uint256"}],"stateMutability":"view"},{"type":"function","name":"adminUnlocked","inputs":[],"outputs":[{"name":"","type":"bool","internalType":"bool"}],"stateMutability":"view"},{"type":"function","name":"balanceOf","inputs":[{"name":"account","type":"address","internalType":"address"}],"outputs":[{"name":"","type":"uint256","internalType":"uint256"}],"stateMutability":"view"},{"type":"function","name":"balanceOfAt","inputs":[{"name":"account","type":"address","internalType":"address"},{"name":"timestamp","type":"uint256","internalType":"uint256"}],"outputs":[{"name":"","type":"uint256","internalType":"uint256"}],"stateMutability":"view"},{"type":"function","name":"balanceOfLock","inputs":[{"name":"account","type":"address","internalType":"address"},{"name":"index","type":"uint256","internalType":"uint256"}],"outputs":[{"name":"","type":"uint256","internalType":"uint256"}],"stateMutability":"view"},{"type":"function","name":"baseToken","inputs":[],"outputs":[{"name":"","type":"address","internalType":"address"}],"stateMutability":"view"},{"type":"function","name":"clock","inputs":[],"outputs":[{"name":"","type":"uint48","internalType":"uint48"}],"stateMutability":"view"},{"type":"function","name":"decimals","inputs":[],"outputs":[{"name":"","type":"uint8","internalType":"uint8"}],"stateMutability":"pure"},{"type":"function","name":"delegate","inputs":[{"name":"delegatee","type":"address","internalType":"address"}],"outputs":[],"stateMutability":"nonpayable"},{"type":"function","name":"delegateBySig","inputs":[{"name":"delegatee","type":"address","internalType":"address"},{"name":"nonce","type":"uint256","internalType":"uint256"},{"name":"expiry","type":"uint256","internalType":"uint256"},{"name":"v","type":"uint8","internalType":"uint8"},{"name":"r","type":"bytes32","internalType":"bytes32"},{"name":"s","type":"bytes32","internalType":"bytes32"}],"outputs":[],"stateMutability":"nonpayable"},{"type":"function","name":"delegates","inputs":[{"name":"account","type":"address","internalType":"address"}],"outputs":[{"name":"","type":"address","internalType":"address"}],"stateMutability":"view"},{"type":"function","name":"eip712Domain","inputs":[],"outputs":[{"name":"fields","type":"bytes1","internalType":"bytes1"},{"name":"name","type":"string","internalType":"string"},{"name":"version","type":"string","internalType":"string"},{"name":"chainId","type":"uint256","internalType":"uint256"},{"name":"verifyingContract","type":"address","internalType":"address"},{"name":"salt","type":"bytes32","internalType":"bytes32"},{"name":"extensions","type":"uint256[]","internalType":"uint256[]"}],"stateMutability":"view"},{"type":"function","name":"extend","inputs":[{"name":"id","type":"uint256","internalType":"uint256"},{"name":"numWeeks","type":"uint8","internalType":"uint8"}],"outputs":[],"stateMutability":"nonpayable"},{"type":"function","name":"getMaturity","inputs":[{"name":"account","type":"address","internalType":"address"},{"name":"id","type":"uint256","internalType":"uint256"}],"outputs":[{"name":"","type":"uint256","internalType":"uint256"}],"stateMutability":"view"},{"type":"function","name":"getPastTotalSupply","inputs":[{"name":"timepoint","type":"uint256","internalType":"uint256"}],"outputs":[{"name":"","type":"uint256","internalType":"uint256"}],"stateMutability":"view"},{"type":"function","name":"getPastVotes","inputs":[{"name":"account","type":"address","internalType":"address"},{"name":"timepoint","type":"uint256","internalType":"uint256"}],"outputs":[{"name":"","type":"uint256","internalType":"uint256"}],"stateMutability":"view"},{"type":"function","name":"getPositions","inputs":[{"name":"account","type":"address","internalType":"address"},{"name":"start","type":"uint256","internalType":"uint256"},{"name":"count","type":"uint256","internalType":"uint256"}],"outputs":[{"name":"","type":"tuple[]","internalType":"struct veVirtual.Lock[]","components":[{"name":"amount","type":"uint256","internalType":"uint256"},{"name":"start","type":"uint256","internalType":"uint256"},{"name":"end","type":"uint256","internalType":"uint256"},{"name":"numWeeks","type":"uint8","internalType":"uint8"},{"name":"autoRenew","type":"bool","internalType":"bool"},{"name":"id","type":"uint256","internalType":"uint256"}]}],"stateMutability":"view"},{"type":"function","name":"getRoleAdmin","inputs":[{"name":"role","type":"bytes32","internalType":"bytes32"}],"outputs":[{"name":"","type":"bytes32","internalType":"bytes32"}],"stateMutability":"view"},{"type":"function","name":"getVotes","inputs":[{"name":"account","type":"address","internalType":"address"}],"outputs":[{"name":"","type":"uint256","internalType":"uint256"}],"stateMutability":"view"},{"type":"function","name":"grantRole","inputs":[{"name":"role","type":"bytes32","internalType":"bytes32"},{"name":"account","type":"address","internalType":"address"}],"outputs":[],"stateMutability":"nonpayable"},{"type":"function","name":"hasRole","inputs":[{"name":"role","type":"bytes32","internalType":"bytes32"},{"name":"account","type":"address","internalType":"address"}],"outputs":[{"name":"","type":"bool","internalType":"bool"}],"stateMutability":"view"},{"type":"function","name":"initialize","inputs":[{"name":"baseToken_","type":"address","internalType":"address"},{"name":"maxWeeks_","type":"uint8","internalType":"uint8"}],"outputs":[],"stateMutability":"nonpayable"},{"type":"function","name":"locks","inputs":[{"name":"","type":"address","internalType":"address"},{"name":"","type":"uint256","internalType":"uint256"}],"outputs":[{"name":"amount","type":"uint256","internalType":"uint256"},{"name":"start","type":"uint256","internalType":"uint256"},{"name":"end","type":"uint256","internalType":"uint256"},{"name":"numWeeks","type":"uint8","internalType":"uint8"},{"name":"autoRenew","type":"bool","internalType":"bool"},{"name":"id","type":"uint256","internalType":"uint256"}],"stateMutability":"view"},{"type":"function","name":"maxWeeks","inputs":[],"outputs":[{"name":"","type":"uint8","internalType":"uint8"}],"stateMutability":"view"},{"type":"function","name":"name","inputs":[],"outputs":[{"name":"","type":"string","internalType":"string"}],"stateMutability":"pure"},{"type":"function","name":"nonces","inputs":[{"name":"owner","type":"address","internalType":"address"}],"outputs":[{"name":"","type":"uint256","internalType":"uint256"}],"stateMutability":"view"},{"type":"function","name":"numPositions","inputs":[{"name":"account","type":"address","internalType":"address"}],"outputs":[{"name":"","type":"uint256","internalType":"uint256"}],"stateMutability":"view"},{"type":"function","name":"renounceRole","inputs":[{"name":"role","type":"bytes32","internalType":"bytes32"},{"name":"callerConfirmation","type":"address","internalType":"address"}],"outputs":[],"stateMutability":"nonpayable"},{"type":"function","name":"revokeRole","inputs":[{"name":"role","type":"bytes32","internalType":"bytes32"},{"name":"account","type":"address","internalType":"address"}],"outputs":[],"stateMutability":"nonpayable"},{"type":"function","name":"setAdminUnlocked","inputs":[{"name":"adminUnlocked_","type":"bool","internalType":"bool"}],"outputs":[],"stateMutability":"nonpayable"},{"type":"function","name":"setMaxWeeks","inputs":[{"name":"maxWeeks_","type":"uint8","internalType":"uint8"}],"outputs":[],"stateMutability":"nonpayable"},{"type":"function","name":"stake","inputs":[{"name":"amount","type":"uint256","internalType":"uint256"},{"name":"numWeeks","type":"uint8","internalType":"uint8"},{"name":"autoRenew","type":"bool","internalType":"bool"}],"outputs":[],"stateMutability":"nonpayable"},{"type":"function","name":"stakedAmountOf","inputs":[{"name":"account","type":"address","internalType":"address"}],"outputs":[{"name":"","type":"uint256","internalType":"uint256"}],"stateMutability":"view"},{"type":"function","name":"supportsInterface","inputs":[{"name":"interfaceId","type":"bytes4","internalType":"bytes4"}],"outputs":[{"name":"","type":"bool","internalType":"bool"}],"stateMutability":"view"},{"type":"function","name":"symbol","inputs":[],"outputs":[{"name":"","type":"string","internalType":"string"}],"stateMutability":"pure"},{"type":"function","name":"toggleAutoRenew","inputs":[{"name":"id","type":"uint256","internalType":"uint256"}],"outputs":[],"stateMutability":"nonpayable"},{"type":"function","name":"withdraw","inputs":[{"name":"id","type":"uint256","internalType":"uint256"}],"outputs":[],"stateMutability":"nonpayable"},{"type":"event","name":"AdminUnlocked","inputs":[{"name":"adminUnlocked","type":"bool","indexed":false,"internalType":"bool"}],"anonymous":false},{"type":"event","name":"AutoRenew","inputs":[{"name":"user","type":"address","indexed":true,"internalType":"address"},{"name":"id","type":"uint256","indexed":false,"internalType":"uint256"},{"name":"autoRenew","type":"bool","indexed":false,"internalType":"bool"}],"anonymous":false},{"type":"event","name":"DelegateChanged","inputs":[{"name":"delegator","type":"address","indexed":true,"internalType":"address"},{"name":"fromDelegate","type":"address","indexed":true,"internalType":"address"},{"name":"toDelegate","type":"address","indexed":true,"internalType":"address"}],"anonymous":false},{"type":"event","name":"DelegateVotesChanged","inputs":[{"name":"delegate","type":"address","indexed":true,"internalType":"address"},{"name":"previousVotes","type":"uint256","indexed":false,"internalType":"uint256"},{"name":"newVotes","type":"uint256","indexed":false,"internalType":"uint256"}],"anonymous":false},{"type":"event","name":"EIP712DomainChanged","inputs":[],"anonymous":false},{"type":"event","name":"Extend","inputs":[{"name":"user","type":"address","indexed":true,"internalType":"address"},{"name":"id","type":"uint256","indexed":false,"internalType":"uint256"},{"name":"numWeeks","type":"uint8","indexed":false,"internalType":"uint8"}],"anonymous":false},{"type":"event","name":"Initialized","inputs":[{"name":"version","type":"uint64","indexed":false,"internalType":"uint64"}],"anonymous":false},{"type":"event","name":"RoleAdminChanged","inputs":[{"name":"role","type":"bytes32","indexed":true,"internalType":"bytes32"},{"name":"previousAdminRole","type":"bytes32","indexed":true,"internalType":"bytes32"},{"name":"newAdminRole","type":"bytes32","indexed":true,"internalType":"bytes32"}],"anonymous":false},{"type":"event","name":"RoleGranted","inputs":[{"name":"role","type":"bytes32","indexed":true,"internalType":"bytes32"},{"name":"account","type":"address","indexed":true,"internalType":"address"},{"name":"sender","type":"address","indexed":true,"internalType":"address"}],"anonymous":false},{"type":"event","name":"RoleRevoked","inputs":[{"name":"role","type":"bytes32","indexed":true,"internalType":"bytes32"},{"name":"account","type":"address","indexed":true,"internalType":"address"},{"name":"sender","type":"address","indexed":true,"internalType":"address"}],"anonymous":false},{"type":"event","name":"Stake","inputs":[{"name":"user","type":"address","indexed":true,"internalType":"address"},{"name":"id","type":"uint256","indexed":false,"internalType":"uint256"},{"name":"amount","type":"uint256","indexed":false,"internalType":"uint256"},{"name":"numWeeks","type":"uint8","indexed":false,"internalType":"uint8"}],"anonymous":false},{"type":"event","name":"Withdraw","inputs":[{"name":"user","type":"address","indexed":true,"internalType":"address"},{"name":"id","type":"uint256","indexed":false,"internalType":"uint256"},{"name":"amount","type":"uint256","indexed":false,"internalType":"uint256"}],"anonymous":false},{"type":"error","name":"AccessControlBadConfirmation","inputs":[]},{"type":"error","name":"AccessControlUnauthorizedAccount","inputs":[{"name":"account","type":"address","internalType":"address"},{"name":"neededRole","type":"bytes32","internalType":"bytes32"}]},{"type":"error","name":"AddressEmptyCode","inputs":[{"name":"target","type":"address","internalType":"address"}]},{"type":"error","name":"AddressInsufficientBalance","inputs":[{"name":"account","type":"address","internalType":"address"}]},{"type":"error","name":"CheckpointUnorderedInsertion","inputs":[]},{"type":"error","name":"ECDSAInvalidSignature","inputs":[]},{"type":"error","name":"ECDSAInvalidSignatureLength","inputs":[{"name":"length","type":"uint256","internalType":"uint256"}]},{"type":"error","name":"ECDSAInvalidSignatureS","inputs":[{"name":"s","type":"bytes32","internalType":"bytes32"}]},{"type":"error","name":"ERC5805FutureLookup","inputs":[{"name":"timepoint","type":"uint256","internalType":"uint256"},{"name":"clock","type":"uint48","internalType":"uint48"}]},{"type":"error","name":"ERC6372InconsistentClock","inputs":[]},{"type":"error","name":"FailedInnerCall","inputs":[]},{"type":"error","name":"InvalidAccountNonce","inputs":[{"name":"account","type":"address","internalType":"address"},{"name":"currentNonce","type":"uint256","internalType":"uint256"}]},{"type":"error","name":"InvalidInitialization","inputs":[]},{"type":"error","name":"NotInitializing","inputs":[]},{"type":"error","name":"ReentrancyGuardReentrantCall","inputs":[]},{"type":"error","name":"SafeCastOverflowedUintDowncast","inputs":[{"name":"bits","type":"uint8","internalType":"uint8"},{"name":"value","type":"uint256","internalType":"uint256"}]},{"type":"error","name":"SafeERC20FailedOperation","inputs":[{"name":"token","type":"address","internalType":"address"}]},{"type":"error","name":"VotesExpiredSignature","inputs":[{"name":"expiry","type":"uint256","internalType":"uint256"}]}],"bytecode":{"object":"0x60808060405234601557613629908161001a8239f35b5f80fdfe60806040526004361015610011575f80fd5b5f3560e01c806301ffc9a71461029f57806306fdde031461021857806316343da41461029a578063248a9ca314610295578063288b1c68146102905780632b4bce311461028b5780632e1a7d4d146102865780632f2ff15d14610281578063313ce5671461027c57806336568abe146102775780633a46b1a8146102725780634bf5d7e91461026d5780634ee2cd7e1461026857806355168c9314610263578063587cde1e1461025e5780635c19a95c146102595780635fcdad9114610254578063605830ef1461024f5780636e7ed07b1461024a57806370a082311461024557806375b238fc146102405780637e530d2f1461023b5780637ecebe001461023657806384b0196e146102315780638e539e8c1461022c57806391d148541461022757806391ddadf414610222578063943b24b21461021d57806395d89b41146102185780639ab24eb014610213578063a217fddf1461020e578063b425f80214610209578063b7d7702c14610204578063be3956bf146101ff578063c3cda520146101fa578063c55dae63146101f5578063d547741f146101f0578063de6e659c146101eb578063e49dbb4f146101e6578063f48355b9146101e15763f7b24e08146101dc575f80fd5b61178c565b611694565b6114f4565b6114ab565b61147a565b611453565b611318565b6112a7565b611265565b6111ce565b61114a565b61110e565b61031d565b610f92565b610f67565b610f0c565b610dd4565b610d04565b610c2a565b610c05565b610bcb565b610ba6565b610b70565b610b49565b610b26565b610b04565b610ab8565b61098f565b610948565b6108b8565b6107a3565b61075f565b610744565b61070e565b610589565b610569565b610432565b61036c565b610350565b346102f55760203660031901126102f55760043563ffffffff60e01b81168091036102f557602090637965db0b60e01b81149081156102e4575b506040519015158152f35b6301ffc9a760e01b1490505f6102d9565b5f80fd5b805180835260209291819084018484015e5f828201840152601f01601f1916010190565b346102f5575f3660031901126102f55761034c61033861181e565b6040519182916020835260208301906102f9565b0390f35b346102f5575f3660031901126102f55760206040516127108152f35b346102f55760203660031901126102f557602061038a600435611845565b604051908152f35b600435906001600160a01b03821682036102f557565b602435906001600160a01b03821682036102f557565b60206040818301928281528451809452019201905f5b8181106103e15750505090565b909192602060c060019260a087518051835284810151858401526040810151604084015260ff6060820151166060840152608081015115156080840152015160a082015201940191019190916103d4565b346102f55760603660031901126102f55761044b610392565b60243560443561045a81611863565b9261046860405194856117dc565b818452601f1961047783611863565b015f5b81811061052e5750505f9183925b61049282866118ab565b84108061050e575b1561050057906104f76104f1610492936104d66104d0886104cb8960018060a01b03165f52600160205260405f2090565b6111b0565b506118cc565b6104e0828b6118b8565b526104eb818a6118b8565b5061188f565b9461188f565b93909150610488565b6040518061034c88826103be565b506001600160a01b0383165f90815260016020526040902054841061049a565b60209060405161053d816117bb565b5f81525f838201525f60408201525f60608201525f60808201525f60a08201528282890101520161047a565b346102f5575f3660031901126102f557602060ff60035416604051908152f35b346102f55760203660031901126102f5576106a36004356105a8612073565b6105b281336120ab565b906105d46104d0836104cb3360018060a01b03165f52600160205260405f2090565b604081015142108015906106ff575b6105ec90611918565b6106026105fc6080830151151590565b1561195a565b51335f90815260016020526040902090929061061e905461199e565b908181036106bb575b5050335f90815260016020526040902061064090611a45565b5f546106699083903390610664906001600160a01b03165b6001600160a01b031690565b612130565b604080519182526020820183905233917ff279e6a1f5e320cca91135676d9cb6e44ca8a08c0b88342bcdb1144f6511b5689190a233612170565b6106b960015f805160206135b483398151915255565b005b335f9081526001602052604090206106f8926106f2916106db91906111b0565b50335f9081526001602052604090209092906111b0565b906119cc565b5f80610627565b5060035460081c60ff166105e3565b346102f55760403660031901126102f5576106b960043561072d6103a8565b9061073f61073a82611845565b6122f5565b6124be565b346102f5575f3660031901126102f557602060405160128152f35b346102f55760403660031901126102f55760043561077b6103a8565b336001600160a01b03821603610794576106b991612566565b63334bd91960e11b5f5260045ffd5b346102f55760403660031901126102f5576107bc610392565b6024359065ffffffffffff6107d043612606565b16808310156108a257506107e66107ec91611164565b91612606565b8154905f82916005841161084a575b610806935084612e96565b908161082d57505061034c5f5b6040516001600160d01b0390911681529081906020820190565b61083961034c9261199e565b905f5260205f20015460301c610813565b919261085581612d28565b810390811161089d5761080693855f5265ffffffffffff8260205f2001541665ffffffffffff8516105f1461088b5750916107fb565b9291506108979061189d565b906107fb565b61187b565b82637669fc0f60e11b5f5260045260245260445ffd5b346102f5575f3660031901126102f5576108d143612606565b65ffffffffffff806108e243612606565b169116036109395761034c6040516108fb6040826117dc565b601d81527f6d6f64653d626c6f636b6e756d6265722666726f6d3d64656661756c7400000060208201526040519182916020835260208301906102f9565b6301bfc1c560e61b5f5260045ffd5b346102f55760403660031901126102f557602061038a610966610392565b60243590611a91565b6024359060ff821682036102f557565b6064359060ff821682036102f557565b346102f55760403660031901126102f5576004357f2b1bad57ed45c0298a4d6a14dc8850fb68015d5bd10457c2ec5ff8b587230173610a9f6109cf61096f565b6109d7612073565b6109f76109e485336120ab565b335f9081526001602052604090206111b0565b5060038101610a836002825493610a156105fc8660ff9060081c1690565b0191610a7585610a6f610a35865497610a2f894210611af0565b60ff1690565b96610a5d610a43848a611b2e565b60ff610a54610a2f60035460ff1690565b91161115611b42565b610a6960ff8416611b9c565b906118ab565b95611b2e565b60ff1660ff19825416179055565b556040805194855260ff90911660208501523393918291820190565b0390a26106b960015f805160206135b483398151915255565b346102f55760203660031901126102f5576001600160a01b03610ad9610392565b165f525f80516020613514833981519152602052602060018060a01b0360405f205416604051908152f35b346102f55760203660031901126102f5576106b9610b20610392565b33612712565b346102f55760203660031901126102f557602061038a610b44610392565b611be1565b346102f55760403660031901126102f557602061038a610b67610392565b60243590611c35565b346102f55760203660031901126102f55760043560ff81168091036102f557610b97612286565b60ff1960035416176003555f80f35b346102f55760203660031901126102f557602061038a610bc4610392565b4290611a91565b346102f5575f3660031901126102f55760206040517fa49807205ce4d355092ef5a8a18f56e8913cf4a201fbe287825b095693c217758152f35b346102f5575f3660031901126102f557602060ff60035460081c166040519015158152f35b346102f55760203660031901126102f5576001600160a01b03610c4b610392565b165f527f5ab42ced628888259c08ac98db1eb0cf702fc1501344311d8b100cd1bfe4bb00602052602060405f2054604051908152f35b929391610ca3610cb192600f60f81b865260e0602087015260e08601906102f9565b9084820360408601526102f9565b92606083015260018060a01b031660808201525f60a082015260c0818303910152602080835192838152019201905f5b818110610cee5750505090565b8251845260209384019390920191600101610ce1565b346102f5575f3660031901126102f5577fa16a46d94261c7517cc8ff89f61c0ce93598e3c849801011dee649a6a557d100541580610dab575b15610d6e57610d4a6127c2565b610d5261288f565b9061034c610d5e611cb2565b6040519384933091469186610c81565b60405162461bcd60e51b81526020600482015260156024820152741152540dcc4c8e88155b9a5b9a5d1a585b1a5e9959605a1b6044820152606490fd5b507fa16a46d94261c7517cc8ff89f61c0ce93598e3c849801011dee649a6a557d1015415610d3d565b346102f55760203660031901126102f55760043565ffffffffffff610df843612606565b169081811015610ef757610e0b90612606565b5f8051602061357483398151915254905f829160058411610e97575b610e3f93505f80516020613574833981519152612e96565b80610e5057506040515f8152602090f35b610e5c61034c9161199e565b5f805160206135748339815191525f527f88c46c62109817164d0ae1873830d4299a82e5daf552a3d8e989b27638fcf748015460301c610813565b9192610ea281612d28565b810390811161089d57610e3f935f805160206135748339815191525f5265ffffffffffff8260205f2001541665ffffffffffff8516105f14610ee5575091610e27565b929150610ef19061189d565b90610e27565b637669fc0f60e11b5f5260045260245260445ffd5b346102f55760403660031901126102f557602060ff610f5b600435610f2f6103a8565b905f525f80516020613594833981519152845260405f209060018060a01b03165f5260205260405f2090565b54166040519015158152f35b346102f5575f3660031901126102f5576020610f8243612606565b65ffffffffffff60405191168152f35b346102f55760403660031901126102f557610fab610392565b610fb361096f565b5f805160206135d483398151915254919067ffffffffffffffff610ff060ff604086901c1615610fe2565b1590565b9467ffffffffffffffff1690565b1680159081611106575b60011490816110fc575b1590816110f3575b506110e4576110509183611047600167ffffffffffffffff195f805160206135d48339815191525416175f805160206135d483398151915255565b6110af57611d09565b61105657005b61108060ff60401b195f805160206135d483398151915254165f805160206135d483398151915255565b604051600181527fc7f505b2f371ae2175ee4913f4499e1f2633a7b5936321eed1cdaeb6115181d290602090a1005b6110df600160401b60ff60401b195f805160206135d48339815191525416175f805160206135d483398151915255565b611d09565b63f92ee8a960e01b5f5260045ffd5b9050155f61100c565b303b159150611004565b849150610ffa565b346102f55760203660031901126102f55760206001600160d01b0361114161113c611137610392565b611164565b61293c565b16604051908152f35b346102f5575f3660031901126102f55760206040515f8152f35b6001600160a01b03165f9081527fe8b26c30fad74198956032a3533d903385d56dd795af560196f9c78d4af40d016020526040902090565b634e487b7160e01b5f52603260045260245ffd5b80548210156111c9575f52600560205f20910201905f90565b61119c565b346102f55760403660031901126102f5576111e7610392565b6001600160a01b03165f9081526001602052604090208054602435908110156102f557611213916111b0565b5080546001820154600283015460038401546004909401546040805194855260208501939093529183015260ff808416606084015260089390931c9092161515608082015260a081019190915260c090f35b346102f55760203660031901126102f5576001600160a01b03611286610392565b165f526001602052602060405f2054604051908152f35b801515036102f557565b346102f55760203660031901126102f5577f1664fc9d2adc81edeb38788b177fdfe12c9c15bd10b40663e9744e1af1c56a8660206004356112e78161129d565b6112ef612286565b61ff0060035491151560081b169061ff001916178060035560ff6040519160081c1615158152a1005b346102f55760c03660031901126102f557611331610392565b6044359060243561134061097f565b60843560a4359185421161144057916114349161143b9360426106b99860405160208101917fe48329057bfd03d55e49b547132e39cffd9c1820ad7b9d4c5307691425d15adf835260018060a01b038b1660408301528960608301526080820152608081526113b060a0826117dc565b5190206113bb613406565b6113c3613470565b6040519060208201927f8b73c3c69bb8fe3d512ecc4cf759cc79239f7b179b0ffacaa9a75d522b39400f8452604083015260608201524660808201523060a082015260a0815261141460c0826117dc565b519020906040519161190160f01b83526002830152602282015220612966565b918261297e565b612712565b85632341d78760e11b5f5260045260245ffd5b346102f5575f3660031901126102f5575f546040516001600160a01b039091168152602090f35b346102f55760403660031901126102f5576106b96004356114996103a8565b906114a661073a82611845565b612566565b346102f55760403660031901126102f557602061038a6114ed6104d06114cf610392565b6001600160a01b03165f9081526001855260409020602435906111b0565b4290612653565b346102f55760603660031901126102f5576106a360043561151361096f565b60443561151f8161129d565b611527612073565b61155c82611536851515611f57565b61155560ff61154a610a2f60035460ff1690565b921691821115611b42565b1515611fa3565b5f5461157f908490611576906001600160a01b0316610658565b309033906129dd565b600181151514611659575b6116507f6fa2f6021ee337436cdf2b2570285886da18bc06402ce284d296504a0fe8f875916116296115c76115c160ff8716611b9c565b426118ab565b61160f600254936115df6115da8661188f565b600255565b6115e76117fe565b92898452426020850152604084015261160688606085019060ff169052565b15156080830152565b60a08101928352335f908152600160205260409020611fee565b51926040519182918633968491604091949360ff9160608501968552602085015216910152565b0390a233612201565b90507f6fa2f6021ee337436cdf2b2570285886da18bc06402ce284d296504a0fe8f87561165061168b60035460ff1690565b9291505061158a565b346102f55760203660031901126102f5576004356116b0612073565b7f1d94e785ca79528225ae3b538b0fc686337b6c73da42dbfee64c8d01b0779913610a9f6117736116f56116e485336120ab565b335f52600160205260405f206111b0565b506003810190611726611710610fde845460ff9060081c1690565b835461ff00191690151560081b61ff0016178355565b61174561173560035460ff1690565b835460ff191660ff909116178355565b42600182015560026117666115c1611761610a2f865460ff1690565b611b9c565b9101555460081c60ff1690565b6040805194855290151560208501523393918291820190565b346102f5575f3660031901126102f557602060405160c88152f35b634e487b7160e01b5f52604160045260245ffd5b60c0810190811067ffffffffffffffff8211176117d757604052565b6117a7565b90601f8019910116810190811067ffffffffffffffff8211176117d757604052565b6040519061180d60c0836117dc565b565b6040519061180d6040836117dc565b6040519061182d6040836117dc565b60098252681d995592549515505360ba1b6020830152565b5f525f80516020613594833981519152602052600160405f20015490565b67ffffffffffffffff81116117d75760051b60200190565b634e487b7160e01b5f52601160045260245ffd5b5f19811461089d5760010190565b906001820180921161089d57565b9190820180921161089d57565b80518210156111c95760209160051b010190565b906040516118d9816117bb565b60a06004829480548452600181015460208501526002810154604085015260ff6003820154818116606087015260081c16151560808501520154910152565b1561191f57565b60405162461bcd60e51b8152602060048201526013602482015272131bd8dac81a5cc81b9bdd08195e1c1a5c9959606a1b6044820152606490fd5b1561196157565b60405162461bcd60e51b81526020600482015260156024820152744c6f636b206973206175746f2d72656e6577696e6760581b6044820152606490fd5b5f1981019190821161089d57565b9190820391821161089d57565b634e487b7160e01b5f525f60045260245ffd5b9190611a40578082036119dd575050565b60048181925484556001810154600185015560028101546002850155611a396003850160ff60038401611a1d82825416849060ff1660ff19825416179055565b5460081c1661ff00825491151560081b169061ff001916179055565b0154910155565b6119b9565b80548015611a7d575f190190611a5b82826111b0565b611a40576004815f809355826001820155826002820155826003820155015555565b634e487b7160e01b5f52603160045260245ffd5b5f91825b6001600160a01b0383165f81815260016020526040902054851015611ae8575f526001602052611ad482611acf6104d08760405f206111b0565b612653565b810180911161089d57600190930192611a95565b509250505090565b15611af757565b60405162461bcd60e51b815260206004820152600f60248201526e131bd8dac81a5cc8195e1c1a5c9959608a1b6044820152606490fd5b9060ff8091169116019060ff821161089d57565b15611b4957565b60405162461bcd60e51b815260206004820152602560248201527f4e756d207765656b73206d757374206265206c657373207468616e206d6178206044820152647765656b7360d81b6064820152608490fd5b9062093a8082029180830462093a80149015171561089d57565b90612710820291808304612710149015171561089d57565b8181029291811591840414171561089d57565b5f91825b6001600160a01b0383165f81815260016020526040902054851015611c2e575f526001602052611c188460405f206111b0565b5054810180911161089d57600190930192611be5565b5092509050565b90611c4090826120ab565b9060018060a01b0316805f5260016020526080611c636104d08460405f206111b0565b015115611c9557505060035460ff1662093a800262ffffff811690810361089d57611c929062ffffff166115c1565b90565b600291611cac915f52600160205260405f206111b0565b50015490565b60405190611cc16020836117dc565b5f808352366020840137565b15611cd457565b60405162461bcd60e51b815260206004820152600d60248201526c24b73b30b634b2103a37b5b2b760991b6044820152606490fd5b611d11612f2d565b611d19612f2d565b60015f805160206135b483398151915255611d32612f2d565b611d3a612f2d565b611d4261181e565b60405190611d516040836117dc565b60018252603160f81b6020830152611d67612f2d565b611d6f612f2d565b80519067ffffffffffffffff82116117d757611da182611d9c5f805160206135348339815191525461278a565b612f58565b602090601f8311600114611eb05792611ddd83611e85979694611df194611e75975f92611ea5575b50508160011b915f199060031b1c19161790565b5f8051602061353483398151915255613003565b611e195f7fa16a46d94261c7517cc8ff89f61c0ce93598e3c849801011dee649a6a557d10055565b611e415f7fa16a46d94261c7517cc8ff89f61c0ce93598e3c849801011dee649a6a557d10155565b611e556001600160a01b0382161515611ccd565b60018060a01b03166bffffffffffffffffffffffff60a01b5f5416175f55565b60ff1660ff196003541617600355565b611e8f6001600255565b611e983361233b565b50611ea2336123ea565b50565b015190505f80611dc9565b5f805160206135348339815191525f52601f19831691907f42ad5d3e1f2e6e70edcf6d991b8a3023d3fca8047a131592f9edb9fd9b89d57d925f5b818110611f3f575093611df193611e75969360019383611e859b9a9810611f27575b505050811b015f8051602061353483398151915255613003565b01515f1960f88460031b161c191690555f8080611f0d565b92936020600181928786015181550195019301611eeb565b15611f5e57565b60405162461bcd60e51b815260206004820152601d60248201527f416d6f756e74206d7573742062652067726561746572207468616e20300000006044820152606490fd5b15611faa57565b606460405162461bcd60e51b815260206004820152602060248201527f4e756d207765656b73206d7573742062652067726561746572207468616e20306044820152fd5b8054600160401b8110156117d75761200b916001820181556111b0565b919091611a405760a081600492518455602081015160018501556040810151600285015561206c6003850161205160ff606085015116829060ff1660ff19825416179055565b6080830151815461ff00191690151560081b61ff0016179055565b0151910155565b60025f805160206135b4833981519152541461209c5760025f805160206135b483398151915255565b633ee5aeb560e01b5f5260045ffd5b905f5b6001600160a01b0383165f818152600160205260409020548210156120fa575f5260016020528160046120e48360405f206111b0565b500154146120f4576001016120ae565b91505090565b60405162461bcd60e51b815260206004820152600e60248201526d131bd8dac81b9bdd08199bdd5b9960921b6044820152606490fd5b60405163a9059cbb60e01b60208201526001600160a01b03909216602483015260448083019390935291815261180d9161216b6064836117dc565b612a36565b61180d91906001600160a01b031680156121e9575b61219661219183612aed565b612b6f565b50505f9081525f8051602061351483398151915260205260408120549080527fd4fb29e10204005f1a39963c6862b79a755e22f0177c53f05cdc3786c702f974546001600160a01b039081169116612c24565b6121fa6121f583612aed565b612b1e565b5050612185565b9061180d916122126121f583612aed565b50506001600160a01b03168015612273575b5f805160206135148339815191526020527fd4fb29e10204005f1a39963c6862b79a755e22f0177c53f05cdc3786c702f974545f9182526040909120546001600160a01b039081169116612c24565b61227f61219183612aed565b5050612224565b335f9081527fb16e88c42fd4e48df2dd6a2eabd6bc9aec654ec170056b470819f8892cc6431c602052604090205460ff16156122be57565b63e2517d3f60e01b5f52336004527fa49807205ce4d355092ef5a8a18f56e8913cf4a201fbe287825b095693c2177560245260445ffd5b5f8181525f805160206135948339815191526020908152604080832033845290915290205460ff16156123255750565b63e2517d3f60e01b5f523360045260245260445ffd5b6001600160a01b0381165f9081527fb7db2dd08fcb62d0c9e08c51941cae53c267786a0b75803fb7960902fc8ef97d602052604090205460ff166123e5576001600160a01b03165f8181527fb7db2dd08fcb62d0c9e08c51941cae53c267786a0b75803fb7960902fc8ef97d60205260408120805460ff191660011790553391907f2f8788117e7eff1d82e926ec794901d17c78024a50270940304540a733656f0d8180a4600190565b505f90565b6001600160a01b0381165f9081527fb16e88c42fd4e48df2dd6a2eabd6bc9aec654ec170056b470819f8892cc6431c602052604090205460ff166123e5576001600160a01b0381165f9081527fb16e88c42fd4e48df2dd6a2eabd6bc9aec654ec170056b470819f8892cc6431c60205260409020805460ff1916600117905533906001600160a01b03167fa49807205ce4d355092ef5a8a18f56e8913cf4a201fbe287825b095693c217757f2f8788117e7eff1d82e926ec794901d17c78024a50270940304540a733656f0d5f80a4600190565b5f8181525f80516020613594833981519152602090815260408083206001600160a01b038616845290915290205460ff16612560575f8181525f80516020613594833981519152602090815260408083206001600160a01b03861684529091529020805460ff1916600117905533916001600160a01b0316907f2f8788117e7eff1d82e926ec794901d17c78024a50270940304540a733656f0d5f80a4600190565b50505f90565b5f8181525f80516020613594833981519152602090815260408083206001600160a01b038616845290915290205460ff1615612560575f8181525f80516020613594833981519152602090815260408083206001600160a01b03861684529091529020805460ff1916905533916001600160a01b0316907ff6391f5c32d9c69d2a47ea670b442974b53935d1edc7fd64eb21e047a839171b5f80a4600190565b65ffffffffffff811161261e5765ffffffffffff1690565b6306dfcc6560e41b5f52603060045260245260445ffd5b811561263f570490565b634e487b7160e01b5f52601260045260245ffd5b9081519061268561267e608085019361266c8551151590565b156127055760035460ff165b90612efa565b9251151590565b6126ff57602083019081519182821080156126f1575b6126e8576126d46126c56126da936126bd6126e2966040611c929a01516119ac565b9351906119ac565b916126cf86611bb6565b612635565b90611bce565b612710900490565b906119ac565b50505050505f90565b50604085015182101561269b565b50905090565b606086015160ff16612678565b6001600160a01b038181165f8181525f805160206135148339815191526020526040812080548685166001600160a01b03198216811790925561180d969416946127849390928691907f3134e8a2e6d97e929a7e54011ea5485d7d196dd5f0ba4d4ef95803e8e3fc257f9080a4611be1565b91612c24565b90600182811c921680156127b8575b60208310146127a457565b634e487b7160e01b5f52602260045260245ffd5b91607f1691612799565b604051905f825f8051602061353483398151915254916127e18361278a565b80835292600181169081156128705750600114612805575b61180d925003836117dc565b505f805160206135348339815191525f90815290917f42ad5d3e1f2e6e70edcf6d991b8a3023d3fca8047a131592f9edb9fd9b89d57d5b81831061285457505090602061180d928201016127f9565b602091935080600191548385890101520191019091849261283c565b6020925061180d94915060ff191682840152151560051b8201016127f9565b604051905f825f8051602061355483398151915254916128ae8361278a565b808352926001811690811561287057506001146128d15761180d925003836117dc565b505f805160206135548339815191525f90815290917f5f9ce34815f8e11431c7bb75a8e6886a91478f7ffc1dbb0a98dc240fddd76b755b81831061292057505090602061180d928201016127f9565b6020919350806001915483858901015201910190918492612908565b8054908161294a5750505f90565b815f1981011161089d575f525f199060205f2001015460301c90565b91611c92939161297593613117565b909291926131c2565b6001600160a01b03165f8181527f5ab42ced628888259c08ac98db1eb0cf702fc1501344311d8b100cd1bfe4bb0060205260409020805460018101909155918290036129c8575050565b6301d4b62360e61b5f5260045260245260445ffd5b6040516323b872dd60e01b60208201526001600160a01b03928316602482015292909116604483015260648083019390935291815261180d9161216b6084836117dc565b908160209103126102f55751611c928161129d565b81516001600160a01b03909116915f91829160200182855af13d15612ae1573d67ffffffffffffffff81116117d757604051612a92929091612a82601f8201601f1916602001846117dc565b82523d5f602084013e5b836134b5565b8051908115159182612ac3575b5050612aa85750565b635274afe760e01b5f526001600160a01b031660045260245ffd5b612ada925090602080610fde938301019101612a21565b5f80612a9f565b612a9290606090612a8c565b6001600160d01b038111612b07576001600160d01b031690565b6306dfcc6560e41b5f5260d060045260245260445ffd5b612b2743612606565b90612b3e5f8051602061357483398151915261293c565b6001600160d01b039182169082160190811161089d57612b6b915f805160206135748339815191526132d3565b9091565b612b7843612606565b90612b8f5f8051602061357483398151915261293c565b6001600160d01b039182169082160390811161089d57612b6b915f805160206135748339815191526132d3565b90612bc643612606565b90612bd08361293c565b6001600160d01b03918216908216039190821161089d57612b6b926132d3565b90612bfa43612606565b90612c048361293c565b6001600160d01b03918216908216019190821161089d57612b6b926132d3565b6001600160a01b03808316939291908116908185141580612d1f575b612c4c575b5050505050565b81612cc1575b505082612c61575b8080612c45565b7fdec2bacdd2f05b59de34da9b523dff8be42e5e38e818c82fdb0bae774387a72491612c98612c92612c9e93611164565b91612aed565b90612bf0565b604080516001600160d01b039384168152919092166020820152a25f8080612c5a565b612cfd612cee7fdec2bacdd2f05b59de34da9b523dff8be42e5e38e818c82fdb0bae774387a72492611164565b612cf786612aed565b90612bbc565b604080516001600160d01b039384168152919092166020820152a25f80612c52565b50831515612c40565b80156123e557611c9290612e2c612e25612e1b612e11612e07612dfd612df3612de96001612dd75f8b608081901c80612e88575b5080612d6b612dcd9260401c90565b80612e7b575b50612d7c8160201c90565b80612e6e575b50612d8d8160101c90565b80612e61575b50612d9e8160081c90565b80612e54575b50612daf8160041c90565b80612e47575b50612dc08160021c90565b80612e3a575b5060011c90565b612e325760011c90565b1b612de2818b612635565b0160011c90565b612de2818a612635565b612de28189612635565b612de28188612635565b612de28187612635565b612de28186612635565b612de28185612635565b8092612635565b9061323e565b820160011c90565b600291509201915f612dc6565b600491509201915f612db5565b600891509201915f612da4565b601091509201915f612d93565b602091509201915f612d82565b604091509201915f612d71565b608092509050612dcd612d5c565b91905b838210612ea65750505090565b9091928083169080841860011c820180921161089d57845f5265ffffffffffff8260205f2001541665ffffffffffff8416105f14612ee85750925b9190612e99565b939250612ef49061189d565b91612ee1565b60035461271092612f1d929160ff9182169116808210612f215750508290611bce565b0490565b6126cf6126d492611bb6565b60ff5f805160206135d48339815191525460401c1615612f4957565b631afcd79f60e31b5f5260045ffd5b601f8111612f64575050565b5f805160206135348339815191525f5260205f20906020601f840160051c83019310612faa575b601f0160051c01905b818110612f9f575050565b5f8155600101612f94565b9091508190612f8b565b601f8211612fc157505050565b5f5260205f20906020601f840160051c83019310612ff9575b601f0160051c01905b818110612fee575050565b5f8155600101612fe3565b9091508190612fda565b90815167ffffffffffffffff81116117d757613043816130305f805160206135548339815191525461278a565b5f80516020613554833981519152612fb4565b602092601f821160011461308357613072929382915f92611ea55750508160011b915f199060031b1c19161790565b5f8051602061355483398151915255565b5f805160206135548339815191525f52601f198216937f5f9ce34815f8e11431c7bb75a8e6886a91478f7ffc1dbb0a98dc240fddd76b75915f5b8681106130ff57508360019596106130e7575b505050811b015f8051602061355483398151915255565b01515f1960f88460031b161c191690555f80806130d0565b919260206001819286850151815501940192016130bd565b91907f7fffffffffffffffffffffffffffffff5d576e7357a4501ddfe92f46681b20a08411613199579160209360809260ff5f9560405194855216868401526040830152606082015282805260015afa1561318e575f516001600160a01b0381161561318457905f905f90565b505f906001905f90565b6040513d5f823e3d90fd5b5050505f9160039190565b600411156131ae57565b634e487b7160e01b5f52602160045260245ffd5b6131cb816131a4565b806131d4575050565b6131dd816131a4565b600181036131f45763f645eedf60e01b5f5260045ffd5b6131fd816131a4565b60028103613218575063fce698f760e01b5f5260045260245ffd5b806132246003926131a4565b1461322c5750565b6335e2f38360e21b5f5260045260245ffd5b908082101561324b575090565b905090565b908154600160401b8110156117d757600181018084558110156111c9575f9283526020928390208251929093015160301b65ffffffffffff191665ffffffffffff9290921691909117910155565b906040516040810181811067ffffffffffffffff8211176117d757604052915465ffffffffffff8116835260301c6020830152565b8054929392919082156133dd576132ff6132fa6132ef8561199e565b835f5260205f200190565b61329e565b9065ffffffffffff613317835165ffffffffffff1690565b81851691829116116133ce5761339294602094889261334a61333f875165ffffffffffff1690565b65ffffffffffff1690565b0361339657506133849261336061336b9261199e565b905f5260205f200190565b9065ffffffffffff82549181199060301b169116179055565b01516001600160d01b031690565b9190565b9150506133c9916133b66133a861180f565b65ffffffffffff9093168352565b6001600160d01b03881682860152613250565b613384565b632520601d60e01b5f5260045ffd5b61340192506133ed6133a861180f565b6001600160d01b0385166020830152613250565b5f9190565b61340e6127c2565b805190811561341e576020012090565b50507fa16a46d94261c7517cc8ff89f61c0ce93598e3c849801011dee649a6a557d10054801561344b5790565b507fc5d2460186f7233c927e7db2dcc703c0e500b653ca82273b7bfad8045d85a47090565b61347861288f565b8051908115613488576020012090565b50507fa16a46d94261c7517cc8ff89f61c0ce93598e3c849801011dee649a6a557d10154801561344b5790565b906134d957508051156134ca57805190602001fd5b630a12f52160e11b5f5260045ffd5b8151158061350a575b6134ea575090565b639996b31560e01b5f9081526001600160a01b0391909116600452602490fd5b50803b156134e256fee8b26c30fad74198956032a3533d903385d56dd795af560196f9c78d4af40d00a16a46d94261c7517cc8ff89f61c0ce93598e3c849801011dee649a6a557d102a16a46d94261c7517cc8ff89f61c0ce93598e3c849801011dee649a6a557d103e8b26c30fad74198956032a3533d903385d56dd795af560196f9c78d4af40d0202dd7bc7dec4dceedda775e58dd541e08a116c6c53815c0bd028192f7b6268009b779b17422d0df92223018b32b4d1fa46e071723d6817e2486d003becc55f00f0c57e16840df040f15088dc2f81fe391c3923bec73e23a9662efc9c229c6a00a2646970667358221220eed2f0e34bcd139e84df62328d35f6f91900a00f5f6bfee69ea696aed3fad27e64736f6c634300081a0033","linkReferences":{}},"methodIdentifiers":{"ADMIN_ROLE()":"75b238fc","CLOCK_MODE()":"4bf5d7e9","DEFAULT_ADMIN_ROLE()":"a217fddf","DENOM()":"16343da4","MAX_POSITIONS()":"f7b24e08","adminUnlocked()":"7e530d2f","balanceOf(address)":"70a08231","balanceOfAt(address,uint256)":"4ee2cd7e","balanceOfLock(address,uint256)":"de6e659c","baseToken()":"c55dae63","clock()":"91ddadf4","decimals()":"313ce567","delegate(address)":"5c19a95c","delegateBySig(address,uint256,uint256,uint8,bytes32,bytes32)":"c3cda520","delegates(address)":"587cde1e","eip712Domain()":"84b0196e","extend(uint256,uint8)":"55168c93","getMaturity(address,uint256)":"605830ef","getPastTotalSupply(uint256)":"8e539e8c","getPastVotes(address,uint256)":"3a46b1a8","getPositions(address,uint256,uint256)":"288b1c68","getRoleAdmin(bytes32)":"248a9ca3","getVotes(address)":"9ab24eb0","grantRole(bytes32,address)":"2f2ff15d","hasRole(bytes32,address)":"91d14854","initialize(address,uint8)":"943b24b2","locks(address,uint256)":"b425f802","maxWeeks()":"2b4bce31","name()":"06fdde03","nonces(address)":"7ecebe00","numPositions(address)":"b7d7702c","renounceRole(bytes32,address)":"36568abe","revokeRole(bytes32,address)":"d547741f","setAdminUnlocked(bool)":"be3956bf","setMaxWeeks(uint8)":"6e7ed07b","stake(uint256,uint8,bool)":"e49dbb4f","stakedAmountOf(address)":"5fcdad91","supportsInterface(bytes4)":"01ffc9a7","symbol()":"95d89b41","toggleAutoRenew(uint256)":"f48355b9","withdraw(uint256)":"2e1a7d4d"},"id":90}