{"abi":[{"type":"constructor","inputs":[],"stateMutability":"nonpayable"},{"type":"function","name":"agentNft","inputs":[],"outputs":[{"name":"","type":"address","internalType":"address"}],"stateMutability":"view"},{"type":"function","name":"allowance","inputs":[{"name":"","type":"address","internalType":"address"},{"name":"","type":"address","internalType":"address"}],"outputs":[{"name":"","type":"uint256","internalType":"uint256"}],"stateMutability":"view"},{"type":"function","name":"approve","inputs":[{"name":"spender","type":"address","internalType":"address"},{"name":"amount","type":"uint256","internalType":"uint256"}],"outputs":[{"name":"","type":"bool","internalType":"bool"}],"stateMutability":"nonpayable"},{"type":"function","name":"assetToken","inputs":[],"outputs":[{"name":"","type":"address","internalType":"address"}],"stateMutability":"view"},{"type":"function","name":"balanceOf","inputs":[{"name":"","type":"address","internalType":"address"}],"outputs":[{"name":"","type":"uint256","internalType":"uint256"}],"stateMutability":"view"},{"type":"function","name":"canStake","inputs":[],"outputs":[{"name":"","type":"bool","internalType":"bool"}],"stateMutability":"view"},{"type":"function","name":"decimals","inputs":[],"outputs":[{"name":"","type":"uint8","internalType":"uint8"}],"stateMutability":"view"},{"type":"function","name":"delegate","inputs":[{"name":"delegatee","type":"address","internalType":"address"}],"outputs":[],"stateMutability":"nonpayable"},{"type":"function","name":"delegateBySig","inputs":[{"name":"delegatee","type":"address","internalType":"address"},{"name":"nonce","type":"uint256","internalType":"uint256"},{"name":"expiry","type":"uint256","internalType":"uint256"},{"name":"v","type":"uint8","internalType":"uint8"},{"name":"r","type":"bytes32","internalType":"bytes32"},{"name":"s","type":"bytes32","internalType":"bytes32"}],"outputs":[],"stateMutability":"nonpayable"},{"type":"function","name":"delegates","inputs":[{"name":"account","type":"address","internalType":"address"}],"outputs":[{"name":"","type":"address","internalType":"address"}],"stateMutability":"view"},{"type":"function","name":"founder","inputs":[],"outputs":[{"name":"","type":"address","internalType":"address"}],"stateMutability":"view"},{"type":"function","name":"getPastBalanceOf","inputs":[{"name":"account","type":"address","internalType":"address"},{"name":"timepoint","type":"uint256","internalType":"uint256"}],"outputs":[{"name":"","type":"uint256","internalType":"uint256"}],"stateMutability":"view"},{"type":"function","name":"getPastDelegates","inputs":[{"name":"account","type":"address","internalType":"address"},{"name":"timepoint","type":"uint256","internalType":"uint256"}],"outputs":[{"name":"","type":"address","internalType":"address"}],"stateMutability":"view"},{"type":"function","name":"getPastTotalSupply","inputs":[{"name":"timepoint","type":"uint256","internalType":"uint256"}],"outputs":[{"name":"","type":"uint256","internalType":"uint256"}],"stateMutability":"view"},{"type":"function","name":"getPastVotes","inputs":[{"name":"account","type":"address","internalType":"address"},{"name":"timepoint","type":"uint256","internalType":"uint256"}],"outputs":[{"name":"","type":"uint256","internalType":"uint256"}],"stateMutability":"view"},{"type":"function","name":"getVotes","inputs":[{"name":"account","type":"address","internalType":"address"}],"outputs":[{"name":"","type":"uint256","internalType":"uint256"}],"stateMutability":"view"},{"type":"function","name":"initialize","inputs":[{"name":"_name","type":"string","internalType":"string"},{"name":"_symbol","type":"string","internalType":"string"},{"name":"_founder","type":"address","internalType":"address"},{"name":"_assetToken","type":"address","internalType":"address"},{"name":"_matureAt","type":"uint256","internalType":"uint256"},{"name":"_agentNft","type":"address","internalType":"address"},{"name":"_canStake","type":"bool","internalType":"bool"}],"outputs":[],"stateMutability":"nonpayable"},{"type":"function","name":"matureAt","inputs":[],"outputs":[{"name":"","type":"uint256","internalType":"uint256"}],"stateMutability":"view"},{"type":"function","name":"name","inputs":[],"outputs":[{"name":"","type":"string","internalType":"string"}],"stateMutability":"view"},{"type":"function","name":"nonces","inputs":[{"name":"","type":"address","internalType":"address"}],"outputs":[{"name":"","type":"uint256","internalType":"uint256"}],"stateMutability":"view"},{"type":"function","name":"stake","inputs":[{"name":"amount","type":"uint256","internalType":"uint256"},{"name":"receiver","type":"address","internalType":"address"},{"name":"delegatee","type":"address","internalType":"address"}],"outputs":[],"stateMutability":"nonpayable"},{"type":"function","name":"symbol","inputs":[],"outputs":[{"name":"","type":"string","internalType":"string"}],"stateMutability":"view"},{"type":"function","name":"totalSupply","inputs":[],"outputs":[{"name":"","type":"uint256","internalType":"uint256"}],"stateMutability":"view"},{"type":"function","name":"transfer","inputs":[{"name":"to","type":"address","internalType":"address"},{"name":"amount","type":"uint256","internalType":"uint256"}],"outputs":[{"name":"","type":"bool","internalType":"bool"}],"stateMutability":"nonpayable"},{"type":"function","name":"transferFrom","inputs":[{"name":"from","type":"address","internalType":"address"},{"name":"to","type":"address","internalType":"address"},{"name":"amount","type":"uint256","internalType":"uint256"}],"outputs":[{"name":"","type":"bool","internalType":"bool"}],"stateMutability":"nonpayable"},{"type":"function","name":"withdraw","inputs":[{"name":"amount","type":"uint256","internalType":"uint256"}],"outputs":[],"stateMutability":"nonpayable"},{"type":"event","name":"Approval","inputs":[{"name":"owner","type":"address","indexed":true,"internalType":"address"},{"name":"spender","type":"address","indexed":true,"internalType":"address"},{"name":"value","type":"uint256","indexed":false,"internalType":"uint256"}],"anonymous":false},{"type":"event","name":"DelegateChanged","inputs":[{"name":"delegator","type":"address","indexed":true,"internalType":"address"},{"name":"fromDelegate","type":"address","indexed":true,"internalType":"address"},{"name":"toDelegate","type":"address","indexed":true,"internalType":"address"}],"anonymous":false},{"type":"event","name":"DelegateVotesChanged","inputs":[{"name":"delegate","type":"address","indexed":true,"internalType":"address"},{"name":"previousVotes","type":"uint256","indexed":false,"internalType":"uint256"},{"name":"newVotes","type":"uint256","indexed":false,"internalType":"uint256"}],"anonymous":false},{"type":"event","name":"Transfer","inputs":[{"name":"from","type":"address","indexed":true,"internalType":"address"},{"name":"to","type":"address","indexed":true,"internalType":"address"},{"name":"value","type":"uint256","indexed":false,"internalType":"uint256"}],"anonymous":false},{"type":"error","name":"VotesExpiredSignature","inputs":[{"name":"expiry","type":"uint256","internalType":"uint256"}]}],"bytecode":{"object":"0x6080806040523460155761137c908161001a8239f35b5f80fdfe60806040526004361015610011575f80fd5b5f3560e01c806306fdde0314610d40578063095ea7b314610cc75780631083f76114610c9f57806318160ddd14610c8257806323b872dd14610bc75780632e1a7d4d14610ae5578063313ce56714610aca5780633a46b1a814610a9b5780634d853ee514610a73578063587cde1e14610a335780635c19a95c14610a115780635ec80600146109c557806370a082311461098d5780637ecebe00146109555780638e539e8c1461092a57806395d89b41146108635780639ab24eb01461082b5780639cbef4a9146108035780639ed27809146107de578063a5e881b3146107c1578063a7d545db14610654578063a9059cbb14610623578063b2193b4d14610200578063c3cda520146101cf578063d7b7d4051461018b5763dd62ed3e14610137575f80fd5b3461018757604036600319011261018757610150610e53565b610158610e69565b6001600160a01b039182165f908152600860209081526040808320949093168252928352819020549051908152f35b5f80fd5b34610187576040366003190112610187576101a4610e53565b6101b14260243510610f9f565b60018060a01b03165f526007602052602060405f2054604051908152f35b346101875760c0366003190112610187576101e8610e53565b60643560ff811603610187576101fe9033611179565b005b346101875760e03660031901126101875760043567ffffffffffffffff811161018757610231903690600401610e95565b60243567ffffffffffffffff811161018757610251903690600401610e95565b9061025a610e7f565b6064356001600160a01b0381169391908490036101875760a4356001600160a01b03811692908390036101875760c435938415158095036101875780519067ffffffffffffffff82116105255781906102b35f54610dcf565b601f81116105b2575b50602090601f8311600114610544575f92610539575b50508160011b915f199060031b1c1916175f555b80519067ffffffffffffffff8211610525578190610305600154610dcf565b601f81116104b3575b50602090601f8311600114610442575f92610437575b50508160011b915f199060031b1c1916176001555b60018060a01b031692836bffffffffffffffffffffffff60a01b60035416176003556bffffffffffffffffffffffff60a01b60045416176004556084356005556006549160ff60a01b9060a01b16916affffffffffffffffffffff60a81b16171760065560025469d3c21bcecceda1000000810180911161042357600255805f52600760205260405f2080549069d3c21bcecceda100000082018092116104235755805f52600a60205260405f2080549069d3c21bcecceda1000000820180921161042357555f5f80516020611307833981519152602060405169d3c21bcecceda10000008152a3005b634e487b7160e01b5f52601160045260245ffd5b015190508680610324565b60015f9081525f805160206113278339815191529350601f198516905b81811061049b5750908460019594939210610483575b505050811b01600155610339565b01515f1960f88460031b161c19169055868080610475565b9293602060018192878601518155019501930161045f565b90915060015f52601f830160051c5f80516020611327833981519152019060208410610510575b90601f8493920160051c5f8051602061132783398151915201905b818110610502575061030e565b5f81558493506001016104f5565b5f8051602061132783398151915291506104da565b634e487b7160e01b5f52604160045260245ffd5b0151905087806102d2565b5f8080525f805160206112e78339815191529350601f198516905b81811061059a5750908460019594939210610582575b505050811b015f556102e6565b01515f1960f88460031b161c19169055878080610575565b9293602060018192878601518155019501930161055f565b9091505f8052601f830160051c5f805160206112e783398151915201906020841061060e575b90601f8493920160051c5f805160206112e783398151915201905b81811061060057506102bc565b5f81558493506001016105f3565b5f805160206112e783398151915291506105d8565b346101875760403660031901126101875761064961063f610e53565b60243590336110d6565b602060405160018152f35b3461018757606036600319011261018757600435610670610e69565b90610679610e7f565b9060ff60065460a01c161561078657610693811515610ef8565b5f602060018060a01b03600454166064604051809481936323b872dd60e01b83523360048401523060248401528760448401525af1801561077b5761074e575b506106e081600254610fde565b6002555f5f80516020611307833981519152602060018060a01b038616938484526007825260408420610714828254610fde565b9055848452600a82526040842061072c828254610fde565b9055604051908152a36001600160a01b03811661074557005b6101fe91611179565b61076f9060203d602011610774575b6107678183610e07565b810190610f87565b6106d3565b503d61075d565b6040513d5f823e3d90fd5b60405162461bcd60e51b815260206004820152601360248201527214dd185ada5b99c81b9bdd08185b1b1bddd959606a1b6044820152606490fd5b34610187575f366003190112610187576020600554604051908152f35b34610187575f36600319011261018757602060ff60065460a01c166040519015158152f35b34610187575f366003190112610187576006546040516001600160a01b039091168152602090f35b34610187576020366003190112610187576001600160a01b0361084c610e53565b165f52600a602052602060405f2054604051908152f35b34610187575f366003190112610187576040515f60015461088381610dcf565b808452906001811690811561090657506001146108bb575b6108b7836108ab81850382610e07565b60405191829182610e29565b0390f35b60015f9081525f80516020611327833981519152939250905b8082106108ec575090915081016020016108ab61089b565b9192600181602092548385880101520191019092916108d4565b60ff191660208086019190915291151560051b840190910191506108ab905061089b565b34610187576020366003190112610187576109484260043510610f9f565b6020600254604051908152f35b34610187576020366003190112610187576001600160a01b03610976610e53565b165f526009602052602060405f2054604051908152f35b34610187576020366003190112610187576001600160a01b036109ae610e53565b165f526007602052602060405f2054604051908152f35b34610187576040366003190112610187576109de610e53565b6109eb4260243510610f9f565b60018060a01b03165f52600c602052602060018060a01b0360405f205416604051908152f35b34610187576020366003190112610187576101fe610a2d610e53565b33611179565b34610187576020366003190112610187576001600160a01b03610a54610e53565b165f52600c602052602060018060a01b0360405f205416604051908152f35b34610187575f366003190112610187576003546040516001600160a01b039091168152602090f35b34610187576040366003190112610187576020610ac2610ab9610e53565b60243590610feb565b604051908152f35b34610187575f36600319011261018757602060405160128152f35b34610187576020366003190112610187575f6020600435610b07811515610ef8565b33835260078252610b1e8160408520541015610f44565b3383526007825260408320610b34828254610eeb565b9055610b4281600254610eeb565b600255338352600a825260408320610b5b828254610eeb565b9055826040518281525f80516020611307833981519152843392a3604460018060a01b036004541691604051948593849263a9059cbb60e01b845233600485015260248401525af1801561077b57610baf57005b6101fe9060203d602011610774576107678183610e07565b3461018757606036600319011261018757610be0610e53565b610be8610e69565b6001600160a01b0382165f818152600860209081526040808320338452909152902054926044359291838510610c4457610c258461064996610eeb565b5f918252600860209081526040808420338552909152909120556110d6565b60405162461bcd60e51b8152602060048201526016602482015275496e73756666696369656e7420616c6c6f77616e636560501b6044820152606490fd5b34610187575f366003190112610187576020600254604051908152f35b34610187575f366003190112610187576004546040516001600160a01b039091168152602090f35b3461018757604036600319011261018757610ce0610e53565b335f8181526008602090815260408083206001600160a01b03909516808452948252918290206024359081905591519182527f8c5be1e5ebec7d5bd14f71427d1e84f3dd0314c0f7b2291e5b200ac8c7c3b92591a3602060405160018152f35b34610187575f366003190112610187576040515f8054610d5f81610dcf565b80845290600181169081156109065750600114610d86576108b7836108ab81850382610e07565b5f8080525f805160206112e7833981519152939250905b808210610db5575090915081016020016108ab61089b565b919260018160209254838588010152019101909291610d9d565b90600182811c92168015610dfd575b6020831014610de957565b634e487b7160e01b5f52602260045260245ffd5b91607f1691610dde565b90601f8019910116810190811067ffffffffffffffff82111761052557604052565b602060409281835280519182918282860152018484015e5f828201840152601f01601f1916010190565b600435906001600160a01b038216820361018757565b602435906001600160a01b038216820361018757565b604435906001600160a01b038216820361018757565b81601f820112156101875780359067ffffffffffffffff82116105255760405192610eca601f8401601f191660200185610e07565b8284526020838301011161018757815f926020809301838601378301015290565b9190820391821161042357565b15610eff57565b60405162461bcd60e51b815260206004820152601d60248201527f416d6f756e74206d7573742062652067726561746572207468616e20300000006044820152606490fd5b15610f4b57565b60405162461bcd60e51b8152602060048201526014602482015273496e73756666696369656e742062616c616e636560601b6044820152606490fd5b90816020910312610187575180151581036101875790565b15610fa657565b60405162461bcd60e51b815260206004820152601060248201526f119d5d1d5c99481d1a5b595c1bda5b9d60821b6044820152606490fd5b9190820180921161042357565b610ff6428310610f9f565b6001600160a01b03165f818152600e602052604090205490919080156110cf57825f52600d60205260405f205f19820191821161042357815f526020528160405f205411156110be575f5b80821161105a575050505f52600a60205260405f205490565b6110648183610fde565b600181018091116104235760011c90845f52600d60205260405f20825f526020528360405f205411155f1461109c5750905b90611041565b91505f1981019081111561109657634e487b7160e01b5f52601160045260245ffd5b50505f52600a60205260405f205490565b5050505f90565b60205f805160206113078339815191529160018060a01b031692835f52600782526111078560405f20541015610f44565b835f526007825260405f2061111d868254610eeb565b905560018060a01b031693845f526007825260405f2061113e828254610fde565b9055835f52600a825260405f20611156828254610eeb565b9055845f52600a825260405f2061116e828254610fde565b9055604051908152a3565b6001600160a01b039081165f818152600c6020818152604080842080546007845291852054939092526001600160a01b031981169686169687179091559093169184918391907f3134e8a2e6d97e929a7e54011ea5485d7d196dd5f0ba4d4ef95803e8e3fc257f9080a482811415806112dd575b6111f657505050565b8061126f575b5081611206575050565b60406112567fdec2bacdd2f05b59de34da9b523dff8be42e5e38e818c82fdb0bae774387a72492845f52600b602052825f20611243828254610fde565b9055845f52600b602052825f2054610eeb565b835f52600b602052815f205482519182526020820152a2565b805f52600b60205260405f20611286838254610eeb565b9055805f52600b6020527fdec2bacdd2f05b59de34da9b523dff8be42e5e38e818c82fdb0bae774387a72460406112c084825f2054610fde565b835f52600b602052815f205482519182526020820152a25f6111fc565b508115156111ed56fe290decd9548b62a8d60345a988386fc84ba6bc95484008f6362f93160ef3e563ddf252ad1be2c89b69c2b068fc378daa952ba7f163c4a11628f55a4df523b3efb10e2d527612073b26eecdfd717e6a320cf44b4afac2b0732d9fcbe2b7fa0cf6a2646970667358221220f48b8e43391abb5a9a4b73297ddcd225d20a9c979eea3e1d8d5885fb0540269164736f6c634300081a0033","linkReferences":{}},"methodIdentifiers":{"agentNft()":"9cbef4a9","allowance(address,address)":"dd62ed3e","approve(address,uint256)":"095ea7b3","assetToken()":"1083f761","balanceOf(address)":"70a08231","canStake()":"9ed27809","decimals()":"313ce567","delegate(address)":"5c19a95c","delegateBySig(address,uint256,uint256,uint8,bytes32,bytes32)":"c3cda520","delegates(address)":"587cde1e","founder()":"4d853ee5","getPastBalanceOf(address,uint256)":"d7b7d405","getPastDelegates(address,uint256)":"5ec80600","getPastTotalSupply(uint256)":"8e539e8c","getPastVotes(address,uint256)":"3a46b1a8","getVotes(address)":"9ab24eb0","initialize(string,string,address,address,uint256,address,bool)":"b2193b4d","matureAt()":"a5e881b3","name()":"06fdde03","nonces(address)":"7ecebe00","stake(uint256,address,address)":"a7d545db","symbol()":"95d89b41","totalSupply()":"18160ddd","transfer(address,uint256)":"a9059cbb","transferFrom(address,address,uint256)":"23b872dd","withdraw(uint256)":"2e1a7d4d"},"id":52}