{"abi":[{"type":"function","name":"deposit","inputs":[{"name":"rootToken","type":"address","internalType":"address"},{"name":"amount","type":"uint256","internalType":"uint256"}],"outputs":[],"stateMutability":"nonpayable"},{"type":"function","name":"syncWithdraw","inputs":[{"name":"rootToken","type":"address","internalType":"address"},{"name":"amount","type":"uint256","internalType":"uint256"}],"outputs":[],"stateMutability":"nonpayable"},{"type":"error","name":"AddressEmptyCode","inputs":[{"name":"target","type":"address","internalType":"address"}]},{"type":"error","name":"AddressInsufficientBalance","inputs":[{"name":"account","type":"address","internalType":"address"}]},{"type":"error","name":"FailedInnerCall","inputs":[]},{"type":"error","name":"SafeERC20FailedOperation","inputs":[{"name":"token","type":"address","internalType":"address"}]}],"bytecode":{"object":"0x60808060405234601557610265908161001a8239f35b5f80fdfe6080806040526004361015610012575f80fd5b5f3560e01c90816347e7ef2414610083575063e90cbc1714610032575f80fd5b3461007f5761007d610043366100c2565b906040519163a9059cbb60e01b602084015233602484015260448301526044825261006f6064836100e8565b6001600160a01b031661011e565b005b5f80fd5b3461007f5761007d90610095366100c2565b6323b872dd60e01b602084015233602484015230604484015260648301526064825261006f6084836100e8565b604090600319011261007f576004356001600160a01b038116810361007f579060243590565b90601f8019910116810190811067ffffffffffffffff82111761010a57604052565b634e487b7160e01b5f52604160045260245ffd5b81516001600160a01b03909116915f91829160200182855af13d156101c5573d67ffffffffffffffff811161010a5761017991604051916101696020601f19601f84011601846100e8565b82523d5f602084013e5b836101d1565b80519081151591826101a1575b505061018f5750565b635274afe760e01b5f5260045260245ffd5b819250906020918101031261007f576020015180159081150361007f575f80610186565b61017990606090610173565b906101f557508051156101e657805190602001fd5b630a12f52160e11b5f5260045ffd5b81511580610226575b610206575090565b639996b31560e01b5f9081526001600160a01b0391909116600452602490fd5b50803b156101fe56fea26469706673582212208a021421632b1982aa7d67dad154d4040524f71875641058f1527c3e83be15dd64736f6c634300081a0033","linkReferences":{}},"methodIdentifiers":{"deposit(address,uint256)":"47e7ef24","syncWithdraw(address,uint256)":"e90cbc17"},"id":16}