{"abi":[{"type":"constructor","inputs":[],"stateMutability":"nonpayable"},{"type":"function","name":"K","inputs":[],"outputs":[{"name":"","type":"uint256","internalType":"uint256"}],"stateMutability":"view"},{"type":"function","name":"agentFactory","inputs":[],"outputs":[{"name":"","type":"address","internalType":"address"}],"stateMutability":"view"},{"type":"function","name":"assetRate","inputs":[],"outputs":[{"name":"","type":"uint256","internalType":"uint256"}],"stateMutability":"view"},{"type":"function","name":"buy","inputs":[{"name":"amountIn","type":"uint256","internalType":"uint256"},{"name":"tokenAddress","type":"address","internalType":"address"},{"name":"amountOutMin","type":"uint256","internalType":"uint256"},{"name":"deadline","type":"uint256","internalType":"uint256"}],"outputs":[{"name":"","type":"bool","internalType":"bool"}],"stateMutability":"payable"},{"type":"function","name":"factory","inputs":[],"outputs":[{"name":"","type":"address","internalType":"contract FFactory"}],"stateMutability":"view"},{"type":"function","name":"fee","inputs":[],"outputs":[{"name":"","type":"uint256","internalType":"uint256"}],"stateMutability":"view"},{"type":"function","name":"gradThreshold","inputs":[],"outputs":[{"name":"","type":"uint256","internalType":"uint256"}],"stateMutability":"view"},{"type":"function","name":"initialSupply","inputs":[],"outputs":[{"name":"","type":"uint256","internalType":"uint256"}],"stateMutability":"view"},{"type":"function","name":"initialize","inputs":[{"name":"factory_","type":"address","internalType":"address"},{"name":"router_","type":"address","internalType":"address"},{"name":"feeTo_","type":"address","internalType":"address"},{"name":"fee_","type":"uint256","internalType":"uint256"},{"name":"initialSupply_","type":"uint256","internalType":"uint256"},{"name":"assetRate_","type":"uint256","internalType":"uint256"},{"name":"maxTx_","type":"uint256","internalType":"uint256"},{"name":"agentFactory_","type":"address","internalType":"address"},{"name":"gradThreshold_","type":"uint256","internalType":"uint256"}],"outputs":[],"stateMutability":"nonpayable"},{"type":"function","name":"launch","inputs":[{"name":"_name","type":"string","internalType":"string"},{"name":"_ticker","type":"string","internalType":"string"},{"name":"cores","type":"uint8[]","internalType":"uint8[]"},{"name":"desc","type":"string","internalType":"string"},{"name":"img","type":"string","internalType":"string"},{"name":"urls","type":"string[4]","internalType":"string[4]"},{"name":"purchaseAmount","type":"uint256","internalType":"uint256"}],"outputs":[{"name":"","type":"address","internalType":"address"},{"name":"","type":"address","internalType":"address"},{"name":"","type":"uint256","internalType":"uint256"}],"stateMutability":"nonpayable"},{"type":"function","name":"maxTx","inputs":[],"outputs":[{"name":"","type":"uint256","internalType":"uint256"}],"stateMutability":"view"},{"type":"function","name":"owner","inputs":[],"outputs":[{"name":"","type":"address","internalType":"address"}],"stateMutability":"view"},{"type":"function","name":"profile","inputs":[{"name":"","type":"address","internalType":"address"}],"outputs":[{"name":"user","type":"address","internalType":"address"}],"stateMutability":"view"},{"type":"function","name":"profiles","inputs":[{"name":"","type":"uint256","internalType":"uint256"}],"outputs":[{"name":"","type":"address","internalType":"address"}],"stateMutability":"view"},{"type":"function","name":"renounceOwnership","inputs":[],"outputs":[],"stateMutability":"nonpayable"},{"type":"function","name":"router","inputs":[],"outputs":[{"name":"","type":"address","internalType":"contract FRouter"}],"stateMutability":"view"},{"type":"function","name":"sell","inputs":[{"name":"amountIn","type":"uint256","internalType":"uint256"},{"name":"tokenAddress","type":"address","internalType":"address"},{"name":"amountOutMin","type":"uint256","internalType":"uint256"},{"name":"deadline","type":"uint256","internalType":"uint256"}],"outputs":[{"name":"","type":"bool","internalType":"bool"}],"stateMutability":"nonpayable"},{"type":"function","name":"setDeployParams","inputs":[{"name":"params","type":"tuple","internalType":"struct Bonding.DeployParams","components":[{"name":"tbaSalt","type":"bytes32","internalType":"bytes32"},{"name":"tbaImplementation","type":"address","internalType":"address"},{"name":"daoVotingPeriod","type":"uint32","internalType":"uint32"},{"name":"daoThreshold","type":"uint256","internalType":"uint256"}]}],"outputs":[],"stateMutability":"nonpayable"},{"type":"function","name":"setTokenParams","inputs":[{"name":"newSupply","type":"uint256","internalType":"uint256"},{"name":"newGradThreshold","type":"uint256","internalType":"uint256"},{"name":"newMaxTx","type":"uint256","internalType":"uint256"},{"name":"newAssetRate","type":"uint256","internalType":"uint256"},{"name":"newFee","type":"uint256","internalType":"uint256"},{"name":"newFeeTo","type":"address","internalType":"address"}],"outputs":[],"stateMutability":"nonpayable"},{"type":"function","name":"tokenInfo","inputs":[{"name":"","type":"address","internalType":"address"}],"outputs":[{"name":"creator","type":"address","internalType":"address"},{"name":"token","type":"address","internalType":"address"},{"name":"pair","type":"address","internalType":"address"},{"name":"agentToken","type":"address","internalType":"address"},{"name":"data","type":"tuple","internalType":"struct Bonding.Data","components":[{"name":"token","type":"address","internalType":"address"},{"name":"name","type":"string","internalType":"string"},{"name":"_name","type":"string","internalType":"string"},{"name":"ticker","type":"string","internalType":"string"},{"name":"supply","type":"uint256","internalType":"uint256"},{"name":"price","type":"uint256","internalType":"uint256"},{"name":"marketCap","type":"uint256","internalType":"uint256"},{"name":"liquidity","type":"uint256","internalType":"uint256"},{"name":"volume","type":"uint256","internalType":"uint256"},{"name":"volume24H","type":"uint256","internalType":"uint256"},{"name":"prevPrice","type":"uint256","internalType":"uint256"},{"name":"lastUpdated","type":"uint256","internalType":"uint256"}]},{"name":"description","type":"string","internalType":"string"},{"name":"image","type":"string","internalType":"string"},{"name":"twitter","type":"string","internalType":"string"},{"name":"telegram","type":"string","internalType":"string"},{"name":"youtube","type":"string","internalType":"string"},{"name":"website","type":"string","internalType":"string"},{"name":"trading","type":"bool","internalType":"bool"},{"name":"tradingOnUniswap","type":"bool","internalType":"bool"}],"stateMutability":"view"},{"type":"function","name":"tokenInfos","inputs":[{"name":"","type":"uint256","internalType":"uint256"}],"outputs":[{"name":"","type":"address","internalType":"address"}],"stateMutability":"view"},{"type":"function","name":"transferOwnership","inputs":[{"name":"newOwner","type":"address","internalType":"address"}],"outputs":[],"stateMutability":"nonpayable"},{"type":"function","name":"unwrapToken","inputs":[{"name":"srcTokenAddress","type":"address","internalType":"address"},{"name":"accounts","type":"address[]","internalType":"address[]"}],"outputs":[],"stateMutability":"nonpayable"},{"type":"event","name":"Deployed","inputs":[{"name":"token","type":"address","indexed":true,"internalType":"address"},{"name":"amount0","type":"uint256","indexed":false,"internalType":"uint256"},{"name":"amount1","type":"uint256","indexed":false,"internalType":"uint256"}],"anonymous":false},{"type":"event","name":"Graduated","inputs":[{"name":"token","type":"address","indexed":true,"internalType":"address"},{"name":"agentToken","type":"address","indexed":false,"internalType":"address"}],"anonymous":false},{"type":"event","name":"Initialized","inputs":[{"name":"version","type":"uint64","indexed":false,"internalType":"uint64"}],"anonymous":false},{"type":"event","name":"Launched","inputs":[{"name":"token","type":"address","indexed":true,"internalType":"address"},{"name":"pair","type":"address","indexed":true,"internalType":"address"},{"name":"","type":"uint256","indexed":false,"internalType":"uint256"}],"anonymous":false},{"type":"event","name":"OwnershipTransferred","inputs":[{"name":"previousOwner","type":"address","indexed":true,"internalType":"address"},{"name":"newOwner","type":"address","indexed":true,"internalType":"address"}],"anonymous":false},{"type":"error","name":"AddressEmptyCode","inputs":[{"name":"target","type":"address","internalType":"address"}]},{"type":"error","name":"AddressInsufficientBalance","inputs":[{"name":"account","type":"address","internalType":"address"}]},{"type":"error","name":"FailedInnerCall","inputs":[]},{"type":"error","name":"InvalidInitialization","inputs":[]},{"type":"error","name":"InvalidInput","inputs":[]},{"type":"error","name":"InvalidTokenStatus","inputs":[]},{"type":"error","name":"NotInitializing","inputs":[]},{"type":"error","name":"OwnableInvalidOwner","inputs":[{"name":"owner","type":"address","internalType":"address"}]},{"type":"error","name":"OwnableUnauthorizedAccount","inputs":[{"name":"account","type":"address","internalType":"address"}]},{"type":"error","name":"ReentrancyGuardReentrantCall","inputs":[]},{"type":"error","name":"SafeERC20FailedOperation","inputs":[{"name":"token","type":"address","internalType":"address"}]},{"type":"error","name":"SlippageTooHigh","inputs":[]}],"bytecode":{"object":"0x6080806040523460d0577ff0c57e16840df040f15088dc2f81fe391c3923bec73e23a9662efc9c229c6a005460ff8160401c1660c1576002600160401b03196001600160401b03821601605c575b604051612c4390816100d58239f35b6001600160401b0319166001600160401b039081177ff0c57e16840df040f15088dc2f81fe391c3923bec73e23a9662efc9c229c6a005581527fc7f505b2f371ae2175ee4913f4499e1f2633a7b5936321eed1cdaeb6115181d290602090a15f80604d565b63f92ee8a960e01b5f5260045ffd5b5f80fdfe6080806040526004361015610012575f80fd5b5f905f3560e01c908163378dc3dc146126a8575080633c0b93aa146124c257806343fb4d24146124295780636edd12e01461240c578063706910ff1461141a578063715018a6146113b15780637437681e146113935780637c13774b146113265780637df107ea146112fd5780637f13a90b146109385780638da5cb5b146109035780639dd9d0fd146108c2578063a932492f146108a1578063b233e05614610766578063c36fe3d6146106e5578063c45a0155146106bc578063ddca3f431461069e578063e8e6ed6914610680578063ea6eef491461040c578063f2fde38b146103df578063f5dab711146101c1578063f887ea40146101985763ff0049e11461011b575f80fd5b346101955760c03660031901126101955760a4356001600160a01b03811690606435908290036101915761014d612a77565b8015610182576004356003556024356006556044356007556005556084356004556001600160601b0360a01b82541617815580f35b63b4fa3fb360e01b8352600483fd5b8280fd5b80fd5b50346101955780600319360112610195576002546040516001600160a01b039091168152602090f35b5034610195576020366003190112610195576001600160a01b036101e36127a0565b168152600e6020526040902080546001820154600283015460038401546001600160a01b0392831694938316939183169216610221600483016128bc565b61022d6010840161281c565b6102396012850161281c565b6102456013860161281c565b916102526014870161281c565b9361025f6015880161281c565b9561026c6016890161281c565b9760170154986040519b8c9b8c5260208c015260408b015260608a0152608089016101a09052600160a01b600190038151166101a08a015260208101516101c08a0161018090526103208a016102c191612974565b60408201518a820361019f19016101e08c01526102de9190612974565b60608201518a820361019f19016102008c01526102fb9190612974565b9060808101516102208b015260a08101516102408b015260c08101516102608b015260e08101516102808b01526101008101516102a08b01526101208101516102c08b01526101408101516102e08b015261016001516103008a015288810360a08a015261036891612974565b87810360c089015261037991612974565b86810360e088015261038a91612974565b85810361010087015261039c91612974565b8481036101208601526103ae91612974565b8381036101408501526103c091612974565b9060ff8116151561016084015260081c60ff1615156101808301520390f35b5034610195576020366003190112610195576104096103fc6127a0565b610404612a77565b612a06565b80f35b503461019557610120366003190112610195576104276127a0565b61042f61278a565b6044356001600160a01b0381169081900361067c5760e4356001600160a01b038116926064359291849003610678575f80516020612bee833981519152549460ff8660401c1615956001600160401b03811680159081610670575b6001149081610666575b15908161065d575b5061064e5767ffffffffffffffff1981166001175f80516020612bee8339815191525586610622575b506104ce612b44565b6104d6612b44565b6104df33612a06565b6104e7612b44565b6104ef612b44565b60017f9b779b17422d0df92223018b32b4d1fa46e071723d6817e2486d003becc55f005560018060a01b03166001600160601b0360a01b600154161760015560018060a01b03166001600160601b0360a01b60025416176002556001600160601b0360a01b855416178455670de0b6b3a7640000810290808204670de0b6b3a7640000149015171561060e576103e8900460045560843560035560a43560055560c4356007556001600160601b0360a01b6008541617600855610104356006556105b65780f35b68ff0000000000000000195f80516020612bee83398151915254165f80516020612bee833981519152557fc7f505b2f371ae2175ee4913f4499e1f2633a7b5936321eed1cdaeb6115181d2602060405160018152a180f35b634e487b7160e01b84526011600452602484fd5b68ffffffffffffffffff191668010000000000000001175f80516020612bee833981519152555f6104c5565b63f92ee8a960e01b8852600488fd5b9050155f61049c565b303b159150610494565b88915061048a565b8580fd5b8380fd5b50346101955780600319360112610195576020600554604051908152f35b50346101955780600319360112610195576020600454604051908152f35b50346101955780600319360112610195576001546040516001600160a01b039091168152602090f35b50346101955760203660031901126101955760043590600d5482101561019557600d5482101561075257600d81527fd7b6990105719101dabeb77144f2a3385c8033acd3af97e9423a695e81ad1eb59091015460405160039290921b1c6001600160a01b03168152602090f35b634e487b7160e01b81526032600452602490fd5b503461019557610775366127b6565b6001600160a01b038316808652600e602052604086206017015490949293919060ff16156108925742116108835760025460408051636f08e17760e01b815260048101949094526001600160a01b03928316602485015233604485015291839160649183918991165af1908115610878578491610847575b501061083857808252600e60205262015180610810600f604085200154426129b7565b11610821575b602060405160018152f35b8152600e602052600f604042922001555f80610816565b63428637bb60e11b8252600482fd5b610869915060403d604011610871575b61086181836126f1565b8101906129d8565b90505f6107ed565b503d610857565b6040513d86823e3d90fd5b63b4fa3fb360e01b8552600485fd5b63d4181deb60e01b8652600486fd5b503461019557806003193601126101955760206040516502ba7def30008152f35b5034610195576020366003190112610195576020906001600160a01b036108e76127a0565b168152600c8252604060018060a01b0391205416604051908152f35b50346101955780600319360112610195575f80516020612bce833981519152546040516001600160a01b039091168152602090f35b5034610195576040366003190112610195576109526127a0565b602435906001600160401b038211610191573660238301121561019157816004013561097d81612773565b9261098b60405194856126f1565b8184526024602085019260051b8201019036821161067857602401915b8183106112dd575050506001600160a01b038116808452600e602052604080852090519192916101c081016001600160401b038111828210176112c957604090815282546001600160a01b03908116835260018401548116602084015260028401548116918301919091526003830154166060820190815291610a2d600482016128bc565b6080830152610a3e6010820161281c565b60a08301526040516011820180548083529089526020808a20908301918a915b81601f840110611127579360ff95938193610b7e936017975491818110611114575b8181106110fe575b8181106110e8575b8181106110d2575b8181106110bd575b8181106110a7575b818110611091575b81811061107b575b818110611065575b81811061104f575b818110611039575b818110611023575b81811061100d575b818110610ff7575b818110610fe1575b818110610fcb575b818110610fb5575b818110610f9f575b818110610f89575b818110610f73575b818110610f5d575b818110610f47575b818110610f31575b818110610f1b575b818110610f05575b818110610eef575b818110610ed9575b818110610ec3575b818110610ead575b818110610e97575b818110610e81575b10610e73575b5003826126f1565b60c0850152610b8f6012820161281c565b60e0850152610ba06013820161281c565b610100850152610bb26014820161281c565b610120850152610bc46015820161281c565b610140850152610bd66016820161281c565b6101608501520154818116151561018084015260081c1615906101a08215910152610e645751600154600254604051631083f76160e01b81526001600160a01b0393841693909281169160209184916004918391165afa908115610d9657610c77946020938993610e45575b5060405163e6a4390560e01b81526001600160a01b039182166004820152921660248301529093849190829081906044820190565b03915afa918215610e3a578592610e09575b50845b8451811015610e055760018060a01b0360208260051b8701015116906040516370a0823160e01b8152826004820152602081602481895afa908115610dfa578891610dc5575b5080610ce4575b506001915001610c8c565b853b15610db65760405163079cc67960e41b81526001600160a01b03841660048201526024810182905288908181604481838c5af18015610dba57610da1575b50506040516323b872dd60e01b81526001600160a01b0386166004820152602481019390935260448301526020826064818a875af1918215610d965760019215610cd957610d889060203d8111610d8f575b610d8081836126f1565b8101906129ee565b505f610cd9565b503d610d76565b6040513d89823e3d90fd5b81610dab916126f1565b610db657875f610d24565b8780fd5b6040513d84823e3d90fd5b90506020813d8211610df2575b81610ddf602093836126f1565b81010312610dee57515f610cd2565b5f80fd5b3d9150610dd2565b6040513d8a823e3d90fd5b8580f35b610e2c91925060203d602011610e33575b610e2481836126f1565b810190612998565b905f610c89565b503d610e1a565b6040513d87823e3d90fd5b610e5d919350843d8611610e3357610e2481836126f1565b915f610c42565b63d4181deb60e01b8552600485fd5b60f81c81526020015f610b76565b9260206001918b8560f01c168152019301610b70565b9260206001918b8560e81c168152019301610b68565b9260206001918b8560e01c168152019301610b60565b9260206001918b8560d81c168152019301610b58565b9260206001918b8560d01c168152019301610b50565b9260206001918b8560c81c168152019301610b48565b9260206001918b8560c01c168152019301610b40565b9260206001918b8560b81c168152019301610b38565b9260206001918b8560b01c168152019301610b30565b9260206001918b8560a81c168152019301610b28565b9260206001918b8560a01c168152019301610b20565b9260206001918b8560981c168152019301610b18565b9260206001918b8560901c168152019301610b10565b9260206001918b8560881c168152019301610b08565b9260206001918b8560801c168152019301610b00565b9260206001918b8560781c168152019301610af8565b9260206001918b8560701c168152019301610af0565b9260206001918b8560681c168152019301610ae8565b9260206001918b8560601c168152019301610ae0565b9260206001918b8560581c168152019301610ad8565b9260206001918b8560501c168152019301610ad0565b9260206001918b8560481c168152019301610ac8565b9260206001918b8560401c168152019301610ac0565b9260206001918b8560381c168152019301610ab8565b9260206001918b8560301c168152019301610ab0565b9260206001918b8560281c168152019301610aa8565b9260206001918b85831c168152019301610aa0565b9260206001918b8560181c168152019301610a98565b9260206001918b8560101c168152019301610a90565b9260206001918b8560081c168152019301610a88565b9260206001918b85168152019301610a80565b926001610400602092865460ff8116825260ff8160081c168583015260ff8160101c16604083015260ff8160181c16606083015260ff81861c16608083015260ff8160281c1660a083015260ff8160301c1660c083015260ff8160381c1660e083015260ff8160401c1661010083015260ff8160481c1661012083015260ff8160501c1661014083015260ff8160581c1661016083015260ff8160601c1661018083015260ff8160681c166101a083015260ff8160701c166101c083015260ff8160781c166101e083015260ff8160801c1661020083015260ff8160881c1661022083015260ff8160901c1661024083015260ff8160981c1661026083015260ff8160a01c1661028083015260ff8160a81c166102a083015260ff8160b01c166102c083015260ff8160b81c166102e083015260ff8160c01c1661030083015260ff8160c81c1661032083015260ff8160d01c1661034083015260ff8160d81c1661036083015260ff8160e01c1661038083015260ff8160e81c166103a083015260ff8160f01c166103c083015260f81c6103e0820152019401920191610a5e565b634e487b7160e01b87526041600452602487fd5b82356001600160a01b0381168103610dee578152602092830192016109a8565b50346101955780600319360112610195576008546040516001600160a01b039091168152602090f35b50346101955760203660031901126101955760043590600f5482101561019557600f5482101561075257600f81527f8d1108e10bcb7c27dddfc02ed9d693a074039d026cf4ea4240b40f7d581ac8029091015460405160039290921b1c6001600160a01b03168152602090f35b50346101955780600319360112610195576020600754604051908152f35b50346101955780600319360112610195576113ca612a77565b5f80516020612bce83398151915280546001600160a01b0319811690915581906001600160a01b03167f8be0079c531659141344cd1fd0a4f28419497f9722a3daafe3b4186f6b6457e08280a380f35b50611424366127b6565b929060018060a09694961b03851693845f52600e60205260ff601760405f200154161561231b5742116123fd57600154600254604051631083f76160e01b81526001600160a01b03928316939290911690602081600481855afa8015612268576114c8946020925f926123de575b5060405163e6a4390560e01b81526001600160a01b03808c16600483015290921660248301529094859190829081906044820190565b03915afa928315612268576004936040915f916123bf575b508151630240bc6b60e21b815294859182906001600160a01b03165afa928315612268575f93612396575b50604080516373a9c2c560e11b815260048101959095526001600160a01b0388166024860152336044860152929392908390815f81606481015b03925af1918215612268575f92612373575b50811061236457611567916129b7565b825f52600e60205262015180611584600f60405f200154426129b7565b1161234e575b600654101580612335575b6115a457602060405160018152f35b815f52600e60205260405f2060178101805460ff8160081c16801561232a575b61231b5761ffff1916610100179055600154600254604051631083f76160e01b81526001600160a01b0391821693929091169190602081600481875afa80156122685761164b936020925f926122fc575b5060405163e6a4390560e01b81526001600160a01b03808b16600483015290921660248301529093849190829081906044820190565b03915afa918215612268575f926122db575b5060405163c66f245560e01b8152956020876004816001600160a01b0387165afa968715612268575f976122a7575b506040516316d3df1560e31b8152936020856004816001600160a01b0388165afa948515612268575f95612273575b50803b15610dee575f809160246040518094819363ff6d8d0560e01b83528c60048401525af1801561226857612253575b50600254604051631083f76160e01b815290602090829060049082906001600160a01b03165afa908115612248578691612229575b5060085460405163095ea7b360e01b602082019081526001600160a01b039283166024830181905260448084018d9052835293919291909116908890819061176a6064866126f1565b84519082855af1611779612b15565b816121fa575b50806121f0575b156121ab575b50505060018060a01b036008541660068301976040519887908054906117b1826127e4565b91600181169081156121835750600114612148575b5050986117f5600c828c6b206279205669727475616c7360a01b6101249d9e52036013198101845201826126f1565b6007850191600954600a54600b549161183060018060a01b038a5416956040519e8f631fd16d3f60e11b815261012060048201520190612974565b8d81036003190160248f015286548d9790919061184c836127e4565b808352926001811690811561212557506001146120e5575b505050918c9593918c9593600319888703016044890152602060118c015496878152019560118c018852602088209088915b81601f840110611f3057928a98959260209c9a9895928a98955491818110611f1e575b818110611f08575b818110611ef2575b818110611edc575b818110611ec8575b818110611eb2575b818110611e9c575b818110611e86575b818110611e70575b818110611e5a575b818110611e44575b818110611e2e575b818110611e18575b818110611e02575b818110611dec575b818110611dd6575b818110611dc0575b818110611daa575b818110611d94575b818110611d7e575b818110611d68575b818110611d52575b818110611d3c575b818110611d26575b818110611d10575b818110611cfa575b818110611ce4575b818110611cce575b818110611cb8575b818110611ca2575b818110611c8c575b10611c79575b5060648701526001600160a01b038116608487015260a01c63ffffffff1660a486015260c485015260e484015261010483015203925af1958615610e3a578596611c44575b5060209060a460018060a01b03600854169787670de0b6b3a764000060088701540493604051868101913360601b83524260348301526001600160601b03199060601b16605482015260488152611a4c6068826126f1565b519020996040519a8b95869463d2f5855960e01b865260048601526024850152670de0b6b3a76400008a04604485015260018060a01b038916606485015260848401525af1948515610878578495611c20575b5060030180546001600160a01b0319166001600160a01b039586169081179091556002546040516370a0823160e01b8152838716600482015291951690602081602481895afa908115610e3a578591611bee575b50813b15611bea5760405163559e23ad60e11b81526001600160a01b03841660048201526024810187905230604482015260648101919091529084908290608490829084905af1801561087857908491611bd5575b5050843b156101915760405163079cc67960e41b81526001600160a01b039190911660048201526024810191909152818160448183885af18015610dba57611bc0575b505060207f381d54fa425631e6266af114239150fae1d5db67bb65b4fa9ecc65013107e07e91604051908152a25f8080610816565b611bcb8280926126f1565b6101955780611b8b565b81611bdf916126f1565b61019157825f611b48565b8480fd5b90506020813d602011611c18575b81611c09602093836126f1565b81010312610dee57515f611af3565b3d9150611bfc565b6003919550611c3d9060203d602011610e3357610e2481836126f1565b9490611a9f565b9095506020813d602011611c71575b81611c60602093836126f1565b81010312610dee57519460206119f4565b3d9150611c53565b60f81c8652948b019463ffffffff6119af565b978e60019160ff8560f01c1681520198016119a9565b978e60019160ff8560e81c1681520198016119a1565b978e60019160ff8560e01c168152019801611999565b978e60019160ff8560d81c168152019801611991565b978e60019160ff8560d01c168152019801611989565b978e60019160ff8560c81c168152019801611981565b978e60019160ff8560c01c168152019801611979565b978e60019160ff8560b81c168152019801611971565b978e60019160ff8560b01c168152019801611969565b978e60019160ff8560a81c168152019801611961565b978e60019160ff8560a01c168152019801611959565b978e60019160ff8560981c168152019801611951565b978e60019160ff8560901c168152019801611949565b978e60019160ff8560881c168152019801611941565b978e60019160ff8560801c168152019801611939565b978e60019160ff8560781c168152019801611931565b978e60019160ff8560701c168152019801611929565b978e60019160ff8560681c168152019801611921565b978e60019160ff8560601c168152019801611919565b978e60019160ff8560581c168152019801611911565b978e60019160ff8560501c168152019801611909565b978e60019160ff8560481c168152019801611901565b978e60019160ff8560401c1681520198016118f9565b978e60019160ff8560381c1681520198016118f1565b978e60019160ff8560301c1681520198016118e9565b978e60019160ff8560281c1681520198016118e1565b828f1c60ff168952978e01976001016118d9565b978e60019160ff8560181c1681520198016118d1565b978e60019160ff8560101c1681520198016118c9565b978e60019160ff8560081c1681520198016118c1565b60ff83168952978e01976001016118b9565b9950919395975091939560016104006020928b5460ff8116825260ff8160081c168583015260ff8160101c16604083015260ff8160181c16606083015260ff81861c16608083015260ff8160281c1660a083015260ff8160301c1660c083015260ff8160381c1660e083015260ff8160401c1661010083015260ff8160481c1661012083015260ff8160501c1661014083015260ff8160581c1661016083015260ff8160601c1661018083015260ff8160681c166101a083015260ff8160701c166101c083015260ff8160781c166101e083015260ff8160801c1661020083015260ff8160881c1661022083015260ff8160901c1661024083015260ff8160981c1661026083015260ff8160a01c1661028083015260ff8160a81c166102a083015260ff8160b01c166102c083015260ff8160b81c166102e083015260ff8160c01c1661030083015260ff8160c81c1661032083015260ff8160d01c1661034083015260ff8160d81c1661036083015260ff8160e01c1661038083015260ff8160e81c166103a083015260ff8160f01c166103c083015260f81c6103e082015201990192018f98969492918f98969492611896565b90919297508d5260208d20908d915b83831061210b5750602092500101945f8080611864565b6001816020929493945483858701015201910191906120f4565b915050602093985060ff929192191683830152151560051b0101945f8080611864565b90915088526020882088905b82821061216c57505089016020016117f5600c6117c6565b6001818d6020858195549201015201910190612154565b60ff19166020808f01919091528315159093028d0190920192506117f59150600c90506117c6565b6121e36121e8936040519063095ea7b360e01b60208301526024820152896044820152604481526121dd6064826126f1565b82612aaa565b612aaa565b5f808061178c565b50803b1515611786565b805180159250821561220f575b50505f61177f565b61222292506020809183010191016129ee565b5f80612207565b612242915060203d602011610e3357610e2481836126f1565b5f611721565b6040513d88823e3d90fd5b6122609195505f906126f1565b5f935f6116ec565b6040513d5f823e3d90fd5b9094506020813d60201161229f575b8161228f602093836126f1565b81010312610dee5751935f6116bb565b3d9150612282565b9096506020813d6020116122d3575b816122c3602093836126f1565b81010312610dee5751955f61168c565b3d91506122b6565b6122f591925060203d602011610e3357610e2481836126f1565b905f61165d565b612314919250833d8511610e3357610e2481836126f1565b905f611615565b63d4181deb60e01b5f5260045ffd5b5060ff8116156115c4565b50815f52600e60205260ff601760405f20015416611595565b825f52600e60205242600f60405f20015561158a565b63428637bb60e11b5f5260045ffd5b61238d91925060403d6040116108715761086181836126f1565b9050905f611557565b5f93506040916123b561154592843d86116108715761086181836126f1565b509450915061150b565b6123d8915060203d602011610e3357610e2481836126f1565b5f6114e0565b6123f6919250833d8511610e3357610e2481836126f1565b905f611492565b63b4fa3fb360e01b5f5260045ffd5b34610dee575f366003190112610dee576020600654604051908152f35b34610dee576080366003190112610dee57604051612446816126c2565b600435815261245361278a565b602082019081526044359063ffffffff82168203610dee576040830191825260608301926064358452612484612a77565b5160095551600a8054925163ffffffff60a01b60a09190911b166001600160a01b039092166001600160c01b03199093169290921717905551600b55005b34610dee5760e0366003190112610dee576004356001600160401b038111610dee576124f290369060040161272d565b506024356001600160401b038111610dee5761251290369060040161272d565b506044356001600160401b038111610dee5736602382011215610dee578060040135906024602061254284612773565b61254f60405191826126f1565b848152019260051b82010190368211610dee57602401915b81831061268e576064356001600160401b038111610dee5761258d90369060040161272d565b506084356001600160401b038111610dee576125ad90369060040161272d565b5060a4356001600160401b038111610dee5736602382011215610dee576040516125d6816126c2565b906084810190368211610dee5780600401925b82841061265f5760027f9b779b17422d0df92223018b32b4d1fa46e071723d6817e2486d003becc55f0054146126505760405162461bcd60e51b815260206004820152600f60248201526e139bdd081a5b5c1b195b595b9d1959608a1b6044820152606490fd5b633ee5aeb560e01b5f5260045ffd5b83356001600160401b038111610dee5760209161268383926004369187010161272d565b8152019301926125e9565b823560ff81168103610dee57815260209283019201612567565b34610dee575f366003190112610dee576020906003548152f35b608081019081106001600160401b038211176126dd57604052565b634e487b7160e01b5f52604160045260245ffd5b90601f801991011681019081106001600160401b038211176126dd57604052565b6001600160401b0381116126dd57601f01601f191660200190565b81601f82011215610dee5780359061274482612712565b9261275260405194856126f1565b82845260208383010111610dee57815f926020809301838601378301015290565b6001600160401b0381116126dd5760051b60200190565b602435906001600160a01b0382168203610dee57565b600435906001600160a01b0382168203610dee57565b6080906003190112610dee57600435906024356001600160a01b0381168103610dee57906044359060643590565b90600182811c92168015612812575b60208310146127fe57565b634e487b7160e01b5f52602260045260245ffd5b91607f16916127f3565b9060405191825f82549261282f846127e4565b808452936001811690811561289a5750600114612856575b50612854925003836126f1565b565b90505f9291925260205f20905f915b81831061287e575050906020612854928201015f612847565b6020919350806001915483858901015201910190918492612865565b90506020925061285494915060ff191682840152151560051b8201015f612847565b9060405161018081018181106001600160401b038211176126dd5760405282546001600160a01b0316815291829061016090600b906128fd6001820161281c565b602085015261290e6002820161281c565b604085015261291f6003820161281c565b606085015260048101546080850152600581015460a0850152600681015460c0850152600781015460e085015260088101546101008501526009810154610120850152600a8101546101408501520154910152565b805180835260209291819084018484015e5f828201840152601f01601f1916010190565b90816020910312610dee57516001600160a01b0381168103610dee5790565b919082039182116129c457565b634e487b7160e01b5f52601160045260245ffd5b9190826040910312610dee576020825192015190565b90816020910312610dee57518015158103610dee5790565b6001600160a01b03168015612a64575f80516020612bce83398151915280546001600160a01b0319811683179091556001600160a01b03167f8be0079c531659141344cd1fd0a4f28419497f9722a3daafe3b4186f6b6457e05f80a3565b631e4fbdf760e01b5f525f60045260245ffd5b5f80516020612bce833981519152546001600160a01b03163303612a9757565b63118cdaa760e01b5f523360045260245ffd5b5f80612ad29260018060a01b03169360208151910182865af1612acb612b15565b9083612b6f565b8051908115159182612afa575b5050612ae85750565b635274afe760e01b5f5260045260245ffd5b612b0d92506020809183010191016129ee565b155f80612adf565b3d15612b3f573d90612b2682612712565b91612b3460405193846126f1565b82523d5f602084013e565b606090565b60ff5f80516020612bee8339815191525460401c1615612b6057565b631afcd79f60e31b5f5260045ffd5b90612b935750805115612b8457805190602001fd5b630a12f52160e11b5f5260045ffd5b81511580612bc4575b612ba4575090565b639996b31560e01b5f9081526001600160a01b0391909116600452602490fd5b50803b15612b9c56fe9016d09d72d40fdae2fd8ceac6b6234c7706214fd39c1cd1e609a0528c199300f0c57e16840df040f15088dc2f81fe391c3923bec73e23a9662efc9c229c6a00a264697066735822122046f50bc1057dc3a926fdf26b0a6f93eacc6c50907ab05cb1c569d6ff5cdc402264736f6c634300081a0033","linkReferences":{}},"methodIdentifiers":{"K()":"a932492f","agentFactory()":"7df107ea","assetRate()":"e8e6ed69","buy(uint256,address,uint256,uint256)":"706910ff","factory()":"c45a0155","fee()":"ddca3f43","gradThreshold()":"6edd12e0","initialSupply()":"378dc3dc","initialize(address,address,address,uint256,uint256,uint256,uint256,address,uint256)":"ea6eef49","launch(string,string,uint8[],string,string,string[4],uint256)":"3c0b93aa","maxTx()":"7437681e","owner()":"8da5cb5b","profile(address)":"9dd9d0fd","profiles(uint256)":"c36fe3d6","renounceOwnership()":"715018a6","router()":"f887ea40","sell(uint256,address,uint256,uint256)":"b233e056","setDeployParams((bytes32,address,uint32,uint256))":"43fb4d24","setTokenParams(uint256,uint256,uint256,uint256,uint256,address)":"ff0049e1","tokenInfo(address)":"f5dab711","tokenInfos(uint256)":"7c13774b","transferOwnership(address)":"f2fde38b","unwrapToken(address,address[])":"7f13a90b"},"id":21}