{"abi":[{"type":"constructor","inputs":[],"stateMutability":"nonpayable"},{"type":"function","name":"ANTI_SNIPER_60S","inputs":[],"outputs":[{"name":"","type":"uint8","internalType":"uint8"}],"stateMutability":"view"},{"type":"function","name":"ANTI_SNIPER_98M","inputs":[],"outputs":[{"name":"","type":"uint8","internalType":"uint8"}],"stateMutability":"view"},{"type":"function","name":"ANTI_SNIPER_NONE","inputs":[],"outputs":[{"name":"","type":"uint8","internalType":"uint8"}],"stateMutability":"view"},{"type":"function","name":"LAUNCH_MODE_ACP_SKILL","inputs":[],"outputs":[{"name":"","type":"uint8","internalType":"uint8"}],"stateMutability":"view"},{"type":"function","name":"LAUNCH_MODE_NORMAL","inputs":[],"outputs":[{"name":"","type":"uint8","internalType":"uint8"}],"stateMutability":"view"},{"type":"function","name":"LAUNCH_MODE_X_LAUNCH","inputs":[],"outputs":[{"name":"","type":"uint8","internalType":"uint8"}],"stateMutability":"view"},{"type":"function","name":"bondingCurveParams","inputs":[],"outputs":[{"name":"fakeInitialVirtualLiq","type":"uint256","internalType":"uint256"},{"name":"targetRealVirtual","type":"uint256","internalType":"uint256"}],"stateMutability":"view"},{"type":"function","name":"calculateBondingCurveSupply","inputs":[{"name":"airdropBips_","type":"uint16","internalType":"uint16"},{"name":"needAcf_","type":"bool","internalType":"bool"}],"outputs":[{"name":"","type":"uint256","internalType":"uint256"}],"stateMutability":"view"},{"type":"function","name":"calculateGradThreshold","inputs":[{"name":"bondingCurveSupplyWei_","type":"uint256","internalType":"uint256"}],"outputs":[{"name":"","type":"uint256","internalType":"uint256"}],"stateMutability":"view"},{"type":"function","name":"calculateLaunchFee","inputs":[{"name":"isScheduledLaunch_","type":"bool","internalType":"bool"},{"name":"needAcf_","type":"bool","internalType":"bool"}],"outputs":[{"name":"","type":"uint256","internalType":"uint256"}],"stateMutability":"view"},{"type":"function","name":"deployParams","inputs":[],"outputs":[{"name":"tbaSalt","type":"bytes32","internalType":"bytes32"},{"name":"tbaImplementation","type":"address","internalType":"address"},{"name":"daoVotingPeriod","type":"uint32","internalType":"uint32"},{"name":"daoThreshold","type":"uint256","internalType":"uint256"}],"stateMutability":"view"},{"type":"function","name":"feeTo","inputs":[],"outputs":[{"name":"","type":"address","internalType":"address"}],"stateMutability":"view"},{"type":"function","name":"getAntiSniperDuration","inputs":[{"name":"antiSniperType_","type":"uint8","internalType":"uint8"}],"outputs":[{"name":"","type":"uint256","internalType":"uint256"}],"stateMutability":"pure"},{"type":"function","name":"getDeployParams","inputs":[],"outputs":[{"name":"","type":"tuple","internalType":"struct BondingConfig.DeployParams","components":[{"name":"tbaSalt","type":"bytes32","internalType":"bytes32"},{"name":"tbaImplementation","type":"address","internalType":"address"},{"name":"daoVotingPeriod","type":"uint32","internalType":"uint32"},{"name":"daoThreshold","type":"uint256","internalType":"uint256"}]}],"stateMutability":"view"},{"type":"function","name":"getFakeInitialVirtualLiq","inputs":[],"outputs":[{"name":"","type":"uint256","internalType":"uint256"}],"stateMutability":"view"},{"type":"function","name":"getScheduledLaunchParams","inputs":[],"outputs":[{"name":"","type":"tuple","internalType":"struct BondingConfig.ScheduledLaunchParams","components":[{"name":"startTimeDelay","type":"uint256","internalType":"uint256"},{"name":"normalLaunchFee","type":"uint256","internalType":"uint256"},{"name":"acfFee","type":"uint256","internalType":"uint256"}]}],"stateMutability":"view"},{"type":"function","name":"getTargetRealVirtual","inputs":[],"outputs":[{"name":"","type":"uint256","internalType":"uint256"}],"stateMutability":"view"},{"type":"function","name":"initialSupply","inputs":[],"outputs":[{"name":"","type":"uint256","internalType":"uint256"}],"stateMutability":"view"},{"type":"function","name":"initialize","inputs":[{"name":"initialSupply_","type":"uint256","internalType":"uint256"},{"name":"feeTo_","type":"address","internalType":"address"},{"name":"teamTokenReservedWallet_","type":"address","internalType":"address"},{"name":"reserveSupplyParams_","type":"tuple","internalType":"struct BondingConfig.ReserveSupplyParams","components":[{"name":"maxAirdropBips","type":"uint16","internalType":"uint16"},{"name":"maxTotalReservedBips","type":"uint16","internalType":"uint16"},{"name":"acfReservedBips","type":"uint16","internalType":"uint16"}]},{"name":"scheduledLaunchParams_","type":"tuple","internalType":"struct BondingConfig.ScheduledLaunchParams","components":[{"name":"startTimeDelay","type":"uint256","internalType":"uint256"},{"name":"normalLaunchFee","type":"uint256","internalType":"uint256"},{"name":"acfFee","type":"uint256","internalType":"uint256"}]},{"name":"deployParams_","type":"tuple","internalType":"struct BondingConfig.DeployParams","components":[{"name":"tbaSalt","type":"bytes32","internalType":"bytes32"},{"name":"tbaImplementation","type":"address","internalType":"address"},{"name":"daoVotingPeriod","type":"uint32","internalType":"uint32"},{"name":"daoThreshold","type":"uint256","internalType":"uint256"}]},{"name":"bondingCurveParams_","type":"tuple","internalType":"struct BondingConfig.BondingCurveParams","components":[{"name":"fakeInitialVirtualLiq","type":"uint256","internalType":"uint256"},{"name":"targetRealVirtual","type":"uint256","internalType":"uint256"}]}],"outputs":[],"stateMutability":"nonpayable"},{"type":"function","name":"isPrivilegedLauncher","inputs":[{"name":"","type":"address","internalType":"address"}],"outputs":[{"name":"","type":"bool","internalType":"bool"}],"stateMutability":"view"},{"type":"function","name":"isValidAntiSniperType","inputs":[{"name":"antiSniperType_","type":"uint8","internalType":"uint8"}],"outputs":[{"name":"","type":"bool","internalType":"bool"}],"stateMutability":"pure"},{"type":"function","name":"owner","inputs":[],"outputs":[{"name":"","type":"address","internalType":"address"}],"stateMutability":"view"},{"type":"function","name":"renounceOwnership","inputs":[],"outputs":[],"stateMutability":"nonpayable"},{"type":"function","name":"reserveSupplyParams","inputs":[],"outputs":[{"name":"maxAirdropBips","type":"uint16","internalType":"uint16"},{"name":"maxTotalReservedBips","type":"uint16","internalType":"uint16"},{"name":"acfReservedBips","type":"uint16","internalType":"uint16"}],"stateMutability":"view"},{"type":"function","name":"scheduledLaunchParams","inputs":[],"outputs":[{"name":"startTimeDelay","type":"uint256","internalType":"uint256"},{"name":"normalLaunchFee","type":"uint256","internalType":"uint256"},{"name":"acfFee","type":"uint256","internalType":"uint256"}],"stateMutability":"view"},{"type":"function","name":"setBondingCurveParams","inputs":[{"name":"params_","type":"tuple","internalType":"struct BondingConfig.BondingCurveParams","components":[{"name":"fakeInitialVirtualLiq","type":"uint256","internalType":"uint256"},{"name":"targetRealVirtual","type":"uint256","internalType":"uint256"}]}],"outputs":[],"stateMutability":"nonpayable"},{"type":"function","name":"setCommonParams","inputs":[{"name":"initialSupply_","type":"uint256","internalType":"uint256"},{"name":"feeTo_","type":"address","internalType":"address"}],"outputs":[],"stateMutability":"nonpayable"},{"type":"function","name":"setDeployParams","inputs":[{"name":"params_","type":"tuple","internalType":"struct BondingConfig.DeployParams","components":[{"name":"tbaSalt","type":"bytes32","internalType":"bytes32"},{"name":"tbaImplementation","type":"address","internalType":"address"},{"name":"daoVotingPeriod","type":"uint32","internalType":"uint32"},{"name":"daoThreshold","type":"uint256","internalType":"uint256"}]}],"outputs":[],"stateMutability":"nonpayable"},{"type":"function","name":"setPrivilegedLauncher","inputs":[{"name":"launcher_","type":"address","internalType":"address"},{"name":"allowed_","type":"bool","internalType":"bool"}],"outputs":[],"stateMutability":"nonpayable"},{"type":"function","name":"setReserveSupplyParams","inputs":[{"name":"params_","type":"tuple","internalType":"struct BondingConfig.ReserveSupplyParams","components":[{"name":"maxAirdropBips","type":"uint16","internalType":"uint16"},{"name":"maxTotalReservedBips","type":"uint16","internalType":"uint16"},{"name":"acfReservedBips","type":"uint16","internalType":"uint16"}]}],"outputs":[],"stateMutability":"nonpayable"},{"type":"function","name":"setScheduledLaunchParams","inputs":[{"name":"params_","type":"tuple","internalType":"struct BondingConfig.ScheduledLaunchParams","components":[{"name":"startTimeDelay","type":"uint256","internalType":"uint256"},{"name":"normalLaunchFee","type":"uint256","internalType":"uint256"},{"name":"acfFee","type":"uint256","internalType":"uint256"}]}],"outputs":[],"stateMutability":"nonpayable"},{"type":"function","name":"setTeamTokenReservedWallet","inputs":[{"name":"wallet_","type":"address","internalType":"address"}],"outputs":[],"stateMutability":"nonpayable"},{"type":"function","name":"teamTokenReservedWallet","inputs":[],"outputs":[{"name":"","type":"address","internalType":"address"}],"stateMutability":"view"},{"type":"function","name":"transferOwnership","inputs":[{"name":"newOwner","type":"address","internalType":"address"}],"outputs":[],"stateMutability":"nonpayable"},{"type":"event","name":"BondingCurveParamsUpdated","inputs":[{"name":"params","type":"tuple","indexed":false,"internalType":"struct BondingConfig.BondingCurveParams","components":[{"name":"fakeInitialVirtualLiq","type":"uint256","internalType":"uint256"},{"name":"targetRealVirtual","type":"uint256","internalType":"uint256"}]}],"anonymous":false},{"type":"event","name":"CommonParamsUpdated","inputs":[{"name":"initialSupply","type":"uint256","indexed":false,"internalType":"uint256"},{"name":"feeTo","type":"address","indexed":false,"internalType":"address"}],"anonymous":false},{"type":"event","name":"DeployParamsUpdated","inputs":[{"name":"params","type":"tuple","indexed":false,"internalType":"struct BondingConfig.DeployParams","components":[{"name":"tbaSalt","type":"bytes32","internalType":"bytes32"},{"name":"tbaImplementation","type":"address","internalType":"address"},{"name":"daoVotingPeriod","type":"uint32","internalType":"uint32"},{"name":"daoThreshold","type":"uint256","internalType":"uint256"}]}],"anonymous":false},{"type":"event","name":"Initialized","inputs":[{"name":"version","type":"uint64","indexed":false,"internalType":"uint64"}],"anonymous":false},{"type":"event","name":"OwnershipTransferred","inputs":[{"name":"previousOwner","type":"address","indexed":true,"internalType":"address"},{"name":"newOwner","type":"address","indexed":true,"internalType":"address"}],"anonymous":false},{"type":"event","name":"PrivilegedLauncherUpdated","inputs":[{"name":"launcher","type":"address","indexed":true,"internalType":"address"},{"name":"allowed","type":"bool","indexed":false,"internalType":"bool"}],"anonymous":false},{"type":"event","name":"ReserveSupplyParamsUpdated","inputs":[{"name":"params","type":"tuple","indexed":false,"internalType":"struct BondingConfig.ReserveSupplyParams","components":[{"name":"maxAirdropBips","type":"uint16","internalType":"uint16"},{"name":"maxTotalReservedBips","type":"uint16","internalType":"uint16"},{"name":"acfReservedBips","type":"uint16","internalType":"uint16"}]}],"anonymous":false},{"type":"event","name":"TeamTokenReservedWalletUpdated","inputs":[{"name":"wallet","type":"address","indexed":false,"internalType":"address"}],"anonymous":false},{"type":"error","name":"AirdropBipsExceedsMax","inputs":[]},{"type":"error","name":"InvalidAntiSniperType","inputs":[]},{"type":"error","name":"InvalidInitialization","inputs":[]},{"type":"error","name":"InvalidReserveBips","inputs":[]},{"type":"error","name":"NotInitializing","inputs":[]},{"type":"error","name":"OwnableInvalidOwner","inputs":[{"name":"owner","type":"address","internalType":"address"}]},{"type":"error","name":"OwnableUnauthorizedAccount","inputs":[{"name":"account","type":"address","internalType":"address"}]}],"bytecode":{"object":"0x6080806040523460d0577ff0c57e16840df040f15088dc2f81fe391c3923bec73e23a9662efc9c229c6a005460ff8160401c1660c1576002600160401b03196001600160401b03821601605c575b60405161115b90816100d58239f35b6001600160401b0319166001600160401b039081177ff0c57e16840df040f15088dc2f81fe391c3923bec73e23a9662efc9c229c6a005581527fc7f505b2f371ae2175ee4913f4499e1f2633a7b5936321eed1cdaeb6115181d290602090a15f80604d565b63f92ee8a960e01b5f5260045ffd5b5f80fdfe60a0806040526004361015610012575f80fd5b5f3560e01c908163017e7e5814610e875750806302c3ac1b14610e40578063278107cc14610e23578063334bb12314610de6578063378dc3dc14610dc95780633bb93854146103d357806343fb4d2414610cac5780634ce8769a14610c765780634e03044414610c4e578063500ae963146105825780636599151b14610c31578063715018a614610bca57806371c3272314610b6b5780637378bbca14610ac557806377c8de5b14610a9c5780637fa42b9d1461073c578063842e9d4d146106d05780638ab2901f146101925780638da5cb5b1461069c5780639272980b1461064a57806392867c55146105f357806394d13d59146105875780639a5b10b014610582578063ad0af4cd14610507578063bbc5354214610450578063c03ac3ea1461042c578063d15f5e5c146103d8578063d6432cdd146103d3578063d74df33f146102ad578063d93ef84714610239578063e1f6bb171461020b578063f2fde38b146101e0578063f3778fd8146101975763f6125d4014610192575f80fd5b610f7f565b346101dc575f3660031901126101dc57608060085460095463ffffffff600a549160405193845260018060a01b038116602085015260a01c1660408301526060820152f35b5f80fd5b346101dc5760203660031901126101dc576102096101fc610f1e565b610204611087565b611016565b005b346101dc575f3660031901126101dc5760606001546002546003549060405192835260208301526040820152f35b346101dc5760403660031901126101dc577f868c19932337121dd2dacb7bca6f8f6933bb8ab802109453467f5c1c7c10736a6040600435610278610f34565b610280611087565b81600b5560018060a01b0316806001600160601b0360a01b600c541617600c5582519182526020820152a1005b346101dc5760603660031901126101dc576102c6610eaa565b60043561ffff811681036101dc57815260243561ffff811681036101dc57602082019081526044359061ffff821682036101dc5760408301918252610309611087565b61031e61ffff84511661ffff84511690611000565b61ffff808351169116116103c45761271061ffff845116116103c45761271061ffff825116116103c45761271061ffff835116116103c45761ffff60609281807f197415cf0bb032feddb872304ae0edaac7ab65634927e61c4e0028eff66d759c965116935f5463ffff0000825160101b168665ffff00000000865160201b169265ffffffffffff19161717175f556040519485525116602084015251166040820152a1005b63ed28e89760e01b5f5260045ffd5b610f4a565b346101dc5760203660031901126101dc5760043560ff81168091036101dc578060209115908115610421575b8115610416575b506040519015158152f35b60029150148261040b565b600181149150610404565b346101dc575f3660031901126101dc57604060065460075482519182526020820152f35b346101dc5760403660031901126101dc5760043561ffff8116908181036101dc57610479610f9a565b905f549261ffff8416106104f85761ffff9182916104a291156104f157828560201c1690611000565b169160101c1681116103c457600b5490612710039061ffff82116104dd576104d46127109161ffff6020941690610fe0565b04604051908152f35b634e487b7160e01b5f52601160045260245ffd5b5f90611000565b63421757c960e11b5f5260045ffd5b346101dc5760403660031901126101dc57610520610f1e565b7fd795f68b32dac178f0cce6db4002bb893ae600af8d810d070c1580bfc9df3048602061054b610f9a565b92610554611087565b60018060a01b031692835f526005825260405f209015159060ff1981541660ff8316179055604051908152a2005b610f65565b346101dc5760203660031901126101dc577f2bf54d1a805ac5507917fccc8f67a39c44a8b40fcda5140f19070cd40578a0c560206105c3610f1e565b6105cb611087565b600480546001600160a01b0319166001600160a01b03929092169182179055604051908152a1005b346101dc5760403660031901126101dc5760043580151581036101dc5760209061061b610f9a565b5f91610640575b61062f575b604051908152f35b60035461063b91610ff3565b610627565b6002549150610622565b346101dc5760203660031901126101dc5760065461067661066d60043583610fe0565b91600754610ff3565b80156106885760209104604051908152f35b634e487b7160e01b5f52601260045260245ffd5b346101dc575f3660031901126101dc575f805160206110e6833981519152546040516001600160a01b039091168152602090f35b346101dc5760403660031901126101dc577f693cb9048cff46d8b12b02ddf3d3daf7a7eb384bea8459d56592031b9cac99c4604061070c610efe565b600435815260208101906024358252610723611087565b51908160065580516007558251918252516020820152a1005b346101dc576101e03660031901126101dc57610756610f34565b6044356001600160a01b03811681036101dc5760603660631901126101dc5761077d610eaa565b60643561ffff811681036101dc5781526084359161ffff831683036101dc576020820192835260a4359261ffff841684036101dc576040830193845260603660c31901126101dc576107cd610eaa565b9160c4358352602083019260e4358452604081016101043581526080610123193601126101dc576107fc610ede565b6101243581529461014435926001600160a01b03841684036101dc5760208701938452610164359563ffffffff871687036101dc5760408881019788526101843560608a0152366101a31901126101dc57610855610efe565b996101a4358b526101c43560208c01525f805160206111068339815191525460805267ffffffffffffffff608051161580610a8c575b600167ffffffffffffffff60805116149081610a82575b159081610a79575b50610a6a5761ffff60609a6109a29860209e600167ffffffffffffffff1960805116175f805160206111068339815191525560ff60805160401c1615610a3c575b6108f36110ba565b6108fb6110ba565b61090433611016565b600435600b5560018060a01b03166001600160601b0360a01b600c541617600c5560018060a01b03166001600160601b0360a01b6004541617600455511665ffff0000000063ffff00005f54945160101b1692518e1b169265ffffffffffff19161717175f55516001555160025551600355835160085560018060a01b0390511660018060a01b03166001600160601b0360a01b6009541617600955565b516009805463ffffffff60a01b191660a09290921b63ffffffff60a01b169190911790550151600a558051600655015160075560805160401c60ff16156109e557005b68ff0000000000000000195f8051602061110683398151915254165f80516020611106833981519152557fc7f505b2f371ae2175ee4913f4499e1f2633a7b5936321eed1cdaeb6115181d2602060405160018152a1005b60805168ffffffffffffffffff191668010000000000000001175f80516020611106833981519152556108eb565b63f92ee8a960e01b5f5260045ffd5b9050158d6108aa565b303b1591506108a2565b5060ff60805160401c161561088b565b346101dc5760203660031901126101dc5760043560ff811681036101dc57610627602091610fa9565b346101dc575f3660031901126101dc575f6060610ae0610ede565b8281528260208201528260408201520152610b67610afc610ede565b600854815263ffffffff60095460018060a01b038116602084015260a01c166040820152600a5460608201526040519182918291909160608060808301948051845260018060a01b03602082015116602085015263ffffffff60408201511660408501520151910152565b0390f35b346101dc575f3660031901126101dc575f6040610b86610eaa565b82815282602082015201526060610b9b610eaa565b600154908181526002546020820190815260406003549201918252604051928352516020830152516040820152f35b346101dc575f3660031901126101dc57610be2611087565b5f805160206110e683398151915280546001600160a01b031981169091555f906001600160a01b03167f8be0079c531659141344cd1fd0a4f28419497f9722a3daafe3b4186f6b6457e08280a3005b346101dc575f3660031901126101dc576020600654604051908152f35b346101dc575f3660031901126101dc576004546040516001600160a01b039091168152602090f35b346101dc575f3660031901126101dc5760605f5461ffff604051918181168352818160101c16602084015260201c166040820152f35b346101dc5760803660031901126101dc57610cc5610ede565b6004358152602435906001600160a01b03821682036101dc57602081019182526044359063ffffffff821682036101dc577fcb22d72d974e85c31e063cd8ca18de63ee401e4c63fc01baf1d32ad0a08a82b692610dc49260408301908152610d6060608401926064358452610d38611087565b845160085551600980546001600160a01b0319166001600160a01b0392909216919091179055565b516009549063ffffffff60a01b9060a01b169063ffffffff60a01b19161760095551600a556040519182918291909160608060808301948051845260018060a01b03602082015116602085015263ffffffff60408201511660408501520151910152565b0390a1005b346101dc575f3660031901126101dc576020600b54604051908152f35b346101dc5760203660031901126101dc576001600160a01b03610e07610f1e565b165f526005602052602060ff60405f2054166040519015158152f35b346101dc575f3660031901126101dc576020600754604051908152f35b346101dc5760603660031901126101dc57610e59610eaa565b600435815260208101602435815260408201916044358352610e79611087565b516001555160025551600355005b346101dc575f3660031901126101dc57600c546001600160a01b03168152602090f35b604051906060820182811067ffffffffffffffff821117610eca57604052565b634e487b7160e01b5f52604160045260245ffd5b604051906080820182811067ffffffffffffffff821117610eca57604052565b604051906040820182811067ffffffffffffffff821117610eca57604052565b600435906001600160a01b03821682036101dc57565b602435906001600160a01b03821682036101dc57565b346101dc575f3660031901126101dc57602060405160018152f35b346101dc575f3660031901126101dc5760206040515f8152f35b346101dc575f3660031901126101dc57602060405160028152f35b6024359081151582036101dc57565b60ff1680610fb657505f90565b60018103610fc45750603c90565b600214610fda576364ee4b0160e01b5f5260045ffd5b6116f890565b818102929181159184041417156104dd57565b919082018092116104dd57565b9061ffff8091169116019061ffff82116104dd57565b6001600160a01b03168015611074575f805160206110e683398151915280546001600160a01b0319811683179091556001600160a01b03167f8be0079c531659141344cd1fd0a4f28419497f9722a3daafe3b4186f6b6457e05f80a3565b631e4fbdf760e01b5f525f60045260245ffd5b5f805160206110e6833981519152546001600160a01b031633036110a757565b63118cdaa760e01b5f523360045260245ffd5b60ff5f805160206111068339815191525460401c16156110d657565b631afcd79f60e31b5f5260045ffdfe9016d09d72d40fdae2fd8ceac6b6234c7706214fd39c1cd1e609a0528c199300f0c57e16840df040f15088dc2f81fe391c3923bec73e23a9662efc9c229c6a00a2646970667358221220a03dc979b6ce6e44eb56984960dbb62bdc518b4a37b2e82d9242c102010706a064736f6c634300081a0033","linkReferences":{}},"methodIdentifiers":{"ANTI_SNIPER_60S()":"d6432cdd","ANTI_SNIPER_98M()":"f6125d40","ANTI_SNIPER_NONE()":"500ae963","LAUNCH_MODE_ACP_SKILL()":"8ab2901f","LAUNCH_MODE_NORMAL()":"9a5b10b0","LAUNCH_MODE_X_LAUNCH()":"3bb93854","bondingCurveParams()":"c03ac3ea","calculateBondingCurveSupply(uint16,bool)":"bbc53542","calculateGradThreshold(uint256)":"9272980b","calculateLaunchFee(bool,bool)":"92867c55","deployParams()":"f3778fd8","feeTo()":"017e7e58","getAntiSniperDuration(uint8)":"77c8de5b","getDeployParams()":"7378bbca","getFakeInitialVirtualLiq()":"6599151b","getScheduledLaunchParams()":"71c32723","getTargetRealVirtual()":"278107cc","initialSupply()":"378dc3dc","initialize(uint256,address,address,(uint16,uint16,uint16),(uint256,uint256,uint256),(bytes32,address,uint32,uint256),(uint256,uint256))":"7fa42b9d","isPrivilegedLauncher(address)":"334bb123","isValidAntiSniperType(uint8)":"d15f5e5c","owner()":"8da5cb5b","renounceOwnership()":"715018a6","reserveSupplyParams()":"4ce8769a","scheduledLaunchParams()":"e1f6bb17","setBondingCurveParams((uint256,uint256))":"842e9d4d","setCommonParams(uint256,address)":"d93ef847","setDeployParams((bytes32,address,uint32,uint256))":"43fb4d24","setPrivilegedLauncher(address,bool)":"ad0af4cd","setReserveSupplyParams((uint16,uint16,uint16))":"d74df33f","setScheduledLaunchParams((uint256,uint256,uint256))":"02c3ac1b","setTeamTokenReservedWallet(address)":"94d13d59","teamTokenReservedWallet()":"4e030444","transferOwnership(address)":"f2fde38b"},"id":39}