{"abi":[{"type":"constructor","inputs":[],"stateMutability":"nonpayable"},{"type":"function","name":"BONDING_ROLE","inputs":[],"outputs":[{"name":"","type":"bytes32","internalType":"bytes32"}],"stateMutability":"view"},{"type":"function","name":"DEFAULT_ADMIN_ROLE","inputs":[],"outputs":[{"name":"","type":"bytes32","internalType":"bytes32"}],"stateMutability":"view"},{"type":"function","name":"executeBondingCurveApplication","inputs":[{"name":"","type":"uint256","internalType":"uint256"},{"name":"","type":"uint256","internalType":"uint256"},{"name":"","type":"uint256","internalType":"uint256"},{"name":"","type":"address","internalType":"address"}],"outputs":[{"name":"","type":"address","internalType":"address"}],"stateMutability":"view"},{"type":"function","name":"executeBondingCurveApplicationSalt","inputs":[{"name":"","type":"uint256","internalType":"uint256"},{"name":"","type":"uint256","internalType":"uint256"},{"name":"","type":"uint256","internalType":"uint256"},{"name":"","type":"address","internalType":"address"},{"name":"","type":"bytes32","internalType":"bytes32"}],"outputs":[{"name":"","type":"address","internalType":"address"}],"stateMutability":"view"},{"type":"function","name":"getRoleAdmin","inputs":[{"name":"role","type":"bytes32","internalType":"bytes32"}],"outputs":[{"name":"","type":"bytes32","internalType":"bytes32"}],"stateMutability":"view"},{"type":"function","name":"grantRole","inputs":[{"name":"role","type":"bytes32","internalType":"bytes32"},{"name":"account","type":"address","internalType":"address"}],"outputs":[],"stateMutability":"nonpayable"},{"type":"function","name":"hasRole","inputs":[{"name":"role","type":"bytes32","internalType":"bytes32"},{"name":"account","type":"address","internalType":"address"}],"outputs":[{"name":"","type":"bool","internalType":"bool"}],"stateMutability":"view"},{"type":"function","name":"initFromBondingCurve","inputs":[{"name":"","type":"string","internalType":"string"},{"name":"","type":"string","internalType":"string"},{"name":"","type":"uint8[]","internalType":"uint8[]"},{"name":"","type":"bytes32","internalType":"bytes32"},{"name":"","type":"address","internalType":"address"},{"name":"","type":"uint32","internalType":"uint32"},{"name":"","type":"uint256","internalType":"uint256"},{"name":"","type":"uint256","internalType":"uint256"},{"name":"","type":"address","internalType":"address"}],"outputs":[{"name":"","type":"uint256","internalType":"uint256"}],"stateMutability":"view"},{"type":"function","name":"initialize","inputs":[{"name":"","type":"address","internalType":"address"},{"name":"","type":"address","internalType":"address"},{"name":"","type":"address","internalType":"address"},{"name":"","type":"address","internalType":"address"},{"name":"","type":"address","internalType":"address"},{"name":"","type":"address","internalType":"address"},{"name":"","type":"uint256","internalType":"uint256"},{"name":"","type":"address","internalType":"address"},{"name":"","type":"uint256","internalType":"uint256"}],"outputs":[],"stateMutability":"nonpayable"},{"type":"function","name":"mockAgentToken","inputs":[],"outputs":[{"name":"","type":"address","internalType":"address"}],"stateMutability":"view"},{"type":"function","name":"mockId","inputs":[],"outputs":[{"name":"","type":"uint256","internalType":"uint256"}],"stateMutability":"view"},{"type":"function","name":"paused","inputs":[],"outputs":[{"name":"","type":"bool","internalType":"bool"}],"stateMutability":"view"},{"type":"function","name":"proposeAgent","inputs":[{"name":"","type":"string","internalType":"string"},{"name":"","type":"string","internalType":"string"},{"name":"","type":"string","internalType":"string"},{"name":"","type":"uint8[]","internalType":"uint8[]"},{"name":"","type":"bytes32","internalType":"bytes32"},{"name":"","type":"address","internalType":"address"},{"name":"","type":"uint32","internalType":"uint32"},{"name":"","type":"uint256","internalType":"uint256"}],"outputs":[{"name":"","type":"uint256","internalType":"uint256"}],"stateMutability":"view"},{"type":"function","name":"renounceRole","inputs":[{"name":"role","type":"bytes32","internalType":"bytes32"},{"name":"callerConfirmation","type":"address","internalType":"address"}],"outputs":[],"stateMutability":"nonpayable"},{"type":"function","name":"revokeRole","inputs":[{"name":"role","type":"bytes32","internalType":"bytes32"},{"name":"account","type":"address","internalType":"address"}],"outputs":[],"stateMutability":"nonpayable"},{"type":"function","name":"setMockAgentToken","inputs":[{"name":"token","type":"address","internalType":"address"}],"outputs":[],"stateMutability":"nonpayable"},{"type":"function","name":"setMockId","inputs":[{"name":"id","type":"uint256","internalType":"uint256"}],"outputs":[],"stateMutability":"nonpayable"},{"type":"function","name":"supportsInterface","inputs":[{"name":"interfaceId","type":"bytes4","internalType":"bytes4"}],"outputs":[{"name":"","type":"bool","internalType":"bool"}],"stateMutability":"view"},{"type":"function","name":"totalAgents","inputs":[],"outputs":[{"name":"","type":"uint256","internalType":"uint256"}],"stateMutability":"pure"},{"type":"function","name":"withdraw","inputs":[{"name":"","type":"uint256","internalType":"uint256"}],"outputs":[],"stateMutability":"pure"},{"type":"event","name":"Initialized","inputs":[{"name":"version","type":"uint64","indexed":false,"internalType":"uint64"}],"anonymous":false},{"type":"event","name":"Paused","inputs":[{"name":"account","type":"address","indexed":false,"internalType":"address"}],"anonymous":false},{"type":"event","name":"RoleAdminChanged","inputs":[{"name":"role","type":"bytes32","indexed":true,"internalType":"bytes32"},{"name":"previousAdminRole","type":"bytes32","indexed":true,"internalType":"bytes32"},{"name":"newAdminRole","type":"bytes32","indexed":true,"internalType":"bytes32"}],"anonymous":false},{"type":"event","name":"RoleGranted","inputs":[{"name":"role","type":"bytes32","indexed":true,"internalType":"bytes32"},{"name":"account","type":"address","indexed":true,"internalType":"address"},{"name":"sender","type":"address","indexed":true,"internalType":"address"}],"anonymous":false},{"type":"event","name":"RoleRevoked","inputs":[{"name":"role","type":"bytes32","indexed":true,"internalType":"bytes32"},{"name":"account","type":"address","indexed":true,"internalType":"address"},{"name":"sender","type":"address","indexed":true,"internalType":"address"}],"anonymous":false},{"type":"event","name":"Unpaused","inputs":[{"name":"account","type":"address","indexed":false,"internalType":"address"}],"anonymous":false},{"type":"error","name":"AccessControlBadConfirmation","inputs":[]},{"type":"error","name":"AccessControlUnauthorizedAccount","inputs":[{"name":"account","type":"address","internalType":"address"},{"name":"neededRole","type":"bytes32","internalType":"bytes32"}]},{"type":"error","name":"EnforcedPause","inputs":[]},{"type":"error","name":"ExpectedPause","inputs":[]},{"type":"error","name":"InvalidInitialization","inputs":[]},{"type":"error","name":"NotInitializing","inputs":[]}],"bytecode":{"object":"0x6080806040523460d0577ff0c57e16840df040f15088dc2f81fe391c3923bec73e23a9662efc9c229c6a005460ff8160401c1660c1576002600160401b03196001600160401b03821601605c575b604051610d6990816100d58239f35b6001600160401b0319166001600160401b039081177ff0c57e16840df040f15088dc2f81fe391c3923bec73e23a9662efc9c229c6a005581527fc7f505b2f371ae2175ee4913f4499e1f2633a7b5936321eed1cdaeb6115181d290602090a15f80604d565b63f92ee8a960e01b5f5260045ffd5b5f80fdfe6080806040526004361015610012575f80fd5b5f3560e01c90816301ffc9a7146106f8575080630f07646a1461053e57806323c3159614610525578063248a9ca3146104ff5780632e1a7d4d146104ec5780632f2ff15d146104bb5780633094afb31461048157806336568abe1461043d5780633fa2da7e146103735780635c975abb146103455780636dee767c1461031e578063774519c61461030157806391d14854146102ac5780639e4ec30a146101f7578063a12e9b88146101de578063a217fddf146101c4578063c5053712146101a9578063d2f5855914610170578063d547741f146101385763e8730541146100f8575f80fd5b34610134576020366003190112610134576001600160a01b0361011961074b565b166bffffffffffffffffffffffff60a01b5f5416175f555f80f35b5f80fd5b346101345760403660031901126101345761016e600435610157610761565b906101696101648261091a565b610bc6565b610c0c565b005b346101345760a03660031901126101345761018961078d565b50610192610b57565b5f546040516001600160a01b039091168152602090f35b34610134575f36600319011261013457602060405160018152f35b34610134575f3660031901126101345760206040515f8152f35b3461013457602036600319011261013457600435600155005b34610134576101003660031901126101345760043567ffffffffffffffff811161013457610229903690600401610836565b5060243567ffffffffffffffff81116101345761024a903690600401610836565b5060443567ffffffffffffffff81116101345761026b903690600401610836565b5060643567ffffffffffffffff81116101345761028c903690600401610888565b506102956107b9565b5061029e610907565b506020600154604051908152f35b34610134576040366003190112610134576102c5610761565b6004355f525f80516020610cd483398151915260205260405f209060018060a01b03165f52602052602060ff60405f2054166040519015158152f35b34610134575f366003190112610134576020600154604051908152f35b34610134575f366003190112610134575f546040516001600160a01b039091168152602090f35b34610134575f36600319011261013457602060ff5f80516020610cf483398151915254166040519015158152f35b34610134576101203660031901126101345760043567ffffffffffffffff8111610134576103a5903690600401610836565b5060243567ffffffffffffffff8111610134576103c6903690600401610836565b5060443567ffffffffffffffff8111610134576103e7903690600401610888565b506103f06107a3565b506103f96108f4565b506104026107e5565b5060ff5f80516020610cf4833981519152541661042e57610421610b57565b6020600154604051908152f35b63d93c066560e01b5f5260045ffd5b3461013457604036600319011261013457610456610761565b336001600160a01b038216036104725761016e90600435610c0c565b63334bd91960e11b5f5260045ffd5b34610134575f3660031901126101345760206040517f360f1ba4dc07a42c6671063d838f69946ccc4187f391399e06fd8ed4605900f38152f35b346101345760403660031901126101345761016e6004356104da610761565b906104e76101648261091a565b610ab3565b3461013457602036600319011261013457005b3461013457602036600319011261013457602061051d60043561091a565b604051908152f35b346101345760803660031901126101345761018961078d565b34610134576101203660031901126101345761055861074b565b50610561610761565b5061056a610777565b5061057361078d565b5061057c6107a3565b506105856107b9565b5061058e6107cf565b505f80516020610d148339815191525460ff8160401c16159067ffffffffffffffff8116801590816106f0575b60011490816106e6575b1590816106dd575b506106ce5767ffffffffffffffff1981166001175f80516020610d1483398151915255816106a2575b506105ff610ca8565b610607610ca8565b61060f610ca8565b60ff195f80516020610cf483398151915254165f80516020610cf48339815191525561063a33610938565b50610644336109e7565b5061064b57005b68ff0000000000000000195f80516020610d1483398151915254165f80516020610d14833981519152557fc7f505b2f371ae2175ee4913f4499e1f2633a7b5936321eed1cdaeb6115181d2602060405160018152a1005b68ffffffffffffffffff191668010000000000000001175f80516020610d1483398151915255816105f6565b63f92ee8a960e01b5f5260045ffd5b905015836105cd565b303b1591506105c5565b8391506105bb565b34610134576020366003190112610134576004359063ffffffff60e01b821680920361013457602091637965db0b60e01b811490811561073a575b5015158152f35b6301ffc9a760e01b14905083610733565b600435906001600160a01b038216820361013457565b602435906001600160a01b038216820361013457565b604435906001600160a01b038216820361013457565b606435906001600160a01b038216820361013457565b608435906001600160a01b038216820361013457565b60a435906001600160a01b038216820361013457565b60e435906001600160a01b038216820361013457565b61010435906001600160a01b038216820361013457565b6040519190601f01601f1916820167ffffffffffffffff81118382101761082257604052565b634e487b7160e01b5f52604160045260245ffd5b81601f820112156101345780359067ffffffffffffffff821161082257610866601f8301601f19166020016107fc565b928284526020838301011161013457815f926020809301838601378301015290565b81601f820112156101345780359167ffffffffffffffff8311610822578260051b916020806108b88186016107fc565b80968152019382010191821161013457602001915b8183106108da5750505090565b823560ff81168103610134578152602092830192016108cd565b60a4359063ffffffff8216820361013457565b60c4359063ffffffff8216820361013457565b5f525f80516020610cd4833981519152602052600160405f20015490565b6001600160a01b0381165f9081527fb7db2dd08fcb62d0c9e08c51941cae53c267786a0b75803fb7960902fc8ef97d602052604090205460ff166109e2576001600160a01b03165f8181527fb7db2dd08fcb62d0c9e08c51941cae53c267786a0b75803fb7960902fc8ef97d60205260408120805460ff191660011790553391907f2f8788117e7eff1d82e926ec794901d17c78024a50270940304540a733656f0d8180a4600190565b505f90565b6001600160a01b0381165f9081527f7fd9957335868d530b3a02e10a71f86271a34deadb5ee52b2ba3d611ed087617602052604090205460ff166109e2576001600160a01b03165f8181527f7fd9957335868d530b3a02e10a71f86271a34deadb5ee52b2ba3d611ed08761760205260408120805460ff191660011790553391907f360f1ba4dc07a42c6671063d838f69946ccc4187f391399e06fd8ed4605900f3907f2f8788117e7eff1d82e926ec794901d17c78024a50270940304540a733656f0d9080a4600190565b5f8181525f80516020610cd4833981519152602090815260408083206001600160a01b038616845290915290205460ff16610b51575f8181525f80516020610cd4833981519152602090815260408083206001600160a01b0395909516808452949091528120805460ff19166001179055339291907f2f8788117e7eff1d82e926ec794901d17c78024a50270940304540a733656f0d9080a4600190565b50505f90565b335f9081527f7fd9957335868d530b3a02e10a71f86271a34deadb5ee52b2ba3d611ed087617602052604090205460ff1615610b8f57565b63e2517d3f60e01b5f52336004527f360f1ba4dc07a42c6671063d838f69946ccc4187f391399e06fd8ed4605900f360245260445ffd5b5f8181525f80516020610cd48339815191526020908152604080832033845290915290205460ff1615610bf65750565b63e2517d3f60e01b5f523360045260245260445ffd5b5f8181525f80516020610cd4833981519152602090815260408083206001600160a01b038616845290915290205460ff1615610b51575f8181525f80516020610cd4833981519152602090815260408083206001600160a01b0395909516808452949091528120805460ff19169055339291907ff6391f5c32d9c69d2a47ea670b442974b53935d1edc7fd64eb21e047a839171b9080a4600190565b60ff5f80516020610d148339815191525460401c1615610cc457565b631afcd79f60e31b5f5260045ffdfe02dd7bc7dec4dceedda775e58dd541e08a116c6c53815c0bd028192f7b626800cd5ed15c6e187e77e9aee88184c21f4f2182ab5827cb3b7e07fbedcd63f03300f0c57e16840df040f15088dc2f81fe391c3923bec73e23a9662efc9c229c6a00a2646970667358221220e2585ac4cf5ec17a219ccf49f6a0b455ccfade95b96a1448d48be0ca282ebc1364736f6c634300081a0033","linkReferences":{}},"methodIdentifiers":{"BONDING_ROLE()":"3094afb3","DEFAULT_ADMIN_ROLE()":"a217fddf","executeBondingCurveApplication(uint256,uint256,uint256,address)":"23c31596","executeBondingCurveApplicationSalt(uint256,uint256,uint256,address,bytes32)":"d2f58559","getRoleAdmin(bytes32)":"248a9ca3","grantRole(bytes32,address)":"2f2ff15d","hasRole(bytes32,address)":"91d14854","initFromBondingCurve(string,string,uint8[],bytes32,address,uint32,uint256,uint256,address)":"3fa2da7e","initialize(address,address,address,address,address,address,uint256,address,uint256)":"0f07646a","mockAgentToken()":"6dee767c","mockId()":"774519c6","paused()":"5c975abb","proposeAgent(string,string,string,uint8[],bytes32,address,uint32,uint256)":"9e4ec30a","renounceRole(bytes32,address)":"36568abe","revokeRole(bytes32,address)":"d547741f","setMockAgentToken(address)":"e8730541","setMockId(uint256)":"a12e9b88","supportsInterface(bytes4)":"01ffc9a7","totalAgents()":"c5053712","withdraw(uint256)":"2e1a7d4d"},"id":31}