{"abi":[{"type":"constructor","inputs":[],"stateMutability":"nonpayable"},{"type":"function","name":"DEFAULT_ADMIN_ROLE","inputs":[],"outputs":[{"name":"","type":"bytes32","internalType":"bytes32"}],"stateMutability":"view"},{"type":"function","name":"OPS_ROLE","inputs":[],"outputs":[{"name":"","type":"bytes32","internalType":"bytes32"}],"stateMutability":"view"},{"type":"function","name":"WITHDRAW_ROLE","inputs":[],"outputs":[{"name":"","type":"bytes32","internalType":"bytes32"}],"stateMutability":"view"},{"type":"function","name":"allDAOs","inputs":[{"name":"","type":"uint256","internalType":"uint256"}],"outputs":[{"name":"","type":"address","internalType":"address"}],"stateMutability":"view"},{"type":"function","name":"allTokens","inputs":[{"name":"","type":"uint256","internalType":"uint256"}],"outputs":[{"name":"","type":"address","internalType":"address"}],"stateMutability":"view"},{"type":"function","name":"allTradingTokens","inputs":[{"name":"","type":"uint256","internalType":"uint256"}],"outputs":[{"name":"","type":"address","internalType":"address"}],"stateMutability":"view"},{"type":"function","name":"applicationThreshold","inputs":[],"outputs":[{"name":"","type":"uint256","internalType":"uint256"}],"stateMutability":"view"},{"type":"function","name":"assetToken","inputs":[],"outputs":[{"name":"","type":"address","internalType":"address"}],"stateMutability":"view"},{"type":"function","name":"daoImplementation","inputs":[],"outputs":[{"name":"","type":"address","internalType":"address"}],"stateMutability":"view"},{"type":"function","name":"defaultDelegatee","inputs":[],"outputs":[{"name":"","type":"address","internalType":"address"}],"stateMutability":"view"},{"type":"function","name":"executeApplication","inputs":[{"name":"id","type":"uint256","internalType":"uint256"},{"name":"canStake","type":"bool","internalType":"bool"}],"outputs":[],"stateMutability":"nonpayable"},{"type":"function","name":"executeTokenApplication","inputs":[{"name":"id","type":"uint256","internalType":"uint256"},{"name":"canStake","type":"bool","internalType":"bool"}],"outputs":[],"stateMutability":"nonpayable"},{"type":"function","name":"getApplication","inputs":[{"name":"proposalId","type":"uint256","internalType":"uint256"}],"outputs":[{"name":"","type":"tuple","internalType":"struct AgentFactoryV4.Application","components":[{"name":"name","type":"string","internalType":"string"},{"name":"symbol","type":"string","internalType":"string"},{"name":"tokenURI","type":"string","internalType":"string"},{"name":"status","type":"uint8","internalType":"enum AgentFactoryV4.ApplicationStatus"},{"name":"withdrawableAmount","type":"uint256","internalType":"uint256"},{"name":"proposer","type":"address","internalType":"address"},{"name":"cores","type":"uint8[]","internalType":"uint8[]"},{"name":"proposalEndBlock","type":"uint256","internalType":"uint256"},{"name":"virtualId","type":"uint256","internalType":"uint256"},{"name":"tbaSalt","type":"bytes32","internalType":"bytes32"},{"name":"tbaImplementation","type":"address","internalType":"address"},{"name":"daoVotingPeriod","type":"uint32","internalType":"uint32"},{"name":"daoThreshold","type":"uint256","internalType":"uint256"}]}],"stateMutability":"view"},{"type":"function","name":"getRoleAdmin","inputs":[{"name":"role","type":"bytes32","internalType":"bytes32"}],"outputs":[{"name":"","type":"bytes32","internalType":"bytes32"}],"stateMutability":"view"},{"type":"function","name":"grantRole","inputs":[{"name":"role","type":"bytes32","internalType":"bytes32"},{"name":"account","type":"address","internalType":"address"}],"outputs":[],"stateMutability":"nonpayable"},{"type":"function","name":"hasRole","inputs":[{"name":"role","type":"bytes32","internalType":"bytes32"},{"name":"account","type":"address","internalType":"address"}],"outputs":[{"name":"","type":"bool","internalType":"bool"}],"stateMutability":"view"},{"type":"function","name":"initFromToken","inputs":[{"name":"tokenAddr","type":"address","internalType":"address"},{"name":"cores","type":"uint8[]","internalType":"uint8[]"},{"name":"tbaSalt","type":"bytes32","internalType":"bytes32"},{"name":"tbaImplementation","type":"address","internalType":"address"},{"name":"daoVotingPeriod","type":"uint32","internalType":"uint32"},{"name":"daoThreshold","type":"uint256","internalType":"uint256"},{"name":"initialLP","type":"uint256","internalType":"uint256"}],"outputs":[{"name":"","type":"uint256","internalType":"uint256"}],"stateMutability":"nonpayable"},{"type":"function","name":"initFromTokenLP","inputs":[{"name":"creator","type":"address","internalType":"address"},{"name":"tokenAddr","type":"address","internalType":"address"},{"name":"cores","type":"uint8[]","internalType":"uint8[]"},{"name":"tbaSalt","type":"bytes32","internalType":"bytes32"},{"name":"tbaImplementation","type":"address","internalType":"address"},{"name":"daoVotingPeriod","type":"uint32","internalType":"uint32"},{"name":"daoThreshold","type":"uint256","internalType":"uint256"},{"name":"lpAddress","type":"address","internalType":"address"}],"outputs":[{"name":"","type":"uint256","internalType":"uint256"}],"stateMutability":"nonpayable"},{"type":"function","name":"initialize","inputs":[{"name":"tokenImplementation_","type":"address","internalType":"address"},{"name":"veTokenImplementation_","type":"address","internalType":"address"},{"name":"daoImplementation_","type":"address","internalType":"address"},{"name":"tbaRegistry_","type":"address","internalType":"address"},{"name":"assetToken_","type":"address","internalType":"address"},{"name":"nft_","type":"address","internalType":"address"},{"name":"applicationThreshold_","type":"uint256","internalType":"uint256"},{"name":"vault_","type":"address","internalType":"address"},{"name":"nextId_","type":"uint256","internalType":"uint256"}],"outputs":[],"stateMutability":"nonpayable"},{"type":"function","name":"isCompatibleToken","inputs":[{"name":"tokenAddr","type":"address","internalType":"address"}],"outputs":[{"name":"","type":"bool","internalType":"bool"}],"stateMutability":"view"},{"type":"function","name":"maturityDuration","inputs":[],"outputs":[{"name":"","type":"uint256","internalType":"uint256"}],"stateMutability":"view"},{"type":"function","name":"nft","inputs":[],"outputs":[{"name":"","type":"address","internalType":"address"}],"stateMutability":"view"},{"type":"function","name":"pause","inputs":[],"outputs":[],"stateMutability":"nonpayable"},{"type":"function","name":"paused","inputs":[],"outputs":[{"name":"","type":"bool","internalType":"bool"}],"stateMutability":"view"},{"type":"function","name":"proposeAgent","inputs":[{"name":"name","type":"string","internalType":"string"},{"name":"symbol","type":"string","internalType":"string"},{"name":"tokenURI","type":"string","internalType":"string"},{"name":"cores","type":"uint8[]","internalType":"uint8[]"},{"name":"tbaSalt","type":"bytes32","internalType":"bytes32"},{"name":"tbaImplementation","type":"address","internalType":"address"},{"name":"daoVotingPeriod","type":"uint32","internalType":"uint32"},{"name":"daoThreshold","type":"uint256","internalType":"uint256"}],"outputs":[{"name":"","type":"uint256","internalType":"uint256"}],"stateMutability":"nonpayable"},{"type":"function","name":"renounceRole","inputs":[{"name":"role","type":"bytes32","internalType":"bytes32"},{"name":"callerConfirmation","type":"address","internalType":"address"}],"outputs":[],"stateMutability":"nonpayable"},{"type":"function","name":"revokeRole","inputs":[{"name":"role","type":"bytes32","internalType":"bytes32"},{"name":"account","type":"address","internalType":"address"}],"outputs":[],"stateMutability":"nonpayable"},{"type":"function","name":"setApplicationThreshold","inputs":[{"name":"newThreshold","type":"uint256","internalType":"uint256"}],"outputs":[],"stateMutability":"nonpayable"},{"type":"function","name":"setAssetToken","inputs":[{"name":"newToken","type":"address","internalType":"address"}],"outputs":[],"stateMutability":"nonpayable"},{"type":"function","name":"setDefaultDelegatee","inputs":[{"name":"newDelegatee","type":"address","internalType":"address"}],"outputs":[],"stateMutability":"nonpayable"},{"type":"function","name":"setImplementations","inputs":[{"name":"token","type":"address","internalType":"address"},{"name":"veToken","type":"address","internalType":"address"},{"name":"dao","type":"address","internalType":"address"}],"outputs":[],"stateMutability":"nonpayable"},{"type":"function","name":"setMaturityDuration","inputs":[{"name":"newDuration","type":"uint256","internalType":"uint256"}],"outputs":[],"stateMutability":"nonpayable"},{"type":"function","name":"setTokenAdmin","inputs":[{"name":"newTokenAdmin","type":"address","internalType":"address"}],"outputs":[],"stateMutability":"nonpayable"},{"type":"function","name":"setTokenSupplyParams","inputs":[{"name":"maxSupply","type":"uint256","internalType":"uint256"},{"name":"lpSupply","type":"uint256","internalType":"uint256"},{"name":"vaultSupply","type":"uint256","internalType":"uint256"},{"name":"maxTokensPerWallet","type":"uint256","internalType":"uint256"},{"name":"maxTokensPerTxn","type":"uint256","internalType":"uint256"},{"name":"botProtectionDurationInSeconds","type":"uint256","internalType":"uint256"},{"name":"vault","type":"address","internalType":"address"}],"outputs":[],"stateMutability":"nonpayable"},{"type":"function","name":"setTokenTaxParams","inputs":[{"name":"projectBuyTaxBasisPoints","type":"uint256","internalType":"uint256"},{"name":"projectSellTaxBasisPoints","type":"uint256","internalType":"uint256"},{"name":"taxSwapThresholdBasisPoints","type":"uint256","internalType":"uint256"},{"name":"projectTaxRecipient","type":"address","internalType":"address"}],"outputs":[],"stateMutability":"nonpayable"},{"type":"function","name":"setUniswapRouter","inputs":[{"name":"router","type":"address","internalType":"address"}],"outputs":[],"stateMutability":"nonpayable"},{"type":"function","name":"setVault","inputs":[{"name":"newVault","type":"address","internalType":"address"}],"outputs":[],"stateMutability":"nonpayable"},{"type":"function","name":"supportsInterface","inputs":[{"name":"interfaceId","type":"bytes4","internalType":"bytes4"}],"outputs":[{"name":"","type":"bool","internalType":"bool"}],"stateMutability":"view"},{"type":"function","name":"tbaRegistry","inputs":[],"outputs":[{"name":"","type":"address","internalType":"address"}],"stateMutability":"view"},{"type":"function","name":"tokenImplementation","inputs":[],"outputs":[{"name":"","type":"address","internalType":"address"}],"stateMutability":"view"},{"type":"function","name":"totalAgents","inputs":[],"outputs":[{"name":"","type":"uint256","internalType":"uint256"}],"stateMutability":"view"},{"type":"function","name":"unpause","inputs":[],"outputs":[],"stateMutability":"nonpayable"},{"type":"function","name":"veTokenImplementation","inputs":[],"outputs":[{"name":"","type":"address","internalType":"address"}],"stateMutability":"view"},{"type":"function","name":"withdraw","inputs":[{"name":"id","type":"uint256","internalType":"uint256"}],"outputs":[],"stateMutability":"nonpayable"},{"type":"event","name":"ApplicationThresholdUpdated","inputs":[{"name":"newThreshold","type":"uint256","indexed":false,"internalType":"uint256"}],"anonymous":false},{"type":"event","name":"GovUpdated","inputs":[{"name":"newGov","type":"address","indexed":false,"internalType":"address"}],"anonymous":false},{"type":"event","name":"ImplContractsUpdated","inputs":[{"name":"token","type":"address","indexed":false,"internalType":"address"},{"name":"dao","type":"address","indexed":false,"internalType":"address"}],"anonymous":false},{"type":"event","name":"Initialized","inputs":[{"name":"version","type":"uint64","indexed":false,"internalType":"uint64"}],"anonymous":false},{"type":"event","name":"NewApplication","inputs":[{"name":"id","type":"uint256","indexed":false,"internalType":"uint256"}],"anonymous":false},{"type":"event","name":"NewPersona","inputs":[{"name":"virtualId","type":"uint256","indexed":false,"internalType":"uint256"},{"name":"token","type":"address","indexed":false,"internalType":"address"},{"name":"dao","type":"address","indexed":false,"internalType":"address"},{"name":"tba","type":"address","indexed":false,"internalType":"address"},{"name":"veToken","type":"address","indexed":false,"internalType":"address"},{"name":"lp","type":"address","indexed":false,"internalType":"address"}],"anonymous":false},{"type":"event","name":"Paused","inputs":[{"name":"account","type":"address","indexed":false,"internalType":"address"}],"anonymous":false},{"type":"event","name":"RoleAdminChanged","inputs":[{"name":"role","type":"bytes32","indexed":true,"internalType":"bytes32"},{"name":"previousAdminRole","type":"bytes32","indexed":true,"internalType":"bytes32"},{"name":"newAdminRole","type":"bytes32","indexed":true,"internalType":"bytes32"}],"anonymous":false},{"type":"event","name":"RoleGranted","inputs":[{"name":"role","type":"bytes32","indexed":true,"internalType":"bytes32"},{"name":"account","type":"address","indexed":true,"internalType":"address"},{"name":"sender","type":"address","indexed":true,"internalType":"address"}],"anonymous":false},{"type":"event","name":"RoleRevoked","inputs":[{"name":"role","type":"bytes32","indexed":true,"internalType":"bytes32"},{"name":"account","type":"address","indexed":true,"internalType":"address"},{"name":"sender","type":"address","indexed":true,"internalType":"address"}],"anonymous":false},{"type":"event","name":"Unpaused","inputs":[{"name":"account","type":"address","indexed":false,"internalType":"address"}],"anonymous":false},{"type":"error","name":"AccessControlBadConfirmation","inputs":[]},{"type":"error","name":"AccessControlUnauthorizedAccount","inputs":[{"name":"account","type":"address","internalType":"address"},{"name":"neededRole","type":"bytes32","internalType":"bytes32"}]},{"type":"error","name":"AddressEmptyCode","inputs":[{"name":"target","type":"address","internalType":"address"}]},{"type":"error","name":"AddressInsufficientBalance","inputs":[{"name":"account","type":"address","internalType":"address"}]},{"type":"error","name":"ERC1167FailedCreateClone","inputs":[]},{"type":"error","name":"EnforcedPause","inputs":[]},{"type":"error","name":"ExpectedPause","inputs":[]},{"type":"error","name":"FailedInnerCall","inputs":[]},{"type":"error","name":"InvalidInitialization","inputs":[]},{"type":"error","name":"NotInitializing","inputs":[]},{"type":"error","name":"SafeERC20FailedOperation","inputs":[{"name":"token","type":"address","internalType":"address"}]}],"bytecode":{"object":"0x6080806040523460d0577ff0c57e16840df040f15088dc2f81fe391c3923bec73e23a9662efc9c229c6a005460ff8160401c1660c1576002600160401b03196001600160401b03821601605c575b6040516150a190816100d58239f35b6001600160401b0319166001600160401b039081177ff0c57e16840df040f15088dc2f81fe391c3923bec73e23a9662efc9c229c6a005581527fc7f505b2f371ae2175ee4913f4499e1f2633a7b5936321eed1cdaeb6115181d290602090a15f80604d565b63f92ee8a960e01b5f5260045ffd5b5f80fdfe6080806040526004361015610012575f80fd5b5f3560e01c90816301ffc9a71461271257508063063513b7146126f55780630c4cb55c146126cd5780630f07646a146124605780630f3ba023146124265780631083f761146123fe5780631f2f4bfd14611bd3578063248a9ca314611ba957806326bde5aa14611b665780632a7d4a1f146119875780632e1a7d4d146117725780632f2ff15d146117355780632f3a3d5d1461170d57806336568abe146116c957806338b0c1d5146114cc5780633f4ba83a1461144e578063449664c014611421578063468d198d146113f957806347ccca02146113d15780634c88672a146112c35780635c975abb146112955780635ca3cedf1461109c578063634282af146110385780636817031b14610ff55780638456cb5914610f8457806391d1485414610f3c5780639300d23814610ec95780639cbe0bac14610ea15780639d69932614610e795780639d7b684214610e365780639e4ec30a1461077a578063a217fddf14610760578063aa3d000a1461069a578063b4136bd814610636578063bd1cf258146105ea578063bea9849e146105a7578063c50537121461058a578063d547741f14610546578063d739ac2914610525578063ddf4427514610508578063e02023a1146104ce578063e887b1cc14610456578063f7457594146104135763fc98f07914610200575f80fd5b346103ca5760e03660031901126103ca57610219612765565b6024356001600160401b0381116103ca57610238903690600401612877565b6102406127a7565b9060843563ffffffff811681036103ca5760c4359261025d61320f565b60018060a01b03851694855f52601460205261027d60405f205415612c19565b61028e61028982612de6565b612c5c565b6009546001600160a01b03166102a687821415612c9c565b6040516370a0823160e01b8152336004820152602081602481855afa9081156103d6575f916103e1575b506102e060065480921015612f2f565b604051636eb1769f60e11b815233600482015230602482015291602090839060449082905afa80156103d6575f9061039e575b61031f92501015612ce8565b61032b84511515612d3f565b841561035a576103446103529560209730903390614e61565b60a435936044359133613236565b604051908152f35b606460405162461bcd60e51b815260206004820152602060248201527f496e697469616c4c50206d7573742062652067726561746572207468616e20306044820152fd5b506020823d6020116103ce575b816103b86020938361283f565b810103126103ca5761031f9151610313565b5f80fd5b3d91506103ab565b6040513d5f823e3d90fd5b90506020813d60201161040b575b816103fc6020938361283f565b810103126103ca57515f6102d0565b3d91506103ef565b346103ca5760203660031901126103ca5761042c612765565b6104346130c0565b601080546001600160a01b0319166001600160a01b0392909216919091179055005b346103ca5760203660031901126103ca57600435600d548110156103ca57600d548110156104ba57600d5f527fd7b6990105719101dabeb77144f2a3385c8033acd3af97e9423a695e81ad1eb501546040516001600160a01b039091168152602090f35b634e487b7160e01b5f52603260045260245ffd5b346103ca575f3660031901126103ca5760206040517f5d8e12c39142ff96d79d04d15d1ba1269e4fe57bb9d26f43523628b34ba108ec8152f35b346103ca575f3660031901126103ca576020600654604051908152f35b346103ca5760203660031901126103ca5761053e6130c0565b600435600a55005b346103ca5760403660031901126103ca5761058860043561056561277b565b9061058361057e825f525f602052600160405f20015490565b61310f565b61318f565b005b346103ca575f3660031901126103ca576020600754604051908152f35b346103ca5760203660031901126103ca576105c0612765565b6105c86130c0565b600e80546001600160a01b0319166001600160a01b0392909216919091179055005b346103ca5760203660031901126103ca577fcfa33021ab0175831433b2f3bd8eeb24a22f5ae53ca0e660a246811754f9e34a60206004356106296130c0565b80600655604051908152a1005b346103ca5760203660031901126103ca576004356008548110156103ca576008548110156104ba5760085f527ff3f7a9fe364faab93b216da50a3214154f22a0a2b415b23a84c8169e8b636ee301546040516001600160a01b039091168152602090f35b346103ca5761071a6106ab366128df565b600c546106be60ff8260a01c1615612b3d565b60ff60a01b1916600160a01b17600c555f828152600b6020526040902060050154336001600160a01b0391909116148015610729575b6106fd90612b7a565b604051916107158361070e816129ac565b038461283f565b6138cc565b600c805460ff60a01b19169055005b50335f9081527f20be27040b8e00df40bca0df34743417f3574a156386188f7d7f14369e5ee82b602052604090205460ff166106f4565b346103ca575f3660031901126103ca5760206040515f8152f35b346103ca576101003660031901126103ca576004356001600160401b0381116103ca576107ab90369060040161292e565b6024356001600160401b0381116103ca576107ca90369060040161292e565b906044356001600160401b0381116103ca576107ea90369060040161292e565b906064356001600160401b0381116103ca5761080a903690600401612877565b926108136127d3565b60c43563ffffffff81168091036103ca5761082c61320f565b6009546040516370a0823160e01b81523360048201526001600160a01b0390911690602081602481855afa9081156103d6575f91610e04575b5061087560065480921015612f2f565b604051636eb1769f60e11b815233600482015230602482015291602083604481845afa9283156103d6575f93610dce575b506108b6826108cb941015612ce8565b6108c289511515612d3f565b30903390614e61565b600154946108d886612f7b565b600155600654604051956108eb87612823565b8652602086019485526040860191825260608601905f82526080870190815260a0870133815260c08801998a5260e08801914383526101008901935f85526101208a019560843587526101408b019860018060a01b031689526101608b019788526101808b019960e4358b528c5f52600b60205260405f209b5180516001600160401b038111610c725761098a818f6109848154612974565b90612b03565b60208e6001601f841114610d6b575081906109ba935f92610c9a575b50508160011b915f199060031b1c19161790565b8c555b51805160018d01916001600160401b038211610c72576109e7826109e18554612974565b85612b03565b602090601f8311600114610d0857610a1592915f9183610c9a5750508160011b915f199060031b1c19161790565b90555b51805160028c01916001600160401b038211610c7257610a3c826109e18554612974565b602090601f8311600114610ca557610a6a92915f9183610c9a5750508160011b915f199060031b1c19161790565b90555b516003811015610c8657610a849060038b01612c01565b516004890155516005880180546001600160a01b0319166001600160a01b0392909216919091179055975180516006880199916001600160401b038211610c7257600160401b8211610c72576020908b54838d55808410610c28575b5001995f5260205f208160051c915f5b838110610be15750601f198116900380610b90575b835160078b0155845160088b0155855160098b01558751600a8b018054895163ffffffff60a01b60a09190911b166001600160a01b039093166001600160c01b0319909116179190911790558851600b8b01556040518b81526020908c907f0ff47c4a3dc48719ecfd1876116e80d7d76ec7cb67248ae49449f9104747af29908390a1604051908152f35b9a5f9b5f5b818110610bb0575050500198909855602097600b8a80610b05565b90919c6020610bd78f928460ff6001955116919060ff809160031b9316831b921b19161790565b9e01929101610b95565b5f805b60208110610bf9575083820155600101610af0565b9d9060208f600192610c1f9160ff865116919060ff809160031b9316831b921b19161790565b92019e01610be4565b610c52908d5f52835f20601f80870160051c82019281881680610c58575b500160051c0190612aed565b8c610ae0565b5f198501908154905f19908a0360031b1c1690555f610c46565b634e487b7160e01b5f52604160045260245ffd5b634e487b7160e01b5f52602160045260245ffd5b015190505f806109a6565b90601f19831691845f52815f20925f5b818110610cf05750908460019594939210610cd8575b505050811b019055610a6d565b01515f1960f88460031b161c191690558f8080610ccb565b92936020600181928786015181550195019301610cb5565b90601f19831691845f52815f20925f5b818110610d535750908460019594939210610d3b575b505050811b019055610a18565b01515f1960f88460031b161c191690555f8080610d2e565b92936020600181928786015181550195019301610d18565b9192601f198416925f52815f20925f5b818110610db65750908460019594939210610d9e575b505050811b018c556109bd565b01515f1960f88460031b161c191690555f8080610d91565b92936020600181928786015181550195019301610d7b565b92506020833d602011610dfc575b81610de96020938361283f565b810103126103ca579151916108b66108a6565b3d9150610ddc565b90506020813d602011610e2e575b81610e1f6020938361283f565b810103126103ca575188610865565b3d9150610e12565b346103ca5760203660031901126103ca57610e4f612765565b610e576130c0565b601180546001600160a01b0319166001600160a01b0392909216919091179055005b346103ca575f3660031901126103ca576003546040516001600160a01b039091168152602090f35b346103ca575f3660031901126103ca57600f546040516001600160a01b039091168152602090f35b346103ca5760603660031901126103ca57610ee2612765565b610eea61277b565b90610ef3612791565b90610efc6130c0565b600280546001600160a01b03199081166001600160a01b039384161790915560038054821693831693909317909255600f80549092169216919091179055005b346103ca5760403660031901126103ca57610f5561277b565b6004355f525f60205260405f209060018060a01b03165f52602052602060ff60405f2054166040519015158152f35b346103ca575f3660031901126103ca57610f9c6130c0565b610fa461320f565b600160ff195f8051602061502c8339815191525416175f8051602061502c833981519152557f62e78cea01bee320cd4e420270b5ea74000d11b0c9f74754ebdbfc544b05a2586020604051338152a1005b346103ca5760203660031901126103ca5761100e612765565b6110166130c0565b600c80546001600160a01b0319166001600160a01b0392909216919091179055005b346103ca5760203660031901126103ca576004356007548110156103ca576007548110156104ba5760075f527fa66cc928b5edb82af9bd49922954155ab7b0942694bea4ce44661d9a8736c68801546040516001600160a01b039091168152602090f35b346103ca5760803660031901126103ca576004356024356044356110be6127a7565b916110c76130c0565b61271084111580611289575b8061127d575b15611243576040519360208501526040840152606083015260018060a01b031660808201526080815261110d60a08261283f565b80516001600160401b038111610c7257611128601354612974565b601f81116111ea575b50602091601f821160011461116f5761115f925f91836111645750508160011b915f199060031b1c19161790565b601355005b0151905083806109a6565b601f1982169260135f527f66de8ffda797e3de9c05e8fc57b3bf0ec28a930d40b0d285d93c06501cf6a090915f5b8581106111d2575083600195106111ba575b505050811b01601355005b01515f1960f88460031b161c191690558280806111af565b9192602060018192868501518155019401920161119d565b60135f52611233907f66de8ffda797e3de9c05e8fc57b3bf0ec28a930d40b0d285d93c06501cf6a090601f840160051c81019160208510611239575b601f0160051c0190612aed565b82611131565b9091508190611226565b60405162461bcd60e51b8152602060048201526012602482015271496e76616c69642074617820706172616d7360701b6044820152606490fd5b506127108211156110d9565b506127108111156110d3565b346103ca575f3660031901126103ca57602060ff5f8051602061502c83398151915254166040519015158152f35b346103ca576112d1366128df565b90600c546112e560ff8260a01c1615612b3d565b60ff60a01b1916600160a01b17600c555f818152600b6020526040902060050154336001600160a01b039190911614801561139a575b61132490612b7a565b5f818152601560205260409020546001600160a01b0316156113555761071a91604051916107158361070e816129ac565b60405162461bcd60e51b815260206004820152601c60248201527f4e6f7420637573746f6d20746f6b656e206170706c69636174696f6e000000006044820152606490fd5b50335f9081527f20be27040b8e00df40bca0df34743417f3574a156386188f7d7f14369e5ee82b602052604090205460ff1661131b565b346103ca575f3660031901126103ca576004546040516001600160a01b039091168152602090f35b346103ca575f3660031901126103ca576005546040516001600160a01b039091168152602090f35b346103ca5760203660031901126103ca57602061144461143f612765565b612de6565b6040519015158152f35b346103ca575f3660031901126103ca576114666130c0565b5f8051602061502c8339815191525460ff8116156114bd5760ff19165f8051602061502c833981519152557f5db9ee0a495bf2e6ff9c91a7834c1ba4fdd244a5e8aa4e537bd38aeae4b073aa6020604051338152a1005b638dfc202b60e01b5f5260045ffd5b346103ca576101003660031901126103ca576114e6612765565b6114ee61277b565b906044356001600160401b0381116103ca5761150e903690600401612877565b916115176127bd565b60a4359063ffffffff821682036103ca576115306127e9565b9361153961320f565b335f9081527fbba426faf2fa6c605fcea7d37b66adcb48511335be947cead39bb99304ad6d59602052604090205460ff1615611692576001600160a01b0384165f818152601460205260409020546115919015612c19565b61159d61028986612de6565b6009546001600160a01b0316906115b690821415612c9c565b604051636eb1769f60e11b81526001600160a01b038316600482015230602482015290602090829060449082905afa9081156103d6575f91611653575b509060209661160c611625969594936006541115612ce8565b61161881511515612d3f565b60c4359460643592613236565b90815f526016835260405f209060018060a01b03166001600160601b0360a01b825416179055604051908152f35b9493929190506020853d60201161168a575b816116726020938361283f565b810103126103ca5793519293919290919060206115f3565b3d9150611665565b63e2517d3f60e01b5f52336004527f65aa5eac1b32fde55d4db583460221274367300ae805596cf543907b5d458c0060245260445ffd5b346103ca5760403660031901126103ca576116e261277b565b336001600160a01b038216036116fe576105889060043561318f565b63334bd91960e11b5f5260045ffd5b346103ca575f3660031901126103ca576002546040516001600160a01b039091168152602090f35b346103ca5760403660031901126103ca5761058860043561175461277b565b9061176d61057e825f525f602052600160405f20015490565b613038565b346103ca5760203660031901126103ca57600435600c5461179960ff8260a01c1615612b3d565b60ff60a01b1916600160a01b17600c555f818152600b60205260409020600581018054909190336001600160a01b0391909116148015611950575b6117dd90612b7a565b6003810160ff8154166003811015610c86576117f99015612bb5565b600782015443111561190b5760049190910180545f909155815460ff1916600217909155600954825461183992916001600160a01b039182169116613147565b5f828152601560205260409020546001600160a01b0316908161186557600c805460ff60a01b19169055005b546040516370a0823160e01b8152306004820152906001600160a01b0316602082602481865afa9081156103d6575f916118d5575b6118a5925083613147565b5f5260146020525f60408120555f52601560205260405f206001600160601b0360a01b815416905580808061071a565b90506020823d602011611903575b816118f06020938361283f565b810103126103ca576118a591519061189a565b3d91506118e3565b60405162461bcd60e51b815260206004820152601e60248201527f4170706c69636174696f6e206973206e6f74206d6174757265642079657400006044820152606490fd5b50335f9081527f20be27040b8e00df40bca0df34743417f3574a156386188f7d7f14369e5ee82b602052604090205460ff166117d4565b346103ca5760e03660031901126103ca5760043560c4356001600160a01b0381169060443590602435908390036103ca576119c06130c0565b836119cb8383612acc565b11611b305760405193602085015260408401526060830152606435608083015260843560a083015260a43560c083015260e082015260e08152611a106101008261283f565b80516001600160401b038111610c7257611a2b601254612974565b601f8111611ae2575b50602091601f8211600114611a6757611a62925f91836111645750508160011b915f199060031b1c19161790565b601255005b601f1982169260125f527fbb8a6a4669ba250d26cd7a459eca9d215f8307e33aebe50379bc5a3617ec3444915f5b858110611aca57508360019510611ab2575b505050811b01601255005b01515f1960f88460031b161c19169055828080611aa7565b91926020600181928685015181550194019201611a95565b60125f52611b2a907fbb8a6a4669ba250d26cd7a459eca9d215f8307e33aebe50379bc5a3617ec3444601f840160051c8101916020851061123957601f0160051c0190612aed565b82611a34565b60405162461bcd60e51b815260206004820152600e60248201526d496e76616c696420737570706c7960901b6044820152606490fd5b346103ca5760203660031901126103ca57611b7f612765565b611b876130c0565b600980546001600160a01b0319166001600160a01b0392909216919091179055005b346103ca5760203660031901126103ca5760206103526004355f525f602052600160405f20015490565b346103ca5760203660031901126103ca575f610180604051611bf481612823565b6060815260606020820152606060408201528260608201528260808201528260a0820152606060c08201528260e08201528261010082015282610120820152826101408201528261016082015201526004355f52600b60205260405f20604051611c5d81612823565b604051611c7581611c6e8186612a4b565b038261283f565b815260405191611c8c8361070e8160018501612a4b565b6020820192835260405192611caf84611ca88160028601612a4b565b038561283f565b6040830193845260ff6003830154169160608401926003811015610c8657835260048101546080850190815260058201546001600160a01b031660a086019081526040516006840180548083525f9182526020808320849391840192905b81601f840110612256575491818110612242575b81811061222b575b818110612214575b8181106121fd575b8181106121e7575b8181106121d0575b8181106121b9575b8181106121a2575b81811061218b575b818110612174575b81811061215d575b818110612146575b81811061212f575b818110612118575b818110612101575b8181106120ea575b8181106120d3575b8181106120bc575b8181106120a5575b81811061208e575b818110612077575b818110612060575b818110612049575b818110612032575b81811061201b575b818110612004575b818110611fed575b818110611fd6575b818110611fbf575b818110611fa8575b818110611f91575b10611f83575b5003611e23908261283f565b60c0870190815260078401549060e0880191825260088501549261010089019384526009860154946101208a01958652600a8701549a6101408b0197600160a01b600190038d1689526101608c019c60a01c63ffffffff168d52600b0154986101808c01998a526040519b60208d525160208d016101a090526101c08d01611eaa916127ff565b90518c8203601f190160408e0152611ec291906127ff565b90518b8203601f190160608d0152611eda91906127ff565b98516003811015610c865760808b01525160a08a0152516001600160a01b031660c089015251878703601f190160e08901528051808852602097880197909101905f5b818110611f6a5750509051610100880152505161012086015251610140850152516001600160a01b0316610160840152925163ffffffff1661018083015291516101a08201529081900390f35b825160ff16895260209889019890920191600101611f1d565b60f81c81526020018a611e17565b92602060019160ff8560f01c168152019301611e11565b92602060019160ff8560e81c168152019301611e09565b92602060019160ff8560e01c168152019301611e01565b92602060019160ff8560d81c168152019301611df9565b92602060019160ff8560d01c168152019301611df1565b92602060019160ff8560c81c168152019301611de9565b92602060019160ff8560c01c168152019301611de1565b92602060019160ff8560b81c168152019301611dd9565b92602060019160ff8560b01c168152019301611dd1565b92602060019160ff8560a81c168152019301611dc9565b92602060019160ff8560a01c168152019301611dc1565b92602060019160ff8560981c168152019301611db9565b92602060019160ff8560901c168152019301611db1565b92602060019160ff8560881c168152019301611da9565b92602060019160ff8560801c168152019301611da1565b92602060019160ff8560781c168152019301611d99565b92602060019160ff8560701c168152019301611d91565b92602060019160ff8560681c168152019301611d89565b92602060019160ff8560601c168152019301611d81565b92602060019160ff8560581c168152019301611d79565b92602060019160ff8560501c168152019301611d71565b92602060019160ff8560481c168152019301611d69565b92602060019160ff8560401c168152019301611d61565b92602060019160ff8560381c168152019301611d59565b92602060019160ff8560301c168152019301611d51565b92602060019160ff8560281c168152019301611d49565b92602060019160ff85831c168152019301611d41565b92602060019160ff8560181c168152019301611d39565b92602060019160ff8560101c168152019301611d31565b92602060019160ff8560081c168152019301611d29565b92602060019160ff85168152019301611d21565b935090916001610400602092865460ff8116825260ff8160081c168583015260ff8160101c16604083015260ff8160181c16606083015260ff81861c16608083015260ff8160281c1660a083015260ff8160301c1660c083015260ff8160381c1660e083015260ff8160401c1661010083015260ff8160481c1661012083015260ff8160501c1661014083015260ff8160581c1661016083015260ff8160601c1661018083015260ff8160681c166101a083015260ff8160701c166101c083015260ff8160781c166101e083015260ff8160801c1661020083015260ff8160881c1661022083015260ff8160901c1661024083015260ff8160981c1661026083015260ff8160a01c1661028083015260ff8160a81c166102a083015260ff8160b01c166102c083015260ff8160b81c166102e083015260ff8160c01c1661030083015260ff8160c81c1661032083015260ff8160d01c1661034083015260ff8160d81c1661036083015260ff8160e01c1661038083015260ff8160e81c166103a083015260ff8160f01c166103c083015260f81c6103e0820152019401920190849392611d0d565b346103ca575f3660031901126103ca576009546040516001600160a01b039091168152602090f35b346103ca575f3660031901126103ca5760206040517f65aa5eac1b32fde55d4db583460221274367300ae805596cf543907b5d458c008152f35b346103ca576101203660031901126103ca5761247a612765565b61248261277b565b61248a612791565b6124926127a7565b61249a6127bd565b6124a26127d3565b926124ab6127e9565b945f8051602061504c833981519152549660ff8860401c1615976001600160401b038116801590816126c5575b60011490816126bb575b1590816126b2575b506126a35767ffffffffffffffff1981166001175f8051602061504c8339815191525588612677575b5061251c614ea5565b612524614ea5565b60ff195f8051602061502c83398151915254165f8051602061502c8339815191525560018060a01b03166001600160601b0360a01b600254161760025560018060a01b03166001600160601b0360a01b600f541617600f5560018060a01b03166001600160601b0360a01b600354161760035560018060a01b03166001600160601b0360a01b600954161760095560018060a01b03166001600160601b0360a01b600554161760055560018060a01b03166001600160601b0360a01b600454161760045560c435600655610104356001556125fe33612f89565b5060018060a01b03166001600160601b0360a01b600c541617600c5561262057005b68ff0000000000000000195f8051602061504c83398151915254165f8051602061504c833981519152557fc7f505b2f371ae2175ee4913f4499e1f2633a7b5936321eed1cdaeb6115181d2602060405160018152a1005b68ffffffffffffffffff191668010000000000000001175f8051602061504c8339815191525588612513565b63f92ee8a960e01b5f5260045ffd5b9050158a6124ea565b303b1591506124e2565b8a91506124d8565b346103ca575f3660031901126103ca576011546040516001600160a01b039091168152602090f35b346103ca575f3660031901126103ca576020600a54604051908152f35b346103ca5760203660031901126103ca576004359063ffffffff60e01b82168092036103ca57602091637965db0b60e01b8114908115612754575b5015158152f35b6301ffc9a760e01b1490508361274d565b600435906001600160a01b03821682036103ca57565b602435906001600160a01b03821682036103ca57565b604435906001600160a01b03821682036103ca57565b606435906001600160a01b03821682036103ca57565b608435906001600160a01b03821682036103ca57565b60a435906001600160a01b03821682036103ca57565b60e435906001600160a01b03821682036103ca57565b805180835260209291819084018484015e5f828201840152601f01601f1916010190565b6101a081019081106001600160401b03821117610c7257604052565b90601f801991011681019081106001600160401b03821117610c7257604052565b6001600160401b038111610c725760051b60200190565b9080601f830112156103ca5781359061288f82612860565b9261289d604051948561283f565b82845260208085019360051b8201019182116103ca57602001915b8183106128c55750505090565b823560ff811681036103ca578152602092830192016128b8565b60409060031901126103ca576004359060243580151581036103ca5790565b80548210156104ba575f5260205f2001905f90565b6001600160401b038111610c7257601f01601f191660200190565b81601f820112156103ca5780359061294582612913565b92612953604051948561283f565b828452602083830101116103ca57815f926020809301838601378301015290565b90600182811c921680156129a2575b602083101461298e57565b634e487b7160e01b5f52602260045260245ffd5b91607f1691612983565b6012545f92916129bb82612974565b8082529160018116908115612a2f57506001146129d6575050565b60125f9081529293509091907fbb8a6a4669ba250d26cd7a459eca9d215f8307e33aebe50379bc5a3617ec34445b838310612a15575060209250010190565b600181602092949394548385870101520191019190612a04565b9050602093945060ff929192191683830152151560051b010190565b5f9291815491612a5a83612974565b8083529260018116908115612aaf5750600114612a7657505050565b5f9081526020812093945091925b838310612a95575060209250010190565b600181602092949394548385870101520191019190612a84565b915050602093945060ff929192191683830152151560051b010190565b91908201809211612ad957565b634e487b7160e01b5f52601160045260245ffd5b818110612af8575050565b5f8155600101612aed565b9190601f8111612b1257505050565b612b3b925f5260205f20906020601f840160051c8301931061123957601f0160051c0190612aed565b565b15612b4457565b60405162461bcd60e51b815260206004820152600e60248201526d31b0b73737ba103932b2b73a32b960911b6044820152606490fd5b15612b8157565b60405162461bcd60e51b815260206004820152600c60248201526b2737ba10383937b837b9b2b960a11b6044820152606490fd5b15612bbc57565b60405162461bcd60e51b815260206004820152601960248201527f4170706c69636174696f6e206973206e6f7420616374697665000000000000006044820152606490fd5b906003811015610c865760ff80198354169116179055565b15612c2057565b60405162461bcd60e51b8152602060048201526014602482015273546f6b656e20616c72656164792065786973747360601b6044820152606490fd5b15612c6357565b60405162461bcd60e51b81526020600482015260116024820152702ab739bab83837b93a32b2103a37b5b2b760791b6044820152606490fd5b15612ca357565b60405162461bcd60e51b815260206004820152601a60248201527f417373657420746f6b656e2063616e6e6f7420626520757365640000000000006044820152606490fd5b15612cef57565b60405162461bcd60e51b815260206004820152602260248201527f496e73756666696369656e7420617373657420746f6b656e20616c6c6f77616e604482015261636560f01b6064820152608490fd5b15612d4657565b60405162461bcd60e51b815260206004820152601660248201527510dbdc995cc81b5d5cdd081899481c1c9bdd9a59195960521b6044820152606490fd5b6020818303126103ca578051906001600160401b0382116103ca570181601f820112156103ca57805190612db782612913565b92612dc5604051948561283f565b828452602083830101116103ca57815f9260208093018386015e8301015290565b6040516306fdde0360e01b81526001600160a01b0391909116905f81600481855afa9081612f17575b50612e1957505f90565b6040516395d89b4160e01b81525f81600481855afa9081612ef7575b50612e3f57505f90565b6040516318160ddd60e01b8152602081600481855afa9081612ec8575b50612e6657505f90565b6020602491604051928380926370a0823160e01b82523060048301525afa9081612e99575b50612e94575f90565b600190565b6020813d602011612ec0575b81612eb26020938361283f565b810103126103ca5751612e8b565b3d9150612ea5565b6020813d602011612eef575b81612ee16020938361283f565b810103126103ca5751612e5c565b3d9150612ed4565b612f12903d805f833e612f0a818361283f565b810190612d84565b612e35565b612f2a903d805f833e612f0a818361283f565b612e0f565b15612f3657565b60405162461bcd60e51b815260206004820152601860248201527f496e73756666696369656e7420617373657420746f6b656e00000000000000006044820152606490fd5b5f198114612ad95760010190565b6001600160a01b0381165f9081527fad3228b676f7d3cd4284a5443f17f1962b36e491b30a40b2405849e597ba5fb5602052604090205460ff16613033576001600160a01b03165f8181527fad3228b676f7d3cd4284a5443f17f1962b36e491b30a40b2405849e597ba5fb560205260408120805460ff191660011790553391907f2f8788117e7eff1d82e926ec794901d17c78024a50270940304540a733656f0d8180a4600190565b505f90565b5f818152602081815260408083206001600160a01b038616845290915290205460ff166130ba575f818152602081815260408083206001600160a01b0395909516808452949091528120805460ff19166001179055339291907f2f8788117e7eff1d82e926ec794901d17c78024a50270940304540a733656f0d9080a4600190565b50505f90565b335f9081527fad3228b676f7d3cd4284a5443f17f1962b36e491b30a40b2405849e597ba5fb5602052604090205460ff16156130f857565b63e2517d3f60e01b5f52336004525f60245260445ffd5b5f8181526020818152604080832033845290915290205460ff16156131315750565b63e2517d3f60e01b5f523360045260245260445ffd5b60405163a9059cbb60e01b60208201526001600160a01b0390921660248301526044820192909252612b3b9161318a82606481015b03601f19810184528361283f565b614ed0565b5f818152602081815260408083206001600160a01b038616845290915290205460ff16156130ba575f818152602081815260408083206001600160a01b0395909516808452949091528120805460ff19169055339291907ff6391f5c32d9c69d2a47ea670b442974b53935d1edc7fd64eb21e047a839171b9080a4600190565b60ff5f8051602061502c833981519152541661322757565b63d93c066560e01b5f5260045ffd5b60095460065492979196949594919261325b91309089906001600160a01b0316614e61565b6001549661326888612f7b565b6001556001600160a01b03165f8181526014602090815260408083208b90558a8352601590915280822080546001600160a01b03191684179055516306fdde0360e01b8152969195919087600481895afa9586156103d6576004975f97613818575b505f90604051988980926395d89b4160e01b82525afa9687156103d6575f976137f2575b509063ffffffff9291600654986040519761330889612823565b8852602088019889526020996040516133218c8261283f565b5f815260408a01525f60608a0152608089015260018060a01b031660a088015260c087019586524360e08801525f61010088015261012087015260018060a01b031661014086015216610160840152610180830152845f52600b845260405f209282518051906001600160401b038211610c72576133a9826133a38854612974565b88612b03565b8690601f831160011461378b576133d692915f9183610c9a5750508160011b915f199060031b1c19161790565b84555b518051906001600160401b038211610c7257613405826133fc6001880154612974565b60018801612b03565b8590601f831160011461371e5761343292915f9183610c9a5750508160011b915f199060031b1c19161790565b60018401555b60408201518051906001600160401b038211610c72576134688261345f6002880154612974565b60028801612b03565b8590601f83116001146136b15761349592915f9183610c9a5750508160011b915f199060031b1c19161790565b60028401555b60608201516003811015610c86576134b69060038501612c01565b6080820151600484015560a08201516005840180546001600160a01b0319166001600160a01b039290921691909117905551805160068401916001600160401b038211610c7257600160401b8211610c725785908354838555808410613682575b5001915f52845f20905f5b8160051c81106136445750601f1981168103806135d5575b5050505060e0810151600783015561010081015160088301556101208101516009830155610140810151600a8301805461016084015163ffffffff60a01b60a09190911b166001600160a01b039093166001600160c01b0319909116179190911790556101800151600b909101556040518281527f0ff47c4a3dc48719ecfd1876116e80d7d76ec7cb67248ae49449f9104747af299190a190565b925f935f5b8181106136155750505060051c0155600b6101807f0ff47c4a3dc48719ecfd1876116e80d7d76ec7cb67248ae49449f9104747af295f61353a565b9091948861363a6001928460ff8a5116919060ff809160031b9316831b921b19161790565b96019291016135da565b5f805b8880821061365d57505083820155600101613522565b865191969260019260ff60038a901b81811b19909316911690911b1792019501613647565b6136ab90855f52835f20601f80870160051c82019281881680610c5857500160051c0190612aed565b5f613517565b9190600286015f52865f20905f935b88601f198516861061370557506001945083601f198116106136ed575b505050811b01600284015561349b565b01515f1960f88460031b161c191690555f80806136dd565b82820151845594850194600190930192909101906136c0565b9190600186015f52865f20905f935b88601f198516861061377257506001945083601f1981161061375a575b505050811b016001840155613438565b01515f1960f88460031b161c191690555f808061374a565b828201518455948501946001909301929091019061372d565b9190865f52875f20905f935b89601f19851686106137d957506001945083601f198116106137c1575b505050811b0184556133d9565b01515f1960f88460031b161c191690555f80806137b4565b8282015184559485019460019093019290910190613797565b63ffffffff939291975061380f903d805f833e612f0a818361283f565b969091926132ee565b5f91975061382f903d8084833e612f0a818361283f565b96906132ca565b51906001600160a01b03821682036103ca57565b5f929181549161385983612974565b92600181169081156138a1575060011461387257505050565b90919293505f5260205f205f905b83821061388d5750500190565b600181602092548486015201910190613880565b60ff191683525050811515909102019150565b908160209103126103ca575180151581036103ca5790565b9092915f93825f52600b60205260ff600360405f200154166003811015610c86576138f79015612bb5565b6010546001600160a01b031615614e26575f838152600b602090815260408083206004810180549085905560038201805460ff191660011790556015909352922054909691906001600160a01b03168061498c575060405161395d81611c6e8185612a4b565b60405161397181611c6e8160018701612a4b565b600254613986906001600160a01b0316614f6a565b9560018060a01b038716926040519260608401918483106001600160401b03841117610c7257613a10613a1e926139fe9460405260018060a01b0360105416875260018060a01b03600e5416602088015260018060a01b036009541660408801526040519485936040602086015260608501906127ff565b838103601f19016040850152906127ff565b03601f19810183528261283f565b833b156103ca57604051634258efa960e11b8152925f600485015b6003821061496c5750505090613a5d613a6f9260c0606486015260c48501906127ff565b838103600319016084850152906127ff565b6003198282030160a4830152815f9160135490613a8b82612974565b808252916001811690811561494c57506001146148eb575b5050805f92038183865af180156103d6576148d6575b50600d54600160401b8110156148c257806001613adb9201600d55600d6128fe565b81546001600160a01b0360039290921b91821b19169083901b17905560405163d6efd7c360e01b8152949788958481600481865afa9081156148b7578591614817575b5080511561480357602001516009546001600160a01b0391821697613b469392909116613147565b803b1561425c57828091602460405180948193631672aef960e21b83523060048401525af1801561420f579083916147ee575b50505b60405166029ba30b5b2b2160cd1b6020820152613ba081613a10602782018561384a565b60405190607360f81b6020830152613bc28261317c602182016001870161384a565b6005830154600f546001600160a01b039182169190613be2908216614f6a565b1695613bf0600a5442612acc565b6004546001600160a01b031690883b156147ea5791613c339391889593613c45604051988997889763b2193b4d60e01b895260e060048a015260e48901906127ff565b878103600319016024890152906127ff565b60448601949094526001600160a01b038c166064860152608485015260a4840152151560c4830152038183885af1801561420f579083916147d1575b5050600754600160401b8110156147bd57806001613ca4920160075560076128fe565b81546001600160a01b0360039290921b91821b19169085901b17905560405191613cf0600484613cd7602082018661384a565b632044414f60e01b815203601b1981018652018461283f565b600a820154600b83015460035460a09290921c63ffffffff169490916001600160a01b0390613d20908216614f6a565b169460018060a01b036004541690863b156147b95791613d5f9185936040519586948594631c63df3560e21b865260a0600487015260a48601906127ff565b928b6024860152604485015260648401526084830152038183885af180156141cc579082916147a4575b5050600854600160401b81101561479057806001613dac920160085560086128fe565b81546001600160a01b0360039290921b82811b199091169086901b1790915560048054604051632fd77c0d60e11b8152989216939190602090899081875afa97881561420f57839861475c575b50600c546005830154604051631f889aa560e11b8152600481018b90526001600160a01b03928316602482015261010060448201529b9116948b91613e45610104840160028701612a4b565b9688606485015260848401526003198388030160a484015260206006860154978881520196600686018752602087209087915b81601f8401106145b057549181811061459c575b818110614585575b81811061456e575b818110614557575b818110614541575b81811061452a575b818110614513575b8181106144fc575b8181106144e5575b8181106144ce575b8181106144b7575b8181106144a0575b818110614489575b818110614472575b81811061445b575b818110614444575b81811061442d575b818110614416575b8181106143ff575b8181106143e8575b8181106143d1575b8181106143ba575b8181106143a3575b81811061438c575b818110614375575b81811061435e575b818110614347575b818110614330575b818110614319575b818110614302575b8181106142eb575b106142da575b506001600160a01b03808b1660c48501521660e4830181905295602092919082900390829087905af1998a1561420f5788999a8499979899506142a7575b5060088201869055600554600a830154600984015460048054604051638a54c52f60e01b81526001600160a01b0394851692810192909252602482019290925246604482015290821660648201526084810198909852602091889160a49183918891165af195861561420f57839661426b575b506004546001600160a01b031695863b156141d75760405163190b373360e31b8152600481018b90526001600160a01b03909116602482018190529684908290604490829084905af1801561426057908491614247575b5052601660205260408220546001600160a01b0316156140f9575b5050604080519687526020870191909152850152606084015260808301526001600160a01b031660a08201527ff9d151d23a5253296eb20ab40959cf48828ea2732d337416716e302ed83ca6589060c090a1565b60405163095ea7b360e01b8152600481018790525f196024820152602081604481866001600160a01b038d165af1801561420f5761421a575b506040516370a0823160e01b8152306004820152906020826024816001600160a01b038c165afa91821561420f5783926141db575b50600501546011546001600160a01b039081169116873b156141d7576040519263a7d545db60e01b84526004840152602483015260448201528181606481838a5af180156141cc57156140a5576141bf82809261283f565b6141c957806140a5565b80fd5b6040513d84823e3d90fd5b8380fd5b9091506020813d602011614207575b816141f76020938361283f565b810103126103ca5751905f614167565b3d91506141ea565b6040513d85823e3d90fd5b61423b9060203d602011614240575b614233818361283f565b8101906138b4565b614132565b503d614229565b816142519161283f565b61425c57825f61408a565b8280fd5b6040513d86823e3d90fd5b9095506020813d60201161429f575b816142876020938361283f565b8101031261425c5761429890613836565b945f614033565b3d915061427a565b95506020863d6020116142d2575b816142c26020938361283f565b810103126103ca57889551613fc0565b3d91506142b5565b60f81c875260209096019582613f82565b98602060019160ff8560f01c168152019901613f7c565b98602060019160ff8560e81c168152019901613f74565b98602060019160ff8560e01c168152019901613f6c565b98602060019160ff8560d81c168152019901613f64565b98602060019160ff8560d01c168152019901613f5c565b98602060019160ff8560c81c168152019901613f54565b98602060019160ff8560c01c168152019901613f4c565b98602060019160ff8560b81c168152019901613f44565b98602060019160ff8560b01c168152019901613f3c565b98602060019160ff8560a81c168152019901613f34565b98602060019160ff8560a01c168152019901613f2c565b98602060019160ff8560981c168152019901613f24565b98602060019160ff8560901c168152019901613f1c565b98602060019160ff8560881c168152019901613f14565b98602060019160ff8560801c168152019901613f0c565b98602060019160ff8560781c168152019901613f04565b98602060019160ff8560701c168152019901613efc565b98602060019160ff8560681c168152019901613ef4565b98602060019160ff8560601c168152019901613eec565b98602060019160ff8560581c168152019901613ee4565b98602060019160ff8560501c168152019901613edc565b98602060019160ff8560481c168152019901613ed4565b98602060019160ff8560401c168152019901613ecc565b98602060019160ff8560381c168152019901613ec4565b98602060019160ff8560301c168152019901613ebc565b98602060019160ff8560281c168152019901613eb4565b98602060019160ff85831c168152019901613eac565b98602060019160ff8560181c168152019901613ea4565b98602060019160ff8560101c168152019901613e9c565b98602060019160ff8560081c168152019901613e94565b98602060019160ff85168152019901613e8c565b9860209192939495506104006001918b5460ff8116825260ff8160081c168583015260ff8160101c16604083015260ff8160181c16606083015260ff81861c16608083015260ff8160281c1660a083015260ff8160301c1660c083015260ff8160381c1660e083015260ff8160401c1661010083015260ff8160481c1661012083015260ff8160501c1661014083015260ff8160581c1661016083015260ff8160601c1661018083015260ff8160681c166101a083015260ff8160701c166101c083015260ff8160781c166101e083015260ff8160801c1661020083015260ff8160881c1661022083015260ff8160901c1661024083015260ff8160981c1661026083015260ff8160a01c1661028083015260ff8160a81c166102a083015260ff8160b01c166102c083015260ff8160b81c166102e083015260ff8160c01c1661030083015260ff8160c81c1661032083015260ff8160d01c1661034083015260ff8160d81c1661036083015260ff8160e01c1661038083015260ff8160e81c166103a083015260ff8160f01c166103c083015260f81c6103e08201520199019201908e949392613e78565b9097506020813d602011614788575b816147786020938361283f565b810103126103ca5751965f613df9565b3d915061476b565b634e487b7160e01b82526041600452602482fd5b816147ae9161283f565b6141c957805f613d89565b8480fd5b634e487b7160e01b83526041600452602483fd5b816147db9161283f565b6147e657815f613c81565b5080fd5b8780fd5b816147f89161283f565b6147e657815f613b79565b634e487b7160e01b85526032600452602485fd5b90503d8086833e614828818361283f565b8101906020818303126148af578051906001600160401b0382116148b357019080601f830112156148af57815161485e81612860565b9261486c604051948561283f565b81845260208085019260051b8201019283116147ea57602001905b828210614897575050505f613b1e565b602080916148a484613836565b815201910190614887565b8580fd5b8680fd5b6040513d87823e3d90fd5b634e487b7160e01b84526041600452602484fd5b6148e39193505f9061283f565b5f915f613ab9565b60135f908152909350907f66de8ffda797e3de9c05e8fc57b3bf0ec28a930d40b0d285d93c06501cf6a0905b81831061492e575050602082915f94010192613aa3565b60209194935080600191548385870101520191019092849293614917565b5f9550602092915092849360ff191683830152151560051b010192613aa3565b82516001600160a01b031681526020928301926001929092019101613a39565b969350845f52601660205260018060a01b0360405f2054169384156149b2575b50613b7c565b600e5460405163c45a015560e01b8152919550602090829060049082906001600160a01b03165afa9081156103d6575f91614dec575b5060095460405163e6a4390560e01b81526001600160a01b038a81166004830152918216602482018190529290911690602081604481855afa9081156103d6575f91614db2575b506001600160a01b0316614d77576040516364e329cb60e11b81526001600160a01b038a81166004830152929092166024830152602090829060449082905f905af19081156103d6575f91614d3d575b509360018060a01b03600e54166040515f808b6020840163095ea7b360e01b81528560248601528219604486015260448552614abc60648661283f565b828551925af1614aca614f3b565b81614d0e575b5080614d04575b15614cbf575b5050600954600e5460405163095ea7b360e01b602082019081526001600160a01b039283166024830181905260448084018790528352939192909116905f908190614b2960648661283f565b84519082855af1614b38614f3b565b81614c90575b5080614c86575b15614c46575b5050600e546009546040516370a0823160e01b81523060048201526001600160a01b0392831693509116906020816024818e5afa9283156103d6578b915f94614c0f575b50905f6101049260609596604051978896879562e8e33760e81b875260048701526024860152604485015260648401528160848401528160a48401523060c48401524260e48401525af180156103d657156149ac57606090813d8311614c08575b614bfa818361283f565b810103126103ca575f6149ac565b503d614bf0565b915092506020813d602011614c3e575b81614c2c6020938361283f565b810103126103ca5751918a905f614b8f565b3d9150614c1f565b61318a614c7e936040519063095ea7b360e01b602083015260248201525f604482015260448152614c7860648261283f565b82614ed0565b5f8080614b4b565b50803b1515614b45565b8051801592508215614ca5575b50505f614b3e565b614cb892506020809183010191016138b4565b5f80614c9d565b614cf7614cfd926040519063095ea7b360e01b602083015260248201525f604482015260448152614cf160648261283f565b8b614ed0565b89614ed0565b5f80614add565b50893b1515614ad7565b8051801592508215614d23575b50505f614ad0565b614d3692506020809183010191016138b4565b5f80614d1b565b90506020813d602011614d6f575b81614d586020938361283f565b810103126103ca57614d6990613836565b5f614a7f565b3d9150614d4b565b60405162461bcd60e51b8152602060048201526013602482015272706f6f6c20616c72656164792065786973747360681b6044820152606490fd5b90506020813d602011614de4575b81614dcd6020938361283f565b810103126103ca57614dde90613836565b5f614a2f565b3d9150614dc0565b90506020813d602011614e1e575b81614e076020938361283f565b810103126103ca57614e1890613836565b5f6149e8565b3d9150614dfa565b60405162461bcd60e51b8152602060048201526013602482015272151bdad95b8818591b5a5b881b9bdd081cd95d606a1b6044820152606490fd5b6040516323b872dd60e01b60208201526001600160a01b039283166024820152929091166044830152606480830193909352918152612b3b9161318a60848361283f565b60ff5f8051602061504c8339815191525460401c1615614ec157565b631afcd79f60e31b5f5260045ffd5b5f80614ef89260018060a01b03169360208151910182865af1614ef1614f3b565b9083614fcd565b8051908115159182614f20575b5050614f0e5750565b635274afe760e01b5f5260045260245ffd5b614f3392506020809183010191016138b4565b155f80614f05565b3d15614f65573d90614f4c82612913565b91614f5a604051938461283f565b82523d5f602084013e565b606090565b6e5af43d82803e903d91602b57fd5bf390763d602d80600a3d3981f3363d3d373d3d3d363d7300000062ffffff8260881c16175f5260781b17602052603760095ff0906001600160a01b03821615614fbe57565b6330be1a3d60e21b5f5260045ffd5b90614ff15750805115614fe257805190602001fd5b630a12f52160e11b5f5260045ffd5b81511580615022575b615002575090565b639996b31560e01b5f9081526001600160a01b0391909116600452602490fd5b50803b15614ffa56fecd5ed15c6e187e77e9aee88184c21f4f2182ab5827cb3b7e07fbedcd63f03300f0c57e16840df040f15088dc2f81fe391c3923bec73e23a9662efc9c229c6a00a26469706673582212202e6e1146e320f1d15ab14bc8337babb3bb9c5fa25313e771e34d26771e4a981164736f6c634300081a0033","linkReferences":{}},"methodIdentifiers":{"DEFAULT_ADMIN_ROLE()":"a217fddf","OPS_ROLE()":"0f3ba023","WITHDRAW_ROLE()":"e02023a1","allDAOs(uint256)":"b4136bd8","allTokens(uint256)":"634282af","allTradingTokens(uint256)":"e887b1cc","applicationThreshold()":"ddf44275","assetToken()":"1083f761","daoImplementation()":"9d699326","defaultDelegatee()":"0c4cb55c","executeApplication(uint256,bool)":"aa3d000a","executeTokenApplication(uint256,bool)":"4c88672a","getApplication(uint256)":"1f2f4bfd","getRoleAdmin(bytes32)":"248a9ca3","grantRole(bytes32,address)":"2f2ff15d","hasRole(bytes32,address)":"91d14854","initFromToken(address,uint8[],bytes32,address,uint32,uint256,uint256)":"fc98f079","initFromTokenLP(address,address,uint8[],bytes32,address,uint32,uint256,address)":"38b0c1d5","initialize(address,address,address,address,address,address,uint256,address,uint256)":"0f07646a","isCompatibleToken(address)":"449664c0","maturityDuration()":"063513b7","nft()":"47ccca02","pause()":"8456cb59","paused()":"5c975abb","proposeAgent(string,string,string,uint8[],bytes32,address,uint32,uint256)":"9e4ec30a","renounceRole(bytes32,address)":"36568abe","revokeRole(bytes32,address)":"d547741f","setApplicationThreshold(uint256)":"bd1cf258","setAssetToken(address)":"26bde5aa","setDefaultDelegatee(address)":"9d7b6842","setImplementations(address,address,address)":"9300d238","setMaturityDuration(uint256)":"d739ac29","setTokenAdmin(address)":"f7457594","setTokenSupplyParams(uint256,uint256,uint256,uint256,uint256,uint256,address)":"2a7d4a1f","setTokenTaxParams(uint256,uint256,uint256,address)":"5ca3cedf","setUniswapRouter(address)":"bea9849e","setVault(address)":"6817031b","supportsInterface(bytes4)":"01ffc9a7","tbaRegistry()":"468d198d","tokenImplementation()":"2f3a3d5d","totalAgents()":"c5053712","unpause()":"3f4ba83a","veTokenImplementation()":"9cbe0bac","withdraw(uint256)":"2e1a7d4d"},"id":94}