{"abi":[{"type":"constructor","inputs":[],"stateMutability":"nonpayable"},{"type":"function","name":"ADMIN_ROLE","inputs":[],"outputs":[{"name":"","type":"bytes32","internalType":"bytes32"}],"stateMutability":"view"},{"type":"function","name":"DEFAULT_ADMIN_ROLE","inputs":[],"outputs":[{"name":"","type":"bytes32","internalType":"bytes32"}],"stateMutability":"view"},{"type":"function","name":"EXECUTOR_ROLE","inputs":[],"outputs":[{"name":"","type":"bytes32","internalType":"bytes32"}],"stateMutability":"view"},{"type":"function","name":"assetToken","inputs":[],"outputs":[{"name":"","type":"address","internalType":"contract IERC20"}],"stateMutability":"view"},{"type":"function","name":"bonusRate","inputs":[],"outputs":[{"name":"","type":"uint16","internalType":"uint16"}],"stateMutability":"view"},{"type":"function","name":"distributeBonus","inputs":[{"name":"agentId","type":"uint256","internalType":"uint256"},{"name":"recipient","type":"address","internalType":"address"},{"name":"amount","type":"uint256","internalType":"uint256"}],"outputs":[],"stateMutability":"nonpayable"},{"type":"function","name":"getRoleAdmin","inputs":[{"name":"role","type":"bytes32","internalType":"bytes32"}],"outputs":[{"name":"","type":"bytes32","internalType":"bytes32"}],"stateMutability":"view"},{"type":"function","name":"grantRole","inputs":[{"name":"role","type":"bytes32","internalType":"bytes32"},{"name":"account","type":"address","internalType":"address"}],"outputs":[],"stateMutability":"nonpayable"},{"type":"function","name":"hasRole","inputs":[{"name":"role","type":"bytes32","internalType":"bytes32"},{"name":"account","type":"address","internalType":"address"}],"outputs":[{"name":"","type":"bool","internalType":"bool"}],"stateMutability":"view"},{"type":"function","name":"initialize","inputs":[{"name":"defaultAdmin_","type":"address","internalType":"address"},{"name":"assetToken_","type":"address","internalType":"address"}],"outputs":[],"stateMutability":"nonpayable"},{"type":"function","name":"renounceRole","inputs":[{"name":"role","type":"bytes32","internalType":"bytes32"},{"name":"callerConfirmation","type":"address","internalType":"address"}],"outputs":[],"stateMutability":"nonpayable"},{"type":"function","name":"revokeRole","inputs":[{"name":"role","type":"bytes32","internalType":"bytes32"},{"name":"account","type":"address","internalType":"address"}],"outputs":[],"stateMutability":"nonpayable"},{"type":"function","name":"setAllowances","inputs":[{"name":"agentIds","type":"uint256[]","internalType":"uint256[]"},{"name":"allowances","type":"uint256[]","internalType":"uint256[]"}],"outputs":[],"stateMutability":"nonpayable"},{"type":"function","name":"supportsInterface","inputs":[{"name":"interfaceId","type":"bytes4","internalType":"bytes4"}],"outputs":[{"name":"","type":"bool","internalType":"bool"}],"stateMutability":"view"},{"type":"function","name":"updateBonusRate","inputs":[{"name":"bonusRate_","type":"uint16","internalType":"uint16"}],"outputs":[],"stateMutability":"nonpayable"},{"type":"event","name":"AllowanceUpdated","inputs":[{"name":"agentId","type":"uint256","indexed":false,"internalType":"uint256"},{"name":"newAllowance","type":"uint256","indexed":false,"internalType":"uint256"}],"anonymous":false},{"type":"event","name":"BonusRateUpdated","inputs":[{"name":"oldBonusRate","type":"uint16","indexed":false,"internalType":"uint16"},{"name":"newBonusRate","type":"uint16","indexed":false,"internalType":"uint16"}],"anonymous":false},{"type":"event","name":"Initialized","inputs":[{"name":"version","type":"uint64","indexed":false,"internalType":"uint64"}],"anonymous":false},{"type":"event","name":"PaidAgent","inputs":[{"name":"agentId","type":"uint256","indexed":false,"internalType":"uint256"},{"name":"amount","type":"uint256","indexed":false,"internalType":"uint256"}],"anonymous":false},{"type":"event","name":"RoleAdminChanged","inputs":[{"name":"role","type":"bytes32","indexed":true,"internalType":"bytes32"},{"name":"previousAdminRole","type":"bytes32","indexed":true,"internalType":"bytes32"},{"name":"newAdminRole","type":"bytes32","indexed":true,"internalType":"bytes32"}],"anonymous":false},{"type":"event","name":"RoleGranted","inputs":[{"name":"role","type":"bytes32","indexed":true,"internalType":"bytes32"},{"name":"account","type":"address","indexed":true,"internalType":"address"},{"name":"sender","type":"address","indexed":true,"internalType":"address"}],"anonymous":false},{"type":"event","name":"RoleRevoked","inputs":[{"name":"role","type":"bytes32","indexed":true,"internalType":"bytes32"},{"name":"account","type":"address","indexed":true,"internalType":"address"},{"name":"sender","type":"address","indexed":true,"internalType":"address"}],"anonymous":false},{"type":"error","name":"AccessControlBadConfirmation","inputs":[]},{"type":"error","name":"AccessControlUnauthorizedAccount","inputs":[{"name":"account","type":"address","internalType":"address"},{"name":"neededRole","type":"bytes32","internalType":"bytes32"}]},{"type":"error","name":"AddressEmptyCode","inputs":[{"name":"target","type":"address","internalType":"address"}]},{"type":"error","name":"AddressInsufficientBalance","inputs":[{"name":"account","type":"address","internalType":"address"}]},{"type":"error","name":"FailedInnerCall","inputs":[]},{"type":"error","name":"InvalidInitialization","inputs":[]},{"type":"error","name":"NotInitializing","inputs":[]},{"type":"error","name":"SafeERC20FailedOperation","inputs":[{"name":"token","type":"address","internalType":"address"}]}],"bytecode":{"object":"0x6080806040523460d0577ff0c57e16840df040f15088dc2f81fe391c3923bec73e23a9662efc9c229c6a005460ff8160401c1660c1576002600160401b03196001600160401b03821601605c575b604051610ef590816100d58239f35b6001600160401b0319166001600160401b039081177ff0c57e16840df040f15088dc2f81fe391c3923bec73e23a9662efc9c229c6a005581527fc7f505b2f371ae2175ee4913f4499e1f2633a7b5936321eed1cdaeb6115181d290602090a15f80604d565b63f92ee8a960e01b5f5260045ffd5b5f80fdfe6080806040526004361015610012575f80fd5b5f3560e01c90816301ffc9a71461066d5750806307bd0265146106335780631083f76114610608578063248a9ca3146105e25780632f2ff15d146105b157806336568abe1461056d57806339bc978314610545578063485cc955146103965780635af123f41461037657806375b238fc1461033c57806391d14854146102e7578063a217fddf146102cd578063ccded28614610164578063d269f0b7146100fd5763d547741f146100c1575f80fd5b346100f95760403660031901126100f9576100f76004356100e06106c0565b906100f26100ed82610774565b610b20565b610d85565b005b5f80fd5b346100f95760203660031901126100f95760043561ffff81168091036100f95760407f17ecb9fa6da5ae667729ab9753915755c1562870b3319551fa655d4f68adb4d891610149610ab1565b61ffff5f548282198216175f558351928352166020820152a1005b346100f95760403660031901126100f95760043567ffffffffffffffff81116100f95761019590369060040161070c565b60243567ffffffffffffffff81116100f9576101b590369060040161070c565b906101be610ab1565b8051825103610298575f5b81518110156100f7576101dc8183610a89565b51906101e88185610a89565b5191805f52600260205260405f20548310610241576040816001947fd272f74aeb55de396ac593d01d2424ca7f9c1f8bfdbc368650c2cc49b0424507935f528560205280835f205582519182526020820152a1016101c9565b60405162461bcd60e51b815260206004820152602960248201527f416c6c6f77616e63652063616e6e6f74206265206c657373207468616e2070616044820152681a5908185b5bdd5b9d60ba1b6064820152608490fd5b60405162461bcd60e51b815260206004820152600d60248201526c125b9d985b1a59081a5b9c1d5d609a1b6044820152606490fd5b346100f9575f3660031901126100f95760206040515f8152f35b346100f95760403660031901126100f9576103006106c0565b6004355f525f80516020610e8083398151915260205260405f209060018060a01b03165f52602052602060ff60405f2054166040519015158152f35b346100f9575f3660031901126100f95760206040517fa49807205ce4d355092ef5a8a18f56e8913cf4a201fbe287825b095693c217758152f35b346100f9575f3660031901126100f957602061ffff5f5416604051908152f35b346100f95760403660031901126100f9576004356001600160a01b03811681036100f9576103c26106c0565b905f80516020610ea0833981519152549160ff8360401c16159267ffffffffffffffff81168015908161053d575b6001149081610533575b15908161052a575b5061051b5767ffffffffffffffff1981166001175f80516020610ea083398151915255836104ef575b5060ff5f80516020610ea08339815191525460401c16156104e05761045c82610456610dac94610b66565b50610c37565b505f549062010000600160b01b039060101b169069ffffffffffffffffffff60b01b1617175f5561048957005b68ff0000000000000000195f80516020610ea083398151915254165f80516020610ea0833981519152557fc7f505b2f371ae2175ee4913f4499e1f2633a7b5936321eed1cdaeb6115181d2602060405160018152a1005b631afcd79f60e31b5f5260045ffd5b68ffffffffffffffffff191668010000000000000001175f80516020610ea0833981519152558361042b565b63f92ee8a960e01b5f5260045ffd5b90501585610402565b303b1591506103fa565b8591506103f0565b346100f95760603660031901126100f9576100f76105616106c0565b60443590600435610792565b346100f95760403660031901126100f9576105866106c0565b336001600160a01b038216036105a2576100f790600435610d85565b63334bd91960e11b5f5260045ffd5b346100f95760403660031901126100f9576100f76004356105d06106c0565b906105dd6100ed82610774565b610ce1565b346100f95760203660031901126100f9576020610600600435610774565b604051908152f35b346100f9575f3660031901126100f9575f5460405160109190911c6001600160a01b03168152602090f35b346100f9575f3660031901126100f95760206040517fd8aa0f3194971a2a116679f7c2090f6939c8d4e01a2a8d7e41d55e5351469e638152f35b346100f95760203660031901126100f9576004359063ffffffff60e01b82168092036100f957602091637965db0b60e01b81149081156106af575b5015158152f35b6301ffc9a760e01b149050836106a8565b602435906001600160a01b03821682036100f957565b90601f8019910116810190811067ffffffffffffffff8211176106f857604052565b634e487b7160e01b5f52604160045260245ffd5b9080601f830112156100f95781359167ffffffffffffffff83116106f8578260051b906040519361074060208401866106d6565b84526020808501928201019283116100f957602001905b8282106107645750505090565b8135815260209182019101610757565b5f525f80516020610e80833981519152602052600160405f20015490565b91908215610a51576001600160a01b03168015610a185781158080156109e0575b6109da57835f52600160205260405f205492845f52600260205260405f20548403938411610939575f549161ffff8316808302928304141715610939576127109004928084116109d2575b50821515908161094d575b5061081357505050565b825f52600260205260405f2080549083820180921161093957555f8060018060a01b03815460101c1692604051602081019163a9059cbb60e01b83526024820152856044820152604481526108696064826106d6565b519082855af13d1561092d573d67ffffffffffffffff81116106f8576108b191604051916108a16020601f19601f84011601846106d6565b82523d5f602084013e5b83610e21565b8051908115159182610909575b50506108f757507f4ada13b2fbbe5cded7980d11456a07d339c09fd8510087f7ba973da4ea1a60d89160409182519182526020820152a1565b635274afe760e01b5f5260045260245ffd5b81925090602091810103126100f957602001518015908115036100f9575f806108be565b6108b1906060906108ab565b634e487b7160e01b5f52601160045260245ffd5b6040516370a0823160e01b815230600482015291506020908290602490829060101c6001600160a01b03165afa80156109c75783915f91610992575b5010155f610809565b9150506020813d6020116109bf575b816109ae602093836106d6565b810103126100f9578290515f610989565b3d91506109a1565b6040513d5f823e3d90fd5b92505f6107fe565b50505050565b50335f9081527f52fce5e8a5d0d9e8d1ea29f4525e512e9c27bf92cae50374d497f918ab48f382602052604090205460ff16156107b3565b60405162461bcd60e51b8152602060048201526011602482015270125b9d985b1a59081c9958da5c1a595b9d607a1b6044820152606490fd5b60405162461bcd60e51b815260206004820152601060248201526f125b9d985b1a59081859d95b9d08125160821b6044820152606490fd5b8051821015610a9d5760209160051b010190565b634e487b7160e01b5f52603260045260245ffd5b335f9081527fb16e88c42fd4e48df2dd6a2eabd6bc9aec654ec170056b470819f8892cc6431c602052604090205460ff1615610ae957565b63e2517d3f60e01b5f52336004527fa49807205ce4d355092ef5a8a18f56e8913cf4a201fbe287825b095693c2177560245260445ffd5b5f8181525f80516020610e808339815191526020908152604080832033845290915290205460ff1615610b505750565b63e2517d3f60e01b5f523360045260245260445ffd5b6001600160a01b0381165f9081527fb16e88c42fd4e48df2dd6a2eabd6bc9aec654ec170056b470819f8892cc6431c602052604090205460ff16610c32576001600160a01b03165f8181527fb16e88c42fd4e48df2dd6a2eabd6bc9aec654ec170056b470819f8892cc6431c60205260408120805460ff191660011790553391907fa49807205ce4d355092ef5a8a18f56e8913cf4a201fbe287825b095693c21775907f2f8788117e7eff1d82e926ec794901d17c78024a50270940304540a733656f0d9080a4600190565b505f90565b6001600160a01b0381165f9081527fb7db2dd08fcb62d0c9e08c51941cae53c267786a0b75803fb7960902fc8ef97d602052604090205460ff16610c32576001600160a01b03165f8181527fb7db2dd08fcb62d0c9e08c51941cae53c267786a0b75803fb7960902fc8ef97d60205260408120805460ff191660011790553391907f2f8788117e7eff1d82e926ec794901d17c78024a50270940304540a733656f0d8180a4600190565b5f8181525f80516020610e80833981519152602090815260408083206001600160a01b038616845290915290205460ff16610d7f575f8181525f80516020610e80833981519152602090815260408083206001600160a01b0395909516808452949091528120805460ff19166001179055339291907f2f8788117e7eff1d82e926ec794901d17c78024a50270940304540a733656f0d9080a4600190565b50505f90565b5f8181525f80516020610e80833981519152602090815260408083206001600160a01b038616845290915290205460ff1615610d7f575f8181525f80516020610e80833981519152602090815260408083206001600160a01b0395909516808452949091528120805460ff19169055339291907ff6391f5c32d9c69d2a47ea670b442974b53935d1edc7fd64eb21e047a839171b9080a4600190565b90610e455750805115610e3657805190602001fd5b630a12f52160e11b5f5260045ffd5b81511580610e76575b610e56575090565b639996b31560e01b5f9081526001600160a01b0391909116600452602490fd5b50803b15610e4e56fe02dd7bc7dec4dceedda775e58dd541e08a116c6c53815c0bd028192f7b626800f0c57e16840df040f15088dc2f81fe391c3923bec73e23a9662efc9c229c6a00a264697066735822122062ac9d63b51a8bd525b563d8aa4fbb649533664829e1b67ebeaaafe1369f6dbd64736f6c634300081a0033","linkReferences":{}},"methodIdentifiers":{"ADMIN_ROLE()":"75b238fc","DEFAULT_ADMIN_ROLE()":"a217fddf","EXECUTOR_ROLE()":"07bd0265","assetToken()":"1083f761","bonusRate()":"5af123f4","distributeBonus(uint256,address,uint256)":"39bc9783","getRoleAdmin(bytes32)":"248a9ca3","grantRole(bytes32,address)":"2f2ff15d","hasRole(bytes32,address)":"91d14854","initialize(address,address)":"485cc955","renounceRole(bytes32,address)":"36568abe","revokeRole(bytes32,address)":"d547741f","setAllowances(uint256[],uint256[])":"ccded286","supportsInterface(bytes4)":"01ffc9a7","updateBonusRate(uint16)":"d269f0b7"},"id":81}