{"abi":[{"type":"function","name":"tokenURI","inputs":[{"name":"","type":"uint256","internalType":"uint256"}],"outputs":[{"name":"","type":"string","internalType":"string"}],"stateMutability":"pure"}],"bytecode":{"object":"0x6080806040523460135760c7908160188239f35b5f80fdfe60806004361015600d575f80fd5b5f3560e01c63c87b56dd14601f575f80fd5b34608d576020366003190112608d57602081019080821067ffffffffffffffff8311176079576040908282525f81528151928391602083525180918160208501528484015e5f828201840152601f01601f19168101030190f35b634e487b7160e01b5f52604160045260245ffd5b5f80fdfea2646970667358221220367b4ab1392daed74d99454544fa4cd0a83eeb6b032ea12cfe1b4873c74e6b2a64736f6c634300081a0033","linkReferences":{}},"methodIdentifiers":{"tokenURI(uint256)":"c87b56dd"},"id":66}