{"abi":[{"type":"function","name":"ADMIN_ROLE","inputs":[],"outputs":[{"name":"","type":"bytes32","internalType":"bytes32"}],"stateMutability":"view"},{"type":"function","name":"DEFAULT_ADMIN_ROLE","inputs":[],"outputs":[{"name":"","type":"bytes32","internalType":"bytes32"}],"stateMutability":"view"},{"type":"function","name":"agentNft","inputs":[],"outputs":[{"name":"","type":"address","internalType":"contract IAgentNft"}],"stateMutability":"view"},{"type":"function","name":"getRoleAdmin","inputs":[{"name":"role","type":"bytes32","internalType":"bytes32"}],"outputs":[{"name":"","type":"bytes32","internalType":"bytes32"}],"stateMutability":"view"},{"type":"function","name":"grantRole","inputs":[{"name":"role","type":"bytes32","internalType":"bytes32"},{"name":"account","type":"address","internalType":"address"}],"outputs":[],"stateMutability":"nonpayable"},{"type":"function","name":"hasRole","inputs":[{"name":"role","type":"bytes32","internalType":"bytes32"},{"name":"account","type":"address","internalType":"address"}],"outputs":[{"name":"","type":"bool","internalType":"bool"}],"stateMutability":"view"},{"type":"function","name":"inferenceCount","inputs":[{"name":"agentId","type":"uint256","internalType":"uint256"}],"outputs":[{"name":"","type":"uint256","internalType":"uint256"}],"stateMutability":"view"},{"type":"function","name":"initialize","inputs":[{"name":"defaultAdmin_","type":"address","internalType":"address"},{"name":"token_","type":"address","internalType":"address"},{"name":"agentNft_","type":"address","internalType":"address"}],"outputs":[],"stateMutability":"nonpayable"},{"type":"function","name":"prompt","inputs":[{"name":"promptHash","type":"bytes32","internalType":"bytes32"},{"name":"agentIds","type":"uint256[]","internalType":"uint256[]"},{"name":"amounts","type":"uint256[]","internalType":"uint256[]"},{"name":"coreIds","type":"uint8[][]","internalType":"uint8[][]"}],"outputs":[],"stateMutability":"nonpayable"},{"type":"function","name":"promptMulti","inputs":[{"name":"promptHashes","type":"bytes32[]","internalType":"bytes32[]"},{"name":"agentIds","type":"uint256[]","internalType":"uint256[]"},{"name":"amounts","type":"uint256[]","internalType":"uint256[]"},{"name":"coreIds","type":"uint8[][]","internalType":"uint8[][]"}],"outputs":[],"stateMutability":"nonpayable"},{"type":"function","name":"renounceRole","inputs":[{"name":"role","type":"bytes32","internalType":"bytes32"},{"name":"callerConfirmation","type":"address","internalType":"address"}],"outputs":[],"stateMutability":"nonpayable"},{"type":"function","name":"revokeRole","inputs":[{"name":"role","type":"bytes32","internalType":"bytes32"},{"name":"account","type":"address","internalType":"address"}],"outputs":[],"stateMutability":"nonpayable"},{"type":"function","name":"supportsInterface","inputs":[{"name":"interfaceId","type":"bytes4","internalType":"bytes4"}],"outputs":[{"name":"","type":"bool","internalType":"bool"}],"stateMutability":"view"},{"type":"function","name":"token","inputs":[],"outputs":[{"name":"","type":"address","internalType":"contract IERC20"}],"stateMutability":"view"},{"type":"event","name":"Initialized","inputs":[{"name":"version","type":"uint64","indexed":false,"internalType":"uint64"}],"anonymous":false},{"type":"event","name":"Prompt","inputs":[{"name":"sender","type":"address","indexed":true,"internalType":"address"},{"name":"promptHash","type":"bytes32","indexed":false,"internalType":"bytes32"},{"name":"agentId","type":"uint256","indexed":false,"internalType":"uint256"},{"name":"cost","type":"uint256","indexed":false,"internalType":"uint256"},{"name":"coreIds","type":"uint8[]","indexed":false,"internalType":"uint8[]"}],"anonymous":false},{"type":"event","name":"RoleAdminChanged","inputs":[{"name":"role","type":"bytes32","indexed":true,"internalType":"bytes32"},{"name":"previousAdminRole","type":"bytes32","indexed":true,"internalType":"bytes32"},{"name":"newAdminRole","type":"bytes32","indexed":true,"internalType":"bytes32"}],"anonymous":false},{"type":"event","name":"RoleGranted","inputs":[{"name":"role","type":"bytes32","indexed":true,"internalType":"bytes32"},{"name":"account","type":"address","indexed":true,"internalType":"address"},{"name":"sender","type":"address","indexed":true,"internalType":"address"}],"anonymous":false},{"type":"event","name":"RoleRevoked","inputs":[{"name":"role","type":"bytes32","indexed":true,"internalType":"bytes32"},{"name":"account","type":"address","indexed":true,"internalType":"address"},{"name":"sender","type":"address","indexed":true,"internalType":"address"}],"anonymous":false},{"type":"error","name":"AccessControlBadConfirmation","inputs":[]},{"type":"error","name":"AccessControlUnauthorizedAccount","inputs":[{"name":"account","type":"address","internalType":"address"},{"name":"neededRole","type":"bytes32","internalType":"bytes32"}]},{"type":"error","name":"AddressEmptyCode","inputs":[{"name":"target","type":"address","internalType":"address"}]},{"type":"error","name":"AddressInsufficientBalance","inputs":[{"name":"account","type":"address","internalType":"address"}]},{"type":"error","name":"FailedInnerCall","inputs":[]},{"type":"error","name":"InvalidInitialization","inputs":[]},{"type":"error","name":"NotInitializing","inputs":[]},{"type":"error","name":"ReentrancyGuardReentrantCall","inputs":[]},{"type":"error","name":"SafeERC20FailedOperation","inputs":[{"name":"token","type":"address","internalType":"address"}]}],"bytecode":{"object":"0x60808060405234601557611375908161001a8239f35b5f80fdfe6080806040526004361015610012575f80fd5b5f3560e01c90816301ffc9a7146109e757508063248a9ca3146109c15780632f2ff15d1461099057806330b731971461096757806336568abe146109235780636ffa22bf1461062a57806375b238fc146105f057806391d148541461059b5780639cbef4a914610573578063a14ea29914610305578063a217fddf146102eb578063c0c53b8b1461011a578063d547741f146100e25763fc0c546a146100b6575f80fd5b346100de575f3660031901126100de576001546040516001600160a01b039091168152602090f35b5f80fd5b346100de5760403660031901126100de57610118600435610101610a3a565b9061011361010e82610bd3565b610e2e565b611093565b005b346100de5760603660031901126100de576004356001600160a01b03811681036100de57610146610a3a565b6044356001600160a01b03811691908290036100de575f805160206113208339815191525460ff8160401c1615936001600160401b038216801590816102e3575b60011490816102d9575b1590816102d0575b506102c15767ffffffffffffffff1982166001175f80516020611320833981519152556101ff9185610295575b506101cf611256565b6101d7611256565b6101df611256565b60015f80516020611300833981519152556101f981610e74565b50610f45565b5060018060a01b03166bffffffffffffffffffffffff60a01b60015416176001556bffffffffffffffffffffffff60a01b600254161760025561023e57005b68ff0000000000000000195f8051602061132083398151915254165f80516020611320833981519152557fc7f505b2f371ae2175ee4913f4499e1f2633a7b5936321eed1cdaeb6115181d2602060405160018152a1005b68ffffffffffffffffff191668010000000000000001175f8051602061132083398151915255856101c6565b63f92ee8a960e01b5f5260045ffd5b90501586610199565b303b159150610191565b869150610187565b346100de575f3660031901126100de5760206040515f8152f35b346100de5760803660031901126100de576004356024356001600160401b0381116100de57610338903690600401610a9c565b906044356001600160401b0381116100de57610358903690600401610a9c565b6064356001600160401b0381116100de57610377903690600401610af9565b9061038061112f565b5f916103988551835181149081610568575b50610bf1565b5f925b82518410156103c3576103bb6001916103b48686610c2d565b5190610c55565b93019261039b565b6001546040516370a0823160e01b815233600482015292959450602090839060249082906001600160a01b03165afa8015610516575f90610534575b61040b92501015610c76565b5f5b8451811015610521578061042360249287610c2d565b51600254604051635652386760e11b815260048101839052935f9185919082906001600160a01b03165afa9283156105165760019361048a915f916104f4575b5060600151845460a086901b86900390811691166104818588610c2d565b51913390611167565b805f525f60205260405f2061049f8154610dd1565b90557f0e03c4b7e9e76107bd2bbd9278ade04842e22e3aaab7bc23306f9c11073f852b6104cc8386610c2d565b516104d78489610c2d565b51906104eb60405192839233968b85610ddf565b0390a20161040d565b61051091503d805f833e6105088183610a50565b810190610ccd565b89610463565b6040513d5f823e3d90fd5b60015f8051602061130083398151915255005b506020823d602011610560575b8161054e60209383610a50565b810103126100de5761040b91516103ff565b3d9150610541565b905082511487610392565b346100de575f3660031901126100de576002546040516001600160a01b039091168152602090f35b346100de5760403660031901126100de576105b4610a3a565b6004355f525f805160206112e083398151915260205260405f209060018060a01b03165f52602052602060ff60405f2054166040519015158152f35b346100de575f3660031901126100de5760206040517fa49807205ce4d355092ef5a8a18f56e8913cf4a201fbe287825b095693c217758152f35b346100de5760803660031901126100de576004356001600160401b0381116100de57366023820112156100de5780600401359061066682610a85565b916106746040519384610a50565b8083526024602084019160051b830101913683116100de57602401905b82821061091357836024356001600160401b0381116100de576106b8903690600401610a9c565b906044356001600160401b0381116100de576106d8903690600401610a9c565b6064356001600160401b0381116100de576106f7903690600401610af9565b9261070061112f565b5f928151938351851480610909575b806108ff575b61071e90610bf1565b5f905b8582106108e7576001546040516370a0823160e01b81523360048201529250602090839060249082906001600160a01b03165afa8015610516575f906108b3575b61076e92501015610c76565b5f915f5b85811061078c5760015f8051602061130083398151915255005b84876107988385610c2d565b5180610836575b82917f0e03c4b7e9e76107bd2bbd9278ade04842e22e3aaab7bc23306f9c11073f852b9161082d61081e8761081781610810818f8f90829d60019f9160016107f493816104819260a01b036001541693610c2d565b885f525f60205260405f206108098154610dd1565b9055610c2d565b5198610c2d565b5194610c2d565b51604051938493339785610ddf565b0390a201610772565b929550505060245f60018060a01b036002541660405192838092635652386760e11b82528660048301525afa91821561051657858988928784849785975f91610899575b50606001516001600160a01b03169a50949550919350915061079f9050565b6108ad91503d805f833e6105088183610a50565b8f61087a565b506020823d6020116108df575b816108cd60209383610a50565b810103126100de5761076e9151610762565b3d91506108c0565b6108f76001916103b48488610c2d565b910190610721565b5081518514610715565b508551851461070f565b8135815260209182019101610691565b346100de5760403660031901126100de5761093c610a3a565b336001600160a01b038216036109585761011890600435611093565b63334bd91960e11b5f5260045ffd5b346100de5760203660031901126100de576004355f525f602052602060405f2054604051908152f35b346100de5760403660031901126100de576101186004356109af610a3a565b906109bc61010e82610bd3565b610fef565b346100de5760203660031901126100de5760206109df600435610bd3565b604051908152f35b346100de5760203660031901126100de576004359063ffffffff60e01b82168092036100de57602091637965db0b60e01b8114908115610a29575b5015158152f35b6301ffc9a760e01b14905083610a22565b602435906001600160a01b03821682036100de57565b90601f801991011681019081106001600160401b03821117610a7157604052565b634e487b7160e01b5f52604160045260245ffd5b6001600160401b038111610a715760051b60200190565b9080601f830112156100de578135610ab381610a85565b92610ac16040519485610a50565b81845260208085019260051b8201019283116100de57602001905b828210610ae95750505090565b8135815260209182019101610adc565b81601f820112156100de57803590610b1082610a85565b92610b1e6040519485610a50565b82845260208085019360051b830101918183116100de5760208101935b838510610b4a57505050505090565b84356001600160401b0381116100de57820183603f820112156100de576020810135610b7581610a85565b91610b836040519384610a50565b8183526020808085019360051b83010101908682116100de57604001915b818310610bb957505050815260209485019401610b3b565b823560ff811681036100de57815260209283019201610ba1565b5f525f805160206112e0833981519152602052600160405f20015490565b15610bf857565b60405162461bcd60e51b815260206004820152600d60248201526c125b9d985b1a59081a5b9c1d5d609a1b6044820152606490fd5b8051821015610c415760209160051b010190565b634e487b7160e01b5f52603260045260245ffd5b91908201809211610c6257565b634e487b7160e01b5f52601160045260245ffd5b15610c7d57565b60405162461bcd60e51b8152602060048201526014602482015273496e73756666696369656e742062616c616e636560601b6044820152606490fd5b51906001600160a01b03821682036100de57565b6020818303126100de578051906001600160401b0382116100de57019060a0828203126100de576040519160a083018381106001600160401b03821117610a7157604052610d1a81610cb9565b8352610d2860208201610cb9565b6020840152610d3960408201610cb9565b6040840152610d4a60608201610cb9565b60608401526080810151906001600160401b0382116100de57019080601f830112156100de57815190610d7c82610a85565b92610d8a6040519485610a50565b82845260208085019360051b8201019182116100de57602001915b818310610db757505050608082015290565b825160ff811681036100de57815260209283019201610da5565b5f198114610c625760010190565b60a0919360209360808301958352848301526040820152608060608201528451809452019201905f5b818110610e155750505090565b825160ff16845260209384019390920191600101610e08565b5f8181525f805160206112e08339815191526020908152604080832033845290915290205460ff1615610e5e5750565b63e2517d3f60e01b5f523360045260245260445ffd5b6001600160a01b0381165f9081527fb16e88c42fd4e48df2dd6a2eabd6bc9aec654ec170056b470819f8892cc6431c602052604090205460ff16610f40576001600160a01b03165f8181527fb16e88c42fd4e48df2dd6a2eabd6bc9aec654ec170056b470819f8892cc6431c60205260408120805460ff191660011790553391907fa49807205ce4d355092ef5a8a18f56e8913cf4a201fbe287825b095693c21775907f2f8788117e7eff1d82e926ec794901d17c78024a50270940304540a733656f0d9080a4600190565b505f90565b6001600160a01b0381165f9081527fb7db2dd08fcb62d0c9e08c51941cae53c267786a0b75803fb7960902fc8ef97d602052604090205460ff16610f40576001600160a01b03165f8181527fb7db2dd08fcb62d0c9e08c51941cae53c267786a0b75803fb7960902fc8ef97d60205260408120805460ff191660011790553391907f2f8788117e7eff1d82e926ec794901d17c78024a50270940304540a733656f0d8180a4600190565b5f8181525f805160206112e0833981519152602090815260408083206001600160a01b038616845290915290205460ff1661108d575f8181525f805160206112e0833981519152602090815260408083206001600160a01b0395909516808452949091528120805460ff19166001179055339291907f2f8788117e7eff1d82e926ec794901d17c78024a50270940304540a733656f0d9080a4600190565b50505f90565b5f8181525f805160206112e0833981519152602090815260408083206001600160a01b038616845290915290205460ff161561108d575f8181525f805160206112e0833981519152602090815260408083206001600160a01b0395909516808452949091528120805460ff19169055339291907ff6391f5c32d9c69d2a47ea670b442974b53935d1edc7fd64eb21e047a839171b9080a4600190565b60025f8051602061130083398151915254146111585760025f8051602061130083398151915255565b633ee5aeb560e01b5f5260045ffd5b6040516323b872dd60e01b602082019081526001600160a01b039384166024830152939092166044830152606480830194909452928152915f9182916111ae608486610a50565b60018060a01b031693519082855af13d1561124a573d6001600160401b038111610a71576111fe91604051916111ee6020601f19601f8401160184610a50565b82523d5f602084013e5b83611281565b8051908115159182611226575b50506112145750565b635274afe760e01b5f5260045260245ffd5b81925090602091810103126100de57602001518015908115036100de575f8061120b565b6111fe906060906111f8565b60ff5f805160206113208339815191525460401c161561127257565b631afcd79f60e31b5f5260045ffd5b906112a5575080511561129657805190602001fd5b630a12f52160e11b5f5260045ffd5b815115806112d6575b6112b6575090565b639996b31560e01b5f9081526001600160a01b0391909116600452602490fd5b50803b156112ae56fe02dd7bc7dec4dceedda775e58dd541e08a116c6c53815c0bd028192f7b6268009b779b17422d0df92223018b32b4d1fa46e071723d6817e2486d003becc55f00f0c57e16840df040f15088dc2f81fe391c3923bec73e23a9662efc9c229c6a00a264697066735822122075d1d8fc83a7f33cbf4aff9126fb9c305b2b4a26ae16101d3eb0a2a587b0b42b64736f6c634300081a0033","linkReferences":{}},"methodIdentifiers":{"ADMIN_ROLE()":"75b238fc","DEFAULT_ADMIN_ROLE()":"a217fddf","agentNft()":"9cbef4a9","getRoleAdmin(bytes32)":"248a9ca3","grantRole(bytes32,address)":"2f2ff15d","hasRole(bytes32,address)":"91d14854","inferenceCount(uint256)":"30b73197","initialize(address,address,address)":"c0c53b8b","prompt(bytes32,uint256[],uint256[],uint8[][])":"a14ea299","promptMulti(bytes32[],uint256[],uint256[],uint8[][])":"6ffa22bf","renounceRole(bytes32,address)":"36568abe","revokeRole(bytes32,address)":"d547741f","supportsInterface(bytes4)":"01ffc9a7","token()":"fc0c546a"},"id":0}