{"abi":[{"type":"constructor","inputs":[],"stateMutability":"nonpayable"},{"type":"function","name":"agentNft","inputs":[],"outputs":[{"name":"","type":"address","internalType":"address"}],"stateMutability":"view"},{"type":"function","name":"daoName","inputs":[],"outputs":[{"name":"","type":"string","internalType":"string"}],"stateMutability":"view"},{"type":"function","name":"getMaturity","inputs":[{"name":"proposalId","type":"uint256","internalType":"uint256"}],"outputs":[{"name":"","type":"uint256","internalType":"uint256"}],"stateMutability":"view"},{"type":"function","name":"getPastScore","inputs":[{"name":"account","type":"address","internalType":"address"},{"name":"timepoint","type":"uint256","internalType":"uint256"}],"outputs":[{"name":"","type":"uint256","internalType":"uint256"}],"stateMutability":"view"},{"type":"function","name":"initialize","inputs":[{"name":"_name","type":"string","internalType":"string"},{"name":"_token","type":"address","internalType":"contract IVotes"},{"name":"_agentNft","type":"address","internalType":"address"},{"name":"_threshold","type":"uint256","internalType":"uint256"},{"name":"_votingPeriod_","type":"uint32","internalType":"uint32"}],"outputs":[],"stateMutability":"nonpayable"},{"type":"function","name":"proposalCount","inputs":[],"outputs":[{"name":"","type":"uint256","internalType":"uint256"}],"stateMutability":"view"},{"type":"function","name":"proposals","inputs":[{"name":"","type":"uint256","internalType":"uint256"}],"outputs":[{"name":"proposer","type":"address","internalType":"address"},{"name":"startBlock","type":"uint256","internalType":"uint256"},{"name":"endBlock","type":"uint256","internalType":"uint256"},{"name":"forVotes","type":"uint256","internalType":"uint256"},{"name":"againstVotes","type":"uint256","internalType":"uint256"},{"name":"executed","type":"bool","internalType":"bool"},{"name":"canceled","type":"bool","internalType":"bool"}],"stateMutability":"view"},{"type":"function","name":"scoreOf","inputs":[{"name":"account","type":"address","internalType":"address"}],"outputs":[{"name":"","type":"uint256","internalType":"uint256"}],"stateMutability":"view"},{"type":"function","name":"setScore","inputs":[{"name":"account","type":"address","internalType":"address"},{"name":"score","type":"uint256","internalType":"uint256"}],"outputs":[],"stateMutability":"nonpayable"},{"type":"function","name":"threshold","inputs":[],"outputs":[{"name":"","type":"uint256","internalType":"uint256"}],"stateMutability":"view"},{"type":"function","name":"token","inputs":[],"outputs":[{"name":"","type":"address","internalType":"contract IVotes"}],"stateMutability":"view"},{"type":"function","name":"totalScore","inputs":[],"outputs":[{"name":"","type":"uint256","internalType":"uint256"}],"stateMutability":"view"},{"type":"function","name":"votingPeriod","inputs":[],"outputs":[{"name":"","type":"uint256","internalType":"uint256"}],"stateMutability":"view"},{"type":"event","name":"ValidatorEloRating","inputs":[{"name":"proposalId","type":"uint256","indexed":false,"internalType":"uint256"},{"name":"voter","type":"address","indexed":false,"internalType":"address"},{"name":"score","type":"uint256","indexed":false,"internalType":"uint256"},{"name":"votes","type":"uint8[]","indexed":false,"internalType":"uint8[]"}],"anonymous":false}],"bytecode":{"object":"0x60808060405234601557610713908161001a8239f35b5f80fdfe6080806040526004361015610012575f80fd5b5f3560e01c908163013cf08b146105d65750806302a251a3146105b9578063133af4561461059b578063209e1f0d1461055b57806342cde4e81461053e5780634897693614610462578063718f7cd4146102295780637f1e7d41146101ad5780639cbef4a914610185578063c006719f14610168578063da35c6641461014b578063ee0fcc75146100d75763fc0c546a146100ab575f80fd5b346100d3575f3660031901126100d3576001546040516001600160a01b039091168152602090f35b5f80fd5b346100d35760403660031901126100d3576100f061064d565b6007546001600160a01b039091165f818152600660205260409020546024359290810390811161013757828101809111610137576007555f52600660205260405f20555f80f35b634e487b7160e01b5f52601160045260245ffd5b346100d3575f3660031901126100d3576020600554604051908152f35b346100d3575f3660031901126100d3576020600754604051908152f35b346100d3575f3660031901126100d3576002546040516001600160a01b039091168152602090f35b346100d35760203660031901126100d3576004356005548110156101e4575f5260086020526020600260405f200154604051908152f35b60405162461bcd60e51b815260206004820152601760248201527f50726f706f73616c20646f6573206e6f742065786973740000000000000000006044820152606490fd5b346100d35760a03660031901126100d35760043567ffffffffffffffff81116100d357366023820112156100d357806004013567ffffffffffffffff811161044e5760405191610283601f8301601f19166020018461069b565b81835236602483830101116100d357815f9260246020930183860137830101526024356001600160a01b038116908190036100d3576044356001600160a01b038116908190036100d3576084359163ffffffff83168093036100d357835167ffffffffffffffff811161044e576102fa5f54610663565b601f81116103e7575b50602094601f821160011461037b579481929394955f92610370575b50508160011b915f199060031b1c1916175f555b6bffffffffffffffffffffffff60a01b60015416176001556bffffffffffffffffffffffff60a01b60025416176002556064356003556004555f80f35b01519050858061031f565b601f198216955f80525f805160206106be833981519152915f5b8881106103cf575083600195969798106103b7575b505050811b015f55610333565b01515f1960f88460031b161c191690558580806103aa565b91926020600181928685015181550194019201610395565b5f8052601f820160051c5f805160206106be833981519152019060208310610439575b601f0160051c5f805160206106be83398151915201905b81811061042e5750610303565b5f8155600101610421565b5f805160206106be833981519152915061040a565b634e487b7160e01b5f52604160045260245ffd5b346100d3575f3660031901126100d3576040515f905f549161048383610663565b80835260208301936001811690811561052357506001146104da575b50906104af81604093038261069b565b8151928391602083525180918160208501528484015e5f828201840152601f01601f19168101030190f35b5f8080525f805160206106be833981519152939250905b808210610509575090915081016020016104af61049f565b9192600181602092548385880101520191019092916104f1565b60ff1916855250151560051b820160200190506104af61049f565b346100d3575f3660031901126100d3576020600354604051908152f35b346100d35760403660031901126100d357602061059361057961064d565b6001600160a01b03165f9081526006602052604090205490565b604051908152f35b346100d35760203660031901126100d357602061059361057961064d565b346100d3575f3660031901126100d3576020600454604051908152f35b346100d35760203660031901126100d35760e0906004355f52600860205260ff60405f2060018060a01b038154169060018101546002820154600383015491600560048501549401549487526020870152604086015260608501526080840152818116151560a084015260081c16151560c0820152f35b600435906001600160a01b03821682036100d357565b90600182811c92168015610691575b602083101461067d57565b634e487b7160e01b5f52602260045260245ffd5b91607f1691610672565b90601f8019910116810190811067ffffffffffffffff82111761044e5760405256fe290decd9548b62a8d60345a988386fc84ba6bc95484008f6362f93160ef3e563a2646970667358221220352049ae3a3743f7321c83b5abe70885698424d31125f3b8db8ada0e012b086b64736f6c634300081a0033","linkReferences":{}},"methodIdentifiers":{"agentNft()":"9cbef4a9","daoName()":"48976936","getMaturity(uint256)":"7f1e7d41","getPastScore(address,uint256)":"209e1f0d","initialize(string,address,address,uint256,uint32)":"718f7cd4","proposalCount()":"da35c664","proposals(uint256)":"013cf08b","scoreOf(address)":"133af456","setScore(address,uint256)":"ee0fcc75","threshold()":"42cde4e8","token()":"fc0c546a","totalScore()":"c006719f","votingPeriod()":"02a251a3"},"id":50}