{"abi":[{"type":"constructor","inputs":[{"name":"_token0","type":"address","internalType":"address"},{"name":"_token1","type":"address","internalType":"address"},{"name":"_factory","type":"address","internalType":"address"},{"name":"_startTime","type":"uint256","internalType":"uint256"},{"name":"_startTimeDelay","type":"uint256","internalType":"uint256"}],"stateMutability":"nonpayable"},{"type":"function","name":"DOMAIN_SEPARATOR","inputs":[],"outputs":[{"name":"","type":"bytes32","internalType":"bytes32"}],"stateMutability":"view"},{"type":"function","name":"MINIMUM_LIQUIDITY","inputs":[],"outputs":[{"name":"","type":"uint256","internalType":"uint256"}],"stateMutability":"pure"},{"type":"function","name":"PERMIT_TYPEHASH","inputs":[],"outputs":[{"name":"","type":"bytes32","internalType":"bytes32"}],"stateMutability":"view"},{"type":"function","name":"allowance","inputs":[{"name":"","type":"address","internalType":"address"},{"name":"","type":"address","internalType":"address"}],"outputs":[{"name":"","type":"uint256","internalType":"uint256"}],"stateMutability":"view"},{"type":"function","name":"approve","inputs":[{"name":"spender","type":"address","internalType":"address"},{"name":"value","type":"uint256","internalType":"uint256"}],"outputs":[{"name":"","type":"bool","internalType":"bool"}],"stateMutability":"nonpayable"},{"type":"function","name":"balanceOf","inputs":[{"name":"","type":"address","internalType":"address"}],"outputs":[{"name":"","type":"uint256","internalType":"uint256"}],"stateMutability":"view"},{"type":"function","name":"burn","inputs":[{"name":"to","type":"address","internalType":"address"}],"outputs":[{"name":"amount0","type":"uint256","internalType":"uint256"},{"name":"amount1","type":"uint256","internalType":"uint256"}],"stateMutability":"nonpayable"},{"type":"function","name":"decimals","inputs":[],"outputs":[{"name":"","type":"uint8","internalType":"uint8"}],"stateMutability":"view"},{"type":"function","name":"factory","inputs":[],"outputs":[{"name":"","type":"address","internalType":"address"}],"stateMutability":"view"},{"type":"function","name":"getReserves","inputs":[],"outputs":[{"name":"_reserve0","type":"uint112","internalType":"uint112"},{"name":"_reserve1","type":"uint112","internalType":"uint112"},{"name":"_blockTimestampLast","type":"uint32","internalType":"uint32"}],"stateMutability":"view"},{"type":"function","name":"initialize","inputs":[{"name":"","type":"address","internalType":"address"},{"name":"","type":"address","internalType":"address"}],"outputs":[],"stateMutability":"nonpayable"},{"type":"function","name":"kLast","inputs":[],"outputs":[{"name":"","type":"uint256","internalType":"uint256"}],"stateMutability":"view"},{"type":"function","name":"mint","inputs":[{"name":"to","type":"address","internalType":"address"}],"outputs":[{"name":"liquidity","type":"uint256","internalType":"uint256"}],"stateMutability":"nonpayable"},{"type":"function","name":"name","inputs":[],"outputs":[{"name":"","type":"string","internalType":"string"}],"stateMutability":"view"},{"type":"function","name":"nonces","inputs":[{"name":"","type":"address","internalType":"address"}],"outputs":[{"name":"","type":"uint256","internalType":"uint256"}],"stateMutability":"view"},{"type":"function","name":"permit","inputs":[{"name":"owner","type":"address","internalType":"address"},{"name":"spender","type":"address","internalType":"address"},{"name":"value","type":"uint256","internalType":"uint256"},{"name":"deadline","type":"uint256","internalType":"uint256"},{"name":"v","type":"uint8","internalType":"uint8"},{"name":"r","type":"bytes32","internalType":"bytes32"},{"name":"s","type":"bytes32","internalType":"bytes32"}],"outputs":[],"stateMutability":"nonpayable"},{"type":"function","name":"price0CumulativeLast","inputs":[],"outputs":[{"name":"","type":"uint256","internalType":"uint256"}],"stateMutability":"view"},{"type":"function","name":"price1CumulativeLast","inputs":[],"outputs":[{"name":"","type":"uint256","internalType":"uint256"}],"stateMutability":"view"},{"type":"function","name":"resetTime","inputs":[{"name":"newStartTime","type":"uint256","internalType":"uint256"}],"outputs":[],"stateMutability":"nonpayable"},{"type":"function","name":"skim","inputs":[{"name":"to","type":"address","internalType":"address"}],"outputs":[],"stateMutability":"nonpayable"},{"type":"function","name":"startTime","inputs":[],"outputs":[{"name":"","type":"uint256","internalType":"uint256"}],"stateMutability":"view"},{"type":"function","name":"startTimeDelay","inputs":[],"outputs":[{"name":"","type":"uint256","internalType":"uint256"}],"stateMutability":"view"},{"type":"function","name":"swap","inputs":[{"name":"amount0Out","type":"uint256","internalType":"uint256"},{"name":"amount1Out","type":"uint256","internalType":"uint256"},{"name":"to","type":"address","internalType":"address"},{"name":"data","type":"bytes","internalType":"bytes"}],"outputs":[],"stateMutability":"nonpayable"},{"type":"function","name":"symbol","inputs":[],"outputs":[{"name":"","type":"string","internalType":"string"}],"stateMutability":"view"},{"type":"function","name":"sync","inputs":[],"outputs":[],"stateMutability":"nonpayable"},{"type":"function","name":"token0","inputs":[],"outputs":[{"name":"","type":"address","internalType":"address"}],"stateMutability":"view"},{"type":"function","name":"token1","inputs":[],"outputs":[{"name":"","type":"address","internalType":"address"}],"stateMutability":"view"},{"type":"function","name":"totalSupply","inputs":[],"outputs":[{"name":"","type":"uint256","internalType":"uint256"}],"stateMutability":"view"},{"type":"function","name":"transfer","inputs":[{"name":"to","type":"address","internalType":"address"},{"name":"value","type":"uint256","internalType":"uint256"}],"outputs":[{"name":"","type":"bool","internalType":"bool"}],"stateMutability":"nonpayable"},{"type":"function","name":"transferFrom","inputs":[{"name":"from","type":"address","internalType":"address"},{"name":"to","type":"address","internalType":"address"},{"name":"value","type":"uint256","internalType":"uint256"}],"outputs":[{"name":"","type":"bool","internalType":"bool"}],"stateMutability":"nonpayable"},{"type":"event","name":"Approval","inputs":[{"name":"owner","type":"address","indexed":true,"internalType":"address"},{"name":"spender","type":"address","indexed":true,"internalType":"address"},{"name":"value","type":"uint256","indexed":false,"internalType":"uint256"}],"anonymous":false},{"type":"event","name":"Burn","inputs":[{"name":"sender","type":"address","indexed":true,"internalType":"address"},{"name":"amount0","type":"uint256","indexed":false,"internalType":"uint256"},{"name":"amount1","type":"uint256","indexed":false,"internalType":"uint256"},{"name":"to","type":"address","indexed":true,"internalType":"address"}],"anonymous":false},{"type":"event","name":"Mint","inputs":[{"name":"sender","type":"address","indexed":true,"internalType":"address"},{"name":"amount0","type":"uint256","indexed":false,"internalType":"uint256"},{"name":"amount1","type":"uint256","indexed":false,"internalType":"uint256"}],"anonymous":false},{"type":"event","name":"Swap","inputs":[{"name":"sender","type":"address","indexed":true,"internalType":"address"},{"name":"amount0In","type":"uint256","indexed":false,"internalType":"uint256"},{"name":"amount1In","type":"uint256","indexed":false,"internalType":"uint256"},{"name":"amount0Out","type":"uint256","indexed":false,"internalType":"uint256"},{"name":"amount1Out","type":"uint256","indexed":false,"internalType":"uint256"},{"name":"to","type":"address","indexed":true,"internalType":"address"}],"anonymous":false},{"type":"event","name":"Sync","inputs":[{"name":"reserve0","type":"uint112","indexed":false,"internalType":"uint112"},{"name":"reserve1","type":"uint112","indexed":false,"internalType":"uint112"}],"anonymous":false},{"type":"event","name":"TimeReset","inputs":[{"name":"oldStartTime","type":"uint256","indexed":false,"internalType":"uint256"},{"name":"newStartTime","type":"uint256","indexed":false,"internalType":"uint256"}],"anonymous":false},{"type":"event","name":"Transfer","inputs":[{"name":"from","type":"address","indexed":true,"internalType":"address"},{"name":"to","type":"address","indexed":true,"internalType":"address"},{"name":"value","type":"uint256","indexed":false,"internalType":"uint256"}],"anonymous":false},{"type":"error","name":"InvalidStartTime","inputs":[]}],"bytecode":{"object":"0x6080806040523461016d5760a081612087803803809161001f8285610171565b83398101031261016d57610032816101a8565b9061003f602082016101a8565b61004b604083016101a8565b60608301516080909301515f80546001600160a01b03199081166001600160a01b039788161790915560018054821694871694909417909355600b805490931691909416179055600c55600d5560408051906100a79082610171565b600f81526e26b7b1b5902ab734b9bbb0b8102b1960891b602090910152604080517f525070d4fd26951a683f4c2dcfe295e2104083f726afb2d8c17e721b26670213916100f49082610171565b600181526020810190603160f81b82525190206040519060208201927f8b73c3c69bb8fe3d512ecc4cf759cc79239f7b179b0ffacaa9a75d522b39400f8452604083015260608201524660808201523060a082015260a0815261015860c082610171565b519020600955604051611eca90816101bd8239f35b5f80fd5b601f909101601f19168101906001600160401b0382119082101761019457604052565b634e487b7160e01b5f52604160045260245ffd5b51906001600160a01b038216820361016d5756fe6080806040526004361015610012575f80fd5b5f905f3560e01c908163022c0d9f146113705750806306fdde03146113255780630902f1ac146112e3578063095ea7b3146112665780630dfe16811461123f57806318160ddd146112215780631eb305b1146111b157806323b872dd146110db57806330adf81f146110a0578063313ce567146110845780633644e51514611066578063485cc955146110435780635909c0d5146110255780635a3d5493146110075780636a62784214610d4857806370a0823114610d0f5780637464fc3d14610cf157806378e9792514610cd35780637ecebe0014610c9a57806389afcb441461085c57806395d89b4114610816578063a9059cbb14610798578063ab54e3b81461077a578063ba9a7a561461075d578063bc25cf7714610550578063c45a015514610527578063d21220a7146104fe578063d505accf146102e6578063dd62ed3e146102935763fff6cae914610168575f80fd5b3461029057806003193601126102905780546040516370a0823160e01b815230600482015290602090829060249082906001600160a01b03165afa8015610285578290610252575b6001546040516370a0823160e01b81523060048201529250602090839060249082906001600160a01b03165afa90811561024757839161020d575b61020a9250600254916001600160701b03808460701c16931691611ae6565b80f35b90506020823d60201161023f575b81610228602093836119c5565b8101031261023b5761020a9151906101eb565b5f80fd5b3d915061021b565b6040513d85823e3d90fd5b506020813d60201161027d575b8161026c602093836119c5565b8101031261023b57602490516101b0565b3d915061025f565b6040513d84823e3d90fd5b80fd5b50346102905760403660031901126102905760406102af611999565b916102b86119af565b9260018060a01b031681526008602052209060018060a01b03165f52602052602060405f2054604051908152f35b50346102905760e036600319011261029057610300611999565b6103086119af565b604435606435926084359060ff82168092036104fa574285106104cb576009546001600160a01b03909116808752600a60205260408720805496919591905f1988146104b75792608092602095928a9560018b01905560405190878201927f6e71edae12b1b97f4d1f60370fef10105fa2faae0126114a169c64845d6126c984528a604084015260018060a01b03169a8b6060840152898784015260a083015260c082015260c081526103bc60e0826119c5565b519020604051908682019261190160f01b845260228301526042820152604281526103e86062826119c5565b519020906040519182528482015260a435604082015260c435606082015282805260015afa156102475783516001600160a01b0316801515908390826104ad575b5050156104745760207f8c5be1e5ebec7d5bd14f71427d1e84f3dd0314c0f7b2291e5b200ac8c7c3b925918386526008825260408620855f5282528060405f2055604051908152a380f35b60405162461bcd60e51b8152602060048201526011602482015270496e76616c6964207369676e617475726560781b6044820152606490fd5b149050825f610429565b634e487b7160e01b89526011600452602489fd5b60405162461bcd60e51b8152602060048201526007602482015266115e1c1a5c995960ca1b6044820152606490fd5b8580fd5b50346102905780600319360112610290576001546040516001600160a01b039091168152602090f35b5034610290578060031936011261029057600b546040516001600160a01b039091168152602090f35b50346102905760203660031901126102905761056a611999565b81546001546040516370a0823160e01b81523060048201526001600160a01b03918216939285921690602081602481855afa908115610247578391610725575b506020916105c76105fa926001600160701b036002541690611a87565b60405163a9059cbb60e01b81526001600160a01b0387166004820152602481019190915293849283919082906044820190565b03925af180156106fd57610708575b506040516370a0823160e01b8152306004820152602081602481865afa9081156106fd5784916106c7575b5090610689926106556020936001600160701b0360025460701c1690611a87565b60405163a9059cbb60e01b81526001600160a01b039093166004840152602483015290928391908290869082906044820190565b03925af180156102855761069b575080f35b6106bc9060203d6020116106c0575b6106b481836119c5565b810190611a6f565b5080f35b503d6106aa565b9190506020823d6020116106f5575b816106e3602093836119c5565b8101031261023b579051610689610634565b3d91506106d6565b6040513d86823e3d90fd5b6107209060203d6020116106c0576106b481836119c5565b610609565b9250506020823d602011610755575b81610741602093836119c5565b8101031261023b57905184919060206105aa565b3d9150610734565b503461029057806003193601126102905760206040516103e88152f35b50346102905780600319360112610290576020600d54604051908152f35b5034610290576040366003190112610290576107b2611999565b60406024359133845260076020528184206107ce848254611a87565b90556001600160a01b03168084526007602052922080546107f0908390611abb565b90556040519081525f80516020611e7583398151915260203392a3602060405160018152f35b5034610290578060031936011261029057506108586040516108396040826119c5565b60068152652aa72496ab1960d11b6020820152604051918291826119fb565b0390f35b503461029057602036600319011261029057610876611999565b604051630240bc6b60e21b81529091606082600481305afa928315610c555781928294610c62575b5081546001546040516370a0823160e01b81523060048201526001600160a01b03918216969190921693602083602481885afa928315610c55578193610c21575b506040516370a0823160e01b815230600482015296602088602481845afa958615610285578798839897610bea575b50308352600760205261094b61093f61093f6109446109328860408920549c611c4c565b986006549384918d611aa8565b611ac8565b9a8a611aa8565b9688151580610be1575b15610b9c578390308252600760205260408220610973828254611a87565b905561098181600654611a87565b6006556040519081525f80516020611e7583398151915260203092a360405163a9059cbb60e01b81526001600160a01b03871660048201526024810189905260208160448187865af180156106fd57610b7f575b5060405163a9059cbb60e01b81526001600160a01b03871660048201526024810188905260208160448187875af180156106fd579160209160249493610b64575b506040516370a0823160e01b815230600482015293849182905afa918215610247578392610b2f575b506020602491604051928380926370a0823160e01b82523060048301525afa928315610b235792610ae8575b5096610a7a9291604098611ae6565b610ac5575b83519083825282602083015260018060a01b0316907fdccd412f0b1252819cb1fd330b93224ca42612892bb3f4f789976e6d81936496853392a382519182526020820152f35b610ae06002546001600160701b03808260701c169116611aa8565b600555610a7f565b929150966020833d602011610b1b575b81610b05602093836119c5565b8101031261023b57915191969091906040610a6b565b3d9150610af8565b604051903d90823e3d90fd5b9091506020813d602011610b5c575b81610b4b602093836119c5565b8101031261023b5751906020610a3f565b3d9150610b3e565b610b7a90833d85116106c0576106b481836119c5565b610a16565b610b979060203d6020116106c0576106b481836119c5565b6109d5565b60405162461bcd60e51b815260206004820152601d60248201527f496e73756666696369656e74206c6971756964697479206275726e65640000006044820152606490fd5b50871515610955565b965096506020863d602011610c19575b81610c07602093836119c5565b8101031261023b57879551965f61090e565b3d9150610bfa565b9092506020813d602011610c4d575b81610c3d602093836119c5565b8101031261023b5751915f6108df565b3d9150610c30565b50604051903d90823e3d90fd5b909350610c8891925060603d606011610c93575b610c8081836119c5565b810190611a39565b50919091925f61089e565b503d610c76565b5034610290576020366003190112610290576020906040906001600160a01b03610cc2611999565b168152600a83522054604051908152f35b50346102905780600319360112610290576020600c54604051908152f35b50346102905780600319360112610290576020600554604051908152f35b5034610290576020366003190112610290576020906040906001600160a01b03610d37611999565b168152600783522054604051908152f35b503461029057602036600319011261029057610d62611999565b604051630240bc6b60e21b8152606081600481305afa801561024757926024929381928291610fe1575b5081546040516370a0823160e01b81523060048201529460209186919082906001600160a01b03165afa938415610285578294610fac575b506001546040516370a0823160e01b8152306004820152949590602090869060249082906001600160a01b03165afa948515610247578395610f78575b506001600160701b03841691610e178388611a87565b946001600160701b03821693610e2d8589611a87565b95610e388484611c4c565b95600654928984155f14610f4357610e5e939450610e599250899150611aa8565b611d80565b6103e719810191908211610f2f5750965b8715610eea57602098610e8589610e8a96611dd5565b611ae6565b610ec7575b604051918252838201527f4c209b5fc8ad50758f13e2e1088ba56a560dff690a1c6fef26394f4c03821c4f60403392a2604051908152f35b610ee26002546001600160701b03808260701c169116611aa8565b600555610e8f565b60405162461bcd60e51b815260206004820152601d60248201527f496e73756666696369656e74206c6971756964697479206d696e7465640000006044820152606490fd5b634e487b7160e01b81526011600452602490fd5b610f58610f5f939261093f8761093f94611aa8565b948a611aa8565b905080821015610f7157505b96610e6f565b9050610f6b565b9094506020813d602011610fa4575b81610f94602093836119c5565b8101031261023b5751935f610e01565b3d9150610f87565b93506020843d602011610fd9575b81610fc7602093836119c5565b8101031261023b576024935193610dc4565b3d9150610fba565b9050610ffd91925060603d606011610c9357610c8081836119c5565b509190915f610d8c565b50346102905780600319360112610290576020600454604051908152f35b50346102905780600319360112610290576020600354604051908152f35b50346102905760403660031901126102905761105d611999565b506106bc6119af565b50346102905780600319360112610290576020600954604051908152f35b5034610290578060031936011261029057602060405160128152f35b503461029057806003193601126102905760206040517f6e71edae12b1b97f4d1f60370fef10105fa2faae0126114a169c64845d6126c98152f35b5034610290576060366003190112610290576110f5611999565b5f80516020611e75833981519152602061110d6119af565b6001600160a01b03909316808552600882526040808620335f90815290845281902054919460443592600101611188575b85875260078452818720611153848254611a87565b90556001600160a01b03168087526007845295208054611174908390611abb565b9055604051908152a3602060405160018152f35b85875260088452818720335f90815290855282902080546111aa908590611a87565b905561113e565b5034610290576020366003190112610290576004356111d2600d5442611abb565b81106112125760407fff1bf99918d35d7dd5182e2a06f26aa0b7673c48538bb8ce407af50f4b4ab2ca91600c549080600c5582519182526020820152a180f35b632ca4094f60e21b8252600482fd5b50346102905780600319360112610290576020600654604051908152f35b5034610290578060031936011261029057546040516001600160a01b039091168152602090f35b503461029057604036600319011261029057611280611999565b60406024359233815260086020522060018060a01b0382165f526020528160405f205560405191825260018060a01b0316907f8c5be1e5ebec7d5bd14f71427d1e84f3dd0314c0f7b2291e5b200ac8c7c3b92560203392a3602060405160018152f35b50346102905780600319360112610290576060600254604051906001600160701b03811682526001600160701b038160701c16602083015260e01c6040820152f35b5034610290578060031936011261029057506108586040516113486040826119c5565b600f81526e26b7b1b5902ab734b9bbb0b8102b1960891b6020820152604051918291826119fb565b90503461023b57608036600319011261023b576044356001600160a01b038116916024359060043584840361023b5760643567ffffffffffffffff811161023b573660238201121561023b5780600401359267ffffffffffffffff841161023b57366024858401011161023b5782159081158092611990575b1561194e5750604051630240bc6b60e21b815290606082600481305afa9283156117c9575f925f94611926575b506001600160701b0383169586861080611914575b156118d6575f546001546001600160a01b039081169a911693908b851415806118cc575b1561189a578a91611838575b89806117d4575b5050508061173e575b505090602060249392604051948580926370a0823160e01b82523060048301525afa9283156116fc578993611707575b506020602497604051988980926370a0823160e01b82523060048301525afa9687156116fc5789976116c8575b506114d38486611a87565b8311156116c1576114ed6114e78587611a87565b84611a87565b965b6001600160701b038316956115048888611a87565b8211156116ba5761151e6115188989611a87565b83611a87565b965b89158015816116b1575b1561166c576103e887028781046103e814881517156116585760038c02918c83046003141715611658579061155e91611a87565b6103e884028481046103e814851517156116585760038a02908a82046003148b151715611644579161159761159d926115a39594611a87565b90611aa8565b92611aa8565b90620f4240820291808304620f424014901517156116305710611607576115c993611ae6565b6040519384526020840152604083015260608201527fd78ad95fa46c994b6551d0da85fc275fe613ce37657fb8d5e3d130840159d82260803392a380f35b60405162461bcd60e51b81526020600482015260016024820152604b60f81b6044820152606490fd5b634e487b7160e01b8c52601160045260248cfd5b634e487b7160e01b8f52601160045260248ffd5b634e487b7160e01b8e52601160045260248efd5b60405162461bcd60e51b815260206004820152601960248201527f496e73756666696369656e7420696e70757420616d6f756e74000000000000006044820152606490fd5b5088151561152a565b8a96611520565b88966114ef565b9096506020813d6020116116f4575b816116e4602093836119c5565b8101031261023b5751955f6114c8565b3d91506116d7565b6040513d8b823e3d90fd5b9692506020873d602011611736575b81611723602093836119c5565b8101031261023b5795519195602061149b565b3d9150611716565b893b1561023b5760249160a489835f9460405196879586946304347a1760e21b86523360048701528d8387015260448601526080606486015282608486015201848401378181018301859052601f01601f19168101030181838d5af180156117c9576117ab575b8061146b565b602493929199505f6117bc916119c5565b60205f99919293506117a5565b6040513d5f823e3d90fd5b60405163a9059cbb60e01b81526001600160a01b03929092166004830152602482015290602090829060449082905f905af180156117c957611819575b899089611462565b6118319060203d6020116106c0576106b481836119c5565b505f611811565b60405163a9059cbb60e01b81526001600160a01b03821660048201526024810189905291506020826044815f895af19182156117c9578b9261187b575b5061145b565b6118939060203d6020116106c0576106b481836119c5565b505f611875565b60405162461bcd60e51b815260206004820152600a602482015269496e76616c696420746f60b01b6044820152606490fd5b508a8c141561144f565b60405162461bcd60e51b8152602060048201526016602482015275496e73756666696369656e74206c697175696469747960501b6044820152606490fd5b506001600160701b038516881061142b565b90935061194391925060603d606011610c9357610c8081836119c5565b50919091925f611416565b62461bcd60e51b815260206004820152601a60248201527f496e73756666696369656e74206f757470757420616d6f756e740000000000006044820152606490fd5b508515156113e9565b600435906001600160a01b038216820361023b57565b602435906001600160a01b038216820361023b57565b90601f8019910116810190811067ffffffffffffffff8211176119e757604052565b634e487b7160e01b5f52604160045260245ffd5b602060409281835280519182918282860152018484015e5f828201840152601f01601f1916010190565b51906001600160701b038216820361023b57565b9081606091031261023b57611a4d81611a25565b916040611a5c60208401611a25565b92015163ffffffff8116810361023b5790565b9081602091031261023b5751801515810361023b5790565b91908203918211611a9457565b634e487b7160e01b5f52601160045260245ffd5b81810292918115918404141715611a9457565b91908201809211611a9457565b8115611ad2570490565b634e487b7160e01b5f52601260045260245ffd5b926001600160701b0384111580611c3b575b15611c0b5760025460e01c63ffffffff42160363ffffffff8111611a94577f1c411e9a96e071241c2f21f7726b17ae89e3cab4c78be50e062b03a9fffbbad1946040946001600160701b039363ffffffff85941680151580611c00575b80611bf5575b611b94575b50505016918263ffffffff60e01b4260e01b16918360701b9060701b16171780600255835192835260701c166020820152a1565b611bea92611be292611bbf90611bcd611bc5856001600160e01b038587611bba87611e20565b611e56565b16611aa8565b600354611abb565b6003556001600160e01b0392611bba90611e20565b600454611abb565b6004555f8080611b60565b508482161515611b5b565b508483161515611b55565b60405162461bcd60e51b81526020600482015260086024820152674f766572666c6f7760c01b6044820152606490fd5b506001600160701b03821115611af8565b600b54604051622fcfcb60e31b81529293929190602090839060049082906001600160a01b03165afa9182156117c9575f92611d3c575b506005546001600160a01b03831615801595919290611d2c5782611ca8575b50505050565b610e59611cc4916001600160701b0380611cca95169116611aa8565b91611d80565b90818111611cd9575b80611ca2565b611ce96006546115978484611a87565b90600581029080820460051490151715611a9457611d1092611d0a91611abb565b90611ac8565b80611d1c575b80611cd3565b611d2591611dd5565b5f80611d16565b50509050611d3657565b5f600555565b9091506020813d602011611d78575b81611d58602093836119c5565b8101031261023b57516001600160a01b038116810361023b57905f611c83565b3d9150611d4b565b905f6003831115611dc85750818060011c60018101809111611a9457905b838210611da9575050565b909250611dbf83611dba8184611ac8565b611abb565b60011c90611d9e565b91611dcf57565b60019150565b5f80516020611e7583398151915260205f92611df385600654611abb565b60065560018060a01b0316938484526007825260408420611e15828254611abb565b9055604051908152a3565b6dffffffffffffffffffffffffffff60701b607082901b16906001600160701b0316808204600160701b1490151715611a945790565b906001600160701b0316908115611ad2576001600160e01b0316049056feddf252ad1be2c89b69c2b068fc378daa952ba7f163c4a11628f55a4df523b3efa26469706673582212208eb1408c2ffc5b876207f6bcfc4b65110cd0a5975f3913483f88ac3ceb31d4c264736f6c634300081a0033","linkReferences":{}},"methodIdentifiers":{"DOMAIN_SEPARATOR()":"3644e515","MINIMUM_LIQUIDITY()":"ba9a7a56","PERMIT_TYPEHASH()":"30adf81f","allowance(address,address)":"dd62ed3e","approve(address,uint256)":"095ea7b3","balanceOf(address)":"70a08231","burn(address)":"89afcb44","decimals()":"313ce567","factory()":"c45a0155","getReserves()":"0902f1ac","initialize(address,address)":"485cc955","kLast()":"7464fc3d","mint(address)":"6a627842","name()":"06fdde03","nonces(address)":"7ecebe00","permit(address,address,uint256,uint256,uint8,bytes32,bytes32)":"d505accf","price0CumulativeLast()":"5909c0d5","price1CumulativeLast()":"5a3d5493","resetTime(uint256)":"1eb305b1","skim(address)":"bc25cf77","startTime()":"78e97925","startTimeDelay()":"ab54e3b8","swap(uint256,uint256,address,bytes)":"022c0d9f","symbol()":"95d89b41","sync()":"fff6cae9","token0()":"0dfe1681","token1()":"d21220a7","totalSupply()":"18160ddd","transfer(address,uint256)":"a9059cbb","transferFrom(address,address,uint256)":"23b872dd"},"id":56}