{"abi":[{"type":"constructor","inputs":[],"stateMutability":"nonpayable"},{"type":"function","name":"ADMIN_ROLE","inputs":[],"outputs":[{"name":"","type":"bytes32","internalType":"bytes32"}],"stateMutability":"view"},{"type":"function","name":"DEFAULT_ADMIN_ROLE","inputs":[],"outputs":[{"name":"","type":"bytes32","internalType":"bytes32"}],"stateMutability":"view"},{"type":"function","name":"EXECUTOR_ROLE","inputs":[],"outputs":[{"name":"","type":"bytes32","internalType":"bytes32"}],"stateMutability":"view"},{"type":"function","name":"getRoleAdmin","inputs":[{"name":"role","type":"bytes32","internalType":"bytes32"}],"outputs":[{"name":"","type":"bytes32","internalType":"bytes32"}],"stateMutability":"view"},{"type":"function","name":"grantRole","inputs":[{"name":"role","type":"bytes32","internalType":"bytes32"},{"name":"account","type":"address","internalType":"address"}],"outputs":[],"stateMutability":"nonpayable"},{"type":"function","name":"hasRole","inputs":[{"name":"role","type":"bytes32","internalType":"bytes32"},{"name":"account","type":"address","internalType":"address"}],"outputs":[{"name":"","type":"bool","internalType":"bool"}],"stateMutability":"view"},{"type":"function","name":"initialize","inputs":[{"name":"defaultAdmin_","type":"address","internalType":"address"},{"name":"taxToken_","type":"address","internalType":"address"}],"outputs":[],"stateMutability":"nonpayable"},{"type":"function","name":"manualRefund","inputs":[{"name":"txhash","type":"bytes32","internalType":"bytes32"},{"name":"recipient","type":"address","internalType":"address"},{"name":"amount","type":"uint256","internalType":"uint256"}],"outputs":[],"stateMutability":"nonpayable"},{"type":"function","name":"refund","inputs":[{"name":"recipient","type":"address","internalType":"address"},{"name":"txhashes","type":"bytes32[]","internalType":"bytes32[]"},{"name":"amounts","type":"uint256[]","internalType":"uint256[]"}],"outputs":[],"stateMutability":"nonpayable"},{"type":"function","name":"refunds","inputs":[{"name":"txhash","type":"bytes32","internalType":"bytes32"}],"outputs":[{"name":"amount","type":"uint256","internalType":"uint256"}],"stateMutability":"view"},{"type":"function","name":"renounceRole","inputs":[{"name":"role","type":"bytes32","internalType":"bytes32"},{"name":"callerConfirmation","type":"address","internalType":"address"}],"outputs":[],"stateMutability":"nonpayable"},{"type":"function","name":"revokeRole","inputs":[{"name":"role","type":"bytes32","internalType":"bytes32"},{"name":"account","type":"address","internalType":"address"}],"outputs":[],"stateMutability":"nonpayable"},{"type":"function","name":"supportsInterface","inputs":[{"name":"interfaceId","type":"bytes4","internalType":"bytes4"}],"outputs":[{"name":"","type":"bool","internalType":"bool"}],"stateMutability":"view"},{"type":"function","name":"taxToken","inputs":[],"outputs":[{"name":"","type":"address","internalType":"address"}],"stateMutability":"view"},{"type":"function","name":"withdraw","inputs":[{"name":"token","type":"address","internalType":"address"}],"outputs":[],"stateMutability":"nonpayable"},{"type":"event","name":"Initialized","inputs":[{"name":"version","type":"uint64","indexed":false,"internalType":"uint64"}],"anonymous":false},{"type":"event","name":"RoleAdminChanged","inputs":[{"name":"role","type":"bytes32","indexed":true,"internalType":"bytes32"},{"name":"previousAdminRole","type":"bytes32","indexed":true,"internalType":"bytes32"},{"name":"newAdminRole","type":"bytes32","indexed":true,"internalType":"bytes32"}],"anonymous":false},{"type":"event","name":"RoleGranted","inputs":[{"name":"role","type":"bytes32","indexed":true,"internalType":"bytes32"},{"name":"account","type":"address","indexed":true,"internalType":"address"},{"name":"sender","type":"address","indexed":true,"internalType":"address"}],"anonymous":false},{"type":"event","name":"RoleRevoked","inputs":[{"name":"role","type":"bytes32","indexed":true,"internalType":"bytes32"},{"name":"account","type":"address","indexed":true,"internalType":"address"},{"name":"sender","type":"address","indexed":true,"internalType":"address"}],"anonymous":false},{"type":"event","name":"TaxRefunded","inputs":[{"name":"txhash","type":"bytes32","indexed":true,"internalType":"bytes32"},{"name":"recipient","type":"address","indexed":false,"internalType":"address"},{"name":"amount","type":"uint256","indexed":false,"internalType":"uint256"}],"anonymous":false},{"type":"error","name":"AccessControlBadConfirmation","inputs":[]},{"type":"error","name":"AccessControlUnauthorizedAccount","inputs":[{"name":"account","type":"address","internalType":"address"},{"name":"neededRole","type":"bytes32","internalType":"bytes32"}]},{"type":"error","name":"AddressEmptyCode","inputs":[{"name":"target","type":"address","internalType":"address"}]},{"type":"error","name":"AddressInsufficientBalance","inputs":[{"name":"account","type":"address","internalType":"address"}]},{"type":"error","name":"FailedInnerCall","inputs":[]},{"type":"error","name":"InvalidInitialization","inputs":[]},{"type":"error","name":"NotInitializing","inputs":[]},{"type":"error","name":"SafeERC20FailedOperation","inputs":[{"name":"token","type":"address","internalType":"address"}]},{"type":"error","name":"TxHashExists","inputs":[{"name":"txhash","type":"bytes32","internalType":"bytes32"}]}],"bytecode":{"object":"0x6080806040523460d0577ff0c57e16840df040f15088dc2f81fe391c3923bec73e23a9662efc9c229c6a005460ff8160401c1660c1576002600160401b03196001600160401b03821601605c575b604051610e2d90816100d58239f35b6001600160401b0319166001600160401b039081177ff0c57e16840df040f15088dc2f81fe391c3923bec73e23a9662efc9c229c6a005581527fc7f505b2f371ae2175ee4913f4499e1f2633a7b5936321eed1cdaeb6115181d290602090a15f80604d565b63f92ee8a960e01b5f5260045ffd5b5f80fdfe6080806040526004361015610012575f80fd5b5f3560e01c90816301ffc9a7146107ce5750806307bd0265146107945780631fc928ae1461076d578063248a9ca3146107475780632c643495146106f45780632f2ff15d146106c357806336568abe1461067f578063485cc955146104e757806351cff8d9146104455780635faf133b146101d057806375b238fc146101965780638a1727531461016c57806391d1485414610117578063a217fddf146100fd5763d547741f146100c1575f80fd5b346100f95760403660031901126100f9576100f76004356100e0610821565b906100f26100ed8261089b565b610971565b610cbd565b005b5f80fd5b346100f9575f3660031901126100f95760206040515f8152f35b346100f95760403660031901126100f957610130610821565b6004355f525f80516020610db883398151915260205260405f209060018060a01b03165f52602052602060ff60405f2054166040519015158152f35b346100f95760203660031901126100f9576004355f526001602052602060405f2054604051908152f35b346100f9575f3660031901126100f95760206040517fa49807205ce4d355092ef5a8a18f56e8913cf4a201fbe287825b095693c217758152f35b346100f95760603660031901126100f9576101e9610837565b60243567ffffffffffffffff81116100f957366023820112156100f95780600401359061021582610883565b91610223604051938461084d565b8083526024602084019160051b830101913683116100f957602401905b828210610435575050506044359167ffffffffffffffff83116100f957366023840112156100f95782600401359261027784610883565b93610285604051958661084d565b8085526024602086019160051b830101913683116100f957602401905b828210610425575050335f9081527f52fce5e8a5d0d9e8d1ea29f4525e512e9c27bf92cae50374d497f918ab48f382602052604090205460ff161590506103ee5781518351036103b6575f905f5b835181101561039e5761030381856108da565b5161030e82876108da565b5193815f52600160205260405f205461038b57907f8caa0bc1de0055956cd35e5310bb938c106726d05009de06ce9881975b49e6f96103826103608760019695855f52876020528160405f20556108b9565b604080516001600160a01b038916815260208101999099529097918291820190565b0390a2016102f0565b506374e8729760e11b5f5260045260245ffd5b5f546100f790849084906001600160a01b03166109b7565b60405162461bcd60e51b815260206004820152601060248201526f556e6d61746368656420696e7075747360801b6044820152606490fd5b63e2517d3f60e01b5f52336004527fd8aa0f3194971a2a116679f7c2090f6939c8d4e01a2a8d7e41d55e5351469e6360245260445ffd5b81358152602091820191016102a2565b8135815260209182019101610240565b346100f95760203660031901126100f95761045e610837565b610466610902565b6040516370a0823160e01b8152306004820152906001600160a01b0316602082602481845afa9081156104dc575f916104a6575b6100f7925033906109b7565b90506020823d6020116104d4575b816104c16020938361084d565b810103126100f9576100f791519061049a565b3d91506104b4565b6040513d5f823e3d90fd5b346100f95760403660031901126100f957610500610837565b610508610821565b5f80516020610dd8833981519152549160ff8360401c16159267ffffffffffffffff811680159081610677575b600114908161066d575b159081610664575b506106555767ffffffffffffffff1981166001175f80516020610dd88339815191525583610629575b5060ff5f80516020610dd88339815191525460401c161561061a578061059861059e92610a9e565b50610b4d565b5060018060a01b03166bffffffffffffffffffffffff60a01b5f5416175f556105c357005b68ff0000000000000000195f80516020610dd883398151915254165f80516020610dd8833981519152557fc7f505b2f371ae2175ee4913f4499e1f2633a7b5936321eed1cdaeb6115181d2602060405160018152a1005b631afcd79f60e31b5f5260045ffd5b68ffffffffffffffffff191668010000000000000001175f80516020610dd88339815191525583610570565b63f92ee8a960e01b5f5260045ffd5b90501585610547565b303b15915061053f565b859150610535565b346100f95760403660031901126100f957610698610821565b336001600160a01b038216036106b4576100f790600435610cbd565b63334bd91960e11b5f5260045ffd5b346100f95760403660031901126100f9576100f76004356106e2610821565b906106ef6100ed8261089b565b610c19565b346100f95760603660031901126100f9576100f7610710610821565b6044359061071c610902565b6004355f52600160205260405f206107358382546108b9565b90555f546001600160a01b03166109b7565b346100f95760203660031901126100f957602061076560043561089b565b604051908152f35b346100f9575f3660031901126100f9575f546040516001600160a01b039091168152602090f35b346100f9575f3660031901126100f95760206040517fd8aa0f3194971a2a116679f7c2090f6939c8d4e01a2a8d7e41d55e5351469e638152f35b346100f95760203660031901126100f9576004359063ffffffff60e01b82168092036100f957602091637965db0b60e01b8114908115610810575b5015158152f35b6301ffc9a760e01b14905083610809565b602435906001600160a01b03821682036100f957565b600435906001600160a01b03821682036100f957565b90601f8019910116810190811067ffffffffffffffff82111761086f57604052565b634e487b7160e01b5f52604160045260245ffd5b67ffffffffffffffff811161086f5760051b60200190565b5f525f80516020610db8833981519152602052600160405f20015490565b919082018092116108c657565b634e487b7160e01b5f52601160045260245ffd5b80518210156108ee5760209160051b010190565b634e487b7160e01b5f52603260045260245ffd5b335f9081527fb16e88c42fd4e48df2dd6a2eabd6bc9aec654ec170056b470819f8892cc6431c602052604090205460ff161561093a57565b63e2517d3f60e01b5f52336004527fa49807205ce4d355092ef5a8a18f56e8913cf4a201fbe287825b095693c2177560245260445ffd5b5f8181525f80516020610db88339815191526020908152604080832033845290915290205460ff16156109a15750565b63e2517d3f60e01b5f523360045260245260445ffd5b60405163a9059cbb60e01b602082019081526001600160a01b039390931660248201526044808201949094529283525f9182916109f560648661084d565b60018060a01b031693519082855af13d15610a92573d67ffffffffffffffff811161086f57610a469160405191610a366020601f19601f840116018461084d565b82523d5f602084013e5b83610d59565b8051908115159182610a6e575b5050610a5c5750565b635274afe760e01b5f5260045260245ffd5b81925090602091810103126100f957602001518015908115036100f9575f80610a53565b610a4690606090610a40565b6001600160a01b0381165f9081527fb7db2dd08fcb62d0c9e08c51941cae53c267786a0b75803fb7960902fc8ef97d602052604090205460ff16610b48576001600160a01b03165f8181527fb7db2dd08fcb62d0c9e08c51941cae53c267786a0b75803fb7960902fc8ef97d60205260408120805460ff191660011790553391907f2f8788117e7eff1d82e926ec794901d17c78024a50270940304540a733656f0d8180a4600190565b505f90565b6001600160a01b0381165f9081527fb16e88c42fd4e48df2dd6a2eabd6bc9aec654ec170056b470819f8892cc6431c602052604090205460ff16610b48576001600160a01b03165f8181527fb16e88c42fd4e48df2dd6a2eabd6bc9aec654ec170056b470819f8892cc6431c60205260408120805460ff191660011790553391907fa49807205ce4d355092ef5a8a18f56e8913cf4a201fbe287825b095693c21775907f2f8788117e7eff1d82e926ec794901d17c78024a50270940304540a733656f0d9080a4600190565b5f8181525f80516020610db8833981519152602090815260408083206001600160a01b038616845290915290205460ff16610cb7575f8181525f80516020610db8833981519152602090815260408083206001600160a01b0395909516808452949091528120805460ff19166001179055339291907f2f8788117e7eff1d82e926ec794901d17c78024a50270940304540a733656f0d9080a4600190565b50505f90565b5f8181525f80516020610db8833981519152602090815260408083206001600160a01b038616845290915290205460ff1615610cb7575f8181525f80516020610db8833981519152602090815260408083206001600160a01b0395909516808452949091528120805460ff19169055339291907ff6391f5c32d9c69d2a47ea670b442974b53935d1edc7fd64eb21e047a839171b9080a4600190565b90610d7d5750805115610d6e57805190602001fd5b630a12f52160e11b5f5260045ffd5b81511580610dae575b610d8e575090565b639996b31560e01b5f9081526001600160a01b0391909116600452602490fd5b50803b15610d8656fe02dd7bc7dec4dceedda775e58dd541e08a116c6c53815c0bd028192f7b626800f0c57e16840df040f15088dc2f81fe391c3923bec73e23a9662efc9c229c6a00a26469706673582212202416bd0db96c09991a8f386bfa7b916e7c5c45b1f9dd9d152e82b751e807babf64736f6c634300081a0033","linkReferences":{}},"methodIdentifiers":{"ADMIN_ROLE()":"75b238fc","DEFAULT_ADMIN_ROLE()":"a217fddf","EXECUTOR_ROLE()":"07bd0265","getRoleAdmin(bytes32)":"248a9ca3","grantRole(bytes32,address)":"2f2ff15d","hasRole(bytes32,address)":"91d14854","initialize(address,address)":"485cc955","manualRefund(bytes32,address,uint256)":"2c643495","refund(address,bytes32[],uint256[])":"5faf133b","refunds(bytes32)":"8a172753","renounceRole(bytes32,address)":"36568abe","revokeRole(bytes32,address)":"d547741f","supportsInterface(bytes4)":"01ffc9a7","taxToken()":"1fc928ae","withdraw(address)":"51cff8d9"},"id":80}