{"abi":[{"type":"constructor","inputs":[{"name":"initialOwner","type":"address","internalType":"address"}],"stateMutability":"nonpayable"},{"type":"function","name":"CLOCK_MODE","inputs":[],"outputs":[{"name":"","type":"string","internalType":"string"}],"stateMutability":"view"},{"type":"function","name":"DOMAIN_SEPARATOR","inputs":[],"outputs":[{"name":"","type":"bytes32","internalType":"bytes32"}],"stateMutability":"view"},{"type":"function","name":"allowance","inputs":[{"name":"owner","type":"address","internalType":"address"},{"name":"spender","type":"address","internalType":"address"}],"outputs":[{"name":"","type":"uint256","internalType":"uint256"}],"stateMutability":"view"},{"type":"function","name":"approve","inputs":[{"name":"","type":"address","internalType":"address"},{"name":"","type":"uint256","internalType":"uint256"}],"outputs":[{"name":"","type":"bool","internalType":"bool"}],"stateMutability":"nonpayable"},{"type":"function","name":"balanceOf","inputs":[{"name":"account","type":"address","internalType":"address"}],"outputs":[{"name":"","type":"uint256","internalType":"uint256"}],"stateMutability":"view"},{"type":"function","name":"checkpoints","inputs":[{"name":"account","type":"address","internalType":"address"},{"name":"pos","type":"uint32","internalType":"uint32"}],"outputs":[{"name":"","type":"tuple","internalType":"struct Checkpoints.Checkpoint208","components":[{"name":"_key","type":"uint48","internalType":"uint48"},{"name":"_value","type":"uint208","internalType":"uint208"}]}],"stateMutability":"view"},{"type":"function","name":"clock","inputs":[],"outputs":[{"name":"","type":"uint48","internalType":"uint48"}],"stateMutability":"view"},{"type":"function","name":"decimals","inputs":[],"outputs":[{"name":"","type":"uint8","internalType":"uint8"}],"stateMutability":"view"},{"type":"function","name":"delegate","inputs":[{"name":"delegatee","type":"address","internalType":"address"}],"outputs":[],"stateMutability":"nonpayable"},{"type":"function","name":"delegateBySig","inputs":[{"name":"delegatee","type":"address","internalType":"address"},{"name":"nonce","type":"uint256","internalType":"uint256"},{"name":"expiry","type":"uint256","internalType":"uint256"},{"name":"v","type":"uint8","internalType":"uint8"},{"name":"r","type":"bytes32","internalType":"bytes32"},{"name":"s","type":"bytes32","internalType":"bytes32"}],"outputs":[],"stateMutability":"nonpayable"},{"type":"function","name":"delegates","inputs":[{"name":"account","type":"address","internalType":"address"}],"outputs":[{"name":"","type":"address","internalType":"address"}],"stateMutability":"view"},{"type":"function","name":"eip712Domain","inputs":[],"outputs":[{"name":"fields","type":"bytes1","internalType":"bytes1"},{"name":"name","type":"string","internalType":"string"},{"name":"version","type":"string","internalType":"string"},{"name":"chainId","type":"uint256","internalType":"uint256"},{"name":"verifyingContract","type":"address","internalType":"address"},{"name":"salt","type":"bytes32","internalType":"bytes32"},{"name":"extensions","type":"uint256[]","internalType":"uint256[]"}],"stateMutability":"view"},{"type":"function","name":"getPastTotalSupply","inputs":[{"name":"timepoint","type":"uint256","internalType":"uint256"}],"outputs":[{"name":"","type":"uint256","internalType":"uint256"}],"stateMutability":"view"},{"type":"function","name":"getPastVotes","inputs":[{"name":"account","type":"address","internalType":"address"},{"name":"timepoint","type":"uint256","internalType":"uint256"}],"outputs":[{"name":"","type":"uint256","internalType":"uint256"}],"stateMutability":"view"},{"type":"function","name":"getVotes","inputs":[{"name":"account","type":"address","internalType":"address"}],"outputs":[{"name":"","type":"uint256","internalType":"uint256"}],"stateMutability":"view"},{"type":"function","name":"name","inputs":[],"outputs":[{"name":"","type":"string","internalType":"string"}],"stateMutability":"view"},{"type":"function","name":"nonces","inputs":[{"name":"owner","type":"address","internalType":"address"}],"outputs":[{"name":"","type":"uint256","internalType":"uint256"}],"stateMutability":"view"},{"type":"function","name":"numCheckpoints","inputs":[{"name":"account","type":"address","internalType":"address"}],"outputs":[{"name":"","type":"uint32","internalType":"uint32"}],"stateMutability":"view"},{"type":"function","name":"oracleTransfer","inputs":[{"name":"froms","type":"address[]","internalType":"address[]"},{"name":"tos","type":"address[]","internalType":"address[]"},{"name":"values","type":"uint256[]","internalType":"uint256[]"}],"outputs":[{"name":"","type":"bool","internalType":"bool"}],"stateMutability":"nonpayable"},{"type":"function","name":"owner","inputs":[],"outputs":[{"name":"","type":"address","internalType":"address"}],"stateMutability":"view"},{"type":"function","name":"permit","inputs":[{"name":"owner","type":"address","internalType":"address"},{"name":"spender","type":"address","internalType":"address"},{"name":"value","type":"uint256","internalType":"uint256"},{"name":"deadline","type":"uint256","internalType":"uint256"},{"name":"v","type":"uint8","internalType":"uint8"},{"name":"r","type":"bytes32","internalType":"bytes32"},{"name":"s","type":"bytes32","internalType":"bytes32"}],"outputs":[],"stateMutability":"nonpayable"},{"type":"function","name":"renounceOwnership","inputs":[],"outputs":[],"stateMutability":"nonpayable"},{"type":"function","name":"symbol","inputs":[],"outputs":[{"name":"","type":"string","internalType":"string"}],"stateMutability":"view"},{"type":"function","name":"totalSupply","inputs":[],"outputs":[{"name":"","type":"uint256","internalType":"uint256"}],"stateMutability":"view"},{"type":"function","name":"transfer","inputs":[{"name":"","type":"address","internalType":"address"},{"name":"","type":"uint256","internalType":"uint256"}],"outputs":[{"name":"","type":"bool","internalType":"bool"}],"stateMutability":"nonpayable"},{"type":"function","name":"transferFrom","inputs":[{"name":"","type":"address","internalType":"address"},{"name":"","type":"address","internalType":"address"},{"name":"","type":"uint256","internalType":"uint256"}],"outputs":[{"name":"","type":"bool","internalType":"bool"}],"stateMutability":"nonpayable"},{"type":"function","name":"transferOwnership","inputs":[{"name":"newOwner","type":"address","internalType":"address"}],"outputs":[],"stateMutability":"nonpayable"},{"type":"event","name":"Approval","inputs":[{"name":"owner","type":"address","indexed":true,"internalType":"address"},{"name":"spender","type":"address","indexed":true,"internalType":"address"},{"name":"value","type":"uint256","indexed":false,"internalType":"uint256"}],"anonymous":false},{"type":"event","name":"DelegateChanged","inputs":[{"name":"delegator","type":"address","indexed":true,"internalType":"address"},{"name":"fromDelegate","type":"address","indexed":true,"internalType":"address"},{"name":"toDelegate","type":"address","indexed":true,"internalType":"address"}],"anonymous":false},{"type":"event","name":"DelegateVotesChanged","inputs":[{"name":"delegate","type":"address","indexed":true,"internalType":"address"},{"name":"previousVotes","type":"uint256","indexed":false,"internalType":"uint256"},{"name":"newVotes","type":"uint256","indexed":false,"internalType":"uint256"}],"anonymous":false},{"type":"event","name":"EIP712DomainChanged","inputs":[],"anonymous":false},{"type":"event","name":"OwnershipTransferred","inputs":[{"name":"previousOwner","type":"address","indexed":true,"internalType":"address"},{"name":"newOwner","type":"address","indexed":true,"internalType":"address"}],"anonymous":false},{"type":"event","name":"Transfer","inputs":[{"name":"from","type":"address","indexed":true,"internalType":"address"},{"name":"to","type":"address","indexed":true,"internalType":"address"},{"name":"value","type":"uint256","indexed":false,"internalType":"uint256"}],"anonymous":false},{"type":"error","name":"CheckpointUnorderedInsertion","inputs":[]},{"type":"error","name":"ECDSAInvalidSignature","inputs":[]},{"type":"error","name":"ECDSAInvalidSignatureLength","inputs":[{"name":"length","type":"uint256","internalType":"uint256"}]},{"type":"error","name":"ECDSAInvalidSignatureS","inputs":[{"name":"s","type":"bytes32","internalType":"bytes32"}]},{"type":"error","name":"ERC20ExceededSafeSupply","inputs":[{"name":"increasedSupply","type":"uint256","internalType":"uint256"},{"name":"cap","type":"uint256","internalType":"uint256"}]},{"type":"error","name":"ERC20InsufficientAllowance","inputs":[{"name":"spender","type":"address","internalType":"address"},{"name":"allowance","type":"uint256","internalType":"uint256"},{"name":"needed","type":"uint256","internalType":"uint256"}]},{"type":"error","name":"ERC20InsufficientBalance","inputs":[{"name":"sender","type":"address","internalType":"address"},{"name":"balance","type":"uint256","internalType":"uint256"},{"name":"needed","type":"uint256","internalType":"uint256"}]},{"type":"error","name":"ERC20InvalidApprover","inputs":[{"name":"approver","type":"address","internalType":"address"}]},{"type":"error","name":"ERC20InvalidReceiver","inputs":[{"name":"receiver","type":"address","internalType":"address"}]},{"type":"error","name":"ERC20InvalidSender","inputs":[{"name":"sender","type":"address","internalType":"address"}]},{"type":"error","name":"ERC20InvalidSpender","inputs":[{"name":"spender","type":"address","internalType":"address"}]},{"type":"error","name":"ERC2612ExpiredSignature","inputs":[{"name":"deadline","type":"uint256","internalType":"uint256"}]},{"type":"error","name":"ERC2612InvalidSigner","inputs":[{"name":"signer","type":"address","internalType":"address"},{"name":"owner","type":"address","internalType":"address"}]},{"type":"error","name":"ERC5805FutureLookup","inputs":[{"name":"timepoint","type":"uint256","internalType":"uint256"},{"name":"clock","type":"uint48","internalType":"uint48"}]},{"type":"error","name":"ERC6372InconsistentClock","inputs":[]},{"type":"error","name":"InvalidAccountNonce","inputs":[{"name":"account","type":"address","internalType":"address"},{"name":"currentNonce","type":"uint256","internalType":"uint256"}]},{"type":"error","name":"InvalidShortString","inputs":[]},{"type":"error","name":"OwnableInvalidOwner","inputs":[{"name":"owner","type":"address","internalType":"address"}]},{"type":"error","name":"OwnableUnauthorizedAccount","inputs":[{"name":"account","type":"address","internalType":"address"}]},{"type":"error","name":"SafeCastOverflowedUintDowncast","inputs":[{"name":"bits","type":"uint8","internalType":"uint8"},{"name":"value","type":"uint256","internalType":"uint256"}]},{"type":"error","name":"StringTooLong","inputs":[{"name":"str","type":"string","internalType":"string"}]},{"type":"error","name":"VotesExpiredSignature","inputs":[{"name":"expiry","type":"uint256","internalType":"uint256"}]}],"bytecode":{"object":"0x61016080604052346104e8576020816126a6803803809161002082856104ec565b8339810103126104e857516001600160a01b038116908190036104e85760405161004b6040826104ec565b60178152602081017f5669727475616c2050726f746f636f6c20566f74696e670000000000000000008152604051906100856040836104ec565b601782527f5669727475616c2050726f746f636f6c20566f74696e670000000000000000006020830152604051926100be6040856104ec565b60098452681d995592549515505360ba1b6020850152604051936100e36040866104ec565b60018552603160f81b60208601908152845190946001600160401b0382116103eb5760035490600182811c921680156104de575b60208310146103cd5781601f849311610470575b50602090601f831160011461040a575f926103ff575b50508160011b915f199060031b1c1916176003555b8051906001600160401b0382116103eb5760045490600182811c921680156103e1575b60208310146103cd5781601f84931161035f575b50602090601f83116001146102f9575f926102ee575b50508160011b915f199060031b1c1916176004555b6101c18161050f565b610120526101ce84610696565b61014052519020918260e05251902080610100524660a0526040519060208201927f8b73c3c69bb8fe3d512ecc4cf759cc79239f7b179b0ffacaa9a75d522b39400f8452604083015260608201524660808201523060a082015260a0815261023760c0826104ec565b5190206080523060c05280156102db57600b80546001600160a01b03198116831790915560405191906001600160a01b03167f8be0079c531659141344cd1fd0a4f28419497f9722a3daafe3b4186f6b6457e05f80a3611ed790816107cf8239608051816111aa015260a05181611267015260c05181611174015260e051816111f90152610100518161121f01526101205181610880015261014051816108a90152f35b631e4fbdf760e01b5f525f60045260245ffd5b015190505f806101a3565b60045f9081528281209350601f198516905b818110610347575090846001959493921061032f575b505050811b016004556101b8565b01515f1960f88460031b161c191690555f8080610321565b9293602060018192878601518155019501930161030b565b60045f529091507f8a35acfbc15ff81a39ae7d344fd709f28e8600b4aa8c65c6b64bfe7fe36bd19b601f840160051c810191602085106103c3575b90601f859493920160051c01905b8181106103b5575061018d565b5f81558493506001016103a8565b909150819061039a565b634e487b7160e01b5f52602260045260245ffd5b91607f1691610179565b634e487b7160e01b5f52604160045260245ffd5b015190505f80610141565b60035f9081528281209350601f198516905b8181106104585750908460019594939210610440575b505050811b01600355610156565b01515f1960f88460031b161c191690555f8080610432565b9293602060018192878601518155019501930161041c565b60035f529091507fc2575a0e9e593c00f959f8c92f12db2869c3395a3b0502d05e2516446f71f85b601f840160051c810191602085106104d4575b90601f859493920160051c01905b8181106104c6575061012b565b5f81558493506001016104b9565b90915081906104ab565b91607f1691610117565b5f80fd5b601f909101601f19168101906001600160401b038211908210176103eb57604052565b908151602081105f14610589575090601f81511161054957602081519101516020821061053a571790565b5f198260200360031b1b161790565b604460209160405192839163305a27a960e01b83528160048401528051918291826024860152018484015e5f828201840152601f01601f19168101030190fd5b6001600160401b0381116103eb57600554600181811c9116801561068c575b60208210146103cd57601f8111610659575b50602092601f82116001146105f857928192935f926105ed575b50508160011b915f199060031b1c19161760055560ff90565b015190505f806105d4565b601f1982169360055f52805f20915f5b8681106106415750836001959610610629575b505050811b0160055560ff90565b01515f1960f88460031b161c191690555f808061061b565b91926020600181928685015181550194019201610608565b60055f52601f60205f20910160051c810190601f830160051c015b81811061068157506105ba565b5f8155600101610674565b90607f16906105a8565b908151602081105f146106c1575090601f81511161054957602081519101516020821061053a571790565b6001600160401b0381116103eb57600654600181811c911680156107c4575b60208210146103cd57601f8111610791575b50602092601f821160011461073057928192935f92610725575b50508160011b915f199060031b1c19161760065560ff90565b015190505f8061070c565b601f1982169360065f52805f20915f5b8681106107795750836001959610610761575b505050811b0160065560ff90565b01515f1960f88460031b161c191690555f8080610753565b91926020600181928685015181550194019201610740565b60065f52601f60205f20910160051c810190601f830160051c015b8181106107b957506106f2565b5f81556001016107ac565b90607f16906106e056fe60806040526004361015610011575f80fd5b5f3560e01c806306fdde03146101c4578063095ea7b3146101bf57806318160ddd146101ba57806323b872dd146101b5578063313ce567146101b05780633644e515146101ab5780633a46b1a8146101a65780634bf5d7e9146101a1578063587cde1e1461019c5780635c19a95c146101975780636fcfff451461019257806370a082311461018d578063715018a6146101885780637ab7c65d146101835780637ecebe001461017e57806384b0196e146101795780638da5cb5b146101745780638e539e8c1461016f57806391ddadf41461016a57806395d89b41146101655780639ab24eb014610160578063a9059cbb1461015b578063c3cda52014610156578063d505accf14610151578063dd62ed3e1461014c578063f1127ed8146101475763f2fde38b14610142575f80fd5b610ef7565b610e60565b610e09565b610ce5565b610bd6565b610b9d565b610b56565b610ab1565b610a86565b61098d565b610965565b610868565b610830565b610750565b610607565b6105cf565b61056d565b610549565b610509565b610479565b6103e4565b6103c2565b6103a7565b61037f565b610362565b61030b565b610201565b805180835260209291819084018484015e5f828201840152601f01601f1916010190565b9060206101fe9281815201906101c9565b90565b346102db575f3660031901126102db576040515f60035461022181610f7d565b80845290600181169081156102b75750600114610259575b6102558361024981850382610697565b604051918291826101ed565b0390f35b60035f9081527fc2575a0e9e593c00f959f8c92f12db2869c3395a3b0502d05e2516446f71f85b939250905b80821061029d57509091508101602001610249610239565b919260018160209254838588010152019101909291610285565b60ff191660208086019190915291151560051b840190910191506102499050610239565b5f80fd5b600435906001600160a01b03821682036102db57565b602435906001600160a01b03821682036102db57565b346102db5760403660031901126102db576103246102df565b5060405162461bcd60e51b8152602060048201526015602482015274105c1c1c9bdd99481b9bdd081cdd5c1c1bdc9d1959605a1b6044820152606490fd5b346102db575f3660031901126102db576020600254604051908152f35b346102db5760603660031901126102db576103986102df565b506103a16102f5565b50611036565b346102db575f3660031901126102db57602060405160128152f35b346102db575f3660031901126102db5760206103dc611171565b604051908152f35b346102db5760403660031901126102db576103fd6102df565b60243565ffffffffffff6104104361128d565b169182821015610463576001600160a01b03165f90815260096020526040902061025592506001600160d01b0391610452919061044c9061128d565b906112f9565b604051911681529081906020820190565b50637669fc0f60e11b5f5260045260245260445ffd5b346102db575f3660031901126102db576104924361128d565b65ffffffffffff806104a34361128d565b169116036104fa576102556040516104bc604082610697565b601d81527f6d6f64653d626c6f636b6e756d6265722666726f6d3d64656661756c7400000060208201526040519182916020835260208301906101c9565b6301bfc1c560e61b5f5260045ffd5b346102db5760203660031901126102db576001600160a01b0361052a6102df565b165f526008602052602060018060a01b0360405f205416604051908152f35b346102db5760203660031901126102db5761056b6105656102df565b3361138a565b005b346102db5760203660031901126102db576001600160a01b0361058e6102df565b165f52600960205260405f205463ffffffff81116105b85760405163ffffffff9091168152602090f35b6306dfcc6560e41b5f52602060045260245260445ffd5b346102db5760203660031901126102db5760206103dc6105ed6102df565b6001600160a01b03165f9081526020819052604090205490565b346102db575f3660031901126102db5761061f61140b565b600b80546001600160a01b031981169091555f906001600160a01b03167f8be0079c531659141344cd1fd0a4f28419497f9722a3daafe3b4186f6b6457e08280a3005b634e487b7160e01b5f52604160045260245ffd5b6040810190811067ffffffffffffffff82111761069257604052565b610662565b90601f8019910116810190811067ffffffffffffffff82111761069257604052565b604051906106c8604083610697565b565b67ffffffffffffffff81116106925760051b60200190565b9080601f830112156102db578135906106fa826106ca565b926107086040519485610697565b82845260208085019360051b8201019182116102db57602001915b8183106107305750505090565b82356001600160a01b03811681036102db57815260209283019201610723565b346102db5760603660031901126102db5760043567ffffffffffffffff81116102db576107819036906004016106e2565b60243567ffffffffffffffff81116102db576107a19036906004016106e2565b6044359067ffffffffffffffff82116102db57366023830112156102db578160040135926107ce846106ca565b926107dc6040519485610697565b8484526024602085019560051b820101903682116102db57602401945b8186106108205761025561080e868686611074565b60405190151581529081906020820190565b85358152602095860195016107f9565b346102db5760203660031901126102db576001600160a01b036108516102df565b165f526007602052602060405f2054604051908152f35b346102db575f3660031901126102db5761090c6108a47f000000000000000000000000000000000000000000000000000000000000000061197e565b6108cd7f00000000000000000000000000000000000000000000000000000000000000006119de565b60206040516108dc8282610697565b5f81528161091a81830194601f198301368737604051978897600f60f81b895260e0858a015260e08901906101c9565b9087820360408901526101c9565b914660608701523060808701525f60a087015285830360c087015251918281520192915f5b82811061094e57505050500390f35b83518552869550938101939281019260010161093f565b346102db575f3660031901126102db57600b546040516001600160a01b039091168152602090f35b346102db5760203660031901126102db5760043565ffffffffffff6109b14361128d565b169081811015610a71576109c49061128d565b600a54905f829160058411610a18575b6109e09350600a6116bd565b806109fc575060205f5b6040516001600160d01b039091168152f35b610a076020916112d0565b600a5f52815f20015460301c6109ea565b9192610a238161154a565b8103908111610a6c576109e093600a5f5265ffffffffffff8260205f2001541665ffffffffffff8516105f14610a5a5750916109d4565b929150610a66906112de565b906109d4565b6112bc565b637669fc0f60e11b5f5260045260245260445ffd5b346102db575f3660031901126102db576020610aa14361128d565b65ffffffffffff60405191168152f35b346102db575f3660031901126102db576040515f600454610ad181610f7d565b80845290600181169081156102b75750600114610af8576102558361024981850382610697565b60045f9081527f8a35acfbc15ff81a39ae7d344fd709f28e8600b4aa8c65c6b64bfe7fe36bd19b939250905b808210610b3c57509091508101602001610249610239565b919260018160209254838588010152019101909291610b24565b346102db5760203660031901126102db576001600160a01b03610b776102df565b165f526009602052602060018060d01b03610b9460405f20611432565b16604051908152f35b346102db5760403660031901126102db576103a16102df565b6064359060ff821682036102db57565b6084359060ff821682036102db57565b346102db5760c03660031901126102db57610bef6102df565b60243590604435610bfe610bb6565b6084359060a43592804211610cd35791610c839391610c75610c7a9460405160208101917fe48329057bfd03d55e49b547132e39cffd9c1820ad7b9d4c5307691425d15adf835260018060a01b038a1660408301528a6060830152608082015260808152610c6d60a082610697565b51902061145c565b611a15565b90929192611ac0565b6001600160a01b0381165f908152600760205260409020805460018101909155809303610cb45761056b925061138a565b90506301d4b62360e61b5f5260018060a01b031660045260245260445ffd5b632341d78760e11b5f5260045260245ffd5b346102db5760e03660031901126102db57610cfe6102df565b610d066102f5565b6044359060643592610d16610bc6565b60a43560c43590864211610df6576001600160a01b0384165f908152600760205260409020805460018101909155610dbb9390610db6909860405160208101917f6e71edae12b1b97f4d1f60370fef10105fa2faae0126114a169c64845d6126c9835260018060a01b0389169b8c604084015260018060a01b038b1660608401528b608084015260a083015260c082015260c08152610c6d60e082610697565b611482565b936001600160a01b03851603610dd55761056b9350611491565b6325c0072360e11b5f526001600160a01b038085166004521660245260445ffd5b8663313c898160e11b5f5260045260245ffd5b346102db5760403660031901126102db576020610e57610e276102df565b610e2f6102f5565b6001600160a01b039182165f9081526001855260408082209290931681526020919091522090565b54604051908152f35b346102db5760403660031901126102db57610e796102df565b6024359063ffffffff821682036102db57610ece91610ec891610e9a611159565b50610ea3611159565b506001600160a01b03165f908152600960205260409020610ec2611159565b50611b3c565b50611b51565b60408051825165ffffffffffff1681526020928301516001600160d01b03169281019290925290f35b346102db5760203660031901126102db57610f106102df565b610f1861140b565b6001600160a01b03168015610f6a57600b80546001600160a01b0319811683179091556001600160a01b03167f8be0079c531659141344cd1fd0a4f28419497f9722a3daafe3b4186f6b6457e05f80a3005b631e4fbdf760e01b5f525f60045260245ffd5b90600182811c92168015610fab575b6020831014610f9757565b634e487b7160e01b5f52602260045260245ffd5b91607f1691610f8c565b5f9291815491610fc483610f7d565b80835292600181169081156110195750600114610fe057505050565b5f9081526020812093945091925b838310610fff575060209250010190565b600181602092949394548385870101520191019190610fee565b915050602093945060ff929192191683830152151560051b010190565b60405162461bcd60e51b8152602060048201526016602482015275151c985b9cd9995c881b9bdd081cdd5c1c1bdc9d195960521b6044820152606490fd5b9291909261108061140b565b805184518091149081611121575b50156110ec575f5b81518110156110e357806110dd6110bf6110b260019486611140565b516001600160a01b031690565b6110cc6110b2848a611140565b6110d68488611140565b5191611843565b01611096565b50600193505050565b60405162461bcd60e51b815260206004820152600d60248201526c125b9d985b1a59081a5b9c1d5d609a1b6044820152606490fd5b90508251145f61108e565b634e487b7160e01b5f52603260045260245ffd5b80518210156111545760209160051b010190565b61112c565b6040519061116682610676565b5f6020838281520152565b307f00000000000000000000000000000000000000000000000000000000000000006001600160a01b03161480611264575b156111cc577f000000000000000000000000000000000000000000000000000000000000000090565b60405160208101907f8b73c3c69bb8fe3d512ecc4cf759cc79239f7b179b0ffacaa9a75d522b39400f82527f000000000000000000000000000000000000000000000000000000000000000060408201527f000000000000000000000000000000000000000000000000000000000000000060608201524660808201523060a082015260a0815261125e60c082610697565b51902090565b507f000000000000000000000000000000000000000000000000000000000000000046146111a3565b65ffffffffffff81116112a55765ffffffffffff1690565b6306dfcc6560e41b5f52603060045260245260445ffd5b634e487b7160e01b5f52601160045260245ffd5b5f19810191908211610a6c57565b9060018201809211610a6c57565b91908201809211610a6c57565b908154905f829160058411611337575b6113149350846116bd565b8061131f5750505f90565b611328906112d0565b905f5260205f20015460301c90565b91926113428161154a565b8103908111610a6c5761131493855f5265ffffffffffff8260205f2001541665ffffffffffff8516105f14611378575091611309565b929150611384906112de565b90611309565b6001600160a01b038181165f81815260086020526040812080548685166001600160a01b0319821681179092556106c8969416946114059390928691907f3134e8a2e6d97e929a7e54011ea5485d7d196dd5f0ba4d4ef95803e8e3fc257f9080a46001600160a01b03165f9081526020819052604090205490565b91611721565b600b546001600160a01b0316330361141f57565b63118cdaa760e01b5f523360045260245ffd5b805490816114405750505f90565b815f19810111610a6c575f525f199060205f2001015460301c90565b604290611467611171565b906040519161190160f01b8352600283015260228201522090565b916101fe9391610c7a93611a15565b6001600160a01b0316908115611519576001600160a01b03811692831561150657806114f97f8c5be1e5ebec7d5bd14f71427d1e84f3dd0314c0f7b2291e5b200ac8c7c3b92593855f52600160205260405f209060018060a01b03165f5260205260405f2090565b55604051908152602090a3565b634a1406b160e11b5f525f60045260245ffd5b63e602df0560e01b5f525f60045260245ffd5b8115611536570490565b634e487b7160e01b5f52601260045260245ffd5b80156116b8576101fe9061164e61164761163d61163361162961161f61161561160b60016115f95f8b608081901c806116aa575b508061158d6115ef9260401c90565b8061169d575b5061159e8160201c90565b80611690575b506115af8160101c90565b80611683575b506115c08160081c90565b80611676575b506115d18160041c90565b80611669575b506115e28160021c90565b8061165c575b5060011c90565b6116545760011c90565b1b611604818b61152c565b0160011c90565b611604818a61152c565b611604818961152c565b611604818861152c565b611604818761152c565b611604818661152c565b611604818561152c565b809261152c565b90611b75565b820160011c90565b600291509201915f6115e8565b600491509201915f6115d7565b600891509201915f6115c6565b601091509201915f6115b5565b602091509201915f6115a4565b604091509201915f611593565b6080925090506115ef61157e565b505f90565b91905b8382106116cd5750505090565b9091928083169080841860011c8201809211610a6c57845f5265ffffffffffff8260205f2001541665ffffffffffff8416105f1461170f5750925b91906116c0565b93925061171b906112de565b91611708565b6001600160a01b0380831693929190811690818514158061183a575b611749575b5050505050565b816117cd575b50508261175e575b8080611742565b6001600160a01b03165f9081526009602052604090207fdec2bacdd2f05b59de34da9b523dff8be42e5e38e818c82fdb0bae774387a724916117aa916117a49091611b87565b90611bf0565b604080516001600160d01b039384168152919092166020820152a25f8080611757565b6001600160a01b03165f9081526009602052604090207fdec2bacdd2f05b59de34da9b523dff8be42e5e38e818c82fdb0bae774387a724906118189061181286611b87565b90611bb8565b604080516001600160d01b039384168152919092166020820152a25f8061174f565b5083151561173d565b9291906001600160a01b03841680159081156119195761186d611868856002546112ec565b600255565b6001600160a01b03831690816118f75761188a8560025403600255565b6040518581527fddf252ad1be2c89b69c2b068fc378daa952ba7f163c4a11628f55a4df523b3ef90602090a36118c5575b6106c89293611c59565b600254936001600160d01b038086116118e0575093506118bb565b630e58ae9360e11b5f52600486905260245260445ffd5b6001600160a01b0384165f90815260208190526040902085815401905561188a565b6001600160a01b0386165f9081526020819052604090205484811061195a578490036119548760018060a01b03165f525f60205260405f2090565b5561186d565b63391434e360e21b5f526001600160a01b038716600452602452604484905260645ffd5b60ff81146119c45760ff811690601f82116119b557604051916119a2604084610697565b6020808452838101919036833783525290565b632cd44ac360e21b5f5260045ffd5b506040516101fe816119d7816005610fb5565b0382610697565b60ff8114611a025760ff811690601f82116119b557604051916119a2604084610697565b506040516101fe816119d7816006610fb5565b91907f7fffffffffffffffffffffffffffffff5d576e7357a4501ddfe92f46681b20a08411611a97579160209360809260ff5f9560405194855216868401526040830152606082015282805260015afa15611a8c575f516001600160a01b03811615611a8257905f905f90565b505f906001905f90565b6040513d5f823e3d90fd5b5050505f9160039190565b60041115611aac57565b634e487b7160e01b5f52602160045260245ffd5b611ac981611aa2565b80611ad2575050565b611adb81611aa2565b60018103611af25763f645eedf60e01b5f5260045ffd5b611afb81611aa2565b60028103611b16575063fce698f760e01b5f5260045260245ffd5b80611b22600392611aa2565b14611b2a5750565b6335e2f38360e21b5f5260045260245ffd5b8054821015611154575f5260205f2001905f90565b90604051611b5e81610676565b915465ffffffffffff8116835260301c6020830152565b9080821015611b82575090565b905090565b6001600160d01b038111611ba1576001600160d01b031690565b6306dfcc6560e41b5f5260d060045260245260445ffd5b90611bc24361128d565b90611bcc83611432565b6001600160d01b039182169082160391908211610a6c57611bec92611d6e565b9091565b90611bfa4361128d565b90611c0483611432565b6001600160d01b039182169082160191908211610a6c57611bec92611d6e565b611c2d4361128d565b90611c38600a611432565b6001600160d01b0391821690821603908111610a6c57611bec91600a611d6e565b9091906001600160a01b03168015611cc0575b6106c8926001600160a01b0316908115611ca8575b5f90815260086020526040808220549282529020546001600160a01b039081169116611721565b611cb9611cb484611b87565b611c24565b5050611c81565b611cc982611b87565b92611cd34361128d565b93611cde600a611432565b6001600160d01b039182169082160194908511610a6c576106c894611d0491600a611d6e565b9050509250611c6c565b80546801000000000000000081101561069257611d3091600182018155611b3c565b611d5b57815160209092015160301b65ffffffffffff191665ffffffffffff92909216919091179055565b634e487b7160e01b5f525f60045260245ffd5b805492939291908215611e7857611d9a611d95611d8a856112d0565b835f5260205f200190565b611b51565b9065ffffffffffff611db2835165ffffffffffff1690565b8185169182911611611e6957611e2d946020948892611de5611dda875165ffffffffffff1690565b65ffffffffffff1690565b03611e315750611e1f92611dfb611e06926112d0565b905f5260205f200190565b9065ffffffffffff82549181199060301b169116179055565b01516001600160d01b031690565b9190565b915050611e6491611e51611e436106b9565b65ffffffffffff9093168352565b6001600160d01b03881682860152611d0e565b611e1f565b632520601d60e01b5f5260045ffd5b611e9c9250611e88611e436106b9565b6001600160d01b0385166020830152611d0e565b5f919056fea264697066735822122079486196e0ea82d68c0d3e973bfd4167721c5815bc46af950f27ec4bcc4d0b8264736f6c634300081a0033","linkReferences":{}},"methodIdentifiers":{"CLOCK_MODE()":"4bf5d7e9","DOMAIN_SEPARATOR()":"3644e515","allowance(address,address)":"dd62ed3e","approve(address,uint256)":"095ea7b3","balanceOf(address)":"70a08231","checkpoints(address,uint32)":"f1127ed8","clock()":"91ddadf4","decimals()":"313ce567","delegate(address)":"5c19a95c","delegateBySig(address,uint256,uint256,uint8,bytes32,bytes32)":"c3cda520","delegates(address)":"587cde1e","eip712Domain()":"84b0196e","getPastTotalSupply(uint256)":"8e539e8c","getPastVotes(address,uint256)":"3a46b1a8","getVotes(address)":"9ab24eb0","name()":"06fdde03","nonces(address)":"7ecebe00","numCheckpoints(address)":"6fcfff45","oracleTransfer(address[],address[],uint256[])":"7ab7c65d","owner()":"8da5cb5b","permit(address,address,uint256,uint256,uint8,bytes32,bytes32)":"d505accf","renounceOwnership()":"715018a6","symbol()":"95d89b41","totalSupply()":"18160ddd","transfer(address,uint256)":"a9059cbb","transferFrom(address,address,uint256)":"23b872dd","transferOwnership(address)":"f2fde38b"},"id":20}