{"abi":[{"type":"constructor","inputs":[{"name":"fxManager","type":"address","internalType":"address"}],"stateMutability":"nonpayable"},{"type":"function","name":"allowance","inputs":[{"name":"owner","type":"address","internalType":"address"},{"name":"spender","type":"address","internalType":"address"}],"outputs":[{"name":"","type":"uint256","internalType":"uint256"}],"stateMutability":"view"},{"type":"function","name":"approve","inputs":[{"name":"spender","type":"address","internalType":"address"},{"name":"value","type":"uint256","internalType":"uint256"}],"outputs":[{"name":"","type":"bool","internalType":"bool"}],"stateMutability":"nonpayable"},{"type":"function","name":"balanceOf","inputs":[{"name":"account","type":"address","internalType":"address"}],"outputs":[{"name":"","type":"uint256","internalType":"uint256"}],"stateMutability":"view"},{"type":"function","name":"burn","inputs":[{"name":"user","type":"address","internalType":"address"},{"name":"amount","type":"uint256","internalType":"uint256"}],"outputs":[],"stateMutability":"nonpayable"},{"type":"function","name":"decimals","inputs":[],"outputs":[{"name":"","type":"uint8","internalType":"uint8"}],"stateMutability":"view"},{"type":"function","name":"mint","inputs":[{"name":"user","type":"address","internalType":"address"},{"name":"amount","type":"uint256","internalType":"uint256"}],"outputs":[],"stateMutability":"nonpayable"},{"type":"function","name":"name","inputs":[],"outputs":[{"name":"","type":"string","internalType":"string"}],"stateMutability":"view"},{"type":"function","name":"setFxManager","inputs":[{"name":"fxManager","type":"address","internalType":"address"}],"outputs":[],"stateMutability":"nonpayable"},{"type":"function","name":"symbol","inputs":[],"outputs":[{"name":"","type":"string","internalType":"string"}],"stateMutability":"view"},{"type":"function","name":"totalSupply","inputs":[],"outputs":[{"name":"","type":"uint256","internalType":"uint256"}],"stateMutability":"view"},{"type":"function","name":"transfer","inputs":[{"name":"to","type":"address","internalType":"address"},{"name":"value","type":"uint256","internalType":"uint256"}],"outputs":[{"name":"","type":"bool","internalType":"bool"}],"stateMutability":"nonpayable"},{"type":"function","name":"transferFrom","inputs":[{"name":"from","type":"address","internalType":"address"},{"name":"to","type":"address","internalType":"address"},{"name":"value","type":"uint256","internalType":"uint256"}],"outputs":[{"name":"","type":"bool","internalType":"bool"}],"stateMutability":"nonpayable"},{"type":"event","name":"Approval","inputs":[{"name":"owner","type":"address","indexed":true,"internalType":"address"},{"name":"spender","type":"address","indexed":true,"internalType":"address"},{"name":"value","type":"uint256","indexed":false,"internalType":"uint256"}],"anonymous":false},{"type":"event","name":"Transfer","inputs":[{"name":"from","type":"address","indexed":true,"internalType":"address"},{"name":"to","type":"address","indexed":true,"internalType":"address"},{"name":"value","type":"uint256","indexed":false,"internalType":"uint256"}],"anonymous":false},{"type":"error","name":"ERC20InsufficientAllowance","inputs":[{"name":"spender","type":"address","internalType":"address"},{"name":"allowance","type":"uint256","internalType":"uint256"},{"name":"needed","type":"uint256","internalType":"uint256"}]},{"type":"error","name":"ERC20InsufficientBalance","inputs":[{"name":"sender","type":"address","internalType":"address"},{"name":"balance","type":"uint256","internalType":"uint256"},{"name":"needed","type":"uint256","internalType":"uint256"}]},{"type":"error","name":"ERC20InvalidApprover","inputs":[{"name":"approver","type":"address","internalType":"address"}]},{"type":"error","name":"ERC20InvalidReceiver","inputs":[{"name":"receiver","type":"address","internalType":"address"}]},{"type":"error","name":"ERC20InvalidSender","inputs":[{"name":"sender","type":"address","internalType":"address"}]},{"type":"error","name":"ERC20InvalidSpender","inputs":[{"name":"spender","type":"address","internalType":"address"}]}],"bytecode":{"object":"0x60806040523461033e57610b636020813803918261001c81610342565b93849283398101031261033e57516001600160a01b0381169081900361033e576100466040610342565b90600b82526a2132b2b6b2b92a37b5b2b760a91b60208301526100696040610342565b6003815262424d5760e81b602082015282519091906001600160401b03811161024f57600354600181811c91168015610334575b602082101461023157601f81116102d1575b506020601f821160011461026e57819293945f92610263575b50508160011b915f199060031b1c1916176003555b81516001600160401b03811161024f57600454600181811c91168015610245575b602082101461023157601f81116101ce575b50602092601f821160011461016d57928192935f92610162575b50508160011b915f199060031b1c1916176004555b600580546001600160a01b0319169190911790556040516107fb90816103688239f35b015190505f8061012a565b601f1982169360045f52805f20915f5b8681106101b6575083600195961061019e575b505050811b0160045561013f565b01515f1960f88460031b161c191690555f8080610190565b9192602060018192868501518155019401920161017d565b60045f527f8a35acfbc15ff81a39ae7d344fd709f28e8600b4aa8c65c6b64bfe7fe36bd19b601f830160051c81019160208410610227575b601f0160051c01905b81811061021c5750610110565b5f815560010161020f565b9091508190610206565b634e487b7160e01b5f52602260045260245ffd5b90607f16906100fe565b634e487b7160e01b5f52604160045260245ffd5b015190505f806100c8565b601f1982169060035f52805f20915f5b8181106102b9575095836001959697106102a1575b505050811b016003556100dd565b01515f1960f88460031b161c191690555f8080610293565b9192602060018192868b01518155019401920161027e565b60035f527fc2575a0e9e593c00f959f8c92f12db2869c3395a3b0502d05e2516446f71f85b601f830160051c8101916020841061032a575b601f0160051c01905b81811061031f57506100af565b5f8155600101610312565b9091508190610309565b90607f169061009d565b5f80fd5b6040519190601f01601f191682016001600160401b0381118382101761024f5760405256fe6080806040526004361015610012575f80fd5b5f3560e01c90816306fdde03146105cc57508063095ea7b31461054a578063115a46891461050c57806318160ddd146104ef57806323b872dd1461040f578063313ce567146103f457806340c10f191461033b57806370a082311461030457806395d89b41146101e95780639dc29fac14610125578063a9059cbb146100f45763dd62ed3e146100a0575f80fd5b346100f05760403660031901126100f0576100b96106c5565b6100c16106db565b6001600160a01b039182165f908152600160209081526040808320949093168252928352819020549051908152f35b5f80fd5b346100f05760403660031901126100f05761011a6101106106c5565b602435903361072e565b602060405160018152f35b346100f05760403660031901126100f05761013e6106c5565b6024359061015760018060a01b036005541633146106f1565b6001600160a01b031680156101d657805f525f60205260405f20548281106101bd576020835f947fddf252ad1be2c89b69c2b068fc378daa952ba7f163c4a11628f55a4df523b3ef938587528684520360408620558060025403600255604051908152a3005b9063391434e360e21b5f5260045260245260445260645ffd5b634b637e8f60e11b5f525f60045260245ffd5b346100f0575f3660031901126100f0576040515f6004548060011c906001811680156102fa575b6020831081146102e6578285529081156102ca5750600114610275575b50819003601f01601f191681019067ffffffffffffffff8211818310176102615761025d8291826040528261069b565b0390f35b634e487b7160e01b5f52604160045260245ffd5b905060045f527f8a35acfbc15ff81a39ae7d344fd709f28e8600b4aa8c65c6b64bfe7fe36bd19b5f905b8282106102b45750602091508201018261022d565b600181602092548385880101520191019061029f565b90506020925060ff191682840152151560051b8201018261022d565b634e487b7160e01b5f52602260045260245ffd5b91607f1691610210565b346100f05760203660031901126100f0576001600160a01b036103256106c5565b165f525f602052602060405f2054604051908152f35b346100f05760403660031901126100f0576103546106c5565b6024359061036d60018060a01b036005541633146106f1565b6001600160a01b03169081156103e157600254908082018092116103cd5760207fddf252ad1be2c89b69c2b068fc378daa952ba7f163c4a11628f55a4df523b3ef915f9360025584845283825260408420818154019055604051908152a3005b634e487b7160e01b5f52601160045260245ffd5b63ec442f0560e01b5f525f60045260245ffd5b346100f0575f3660031901126100f057602060405160128152f35b346100f05760603660031901126100f0576104286106c5565b6104306106db565b6001600160a01b0382165f81815260016020818152604080842033855290915290912054919360443593929091810161046f575b5061011a935061072e565b8381106104d45784156104c15733156104ae5761011a945f52600160205260405f2060018060a01b0333165f526020528360405f209103905584610464565b634a1406b160e11b5f525f60045260245ffd5b63e602df0560e01b5f525f60045260245ffd5b8390637dc7a0d960e11b5f523360045260245260445260645ffd5b346100f0575f3660031901126100f0576020600254604051908152f35b346100f05760203660031901126100f0576001600160a01b0361052d6106c5565b166bffffffffffffffffffffffff60a01b60055416176005555f80f35b346100f05760403660031901126100f0576105636106c5565b6024359033156104c1576001600160a01b03169081156104ae57335f52600160205260405f20825f526020528060405f20556040519081527f8c5be1e5ebec7d5bd14f71427d1e84f3dd0314c0f7b2291e5b200ac8c7c3b92560203392a3602060405160018152f35b346100f0575f3660031901126100f0575f6003548060011c90600181168015610691575b6020831081146102e6578285529081156102ca575060011461063c5750819003601f01601f191681019067ffffffffffffffff8211818310176102615761025d8291826040528261069b565b905060035f527fc2575a0e9e593c00f959f8c92f12db2869c3395a3b0502d05e2516446f71f85b5f905b82821061067b5750602091508201018261022d565b6001816020925483858801015201910190610666565b91607f16916105f0565b602060409281835280519182918282860152018484015e5f828201840152601f01601f1916010190565b600435906001600160a01b03821682036100f057565b602435906001600160a01b03821682036100f057565b156106f857565b60405162461bcd60e51b815260206004820152600e60248201526d24b73b30b634b21039b2b73232b960911b6044820152606490fd5b6001600160a01b03169081156101d6576001600160a01b03169182156103e157815f525f60205260405f20548181106107ac57817fddf252ad1be2c89b69c2b068fc378daa952ba7f163c4a11628f55a4df523b3ef92602092855f525f84520360405f2055845f525f825260405f20818154019055604051908152a3565b8263391434e360e21b5f5260045260245260445260645ffdfea2646970667358221220e082728dff099a75c6f4f9b1e3b409be3d2eb6a5c0b926d3a12386d1efb5a5fb64736f6c634300081a0033","linkReferences":{}},"methodIdentifiers":{"allowance(address,address)":"dd62ed3e","approve(address,uint256)":"095ea7b3","balanceOf(address)":"70a08231","burn(address,uint256)":"9dc29fac","decimals()":"313ce567","mint(address,uint256)":"40c10f19","name()":"06fdde03","setFxManager(address)":"115a4689","symbol()":"95d89b41","totalSupply()":"18160ddd","transfer(address,uint256)":"a9059cbb","transferFrom(address,address,uint256)":"23b872dd"},"id":12}