{"abi":[{"type":"constructor","inputs":[{"name":"token_","type":"address","internalType":"address"}],"stateMutability":"nonpayable"},{"type":"function","name":"balanceOfAt","inputs":[{"name":"accounts","type":"address[]","internalType":"address[]"},{"name":"ts","type":"uint256","internalType":"uint256"}],"outputs":[{"name":"","type":"uint256","internalType":"uint256"}],"stateMutability":"view"}],"bytecode":{"object":"0x608034606f57601f61028038819003918201601f19168301916001600160401b03831184841017607357808492602094604052833981010312606f57516001600160a01b03811690819003606f575f80546001600160a01b0319169190911790556040516101f890816100888239f35b5f80fd5b634e487b7160e01b5f52604160045260245ffdfe6080806040526004361015610012575f80fd5b5f3560e01c63ed1ea7b914610025575f80fd5b3461014a57604036600319011261014a5760043567ffffffffffffffff811161014a573660238201121561014a5780600401359067ffffffffffffffff821161018c578160051b9161007a60208401856101a0565b8352602460208401928201019036821161014a57602401915b81831061016c575f805485906001600160a01b0316602435835b83518510156101615760018060a01b0360208660051b86010151166040519063277166bf60e11b82526004820152826024820152602081604481875afa908115610156575f91610121575b50810180911161010d576001909401936100ad565b634e487b7160e01b5f52601160045260245ffd5b90506020813d821161014e575b8161013b602093836101a0565b8101031261014a5751866100f8565b5f80fd5b3d915061012e565b6040513d5f823e3d90fd5b602090604051908152f35b82356001600160a01b038116810361014a57815260209283019201610093565b634e487b7160e01b5f52604160045260245ffd5b90601f8019910116810190811067ffffffffffffffff82111761018c5760405256fea26469706673582212204d5712ed08952a3886070a4de80f362bcfc13fd8f132e2bab8b3e91b8978812c64736f6c634300081a0033","linkReferences":{}},"methodIdentifiers":{"balanceOfAt(address[],uint256)":"ed1ea7b9"},"id":89}