{"abi":[{"type":"constructor","inputs":[],"stateMutability":"nonpayable"},{"type":"receive","stateMutability":"payable"},{"type":"function","name":"acceptOwnership","inputs":[],"outputs":[],"stateMutability":"nonpayable"},{"type":"function","name":"addBlacklistAddress","inputs":[{"name":"blacklistAddress","type":"address","internalType":"address"}],"outputs":[],"stateMutability":"nonpayable"},{"type":"function","name":"addInitialLiquidity","inputs":[{"name":"lpOwner","type":"address","internalType":"address"}],"outputs":[],"stateMutability":"nonpayable"},{"type":"function","name":"addLiquidityPool","inputs":[{"name":"newLiquidityPool_","type":"address","internalType":"address"}],"outputs":[],"stateMutability":"nonpayable"},{"type":"function","name":"addValidCaller","inputs":[{"name":"newValidCallerHash_","type":"bytes32","internalType":"bytes32"}],"outputs":[],"stateMutability":"nonpayable"},{"type":"function","name":"allowance","inputs":[{"name":"owner","type":"address","internalType":"address"},{"name":"spender","type":"address","internalType":"address"}],"outputs":[{"name":"","type":"uint256","internalType":"uint256"}],"stateMutability":"view"},{"type":"function","name":"approve","inputs":[{"name":"spender","type":"address","internalType":"address"},{"name":"amount","type":"uint256","internalType":"uint256"}],"outputs":[{"name":"","type":"bool","internalType":"bool"}],"stateMutability":"nonpayable"},{"type":"function","name":"balanceOf","inputs":[{"name":"account","type":"address","internalType":"address"}],"outputs":[{"name":"","type":"uint256","internalType":"uint256"}],"stateMutability":"view"},{"type":"function","name":"blacklists","inputs":[{"name":"","type":"address","internalType":"address"}],"outputs":[{"name":"","type":"bool","internalType":"bool"}],"stateMutability":"view"},{"type":"function","name":"botProtectionDurationInSeconds","inputs":[],"outputs":[{"name":"","type":"uint256","internalType":"uint256"}],"stateMutability":"view"},{"type":"function","name":"burn","inputs":[{"name":"value","type":"uint256","internalType":"uint256"}],"outputs":[],"stateMutability":"nonpayable"},{"type":"function","name":"burnFrom","inputs":[{"name":"account","type":"address","internalType":"address"},{"name":"value","type":"uint256","internalType":"uint256"}],"outputs":[],"stateMutability":"nonpayable"},{"type":"function","name":"decimals","inputs":[],"outputs":[{"name":"","type":"uint8","internalType":"uint8"}],"stateMutability":"view"},{"type":"function","name":"decreaseAllowance","inputs":[{"name":"spender","type":"address","internalType":"address"},{"name":"subtractedValue","type":"uint256","internalType":"uint256"}],"outputs":[{"name":"","type":"bool","internalType":"bool"}],"stateMutability":"nonpayable"},{"type":"function","name":"distributeTaxTokens","inputs":[],"outputs":[],"stateMutability":"nonpayable"},{"type":"function","name":"fundedDate","inputs":[],"outputs":[{"name":"","type":"uint32","internalType":"uint32"}],"stateMutability":"view"},{"type":"function","name":"increaseAllowance","inputs":[{"name":"spender","type":"address","internalType":"address"},{"name":"addedValue","type":"uint256","internalType":"uint256"}],"outputs":[{"name":"","type":"bool","internalType":"bool"}],"stateMutability":"nonpayable"},{"type":"function","name":"initialize","inputs":[{"name":"integrationAddresses_","type":"address[3]","internalType":"address[3]"},{"name":"baseParams_","type":"bytes","internalType":"bytes"},{"name":"supplyParams_","type":"bytes","internalType":"bytes"},{"name":"taxParams_","type":"bytes","internalType":"bytes"}],"outputs":[],"stateMutability":"nonpayable"},{"type":"function","name":"isLiquidityPool","inputs":[{"name":"queryAddress_","type":"address","internalType":"address"}],"outputs":[{"name":"","type":"bool","internalType":"bool"}],"stateMutability":"view"},{"type":"function","name":"isValidCaller","inputs":[{"name":"queryHash_","type":"bytes32","internalType":"bytes32"}],"outputs":[{"name":"","type":"bool","internalType":"bool"}],"stateMutability":"view"},{"type":"function","name":"liquidityPools","inputs":[],"outputs":[{"name":"liquidityPools_","type":"address[]","internalType":"address[]"}],"stateMutability":"view"},{"type":"function","name":"name","inputs":[],"outputs":[{"name":"","type":"string","internalType":"string"}],"stateMutability":"view"},{"type":"function","name":"owner","inputs":[],"outputs":[{"name":"","type":"address","internalType":"address"}],"stateMutability":"view"},{"type":"function","name":"pairToken","inputs":[],"outputs":[{"name":"","type":"address","internalType":"address"}],"stateMutability":"view"},{"type":"function","name":"pendingOwner","inputs":[],"outputs":[{"name":"","type":"address","internalType":"address"}],"stateMutability":"view"},{"type":"function","name":"projectBuyTaxBasisPoints","inputs":[],"outputs":[{"name":"","type":"uint16","internalType":"uint16"}],"stateMutability":"view"},{"type":"function","name":"projectSellTaxBasisPoints","inputs":[],"outputs":[{"name":"","type":"uint16","internalType":"uint16"}],"stateMutability":"view"},{"type":"function","name":"projectTaxPendingSwap","inputs":[],"outputs":[{"name":"","type":"uint128","internalType":"uint128"}],"stateMutability":"view"},{"type":"function","name":"projectTaxRecipient","inputs":[],"outputs":[{"name":"","type":"address","internalType":"address"}],"stateMutability":"view"},{"type":"function","name":"removeBlacklistAddress","inputs":[{"name":"blacklistAddress","type":"address","internalType":"address"}],"outputs":[],"stateMutability":"nonpayable"},{"type":"function","name":"removeLiquidityPool","inputs":[{"name":"removedLiquidityPool_","type":"address","internalType":"address"}],"outputs":[],"stateMutability":"nonpayable"},{"type":"function","name":"removeValidCaller","inputs":[{"name":"removedValidCallerHash_","type":"bytes32","internalType":"bytes32"}],"outputs":[],"stateMutability":"nonpayable"},{"type":"function","name":"renounceOwnership","inputs":[],"outputs":[],"stateMutability":"nonpayable"},{"type":"function","name":"setProjectTaxRates","inputs":[{"name":"newProjectBuyTaxBasisPoints_","type":"uint16","internalType":"uint16"},{"name":"newProjectSellTaxBasisPoints_","type":"uint16","internalType":"uint16"}],"outputs":[],"stateMutability":"nonpayable"},{"type":"function","name":"setProjectTaxRecipient","inputs":[{"name":"projectTaxRecipient_","type":"address","internalType":"address"}],"outputs":[],"stateMutability":"nonpayable"},{"type":"function","name":"setSwapThresholdBasisPoints","inputs":[{"name":"swapThresholdBasisPoints_","type":"uint16","internalType":"uint16"}],"outputs":[],"stateMutability":"nonpayable"},{"type":"function","name":"swapThresholdBasisPoints","inputs":[],"outputs":[{"name":"","type":"uint16","internalType":"uint16"}],"stateMutability":"view"},{"type":"function","name":"symbol","inputs":[],"outputs":[{"name":"","type":"string","internalType":"string"}],"stateMutability":"view"},{"type":"function","name":"totalBuyTaxBasisPoints","inputs":[],"outputs":[{"name":"","type":"uint256","internalType":"uint256"}],"stateMutability":"view"},{"type":"function","name":"totalSellTaxBasisPoints","inputs":[],"outputs":[{"name":"","type":"uint256","internalType":"uint256"}],"stateMutability":"view"},{"type":"function","name":"totalSupply","inputs":[],"outputs":[{"name":"","type":"uint256","internalType":"uint256"}],"stateMutability":"view"},{"type":"function","name":"transfer","inputs":[{"name":"to","type":"address","internalType":"address"},{"name":"amount","type":"uint256","internalType":"uint256"}],"outputs":[{"name":"","type":"bool","internalType":"bool"}],"stateMutability":"nonpayable"},{"type":"function","name":"transferFrom","inputs":[{"name":"from","type":"address","internalType":"address"},{"name":"to","type":"address","internalType":"address"},{"name":"amount","type":"uint256","internalType":"uint256"}],"outputs":[{"name":"","type":"bool","internalType":"bool"}],"stateMutability":"nonpayable"},{"type":"function","name":"transferOwnership","inputs":[{"name":"newOwner","type":"address","internalType":"address"}],"outputs":[],"stateMutability":"nonpayable"},{"type":"function","name":"uniswapV2Pair","inputs":[],"outputs":[{"name":"","type":"address","internalType":"address"}],"stateMutability":"view"},{"type":"function","name":"validCallers","inputs":[],"outputs":[{"name":"validCallerHashes_","type":"bytes32[]","internalType":"bytes32[]"}],"stateMutability":"view"},{"type":"function","name":"vault","inputs":[],"outputs":[{"name":"","type":"address","internalType":"address"}],"stateMutability":"view"},{"type":"function","name":"withdrawERC20","inputs":[{"name":"token_","type":"address","internalType":"address"},{"name":"amount_","type":"uint256","internalType":"uint256"}],"outputs":[],"stateMutability":"nonpayable"},{"type":"function","name":"withdrawETH","inputs":[{"name":"amount_","type":"uint256","internalType":"uint256"}],"outputs":[],"stateMutability":"nonpayable"},{"type":"event","name":"Approval","inputs":[{"name":"owner","type":"address","indexed":true,"internalType":"address"},{"name":"spender","type":"address","indexed":true,"internalType":"address"},{"name":"value","type":"uint256","indexed":false,"internalType":"uint256"}],"anonymous":false},{"type":"event","name":"AutoSwapThresholdUpdated","inputs":[{"name":"oldThreshold","type":"uint256","indexed":false,"internalType":"uint256"},{"name":"newThreshold","type":"uint256","indexed":false,"internalType":"uint256"}],"anonymous":false},{"type":"event","name":"ExternalCallError","inputs":[{"name":"identifier","type":"uint256","indexed":false,"internalType":"uint256"}],"anonymous":false},{"type":"event","name":"InitialLiquidityAdded","inputs":[{"name":"tokenA","type":"uint256","indexed":false,"internalType":"uint256"},{"name":"tokenB","type":"uint256","indexed":false,"internalType":"uint256"},{"name":"lpToken","type":"uint256","indexed":false,"internalType":"uint256"}],"anonymous":false},{"type":"event","name":"Initialized","inputs":[{"name":"version","type":"uint64","indexed":false,"internalType":"uint64"}],"anonymous":false},{"type":"event","name":"LimitsUpdated","inputs":[{"name":"oldMaxTokensPerTransaction","type":"uint256","indexed":false,"internalType":"uint256"},{"name":"newMaxTokensPerTransaction","type":"uint256","indexed":false,"internalType":"uint256"},{"name":"oldMaxTokensPerWallet","type":"uint256","indexed":false,"internalType":"uint256"},{"name":"newMaxTokensPerWallet","type":"uint256","indexed":false,"internalType":"uint256"}],"anonymous":false},{"type":"event","name":"LiquidityPoolAdded","inputs":[{"name":"addedPool","type":"address","indexed":false,"internalType":"address"}],"anonymous":false},{"type":"event","name":"LiquidityPoolCreated","inputs":[{"name":"addedPool","type":"address","indexed":false,"internalType":"address"}],"anonymous":false},{"type":"event","name":"LiquidityPoolRemoved","inputs":[{"name":"removedPool","type":"address","indexed":false,"internalType":"address"}],"anonymous":false},{"type":"event","name":"OwnershipTransferStarted","inputs":[{"name":"previousOwner","type":"address","indexed":true,"internalType":"address"},{"name":"newOwner","type":"address","indexed":true,"internalType":"address"}],"anonymous":false},{"type":"event","name":"OwnershipTransferred","inputs":[{"name":"previousOwner","type":"address","indexed":true,"internalType":"address"},{"name":"newOwner","type":"address","indexed":true,"internalType":"address"}],"anonymous":false},{"type":"event","name":"ProjectTaxBasisPointsChanged","inputs":[{"name":"oldBuyBasisPoints","type":"uint256","indexed":false,"internalType":"uint256"},{"name":"newBuyBasisPoints","type":"uint256","indexed":false,"internalType":"uint256"},{"name":"oldSellBasisPoints","type":"uint256","indexed":false,"internalType":"uint256"},{"name":"newSellBasisPoints","type":"uint256","indexed":false,"internalType":"uint256"}],"anonymous":false},{"type":"event","name":"ProjectTaxRecipientUpdated","inputs":[{"name":"treasury","type":"address","indexed":false,"internalType":"address"}],"anonymous":false},{"type":"event","name":"RevenueAutoSwap","inputs":[],"anonymous":false},{"type":"event","name":"Transfer","inputs":[{"name":"from","type":"address","indexed":true,"internalType":"address"},{"name":"to","type":"address","indexed":true,"internalType":"address"},{"name":"value","type":"uint256","indexed":false,"internalType":"uint256"}],"anonymous":false},{"type":"event","name":"ValidCallerAdded","inputs":[{"name":"addedValidCaller","type":"bytes32","indexed":false,"internalType":"bytes32"}],"anonymous":false},{"type":"event","name":"ValidCallerRemoved","inputs":[{"name":"removedValidCaller","type":"bytes32","indexed":false,"internalType":"bytes32"}],"anonymous":false},{"type":"error","name":"AdapterParamsMustBeEmpty","inputs":[]},{"type":"error","name":"AdditionToPoolIsBelowPerTransactionMinimum","inputs":[]},{"type":"error","name":"AdditionToPoolWouldExceedPerAddressCap","inputs":[]},{"type":"error","name":"AdditionToPoolWouldExceedPoolCap","inputs":[]},{"type":"error","name":"AddressAlreadySet","inputs":[]},{"type":"error","name":"AddressEmptyCode","inputs":[{"name":"target","type":"address","internalType":"address"}]},{"type":"error","name":"AddressInsufficientBalance","inputs":[{"name":"account","type":"address","internalType":"address"}]},{"type":"error","name":"AllowanceDecreasedBelowZero","inputs":[]},{"type":"error","name":"AlreadyInitialised","inputs":[]},{"type":"error","name":"ApprovalCallerNotOwnerNorApproved","inputs":[]},{"type":"error","name":"ApprovalQueryForNonexistentToken","inputs":[]},{"type":"error","name":"ApproveFromTheZeroAddress","inputs":[]},{"type":"error","name":"ApproveToTheZeroAddress","inputs":[]},{"type":"error","name":"AuctionStatusIsNotEnded","inputs":[]},{"type":"error","name":"AuctionStatusIsNotOpen","inputs":[]},{"type":"error","name":"AuxCallFailed","inputs":[{"name":"modules","type":"address[]","internalType":"address[]"},{"name":"value","type":"uint256","internalType":"uint256"},{"name":"data","type":"bytes","internalType":"bytes"},{"name":"txGas","type":"uint256","internalType":"uint256"}]},{"type":"error","name":"BalanceMismatch","inputs":[]},{"type":"error","name":"BalanceQueryForZeroAddress","inputs":[]},{"type":"error","name":"BidMustBeBelowTheFloorForRefundDuringAuction","inputs":[]},{"type":"error","name":"BidMustBeBelowTheFloorWhenReducingQuantity","inputs":[]},{"type":"error","name":"BondingCurveError","inputs":[{"name":"error","type":"uint8","internalType":"enum IErrors.BondingCurveErrorType"}]},{"type":"error","name":"BurnExceedsBalance","inputs":[]},{"type":"error","name":"BurnFromTheZeroAddress","inputs":[]},{"type":"error","name":"CallerIsNotAdminNorFactory","inputs":[]},{"type":"error","name":"CallerIsNotDepositBoxOwner","inputs":[]},{"type":"error","name":"CallerIsNotFactory","inputs":[]},{"type":"error","name":"CallerIsNotFactoryOrProjectOwner","inputs":[]},{"type":"error","name":"CallerIsNotFactoryProjectOwnerOrPool","inputs":[]},{"type":"error","name":"CallerIsNotPlatformAdmin","inputs":[{"name":"caller","type":"address","internalType":"address"}]},{"type":"error","name":"CallerIsNotSuperAdmin","inputs":[{"name":"caller","type":"address","internalType":"address"}]},{"type":"error","name":"CallerIsNotTheManager","inputs":[]},{"type":"error","name":"CallerIsNotTheOwner","inputs":[]},{"type":"error","name":"CallerMustBeLzApp","inputs":[]},{"type":"error","name":"CanOnlyReduce","inputs":[]},{"type":"error","name":"CannotAddLiquidityOnCreateAndUseDRIPool","inputs":[]},{"type":"error","name":"CannotSetNewManagerToTheZeroAddress","inputs":[]},{"type":"error","name":"CannotSetNewOwnerToTheZeroAddress","inputs":[]},{"type":"error","name":"CannotSetToZeroAddress","inputs":[]},{"type":"error","name":"CannotWithdrawThisToken","inputs":[]},{"type":"error","name":"CollectionAlreadyRevealed","inputs":[]},{"type":"error","name":"ContractIsDecommissioned","inputs":[]},{"type":"error","name":"ContractIsNotPaused","inputs":[]},{"type":"error","name":"ContractIsPaused","inputs":[]},{"type":"error","name":"DecreasedAllowanceBelowZero","inputs":[]},{"type":"error","name":"DeployerOnly","inputs":[]},{"type":"error","name":"DeploymentError","inputs":[]},{"type":"error","name":"DepositBoxIsNotOpen","inputs":[]},{"type":"error","name":"DestinationIsNotTrustedSource","inputs":[]},{"type":"error","name":"DriPoolAddressCannotBeAddressZero","inputs":[]},{"type":"error","name":"FailedInnerCall","inputs":[]},{"type":"error","name":"GasLimitIsTooLow","inputs":[]},{"type":"error","name":"IncorrectConfirmationValue","inputs":[]},{"type":"error","name":"IncorrectPayment","inputs":[]},{"type":"error","name":"InitialLiquidityAlreadyAdded","inputs":[]},{"type":"error","name":"InitialLiquidityNotYetAdded","inputs":[]},{"type":"error","name":"InsufficientAllowance","inputs":[]},{"type":"error","name":"InvalidAdapterParams","inputs":[]},{"type":"error","name":"InvalidAddress","inputs":[]},{"type":"error","name":"InvalidEndpointCaller","inputs":[]},{"type":"error","name":"InvalidInitialization","inputs":[]},{"type":"error","name":"InvalidMinGas","inputs":[]},{"type":"error","name":"InvalidOracleSignature","inputs":[]},{"type":"error","name":"InvalidPayload","inputs":[]},{"type":"error","name":"InvalidReceiver","inputs":[]},{"type":"error","name":"InvalidSourceSendingContract","inputs":[]},{"type":"error","name":"InvalidTotalShares","inputs":[]},{"type":"error","name":"LPLockUpMustFitUint88","inputs":[]},{"type":"error","name":"LimitsCanOnlyBeRaised","inputs":[]},{"type":"error","name":"LiquidityPoolCannotBeAddressZero","inputs":[]},{"type":"error","name":"LiquidityPoolMustBeAContractAddress","inputs":[]},{"type":"error","name":"ListLengthMismatch","inputs":[]},{"type":"error","name":"MachineAddressCannotBeAddressZero","inputs":[]},{"type":"error","name":"ManagerUnauthorizedAccount","inputs":[]},{"type":"error","name":"MaxBidQuantityIs255","inputs":[]},{"type":"error","name":"MaxPublicMintAllowanceExceeded","inputs":[{"name":"requested","type":"uint256","internalType":"uint256"},{"name":"alreadyMinted","type":"uint256","internalType":"uint256"},{"name":"maxAllowance","type":"uint256","internalType":"uint256"}]},{"type":"error","name":"MaxSupplyTooHigh","inputs":[]},{"type":"error","name":"MaxTokensPerTxnExceeded","inputs":[]},{"type":"error","name":"MaxTokensPerWalletExceeded","inputs":[]},{"type":"error","name":"MetadataIsLocked","inputs":[]},{"type":"error","name":"MinGasLimitNotSet","inputs":[]},{"type":"error","name":"MintERC2309QuantityExceedsLimit","inputs":[]},{"type":"error","name":"MintToZeroAddress","inputs":[]},{"type":"error","name":"MintZeroQuantity","inputs":[]},{"type":"error","name":"MintingIsClosedForever","inputs":[]},{"type":"error","name":"NewBuyTaxBasisPointsExceedsMaximum","inputs":[]},{"type":"error","name":"NewSellTaxBasisPointsExceedsMaximum","inputs":[]},{"type":"error","name":"NoETHForLiquidityPair","inputs":[]},{"type":"error","name":"NoPaymentDue","inputs":[]},{"type":"error","name":"NoRefundForCaller","inputs":[]},{"type":"error","name":"NoStoredMessage","inputs":[]},{"type":"error","name":"NoTokenForLiquidityPair","inputs":[]},{"type":"error","name":"NoTrustedPathRecord","inputs":[]},{"type":"error","name":"NotInitializing","inputs":[]},{"type":"error","name":"NothingToClaim","inputs":[]},{"type":"error","name":"OperationDidNotSucceed","inputs":[]},{"type":"error","name":"OracleSignatureHasExpired","inputs":[]},{"type":"error","name":"OwnableInvalidOwner","inputs":[{"name":"owner","type":"address","internalType":"address"}]},{"type":"error","name":"OwnableUnauthorizedAccount","inputs":[{"name":"account","type":"address","internalType":"address"}]},{"type":"error","name":"OwnerQueryForNonexistentToken","inputs":[]},{"type":"error","name":"OwnershipNotInitializedForExtraData","inputs":[]},{"type":"error","name":"ParamTooLargeEndDate","inputs":[]},{"type":"error","name":"ParamTooLargeMinETH","inputs":[]},{"type":"error","name":"ParamTooLargePerAddressMax","inputs":[]},{"type":"error","name":"ParamTooLargePoolPerTxnMinETH","inputs":[]},{"type":"error","name":"ParamTooLargePoolSupply","inputs":[]},{"type":"error","name":"ParamTooLargeStartDate","inputs":[]},{"type":"error","name":"ParamTooLargeVestingDays","inputs":[]},{"type":"error","name":"ParametersDoNotMatchSignedMessage","inputs":[]},{"type":"error","name":"PassedConfigDoesNotMatchApproved","inputs":[]},{"type":"error","name":"PauseCutOffHasPassed","inputs":[]},{"type":"error","name":"PaymentMustCoverPerMintFee","inputs":[]},{"type":"error","name":"PermitDidNotSucceed","inputs":[]},{"type":"error","name":"PlatformAdminCannotBeAddressZero","inputs":[]},{"type":"error","name":"PlatformTreasuryCannotBeAddressZero","inputs":[]},{"type":"error","name":"PoolIsAboveMinimum","inputs":[]},{"type":"error","name":"PoolIsBelowMinimum","inputs":[]},{"type":"error","name":"PoolPhaseIsClosed","inputs":[]},{"type":"error","name":"PoolPhaseIsNotAfter","inputs":[]},{"type":"error","name":"PoolVestingNotYetComplete","inputs":[]},{"type":"error","name":"ProjectOwnerCannotBeAddressZero","inputs":[]},{"type":"error","name":"ProofInvalid","inputs":[]},{"type":"error","name":"QuantityExceedsMaxPossibleCollectionSupply","inputs":[]},{"type":"error","name":"QuantityExceedsRemainingCollectionSupply","inputs":[]},{"type":"error","name":"QuantityExceedsRemainingPhaseSupply","inputs":[]},{"type":"error","name":"ReferralIdAlreadyUsed","inputs":[]},{"type":"error","name":"RequestingMoreThanAvailableBalance","inputs":[]},{"type":"error","name":"RequestingMoreThanRemainingAllocation","inputs":[{"name":"previouslyMinted","type":"uint256","internalType":"uint256"},{"name":"requested","type":"uint256","internalType":"uint256"},{"name":"remainingAllocation","type":"uint256","internalType":"uint256"}]},{"type":"error","name":"RoyaltyFeeWillExceedSalePrice","inputs":[]},{"type":"error","name":"SafeERC20FailedOperation","inputs":[{"name":"token","type":"address","internalType":"address"}]},{"type":"error","name":"ShareTotalCannotBeZero","inputs":[]},{"type":"error","name":"SliceOutOfBounds","inputs":[]},{"type":"error","name":"SliceOverflow","inputs":[]},{"type":"error","name":"SuperAdminCannotBeAddressZero","inputs":[]},{"type":"error","name":"SupplyTotalMismatch","inputs":[]},{"type":"error","name":"SupportWindowIsNotOpen","inputs":[]},{"type":"error","name":"TaxFreeAddressCannotBeAddressZero","inputs":[]},{"type":"error","name":"TaxPeriodStillInForce","inputs":[]},{"type":"error","name":"TemplateCannotBeAddressZero","inputs":[]},{"type":"error","name":"TemplateNotFound","inputs":[]},{"type":"error","name":"ThisMintIsClosed","inputs":[]},{"type":"error","name":"TotalSharesMustMatchDenominator","inputs":[]},{"type":"error","name":"TransferAmountExceedsBalance","inputs":[]},{"type":"error","name":"TransferCallerNotOwnerNorApproved","inputs":[]},{"type":"error","name":"TransferFailed","inputs":[]},{"type":"error","name":"TransferFromIncorrectOwner","inputs":[]},{"type":"error","name":"TransferFromZeroAddress","inputs":[]},{"type":"error","name":"TransferToBlacklistedAddress","inputs":[]},{"type":"error","name":"TransferToNonERC721ReceiverImplementer","inputs":[]},{"type":"error","name":"TransferToZeroAddress","inputs":[]},{"type":"error","name":"URIQueryForNonexistentToken","inputs":[]},{"type":"error","name":"UnrecognisedVRFMode","inputs":[]},{"type":"error","name":"VRFCoordinatorCannotBeAddressZero","inputs":[]},{"type":"error","name":"ValueExceedsMaximum","inputs":[]}],"bytecode":{"object":"0x6080806040523460d0577ff0c57e16840df040f15088dc2f81fe391c3923bec73e23a9662efc9c229c6a005460ff8160401c1660c1576002600160401b03196001600160401b03821601605c575b6040516137ba90816100d58239f35b6001600160401b0319166001600160401b039081177ff0c57e16840df040f15088dc2f81fe391c3923bec73e23a9662efc9c229c6a005581527fc7f505b2f371ae2175ee4913f4499e1f2633a7b5936321eed1cdaeb6115181d290602090a15f80604d565b63f92ee8a960e01b5f5260045ffd5b5f80fdfe608080604052600436101561001c575b50361561001a575f80fd5b005b5f3560e01c908163038272b6146120d35750806306fdde0314612041578063095ea7b31461201b57806310b828c914611ff557806316c0212914611fb857806318160ddd14611f9b57806323b872dd14611f485780632d405ede14611ed55780632ead095514611e48578063313ce56714611e2d578063326b3b8b14611d885780633950935114611d3a5780633de35b7914611d1257806342966c6814611cf557806349bd5a5e14611cce5780634bed5ad214611caa57806359cabbe4146117ed57806363a9c1f2146117d057806370a0823114611798578063715018a61461171b57806379ba5097146116cf57806379cc67901461169f57806384b1df5214610cf75780638589287a14610c7d5780638da5cb5b14610c49578063900ce6ba14610bd3578063936b293414610aae57806395d89b41146109eb5780639808751d1461094c578063a1db9782146108a0578063a457c2d714610841578063a45cae0214610376578063a9059cbb146107ee578063ae22107f14610764578063b0d750971461073e578063b2c5c9eb1461071a578063b498d39f14610664578063bfe3098f14610638578063d6efd7c3146105ac578063dd62ed3e1461055c578063e30c397814610528578063e37d9e95146104ae578063e85455d714610481578063ea8b242414610459578063ee6a934c1461039a578063eeae0f9714610376578063f14210a6146102f3578063f2fde38b1461026f5763fbfa77cf14610243575f61000f565b3461026b575f36600319011261026b576006546040516001600160a01b039091168152602090f35b5f80fd5b3461026b57602036600319011261026b5761028861211e565b6102906131e3565b5f8051602061376583398151915280546001600160a01b0319166001600160a01b039283169081179091555f805160206136c5833981519152549091167f38d16b8cac22d99fc7c124b9cd0de2d3fa1faef420bfe791d8c362d765e227005f80a3005b3461026b57602036600319011261026b575f805160206136c5833981519152546001600160a01b031633141580610361575b610352575f808080600435335af161033b6122b4565b501561034357005b6312171d8360e31b5f5260045ffd5b63faa39fbf60e01b5f5260045ffd5b506010546001600160a01b0316331415610325565b3461026b575f36600319011261026b57602061ffff60025460c81c16604051908152f35b3461026b57602036600319011261026b576103b361211e565b5f805160206136c5833981519152546001600160a01b031633141580610444575b610352576001600160a01b038116908115610435573b156104265760208161041c7fb893f883ef734b712208a877459424ee509832c57e0461fb1ac99ed4d42f2d89936135a4565b50604051908152a1005b630f9da0c760e41b5f5260045ffd5b63b47cdee560e01b5f5260045ffd5b506010546001600160a01b03163314156103d4565b3461026b575f36600319011261026b576004546040516001600160a01b039091168152602090f35b3461026b57602036600319011261026b5760206104a461049f61211e565b612285565b6040519015158152f35b3461026b57602036600319011261026b5760043560018060a01b035f805160206136c5833981519152541633141580610513575b6103525760208161041c7ff7d7abaf8b0e82705f2ef671054dd11a306d870da0bbb8be1ff24bd0096de7ba936135f9565b506010546001600160a01b03163314156104e2565b3461026b575f36600319011261026b575f80516020613765833981519152546040516001600160a01b039091168152602090f35b3461026b57604036600319011261026b5761057561211e565b61057d612134565b6001600160a01b039182165f908152600b60209081526040808320949093168252928352819020549051908152f35b3461026b575f36600319011261026b57604051806020600e54918281520190600e5f527fbb7b4a454dc3493923482f07822329ed19e8244eff582cc204f8554c3620c3fd905f5b8181106106225761061e8561060a8187038261215b565b6040519182916020835260208301906121dd565b0390f35b82548452602090930192600192830192016105f3565b3461026b57602036600319011261026b576004355f52600d602052602060405f20541515604051908152f35b3461026b575f36600319011261026b57604051806020600c5492838152018092600c5f527fdf6966c971051c3d54ec59162606531493a51404a002842f56009d7e5cf4a8c7905f5b81811061070457505050816106c291038261215b565b604051918291602083019060208452518091526040830191905f5b8181106106eb575050500390f35b82518452859450602093840193909201916001016106dd565b82548452602090930192600192830192016106ac565b3461026b575f36600319011261026b57602061ffff60025460d81c16604051908152f35b3461026b575f36600319011261026b5760206001600160801b0360055416604051908152f35b3461026b57602036600319011261026b5761077d61211e565b5f805160206136c5833981519152546001600160a01b0316331415806107d9575b610352577f59c3fbcae88f30e9b0e35c132a7f68c53231dffa4722f197c7ecb0ee013eee60906020906001600160a01b031661041c8161348e565b506010546001600160a01b031633141561079e565b3461026b57604036600319011261026b5761082561080a61211e565b61081333612285565b908115610830575b6024359033612b48565b602060405160018152f35b905061083b81612285565b9061081b565b3461026b57604036600319011261026b5761085a61211e565b60243590335f52600b60205260405f2060018060a01b0382165f5260205260405f20549180831061089157610825920390336122e3565b637b5591b560e11b5f5260045ffd5b3461026b57604036600319011261026b576108b961211e565b5f805160206136c5833981519152546001600160a01b031633141580610937575b610352576001600160a01b03163081146109285760405163a9059cbb60e01b60208201523360248083019190915235604480830191909152815261001a9161092360648361215b565b613539565b63992501b360e01b5f5260045ffd5b506010546001600160a01b03163314156108da565b3461026b57602036600319011261026b5761096561211e565b5f805160206136c5833981519152546001600160a01b0316331415806109d6575b61035257600480546001600160a01b0319166001600160a01b0390921691821790556040519081527fa4eea51cd2f21eac6612ba054a363ae2fd59698fc258ab414313cd73f69f2b8590602090a1005b506010546001600160a01b0316331415610986565b3461026b575f36600319011261026b576040515f600854610a0b81612219565b8084529060018116908115610a8a5750600114610a3f575b61061e83610a338185038261215b565b604051918291826120f4565b91905060085f525f80516020613705833981519152915f905b808210610a7057509091508101602001610a33610a23565b919260018160209254838588010152019101909291610a58565b60ff191660208086019190915291151560051b84019091019150610a339050610a23565b3461026b57604036600319011261026b57610ac761214a565b6024359061ffff82169081830361026b575f805160206136c5833981519152546001600160a01b031633141580610bbe575b610352576002549161ffff60c81b8260c81b169361ffff60d81b9060d81b1692838563ffffffff60c81b198316171761ffff808260d81c169160c81c16019061ffff8211610baa577f8da1f77a22734510b762a9625e69e737d7c0cc48984e810e5802fb341eb80a3e9560809560ff61ffff8095161515169160ff63ffffffff60c81b011984161717176002558160405194818360c81c16865216602085015260d81c1660408301526060820152a1005b634e487b7160e01b5f52601160045260245ffd5b506010546001600160a01b0316331415610af9565b3461026b57602036600319011261026b57610bec61211e565b5f805160206136c5833981519152546001600160a01b031633141580610c34575b610352576001600160a01b03165f908152601160205260409020805460ff19166001179055005b506010546001600160a01b0316331415610c0d565b3461026b575f36600319011261026b575f805160206136c5833981519152546040516001600160a01b039091168152602090f35b3461026b57602036600319011261026b5760043560018060a01b035f805160206136c5833981519152541633141580610ce2575b6103525760208161041c7fdd5aeaec2032ed464aed048b9014721d48de827cef3d77f78f0a76f1f0136dd4936133b3565b506010546001600160a01b0316331415610cb1565b3461026b5760c036600319011261026b57366023121561026b57604051606081018181106001600160401b0382111761143957604052803660641161026b576004905b6064821061167f57826064356001600160401b03811161026b57610d62903690600401612197565b906084356001600160401b03811161026b57610d82903690600401612197565b9060a4356001600160401b03811161026b57610da2903690600401612197565b905f80516020613745833981519152549360ff8560401c1615946001600160401b03811680159081611677575b600114908161166d575b159081611664575b506116555767ffffffffffffffff1981166001175f805160206137458339815191525585611629575b508151610e1f906001600160a01b0316613203565b80518101906040816020840193031261026b5760208101516001600160401b03811161026b57826020610e549284010161326e565b916040820151916001600160401b03831161026b57610e76920160200161326e565b8051906001600160401b038211611439578190610e94600854612219565b601f81116115b7575b50602090601f8311600114611546575f9261153b575b50508160011b915f199060031b1c1916176008555b8051906001600160401b038211611439578190610ee6600754612219565b601f81116114c9575b50602090601f8311600114611458575f9261144d575b50508160011b915f199060031b1c1916176007555b602081015160028054610100600160a81b03191660089290921b610100600160a81b031691909117905560400151600380546001600160a01b0319166001600160a01b0392909216919091179055815160e09083018390031261026b5760405160e081018181106001600160401b03821117611439576040526020830151815260408301519160208201928352606084015192604083019384526080850151606084015260a08501516080840152610fe060e060c08701519660a086019788520161225e565b60c0840190815260808380518101031261026b5760405190608082018281106001600160401b0382111761143957604052602084015182526040840151602083015261103a6080606086015195604085019687520161225e565b946060830195865280516110518851865190612251565b0361142a576001600160801b0390511161141b576110af926110a59160018060a01b039051166001600160601b0360a01b60065416176006555161109e670de0b6b3a76400008092612272565b9651612272565b95516001556132b4565b15159060ff6002549161ffff60e81b905160e81b1692169061010062ff000160e81b0316171760025560018060a01b039051166001600160601b0360a01b60045416176004558061140b575b50806113ef575b5060025460405163c45a015560e01b81529060081c6001600160a01b0316602082600481845afa918215611328575f926113b3575b5060035460405163e6a4390560e01b81523060048201526001600160a01b0391821660248201819052909390929160209185916044918391165afa928315611328575f93611377575b506001600160a01b0383161561123b575b50506001600160a01b03166111a5816135a4565b506001600160601b0360a01b5f5416175f55336001600160601b0360a01b6010541617601055600160a01b60ff60a01b1960035416176003556111e457005b68ff0000000000000000195f8051602061374583398151915254165f80516020613745833981519152557fc7f505b2f371ae2175ee4913f4499e1f2633a7b5936321eed1cdaeb6115181d2602060405160018152a1005b60405163c45a015560e01b81529250602090839060049082905afa918215611328575f92611333575b506040516364e329cb60e11b81523060048201526001600160a01b039091166024820152906020908290815f81604481015b03926001600160a01b03165af1908115611328575f916112ee575b506040516001600160a01b03821681527f969ffc8569f9af3993220e04ac05164e5db4e3d9f8b1a47f64e7de9a04b8ea2f90602090a18280611191565b90506020813d602011611320575b816113096020938361215b565b8101031261026b5761131a9061225e565b826112b1565b3d91506112fc565b6040513d5f823e3d90fd5b91506020823d60201161136f575b8161134e6020938361215b565b8101031261026b576112966020916113665f9461225e565b93509150611264565b3d9150611341565b9092506020813d6020116113ab575b816113936020938361215b565b8101031261026b576113a49061225e565b9184611180565b3d9150611386565b9091506020813d6020116113e7575b816113cf6020938361215b565b8101031261026b576113e09061225e565b9083611137565b3d91506113c2565b60065461140591906001600160a01b0316613328565b81611102565b6114159030613328565b826110fb565b637f47720f60e11b5f5260045ffd5b6361cf53d560e01b5f5260045ffd5b634e487b7160e01b5f52604160045260245ffd5b015190508680610f05565b60075f9081525f805160206136e58339815191529350601f198516905b8181106114b15750908460019594939210611499575b505050811b01600755610f1a565b01515f1960f88460031b161c1916905586808061148b565b92936020600181928786015181550195019301611475565b90915060075f52601f830160051c5f805160206136e5833981519152019060208410611526575b90601f8493920160051c5f805160206136e583398151915201905b8181106115185750610eef565b5f815584935060010161150b565b5f805160206136e583398151915291506114f0565b015190508780610eb3565b60085f9081525f805160206137058339815191529350601f198516905b81811061159f5750908460019594939210611587575b505050811b01600855610ec8565b01515f1960f88460031b161c19169055878080611579565b92936020600181928786015181550195019301611563565b90915060085f52601f830160051c5f80516020613705833981519152019060208410611614575b90601f8493920160051c5f8051602061370583398151915201905b8181106116065750610e9d565b5f81558493506001016115f9565b5f8051602061370583398151915291506115de565b68ffffffffffffffffff191668010000000000000001175f805160206137458339815191525585610e0a565b63f92ee8a960e01b5f5260045ffd5b90501587610de1565b303b159150610dd9565b879150610dcf565b81356001600160a01b038116810361026b57815260209182019101610d3a565b3461026b57604036600319011261026b5761001a6116bb61211e565b602435906116ca823383612346565b61314e565b3461026b575f36600319011261026b575f8051602061376583398151915254336001600160a01b03909116036117085761001a33613203565b63118cdaa760e01b5f523360045260245ffd5b3461026b575f36600319011261026b576117336131e3565b5f8051602061376583398151915280546001600160a01b03199081169091555f805160206136c5833981519152805491821690555f906001600160a01b03167f8be0079c531659141344cd1fd0a4f28419497f9722a3daafe3b4186f6b6457e08280a3005b3461026b57602036600319011261026b576001600160a01b036117b961211e565b165f52600a602052602060405f2054604051908152f35b3461026b575f36600319011261026b576020600154604051908152f35b3461026b57602036600319011261026b5761180661211e565b5f805160206136c5833981519152546001600160a01b031633141580611c95575b6103525760025463ffffffff8160a81c16611c865763ffffffff60a81b19164260a81b63ffffffff60a81b16176002819055305f908152600a602052604090205415611c775760081c6001600160a01b03163015611c68578015611c5957305f52600b60205260405f2060018060a01b0382165f5260205260405f205f1990556040515f1981527f8c5be1e5ebec7d5bd14f71427d1e84f3dd0314c0f7b2291e5b200ac8c7c3b92560203092a360035460025460405163095ea7b360e01b81526001600160a01b0360089290921c821660048201525f19602482015291602091839160449183915f91165af1801561132857611c3c575b5060025460405163c45a015560e01b8152906020908290600490829060081c6001600160a01b03165afa908115611328575f91611c02575b5060035460405163e6a4390560e01b81523060048201526001600160a01b0391821660248201819052939092909160209184916044918391165afa918215611328575f92611bc6575b50305f52600a6020526024602060405f205494604051928380926370a0823160e01b82523060048301525afa908115611328575f91611b94575b506119e58484306123b5565b60035460405163a9059cbb60e01b81526001600160a01b03858116600483015260248201849052909491602091869160449183915f91165af1908115611328575f94602092611b79575b506040516335313c2160e11b815230600482015294859160249183916001600160a01b03165af1928315611328575f93611b23575b50907fbf59dda00152e02f20e18cab7307c8afe0714e7f69cf24a1377cbbddcb40f9bb6060611aeb956020959460405191825286820152846040820152a16003805460ff60a01b191690555f805460405163a9059cbb60e01b81526001600160a01b0393841660048201526024810194909452929485939092169183919082906044820190565b03925af1801561132857611afb57005b61001a9060203d602011611b1c575b611b14818361215b565b8101906131cb565b503d611b0a565b9250906020833d602011611b71575b81611b3f6020938361215b565b8101031261026b57915191907fbf59dda00152e02f20e18cab7307c8afe0714e7f69cf24a1377cbbddcb40f9bb611a64565b3d9150611b32565b611b8f90833d8511611b1c57611b14818361215b565b611a2f565b90506020813d602011611bbe575b81611baf6020938361215b565b8101031261026b5751846119d9565b3d9150611ba2565b9091506020813d602011611bfa575b81611be26020938361215b565b8101031261026b57611bf39061225e565b908361199f565b3d9150611bd5565b90506020813d602011611c34575b81611c1d6020938361215b565b8101031261026b57611c2e9061225e565b82611956565b3d9150611c10565b611c549060203d602011611b1c57611b14818361215b565b61191e565b63b2fa1ef360e01b5f5260045ffd5b6356fdae6560e11b5f5260045ffd5b6330d86fb160e11b5f5260045ffd5b63b1f3376760e01b5f5260045ffd5b506010546001600160a01b0316331415611827565b3461026b575f36600319011261026b57602061ffff60025460e81c16604051908152f35b3461026b575f36600319011261026b575f546040516001600160a01b039091168152602090f35b3461026b57602036600319011261026b5761001a6004353361314e565b3461026b575f36600319011261026b576003546040516001600160a01b039091168152602090f35b3461026b57604036600319011261026b57610825611d5661211e565b335f52600b60205260405f2060018060a01b0382165f52602052611d8160405f206024359054612251565b90336122e3565b3461026b57602036600319011261026b57611da161214a565b5f805160206136c5833981519152546001600160a01b031633141580611e18575b6103525760407fe4351c45b53ffb7ebad0b66cc0f1a3dfe2963c099421eeaded141104df39206a9161ffff600254918160e81b8160e81b168260e81b198416176002558184519360e81c168352166020820152a1005b506010546001600160a01b0316331415611dc2565b3461026b575f36600319011261026b57602060405160128152f35b3461026b575f36600319011261026b575f805160206136c5833981519152546001600160a01b031633141580611ec0575b610352576005546001600160801b03811680611e9157005b6fffffffffffffffffffffffffffffffff1990911660055560045461001a91906001600160a01b0316306123b5565b506010546001600160a01b0316331415611e79565b3461026b57602036600319011261026b57611eee61211e565b5f805160206136c5833981519152546001600160a01b031633141580611f33575b610352576001600160a01b03165f908152601160205260409020805460ff19169055005b506010546001600160a01b0316331415611f0f565b3461026b57606036600319011261026b57610825611f6461211e565b611f6c612134565b60443590611f7b823385612346565b611f8483612285565b9283612b48579250611f9581612285565b92612b48565b3461026b575f36600319011261026b576020600954604051908152f35b3461026b57602036600319011261026b576001600160a01b03611fd961211e565b165f526011602052602060ff60405f2054166040519015158152f35b3461026b575f36600319011261026b57602063ffffffff60025460a81c16604051908152f35b3461026b57604036600319011261026b5761082561203761211e565b60243590336122e3565b3461026b575f36600319011261026b576040515f60075461206181612219565b8084529060018116908115610a8a57506001146120885761061e83610a338185038261215b565b91905060075f525f805160206136e5833981519152915f905b8082106120b957509091508101602001610a33610a23565b9192600181602092548385880101520191019092916120a1565b3461026b575f36600319011261026b5760209061ffff60025460d81c168152f35b602060409281835280519182918282860152018484015e5f828201840152601f01601f1916010190565b600435906001600160a01b038216820361026b57565b602435906001600160a01b038216820361026b57565b6004359061ffff8216820361026b57565b90601f801991011681019081106001600160401b0382111761143957604052565b6001600160401b03811161143957601f01601f191660200190565b81601f8201121561026b578035906121ae8261217c565b926121bc604051948561215b565b8284526020838301011161026b57815f926020809301838601378301015290565b90602080835192838152019201905f5b8181106121fa5750505090565b82516001600160a01b03168452602093840193909201916001016121ed565b90600182811c92168015612247575b602083101461223357565b634e487b7160e01b5f52602260045260245ffd5b91607f1691612228565b91908201809211610baa57565b51906001600160a01b038216820361026b57565b81810292918115918404141715610baa57565b5f546001600160a01b03918216911681149081156122a1575090565b90505f52600f60205260405f2054151590565b3d156122de573d906122c58261217c565b916122d3604051938461215b565b82523d5f602084013e565b606090565b6001600160a01b0316908115611c68576001600160a01b0316918215611c595760207f8c5be1e5ebec7d5bd14f71427d1e84f3dd0314c0f7b2291e5b200ac8c7c3b92591835f52600b825260405f20855f5282528060405f2055604051908152a3565b6001600160a01b038082165f908152600b6020908152604080832093861683529290522054929091906001840161237e575b50505050565b808410612399576123909303916122e3565b5f808080612378565b6313be252b60e01b5f5260045ffd5b91908203918211610baa57565b6001600160a01b038116801593909291905f90851580612b36575b612b09575b5f546001600160a01b03858116979116871480612aff575b80612aec575b612add57612ace578515612abf57845f52600a60205260405f205493818510612ab05760025460ff81166125af575b5091602093915f80516020613725833981519152959381936002549060ff8216806125a8575b80612598575b61248c575b50505061246390604093946123a8565b868252600a855282822055868152600a845220612481828254612251565b9055604051908152a3565b6124968593612285565b80612588575b1561252157505061ffff60025460d81c16806124f0575b505b806124c2575b8080612453565b604093509061246391308452600a875284842081815401905584518181528989893093a381039350906124bb565b61271090830204906005546001600160801b038084168183160116906001600160801b03191617600555015f6124b3565b61252a90612285565b80612578575b61253b575b506124b5565b60c81c61ffff1680156125355761271091508202046005546001600160801b038083168183160116906001600160801b031916176005555f612535565b5061ffff8160c81c161515612530565b5061ffff8260d81c16151561249c565b5060ff60035460a01c161561244e565b5084612448565b305f52600a60205260405f20549081620f42406125d660095461ffff8560e81c1690612272565b048082101580612aa0575b80612a90575b80612a79575b80612a62575b80612a58575b612606575b505050612422565b6003805460ff60a01b198116600160a01b179091559060148082029180159083049091141715610baa57808311612a4f575b506024919260206040519261264e60608561215b565b60028452604036838601373061266385613649565b526001600160a01b03168061267785613656565b526040516370a0823160e01b815230600482015294859182905afa928315611328575f93612a1b575b5060018060a01b039060081c16610258420191824211610baa57813b1561026b575f916126f89183604051809681958294635c11d79560e01b84528b600485015284602485015260a0604485015260a48401906121dd565b90306064840152608483015203925af19081612a06575b506127705750505091602093915f8051602061372583398151915295937f60dc41faad9fe4f70f304dcef26d96d71e98ec8e21e4a340921d94dfe46307dc8660405160058152a15b60ff60a01b19600354166003559193958193955f6125fe565b6003546040516370a0823160e01b81523060048201526001600160a01b0390911691602082602481865afa80156129fb5788906129c7575b6127b292506123a8565b9081612869575b50508181101561283d576001600160801b036127e4600554936127df8386169485612272565b61330a565b1690036001600160801b038111612829579160209593916001600160801b035f8051602061372583398151915298969416906001600160801b03191617600555612757565b634e487b7160e01b85526011600452602485fd5b505091602093915f8051602061372583398151915295936001600160801b031960055416600555612757565b60045460405163095ea7b360e01b602082019081526001600160a01b039092166024820181905260448201859052929091899081906128b585606481015b03601f19810187528661215b565b84519082855af16128c46122b4565b81612998575b508061298e575b1561294e575b50506004546001600160a01b0316919050813b1561294a57604051631f0242dd60e01b815230600482015260248101919091529086908290604490829084905af1801561293f57908691156127b957816129309161215b565b61293b57845f6127b9565b8480fd5b6040513d88823e3d90fd5b8680fd5b610923612986936040519063095ea7b360e01b602083015260248201528a60448201526044815261298060648261215b565b82613539565b5f80806128d7565b50803b15156128d1565b80518015925082156129ad575b50505f6128ca565b6129c092506020809183010191016131cb565b5f806129a5565b506020823d6020116129f3575b816129e16020938361215b565b8101031261026b576127b291516127a8565b3d91506129d4565b6040513d8a823e3d90fd5b612a139197505f9061215b565b5f955f61270f565b9092506020813d602011612a47575b81612a376020938361215b565b8101031261026b5751915f6126a0565b3d9150612a2a565b91506024612638565b50308a14156125f9565b50600883901c6001600160a01b03168b14156125f3565b50600883901c6001600160a01b03168a14156125ed565b50612a9a88612285565b156125e7565b5060ff60035460a01c16156125e1565b635dd58b8b60e01b5f5260045ffd5b633a954ecd60e21b5f5260045ffd5b630b07e54560e11b5f5260045ffd5b630d970b4560e21b5f5260045ffd5b5063ffffffff60025460a81c16156123f3565b50308614156123ed565b6001600160a01b0384165f9081526011602052604090205460ff16156123d55761346960f11b5f5260045ffd5b506001600160a01b03841615156123d0565b6001600160a01b038116801594909390925f919086158061313c575b61310f575b5f546001600160a01b03828116989116881480613105575b806130f2575b612add57612ace578615612abf57855f52600a60205260405f205494828610612ab05760025460ff8116612c02575b50918391602095935f8051602061372583398151915297955082946002549160ff83169081612bfa575b50806125985761248c5750505061246390604093946123a8565b90505f612be0565b305f52600a60205260405f20549081620f4240612c2960095461ffff8560e81c1690612272565b0480821015806130e2575b806130d2575b806130bb575b806130a4575b8061309a575b612c59575b505050612bb6565b6003805460ff60a01b198116600160a01b179091559060148082029180159083049091141715610baa57808311613091575b5060249192602060405192612ca160608561215b565b600284526040368386013730612cb685613649565b526001600160a01b031680612cca85613656565b526040516370a0823160e01b815230600482015294859182905afa928315611328575f9361305d575b5060018060a01b039060081c16610258420191824211610baa57813b1561026b575f91612d4b9183604051809681958294635c11d79560e01b84528b600485015284602485015260a0604485015260a48401906121dd565b90306064840152608483015203925af19081613048575b50612dc557505050915f80516020613725833981519152959391602095937f60dc41faad9fe4f70f304dcef26d96d71e98ec8e21e4a340921d94dfe46307dc8760405160058152a15b60ff60a01b1960035416600355919395819395975f612c51565b6003546040516370a0823160e01b81523060048201526001600160a01b0390911691602082602481865afa801561303d578990613009575b612e0792506123a8565b9081612ebb575b505081811015612e8e576001600160801b03612e34600554936127df8386169485612272565b1690036001600160801b038111612e7a57915f80516020613725833981519152979593916001600160801b03602098969416906001600160801b03191617600555612dab565b634e487b7160e01b86526011600452602486fd5b5050915f80516020613725833981519152959391602095936001600160801b031960055416600555612dab565b60045460405163095ea7b360e01b602082019081526001600160a01b0390921660248201819052604482018590529290918a908190612efd85606481016128a7565b84519082855af1612f0c6122b4565b81612fda575b5080612fd0575b15612f96575b50506004546001600160a01b0316919050813b15612f9257604051631f0242dd60e01b815230600482015260248101919091529087908290604490829084905af18015612f875790879115612e0e5781612f789161215b565b612f8357855f612e0e565b8580fd5b6040513d89823e3d90fd5b8780fd5b610923612fc8936040519063095ea7b360e01b602083015260248201528b60448201526044815261298060648261215b565b5f8080612f1f565b50803b1515612f19565b8051801592508215612fef575b50505f612f12565b61300292506020809183010191016131cb565b5f80612fe7565b506020823d602011613035575b816130236020938361215b565b8101031261026b57612e079151612dfd565b3d9150613016565b6040513d8b823e3d90fd5b6130559198505f9061215b565b5f965f612d62565b9092506020813d602011613089575b816130796020938361215b565b8101031261026b5751915f612cf3565b3d915061306c565b91506024612c8b565b50308b1415612c4c565b50600883901c6001600160a01b03168c1415612c46565b50600883901c6001600160a01b03168b1415612c40565b506130dc89612285565b15612c3a565b5060ff60035460a01c1615612c34565b5063ffffffff60025460a81c1615612b87565b5030871415612b81565b6001600160a01b0381165f9081526011602052604090205460ff1615612b695761346960f11b5f5260045ffd5b506001600160a01b0381161515612b64565b6001600160a01b031680156131bc57805f52600a60205260405f2054918083106131ad576020815f80516020613725833981519152925f95858752600a84520360408620556001600160801b03811660095403600955604051908152a3565b63588569f760e01b5f5260045ffd5b6304fca6bd60e41b5f5260045ffd5b9081602091031261026b5751801515810361026b5790565b5f805160206136c5833981519152546001600160a01b0316330361170857565b5f8051602061376583398151915280546001600160a01b03199081169091555f805160206136c583398151915280549182166001600160a01b0393841690811790915591167f8be0079c531659141344cd1fd0a4f28419497f9722a3daafe3b4186f6b6457e05f80a3565b81601f8201121561026b578051906132858261217c565b92613293604051948561215b565b8284526020838301011161026b57815f9260208093018386015e8301015290565b8051908115806132fe575b156132ca5750505f90565b60025490602061ffff60d81b91015160d81b169161ffff60c81b9060c81b169063ffffffff60c81b19161717600255600190565b506020810151156132bf565b8115613314570490565b634e487b7160e01b5f52601260045260245ffd5b6001600160a01b031690811561337c575f8051602061372583398151915260208261335f6001600160801b035f9516600954612251565b600955848452600a825260408420818154019055604051908152a3565b622e076360e81b5f5260045ffd5b805482101561339f575f5260205f2001905f90565b634e487b7160e01b5f52603260045260245ffd5b5f818152600d60205260409020548015613488575f198101818111610baa57600c545f19810191908211610baa5781810361343a575b505050600c548015613426575f190161340381600c61338a565b8154905f199060031b1b19169055600c555f52600d6020525f6040812055600190565b634e487b7160e01b5f52603160045260245ffd5b61347261344b61345c93600c61338a565b90549060031b1c928392600c61338a565b819391549060031b91821b915f19901b19161790565b90555f52600d60205260405f20555f80806133e9565b50505f90565b5f818152600f60205260409020548015613488575f198101818111610baa57600e545f19810191908211610baa57818103613501575b505050600e548015613426575f19016134de81600e61338a565b8154905f199060031b1b19169055600e555f52600f6020525f6040812055600190565b61352361351261345c93600e61338a565b90549060031b1c928392600e61338a565b90555f52600f60205260405f20555f80806134c4565b5f806135619260018060a01b03169360208151910182865af161355a6122b4565b9083613666565b8051908115159182613589575b50506135775750565b635274afe760e01b5f5260045260245ffd5b61359c92506020809183010191016131cb565b155f8061356e565b805f52600f60205260405f2054155f146135f457600e54600160401b811015611439576135dd61345c826001859401600e55600e61338a565b9055600e54905f52600f60205260405f2055600190565b505f90565b805f52600d60205260405f2054155f146135f457600c54600160401b8110156114395761363261345c826001859401600c55600c61338a565b9055600c54905f52600d60205260405f2055600190565b80511561339f5760200190565b80516001101561339f5760400190565b9061368a575080511561367b57805190602001fd5b630a12f52160e11b5f5260045ffd5b815115806136bb575b61369b575090565b639996b31560e01b5f9081526001600160a01b0391909116600452602490fd5b50803b1561369356fe9016d09d72d40fdae2fd8ceac6b6234c7706214fd39c1cd1e609a0528c199300a66cc928b5edb82af9bd49922954155ab7b0942694bea4ce44661d9a8736c688f3f7a9fe364faab93b216da50a3214154f22a0a2b415b23a84c8169e8b636ee3ddf252ad1be2c89b69c2b068fc378daa952ba7f163c4a11628f55a4df523b3eff0c57e16840df040f15088dc2f81fe391c3923bec73e23a9662efc9c229c6a00237e158222e3e6968b72b9db0d8043aacf074ad9f650f0d1606b4d82ee432c00a2646970667358221220b69612d50ba9552d84052e0ca8b9dfbc6f287d81b58b8dd0b340551c5db8895064736f6c634300081a0033","linkReferences":{}},"methodIdentifiers":{"acceptOwnership()":"79ba5097","addBlacklistAddress(address)":"900ce6ba","addInitialLiquidity(address)":"59cabbe4","addLiquidityPool(address)":"ee6a934c","addValidCaller(bytes32)":"e37d9e95","allowance(address,address)":"dd62ed3e","approve(address,uint256)":"095ea7b3","balanceOf(address)":"70a08231","blacklists(address)":"16c02129","botProtectionDurationInSeconds()":"63a9c1f2","burn(uint256)":"42966c68","burnFrom(address,uint256)":"79cc6790","decimals()":"313ce567","decreaseAllowance(address,uint256)":"a457c2d7","distributeTaxTokens()":"2ead0955","fundedDate()":"10b828c9","increaseAllowance(address,uint256)":"39509351","initialize(address[3],bytes,bytes,bytes)":"84b1df52","isLiquidityPool(address)":"e85455d7","isValidCaller(bytes32)":"bfe3098f","liquidityPools()":"d6efd7c3","name()":"06fdde03","owner()":"8da5cb5b","pairToken()":"3de35b79","pendingOwner()":"e30c3978","projectBuyTaxBasisPoints()":"a45cae02","projectSellTaxBasisPoints()":"b2c5c9eb","projectTaxPendingSwap()":"b0d75097","projectTaxRecipient()":"ea8b2424","removeBlacklistAddress(address)":"2d405ede","removeLiquidityPool(address)":"ae22107f","removeValidCaller(bytes32)":"8589287a","renounceOwnership()":"715018a6","setProjectTaxRates(uint16,uint16)":"936b2934","setProjectTaxRecipient(address)":"9808751d","setSwapThresholdBasisPoints(uint16)":"326b3b8b","swapThresholdBasisPoints()":"4bed5ad2","symbol()":"95d89b41","totalBuyTaxBasisPoints()":"eeae0f97","totalSellTaxBasisPoints()":"038272b6","totalSupply()":"18160ddd","transfer(address,uint256)":"a9059cbb","transferFrom(address,address,uint256)":"23b872dd","transferOwnership(address)":"f2fde38b","uniswapV2Pair()":"49bd5a5e","validCallers()":"b498d39f","vault()":"fbfa77cf","withdrawERC20(address,uint256)":"a1db9782","withdrawETH(uint256)":"f14210a6"},"id":101}