{"abi":[{"type":"constructor","inputs":[],"stateMutability":"nonpayable"},{"type":"function","name":"ADMIN_ROLE","inputs":[],"outputs":[{"name":"","type":"bytes32","internalType":"bytes32"}],"stateMutability":"view"},{"type":"function","name":"CREATOR_ROLE","inputs":[],"outputs":[{"name":"","type":"bytes32","internalType":"bytes32"}],"stateMutability":"view"},{"type":"function","name":"DEFAULT_ADMIN_ROLE","inputs":[],"outputs":[{"name":"","type":"bytes32","internalType":"bytes32"}],"stateMutability":"view"},{"type":"function","name":"allPairsLength","inputs":[],"outputs":[{"name":"","type":"uint256","internalType":"uint256"}],"stateMutability":"view"},{"type":"function","name":"buyTax","inputs":[],"outputs":[{"name":"","type":"uint256","internalType":"uint256"}],"stateMutability":"view"},{"type":"function","name":"createPair","inputs":[{"name":"tokenA","type":"address","internalType":"address"},{"name":"tokenB","type":"address","internalType":"address"}],"outputs":[{"name":"","type":"address","internalType":"address"}],"stateMutability":"nonpayable"},{"type":"function","name":"getPair","inputs":[{"name":"tokenA","type":"address","internalType":"address"},{"name":"tokenB","type":"address","internalType":"address"}],"outputs":[{"name":"","type":"address","internalType":"address"}],"stateMutability":"view"},{"type":"function","name":"getRoleAdmin","inputs":[{"name":"role","type":"bytes32","internalType":"bytes32"}],"outputs":[{"name":"","type":"bytes32","internalType":"bytes32"}],"stateMutability":"view"},{"type":"function","name":"grantRole","inputs":[{"name":"role","type":"bytes32","internalType":"bytes32"},{"name":"account","type":"address","internalType":"address"}],"outputs":[],"stateMutability":"nonpayable"},{"type":"function","name":"hasRole","inputs":[{"name":"role","type":"bytes32","internalType":"bytes32"},{"name":"account","type":"address","internalType":"address"}],"outputs":[{"name":"","type":"bool","internalType":"bool"}],"stateMutability":"view"},{"type":"function","name":"initialize","inputs":[{"name":"taxVault_","type":"address","internalType":"address"},{"name":"buyTax_","type":"uint256","internalType":"uint256"},{"name":"sellTax_","type":"uint256","internalType":"uint256"}],"outputs":[],"stateMutability":"nonpayable"},{"type":"function","name":"pairs","inputs":[{"name":"","type":"uint256","internalType":"uint256"}],"outputs":[{"name":"","type":"address","internalType":"address"}],"stateMutability":"view"},{"type":"function","name":"renounceRole","inputs":[{"name":"role","type":"bytes32","internalType":"bytes32"},{"name":"callerConfirmation","type":"address","internalType":"address"}],"outputs":[],"stateMutability":"nonpayable"},{"type":"function","name":"revokeRole","inputs":[{"name":"role","type":"bytes32","internalType":"bytes32"},{"name":"account","type":"address","internalType":"address"}],"outputs":[],"stateMutability":"nonpayable"},{"type":"function","name":"router","inputs":[],"outputs":[{"name":"","type":"address","internalType":"address"}],"stateMutability":"view"},{"type":"function","name":"sellTax","inputs":[],"outputs":[{"name":"","type":"uint256","internalType":"uint256"}],"stateMutability":"view"},{"type":"function","name":"setRouter","inputs":[{"name":"router_","type":"address","internalType":"address"}],"outputs":[],"stateMutability":"nonpayable"},{"type":"function","name":"setTaxParams","inputs":[{"name":"newVault_","type":"address","internalType":"address"},{"name":"buyTax_","type":"uint256","internalType":"uint256"},{"name":"sellTax_","type":"uint256","internalType":"uint256"}],"outputs":[],"stateMutability":"nonpayable"},{"type":"function","name":"supportsInterface","inputs":[{"name":"interfaceId","type":"bytes4","internalType":"bytes4"}],"outputs":[{"name":"","type":"bool","internalType":"bool"}],"stateMutability":"view"},{"type":"function","name":"taxVault","inputs":[],"outputs":[{"name":"","type":"address","internalType":"address"}],"stateMutability":"view"},{"type":"event","name":"Initialized","inputs":[{"name":"version","type":"uint64","indexed":false,"internalType":"uint64"}],"anonymous":false},{"type":"event","name":"PairCreated","inputs":[{"name":"tokenA","type":"address","indexed":true,"internalType":"address"},{"name":"tokenB","type":"address","indexed":true,"internalType":"address"},{"name":"pair","type":"address","indexed":false,"internalType":"address"},{"name":"","type":"uint256","indexed":false,"internalType":"uint256"}],"anonymous":false},{"type":"event","name":"RoleAdminChanged","inputs":[{"name":"role","type":"bytes32","indexed":true,"internalType":"bytes32"},{"name":"previousAdminRole","type":"bytes32","indexed":true,"internalType":"bytes32"},{"name":"newAdminRole","type":"bytes32","indexed":true,"internalType":"bytes32"}],"anonymous":false},{"type":"event","name":"RoleGranted","inputs":[{"name":"role","type":"bytes32","indexed":true,"internalType":"bytes32"},{"name":"account","type":"address","indexed":true,"internalType":"address"},{"name":"sender","type":"address","indexed":true,"internalType":"address"}],"anonymous":false},{"type":"event","name":"RoleRevoked","inputs":[{"name":"role","type":"bytes32","indexed":true,"internalType":"bytes32"},{"name":"account","type":"address","indexed":true,"internalType":"address"},{"name":"sender","type":"address","indexed":true,"internalType":"address"}],"anonymous":false},{"type":"error","name":"AccessControlBadConfirmation","inputs":[]},{"type":"error","name":"AccessControlUnauthorizedAccount","inputs":[{"name":"account","type":"address","internalType":"address"},{"name":"neededRole","type":"bytes32","internalType":"bytes32"}]},{"type":"error","name":"InvalidInitialization","inputs":[]},{"type":"error","name":"NotInitializing","inputs":[]},{"type":"error","name":"ReentrancyGuardReentrantCall","inputs":[]}],"bytecode":{"object":"0x6080806040523460d0577ff0c57e16840df040f15088dc2f81fe391c3923bec73e23a9662efc9c229c6a005460ff8160401c1660c1576002600160401b03196001600160401b03821601605c575b6040516117b090816100d58239f35b6001600160401b0319166001600160401b039081177ff0c57e16840df040f15088dc2f81fe391c3923bec73e23a9662efc9c229c6a005581527fc7f505b2f371ae2175ee4913f4499e1f2633a7b5936321eed1cdaeb6115181d290602090a15f80604d565b63f92ee8a960e01b5f5260045ffd5b5f80fdfe6080806040526004361015610012575f80fd5b5f3560e01c90816301ffc9a71461086d57508063248a9ca3146108475780632f2ff15d1461081657806336568abe146107d25780634f7041a5146107b5578063574f2ba31461079857806375b238fc1461075e5780637a1ac61e146105da5780637acf63371461058d5780638aeda25a1461055357806391d14854146104fe578063a217fddf146104e4578063b91ac788146104a2578063c0d786551461045f578063c9c65396146101f2578063cc1776d3146101d5578063d547741f1461019d578063e2ad37b014610175578063e6a43905146101245763f887ea40146100f8575f80fd5b34610120575f366003190112610120576002546040516001600160a01b039091168152602090f35b5f80fd5b346101205760403660031901126101205761013d6108d6565b6101456108c0565b6001600160a01b039182165f90815260208181526040808320938516835292815290829020549151919092168152f35b34610120575f366003190112610120576003546040516001600160a01b039091168152602090f35b34610120576040366003190112610120576101d36004356101bc6108c0565b906101ce6101c982610942565b610a1b565b610bb4565b005b34610120575f366003190112610120576020600554604051908152f35b346101205760403660031901126101205761020b6108d6565b6102136108c0565b335f9081527f7a5b68ff0f13768bc86eb4902144e89f1547a35d6d4bf0e23c2f18b32c5a92f1602052604090205490919060ff16156104285760025f8051602061173b83398151915254146104195760025f8051602061173b833981519152556001600160a01b031690610288821515610960565b6001600160a01b031661029c811515610960565b6002546001600160a01b031680156103e85760405190610a9f80830183811067ffffffffffffffff8211176103c9576060928492610c7c843981528560208201528460408201520301905ff080156103dd575f83815260208181526040808320858452825280832080546001600160a01b03199081166001600160a01b039690961695861790915583835281842087855290925290912080549091168217905560015492909190680100000000000000008410156103c95761036684600160209601600155610916565b81549060031b9085821b9160018060a01b03901b19161790557f0d3648bd0f6ba80134a33ba9275ac585d9d315f0ad8355cddefde31afa28d0e9604060015481519086825287820152a360015f8051602061173b83398151915255604051908152f35b634e487b7160e01b5f52604160045260245ffd5b6040513d5f823e3d90fd5b60405162461bcd60e51b81526020600482015260096024820152682737903937baba32b960b91b6044820152606490fd5b633ee5aeb560e01b5f5260045ffd5b63e2517d3f60e01b5f52336004527f828634d95e775031b9ff576b159a8509d3053581a8c9c4d7d86899e0afcd882f60245260445ffd5b34610120576020366003190112610120576104786108d6565b6104806109ac565b600280546001600160a01b0319166001600160a01b0392909216919091179055005b3461012057602036600319011261012057600435600154811015610120576104cb602091610916565b905460405160039290921b1c6001600160a01b03168152f35b34610120575f3660031901126101205760206040515f8152f35b34610120576040366003190112610120576105176108c0565b6004355f525f8051602061171b83398151915260205260405f209060018060a01b03165f52602052602060ff60405f2054166040519015158152f35b34610120575f3660031901126101205760206040517f828634d95e775031b9ff576b159a8509d3053581a8c9c4d7d86899e0afcd882f8152f35b346101205761059b366108ec565b916105a46109ac565b6001600160a01b03166105b8811515610960565b6bffffffffffffffffffffffff60a01b60035416176003556004556005555f80f35b34610120576105e8366108ec565b905f8051602061175b833981519152549260ff8460401c16159367ffffffffffffffff811680159081610756575b600114908161074c575b159081610743575b506107345767ffffffffffffffff1981166001175f8051602061175b8339815191525584610708575b5061065a610c50565b610662610c50565b61066a610c50565b60015f8051602061173b8339815191525561068433610a61565b5060018060a01b03166bffffffffffffffffffffffff60a01b60035416176003556004556005556106b157005b68ff0000000000000000195f8051602061175b83398151915254165f8051602061175b833981519152557fc7f505b2f371ae2175ee4913f4499e1f2633a7b5936321eed1cdaeb6115181d2602060405160018152a1005b68ffffffffffffffffff191668010000000000000001175f8051602061175b8339815191525584610651565b63f92ee8a960e01b5f5260045ffd5b90501586610628565b303b159150610620565b869150610616565b34610120575f3660031901126101205760206040517fa49807205ce4d355092ef5a8a18f56e8913cf4a201fbe287825b095693c217758152f35b34610120575f366003190112610120576020600154604051908152f35b34610120575f366003190112610120576020600454604051908152f35b34610120576040366003190112610120576107eb6108c0565b336001600160a01b03821603610807576101d390600435610bb4565b63334bd91960e11b5f5260045ffd5b34610120576040366003190112610120576101d36004356108356108c0565b906108426101c982610942565b610b10565b34610120576020366003190112610120576020610865600435610942565b604051908152f35b34610120576020366003190112610120576004359063ffffffff60e01b821680920361012057602091637965db0b60e01b81149081156108af575b5015158152f35b6301ffc9a760e01b149050836108a8565b602435906001600160a01b038216820361012057565b600435906001600160a01b038216820361012057565b6060906003190112610120576004356001600160a01b038116810361012057906024359060443590565b60015481101561092e5760015f5260205f2001905f90565b634e487b7160e01b5f52603260045260245ffd5b5f525f8051602061171b833981519152602052600160405f20015490565b1561096757565b60405162461bcd60e51b815260206004820152601f60248201527f5a65726f2061646472657373657320617265206e6f7420616c6c6f7765642e006044820152606490fd5b335f9081527fb16e88c42fd4e48df2dd6a2eabd6bc9aec654ec170056b470819f8892cc6431c602052604090205460ff16156109e457565b63e2517d3f60e01b5f52336004527fa49807205ce4d355092ef5a8a18f56e8913cf4a201fbe287825b095693c2177560245260445ffd5b5f8181525f8051602061171b8339815191526020908152604080832033845290915290205460ff1615610a4b5750565b63e2517d3f60e01b5f523360045260245260445ffd5b6001600160a01b0381165f9081527fb7db2dd08fcb62d0c9e08c51941cae53c267786a0b75803fb7960902fc8ef97d602052604090205460ff16610b0b576001600160a01b03165f8181527fb7db2dd08fcb62d0c9e08c51941cae53c267786a0b75803fb7960902fc8ef97d60205260408120805460ff191660011790553391907f2f8788117e7eff1d82e926ec794901d17c78024a50270940304540a733656f0d8180a4600190565b505f90565b5f8181525f8051602061171b833981519152602090815260408083206001600160a01b038616845290915290205460ff16610bae575f8181525f8051602061171b833981519152602090815260408083206001600160a01b0395909516808452949091528120805460ff19166001179055339291907f2f8788117e7eff1d82e926ec794901d17c78024a50270940304540a733656f0d9080a4600190565b50505f90565b5f8181525f8051602061171b833981519152602090815260408083206001600160a01b038616845290915290205460ff1615610bae575f8181525f8051602061171b833981519152602090815260408083206001600160a01b0395909516808452949091528120805460ff19169055339291907ff6391f5c32d9c69d2a47ea670b442974b53935d1edc7fd64eb21e047a839171b9080a4600190565b60ff5f8051602061175b8339815191525460401c1615610c6c57565b631afcd79f60e31b5f5260045ffdfe6080346100e357601f610a9f38819003918201601f19168301916001600160401b038311848410176100e7578084926060946040528339810103126100e357610047816100fb565b61005f6040610058602085016100fb565b93016100fb565b60015f556001600160a01b039091169161007a83151561010f565b6001600160a01b03169061008f82151561010f565b6001600160a01b0316916100a483151561010f565b60018060a01b0319600154161760015560018060a01b0319600254161760025560018060a01b03196003541617600355604051610943908161015c8239f35b5f80fd5b634e487b7160e01b5f52604160045260245ffd5b51906001600160a01b03821682036100e357565b1561011657565b60405162461bcd60e51b815260206004820152601f60248201527f5a65726f2061646472657373657320617265206e6f7420616c6c6f7765642e006044820152606490fdfe6080806040526004361015610012575f80fd5b5f3560e01c9081630902f1ac14610649575080630e06dfc9146106285780630fc63d10146106005780631b2ef1ca146105085780632ccb1b30146104ad5780635673b02d146103df5780635c52a5f2146102925780635c921eb9146102355780635c9d69381461020c5780635f64b55b146101e45780637464fc3d146101c7578063b69ef8a814610174578063c66f2455146100e25763f887ea40146100b6575f80fd5b346100de575f3660031901126100de576001546040516001600160a01b039091168152602090f35b5f80fd5b346100de575f3660031901126100de576003546040516370a0823160e01b815230600482015290602090829060249082906001600160a01b03165afa8015610169575f90610136575b602090604051908152f35b506020813d602011610161575b8161015060209383610727565b810103126100de576020905161012b565b3d9150610143565b6040513d5f823e3d90fd5b346100de575f3660031901126100de576002546040516370a0823160e01b815230600482015290602090829060249082906001600160a01b03165afa8015610169575f9061013657602090604051908152f35b346100de575f3660031901126100de576020600654604051908152f35b346100de575f3660031901126100de576003546040516001600160a01b039091168152602090f35b346100de575f3660031901126100de57602061022d60055460045490610682565b604051908152f35b346100de5760403660031901126100de5761029061025161066c565b61026660018060a01b036001541633146106a0565b61027a6001600160a01b0382161515610749565b60035460243591906001600160a01b03166107af565b005b346100de5760603660031901126100de576102ab61066c565b6024356001600160a01b03811691908290036100de576102d660018060a01b036001541633146106a0565b6001600160a01b038116916102ec831515610749565b6102f7811515610749565b60405163095ea7b360e01b602082019081526001600160a01b0393909316602482015260448035818301528152915f908190610334606486610727565b84519082855af1610343610870565b816103b0575b50806103a6575b15610361575b602060405160018152f35b61039961039e936040519063095ea7b360e01b602083015260248201525f604482015260448152610393606482610727565b82610805565b610805565b808080610356565b50803b1515610350565b80518015925082156103c5575b505084610349565b6103d892506020809183010191016107ed565b84806103bd565b346100de5760803660031901126100de577f298c349c742327269dc8de6ad66687767310c948ea309df826f5bd103e19d20760806004356024356044356064359161043560018060a01b036001541633146106a0565b61044a8161044586600454610795565b6107a2565b61045a8461044585600554610795565b6006549160405161046a816106f7565b81815282602082015283604082015260604291015260045560055560065542600755604051938452602084015260408301526060820152a1602060405160018152f35b346100de5760403660031901126100de576102906104c961066c565b6104de60018060a01b036001541633146106a0565b6104f26001600160a01b0382161515610749565b60025460243591906001600160a01b03166107af565b346100de5760403660031901126100de576004356024359061053560018060a01b036001541633146106a0565b6007546105ca57818102908082048314811517156105b6577fcc9c58b575eabd3f6a1ee653e91fcea3ff546867ffc3782a3bbca1f9b6dbb8df92604092835161057d816106f7565b838152826020820152818582015260604291015282600455816005556006554260075582519182526020820152a1602060405160018152f35b634e487b7160e01b5f52601160045260245ffd5b60405162461bcd60e51b815260206004820152600e60248201526d105b1c9958591e481b5a5b9d195960921b6044820152606490fd5b346100de575f3660031901126100de576002546040516001600160a01b039091168152602090f35b346100de575f3660031901126100de57602061022d60045460055490610682565b346100de575f3660031901126100de576040906004546005549082526020820152f35b600435906001600160a01b03821682036100de57565b811561068c570490565b634e487b7160e01b5f52601260045260245ffd5b156106a757565b60405162461bcd60e51b815260206004820152602260248201527f4f6e6c7920726f757465722063616e2063616c6c20746869732066756e63746960448201526137b760f11b6064820152608490fd5b6080810190811067ffffffffffffffff82111761071357604052565b634e487b7160e01b5f52604160045260245ffd5b90601f8019910116810190811067ffffffffffffffff82111761071357604052565b1561075057565b60405162461bcd60e51b815260206004820152601f60248201527f5a65726f2061646472657373657320617265206e6f7420616c6c6f7765642e006044820152606490fd5b919082018092116105b657565b919082039182116105b657565b60405163a9059cbb60e01b60208201526001600160a01b039290921660248301526044808301939093529181526107eb91610399606483610727565b565b908160209103126100de575180151581036100de5790565b5f8061082d9260018060a01b03169360208151910182865af1610826610870565b90836108af565b8051908115159182610855575b50506108435750565b635274afe760e01b5f5260045260245ffd5b61086892506020809183010191016107ed565b155f8061083a565b3d156108aa573d9067ffffffffffffffff8211610713576040519161089f601f8201601f191660200184610727565b82523d5f602084013e565b606090565b906108d357508051156108c457805190602001fd5b630a12f52160e11b5f5260045ffd5b81511580610904575b6108e4575090565b639996b31560e01b5f9081526001600160a01b0391909116600452602490fd5b50803b156108dc56fea26469706673582212201cd8ff2df80077e099c94afecb577b1cbc0258d43fa69eade3ab94f59e9248f464736f6c634300081a003302dd7bc7dec4dceedda775e58dd541e08a116c6c53815c0bd028192f7b6268009b779b17422d0df92223018b32b4d1fa46e071723d6817e2486d003becc55f00f0c57e16840df040f15088dc2f81fe391c3923bec73e23a9662efc9c229c6a00a26469706673582212202b7369b4c4ae6d1f2221a1c8b794c0ecf9b825598893b8a9226e41dcd155a43d64736f6c634300081a0033","linkReferences":{}},"methodIdentifiers":{"ADMIN_ROLE()":"75b238fc","CREATOR_ROLE()":"8aeda25a","DEFAULT_ADMIN_ROLE()":"a217fddf","allPairsLength()":"574f2ba3","buyTax()":"4f7041a5","createPair(address,address)":"c9c65396","getPair(address,address)":"e6a43905","getRoleAdmin(bytes32)":"248a9ca3","grantRole(bytes32,address)":"2f2ff15d","hasRole(bytes32,address)":"91d14854","initialize(address,uint256,uint256)":"7a1ac61e","pairs(uint256)":"b91ac788","renounceRole(bytes32,address)":"36568abe","revokeRole(bytes32,address)":"d547741f","router()":"f887ea40","sellTax()":"cc1776d3","setRouter(address)":"c0d78655","setTaxParams(address,uint256,uint256)":"7acf6337","supportsInterface(bytes4)":"01ffc9a7","taxVault()":"e2ad37b0"},"id":23}