{"abi":[{"type":"constructor","inputs":[{"name":"token","type":"address","internalType":"contract IVotes"},{"name":"initialVotingDelay","type":"uint48","internalType":"uint48"},{"name":"initialVotingPeriod","type":"uint32","internalType":"uint32"},{"name":"initialProposalThreshold","type":"uint256","internalType":"uint256"}],"stateMutability":"nonpayable"},{"type":"receive","stateMutability":"payable"},{"type":"function","name":"BALLOT_TYPEHASH","inputs":[],"outputs":[{"name":"","type":"bytes32","internalType":"bytes32"}],"stateMutability":"view"},{"type":"function","name":"CLOCK_MODE","inputs":[],"outputs":[{"name":"","type":"string","internalType":"string"}],"stateMutability":"view"},{"type":"function","name":"COUNTING_MODE","inputs":[],"outputs":[{"name":"","type":"string","internalType":"string"}],"stateMutability":"pure"},{"type":"function","name":"DEFAULT_ADMIN_ROLE","inputs":[],"outputs":[{"name":"","type":"bytes32","internalType":"bytes32"}],"stateMutability":"view"},{"type":"function","name":"EXECUTOR_ROLE","inputs":[],"outputs":[{"name":"","type":"bytes32","internalType":"bytes32"}],"stateMutability":"view"},{"type":"function","name":"EXTENDED_BALLOT_TYPEHASH","inputs":[],"outputs":[{"name":"","type":"bytes32","internalType":"bytes32"}],"stateMutability":"view"},{"type":"function","name":"cancel","inputs":[{"name":"proposalId","type":"uint256","internalType":"uint256"}],"outputs":[],"stateMutability":"nonpayable"},{"type":"function","name":"cancel","inputs":[{"name":"targets","type":"address[]","internalType":"address[]"},{"name":"values","type":"uint256[]","internalType":"uint256[]"},{"name":"calldatas","type":"bytes[]","internalType":"bytes[]"},{"name":"descriptionHash","type":"bytes32","internalType":"bytes32"}],"outputs":[{"name":"","type":"uint256","internalType":"uint256"}],"stateMutability":"nonpayable"},{"type":"function","name":"castVote","inputs":[{"name":"proposalId","type":"uint256","internalType":"uint256"},{"name":"support","type":"uint8","internalType":"uint8"}],"outputs":[{"name":"","type":"uint256","internalType":"uint256"}],"stateMutability":"nonpayable"},{"type":"function","name":"castVoteBySig","inputs":[{"name":"proposalId","type":"uint256","internalType":"uint256"},{"name":"support","type":"uint8","internalType":"uint8"},{"name":"voter","type":"address","internalType":"address"},{"name":"signature","type":"bytes","internalType":"bytes"}],"outputs":[{"name":"","type":"uint256","internalType":"uint256"}],"stateMutability":"nonpayable"},{"type":"function","name":"castVoteWithReason","inputs":[{"name":"proposalId","type":"uint256","internalType":"uint256"},{"name":"support","type":"uint8","internalType":"uint8"},{"name":"reason","type":"string","internalType":"string"}],"outputs":[{"name":"","type":"uint256","internalType":"uint256"}],"stateMutability":"nonpayable"},{"type":"function","name":"castVoteWithReasonAndParams","inputs":[{"name":"proposalId","type":"uint256","internalType":"uint256"},{"name":"support","type":"uint8","internalType":"uint8"},{"name":"reason","type":"string","internalType":"string"},{"name":"params","type":"bytes","internalType":"bytes"}],"outputs":[{"name":"","type":"uint256","internalType":"uint256"}],"stateMutability":"nonpayable"},{"type":"function","name":"castVoteWithReasonAndParamsBySig","inputs":[{"name":"proposalId","type":"uint256","internalType":"uint256"},{"name":"support","type":"uint8","internalType":"uint8"},{"name":"voter","type":"address","internalType":"address"},{"name":"reason","type":"string","internalType":"string"},{"name":"params","type":"bytes","internalType":"bytes"},{"name":"signature","type":"bytes","internalType":"bytes"}],"outputs":[{"name":"","type":"uint256","internalType":"uint256"}],"stateMutability":"nonpayable"},{"type":"function","name":"clock","inputs":[],"outputs":[{"name":"","type":"uint48","internalType":"uint48"}],"stateMutability":"view"},{"type":"function","name":"earlyExecute","inputs":[{"name":"proposalId","type":"uint256","internalType":"uint256"}],"outputs":[{"name":"","type":"uint256","internalType":"uint256"}],"stateMutability":"payable"},{"type":"function","name":"eip712Domain","inputs":[],"outputs":[{"name":"fields","type":"bytes1","internalType":"bytes1"},{"name":"name","type":"string","internalType":"string"},{"name":"version","type":"string","internalType":"string"},{"name":"chainId","type":"uint256","internalType":"uint256"},{"name":"verifyingContract","type":"address","internalType":"address"},{"name":"salt","type":"bytes32","internalType":"bytes32"},{"name":"extensions","type":"uint256[]","internalType":"uint256[]"}],"stateMutability":"view"},{"type":"function","name":"execute","inputs":[{"name":"targets","type":"address[]","internalType":"address[]"},{"name":"values","type":"uint256[]","internalType":"uint256[]"},{"name":"calldatas","type":"bytes[]","internalType":"bytes[]"},{"name":"descriptionHash","type":"bytes32","internalType":"bytes32"}],"outputs":[{"name":"","type":"uint256","internalType":"uint256"}],"stateMutability":"payable"},{"type":"function","name":"execute","inputs":[{"name":"proposalId","type":"uint256","internalType":"uint256"}],"outputs":[],"stateMutability":"payable"},{"type":"function","name":"getRoleAdmin","inputs":[{"name":"role","type":"bytes32","internalType":"bytes32"}],"outputs":[{"name":"","type":"bytes32","internalType":"bytes32"}],"stateMutability":"view"},{"type":"function","name":"getVotes","inputs":[{"name":"account","type":"address","internalType":"address"},{"name":"timepoint","type":"uint256","internalType":"uint256"}],"outputs":[{"name":"","type":"uint256","internalType":"uint256"}],"stateMutability":"view"},{"type":"function","name":"getVotesWithParams","inputs":[{"name":"account","type":"address","internalType":"address"},{"name":"timepoint","type":"uint256","internalType":"uint256"},{"name":"params","type":"bytes","internalType":"bytes"}],"outputs":[{"name":"","type":"uint256","internalType":"uint256"}],"stateMutability":"view"},{"type":"function","name":"grantRole","inputs":[{"name":"role","type":"bytes32","internalType":"bytes32"},{"name":"account","type":"address","internalType":"address"}],"outputs":[],"stateMutability":"nonpayable"},{"type":"function","name":"hasRole","inputs":[{"name":"role","type":"bytes32","internalType":"bytes32"},{"name":"account","type":"address","internalType":"address"}],"outputs":[{"name":"","type":"bool","internalType":"bool"}],"stateMutability":"view"},{"type":"function","name":"hasVoted","inputs":[{"name":"proposalId","type":"uint256","internalType":"uint256"},{"name":"account","type":"address","internalType":"address"}],"outputs":[{"name":"","type":"bool","internalType":"bool"}],"stateMutability":"view"},{"type":"function","name":"hashProposal","inputs":[{"name":"targets","type":"address[]","internalType":"address[]"},{"name":"values","type":"uint256[]","internalType":"uint256[]"},{"name":"calldatas","type":"bytes[]","internalType":"bytes[]"},{"name":"descriptionHash","type":"bytes32","internalType":"bytes32"}],"outputs":[{"name":"","type":"uint256","internalType":"uint256"}],"stateMutability":"pure"},{"type":"function","name":"name","inputs":[],"outputs":[{"name":"","type":"string","internalType":"string"}],"stateMutability":"view"},{"type":"function","name":"nonces","inputs":[{"name":"owner","type":"address","internalType":"address"}],"outputs":[{"name":"","type":"uint256","internalType":"uint256"}],"stateMutability":"view"},{"type":"function","name":"onERC1155BatchReceived","inputs":[{"name":"","type":"address","internalType":"address"},{"name":"","type":"address","internalType":"address"},{"name":"","type":"uint256[]","internalType":"uint256[]"},{"name":"","type":"uint256[]","internalType":"uint256[]"},{"name":"","type":"bytes","internalType":"bytes"}],"outputs":[{"name":"","type":"bytes4","internalType":"bytes4"}],"stateMutability":"nonpayable"},{"type":"function","name":"onERC1155Received","inputs":[{"name":"","type":"address","internalType":"address"},{"name":"","type":"address","internalType":"address"},{"name":"","type":"uint256","internalType":"uint256"},{"name":"","type":"uint256","internalType":"uint256"},{"name":"","type":"bytes","internalType":"bytes"}],"outputs":[{"name":"","type":"bytes4","internalType":"bytes4"}],"stateMutability":"nonpayable"},{"type":"function","name":"onERC721Received","inputs":[{"name":"","type":"address","internalType":"address"},{"name":"","type":"address","internalType":"address"},{"name":"","type":"uint256","internalType":"uint256"},{"name":"","type":"bytes","internalType":"bytes"}],"outputs":[{"name":"","type":"bytes4","internalType":"bytes4"}],"stateMutability":"nonpayable"},{"type":"function","name":"proposalCount","inputs":[],"outputs":[{"name":"","type":"uint256","internalType":"uint256"}],"stateMutability":"view"},{"type":"function","name":"proposalDeadline","inputs":[{"name":"proposalId","type":"uint256","internalType":"uint256"}],"outputs":[{"name":"","type":"uint256","internalType":"uint256"}],"stateMutability":"view"},{"type":"function","name":"proposalDetails","inputs":[{"name":"proposalId","type":"uint256","internalType":"uint256"}],"outputs":[{"name":"","type":"address[]","internalType":"address[]"},{"name":"","type":"uint256[]","internalType":"uint256[]"},{"name":"","type":"bytes[]","internalType":"bytes[]"},{"name":"","type":"bytes32","internalType":"bytes32"}],"stateMutability":"view"},{"type":"function","name":"proposalDetailsAt","inputs":[{"name":"index","type":"uint256","internalType":"uint256"}],"outputs":[{"name":"","type":"uint256","internalType":"uint256"},{"name":"","type":"address[]","internalType":"address[]"},{"name":"","type":"uint256[]","internalType":"uint256[]"},{"name":"","type":"bytes[]","internalType":"bytes[]"},{"name":"","type":"bytes32","internalType":"bytes32"}],"stateMutability":"view"},{"type":"function","name":"proposalEta","inputs":[{"name":"proposalId","type":"uint256","internalType":"uint256"}],"outputs":[{"name":"","type":"uint256","internalType":"uint256"}],"stateMutability":"view"},{"type":"function","name":"proposalNeedsQueuing","inputs":[{"name":"","type":"uint256","internalType":"uint256"}],"outputs":[{"name":"","type":"bool","internalType":"bool"}],"stateMutability":"view"},{"type":"function","name":"proposalProposer","inputs":[{"name":"proposalId","type":"uint256","internalType":"uint256"}],"outputs":[{"name":"","type":"address","internalType":"address"}],"stateMutability":"view"},{"type":"function","name":"proposalSnapshot","inputs":[{"name":"proposalId","type":"uint256","internalType":"uint256"}],"outputs":[{"name":"","type":"uint256","internalType":"uint256"}],"stateMutability":"view"},{"type":"function","name":"proposalThreshold","inputs":[],"outputs":[{"name":"","type":"uint256","internalType":"uint256"}],"stateMutability":"view"},{"type":"function","name":"proposalVotes","inputs":[{"name":"proposalId","type":"uint256","internalType":"uint256"}],"outputs":[{"name":"againstVotes","type":"uint256","internalType":"uint256"},{"name":"forVotes","type":"uint256","internalType":"uint256"},{"name":"abstainVotes","type":"uint256","internalType":"uint256"}],"stateMutability":"view"},{"type":"function","name":"propose","inputs":[{"name":"targets","type":"address[]","internalType":"address[]"},{"name":"values","type":"uint256[]","internalType":"uint256[]"},{"name":"calldatas","type":"bytes[]","internalType":"bytes[]"},{"name":"description","type":"string","internalType":"string"}],"outputs":[{"name":"","type":"uint256","internalType":"uint256"}],"stateMutability":"nonpayable"},{"type":"function","name":"queue","inputs":[{"name":"targets","type":"address[]","internalType":"address[]"},{"name":"values","type":"uint256[]","internalType":"uint256[]"},{"name":"calldatas","type":"bytes[]","internalType":"bytes[]"},{"name":"descriptionHash","type":"bytes32","internalType":"bytes32"}],"outputs":[{"name":"","type":"uint256","internalType":"uint256"}],"stateMutability":"nonpayable"},{"type":"function","name":"queue","inputs":[{"name":"proposalId","type":"uint256","internalType":"uint256"}],"outputs":[],"stateMutability":"nonpayable"},{"type":"function","name":"quorum","inputs":[{"name":"blockNumber","type":"uint256","internalType":"uint256"}],"outputs":[{"name":"","type":"uint256","internalType":"uint256"}],"stateMutability":"view"},{"type":"function","name":"relay","inputs":[{"name":"target","type":"address","internalType":"address"},{"name":"value","type":"uint256","internalType":"uint256"},{"name":"data","type":"bytes","internalType":"bytes"}],"outputs":[],"stateMutability":"payable"},{"type":"function","name":"renounceRole","inputs":[{"name":"role","type":"bytes32","internalType":"bytes32"},{"name":"callerConfirmation","type":"address","internalType":"address"}],"outputs":[],"stateMutability":"nonpayable"},{"type":"function","name":"revokeRole","inputs":[{"name":"role","type":"bytes32","internalType":"bytes32"},{"name":"account","type":"address","internalType":"address"}],"outputs":[],"stateMutability":"nonpayable"},{"type":"function","name":"setProposalThreshold","inputs":[{"name":"newProposalThreshold","type":"uint256","internalType":"uint256"}],"outputs":[],"stateMutability":"nonpayable"},{"type":"function","name":"setVotingDelay","inputs":[{"name":"newVotingDelay","type":"uint48","internalType":"uint48"}],"outputs":[],"stateMutability":"nonpayable"},{"type":"function","name":"setVotingPeriod","inputs":[{"name":"newVotingPeriod","type":"uint32","internalType":"uint32"}],"outputs":[],"stateMutability":"nonpayable"},{"type":"function","name":"state","inputs":[{"name":"proposalId","type":"uint256","internalType":"uint256"}],"outputs":[{"name":"","type":"uint8","internalType":"enum IGovernor.ProposalState"}],"stateMutability":"view"},{"type":"function","name":"supportsInterface","inputs":[{"name":"interfaceId","type":"bytes4","internalType":"bytes4"}],"outputs":[{"name":"","type":"bool","internalType":"bool"}],"stateMutability":"view"},{"type":"function","name":"token","inputs":[],"outputs":[{"name":"","type":"address","internalType":"contract IERC5805"}],"stateMutability":"view"},{"type":"function","name":"updateQuorum","inputs":[{"name":"newQuorum","type":"uint224","internalType":"uint224"}],"outputs":[],"stateMutability":"nonpayable"},{"type":"function","name":"version","inputs":[],"outputs":[{"name":"","type":"string","internalType":"string"}],"stateMutability":"view"},{"type":"function","name":"votingDelay","inputs":[],"outputs":[{"name":"","type":"uint256","internalType":"uint256"}],"stateMutability":"view"},{"type":"function","name":"votingPeriod","inputs":[],"outputs":[{"name":"","type":"uint256","internalType":"uint256"}],"stateMutability":"view"},{"type":"event","name":"EIP712DomainChanged","inputs":[],"anonymous":false},{"type":"event","name":"ProposalCanceled","inputs":[{"name":"proposalId","type":"uint256","indexed":false,"internalType":"uint256"}],"anonymous":false},{"type":"event","name":"ProposalCreated","inputs":[{"name":"proposalId","type":"uint256","indexed":false,"internalType":"uint256"},{"name":"proposer","type":"address","indexed":false,"internalType":"address"},{"name":"targets","type":"address[]","indexed":false,"internalType":"address[]"},{"name":"values","type":"uint256[]","indexed":false,"internalType":"uint256[]"},{"name":"signatures","type":"string[]","indexed":false,"internalType":"string[]"},{"name":"calldatas","type":"bytes[]","indexed":false,"internalType":"bytes[]"},{"name":"voteStart","type":"uint256","indexed":false,"internalType":"uint256"},{"name":"voteEnd","type":"uint256","indexed":false,"internalType":"uint256"},{"name":"description","type":"string","indexed":false,"internalType":"string"}],"anonymous":false},{"type":"event","name":"ProposalExecuted","inputs":[{"name":"proposalId","type":"uint256","indexed":false,"internalType":"uint256"}],"anonymous":false},{"type":"event","name":"ProposalQueued","inputs":[{"name":"proposalId","type":"uint256","indexed":false,"internalType":"uint256"},{"name":"etaSeconds","type":"uint256","indexed":false,"internalType":"uint256"}],"anonymous":false},{"type":"event","name":"ProposalThresholdSet","inputs":[{"name":"oldProposalThreshold","type":"uint256","indexed":false,"internalType":"uint256"},{"name":"newProposalThreshold","type":"uint256","indexed":false,"internalType":"uint256"}],"anonymous":false},{"type":"event","name":"QuorumUpdated","inputs":[{"name":"oldQuorum","type":"uint224","indexed":false,"internalType":"uint224"},{"name":"newQuorum","type":"uint224","indexed":false,"internalType":"uint224"}],"anonymous":false},{"type":"event","name":"RoleAdminChanged","inputs":[{"name":"role","type":"bytes32","indexed":true,"internalType":"bytes32"},{"name":"previousAdminRole","type":"bytes32","indexed":true,"internalType":"bytes32"},{"name":"newAdminRole","type":"bytes32","indexed":true,"internalType":"bytes32"}],"anonymous":false},{"type":"event","name":"RoleGranted","inputs":[{"name":"role","type":"bytes32","indexed":true,"internalType":"bytes32"},{"name":"account","type":"address","indexed":true,"internalType":"address"},{"name":"sender","type":"address","indexed":true,"internalType":"address"}],"anonymous":false},{"type":"event","name":"RoleRevoked","inputs":[{"name":"role","type":"bytes32","indexed":true,"internalType":"bytes32"},{"name":"account","type":"address","indexed":true,"internalType":"address"},{"name":"sender","type":"address","indexed":true,"internalType":"address"}],"anonymous":false},{"type":"event","name":"VoteCast","inputs":[{"name":"voter","type":"address","indexed":true,"internalType":"address"},{"name":"proposalId","type":"uint256","indexed":false,"internalType":"uint256"},{"name":"support","type":"uint8","indexed":false,"internalType":"uint8"},{"name":"weight","type":"uint256","indexed":false,"internalType":"uint256"},{"name":"reason","type":"string","indexed":false,"internalType":"string"}],"anonymous":false},{"type":"event","name":"VoteCastWithParams","inputs":[{"name":"voter","type":"address","indexed":true,"internalType":"address"},{"name":"proposalId","type":"uint256","indexed":false,"internalType":"uint256"},{"name":"support","type":"uint8","indexed":false,"internalType":"uint8"},{"name":"weight","type":"uint256","indexed":false,"internalType":"uint256"},{"name":"reason","type":"string","indexed":false,"internalType":"string"},{"name":"params","type":"bytes","indexed":false,"internalType":"bytes"}],"anonymous":false},{"type":"event","name":"VotingDelaySet","inputs":[{"name":"oldVotingDelay","type":"uint256","indexed":false,"internalType":"uint256"},{"name":"newVotingDelay","type":"uint256","indexed":false,"internalType":"uint256"}],"anonymous":false},{"type":"event","name":"VotingPeriodSet","inputs":[{"name":"oldVotingPeriod","type":"uint256","indexed":false,"internalType":"uint256"},{"name":"newVotingPeriod","type":"uint256","indexed":false,"internalType":"uint256"}],"anonymous":false},{"type":"error","name":"AccessControlBadConfirmation","inputs":[]},{"type":"error","name":"AccessControlUnauthorizedAccount","inputs":[{"name":"account","type":"address","internalType":"address"},{"name":"neededRole","type":"bytes32","internalType":"bytes32"}]},{"type":"error","name":"CheckpointUnorderedInsertion","inputs":[]},{"type":"error","name":"FailedInnerCall","inputs":[]},{"type":"error","name":"GovernorAlreadyCastVote","inputs":[{"name":"voter","type":"address","internalType":"address"}]},{"type":"error","name":"GovernorAlreadyQueuedProposal","inputs":[{"name":"proposalId","type":"uint256","internalType":"uint256"}]},{"type":"error","name":"GovernorDisabledDeposit","inputs":[]},{"type":"error","name":"GovernorInsufficientProposerVotes","inputs":[{"name":"proposer","type":"address","internalType":"address"},{"name":"votes","type":"uint256","internalType":"uint256"},{"name":"threshold","type":"uint256","internalType":"uint256"}]},{"type":"error","name":"GovernorInvalidProposalLength","inputs":[{"name":"targets","type":"uint256","internalType":"uint256"},{"name":"calldatas","type":"uint256","internalType":"uint256"},{"name":"values","type":"uint256","internalType":"uint256"}]},{"type":"error","name":"GovernorInvalidSignature","inputs":[{"name":"voter","type":"address","internalType":"address"}]},{"type":"error","name":"GovernorInvalidVoteType","inputs":[]},{"type":"error","name":"GovernorInvalidVotingPeriod","inputs":[{"name":"votingPeriod","type":"uint256","internalType":"uint256"}]},{"type":"error","name":"GovernorNonexistentProposal","inputs":[{"name":"proposalId","type":"uint256","internalType":"uint256"}]},{"type":"error","name":"GovernorNotQueuedProposal","inputs":[{"name":"proposalId","type":"uint256","internalType":"uint256"}]},{"type":"error","name":"GovernorOnlyExecutor","inputs":[{"name":"account","type":"address","internalType":"address"}]},{"type":"error","name":"GovernorOnlyProposer","inputs":[{"name":"account","type":"address","internalType":"address"}]},{"type":"error","name":"GovernorQueueNotImplemented","inputs":[]},{"type":"error","name":"GovernorRestrictedProposer","inputs":[{"name":"proposer","type":"address","internalType":"address"}]},{"type":"error","name":"GovernorUnexpectedProposalState","inputs":[{"name":"proposalId","type":"uint256","internalType":"uint256"},{"name":"current","type":"uint8","internalType":"enum IGovernor.ProposalState"},{"name":"expectedStates","type":"bytes32","internalType":"bytes32"}]},{"type":"error","name":"InvalidAccountNonce","inputs":[{"name":"account","type":"address","internalType":"address"},{"name":"currentNonce","type":"uint256","internalType":"uint256"}]},{"type":"error","name":"InvalidShortString","inputs":[]},{"type":"error","name":"QueueEmpty","inputs":[]},{"type":"error","name":"QueueFull","inputs":[]},{"type":"error","name":"SafeCastOverflowedUintDowncast","inputs":[{"name":"bits","type":"uint8","internalType":"uint8"},{"name":"value","type":"uint256","internalType":"uint256"}]},{"type":"error","name":"StringTooLong","inputs":[{"name":"str","type":"string","internalType":"string"}]}],"bytecode":{"object":"0x610180604052346100a35761001e6100156100f4565b92919091610187565b604051613eaa90816109f3823960805181613086015260a0518161313d015260c05181613050015260e051816130d5015261010051816130fb015261012051816111a6015261014051816111d201526101605181818161155c015281816119c801528181611c210152818161219b0152818161235d01528181612c500152612dc40152f35b5f80fd5b634e487b7160e01b5f52604160045260245ffd5b601f909101601f19168101906001600160401b038211908210176100de57604052565b6100a7565b604051906100f26040836100bb565b565b61489d6080813803918260405193849261010e82856100bb565b8339810103126100a35780516001600160a01b03811681036100a35760208201519265ffffffffffff841684036100a35760408301519263ffffffff841684036100a357606001519193929190565b6040519061016c6040836100bb565b600e8252565b604051906101816040836100bb565b60018252565b929061026a926102606102659261025b61019f61015d565b602081016d5669727475616c47656e6573697360901b81526101bf610172565b906020820190603160f81b82526101d5846105ad565b610120526101e28361069d565b6101405283519020918260e05251902080610100524660a0526040519060208201927f8b73c3c69bb8fe3d512ecc4cf759cc79239f7b179b0ffacaa9a75d522b39400f8452604083015260608201524660808201523060a082015260a0815261024c60c0826100bb565b5190206080523060c052610314565b6104a8565b6104f5565b610576565b6001600160a01b03166101605261027f610847565b505061028a336103f9565b50565b90600182811c921680156102bb575b60208310146102a757565b634e487b7160e01b5f52602260045260245ffd5b91607f169161029c565b601f82116102d257505050565b5f5260205f20906020601f840160051c8301931061030a575b601f0160051c01905b8181106102ff575050565b5f81556001016102f4565b90915081906102eb565b80519091906001600160401b0381116100de5761033d8161033660035461028d565b60036102c5565b602092601f821160011461037d5761036d929382915f92610372575b50508160011b915f199060031b1c19161790565b600355565b015190505f80610359565b60035f52601f198216937fc2575a0e9e593c00f959f8c92f12db2869c3395a3b0502d05e2516446f71f85b915f5b8681106103e157508360019596106103c9575b505050811b01600355565b01515f1960f88460031b161c191690555f80806103be565b919260206001819286850151815501940192016103ab565b6001600160a01b0381165f9081527f13649b2456f1b42fef0f0040b3aaeabcd21a76a0f3f5defd4f583839455116e8602052604090205460ff166104a3576001600160a01b03165f8181527f13649b2456f1b42fef0f0040b3aaeabcd21a76a0f3f5defd4f583839455116e860205260408120805460ff191660011790553391907f2f8788117e7eff1d82e926ec794901d17c78024a50270940304540a733656f0d8180a4600190565b505f90565b6008547fc565b045403dc03c2eea82b81a0465edad9e2e7fc4d97e11421c209da93d7a93604065ffffffffffff81519481851686521693846020820152a165ffffffffffff191617600855565b63ffffffff81169081156105635769ffffffff000000000000907f7e3f7f0708a84de9203036abaa450dccc85ad5ff52f78c170f3edb55cf5e882860406008549481519063ffffffff8760301c1682526020820152a160301b169069ffffffff000000000000191617600855565b63f1cfbf0560e01b5f525f60045260245ffd5b7fccb45da8d5717e6c4544694297c4ba5cf151d455c9bb0ed4fc7a38411bc0546160406007548151908152836020820152a1600755565b908151602081105f146105c85750906105c590610987565b90565b6001600160401b0381116100de576105ea816105e45f5461028d565b5f6102c5565b602092601f821160011461062057610619929382915f926103725750508160011b915f199060031b1c19161790565b5f5560ff90565b5f8052601f198216937f290decd9548b62a8d60345a988386fc84ba6bc95484008f6362f93160ef3e563915f5b868110610685575083600195961061066d575b505050811b015f5560ff90565b01515f1960f88460031b161c191690555f8080610660565b9192602060018192868501518155019401920161064d565b908151602081105f146106b55750906105c590610987565b6001600160401b0381116100de576106d9816106d260015461028d565b60016102c5565b602092601f821160011461071057610708929382915f926103725750508160011b915f199060031b1c19161790565b60015560ff90565b60015f52601f198216937fb10e2d527612073b26eecdfd717e6a320cf44b4afac2b0732d9fcbe2b7fa0cf6915f5b868110610777575083600195961061075f575b505050811b0160015560ff90565b01515f1960f88460031b161c191690555f8080610751565b9192602060018192868501518155019401920161073e565b908154680100000000000000008110156100de57600181018084558110156107dd575f92835260209283902082519284015190931b63ffffffff191663ffffffff9290921691909117910155565b634e487b7160e01b5f52603260045260245ffd5b5f198101919082116107ff57565b634e487b7160e01b5f52601160045260245ffd5b604080519192919081016001600160401b038111828210176100de57604052602081935463ffffffff81168352811c910152565b600e5480156109535761088d61088861085f836107f1565b600e5f527fbb7b4a454dc3493923482f07822329ed19e8244eff582cc204f8554c3620c3fd0190565b610813565b9063ffffffff6108a1835163ffffffff1690565b1661094457816020916108c76108be61090a955163ffffffff1690565b63ffffffff1690565b6109195769021e19e0c9bab24000006108e561085f6108fc936107f1565b9063ffffffff82549181199060201b169116179055565b01516001600160e01b031690565b9069021e19e0c9bab240000090565b5061093f6109256100e3565b5f815269021e19e0c9bab2400000818501525b600e61078f565b6108fc565b632520601d60e01b5f5260045ffd5b5061097761095f6100e3565b5f815269021e19e0c9bab24000006020820152610938565b5f9069021e19e0c9bab240000090565b601f8151116109b25760208151910151602082106109a3571790565b5f198260200360031b1b161790565b604460209160405192839163305a27a960e01b83528160048401528051918291826024860152018484015e5f828201840152601f01601f19168101030190fdfe6080604052600436101561001a575b3615610018575f80fd5b005b5f3560e01c806301ffc9a7146103a957806302a251a3146103a457806306fdde031461039f57806307bd02651461039a578063143489d014610395578063150b7a0214610390578063160cbed71461038b57806316e9eaec14610386578063248a9ca3146103815780632656227d1461037c5780632d63f693146103775780632e82db94146103725780632f2ff15d1461036d5780632fe3e2611461036857806336568abe146103635780633932abb11461035e5780633e4f49e61461035957806340e58ee514610354578063438596321461034f578063452115d61461034a5780634bf5d7e914610345578063544ffc9c1461034057806354fd4d501461033b57806356781388146103365780635b8d0e0d146103315780635f398a141461032c57806379051887146103275780637b3c71d3146103225780637d5e81e21461031d5780637ecebe001461031857806384b0196e146103135780638ff262e31461030e57806391d148541461030957806391ddadf41461030457806397ad3b6f146102ff5780639a802a6d146102fa578063a217fddf146102f5578063a9a95294146102f0578063ab58fb8e146102eb578063b58131b0146102e6578063bc197c81146102e1578063c01f9e37146102dc578063c28bc2fa146102d7578063c59057e4146102d2578063d547741f146102cd578063da35c664146102c8578063dd4e2ba5146102c3578063ddf0b009146102be578063deaaa7cc146102b9578063e540d01d146102b4578063eb9019d4146102af578063ece40cc1146102aa578063f23a6e61146102a5578063f5379ea9146102a0578063f8ce560a1461029b578063fc0c546a146102965763fe0d94c10361000e57611c50565b611c0c565b611bee565b611adb565b611a86565b611a33565b611969565b6118c3565b611889565b611843565b6117e4565b6117c7565b611789565b61176d565b611706565b6116e8565b611653565b611636565b611603565b6115e8565b6115ce565b6114ee565b6113e2565b6113b8565b611375565b61125e565b61118e565b611156565b6110a8565b611053565b610fe1565b610f51565b610eaf565b610e49565b610df6565b610db5565b610d86565b610d6a565b610d18565b610cc8565b610c99565b610c4d565b610c09565b610bcf565b610b8c565b610aeb565b610ab6565b610a9f565b610a6c565b610a3d565b610920565b6106fc565b6105a7565b61056d565b610493565b610435565b346104315760203660031901126104315760043563ffffffff60e01b811680910361043157637965db0b60e01b81149081156103ee575b506040519015158152602090f35b6332a2ad4360e11b811491508115610420575b811561040f575b505f6103e0565b6301ffc9a760e01b1490505f610408565b630271189760e51b81149150610401565b5f80fd5b34610431575f36600319011261043157602063ffffffff60085460301c16604051908152f35b805180835260209291819084018484015e5f828201840152601f01601f1916010190565b90602061049092818152019061045b565b90565b34610431575f366003190112610431576040515f6003546104b381611c94565b808452906001811690811561054957506001146104eb575b6104e7836104db8185038261064f565b6040519182918261047f565b0390f35b60035f9081527fc2575a0e9e593c00f959f8c92f12db2869c3395a3b0502d05e2516446f71f85b939250905b80821061052f575090915081016020016104db6104cb565b919260018160209254838588010152019101909291610517565b60ff191660208086019190915291151560051b840190910191506104db90506104cb565b34610431575f3660031901126104315760206040517fd8aa0f3194971a2a116679f7c2090f6939c8d4e01a2a8d7e41d55e5351469e638152f35b34610431576020366003190112610431576004355f526004602052602060018060a01b0360405f205416604051908152f35b600435906001600160a01b038216820361043157565b602435906001600160a01b038216820361043157565b604435906001600160a01b038216820361043157565b634e487b7160e01b5f52604160045260245ffd5b604081019081106001600160401b0382111761064a57604052565b61061b565b90601f801991011681019081106001600160401b0382111761064a57604052565b6040519061067f60408361064f565b565b6040519061067f60808361064f565b6001600160401b03811161064a57601f01601f191660200190565b9291926106b782610690565b916106c5604051938461064f565b829481845281830111610431578281602093845f960137010152565b9080601f8301121561043157816020610490933591016106ab565b34610431576080366003190112610431576107156105d9565b5061071e6105ef565b506064356001600160401b0381116104315761073e9036906004016106e1565b50604051630a85bd0160e11b8152602090f35b6001600160401b03811161064a5760051b60200190565b9080601f830112156104315781359061078082610751565b9261078e604051948561064f565b82845260208085019360051b82010191821161043157602001915b8183106107b65750505090565b82356001600160a01b0381168103610431578152602092830192016107a9565b9080601f830112156104315781356107ed81610751565b926107fb604051948561064f565b81845260208085019260051b82010192831161043157602001905b8282106108235750505090565b8135815260209182019101610816565b9080601f8301121561043157813561084a81610751565b92610858604051948561064f565b81845260208085019260051b820101918383116104315760208201905b83821061088457505050505090565b81356001600160401b038111610431576020916108a6878480948801016106e1565b815201910190610875565b6080600319820112610431576004356001600160401b03811161043157816108db91600401610768565b916024356001600160401b03811161043157826108fa916004016107d6565b91604435906001600160401b0382116104315761091991600401610833565b9060643590565b346104315761092e366108b1565b92919091611d4d565b90602080835192838152019201905f5b8181106109545750505090565b82516001600160a01b0316845260209384019390920191600101610947565b90602080835192838152019201905f5b8181106109905750505090565b8251845260209384019390920191600101610983565b9080602083519182815201916020808360051b8301019401925f915b8383106109d157505050505090565b90919293946020806109ef600193601f19868203018752895161045b565b970193019301919392906109c2565b949392610a2a606093610a1c610a389460808a5260808a0190610937565b9088820360208a0152610973565b9086820360408801526109a6565b930152565b34610431576020366003190112610431576104e7610a5c600435611e6e565b90604094929451948594856109fe565b34610431576020366003190112610431576020610a976004355f52600c602052600160405f20015490565b604051908152f35b6020610a97610aad366108b1565b92919091611f26565b34610431576020366003190112610431576004355f526004602052602065ffffffffffff60405f205460a01c16604051908152f35b3461043157602036600319011261043157600435600954811015610b8757610b6f9060095f527f6e1540171b6c0c960b71a7020d9f60077f6af931a8bbf590da0223dacf75c7af0154610b7d610b4082611e6e565b9392959091610b61604051978897885260a0602089015260a0880190610937565b908682036040880152610973565b9084820360608601526109a6565b9060808301520390f35b611efe565b3461043157604036600319011261043157610018600435610bab6105ef565b90610bca610bc5825f52600c602052600160405f20015490565b612807565b612841565b34610431575f3660031901126104315760206040517f3e83946653575f9a39005e1545185629e92736b7528ab20ca3816f315424a8118152f35b3461043157604036600319011261043157600435610c256105ef565b336001600160a01b03821603610c3e57610018916128d1565b63334bd91960e11b5f5260045ffd5b34610431575f36600319011261043157602065ffffffffffff60085416604051908152f35b634e487b7160e01b5f52602160045260245ffd5b6008811015610c9457602452565b610c72565b3461043157602036600319011261043157610cb5600435612055565b6040516008821015610c94576020918152f35b34610431576020366003190112610431576004355f52600a60205261001860405f20600381015490610cf981611d71565b90610d126002610d0b60018401611dc2565b9201611e0a565b91612078565b3461043157604036600319011261043157602060ff610d5e600435610d3b6105ef565b905f52600b8452600360405f20019060018060a01b03165f5260205260405f2090565b54166040519015158152f35b34610431576020610a97610d7d366108b1565b92919091612078565b34610431575f366003190112610431576104e7610da1612187565b60405191829160208352602083019061045b565b34610431576020366003190112610431576004355f52600b602052606060405f20805490600260018201549101549060405192835260208301526040820152f35b34610431575f366003190112610431576104e7604051610e1760408261064f565b60018152603160f81b602082015260405191829160208352602083019061045b565b6024359060ff8216820361043157565b34610431576040366003190112610431576020610a97600435610e6a610e39565b60405191610e78858461064f565b5f83523390612a6d565b9181601f84011215610431578235916001600160401b038311610431576020838186019501011161043157565b346104315760c036600319011261043157600435610ecb610e39565b90610ed4610605565b906064356001600160401b03811161043157610ef4903690600401610e82565b6084356001600160401b03811161043157610f139036906004016106e1565b9160a435946001600160401b038611610431576104e796610f3b610f419736906004016106e1565b95612256565b6040519081529081906020820190565b3461043157608036600319011261043157600435610f6d610e39565b906044356001600160401b03811161043157610f8d903690600401610e82565b9190926064356001600160401b03811161043157610fc694610fb6610fbe9236906004016106e1565b9436916106ab565b913390612be7565b604051908152602090f35b65ffffffffffff81160361043157565b3461043157602036600319011261043157600435610ffe81610fd1565b611006612d37565b6008547fc565b045403dc03c2eea82b81a0465edad9e2e7fc4d97e11421c209da93d7a93604065ffffffffffff81519481851686521693846020820152a165ffffffffffff191617600855005b346104315760603660031901126104315760043561106f610e39565b90604435906001600160401b038211610431576020926110a0611099610a97943690600401610e82565b36916106ab565b913390612a6d565b34610431576080366003190112610431576004356001600160401b038111610431576110d8903690600401610768565b6024356001600160401b038111610431576110f79036906004016107d6565b906044356001600160401b03811161043157611117903690600401610833565b90606435916001600160401b0383116104315736602384011215610431576104e793611150610f419436906024816004013591016106ab565b92612d53565b34610431576020366003190112610431576001600160a01b036111776105d9565b165f526002602052602060405f2054604051908152f35b34610431575f366003190112610431576112306111ca7f000000000000000000000000000000000000000000000000000000000000000061333a565b6104e76111f67f0000000000000000000000000000000000000000000000000000000000000000613392565b61123e6040519161120860208461064f565b5f808452366020850137604051958695600f60f81b875260e0602088015260e087019061045b565b90858203604087015261045b565b904660608501523060808501525f60a085015283820360c0850152610973565b346104315760803660031901126104315760043561127a610e39565b90611283610605565b916064356001600160401b038111610431576113376112a961133b9236906004016106e1565b6001600160a01b0386165f9081526002602052604090208054600181019091556113319060405160208101917ff2aad550cf55f045cb27e9c559f9889fdfb6e6cdaa032301d6ea397784ae51d7835288604083015260ff8816606083015260018060a01b038a16608083015260a082015260a0815261132960c08261064f565b519020612a8a565b86612aba565b1590565b6113565790610f41916104e793611350612138565b92612a6d565b6394ab6c0760e01b5f526001600160a01b03831660045260245ffd5b5ffd5b3461043157604036600319011261043157602060ff610d5e6004356113986105ef565b905f52600c845260405f209060018060a01b03165f5260205260405f2090565b34610431575f3660031901126104315760206113d2612348565b65ffffffffffff60405191168152f35b34610431576020366003190112610431576004356001600160e01b0381169081810361043157611410612d37565b600e54806114b057505f5b61143365ffffffffffff61142d612348565b16612e74565b926001600160d01b03811161149957507fcd95ef72661846d9156e45d16b0aba02495d0bdff56c28057171e9464f3fc27092611479906001600160d01b03841690613441565b5050604080516001600160e01b03928316815292909116602083015290a1005b6306dfcc6560e41b5f5260d060045260245260445ffd5b805f198101116114e957600e5f527fbb7b4a454dc3493923482f07822329ed19e8244eff582cc204f8554c3620c3fc015460201c61141b565b6123db565b34610431576060366003190112610431576115076105d9565b6024356044356001600160401b038111610431576115299036906004016106e1565b50604051630748d63560e31b81526001600160a01b039283166004820152602481019190915290602090829060449082907f0000000000000000000000000000000000000000000000000000000000000000165afa80156115c9575f9061159557604051908152602090f35b506020813d6020116115c1575b816115af6020938361064f565b81010312610431576104e79051610fc6565b3d91506115a2565b61212d565b34610431575f3660031901126104315760206040515f8152f35b346104315760203660031901126104315760206040515f8152f35b34610431576020366003190112610431576020610a976004355f52600460205265ffffffffffff600160405f2001541690565b34610431575f366003190112610431576020600754604051908152f35b346104315760a03660031901126104315761166c6105d9565b506116756105ef565b506044356001600160401b038111610431576116959036906004016107d6565b506064356001600160401b038111610431576116b59036906004016107d6565b506084356001600160401b038111610431576116d59036906004016106e1565b5060405163bc197c8160e01b8152602090f35b34610431576020366003190112610431576020610a976004356123ef565b60603660031901126104315761171a6105d9565b6024356044356001600160401b03811161043157610018925f9261174384933690600401610e82565b919061174d612d37565b826040519384928337810185815203925af1611767612436565b90612e9f565b34610431576020610a97611780366108b1565b92919091612465565b34610431576040366003190112610431576100186004356117a86105ef565b906117c2610bc5825f52600c602052600160405f20015490565b6128d1565b34610431575f366003190112610431576020600954604051908152f35b34610431575f366003190112610431576104e760405161180560408261064f565b602081527f737570706f72743d627261766f2671756f72756d3d666f722c6162737461696e602082015260405191829160208352602083019061045b565b34610431576020366003190112610431576004355f52600a60205260405f2060038101549061187181611d71565b906118836002610d0b60018401611dc2565b91611d4d565b34610431575f3660031901126104315760206040517ff2aad550cf55f045cb27e9c559f9889fdfb6e6cdaa032301d6ea397784ae51d78152f35b346104315760203660031901126104315760043563ffffffff811690818103610431576118ee612d37565b81156119565769ffffffff000000000000907f7e3f7f0708a84de9203036abaa450dccc85ad5ff52f78c170f3edb55cf5e882860406008549481519063ffffffff8760301c1682526020820152a160301b169069ffffffff0000000000001916176008555f80f35b63f1cfbf0560e01b5f525f60045260245ffd5b34610431576040366003190112610431576119826105d9565b6024356020905f604051611996848261064f565b52604051630748d63560e31b81526001600160a01b0393841660048201526024810191909152918190839060449082907f0000000000000000000000000000000000000000000000000000000000000000165afa9081156115c9575f91611a03575b604051828152602090f35b905081813d8311611a2c575b611a19818361064f565b81010312610431576104e790515f6119f8565b503d611a0f565b3461043157602036600319011261043157600435611a4f612d37565b7fccb45da8d5717e6c4544694297c4ba5cf151d455c9bb0ed4fc7a38411bc0546160406007548151908152836020820152a1600755005b346104315760a036600319011261043157611a9f6105d9565b50611aa86105ef565b506084356001600160401b03811161043157611ac89036906004016106e1565b5060405163f23a6e6160e01b8152602090f35b602036600319011261043157600435611af2612798565b611afb81611e6e565b50611b07849394612055565b916008831015610c94576104e7946001611b5e941480611bce575b80611bbf575b80611b9a575b611b3790612493565b611b59611b4c865f52600d60205260405f2090565b805460ff19166001179055565b612737565b6040518181527f712ae1383f79ac853f8d882153778e0260ef8f03b504e2866e0593e04d2b291f90602090a16040519081529081906020820190565b50845f52600d602052611b37611bb861133760405f2060ff90541690565b9050611b2e565b50611bc985612ee0565b611b28565b50611be9855f52600b60205260405f20600181015490541090565b611b22565b34610431576020366003190112610431576020610a9760043561250b565b34610431575f366003190112610431576040517f00000000000000000000000000000000000000000000000000000000000000006001600160a01b03168152602090f35b6020366003190112610431576004355f52600a60205261001860405f20600381015490611c7c81611d71565b90611c8e6002610d0b60018401611dc2565b91611f26565b90600182811c92168015611cc2575b6020831014611cae57565b634e487b7160e01b5f52602260045260245ffd5b91607f1691611ca3565b5f9291815491611cdb83611c94565b8083529260018116908115611d305750600114611cf757505050565b5f9081526020812093945091925b838310611d16575060209250010190565b600181602092949394548385870101520191019190611d05565b915050602093945060ff929192191683830152151560051b010190565b91611d619391611d5c93612465565b6125da565b50634844252360e11b5f5260045ffd5b90604051918281549182825260208201905f5260205f20925f5b818110611da057505061067f9250038361064f565b84546001600160a01b0316835260019485019487945060209093019201611d8b565b90604051918281549182825260208201905f5260205f20925f5b818110611df157505061067f9250038361064f565b8454835260019485019487945060209093019201611ddc565b908154611e1681610751565b92611e24604051948561064f565b81845260208401905f5260205f205f915b838310611e425750505050565b600160208192604051611e6081611e598189611ccc565b038261064f565b815201920192019190611e35565b805f52600a60205260405f209160405190608082018281106001600160401b0382111761064a57604052611ea184611d71565b8252611eaf60018501611dc2565b91602081019283526003611ec560028701611e0a565b9560408301968752015493606082019480865215611eec5750519151935192519193929190565b636ad0607560e01b5f5260045260245ffd5b634e487b7160e01b5f52603260045260245ffd5b8051821015610b875760209160051b010190565b919092611f3590828585612465565b92602092611f4460308661269a565b50611f6d611f5a865f52600460205260405f2090565b805460ff60f01b1916600160f01b179055565b5f935b5090611f7c9291612737565b80611fc4575b611fbb575b6040518181527f712ae1383f79ac853f8d882153778e0260ef8f03b504e2866e0593e04d2b291f9080602081015b0390a190565b5f600555611f87565b50611fe06113376005546001600160801b0381169060801c1490565b611f82565b8451811015612045576001903061201b61200f612002848a611f12565b516001600160a01b031690565b6001600160a01b031690565b14612027575b01611fe5565b6120406120348289611f12565b518a81519101206126d8565b612021565b5091955093909291611f7c611f70565b805f52600d60205260ff60405f2054166120725761049090612959565b50600790565b92919061208783838387612465565b6120908161261a565b505f908152600460205260409020546001600160a01b0316330361211a576120b793612465565b6120c2603b8261269a565b506120d5815f52600460205260405f2090565b80546001600160f81b0316600160f81b1790556040518181527f789cf55be980739dad1d0699b93b58e806b51c9d96619bfa8fe0a28abaa7b30c908060208101611fb5565b63233d98e360e01b5f523360045260245ffd5b6040513d5f823e3d90fd5b6040519061214760208361064f565b5f8252565b6040519061215b60408361064f565b601d82527f6d6f64653d626c6f636b6e756d6265722666726f6d3d64656661756c740000006020830152565b604051634bf5d7e960e01b81525f816004817f00000000000000000000000000000000000000000000000000000000000000006001600160a01b03165afa5f91816121db575b50610490575061049061214c565b9091503d805f833e6121ed818361064f565b810190602081830312610431578051906001600160401b038211610431570181601f820112156104315780519061222382610690565b92612231604051948561064f565b8284526020838301011161043157815f9260208093018386015e83010152905f6121cd565b9390929196956113376123119161230b8a61228a8160018060a01b03165f52600260205260405f2080549060018201905590565b61229536888a6106ab565b602081519101208b5160208d0120906040519260208401947f3e83946653575f9a39005e1545185629e92736b7528ab20ca3816f315424a81186528d604086015260ff8d16606086015260018060a01b0316608085015260a084015260c083015260e082015260e081526113296101008261064f565b8a612aba565b61232c576104909596916123269136916106ab565b92612be7565b6394ab6c0760e01b5f526001600160a01b03871660045260245ffd5b6040516324776b7d60e21b81526020816004817f00000000000000000000000000000000000000000000000000000000000000006001600160a01b03165afa5f918161239e575b506104905750610490436133c9565b9091506020813d6020116123d3575b816123ba6020938361064f565b8101031261043157516123cc81610fd1565b905f61238f565b3d91506123ad565b634e487b7160e01b5f52601160045260245ffd5b805f52600460205265ffffffffffff60405f205460a01c16905f52600460205263ffffffff60405f205460d01c160165ffffffffffff81116114e95765ffffffffffff1690565b3d15612460573d9061244782610690565b91612455604051938461064f565b82523d5f602084013e565b606090565b929061247f61248d926040519485936020850197886109fe565b03601f19810183528261064f565b51902090565b1561249a57565b60405162461bcd60e51b815260206004820152602660248201527f50726f706f73616c206e6f7420726561647920666f72206561726c792065786560448201526531baba34b7b760d11b6064820152608490fd5b5f198101919082116114e957565b6027198101919082116114e957565b600e545f1981019081116114e95761252290612e74565b5f60206040516125318161062f565b8281520152600e54811015610b8757600e5f5261255c905f80516020613e5583398151915201612f24565b81612578602063ffffffff84511693015160018060e01b031690565b9111156125a0575061259461258f61049092612e74565b612f46565b6001600160e01b031690565b6001600160e01b0316919050565b6008811015610c945760ff600191161b90565b600452606491906008811015610c94576024525f604452565b6125e381612055565b9060106125ef836125ae565b16156125f9575090565b6331b75e4d60e01b5f526004526126109150610c86565b601060445260645ffd5b61262381612055565b90600161262f836125ae565b1615612639575090565b6331b75e4d60e01b5f526004526126509150610c86565b600160445260645ffd5b61266381612055565b90600261266f836125ae565b1615612679575090565b6331b75e4d60e01b5f526004526126909150610c86565b600260445260645ffd5b906126a482612055565b91816126af846125ae565b16156126ba57505090565b6331b75e4d60e01b5f526004526126d082610c86565b60445260645ffd5b600554908160801c6001600160801b036001820193166001600160801b03841614612728575f52600660205260405f20556001600160801b036005549181199082199060801b1616911617600555565b638acb5f2760e01b5f5260045ffd5b9291925f5b81518110156127915760019061278a5f806001600160a01b0361275f8588611f12565b511661276b8589611f12565b5190612777868c611f12565b5191602083519301915af1611767612436565b500161273c565b5050509050565b335f9081527fd531b195aaaa067d0a1c653f157f218d5ddb49dd1f460a610ec3af7e3f4ec6b3602052604090205460ff16156127d057565b63e2517d3f60e01b5f52336004527fd8aa0f3194971a2a116679f7c2090f6939c8d4e01a2a8d7e41d55e5351469e6360245260445ffd5b5f818152600c6020908152604080832033845290915290205460ff161561282b5750565b63e2517d3f60e01b5f523360045260245260445ffd5b5f818152600c602090815260408083206001600160a01b038616845290915290205460ff166128cb575f818152600c602090815260408083206001600160a01b03861684529091529020805460ff1916600117905533916001600160a01b0316907f2f8788117e7eff1d82e926ec794901d17c78024a50270940304540a733656f0d5f80a4600190565b50505f90565b5f818152600c602090815260408083206001600160a01b038616845290915290205460ff16156128cb575f818152600c602090815260408083206001600160a01b03861684529091529020805460ff1916905533916001600160a01b0316907ff6391f5c32d9c69d2a47ea670b442974b53935d1edc7fd64eb21e047a839171b5f80a4600190565b61296b815f52600460205260405f2090565b5460f881901c9060f01c60ff16612a6657612a60576129b26129a7612998835f52600460205260405f2090565b5460a01c65ffffffffffff1690565b65ffffffffffff1690565b8015612a4c576129c36129a7612348565b809110156128cb576129d4826123ef565b106129df5750600190565b6129eb61133782612ee0565b8015612a29575b156129fd5750600390565b612a1b905f52600460205265ffffffffffff600160405f2001541690565b612a2457600490565b600590565b50612a47611337825f52600b60205260405f20600181015490541090565b6129f2565b636ad0607560e01b5f52600482905260245ffd5b50600290565b5050600790565b91610490939160405193612a8260208661064f565b5f8552612be7565b604290612a9561304d565b906040519161190160f01b8352600283015260228201522090565b60041115610c9457565b90612ac58382613163565b50612ad281959295612ab0565b159384612b71575b508315612ae8575b50505090565b5f93509061247f612b208594936040519283916020830195630b135d3f60e11b8752602484015260406044840152606483019061045b565b51915afa612b2c612436565b81612b63575b81612b41575b505f8080612ae2565b90506020818051810103126104315760200151630b135d3f60e11b145f612b38565b905060208151101590612b32565b6001600160a01b0384811691161493505f612ada565b93909260ff612bb39361049097958752166020860152604085015260a0606085015260a084019061045b565b91608081840391015261045b565b909260ff608093610490969584521660208301526040820152816060820152019061045b565b9392919093612bf58161265a565b50805f52600460205265ffffffffffff612c1c60405f2065ffffffffffff905460a01c1690565b169360405195630748d63560e31b875260018060a01b03811695866004890152602488015260208760448160018060a01b037f0000000000000000000000000000000000000000000000000000000000000000165afa9687156115c9575f97612cff575b508684612c8d928561319d565b8051612ccc5750612cc67fb8e138887d0aa13bab447e82de9d5c1777041ecd21ca36ba824ff1e6c07ddda4938660405194859485612bc1565b0390a290565b612cc6907fe2babfbac5889a709b63bb7f598b324e08bc5a4fb9ec647fb3cbc9ec07eb8712948760405195869586612b87565b909396506020813d602011612d2f575b81612d1c6020938361064f565b8101031261043157519592612c8d612c80565b3d9150612d0f565b333003612d4057565b6347096e4760e01b5f523360045260245ffd5b9193929093612d628233613283565b15612e61575f1965ffffffffffff612d78612348565b16019465ffffffffffff86116114e9576020955f604051612d99898261064f565b52604051630748d63560e31b815233600482015265ffffffffffff91909116602482015286816044817f00000000000000000000000000000000000000000000000000000000000000006001600160a01b03165afa9687156115c9575f97612e31575b5050600754808710612e1657506104909495503393613b2f565b636121770b60e11b5f5233600452602487905260445260645ffd5b9080929750813d8311612e5a575b612e49818361064f565b810103126104315751945f80612dfc565b503d612e3f565b63d9b3955760e01b5f523360045260245ffd5b63ffffffff8111612e885763ffffffff1690565b6306dfcc6560e41b5f52602060045260245260445ffd5b90919061067f5750805115612eb657805190602001fd5b630a12f52160e11b5f5260045ffd5b90600182018092116114e957565b919082018092116114e957565b805f52600b60205260405f20905f526004602052612f0c65ffffffffffff60405f205460a01c1661250b565b6002600183015492015482018092116114e957111590565b90604051612f318161062f565b602081935463ffffffff81168352811c910152565b600e54905f918060058211612ff3575b63ffffffff9150929116905b828110612fa157505080612f7557505f90565b612f9a612f84610490926124ee565b600e5f525f80516020613e558339815191520190565b5460201c90565b90918082169080831860011c82018092116114e957600e5f525f80516020613e5583398151915282015463ffffffff16841015612fe15750915b90612f62565b929150612fed90612ec5565b90612fdb565b612ffc82613572565b82039182116114e957600e5f525f80516020613e5583398151915282015463ffffffff9081169084161015613037575063ffffffff90612f56565b925061304763ffffffff91612ec5565b92612f56565b307f00000000000000000000000000000000000000000000000000000000000000006001600160a01b0316148061313a575b156130a8577f000000000000000000000000000000000000000000000000000000000000000090565b60405160208101907f8b73c3c69bb8fe3d512ecc4cf759cc79239f7b179b0ffacaa9a75d522b39400f82527f000000000000000000000000000000000000000000000000000000000000000060408201527f000000000000000000000000000000000000000000000000000000000000000060608201524660808201523060a082015260a0815261248d60c08261064f565b507f0000000000000000000000000000000000000000000000000000000000000000461461307f565b81519190604183036131935761318c9250602082015190606060408401519301515f1a906136e5565b9192909190565b50505f9160029190565b6131b160ff915f52600b60205260405f2090565b9216906003821461326c576001600160a01b0381165f90815260038401602081905260409091205460ff16613250576131fd91611b4c919060018060a01b03165f5260205260405f2090565b8061321357509061320f908254612ed3565b9055565b6001810361322b5750600161320f9101918254612ed3565b60020361324157600261320f9101918254612ed3565b6303599be160e11b5f5260045ffd5b6371c6af4960e01b5f526001600160a01b03821660045260245ffd5b50505050565b908151811015610b87570160200190565b8151603481106133325760131981840101516001600160a01b0319166b1b91f1b211f2119351b859f160a31b0161333257915f926132c0816124fc565b915b8183106132dd575050506001600160a01b0391821691161490565b9091936133036132fe6132f08785613272565b516001600160f81b03191690565b613767565b90156133275760019160ff9060041b6010600160a01b0316911617940191906132c2565b505050505050600190565b505050600190565b60ff81146133805760ff811690601f8211613371576040519161335e60408461064f565b6020808452838101919036833783525290565b632cd44ac360e21b5f5260045ffd5b5060405161049081611e59815f611ccc565b60ff81146133b65760ff811690601f8211613371576040519161335e60408461064f565b5060405161049081611e59816001611ccc565b65ffffffffffff81116133e15765ffffffffffff1690565b6306dfcc6560e41b5f52603060045260245260445ffd5b805490600160401b82101561064a5760018201808255821015610b87575f9081526020902001815160209283015190921b63ffffffff191663ffffffff92909216919091179055565b600e5491929190811561352b5781613468613463612f8463ffffffff956124ee565b612f24565b90613477825163ffffffff1690565b848416948591161161351c57856020936134df956134a561349c865163ffffffff1690565b63ffffffff1690565b036134e357506134ba612f846134d1936124ee565b9063ffffffff82549181199060201b169116179055565b01516001600160e01b031690565b9190565b905061351791506135016134f5610670565b63ffffffff9092168252565b6001600160e01b038716818501525b600e6133f8565b6134d1565b632520601d60e01b5f5260045ffd5b61354f915061353b6134f5610670565b6001600160e01b0384166020820152613510565b5f9190565b811561355e570490565b634e487b7160e01b5f52601260045260245ffd5b80156136e0576104909061367661366f61366561365b61365161364761363d61363360016136215f8b608081901c806136d2575b50806135b56136179260401c90565b806136c5575b506135c68160201c90565b806136b8575b506135d78160101c90565b806136ab575b506135e88160081c90565b8061369e575b506135f98160041c90565b80613691575b5061360a8160021c90565b80613684575b5060011c90565b61367c5760011c90565b1b61362c818b613554565b0160011c90565b61362c818a613554565b61362c8189613554565b61362c8188613554565b61362c8187613554565b61362c8186613554565b61362c8185613554565b8092613554565b90613d2d565b820160011c90565b600291509201915f613610565b600491509201915f6135ff565b600891509201915f6135ee565b601091509201915f6135dd565b602091509201915f6135cc565b604091509201915f6135bb565b6080925090506136176135a6565b505f90565b91907f7fffffffffffffffffffffffffffffff5d576e7357a4501ddfe92f46681b20a0841161375c579160209360809260ff5f9560405194855216868401526040830152606082015282805260015afa156115c9575f516001600160a01b0381161561375257905f905f90565b505f906001905f90565b5050505f9160039190565b60f81c9081602f10806137da575b1561378757600191602f190160ff1690565b81604010806137d0575b156137a3576001916036190160ff1690565b81606010806137c6575b156137bf576001916056190160ff1690565b5f91508190565b50606782106137ad565b5060478210613791565b50603a8210613775565b600954600160401b81101561064a5760018101600955600954811015610b875760095f527f6e1540171b6c0c960b71a7020d9f60077f6af931a8bbf590da0223dacf75c7af0155565b818110613838575050565b5f815560010161382d565b9181811061385057505050565b61067f925f5260205f20918201910161382d565b8151916001600160401b03831161064a57600160401b831161064a5760209061389284845481865585613843565b01905f5260205f205f5b8381106138a95750505050565b60019060208451940193818401550161389c565b9190601f81116138cc57505050565b61067f925f5260205f20906020601f840160051c830193106138f6575b601f0160051c019061382d565b90915081906138e9565b91909182516001600160401b03811161064a57613927816139218454611c94565b846138bd565b6020601f821160011461396257819061320f9394955f92613957575b50508160011b915f199060031b1c19161790565b015190505f80613943565b601f19821690613975845f5260205f2090565b915f5b8181106139af57509583600195969710613997575b505050811b019055565b01515f1960f88460031b161c191690555f808061398d565b9192602060018192868b015181550194019201613978565b815191600160401b831161064a578154838355808410613a21575b5060206139f49101915f5260205f2090565b5f915b838310613a045750505050565b6001602082613a1583945186613900565b019201920191906139f7565b825f528360205f2091820191015b818110613a3c57506139e2565b80613a4960019254611c94565b80613a56575b5001613a2f565b601f81118314613a6b57505f81555b5f613a4f565b613a8d9083601f613a7f855f5260205f2090565b920160051c8201910161382d565b5f8181526020812081835555613a65565b9080518051906001600160401b03821161064a57600160401b821161064a57602090613acf83865481885587613843565b01835f5260205f205f5b838110613b125750505050606081613afa6020600394015160018601613864565b613b0b6040820151600286016139c7565b0151910155565b82516001600160a01b031681830155602090920191600101613ad9565b919493948351613b4760208601918220838587612465565b948451845190818114801590613d22575b8015613d1a575b613cfd57505065ffffffffffff613b81612998885f52600460205260405f2090565b16613ce0577f7d84a6263ae0d98d3329bd7b46bb4e8d6f98cd35a7adb45c274c8b7fd5ebd5e086979861049097613c9f8489613be0613bbe612348565b65ffffffffffff613bd96129a765ffffffffffff6008541690565b9116612ed3565b89613bf661349c63ffffffff60085460301c1690565b613c7d613c0b885f52600460205260405f2090565b80546001600160a01b0319166001600160a01b038b16178155613c54613c30866133c9565b825465ffffffffffff60a01b191660a09190911b65ffffffffffff60a01b16178255565b613c5d83612e74565b815463ffffffff60d01b191660d09190911b63ffffffff60d01b16179055565b8c613c92613c8b8651613d3f565b9285612ed3565b94604051998a998a613d88565b0390a1613cab876137e4565b51902091613cb7610681565b938452602084015260408301526060820152613cdb835f52600a60205260405f2090565b613a9e565b61137286613ced81612055565b6331b75e4d60e01b5f52906125c1565b8451630447b05d60e41b5f5260049190915260245260445260645ffd5b508015613b5f565b508451811415613b58565b9080821015613d3a575090565b905090565b90613d4982610751565b613d56604051918261064f565b8281528092613d67601f1991610751565b01905f5b828110613d7757505050565b806060602080938501015201613d6b565b959998969794939192613dc993613dbb92885260018060a01b031660208801526101206040880152610120870190610937565b908582036060870152610973565b968388036080850152815180895260208901906020808260051b8c01019401915f905b828210613e28575050505061049096975090613e0f9184820360a08601526109a6565b9360c083015260e082015261010081840391015261045b565b90919294602080613e466001938f601f19908203018652895161045b565b970192019201909291613dec56febb7b4a454dc3493923482f07822329ed19e8244eff582cc204f8554c3620c3fda2646970667358221220f87d5f617c5cb44206b835a743b2c11e79f8bbb8f376950d51cd0dd97ae3818564736f6c634300081a0033","linkReferences":{}},"methodIdentifiers":{"BALLOT_TYPEHASH()":"deaaa7cc","CLOCK_MODE()":"4bf5d7e9","COUNTING_MODE()":"dd4e2ba5","DEFAULT_ADMIN_ROLE()":"a217fddf","EXECUTOR_ROLE()":"07bd0265","EXTENDED_BALLOT_TYPEHASH()":"2fe3e261","cancel(address[],uint256[],bytes[],bytes32)":"452115d6","cancel(uint256)":"40e58ee5","castVote(uint256,uint8)":"56781388","castVoteBySig(uint256,uint8,address,bytes)":"8ff262e3","castVoteWithReason(uint256,uint8,string)":"7b3c71d3","castVoteWithReasonAndParams(uint256,uint8,string,bytes)":"5f398a14","castVoteWithReasonAndParamsBySig(uint256,uint8,address,string,bytes,bytes)":"5b8d0e0d","clock()":"91ddadf4","earlyExecute(uint256)":"f5379ea9","eip712Domain()":"84b0196e","execute(address[],uint256[],bytes[],bytes32)":"2656227d","execute(uint256)":"fe0d94c1","getRoleAdmin(bytes32)":"248a9ca3","getVotes(address,uint256)":"eb9019d4","getVotesWithParams(address,uint256,bytes)":"9a802a6d","grantRole(bytes32,address)":"2f2ff15d","hasRole(bytes32,address)":"91d14854","hasVoted(uint256,address)":"43859632","hashProposal(address[],uint256[],bytes[],bytes32)":"c59057e4","name()":"06fdde03","nonces(address)":"7ecebe00","onERC1155BatchReceived(address,address,uint256[],uint256[],bytes)":"bc197c81","onERC1155Received(address,address,uint256,uint256,bytes)":"f23a6e61","onERC721Received(address,address,uint256,bytes)":"150b7a02","proposalCount()":"da35c664","proposalDeadline(uint256)":"c01f9e37","proposalDetails(uint256)":"16e9eaec","proposalDetailsAt(uint256)":"2e82db94","proposalEta(uint256)":"ab58fb8e","proposalNeedsQueuing(uint256)":"a9a95294","proposalProposer(uint256)":"143489d0","proposalSnapshot(uint256)":"2d63f693","proposalThreshold()":"b58131b0","proposalVotes(uint256)":"544ffc9c","propose(address[],uint256[],bytes[],string)":"7d5e81e2","queue(address[],uint256[],bytes[],bytes32)":"160cbed7","queue(uint256)":"ddf0b009","quorum(uint256)":"f8ce560a","relay(address,uint256,bytes)":"c28bc2fa","renounceRole(bytes32,address)":"36568abe","revokeRole(bytes32,address)":"d547741f","setProposalThreshold(uint256)":"ece40cc1","setVotingDelay(uint48)":"79051887","setVotingPeriod(uint32)":"e540d01d","state(uint256)":"3e4f49e6","supportsInterface(bytes4)":"01ffc9a7","token()":"fc0c546a","updateQuorum(uint224)":"97ad3b6f","version()":"54fd4d50","votingDelay()":"3932abb1","votingPeriod()":"02a251a3"},"id":36}