{"abi":[{"type":"constructor","inputs":[],"stateMutability":"nonpayable"},{"type":"function","name":"ADMIN_ROLE","inputs":[],"outputs":[{"name":"","type":"bytes32","internalType":"bytes32"}],"stateMutability":"view"},{"type":"function","name":"DEFAULT_ADMIN_ROLE","inputs":[],"outputs":[{"name":"","type":"bytes32","internalType":"bytes32"}],"stateMutability":"view"},{"type":"function","name":"PHASE_COMPLETED","inputs":[],"outputs":[{"name":"","type":"uint8","internalType":"uint8"}],"stateMutability":"view"},{"type":"function","name":"PHASE_EVALUATION","inputs":[],"outputs":[{"name":"","type":"uint8","internalType":"uint8"}],"stateMutability":"view"},{"type":"function","name":"PHASE_NEGOTIATION","inputs":[],"outputs":[{"name":"","type":"uint8","internalType":"uint8"}],"stateMutability":"view"},{"type":"function","name":"PHASE_REJECTED","inputs":[],"outputs":[{"name":"","type":"uint8","internalType":"uint8"}],"stateMutability":"view"},{"type":"function","name":"PHASE_REQUEST","inputs":[],"outputs":[{"name":"","type":"uint8","internalType":"uint8"}],"stateMutability":"view"},{"type":"function","name":"PHASE_TRANSACTION","inputs":[],"outputs":[{"name":"","type":"uint8","internalType":"uint8"}],"stateMutability":"view"},{"type":"function","name":"TOTAL_PHASES","inputs":[],"outputs":[{"name":"","type":"uint8","internalType":"uint8"}],"stateMutability":"view"},{"type":"function","name":"canSign","inputs":[{"name":"account","type":"address","internalType":"address"},{"name":"jobId","type":"uint256","internalType":"uint256"}],"outputs":[{"name":"","type":"bool","internalType":"bool"}],"stateMutability":"view"},{"type":"function","name":"claimBudget","inputs":[{"name":"id","type":"uint256","internalType":"uint256"}],"outputs":[],"stateMutability":"nonpayable"},{"type":"function","name":"createJob","inputs":[{"name":"provider","type":"address","internalType":"address"},{"name":"evaluator","type":"address","internalType":"address"},{"name":"expiredAt","type":"uint256","internalType":"uint256"}],"outputs":[{"name":"","type":"uint256","internalType":"uint256"}],"stateMutability":"nonpayable"},{"type":"function","name":"createMemo","inputs":[{"name":"jobId","type":"uint256","internalType":"uint256"},{"name":"content","type":"string","internalType":"string"},{"name":"memoType","type":"uint8","internalType":"enum InteractionLedger.MemoType"},{"name":"isSecured","type":"bool","internalType":"bool"},{"name":"nextPhase","type":"uint8","internalType":"uint8"}],"outputs":[{"name":"","type":"uint256","internalType":"uint256"}],"stateMutability":"nonpayable"},{"type":"function","name":"evaluatorFeeBP","inputs":[],"outputs":[{"name":"","type":"uint256","internalType":"uint256"}],"stateMutability":"view"},{"type":"function","name":"getAllMemos","inputs":[{"name":"jobId","type":"uint256","internalType":"uint256"},{"name":"offset","type":"uint256","internalType":"uint256"},{"name":"limit","type":"uint256","internalType":"uint256"}],"outputs":[{"name":"","type":"tuple[]","internalType":"struct InteractionLedger.Memo[]","components":[{"name":"content","type":"string","internalType":"string"},{"name":"memoType","type":"uint8","internalType":"enum InteractionLedger.MemoType"},{"name":"isSecured","type":"bool","internalType":"bool"},{"name":"nextPhase","type":"uint8","internalType":"uint8"},{"name":"jobId","type":"uint256","internalType":"uint256"},{"name":"sender","type":"address","internalType":"address"}]},{"name":"total","type":"uint256","internalType":"uint256"}],"stateMutability":"view"},{"type":"function","name":"getJobPhaseMemoIds","inputs":[{"name":"jobId","type":"uint256","internalType":"uint256"},{"name":"phase","type":"uint8","internalType":"uint8"}],"outputs":[{"name":"","type":"uint256[]","internalType":"uint256[]"}],"stateMutability":"view"},{"type":"function","name":"getMemosForPhase","inputs":[{"name":"jobId","type":"uint256","internalType":"uint256"},{"name":"phase","type":"uint8","internalType":"uint8"},{"name":"offset","type":"uint256","internalType":"uint256"},{"name":"limit","type":"uint256","internalType":"uint256"}],"outputs":[{"name":"","type":"tuple[]","internalType":"struct InteractionLedger.Memo[]","components":[{"name":"content","type":"string","internalType":"string"},{"name":"memoType","type":"uint8","internalType":"enum InteractionLedger.MemoType"},{"name":"isSecured","type":"bool","internalType":"bool"},{"name":"nextPhase","type":"uint8","internalType":"uint8"},{"name":"jobId","type":"uint256","internalType":"uint256"},{"name":"sender","type":"address","internalType":"address"}]},{"name":"total","type":"uint256","internalType":"uint256"}],"stateMutability":"view"},{"type":"function","name":"getPhases","inputs":[],"outputs":[{"name":"","type":"string[6]","internalType":"string[6]"}],"stateMutability":"pure"},{"type":"function","name":"getRoleAdmin","inputs":[{"name":"role","type":"bytes32","internalType":"bytes32"}],"outputs":[{"name":"","type":"bytes32","internalType":"bytes32"}],"stateMutability":"view"},{"type":"function","name":"grantRole","inputs":[{"name":"role","type":"bytes32","internalType":"bytes32"},{"name":"account","type":"address","internalType":"address"}],"outputs":[],"stateMutability":"nonpayable"},{"type":"function","name":"hasRole","inputs":[{"name":"role","type":"bytes32","internalType":"bytes32"},{"name":"account","type":"address","internalType":"address"}],"outputs":[{"name":"","type":"bool","internalType":"bool"}],"stateMutability":"view"},{"type":"function","name":"initialize","inputs":[{"name":"paymentTokenAddress","type":"address","internalType":"address"},{"name":"evaluatorFeeBP_","type":"uint256","internalType":"uint256"},{"name":"platformFeeBP_","type":"uint256","internalType":"uint256"},{"name":"platformTreasury_","type":"address","internalType":"address"}],"outputs":[],"stateMutability":"nonpayable"},{"type":"function","name":"isJobEvaluator","inputs":[{"name":"jobId","type":"uint256","internalType":"uint256"},{"name":"account","type":"address","internalType":"address"}],"outputs":[{"name":"","type":"bool","internalType":"bool"}],"stateMutability":"view"},{"type":"function","name":"jobCounter","inputs":[],"outputs":[{"name":"","type":"uint256","internalType":"uint256"}],"stateMutability":"view"},{"type":"function","name":"jobMemoIds","inputs":[{"name":"jobId","type":"uint256","internalType":"uint256"},{"name":"phase","type":"uint8","internalType":"uint8"},{"name":"","type":"uint256","internalType":"uint256"}],"outputs":[{"name":"memoIds","type":"uint256","internalType":"uint256"}],"stateMutability":"view"},{"type":"function","name":"jobs","inputs":[{"name":"","type":"uint256","internalType":"uint256"}],"outputs":[{"name":"id","type":"uint256","internalType":"uint256"},{"name":"client","type":"address","internalType":"address"},{"name":"provider","type":"address","internalType":"address"},{"name":"budget","type":"uint256","internalType":"uint256"},{"name":"amountClaimed","type":"uint256","internalType":"uint256"},{"name":"phase","type":"uint8","internalType":"uint8"},{"name":"memoCount","type":"uint256","internalType":"uint256"},{"name":"expiredAt","type":"uint256","internalType":"uint256"},{"name":"evaluator","type":"address","internalType":"address"}],"stateMutability":"view"},{"type":"function","name":"memoCounter","inputs":[],"outputs":[{"name":"","type":"uint256","internalType":"uint256"}],"stateMutability":"view"},{"type":"function","name":"memos","inputs":[{"name":"","type":"uint256","internalType":"uint256"}],"outputs":[{"name":"content","type":"string","internalType":"string"},{"name":"memoType","type":"uint8","internalType":"enum InteractionLedger.MemoType"},{"name":"isSecured","type":"bool","internalType":"bool"},{"name":"nextPhase","type":"uint8","internalType":"uint8"},{"name":"jobId","type":"uint256","internalType":"uint256"},{"name":"sender","type":"address","internalType":"address"}],"stateMutability":"view"},{"type":"function","name":"numEvaluatorsPerJob","inputs":[],"outputs":[{"name":"","type":"uint8","internalType":"uint8"}],"stateMutability":"view"},{"type":"function","name":"paymentToken","inputs":[],"outputs":[{"name":"","type":"address","internalType":"contract IERC20"}],"stateMutability":"view"},{"type":"function","name":"platformFeeBP","inputs":[],"outputs":[{"name":"","type":"uint256","internalType":"uint256"}],"stateMutability":"view"},{"type":"function","name":"platformTreasury","inputs":[],"outputs":[{"name":"","type":"address","internalType":"address"}],"stateMutability":"view"},{"type":"function","name":"renounceRole","inputs":[{"name":"role","type":"bytes32","internalType":"bytes32"},{"name":"callerConfirmation","type":"address","internalType":"address"}],"outputs":[],"stateMutability":"nonpayable"},{"type":"function","name":"revokeRole","inputs":[{"name":"role","type":"bytes32","internalType":"bytes32"},{"name":"account","type":"address","internalType":"address"}],"outputs":[],"stateMutability":"nonpayable"},{"type":"function","name":"setBudget","inputs":[{"name":"jobId","type":"uint256","internalType":"uint256"},{"name":"amount","type":"uint256","internalType":"uint256"}],"outputs":[],"stateMutability":"nonpayable"},{"type":"function","name":"signMemo","inputs":[{"name":"memoId","type":"uint256","internalType":"uint256"},{"name":"isApproved","type":"bool","internalType":"bool"},{"name":"reason","type":"string","internalType":"string"}],"outputs":[],"stateMutability":"nonpayable"},{"type":"function","name":"signatories","inputs":[{"name":"memoId","type":"uint256","internalType":"uint256"},{"name":"signer","type":"address","internalType":"address"}],"outputs":[{"name":"res","type":"uint8","internalType":"uint8"}],"stateMutability":"view"},{"type":"function","name":"supportsInterface","inputs":[{"name":"interfaceId","type":"bytes4","internalType":"bytes4"}],"outputs":[{"name":"","type":"bool","internalType":"bool"}],"stateMutability":"view"},{"type":"function","name":"updateEvaluatorFee","inputs":[{"name":"evaluatorFeeBP_","type":"uint256","internalType":"uint256"}],"outputs":[],"stateMutability":"nonpayable"},{"type":"function","name":"updatePlatformFee","inputs":[{"name":"platformFeeBP_","type":"uint256","internalType":"uint256"},{"name":"platformTreasury_","type":"address","internalType":"address"}],"outputs":[],"stateMutability":"nonpayable"},{"type":"event","name":"BudgetSet","inputs":[{"name":"jobId","type":"uint256","indexed":true,"internalType":"uint256"},{"name":"newBudget","type":"uint256","indexed":false,"internalType":"uint256"}],"anonymous":false},{"type":"event","name":"ClaimedEvaluatorFee","inputs":[{"name":"jobId","type":"uint256","indexed":false,"internalType":"uint256"},{"name":"evaluator","type":"address","indexed":true,"internalType":"address"},{"name":"evaluatorFee","type":"uint256","indexed":false,"internalType":"uint256"}],"anonymous":false},{"type":"event","name":"ClaimedProviderFee","inputs":[{"name":"jobId","type":"uint256","indexed":false,"internalType":"uint256"},{"name":"provider","type":"address","indexed":true,"internalType":"address"},{"name":"providerFee","type":"uint256","indexed":false,"internalType":"uint256"}],"anonymous":false},{"type":"event","name":"Initialized","inputs":[{"name":"version","type":"uint64","indexed":false,"internalType":"uint64"}],"anonymous":false},{"type":"event","name":"JobCreated","inputs":[{"name":"jobId","type":"uint256","indexed":false,"internalType":"uint256"},{"name":"client","type":"address","indexed":true,"internalType":"address"},{"name":"provider","type":"address","indexed":true,"internalType":"address"},{"name":"evaluator","type":"address","indexed":true,"internalType":"address"}],"anonymous":false},{"type":"event","name":"JobPhaseUpdated","inputs":[{"name":"jobId","type":"uint256","indexed":true,"internalType":"uint256"},{"name":"oldPhase","type":"uint8","indexed":false,"internalType":"uint8"},{"name":"phase","type":"uint8","indexed":false,"internalType":"uint8"}],"anonymous":false},{"type":"event","name":"MemoSigned","inputs":[{"name":"memoId","type":"uint256","indexed":false,"internalType":"uint256"},{"name":"isApproved","type":"bool","indexed":false,"internalType":"bool"},{"name":"reason","type":"string","indexed":false,"internalType":"string"}],"anonymous":false},{"type":"event","name":"NewMemo","inputs":[{"name":"jobId","type":"uint256","indexed":true,"internalType":"uint256"},{"name":"sender","type":"address","indexed":true,"internalType":"address"},{"name":"memoId","type":"uint256","indexed":false,"internalType":"uint256"}],"anonymous":false},{"type":"event","name":"RefundedBudget","inputs":[{"name":"jobId","type":"uint256","indexed":false,"internalType":"uint256"},{"name":"client","type":"address","indexed":true,"internalType":"address"},{"name":"amount","type":"uint256","indexed":false,"internalType":"uint256"}],"anonymous":false},{"type":"event","name":"RoleAdminChanged","inputs":[{"name":"role","type":"bytes32","indexed":true,"internalType":"bytes32"},{"name":"previousAdminRole","type":"bytes32","indexed":true,"internalType":"bytes32"},{"name":"newAdminRole","type":"bytes32","indexed":true,"internalType":"bytes32"}],"anonymous":false},{"type":"event","name":"RoleGranted","inputs":[{"name":"role","type":"bytes32","indexed":true,"internalType":"bytes32"},{"name":"account","type":"address","indexed":true,"internalType":"address"},{"name":"sender","type":"address","indexed":true,"internalType":"address"}],"anonymous":false},{"type":"event","name":"RoleRevoked","inputs":[{"name":"role","type":"bytes32","indexed":true,"internalType":"bytes32"},{"name":"account","type":"address","indexed":true,"internalType":"address"},{"name":"sender","type":"address","indexed":true,"internalType":"address"}],"anonymous":false},{"type":"error","name":"AccessControlBadConfirmation","inputs":[]},{"type":"error","name":"AccessControlUnauthorizedAccount","inputs":[{"name":"account","type":"address","internalType":"address"},{"name":"neededRole","type":"bytes32","internalType":"bytes32"}]},{"type":"error","name":"AddressEmptyCode","inputs":[{"name":"target","type":"address","internalType":"address"}]},{"type":"error","name":"AddressInsufficientBalance","inputs":[{"name":"account","type":"address","internalType":"address"}]},{"type":"error","name":"FailedInnerCall","inputs":[]},{"type":"error","name":"InvalidInitialization","inputs":[]},{"type":"error","name":"NotInitializing","inputs":[]},{"type":"error","name":"ReentrancyGuardReentrantCall","inputs":[]},{"type":"error","name":"SafeERC20FailedOperation","inputs":[{"name":"token","type":"address","internalType":"address"}]}],"bytecode":{"object":"0x6080806040523460d0577ff0c57e16840df040f15088dc2f81fe391c3923bec73e23a9662efc9c229c6a005460ff8160401c1660c1576002600160401b03196001600160401b03821601605c575b604051612aa890816100d58239f35b6001600160401b0319166001600160401b039081177ff0c57e16840df040f15088dc2f81fe391c3923bec73e23a9662efc9c229c6a005581527fc7f505b2f371ae2175ee4913f4499e1f2633a7b5936321eed1cdaeb6115181d290602090a15f80604d565b63f92ee8a960e01b5f5260045ffd5b5f80fdfe6080806040526004361015610012575f80fd5b5f3560e01c90816301ffc9a714611a05575080630a78af6a146119de578063180aedf314611940578063248a9ca31461191a5780632f0e31f4146118fd5780632f2ff15d146118cc5780633013ce29146118a457806336568abe146118605780633fedd249146118045780634208b07a146117e45780634d71d1f01461165157806350355d761461163457806367a3e22d14611538578063712ee07a1461121157806375b238fc146111d7578063841aeda3146111bc578063865d05c11461117357806387f2473f14610caa57806391d148541461111e57806391fd6372146110e75780639675dc1714610f7d57806399e6408214610f365780639c08ff3b14610f1b5780639e3d87cd14610cc4578063a217fddf14610caa578063a2cf8a0f14610c8f578063a7f3997a14610b14578063ba4b3e4014610af3578063be2d0ccc14610a38578063bf0077ef14610817578063d0e3e756146107fc578063d500d4cd14610367578063d547741f1461032f578063e138818c14610307578063e8dfdf0414610277578063ef05242a14610247578063f4ef57971461022b578063fb8f771814610210578063ff0ae857146101f55763ff96092a146101d4575f80fd5b346101f1575f3660031901126101f1576020600954604051908152f35b5f80fd5b346101f1575f3660031901126101f157602060405160048152f35b346101f1575f3660031901126101f157602060405160038152f35b346101f1575f3660031901126101f15760205f54604051908152f35b346101f15760403660031901126101f157602061026d610265611a6e565b600435611fd7565b6040519015158152f35b346101f15760203660031901126101f1576004355f5260026020526102d360405f206102a281611c97565b90600181015490600281015490600360018060a01b03910154169060ff60405195869560c0875260c0870190611abd565b936102e360208701838316611ae1565b818160081c161515604087015260101c166060850152608084015260a08301520390f35b346101f1575f3660031901126101f157600a546040516001600160a01b039091168152602090f35b346101f15760403660031901126101f15761036560043561034e611a6e565b9061036061035b82611e3f565b612116565b61237b565b005b346101f15760a03660031901126101f15760043560243567ffffffffffffffff81116101f15761039b903690600401611c19565b906044359060068210156101f1576064358015158091036101f1576084359360ff85168095036101f1575f838152600660205260409020600101546001600160a01b0316331480156107da575b156107855782151580610779575b1561073f57825f52600660205260405f20906005820192600460ff85541610156106fa576104245f54611f46565b95865f556040519261043584611ba2565b8352610445602084019182611f68565b604083019182526060830190888252608084019087825260a0850192338452895f52600260205260405f20955180519067ffffffffffffffff82116106145781906104908954611c5f565b601f81116106aa575b50602090601f8311600114610647575f9261063c575b50508160011b915f199060031b1c19161786555b6001860191519060068210156106285760039560ff62ff000061ff0086549351151560081b16935160101b1693169062ffffff1916171717905551600284015560018060a01b0390511691019060018060a01b03166001600160601b0360a01b825416179055604051848152837feb824b38286562d6e49a7dd1de301cea78be071582c986ea4deed0653c57bf4460203393a3600681016105648154611f46565b9055825f52600860205260405f2060ff80845416165f5260205260405f209485549068010000000000000000821015610614576105ab826020986001600495018155611a94565b81549060031b9088821b915f19901b1916179055149182610605575b50816105ee575b506105dd575b50604051908152f35b60036105e89161248b565b826105d4565b600201546001600160a01b031633149050846105ce565b5460ff166002149150856105c7565b634e487b7160e01b5f52604160045260245ffd5b634e487b7160e01b5f52602160045260245ffd5b015190508d806104af565b5f8a81528281209350601f198516905b818110610692575090846001959493921061067a575b505050811b0186556104c3565b01515f1960f88460031b161c191690558d808061066d565b92936020600181928786015181550195019301610657565b909150885f5260205f20601f840160051c810191602085106106f0575b90601f859493920160051c01905b8181106106e25750610499565b5f81558493506001016106d5565b90915081906106c7565b60405162461bcd60e51b815260206004820152601860248201527f4a6f6220697320616c726561647920636f6d706c6574656400000000000000006044820152606490fd5b60405162461bcd60e51b8152602060048201526012602482015271129bd888191bd95cc81b9bdd08195e1a5cdd60721b6044820152606490fd5b506007548311156103f6565b60405162461bcd60e51b815260206004820152602760248201527f4f6e6c7920636c69656e74206f722070726f76696465722063616e20637265616044820152667465206d656d6f60c81b6064820152608490fd5b505f838152600660205260409020600201546001600160a01b031633146103e8565b346101f1575f3660031901126101f157602060405160058152f35b346101f15760603660031901126101f157610830611a58565b610838611a6e565b6001600160a01b039091169060443582156109fb5761012c42018042116109e7578111156109af5760209261086e600754611f46565b928360075560086040519161088283611bbe565b858352868301943386526040840185815260ff606086015f8152608087015f815260a08801915f835260c08901945f865260e08a019687526101008a019760018060a01b03169b8c89528d5f5260068f5260405f209a518b5560018060a01b0390511660018b019060018060a01b03166001600160601b0360a01b82541617905560018060a01b0390511660028a019060018060a01b03166001600160601b0360a01b825416179055516003890155516004880155511660ff60058701911660ff1982541617905551600685015551600784015560018060a01b0390511691019060018060a01b03166001600160601b0360a01b8254161790556040518381527f7145baffba65988d8e1a90949b75f34892b836b20ebb38c8e644a1bbb4bfb532853392a4604051908152f35b60405162461bcd60e51b815260206004820152601060248201526f115e1c1a5c9e481d1bdbc81cda1bdc9d60821b6044820152606490fd5b634e487b7160e01b5f52601160045260245ffd5b60405162461bcd60e51b81526020600482015260156024820152742d32b9379030b2323932b9b990383937bb34b232b960591b6044820152606490fd5b346101f15760403660031901126101f157610a51611a84565b6004355f52600860205260ff60405f2091165f5260205260405f20604051806020835491828152019081935f5260205f20905f5b818110610add5750505081610a9b910382611bdb565b604051918291602083019060208452518091526040830191905f5b818110610ac4575050500390f35b8251845285945060209384019390920191600101610ab6565b8254845260209093019260019283019201610a85565b346101f15760203660031901126101f157610b0c6120a7565b600480359055005b346101f1575f3660031901126101f15760405160c0610b338183611bdb565b5f5b818110610c8157604051610b4881611ba2565b60408051610b568282611bdb565b6007815266149154555154d560ca1b602082015282528051610b788282611bdb565b600b81526a2722a3a7aa24a0aa24a7a760a91b602082015260208301528051610ba18282611bdb565b600b81526a2a2920a729a0a1aa24a7a760a91b6020820152818301528051610bc98282611bdb565b600a81526922ab20a62aa0aa24a7a760b11b602082015260608301528051610bf18282611bdb565b600981526810d3d354131155115160ba1b602082015260808301528051610c188282611bdb565b60088152671491529150d5115160c21b602082015260a0830152518091602082016020835260e0830191905f5b60068110610c54575050500390f35b91935091602080610c71600193601f198982030187528751611abd565b9501930191019084939291610c45565b606083820152602001610b35565b346101f1575f3660031901126101f157602060405160028152f35b346101f1575f3660031901126101f15760206040515f8152f35b346101f15760803660031901126101f157610cdd611a58565b6064356001600160a01b038116908190036101f1575f80516020612a53833981519152549160ff8360401c16159267ffffffffffffffff811680159081610f13575b6001149081610f09575b159081610f00575b50610ef15767ffffffffffffffff1981166001175f80516020612a538339815191525583610ec5575b506001600160a01b03168015610e80578115610e4357610d78612989565b610d80612989565b610d88612989565b60015f80516020612a33833981519152555f6007555f8055602435600455610daf3361215c565b50610db93361220b565b506001600160601b0360a01b60035416176003556044356009556001600160601b0360a01b600a541617600a55610dec57005b68ff0000000000000000195f80516020612a5383398151915254165f80516020612a53833981519152557fc7f505b2f371ae2175ee4913f4499e1f2633a7b5936321eed1cdaeb6115181d2602060405160018152a1005b60405162461bcd60e51b81526020600482015260156024820152745a65726f206164647265737320747265617375727960581b6044820152606490fd5b60405162461bcd60e51b815260206004820152601a60248201527f5a65726f2061646472657373207061796d656e7420746f6b656e0000000000006044820152606490fd5b68ffffffffffffffffff191668010000000000000001175f80516020612a538339815191525583610d5a565b63f92ee8a960e01b5f5260045ffd5b90501585610d31565b303b159150610d29565b859150610d1f565b346101f1575f3660031901126101f157602060405160018152f35b346101f15760403660031901126101f157610f4f611a6e565b6004355f52600160205260405f209060018060a01b03165f52602052602060ff60405f205416604051908152f35b346101f15760403660031901126101f157600435602435610f9c612417565b5f82815260066020526040902060018101546001600160a01b031633036110a257811561106f57600160ff6005830154160361101657817f869e2577b006bf47ee981cf6fec2e25583548081c14b98deab587f77b50680389260036020930155604051908152a260015f80516020612a3383398151915255005b60405162461bcd60e51b815260206004820152602b60248201527f4275646765742063616e206f6e6c792062652073657420696e206e65676f746960448201526a6174696f6e20706861736560a81b6064820152608490fd5b60405162461bcd60e51b815260206004820152600b60248201526a16995c9bc8185b5bdd5b9d60aa1b6044820152606490fd5b60405162461bcd60e51b815260206004820152601a60248201527f4f6e6c7920636c69656e742063616e20736574206275646765740000000000006044820152606490fd5b346101f15760203660031901126101f157611100612417565b61110b60043561263d565b60015f80516020612a3383398151915255005b346101f15760403660031901126101f157611137611a6e565b6004355f525f80516020612a1383398151915260205260405f209060018060a01b03165f52602052602060ff60405f2054166040519015158152f35b346101f15760403660031901126101f15761118c611a6e565b6111946120a7565b600435600955600a80546001600160a01b0319166001600160a01b0392909216919091179055005b346101f1575f3660031901126101f157602060405160068152f35b346101f1575f3660031901126101f15760206040517fa49807205ce4d355092ef5a8a18f56e8913cf4a201fbe287825b095693c217758152f35b346101f15760603660031901126101f157600435602435801515918282036101f15760443567ffffffffffffffff81116101f157611253903690600401611c19565b9261125c612417565b815f52600260205260405f2091600283019485549061127b8233611d37565b15611504575f828152600660209081526040808320868452600183528184203385529092529091205460ff166114ce576005019160ff835416600381145f1461141157506112ca903390611fd7565b156113cc5760039360ff9361134b7f0cb0914bd0ef7cae45ea9025ee84364ae38b4eae540bead3cd06f2be09c410ad935b89156113c55760015b835f52600160205260405f2060018060a01b0333165f526020528760405f209116881982541617905560405193849384526020840152606060408401526060830190611abd565b0390a154160361139b57501561136757600461110b915461248b565b806113776005611385935461248b565b54611380612417565b61263d565b60015f80516020612a338339815191525561110b565b906113a8575b505061110b565b60ff60016113be935492015460101c169061248b565b80806113a1565b6002611304565b60405162461bcd60e51b815260206004820152601860248201527f4f6e6c79206576616c7561746f72732063616e207369676e00000000000000006044820152606490fd5b6002915093929314806114ba575b15611456575b60039360ff939261134b7f0cb0914bd0ef7cae45ea9025ee84364ae38b4eae540bead3cd06f2be09c410ad936112fb565b60038501549192916001600160a01b0316331461147557919091611425565b60405162461bcd60e51b815260206004820152601b60248201527f4f6e6c7920636f756e7465722070617274792063616e207369676e00000000006044820152606490fd5b50600360ff600187015460101c161461141f565b60405162461bcd60e51b815260206004820152600e60248201526d105b1c9958591e481cda59db995960921b6044820152606490fd5b60405162461bcd60e51b815260206004820152600c60248201526b155b985d5d1a1bdc9a5cd95960a21b6044820152606490fd5b346101f15760803660031901126101f157600435611554611a84565b906044359160643592825f52600860205260405f2060ff83165f5260205260405f205493611583858310611e5d565b8461158e8284611ea0565b111561162e575061159f8185611ead565b915b6115aa83611ed2565b9360ff5f9216915b8481106115cc57604051806115c8898983611aee565b0390f35b600190825f52600860205260405f20845f526020526115f860405f206115f28388611ea0565b90611a94565b90549060031b1c5f52600260205261161260405f20611f74565b61161c8289611f54565b526116278188611f54565b50016115b2565b916115a1565b346101f1575f3660031901126101f1576020600754604051908152f35b346101f15760603660031901126101f15760043560243560443590825f526006602052600660405f20015491611688838310611e5d565b826116938284611ea0565b11156117de57506116a48183611ead565b915b6116af83611ed2565b905f925f805b600660ff831610806117d5575b156117c657875f52600860205260405f2060ff83165f5260205260405f2093604051808660208298549384815201905f5260205f20925f905b8082106117aa57505061171092500386611bdb565b5f915b85518310806117a1575b1561178557611736818661173c93101561174257611f46565b92611f46565b91611713565b61174c8589611f54565b515f52600260205261177f60405f209a61176e61176882611f46565b9c611f74565b611778828d611f54565b528a611f54565b50611f46565b989290945060ff91501660ff81146109e75760010190966116b5565b5088881061171d565b91600191935060208291865481520194019201889293916116fb565b604051806115c8868883611aee565b508686106116c2565b916116a6565b346101f1575f3660031901126101f157602060ff60055416604051908152f35b346101f15760603660031901126101f15761181d611a84565b604435906004355f52600860205260ff60405f2091165f5260205260405f2080548210156101f15760209161185191611a94565b90549060031b1c604051908152f35b346101f15760403660031901126101f157611879611a6e565b336001600160a01b03821603611895576103659060043561237b565b63334bd91960e11b5f5260045ffd5b346101f1575f3660031901126101f1576003546040516001600160a01b039091168152602090f35b346101f15760403660031901126101f1576103656004356118eb611a6e565b906118f861035b82611e3f565b6122d7565b346101f1575f3660031901126101f1576020600454604051908152f35b346101f15760203660031901126101f1576020611938600435611e3f565b604051908152f35b346101f15760203660031901126101f1576004355f52600660205261012060405f2080549060018060a01b036001820154169060018060a01b036002820154166003820154600483015460ff60058501541691600685015493600786015495600860018060a01b039101541696604051988952602089015260408801526060870152608086015260a085015260c084015260e0830152610100820152f35b346101f15760403660031901126101f157602061026d6119fc611a58565b60243590611d37565b346101f15760203660031901126101f1576004359063ffffffff60e01b82168092036101f157602091637965db0b60e01b8114908115611a47575b5015158152f35b6301ffc9a760e01b14905083611a40565b600435906001600160a01b03821682036101f157565b602435906001600160a01b03821682036101f157565b6024359060ff821682036101f157565b8054821015611aa9575f5260205f2001905f90565b634e487b7160e01b5f52603260045260245ffd5b805180835260209291819084018484015e5f828201840152601f01601f1916010190565b9060068210156106285752565b92919060408401906040855280518092526060850191602060608260051b8801019201925f905b828210611b285750505060209150930152565b909192602080600192605f198b820301855287519060a0611b52835160c0845260c0840190611abd565b92611b638582015186850190611ae1565b60408101511515604084015260ff606082015116606084015260808101516080840152818780821b039101511691015296019201920190939291611b15565b60c0810190811067ffffffffffffffff82111761061457604052565b610120810190811067ffffffffffffffff82111761061457604052565b90601f8019910116810190811067ffffffffffffffff82111761061457604052565b67ffffffffffffffff811161061457601f01601f191660200190565b81601f820112156101f157803590611c3082611bfd565b92611c3e6040519485611bdb565b828452602083830101116101f157815f926020809301838601378301015290565b90600182811c92168015611c8d575b6020831014611c7957565b634e487b7160e01b5f52602260045260245ffd5b91607f1691611c6e565b9060405191825f825492611caa84611c5f565b8084529360018116908115611d155750600114611cd1575b50611ccf92500383611bdb565b565b90505f9291925260205f20905f915b818310611cf9575050906020611ccf928201015f611cc2565b6020919350806001915483858901015201910190918492611ce0565b905060209250611ccf94915060ff191682840152151560051b8201015f611cc2565b905f52600660205260405f2061010060405191611d5383611bbe565b8054835260018101546001600160a01b03908116602085018190526002830154821660408601819052600384015460608701526004808501546080880152600585015460ff1660a08801819052600686015460c0890152600786015460e0890152600890950154909316949095018490529082109485611dd6575b505050505090565b6001600160a01b0316908114945091929091908415611e35575b508315611e05575b5050505f80808080611dce565b82149250908215611e2c575b5081611e21575b505f8080611df8565b60039150145f611e18565b1591505f611e11565b811493505f611df0565b5f525f80516020612a13833981519152602052600160405f20015490565b15611e6457565b60405162461bcd60e51b81526020600482015260146024820152734f6666736574206f7574206f6620626f756e647360601b6044820152606490fd5b919082018092116109e757565b919082039182116109e757565b67ffffffffffffffff81116106145760051b60200190565b90611edc82611eba565b611ee96040519182611bdb565b8281528092611efa601f1991611eba565b01905f5b828110611f0a57505050565b602090604051611f1981611ba2565b606081525f838201525f60408201525f60608201525f60808201525f60a082015282828501015201611efe565b5f1981146109e75760010190565b8051821015611aa95760209160051b010190565b60068210156106285752565b90604051611f8181611ba2565b60a08193611f8e81611c97565b835260ff6001820154611fa682821660208701611f68565b818160081c161515604086015260101c166060840152600281015460808401526003600180841b0391015416910152565b90815f52600660205260405f2091610100604051611ff481611bbe565b8454815260018501546001600160a01b03908116602083018190526002870154821660408401526003870154606084015260048701546080840152600587015460ff1660a0840152600687015460c0840152600787015460e0840152600890960154169101819052159283612094575b505f908152600660205260409020600801546001600160a01b0391821691161490811561208f575090565b905090565b6001600160a01b0383161492505f612064565b335f9081527fb16e88c42fd4e48df2dd6a2eabd6bc9aec654ec170056b470819f8892cc6431c602052604090205460ff16156120df57565b63e2517d3f60e01b5f52336004527fa49807205ce4d355092ef5a8a18f56e8913cf4a201fbe287825b095693c2177560245260445ffd5b5f8181525f80516020612a138339815191526020908152604080832033845290915290205460ff16156121465750565b63e2517d3f60e01b5f523360045260245260445ffd5b6001600160a01b0381165f9081527fb7db2dd08fcb62d0c9e08c51941cae53c267786a0b75803fb7960902fc8ef97d602052604090205460ff16612206576001600160a01b03165f8181527fb7db2dd08fcb62d0c9e08c51941cae53c267786a0b75803fb7960902fc8ef97d60205260408120805460ff191660011790553391907f2f8788117e7eff1d82e926ec794901d17c78024a50270940304540a733656f0d8180a4600190565b505f90565b6001600160a01b0381165f9081527fb16e88c42fd4e48df2dd6a2eabd6bc9aec654ec170056b470819f8892cc6431c602052604090205460ff16612206576001600160a01b03165f8181527fb16e88c42fd4e48df2dd6a2eabd6bc9aec654ec170056b470819f8892cc6431c60205260408120805460ff191660011790553391907fa49807205ce4d355092ef5a8a18f56e8913cf4a201fbe287825b095693c21775907f2f8788117e7eff1d82e926ec794901d17c78024a50270940304540a733656f0d9080a4600190565b5f8181525f80516020612a13833981519152602090815260408083206001600160a01b038616845290915290205460ff16612375575f8181525f80516020612a13833981519152602090815260408083206001600160a01b0395909516808452949091528120805460ff19166001179055339291907f2f8788117e7eff1d82e926ec794901d17c78024a50270940304540a733656f0d9080a4600190565b50505f90565b5f8181525f80516020612a13833981519152602090815260408083206001600160a01b038616845290915290205460ff1615612375575f8181525f80516020612a13833981519152602090815260408083206001600160a01b0395909516808452949091528120805460ff19169055339291907ff6391f5c32d9c69d2a47ea670b442974b53935d1edc7fd64eb21e047a839171b9080a4600190565b60025f80516020612a3383398151915254146124405760025f80516020612a3383398151915255565b633ee5aeb560e01b5f5260045ffd5b1561245657565b60405162461bcd60e51b815260206004820152600d60248201526c496e76616c696420706861736560981b6044820152606490fd5b9060ff811661249c6006821061244f565b6124ae835f52600660205260405f2090565b91600583016124be815460ff1690565b9060ff82168414612595577f50e4abf18bf671d7422f6768965959c626f81b7b72d274a0a39c1580964d8cce6125218461250560ff968a959060ff1660ff19825416179055565b6040805160ff8088168252909216602083015290918291820190565b0390a216600181148061258b575b15612563575050600354611ccf92506001600160a01b031660018201546003906001600160a01b03169201549130916128ab565b60031491508161257f575b506125765750565b611ccf9061263d565b6004915010155f61256e565b506002821461252f565b505050505050565b156125a457565b60405162461bcd60e51b81526020600482015260126024820152714e6f2062756467657420746f20636c61696d60701b6044820152606490fd5b818102929181159184041417156109e757565b156125f857565b60405162461bcd60e51b815260206004820152601760248201527f556e61626c6520746f20726566756e64206275646765740000000000000000006044820152606490fd5b61264f815f52600660205260405f2090565b61267460038201805490600484019161266a8354821161259d565b9182905554611ead565b9061268c612684600454846125de565b612710900490565b9161269c612684600954836125de565b926005830160ff6126ae825460ff1690565b16600481036127e957505092612703917fc07e91770e25eee521ce31241960db4e6fb07ff87f9ba4d183b363e3d8fc6d8894826127c1575b6008850180546001600160a01b031680612751575b505050611ead565b9061273482600261271b60035460018060a01b031690565b930180549093906001600160a01b03165b9030906128ab565b546040805194855260208501929092526001600160a01b031692a2565b6003547fe5ae811471aaf8a95b78d90a1760e75b69daf9a45c015e2ea1ad27ae0092d761926127b69290916127929186916001600160a01b031630906128ab565b54604080518b815260208101959095526001600160a01b0390911693918291820190565b0390a25f80806126fb565b6003546127e49084906001600160a01b0316600a546001600160a01b031661272c565b6126e6565b6005955061287f9391925061287560ff956128378360037f65d92c7e7ef34306bc75bb9271fc29ccba0c610169870314d718623e9e107ec79510908161289d575b8115612893575b506125f1565b6003546128519085906001906001600160a01b031661271b565b54604080518a815260208101959095526001600160a01b0390911693918291820190565b0390a25460ff1690565b16036128885750565b6005611ccf9161248b565b8a9150145f612831565b60078401544211915061282a565b6040516323b872dd60e01b602082019081526001600160a01b03938416602483015293909216604483015260648083019490945292815291612935915f918291906128f7608487611bdb565b60018060a01b031694519082865af13d15612981573d9061291782611bfd565b916129256040519384611bdb565b82523d5f602084013e5b836129b4565b805190811515918261295d575b505061294b5750565b635274afe760e01b5f5260045260245ffd5b81925090602091810103126101f157602001518015908115036101f1575f80612942565b60609061292f565b60ff5f80516020612a538339815191525460401c16156129a557565b631afcd79f60e31b5f5260045ffd5b906129d857508051156129c957805190602001fd5b630a12f52160e11b5f5260045ffd5b81511580612a09575b6129e9575090565b639996b31560e01b5f9081526001600160a01b0391909116600452602490fd5b50803b156129e156fe02dd7bc7dec4dceedda775e58dd541e08a116c6c53815c0bd028192f7b6268009b779b17422d0df92223018b32b4d1fa46e071723d6817e2486d003becc55f00f0c57e16840df040f15088dc2f81fe391c3923bec73e23a9662efc9c229c6a00a2646970667358221220801d4b4fdf18eb67c1021769c65209c74e350bd899912f4ead67e7ea49a47bbb64736f6c634300081a0033","linkReferences":{}},"methodIdentifiers":{"ADMIN_ROLE()":"75b238fc","DEFAULT_ADMIN_ROLE()":"a217fddf","PHASE_COMPLETED()":"ff0ae857","PHASE_EVALUATION()":"fb8f7718","PHASE_NEGOTIATION()":"9c08ff3b","PHASE_REJECTED()":"d0e3e756","PHASE_REQUEST()":"87f2473f","PHASE_TRANSACTION()":"a2cf8a0f","TOTAL_PHASES()":"841aeda3","canSign(address,uint256)":"0a78af6a","claimBudget(uint256)":"91fd6372","createJob(address,address,uint256)":"bf0077ef","createMemo(uint256,string,uint8,bool,uint8)":"d500d4cd","evaluatorFeeBP()":"2f0e31f4","getAllMemos(uint256,uint256,uint256)":"4d71d1f0","getJobPhaseMemoIds(uint256,uint8)":"be2d0ccc","getMemosForPhase(uint256,uint8,uint256,uint256)":"67a3e22d","getPhases()":"a7f3997a","getRoleAdmin(bytes32)":"248a9ca3","grantRole(bytes32,address)":"2f2ff15d","hasRole(bytes32,address)":"91d14854","initialize(address,uint256,uint256,address)":"9e3d87cd","isJobEvaluator(uint256,address)":"ef05242a","jobCounter()":"50355d76","jobMemoIds(uint256,uint8,uint256)":"3fedd249","jobs(uint256)":"180aedf3","memoCounter()":"f4ef5797","memos(uint256)":"e8dfdf04","numEvaluatorsPerJob()":"4208b07a","paymentToken()":"3013ce29","platformFeeBP()":"ff96092a","platformTreasury()":"e138818c","renounceRole(bytes32,address)":"36568abe","revokeRole(bytes32,address)":"d547741f","setBudget(uint256,uint256)":"9675dc17","signMemo(uint256,bool,string)":"712ee07a","signatories(uint256,address)":"99e64082","supportsInterface(bytes4)":"01ffc9a7","updateEvaluatorFee(uint256)":"ba4b3e40","updatePlatformFee(uint256,address)":"865d05c1"},"id":5}