{"abi":[{"type":"function","name":"DEFAULT_ADMIN_ROLE","inputs":[],"outputs":[{"name":"","type":"bytes32","internalType":"bytes32"}],"stateMutability":"view"},{"type":"function","name":"FACTORY_ROLE","inputs":[],"outputs":[{"name":"","type":"bytes32","internalType":"bytes32"}],"stateMutability":"view"},{"type":"function","name":"agentFactoryAddress","inputs":[],"outputs":[{"name":"","type":"address","internalType":"address"}],"stateMutability":"view"},{"type":"function","name":"agentTokenAddress","inputs":[],"outputs":[{"name":"","type":"address","internalType":"address"}],"stateMutability":"view"},{"type":"function","name":"agentTokenLpSupply","inputs":[],"outputs":[{"name":"","type":"uint256","internalType":"uint256"}],"stateMutability":"view"},{"type":"function","name":"agentTokenTotalSupply","inputs":[],"outputs":[{"name":"","type":"uint256","internalType":"uint256"}],"stateMutability":"view"},{"type":"function","name":"cancelGenesis","inputs":[],"outputs":[],"stateMutability":"nonpayable"},{"type":"function","name":"claimAgentToken","inputs":[{"name":"userAddress","type":"address","internalType":"address"}],"outputs":[],"stateMutability":"nonpayable"},{"type":"function","name":"claimableAgentTokens","inputs":[{"name":"","type":"address","internalType":"address"}],"outputs":[{"name":"","type":"uint256","internalType":"uint256"}],"stateMutability":"view"},{"type":"function","name":"daoThreshold","inputs":[],"outputs":[{"name":"","type":"uint256","internalType":"uint256"}],"stateMutability":"view"},{"type":"function","name":"daoVotingPeriod","inputs":[],"outputs":[{"name":"","type":"uint32","internalType":"uint32"}],"stateMutability":"view"},{"type":"function","name":"endTime","inputs":[],"outputs":[{"name":"","type":"uint256","internalType":"uint256"}],"stateMutability":"view"},{"type":"function","name":"factory","inputs":[],"outputs":[{"name":"","type":"address","internalType":"contract FGenesis"}],"stateMutability":"view"},{"type":"function","name":"genesisCores","inputs":[{"name":"","type":"uint256","internalType":"uint256"}],"outputs":[{"name":"","type":"uint8","internalType":"uint8"}],"stateMutability":"view"},{"type":"function","name":"genesisId","inputs":[],"outputs":[{"name":"","type":"uint256","internalType":"uint256"}],"stateMutability":"view"},{"type":"function","name":"genesisName","inputs":[],"outputs":[{"name":"","type":"string","internalType":"string"}],"stateMutability":"view"},{"type":"function","name":"genesisTicker","inputs":[],"outputs":[{"name":"","type":"string","internalType":"string"}],"stateMutability":"view"},{"type":"function","name":"getClaimableAgentToken","inputs":[{"name":"userAddress","type":"address","internalType":"address"}],"outputs":[{"name":"","type":"uint256","internalType":"uint256"}],"stateMutability":"view"},{"type":"function","name":"getGenesisInfo","inputs":[],"outputs":[{"name":"","type":"tuple","internalType":"struct Genesis.GenesisInfo","components":[{"name":"genesisId","type":"uint256","internalType":"uint256"},{"name":"factory","type":"address","internalType":"address"},{"name":"startTime","type":"uint256","internalType":"uint256"},{"name":"endTime","type":"uint256","internalType":"uint256"},{"name":"genesisName","type":"string","internalType":"string"},{"name":"genesisTicker","type":"string","internalType":"string"},{"name":"genesisCores","type":"uint8[]","internalType":"uint8[]"},{"name":"tbaSalt","type":"bytes32","internalType":"bytes32"},{"name":"tbaImplementation","type":"address","internalType":"address"},{"name":"daoVotingPeriod","type":"uint32","internalType":"uint32"},{"name":"daoThreshold","type":"uint256","internalType":"uint256"},{"name":"agentFactoryAddress","type":"address","internalType":"address"},{"name":"virtualTokenAddress","type":"address","internalType":"address"},{"name":"reserveAmount","type":"uint256","internalType":"uint256"},{"name":"maxContributionVirtualAmount","type":"uint256","internalType":"uint256"},{"name":"agentTokenTotalSupply","type":"uint256","internalType":"uint256"},{"name":"agentTokenLpSupply","type":"uint256","internalType":"uint256"},{"name":"agentTokenAddress","type":"address","internalType":"address"},{"name":"isFailed","type":"bool","internalType":"bool"},{"name":"isCancelled","type":"bool","internalType":"bool"}]}],"stateMutability":"view"},{"type":"function","name":"getParticipantCount","inputs":[],"outputs":[{"name":"","type":"uint256","internalType":"uint256"}],"stateMutability":"view"},{"type":"function","name":"getParticipantsInfo","inputs":[{"name":"participantIndexes","type":"uint256[]","internalType":"uint256[]"}],"outputs":[{"name":"","type":"tuple[]","internalType":"struct Genesis.ParticipantInfo[]","components":[{"name":"userAddress","type":"address","internalType":"address"},{"name":"virtuals","type":"uint256","internalType":"uint256"}]}],"stateMutability":"view"},{"type":"function","name":"getParticipantsPaginated","inputs":[{"name":"startIndex","type":"uint256","internalType":"uint256"},{"name":"pageSize","type":"uint256","internalType":"uint256"}],"outputs":[{"name":"","type":"address[]","internalType":"address[]"}],"stateMutability":"view"},{"type":"function","name":"getRoleAdmin","inputs":[{"name":"role","type":"bytes32","internalType":"bytes32"}],"outputs":[{"name":"","type":"bytes32","internalType":"bytes32"}],"stateMutability":"view"},{"type":"function","name":"grantRole","inputs":[{"name":"role","type":"bytes32","internalType":"bytes32"},{"name":"account","type":"address","internalType":"address"}],"outputs":[],"stateMutability":"nonpayable"},{"type":"function","name":"hasRole","inputs":[{"name":"role","type":"bytes32","internalType":"bytes32"},{"name":"account","type":"address","internalType":"address"}],"outputs":[{"name":"","type":"bool","internalType":"bool"}],"stateMutability":"view"},{"type":"function","name":"initialize","inputs":[{"name":"params","type":"tuple","internalType":"struct GenesisInitParams","components":[{"name":"genesisID","type":"uint256","internalType":"uint256"},{"name":"factory","type":"address","internalType":"address"},{"name":"startTime","type":"uint256","internalType":"uint256"},{"name":"endTime","type":"uint256","internalType":"uint256"},{"name":"genesisName","type":"string","internalType":"string"},{"name":"genesisTicker","type":"string","internalType":"string"},{"name":"genesisCores","type":"uint8[]","internalType":"uint8[]"},{"name":"tbaSalt","type":"bytes32","internalType":"bytes32"},{"name":"tbaImplementation","type":"address","internalType":"address"},{"name":"daoVotingPeriod","type":"uint32","internalType":"uint32"},{"name":"daoThreshold","type":"uint256","internalType":"uint256"},{"name":"agentFactoryAddress","type":"address","internalType":"address"},{"name":"virtualTokenAddress","type":"address","internalType":"address"},{"name":"reserveAmount","type":"uint256","internalType":"uint256"},{"name":"maxContributionVirtualAmount","type":"uint256","internalType":"uint256"},{"name":"agentTokenTotalSupply","type":"uint256","internalType":"uint256"},{"name":"agentTokenLpSupply","type":"uint256","internalType":"uint256"}]}],"outputs":[],"stateMutability":"nonpayable"},{"type":"function","name":"isCancelled","inputs":[],"outputs":[{"name":"","type":"bool","internalType":"bool"}],"stateMutability":"view"},{"type":"function","name":"isEnded","inputs":[],"outputs":[{"name":"","type":"bool","internalType":"bool"}],"stateMutability":"view"},{"type":"function","name":"isFailed","inputs":[],"outputs":[{"name":"","type":"bool","internalType":"bool"}],"stateMutability":"view"},{"type":"function","name":"isStarted","inputs":[],"outputs":[{"name":"","type":"bool","internalType":"bool"}],"stateMutability":"view"},{"type":"function","name":"mapAddrToVirtuals","inputs":[{"name":"","type":"address","internalType":"address"}],"outputs":[{"name":"","type":"uint256","internalType":"uint256"}],"stateMutability":"view"},{"type":"function","name":"maxContributionVirtualAmount","inputs":[],"outputs":[{"name":"","type":"uint256","internalType":"uint256"}],"stateMutability":"view"},{"type":"function","name":"onGenesisFailed","inputs":[{"name":"participantIndexes","type":"uint256[]","internalType":"uint256[]"}],"outputs":[],"stateMutability":"nonpayable"},{"type":"function","name":"onGenesisSuccessSalt","inputs":[{"name":"refundVirtualsTokenUserAddresses","type":"address[]","internalType":"address[]"},{"name":"refundVirtualsTokenUserAmounts","type":"uint256[]","internalType":"uint256[]"},{"name":"distributeAgentTokenUserAddresses","type":"address[]","internalType":"address[]"},{"name":"distributeAgentTokenUserAmounts","type":"uint256[]","internalType":"uint256[]"},{"name":"creator","type":"address","internalType":"address"},{"name":"salt","type":"bytes32","internalType":"bytes32"}],"outputs":[{"name":"","type":"address","internalType":"address"}],"stateMutability":"nonpayable"},{"type":"function","name":"participants","inputs":[{"name":"","type":"uint256","internalType":"uint256"}],"outputs":[{"name":"","type":"address","internalType":"address"}],"stateMutability":"view"},{"type":"function","name":"participate","inputs":[{"name":"pointAmt","type":"uint256","internalType":"uint256"},{"name":"virtualsAmt","type":"uint256","internalType":"uint256"}],"outputs":[],"stateMutability":"nonpayable"},{"type":"function","name":"refundUserCountForFailed","inputs":[],"outputs":[{"name":"","type":"uint256","internalType":"uint256"}],"stateMutability":"view"},{"type":"function","name":"renounceRole","inputs":[{"name":"role","type":"bytes32","internalType":"bytes32"},{"name":"callerConfirmation","type":"address","internalType":"address"}],"outputs":[],"stateMutability":"nonpayable"},{"type":"function","name":"reserveAmount","inputs":[],"outputs":[{"name":"","type":"uint256","internalType":"uint256"}],"stateMutability":"view"},{"type":"function","name":"resetTime","inputs":[{"name":"newStartTime","type":"uint256","internalType":"uint256"},{"name":"newEndTime","type":"uint256","internalType":"uint256"}],"outputs":[],"stateMutability":"nonpayable"},{"type":"function","name":"revokeRole","inputs":[{"name":"role","type":"bytes32","internalType":"bytes32"},{"name":"account","type":"address","internalType":"address"}],"outputs":[],"stateMutability":"nonpayable"},{"type":"function","name":"setParams","inputs":[{"name":"params","type":"tuple","internalType":"struct GenesisParamsUpdate","components":[{"name":"reserveAmount","type":"uint256","internalType":"uint256"},{"name":"agentTokenLpSupply","type":"uint256","internalType":"uint256"}]}],"outputs":[],"stateMutability":"nonpayable"},{"type":"function","name":"startTime","inputs":[],"outputs":[{"name":"","type":"uint256","internalType":"uint256"}],"stateMutability":"view"},{"type":"function","name":"supportsInterface","inputs":[{"name":"interfaceId","type":"bytes4","internalType":"bytes4"}],"outputs":[{"name":"","type":"bool","internalType":"bool"}],"stateMutability":"view"},{"type":"function","name":"tbaImplementation","inputs":[],"outputs":[{"name":"","type":"address","internalType":"address"}],"stateMutability":"view"},{"type":"function","name":"tbaSalt","inputs":[],"outputs":[{"name":"","type":"bytes32","internalType":"bytes32"}],"stateMutability":"view"},{"type":"function","name":"virtualTokenAddress","inputs":[],"outputs":[{"name":"","type":"address","internalType":"address"}],"stateMutability":"view"},{"type":"function","name":"withdrawLeftAssetsAfterFinalized","inputs":[{"name":"to","type":"address","internalType":"address"},{"name":"token","type":"address","internalType":"address"},{"name":"amount","type":"uint256","internalType":"uint256"}],"outputs":[],"stateMutability":"nonpayable"},{"type":"event","name":"AgentTokenClaimed","inputs":[{"name":"genesisID","type":"uint256","indexed":true,"internalType":"uint256"},{"name":"user","type":"address","indexed":true,"internalType":"address"},{"name":"amount","type":"uint256","indexed":false,"internalType":"uint256"}],"anonymous":false},{"type":"event","name":"AssetsWithdrawn","inputs":[{"name":"genesisID","type":"uint256","indexed":true,"internalType":"uint256"},{"name":"to","type":"address","indexed":true,"internalType":"address"},{"name":"token","type":"address","indexed":false,"internalType":"address"},{"name":"amount","type":"uint256","indexed":false,"internalType":"uint256"}],"anonymous":false},{"type":"event","name":"GenesisCancelled","inputs":[{"name":"genesisID","type":"uint256","indexed":true,"internalType":"uint256"}],"anonymous":false},{"type":"event","name":"GenesisFailed","inputs":[{"name":"genesisID","type":"uint256","indexed":true,"internalType":"uint256"}],"anonymous":false},{"type":"event","name":"GenesisSucceeded","inputs":[{"name":"genesisID","type":"uint256","indexed":true,"internalType":"uint256"}],"anonymous":false},{"type":"event","name":"Initialized","inputs":[{"name":"version","type":"uint64","indexed":false,"internalType":"uint64"}],"anonymous":false},{"type":"event","name":"ParamsUpdated","inputs":[{"name":"oldReserveAmount","type":"uint256","indexed":false,"internalType":"uint256"},{"name":"newReserveAmount","type":"uint256","indexed":false,"internalType":"uint256"},{"name":"oldAgentTokenLpSupply","type":"uint256","indexed":false,"internalType":"uint256"},{"name":"newAgentTokenLpSupply","type":"uint256","indexed":false,"internalType":"uint256"}],"anonymous":false},{"type":"event","name":"Participated","inputs":[{"name":"genesisID","type":"uint256","indexed":true,"internalType":"uint256"},{"name":"user","type":"address","indexed":true,"internalType":"address"},{"name":"point","type":"uint256","indexed":false,"internalType":"uint256"},{"name":"virtuals","type":"uint256","indexed":false,"internalType":"uint256"}],"anonymous":false},{"type":"event","name":"RefundClaimed","inputs":[{"name":"genesisID","type":"uint256","indexed":true,"internalType":"uint256"},{"name":"user","type":"address","indexed":true,"internalType":"address"},{"name":"amount","type":"uint256","indexed":false,"internalType":"uint256"}],"anonymous":false},{"type":"event","name":"RoleAdminChanged","inputs":[{"name":"role","type":"bytes32","indexed":true,"internalType":"bytes32"},{"name":"previousAdminRole","type":"bytes32","indexed":true,"internalType":"bytes32"},{"name":"newAdminRole","type":"bytes32","indexed":true,"internalType":"bytes32"}],"anonymous":false},{"type":"event","name":"RoleGranted","inputs":[{"name":"role","type":"bytes32","indexed":true,"internalType":"bytes32"},{"name":"account","type":"address","indexed":true,"internalType":"address"},{"name":"sender","type":"address","indexed":true,"internalType":"address"}],"anonymous":false},{"type":"event","name":"RoleRevoked","inputs":[{"name":"role","type":"bytes32","indexed":true,"internalType":"bytes32"},{"name":"account","type":"address","indexed":true,"internalType":"address"},{"name":"sender","type":"address","indexed":true,"internalType":"address"}],"anonymous":false},{"type":"event","name":"TimeReset","inputs":[{"name":"oldStartTime","type":"uint256","indexed":false,"internalType":"uint256"},{"name":"oldEndTime","type":"uint256","indexed":false,"internalType":"uint256"},{"name":"newStartTime","type":"uint256","indexed":false,"internalType":"uint256"},{"name":"newEndTime","type":"uint256","indexed":false,"internalType":"uint256"}],"anonymous":false},{"type":"event","name":"VirtualsWithdrawn","inputs":[{"name":"genesisID","type":"uint256","indexed":true,"internalType":"uint256"},{"name":"to","type":"address","indexed":true,"internalType":"address"},{"name":"token","type":"address","indexed":false,"internalType":"address"},{"name":"amount","type":"uint256","indexed":false,"internalType":"uint256"}],"anonymous":false},{"type":"error","name":"AccessControlBadConfirmation","inputs":[]},{"type":"error","name":"AccessControlUnauthorizedAccount","inputs":[{"name":"account","type":"address","internalType":"address"},{"name":"neededRole","type":"bytes32","internalType":"bytes32"}]},{"type":"error","name":"AddressEmptyCode","inputs":[{"name":"target","type":"address","internalType":"address"}]},{"type":"error","name":"AddressInsufficientBalance","inputs":[{"name":"account","type":"address","internalType":"address"}]},{"type":"error","name":"FailedInnerCall","inputs":[]},{"type":"error","name":"InvalidInitialization","inputs":[]},{"type":"error","name":"NotInitializing","inputs":[]},{"type":"error","name":"ReentrancyGuardReentrantCall","inputs":[]},{"type":"error","name":"SafeERC20FailedOperation","inputs":[{"name":"token","type":"address","internalType":"address"}]}],"bytecode":{"object":"0x6080806040523460195760015f5561414d908161001e8239f35b5f80fdfe6080806040526004361015610012575f80fd5b5f3560e01c90816301ffc9a7146134295750806304a0fb17146133ef5780630bdec7af146133415780630c1cc6cf14613324578063129874aa14613088578063159a2f32146130505780631b54987114613033578063248a9ca31461300d5780632f2ff15d14612fdc5780633197cbb614612fbf57806335c1d34914612f7d57806336568abe14612f395780633a8670ea14612f1c5780634269036a14612eff5780634351af7814612ee25780634b09b72a14612ec55780634bc0410914612e9d578063544736e614612e7d578063582073aa14612e5557806369b01c3214612e3a5780636ac7c1a014612cfb57806378e9792514612cde5780637cefadd7146129465780637f21981614612b0557806385e11dfc14612ae857806386604cd514612a5257806387c91f2a1461297e5780639071aba11461294657806391d14854146128f1578063950034081461281d57806395ee1221146127f85780639c04b836146127d0578063a1949bcb14612785578063a217fddf1461276b578063a4fd6f561461274b578063a6c5809714612725578063ad60572914612708578063af29dea2146126e0578063b14f058b1461251d578063b1c9bdbb146117a5578063c45a01551461177d578063c7959e451461174a578063d547741f14611712578063e99e855a146116f5578063f4163340146116d0578063f783489114610c80578063fd8735a5146103945763fdd8ecc91461022c575f80fd5b34610390576020366003190112610390576004356001600160401b0381116103905761025c9036906004016136c4565b9061026682613972565b916102746040519384613559565b808352601f1961028382613972565b015f5b81811061036d575050600354915f5b8281106102f657846040518091602082016020835281518091526020604084019201905f5b8181106102c8575050500390f35b825180516001600160a01b0316855260209081015181860152869550604090940193909201916001016102ba565b8061030f856103086001948787613a0b565b3510613a1b565b61032361031d828686613a0b565b356134be565b838060a01b0391549060031b1c16805f528260205260405f20546040519161034a8361353e565b8252602082015261035b8288613989565b526103668187613989565b5001610295565b60209060405161037c8161353e565b5f81525f8382015282828801015201610286565b5f80fd5b34610390575f366003190112610390575f6102606040516103b481613522565b82815282602082015282604082015282606082015260606080820152606060a0820152606060c08201528260e08201528261010082015282610120820152826101408201528261016082015282610180820152826101a0820152826101c0820152826101e0820152826102008201528261022082015282610240820152015260055461048c60018060a01b0360065416916007549260085493600c5494600d54600e5460018060a01b03600f541660018060a01b036010541691601154936012549560135497601454996015549b6040519d8e613522565b8d5260208d015260408c015260608b01526104a561357a565b60808b01526104b261361e565b60a08b01526040519a8b6020600b549d8e8152019c600b5f525f805160206140b8833981519152905f915b81601f840110610add579d9e8f9060ff9f9461060891819560c09563ffffffff9a99985491818110610ac9575b818110610ab1575b818110610a99575b818110610a81575b818110610a6b575b818110610a53575b818110610a3b575b818110610a23575b818110610a0b575b8181106109f3575b8181106109db575b8181106109c3575b8181106109ab575b818110610993575b81811061097b575b818110610963575b81811061094b575b818110610933575b81811061091b575b818110610903575b8181106108eb575b8181106108d3575b8181106108bb575b8181106108a3575b81811061088d575b818110610875575b81811061085d575b818110610845575b81811061082d575b818110610815575b8181106107fd575b106107ef575b500384613559565b015260e08d015260018060a01b0381166101008d015260a01c166101208b01526101408a01526101608901526101808801526101a08701526101c08601526101e085015261020084015260018060a01b038116610220840152818160a01c16151561024084015260a81c161515610260820152604051602081528151602082015260018060a01b03602083015116604082015260408201516060820152606082015160808201526106e36106cd608084015161028060a08501526102a08401906136a0565b60a0840151838203601f190160c08501526136a0565b60c083015190601f198382030160e0840152602080835192838152019201905f5b8181106107d6575050506102608360e08495015161010085015260018060a01b036101008201511661012085015263ffffffff6101208201511661014085015261014081015161016085015260018060a01b036101608201511661018085015260018060a01b03610180820151166101a08501526101a08101516101c08501526101c08101516101e08501526101e081015161020085015261020081015161022085015260018060a01b0361022082015116610240850152610240810151151582850152015115156102808301520390f35b825160ff16845260209384019390920191600101610704565b60f81c81526020015f610600565b9260ff6001916020918560f01c1681520193016105fa565b9260ff6001916020918560e81c1681520193016105f2565b9260ff6001916020918560e01c1681520193016105ea565b9260ff6001916020918560d81c1681520193016105e2565b9260ff6001916020918560d01c1681520193016105da565b9260ff6001916020918560c81c1681520193016105d2565b82881c60ff1684526020909301926001016105ca565b9260ff6001916020918560b81c1681520193016105c2565b9260ff6001916020918560b01c1681520193016105ba565b9260ff6001916020918560a81c1681520193016105b2565b9260ff6001916020918560a01c1681520193016105aa565b9260ff6001916020918560981c1681520193016105a2565b9260ff6001916020918560901c16815201930161059a565b9260ff6001916020918560881c168152019301610592565b9260ff6001916020918560801c16815201930161058a565b9260ff6001916020918560781c168152019301610582565b9260ff6001916020918560701c16815201930161057a565b9260ff6001916020918560681c168152019301610572565b9260ff6001916020918560601c16815201930161056a565b9260ff6001916020918560581c168152019301610562565b9260ff6001916020918560501c16815201930161055a565b9260ff6001916020918560481c168152019301610552565b9260ff6001916020918560401c16815201930161054a565b9260ff6001916020918560381c168152019301610542565b9260ff6001916020918560301c16815201930161053a565b9260ff6001916020918560281c168152019301610532565b602083811c60ff1685529093019260010161052a565b9260ff6001916020918560181c168152019301610522565b9260ff6001916020918560101c16815201930161051a565b9260ff6001916020918560081c168152019301610512565b60ff8316845260209093019260010161050a565b9e8f5460ff811682528060081c60ff1660208301528060101c60ff1660408301528060181c60ff1660608301528060201c60ff1660808301528060281c60ff1660a08301528060301c60ff1660c08301528060381c60ff1660e08301528060401c60ff166101008301528060481c60ff166101208301528060501c60ff166101408301528060581c60ff166101608301528060601c60ff166101808301528060681c60ff166101a08301528060701c60ff166101c08301528060781c60ff166101e08301528060801c60ff166102008301528060881c60ff166102208301528060901c60ff166102408301528060981c60ff166102608301528060a01c60ff166102808301528060a81c60ff166102a08301528060b01c60ff166102c08301528060b81c60ff166102e08301528060c01c60ff166103008301528060c81c60ff166103208301528060d01c60ff166103408301528060d81c60ff166103608301528060e01c60ff166103808301528060e81c60ff166103a08301528060f01c60ff166103c083015260f81c6103e0820152610400019e60010191602001916104dd565b34610390576020366003190112610390576004356001600160401b0381116103905780600401906102206003198236030112610390575f805160206140f8833981519152549160ff8360401c1615926001600160401b038116801590816116c8575b60011490816116be575b1590816116b5575b506116a65767ffffffffffffffff1981166001175f805160206140f8833981519152558361167a575b5060ff5f805160206140f88339815191525460401c161561166b57803580156116315760248301906001600160a01b03610d5683613a5d565b16156115ec576044840135606485013591610d718383613ec6565b6084860190610d808287613a71565b9050156115b05760a48701610d958188613a71565b9050156115725760c48801610daa8189613aa3565b905015611535576101048901906001600160a01b03610dc883613a5d565b16156114e5576101648a01986001600160a01b03610de58b613a5d565b16156114a0576101848b01936001600160a01b03610e0286613a5d565b161561145b576101a48c013595610e1a8715156137ce565b6101c48d0135978815611406576101e48e01359a8b156113a9576102048f01359b9a610e8b93610e578e8e610e50821515613828565b1015613889565b6005556001600160a01b03610e6b8f613a5d565b166001600160601b0360a01b600654161760065560075560085583613a71565b906001600160401b0382116111da57610ea56009546134ea565b601f811161134b575b505f90601f83116001146112d757610ee59392915f91836112cc575b50508160011b915f199060031b1c1916176009555b82613a71565b906001600160401b0382116111da57610eff600a546134ea565b601f811161126e575b505f90601f83116001146111f957610f3e949392915f91836111ee575b50508160011b915f199060031b1c191617600a55613aa3565b906001600160401b0382116111da57600160401b82116111da57600b5482600b5580831061115b575b5090600b5f528060051c905f5b8281106111195750601f1981169003806110be575b50505060e4890135600c556001600160a01b0390610fa690613a5d565b1696600d54986101248101359063ffffffff82168203610390576110609a61105b9a6101449363ffffffff60a01b9060a01b16916001600160401b0360c01b161717600d550135600e5561100060018060a01b0391613a5d565b166001600160601b0360a01b600f541617600f5561102460018060a01b0391613a5d565b166001600160601b0360a01b601054161760105560115560125560135560145561105561105082613a5d565b613bcf565b50613a5d565b613c7e565b5061106757005b68ff0000000000000000195f805160206140f883398151915254165f805160206140f8833981519152557fc7f505b2f371ae2175ee4913f4499e1f2633a7b5936321eed1cdaeb6115181d2602060405160018152a1005b915f925f5b8181106110e5575050505f805160206140b883398151915201558a8080610f89565b909193602061110f600192846110fa89613aee565b919060ff809160031b9316831b921b19161790565b95019291016110c3565b5f805b6020811061113e57505f805160206140b8833981519152820155600101610f74565b94906020611152600192886110fa86613aee565b9201950161111c565b61119a90601f80850160051c91818616806111a0575b500160051c5f805160206140b883398151915201905f805160206140b883398151915201613ad8565b8c610f67565b7f0175b7a638427703f0dbe7bb9bbf987a2551717b34e79f33b5b1008d1fa01db88401908154905f199060200360031b1c1690555f611171565b634e487b7160e01b5f52604160045260245ffd5b013590508f80610f25565b601f19831691600a5f525f80516020614078833981519152925f5b8181106112565750916001939185610f3e989796941061123d575b505050811b01600a55613aa3565b01355f19600384901b60f8161c191690558f808061122f565b91936020600181928787013581550195019201611214565b6112b190600a5f52601f840160051c5f805160206140788339815191520190602085106112b7575b601f0160051c5f805160206140788339815191520190613ad8565b8e610f08565b5f805160206140788339815191529150611296565b013590505f80610eca565b601f1983169160095f525f80516020614098833981519152925f5b8181106113335750916001939185610ee59796941061131a575b505050811b01600955610edf565b01355f19600384901b60f8161c191690555f808061130c565b919360206001819287870135815501950192016112f2565b61138e9060095f52601f840160051c5f80516020614098833981519152019060208510611394575b601f0160051c5f805160206140988339815191520190613ad8565b8f610eae565b5f805160206140988339815191529150611373565b60405162461bcd60e51b815260206004820152602f60248201527f4167656e7420746f6b656e20746f74616c20737570706c79206d75737420626560448201526e02067726561746572207468616e203608c1b6064820152608490fd5b60405162461bcd60e51b815260206004820152602760248201527f4d617820636f6e747269627574696f6e206d75737420626520677265617465726044820152660207468616e20360cc1b6064820152608490fd5b60405162461bcd60e51b815260206004820152601d60248201527f496e76616c6964207669727475616c20746f6b656e20616464726573730000006044820152606490fd5b60405162461bcd60e51b815260206004820152601d60248201527f496e76616c6964206167656e7420666163746f727920616464726573730000006044820152606490fd5b60405162461bcd60e51b815260206004820152602260248201527f496e76616c69642054424120696d706c656d656e746174696f6e206164647265604482015261737360f01b6064820152608490fd5b60405162461bcd60e51b8152602060048201526015602482015274496e76616c69642067656e6573697320636f72657360581b6044820152606490fd5b60405162461bcd60e51b815260206004820152601660248201527524b73b30b634b21033b2b732b9b4b9903a34b1b5b2b960511b6044820152606490fd5b60405162461bcd60e51b8152602060048201526014602482015273496e76616c69642067656e65736973206e616d6560601b6044820152606490fd5b60405162461bcd60e51b815260206004820152601760248201527f496e76616c696420666163746f727920616464726573730000000000000000006044820152606490fd5b60405162461bcd60e51b8152602060048201526012602482015271125b9d985b1a590819d95b995cda5cc8125160721b6044820152606490fd5b631afcd79f60e31b5f5260045ffd5b68ffffffffffffffffff191668010000000000000001175f805160206140f88339815191525583610d1d565b63f92ee8a960e01b5f5260045ffd5b90501585610cf4565b303b159150610cec565b859150610ce2565b34610390575f36600319011261039057602060ff60155460a01c166040519015158152f35b34610390575f366003190112610390576020601354604051908152f35b34610390576040366003190112610390576117486004356117316134a8565b9061174361173e82613947565b613b6b565b613dee565b005b34610390575f3660031901126103905761177961176561361e565b6040519182916020835260208301906136a0565b0390f35b34610390575f366003190112610390576006546040516001600160a01b039091168152602090f35b346103905760c0366003190112610390576004356001600160401b038111610390576117d59036906004016136c4565b6024356001600160401b038111610390576117f49036906004016136c4565b91906044356001600160401b038111610390576118159036906004016136c4565b9290916064356001600160401b038111610390576118379036906004016136c4565b9690956084356001600160a01b0381169081900361039057611857613afc565b61185f613bb1565b60155461187a61186d6136f4565b60ff8360a81c161561372f565b61189160085442101561188b61399d565b9061372f565b6004546124d8575f805b84821061243a5750506001600160a01b031615611af2575b505f805b898110611ad257506015546040516370a0823160e01b815230600482015290602090829060249082906001600160a01b03165afa908115611ac7575f91611a95575b5010611a51575f5b8481106119925750505050505f5b828110611957576020600554604051907f6d06bb775ac05411c90dc9e1c4bd9a325534cd1f73e434866aea631283294ab25f80a260155460015f556001600160a01b03168152f35b806119656001928787613a0b565b35828060a01b0361197f61197a848888613a0b565b613a5d565b165f52600260205260405f20550161190f565b806119a06001928487613a0b565b35828060a01b036119b561197a848a89613a0b565b165f52826020526119cb60405f20918254613965565b90556119fa828060a01b03601054166119e861197a848a89613a0b565b6119f384878a613a0b565b3591613e8a565b600554611a0b61197a838988613a0b565b907ff3f402280ef0a7905e124aa621b65eaeb2725c343e8b36d398ed78c29daf285c6020611a3a85888b613a0b565b3593604051948552868060a01b031693a301611901565b606460405162461bcd60e51b815260206004820152602060248201527f496e73756666696369656e74204167656e7420546f6b656e2062616c616e63656044820152fd5b90506020813d602011611abf575b81611ab060209383613559565b8101031261039057518a6118f9565b3d9150611aa3565b6040513d5f823e3d90fd5b90611aeb600191611ae4848d8d613a0b565b359061393a565b91016118b7565b601054600f5460115460405163095ea7b360e01b81526001600160a01b039283166004820152602481019190915291602091839160449183915f91165af18015611ac75761240d575b5060018060a01b03600f541660405191825f600954611b59816134ea565b90600181169081156123e9575060011461239d575b50611b9791816b206279205669727475616c7360a01b600c935203601319810186520184613559565b600c5490600d54600e5460115491611bc960405197631fd16d3f60e11b895261012060048a01526101248901906136a0565b878103600319016024890152600a545f9691611be4826134ea565b808252916001811690811561237c5750600114612337575b5050878603600319016044890152600b80548088525f9182528997602001969594939291905f805160206140b88339815191525b81601f84011061218557938997935f979389979360209d9b975491818110612173575b81811061215d575b818110612147575b818110612131575b81811061211d575b818110612107575b8181106120f1575b8181106120db575b8181106120c5575b8181106120af575b818110612099575b818110612083575b81811061206d575b818110612057575b818110612041575b81811061202b575b818110612015575b818110611fff575b818110611fe9575b818110611fd3575b818110611fbd575b818110611fa7575b818110611f91575b818110611f7b575b818110611f65575b818110611f4f575b818110611f39575b818110611f23575b818110611f0d575b818110611ef7575b818110611ee1575b10611ece575b5060648701526001600160a01b038116608487015260a01c63ffffffff1660a486015260c485015260e484015261010483015203925af1908115611ac7575f91611e9c575b50600f5460135460145460405163d2f5855960e01b815260048101949094526024840191909152604483015230606483015260a48035608484015260209183919082905f906001600160a01b03165af1908115611ac7575f91611e5a575b506001600160a01b03168015611e15576001600160601b0360a01b6015541617601555886118b3565b60405162461bcd60e51b815260206004820152601b60248201527f4167656e7420746f6b656e206372656174696f6e206661696c656400000000006044820152606490fd5b90506020813d602011611e94575b81611e7560209383613559565b8101031261039057516001600160a01b03811681036103905789611dec565b3d9150611e68565b90506020813d602011611ec6575b81611eb760209383613559565b81010312610390575189611d8e565b3d9150611eaa565b60f81c8652948b019463ffffffff611d49565b978e60019160ff8560f01c168152019801611d43565b978e60019160ff8560e81c168152019801611d3b565b978e60019160ff8560e01c168152019801611d33565b978e60019160ff8560d81c168152019801611d2b565b978e60019160ff8560d01c168152019801611d23565b978e60019160ff8560c81c168152019801611d1b565b978e60019160ff8560c01c168152019801611d13565b978e60019160ff8560b81c168152019801611d0b565b978e60019160ff8560b01c168152019801611d03565b978e60019160ff8560a81c168152019801611cfb565b978e60019160ff8560a01c168152019801611cf3565b978e60019160ff8560981c168152019801611ceb565b978e60019160ff8560901c168152019801611ce3565b978e60019160ff8560881c168152019801611cdb565b978e60019160ff8560801c168152019801611cd3565b978e60019160ff8560781c168152019801611ccb565b978e60019160ff8560701c168152019801611cc3565b978e60019160ff8560681c168152019801611cbb565b978e60019160ff8560601c168152019801611cb3565b978e60019160ff8560581c168152019801611cab565b978e60019160ff8560501c168152019801611ca3565b978e60019160ff8560481c168152019801611c9b565b978e60019160ff8560401c168152019801611c93565b978e60019160ff8560381c168152019801611c8b565b978e60019160ff8560301c168152019801611c83565b978e60019160ff8560281c168152019801611c7b565b828f1c60ff168952978e0197600101611c73565b978e60019160ff8560181c168152019801611c6b565b978e60019160ff8560101c168152019801611c63565b978e60019160ff8560081c168152019801611c5b565b60ff83168952978e0197600101611c53565b98509091929394959660016104006020928b5460ff8116825260ff8160081c168583015260ff8160101c16604083015260ff8160181c16606083015260ff81861c16608083015260ff8160281c1660a083015260ff8160301c1660c083015260ff8160381c1660e083015260ff8160401c1661010083015260ff8160481c1661012083015260ff8160501c1661014083015260ff8160581c1661016083015260ff8160601c1661018083015260ff8160681c166101a083015260ff8160701c166101c083015260ff8160781c166101e083015260ff8160801c1661020083015260ff8160881c1661022083015260ff8160901c1661024083015260ff8160981c1661026083015260ff8160a01c1661028083015260ff8160a81c166102a083015260ff8160b01c166102c083015260ff8160b81c166102e083015260ff8160c01c1661030083015260ff8160c81c1661032083015260ff8160d01c1661034083015260ff8160d81c1661036083015260ff8160e01c1661038083015260ff8160e81c166103a083015260ff8160f01c166103c083015260f81c6103e08201520199019201908a98979695949392611c30565b919650905f905f805160206140788339815191525b8383106123625750602092500101945f80611bfc565b60018160209294939454838587010152019101919061234c565b9050602093985060ff929192191683830152151560051b0101945f80611bfc565b91505060095f52835f805160206140988339815191525f905b8382106123cf5750909182016020019050611b97611b6e565b6020919250806001915483858a01015201910185916123b6565b60ff191660208581019190915282151590920284019091019150611b979050611b6e565b61242e9060203d602011612433575b6124268183613559565b810190613f57565b611b3b565b503d61241c565b6001600160a01b0361245061197a848b8a613a0b565b165f52600160205260405f205461246883878a613a0b565b35116124875761247f600191611ae484888b613a0b565b91019061189b565b60405162461bcd60e51b8152602060048201526024808201527f496e73756666696369656e74205669727475616c20546f6b656e20636f6d6d696044820152631d1d195960e21b6064820152608490fd5b60405162461bcd60e51b815260206004820152601e60248201527f4f6e47656e657369734661696c656420616c72656164792063616c6c656400006044820152606490fd5b34610390576020366003190112610390576004356001600160401b0381116103905761254d9036906004016136c4565b90612556613afc565b61255e613bb1565b61259f60155461256f61186d6136f4565b61258761257a61375f565b60ff8360a01c161561372f565b61258f613793565b906001600160a01b03161561372f565b6125b060085442101561188b61399d565b5f5b82811061260a57600454600354146125cb575b60015f55005b6015805460ff60a01b1916600160a01b1790556005547f27e87ae1639d912017e23d0f562036b9a6f7febb9c4f2c69edbd9a58b903fb7f5f80a26125c5565b612622612618828585613a0b565b3560035411613a1b565b61263061031d828585613a0b565b905460039190911b1c6001600160a01b03165f81815260016020526040902054919082612663575b5060019150016125b2565b600454925f1984146126cc576001809401600455815f52836020525f60408120556126988183868060a01b0360105416613e8a565b7ff3f402280ef0a7905e124aa621b65eaeb2725c343e8b36d398ed78c29daf285c602060055492604051908152a384612658565b634e487b7160e01b5f52601160045260245ffd5b34610390575f366003190112610390576015546040516001600160a01b039091168152602090f35b34610390575f366003190112610390576020600354604051908152f35b34610390575f36600319011261039057602063ffffffff600d5460a01c16604051908152f35b34610390575f366003190112610390576020600854421015604051908152f35b34610390575f3660031901126103905760206040515f8152f35b3461039057602036600319011261039057600435600b5481101561039057602090600b5f5260ff8160051c5f805160206140b8833981519152015460f86040519360031b161c168152f35b34610390575f36600319011261039057600d546040516001600160a01b039091168152602090f35b34610390575f36600319011261039057602060ff60155460a81c166040519015158152f35b3461039057602036600319011261039057612836613492565b61283e613bb1565b6001600160a01b0381165f81815260026020526040902054909181156128b7575f838152600260205260408120556015546128839183916001600160a01b0316613e8a565b7f5e38aeed1c1b58c3e2f08b92abfb82cb1d6cb83af72f3dd46a419e4ce856bf37602060055492604051908152a360015f55005b60405162461bcd60e51b81526020600482015260126024820152714e6f20746f6b656e7320746f20636c61696d60701b6044820152606490fd5b346103905760403660031901126103905761290a6134a8565b6004355f525f805160206140d883398151915260205260405f209060018060a01b03165f52602052602060ff60405f2054166040519015158152f35b34610390576020366003190112610390576001600160a01b03612967613492565b165f526002602052602060405f2054604051908152f35b34610390577f29d6ce89701d2d2e06675ce74585fa05425950a176b2de69b63ef83af8490eb96129ad3661347c565b6129b5613afc565b6129bd613bb1565b6129e36015546129ce61186d6136f4565b60ff6129d861375f565b9160a01c161561372f565b612a49600754916129fd6129f56139d0565b84421061372f565b60085493612a14612a0c613907565b86421061372f565b612a1e8282613ec6565b8060075581600855604051948594859094939260609260808301968352602083015260408201520152565b0390a160015f55005b34610390575f36600319011261039057612a6a613afc565b612a72613bb1565b601554612a8061186d6136f4565b612a8b61257a61375f565b612a9b600754421061188b6139d0565b612aab600854421061188b613907565b60ff60a81b1916600160a81b176015556005547fb68635d18159b99d3170ed410d81fc4347634708773fa694e12e534b96f1cefc5f80a260015f55005b34610390575f366003190112610390576020600554604051908152f35b3461039057606036600319011261039057612b1e613492565b612b266134a8565b335f9081527fb7db2dd08fcb62d0c9e08c51941cae53c267786a0b75803fb7960902fc8ef97d60205260409020549091906044359060ff1615612cc757612b6b613bb1565b612b7c60085442101561188b61399d565b6001600160a01b038316908115612c8a576040516370a0823160e01b8152306004820152602081602481865afa908115611ac7575f91612c58575b508111612c1457612bea81847f46136dc7988f307b7670342abc113edcd66636183537de2ca7776cedd89ba4e594613e8a565b600554604080516001600160a01b039687168152602081019390935293909416939290a360015f55005b606460405162461bcd60e51b815260206004820152602060248201527f496e73756666696369656e742062616c616e636520746f2077697468647261776044820152fd5b90506020813d602011612c82575b81612c7360209383613559565b81010312610390575185612bb7565b3d9150612c66565b60405162461bcd60e51b8152602060048201526015602482015274496e76616c696420746f6b656e206164647265737360581b6044820152606490fd5b63e2517d3f60e01b5f52336004525f60245260445ffd5b34610390575f366003190112610390576020600754604051908152f35b3461039057612d093661347c565b9060035480821015612df55780612d20848461393a565b11612de1575b50612d3082613972565b91612d3e6040519384613559565b808352612d4a81613972565b602084019290601f19013684375f5b828110612dad578385604051918291602083019060208452518091526040830191905f5b818110612d8b575050500390f35b82516001600160a01b0316845285945060209384019390920191600101612d7d565b80612dc2612dbd6001938561393a565b6134be565b838060a01b0391549060031b1c16612dda8288613989565b5201612d59565b81925090612dee91613965565b9082612d26565b60405162461bcd60e51b815260206004820152601960248201527f537461727420696e646578206f7574206f6620626f756e6473000000000000006044820152606490fd5b34610390575f3660031901126103905761177961176561357a565b34610390575f366003190112610390576010546040516001600160a01b039091168152602090f35b34610390575f366003190112610390576020600754421015604051908152f35b34610390575f36600319011261039057600f546040516001600160a01b039091168152602090f35b34610390575f366003190112610390576020601154604051908152f35b34610390575f366003190112610390576020600e54604051908152f35b34610390575f366003190112610390576020601454604051908152f35b34610390575f366003190112610390576020600454604051908152f35b3461039057604036600319011261039057612f526134a8565b336001600160a01b03821603612f6e5761174890600435613dee565b63334bd91960e11b5f5260045ffd5b346103905760203660031901126103905760043560035481101561039057612fa66020916134be565b905460405160039290921b1c6001600160a01b03168152f35b34610390575f366003190112610390576020600854604051908152f35b3461039057604036600319011261039057611748600435612ffb6134a8565b9061300861173e82613947565b613d4a565b3461039057602036600319011261039057602061302b600435613947565b604051908152f35b34610390575f366003190112610390576020600c54604051908152f35b34610390576020366003190112610390576001600160a01b03613071613492565b165f526001602052602060405f2054604051908152f35b34610390576130963661347c565b61309e613bb1565b6007544210156130e66040918251906130b78483613559565b601782527f47656e65736973206e6f74207374617274656420796574000000000000000000602083015261372f565b6130f6600854421061188b613907565b61311c60155461310761257a61375f565b60ff6131116136f4565b9160a81c161561372f565b82156132d557811561329257601254821161323d57335f526001602052805f2054156131d9575b7f20fe128b25ee6824800a2ffce0bbace6ba602f124f276eeaaacd7a3967ab223f90335f526001602052805f2061317b84825461393a565b905560105481516323b872dd60e01b6020820152336024820152306044820152606480820186905281526131c2916001600160a01b03166131bd608483613559565b613f6f565b60055492815194855260208501523393a360015f55005b60035490600160401b8210156111da5761321a8260017f20fe128b25ee6824800a2ffce0bbace6ba602f124f276eeaaacd7a3967ab223f94016003556134be565b81546001600160a01b0360039290921b91821b19163390911b1790559050613143565b5162461bcd60e51b815260206004820152602960248201527f45786365656473206d6178696d756d207669727475616c732070657220636f6e6044820152683a3934b13aba34b7b760b91b6064820152608490fd5b5162461bcd60e51b815260206004820152601f60248201527f5669727475616c73206d7573742062652067726561746572207468616e2030006044820152606490fd5b5162461bcd60e51b815260206004820152602360248201527f506f696e7420616d6f756e74206d75737420626520677265617465722074686160448201526206e20360ec1b6064820152608490fd5b34610390575f366003190112610390576020601254604051908152f35b346103905760403660031901126103905761335a613afc565b613362613bb1565b61337360155461256f61186d6136f4565b7f12a7025c39c132ef283c80c5db2fc1a564c96bf8fc3ca7af8e3cd63842c3a3496004356133a28115156137ce565b6024356133b0811515613828565b6133be816013541015613889565b6011805460148054928590558390556040805191825260208201949094529283015260608201528060808101612a49565b34610390575f3660031901126103905760206040517fdfbefbf47cfe66b701d8cfdbce1de81c821590819cb07e71cb01b6602fb0ee278152f35b34610390576020366003190112610390576004359063ffffffff60e01b821680920361039057602091637965db0b60e01b811490811561346b575b5015158152f35b6301ffc9a760e01b14905083613464565b6040906003190112610390576004359060243590565b600435906001600160a01b038216820361039057565b602435906001600160a01b038216820361039057565b6003548110156134d65760035f5260205f2001905f90565b634e487b7160e01b5f52603260045260245ffd5b90600182811c92168015613518575b602083101461350457565b634e487b7160e01b5f52602260045260245ffd5b91607f16916134f9565b61028081019081106001600160401b038211176111da57604052565b604081019081106001600160401b038211176111da57604052565b90601f801991011681019081106001600160401b038211176111da57604052565b604051905f826009549161358d836134ea565b80835292600181169081156135ff57506001146135b3575b6135b192500383613559565b565b5060095f90815290915f805160206140988339815191525b8183106135e35750509060206135b1928201016135a5565b60209193508060019154838589010152019101909184926135cb565b602092506135b194915060ff191682840152151560051b8201016135a5565b604051905f82600a5491613631836134ea565b80835292600181169081156135ff5750600114613654576135b192500383613559565b50600a5f90815290915f805160206140788339815191525b8183106136845750509060206135b1928201016135a5565b602091935080600191548385890101520191019091849261366c565b805180835260209291819084018484015e5f828201840152601f01601f1916010190565b9181601f84011215610390578235916001600160401b038311610390576020808501948460051b01011161039057565b60405190613703604083613559565b601982527f47656e6573697320616c72656164792063616e63656c6c6564000000000000006020830152565b156137375750565b60405162461bcd60e51b81526020600482015290819061375b9060248301906136a0565b0390fd5b6040519061376e604083613559565b601682527511d95b995cda5cc8185b1c9958591e4819985a5b195960521b6020830152565b604051906137a2604083613559565b601c82527f4167656e7420746f6b656e20616c7265616479206c61756e63686564000000006020830152565b156137d557565b60405162461bcd60e51b815260206004820152602560248201527f5265736572766520616d6f756e74206d75737420626520677265617465722074604482015264068616e20360dc1b6064820152608490fd5b1561382f57565b60405162461bcd60e51b815260206004820152602c60248201527f4167656e7420746f6b656e206c7020737570706c79206d75737420626520677260448201526b06561746572207468616e20360a41b6064820152608490fd5b1561389057565b60405162461bcd60e51b815260206004820152604360248201527f4167656e7420746f6b656e20746f74616c20737570706c79206d75737420626560448201527f2067726561746572207468616e206167656e7420746f6b656e206c7020737570606482015262706c7960e81b608482015260a490fd5b60405190613916604083613559565b601582527411d95b995cda5cc8185b1c9958591e48195b991959605a1b6020830152565b919082018092116126cc57565b5f525f805160206140d8833981519152602052600160405f20015490565b919082039182116126cc57565b6001600160401b0381116111da5760051b60200190565b80518210156134d65760209160051b010190565b604051906139ac604083613559565b601582527411d95b995cda5cc81b9bdd08195b991959081e595d605a1b6020830152565b604051906139df604083613559565b601782527f47656e6573697320616c726561647920737461727465640000000000000000006020830152565b91908110156134d65760051b0190565b15613a2257565b60405162461bcd60e51b8152602060048201526013602482015272496e646578206f7574206f6620626f756e647360681b6044820152606490fd5b356001600160a01b03811681036103905790565b903590601e198136030182121561039057018035906001600160401b0382116103905760200191813603831361039057565b903590601e198136030182121561039057018035906001600160401b03821161039057602001918160051b3603831361039057565b818110613ae3575050565b5f8155600101613ad8565b3560ff811681036103905790565b335f9081527fae397ad4942fd55c39428db5ea3ac85cc8592b20d92437b6ec53a8b6ff39d42d602052604090205460ff1615613b3457565b63e2517d3f60e01b5f52336004527fdfbefbf47cfe66b701d8cfdbce1de81c821590819cb07e71cb01b6602fb0ee2760245260445ffd5b5f8181525f805160206140d88339815191526020908152604080832033845290915290205460ff1615613b9b5750565b63e2517d3f60e01b5f523360045260245260445ffd5b60025f5414613bc05760025f55565b633ee5aeb560e01b5f5260045ffd5b6001600160a01b0381165f9081527fb7db2dd08fcb62d0c9e08c51941cae53c267786a0b75803fb7960902fc8ef97d602052604090205460ff16613c79576001600160a01b03165f8181527fb7db2dd08fcb62d0c9e08c51941cae53c267786a0b75803fb7960902fc8ef97d60205260408120805460ff191660011790553391907f2f8788117e7eff1d82e926ec794901d17c78024a50270940304540a733656f0d8180a4600190565b505f90565b6001600160a01b0381165f9081527fae397ad4942fd55c39428db5ea3ac85cc8592b20d92437b6ec53a8b6ff39d42d602052604090205460ff16613c79576001600160a01b03165f8181527fae397ad4942fd55c39428db5ea3ac85cc8592b20d92437b6ec53a8b6ff39d42d60205260408120805460ff191660011790553391907fdfbefbf47cfe66b701d8cfdbce1de81c821590819cb07e71cb01b6602fb0ee27907f2f8788117e7eff1d82e926ec794901d17c78024a50270940304540a733656f0d9080a4600190565b5f8181525f805160206140d8833981519152602090815260408083206001600160a01b038616845290915290205460ff16613de8575f8181525f805160206140d8833981519152602090815260408083206001600160a01b0395909516808452949091528120805460ff19166001179055339291907f2f8788117e7eff1d82e926ec794901d17c78024a50270940304540a733656f0d9080a4600190565b50505f90565b5f8181525f805160206140d8833981519152602090815260408083206001600160a01b038616845290915290205460ff1615613de8575f8181525f805160206140d8833981519152602090815260408083206001600160a01b0395909516808452949091528120805460ff19169055339291907ff6391f5c32d9c69d2a47ea670b442974b53935d1edc7fd64eb21e047a839171b9080a4600190565b60405163a9059cbb60e01b60208201526001600160a01b039290921660248301526044808301939093529181526135b1916131bd606483613559565b906135b191613f0e604051613edc604082613559565b602081527f53746172742074696d65206d75737420626520696e2074686520667574757265602082015242831161372f565b60405191613f1d606084613559565b602183527f456e642074696d65206d7573742062652061667465722073746172742074696d6020840152606560f81b60408401521161372f565b90816020910312610390575180151581036103905790565b81516001600160a01b03909116915f91829160200182855af13d1561400d573d6001600160401b0381116111da57604051613fca929091613fba601f8201601f191660200184613559565b82523d5f602084013e5b83614019565b8051908115159182613ff2575b5050613fe05750565b635274afe760e01b5f5260045260245ffd5b6140059250602080918301019101613f57565b155f80613fd7565b613fca90606090613fc4565b9061403d575080511561402e57805190602001fd5b630a12f52160e11b5f5260045ffd5b8151158061406e575b61404e575090565b639996b31560e01b5f9081526001600160a01b0391909116600452602490fd5b50803b1561404656fec65a7bb8d6351c1cf70c95a316cc6a92839c986682d98bc35f958f4883f9d2a86e1540171b6c0c960b71a7020d9f60077f6af931a8bbf590da0223dacf75c7af0175b7a638427703f0dbe7bb9bbf987a2551717b34e79f33b5b1008d1fa01db902dd7bc7dec4dceedda775e58dd541e08a116c6c53815c0bd028192f7b626800f0c57e16840df040f15088dc2f81fe391c3923bec73e23a9662efc9c229c6a00a2646970667358221220940adc3e169c9e0c81724968789d289ea461e3a917f130ba643e60021693c6ab64736f6c634300081a0033","linkReferences":{}},"methodIdentifiers":{"DEFAULT_ADMIN_ROLE()":"a217fddf","FACTORY_ROLE()":"04a0fb17","agentFactoryAddress()":"4bc04109","agentTokenAddress()":"af29dea2","agentTokenLpSupply()":"4269036a","agentTokenTotalSupply()":"e99e855a","cancelGenesis()":"86604cd5","claimAgentToken(address)":"95003408","claimableAgentTokens(address)":"7cefadd7","daoThreshold()":"4351af78","daoVotingPeriod()":"a6c58097","endTime()":"3197cbb6","factory()":"c45a0155","genesisCores(uint256)":"a1949bcb","genesisId()":"85e11dfc","genesisName()":"69b01c32","genesisTicker()":"c7959e45","getClaimableAgentToken(address)":"9071aba1","getGenesisInfo()":"fd8735a5","getParticipantCount()":"ad605729","getParticipantsInfo(uint256[])":"fdd8ecc9","getParticipantsPaginated(uint256,uint256)":"6ac7c1a0","getRoleAdmin(bytes32)":"248a9ca3","grantRole(bytes32,address)":"2f2ff15d","hasRole(bytes32,address)":"91d14854","initialize((uint256,address,uint256,uint256,string,string,uint8[],bytes32,address,uint32,uint256,address,address,uint256,uint256,uint256,uint256))":"f7834891","isCancelled()":"95ee1221","isEnded()":"a4fd6f56","isFailed()":"f4163340","isStarted()":"544736e6","mapAddrToVirtuals(address)":"159a2f32","maxContributionVirtualAmount()":"0c1cc6cf","onGenesisFailed(uint256[])":"b14f058b","onGenesisSuccessSalt(address[],uint256[],address[],uint256[],address,bytes32)":"b1c9bdbb","participants(uint256)":"35c1d349","participate(uint256,uint256)":"129874aa","refundUserCountForFailed()":"3a8670ea","renounceRole(bytes32,address)":"36568abe","reserveAmount()":"4b09b72a","resetTime(uint256,uint256)":"87c91f2a","revokeRole(bytes32,address)":"d547741f","setParams((uint256,uint256))":"0bdec7af","startTime()":"78e97925","supportsInterface(bytes4)":"01ffc9a7","tbaImplementation()":"9c04b836","tbaSalt()":"1b549871","virtualTokenAddress()":"582073aa","withdrawLeftAssetsAfterFinalized(address,address,uint256)":"7f219816"},"id":28}