{"abi":[{"type":"constructor","inputs":[],"stateMutability":"nonpayable"},{"type":"function","name":"approve","inputs":[{"name":"to","type":"address","internalType":"address"},{"name":"tokenId","type":"uint256","internalType":"uint256"}],"outputs":[],"stateMutability":"nonpayable"},{"type":"function","name":"balanceOf","inputs":[{"name":"owner","type":"address","internalType":"address"}],"outputs":[{"name":"","type":"uint256","internalType":"uint256"}],"stateMutability":"view"},{"type":"function","name":"getAdmin","inputs":[],"outputs":[{"name":"","type":"address","internalType":"address"}],"stateMutability":"view"},{"type":"function","name":"getAgentDAO","inputs":[{"name":"virtualId","type":"uint256","internalType":"uint256"}],"outputs":[{"name":"","type":"address","internalType":"contract IGovernor"}],"stateMutability":"view"},{"type":"function","name":"getApproved","inputs":[{"name":"tokenId","type":"uint256","internalType":"uint256"}],"outputs":[{"name":"","type":"address","internalType":"address"}],"stateMutability":"view"},{"type":"function","name":"getChildren","inputs":[{"name":"tokenId","type":"uint256","internalType":"uint256"}],"outputs":[{"name":"","type":"uint256[]","internalType":"uint256[]"}],"stateMutability":"view"},{"type":"function","name":"getCore","inputs":[{"name":"tokenId","type":"uint256","internalType":"uint256"}],"outputs":[{"name":"","type":"uint8","internalType":"uint8"}],"stateMutability":"view"},{"type":"function","name":"getDatasetId","inputs":[{"name":"tokenId","type":"uint256","internalType":"uint256"}],"outputs":[{"name":"","type":"uint256","internalType":"uint256"}],"stateMutability":"view"},{"type":"function","name":"getEloCalculator","inputs":[],"outputs":[{"name":"","type":"address","internalType":"address"}],"stateMutability":"view"},{"type":"function","name":"getParentId","inputs":[{"name":"tokenId","type":"uint256","internalType":"uint256"}],"outputs":[{"name":"","type":"uint256","internalType":"uint256"}],"stateMutability":"view"},{"type":"function","name":"initialize","inputs":[{"name":"thePersonaAddress","type":"address","internalType":"address"}],"outputs":[],"stateMutability":"nonpayable"},{"type":"function","name":"isAccepted","inputs":[{"name":"tokenId","type":"uint256","internalType":"uint256"}],"outputs":[{"name":"","type":"bool","internalType":"bool"}],"stateMutability":"view"},{"type":"function","name":"isApprovedForAll","inputs":[{"name":"owner","type":"address","internalType":"address"},{"name":"operator","type":"address","internalType":"address"}],"outputs":[{"name":"","type":"bool","internalType":"bool"}],"stateMutability":"view"},{"type":"function","name":"isModel","inputs":[{"name":"tokenId","type":"uint256","internalType":"uint256"}],"outputs":[{"name":"","type":"bool","internalType":"bool"}],"stateMutability":"view"},{"type":"function","name":"mint","inputs":[{"name":"to","type":"address","internalType":"address"},{"name":"virtualId","type":"uint256","internalType":"uint256"},{"name":"coreId","type":"uint8","internalType":"uint8"},{"name":"newTokenURI","type":"string","internalType":"string"},{"name":"proposalId","type":"uint256","internalType":"uint256"},{"name":"parentId","type":"uint256","internalType":"uint256"},{"name":"isModel_","type":"bool","internalType":"bool"},{"name":"datasetId","type":"uint256","internalType":"uint256"}],"outputs":[{"name":"","type":"uint256","internalType":"uint256"}],"stateMutability":"nonpayable"},{"type":"function","name":"modelContributions","inputs":[{"name":"","type":"uint256","internalType":"uint256"}],"outputs":[{"name":"","type":"bool","internalType":"bool"}],"stateMutability":"view"},{"type":"function","name":"modelDatasets","inputs":[{"name":"","type":"uint256","internalType":"uint256"}],"outputs":[{"name":"","type":"uint256","internalType":"uint256"}],"stateMutability":"view"},{"type":"function","name":"name","inputs":[],"outputs":[{"name":"","type":"string","internalType":"string"}],"stateMutability":"view"},{"type":"function","name":"ownerOf","inputs":[{"name":"tokenId","type":"uint256","internalType":"uint256"}],"outputs":[{"name":"","type":"address","internalType":"address"}],"stateMutability":"view"},{"type":"function","name":"personaNft","inputs":[],"outputs":[{"name":"","type":"address","internalType":"address"}],"stateMutability":"view"},{"type":"function","name":"safeTransferFrom","inputs":[{"name":"from","type":"address","internalType":"address"},{"name":"to","type":"address","internalType":"address"},{"name":"tokenId","type":"uint256","internalType":"uint256"}],"outputs":[],"stateMutability":"nonpayable"},{"type":"function","name":"safeTransferFrom","inputs":[{"name":"from","type":"address","internalType":"address"},{"name":"to","type":"address","internalType":"address"},{"name":"tokenId","type":"uint256","internalType":"uint256"},{"name":"data","type":"bytes","internalType":"bytes"}],"outputs":[],"stateMutability":"nonpayable"},{"type":"function","name":"setAdmin","inputs":[{"name":"newAdmin","type":"address","internalType":"address"}],"outputs":[],"stateMutability":"nonpayable"},{"type":"function","name":"setApprovalForAll","inputs":[{"name":"operator","type":"address","internalType":"address"},{"name":"approved","type":"bool","internalType":"bool"}],"outputs":[],"stateMutability":"nonpayable"},{"type":"function","name":"setEloCalculator","inputs":[{"name":"eloCalculator_","type":"address","internalType":"address"}],"outputs":[],"stateMutability":"nonpayable"},{"type":"function","name":"supportsInterface","inputs":[{"name":"interfaceId","type":"bytes4","internalType":"bytes4"}],"outputs":[{"name":"","type":"bool","internalType":"bool"}],"stateMutability":"view"},{"type":"function","name":"symbol","inputs":[],"outputs":[{"name":"","type":"string","internalType":"string"}],"stateMutability":"view"},{"type":"function","name":"tokenByIndex","inputs":[{"name":"index","type":"uint256","internalType":"uint256"}],"outputs":[{"name":"","type":"uint256","internalType":"uint256"}],"stateMutability":"view"},{"type":"function","name":"tokenOfOwnerByIndex","inputs":[{"name":"owner","type":"address","internalType":"address"},{"name":"index","type":"uint256","internalType":"uint256"}],"outputs":[{"name":"","type":"uint256","internalType":"uint256"}],"stateMutability":"view"},{"type":"function","name":"tokenURI","inputs":[{"name":"tokenId","type":"uint256","internalType":"uint256"}],"outputs":[{"name":"","type":"string","internalType":"string"}],"stateMutability":"view"},{"type":"function","name":"tokenVirtualId","inputs":[{"name":"tokenId","type":"uint256","internalType":"uint256"}],"outputs":[{"name":"","type":"uint256","internalType":"uint256"}],"stateMutability":"view"},{"type":"function","name":"totalSupply","inputs":[],"outputs":[{"name":"","type":"uint256","internalType":"uint256"}],"stateMutability":"view"},{"type":"function","name":"transferFrom","inputs":[{"name":"from","type":"address","internalType":"address"},{"name":"to","type":"address","internalType":"address"},{"name":"tokenId","type":"uint256","internalType":"uint256"}],"outputs":[],"stateMutability":"nonpayable"},{"type":"event","name":"Approval","inputs":[{"name":"owner","type":"address","indexed":true,"internalType":"address"},{"name":"approved","type":"address","indexed":true,"internalType":"address"},{"name":"tokenId","type":"uint256","indexed":true,"internalType":"uint256"}],"anonymous":false},{"type":"event","name":"ApprovalForAll","inputs":[{"name":"owner","type":"address","indexed":true,"internalType":"address"},{"name":"operator","type":"address","indexed":true,"internalType":"address"},{"name":"approved","type":"bool","indexed":false,"internalType":"bool"}],"anonymous":false},{"type":"event","name":"BatchMetadataUpdate","inputs":[{"name":"_fromTokenId","type":"uint256","indexed":false,"internalType":"uint256"},{"name":"_toTokenId","type":"uint256","indexed":false,"internalType":"uint256"}],"anonymous":false},{"type":"event","name":"Initialized","inputs":[{"name":"version","type":"uint64","indexed":false,"internalType":"uint64"}],"anonymous":false},{"type":"event","name":"MetadataUpdate","inputs":[{"name":"_tokenId","type":"uint256","indexed":false,"internalType":"uint256"}],"anonymous":false},{"type":"event","name":"NewContribution","inputs":[{"name":"tokenId","type":"uint256","indexed":false,"internalType":"uint256"},{"name":"virtualId","type":"uint256","indexed":false,"internalType":"uint256"},{"name":"parentId","type":"uint256","indexed":false,"internalType":"uint256"},{"name":"datasetId","type":"uint256","indexed":false,"internalType":"uint256"}],"anonymous":false},{"type":"event","name":"Transfer","inputs":[{"name":"from","type":"address","indexed":true,"internalType":"address"},{"name":"to","type":"address","indexed":true,"internalType":"address"},{"name":"tokenId","type":"uint256","indexed":true,"internalType":"uint256"}],"anonymous":false},{"type":"error","name":"ERC721EnumerableForbiddenBatchMint","inputs":[]},{"type":"error","name":"ERC721IncorrectOwner","inputs":[{"name":"sender","type":"address","internalType":"address"},{"name":"tokenId","type":"uint256","internalType":"uint256"},{"name":"owner","type":"address","internalType":"address"}]},{"type":"error","name":"ERC721InsufficientApproval","inputs":[{"name":"operator","type":"address","internalType":"address"},{"name":"tokenId","type":"uint256","internalType":"uint256"}]},{"type":"error","name":"ERC721InvalidApprover","inputs":[{"name":"approver","type":"address","internalType":"address"}]},{"type":"error","name":"ERC721InvalidOperator","inputs":[{"name":"operator","type":"address","internalType":"address"}]},{"type":"error","name":"ERC721InvalidOwner","inputs":[{"name":"owner","type":"address","internalType":"address"}]},{"type":"error","name":"ERC721InvalidReceiver","inputs":[{"name":"receiver","type":"address","internalType":"address"}]},{"type":"error","name":"ERC721InvalidSender","inputs":[{"name":"sender","type":"address","internalType":"address"}]},{"type":"error","name":"ERC721NonexistentToken","inputs":[{"name":"tokenId","type":"uint256","internalType":"uint256"}]},{"type":"error","name":"ERC721OutOfBoundsIndex","inputs":[{"name":"owner","type":"address","internalType":"address"},{"name":"index","type":"uint256","internalType":"uint256"}]},{"type":"error","name":"InvalidInitialization","inputs":[]},{"type":"error","name":"NotInitializing","inputs":[]}],"bytecode":{"object":"0x6080806040523460d0577ff0c57e16840df040f15088dc2f81fe391c3923bec73e23a9662efc9c229c6a005460ff8160401c1660c1576002600160401b03196001600160401b03821601605c575b6040516122a590816100d58239f35b6001600160401b0319166001600160401b039081177ff0c57e16840df040f15088dc2f81fe391c3923bec73e23a9662efc9c229c6a005581527fc7f505b2f371ae2175ee4913f4499e1f2633a7b5936321eed1cdaeb6115181d290602090a15f80604d565b63f92ee8a960e01b5f5260045ffd5b5f80fdfe6080806040526004361015610012575f80fd5b5f3560e01c90816301ffc9a7146117175750806306fdde031461166d578063081812fc14611624578063095ea7b31461153857806318160ddd1461150f5780631ca95e131461147357806323b872dd1461145c578063252079b21461142f57806329bc3b851461136c5780632f745c59146112ee57806342842e0e146112c557806349ae8dc31461121f5780634f6ccce7146111775780636352211e146111595780636e9960c314611131578063704b6c02146110a357806370a08231146110785780638209c69914610ecf57806395d89b4114610f96578063a22cb46514610efe578063a761299714610ecf578063aadc35e214610e9f578063b88d4fde14610e3d578063c052bfb614610e15578063c14b197a14610848578063c4d66de814610970578063c87b56dd14610939578063ccc16f691461090f578063dbdd0aab146108e5578063dcf75bef146108be578063e985e9c514610872578063ed1aa24c146108485763f031f73014610187575f80fd5b3461083157610100366003190112610831576101a16117da565b6024356044359160ff83168093036108315760643567ffffffffffffffff81116108315736602382011215610831576101e490369060248160040135910161187e565b6084359260a4359260c4359283151584036108315760e435916024602061020a86611d00565b604051630143489d60e41b8152600481018b905292839182906001600160a01b03165afa90811561083d575f916107ff575b506001600160a01b031633036107a15786861461075c576001600160a01b03811680156107495761026c88612027565b6001600160a01b03811680158015949293929183918661070d575b61029084611c70565b600181540190558c5f527f80bb2b638cc20bc4d0a60d66940f3ab4a00c1d7b313497ca82fb0b4ab007930260205260405f20836001600160601b0360a01b8254161790558c83837fddf252ad1be2c89b69c2b068fc378daa952ba7f163c4a11628f55a4df523b3ef5f80a415610633575f805160206121d0833981519152548c5f527f645e039705490088daad89bae25049a34f4a9072d398537b1ab2425f24cbed0360205260405f20556103448c611fad565b036105c7575b5050506105b457855f527f0542a41881ee128a365a727b282c86fa859579490b9bb45aab8503648c8e790060205260405f209080519067ffffffffffffffff82116104e257819061039b84546118b4565b601f8111610564575b50602090601f8311600114610501575f926104f6575b50508160011b915f199060031b1c19161790555b7ff8e1a15aba9398e019f0b49df1a4fde98ee17ae345cb5f6b5e2c27f5033e8ce76020604051878152a1845f5260016020528160405f2055845f5260026020528360405f2055835f52600360205260405f2093845493600160401b8510156104e2576020976104828861046a887fb0c63b0a40c3e23bce51bffd048743be952d168e928fb6f768c58cb8ceec5f809a600160809b018155611ca8565b90919082549060031b91821b915f19901b1916179055565b875f526004895260405f209060ff198254161790556104ba575b604051928684528784015260408301526060820152a1604051908152f35b855f526005875260405f20600160ff19825416179055855f52600687528160405f205561049c565b634e487b7160e01b5f52604160045260245ffd5b015190505f806103ba565b5f8581528281209350601f198516905b81811061054c5750908460019594939210610534575b505050811b0190556103ce565b01515f1960f88460031b161c191690555f8080610527565b92936020600181928786015181550195019301610511565b909150835f5260205f20601f840160051c810191602085106105aa575b90601f859493920160051c01905b81811061059c57506103a4565b5f815584935060010161058f565b9091508190610581565b6339e3563760e11b5f525f60045260245ffd5b6105d090611cbd565b5f1981019190821161061f575f525f8051602061219083398151915260205260405f20815f526020528860405f2055885f525f8051602061217083398151915260205260405f20555f8061034a565b634e487b7160e01b5f52601160045260245ffd5b8082146103445761064385611cbd565b8c5f525f8051602061217083398151915260205260405f20548181036106a8575b508c5f525f805160206121708339815191526020525f6040812055815f525f8051602061219083398151915260205260405f20905f526020525f6040812055610344565b825f525f8051602061219083398151915260205260405f20825f5260205260405f2054835f525f8051602061219083398151915260205260405f20825f526020528060405f20555f525f8051602061217083398151915260205260405f20555f610664565b5f8d81525f805160206121f08339815191526020526040902080546001600160a01b031916905561073d86611c70565b80545f19019055610287565b633250574960e11b5f525f60045260245ffd5b60405162461bcd60e51b815260206004820152601a60248201527f43616e6e6f7420626520706172656e74206f6620697473656c660000000000006044820152606490fd5b60405162461bcd60e51b815260206004820152603060248201527f4f6e6c792070726f706f73616c2070726f706f7365722063616e206d696e742060448201526f10dbdb9d1c9a589d5d1a5bdb8813919560821b6064820152608490fd5b90506020813d602011610835575b8161081a60209383611840565b810103126108315761082b90611cec565b5f61023c565b5f80fd5b3d915061080d565b6040513d5f823e3d90fd5b34610831576020366003190112610831576004355f526006602052602060405f2054604051908152f35b346108315760403660031901126108315761088b6117da565b61089c6108966117f0565b91611c38565b9060018060a01b03165f52602052602060ff60405f2054166040519015158152f35b34610831575f366003190112610831575f546040516001600160a01b039091168152602090f35b34610831576020366003190112610831576004355f526002602052602060405f2054604051908152f35b34610831576020366003190112610831576004355f526001602052602060405f2054604051908152f35b346108315760203660031901126108315761096c610958600435612060565b6040519182916020835260208301906117b6565b0390f35b34610831576020366003190112610831576109896117da565b5f805160206122108339815191525460ff8160401c16159067ffffffffffffffff811680159081610e0d575b6001149081610e03575b159081610dfa575b50610deb5767ffffffffffffffff1981166001175f805160206122108339815191525581610dbf575b50604090815192610a018385611840565b600c84526b21b7b73a3934b13aba34b7b760a11b6020850152825193610a278486611840565b6002855261564360f01b6020860152610a3e612144565b610a46612144565b80519067ffffffffffffffff82116104e2578190610a715f805160206121b0833981519152546118b4565b601f8111610d41575b50602090601f8311600114610cb8575f92610cad575b50508160011b915f199060031b1c1916175f805160206121b0833981519152555b835167ffffffffffffffff81116104e257610ad95f80516020612230833981519152546118b4565b601f8111610c3e575b50602094601f8211600114610bc3579481929394955f92610bb8575b50508160011b915f199060031b1c1916175f80516020612230833981519152555b610b27612144565b610b2f612144565b60018060a01b03166001600160601b0360a01b5f5416175f55336001600160601b0360a01b6007541617600755610b6257005b60207fc7f505b2f371ae2175ee4913f4499e1f2633a7b5936321eed1cdaeb6115181d29168ff0000000000000000195f8051602061221083398151915254165f80516020612210833981519152555160018152a1005b015190508580610afe565b601f198216955f805160206122308339815191525f52805f20915f5b888110610c2657508360019596979810610c0e575b505050811b015f8051602061223083398151915255610b1f565b01515f1960f88460031b161c19169055858080610bf4565b91926020600181928685015181550194019201610bdf565b5f805160206122308339815191525f527ff4bad0a69248f59680a4f2b3000328cec71a413447c96781cfe5996daa8c456e601f830160051c81019160208410610ca3575b601f0160051c01905b818110610c985750610ae2565b5f8155600101610c8b565b9091508190610c82565b015190508680610a90565b5f805160206121b08339815191525f9081525f805160206122508339815191529350601f198516905b818110610d295750908460019594939210610d11575b505050811b015f805160206121b083398151915255610ab1565b01515f1960f88460031b161c19169055868080610cf7565b92936020600181928786015181550195019301610ce1565b9091505f805160206121b08339815191525f52601f830160051c5f80516020612250833981519152019060208410610daa575b90601f8493920160051c5f8051602061225083398151915201905b818110610d9c5750610a7a565b5f8155849350600101610d8f565b5f805160206122508339815191529150610d74565b68ffffffffffffffffff191668010000000000000001175f8051602061221083398151915255826109f0565b63f92ee8a960e01b5f5260045ffd5b905015846109c7565b303b1591506109bf565b8391506109b5565b34610831575f366003190112610831576008546040516001600160a01b039091168152602090f35b3461083157608036600319011261083157610e566117da565b610e5e6117f0565b6064359167ffffffffffffffff8311610831573660238401121561083157610e93610e9d93369060248160040135910161187e565b9160443591611e6d565b005b34610831576020366003190112610831576020610ebd600435611d00565b6040516001600160a01b039091168152f35b34610831576020366003190112610831576004355f526005602052602060ff60405f2054166040519015158152f35b3461083157604036600319011261083157610f176117da565b60243590811515809203610831576001600160a01b0316908115610f8357610f3e33611c38565b825f5260205260405f2060ff1981541660ff83161790556040519081527f17307eab39ab6107e8899845ad3d59bd9653f200f220920489ca2b5937696c3160203392a3005b50630b61174360e31b5f5260045260245ffd5b34610831575f366003190112610831576040515f5f8051602061223083398151915254610fc2816118b4565b80845290600181169081156110545750600114610fea575b61096c8361095881850382611840565b5f805160206122308339815191525f9081527ff4bad0a69248f59680a4f2b3000328cec71a413447c96781cfe5996daa8c456e939250905b80821061103a57509091508101602001610958610fda565b919260018160209254838588010152019101909291611022565b60ff191660208086019190915291151560051b840190910191506109589050610fda565b3461083157602036600319011261083157602061109b6110966117da565b611cbd565b604051908152f35b34610831576020366003190112610831576110bc6117da565b600754906001600160a01b03821633036110ec576001600160a01b03166001600160a01b03199190911617600755005b60405162461bcd60e51b815260206004820152601860248201527f4f6e6c792061646d696e2063616e207365742061646d696e00000000000000006044820152606490fd5b34610831575f366003190112610831576007546040516001600160a01b039091168152602090f35b34610831576020366003190112610831576020610ebd600435612027565b34610831576020366003190112610831576004355f805160206121d083398151915254811015611209575f805160206121d0833981519152548110156111f5575f805160206121d08339815191525f527fa42f15e5d656f8155fd7419d740a6073999f19cd6e061449ce4a257150545bf20154604051908152602090f35b634e487b7160e01b5f52603260045260245ffd5b63295f44f760e21b5f525f60045260245260445ffd5b34610831576020366003190112610831576004355f52600360205260405f20604051806020835491828152019081935f5260205f20905f5b8181106112af575050508161126d910382611840565b604051918291602083019060208452518091526040830191905f5b818110611296575050500390f35b8251845285945060209384019390920191600101611288565b8254845260209093019260019283019201611257565b3461083157610e9d6112d636611806565b90604051926112e6602085611840565b5f8452611e6d565b34610831576040366003190112610831576113076117da565b6024359061131481611cbd565b82101561134f5760018060a01b03165f525f8051602061219083398151915260205260405f20905f52602052602060405f2054604051908152f35b63295f44f760e21b5f5260018060a01b031660045260245260445ffd5b3461083157602036600319011261083157600435805f526001602052602060018060a01b0361139e60405f2054611d00565b1691602460405180948193631f27a4f360e11b835260048301525afa90811561083d575f916113f4575b5060088110156113e057602090600460405191148152f35b634e487b7160e01b5f52602160045260245ffd5b90506020813d602011611427575b8161140f60209383611840565b810103126108315751600881101561083157816113c8565b3d9150611402565b34610831576020366003190112610831576004355f526004602052602060ff60405f205416604051908152f35b3461083157610e9d61146d36611806565b916118ec565b346108315760203660031901126108315761148c6117da565b6007546001600160a01b031633036114c057600880546001600160a01b0319166001600160a01b0392909216919091179055005b60405162461bcd60e51b815260206004820152602160248201527f4f6e6c792061646d696e2063616e2073657420656c6f2063616c63756c61746f6044820152603960f91b6064820152608490fd5b34610831575f3660031901126108315760205f805160206121d083398151915254604051908152f35b34610831576040366003190112610831576115516117da565b60243561155d81611ff8565b33151580611611575b806115ee575b6115db5781906001600160a01b0384811691167f8c5be1e5ebec7d5bd14f71427d1e84f3dd0314c0f7b2291e5b200ac8c7c3b9255f80a45f9081525f805160206121f08339815191526020526040902080546001600160a01b0319166001600160a01b03909216919091179055005b63a9fbf51f60e01b5f523360045260245ffd5b506115f881611c38565b335f908152602091909152604090205460ff161561156c565b506001600160a01b038116331415611566565b34610831576020366003190112610831576020610ebd60043561164681611ff8565b505f9081525f805160206121f083398151915260205260409020546001600160a01b031690565b34610831575f366003190112610831576040515f5f805160206121b083398151915254611699816118b4565b808452906001811690811561105457506001146116c05761096c8361095881850382611840565b5f805160206121b08339815191525f9081525f80516020612250833981519152939250905b8082106116fd57509091508101602001610958610fda565b9192600181602092548385880101520191019092916116e5565b34610831576020366003190112610831576004359063ffffffff60e01b821680920361083157602091632483248360e11b8114908115611759575b5015158152f35b63780e9d6360e01b811491508115611773575b5083611752565b6380ac58cd60e01b8114915081156117a5575b8115611794575b508361176c565b6301ffc9a760e01b1490508361178d565b635b5e139f60e01b81149150611786565b805180835260209291819084018484015e5f828201840152601f01601f1916010190565b600435906001600160a01b038216820361083157565b602435906001600160a01b038216820361083157565b6060906003190112610831576004356001600160a01b038116810361083157906024356001600160a01b0381168103610831579060443590565b90601f8019910116810190811067ffffffffffffffff8211176104e257604052565b67ffffffffffffffff81116104e257601f01601f191660200190565b92919261188a82611862565b916118986040519384611840565b829481845281830111610831578281602093845f960137010152565b90600182811c921680156118e2575b60208310146118ce57565b634e487b7160e01b5f52602260045260245ffd5b91607f16916118c3565b9091906001600160a01b03831680156107495761190883612027565b9033151580611b8a575b506001600160a01b0382169485158015611b4e575b61193082611c70565b60018154019055855f527f80bb2b638cc20bc4d0a60d66940f3ab4a00c1d7b313497ca82fb0b4ab007930260205260405f20836001600160601b0360a01b8254161790558583887fddf252ad1be2c89b69c2b068fc378daa952ba7f163c4a11628f55a4df523b3ef5f80a415611a74575f805160206121d083398151915254855f527f645e039705490088daad89bae25049a34f4a9072d398537b1ab2425f24cbed0360205260405f20556119e485611fad565b818603611a1c575b5050506001600160a01b0316808303611a0457505050565b6364283d7b60e01b5f5260045260245260445260645ffd5b611a2590611cbd565b5f1981019190821161061f575f525f8051602061219083398151915260205260405f20815f526020528360405f2055835f525f8051602061217083398151915260205260405f20555f806119ec565b8582146119e457611a8483611cbd565b855f525f8051602061217083398151915260205260405f2054818103611ae9575b50855f525f805160206121708339815191526020525f6040812055865f525f8051602061219083398151915260205260405f20905f526020525f60408120556119e4565b875f525f8051602061219083398151915260205260405f20825f5260205260405f2054885f525f8051602061219083398151915260205260405f20825f526020528060405f20555f525f8051602061217083398151915260205260405f20555f611aa5565b5f8681525f805160206121f08339815191526020526040902080546001600160a01b0319169055611b7e84611c70565b80545f19019055611927565b80611bd2575b15611b9b575f611912565b836001600160a01b038316611bbc57637e27328960e01b5f5260045260245ffd5b63177e802f60e01b5f523360045260245260445ffd5b506001600160a01b03821633148015611c16575b80611b9057505f8481525f805160206121f083398151915260205260409020546001600160a01b03163314611b90565b50611c2082611c38565b335f908152602091909152604090205460ff16611be6565b6001600160a01b03165f9081527f80bb2b638cc20bc4d0a60d66940f3ab4a00c1d7b313497ca82fb0b4ab00793056020526040902090565b6001600160a01b03165f9081527f80bb2b638cc20bc4d0a60d66940f3ab4a00c1d7b313497ca82fb0b4ab00793036020526040902090565b80548210156111f5575f5260205f2001905f90565b6001600160a01b03811615611cd957611cd590611c70565b5490565b6322718ad960e21b5f525f60045260245ffd5b51906001600160a01b038216820361083157565b5f8054604051635652386760e11b81526004810193909352829060249082906001600160a01b03165afa90811561083d575f91611d46575b50516001600160a01b031690565b90503d805f833e611d578183611840565b8101906020818303126108315780519067ffffffffffffffff821161083157019060a082820312610831576040519160a0830183811067ffffffffffffffff8211176104e257604052611da981611cec565b8352611db760208201611cec565b6020840152611dc860408201611cec565b6040840152611dd960608201611cec565b606084015260808101519067ffffffffffffffff8211610831570181601f820112156108315780519167ffffffffffffffff83116104e2578260051b9160405193611e276020850186611840565b845260208085019382010191821161083157602001915b818310611e535750505060808201525f611d38565b825160ff8116810361083157815260209283019201611e3e565b9291611e7a8183866118ec565b813b611e87575b50505050565b604051630a85bd0160e11b81523360048201526001600160a01b0394851660248201526044810191909152608060648201529216919060209082908190611ed29060848301906117b6565b03815f865af15f9181611f68575b50611f3557503d15611f2e573d611ef681611862565b90611f046040519283611840565b81523d5f602083013e5b80519081611f295782633250574960e11b5f5260045260245ffd5b602001fd5b6060611f0e565b6001600160e01b03191663757a42ff60e11b01611f5657505f808080611e81565b633250574960e11b5f5260045260245ffd5b9091506020813d602011611fa5575b81611f8460209383611840565b8101031261083157516001600160e01b03198116810361083157905f611ee0565b3d9150611f77565b5f805160206121d08339815191525490600160401b8210156104e25761046a826001611ff694015f805160206121d0833981519152555f805160206121d0833981519152611ca8565b565b61200181612027565b906001600160a01b03821615612015575090565b637e27328960e01b5f5260045260245ffd5b5f9081527f80bb2b638cc20bc4d0a60d66940f3ab4a00c1d7b313497ca82fb0b4ab007930260205260409020546001600160a01b031690565b61206981611ff8565b505f527f0542a41881ee128a365a727b282c86fa859579490b9bb45aab8503648c8e790060205260405f2060405190815f8254926120a6846118b4565b808452936001811690811561212257506001146120de575b506120cb92500382611840565b5f6040516120da602082611840565b5290565b90505f9291925260205f20905f915b8183106121065750509060206120cb928201015f6120be565b60209193508060019154838588010152019101909183926120ed565b9050602092506120cb94915060ff191682840152151560051b8201015f6120be565b60ff5f805160206122108339815191525460401c161561216057565b631afcd79f60e31b5f5260045ffdfe645e039705490088daad89bae25049a34f4a9072d398537b1ab2425f24cbed01645e039705490088daad89bae25049a34f4a9072d398537b1ab2425f24cbed0080bb2b638cc20bc4d0a60d66940f3ab4a00c1d7b313497ca82fb0b4ab0079300645e039705490088daad89bae25049a34f4a9072d398537b1ab2425f24cbed0280bb2b638cc20bc4d0a60d66940f3ab4a00c1d7b313497ca82fb0b4ab0079304f0c57e16840df040f15088dc2f81fe391c3923bec73e23a9662efc9c229c6a0080bb2b638cc20bc4d0a60d66940f3ab4a00c1d7b313497ca82fb0b4ab007930137c58c799b6609234b945e882912ee9ad34948a1dfaa20a97485e1a7752bbf81a264697066735822122051b8cacf15a4496f6f4de5231efe3f0e9721da0ea493bdd09c38031c9e0a393e64736f6c634300081a0033","linkReferences":{}},"methodIdentifiers":{"approve(address,uint256)":"095ea7b3","balanceOf(address)":"70a08231","getAdmin()":"6e9960c3","getAgentDAO(uint256)":"aadc35e2","getApproved(uint256)":"081812fc","getChildren(uint256)":"49ae8dc3","getCore(uint256)":"252079b2","getDatasetId(uint256)":"c14b197a","getEloCalculator()":"c052bfb6","getParentId(uint256)":"dbdd0aab","initialize(address)":"c4d66de8","isAccepted(uint256)":"29bc3b85","isApprovedForAll(address,address)":"e985e9c5","isModel(uint256)":"8209c699","mint(address,uint256,uint8,string,uint256,uint256,bool,uint256)":"f031f730","modelContributions(uint256)":"a7612997","modelDatasets(uint256)":"ed1aa24c","name()":"06fdde03","ownerOf(uint256)":"6352211e","personaNft()":"dcf75bef","safeTransferFrom(address,address,uint256)":"42842e0e","safeTransferFrom(address,address,uint256,bytes)":"b88d4fde","setAdmin(address)":"704b6c02","setApprovalForAll(address,bool)":"a22cb465","setEloCalculator(address)":"1ca95e13","supportsInterface(bytes4)":"01ffc9a7","symbol()":"95d89b41","tokenByIndex(uint256)":"4f6ccce7","tokenOfOwnerByIndex(address,uint256)":"2f745c59","tokenURI(uint256)":"c87b56dd","tokenVirtualId(uint256)":"ccc16f69","totalSupply()":"18160ddd","transferFrom(address,address,uint256)":"23b872dd"},"id":7}