{"abi":[{"type":"constructor","inputs":[{"name":"token","type":"address","internalType":"address"},{"name":"initialVotingDelay","type":"uint48","internalType":"uint48"},{"name":"initialVotingPeriod","type":"uint32","internalType":"uint32"},{"name":"initialProposalThreshold","type":"uint256","internalType":"uint256"},{"name":"initialQuorumNumerator","type":"uint256","internalType":"uint256"},{"name":"admin","type":"address","internalType":"address"}],"stateMutability":"nonpayable"},{"type":"receive","stateMutability":"payable"},{"type":"function","name":"BALLOT_TYPEHASH","inputs":[],"outputs":[{"name":"","type":"bytes32","internalType":"bytes32"}],"stateMutability":"view"},{"type":"function","name":"CLOCK_MODE","inputs":[],"outputs":[{"name":"","type":"string","internalType":"string"}],"stateMutability":"pure"},{"type":"function","name":"COUNTING_MODE","inputs":[],"outputs":[{"name":"","type":"string","internalType":"string"}],"stateMutability":"pure"},{"type":"function","name":"EXTENDED_BALLOT_TYPEHASH","inputs":[],"outputs":[{"name":"","type":"bytes32","internalType":"bytes32"}],"stateMutability":"view"},{"type":"function","name":"cancel","inputs":[{"name":"proposalId","type":"uint256","internalType":"uint256"}],"outputs":[],"stateMutability":"nonpayable"},{"type":"function","name":"cancel","inputs":[{"name":"targets","type":"address[]","internalType":"address[]"},{"name":"values","type":"uint256[]","internalType":"uint256[]"},{"name":"calldatas","type":"bytes[]","internalType":"bytes[]"},{"name":"descriptionHash","type":"bytes32","internalType":"bytes32"}],"outputs":[{"name":"","type":"uint256","internalType":"uint256"}],"stateMutability":"nonpayable"},{"type":"function","name":"castVote","inputs":[{"name":"proposalId","type":"uint256","internalType":"uint256"},{"name":"support","type":"uint8","internalType":"uint8"}],"outputs":[{"name":"","type":"uint256","internalType":"uint256"}],"stateMutability":"nonpayable"},{"type":"function","name":"castVoteBySig","inputs":[{"name":"proposalId","type":"uint256","internalType":"uint256"},{"name":"support","type":"uint8","internalType":"uint8"},{"name":"voter","type":"address","internalType":"address"},{"name":"signature","type":"bytes","internalType":"bytes"}],"outputs":[{"name":"","type":"uint256","internalType":"uint256"}],"stateMutability":"nonpayable"},{"type":"function","name":"castVoteWithReason","inputs":[{"name":"proposalId","type":"uint256","internalType":"uint256"},{"name":"support","type":"uint8","internalType":"uint8"},{"name":"reason","type":"string","internalType":"string"}],"outputs":[{"name":"","type":"uint256","internalType":"uint256"}],"stateMutability":"nonpayable"},{"type":"function","name":"castVoteWithReasonAndParams","inputs":[{"name":"proposalId","type":"uint256","internalType":"uint256"},{"name":"support","type":"uint8","internalType":"uint8"},{"name":"reason","type":"string","internalType":"string"},{"name":"params","type":"bytes","internalType":"bytes"}],"outputs":[{"name":"","type":"uint256","internalType":"uint256"}],"stateMutability":"nonpayable"},{"type":"function","name":"castVoteWithReasonAndParamsBySig","inputs":[{"name":"proposalId","type":"uint256","internalType":"uint256"},{"name":"support","type":"uint8","internalType":"uint8"},{"name":"voter","type":"address","internalType":"address"},{"name":"reason","type":"string","internalType":"string"},{"name":"params","type":"bytes","internalType":"bytes"},{"name":"signature","type":"bytes","internalType":"bytes"}],"outputs":[{"name":"","type":"uint256","internalType":"uint256"}],"stateMutability":"nonpayable"},{"type":"function","name":"clock","inputs":[],"outputs":[{"name":"","type":"uint48","internalType":"uint48"}],"stateMutability":"view"},{"type":"function","name":"eip712Domain","inputs":[],"outputs":[{"name":"fields","type":"bytes1","internalType":"bytes1"},{"name":"name","type":"string","internalType":"string"},{"name":"version","type":"string","internalType":"string"},{"name":"chainId","type":"uint256","internalType":"uint256"},{"name":"verifyingContract","type":"address","internalType":"address"},{"name":"salt","type":"bytes32","internalType":"bytes32"},{"name":"extensions","type":"uint256[]","internalType":"uint256[]"}],"stateMutability":"view"},{"type":"function","name":"execute","inputs":[{"name":"targets","type":"address[]","internalType":"address[]"},{"name":"values","type":"uint256[]","internalType":"uint256[]"},{"name":"calldatas","type":"bytes[]","internalType":"bytes[]"},{"name":"descriptionHash","type":"bytes32","internalType":"bytes32"}],"outputs":[{"name":"","type":"uint256","internalType":"uint256"}],"stateMutability":"payable"},{"type":"function","name":"execute","inputs":[{"name":"proposalId","type":"uint256","internalType":"uint256"}],"outputs":[],"stateMutability":"payable"},{"type":"function","name":"getVotes","inputs":[{"name":"account","type":"address","internalType":"address"},{"name":"timepoint","type":"uint256","internalType":"uint256"}],"outputs":[{"name":"","type":"uint256","internalType":"uint256"}],"stateMutability":"view"},{"type":"function","name":"getVotesWithParams","inputs":[{"name":"account","type":"address","internalType":"address"},{"name":"timepoint","type":"uint256","internalType":"uint256"},{"name":"params","type":"bytes","internalType":"bytes"}],"outputs":[{"name":"","type":"uint256","internalType":"uint256"}],"stateMutability":"view"},{"type":"function","name":"hasVoted","inputs":[{"name":"proposalId","type":"uint256","internalType":"uint256"},{"name":"account","type":"address","internalType":"address"}],"outputs":[{"name":"","type":"bool","internalType":"bool"}],"stateMutability":"view"},{"type":"function","name":"hashProposal","inputs":[{"name":"targets","type":"address[]","internalType":"address[]"},{"name":"values","type":"uint256[]","internalType":"uint256[]"},{"name":"calldatas","type":"bytes[]","internalType":"bytes[]"},{"name":"descriptionHash","type":"bytes32","internalType":"bytes32"}],"outputs":[{"name":"","type":"uint256","internalType":"uint256"}],"stateMutability":"pure"},{"type":"function","name":"latestTotalSupply","inputs":[],"outputs":[{"name":"","type":"uint256","internalType":"uint256"}],"stateMutability":"view"},{"type":"function","name":"name","inputs":[],"outputs":[{"name":"","type":"string","internalType":"string"}],"stateMutability":"view"},{"type":"function","name":"nonces","inputs":[{"name":"owner","type":"address","internalType":"address"}],"outputs":[{"name":"","type":"uint256","internalType":"uint256"}],"stateMutability":"view"},{"type":"function","name":"onERC1155BatchReceived","inputs":[{"name":"","type":"address","internalType":"address"},{"name":"","type":"address","internalType":"address"},{"name":"","type":"uint256[]","internalType":"uint256[]"},{"name":"","type":"uint256[]","internalType":"uint256[]"},{"name":"","type":"bytes","internalType":"bytes"}],"outputs":[{"name":"","type":"bytes4","internalType":"bytes4"}],"stateMutability":"nonpayable"},{"type":"function","name":"onERC1155Received","inputs":[{"name":"","type":"address","internalType":"address"},{"name":"","type":"address","internalType":"address"},{"name":"","type":"uint256","internalType":"uint256"},{"name":"","type":"uint256","internalType":"uint256"},{"name":"","type":"bytes","internalType":"bytes"}],"outputs":[{"name":"","type":"bytes4","internalType":"bytes4"}],"stateMutability":"nonpayable"},{"type":"function","name":"onERC721Received","inputs":[{"name":"","type":"address","internalType":"address"},{"name":"","type":"address","internalType":"address"},{"name":"","type":"uint256","internalType":"uint256"},{"name":"","type":"bytes","internalType":"bytes"}],"outputs":[{"name":"","type":"bytes4","internalType":"bytes4"}],"stateMutability":"nonpayable"},{"type":"function","name":"pastTotalSupply","inputs":[{"name":"timestamp","type":"uint256","internalType":"uint256"}],"outputs":[{"name":"","type":"uint256","internalType":"uint256"}],"stateMutability":"view"},{"type":"function","name":"proposalCount","inputs":[],"outputs":[{"name":"","type":"uint256","internalType":"uint256"}],"stateMutability":"view"},{"type":"function","name":"proposalDeadline","inputs":[{"name":"proposalId","type":"uint256","internalType":"uint256"}],"outputs":[{"name":"","type":"uint256","internalType":"uint256"}],"stateMutability":"view"},{"type":"function","name":"proposalDetails","inputs":[{"name":"proposalId","type":"uint256","internalType":"uint256"}],"outputs":[{"name":"","type":"address[]","internalType":"address[]"},{"name":"","type":"uint256[]","internalType":"uint256[]"},{"name":"","type":"bytes[]","internalType":"bytes[]"},{"name":"","type":"bytes32","internalType":"bytes32"}],"stateMutability":"view"},{"type":"function","name":"proposalDetailsAt","inputs":[{"name":"index","type":"uint256","internalType":"uint256"}],"outputs":[{"name":"","type":"uint256","internalType":"uint256"},{"name":"","type":"address[]","internalType":"address[]"},{"name":"","type":"uint256[]","internalType":"uint256[]"},{"name":"","type":"bytes[]","internalType":"bytes[]"},{"name":"","type":"bytes32","internalType":"bytes32"}],"stateMutability":"view"},{"type":"function","name":"proposalEta","inputs":[{"name":"proposalId","type":"uint256","internalType":"uint256"}],"outputs":[{"name":"","type":"uint256","internalType":"uint256"}],"stateMutability":"view"},{"type":"function","name":"proposalNeedsQueuing","inputs":[{"name":"","type":"uint256","internalType":"uint256"}],"outputs":[{"name":"","type":"bool","internalType":"bool"}],"stateMutability":"view"},{"type":"function","name":"proposalProposer","inputs":[{"name":"proposalId","type":"uint256","internalType":"uint256"}],"outputs":[{"name":"","type":"address","internalType":"address"}],"stateMutability":"view"},{"type":"function","name":"proposalSnapshot","inputs":[{"name":"proposalId","type":"uint256","internalType":"uint256"}],"outputs":[{"name":"","type":"uint256","internalType":"uint256"}],"stateMutability":"view"},{"type":"function","name":"proposalThreshold","inputs":[],"outputs":[{"name":"","type":"uint256","internalType":"uint256"}],"stateMutability":"view"},{"type":"function","name":"proposalVotes","inputs":[{"name":"proposalId","type":"uint256","internalType":"uint256"}],"outputs":[{"name":"againstVotes","type":"uint256","internalType":"uint256"},{"name":"forVotes","type":"uint256","internalType":"uint256"},{"name":"abstainVotes","type":"uint256","internalType":"uint256"}],"stateMutability":"view"},{"type":"function","name":"propose","inputs":[{"name":"targets","type":"address[]","internalType":"address[]"},{"name":"values","type":"uint256[]","internalType":"uint256[]"},{"name":"calldatas","type":"bytes[]","internalType":"bytes[]"},{"name":"description","type":"string","internalType":"string"}],"outputs":[{"name":"","type":"uint256","internalType":"uint256"}],"stateMutability":"nonpayable"},{"type":"function","name":"queue","inputs":[{"name":"targets","type":"address[]","internalType":"address[]"},{"name":"values","type":"uint256[]","internalType":"uint256[]"},{"name":"calldatas","type":"bytes[]","internalType":"bytes[]"},{"name":"descriptionHash","type":"bytes32","internalType":"bytes32"}],"outputs":[{"name":"","type":"uint256","internalType":"uint256"}],"stateMutability":"nonpayable"},{"type":"function","name":"queue","inputs":[{"name":"proposalId","type":"uint256","internalType":"uint256"}],"outputs":[],"stateMutability":"nonpayable"},{"type":"function","name":"quorum","inputs":[{"name":"timestamp","type":"uint256","internalType":"uint256"}],"outputs":[{"name":"","type":"uint256","internalType":"uint256"}],"stateMutability":"view"},{"type":"function","name":"quorumDenominator","inputs":[],"outputs":[{"name":"","type":"uint256","internalType":"uint256"}],"stateMutability":"pure"},{"type":"function","name":"quorumNumerator","inputs":[{"name":"timepoint","type":"uint256","internalType":"uint256"}],"outputs":[{"name":"","type":"uint256","internalType":"uint256"}],"stateMutability":"view"},{"type":"function","name":"quorumNumerator","inputs":[],"outputs":[{"name":"","type":"uint256","internalType":"uint256"}],"stateMutability":"view"},{"type":"function","name":"relay","inputs":[{"name":"target","type":"address","internalType":"address"},{"name":"value","type":"uint256","internalType":"uint256"},{"name":"data","type":"bytes","internalType":"bytes"}],"outputs":[],"stateMutability":"payable"},{"type":"function","name":"setAdmin","inputs":[{"name":"admin","type":"address","internalType":"address"}],"outputs":[],"stateMutability":"nonpayable"},{"type":"function","name":"setProposalThreshold","inputs":[{"name":"newProposalThreshold","type":"uint256","internalType":"uint256"}],"outputs":[],"stateMutability":"nonpayable"},{"type":"function","name":"setTotalSupply","inputs":[{"name":"totalSupply","type":"uint256","internalType":"uint256"},{"name":"timestamp","type":"uint256","internalType":"uint256"}],"outputs":[],"stateMutability":"nonpayable"},{"type":"function","name":"setVotingDelay","inputs":[{"name":"newVotingDelay","type":"uint48","internalType":"uint48"}],"outputs":[],"stateMutability":"nonpayable"},{"type":"function","name":"setVotingPeriod","inputs":[{"name":"newVotingPeriod","type":"uint32","internalType":"uint32"}],"outputs":[],"stateMutability":"nonpayable"},{"type":"function","name":"state","inputs":[{"name":"proposalId","type":"uint256","internalType":"uint256"}],"outputs":[{"name":"","type":"uint8","internalType":"enum IGovernor.ProposalState"}],"stateMutability":"view"},{"type":"function","name":"supportsInterface","inputs":[{"name":"interfaceId","type":"bytes4","internalType":"bytes4"}],"outputs":[{"name":"","type":"bool","internalType":"bool"}],"stateMutability":"view"},{"type":"function","name":"updateQuorumNumerator","inputs":[{"name":"newQuorumNumerator","type":"uint256","internalType":"uint256"}],"outputs":[],"stateMutability":"nonpayable"},{"type":"function","name":"version","inputs":[],"outputs":[{"name":"","type":"string","internalType":"string"}],"stateMutability":"view"},{"type":"function","name":"votingDelay","inputs":[],"outputs":[{"name":"","type":"uint256","internalType":"uint256"}],"stateMutability":"view"},{"type":"function","name":"votingPeriod","inputs":[],"outputs":[{"name":"","type":"uint256","internalType":"uint256"}],"stateMutability":"view"},{"type":"event","name":"EIP712DomainChanged","inputs":[],"anonymous":false},{"type":"event","name":"ProposalCanceled","inputs":[{"name":"proposalId","type":"uint256","indexed":false,"internalType":"uint256"}],"anonymous":false},{"type":"event","name":"ProposalCreated","inputs":[{"name":"proposalId","type":"uint256","indexed":false,"internalType":"uint256"},{"name":"proposer","type":"address","indexed":false,"internalType":"address"},{"name":"targets","type":"address[]","indexed":false,"internalType":"address[]"},{"name":"values","type":"uint256[]","indexed":false,"internalType":"uint256[]"},{"name":"signatures","type":"string[]","indexed":false,"internalType":"string[]"},{"name":"calldatas","type":"bytes[]","indexed":false,"internalType":"bytes[]"},{"name":"voteStart","type":"uint256","indexed":false,"internalType":"uint256"},{"name":"voteEnd","type":"uint256","indexed":false,"internalType":"uint256"},{"name":"description","type":"string","indexed":false,"internalType":"string"}],"anonymous":false},{"type":"event","name":"ProposalExecuted","inputs":[{"name":"proposalId","type":"uint256","indexed":false,"internalType":"uint256"}],"anonymous":false},{"type":"event","name":"ProposalQueued","inputs":[{"name":"proposalId","type":"uint256","indexed":false,"internalType":"uint256"},{"name":"etaSeconds","type":"uint256","indexed":false,"internalType":"uint256"}],"anonymous":false},{"type":"event","name":"ProposalThresholdSet","inputs":[{"name":"oldProposalThreshold","type":"uint256","indexed":false,"internalType":"uint256"},{"name":"newProposalThreshold","type":"uint256","indexed":false,"internalType":"uint256"}],"anonymous":false},{"type":"event","name":"QuorumNumeratorUpdated","inputs":[{"name":"oldQuorumNumerator","type":"uint256","indexed":false,"internalType":"uint256"},{"name":"newQuorumNumerator","type":"uint256","indexed":false,"internalType":"uint256"}],"anonymous":false},{"type":"event","name":"TotalSupplyUpdated","inputs":[{"name":"oldTotalSupply","type":"uint256","indexed":false,"internalType":"uint256"},{"name":"newTotalSupply","type":"uint256","indexed":false,"internalType":"uint256"}],"anonymous":false},{"type":"event","name":"VoteCast","inputs":[{"name":"voter","type":"address","indexed":true,"internalType":"address"},{"name":"proposalId","type":"uint256","indexed":false,"internalType":"uint256"},{"name":"support","type":"uint8","indexed":false,"internalType":"uint8"},{"name":"weight","type":"uint256","indexed":false,"internalType":"uint256"},{"name":"reason","type":"string","indexed":false,"internalType":"string"}],"anonymous":false},{"type":"event","name":"VoteCastWithParams","inputs":[{"name":"voter","type":"address","indexed":true,"internalType":"address"},{"name":"proposalId","type":"uint256","indexed":false,"internalType":"uint256"},{"name":"support","type":"uint8","indexed":false,"internalType":"uint8"},{"name":"weight","type":"uint256","indexed":false,"internalType":"uint256"},{"name":"reason","type":"string","indexed":false,"internalType":"string"},{"name":"params","type":"bytes","indexed":false,"internalType":"bytes"}],"anonymous":false},{"type":"event","name":"VotingDelaySet","inputs":[{"name":"oldVotingDelay","type":"uint256","indexed":false,"internalType":"uint256"},{"name":"newVotingDelay","type":"uint256","indexed":false,"internalType":"uint256"}],"anonymous":false},{"type":"event","name":"VotingPeriodSet","inputs":[{"name":"oldVotingPeriod","type":"uint256","indexed":false,"internalType":"uint256"},{"name":"newVotingPeriod","type":"uint256","indexed":false,"internalType":"uint256"}],"anonymous":false},{"type":"error","name":"CheckpointUnorderedInsertion","inputs":[]},{"type":"error","name":"FailedInnerCall","inputs":[]},{"type":"error","name":"GovernorAlreadyCastVote","inputs":[{"name":"voter","type":"address","internalType":"address"}]},{"type":"error","name":"GovernorAlreadyQueuedProposal","inputs":[{"name":"proposalId","type":"uint256","internalType":"uint256"}]},{"type":"error","name":"GovernorDisabledDeposit","inputs":[]},{"type":"error","name":"GovernorInsufficientProposerVotes","inputs":[{"name":"proposer","type":"address","internalType":"address"},{"name":"votes","type":"uint256","internalType":"uint256"},{"name":"threshold","type":"uint256","internalType":"uint256"}]},{"type":"error","name":"GovernorInvalidProposalLength","inputs":[{"name":"targets","type":"uint256","internalType":"uint256"},{"name":"calldatas","type":"uint256","internalType":"uint256"},{"name":"values","type":"uint256","internalType":"uint256"}]},{"type":"error","name":"GovernorInvalidQuorumFraction","inputs":[{"name":"quorumNumerator","type":"uint256","internalType":"uint256"},{"name":"quorumDenominator","type":"uint256","internalType":"uint256"}]},{"type":"error","name":"GovernorInvalidSignature","inputs":[{"name":"voter","type":"address","internalType":"address"}]},{"type":"error","name":"GovernorInvalidVoteType","inputs":[]},{"type":"error","name":"GovernorInvalidVotingPeriod","inputs":[{"name":"votingPeriod","type":"uint256","internalType":"uint256"}]},{"type":"error","name":"GovernorNonexistentProposal","inputs":[{"name":"proposalId","type":"uint256","internalType":"uint256"}]},{"type":"error","name":"GovernorNotQueuedProposal","inputs":[{"name":"proposalId","type":"uint256","internalType":"uint256"}]},{"type":"error","name":"GovernorOnlyExecutor","inputs":[{"name":"account","type":"address","internalType":"address"}]},{"type":"error","name":"GovernorOnlyProposer","inputs":[{"name":"account","type":"address","internalType":"address"}]},{"type":"error","name":"GovernorQueueNotImplemented","inputs":[]},{"type":"error","name":"GovernorRestrictedProposer","inputs":[{"name":"proposer","type":"address","internalType":"address"}]},{"type":"error","name":"GovernorUnexpectedProposalState","inputs":[{"name":"proposalId","type":"uint256","internalType":"uint256"},{"name":"current","type":"uint8","internalType":"enum IGovernor.ProposalState"},{"name":"expectedStates","type":"bytes32","internalType":"bytes32"}]},{"type":"error","name":"InvalidAccountNonce","inputs":[{"name":"account","type":"address","internalType":"address"},{"name":"currentNonce","type":"uint256","internalType":"uint256"}]},{"type":"error","name":"InvalidShortString","inputs":[]},{"type":"error","name":"QueueEmpty","inputs":[]},{"type":"error","name":"QueueFull","inputs":[]},{"type":"error","name":"SafeCastOverflowedUintDowncast","inputs":[{"name":"bits","type":"uint8","internalType":"uint8"},{"name":"value","type":"uint256","internalType":"uint256"}]},{"type":"error","name":"StringTooLong","inputs":[{"name":"str","type":"string","internalType":"string"}]}],"bytecode":{"object":"0x6101806040523461009157610021610015610111565b949390939291926101fe565b604051613df39081610c9a823960805181612e3c015260a05181612ef3015260c05181612e06015260e05181612e8b01526101005181612eb1015261012051816112b6015261014051816112e201526101605181818161153a01528181611a25015281816129c80152612cd50152f35b5f80fd5b634e487b7160e01b5f52604160045260245ffd5b604081019081106001600160401b038211176100c457604052565b610095565b601f909101601f19168101906001600160401b038211908210176100c457604052565b604051906100fb6040836100c9565b565b51906001600160a01b038216820361009157565b614aad9060c0823803928360405194859261012c82856100c9565b8339810103126100915761013f826100fd565b9060208301519265ffffffffffff841684036100915760408101519263ffffffff841684036100915760608201519261017f60a0608085015194016100fd565b91959493929190565b604051906101976040836100c9565b600f8252565b604051906101ac6040836100c9565b60018252565b156101b957565b60405162461bcd60e51b815260206004820152601560248201527f496e76616c69642061646d696e206164647265737300000000000000000000006044820152606490fd5b926102e9906102e4610329946102df6100fb99956102da61021d610188565b602081016e159a5c9d1d585b141c9bdd1bd8dbdb608a1b815261023e61019d565b906020820190603160f81b82526102548461068b565b610120526102618361077b565b6101405283519020918260e05251902080610100524660a0526040519060208201927f8b73c3c69bb8fe3d512ecc4cf759cc79239f7b179b0ffacaa9a75d522b39400f8452604083015260608201524660808201523060a082015260a081526102cb60c0826100c9565b5190206080523060c0526103d5565b610584565b6105d1565b610652565b6102fd6001600160a01b03821615156101b2565b610305610914565b5050600e80546001600160a01b0319166001600160a01b0392909216919091179055565b6001600160a01b0316610160526104ba565b634e487b7160e01b5f525f60045260245ffd5b90600182811c9216801561037c575b602083101461036857565b634e487b7160e01b5f52602260045260245ffd5b91607f169161035d565b601f821161039357505050565b5f5260205f20906020601f840160051c830193106103cb575b601f0160051c01905b8181106103c0575050565b5f81556001016103b5565b90915081906103ac565b80519091906001600160401b0381116100c4576103fe816103f760035461034e565b6003610386565b602092601f821160011461043e5761042e929382915f92610433575b50508160011b915f199060031b1c19161790565b600355565b015190505f8061041a565b60035f52601f198216937fc2575a0e9e593c00f959f8c92f12db2869c3395a3b0502d05e2516446f71f85b915f5b8681106104a2575083600195961061048a575b505050811b01600355565b01515f1960f88460031b161c191690555f808061047f565b9192602060018192868501518155019401920161046c565b612710811161056c57600f54908161050c575f80516020614a8d83398151915291505f5b6104f86104e9610abe565b6104f284610a22565b90610b60565b5050604080519182526020820192909252a1565b815f1981011161055857600f5f527f8d1108e10bcb7c27dddfc02ed9d693a074039d026cf4ea4240b40f7d581ac80191909101545f80516020614a8d833981519152919060301c6104de565b634e487b7160e01b5f52601160045260245ffd5b63243e544560e01b5f5260045261271060245260445ffd5b6008547fc565b045403dc03c2eea82b81a0465edad9e2e7fc4d97e11421c209da93d7a93604065ffffffffffff81519481851686521693846020820152a165ffffffffffff191617600855565b63ffffffff811690811561063f5769ffffffff000000000000907f7e3f7f0708a84de9203036abaa450dccc85ad5ff52f78c170f3edb55cf5e882860406008549481519063ffffffff8760301c1682526020820152a160301b169069ffffffff000000000000191617600855565b63f1cfbf0560e01b5f525f60045260245ffd5b60075460408051918252602082018390527fccb45da8d5717e6c4544694297c4ba5cf151d455c9bb0ed4fc7a38411bc0546191a1600755565b908151602081105f146106a65750906106a390610a53565b90565b6001600160401b0381116100c4576106c8816106c25f5461034e565b5f610386565b602092601f82116001146106fe576106f7929382915f926104335750508160011b915f199060031b1c19161790565b5f5560ff90565b5f8052601f198216937f290decd9548b62a8d60345a988386fc84ba6bc95484008f6362f93160ef3e563915f5b868110610763575083600195961061074b575b505050811b015f5560ff90565b01515f1960f88460031b161c191690555f808061073e565b9192602060018192868501518155019401920161072b565b908151602081105f146107935750906106a390610a53565b6001600160401b0381116100c4576107b7816107b060015461034e565b6001610386565b602092601f82116001146107ee576107e6929382915f926104335750508160011b915f199060031b1c19161790565b60015560ff90565b60015f52601f198216937fb10e2d527612073b26eecdfd717e6a320cf44b4afac2b0732d9fcbe2b7fa0cf6915f5b868110610855575083600195961061083d575b505050811b0160015560ff90565b01515f1960f88460031b161c191690555f808061082f565b9192602060018192868501518155019401920161081c565b8054821015610882575f5260205f2001905f90565b634e487b7160e01b5f52603260045260245ffd5b8054680100000000000000008110156100c4576108b89160018201815561086d565b6108df57815160209283015190921b63ffffffff191663ffffffff92909216919091179055565b61033b565b5f1981019190821161055857565b906040516108ff816100a9565b602081935463ffffffff81168352811c910152565b600d548015610a025761095a61095561092c836108e4565b600d5f527fd7b6990105719101dabeb77144f2a3385c8033acd3af97e9423a695e81ad1eb50190565b6108f2565b9063ffffffff61096e835163ffffffff1690565b166109f3578160209161099461098b6109cd955163ffffffff1690565b63ffffffff1690565b6109d2575f6109a861092c6109bf936108e4565b9063ffffffff82549181199060201b169116179055565b01516001600160e01b031690565b905f90565b506109ee6109de6100ec565b5f81525f818501525b600d610896565b6109bf565b632520601d60e01b5f5260045ffd5b50610a1c610a0e6100ec565b5f81525f60208201526109e7565b5f905f90565b6001600160d01b038111610a3c576001600160d01b031690565b6306dfcc6560e41b5f5260d060045260245260445ffd5b601f815111610a7e576020815191015160208210610a6f571790565b5f198260200360031b1b161790565b604460209160405192839163305a27a960e01b83528160048401528051918291826024860152018484015e5f828201840152601f01601f19168101030190fd5b65ffffffffffff4211610ad75765ffffffffffff421690565b6306dfcc6560e41b5f5260306004524260245260445ffd5b8054680100000000000000008110156100c457610b119160018201815561086d565b6108df57815160209092015160301b65ffffffffffff191665ffffffffffff92909216919091179055565b90604051610b49816100a9565b915465ffffffffffff8116835260301c6020830152565b600f54919291908115610c705781610bb2610bad610b8465ffffffffffff956108e4565b600f5f527f8d1108e10bcb7c27dddfc02ed9d693a074039d026cf4ea4240b40f7d581ac8020190565b610b3c565b90610bc3825165ffffffffffff1690565b84841694859116116109f35785602093610c3195610bf5610bea865165ffffffffffff1690565b65ffffffffffff1690565b03610c355750610c0a610b84610c23936108e4565b9065ffffffffffff82549181199060301b169116179055565b01516001600160d01b031690565b9190565b9050610c6b9150610c55610c476100ec565b65ffffffffffff9092168252565b6001600160d01b038716818501525b600f610aef565b610c23565b610c949150610c80610c476100ec565b6001600160d01b0384166020820152610c64565b5f919056fe6080604052600436101561001a575b3615610018575f80fd5b005b5f3560e01c806301ffc9a71461038957806302a251a31461038457806306f3f9e61461037f57806306fdde031461037a578063143489d014610375578063150b7a0214610370578063160cbed71461036b57806316e9eaec146103665780632656227d146103615780632d63f6931461035c5780632e82db94146103575780632fe3e261146103525780633932abb11461034d5780633e4f49e61461034857806340e58ee514610343578063438596321461033e578063452115d6146103395780634af170c1146103345780634bf5d7e91461032f578063544ffc9c1461032a57806354fd4d501461032557806356781388146103205780635b8d0e0d1461031b5780635c7e5d5f146103165780635f398a141461031157806360c4247f1461030c578063704b6c021461030757806379051887146103025780637b3c71d3146102fd5780637d5e81e2146102f85780637ecebe00146102f357806384b0196e146102ee5780638ff262e3146102e957806391ddadf4146102e457806397c3d334146102df5780639a802a6d146102da578063a7713a70146102d5578063a9a95294146102d0578063ab58fb8e146102cb578063b0a4d7d3146102c6578063b58131b0146102c1578063bc197c81146102bc578063c01f9e37146102b7578063c28bc2fa146102b2578063c59057e4146102ad578063da35c664146102a8578063dd4e2ba5146102a3578063ddf0b0091461029e578063deaaa7cc14610299578063e540d01d14610294578063eb9019d41461028f578063ece40cc11461028a578063f23a6e6114610285578063f8ce560a146102805763fe0d94c10361000e57611b58565b611b3a565b611ae5565b611a90565b6119c6565b611920565b6118e6565b6118a0565b611841565b611824565b611808565b6117a1565b611783565b6116ee565b6116d1565b61161c565b6115e9565b6115ce565b6115ac565b6114cc565b6114b0565b611485565b61136e565b61129e565b611266565b6111b8565b611163565b6110ee565b61101b565b610ffd565b610f7d565b610f5f565b610ebd565b610e57565b610e04565b610dc3565b610d73565b610d48565b610d2c565b610cda565b610c8a565b610c5b565b610c0f565b610bd5565b610b34565b610aff565b610ae0565b610ab1565b610994565b610770565b61061b565b610541565b610421565b6103fb565b346103f75760203660031901126103f75760043563ffffffff60e01b81168091036103f7576020906332a2ad4360e11b81149081156103e6575b81156103d5575b506040519015158152f35b6301ffc9a760e01b1490505f6103ca565b630271189760e51b811491506103c3565b5f80fd5b346103f7575f3660031901126103f757602063ffffffff60085460301c16604051908152f35b346103f75760203660031901126103f757600435600e546001600160a01b031633148015610500575b61045390611b9c565b61271081116104e8576001600160d01b0361046c612d99565b169061047742612c18565b916001600160d01b0382116104d0577f0553476bf02ef2726e8ce5ced78d63e26e602e4a2257b1f559418e24b4633997926104bc906001600160d01b0384169061353c565b5050604080519182526020820192909252a1005b506306dfcc6560e41b5f5260d060045260245260445ffd5b63243e544560e01b5f5260045261271060245260445ffd5b5033301461044a565b805180835260209291819084018484015e5f828201840152601f01601f1916010190565b90602061053e928181520190610509565b90565b346103f7575f3660031901126103f7576040515f60035461056181611ba3565b80845290600181169081156105f75750600114610599575b61059583610589818503826106c3565b6040519182918261052d565b0390f35b60035f9081527fc2575a0e9e593c00f959f8c92f12db2869c3395a3b0502d05e2516446f71f85b939250905b8082106105dd57509091508101602001610589610579565b9192600181602092548385880101520191019092916105c5565b60ff191660208086019190915291151560051b840190910191506105899050610579565b346103f75760203660031901126103f7576004355f526004602052602060018060a01b0360405f205416604051908152f35b600435906001600160a01b03821682036103f757565b602435906001600160a01b03821682036103f757565b604435906001600160a01b03821682036103f757565b634e487b7160e01b5f52604160045260245ffd5b604081019081106001600160401b038211176106be57604052565b61068f565b90601f801991011681019081106001600160401b038211176106be57604052565b604051906106f36040836106c3565b565b604051906106f36080836106c3565b6001600160401b0381116106be57601f01601f191660200190565b92919261072b82610704565b9161073960405193846106c3565b8294818452818301116103f7578281602093845f960137010152565b9080601f830112156103f75781602061053e9335910161071f565b346103f75760803660031901126103f75761078961064d565b50610792610663565b506064356001600160401b0381116103f7576107b2903690600401610755565b50604051630a85bd0160e11b8152602090f35b6001600160401b0381116106be5760051b60200190565b9080601f830112156103f7578135906107f4826107c5565b9261080260405194856106c3565b82845260208085019360051b8201019182116103f757602001915b81831061082a5750505090565b82356001600160a01b03811681036103f75781526020928301920161081d565b9080601f830112156103f7578135610861816107c5565b9261086f60405194856106c3565b81845260208085019260051b8201019283116103f757602001905b8282106108975750505090565b813581526020918201910161088a565b9080601f830112156103f75781356108be816107c5565b926108cc60405194856106c3565b81845260208085019260051b820101918383116103f75760208201905b8382106108f857505050505090565b81356001600160401b0381116103f75760209161091a87848094880101610755565b8152019101906108e9565b60806003198201126103f7576004356001600160401b0381116103f7578161094f916004016107dc565b916024356001600160401b0381116103f7578261096e9160040161084a565b91604435906001600160401b0382116103f75761098d916004016108a7565b9060643590565b346103f7576109a236610925565b92919091611c5c565b90602080835192838152019201905f5b8181106109c85750505090565b82516001600160a01b03168452602093840193909201916001016109bb565b90602080835192838152019201905f5b818110610a045750505090565b82518452602093840193909201916001016109f7565b9080602083519182815201916020808360051b8301019401925f915b838310610a4557505050505090565b9091929394602080610a63600193601f198682030187528951610509565b97019301930191939290610a36565b949392610a9e606093610a90610aac9460808a5260808a01906109ab565b9088820360208a01526109e7565b908682036040880152610a1a565b930152565b346103f75760203660031901126103f757610595610ad0600435611d7d565b9060409492945194859485610a72565b6020610af7610aee36610925565b92919091611e35565b604051908152f35b346103f75760203660031901126103f7576004355f526004602052602065ffffffffffff60405f205460a01c16604051908152f35b346103f75760203660031901126103f757600435600954811015610bd057610bb89060095f527f6e1540171b6c0c960b71a7020d9f60077f6af931a8bbf590da0223dacf75c7af0154610bc6610b8982611d7d565b9392959091610baa604051978897885260a0602089015260a08801906109ab565b9086820360408801526109e7565b908482036060860152610a1a565b9060808301520390f35b611e0d565b346103f7575f3660031901126103f75760206040517f3e83946653575f9a39005e1545185629e92736b7528ab20ca3816f315424a8118152f35b346103f7575f3660031901126103f757602065ffffffffffff60085416604051908152f35b634e487b7160e01b5f52602160045260245ffd5b6008811015610c5657602452565b610c34565b346103f75760203660031901126103f757610c77600435611f79565b6040516008821015610c56576020918152f35b346103f75760203660031901126103f7576004355f52600a60205261001860405f20600381015490610cbb81611c80565b90610cd46002610ccd60018401611cd1565b9201611d19565b91612093565b346103f75760403660031901126103f757602060ff610d20600435610cfd610663565b905f52600b8452600360405f20019060018060a01b03165f5260205260405f2090565b54166040519015158152f35b346103f7576020610af7610d3f36610925565b92919091612093565b346103f7575f3660031901126103f75760206001600160e01b03610d6a6127a1565b16604051908152f35b346103f7575f3660031901126103f757610595604051610d946040826106c3565b600e81526d06d6f64653d74696d657374616d760941b6020820152604051918291602083526020830190610509565b346103f75760203660031901126103f7576004355f52600b602052606060405f20805490600260018201549101549060405192835260208301526040820152f35b346103f7575f3660031901126103f757610595604051610e256040826106c3565b60018152603160f81b6020820152604051918291602083526020830190610509565b6024359060ff821682036103f757565b346103f75760403660031901126103f7576020610af7600435610e78610e47565b60405191610e8685846106c3565b5f835233906127e5565b9181601f840112156103f7578235916001600160401b0383116103f757602083818601950101116103f757565b346103f75760c03660031901126103f757600435610ed9610e47565b90610ee2610679565b906064356001600160401b0381116103f757610f02903690600401610e90565b6084356001600160401b0381116103f757610f21903690600401610755565b9160a435946001600160401b0386116103f75761059596610f49610f4f973690600401610755565b9561215c565b6040519081529081906020820190565b346103f75760203660031901126103f7576020610af7600435612284565b346103f75760803660031901126103f757600435610f99610e47565b906044356001600160401b0381116103f757610fb9903690600401610e90565b9190926064356001600160401b0381116103f757610ff294610fe2610fea923690600401610755565b94369161071f565b91339061295f565b604051908152602090f35b346103f75760203660031901126103f7576020610af760043561233a565b346103f75760203660031901126103f75761103461064d565b600e5490336001600160a01b03831614801590816110e5575b61105690611b9c565b3033141590816110dd575b50611082576001600160a01b03166001600160a01b03199190911617600e55005b60405162461bcd60e51b815260206004820152602d60248201527f4f6e6c792061646d696e206f72206578656375746f722063616e2063616c6c2060448201526c3a3434b990333ab731ba34b7b760991b6064820152608490fd5b90505f611061565b5033301461104d565b346103f75760203660031901126103f75760043565ffffffffffff81168091036103f75761111a612c47565b6008547fc565b045403dc03c2eea82b81a0465edad9e2e7fc4d97e11421c209da93d7a936040805165ffffffffffff84168152846020820152a165ffffffffffff191617600855005b346103f75760603660031901126103f75760043561117f610e47565b90604435906001600160401b0382116103f7576020926111b06111a9610af7943690600401610e90565b369161071f565b9133906127e5565b346103f75760803660031901126103f7576004356001600160401b0381116103f7576111e89036906004016107dc565b6024356001600160401b0381116103f75761120790369060040161084a565b906044356001600160401b0381116103f7576112279036906004016108a7565b90606435916001600160401b0383116103f757366023840112156103f75761059593611260610f4f94369060248160040135910161071f565b92612c63565b346103f75760203660031901126103f7576001600160a01b0361128761064d565b165f526002602052602060405f2054604051908152f35b346103f7575f3660031901126103f7576113406112da7f00000000000000000000000000000000000000000000000000000000000000006132d2565b6105956113067f000000000000000000000000000000000000000000000000000000000000000061332a565b61134e604051916113186020846106c3565b5f808452366020850137604051958695600f60f81b875260e0602088015260e0870190610509565b908582036040870152610509565b904660608501523060808501525f60a085015283820360c08501526109e7565b346103f75760803660031901126103f75760043561138a610e47565b90611393610679565b916064356001600160401b0381116103f7576114476113b961144b923690600401610755565b6001600160a01b0386165f9081526002602052604090208054600181019091556114419060405160208101917ff2aad550cf55f045cb27e9c559f9889fdfb6e6cdaa032301d6ea397784ae51d7835288604083015260ff8816606083015260018060a01b038a16608083015260a082015260a0815261143960c0826106c3565b519020612802565b86612832565b1590565b6114665790610f4f9161059593611460612148565b926127e5565b6394ab6c0760e01b5f526001600160a01b03831660045260245ffd5b5ffd5b346103f7575f3660031901126103f75760206114a042612c18565b65ffffffffffff60405191168152f35b346103f7575f3660031901126103f75760206040516127108152f35b346103f75760603660031901126103f7576114e561064d565b6024356044356001600160401b0381116103f757611507903690600401610755565b5060405163277166bf60e11b81526001600160a01b039283166004820152602481019190915290602090829060449082907f0000000000000000000000000000000000000000000000000000000000000000165afa80156115a7575f9061157357604051908152602090f35b506020813d60201161159f575b8161158d602093836106c3565b810103126103f7576105959051610ff2565b3d9150611580565b612d8e565b346103f7575f3660031901126103f75760206001600160d01b03610d6a612d99565b346103f75760203660031901126103f75760206040515f8152f35b346103f75760203660031901126103f7576020610af76004355f52600460205265ffffffffffff600160405f2001541690565b346103f75760403660031901126103f7576004356024359060018060a01b03600e5416331480156116c8575b61165190611b9c565b61166b6001600160e01b036116646127a1565b1692612aaf565b916001600160e01b0382116116b0577fd847752640337969f783ba291f56251d6165ba92dd3d27984ad0f81995aef0b6926104bc906001600160e01b038416906133bd565b506306dfcc6560e41b5f5260e060045260245260445ffd5b50333014611648565b346103f7575f3660031901126103f7576020600754604051908152f35b346103f75760a03660031901126103f75761170761064d565b50611710610663565b506044356001600160401b0381116103f75761173090369060040161084a565b506064356001600160401b0381116103f75761175090369060040161084a565b506084356001600160401b0381116103f757611770903690600401610755565b5060405163bc197c8160e01b8152602090f35b346103f75760203660031901126103f7576020610af760043561247a565b60603660031901126103f7576117b561064d565b6024356044356001600160401b0381116103f757610018925f926117de84933690600401610e90565b91906117e8612c47565b826040519384928337810185815203925af16118026124c1565b90612ddd565b346103f7576020610af761181b36610925565b929190916124f0565b346103f7575f3660031901126103f7576020600954604051908152f35b346103f7575f3660031901126103f7576105956040516118626040826106c3565b602081527f737570706f72743d627261766f2671756f72756d3d666f722c6162737461696e6020820152604051918291602083526020830190610509565b346103f75760203660031901126103f7576004355f52600a60205260405f206003810154906118ce81611c80565b906118e06002610ccd60018401611cd1565b91611c5c565b346103f7575f3660031901126103f75760206040517ff2aad550cf55f045cb27e9c559f9889fdfb6e6cdaa032301d6ea397784ae51d78152f35b346103f75760203660031901126103f75760043563ffffffff8116908181036103f75761194b612c47565b81156119b35769ffffffff000000000000907f7e3f7f0708a84de9203036abaa450dccc85ad5ff52f78c170f3edb55cf5e882860406008549481519063ffffffff8760301c1682526020820152a160301b169069ffffffff0000000000001916176008555f80f35b63f1cfbf0560e01b5f525f60045260245ffd5b346103f75760403660031901126103f7576119df61064d565b6024356020905f6040516119f384826106c3565b5260405163277166bf60e11b81526001600160a01b0393841660048201526024810191909152918190839060449082907f0000000000000000000000000000000000000000000000000000000000000000165afa9081156115a7575f91611a60575b604051828152602090f35b905081813d8311611a89575b611a7681836106c3565b810103126103f75761059590515f611a55565b503d611a6c565b346103f75760203660031901126103f757600435611aac612c47565b60075460408051918252602082018390527fccb45da8d5717e6c4544694297c4ba5cf151d455c9bb0ed4fc7a38411bc0546191a1600755005b346103f75760a03660031901126103f757611afe61064d565b50611b07610663565b506084356001600160401b0381116103f757611b27903690600401610755565b5060405163f23a6e6160e01b8152602090f35b346103f75760203660031901126103f7576020610af760043561253c565b60203660031901126103f7576004355f52600a60205261001860405f20600381015490611b8481611c80565b90611b966002610ccd60018401611cd1565b91611e35565b1561108257565b90600182811c92168015611bd1575b6020831014611bbd57565b634e487b7160e01b5f52602260045260245ffd5b91607f1691611bb2565b5f9291815491611bea83611ba3565b8083529260018116908115611c3f5750600114611c0657505050565b5f9081526020812093945091925b838310611c25575060209250010190565b600181602092949394548385870101520191019190611c14565b915050602093945060ff929192191683830152151560051b010190565b91611c709391611c6b936124f0565b612593565b50634844252360e11b5f5260045ffd5b90604051918281549182825260208201905f5260205f20925f5b818110611caf5750506106f3925003836106c3565b84546001600160a01b0316835260019485019487945060209093019201611c9a565b90604051918281549182825260208201905f5260205f20925f5b818110611d005750506106f3925003836106c3565b8454835260019485019487945060209093019201611ceb565b908154611d25816107c5565b92611d3360405194856106c3565b81845260208401905f5260205f205f915b838310611d515750505050565b600160208192604051611d6f81611d688189611bdb565b03826106c3565b815201920192019190611d44565b805f52600a60205260405f209160405190608082018281106001600160401b038211176106be57604052611db084611c80565b8252611dbe60018501611cd1565b91602081019283526003611dd460028701611d19565b9560408301968752015493606082019480865215611dfb5750519151935192519193929190565b636ad0607560e01b5f5260045260245ffd5b634e487b7160e01b5f52603260045260245ffd5b8051821015610bd05760209160051b010190565b919092611e44908285856124f0565b92602092611e53603086612653565b50611e7c611e69865f52600460205260405f2090565b805460ff60f01b1916600160f01b179055565b5f935b5090611e8b92916126f0565b80611ed3575b611eca575b6040518181527f712ae1383f79ac853f8d882153778e0260ef8f03b504e2866e0593e04d2b291f9080602081015b0390a190565b5f600555611e96565b50611eef6114476005546001600160801b0381169060801c1490565b611e91565b8451811015611f545760019030611f2a611f1e611f11848a611e21565b516001600160a01b031690565b6001600160a01b031690565b14611f36575b01611ef4565b611f4f611f438289611e21565b518a8151910120612691565b611f30565b5091955093909291611e8b611e7f565b8054821015610bd0575f5260205f2001905f90565b611f8b815f52600460205260405f2090565b5460f881901c9060f01c60ff1661208c5761208657611fd2611fc7611fb8835f52600460205260405f2090565b5460a01c65ffffffffffff1690565b65ffffffffffff1690565b801561207257611fe3611fc7612d85565b8091101561206c57611ff48261247a565b10611fff5750600190565b61200b6114478261276c565b8015612049575b1561201d5750600390565b61203b905f52600460205265ffffffffffff600160405f2001541690565b61204457600490565b600590565b50612067611447825f52600b60205260405f20600181015490541090565b612012565b50505f90565b636ad0607560e01b5f52600482905260245ffd5b50600290565b5050600790565b9291906120a2838383876124f0565b6120ab816125d3565b505f908152600460205260409020546001600160a01b03163303612135576120d2936124f0565b6120dd603b82612653565b506120f0815f52600460205260405f2090565b80546001600160f81b0316600160f81b1790556040518181527f789cf55be980739dad1d0699b93b58e806b51c9d96619bfa8fe0a28abaa7b30c908060208101611ec4565b63233d98e360e01b5f523360045260245ffd5b604051906121576020836106c3565b5f8252565b939092919695611447612217916122118a6121908160018060a01b03165f52600260205260405f2080549060018201905590565b61219b36888a61071f565b602081519101208b5160208d0120906040519260208401947f3e83946653575f9a39005e1545185629e92736b7528ab20ca3816f315424a81186528d604086015260ff8d16606086015260018060a01b0316608085015260a084015260c083015260e082015260e08152611439610100826106c3565b8a612832565b6122325761053e95969161222c91369161071f565b9261295f565b6394ab6c0760e01b5f526001600160a01b03871660045260245ffd5b634e487b7160e01b5f52601160045260245ffd5b5f1981019190821161227057565b61224e565b60271981019190821161227057565b600d545f1981019081116122705761229b90612aaf565b5f60206040516122aa816106a3565b8281520152600d54811015610bd057600d5f526122e8907fd7b6990105719101dabeb77144f2a3385c8033acd3af97e9423a695e81ad1eb501612ada565b81612304602063ffffffff84511693015160018060e01b031690565b91111561232c575061232061231b61053e92612aaf565b612afc565b6001600160e01b031690565b6001600160e01b0316919050565b600f54905f19820182811161227057821115610bd057600f5f527f8d1108e10bcb7c27dddfc02ed9d693a074039d026cf4ea4240b40f7d581ac8018201548165ffffffffffff82161115612471575061239290612c18565b5f829160058411612400575b6123a893506131b2565b806123b257505f90565b6123f46123ed6123c461053e93612262565b600f5f527f8d1108e10bcb7c27dddfc02ed9d693a074039d026cf4ea4240b40f7d581ac8020190565b5460301c90565b6001600160d01b031690565b919261240b8161303f565b8103908111612270576123a893600f5f5265ffffffffffff827f8d1108e10bcb7c27dddfc02ed9d693a074039d026cf4ea4240b40f7d581ac80201541665ffffffffffff8516105f1461245f57509161239e565b92915061246b90612751565b9061239e565b91505060301c90565b805f52600460205265ffffffffffff60405f205460a01c16905f52600460205263ffffffff60405f205460d01c160165ffffffffffff81116122705765ffffffffffff1690565b3d156124eb573d906124d282610704565b916124e060405193846106c3565b82523d5f602084013e565b606090565b929061250a61251892604051948593602085019788610a72565b03601f1981018352826106c3565b51902090565b8115612528570490565b634e487b7160e01b5f52601260045260245ffd5b61254e61254882612284565b9161233a565b9081810291818304149015171561227057612710900490565b6008811015610c565760ff600191161b90565b600452606491906008811015610c56576024525f604452565b61259c81611f79565b9060106125a883612567565b16156125b2575090565b6331b75e4d60e01b5f526004526125c99150610c48565b601060445260645ffd5b6125dc81611f79565b9060016125e883612567565b16156125f2575090565b6331b75e4d60e01b5f526004526126099150610c48565b600160445260645ffd5b61261c81611f79565b90600261262883612567565b1615612632575090565b6331b75e4d60e01b5f526004526126499150610c48565b600260445260645ffd5b9061265d82611f79565b918161266884612567565b161561267357505090565b6331b75e4d60e01b5f5260045261268982610c48565b60445260645ffd5b600554908160801c6001600160801b036001820193166001600160801b038416146126e1575f52600660205260405f20556001600160801b036005549181199082199060801b1616911617600555565b638acb5f2760e01b5f5260045ffd5b9291925f5b815181101561274a576001906127435f806001600160a01b036127188588611e21565b51166127248589611e21565b5190612730868c611e21565b5191602083519301915af16118026124c1565b50016126f5565b5050509050565b906001820180921161227057565b9190820180921161227057565b805f52600b60205261278961278460405f209261247a565b61253c565b60026001830154920154820180921161227057111590565b600d54806127ae57505f90565b805f1981011161227057600d5f527fd7b6990105719101dabeb77144f2a3385c8033acd3af97e9423a695e81ad1eb4015460201c90565b9161053e9391604051936127fa6020866106c3565b5f855261295f565b60429061280d612e03565b906040519161190160f01b8352600283015260228201522090565b60041115610c5657565b9061283d8382612f19565b5061284a81959295612828565b1593846128e9575b508315612860575b50505090565b5f93509061250a6128988594936040519283916020830195630b135d3f60e11b87526024840152604060448401526064830190610509565b51915afa6128a46124c1565b816128db575b816128b9575b505f808061285a565b90506020818051810103126103f75760200151630b135d3f60e11b145f6128b0565b9050602081511015906128aa565b6001600160a01b0384811691161493505f612852565b93909260ff61292b9361053e97958752166020860152604085015260a0606085015260a0840190610509565b916080818403910152610509565b909260ff60809361053e9695845216602083015260408201528160608201520190610509565b939291909361296d81612613565b50805f52600460205265ffffffffffff61299460405f2065ffffffffffff905460a01c1690565b16936040519563277166bf60e11b875260018060a01b03811695866004890152602488015260208760448160018060a01b037f0000000000000000000000000000000000000000000000000000000000000000165afa9687156115a7575f97612a77575b508684612a059285612f53565b8051612a445750612a3e7fb8e138887d0aa13bab447e82de9d5c1777041ecd21ca36ba824ff1e6c07ddda4938660405194859485612939565b0390a290565b612a3e907fe2babfbac5889a709b63bb7f598b324e08bc5a4fb9ec647fb3cbc9ec07eb87129487604051958695866128ff565b909396506020813d602011612aa7575b81612a94602093836106c3565b810103126103f757519592612a056129f8565b3d9150612a87565b63ffffffff8111612ac35763ffffffff1690565b6306dfcc6560e41b5f52602060045260245260445ffd5b90604051612ae7816106a3565b602081935463ffffffff81168352811c910152565b600d54905f918060058211612bab575b63ffffffff91509291165b828210612b6957505080612b2a57505f90565b612b62612b3961053e92612262565b600d5f527fd7b6990105719101dabeb77144f2a3385c8033acd3af97e9423a695e81ad1eb50190565b5460201c90565b9091612b7581846136cc565b90600d5f528263ffffffff8360205f20015416115f14612b985750915b90612b17565b92506001810180911115612b925761224e565b612bb48261303f565b820391821161227057600d5f527fd7b6990105719101dabeb77144f2a3385c8033acd3af97e9423a695e81ad1eb582015463ffffffff9081169084161015612c02575063ffffffff90612b0c565b9250612c1263ffffffff91612751565b92612b0c565b65ffffffffffff8111612c305765ffffffffffff1690565b6306dfcc6560e41b5f52603060045260245260445ffd5b333003612c5057565b6347096e4760e01b5f523360045260245ffd5b9193929093612c72823361321b565b15612d72575f1965ffffffffffff612c8942612c18565b16019465ffffffffffff8611612270576020955f604051612caa89826106c3565b5260405163277166bf60e11b815233600482015265ffffffffffff91909116602482015286816044817f00000000000000000000000000000000000000000000000000000000000000006001600160a01b03165afa9687156115a7575f97612d42575b5050600754808710612d27575061053e9495503393613aa9565b636121770b60e11b5f5233600452602487905260445260645ffd5b9080929750813d8311612d6b575b612d5a81836106c3565b810103126103f75751945f80612d0d565b503d612d50565b63d9b3955760e01b5f523360045260245ffd5b61053e42612c18565b6040513d5f823e3d90fd5b600f5480612da657505f90565b805f1981011161227057600f5f527f8d1108e10bcb7c27dddfc02ed9d693a074039d026cf4ea4240b40f7d581ac801015460301c90565b9091906106f35750805115612df457805190602001fd5b630a12f52160e11b5f5260045ffd5b307f00000000000000000000000000000000000000000000000000000000000000006001600160a01b03161480612ef0575b15612e5e577f000000000000000000000000000000000000000000000000000000000000000090565b60405160208101907f8b73c3c69bb8fe3d512ecc4cf759cc79239f7b179b0ffacaa9a75d522b39400f82527f000000000000000000000000000000000000000000000000000000000000000060408201527f000000000000000000000000000000000000000000000000000000000000000060608201524660808201523060a082015260a0815261251860c0826106c3565b507f00000000000000000000000000000000000000000000000000000000000000004614612e35565b8151919060418303612f4957612f429250602082015190606060408401519301515f1a90613638565b9192909190565b50505f9160029190565b909160ff16906003821461303957612f73905f52600b60205260405f2090565b9160038301612f9c612f9583839060018060a01b03165f5260205260405f2090565b5460ff1690565b61301d57612fca91612fbd919060018060a01b03165f5260205260405f2090565b805460ff19166001179055565b80612fe0575090612fdc90825461275f565b9055565b60018103612ff857506001612fdc910191825461275f565b60020361300e576002612fdc910191825461275f565b6303599be160e11b5f5260045ffd5b6371c6af4960e01b5f526001600160a01b03821660045260245ffd5b50505050565b80156131ad5761053e9061314361313c61313261312861311e61311461310a61310060016130ee5f8b608081901c8061319f575b50806130826130e49260401c90565b80613192575b506130938160201c90565b80613185575b506130a48160101c90565b80613178575b506130b58160081c90565b8061316b575b506130c68160041c90565b8061315e575b506130d78160021c90565b80613151575b5060011c90565b6131495760011c90565b1b6130f9818b61251e565b0160011c90565b6130f9818a61251e565b6130f9818961251e565b6130f9818861251e565b6130f9818761251e565b6130f9818661251e565b6130f9818561251e565b809261251e565b906136ba565b820160011c90565b600291509201915f6130dd565b600491509201915f6130cc565b600891509201915f6130bb565b601091509201915f6130aa565b602091509201915f613099565b604091509201915f613088565b6080925090506130e4613073565b505f90565b8282106131be57505090565b90916131ca81846136cc565b90600f5f5265ffffffffffff8260205f2001541665ffffffffffff8416105f146131f75750915b906131b2565b925060018101809111156131f15761224e565b908151811015610bd0570160200190565b8151603481106132ca5760131981840101516001600160a01b0319166b1b91f1b211f2119351b859f160a31b016132ca57915f9261325881612275565b915b818310613275575050506001600160a01b0391821691161490565b90919361329b613296613288878561320a565b516001600160f81b03191690565b6136e1565b90156132bf5760019160ff9060041b6010600160a01b03169116179401919061325a565b505050505050600190565b505050600190565b60ff81146133185760ff811690601f821161330957604051916132f66040846106c3565b6020808452838101919036833783525290565b632cd44ac360e21b5f5260045ffd5b5060405161053e81611d68815f611bdb565b60ff811461334e5760ff811690601f821161330957604051916132f66040846106c3565b5060405161053e81611d68816001611bdb565b634e487b7160e01b5f525f60045260245ffd5b8054600160401b8110156106be5761339191600182018155611f64565b6133b857815160209283015190921b63ffffffff191663ffffffff92909216919091179055565b613361565b600d549192919081156134a757816133e46133df612b3963ffffffff95612262565b612ada565b906133f3825163ffffffff1690565b8484169485911611613498578560209361345b95613421613418865163ffffffff1690565b63ffffffff1690565b0361345f5750613436612b3961344d93612262565b9063ffffffff82549181199060201b169116179055565b01516001600160e01b031690565b9190565b9050613493915061347d6134716106e4565b63ffffffff9092168252565b6001600160e01b038716818501525b600d613374565b61344d565b632520601d60e01b5f5260045ffd5b6134cb91506134b76134716106e4565b6001600160e01b038416602082015261348c565b5f9190565b8054600160401b8110156106be576134ed91600182018155611f64565b6133b857815160209092015160301b65ffffffffffff191665ffffffffffff92909216919091179055565b90604051613525816106a3565b915465ffffffffffff8116835260301c6020830152565b600f5491929190811561361457816135656135606123c465ffffffffffff95612262565b613518565b90613576825165ffffffffffff1690565b8484169485911611613498578560209361345b9561359d611fc7865165ffffffffffff1690565b036135d957506135b26123c46135cb93612262565b9065ffffffffffff82549181199060301b169116179055565b01516001600160d01b031690565b905061360f91506135f96135eb6106e4565b65ffffffffffff9092168252565b6001600160d01b038716818501525b600f6134d0565b6135cb565b6134cb91506136246135eb6106e4565b6001600160d01b0384166020820152613608565b91907f7fffffffffffffffffffffffffffffff5d576e7357a4501ddfe92f46681b20a084116136af579160209360809260ff5f9560405194855216868401526040830152606082015282805260015afa156115a7575f516001600160a01b038116156136a557905f905f90565b505f906001905f90565b5050505f9160039190565b90808210156136c7575090565b905090565b90808216911860011c81018091116122705790565b60f81c9081602f1080613754575b1561370157600191602f190160ff1690565b816040108061374a575b1561371d576001916036190160ff1690565b8160601080613740575b15613739576001916056190160ff1690565b5f91508190565b5060678210613727565b506047821061370b565b50603a82106136ef565b600954600160401b8110156106be5760018101600955600954811015610bd05760095f527f6e1540171b6c0c960b71a7020d9f60077f6af931a8bbf590da0223dacf75c7af0155565b8181106137b2575050565b5f81556001016137a7565b918181106137ca57505050565b6106f3925f5260205f2091820191016137a7565b8151916001600160401b0383116106be57600160401b83116106be5760209061380c848454818655856137bd565b01905f5260205f205f5b8381106138235750505050565b600190602084519401938184015501613816565b9190601f811161384657505050565b6106f3925f5260205f20906020601f840160051c83019310613870575b601f0160051c01906137a7565b9091508190613863565b91909182516001600160401b0381116106be576138a18161389b8454611ba3565b84613837565b6020601f82116001146138dc578190612fdc9394955f926138d1575b50508160011b915f199060031b1c19161790565b015190505f806138bd565b601f198216906138ef845f5260205f2090565b915f5b81811061392957509583600195969710613911575b505050811b019055565b01515f1960f88460031b161c191690555f8080613907565b9192602060018192868b0151815501940192016138f2565b815191600160401b83116106be57815483835580841061399b575b50602061396e9101915f5260205f2090565b5f915b83831061397e5750505050565b600160208261398f8394518661387a565b01920192019190613971565b825f528360205f2091820191015b8181106139b6575061395c565b806139c360019254611ba3565b806139d0575b50016139a9565b601f811183146139e557505f81555b5f6139c9565b613a079083601f6139f9855f5260205f2090565b920160051c820191016137a7565b5f81815260208120818355556139df565b9080518051906001600160401b0382116106be57600160401b82116106be57602090613a49838654818855876137bd565b01835f5260205f205f5b838110613a8c5750505050606081613a7460206003940151600186016137de565b613a85604082015160028601613941565b0151910155565b82516001600160a01b031681830155602090920191600101613a53565b919493948351613ac1602086019182208385876124f0565b948451845190818114801590613c9d575b8015613c95575b613c7857505065ffffffffffff613afb611fb8885f52600460205260405f2090565b16613c5b577f7d84a6263ae0d98d3329bd7b46bb4e8d6f98cd35a7adb45c274c8b7fd5ebd5e086979861053e97613c1a8489613b5b613b3942612c18565b65ffffffffffff613b54611fc765ffffffffffff6008541690565b911661275f565b89613b7161341863ffffffff60085460301c1690565b613bf8613b86885f52600460205260405f2090565b80546001600160a01b0319166001600160a01b038b16178155613bcf613bab86612c18565b825465ffffffffffff60a01b191660a09190911b65ffffffffffff60a01b16178255565b613bd883612aaf565b815463ffffffff60d01b191660d09190911b63ffffffff60d01b16179055565b8c613c0d613c068651613ca8565b928561275f565b94604051998a998a613cf1565b0390a1613c268761375e565b51902091613c326106f5565b938452602084015260408301526060820152613c56835f52600a60205260405f2090565b613a18565b61148286613c6881611f79565b6331b75e4d60e01b5f529061257a565b8451630447b05d60e41b5f5260049190915260245260445260645ffd5b508015613ad9565b508451811415613ad2565b90613cb2826107c5565b613cbf60405191826106c3565b8281528092613cd0601f19916107c5565b01905f5b828110613ce057505050565b806060602080938501015201613cd4565b959998969794939192613d3293613d2492885260018060a01b0316602088015261012060408801526101208701906109ab565b9085820360608701526109e7565b968388036080850152815180895260208901906020808260051b8c01019401915f905b828210613d91575050505061053e96975090613d789184820360a0860152610a1a565b9360c083015260e0820152610100818403910152610509565b90919294602080613daf6001938f601f199082030186528951610509565b970192019201909291613d5556fea2646970667358221220c5ade8bc4a39edeb05cafe92e741bb89458f6f03978956c221a0805dec99ecbc64736f6c634300081a00330553476bf02ef2726e8ce5ced78d63e26e602e4a2257b1f559418e24b4633997","linkReferences":{}},"methodIdentifiers":{"BALLOT_TYPEHASH()":"deaaa7cc","CLOCK_MODE()":"4bf5d7e9","COUNTING_MODE()":"dd4e2ba5","EXTENDED_BALLOT_TYPEHASH()":"2fe3e261","cancel(address[],uint256[],bytes[],bytes32)":"452115d6","cancel(uint256)":"40e58ee5","castVote(uint256,uint8)":"56781388","castVoteBySig(uint256,uint8,address,bytes)":"8ff262e3","castVoteWithReason(uint256,uint8,string)":"7b3c71d3","castVoteWithReasonAndParams(uint256,uint8,string,bytes)":"5f398a14","castVoteWithReasonAndParamsBySig(uint256,uint8,address,string,bytes,bytes)":"5b8d0e0d","clock()":"91ddadf4","eip712Domain()":"84b0196e","execute(address[],uint256[],bytes[],bytes32)":"2656227d","execute(uint256)":"fe0d94c1","getVotes(address,uint256)":"eb9019d4","getVotesWithParams(address,uint256,bytes)":"9a802a6d","hasVoted(uint256,address)":"43859632","hashProposal(address[],uint256[],bytes[],bytes32)":"c59057e4","latestTotalSupply()":"4af170c1","name()":"06fdde03","nonces(address)":"7ecebe00","onERC1155BatchReceived(address,address,uint256[],uint256[],bytes)":"bc197c81","onERC1155Received(address,address,uint256,uint256,bytes)":"f23a6e61","onERC721Received(address,address,uint256,bytes)":"150b7a02","pastTotalSupply(uint256)":"5c7e5d5f","proposalCount()":"da35c664","proposalDeadline(uint256)":"c01f9e37","proposalDetails(uint256)":"16e9eaec","proposalDetailsAt(uint256)":"2e82db94","proposalEta(uint256)":"ab58fb8e","proposalNeedsQueuing(uint256)":"a9a95294","proposalProposer(uint256)":"143489d0","proposalSnapshot(uint256)":"2d63f693","proposalThreshold()":"b58131b0","proposalVotes(uint256)":"544ffc9c","propose(address[],uint256[],bytes[],string)":"7d5e81e2","queue(address[],uint256[],bytes[],bytes32)":"160cbed7","queue(uint256)":"ddf0b009","quorum(uint256)":"f8ce560a","quorumDenominator()":"97c3d334","quorumNumerator()":"a7713a70","quorumNumerator(uint256)":"60c4247f","relay(address,uint256,bytes)":"c28bc2fa","setAdmin(address)":"704b6c02","setProposalThreshold(uint256)":"ece40cc1","setTotalSupply(uint256,uint256)":"b0a4d7d3","setVotingDelay(uint48)":"79051887","setVotingPeriod(uint32)":"e540d01d","state(uint256)":"3e4f49e6","supportsInterface(bytes4)":"01ffc9a7","updateQuorumNumerator(uint256)":"06f3f9e6","version()":"54fd4d50","votingDelay()":"3932abb1","votingPeriod()":"02a251a3"},"id":38}