{"abi":[{"type":"constructor","inputs":[{"name":"router_","type":"address","internalType":"address"},{"name":"token0","type":"address","internalType":"address"},{"name":"token1","type":"address","internalType":"address"}],"stateMutability":"nonpayable"},{"type":"function","name":"approval","inputs":[{"name":"_user","type":"address","internalType":"address"},{"name":"_token","type":"address","internalType":"address"},{"name":"amount","type":"uint256","internalType":"uint256"}],"outputs":[{"name":"","type":"bool","internalType":"bool"}],"stateMutability":"nonpayable"},{"type":"function","name":"assetBalance","inputs":[],"outputs":[{"name":"","type":"uint256","internalType":"uint256"}],"stateMutability":"view"},{"type":"function","name":"balance","inputs":[],"outputs":[{"name":"","type":"uint256","internalType":"uint256"}],"stateMutability":"view"},{"type":"function","name":"getReserves","inputs":[],"outputs":[{"name":"","type":"uint256","internalType":"uint256"},{"name":"","type":"uint256","internalType":"uint256"}],"stateMutability":"view"},{"type":"function","name":"kLast","inputs":[],"outputs":[{"name":"","type":"uint256","internalType":"uint256"}],"stateMutability":"view"},{"type":"function","name":"mint","inputs":[{"name":"reserve0","type":"uint256","internalType":"uint256"},{"name":"reserve1","type":"uint256","internalType":"uint256"}],"outputs":[{"name":"","type":"bool","internalType":"bool"}],"stateMutability":"nonpayable"},{"type":"function","name":"priceALast","inputs":[],"outputs":[{"name":"","type":"uint256","internalType":"uint256"}],"stateMutability":"view"},{"type":"function","name":"priceBLast","inputs":[],"outputs":[{"name":"","type":"uint256","internalType":"uint256"}],"stateMutability":"view"},{"type":"function","name":"router","inputs":[],"outputs":[{"name":"","type":"address","internalType":"address"}],"stateMutability":"view"},{"type":"function","name":"swap","inputs":[{"name":"amount0In","type":"uint256","internalType":"uint256"},{"name":"amount0Out","type":"uint256","internalType":"uint256"},{"name":"amount1In","type":"uint256","internalType":"uint256"},{"name":"amount1Out","type":"uint256","internalType":"uint256"}],"outputs":[{"name":"","type":"bool","internalType":"bool"}],"stateMutability":"nonpayable"},{"type":"function","name":"tokenA","inputs":[],"outputs":[{"name":"","type":"address","internalType":"address"}],"stateMutability":"view"},{"type":"function","name":"tokenB","inputs":[],"outputs":[{"name":"","type":"address","internalType":"address"}],"stateMutability":"view"},{"type":"function","name":"transferAsset","inputs":[{"name":"recipient","type":"address","internalType":"address"},{"name":"amount","type":"uint256","internalType":"uint256"}],"outputs":[],"stateMutability":"nonpayable"},{"type":"function","name":"transferTo","inputs":[{"name":"recipient","type":"address","internalType":"address"},{"name":"amount","type":"uint256","internalType":"uint256"}],"outputs":[],"stateMutability":"nonpayable"},{"type":"event","name":"Mint","inputs":[{"name":"reserve0","type":"uint256","indexed":false,"internalType":"uint256"},{"name":"reserve1","type":"uint256","indexed":false,"internalType":"uint256"}],"anonymous":false},{"type":"event","name":"Swap","inputs":[{"name":"amount0In","type":"uint256","indexed":false,"internalType":"uint256"},{"name":"amount0Out","type":"uint256","indexed":false,"internalType":"uint256"},{"name":"amount1In","type":"uint256","indexed":false,"internalType":"uint256"},{"name":"amount1Out","type":"uint256","indexed":false,"internalType":"uint256"}],"anonymous":false},{"type":"error","name":"AddressEmptyCode","inputs":[{"name":"target","type":"address","internalType":"address"}]},{"type":"error","name":"AddressInsufficientBalance","inputs":[{"name":"account","type":"address","internalType":"address"}]},{"type":"error","name":"FailedInnerCall","inputs":[]},{"type":"error","name":"ReentrancyGuardReentrantCall","inputs":[]},{"type":"error","name":"SafeERC20FailedOperation","inputs":[{"name":"token","type":"address","internalType":"address"}]}],"bytecode":{"object":"0x6080346100e357601f610a9f38819003918201601f19168301916001600160401b038311848410176100e7578084926060946040528339810103126100e357610047816100fb565b61005f6040610058602085016100fb565b93016100fb565b60015f556001600160a01b039091169161007a83151561010f565b6001600160a01b03169061008f82151561010f565b6001600160a01b0316916100a483151561010f565b60018060a01b0319600154161760015560018060a01b0319600254161760025560018060a01b03196003541617600355604051610943908161015c8239f35b5f80fd5b634e487b7160e01b5f52604160045260245ffd5b51906001600160a01b03821682036100e357565b1561011657565b60405162461bcd60e51b815260206004820152601f60248201527f5a65726f2061646472657373657320617265206e6f7420616c6c6f7765642e006044820152606490fdfe6080806040526004361015610012575f80fd5b5f3560e01c9081630902f1ac14610649575080630e06dfc9146106285780630fc63d10146106005780631b2ef1ca146105085780632ccb1b30146104ad5780635673b02d146103df5780635c52a5f2146102925780635c921eb9146102355780635c9d69381461020c5780635f64b55b146101e45780637464fc3d146101c7578063b69ef8a814610174578063c66f2455146100e25763f887ea40146100b6575f80fd5b346100de575f3660031901126100de576001546040516001600160a01b039091168152602090f35b5f80fd5b346100de575f3660031901126100de576003546040516370a0823160e01b815230600482015290602090829060249082906001600160a01b03165afa8015610169575f90610136575b602090604051908152f35b506020813d602011610161575b8161015060209383610727565b810103126100de576020905161012b565b3d9150610143565b6040513d5f823e3d90fd5b346100de575f3660031901126100de576002546040516370a0823160e01b815230600482015290602090829060249082906001600160a01b03165afa8015610169575f9061013657602090604051908152f35b346100de575f3660031901126100de576020600654604051908152f35b346100de575f3660031901126100de576003546040516001600160a01b039091168152602090f35b346100de575f3660031901126100de57602061022d60055460045490610682565b604051908152f35b346100de5760403660031901126100de5761029061025161066c565b61026660018060a01b036001541633146106a0565b61027a6001600160a01b0382161515610749565b60035460243591906001600160a01b03166107af565b005b346100de5760603660031901126100de576102ab61066c565b6024356001600160a01b03811691908290036100de576102d660018060a01b036001541633146106a0565b6001600160a01b038116916102ec831515610749565b6102f7811515610749565b60405163095ea7b360e01b602082019081526001600160a01b0393909316602482015260448035818301528152915f908190610334606486610727565b84519082855af1610343610870565b816103b0575b50806103a6575b15610361575b602060405160018152f35b61039961039e936040519063095ea7b360e01b602083015260248201525f604482015260448152610393606482610727565b82610805565b610805565b808080610356565b50803b1515610350565b80518015925082156103c5575b505084610349565b6103d892506020809183010191016107ed565b84806103bd565b346100de5760803660031901126100de577f298c349c742327269dc8de6ad66687767310c948ea309df826f5bd103e19d20760806004356024356044356064359161043560018060a01b036001541633146106a0565b61044a8161044586600454610795565b6107a2565b61045a8461044585600554610795565b6006549160405161046a816106f7565b81815282602082015283604082015260604291015260045560055560065542600755604051938452602084015260408301526060820152a1602060405160018152f35b346100de5760403660031901126100de576102906104c961066c565b6104de60018060a01b036001541633146106a0565b6104f26001600160a01b0382161515610749565b60025460243591906001600160a01b03166107af565b346100de5760403660031901126100de576004356024359061053560018060a01b036001541633146106a0565b6007546105ca57818102908082048314811517156105b6577fcc9c58b575eabd3f6a1ee653e91fcea3ff546867ffc3782a3bbca1f9b6dbb8df92604092835161057d816106f7565b838152826020820152818582015260604291015282600455816005556006554260075582519182526020820152a1602060405160018152f35b634e487b7160e01b5f52601160045260245ffd5b60405162461bcd60e51b815260206004820152600e60248201526d105b1c9958591e481b5a5b9d195960921b6044820152606490fd5b346100de575f3660031901126100de576002546040516001600160a01b039091168152602090f35b346100de575f3660031901126100de57602061022d60045460055490610682565b346100de575f3660031901126100de576040906004546005549082526020820152f35b600435906001600160a01b03821682036100de57565b811561068c570490565b634e487b7160e01b5f52601260045260245ffd5b156106a757565b60405162461bcd60e51b815260206004820152602260248201527f4f6e6c7920726f757465722063616e2063616c6c20746869732066756e63746960448201526137b760f11b6064820152608490fd5b6080810190811067ffffffffffffffff82111761071357604052565b634e487b7160e01b5f52604160045260245ffd5b90601f8019910116810190811067ffffffffffffffff82111761071357604052565b1561075057565b60405162461bcd60e51b815260206004820152601f60248201527f5a65726f2061646472657373657320617265206e6f7420616c6c6f7765642e006044820152606490fd5b919082018092116105b657565b919082039182116105b657565b60405163a9059cbb60e01b60208201526001600160a01b039290921660248301526044808301939093529181526107eb91610399606483610727565b565b908160209103126100de575180151581036100de5790565b5f8061082d9260018060a01b03169360208151910182865af1610826610870565b90836108af565b8051908115159182610855575b50506108435750565b635274afe760e01b5f5260045260245ffd5b61086892506020809183010191016107ed565b155f8061083a565b3d156108aa573d9067ffffffffffffffff8211610713576040519161089f601f8201601f191660200184610727565b82523d5f602084013e565b606090565b906108d357508051156108c457805190602001fd5b630a12f52160e11b5f5260045ffd5b81511580610904575b6108e4575090565b639996b31560e01b5f9081526001600160a01b0391909116600452602490fd5b50803b156108dc56fea26469706673582212201cd8ff2df80077e099c94afecb577b1cbc0258d43fa69eade3ab94f59e9248f464736f6c634300081a0033","linkReferences":{}},"methodIdentifiers":{"approval(address,address,uint256)":"5c52a5f2","assetBalance()":"c66f2455","balance()":"b69ef8a8","getReserves()":"0902f1ac","kLast()":"7464fc3d","mint(uint256,uint256)":"1b2ef1ca","priceALast()":"5c9d6938","priceBLast()":"0e06dfc9","router()":"f887ea40","swap(uint256,uint256,uint256,uint256)":"5673b02d","tokenA()":"0fc63d10","tokenB()":"5f64b55b","transferAsset(address,uint256)":"5c921eb9","transferTo(address,uint256)":"2ccb1b30"},"id":24}