{"abi":[{"type":"function","name":"DEFAULT_ADMIN_ROLE","inputs":[],"outputs":[{"name":"","type":"bytes32","internalType":"bytes32"}],"stateMutability":"view"},{"type":"function","name":"TOKEN_SAVER_ROLE","inputs":[],"outputs":[{"name":"","type":"bytes32","internalType":"bytes32"}],"stateMutability":"view"},{"type":"function","name":"getRoleAdmin","inputs":[{"name":"role","type":"bytes32","internalType":"bytes32"}],"outputs":[{"name":"","type":"bytes32","internalType":"bytes32"}],"stateMutability":"view"},{"type":"function","name":"grantRole","inputs":[{"name":"role","type":"bytes32","internalType":"bytes32"},{"name":"account","type":"address","internalType":"address"}],"outputs":[],"stateMutability":"nonpayable"},{"type":"function","name":"hasRole","inputs":[{"name":"role","type":"bytes32","internalType":"bytes32"},{"name":"account","type":"address","internalType":"address"}],"outputs":[{"name":"","type":"bool","internalType":"bool"}],"stateMutability":"view"},{"type":"function","name":"renounceRole","inputs":[{"name":"role","type":"bytes32","internalType":"bytes32"},{"name":"callerConfirmation","type":"address","internalType":"address"}],"outputs":[],"stateMutability":"nonpayable"},{"type":"function","name":"revokeRole","inputs":[{"name":"role","type":"bytes32","internalType":"bytes32"},{"name":"account","type":"address","internalType":"address"}],"outputs":[],"stateMutability":"nonpayable"},{"type":"function","name":"saveToken","inputs":[{"name":"_token","type":"address","internalType":"address"},{"name":"_receiver","type":"address","internalType":"address"},{"name":"_amount","type":"uint256","internalType":"uint256"}],"outputs":[],"stateMutability":"nonpayable"},{"type":"function","name":"supportsInterface","inputs":[{"name":"interfaceId","type":"bytes4","internalType":"bytes4"}],"outputs":[{"name":"","type":"bool","internalType":"bool"}],"stateMutability":"view"},{"type":"event","name":"RoleAdminChanged","inputs":[{"name":"role","type":"bytes32","indexed":true,"internalType":"bytes32"},{"name":"previousAdminRole","type":"bytes32","indexed":true,"internalType":"bytes32"},{"name":"newAdminRole","type":"bytes32","indexed":true,"internalType":"bytes32"}],"anonymous":false},{"type":"event","name":"RoleGranted","inputs":[{"name":"role","type":"bytes32","indexed":true,"internalType":"bytes32"},{"name":"account","type":"address","indexed":true,"internalType":"address"},{"name":"sender","type":"address","indexed":true,"internalType":"address"}],"anonymous":false},{"type":"event","name":"RoleRevoked","inputs":[{"name":"role","type":"bytes32","indexed":true,"internalType":"bytes32"},{"name":"account","type":"address","indexed":true,"internalType":"address"},{"name":"sender","type":"address","indexed":true,"internalType":"address"}],"anonymous":false},{"type":"event","name":"TokenSaved","inputs":[{"name":"by","type":"address","indexed":true,"internalType":"address"},{"name":"receiver","type":"address","indexed":true,"internalType":"address"},{"name":"token","type":"address","indexed":true,"internalType":"address"},{"name":"amount","type":"uint256","indexed":false,"internalType":"uint256"}],"anonymous":false},{"type":"error","name":"AccessControlBadConfirmation","inputs":[]},{"type":"error","name":"AccessControlUnauthorizedAccount","inputs":[{"name":"account","type":"address","internalType":"address"},{"name":"neededRole","type":"bytes32","internalType":"bytes32"}]},{"type":"error","name":"AddressEmptyCode","inputs":[{"name":"target","type":"address","internalType":"address"}]},{"type":"error","name":"AddressInsufficientBalance","inputs":[{"name":"account","type":"address","internalType":"address"}]},{"type":"error","name":"FailedInnerCall","inputs":[]},{"type":"error","name":"SafeERC20FailedOperation","inputs":[{"name":"token","type":"address","internalType":"address"}]}],"bytecode":{"object":"0x60808060405234601557610650908161001a8239f35b5f80fdfe6080806040526004361015610012575f80fd5b5f3560e01c90816301ffc9a7146103f157508063248a9ca3146103bf5780632f2ff15d1461038257806336568abe1461033e57806376175b061461030457806391d14854146102bc5780639afdb2c2146100e1578063a217fddf146100c75763d547741f1461007f575f80fd5b346100c35760403660031901126100c3576100c160043561009e610444565b906100bc6100b7825f525f602052600160405f20015490565b61045a565b61051a565b005b5f80fd5b346100c3575f3660031901126100c35760206040515f8152f35b346100c35760603660031901126100c3576004356001600160a01b038116908190036100c35761010f610444565b335f9081527fd6258023de8dfbb5912550ba7b6613517bf13c442784ee5998ddac4edb10529a60205260409020546044359060ff1615610262575f8060405193602085019063a9059cbb60e01b825260018060a01b0316948560248201528460448201526044815261018260648261059a565b519082875af13d15610256573d67ffffffffffffffff8111610242576101ca91604051916101ba6020601f19601f840116018461059a565b82523d5f602084013e5b856105bc565b805190811515918261021e575b505061020b576040519081527f30d87cec6b4c56cede1018725d1e6d9304e2f7ee6d25b004b7e2183f793f26bc60203392a4005b82635274afe760e01b5f5260045260245ffd5b81925090602091810103126100c357602001518015908115036100c35784806101d7565b634e487b7160e01b5f52604160045260245ffd5b6101ca906060906101c4565b60405162461bcd60e51b815260206004820152602c60248201527f546f6b656e53617665722e6f6e6c79546f6b656e53617665723a207065726d6960448201526b1cdcda5bdb8819195b9a595960a21b6064820152608490fd5b346100c35760403660031901126100c3576102d5610444565b6004355f525f60205260405f209060018060a01b03165f52602052602060ff60405f2054166040519015158152f35b346100c3575f3660031901126100c35760206040517fd9d917c4034cff8a8c5fa1e40f9fbaf906b827c33ae3ab1fcabbb616cb8ef24d8152f35b346100c35760403660031901126100c357610357610444565b336001600160a01b03821603610373576100c19060043561051a565b63334bd91960e11b5f5260045ffd5b346100c35760403660031901126100c3576100c16004356103a1610444565b906103ba6100b7825f525f602052600160405f20015490565b610492565b346100c35760203660031901126100c35760206103e96004355f525f602052600160405f20015490565b604051908152f35b346100c35760203660031901126100c3576004359063ffffffff60e01b82168092036100c357602091637965db0b60e01b8114908115610433575b5015158152f35b6301ffc9a760e01b1490508361042c565b602435906001600160a01b03821682036100c357565b5f8181526020818152604080832033845290915290205460ff161561047c5750565b63e2517d3f60e01b5f523360045260245260445ffd5b5f818152602081815260408083206001600160a01b038616845290915290205460ff16610514575f818152602081815260408083206001600160a01b0395909516808452949091528120805460ff19166001179055339291907f2f8788117e7eff1d82e926ec794901d17c78024a50270940304540a733656f0d9080a4600190565b50505f90565b5f818152602081815260408083206001600160a01b038616845290915290205460ff1615610514575f818152602081815260408083206001600160a01b0395909516808452949091528120805460ff19169055339291907ff6391f5c32d9c69d2a47ea670b442974b53935d1edc7fd64eb21e047a839171b9080a4600190565b90601f8019910116810190811067ffffffffffffffff82111761024257604052565b906105e057508051156105d157805190602001fd5b630a12f52160e11b5f5260045ffd5b81511580610611575b6105f1575090565b639996b31560e01b5f9081526001600160a01b0391909116600452602490fd5b50803b156105e956fea26469706673582212204fca881ecb54240e78ec6046a7dd953d65b37f8d9169e80706dbbd1d6338446164736f6c634300081a0033","linkReferences":{}},"methodIdentifiers":{"DEFAULT_ADMIN_ROLE()":"a217fddf","TOKEN_SAVER_ROLE()":"76175b06","getRoleAdmin(bytes32)":"248a9ca3","grantRole(bytes32,address)":"2f2ff15d","hasRole(bytes32,address)":"91d14854","renounceRole(bytes32,address)":"36568abe","revokeRole(bytes32,address)":"d547741f","saveToken(address,address,uint256)":"9afdb2c2","supportsInterface(bytes4)":"01ffc9a7"},"id":65}