{"abi":[{"type":"constructor","inputs":[],"stateMutability":"nonpayable"},{"type":"function","name":"ADMIN_ROLE","inputs":[],"outputs":[{"name":"","type":"bytes32","internalType":"bytes32"}],"stateMutability":"view"},{"type":"function","name":"DEFAULT_ADMIN_ROLE","inputs":[],"outputs":[{"name":"","type":"bytes32","internalType":"bytes32"}],"stateMutability":"view"},{"type":"function","name":"EXECUTOR_ROLE","inputs":[],"outputs":[{"name":"","type":"bytes32","internalType":"bytes32"}],"stateMutability":"view"},{"type":"function","name":"addInitialLiquidity","inputs":[{"name":"token_","type":"address","internalType":"address"},{"name":"amountToken_","type":"uint256","internalType":"uint256"},{"name":"amountAsset_","type":"uint256","internalType":"uint256"}],"outputs":[{"name":"","type":"uint256","internalType":"uint256"},{"name":"","type":"uint256","internalType":"uint256"}],"stateMutability":"nonpayable"},{"type":"function","name":"approval","inputs":[{"name":"pair","type":"address","internalType":"address"},{"name":"asset","type":"address","internalType":"address"},{"name":"spender","type":"address","internalType":"address"},{"name":"amount","type":"uint256","internalType":"uint256"}],"outputs":[],"stateMutability":"nonpayable"},{"type":"function","name":"assetToken","inputs":[],"outputs":[{"name":"","type":"address","internalType":"address"}],"stateMutability":"view"},{"type":"function","name":"bondingConfig","inputs":[],"outputs":[{"name":"","type":"address","internalType":"contract IBondingConfigForRouter"}],"stateMutability":"view"},{"type":"function","name":"bondingV5","inputs":[],"outputs":[{"name":"","type":"address","internalType":"contract IBondingV5ForRouter"}],"stateMutability":"view"},{"type":"function","name":"buy","inputs":[{"name":"amountIn","type":"uint256","internalType":"uint256"},{"name":"tokenAddress","type":"address","internalType":"address"},{"name":"to","type":"address","internalType":"address"},{"name":"isInitialPurchase","type":"bool","internalType":"bool"}],"outputs":[{"name":"","type":"uint256","internalType":"uint256"},{"name":"","type":"uint256","internalType":"uint256"}],"stateMutability":"nonpayable"},{"type":"function","name":"drainPrivatePool","inputs":[{"name":"tokenAddress","type":"address","internalType":"address"},{"name":"recipient","type":"address","internalType":"address"}],"outputs":[{"name":"","type":"uint256","internalType":"uint256"},{"name":"","type":"uint256","internalType":"uint256"}],"stateMutability":"nonpayable"},{"type":"function","name":"drainUniV2Pool","inputs":[{"name":"agentToken","type":"address","internalType":"address"},{"name":"veToken","type":"address","internalType":"address"},{"name":"recipient","type":"address","internalType":"address"},{"name":"deadline","type":"uint256","internalType":"uint256"}],"outputs":[],"stateMutability":"nonpayable"},{"type":"function","name":"factory","inputs":[],"outputs":[{"name":"","type":"address","internalType":"contract FFactoryV3"}],"stateMutability":"view"},{"type":"function","name":"getAmountsOut","inputs":[{"name":"token","type":"address","internalType":"address"},{"name":"assetToken_","type":"address","internalType":"address"},{"name":"amountIn","type":"uint256","internalType":"uint256"}],"outputs":[{"name":"_amountOut","type":"uint256","internalType":"uint256"}],"stateMutability":"view"},{"type":"function","name":"getRoleAdmin","inputs":[{"name":"role","type":"bytes32","internalType":"bytes32"}],"outputs":[{"name":"","type":"bytes32","internalType":"bytes32"}],"stateMutability":"view"},{"type":"function","name":"graduate","inputs":[{"name":"tokenAddress","type":"address","internalType":"address"}],"outputs":[],"stateMutability":"nonpayable"},{"type":"function","name":"grantRole","inputs":[{"name":"role","type":"bytes32","internalType":"bytes32"},{"name":"account","type":"address","internalType":"address"}],"outputs":[],"stateMutability":"nonpayable"},{"type":"function","name":"hasAntiSniperTax","inputs":[{"name":"pairAddress","type":"address","internalType":"address"}],"outputs":[{"name":"","type":"bool","internalType":"bool"}],"stateMutability":"view"},{"type":"function","name":"hasRole","inputs":[{"name":"role","type":"bytes32","internalType":"bytes32"},{"name":"account","type":"address","internalType":"address"}],"outputs":[{"name":"","type":"bool","internalType":"bool"}],"stateMutability":"view"},{"type":"function","name":"initialize","inputs":[{"name":"factory_","type":"address","internalType":"address"},{"name":"assetToken_","type":"address","internalType":"address"}],"outputs":[],"stateMutability":"nonpayable"},{"type":"function","name":"renounceRole","inputs":[{"name":"role","type":"bytes32","internalType":"bytes32"},{"name":"callerConfirmation","type":"address","internalType":"address"}],"outputs":[],"stateMutability":"nonpayable"},{"type":"function","name":"resetTime","inputs":[{"name":"tokenAddress","type":"address","internalType":"address"},{"name":"newStartTime","type":"uint256","internalType":"uint256"}],"outputs":[],"stateMutability":"nonpayable"},{"type":"function","name":"revokeRole","inputs":[{"name":"role","type":"bytes32","internalType":"bytes32"},{"name":"account","type":"address","internalType":"address"}],"outputs":[],"stateMutability":"nonpayable"},{"type":"function","name":"sell","inputs":[{"name":"amountIn","type":"uint256","internalType":"uint256"},{"name":"tokenAddress","type":"address","internalType":"address"},{"name":"to","type":"address","internalType":"address"}],"outputs":[{"name":"","type":"uint256","internalType":"uint256"},{"name":"","type":"uint256","internalType":"uint256"}],"stateMutability":"nonpayable"},{"type":"function","name":"setBondingV5","inputs":[{"name":"bondingV5_","type":"address","internalType":"address"},{"name":"bondingConfig_","type":"address","internalType":"address"}],"outputs":[],"stateMutability":"nonpayable"},{"type":"function","name":"setTaxStartTime","inputs":[{"name":"pairAddress","type":"address","internalType":"address"},{"name":"_taxStartTime","type":"uint256","internalType":"uint256"}],"outputs":[],"stateMutability":"nonpayable"},{"type":"function","name":"supportsInterface","inputs":[{"name":"interfaceId","type":"bytes4","internalType":"bytes4"}],"outputs":[{"name":"","type":"bool","internalType":"bool"}],"stateMutability":"view"},{"type":"event","name":"Initialized","inputs":[{"name":"version","type":"uint64","indexed":false,"internalType":"uint64"}],"anonymous":false},{"type":"event","name":"PrivatePoolDrained","inputs":[{"name":"token","type":"address","indexed":true,"internalType":"address"},{"name":"recipient","type":"address","indexed":true,"internalType":"address"},{"name":"assetAmount","type":"uint256","indexed":false,"internalType":"uint256"},{"name":"tokenAmount","type":"uint256","indexed":false,"internalType":"uint256"}],"anonymous":false},{"type":"event","name":"RoleAdminChanged","inputs":[{"name":"role","type":"bytes32","indexed":true,"internalType":"bytes32"},{"name":"previousAdminRole","type":"bytes32","indexed":true,"internalType":"bytes32"},{"name":"newAdminRole","type":"bytes32","indexed":true,"internalType":"bytes32"}],"anonymous":false},{"type":"event","name":"RoleGranted","inputs":[{"name":"role","type":"bytes32","indexed":true,"internalType":"bytes32"},{"name":"account","type":"address","indexed":true,"internalType":"address"},{"name":"sender","type":"address","indexed":true,"internalType":"address"}],"anonymous":false},{"type":"event","name":"RoleRevoked","inputs":[{"name":"role","type":"bytes32","indexed":true,"internalType":"bytes32"},{"name":"account","type":"address","indexed":true,"internalType":"address"},{"name":"sender","type":"address","indexed":true,"internalType":"address"}],"anonymous":false},{"type":"event","name":"UniV2PoolDrained","inputs":[{"name":"token","type":"address","indexed":true,"internalType":"address"},{"name":"veToken","type":"address","indexed":true,"internalType":"address"},{"name":"recipient","type":"address","indexed":true,"internalType":"address"},{"name":"veTokenAmount","type":"uint256","indexed":false,"internalType":"uint256"}],"anonymous":false},{"type":"error","name":"AccessControlBadConfirmation","inputs":[]},{"type":"error","name":"AccessControlUnauthorizedAccount","inputs":[{"name":"account","type":"address","internalType":"address"},{"name":"neededRole","type":"bytes32","internalType":"bytes32"}]},{"type":"error","name":"AddressEmptyCode","inputs":[{"name":"target","type":"address","internalType":"address"}]},{"type":"error","name":"AddressInsufficientBalance","inputs":[{"name":"account","type":"address","internalType":"address"}]},{"type":"error","name":"FailedInnerCall","inputs":[]},{"type":"error","name":"InvalidInitialization","inputs":[]},{"type":"error","name":"NotInitializing","inputs":[]},{"type":"error","name":"ReentrancyGuardReentrantCall","inputs":[]},{"type":"error","name":"SafeERC20FailedOperation","inputs":[{"name":"token","type":"address","internalType":"address"}]}],"bytecode":{"object":"0x6080806040523460d0577ff0c57e16840df040f15088dc2f81fe391c3923bec73e23a9662efc9c229c6a005460ff8160401c1660c1576002600160401b03196001600160401b03821601605c575b604051612c5b90816100d58239f35b6001600160401b0319166001600160401b039081177ff0c57e16840df040f15088dc2f81fe391c3923bec73e23a9662efc9c229c6a005581527fc7f505b2f371ae2175ee4913f4499e1f2633a7b5936321eed1cdaeb6115181d290602090a15f80604d565b63f92ee8a960e01b5f5260045ffd5b5f80fdfe6080806040526004361015610012575f80fd5b5f905f3560e01c90816301ffc9a714611f535750806307bd026514611f195780631083f76114611ef1578063248a9ca314611ed35780632f2ff15d14611ea05780633354358514611d9757806336568abe14611d525780634024dced1461197657806345608d001461193e578063485cc9551461177d578063489b58f9146117545780636c6c887e146111e35780636f08e17714610ced57806375b238fc14610cb257806383719f8814610c8957806389f0bc5214610c1c57806391d1485414610bc6578063a217fddf14610baa578063ab3c475a14610aea578063ba37fd38146109bc578063baa5cca21461098e578063bae7a7b414610507578063c45a0155146104e0578063d547741f146104a5578063d6e9f2bb146103a55763ff6d8d051461013c575f80fd5b346102c25760203660031901126102c257806101bb602061015b611fbc565b6101636123ca565b61016b6125d2565b61017f6001600160a01b03821615156120e9565b835460015460405163e6a4390560e01b81526001600160a01b039384166004820152908316602482015293849290911690829081906044820190565b03915afa9081156102c5578291610376575b5060405163c66f245560e01b8152906001600160a01b0316602082600481845afa91821561036b578392610334575b506040516316d3df1560e31b815291602083600481855afa9283156102e95784936102f9575b50813b156102f457604051635c921eb960e01b81523360048201526024810191909152838160448183865af19081156102e95784916102d4575b5050803b156102d0576040516302ccb1b360e41b8152336004820152602481019290925282908290604490829084905af180156102c5576102ad575b5060015f80516020612be68339815191525580f35b816102b791612054565b6102c257805f610298565b80fd5b6040513d84823e3d90fd5b5050fd5b816102de91612054565b6102d057825f61025c565b6040513d86823e3d90fd5b505050fd5b935091506020833d60201161032c575b8161031660209383612054565b8101031261032857839251915f610222565b5f80fd5b3d9150610309565b925090506020823d602011610363575b8161035160209383612054565b8101031261032857829151905f6101fc565b3d9150610344565b6040513d85823e3d90fd5b610398915060203d60201161039e575b6103908183612054565b81019061208a565b5f6101cd565b503d610386565b50346102c25760403660031901126102c2576103bf611fbc565b6103c7611fa6565b907fa49807205ce4d355092ef5a8a18f56e8913cf4a201fbe287825b095693c2177583525f80516020612bc68339815191526020526040832060018060a01b0333165f5260205260ff60405f2054161561046e576001600160a01b03169061043082151561237e565b6001600160a01b03169061044582151561237e565b6001600160601b0360a01b60025416176002556001600160601b0360a01b600354161760035580f35b63e2517d3f60e01b8352336004527fa49807205ce4d355092ef5a8a18f56e8913cf4a201fbe287825b095693c21775602452604483fd5b50346102c25760403660031901126102c2576104dc6004356104c5611fa6565b906104d76104d282612036565b612439565b61260a565b5080f35b50346102c257806003193601126102c257546040516001600160a01b039091168152602090f35b50346102c25760803660031901126102c257600435610524611fa6565b9061052d611fd2565b918360643592831593841503610813576105456123ca565b61054d6125d2565b6105616001600160a01b03841615156120e9565b6105756001600160a01b03861615156120e9565b61058081151561231f565b815460015460405163e6a4390560e01b81526001600160a01b0386811660048301529182166024820181905291909216959194906020866044818a5afa9586156108b7578596610969575b506020600495969760405196878092634f7041a560e01b82525afa94851561088d5788958891889161092e575b50879461091d575b606361060c868361214d565b116108e5575b906106458661064060646106378161062e8561064d9a9961236b565b049a8b9a61236b565b0498899261218c565b61218c565b998a926126a6565b8454604051630e2ad37b60e41b815290602090829060049082906001600160a01b03165afa90811561088d5786916108c6575b5060015461069c908490309088906001600160a01b03166126a6565b6001546106b590849083906001600160a01b03166126f1565b6001600160a01b0316803b156108c257604051631f0242dd60e01b81526001600160a01b0383166004820152602481019390935285908390604490829084905af180156108b75787928691610898575b50508261081b575b60015461072493506001600160a01b031690612199565b926001600160a01b031690813b15610817576040516302ccb1b360e41b81526001600160a01b0391909116600482015260248101849052828160448183865af190811561036b5783916107fe575b5050602090608460405180948193635673b02d60e01b83528160048401528760248401528860448401528160648401525af180156102e957604094506107d1575b5060015f80516020612be68339815191525582519182526020820152f35b6107f29060203d6020116107f7575b6107ea8183612054565b810190612135565b6107b3565b503d6107e0565b8161080891612054565b61081357815f610772565b5080fd5b8280fd5b60015485546040516310bdadd760e31b815293506001600160a01b039182169160209185916004918391165afa93841561088d576107249486610867938b968a9361086c575b506126a6565b61070d565b61088691935060203d60201161039e576103908183612054565b915f610861565b6040513d88823e3d90fd5b81929350906108a691612054565b6108b3578590845f610705565b8380fd5b6040513d87823e3d90fd5b8580fd5b6108df915060203d60201161039e576103908183612054565b5f610680565b95505091509193508260630360638111610909578794879490939192908790610612565b634e487b7160e01b88526011600452602488fd5b9350610928816127e3565b93610600565b9650505094506020843d602011610961575b8161094d60209383612054565b81010312610328578794868895515f6105f8565b3d9150610940565b6004959650610986602091823d841161039e576103908183612054565b9695506105cb565b50346102c25760203660031901126102c25760206109b26109ad611fbc565b6127e3565b1515604051908152f35b50346102c25760603660031901126102c2576109d6611fbc565b6024359082610a3f604435926109ea6123ca565b6001600160a01b03811690602090610a038315156120e9565b845460015460405163e6a4390560e01b81526001600160a01b039384166004820152908316602482015294859290911690829081906044820190565b03915afa801561036b57856020938592610ac9575b5081610a62929333906126a6565b604051630d9778e560e11b8152600481018690526024810185905292839160449183916001600160a01b03165af180156102e95760409450610aac575b5082519182526020820152f35b610ac49060203d6020116107f7576107ea8183612054565b610a9f565b610a629250610ae490853d871161039e576103908183612054565b91610a54565b50346102c257610b5f602082610aff36611fe8565b9390610b096123ca565b610b116125d2565b610b256001600160a01b03821615156120e9565b604051632e2952f960e11b81526001600160a01b039182166004820152921660248301526044820193909352938492839182906064820190565b03926001600160a01b03165af180156102c557610b8b575060015f80516020612be68339815191525580f35b610ba39060203d6020116107f7576107ea8183612054565b505f610298565b50346102c257806003193601126102c257602090604051908152f35b50346102c25760403660031901126102c2576040610be2611fa6565b9160043581525f80516020612bc6833981519152602052209060018060a01b03165f52602052602060ff60405f2054166040519015158152f35b50346102c25760403660031901126102c25780610c37611fbc565b610c3f6123ca565b6001600160a01b0316803b15610c865781809160246040518094819363112212ff60e01b8352833560048401525af1610c755750f35b81610c7f91612054565b6102c25780f35b50fd5b50346102c257806003193601126102c2576003546040516001600160a01b039091168152602090f35b50346102c257806003193601126102c25760206040517fa49807205ce4d355092ef5a8a18f56e8913cf4a201fbe287825b095693c217758152f35b50346102c25760603660031901126102c257600435610d0a611fa6565b82610d13611fd2565b91610d1c6125d2565b610d246123ca565b6001600160a01b0381169283151591610d3c836120e9565b610d506001600160a01b03831615156120e9565b610d5b86151561231f565b835460015460405163e6a4390560e01b81526001600160a01b03848116600483015291821660248201529160209183916044918391165afa9081156108b75785916111c4575b506001600160a01b03811693610db6906120e9565b845460015460405163e6a4390560e01b81526001600160a01b038581166004830152918216602482018190529392909160209183916044918391165afa9081156110b75787916111a5575b5060408051630240bc6b60e21b81526001600160a01b0392909216939082600481875afa801561119a578892899161115b575b50602060049560405196878092637464fc3d60e01b82525afa918215611150578b958a9361110f575b509185610e94969594928994155f146110fe5791610e82610e8892610e8e959461214d565b9061216e565b9061218c565b986126a6565b835460405163cc1776d360e01b81526001600160a01b0390911690602081600481855afa801561088d57879187916110c2575b50610ed76004939260649261236b565b04936020610ee5868a61218c565b9260405194858092630e2ad37b60e41b82525afa9283156110b7578793611096575b50853b1561109257604051635c921eb960e01b81526001600160a01b039190911660048201526024810191909152858160448183895af190811561088d57869161107d575b5050833b1561106457604051635c921eb960e01b815230600482015260248101849052858160448183895af190811561088d578691611068575b5050600154610fa190849083906001600160a01b03166126f1565b6001600160a01b031691823b1561106457604051631f0242dd60e01b81526001600160a01b0392909216600483015260248201529083908290604490829084905af190811561036b57839161104f575b5050602090608460405180948193635673b02d60e01b83528860048401528160248401528160448401528760648401525af180156102e957604094506107d1575060015f80516020612be68339815191525582519182526020820152f35b8161105991612054565b61081357815f610ff1565b8480fd5b8161107291612054565b61106457845f610f86565b8161108791612054565b61106457845f610f4c565b8680fd5b6110b091935060203d60201161039e576103908183612054565b915f610f07565b6040513d89823e3d90fd5b92965050506020813d6020116110f6575b816110e060209383612054565b8101031261032857518794908690610ed7610ec7565b3d91506110d3565b91610e82610e8892610e8e9561214d565b94939950945090506020833d602011611148575b8161113060209383612054565b810103126103285791518a978a949293909285610e5d565b3d9150611123565b6040513d8b823e3d90fd5b9250506040823d604011611192575b8161117760409383612054565b8101031261118e5781516020928301519092610e34565b8780fd5b3d915061116a565b6040513d8a823e3d90fd5b6111be915060203d60201161039e576103908183612054565b5f610e01565b6111dd915060203d60201161039e576103908183612054565b5f610da1565b50346102c2576111f236611fe8565b6111fd9291926123ca565b6112056125d2565b6002546001600160a01b03169361121d8515156120a9565b6001600160a01b031691821561171a576001600160a01b03169283156116e3576001600160a01b03169384156116aa5760405163165e279560e01b815260048101849052602081602481855afa9081156110b757879161168b575b501561163457604051631083f76160e01b8152602081600481885afa9081156110b7578791611615575b50604051630dfe168160e01b8152906001600160a01b0316602082600481845afa90811561119a5760049289926115f3575b506020906040519384809263d21220a760e01b82525afa91821561119a5788926115d2575b506001600160a01b031684811480156115c0575b1561157b576001546001600160a01b0316908114918215611568575b50501561151957604051634d853ee560e01b815291602083600481885afa9283156110b75787936114f8575b506040516370a0823160e01b81526001600160a01b039093166004840152602083602481885afa9283156110b75787936114c4575b5082156114875760046020889360405192838092633ef883f560e11b82525afa90811561036b578391611468575b506001600160a01b031690813b1561081757829160c4839260405194859384926364777ac960e01b84528b60048501528c602485015289604485015282606485015282608485015260a48401525af180156102c557611453575b505060207f75666e2ef3d5200b1d59c9e9fd06a928e14dec7c13a38910609b908615d5942d91604051908152a460015f80516020612be68339815191525580f35b8161145d91612054565b61106457845f611412565b611481915060203d60201161039e576103908183612054565b5f6113b8565b60405162461bcd60e51b81526020600482015260156024820152742737903634b8bab4b234ba3c903a3790323930b4b760591b6044820152606490fd5b9092506020813d6020116114f0575b816114e060209383612054565b810103126103285751915f61138a565b3d91506114d3565b61151291935060203d60201161039e576103908183612054565b915f611355565b60405162461bcd60e51b815260206004820152602160248201527f7665546f6b656e20646f6573206e6f74206d61746368206173736574546f6b656044820152603760f91b6064820152608490fd5b6001600160a01b03161490505f80611329565b60405162461bcd60e51b815260206004820152601c60248201527f7665546f6b656e20646f6573206e6f74206d6174636820746f6b656e000000006044820152606490fd5b506001600160a01b038216851461130d565b6115ec91925060203d60201161039e576103908183612054565b905f6112f9565b602091925061160e90823d841161039e576103908183612054565b91906112d4565b61162e915060203d60201161039e576103908183612054565b5f6112a2565b60405162461bcd60e51b815260206004820152602960248201527f6167656e74546f6b656e20646f6573206e6f7420616c6c6f77206c697175696460448201526834ba3c90323930b4b760b91b6064820152608490fd5b6116a4915060203d6020116107f7576107ea8183612054565b5f611278565b60405162461bcd60e51b8152602060048201526011602482015270125b9d985b1a59081c9958da5c1a595b9d607a1b6044820152606490fd5b60405162461bcd60e51b815260206004820152600f60248201526e24b73b30b634b2103b32aa37b5b2b760891b6044820152606490fd5b60405162461bcd60e51b815260206004820152601260248201527124b73b30b634b21030b3b2b73a2a37b5b2b760711b6044820152606490fd5b50346102c257806003193601126102c2576002546040516001600160a01b039091168152602090f35b50346102c25760403660031901126102c257611797611fbc565b61179f611fa6565b5f80516020612c06833981519152549160ff8360401c16159267ffffffffffffffff811680159081611936575b600114908161192c575b159081611923575b506119145767ffffffffffffffff1981166001175f80516020612c0683398151915255836118e8575b50611810612a92565b611818612a92565b60015f80516020612be683398151915255611831612a92565b61183a3361247f565b506001600160a01b0316906118508215156120e9565b6001600160a01b0316906118658215156120e9565b6001600160601b0360a01b8454161783556001600160601b0360a01b60015416176001556118905780f35b68ff0000000000000000195f80516020612c0683398151915254165f80516020612c06833981519152557fc7f505b2f371ae2175ee4913f4499e1f2633a7b5936321eed1cdaeb6115181d2602060405160018152a180f35b68ffffffffffffffffff191668010000000000000001175f80516020612c06833981519152555f611807565b63f92ee8a960e01b8552600485fd5b9050155f6117de565b303b1591506117d6565b8591506117cc565b50346102c25760603660031901126102c257602061196e61195d611fbc565b611965611fa6565b60443591612199565b604051908152f35b50346102c25760403660031901126102c257611990611fbc565b611998611fa6565b6119a06123ca565b6119a86125d2565b6002546001600160a01b03166119bf8115156120a9565b6001600160a01b038316926119d58415156120e9565b6001600160a01b038316916024906020906119f18515156120e9565b6040519283809263165e279560e01b82528960048301525afa90811561088d578691611d33575b5015611ce257845460015460405163e6a4390560e01b81526001600160a01b03938416600482015290831660248201529160209183916044918391165afa9081156108b7578591611cc3575b506001600160a01b0316928315611c8d5760405163c66f245560e01b8152938590602086600481845afa9586156102c5578296611c56575b506040516316d3df1560e31b815294602086600481855afa95861561036b578396611c1f575b5086611bc2575b85611b64575b50803b1561081357819060446040518094819363b3207f7960e01b83528a60048401528960248401525af1611b4f575b50604094507f6780d7960d1ee98bd98b0fe1eae47483ed1f37ec80e9cd2b69d812ba64f19b99858051868152856020820152a360015f80516020612be68339815191525582519182526020820152f35b611b5a868092612054565b6110645784611aff565b813b15610817576040516302ccb1b360e41b81526001600160a01b0391909116600482015260248101869052828160448183865af190811561036b578391611bad575b50611acf565b81611bb791612054565b61081357815f611ba7565b813b1561081757604051635c921eb960e01b81526001600160a01b038216600482015260248101889052838160448183875af19081156102e9578491611c0a575b5050611ac9565b81611c1491612054565b61081757825f611c03565b925094506020823d602011611c4e575b81611c3c60209383612054565b8101031261032857869151945f611ac2565b3d9150611c2f565b915094506020813d602011611c85575b81611c7360209383612054565b8101031261032857859051945f611a9c565b3d9150611c66565b60405162461bcd60e51b815260206004820152600e60248201526d14185a5c881b9bdd08199bdd5b9960921b6044820152606490fd5b611cdc915060203d60201161039e576103908183612054565b5f611a64565b60405162461bcd60e51b8152602060048201526024808201527f546f6b656e20646f6573206e6f7420616c6c6f77206c697175696469747920646044820152633930b4b760e11b6064820152608490fd5b611d4c915060203d6020116107f7576107ea8183612054565b5f611a18565b50346102c25760403660031901126102c257611d6c611fa6565b336001600160a01b03821603611d88576104dc9060043561260a565b63334bd91960e11b8252600482fd5b503461032857604036600319011261032857611e026020611db6611fbc565b611dbe6123ca565b611dc66125d2565b5f5460015460405163e6a4390560e01b81526001600160a01b039384166004820152908316602482015293849290911690829081906044820190565b03915afa908115611e76575f91611e81575b506001600160a01b0316803b15610328575f8091602460405180948193631eb305b160e01b8352833560048401525af18015611e7657611e63575060015f80516020612be68339815191525580f35b611e6f91505f90612054565b5f80610298565b6040513d5f823e3d90fd5b611e9a915060203d60201161039e576103908183612054565b5f611e14565b3461032857604036600319011261032857611ed1600435611ebf611fa6565b90611ecc6104d282612036565b61252e565b005b3461032857602036600319011261032857602061196e600435612036565b34610328575f366003190112610328576001546040516001600160a01b039091168152602090f35b34610328575f3660031901126103285760206040517fd8aa0f3194971a2a116679f7c2090f6939c8d4e01a2a8d7e41d55e5351469e638152f35b34610328576020366003190112610328576004359063ffffffff60e01b821680920361032857602091637965db0b60e01b8114908115611f95575b5015158152f35b6301ffc9a760e01b14905083611f8e565b602435906001600160a01b038216820361032857565b600435906001600160a01b038216820361032857565b604435906001600160a01b038216820361032857565b6080906003190112610328576004356001600160a01b038116810361032857906024356001600160a01b038116810361032857906044356001600160a01b0381168103610328579060643590565b5f525f80516020612bc6833981519152602052600160405f20015490565b90601f8019910116810190811067ffffffffffffffff82111761207657604052565b634e487b7160e01b5f52604160045260245ffd5b9081602091031261032857516001600160a01b03811681036103285790565b156120b057565b60405162461bcd60e51b8152602060048201526011602482015270109bdb991a5b99d58d481b9bdd081cd95d607a1b6044820152606490fd5b156120f057565b60405162461bcd60e51b815260206004820152601f60248201527f5a65726f2061646472657373657320617265206e6f7420616c6c6f7765642e006044820152606490fd5b90816020910312610328575180151581036103285790565b9190820180921161215a57565b634e487b7160e01b5f52601160045260245ffd5b8115612178570490565b634e487b7160e01b5f52601260045260245ffd5b9190820391821161215a57565b90916121af6001600160a01b03831615156120e9565b5f5460015460405163e6a4390560e01b81526001600160a01b0394851660048201529084166024820181905293909160209183916044918391165afa908115611e76575f91612300575b5060408051630240bc6b60e21b81526001600160a01b03929092169491939084600481885afa918215611e76575f945f936122c0575b5060206004959660405196878092637464fc3d60e01b82525afa948515611e76575f9561228c575b506001600160a01b03160361227b5791610e82610e8892612278959461214d565b90565b91610e82610e88926122789561214d565b9094506020813d6020116122b8575b816122a860209383612054565b810103126103285751935f612257565b3d915061229b565b95925093506040853d6040116122f8575b816122de60409383612054565b81010312610328578451602095860151929590949061222f565b3d91506122d1565b612319915060203d60201161039e576103908183612054565b5f6121f9565b1561232657565b60405162461bcd60e51b815260206004820152601f60248201527f616d6f756e74496e206d7573742062652067726561746572207468616e2030006044820152606490fd5b8181029291811591840414171561215a57565b1561238557565b60405162461bcd60e51b815260206004820152601860248201527f5a65726f2061646472657373206e6f7420616c6c6f77656400000000000000006044820152606490fd5b335f9081527f52fce5e8a5d0d9e8d1ea29f4525e512e9c27bf92cae50374d497f918ab48f382602052604090205460ff161561240257565b63e2517d3f60e01b5f52336004527fd8aa0f3194971a2a116679f7c2090f6939c8d4e01a2a8d7e41d55e5351469e6360245260445ffd5b5f8181525f80516020612bc68339815191526020908152604080832033845290915290205460ff16156124695750565b63e2517d3f60e01b5f523360045260245260445ffd5b6001600160a01b0381165f9081527fb7db2dd08fcb62d0c9e08c51941cae53c267786a0b75803fb7960902fc8ef97d602052604090205460ff16612529576001600160a01b03165f8181527fb7db2dd08fcb62d0c9e08c51941cae53c267786a0b75803fb7960902fc8ef97d60205260408120805460ff191660011790553391907f2f8788117e7eff1d82e926ec794901d17c78024a50270940304540a733656f0d8180a4600190565b505f90565b5f8181525f80516020612bc6833981519152602090815260408083206001600160a01b038616845290915290205460ff166125cc575f8181525f80516020612bc6833981519152602090815260408083206001600160a01b0395909516808452949091528120805460ff19166001179055339291907f2f8788117e7eff1d82e926ec794901d17c78024a50270940304540a733656f0d9080a4600190565b50505f90565b60025f80516020612be683398151915254146125fb5760025f80516020612be683398151915255565b633ee5aeb560e01b5f5260045ffd5b5f8181525f80516020612bc6833981519152602090815260408083206001600160a01b038616845290915290205460ff16156125cc575f8181525f80516020612bc6833981519152602090815260408083206001600160a01b0395909516808452949091528120805460ff19169055339291907ff6391f5c32d9c69d2a47ea670b442974b53935d1edc7fd64eb21e047a839171b9080a4600190565b6040516323b872dd60e01b60208201526001600160a01b0392831660248201529290911660448301526064808301939093529181526126ef916126ea608483612054565b612abd565b565b60405163095ea7b360e01b602082019081526001600160a01b0384166024830152604480830195909552938152919261272b606484612054565b82516001600160a01b038316915f91829182855af190612749612b28565b826127b1575b50816127a6575b501561276157505050565b60405163095ea7b360e01b60208201526001600160a01b0390931660248401525f60448085019190915283526126ef926126ea906127a0606482612054565b82612abd565b90503b15155f612756565b805191925081159182156127c9575b5050905f61274f565b6127dc9250602080918301019101612135565b5f806127c0565b60405162fc63d160e41b8152906001600160a01b0316602082600481845afa908115611e76576004925f92612a71575b505f5460405163b497936560e01b81529360209185919082906001600160a01b03165afa928315611e76575f93612a3d575b50600254604051630ea804ad60e21b81526001600160a01b0393841660048201529260209184916024918391165afa918215611e76575f926129ff575b506003546040516377c8de5b60e01b815260ff939093166004840152602090839060249082906001600160a01b03165afa918215611e76575f926129cb575b50811561294a576040516378e9792560e01b8152602081600481855afa908115611e76575f91612998575b506020600491926040519283809263387370c160e11b82525afa5f9181612964575b50612956575b5080421061295157612926904261218c565b8181101561294a576122789261293f612945928461218c565b9061236b565b61216e565b5050505f90565b505090565b80156129145790505f612914565b9091506020813d602011612990575b8161298060209383612054565b810103126103285751905f61290e565b3d9150612973565b90506020813d6020116129c3575b816129b360209383612054565b81010312610328575160206128ec565b3d91506129a6565b9091506020813d6020116129f7575b816129e760209383612054565b810103126103285751905f6128c1565b3d91506129da565b9091506020813d602011612a35575b81612a1b60209383612054565b81010312610328575160ff8116810361032857905f612882565b3d9150612a0e565b9092506020813d602011612a69575b81612a5960209383612054565b810103126103285751915f612845565b3d9150612a4c565b612a8b91925060203d60201161039e576103908183612054565b905f612813565b60ff5f80516020612c068339815191525460401c1615612aae57565b631afcd79f60e31b5f5260045ffd5b5f80612ae59260018060a01b03169360208151910182865af1612ade612b28565b9083612b67565b8051908115159182612b0d575b5050612afb5750565b635274afe760e01b5f5260045260245ffd5b612b209250602080918301019101612135565b155f80612af2565b3d15612b62573d9067ffffffffffffffff82116120765760405191612b57601f8201601f191660200184612054565b82523d5f602084013e565b606090565b90612b8b5750805115612b7c57805190602001fd5b630a12f52160e11b5f5260045ffd5b81511580612bbc575b612b9c575090565b639996b31560e01b5f9081526001600160a01b0391909116600452602490fd5b50803b15612b9456fe02dd7bc7dec4dceedda775e58dd541e08a116c6c53815c0bd028192f7b6268009b779b17422d0df92223018b32b4d1fa46e071723d6817e2486d003becc55f00f0c57e16840df040f15088dc2f81fe391c3923bec73e23a9662efc9c229c6a00a2646970667358221220a5be823b3604a7a2068a20eb2f7319bc0487bfe330320d475e42398bc81964f464736f6c634300081a0033","linkReferences":{}},"methodIdentifiers":{"ADMIN_ROLE()":"75b238fc","DEFAULT_ADMIN_ROLE()":"a217fddf","EXECUTOR_ROLE()":"07bd0265","addInitialLiquidity(address,uint256,uint256)":"ba37fd38","approval(address,address,address,uint256)":"ab3c475a","assetToken()":"1083f761","bondingConfig()":"83719f88","bondingV5()":"489b58f9","buy(uint256,address,address,bool)":"bae7a7b4","drainPrivatePool(address,address)":"4024dced","drainUniV2Pool(address,address,address,uint256)":"6c6c887e","factory()":"c45a0155","getAmountsOut(address,address,uint256)":"45608d00","getRoleAdmin(bytes32)":"248a9ca3","graduate(address)":"ff6d8d05","grantRole(bytes32,address)":"2f2ff15d","hasAntiSniperTax(address)":"baa5cca2","hasRole(bytes32,address)":"91d14854","initialize(address,address)":"485cc955","renounceRole(bytes32,address)":"36568abe","resetTime(address,uint256)":"33543585","revokeRole(bytes32,address)":"d547741f","sell(uint256,address,address)":"6f08e177","setBondingV5(address,address)":"d6e9f2bb","setTaxStartTime(address,uint256)":"89f0bc52","supportsInterface(bytes4)":"01ffc9a7"},"id":48}