{"abi":[{"type":"constructor","inputs":[],"stateMutability":"nonpayable"},{"type":"function","name":"BONDING_ROLE","inputs":[],"outputs":[{"name":"","type":"bytes32","internalType":"bytes32"}],"stateMutability":"view"},{"type":"function","name":"DEFAULT_ADMIN_ROLE","inputs":[],"outputs":[{"name":"","type":"bytes32","internalType":"bytes32"}],"stateMutability":"view"},{"type":"function","name":"WITHDRAW_ROLE","inputs":[],"outputs":[{"name":"","type":"bytes32","internalType":"bytes32"}],"stateMutability":"view"},{"type":"function","name":"allDAOs","inputs":[{"name":"","type":"uint256","internalType":"uint256"}],"outputs":[{"name":"","type":"address","internalType":"address"}],"stateMutability":"view"},{"type":"function","name":"allTokens","inputs":[{"name":"","type":"uint256","internalType":"uint256"}],"outputs":[{"name":"","type":"address","internalType":"address"}],"stateMutability":"view"},{"type":"function","name":"allTradingTokens","inputs":[{"name":"","type":"uint256","internalType":"uint256"}],"outputs":[{"name":"","type":"address","internalType":"address"}],"stateMutability":"view"},{"type":"function","name":"applicationThreshold","inputs":[],"outputs":[{"name":"","type":"uint256","internalType":"uint256"}],"stateMutability":"view"},{"type":"function","name":"assetToken","inputs":[],"outputs":[{"name":"","type":"address","internalType":"address"}],"stateMutability":"view"},{"type":"function","name":"daoImplementation","inputs":[],"outputs":[{"name":"","type":"address","internalType":"address"}],"stateMutability":"view"},{"type":"function","name":"defaultDelegatee","inputs":[],"outputs":[{"name":"","type":"address","internalType":"address"}],"stateMutability":"view"},{"type":"function","name":"executeApplication","inputs":[{"name":"id","type":"uint256","internalType":"uint256"},{"name":"canStake","type":"bool","internalType":"bool"},{"name":"salt","type":"bytes32","internalType":"bytes32"}],"outputs":[],"stateMutability":"nonpayable"},{"type":"function","name":"executeBondingCurveApplication","inputs":[{"name":"id","type":"uint256","internalType":"uint256"},{"name":"totalSupply","type":"uint256","internalType":"uint256"},{"name":"lpSupply","type":"uint256","internalType":"uint256"},{"name":"vault","type":"address","internalType":"address"}],"outputs":[{"name":"","type":"address","internalType":"address"}],"stateMutability":"nonpayable"},{"type":"function","name":"executeBondingCurveApplicationSalt","inputs":[{"name":"id","type":"uint256","internalType":"uint256"},{"name":"totalSupply","type":"uint256","internalType":"uint256"},{"name":"lpSupply","type":"uint256","internalType":"uint256"},{"name":"vault","type":"address","internalType":"address"},{"name":"salt","type":"bytes32","internalType":"bytes32"}],"outputs":[{"name":"","type":"address","internalType":"address"}],"stateMutability":"nonpayable"},{"type":"function","name":"getApplication","inputs":[{"name":"proposalId","type":"uint256","internalType":"uint256"}],"outputs":[{"name":"","type":"tuple","internalType":"struct AgentFactoryV3.Application","components":[{"name":"name","type":"string","internalType":"string"},{"name":"symbol","type":"string","internalType":"string"},{"name":"tokenURI","type":"string","internalType":"string"},{"name":"status","type":"uint8","internalType":"enum AgentFactoryV3.ApplicationStatus"},{"name":"withdrawableAmount","type":"uint256","internalType":"uint256"},{"name":"proposer","type":"address","internalType":"address"},{"name":"cores","type":"uint8[]","internalType":"uint8[]"},{"name":"proposalEndBlock","type":"uint256","internalType":"uint256"},{"name":"virtualId","type":"uint256","internalType":"uint256"},{"name":"tbaSalt","type":"bytes32","internalType":"bytes32"},{"name":"tbaImplementation","type":"address","internalType":"address"},{"name":"daoVotingPeriod","type":"uint32","internalType":"uint32"},{"name":"daoThreshold","type":"uint256","internalType":"uint256"}]}],"stateMutability":"view"},{"type":"function","name":"getRoleAdmin","inputs":[{"name":"role","type":"bytes32","internalType":"bytes32"}],"outputs":[{"name":"","type":"bytes32","internalType":"bytes32"}],"stateMutability":"view"},{"type":"function","name":"gov","inputs":[],"outputs":[{"name":"","type":"address","internalType":"address"}],"stateMutability":"view"},{"type":"function","name":"grantRole","inputs":[{"name":"role","type":"bytes32","internalType":"bytes32"},{"name":"account","type":"address","internalType":"address"}],"outputs":[],"stateMutability":"nonpayable"},{"type":"function","name":"hasRole","inputs":[{"name":"role","type":"bytes32","internalType":"bytes32"},{"name":"account","type":"address","internalType":"address"}],"outputs":[{"name":"","type":"bool","internalType":"bool"}],"stateMutability":"view"},{"type":"function","name":"initFromBondingCurve","inputs":[{"name":"name","type":"string","internalType":"string"},{"name":"symbol","type":"string","internalType":"string"},{"name":"cores","type":"uint8[]","internalType":"uint8[]"},{"name":"tbaSalt","type":"bytes32","internalType":"bytes32"},{"name":"tbaImplementation","type":"address","internalType":"address"},{"name":"daoVotingPeriod","type":"uint32","internalType":"uint32"},{"name":"daoThreshold","type":"uint256","internalType":"uint256"},{"name":"applicationThreshold_","type":"uint256","internalType":"uint256"},{"name":"creator","type":"address","internalType":"address"}],"outputs":[{"name":"","type":"uint256","internalType":"uint256"}],"stateMutability":"nonpayable"},{"type":"function","name":"initialize","inputs":[{"name":"tokenImplementation_","type":"address","internalType":"address"},{"name":"veTokenImplementation_","type":"address","internalType":"address"},{"name":"daoImplementation_","type":"address","internalType":"address"},{"name":"tbaRegistry_","type":"address","internalType":"address"},{"name":"assetToken_","type":"address","internalType":"address"},{"name":"nft_","type":"address","internalType":"address"},{"name":"applicationThreshold_","type":"uint256","internalType":"uint256"},{"name":"vault_","type":"address","internalType":"address"},{"name":"nextId_","type":"uint256","internalType":"uint256"}],"outputs":[],"stateMutability":"nonpayable"},{"type":"function","name":"maturityDuration","inputs":[],"outputs":[{"name":"","type":"uint256","internalType":"uint256"}],"stateMutability":"view"},{"type":"function","name":"nft","inputs":[],"outputs":[{"name":"","type":"address","internalType":"address"}],"stateMutability":"view"},{"type":"function","name":"pause","inputs":[],"outputs":[],"stateMutability":"nonpayable"},{"type":"function","name":"paused","inputs":[],"outputs":[{"name":"","type":"bool","internalType":"bool"}],"stateMutability":"view"},{"type":"function","name":"proposeAgent","inputs":[{"name":"name","type":"string","internalType":"string"},{"name":"symbol","type":"string","internalType":"string"},{"name":"tokenURI","type":"string","internalType":"string"},{"name":"cores","type":"uint8[]","internalType":"uint8[]"},{"name":"tbaSalt","type":"bytes32","internalType":"bytes32"},{"name":"tbaImplementation","type":"address","internalType":"address"},{"name":"daoVotingPeriod","type":"uint32","internalType":"uint32"},{"name":"daoThreshold","type":"uint256","internalType":"uint256"}],"outputs":[{"name":"","type":"uint256","internalType":"uint256"}],"stateMutability":"nonpayable"},{"type":"function","name":"renounceRole","inputs":[{"name":"role","type":"bytes32","internalType":"bytes32"},{"name":"callerConfirmation","type":"address","internalType":"address"}],"outputs":[],"stateMutability":"nonpayable"},{"type":"function","name":"revokeRole","inputs":[{"name":"role","type":"bytes32","internalType":"bytes32"},{"name":"account","type":"address","internalType":"address"}],"outputs":[],"stateMutability":"nonpayable"},{"type":"function","name":"setApplicationThreshold","inputs":[{"name":"newThreshold","type":"uint256","internalType":"uint256"}],"outputs":[],"stateMutability":"nonpayable"},{"type":"function","name":"setImplementations","inputs":[{"name":"token","type":"address","internalType":"address"},{"name":"veToken","type":"address","internalType":"address"},{"name":"dao","type":"address","internalType":"address"}],"outputs":[],"stateMutability":"nonpayable"},{"type":"function","name":"setParams","inputs":[{"name":"newMaturityDuration","type":"uint256","internalType":"uint256"},{"name":"newRouter","type":"address","internalType":"address"},{"name":"newDelegatee","type":"address","internalType":"address"},{"name":"newTokenAdmin","type":"address","internalType":"address"}],"outputs":[],"stateMutability":"nonpayable"},{"type":"function","name":"setTokenParams","inputs":[{"name":"maxSupply","type":"uint256","internalType":"uint256"},{"name":"lpSupply","type":"uint256","internalType":"uint256"},{"name":"vaultSupply","type":"uint256","internalType":"uint256"},{"name":"maxTokensPerWallet","type":"uint256","internalType":"uint256"},{"name":"maxTokensPerTxn","type":"uint256","internalType":"uint256"},{"name":"botProtectionDurationInSeconds","type":"uint256","internalType":"uint256"},{"name":"vault","type":"address","internalType":"address"},{"name":"projectBuyTaxBasisPoints","type":"uint256","internalType":"uint256"},{"name":"projectSellTaxBasisPoints","type":"uint256","internalType":"uint256"},{"name":"taxSwapThresholdBasisPoints","type":"uint256","internalType":"uint256"},{"name":"projectTaxRecipient","type":"address","internalType":"address"}],"outputs":[],"stateMutability":"nonpayable"},{"type":"function","name":"setVault","inputs":[{"name":"newVault","type":"address","internalType":"address"}],"outputs":[],"stateMutability":"nonpayable"},{"type":"function","name":"supportsInterface","inputs":[{"name":"interfaceId","type":"bytes4","internalType":"bytes4"}],"outputs":[{"name":"","type":"bool","internalType":"bool"}],"stateMutability":"view"},{"type":"function","name":"tbaRegistry","inputs":[],"outputs":[{"name":"","type":"address","internalType":"address"}],"stateMutability":"view"},{"type":"function","name":"tokenImplementation","inputs":[],"outputs":[{"name":"","type":"address","internalType":"address"}],"stateMutability":"view"},{"type":"function","name":"totalAgents","inputs":[],"outputs":[{"name":"","type":"uint256","internalType":"uint256"}],"stateMutability":"view"},{"type":"function","name":"unpause","inputs":[],"outputs":[],"stateMutability":"nonpayable"},{"type":"function","name":"veTokenImplementation","inputs":[],"outputs":[{"name":"","type":"address","internalType":"address"}],"stateMutability":"view"},{"type":"function","name":"withdraw","inputs":[{"name":"id","type":"uint256","internalType":"uint256"}],"outputs":[],"stateMutability":"nonpayable"},{"type":"event","name":"ApplicationThresholdUpdated","inputs":[{"name":"newThreshold","type":"uint256","indexed":false,"internalType":"uint256"}],"anonymous":false},{"type":"event","name":"GovUpdated","inputs":[{"name":"newGov","type":"address","indexed":false,"internalType":"address"}],"anonymous":false},{"type":"event","name":"ImplContractsUpdated","inputs":[{"name":"token","type":"address","indexed":false,"internalType":"address"},{"name":"dao","type":"address","indexed":false,"internalType":"address"}],"anonymous":false},{"type":"event","name":"Initialized","inputs":[{"name":"version","type":"uint64","indexed":false,"internalType":"uint64"}],"anonymous":false},{"type":"event","name":"NewApplication","inputs":[{"name":"id","type":"uint256","indexed":false,"internalType":"uint256"}],"anonymous":false},{"type":"event","name":"NewPersona","inputs":[{"name":"virtualId","type":"uint256","indexed":false,"internalType":"uint256"},{"name":"token","type":"address","indexed":false,"internalType":"address"},{"name":"dao","type":"address","indexed":false,"internalType":"address"},{"name":"tba","type":"address","indexed":false,"internalType":"address"},{"name":"veToken","type":"address","indexed":false,"internalType":"address"},{"name":"lp","type":"address","indexed":false,"internalType":"address"}],"anonymous":false},{"type":"event","name":"Paused","inputs":[{"name":"account","type":"address","indexed":false,"internalType":"address"}],"anonymous":false},{"type":"event","name":"RoleAdminChanged","inputs":[{"name":"role","type":"bytes32","indexed":true,"internalType":"bytes32"},{"name":"previousAdminRole","type":"bytes32","indexed":true,"internalType":"bytes32"},{"name":"newAdminRole","type":"bytes32","indexed":true,"internalType":"bytes32"}],"anonymous":false},{"type":"event","name":"RoleGranted","inputs":[{"name":"role","type":"bytes32","indexed":true,"internalType":"bytes32"},{"name":"account","type":"address","indexed":true,"internalType":"address"},{"name":"sender","type":"address","indexed":true,"internalType":"address"}],"anonymous":false},{"type":"event","name":"RoleRevoked","inputs":[{"name":"role","type":"bytes32","indexed":true,"internalType":"bytes32"},{"name":"account","type":"address","indexed":true,"internalType":"address"},{"name":"sender","type":"address","indexed":true,"internalType":"address"}],"anonymous":false},{"type":"event","name":"Unpaused","inputs":[{"name":"account","type":"address","indexed":false,"internalType":"address"}],"anonymous":false},{"type":"error","name":"AccessControlBadConfirmation","inputs":[]},{"type":"error","name":"AccessControlUnauthorizedAccount","inputs":[{"name":"account","type":"address","internalType":"address"},{"name":"neededRole","type":"bytes32","internalType":"bytes32"}]},{"type":"error","name":"AddressEmptyCode","inputs":[{"name":"target","type":"address","internalType":"address"}]},{"type":"error","name":"AddressInsufficientBalance","inputs":[{"name":"account","type":"address","internalType":"address"}]},{"type":"error","name":"AgentAlreadyExists","inputs":[]},{"type":"error","name":"ERC1167FailedCreateClone","inputs":[]},{"type":"error","name":"EnforcedPause","inputs":[]},{"type":"error","name":"ExpectedPause","inputs":[]},{"type":"error","name":"FailedInnerCall","inputs":[]},{"type":"error","name":"InvalidInitialization","inputs":[]},{"type":"error","name":"NotInitializing","inputs":[]},{"type":"error","name":"SafeERC20FailedOperation","inputs":[{"name":"token","type":"address","internalType":"address"}]}],"bytecode":{"object":"0x6080806040523460d0577ff0c57e16840df040f15088dc2f81fe391c3923bec73e23a9662efc9c229c6a005460ff8160401c1660c1576002600160401b03196001600160401b03821601605c575b6040516163ce90816100d58239f35b6001600160401b0319166001600160401b039081177ff0c57e16840df040f15088dc2f81fe391c3923bec73e23a9662efc9c229c6a005581527fc7f505b2f371ae2175ee4913f4499e1f2633a7b5936321eed1cdaeb6115181d290602090a15f80604d565b63f92ee8a960e01b5f5260045ffd5b5f80fdfe6080806040526004361015610012575f80fd5b5f905f3560e01c90816301ffc9a71461490557508063063513b7146148e85780630c4cb55c146148c05780630f07646a146146505780631083f7611461462857806312d43a51146146005780631f2f4bfd14613dd757806323c31596146134fe578063248a9ca3146134cc5780632cf404dc146134545780632e1a7d4d146133055780632f2ff15d146132c85780632f3a3d5d146132a05780633094afb31461326657806336568abe146132205780633f4ba83a146131a25780633fa2da7e14612ad1578063468d198d14612aa957806347ccca0214612a815780634e57eb97146127135780635c975abb146126e5578063634282af146126815780636817031b1461263e5780638456cb59146125cd57806391d14854146125855780639300d238146125125780639cbe0bac146124ea5780639d699326146124c25780639e4ec30a14611e1a578063a217fddf14611e00578063b4136bd814611d88578063bd1cf25814611d3c578063c505371214611d1f578063c79aa45b14610bc8578063d2f58559146102ee578063d547741f146102a7578063ddf4427514610289578063e02023a11461024e5763e887b1cc146101cb575f80fd5b3461024b57602036600319011261024b5760043590600e5482101561024b57600e5482101561023757600e81527fbb7b4a454dc3493923482f07822329ed19e8244eff582cc204f8554c3620c3fd9091015460405160039290921b1c6001600160a01b03168152602090f35b634e487b7160e01b81526032600452602490fd5b80fd5b503461024b578060031936011261024b5760206040517f5d8e12c39142ff96d79d04d15d1ba1269e4fe57bb9d26f43523628b34ba108ec8152f35b503461024b578060031936011261024b576020600654604051908152f35b503461024b57604036600319011261024b576102ea6004356102c761496e565b906102e56102e0825f525f602052600160405f20015490565b615104565b61517c565b5080f35b503461024b5760a036600319011261024b576024359060043560443561031261499a565b61031a615046565b600d5461032d60ff8260a01c1615614ccc565b60ff60a01b1916600160a01b17600d5581850394808611610bb45761039a939495604051938260208601526040850152606084015280608084015260a08301528460c083015260018060a01b031660e082015260e0815261039061010082614a52565b60843590836152e9565b8152600b602052604081206040516103b181614a00565b6040516103c9816103c28186614c3f565b0382614a52565b81526040516103df816103c28160018701614c3f565b60208201526040516103f8816103c28160028701614c3f565b604082015261041160ff60038401541660608301614cc0565b6004820154608082015260058201546001600160a01b031660a0820152604051600683018054808352908552602080862091839182019087905b80601f830110610a0c576105619454918181106109f8575b8181106109e1575b8181106109ca575b8181106109b3575b81811061099d575b818110610986575b81811061096f575b818110610958575b818110610941575b81811061092a575b818110610913575b8181106108fc575b8181106108e5575b8181106108ce575b8181106108b7575b8181106108a0575b818110610889575b818110610872575b81811061085b575b818110610844575b81811061082d575b818110610816575b8181106107ff575b8181106107e8575b8181106107d1575b8181106107ba575b8181106107a3575b81811061078c575b818110610775575b81811061075e575b818110610747575b10610739575b500382614a52565b60c0820152600782015460e0820152610180600b60088401549384610100850152600981015461012085015263ffffffff600a82015460018060a01b03811661014087015260a01c1661016085015201549101528160018060a01b036004541691602460405180948193635652386760e11b835260048301525afa90811561072e57829161060f575b602082810151600d805460ff60a01b191690556040516001600160a01b039091168152f35b90503d8083833e6106208183614a52565b81019060208183031261071e578051906001600160401b03821161072657019060a08282031261071e576040519161065783614a1c565b61066081614efb565b835261066e60208201614efb565b602084015261067f60408201614efb565b604084015261069060608201614efb565b60608401526080810151906001600160401b03821161072a57019080601f83011215610726578151936106c285614ad4565b926106d06040519485614a52565b85845260208085019660051b82010192831161072257602001945b828610610704575050506020925060808201525f6105ea565b855160ff8116810361071e578152602095860195016106eb565b8280fd5b5080fd5b8380fd5b8480fd5b6040513d84823e3d90fd5b60f81c81526020015f610559565b92602060019160ff8560f01c168152019301610553565b92602060019160ff8560e81c16815201930161054b565b92602060019160ff8560e01c168152019301610543565b92602060019160ff8560d81c16815201930161053b565b92602060019160ff8560d01c168152019301610533565b92602060019160ff8560c81c16815201930161052b565b92602060019160ff8560c01c168152019301610523565b92602060019160ff8560b81c16815201930161051b565b92602060019160ff8560b01c168152019301610513565b92602060019160ff8560a81c16815201930161050b565b92602060019160ff8560a01c168152019301610503565b92602060019160ff8560981c1681520193016104fb565b92602060019160ff8560901c1681520193016104f3565b92602060019160ff8560881c1681520193016104eb565b92602060019160ff8560801c1681520193016104e3565b92602060019160ff8560781c1681520193016104db565b92602060019160ff8560701c1681520193016104d3565b92602060019160ff8560681c1681520193016104cb565b92602060019160ff8560601c1681520193016104c3565b92602060019160ff8560581c1681520193016104bb565b92602060019160ff8560501c1681520193016104b3565b92602060019160ff8560481c1681520193016104ab565b92602060019160ff8560401c1681520193016104a3565b92602060019160ff8560381c16815201930161049b565b92602060019160ff8560301c168152019301610493565b92602060019160ff8560281c16815201930161048b565b92602060019160ff85831c168152019301610483565b92602060019160ff8560181c16815201930161047b565b92602060019160ff8560101c168152019301610473565b92602060019160ff8560081c16815201930161046b565b92602060019160ff85168152019301610463565b916020919350610400600191865460ff8116825260ff8160081c168583015260ff8160101c16604083015260ff8160181c16606083015260ff81861c16608083015260ff8160281c1660a083015260ff8160301c1660c083015260ff8160381c1660e083015260ff8160401c1661010083015260ff8160481c1661012083015260ff8160501c1661014083015260ff8160581c1661016083015260ff8160601c1661018083015260ff8160681c166101a083015260ff8160701c166101c083015260ff8160781c166101e083015260ff8160801c1661020083015260ff8160881c1661022083015260ff8160901c1661024083015260ff8160981c1661026083015260ff8160a01c1661028083015260ff8160a81c166102a083015260ff8160b01c166102c083015260ff8160b81c166102e083015260ff8160c01c1661030083015260ff8160c81c1661032083015260ff8160d01c1661034083015260ff8160d81c1661036083015260ff8160e01c1661038083015260ff8160e81c166103a083015260ff8160f01c166103c083015260f81c6103e082015201940192018492939161044b565b634e487b7160e01b85526011600452602485fd5b5034611527576060366003190112611527576004356024358015158091036115275760443591600d54610c0160ff8260a01c1615614ccc565b60ff60a01b1916600160a01b17600d555f818152600b6020526040902060050154336001600160a01b0391909116148015611ce8575b610c4090614d09565b604051905f8260145491610c5383614b68565b8083529260018116908115611cc95750600114611c6a575b610c7792500383614a52565b805f52600b60205260ff600360405f200154166003811015611c5657610c9d9015614d44565b6012546001600160a01b031615611c1b575f52600b60205260405f209160048301905f8254925560038401600160ff19825416179055600184019160405190610cf182610cea8189614c3f565b0383614a52565b604051610d02816103c28188614c3f565b600254610d199089906001600160a01b0316616297565b9560018060a01b03871693845f52601760205260ff60405f205416611c0c57610dc6610da691865f52601760205260405f20600160ff19825416179055610db860405195610d6687614a37565b6012546001600160a01b039081168852600f5481166020808a01919091526009549091166040808a019190915280519182015294859360608501906149dc565b838103601f19016040850152906149dc565b03601f198101835282614a52565b843b1561152757604051634258efa960e11b8152928391905f600484015b60038210611be957505050610e30610e1f5f94610e0d859460c0606487015260c48601906149dc565b848103600319016084860152906149dc565b8281036003190160a4840152614ba0565b038183875af18015611bde57611bc9575b50610e4b85616210565b60405163d6efd7c360e01b81528881600481865afa908115611bbe578991611b1a575b50805115611b0657602001516009546001600160a01b0391821696610e96939290911661513c565b803b156114f457604051631672aef960e21b81523060048201528790818160248183875af1801561072e57611af1575b5050610f1c91610f2a6040519466029ba30b5b2b2160cd1b6020870152610f0286610ef4602782018b615267565b03601f198101885287614a52565b604051948591607360f81b60208401526021830190615267565b03601f198101855284614a52565b600586018054601054608881901c62ffffff16763d602d80600a3d3981f3363d3d373d3d3d363d73000000178b5260781b6001600160781b0319166e5af43d82803e903d91602b57fd5bf31760205290936001600160a01b039190911691603760098bf06001600160a01b038116969093908715611ae257908b939291610fb3600a5442614eee565b6004546001600160a01b0316939092908a3b156114f4578694610ff694611008604051988997889763b2193b4d60e01b895260e060048a015260e48901906149dc565b878103600319016024890152906149dc565b9360448601528d6064860152608485015260a484015260c48301520381838a5af1801561072e57611ac9575b505061103f90616255565b6040519161106f600484611056602082018a615267565b632044414f60e01b815203601b19810186520184614a52565b600a86019263ffffffff845460a01c1697611099600b8901549160018060a01b0360035416616297565b9160018060a01b038316998a8c52601760205260ff60408d205416611aba576004548c9392916001600160a01b03909116908c3b1561072a576111018580948f938d9060405198899788968795631c63df3560e21b875260a0600488015260a48701906149dc565b93602486015260448501526064840152608483015203925af1801561072e57611aa1575b505061113090616276565b60018060a01b03600454169560405196632fd77c0d60e11b8852602088600481845afa978815611a96578a98611a62575b50600d548354604051631f889aa560e11b8152600481018b90526001600160a01b03928316602482015261010060448201528c9594939092909160068501918b918e91166111b6610104870160028901614c3f565b91606487015260848601526003198582030160a4860152602083549182815201928852602088209088915b81601f8401106118b05786946020969486948c948694549181811061189e575b818110611888575b818110611872575b81811061185c575b818110611848575b818110611832575b81811061181c575b818110611806575b8181106117f0575b8181106117da575b8181106117c4575b8181106117ae575b818110611798575b818110611782575b81811061176c575b818110611756575b818110611740575b81811061172a575b818110611714575b8181106116fe575b8181106116e8575b8181106116d2575b8181106116bc575b8181106116a6575b818110611690575b81811061167a575b818110611664575b81811061164e575b818110611638575b818110611622575b81811061160c575b106115fd575b5060c48301528b60e483015203925af180156115f2576115bc575b5060088101889055600554945460099091015460048054604051638a54c52f60e01b81526001600160a01b0394851692810192909252602482019290925246604482015290821660648201526084810189905294602091869160a49183918791165af193841561072e578294611580575b506004546001600160a01b031693843b1561071e5782809160446040518094819363190b373360e31b83528d600484015260018060a01b0316998a60248401525af190811561153357839161156b575b505060405163095ea7b360e01b8152600481018690525f196024820152602081604481868b5af180156115335761153e575b506040516370a0823160e01b8152306004820152906020826024818a5afa9182156115335783926114f8575b50546013546001600160a01b039081169116863b15610726576040519263a7d545db60e01b8452600484015260248301526044820152818160648183895af1801561072e576114d5575b50937ff9d151d23a5253296eb20ab40959cf48828ea2732d337416716e302ed83ca6589360c093888894604051958652602086015260408501526060840152608083015260a0820152a1600d805460ff60a01b1916905580f35b816114e591979695949397614a52565b6114f45790919293865f61147b565b8680fd5b925090506020823d60201161152b575b8161151560209383614a52565b8101031261152757889151905f611431565b5f80fd5b3d9150611508565b6040513d85823e3d90fd5b61155f9060203d602011611564575b6115578183614a52565b8101906152d1565b611405565b503d61154d565b8161157591614a52565b61072257815f6113d3565b9093506020813d6020116115b4575b8161159c60209383614a52565b81010312610722576115ad90614efb565b925f611383565b3d915061158f565b9092506020813d6020116115ea575b816115d860209383614a52565b81010312611527575088916020611312565b3d91506115cb565b6040513d86823e3d90fd5b60f81c8252908701905f6112f7565b938a60019160ff8560f01c1681520194016112f1565b938a60019160ff8560e81c1681520194016112e9565b938a60019160ff8560e01c1681520194016112e1565b938a60019160ff8560d81c1681520194016112d9565b938a60019160ff8560d01c1681520194016112d1565b938a60019160ff8560c81c1681520194016112c9565b938a60019160ff8560c01c1681520194016112c1565b938a60019160ff8560b81c1681520194016112b9565b938a60019160ff8560b01c1681520194016112b1565b938a60019160ff8560a81c1681520194016112a9565b938a60019160ff8560a01c1681520194016112a1565b938a60019160ff8560981c168152019401611299565b938a60019160ff8560901c168152019401611291565b938a60019160ff8560881c168152019401611289565b938a60019160ff8560801c168152019401611281565b938a60019160ff8560781c168152019401611279565b938a60019160ff8560701c168152019401611271565b938a60019160ff8560681c168152019401611269565b938a60019160ff8560601c168152019401611261565b938a60019160ff8560581c168152019401611259565b938a60019160ff8560501c168152019401611251565b938a60019160ff8560481c168152019401611249565b938a60019160ff8560401c168152019401611241565b938a60019160ff8560381c168152019401611239565b938a60019160ff8560301c168152019401611231565b938a60019160ff8560281c168152019401611229565b828b1c60ff168552938a0193600101611221565b938a60019160ff8560181c168152019401611219565b938a60019160ff8560101c168152019401611211565b938a60019160ff8560081c168152019401611209565b60ff83168552938a0193600101611201565b9495969798509150916001610400602092865460ff8116825260ff8160081c168583015260ff8160101c16604083015260ff8160181c16606083015260ff81861c16608083015260ff8160281c1660a083015260ff8160301c1660c083015260ff8160381c1660e083015260ff8160401c1661010083015260ff8160481c1661012083015260ff8160501c1661014083015260ff8160581c1661016083015260ff8160601c1661018083015260ff8160681c166101a083015260ff8160701c166101c083015260ff8160781c166101e083015260ff8160801c1661020083015260ff8160881c1661022083015260ff8160901c1661024083015260ff8160981c1661026083015260ff8160a01c1661028083015260ff8160a81c166102a083015260ff8160b01c166102c083015260ff8160b81c166102e083015260ff8160c01c1661030083015260ff8160c81c1661032083015260ff8160d01c1661034083015260ff8160d81c1661036083015260ff8160e01c1661038083015260ff8160e81c166103a083015260ff8160f01c166103c083015260f81c6103e082015201940192018b918f9897969594936111e1565b9097506020813d602011611a8e575b81611a7e60209383614a52565b810103126115275751965f611161565b3d9150611a71565b6040513d8c823e3d90fd5b81611aab91614a52565b611ab657885f611125565b8880fd5b630d82532d60e21b8c5260048cfd5b81611ad391614a52565b611ade57875f611034565b8780fd5b6330be1a3d60e21b8c5260048cfd5b81611afb91614a52565b6114f457865f610ec6565b634e487b7160e01b89526032600452602489fd5b90503d808a833e611b2b8183614a52565b810190602081830312611bb6578051906001600160401b038211611bba57019080601f83011215611bb6578151611b6181614ad4565b92611b6f6040519485614a52565b81845260208085019260051b820101928311611bb257602001905b828210611b9a575050505f610e6e565b60208091611ba784614efb565b815201910190611b8a565b8b80fd5b8980fd5b8a80fd5b6040513d8b823e3d90fd5b611bd69198505f90614a52565b5f965f610e41565b6040513d5f823e3d90fd5b82516001600160a01b031681528694506020928301926001929092019101610de4565b630d82532d60e21b5f5260045ffd5b60405162461bcd60e51b8152602060048201526013602482015272151bdad95b8818591b5a5b881b9bdd081cd95d606a1b6044820152606490fd5b634e487b7160e01b5f52602160045260245ffd5b5060145f90815290917fce6d7b5282bd9a3661ae061feed1dbda4e52ab073b1f9285be6e155d9c38d4ec5b818310611cad575050906020610c7792820101610c6b565b6020919350806001915483858901015201910190918492611c95565b60209250610c7794915060ff191682840152151560051b820101610c6b565b50335f9081527f20be27040b8e00df40bca0df34743417f3574a156386188f7d7f14369e5ee82b602052604090205460ff16610c37565b34611527575f366003190112611527576020600754604051908152f35b34611527576020366003190112611527577fcfa33021ab0175831433b2f3bd8eeb24a22f5ae53ca0e660a246811754f9e34a6020600435611d7b6150b5565b80600655604051908152a1005b346115275760203660031901126115275760043560085481101561152757600854811015611dec5760085f527ff3f7a9fe364faab93b216da50a3214154f22a0a2b415b23a84c8169e8b636ee301546040516001600160a01b039091168152602090f35b634e487b7160e01b5f52603260045260245ffd5b34611527575f3660031901126115275760206040515f8152f35b3461152757610100366003190112611527576004356001600160401b03811161152757611e4b903690600401614a8e565b6024356001600160401b03811161152757611e6a903690600401614a8e565b906044356001600160401b03811161152757611e8a903690600401614a8e565b906064356001600160401b03811161152757611eaa903690600401614aeb565b92611eb36149c6565b60c43563ffffffff811680910361152757611ecc6151fc565b6009546040516370a0823160e01b81523360048201526001600160a01b0390911690602081602481855afa908115611bde575f91612490575b50611f1560065480921015614da8565b604051636eb1769f60e11b815233600482015230602482015291602083604481845afa928315611bde575f9361245a575b50611f5682611f6b941015614df4565b611f6289511515614e4b565b30903390615223565b60015494611f7886614e90565b60015560065460405195611f8b87614a00565b8652602086019485526040860191825260608601905f82526080870190815260a0870133815260c08801998a5260e08801914383526101008901935f85526101208a019560843587526101408b019860018060a01b031689526101608b019788526101808b019960e4358b528c5f52600b60205260405f209b5180516001600160401b0381116123125761202a818f6120248154614b68565b90614eb4565b60208e6001601f8411146123f75750819061205a935f92612326575b50508160011b915f199060031b1c19161790565b8c555b51805160018d01916001600160401b03821161231257612087826120818554614b68565b85614eb4565b602090601f8311600114612394576120b592915f91836123265750508160011b915f199060031b1c19161790565b90555b51805160028c01916001600160401b038211612312576120dc826120818554614b68565b602090601f83116001146123315761210a92915f91836123265750508160011b915f199060031b1c19161790565b90555b516003811015611c56576121249060038b01614d90565b516004890155516005880180546001600160a01b0319166001600160a01b0392909216919091179055975180516006880199916001600160401b03821161231257600160401b8211612312576020908b54838d558084106122c8575b5001995f5260205f208160051c915f5b8381106122815750601f198116900380612230575b835160078b0155845160088b0155855160098b01558751600a8b018054895163ffffffff60a01b60a09190911b166001600160a01b039093166001600160c01b0319909116179190911790558851600b8b01556040518b81526020908c907f0ff47c4a3dc48719ecfd1876116e80d7d76ec7cb67248ae49449f9104747af29908390a1604051908152f35b9a5f9b5f5b818110612250575050500198909855602097600b8a806121a5565b90919c60206122778f928460ff6001955116919060ff809160031b9316831b921b19161790565b9e01929101612235565b5f805b60208110612299575083820155600101612190565b9d9060208f6001926122bf9160ff865116919060ff809160031b9316831b921b19161790565b92019e01612284565b6122f2908d5f52835f20601f80870160051c820192818816806122f8575b500160051c0190614e9e565b8c612180565b5f198501908154905f19908a0360031b1c1690555f6122e6565b634e487b7160e01b5f52604160045260245ffd5b015190505f80612046565b90601f19831691845f52815f20925f5b81811061237c5750908460019594939210612364575b505050811b01905561210d565b01515f1960f88460031b161c191690558f8080612357565b92936020600181928786015181550195019301612341565b90601f19831691845f52815f20925f5b8181106123df57509084600195949392106123c7575b505050811b0190556120b8565b01515f1960f88460031b161c191690555f80806123ba565b929360206001819287860151815501950193016123a4565b9192601f198416925f52815f20925f5b818110612442575090846001959493921061242a575b505050811b018c5561205d565b01515f1960f88460031b161c191690555f808061241d565b92936020600181928786015181550195019301612407565b92506020833d602011612488575b8161247560209383614a52565b8101031261152757915191611f56611f46565b3d9150612468565b90506020813d6020116124ba575b816124ab60209383614a52565b81010312611527575188611f05565b3d915061249e565b34611527575f366003190112611527576003546040516001600160a01b039091168152602090f35b34611527575f366003190112611527576010546040516001600160a01b039091168152602090f35b346115275760603660031901126115275761252b614958565b61253361496e565b9061253c614984565b906125456150b5565b600280546001600160a01b03199081166001600160a01b039384161790915560038054821693831693909317909255601080549092169216919091179055005b346115275760403660031901126115275761259e61496e565b6004355f525f60205260405f209060018060a01b03165f52602052602060ff60405f2054166040519015158152f35b34611527575f366003190112611527576125e56150b5565b6125ed6151fc565b600160ff195f805160206163598339815191525416175f80516020616359833981519152557f62e78cea01bee320cd4e420270b5ea74000d11b0c9f74754ebdbfc544b05a2586020604051338152a1005b3461152757602036600319011261152757612657614958565b61265f6150b5565b600d80546001600160a01b0319166001600160a01b0392909216919091179055005b346115275760203660031901126115275760043560075481101561152757600754811015611dec5760075f527fa66cc928b5edb82af9bd49922954155ab7b0942694bea4ce44661d9a8736c68801546040516001600160a01b039091168152602090f35b34611527575f36600319011261152757602060ff5f8051602061635983398151915254166040519015158152f35b34611527576101603660031901126115275760043560243560c4356001600160a01b038116906044359082900361152757610144356001600160a01b0381169390849003611527576127636150b5565b8461276e8383614eee565b11612a4b5760405194602086015260408501526060840152606435608084015260843560a084015260a43560c084015260e083015260e082526127b361010083614a52565b81516001600160401b038111612312576127ce601454614b68565b601f81116129fd575b50602092601f821160011461297e57612807929382915f926129735750508160011b915f199060031b1c19161790565b6014555b6040519060e435602083015261010435604083015261012435606083015260808201526080815261283d60a082614a52565b80516001600160401b03811161231257612858601554614b68565b601f811161291a575b50602091601f821160011461289f5761288f925f91836128945750508160011b915f199060031b1c19161790565b601555005b015190508380612046565b601f1982169260155f527f55f448fdea98c4d29eb340757ef0a66cd03dbb9538908a6a81d96026b71ec475915f5b858110612902575083600195106128ea575b505050811b01601555005b01515f1960f88460031b161c191690558280806128df565b919260206001819286850151815501940192016128cd565b60155f52612963907f55f448fdea98c4d29eb340757ef0a66cd03dbb9538908a6a81d96026b71ec475601f840160051c81019160208510612969575b601f0160051c0190614e9e565b82612861565b9091508190612956565b015190508480612046565b601f1982169360145f527fce6d7b5282bd9a3661ae061feed1dbda4e52ab073b1f9285be6e155d9c38d4ec915f5b8681106129e557508360019596106129cd575b505050811b0160145561280b565b01515f1960f88460031b161c191690558380806129bf565b919260206001819286850151815501940192016129ac565b60145f52612a45907fce6d7b5282bd9a3661ae061feed1dbda4e52ab073b1f9285be6e155d9c38d4ec601f840160051c8101916020851061296957601f0160051c0190614e9e565b836127d7565b60405162461bcd60e51b815260206004820152600e60248201526d496e76616c696420737570706c7960901b6044820152606490fd5b34611527575f366003190112611527576004546040516001600160a01b039091168152602090f35b34611527575f366003190112611527576005546040516001600160a01b039091168152602090f35b3461152757610120366003190112611527576004356001600160401b03811161152757612b02903690600401614a8e565b6024356001600160401b03811161152757612b21903690600401614a8e565b906044356001600160401b03811161152757612b41903690600401614aeb565b91612b4a6149b0565b9160a4359363ffffffff85168095036115275760e43594610104356001600160a01b038116959086900361152757612b806151fc565b612b88615046565b6009546040516370a0823160e01b81523360048201526001600160a01b0390911690602081602481855afa8015611bde5789905f9061316c575b612bce92501015614da8565b604051636eb1769f60e11b8152336004820152306024820152602081604481855afa8015611bde5789915f91613135575b5091612c1082612c1c941015614df4565b611f6286511515614e4b565b60015495612c2987614e90565b60015560405194612c3986614a00565b855260208501958652602097604051612c528a82614a52565b5f815260408701525f6060870152608086015260a085015260c084019283524360e08501525f61010085015260643561012085015260018060a01b031661014084015261016083015260c435610180830152835f52600b855260405f209282518051906001600160401b03821161231257612cd782612cd18854614b68565b88614eb4565b8790601f83116001146130ce57612d0492915f91836130c35750508160011b915f199060031b1c19161790565b84555b518051906001600160401b03821161231257612d3382612d2a6001880154614b68565b60018801614eb4565b8690601f831160011461305657612d6092915f9183612fde5750508160011b915f199060031b1c19161790565b60018401555b60408201518051906001600160401b03821161231257612d9682612d8d6002880154614b68565b60028801614eb4565b8690601f8311600114612fe957612dc392915f9183612fde5750508160011b915f199060031b1c19161790565b60028401555b60608201516003811015611c5657612de49060038501614d90565b6080820151600484015560a08201516005840180546001600160a01b0319166001600160a01b039290921691909117905551805160068401916001600160401b03821161231257600160401b82116123125786908354838555808410612f95575b5001915f52855f208160051c915f5b838110612f575750601f198116900380612f0a575b5050505060e0810151600783015561010081015160088301556101208101516009830155610140810151600a8301805461016084015163ffffffff60a01b60a09190911b166001600160a01b039093166001600160c01b0319909116179190911790556101800151600b909101556040518181527f0ff47c4a3dc48719ecfd1876116e80d7d76ec7cb67248ae49449f9104747af29908390a1604051908152f35b925f935f5b89828210612f2957505050500155610180600b8680612e69565b612f4d84978360ff60019596975116919060ff809160031b9316831b921b19161790565b9601929101612f0f565b5f805b8a808210612f7057505083820155600101612e54565b875191979260019260ff60038b901b81811b19909316911690911b1792019601612f5a565b612fbe90855f52835f20601f80870160051c82019281881680612fc457500160051c0190614e9e565b88612e45565b5f198501908154905f19908a0360031b1c1690558d6122e6565b015190508880612046565b9190600286015f52875f20905f935b89601f198516861061303d57506001945083601f19811610613025575b505050811b016002840155612dc9565b01515f1960f88460031b161c19169055878080613015565b8282015184559485019460019093019290910190612ff8565b9190600186015f52875f20905f935b89601f19851686106130aa57506001945083601f19811610613092575b505050811b016001840155612d66565b01515f1960f88460031b161c19169055878080613082565b8282015184559485019460019093019290910190613065565b015190508980612046565b9190865f52885f20905f935b8a601f198516861061311c57506001945083601f19811610613104575b505050811b018455612d07565b01515f1960f88460031b161c191690558880806130f7565b82820151845594850194600190930192909101906130da565b9150506020813d602011613164575b8161315160209383614a52565b8101031261152757518890612c10612bff565b3d9150613144565b50506020813d60201161319a575b8161318760209383614a52565b810103126115275788612bce9151612bc2565b3d915061317a565b34611527575f366003190112611527576131ba6150b5565b5f805160206163598339815191525460ff8116156132115760ff19165f80516020616359833981519152557f5db9ee0a495bf2e6ff9c91a7834c1ba4fdd244a5e8aa4e537bd38aeae4b073aa6020604051338152a1005b638dfc202b60e01b5f5260045ffd5b346115275760403660031901126115275761323961496e565b336001600160a01b03821603613257576132559060043561517c565b005b63334bd91960e11b5f5260045ffd5b34611527575f3660031901126115275760206040517f360f1ba4dc07a42c6671063d838f69946ccc4187f391399e06fd8ed4605900f38152f35b34611527575f366003190112611527576002546040516001600160a01b039091168152602090f35b34611527576040366003190112611527576132556004356132e761496e565b906133006102e0825f525f602052600160405f20015490565b614fbe565b3461152757602036600319011261152757600d5461332960ff8260a01c1615614ccc565b60ff60a01b1916600160a01b17600d556004355f908152600b60205260409020600581018054336001600160a01b039190911614801561341d575b61336d90614d09565b600382019060ff8254166003811015611c565761338a9015614d44565b60078301544311156133d85760049290920180545f909155815460ff191660021790915560095491546133c9926001600160a01b03918216911661513c565b600d805460ff60a01b19169055005b60405162461bcd60e51b815260206004820152601e60248201527f4170706c69636174696f6e206973206e6f74206d6174757265642079657400006044820152606490fd5b50335f9081527f20be27040b8e00df40bca0df34743417f3574a156386188f7d7f14369e5ee82b602052604090205460ff16613364565b346115275760803660031901126115275761346d61496e565b613475614984565b61347d61499a565b916134866150b5565b600435600a55600f80546001600160a01b03199081166001600160a01b039384161790915560138054821693831693909317909255601280549092169216919091179055005b346115275760203660031901126115275760206134f66004355f525f602052600160405f20015490565b604051908152f35b346115275760803660031901126115275760043560243560443561352061499a565b90613529615046565b60405160208101903360601b82524260348201526034815261354c605482614a52565b51902091613558615046565b600d5461356b60ff8260a01c1615614ccc565b60ff60a01b1916600160a01b17600d5581840393808511613dc3576135d294604051938260208601526040850152606084015280608084015260a08301525f60c083015260018060a01b031660e082015260e081526135cc61010082614a52565b836152e9565b5f52600b60205260405f206040516135e981614a00565b6040516135fa816103c28186614c3f565b8152604051613610816103c28160018701614c3f565b6020820152604051613629816103c28160028701614c3f565b604082015261364260ff60038401541660608301614cc0565b6004820154608082015260058201546001600160a01b031660a08201526040516006830180548083525f9182526020808320928492918301915b80601f830110613c1b57613791945491818110613c07575b818110613bf0575b818110613bd9575b818110613bc2575b818110613bac575b818110613b95575b818110613b7e575b818110613b67575b818110613b50575b818110613b39575b818110613b22575b818110613b0b575b818110613af4575b818110613add575b818110613ac6575b818110613aaf575b818110613a98575b818110613a81575b818110613a6a575b818110613a53575b818110613a3c575b818110613a25575b818110613a0e575b8181106139f7575b8181106139e0575b8181106139c9575b8181106139b2575b81811061399b575b818110613984575b81811061396d575b818110613956575b1061394857500382614a52565b60c0820152600782015460e0820152610180600b60088401549384610100850152600981015461012085015263ffffffff600a82015460018060a01b03811661014087015260a01c1661016085015201549101525f60018060a01b036004541691602460405180948193635652386760e11b835260048301525afa8015611bde575f9061383e575b602090810151600d805460ff60a01b191690556040516001600160a01b039091168152f35b503d805f833e61384e8183614a52565b810190602081830312611527578051906001600160401b038211611527570160a081830312611527576040519061388482614a1c565b61388d81614efb565b825261389b60208201614efb565b60208301526138ac60408201614efb565b60408301526138bd60608201614efb565b60608301526080810151906001600160401b038211611527570182601f82011215611527578051926138ee84614ad4565b916138fc6040519384614a52565b84835260208084019560051b82010191821161152757602001935b81851061392e575050602092506080820152613819565b845160ff8116810361152757815260209485019401613917565b60f81c815260200186610559565b92602060019160ff8560f01c168152019301613784565b92602060019160ff8560e81c16815201930161377c565b92602060019160ff8560e01c168152019301613774565b92602060019160ff8560d81c16815201930161376c565b92602060019160ff8560d01c168152019301613764565b92602060019160ff8560c81c16815201930161375c565b92602060019160ff8560c01c168152019301613754565b92602060019160ff8560b81c16815201930161374c565b92602060019160ff8560b01c168152019301613744565b92602060019160ff8560a81c16815201930161373c565b92602060019160ff8560a01c168152019301613734565b92602060019160ff8560981c16815201930161372c565b92602060019160ff8560901c168152019301613724565b92602060019160ff8560881c16815201930161371c565b92602060019160ff8560801c168152019301613714565b92602060019160ff8560781c16815201930161370c565b92602060019160ff8560701c168152019301613704565b92602060019160ff8560681c1681520193016136fc565b92602060019160ff8560601c1681520193016136f4565b92602060019160ff8560581c1681520193016136ec565b92602060019160ff8560501c1681520193016136e4565b92602060019160ff8560481c1681520193016136dc565b92602060019160ff8560401c1681520193016136d4565b92602060019160ff8560381c1681520193016136cc565b92602060019160ff8560301c1681520193016136c4565b92602060019160ff8560281c1681520193016136bc565b92602060019160ff85831c1681520193016136b4565b92602060019160ff8560181c1681520193016136ac565b92602060019160ff8560101c1681520193016136a4565b92602060019160ff8560081c16815201930161369c565b92602060019160ff85168152019301613694565b916020919350610400600191865460ff8116825260ff8160081c168583015260ff8160101c16604083015260ff8160181c16606083015260ff81861c16608083015260ff8160281c1660a083015260ff8160301c1660c083015260ff8160381c1660e083015260ff8160401c1661010083015260ff8160481c1661012083015260ff8160501c1661014083015260ff8160581c1661016083015260ff8160601c1661018083015260ff8160681c166101a083015260ff8160701c166101c083015260ff8160781c166101e083015260ff8160801c1661020083015260ff8160881c1661022083015260ff8160901c1661024083015260ff8160981c1661026083015260ff8160a01c1661028083015260ff8160a81c166102a083015260ff8160b01c166102c083015260ff8160b81c166102e083015260ff8160c01c1661030083015260ff8160c81c1661032083015260ff8160d01c1661034083015260ff8160d81c1661036083015260ff8160e01c1661038083015260ff8160e81c166103a083015260ff8160f01c166103c083015260f81c6103e082015201940192018492939161367c565b634e487b7160e01b5f52601160045260245ffd5b34611527576020366003190112611527575f610180604051613df881614a00565b6060815260606020820152606060408201528260608201528260808201528260a0820152606060c08201528260e08201528261010082015282610120820152826101408201528261016082015201526004355f52600b60205260405f20604051613e6181614a00565b604051613e72816103c28186614c3f565b815260405191613e9083613e898160018501614c3f565b0384614a52565b6020820192835260405192613eb384613eac8160028601614c3f565b0385614a52565b6040830193845260ff60038301541691613ed1606085019384614cc0565b60048101546080850190815260058201546001600160a01b031660a086019081526040516006840180548083525f9182526020808320849391840192905b81601f840110614458575491818110614444575b81811061442d575b818110614416575b8181106143ff575b8181106143e9575b8181106143d2575b8181106143bb575b8181106143a4575b81811061438d575b818110614376575b81811061435f575b818110614348575b818110614331575b81811061431a575b818110614303575b8181106142ec575b8181106142d5575b8181106142be575b8181106142a7575b818110614290575b818110614279575b818110614262575b81811061424b575b818110614234575b81811061421d575b818110614206575b8181106141ef575b8181106141d8575b8181106141c1575b8181106141aa575b818110614193575b10614185575b50036140259082614a52565b60c0870190815260078401549060e0880191825260088501549261010089019384526009860154946101208a01958652600a8701549a6101408b0197600160a01b600190038d1689526101608c019c60a01c63ffffffff168d52600b0154986101808c01998a526040519b60208d525160208d016101a090526101c08d016140ac916149dc565b90518c8203601f190160408e01526140c491906149dc565b90518b8203601f190160608d01526140dc91906149dc565b98516003811015611c565760808b01525160a08a0152516001600160a01b031660c089015251878703601f190160e08901528051808852602097880197909101905f5b81811061416c5750509051610100880152505161012086015251610140850152516001600160a01b0316610160840152925163ffffffff1661018083015291516101a08201529081900390f35b825160ff1689526020988901989092019160010161411f565b60f81c81526020018a614019565b92602060019160ff8560f01c168152019301614013565b92602060019160ff8560e81c16815201930161400b565b92602060019160ff8560e01c168152019301614003565b92602060019160ff8560d81c168152019301613ffb565b92602060019160ff8560d01c168152019301613ff3565b92602060019160ff8560c81c168152019301613feb565b92602060019160ff8560c01c168152019301613fe3565b92602060019160ff8560b81c168152019301613fdb565b92602060019160ff8560b01c168152019301613fd3565b92602060019160ff8560a81c168152019301613fcb565b92602060019160ff8560a01c168152019301613fc3565b92602060019160ff8560981c168152019301613fbb565b92602060019160ff8560901c168152019301613fb3565b92602060019160ff8560881c168152019301613fab565b92602060019160ff8560801c168152019301613fa3565b92602060019160ff8560781c168152019301613f9b565b92602060019160ff8560701c168152019301613f93565b92602060019160ff8560681c168152019301613f8b565b92602060019160ff8560601c168152019301613f83565b92602060019160ff8560581c168152019301613f7b565b92602060019160ff8560501c168152019301613f73565b92602060019160ff8560481c168152019301613f6b565b92602060019160ff8560401c168152019301613f63565b92602060019160ff8560381c168152019301613f5b565b92602060019160ff8560301c168152019301613f53565b92602060019160ff8560281c168152019301613f4b565b92602060019160ff85831c168152019301613f43565b92602060019160ff8560181c168152019301613f3b565b92602060019160ff8560101c168152019301613f33565b92602060019160ff8560081c168152019301613f2b565b92602060019160ff85168152019301613f23565b935090916001610400602092865460ff8116825260ff8160081c168583015260ff8160101c16604083015260ff8160181c16606083015260ff81861c16608083015260ff8160281c1660a083015260ff8160301c1660c083015260ff8160381c1660e083015260ff8160401c1661010083015260ff8160481c1661012083015260ff8160501c1661014083015260ff8160581c1661016083015260ff8160601c1661018083015260ff8160681c166101a083015260ff8160701c166101c083015260ff8160781c166101e083015260ff8160801c1661020083015260ff8160881c1661022083015260ff8160901c1661024083015260ff8160981c1661026083015260ff8160a01c1661028083015260ff8160a81c166102a083015260ff8160b01c166102c083015260ff8160b81c166102e083015260ff8160c01c1661030083015260ff8160c81c1661032083015260ff8160d01c1661034083015260ff8160d81c1661036083015260ff8160e01c1661038083015260ff8160e81c166103a083015260ff8160f01c166103c083015260f81c6103e0820152019401920190849392613f0f565b34611527575f36600319011261152757600c546040516001600160a01b039091168152602090f35b34611527575f366003190112611527576009546040516001600160a01b039091168152602090f35b34611527576101203660031901126115275761466a614958565b61467261496e565b61467a614984565b61468261499a565b61468a6149b0565b6146926149c6565b9260e4359460018060a01b038616809603611527575f80516020616379833981519152549660ff8860401c1615976001600160401b038116801590816148b8575b60011490816148ae575b1590816148a5575b506148965767ffffffffffffffff1981166001175f80516020616379833981519152558861486a575b50614717616152565b61471f616152565b60ff195f8051602061635983398151915254165f805160206163598339815191525560018060a01b03166001600160601b0360a01b600254161760025560018060a01b03166001600160601b0360a01b601054161760105560018060a01b03166001600160601b0360a01b600354161760035560018060a01b03166001600160601b0360a01b600954161760095560018060a01b03166001600160601b0360a01b600554161760055560018060a01b03166001600160601b0360a01b600454161760045560c435600655610104356001556147f933614f0f565b506001600160601b0360a01b600d541617600d5561481357005b68ff0000000000000000195f8051602061637983398151915254165f80516020616379833981519152557fc7f505b2f371ae2175ee4913f4499e1f2633a7b5936321eed1cdaeb6115181d2602060405160018152a1005b68ffffffffffffffffff191668010000000000000001175f80516020616379833981519152558861470e565b63f92ee8a960e01b5f5260045ffd5b9050158a6146e5565b303b1591506146dd565b8a91506146d3565b34611527575f366003190112611527576013546040516001600160a01b039091168152602090f35b34611527575f366003190112611527576020600a54604051908152f35b34611527576020366003190112611527576004359063ffffffff60e01b821680920361152757602091637965db0b60e01b8114908115614947575b5015158152f35b6301ffc9a760e01b14905083614940565b600435906001600160a01b038216820361152757565b602435906001600160a01b038216820361152757565b604435906001600160a01b038216820361152757565b606435906001600160a01b038216820361152757565b608435906001600160a01b038216820361152757565b60a435906001600160a01b038216820361152757565b805180835260209291819084018484015e5f828201840152601f01601f1916010190565b6101a081019081106001600160401b0382111761231257604052565b60a081019081106001600160401b0382111761231257604052565b606081019081106001600160401b0382111761231257604052565b90601f801991011681019081106001600160401b0382111761231257604052565b6001600160401b03811161231257601f01601f191660200190565b81601f8201121561152757803590614aa582614a73565b92614ab36040519485614a52565b8284526020838301011161152757815f926020809301838601378301015290565b6001600160401b0381116123125760051b60200190565b9080601f8301121561152757813590614b0382614ad4565b92614b116040519485614a52565b82845260208085019360051b82010191821161152757602001915b818310614b395750505090565b823560ff8116810361152757815260209283019201614b2c565b8054821015611dec575f5260205f2001905f90565b90600182811c92168015614b96575b6020831014614b8257565b634e487b7160e01b5f52602260045260245ffd5b91607f1691614b77565b6015545f9291614baf82614b68565b8082529160018116908115614c235750600114614bca575050565b60155f9081529293509091907f55f448fdea98c4d29eb340757ef0a66cd03dbb9538908a6a81d96026b71ec4755b838310614c09575060209250010190565b600181602092949394548385870101520191019190614bf8565b9050602093945060ff929192191683830152151560051b010190565b5f9291815491614c4e83614b68565b8083529260018116908115614ca35750600114614c6a57505050565b5f9081526020812093945091925b838310614c89575060209250010190565b600181602092949394548385870101520191019190614c78565b915050602093945060ff929192191683830152151560051b010190565b6003821015611c565752565b15614cd357565b60405162461bcd60e51b815260206004820152600e60248201526d31b0b73737ba103932b2b73a32b960911b6044820152606490fd5b15614d1057565b60405162461bcd60e51b815260206004820152600c60248201526b2737ba10383937b837b9b2b960a11b6044820152606490fd5b15614d4b57565b60405162461bcd60e51b815260206004820152601960248201527f4170706c69636174696f6e206973206e6f7420616374697665000000000000006044820152606490fd5b906003811015611c565760ff80198354169116179055565b15614daf57565b60405162461bcd60e51b815260206004820152601860248201527f496e73756666696369656e7420617373657420746f6b656e00000000000000006044820152606490fd5b15614dfb57565b60405162461bcd60e51b815260206004820152602260248201527f496e73756666696369656e7420617373657420746f6b656e20616c6c6f77616e604482015261636560f01b6064820152608490fd5b15614e5257565b60405162461bcd60e51b815260206004820152601660248201527510dbdc995cc81b5d5cdd081899481c1c9bdd9a59195960521b6044820152606490fd5b5f198114613dc35760010190565b818110614ea9575050565b5f8155600101614e9e565b9190601f8111614ec357505050565b614eec925f5260205f20906020601f840160051c8301931061296957601f0160051c0190614e9e565b565b91908201809211613dc357565b51906001600160a01b038216820361152757565b6001600160a01b0381165f9081527fad3228b676f7d3cd4284a5443f17f1962b36e491b30a40b2405849e597ba5fb5602052604090205460ff16614fb9576001600160a01b03165f8181527fad3228b676f7d3cd4284a5443f17f1962b36e491b30a40b2405849e597ba5fb560205260408120805460ff191660011790553391907f2f8788117e7eff1d82e926ec794901d17c78024a50270940304540a733656f0d8180a4600190565b505f90565b5f818152602081815260408083206001600160a01b038616845290915290205460ff16615040575f818152602081815260408083206001600160a01b0395909516808452949091528120805460ff19166001179055339291907f2f8788117e7eff1d82e926ec794901d17c78024a50270940304540a733656f0d9080a4600190565b50505f90565b335f9081527f47fa3846800aa0e8a0094e76ddd8b6215145788c21499f1987cd67ad6fc41810602052604090205460ff161561507e57565b63e2517d3f60e01b5f52336004527f360f1ba4dc07a42c6671063d838f69946ccc4187f391399e06fd8ed4605900f360245260445ffd5b335f9081527fad3228b676f7d3cd4284a5443f17f1962b36e491b30a40b2405849e597ba5fb5602052604090205460ff16156150ed57565b63e2517d3f60e01b5f52336004525f60245260445ffd5b5f8181526020818152604080832033845290915290205460ff16156151265750565b63e2517d3f60e01b5f523360045260245260445ffd5b60405163a9059cbb60e01b60208201526001600160a01b039092166024830152604480830193909352918152614eec91615177606483614a52565b61617d565b5f818152602081815260408083206001600160a01b038616845290915290205460ff1615615040575f818152602081815260408083206001600160a01b0395909516808452949091528120805460ff19169055339291907ff6391f5c32d9c69d2a47ea670b442974b53935d1edc7fd64eb21e047a839171b9080a4600190565b60ff5f80516020616359833981519152541661521457565b63d93c066560e01b5f5260045ffd5b6040516323b872dd60e01b60208201526001600160a01b039283166024820152929091166044830152606480830193909352918152614eec91615177608483614a52565b5f929181549161527683614b68565b92600181169081156152be575060011461528f57505050565b90919293505f5260205f205f905b8382106152aa5750500190565b60018160209254848601520191019061529d565b60ff191683525050811515909102019150565b90816020910312611527575180151581036115275790565b9291905f93805f52600b60205260ff600360405f200154166003811015611c56576153149015614d44565b6012546001600160a01b031615611c1b575f52600b60205260405f209160048301905f8254925560038401600160ff1982541617905560018401916040519061536182610cea8189614c3f565b604051615372816103c28188614c3f565b6002546153899085906001600160a01b0316616297565b9560018060a01b03871693845f52601760205260ff60405f205416611c0c576153d6610da691865f52601760205260405f20600160ff19825416179055610db860405195610d6687614a37565b843b1561152757604051634258efa960e11b8152928391905f600484015b6003821061612f5750505061541d610e1f5f94610e0d859460c0606487015260c48601906149dc565b038183875af18015611bde5761611a575b5061543885616210565b60405163d6efd7c360e01b81528881600481865afa908115611bbe578991616082575b50805115611b0657602001516009546001600160a01b0391821696615483939290911661513c565b803b156114f457604051631672aef960e21b8152306004820152878160248183865af1801561607757616062575b506154fb939495966155096040519466029ba30b5b2b2160cd1b60208701526154e186610ef4602782018c615267565b604051968791607360f81b60208401526021830190615267565b03601f198101875286614a52565b600587018054601054608881901c62ffffff16763d602d80600a3d3981f3363d3d373d3d3d363d7300000017845260781b6001600160781b0319166e5af43d82803e903d91602b57fd5bf3176020526001600160a01b0316959094906037600984f06001600160a01b0381169790929088156160535761558b600a5442614eee565b6004546001600160a01b0316908a3b156114f457918693916155cd936155df604051978896879663b2193b4d60e01b885260e0600489015260e48801906149dc565b868103600319016024880152906149dc565b9260448501528d6064850152608484015260a4830152600160c48301520381838b5af180156115335790839161603e575b505061561b90616255565b6040519361564b600486615632602082018c615267565b632044414f60e01b815203601b19810188520186614a52565b600a88019463ffffffff865460a01c1694615675600b8b01549160018060a01b0360035416616297565b9160018060a01b03831696878652601760205260ff60408720541661602f576004546001600160a01b031692883b156114f457918a6156d39288946040519687958695631c63df3560e21b875260a0600488015260a48701906149dc565b9360248601526044850152606484015260848301520381838a5af180156115f25790849161601a575b505061570790616276565b60018060a01b036004541660405198632fd77c0d60e11b8a5260208a600481855afa998a156115f257849a615fe6575b50600d548354604051631f889aa560e11b8152600481018d90526001600160a01b03928316602482015261010060448201529391169083908660068501615785610104850160028801614c3f565b948b606486015260848501526003198486030160a48501526020815495868152019082528d6020832083905b87601f830110615e3757918694939160209886945491818110615e25575b818110615e0f575b818110615df9575b818110615de3575b818110615dcf575b818110615db9575b818110615da3575b818110615d8d575b818110615d77575b818110615d61575b818110615d4b575b818110615d35575b818110615d1f575b818110615d09575b818110615cf3575b818110615cdd575b818110615cc7575b818110615cb1575b818110615c9b575b818110615c85575b818110615c6f575b818110615c59575b818110615c43575b818110615c2d575b818110615c17575b818110615c01575b818110615beb575b818110615bd5575b818110615bbf575b818110615ba9575b818110615b93575b10615b84575b5060c48301528b60e483015203925af180156115f257615b52575b600881018a9055600554965460099091015460048054604051638a54c52f60e01b81526001600160a01b039485169281019290925260248201929092524660448201529082166064820152608481018b90529660209250879160a49183918791165af194851561072e578295615b16575b506004546001600160a01b031694853b1561071e5760405163190b373360e31b8152600481018a90526001600160a01b03909116602482018190529583908290604490829084905af1801561153357908391615b01575b505060405163095ea7b360e01b8152600481018790525f196024820152602081604481868c5af1801561153357615ae4575b506040516370a0823160e01b8152306004820152906020826024818b5afa918215611533578392615ab0575b50546013546001600160a01b039081169116873b15610726576040519263a7d545db60e01b84526004840152602483015260448201528181606481838a5af1801561072e57615a9b575b50506040805196875260208701919091528501526060840152608083015260a08201527ff9d151d23a5253296eb20ab40959cf48828ea2732d337416716e302ed83ca6589060c090a1565b615aa6828092614a52565b61024b5780615a50565b9091506020813d602011615adc575b81615acc60209383614a52565b810103126115275751905f615a06565b3d9150615abf565b615afc9060203d602011611564576115578183614a52565b6159da565b81615b0b91614a52565b61072257815f6159a8565b9094506020813d602011615b4a575b81615b3260209383614a52565b8101031261072257615b4390614efb565b935f615951565b3d9150615b25565b6020823d602011615b7c575b81615b6b60209383614a52565b8101031261152757602091506158e0565b3d9150615b5e565b60f81c8252908701905f6158c5565b938a60019160ff8560f01c1681520194016158bf565b938a60019160ff8560e81c1681520194016158b7565b938a60019160ff8560e01c1681520194016158af565b938a60019160ff8560d81c1681520194016158a7565b938a60019160ff8560d01c16815201940161589f565b938a60019160ff8560c81c168152019401615897565b938a60019160ff8560c01c16815201940161588f565b938a60019160ff8560b81c168152019401615887565b938a60019160ff8560b01c16815201940161587f565b938a60019160ff8560a81c168152019401615877565b938a60019160ff8560a01c16815201940161586f565b938a60019160ff8560981c168152019401615867565b938a60019160ff8560901c16815201940161585f565b938a60019160ff8560881c168152019401615857565b938a60019160ff8560801c16815201940161584f565b938a60019160ff8560781c168152019401615847565b938a60019160ff8560701c16815201940161583f565b938a60019160ff8560681c168152019401615837565b938a60019160ff8560601c16815201940161582f565b938a60019160ff8560581c168152019401615827565b938a60019160ff8560501c16815201940161581f565b938a60019160ff8560481c168152019401615817565b938a60019160ff8560401c16815201940161580f565b938a60019160ff8560381c168152019401615807565b938a60019160ff8560301c1681520194016157ff565b938a60019160ff8560281c1681520194016157f7565b828b1c60ff168552938a01936001016157ef565b938a60019160ff8560181c1681520194016157e7565b938a60019160ff8560101c1681520194016157df565b938a60019160ff8560081c1681520194016157d7565b60ff83168552938a01936001016157cf565b955093959250506001610400602092865460ff8116825260ff8160081c168583015260ff8160101c16604083015260ff8160181c16606083015260ff81861c16608083015260ff8160281c1660a083015260ff8160301c1660c083015260ff8160381c1660e083015260ff8160401c1661010083015260ff8160481c1661012083015260ff8160501c1661014083015260ff8160581c1661016083015260ff8160601c1661018083015260ff8160681c166101a083015260ff8160701c166101c083015260ff8160781c166101e083015260ff8160801c1661020083015260ff8160881c1661022083015260ff8160901c1661024083015260ff8160981c1661026083015260ff8160a01c1661028083015260ff8160a81c166102a083015260ff8160b01c166102c083015260ff8160b81c166102e083015260ff8160c01c1661030083015260ff8160c81c1661032083015260ff8160d01c1661034083015260ff8160d81c1661036083015260ff8160e01c1661038083015260ff8160e81c166103a083015260ff8160f01c166103c083015260f81c6103e08201520194019201928d87948a9396946157b1565b9099506020813d602011616012575b8161600260209383614a52565b810103126115275751985f615737565b3d9150615ff5565b8161602491614a52565b61071e57825f6156fc565b630d82532d60e21b8652600486fd5b8161604891614a52565b61072257815f615610565b6330be1a3d60e21b8552600485fd5b61606d888092614a52565b6114f4575f6154b1565b6040513d8a823e3d90fd5b90503d808a833e6160938183614a52565b810190602081830312611bb6578051906001600160401b038211611bba57019080601f83011215611bb65781516160c981614ad4565b926160d76040519485614a52565b81845260208085019260051b820101928311611bb257602001905b828210616102575050505f61545b565b6020809161610f84614efb565b8152019101906160f2565b6161279198505f90614a52565b5f965f61542e565b82516001600160a01b0316815286945060209283019260019290920191016153f4565b60ff5f805160206163798339815191525460401c161561616e57565b631afcd79f60e31b5f5260045ffd5b5f806161c59260018060a01b03169360208151910182865af13d15616208573d906161a782614a73565b916161b56040519384614a52565b82523d5f602084013e5b836162fa565b80519081151591826161ed575b50506161db5750565b635274afe760e01b5f5260045260245ffd5b61620092506020809183010191016152d1565b155f806161d2565b6060906161bf565b600e54600160401b811015612312578060016162319201600e55600e614b53565b81546001600160a01b0393841660039290921b91821b9390911b1916919091179055565b600754600160401b8110156123125780600161623192016007556007614b53565b600854600160401b8110156123125780600161623192016008556008614b53565b6e5af43d82803e903d91602b57fd5bf390763d602d80600a3d3981f3363d3d373d3d3d363d7300000062ffffff8260881c16175f5260781b17602052603760095ff5906001600160a01b038216156162eb57565b6330be1a3d60e21b5f5260045ffd5b9061631e575080511561630f57805190602001fd5b630a12f52160e11b5f5260045ffd5b8151158061634f575b61632f575090565b639996b31560e01b5f9081526001600160a01b0391909116600452602490fd5b50803b1561632756fecd5ed15c6e187e77e9aee88184c21f4f2182ab5827cb3b7e07fbedcd63f03300f0c57e16840df040f15088dc2f81fe391c3923bec73e23a9662efc9c229c6a00a2646970667358221220dfc018e161eceac8cb5f9f293ad690fb67eaaa78ec65b3c82350e9f3849b9a1264736f6c634300081a0033","linkReferences":{}},"methodIdentifiers":{"BONDING_ROLE()":"3094afb3","DEFAULT_ADMIN_ROLE()":"a217fddf","WITHDRAW_ROLE()":"e02023a1","allDAOs(uint256)":"b4136bd8","allTokens(uint256)":"634282af","allTradingTokens(uint256)":"e887b1cc","applicationThreshold()":"ddf44275","assetToken()":"1083f761","daoImplementation()":"9d699326","defaultDelegatee()":"0c4cb55c","executeApplication(uint256,bool,bytes32)":"c79aa45b","executeBondingCurveApplication(uint256,uint256,uint256,address)":"23c31596","executeBondingCurveApplicationSalt(uint256,uint256,uint256,address,bytes32)":"d2f58559","getApplication(uint256)":"1f2f4bfd","getRoleAdmin(bytes32)":"248a9ca3","gov()":"12d43a51","grantRole(bytes32,address)":"2f2ff15d","hasRole(bytes32,address)":"91d14854","initFromBondingCurve(string,string,uint8[],bytes32,address,uint32,uint256,uint256,address)":"3fa2da7e","initialize(address,address,address,address,address,address,uint256,address,uint256)":"0f07646a","maturityDuration()":"063513b7","nft()":"47ccca02","pause()":"8456cb59","paused()":"5c975abb","proposeAgent(string,string,string,uint8[],bytes32,address,uint32,uint256)":"9e4ec30a","renounceRole(bytes32,address)":"36568abe","revokeRole(bytes32,address)":"d547741f","setApplicationThreshold(uint256)":"bd1cf258","setImplementations(address,address,address)":"9300d238","setParams(uint256,address,address,address)":"2cf404dc","setTokenParams(uint256,uint256,uint256,uint256,uint256,uint256,address,uint256,uint256,uint256,address)":"4e57eb97","setVault(address)":"6817031b","supportsInterface(bytes4)":"01ffc9a7","tbaRegistry()":"468d198d","tokenImplementation()":"2f3a3d5d","totalAgents()":"c5053712","unpause()":"3f4ba83a","veTokenImplementation()":"9cbe0bac","withdraw(uint256)":"2e1a7d4d"},"id":93}