{"abi":[{"type":"constructor","inputs":[],"stateMutability":"nonpayable"},{"type":"function","name":"VirtualIdBase","inputs":[],"outputs":[{"name":"","type":"uint256","internalType":"uint256"}],"stateMutability":"view"},{"type":"function","name":"agentFactory","inputs":[],"outputs":[{"name":"","type":"address","internalType":"contract IAgentFactoryV7Minimal"}],"stateMutability":"view"},{"type":"function","name":"bondingConfig","inputs":[],"outputs":[{"name":"","type":"address","internalType":"contract BondingConfig"}],"stateMutability":"view"},{"type":"function","name":"buy","inputs":[{"name":"amountIn_","type":"uint256","internalType":"uint256"},{"name":"tokenAddress_","type":"address","internalType":"address"},{"name":"amountOutMin_","type":"uint256","internalType":"uint256"},{"name":"deadline_","type":"uint256","internalType":"uint256"}],"outputs":[{"name":"","type":"bool","internalType":"bool"}],"stateMutability":"payable"},{"type":"function","name":"cancelLaunch","inputs":[{"name":"tokenAddress_","type":"address","internalType":"address"}],"outputs":[],"stateMutability":"nonpayable"},{"type":"function","name":"factory","inputs":[],"outputs":[{"name":"","type":"address","internalType":"contract IFFactoryV2Minimal"}],"stateMutability":"view"},{"type":"function","name":"initialize","inputs":[{"name":"factory_","type":"address","internalType":"address"},{"name":"router_","type":"address","internalType":"address"},{"name":"agentFactory_","type":"address","internalType":"address"},{"name":"bondingConfig_","type":"address","internalType":"address"}],"outputs":[],"stateMutability":"nonpayable"},{"type":"function","name":"isAcpSkillLaunch","inputs":[{"name":"token_","type":"address","internalType":"address"}],"outputs":[{"name":"","type":"bool","internalType":"bool"}],"stateMutability":"view"},{"type":"function","name":"isFeeDelegation","inputs":[{"name":"","type":"address","internalType":"address"}],"outputs":[{"name":"","type":"bool","internalType":"bool"}],"stateMutability":"view"},{"type":"function","name":"isProject60days","inputs":[{"name":"token_","type":"address","internalType":"address"}],"outputs":[{"name":"","type":"bool","internalType":"bool"}],"stateMutability":"view"},{"type":"function","name":"isProjectXLaunch","inputs":[{"name":"token_","type":"address","internalType":"address"}],"outputs":[{"name":"","type":"bool","internalType":"bool"}],"stateMutability":"view"},{"type":"function","name":"launch","inputs":[{"name":"tokenAddress_","type":"address","internalType":"address"}],"outputs":[{"name":"","type":"address","internalType":"address"},{"name":"","type":"address","internalType":"address"},{"name":"","type":"uint256","internalType":"uint256"},{"name":"","type":"uint256","internalType":"uint256"}],"stateMutability":"nonpayable"},{"type":"function","name":"owner","inputs":[],"outputs":[{"name":"","type":"address","internalType":"address"}],"stateMutability":"view"},{"type":"function","name":"preLaunch","inputs":[{"name":"name_","type":"string","internalType":"string"},{"name":"ticker_","type":"string","internalType":"string"},{"name":"cores_","type":"uint8[]","internalType":"uint8[]"},{"name":"desc_","type":"string","internalType":"string"},{"name":"img_","type":"string","internalType":"string"},{"name":"urls_","type":"string[4]","internalType":"string[4]"},{"name":"purchaseAmount_","type":"uint256","internalType":"uint256"},{"name":"startTime_","type":"uint256","internalType":"uint256"},{"name":"launchMode_","type":"uint8","internalType":"uint8"},{"name":"airdropBips_","type":"uint16","internalType":"uint16"},{"name":"needAcf_","type":"bool","internalType":"bool"},{"name":"antiSniperTaxType_","type":"uint8","internalType":"uint8"},{"name":"isProject60days_","type":"bool","internalType":"bool"}],"outputs":[{"name":"","type":"address","internalType":"address"},{"name":"","type":"address","internalType":"address"},{"name":"","type":"uint256","internalType":"uint256"},{"name":"","type":"uint256","internalType":"uint256"}],"stateMutability":"nonpayable"},{"type":"function","name":"preLaunchV2","inputs":[{"name":"name_","type":"string","internalType":"string"},{"name":"ticker_","type":"string","internalType":"string"},{"name":"cores_","type":"uint8[]","internalType":"uint8[]"},{"name":"desc_","type":"string","internalType":"string"},{"name":"img_","type":"string","internalType":"string"},{"name":"urls_","type":"string[4]","internalType":"string[4]"},{"name":"purchaseAmount_","type":"uint256","internalType":"uint256"},{"name":"startTime_","type":"uint256","internalType":"uint256"},{"name":"launchMode_","type":"uint8","internalType":"uint8"},{"name":"airdropBips_","type":"uint16","internalType":"uint16"},{"name":"needAcf_","type":"bool","internalType":"bool"},{"name":"antiSniperTaxType_","type":"uint8","internalType":"uint8"},{"name":"isProject60days_","type":"bool","internalType":"bool"},{"name":"isFeeDelegation_","type":"bool","internalType":"bool"}],"outputs":[{"name":"","type":"address","internalType":"address"},{"name":"","type":"address","internalType":"address"},{"name":"","type":"uint256","internalType":"uint256"},{"name":"","type":"uint256","internalType":"uint256"}],"stateMutability":"nonpayable"},{"type":"function","name":"renounceOwnership","inputs":[],"outputs":[],"stateMutability":"nonpayable"},{"type":"function","name":"router","inputs":[],"outputs":[{"name":"","type":"address","internalType":"contract IFRouterV3Minimal"}],"stateMutability":"view"},{"type":"function","name":"sell","inputs":[{"name":"amountIn_","type":"uint256","internalType":"uint256"},{"name":"tokenAddress_","type":"address","internalType":"address"},{"name":"amountOutMin_","type":"uint256","internalType":"uint256"},{"name":"deadline_","type":"uint256","internalType":"uint256"}],"outputs":[{"name":"","type":"bool","internalType":"bool"}],"stateMutability":"nonpayable"},{"type":"function","name":"setBondingConfig","inputs":[{"name":"bondingConfig_","type":"address","internalType":"address"}],"outputs":[],"stateMutability":"nonpayable"},{"type":"function","name":"tokenAntiSniperType","inputs":[{"name":"token_","type":"address","internalType":"address"}],"outputs":[{"name":"","type":"uint8","internalType":"uint8"}],"stateMutability":"view"},{"type":"function","name":"tokenGradThreshold","inputs":[{"name":"","type":"address","internalType":"address"}],"outputs":[{"name":"","type":"uint256","internalType":"uint256"}],"stateMutability":"view"},{"type":"function","name":"tokenInfo","inputs":[{"name":"","type":"address","internalType":"address"}],"outputs":[{"name":"creator","type":"address","internalType":"address"},{"name":"token","type":"address","internalType":"address"},{"name":"pair","type":"address","internalType":"address"},{"name":"agentToken","type":"address","internalType":"address"},{"name":"data","type":"tuple","internalType":"struct BondingConfig.Data","components":[{"name":"token","type":"address","internalType":"address"},{"name":"name","type":"string","internalType":"string"},{"name":"_name","type":"string","internalType":"string"},{"name":"ticker","type":"string","internalType":"string"},{"name":"supply","type":"uint256","internalType":"uint256"},{"name":"price","type":"uint256","internalType":"uint256"},{"name":"marketCap","type":"uint256","internalType":"uint256"},{"name":"liquidity","type":"uint256","internalType":"uint256"},{"name":"volume","type":"uint256","internalType":"uint256"},{"name":"volume24H","type":"uint256","internalType":"uint256"},{"name":"prevPrice","type":"uint256","internalType":"uint256"},{"name":"lastUpdated","type":"uint256","internalType":"uint256"}]},{"name":"description","type":"string","internalType":"string"},{"name":"image","type":"string","internalType":"string"},{"name":"twitter","type":"string","internalType":"string"},{"name":"telegram","type":"string","internalType":"string"},{"name":"youtube","type":"string","internalType":"string"},{"name":"website","type":"string","internalType":"string"},{"name":"trading","type":"bool","internalType":"bool"},{"name":"tradingOnUniswap","type":"bool","internalType":"bool"},{"name":"applicationId","type":"uint256","internalType":"uint256"},{"name":"initialPurchase","type":"uint256","internalType":"uint256"},{"name":"virtualId","type":"uint256","internalType":"uint256"},{"name":"launchExecuted","type":"bool","internalType":"bool"}],"stateMutability":"view"},{"type":"function","name":"tokenInfos","inputs":[{"name":"","type":"uint256","internalType":"uint256"}],"outputs":[{"name":"","type":"address","internalType":"address"}],"stateMutability":"view"},{"type":"function","name":"tokenLaunchParams","inputs":[{"name":"","type":"address","internalType":"address"}],"outputs":[{"name":"launchMode","type":"uint8","internalType":"uint8"},{"name":"airdropBips","type":"uint16","internalType":"uint16"},{"name":"needAcf","type":"bool","internalType":"bool"},{"name":"antiSniperTaxType","type":"uint8","internalType":"uint8"},{"name":"isProject60days","type":"bool","internalType":"bool"}],"stateMutability":"view"},{"type":"function","name":"transferOwnership","inputs":[{"name":"newOwner","type":"address","internalType":"address"}],"outputs":[],"stateMutability":"nonpayable"},{"type":"event","name":"CancelledLaunch","inputs":[{"name":"token","type":"address","indexed":true,"internalType":"address"},{"name":"pair","type":"address","indexed":true,"internalType":"address"},{"name":"","type":"uint256","indexed":false,"internalType":"uint256"},{"name":"initialPurchase","type":"uint256","indexed":false,"internalType":"uint256"}],"anonymous":false},{"type":"event","name":"Graduated","inputs":[{"name":"token","type":"address","indexed":true,"internalType":"address"},{"name":"agentToken","type":"address","indexed":false,"internalType":"address"}],"anonymous":false},{"type":"event","name":"Initialized","inputs":[{"name":"version","type":"uint64","indexed":false,"internalType":"uint64"}],"anonymous":false},{"type":"event","name":"Launched","inputs":[{"name":"token","type":"address","indexed":true,"internalType":"address"},{"name":"pair","type":"address","indexed":true,"internalType":"address"},{"name":"virtualId","type":"uint256","indexed":false,"internalType":"uint256"},{"name":"initialPurchase","type":"uint256","indexed":false,"internalType":"uint256"},{"name":"initialPurchasedAmount","type":"uint256","indexed":false,"internalType":"uint256"},{"name":"launchParams","type":"tuple","indexed":false,"internalType":"struct BondingConfig.LaunchParams","components":[{"name":"launchMode","type":"uint8","internalType":"uint8"},{"name":"airdropBips","type":"uint16","internalType":"uint16"},{"name":"needAcf","type":"bool","internalType":"bool"},{"name":"antiSniperTaxType","type":"uint8","internalType":"uint8"},{"name":"isProject60days","type":"bool","internalType":"bool"}]}],"anonymous":false},{"type":"event","name":"OwnershipTransferred","inputs":[{"name":"previousOwner","type":"address","indexed":true,"internalType":"address"},{"name":"newOwner","type":"address","indexed":true,"internalType":"address"}],"anonymous":false},{"type":"event","name":"PreLaunched","inputs":[{"name":"token","type":"address","indexed":true,"internalType":"address"},{"name":"pair","type":"address","indexed":true,"internalType":"address"},{"name":"virtualId","type":"uint256","indexed":false,"internalType":"uint256"},{"name":"initialPurchase","type":"uint256","indexed":false,"internalType":"uint256"},{"name":"launchParams","type":"tuple","indexed":false,"internalType":"struct BondingConfig.LaunchParams","components":[{"name":"launchMode","type":"uint8","internalType":"uint8"},{"name":"airdropBips","type":"uint16","internalType":"uint16"},{"name":"needAcf","type":"bool","internalType":"bool"},{"name":"antiSniperTaxType","type":"uint8","internalType":"uint8"},{"name":"isProject60days","type":"bool","internalType":"bool"}]}],"anonymous":false},{"type":"error","name":"AddressEmptyCode","inputs":[{"name":"target","type":"address","internalType":"address"}]},{"type":"error","name":"AddressInsufficientBalance","inputs":[{"name":"account","type":"address","internalType":"address"}]},{"type":"error","name":"FailedInnerCall","inputs":[]},{"type":"error","name":"InvalidAntiSniperType","inputs":[]},{"type":"error","name":"InvalidInitialization","inputs":[]},{"type":"error","name":"InvalidInput","inputs":[]},{"type":"error","name":"InvalidSpecialLaunchParams","inputs":[]},{"type":"error","name":"InvalidTokenStatus","inputs":[]},{"type":"error","name":"LaunchModeNotEnabled","inputs":[]},{"type":"error","name":"NotInitializing","inputs":[]},{"type":"error","name":"OwnableInvalidOwner","inputs":[{"name":"owner","type":"address","internalType":"address"}]},{"type":"error","name":"OwnableUnauthorizedAccount","inputs":[{"name":"account","type":"address","internalType":"address"}]},{"type":"error","name":"ReentrancyGuardReentrantCall","inputs":[]},{"type":"error","name":"SafeERC20FailedOperation","inputs":[{"name":"token","type":"address","internalType":"address"}]},{"type":"error","name":"SlippageTooHigh","inputs":[]},{"type":"error","name":"UnauthorizedLauncher","inputs":[]}],"bytecode":{"object":"0x6080806040523460d0577ff0c57e16840df040f15088dc2f81fe391c3923bec73e23a9662efc9c229c6a005460ff8160401c1660c1576002600160401b03196001600160401b03821601605c575b604051616dac90816100d58239f35b6001600160401b0319166001600160401b039081177ff0c57e16840df040f15088dc2f81fe391c3923bec73e23a9662efc9c229c6a005581527fc7f505b2f371ae2175ee4913f4499e1f2633a7b5936321eed1cdaeb6115181d290602090a15f80604d565b63f92ee8a960e01b5f5260045ffd5b5f80fdfe6109e0806040526004361015610013575f80fd5b5f610980525f3560e01c908163165e279514615acc57508063214013ca14614d8b5780632a5b53ed14614d485780633aa012b414614ce55780633b85d77114614cc3578063490cc5f814614c85578063706910ff14614c21578063715018a614614baf5780637c13774b14614b6d5780637df107ea14614b4257806383719f8814614b1757806389e8c0e114614aa45780638da5cb5b14614a6d5780639770695114614a27578063981b640514612b0c578063b233e056146129b5578063b3e80f12146109ef578063b701972a146109cc578063c45a01551461099f578063cd6d438614610972578063e33d206f14610747578063f2fde38b1461071e578063f5dab7111461037c578063f887ea40146103515763f8c8765e14610135575f80fd5b3461034a57608036600319011261034a5761014e615b08565b6024356001600160a01b0381169081900361034a576044356001600160a01b0381169081900361034a576064356001600160a01b038116929083900361034a575f80516020616d57833981519152549360ff8560401c1615946001600160401b03811680159081610342575b6001149081610338575b15908161032f575b5061031a5767ffffffffffffffff1981166001175f80516020616d5783398151915255856102ee575b506101fe616c6d565b610206616c6d565b61020f3361603b565b610217616c6d565b61021f616c6d565b60015f80516020616d378339815191525560018060a01b03166001600160601b0360a01b6109805154161761098051556001600160601b0360a01b60015416176001556001600160601b0360a01b60025416176002556001600160601b0360a01b6003541617600355610294575b6109805180f35b68ff0000000000000000195f80516020616d5783398151915254165f80516020616d57833981519152557fc7f505b2f371ae2175ee4913f4499e1f2633a7b5936321eed1cdaeb6115181d2602060405160018152a161028d565b68ffffffffffffffffff191668010000000000000001175f80516020616d57833981519152555f6101f5565b63f92ee8a960e01b6109805152600461098051fd5b9050155f6101cc565b303b1591506101c4565b8791506101ba565b6109805180fd5b3461034a576109805136600319011261034a576001546040516001600160a01b039091168152602090f35b3461034a57602036600319011261034a576001600160a01b0361039d615b08565b16610980515260046020526040610980512060018060a01b0381541660018060a01b036001830154169160018060a01b036002820154169260018060a01b036003830154169360405161018081018181106001600160401b038211176107045760405260048401546001600160a01b0316815261041c60058501615df7565b602082015261042d60068501615df7565b604082015261043e60078501615df7565b606082015260088401546080820152600984015460a0820152600a84015460c0820152600b84015460e0820152600c840154610100820152600d840154610120820152600e840154610140820152600f8401546101608201526104a360108501615df7565b6104af60128601615df7565b6104bb60138701615df7565b6104c760148801615df7565b916104d460158901615df7565b936104e160168a01615df7565b9560178a01549b60188b01549860198c01549a601a8d01549c601b015460ff169d6040516109c0526109c051526109c051602001526109c051604001526109c051606001526109c0516080016102209052600160a01b600190038151166109c051610220015260208101516109c0516102400161018090526109c0516103a00161056a91615e97565b60408201519061021f196109c0518203016109c051610260015261058d91615e97565b60608201519061021f196109c0518203016109c05161028001526105b091615e97565b9060808101516109c0516102a0015260a08101516109c0516102c0015260c08101516109c0516102e0015260e08101516109c05161030001526101008101516109c05161032001526101208101516109c05161034001526101408101516109c051610360015261016001516109c05161038001526109c05181036109c05160a0015261063b91615e97565b6109c05181036109c05160c0015261065291615e97565b6109c05181036109c05160e0015261066991615e97565b6109c05181036109c051610100015261068191615e97565b6109c05181036109c051610120015261069991615e97565b6109c05181036109c05161014001526106b191615e97565b9460ff811615156109c051610160015260081c60ff1615156109c05161018001526109c0516101a001526109c0516101c001526109c0516101e0015215156109c05161020001526109c05190036109c051f35b634e487b7160e01b61098051526041600452602461098051fd5b3461034a57602036600319011261034a5761028d61073a615b08565b610742616a76565b61603b565b3461034a57602036600319011261034a576001600160a01b03610768615b08565b168061098051526004602052604061098051209060018060a01b0360018301541615801561095d575b6109485781546001600160a01b03163381900361094857601b83019260ff84541661093357601981019384549283610841575b85857f7f9759070d2e707c297824b408d7d1739aa72e3329ae1bf3f77fb321d6856f93604086868554956109805190556017820160ff198154169055600160ff19825416179055600260018060a01b0391015416938361098051526004602052601a82610980512001549082519182526020820152a36109805180f35b600154604051631083f76160e01b815290602090829060049082906001600160a01b03165afa9081156109255761098051916108b9575b507f7f9759070d2e707c297824b408d7d1739aa72e3329ae1bf3f77fb321d6856f939460409493926108b2926001600160a01b0316616a3a565b90916107c4565b9050602093929193813d60201161091d575b816108d860209383615c07565b8101031261034a577f7f9759070d2e707c297824b408d7d1739aa72e3329ae1bf3f77fb321d6856f93946040946109116108b293615ed3565b92509293945094610878565b3d91506108cb565b6040513d61098051823e3d90fd5b63d4181deb60e01b6109805152600461098051fd5b63b4fa3fb360e01b6109805152600461098051fd5b5060028201546001600160a01b031615610791565b3461034a57602036600319011261034a576020610995610990615b08565b615fed565b6040519015158152f35b3461034a576109805136600319011261034a5761098051546040516001600160a01b039091168152602090f35b3461034a57602036600319011261034a5760206109956109ea615b08565b615f7f565b3461034a576101a036600319011261034a576004356001600160401b03811161034a57610a20903690600401615c43565b6104c0526024356001600160401b03811161034a57610a43903690600401615c43565b6104e0526044356001600160401b03811161034a57610a66903690600401615cc2565b6064356001600160401b03811161034a57610a85903690600401615c43565b610680526084356001600160401b03811161034a57610aa8903690600401615c43565b9060a4356001600160401b03811161034a57610ac8903690600401615d2a565b610ad0615ca0565b6104a052610adc615d8d565b61048052610ae8615d9f565b61042052610af4615cb1565b61044052610b00615daf565b61046052610b0c6160ac565b6003546001600160a01b0316610920908152604051635de29aa160e11b81526104805161ffff16600482015261042051151560248201529051602090829060449082905afa8015610925576109805161050052612981575b50604051633457d79760e21b815260ff61044051166004820152602081602481610920515afa908115610925576109805191612962575b501561294d57815115610948576040516371c3272360e01b8152606081600481610920515afa801561092557610980516108c0526128f7575b50610be36108c0515142615ee7565b60e4351015610900526040516309a5b10b60e41b8152602081600481610920515afa80156109255760ff9161098051916128d8575b501660ff6104a0511614158061287c575b80612820575b61280b57604051630eee4e1560e21b8152602081600481610920515afa80156109255760ff9161098051916127ec575b501660ff6104a05116148015612791575b61265d575b6109805161080081905261072052610900511561264b5760e435610800526108c05151610720525b6040516392867c5560e01b81526109005160048201526104205115156024820152602081604481610920515afa8015610925576109805161082052612617575b506108205160c4351061094857600154604051631083f76160e01b81529290602090849060049082906001600160a01b03165afa9283156109255761098051936125db575b50610d326108205160c435615f59565b6107c05261082051612559575b6107c051610d589030336001600160a01b038716616c29565b60018060a01b0360035416610700526040516106e052630de370f760e21b6106e0515260206106e05160046106e051610700515afa6106c0526106c051156109255761098051610600526106c05161251c575b604051906339bc5de560e11b8252608082600481610700515afa9182156109255761098051926124a5575b5060018060a01b03600254166040516106005160208201526109805160408201526106005160608201526106005160808201526106005160a08201526109805160c08201523060e082015260e08152610e3161010082615c07565b83519160018060a01b0360208601511691610ebf606063ffffffff60408901511697015191604051610400526313581c3b60e21b61040051526101406004610400510152610ea7610e8c61014461040051016104c051615e97565b6003196104005182030160246104005101526104e051615e97565b90600319610400518303016044610400510152615e97565b956003196104005188030160646104005101526020865197888152019360208701958698610980515b81811061248c57505060409650608461040051015260a461040051015260c461040051015260e46104005101526109805161010461040051015233610124610400510152610400519161040051900390610400519061098051905af193841561092557610980516103c052610980519461242d575b60025460405163d6efd7c360e01b8152610980516103c0516001600160a01b039384169383916004918391165afa908115610925576109805191612408575b506001600160a01b0390610faf90616b2a565b5116813b1561034a57604051637d16c25b60e11b815261098080516103c0516001600160a01b03908116600485015293909316602483015251909283916044918391905af18015610925576123ed575b506040516102e081815263313ce56760e01b909152516103c0516020919060049082906001600160a01b03165afa6102c0526102c0511561092557602090610980516102c0516123af575b61105661105f91616b37565b61050051616b48565b610200526110736105005161060051615f59565b6102205260018060a01b036109805154166040516101e05263035f962d60e01b6101e051526101e051916110bf6101e05191610720519061080051906103c05160046101e05101615b1e565b03906101e0519061098051905af16101c0526101c05115610925576109805160a0526101c05161236c575b610200516001546103c05161110c92916001600160a01b0390811691166160e4565b600354604051636599151b60e01b815290602090829060049082906001600160a01b03165afa8015610925576109805161010052612338575b506111566101005161020051616b5b565b610120526001546001600160a01b0316803b1561034a57604051631746ffa760e31b81526103c0516001600160a01b031660048201526102005160248201526101005160448201526109805190918290606490829084905af180156109255761231d575b5061022051612216575b600354604051639272980b60e01b815261020051600482015290602090829060249082906001600160a01b03165afa9081156109255761098051916121e0575b5060018060a01b036103c05116610980515260076020526040610980512055600554600160401b811015610704578060016112429201600555615b76565b81546103c080516001600160a01b03600394851b81811b199094169181169384901b919091179094556109808051929092526004602052905160409020608081905280546001600160a01b0319908116331782559151600182018054841691861691909117905591820180548216905560a051600290920180549091169190921617905561068051516001600160401b038111610704576112e860106080510154615dbf565b601f81116121a5575b508060206001601f83111461212a57610980519161211c575b508160011b915f199060031b1c191617601060805101555b51906001600160401b03821161070457600160401b8211610704576080516011018054908390558083106120c5575b509060116080510161098051526020610980512090610980515b8160051c81106120835750601f198116810380612033575b5050505082516001600160401b038111610704576113a660126080510154615dbf565b601f8111611ff8575b5060206001601f831114611f8457819293946109805192611f79575b50508160011b915f199060031b1c191617601260805101555b80519182516001600160401b0381116107045761140660136080510154615dbf565b601f8111611f3e575b5060206001601f831114611eca57819293946109805192611ebf575b50508160011b915f199060031b1c191617601360805101555b60208201519182516001600160401b0381116107045761146960146080510154615dbf565b601f8111611e84575b5060206001601f831114611e0e57819293946109805192611e03575b50508160011b915f199060031b1c191617601460805101555b60408101518051906001600160401b038211610704576114cc60156080510154615dbf565b601f8111611dc8575b506020906001601f841114611d4f57918091606094936109805192611d44575b50508160011b915f199060031b1c191617601560805101555b01519081516001600160401b0381116107045761153060166080510154615dbf565b601f8111611d09575b506020926001601f831114611c9757928192936109805192611c8c575b50508160011b915f199060031b1c191617601660805101555b601760805101600161ffff19825416179055601860805101556107c05160196080510155600554640ba43b74000180640ba43b740011611a5757601a6080510155601b6080510160ff1981541690556040516115ca81615bec565b60ff6104a0511681526020810161ffff610480511681526040820161042051151581526060830160ff6104405116815263ff0000006080850192610460511515845260018060a01b036103c051166109805152600660205260ff604061098051209651169060ff60281b64ff0000000062ffff008954985160081b169251151560181b955160201b169551151560281b169560ff60281b199264ff00000000199163ffffffff1916171617169116171717905560018060a01b036103c05116610980515260086020526040610980512060ff19815416905560046080510160018060a01b036103c051166001600160601b0360a01b8254161790556005608051016104c051516001600160401b038111610704576116e88254615dbf565b601f8111611c56575b508060206001601f831114611bea576109805191611bdc575b508160011b915f199060031b1c19161790555b6006608051016104c051516001600160401b038111610704576117408254615dbf565b601f8111611ba6575b508060206001601f831114611b3a576109805191611b2c575b508160011b915f199060031b1c19161790555b6007608051016104e051516001600160401b038111610704576117988254615dbf565b601f8111611aeb575b508060206001601f831114611a7f576109805191611a71575b508160011b915f199060031b1c19161790555b6102005160086080510155610120516009608051015561010051600a60805101556101005160011b61010051810460021461010051151715611a5757600b608051015561098051600c608051015561098051600d608051015561012051600e608051015542600f60805101556004602060018060a01b0361098051541660405192838092630e2ad37b60e41b82525afa908115610925576109805191611a1d575b506001600160a01b031680156119e557608051546001600160a01b031690803b1561034a57604051631c20067160e21b81526103c0516001600160a01b0316600482015260248101839052604481019290925261098051908290606490829084905af18015610925576119ca575b60018060a01b036103c0511661098051526004602052601a60406109805120015460018060a01b036103c0511661098051526006602052611936604061098051206040519283526107c05160208401526040830190615f08565b60a0516103c0516001600160a01b03918216929116907fb9ee8aa6d909a3efd0bf1b0bc2bde7f998f7ad30178b0d45f9227f5382cebc8f9060e090a36103c0805161098080516001600160a01b03909216909152600460205251604090819020601a0154915160a0516107c05160015f80516020616d378339815191525592519384936119c69390929085615b1e565b0390f35b610980516119d791615c07565b6109805161034a57806118dc565b60405162461bcd60e51b815260206004820152601060248201526f15185e15985d5b1d081b9bdd081cd95d60821b6044820152606490fd5b90506020813d602011611a4f575b81611a3860209383615c07565b8101031261034a57611a4990615ed3565b8161186e565b3d9150611a2b565b634e487b7160e01b61098051526011600452602461098051fd5b90506104e0510151836117ba565b6109808051859052518181209250601f198416905b818110611ad057509083600194939210611ab5575b5050811b0190556117cd565b6104e05101515f1960f88460031b161c191690558380611aa9565b9192602060018192866104e051015181550194019201611a94565b611b1c9083610980515260206109805120601f840160051c81019160208510611b22575b601f0160051c0190616b79565b826117a1565b9091508190611b0f565b90506104c051015183611762565b6109808051859052518181209250601f198416905b818110611b8b57509083600194939210611b70575b5050811b019055611775565b6104c05101515f1960f88460031b161c191690558380611b64565b9192602060018192866104c051015181550194019201611b4f565b611bd69083610980515260206109805120601f840160051c81019160208510611b2257601f0160051c0190616b79565b82611749565b90506104c05101518361170a565b6109808051859052518181209250601f198416905b818110611c3b57509083600194939210611c20575b5050811b01905561171d565b6104c05101515f1960f88460031b161c191690558380611c14565b9192602060018192866104c051015181550194019201611bff565b611c869083610980515260206109805120601f840160051c81019160208510611b2257601f0160051c0190616b79565b826116f1565b015190508380611556565b601f19821693601660805101610980515280610980512091610980515b868110611cf15750836001959610611cd9575b505050811b016016608051015561156f565b01515f1960f88460031b161c19169055838080611cc7565b91926020600181928685015181550194019201611cb4565b611d3e90601660805101610980515260206109805120601f840160051c81019160208510611b2257601f0160051c0190616b79565b83611539565b0151905085806114f5565b90601f19831691601560805101610980515281610980512092610980515b818110611db05750916001939185606097969410611d98575b505050811b016015608051015561150e565b01515f1960f88460031b161c19169055858080611d86565b92936020600181928786015181550195019301611d6d565b611dfd90601560805101610980515260206109805120601f850160051c81019160208610611b2257601f0160051c0190616b79565b846114d5565b01519050848061148e565b601460805101610980515280610980512090610980515b601f1984168110611e6c5750600193949583601f19811610611e54575b505050811b01601460805101556114a7565b01515f1960f88460031b161c19169055848080611e42565b9091602060018192858a015181550193019101611e25565b611eb990601460805101610980515260206109805120601f840160051c81019160208510611b2257601f0160051c0190616b79565b84611472565b01519050848061142b565b601f19821690601360805101610980515280610980512091610980515b818110611f2657509583600195969710611f0e575b505050811b0160136080510155611444565b01515f1960f88460031b161c19169055848080611efc565b9192602060018192868b015181550194019201611ee7565b611f7390601360805101610980515260206109805120601f840160051c81019160208510611b2257601f0160051c0190616b79565b8461140f565b0151905084806113cb565b601f19821690601260805101610980515280610980512091610980515b818110611fe057509583600195969710611fc8575b505050811b01601260805101556113e4565b01515f1960f88460031b161c19169055848080611fb6565b9192602060018192868b015181550194019201611fa1565b61202d90601260805101610980515260206109805120601f840160051c81019160208510611b2257601f0160051c0190616b79565b846113af565b610980519390845b8181106120535750505060051c015583808080611383565b90919460206120796001928460ff8a5116919060ff809160031b9316831b921b19161790565b960192910161203b565b61098051805b6020811061209e57508382015560010161136b565b855190959160019160209160ff60038a901b81811b199092169216901b1792019501612089565b6120fb90601160805101610980515260206109805120601f80860160051c82019281871680612101575b500160051c0190616b79565b85611351565b5f198501908154905f199060200360031b1c1690558a6120ef565b90506106805101518761130a565b9150601060805101610980515281610980512061098051925b601f198316841061218a576001935082601f1981161061216f575b5050811b0160106080510155611322565b6106805101515f1960f88460031b161c19169055878061215e565b61068051810151825560209384019360019092019101612143565b6121da90601060805101610980515260206109805120601f840160051c81019160208510611b2257601f0160051c0190616b79565b866112f1565b90506020813d60201161220e575b816121fb60209383615c07565b8101031261220a575186611204565b5f80fd5b3d91506121ee565b600354604051631380c11160e21b815290602090829060049082906001600160a01b03165afa9081156109255761098051916122e3575b506040519063313ce56760e01b825260208260048160018060a01b036103c051165afa80156109255761229161229a916122af9461098051916122b4575b50616b37565b61022051616b48565b6103c0519091906001600160a01b0316616a3a565b6111c4565b6122d6915060203d6020116122dc575b6122ce8183615c07565b810190615f66565b8a61228b565b503d6122c4565b90506020813d602011612315575b816122fe60209383615c07565b8101031261034a5761230f90615ed3565b8661224d565b3d91506122f1565b6109805161232a91615c07565b6109805161034a57856111ba565b6020813d602011612364575b8161235160209383615c07565b8101031261220a57516101005285611145565b3d9150612344565b60203d6020116123a8575b806123876020926101e051615c07565b6101e051908101031261034a576123a06101e051615ed3565b60a0526110ea565b503d612377565b50813d83116123e6575b6110566123de826123d061105f946102e051615c07565b6102e051016102e051615f66565b91505061104a565b503d6123b9565b610980516123fa91615c07565b6109805161034a5786610fff565b61242791503d8061098051833e61241f8183615c07565b810190616aa9565b88610f9c565b935060403d604011612485575b8061244a60409261040051615c07565b61040051908101031261034a5761246361040051615ed3565b61036052602061040051015161034052610360516103c0526103405193610f5d565b503d61243a565b885160ff16885260209889019890970196600101610ee8565b9091506080813d608011612514575b816124c160809383615c07565b8101031261034a57604051906124d682615ba2565b805182526124e660208201615ed3565b602083015260408101519063ffffffff8216820361034a576060916040840152015160608201529085610dd6565b3d91506124b4565b60203d602011612552575b806125376020926106e051615c07565b6106e051908101031261220a576106e0515161060052610dab565b503d612527565b604051622fcfcb60e31b8152602081600481610920515afa80156109255761098051906125a0575b6108205161259b925090336001600160a01b038716616c29565b610d3f565b506020813d6020116125d3575b816125ba60209383615c07565b8101031261034a576125ce61259b91615ed3565b612581565b3d91506125ad565b9092506020813d60201161260f575b816125f760209383615c07565b8101031261034a5761260890615ed3565b9184610d22565b3d91506125ea565b6020813d602011612643575b8161263060209383615c07565b8101031261220a57516108205283610cdd565b3d9150612623565b42610800526109805161072052610c9d565b60405163334bb12360e01b8152336004820152602081602481610920515afa908115610925576109805191612762575b501561274d5760405163d6432cdd60e01b8152602081600481610920515afa80156109255760ff91610980519161272e575b501660ff610440511614801590612724575b8015612714575b801561270a575b8015612700575b15610c7557636a5f55b160e01b6109805152600461098051fd5b50610460516126e6565b50610420516126df565b5061ffff610480511615156126d8565b50610900516126d1565b612747915060203d6020116122dc576122ce8183615c07565b856126bf565b630355b83560e41b6109805152600461098051fd5b612784915060203d60201161278a575b61277c8183615c07565b810190615ebb565b8461268d565b503d612772565b50604051638ab2901f60e01b8152602081600481610920515afa80156109255760ff9161098051916127cd575b501660ff6104a0511614610c70565b6127e6915060203d6020116122dc576122ce8183615c07565b856127be565b612805915060203d6020116122dc576122ce8183615c07565b85610c5f565b63f27f5bdb60e01b6109805152600461098051fd5b50604051638ab2901f60e01b8152602081600481610920515afa80156109255760ff91610980519161285d575b501660ff6104a051161415610c2f565b612876915060203d6020116122dc576122ce8183615c07565b8561284d565b50604051630eee4e1560e21b8152602081600481610920515afa80156109255760ff9161098051916128b9575b501660ff6104a051161415610c29565b6128d2915060203d6020116122dc576122ce8183615c07565b856128a9565b6128f1915060203d6020116122dc576122ce8183615c07565b85610c18565b6060813d606011612945575b8161291060609383615c07565b8101031261034a57604080519161292683615bd1565b8051835260208101516020840152015160408201526108c05283610bd4565b3d9150612903565b6364ee4b0160e01b6109805152600461098051fd5b61297b915060203d60201161278a5761277c8183615c07565b84610b9b565b6020813d6020116129ad575b8161299a60209383615c07565b8101031261220a57516105005283610b64565b3d915061298d565b3461034a576129c336615b48565b929160018060a01b031692836109805152600460205260ff6017604061098051200154161561093357836109805152600460205260ff601b604061098051200154161561093357421161094857604060018060a01b0360015416926064825180958193636f08e17760e01b8352600483015287602483015233604483015261098051905af1918215610925576109805192612ad9575b508115918215612acf575b5050612aba57806109805152600460205262015180612a8d600f60406109805120015442615f59565b11612a9e575b602060405160018152f35b6109805152600460205242600f60406109805120015580612a93565b63428637bb60e11b6109805152600461098051fd5b1090508280612a64565b612afc91925060403d604011612b05575b612af48183615c07565b810190615f43565b90509083612a59565b503d612aea565b3461034a576101c036600319011261034a576004356001600160401b03811161034a57612b3d903690600401615c43565b610620526024356001600160401b03811161034a57612b60903690600401615c43565b610640526044356001600160401b03811161034a57612b83903690600401615cc2565b6064356001600160401b03811161034a57612ba2903690600401615c43565b6108e0526084356001600160401b03811161034a57612bc5903690600401615c43565b9060a4356001600160401b03811161034a57612be5903690600401615d2a565b612bed615ca0565b6105c052612bf9615d8d565b6105a052612c05615d9f565b61054052612c11615cb1565b61056052612c1d615daf565b610580526101a4356105e0819052801515900361034a57612c3c6160ac565b6003546001600160a01b03166109a0908152604051635de29aa160e11b81526105a05161ffff16600482015261054051151560248201529051602090829060449082905afa801561092557610980516106a0526149f3575b50604051633457d79760e21b815260ff610560511660048201526020816024816109a0515afa9081156109255761098051916149d4575b501561294d57815115610948576040516371c3272360e01b81526060816004816109a0515afa801561092557610980516109405261497e575b50612d13610940515142615ee7565b60e4351015610960526040516309a5b10b60e41b81526020816004816109a0515afa80156109255760ff91610980519161495f575b501660ff6105c05116141580614903575b806148a7575b61280b57604051630eee4e1560e21b81526020816004816109a0515afa80156109255760ff916109805191614888575b501660ff6105c0511614801561482d575b61471e575b610980516108408190526107a052610960511561470c5760e4356108405261094051516107a0525b6040516108a0526392867c5560e01b6108a051526109605160046108a051015261054051151560246108a051015260206108a05160446108a0516109a0515afa610880526108805115610925576109805161086052610880516146cf575b6108605160c4351061094857600154604051631083f76160e01b81529290602090849060049082906001600160a01b03165afa928315610925576109805193614693575b50612e7f6108605160c435615f59565b6107e05261086051614611575b6107e051612ea59030336001600160a01b038716616c29565b60018060a01b03600354166107805260405161076052630de370f760e21b6107605152602061076051600461076051610780515afa610740526107405115610925576109805161066052610740516145d4575b604051906339bc5de560e11b8252608082600481610780515afa91821561092557610980519261455d575b5060018060a01b03600254166040516106605160208201526109805160408201526106605160608201526106605160808201526106605160a08201526109805160c08201523060e082015260e08152612f7e61010082615c07565b83519160018060a01b036020860151169161300c606063ffffffff60408901511697015191604051610520526313581c3b60e21b61052051526101406004610520510152612ff4612fd9610144610520510161062051615e97565b60031961052051820301602461052051015261064051615e97565b90600319610520518303016044610520510152615e97565b956003196105205188030160646105205101526020865197888152019360208701958698610980515b81811061454457505060409650608461052051015260a461052051015260c461052051015260e46105205101526109805161010461052051015233610124610520510152610520519161052051900390610520519061098051905af193841561092557610980516103e05261098051946144e5575b60025460405163d6efd7c360e01b8152610980516103e0516001600160a01b039384169383916004918391165afa9081156109255761098051916144c8575b506001600160a01b03906130fc90616b2a565b5116813b1561034a57604051637d16c25b60e11b815261098080516103e0516001600160a01b03908116600485015293909316602483015251909283916044918391905af18015610925576144ad575b5060405161032081815263313ce56760e01b909152516103e0516020919060049082906001600160a01b03165afa61030052610300511561092557602090610980516103005161446f575b6131a36131ac91616b37565b6106a051616b48565b6102a0526131c06106a05161066051615f59565b6102805260018060a01b036109805154166040516102605263035f962d60e01b6102605152610260519161320c61026051916107a0519061084051906103e05160046102605101615b1e565b0390610260519061098051905af1610240526102405115610925576109805160e0526102405161442c575b6102a0516001546103e05161325992916001600160a01b0390811691166160e4565b6003546040516101a0818152636599151b60e01b9091525160209160049082906001600160a01b03165afa610180526101805115610925576109805161014052610180516143ef575b6132b2610140516102a051616b5b565b610160526001546001600160a01b0316803b1561034a57604051631746ffa760e31b81526103e0516001600160a01b031660048201526102a05160248201526101405160448201526109805190918290606490829084905af18015610925576143d4575b50610280516142fd575b600354604051639272980b60e01b81526102a051600482015290602090829060249082906001600160a01b03165afa9081156109255761098051916142cb575b5060018060a01b036103e05116610980515260076020526040610980512055600554600160401b8110156107045780600161339e9201600555615b76565b81546103e080516001600160a01b03600394851b81811b199094169181169384901b91909117909455610980805192909252600460205290516040902060c081905280546001600160a01b0319908116331782559151600182018054841691861691909117905591820180548216905560e05160029092018054909116919092161790556108e051516001600160401b03811161070457613444601060c0510154615dbf565b601f8111614290575b508060206001601f831114614215576109805191614207575b508160011b915f199060031b1c191617601060c05101555b51906001600160401b03821161070457600160401b82116107045760c0516011018054908390558083106141cc575b5090601160c0510161098051526020610980512090610980515b8160051c811061418a5750601f19811681038061413a575b5050505082516001600160401b03811161070457613502601260c0510154615dbf565b601f81116140ff575b5060206001601f83111461408b57819293946109805192614080575b50508160011b915f199060031b1c191617601260c05101555b80519182516001600160401b03811161070457613562601360c0510154615dbf565b601f8111614045575b5060206001601f831114613fd157819293946109805192613fc6575b50508160011b915f199060031b1c191617601360c05101555b60208201519182516001600160401b038111610704576135c5601460c0510154615dbf565b601f8111613f8b575b5060206001601f831114613f1757819293946109805192613f0c575b50508160011b915f199060031b1c191617601460c05101555b60408101518051906001600160401b03821161070457613628601560c0510154615dbf565b601f8111613ed1575b506020906001601f841114613e5857918091606094936109805192613e4d575b50508160011b915f199060031b1c191617601560c05101555b01518051906001600160401b03821161070457819061368e601660c0510154615dbf565b601f8111613e12575b506020906001601f841114613d98576109805192613d8d575b50508160011b915f199060031b1c191617601660c05101555b601760c05101600161ffff19825416179055601860c05101556107e051601960c0510155600554640ba43b74000180640ba43b740011611a5757601a60c0510155601b60c0510160ff19815416905560405161372481615bec565b60ff6105c0511681526020810161ffff6105a0511681526040820161054051151581526060830160ff6105605116815263ff0000006080850192610580511515845260018060a01b036103e051166109805152600660205260ff604061098051209651169060ff60281b64ff0000000062ffff008954985160081b169251151560181b955160201b169551151560281b169560ff60281b199264ff00000000199163ffffffff1916171617169116171717905560018060a01b036103e05116610980515260086020526040610980512060ff1981541660ff6105e051151516179055600460c0510160018060a01b036103e051166001600160601b0360a01b825416179055600560c0510161062051516001600160401b0381116107045761384c8254615dbf565b601f8111613d57575b508060206001601f831114613ceb576109805191613cdd575b508160011b915f199060031b1c19161790555b600660c0510161062051516001600160401b038111610704576138a48254615dbf565b601f8111613ca7575b508060206001601f831114613c3b576109805191613c2d575b508160011b915f199060031b1c19161790555b600760c0510161064051516001600160401b038111610704576138fc8254615dbf565b601f8111613bf7575b508060206001601f831114613b8b576109805191613b7d575b508160011b915f199060031b1c19161790555b6102a051600860c051015561016051600960c051015561014051600a60c05101556101405160011b61014051810460021461014051151715611a5757600b60c051015561098051600c60c051015561098051600d60c051015561016051600e60c051015542600f60c05101556004602060018060a01b0361098051541660405192838092630e2ad37b60e41b82525afa908115610925576109805191613b43575b506001600160a01b031680156119e55760c051546001600160a01b031690803b1561034a57604051631c20067160e21b81526103e0516001600160a01b0316600482015260248101839052604481019290925261098051908290606490829084905af1801561092557613b28575b60018060a01b036103e0511661098051526004602052601a60406109805120015460018060a01b036103e0511661098051526006602052613a9a604061098051206040519283526107e05160208401526040830190615f08565b60e080516103e0516001600160a01b03918216939116917fb9ee8aa6d909a3efd0bf1b0bc2bde7f998f7ad30178b0d45f9227f5382cebc8f91a36103e0805161098080516001600160a01b03909216909152600460205251604090819020601a0154915160e0516107e05160015f80516020616d378339815191525592519384936119c69390929085615b1e565b61098051613b3591615c07565b6109805161034a5780613a40565b90506020813d602011613b75575b81613b5e60209383615c07565b8101031261034a57613b6f90615ed3565b816139d2565b3d9150613b51565b90506106405101518361391e565b6109808051859052518181209250601f198416905b818110613bdc57509083600194939210613bc1575b5050811b019055613931565b6106405101515f1960f88460031b161c191690558380613bb5565b91926020600181928661064051015181550194019201613ba0565b613c279083610980515260206109805120601f840160051c81019160208510611b2257601f0160051c0190616b79565b82613905565b9050610620510151836138c6565b6109808051859052518181209250601f198416905b818110613c8c57509083600194939210613c71575b5050811b0190556138d9565b6106205101515f1960f88460031b161c191690558380613c65565b91926020600181928661062051015181550194019201613c50565b613cd79083610980515260206109805120601f840160051c81019160208510611b2257601f0160051c0190616b79565b826138ad565b90506106205101518361386e565b6109808051859052518181209250601f198416905b818110613d3c57509083600194939210613d21575b5050811b019055613881565b6106205101515f1960f88460031b161c191690558380613d15565b91926020600181928661062051015181550194019201613d00565b613d879083610980515260206109805120601f840160051c81019160208510611b2257601f0160051c0190616b79565b82613855565b0151905083806136b0565b9250601660c0510161098051528061098051209061098051935b601f1984168510613df7576001945083601f19811610613ddf575b505050811b01601660c05101556136c9565b01515f1960f88460031b161c19169055838080613dcd565b81810151835560209485019460019093019290910190613db2565b613e4790601660c05101610980515260206109805120601f850160051c81019160208610611b2257601f0160051c0190616b79565b84613697565b015190508580613651565b90601f19831691601560c05101610980515281610980512092610980515b818110613eb95750916001939185606097969410613ea1575b505050811b01601560c051015561366a565b01515f1960f88460031b161c19169055858080613e8f565b92936020600181928786015181550195019301613e76565b613f0690601560c05101610980515260206109805120601f850160051c81019160208610611b2257601f0160051c0190616b79565b84613631565b0151905084806135ea565b601f19821690601460c05101610980515280610980512091610980515b818110613f7357509583600195969710613f5b575b505050811b01601460c0510155613603565b01515f1960f88460031b161c19169055848080613f49565b9192602060018192868b015181550194019201613f34565b613fc090601460c05101610980515260206109805120601f840160051c81019160208510611b2257601f0160051c0190616b79565b846135ce565b015190508480613587565b601f19821690601360c05101610980515280610980512091610980515b81811061402d57509583600195969710614015575b505050811b01601360c05101556135a0565b01515f1960f88460031b161c19169055848080614003565b9192602060018192868b015181550194019201613fee565b61407a90601360c05101610980515260206109805120601f840160051c81019160208510611b2257601f0160051c0190616b79565b8461356b565b015190508480613527565b601f19821690601260c05101610980515280610980512091610980515b8181106140e7575095836001959697106140cf575b505050811b01601260c0510155613540565b01515f1960f88460031b161c191690558480806140bd565b9192602060018192868b0151815501940192016140a8565b61413490601260c05101610980515260206109805120601f840160051c81019160208510611b2257601f0160051c0190616b79565b8461350b565b610980519390845b81811061415a5750505060051c0155838080806134df565b90919460206141806001928460ff8a5116919060ff809160031b9316831b921b19161790565b9601929101614142565b61098051805b602081106141a55750838201556001016134c7565b855190959160019160209160ff60038a901b81811b199092169216901b1792019501614190565b61420190601160c05101610980515260206109805120601f80860160051c8201928187168061210157500160051c0190616b79565b856134ad565b90506108e051015187613466565b9150601060c05101610980515281610980512061098051925b601f1983168410614275576001935082601f1981161061425a575b5050811b01601060c051015561347e565b6108e05101515f1960f88460031b161c191690558780614249565b6108e05181015182556020938401936001909201910161422e565b6142c590601060c05101610980515260206109805120601f840160051c81019160208510611b2257601f0160051c0190616b79565b8661344d565b90506020813d6020116142f5575b816142e660209383615c07565b8101031261220a575186613360565b3d91506142d9565b600354604051631380c11160e21b815290602090829060049082906001600160a01b03165afa90811561092557610980519161439a575b506040519063313ce56760e01b825260208260048160018060a01b036103e051165afa801561092557614377614380916143959461098051916122b45750616b37565b61028051616b48565b6103e0519091906001600160a01b0316616a3a565b613320565b90506020813d6020116143cc575b816143b560209383615c07565b8101031261034a576143c690615ed3565b86614334565b3d91506143a8565b610980516143e191615c07565b6109805161034a5785613316565b60203d602011614425575b8061440a6020926101a051615c07565b6101a051908101031261220a576101a05151610140526132a2565b503d6143fa565b60203d602011614468575b8061444760209261026051615c07565b61026051908101031261034a5761446061026051615ed3565b60e052613237565b503d614437565b50813d83116144a6575b6131a361449e826144906131ac9461032051615c07565b610320510161032051615f66565b915050613197565b503d614479565b610980516144ba91615c07565b6109805161034a578661314c565b6144df91503d8061098051833e61241f8183615c07565b886130e9565b935060403d60401161453d575b8061450260409261052051615c07565b61052051908101031261034a5761451b61052051615ed3565b6103a0526020610520510151610380526103a0516103e05261038051936130aa565b503d6144f2565b885160ff16885260209889019890970196600101613035565b9091506080813d6080116145cc575b8161457960809383615c07565b8101031261034a576040519061458e82615ba2565b8051825261459e60208201615ed3565b602083015260408101519063ffffffff8216820361034a576060916040840152015160608201529085612f23565b3d915061456c565b60203d60201161460a575b806145ef60209261076051615c07565b61076051908101031261220a57610760515161066052612ef8565b503d6145df565b604051622fcfcb60e31b81526020816004816109a0515afa8015610925576109805190614658575b61086051614653925090336001600160a01b038716616c29565b612e8c565b506020813d60201161468b575b8161467260209383615c07565b8101031261034a5761468661465391615ed3565b614639565b3d9150614665565b9092506020813d6020116146c7575b816146af60209383615c07565b8101031261034a576146c090615ed3565b9184612e6f565b3d91506146a2565b60203d602011614705575b806146ea6020926108a051615c07565b6108a051908101031261220a576108a0515161086052612e2b565b503d6146da565b4261084052610980516107a052612dcd565b60405163334bb12360e01b81523360048201526020816024816109a0515afa90811561092557610980519161480e575b501561274d5760405163d6432cdd60e01b81526020816004816109a0515afa80156109255760ff9161098051916147ef575b501660ff6105605116148015906147e5575b80156147d5575b80156147cb575b80156147c1575b15612da557636a5f55b160e01b6109805152600461098051fd5b50610580516147a7565b50610540516147a0565b5061ffff6105a051161515614799565b5061096051614792565b614808915060203d6020116122dc576122ce8183615c07565b85614780565b614827915060203d60201161278a5761277c8183615c07565b8461474e565b50604051638ab2901f60e01b81526020816004816109a0515afa80156109255760ff916109805191614869575b501660ff6105c0511614612da0565b614882915060203d6020116122dc576122ce8183615c07565b8561485a565b6148a1915060203d6020116122dc576122ce8183615c07565b85612d8f565b50604051638ab2901f60e01b81526020816004816109a0515afa80156109255760ff9161098051916148e4575b501660ff6105c051161415612d5f565b6148fd915060203d6020116122dc576122ce8183615c07565b856148d4565b50604051630eee4e1560e21b81526020816004816109a0515afa80156109255760ff916109805191614940575b501660ff6105c051161415612d59565b614959915060203d6020116122dc576122ce8183615c07565b85614930565b614978915060203d6020116122dc576122ce8183615c07565b85612d48565b6060813d6060116149cc575b8161499760609383615c07565b8101031261034a5760408051916149ad83615bd1565b8051835260208101516020840152015160408201526109405283612d04565b3d915061498a565b6149ed915060203d60201161278a5761277c8183615c07565b84612ccb565b6020813d602011614a1f575b81614a0c60209383615c07565b8101031261220a57516106a05283612c94565b3d91506149ff565b3461034a57602036600319011261034a57614a40615b08565b614a48616a76565b60018060a01b03166001600160601b0360a01b60035416176003556109805161098051f35b3461034a576109805136600319011261034a575f80516020616d17833981519152546040516001600160a01b039091168152602090f35b3461034a57602036600319011261034a576001600160a01b03614ac5615b08565b166109805152600660205260a0604061098051205460ff60405191818116835261ffff8160081c166020840152818160181c1615156040840152818160201c16606084015260281c1615156080820152f35b3461034a576109805136600319011261034a576003546040516001600160a01b039091168152602090f35b3461034a576109805136600319011261034a576002546040516001600160a01b039091168152602090f35b3461034a57602036600319011261034a5760043560055481101561034a57614b96602091615b76565b905460405160039290921b1c6001600160a01b03168152f35b3461034a576109805136600319011261034a57614bca616a76565b5f80516020616d1783398151915280546001600160a01b0319811690915561098051906001600160a01b03167f8be0079c531659141344cd1fd0a4f28419497f9722a3daafe3b4186f6b6457e08280a36109805180f35b614c2a36615b48565b9160018060a01b038116806109805152600460205260ff60176040610980512001541615610933576109805152600460205260ff601b604061098051200154161561093357614c7993336161db565b50602060405160018152f35b3461034a57602036600319011261034a576001600160a01b03614ca6615b08565b166109805152600760205260206040610980512054604051908152f35b3461034a576109805136600319011261034a576020604051640ba43b74008152f35b3461034a57602036600319011261034a576001600160a01b03614d06615b08565b16806109805152600460205260018060a01b03604061098051205416156109335761098051526006602052602060ff6040610980512054821c16604051908152f35b3461034a57602036600319011261034a576001600160a01b03614d69615b08565b1661098051526008602052602060ff6040610980512054166040519015158152f35b3461220a57602036600319011261220a57614da4615b08565b614dac6160ac565b6001600160a01b038181165f818152600460205260409020600181015490939216158015615ab7575b615a6757601b83019060ff825416615aa857600284019160018060a01b038354166040516378e9792560e01b8152602081600481855afa9081156159d1575f91615a76575b504210615a6757825f52600660205260ff60405f205460281c168015615a58575b8015615a49575b6159dc575b6001546001600160a01b0316803b1561220a576040516344f85e2960e11b81526001600160a01b039290921660048301524260248301525f908290604490829084905af180156159d1576159bc575b5060196109805195019283549384614f6a575b509061010095837f6ed5dc54f1333f448f2cdf7a6efc675343f880035d6f647fb7f6e9cbf89597186119c696959460018060a01b039054169889938361098051526004602052614f2c601a60406109805120015491856109805152600660205260406109805120906040519384528a602085015260408401526060830190615f08565ba3600160ff1982541617905561098051526004602052601a60406109805120015460015f80516020616d378339815191525560405194859485615b1e565b600154604051631083f76160e01b81529197506001600160a01b031690602081600481855afa8015610925578691610980519161597b575b50614fb692906001600160a01b03166160e4565b61012c42014211611a57576109805154600154604051631083f76160e01b81526001600160a01b03918216939290911690602081600481875afa908115610925576109805191615939575b5060405163e6a4390560e01b81526001600160a01b03808a16600483015290911660248201529060209082908180604481015b03915afa9081156109255761098051916158ff575b5060408051630240bc6b60e21b8152936001600160a01b0392909216919084600481855afa9081156109255760849461098051926158dc575b50604090815195868092632eb9e9ed60e21b82528b60048301528a60248301523060448301526001606483015261098051905af19384156109255761098051946158b9575b50831580156158af575b612aba57836150df91615f59565b856109805152600460205262015180615102600f60406109805120015442615f59565b11615893575b856109805152600760205260406109805120541015908161582b575b508061580c575b615230575b600354604051631380c11160e21b8152979083906020908a9060049082906001600160a01b03165afa9889156109255761098051996151b7575b508594939285926151a47f6ed5dc54f1333f448f2cdf7a6efc675343f880035d6f647fb7f6e9cbf8959718936101009c6119c69b9a616a3a565b6109805190559394505093945095614ea9565b91969594939298506020823d602011615228575b816151d860209383615c07565b8101031261034a57610100986119c6976151a47f6ed5dc54f1333f448f2cdf7a6efc675343f880035d6f647fb7f6e9cbf8959718936152178996615ed3565b9c509350509250929394959661516a565b3d91506151cb565b8361098051526004602052604061098051209660178801805460ff8160081c16908115615800575b50610933576109805154600154604051631083f76160e01b81526001600160a01b039182169290911690602081600481865afa9081156109255761098051916157be575b5060405163e6a4390560e01b81526001600160a01b03808d16600483015290911660248201529060209082908180604481015b03915afa908115610925576109805191615784575b5060405163c66f245560e01b81526001600160a01b039190911690602081600481855afa908115610925576109805191615752575b506040516316d3df1560e31b815292602084600481865afa93841561092557610980519461571e575b50803b1561034a576040519063ff6d8d0560e01b82528a600483015281602481610980519361098051905af1801561092557615703575b50600154604051631083f76160e01b815290602090829060049082906001600160a01b03165afa8015610925576109805183916156c6575b6002546153cb93506001600160a01b039081169116616a3a565b60025460188d018054909290916001600160a01b031690813b1561034a576040519262055c5b60e51b84526004840152602483015281604481610980519361098051905af18015610925576156ab575b5060025460405163d6efd7c360e01b8152610980516001600160a01b0390921691816004818e5afa90811561092557610980519161568e575b506001600160a01b039061546790616b2a565b511690803b1561034a576154b4918d9160405180809581946309d02ad360e31b8352610980519660048401909291602090604083019460018060a01b0316835260018060a01b0316910152565b039161098051905af1801561092557615673575b506154d4838c8b616a3a565b54801561562e5760a48b918d602094670de0b6b3a7640000600860018060a01b03600254169301540494604051878101913360601b83524260348301526001600160601b03199060601b16605482015260488152615533606882615c07565b51902090670de0b6b3a7640000604051988997889663d2f5855960e01b8852600488015260248701520460448501526064840152608483015261098051905af19081156109255761098051916155d9575b5060039990990180546001600160a01b0319166001600160a01b03909a16998a17905560405198895260049886905f80516020616cf783398151915290602090a2805461ffff19166101001790559650615130565b90506020813d602011615626575b816155f460209383615c07565b8101031261034a575f80516020616cf7833981519152602060049b600361561b8b95615ed3565b9450509b5050615584565b3d91506155e7565b60405162461bcd60e51b815260206004820152601760248201527f4170706c69636174696f6e4964206e6f7420666f756e640000000000000000006044820152606490fd5b6109805161568091615c07565b6109805161034a578c6154c8565b6156a591503d8061098051833e61241f8183615c07565b8e615454565b610980516156b891615c07565b6109805161034a578c61541b565b50506020813d6020116156fb575b816156e160209383615c07565b8101031261034a57816156f66153cb92615ed3565b6153b1565b3d91506156d4565b6109805161571091615c07565b6109805161034a578c615379565b9093506020813d60201161574a575b8161573a60209383615c07565b8101031261220a5751928d615342565b3d915061572d565b90506020813d60201161577c575b8161576d60209383615c07565b8101031261220a57518c615319565b3d9150615760565b90506020813d6020116157b6575b8161579f60209383615c07565b8101031261034a576157b090615ed3565b8b6152e4565b3d9150615792565b90506020813d6020116157f8575b816157d960209383615c07565b8101031261034a576152cf916157f0602092615ed3565b91509161529c565b3d91506157cc565b60ff915016158a615258565b50836109805152600460205260ff60176040610980512001541661512b565b600154604051635d52e65160e11b81526004810192909252909150602090829060249082906001600160a01b03165afa908115610925576109805191615874575b501588615124565b61588d915060203d60201161278a5761277c8183615c07565b8861586c565b856109805152600460205242600f604061098051200155615108565b50610980516150d1565b6158d391945060403d604011612b0557612af48183615c07565b905092896150c7565b60409192506158f790823d8411612b0557612af48183615c07565b509190615082565b90506020813d602011615931575b8161591a60209383615c07565b8101031261034a5761592b90615ed3565b88615049565b3d915061590d565b90506020813d602011615973575b8161595460209383615c07565b8101031261034a576150349161596b602092615ed3565b915091615001565b3d9150615947565b9150506020813d6020116159b4575b8161599760209383615c07565b8101031261034a57614fb6916159ad8792615ed3565b9092614fa2565b3d915061598a565b5f6159c691615c07565b5f6109805285614e96565b6040513d5f823e3d90fd5b60035460405163334bb12360e01b815233600482015290602090829060249082906001600160a01b03165afa9081156159d1575f91615a2a575b50614e4757630355b83560e41b5f5260045ffd5b615a43915060203d60201161278a5761277c8183615c07565b87615a16565b50615a5385615fed565b614e42565b50615a6285615f7f565b614e3b565b63b4fa3fb360e01b5f5260045ffd5b90506020813d602011615aa0575b81615a9160209383615c07565b8101031261220a575187614e1a565b3d9150615a84565b63d4181deb60e01b5f5260045ffd5b5060028301546001600160a01b031615614dd5565b3461220a57602036600319011261220a576020906001600160a01b03615af0615b08565b165f526006825260ff60405f205460281c1615158152f35b600435906001600160a01b038216820361220a57565b6001600160a01b039182168152911660208201526040810191909152606081019190915260800190565b608090600319011261220a57600435906024356001600160a01b038116810361220a57906044359060643590565b600554811015615b8e5760055f5260205f2001905f90565b634e487b7160e01b5f52603260045260245ffd5b608081019081106001600160401b03821117615bbd57604052565b634e487b7160e01b5f52604160045260245ffd5b606081019081106001600160401b03821117615bbd57604052565b60a081019081106001600160401b03821117615bbd57604052565b90601f801991011681019081106001600160401b03821117615bbd57604052565b6001600160401b038111615bbd57601f01601f191660200190565b81601f8201121561220a57803590615c5a82615c28565b92615c686040519485615c07565b8284526020838301011161220a57815f926020809301838601378301015290565b6001600160401b038111615bbd5760051b60200190565b610104359060ff8216820361220a57565b610164359060ff8216820361220a57565b9080601f8301121561220a57813590615cda82615c89565b92615ce86040519485615c07565b82845260208085019360051b82010191821161220a57602001915b818310615d105750505090565b823560ff8116810361220a57815260209283019201615d03565b9080601f8301121561220a5760405191615d4383615ba2565b60808101908383831161220a5781905b838210615d6257505050505090565b81356001600160401b03811161220a57602091615d828784938701615c43565b815201910190615d53565b610124359061ffff8216820361220a57565b6101443590811515820361220a57565b6101843590811515820361220a57565b90600182811c92168015615ded575b6020831014615dd957565b634e487b7160e01b5f52602260045260245ffd5b91607f1691615dce565b9060405191825f825492615e0a84615dbf565b8084529360018116908115615e755750600114615e31575b50615e2f92500383615c07565b565b90505f9291925260205f20905f915b818310615e59575050906020615e2f928201015f615e22565b6020919350806001915483858901015201910190918492615e40565b905060209250615e2f94915060ff191682840152151560051b8201015f615e22565b805180835260209291819084018484015e5f828201840152601f01601f1916010190565b9081602091031261220a5751801515810361220a5790565b51906001600160a01b038216820361220a57565b91908201809211615ef457565b634e487b7160e01b5f52601160045260245ffd5b60ff60809154818116845261ffff8160081c166020850152818160181c1615156040850152818160201c16606085015260281c161515910152565b919082604091031261220a576020825192015190565b91908203918211615ef457565b9081602091031261220a575160ff8116810361220a5790565b60018060a01b03165f52600660205260ff60405f2054166004602060018060a01b036003541660405192838092630eee4e1560e21b82525afa80156159d15760ff915f91615fce575b50161490565b615fe7915060203d6020116122dc576122ce8183615c07565b5f615fc8565b60018060a01b03165f52600660205260ff60405f2054166004602060018060a01b036003541660405192838092638ab2901f60e01b82525afa80156159d15760ff915f91615fce5750161490565b6001600160a01b03168015616099575f80516020616d1783398151915280546001600160a01b0319811683179091556001600160a01b03167f8be0079c531659141344cd1fd0a4f28419497f9722a3daafe3b4186f6b6457e05f80a3565b631e4fbdf760e01b5f525f60045260245ffd5b60025f80516020616d3783398151915254146160d55760025f80516020616d3783398151915255565b633ee5aeb560e01b5f5260045ffd5b60405163095ea7b360e01b602082019081526001600160a01b0384166024830152604480830195909552938152919261611e606484615c07565b82516001600160a01b038316915f91829182855af19061613c616b8f565b826161a9575b508161619e575b501561615457505050565b60405163095ea7b360e01b60208201526001600160a01b0390931660248401525f6044808501919091528352615e2f9261619990616193606482615c07565b82616bbe565b616bbe565b90503b15155f616149565b805191925081159182156161c1575b5050905f616142565b6161d49250602080918301019101615ebb565b5f806161b8565b91929390935f914211615a67575f54600154604051631083f76160e01b81526001600160a01b039182169792909116906020816004818b5afa9081156159d1575f916169f8575b5060405163e6a4390560e01b81526001600160a01b03808916600483015290911660248201529060209082908180604481015b03915afa9081156159d1575f916169be575b5060408051630240bc6b60e21b8152976001600160a01b039290921693919088600481875afa9283156159d1575f988994616996575b5060408051632eb9e9ed60e21b815260048101929092526001600160a01b038981166024840181905298166044830152606482018a90529098909189916084918391905af19687156159d1575f97616973575b508615908115616969575b5061695a578561630a91615f59565b835f52600460205262015180616327600f60405f20015442615f59565b11616944575b835f52600760205260405f2054101590816168df575b50806168c6575b616355575b50505090565b815f52600460205260405f20906017820193845460ff8160081c169081156168ba575b50615aa8575f54600154604051631083f76160e01b81526001600160a01b03918216939290911690602081600481875afa9081156159d1575f91616878575b5060405163e6a4390560e01b81526001600160a01b03808516600483015290911660248201529060209082908180604481015b03915afa9081156159d1575f9161683e575b5060405163c66f245560e01b81526001600160a01b03919091169190602081600481865afa9081156159d1575f9161680c575b506040516316d3df1560e31b815293602085600481875afa9485156159d1575f956167d8575b50803b1561220a575f809160246040518094819363ff6d8d0560e01b83528d60048401525af180156159d1576167c3575b50600154604051631083f76160e01b815290602090829060049082906001600160a01b03165afa80156167355782908790616782575b6002546164d693506001600160a01b039081169116616a3a565b60018060a01b036002541660188701918254823b1561677e57906044889283604051958694859362055c5b60e51b8552600485015260248401525af1801561673557908691616769575b505060025460405163d6efd7c360e01b81526001600160a01b039091169086816004818c5afa90811561675e578791616744575b506001600160a01b039061656790616b2a565b5116813b15616740576040516309d02ad360e31b81526001600160a01b0385811660048301529190911660248201529086908290604490829084905af180156167355790869161671c575b50506165bf848389616a3a565b5491821561562e576020928560a49260018060a01b036002541690670de0b6b3a764000060088b01540495604051888101913360601b83524260348301526001600160601b03199060601b1660548201526048815261661f606882615c07565b51902090670de0b6b3a7640000604051998a98899763d2f5855960e01b895260048901526024880152046044860152606485015260848401525af19182156167105780926166ba575b505060039190910180546001600160a01b0319166001600160a01b0390921691821790556040519081525f80516020616cf783398151915290602090a2805461ffff19166101001790555f808061634f565b9091506020823d602011616708575b816166d660209383615c07565b8101031261670557505f80516020616cf78339815191529160036166fb602093615ed3565b9250819350616668565b80fd5b3d91506166c9565b604051903d90823e3d90fd5b8161672691615c07565b61673157845f6165b2565b8480fd5b6040513d88823e3d90fd5b8680fd5b61675891503d8089833e61241f8183615c07565b5f616554565b6040513d89823e3d90fd5b8161677391615c07565b61673157845f616520565b8780fd5b50506020813d6020116167bb575b8161679d60209383615c07565b810103126167b757816167b26164d692615ed3565b6164bc565b8580fd5b3d9150616790565b6167d09195505f90615c07565b5f935f616486565b9094506020813d602011616804575b816167f460209383615c07565b8101031261220a5751935f616455565b3d91506167e7565b90506020813d602011616836575b8161682760209383615c07565b8101031261220a57515f61642f565b3d915061681a565b90506020813d602011616870575b8161685960209383615c07565b8101031261220a5761686a90615ed3565b5f6163fc565b3d915061684c565b90506020813d6020116168b2575b8161689360209383615c07565b8101031261220a576163ea916168aa602092615ed3565b9150916163b7565b3d9150616886565b60ff915016155f616378565b50815f52600460205260ff601760405f2001541661634a565b600154604051635d52e65160e11b81526004810192909252909150602090829060249082906001600160a01b03165afa9081156159d1575f91616925575b50155f616343565b61693e915060203d60201161278a5761277c8183615c07565b5f61691d565b835f52600460205242600f60405f20015561632d565b63428637bb60e11b5f5260045ffd5b905086105f6162fb565b61698d91975060403d604011612b0557612af48183615c07565b9050955f6162f0565b6040929194506169b4608491843d8611612b0557612af48183615c07565b509491925061629d565b90506020813d6020116169f0575b816169d960209383615c07565b8101031261220a576169ea90615ed3565b5f616267565b3d91506169cc565b90506020813d602011616a32575b81616a1360209383615c07565b8101031261220a5761625591616a2a602092615ed3565b915091616222565b3d9150616a06565b60405163a9059cbb60e01b60208201526001600160a01b03929092166024830152604480830193909352918152615e2f91616199606483615c07565b5f80516020616d17833981519152546001600160a01b03163303616a9657565b63118cdaa760e01b5f523360045260245ffd5b60208183031261220a578051906001600160401b03821161220a57019080601f8301121561220a578151616adc81615c89565b92616aea6040519485615c07565b81845260208085019260051b82010192831161220a57602001905b828210616b125750505090565b60208091616b1f84615ed3565b815201910190616b05565b805115615b8e5760200190565b60ff16604d8111615ef457600a0a90565b81810292918115918404141715615ef457565b8115616b65570490565b634e487b7160e01b5f52601260045260245ffd5b818110616b84575050565b5f8155600101616b79565b3d15616bb9573d90616ba082615c28565b91616bae6040519384615c07565b82523d5f602084013e565b606090565b5f80616be69260018060a01b03169360208151910182865af1616bdf616b8f565b9083616c98565b8051908115159182616c0e575b5050616bfc5750565b635274afe760e01b5f5260045260245ffd5b616c219250602080918301019101615ebb565b155f80616bf3565b6040516323b872dd60e01b60208201526001600160a01b039283166024820152929091166044830152606480830193909352918152615e2f91616199608483615c07565b60ff5f80516020616d578339815191525460401c1615616c8957565b631afcd79f60e31b5f5260045ffd5b90616cbc5750805115616cad57805190602001fd5b630a12f52160e11b5f5260045ffd5b81511580616ced575b616ccd575090565b639996b31560e01b5f9081526001600160a01b0391909116600452602490fd5b50803b15616cc556fe381d54fa425631e6266af114239150fae1d5db67bb65b4fa9ecc65013107e07e9016d09d72d40fdae2fd8ceac6b6234c7706214fd39c1cd1e609a0528c1993009b779b17422d0df92223018b32b4d1fa46e071723d6817e2486d003becc55f00f0c57e16840df040f15088dc2f81fe391c3923bec73e23a9662efc9c229c6a00a2646970667358221220474121c059f1029b492a21fbbadd297ad7386abccde53327feb581caa8a8cdda64736f6c634300081a0033","linkReferences":{}},"methodIdentifiers":{"VirtualIdBase()":"3b85d771","agentFactory()":"7df107ea","bondingConfig()":"83719f88","buy(uint256,address,uint256,uint256)":"706910ff","cancelLaunch(address)":"e33d206f","factory()":"c45a0155","initialize(address,address,address,address)":"f8c8765e","isAcpSkillLaunch(address)":"cd6d4386","isFeeDelegation(address)":"2a5b53ed","isProject60days(address)":"165e2795","isProjectXLaunch(address)":"b701972a","launch(address)":"214013ca","owner()":"8da5cb5b","preLaunch(string,string,uint8[],string,string,string[4],uint256,uint256,uint8,uint16,bool,uint8,bool)":"b3e80f12","preLaunchV2(string,string,uint8[],string,string,string[4],uint256,uint256,uint8,uint16,bool,uint8,bool,bool)":"981b6405","renounceOwnership()":"715018a6","router()":"f887ea40","sell(uint256,address,uint256,uint256)":"b233e056","setBondingConfig(address)":"97706951","tokenAntiSniperType(address)":"3aa012b4","tokenGradThreshold(address)":"490cc5f8","tokenInfo(address)":"f5dab711","tokenInfos(uint256)":"7c13774b","tokenLaunchParams(address)":"89e8c0e1","transferOwnership(address)":"f2fde38b"},"id":43}