{"abi":[{"type":"constructor","inputs":[{"name":"router_","type":"address","internalType":"address"},{"name":"token0","type":"address","internalType":"address"},{"name":"token1","type":"address","internalType":"address"},{"name":"startTime_","type":"uint256","internalType":"uint256"},{"name":"startTimeDelay_","type":"uint256","internalType":"uint256"}],"stateMutability":"nonpayable"},{"type":"function","name":"approval","inputs":[{"name":"_user","type":"address","internalType":"address"},{"name":"_token","type":"address","internalType":"address"},{"name":"amount","type":"uint256","internalType":"uint256"}],"outputs":[{"name":"","type":"bool","internalType":"bool"}],"stateMutability":"nonpayable"},{"type":"function","name":"assetBalance","inputs":[],"outputs":[{"name":"","type":"uint256","internalType":"uint256"}],"stateMutability":"view"},{"type":"function","name":"balance","inputs":[],"outputs":[{"name":"","type":"uint256","internalType":"uint256"}],"stateMutability":"view"},{"type":"function","name":"getReserves","inputs":[],"outputs":[{"name":"","type":"uint256","internalType":"uint256"},{"name":"","type":"uint256","internalType":"uint256"}],"stateMutability":"view"},{"type":"function","name":"kLast","inputs":[],"outputs":[{"name":"","type":"uint256","internalType":"uint256"}],"stateMutability":"view"},{"type":"function","name":"mint","inputs":[{"name":"reserve0","type":"uint256","internalType":"uint256"},{"name":"reserve1","type":"uint256","internalType":"uint256"}],"outputs":[{"name":"","type":"bool","internalType":"bool"}],"stateMutability":"nonpayable"},{"type":"function","name":"priceALast","inputs":[],"outputs":[{"name":"","type":"uint256","internalType":"uint256"}],"stateMutability":"view"},{"type":"function","name":"priceBLast","inputs":[],"outputs":[{"name":"","type":"uint256","internalType":"uint256"}],"stateMutability":"view"},{"type":"function","name":"resetTime","inputs":[{"name":"newStartTime","type":"uint256","internalType":"uint256"}],"outputs":[],"stateMutability":"nonpayable"},{"type":"function","name":"router","inputs":[],"outputs":[{"name":"","type":"address","internalType":"address"}],"stateMutability":"view"},{"type":"function","name":"setTaxStartTime","inputs":[{"name":"_taxStartTime","type":"uint256","internalType":"uint256"}],"outputs":[],"stateMutability":"nonpayable"},{"type":"function","name":"startTime","inputs":[],"outputs":[{"name":"","type":"uint256","internalType":"uint256"}],"stateMutability":"view"},{"type":"function","name":"startTimeDelay","inputs":[],"outputs":[{"name":"","type":"uint256","internalType":"uint256"}],"stateMutability":"view"},{"type":"function","name":"swap","inputs":[{"name":"amount0In","type":"uint256","internalType":"uint256"},{"name":"amount0Out","type":"uint256","internalType":"uint256"},{"name":"amount1In","type":"uint256","internalType":"uint256"},{"name":"amount1Out","type":"uint256","internalType":"uint256"}],"outputs":[{"name":"","type":"bool","internalType":"bool"}],"stateMutability":"nonpayable"},{"type":"function","name":"syncAfterDrain","inputs":[{"name":"assetAmount","type":"uint256","internalType":"uint256"},{"name":"tokenAmount","type":"uint256","internalType":"uint256"}],"outputs":[],"stateMutability":"nonpayable"},{"type":"function","name":"taxStartTime","inputs":[],"outputs":[{"name":"","type":"uint256","internalType":"uint256"}],"stateMutability":"view"},{"type":"function","name":"tokenA","inputs":[],"outputs":[{"name":"","type":"address","internalType":"address"}],"stateMutability":"view"},{"type":"function","name":"tokenB","inputs":[],"outputs":[{"name":"","type":"address","internalType":"address"}],"stateMutability":"view"},{"type":"function","name":"transferAsset","inputs":[{"name":"recipient","type":"address","internalType":"address"},{"name":"amount","type":"uint256","internalType":"uint256"}],"outputs":[],"stateMutability":"nonpayable"},{"type":"function","name":"transferTo","inputs":[{"name":"recipient","type":"address","internalType":"address"},{"name":"amount","type":"uint256","internalType":"uint256"}],"outputs":[],"stateMutability":"nonpayable"},{"type":"event","name":"Mint","inputs":[{"name":"reserve0","type":"uint256","indexed":false,"internalType":"uint256"},{"name":"reserve1","type":"uint256","indexed":false,"internalType":"uint256"}],"anonymous":false},{"type":"event","name":"Swap","inputs":[{"name":"amount0In","type":"uint256","indexed":false,"internalType":"uint256"},{"name":"amount0Out","type":"uint256","indexed":false,"internalType":"uint256"},{"name":"amount1In","type":"uint256","indexed":false,"internalType":"uint256"},{"name":"amount1Out","type":"uint256","indexed":false,"internalType":"uint256"}],"anonymous":false},{"type":"event","name":"Sync","inputs":[{"name":"reserve0","type":"uint256","indexed":false,"internalType":"uint256"},{"name":"reserve1","type":"uint256","indexed":false,"internalType":"uint256"}],"anonymous":false},{"type":"event","name":"TaxStartTimeSet","inputs":[{"name":"taxStartTime","type":"uint256","indexed":false,"internalType":"uint256"}],"anonymous":false},{"type":"event","name":"TimeReset","inputs":[{"name":"oldStartTime","type":"uint256","indexed":false,"internalType":"uint256"},{"name":"newStartTime","type":"uint256","indexed":false,"internalType":"uint256"}],"anonymous":false},{"type":"error","name":"AddressEmptyCode","inputs":[{"name":"target","type":"address","internalType":"address"}]},{"type":"error","name":"AddressInsufficientBalance","inputs":[{"name":"account","type":"address","internalType":"address"}]},{"type":"error","name":"FailedInnerCall","inputs":[]},{"type":"error","name":"InvalidStartTime","inputs":[]},{"type":"error","name":"ReentrancyGuardReentrantCall","inputs":[]},{"type":"error","name":"SafeERC20FailedOperation","inputs":[{"name":"token","type":"address","internalType":"address"}]}],"bytecode":{"object":"0x6080346100f857601f610db238819003918201601f19168301916001600160401b038311848410176100fc5780849260a0946040528339810103126100f85761004781610110565b9061005460208201610110565b61006060408301610110565b606083015160809093015160015f55936001600160a01b031691610085831515610124565b6001600160a01b03169061009a821515610124565b6001600160a01b0316916100af831515610124565b60018060a01b0319600154161760015560018060a01b0319600254161760025560018060a01b031960035416176003556008556009555f600a55604051610c4190816101718239f35b5f80fd5b634e487b7160e01b5f52604160045260245ffd5b51906001600160a01b03821682036100f857565b1561012b57565b60405162461bcd60e51b815260206004820152601f60248201527f5a65726f2061646472657373657320617265206e6f7420616c6c6f7765642e006044820152606490fdfe6080806040526004361015610012575f80fd5b5f3560e01c9081630902f1ac1461090a575080630e06dfc9146108e95780630fc63d10146108c1578063112212ff146108035780631b2ef1ca146107305780631eb305b1146106885780632ccb1b301461062d5780635673b02d1461051c5780635c52a5f2146103cf5780635c921eb9146103725780635c9d6938146103495780635f64b55b1461032157806370e6e182146103045780637464fc3d146102e757806378e97925146102ca578063ab54e3b8146102ad578063b3207f7914610209578063b69ef8a8146101b6578063c66f2455146101245763f887ea40146100f8575f80fd5b34610120575f366003190112610120576001546040516001600160a01b039091168152602090f35b5f80fd5b34610120575f366003190112610120576003546040516370a0823160e01b815230600482015290602090829060249082906001600160a01b03165afa80156101ab575f90610178575b602090604051908152f35b506020813d6020116101a3575b8161019260209383610a25565b81010312610120576020905161016d565b3d9150610185565b6040513d5f823e3d90fd5b34610120575f366003190112610120576002546040516370a0823160e01b815230600482015290602090829060249082906001600160a01b03165afa80156101ab575f9061017857602090604051908152f35b34610120577fcf2aa50876cdfbb541206f89af0ee78d44a2abf8d328e37fa4917f982149848a604061023a3661092d565b61024f60018060a01b03600154163314610977565b600454908082106102a45761026391610aa0565b905b60048290556005549080821061029c5761027e91610aa0565b8060055561028c81836109ce565b60065582519182526020820152a1005b50505f61027e565b50505f90610265565b34610120575f366003190112610120576020600954604051908152f35b34610120575f366003190112610120576020600854604051908152f35b34610120575f366003190112610120576020600654604051908152f35b34610120575f366003190112610120576020600a54604051908152f35b34610120575f366003190112610120576003546040516001600160a01b039091168152602090f35b34610120575f36600319011261012057602061036a60055460045490610959565b604051908152f35b34610120576040366003190112610120576103cd61038e610943565b6103a360018060a01b03600154163314610977565b6103b76001600160a01b0382161515610a54565b60035460243591906001600160a01b0316610aad565b005b34610120576060366003190112610120576103e8610943565b6024356001600160a01b03811691908290036101205761041360018060a01b03600154163314610977565b6001600160a01b03811691610429831515610a54565b610434811515610a54565b60405163095ea7b360e01b602082019081526001600160a01b0393909316602482015260448035818301528152915f908190610471606486610a25565b84519082855af1610480610b6e565b816104ed575b50806104e3575b1561049e575b602060405160018152f35b6104d66104db936040519063095ea7b360e01b602083015260248201525f6044820152604481526104d0606482610a25565b82610b03565b610b03565b808080610493565b50803b151561048d565b8051801592508215610502575b505084610486565b6105159250602080918301019101610aeb565b84806104fa565b34610120576080366003190112610120576004356024356044359160643561054f60018060a01b03600154163314610977565b60085442106105f5577f298c349c742327269dc8de6ad66687767310c948ea309df826f5bd103e19d207938361059260809561058d86600454610a47565b610aa0565b6105a28461058d85600554610a47565b600654916040516105b2816109f5565b81815282602082015283604082015260604291015260045560055560065542600755604051938452602084015260408301526060820152a1602060405160018152f35b60405162461bcd60e51b815260206004820152601060248201526f14ddd85c081b9bdd081cdd185c9d195960821b6044820152606490fd5b34610120576040366003190112610120576103cd610649610943565b61065e60018060a01b03600154163314610977565b6106726001600160a01b0382161515610a54565b60025460243591906001600160a01b0316610aad565b34610120576020366003190112610120576004356106b160018060a01b03600154163314610977565b60025f5414610721576008549081421015610712576106d260095442610a47565b8110610712577fff1bf99918d35d7dd5182e2a06f26aa0b7673c48538bb8ce407af50f4b4ab2ca918160409260085582519182526020820152a160015f55005b632ca4094f60e21b5f5260045ffd5b633ee5aeb560e01b5f5260045ffd5b346101205761073e3661092d565b61075360018060a01b03600154163314610977565b6007546107cd5781816107896040937fcc9c58b575eabd3f6a1ee653e91fcea3ff546867ffc3782a3bbca1f9b6dbb8df956109ce565b8351610794816109f5565b838152826020820152818582015260604291015282600455816005556006554260075582519182526020820152a1602060405160018152f35b60405162461bcd60e51b815260206004820152600e60248201526d105b1c9958591e481b5a5b9d195960921b6044820152606490fd5b346101205760203660031901126101205760043561082c60018060a01b03600154163314610977565b6008548110610866576020817f387456294cf51936eef156333b6540d55f441ea39998b269a39f19a63cfbdee692600a55604051908152a1005b60405162461bcd60e51b815260206004820152602d60248201527f5461782073746172742074696d65206d7573742062652067726561746572207460448201526c68616e20737461727454696d6560981b6064820152608490fd5b34610120575f366003190112610120576002546040516001600160a01b039091168152602090f35b34610120575f36600319011261012057602061036a60045460055490610959565b34610120575f366003190112610120576040906004546005549082526020820152f35b6040906003190112610120576004359060243590565b600435906001600160a01b038216820361012057565b8115610963570490565b634e487b7160e01b5f52601260045260245ffd5b1561097e57565b60405162461bcd60e51b815260206004820152602260248201527f4f6e6c7920726f757465722063616e2063616c6c20746869732066756e63746960448201526137b760f11b6064820152608490fd5b818102929181159184041417156109e157565b634e487b7160e01b5f52601160045260245ffd5b6080810190811067ffffffffffffffff821117610a1157604052565b634e487b7160e01b5f52604160045260245ffd5b90601f8019910116810190811067ffffffffffffffff821117610a1157604052565b919082018092116109e157565b15610a5b57565b60405162461bcd60e51b815260206004820152601f60248201527f5a65726f2061646472657373657320617265206e6f7420616c6c6f7765642e006044820152606490fd5b919082039182116109e157565b60405163a9059cbb60e01b60208201526001600160a01b03929092166024830152604480830193909352918152610ae9916104d6606483610a25565b565b90816020910312610120575180151581036101205790565b5f80610b2b9260018060a01b03169360208151910182865af1610b24610b6e565b9083610bad565b8051908115159182610b53575b5050610b415750565b635274afe760e01b5f5260045260245ffd5b610b669250602080918301019101610aeb565b155f80610b38565b3d15610ba8573d9067ffffffffffffffff8211610a115760405191610b9d601f8201601f191660200184610a25565b82523d5f602084013e565b606090565b90610bd15750805115610bc257805190602001fd5b630a12f52160e11b5f5260045ffd5b81511580610c02575b610be2575090565b639996b31560e01b5f9081526001600160a01b0391909116600452602490fd5b50803b15610bda56fea264697066735822122066b2dd4d2f3e5f805680220776623d1a020cf30f41bfceefd039b6975a630f3764736f6c634300081a0033","linkReferences":{}},"methodIdentifiers":{"approval(address,address,uint256)":"5c52a5f2","assetBalance()":"c66f2455","balance()":"b69ef8a8","getReserves()":"0902f1ac","kLast()":"7464fc3d","mint(uint256,uint256)":"1b2ef1ca","priceALast()":"5c9d6938","priceBLast()":"0e06dfc9","resetTime(uint256)":"1eb305b1","router()":"f887ea40","setTaxStartTime(uint256)":"112212ff","startTime()":"78e97925","startTimeDelay()":"ab54e3b8","swap(uint256,uint256,uint256,uint256)":"5673b02d","syncAfterDrain(uint256,uint256)":"b3207f79","taxStartTime()":"70e6e182","tokenA()":"0fc63d10","tokenB()":"5f64b55b","transferAsset(address,uint256)":"5c921eb9","transferTo(address,uint256)":"2ccb1b30"},"id":46}