{"abi":[{"type":"function","name":"airdrop","inputs":[{"name":"_token","type":"address","internalType":"contract IERC20"},{"name":"_recipients","type":"address[]","internalType":"address[]"},{"name":"_amounts","type":"uint256[]","internalType":"uint256[]"},{"name":"_total","type":"uint256","internalType":"uint256"}],"outputs":[],"stateMutability":"nonpayable"}],"bytecode":{"object":"0x608080604052346015576102a5908161001a8239f35b5f80fdfe60806040526004361015610011575f80fd5b5f3560e01c63ac3e208914610024575f80fd5b3461009b57608036600319011261009b576004356001600160a01b038116810361009b5760243567ffffffffffffffff811161009b5761006890369060040161009f565b604435929167ffffffffffffffff841161009b5761008d61009994369060040161009f565b9290916064359461018e565b005b5f80fd5b9181601f8401121561009b5782359167ffffffffffffffff831161009b576020808501948460051b01011161009b57565b156100d757565b60405162461bcd60e51b815260206004820152600f60248201526e098cadccee8d040dad2e6dac2e8c6d608b1b6044820152606490fd5b919081101561011e5760051b0190565b634e487b7160e01b5f52603260045260245ffd5b9190820180921161013f57565b634e487b7160e01b5f52601160045260245ffd5b1561015a57565b60405162461bcd60e51b815260206004820152600c60248201526b14dd5b48084f481d1bdd185b60a21b6044820152606490fd5b9293918261019f91969296146100d0565b5f805b83811061024f57506064826101bb6020945f9414610153565b6040519082828601926323b872dd60e01b8452336024820152306044820152015282865af13d1560015f511417161561009b5760405163a9059cbb60e01b60208201908152919491936044820192916024015f5b878110610220575050505050505050565b8060051b808501358352830135855260205f604489828a5af13d1560015f511417161561009b5760010161020f565b9061026860019161026184878a61010e565b3590610132565b91016101a256fea2646970667358221220150db95f8bcd5ea09d5b3d371f3e90576ee1b5612176564ccefbab01acc76f5164736f6c634300081a0033","linkReferences":{}},"methodIdentifiers":{"airdrop(address,address[],uint256[],uint256)":"ac3e2089"},"id":83}