{"abi":[{"type":"constructor","inputs":[],"stateMutability":"nonpayable"},{"type":"function","name":"BONDING_ROLE","inputs":[],"outputs":[{"name":"","type":"bytes32","internalType":"bytes32"}],"stateMutability":"view"},{"type":"function","name":"DEFAULT_ADMIN_ROLE","inputs":[],"outputs":[{"name":"","type":"bytes32","internalType":"bytes32"}],"stateMutability":"view"},{"type":"function","name":"REMOVE_LIQUIDITY_ROLE","inputs":[],"outputs":[{"name":"","type":"bytes32","internalType":"bytes32"}],"stateMutability":"view"},{"type":"function","name":"WITHDRAW_ROLE","inputs":[],"outputs":[{"name":"","type":"bytes32","internalType":"bytes32"}],"stateMutability":"view"},{"type":"function","name":"addBlacklistAddress","inputs":[{"name":"token","type":"address","internalType":"address"},{"name":"blacklistAddress","type":"address","internalType":"address"}],"outputs":[],"stateMutability":"nonpayable"},{"type":"function","name":"allDAOs","inputs":[{"name":"","type":"uint256","internalType":"uint256"}],"outputs":[{"name":"","type":"address","internalType":"address"}],"stateMutability":"view"},{"type":"function","name":"allTokens","inputs":[{"name":"","type":"uint256","internalType":"uint256"}],"outputs":[{"name":"","type":"address","internalType":"address"}],"stateMutability":"view"},{"type":"function","name":"allTradingTokens","inputs":[{"name":"","type":"uint256","internalType":"uint256"}],"outputs":[{"name":"","type":"address","internalType":"address"}],"stateMutability":"view"},{"type":"function","name":"assetToken","inputs":[],"outputs":[{"name":"","type":"address","internalType":"address"}],"stateMutability":"view"},{"type":"function","name":"createNewAgentTokenAndApplication","inputs":[{"name":"name","type":"string","internalType":"string"},{"name":"symbol","type":"string","internalType":"string"},{"name":"tokenSupplyParams_","type":"bytes","internalType":"bytes"},{"name":"cores","type":"uint8[]","internalType":"uint8[]"},{"name":"tbaSalt","type":"bytes32","internalType":"bytes32"},{"name":"tbaImplementation","type":"address","internalType":"address"},{"name":"daoVotingPeriod","type":"uint32","internalType":"uint32"},{"name":"daoThreshold","type":"uint256","internalType":"uint256"},{"name":"applicationThreshold_","type":"uint256","internalType":"uint256"},{"name":"creator","type":"address","internalType":"address"}],"outputs":[{"name":"","type":"address","internalType":"address"},{"name":"","type":"uint256","internalType":"uint256"}],"stateMutability":"nonpayable"},{"type":"function","name":"daoImplementation","inputs":[],"outputs":[{"name":"","type":"address","internalType":"address"}],"stateMutability":"view"},{"type":"function","name":"defaultDelegatee","inputs":[],"outputs":[{"name":"","type":"address","internalType":"address"}],"stateMutability":"view"},{"type":"function","name":"executeBondingCurveApplicationSalt","inputs":[{"name":"id","type":"uint256","internalType":"uint256"},{"name":"totalSupply","type":"uint256","internalType":"uint256"},{"name":"lpSupply","type":"uint256","internalType":"uint256"},{"name":"vault","type":"address","internalType":"address"},{"name":"salt","type":"bytes32","internalType":"bytes32"}],"outputs":[{"name":"","type":"address","internalType":"address"}],"stateMutability":"nonpayable"},{"type":"function","name":"getApplication","inputs":[{"name":"proposalId","type":"uint256","internalType":"uint256"}],"outputs":[{"name":"","type":"tuple","internalType":"struct AgentFactoryV6.Application","components":[{"name":"name","type":"string","internalType":"string"},{"name":"symbol","type":"string","internalType":"string"},{"name":"tokenURI","type":"string","internalType":"string"},{"name":"status","type":"uint8","internalType":"enum AgentFactoryV6.ApplicationStatus"},{"name":"withdrawableAmount","type":"uint256","internalType":"uint256"},{"name":"proposer","type":"address","internalType":"address"},{"name":"cores","type":"uint8[]","internalType":"uint8[]"},{"name":"proposalEndBlock","type":"uint256","internalType":"uint256"},{"name":"virtualId","type":"uint256","internalType":"uint256"},{"name":"tbaSalt","type":"bytes32","internalType":"bytes32"},{"name":"tbaImplementation","type":"address","internalType":"address"},{"name":"daoVotingPeriod","type":"uint32","internalType":"uint32"},{"name":"daoThreshold","type":"uint256","internalType":"uint256"},{"name":"tokenAddress","type":"address","internalType":"address"}]}],"stateMutability":"view"},{"type":"function","name":"getRoleAdmin","inputs":[{"name":"role","type":"bytes32","internalType":"bytes32"}],"outputs":[{"name":"","type":"bytes32","internalType":"bytes32"}],"stateMutability":"view"},{"type":"function","name":"gov","inputs":[],"outputs":[{"name":"","type":"address","internalType":"address"}],"stateMutability":"view"},{"type":"function","name":"grantRole","inputs":[{"name":"role","type":"bytes32","internalType":"bytes32"},{"name":"account","type":"address","internalType":"address"}],"outputs":[],"stateMutability":"nonpayable"},{"type":"function","name":"hasRole","inputs":[{"name":"role","type":"bytes32","internalType":"bytes32"},{"name":"account","type":"address","internalType":"address"}],"outputs":[{"name":"","type":"bool","internalType":"bool"}],"stateMutability":"view"},{"type":"function","name":"initialize","inputs":[{"name":"tokenImplementation_","type":"address","internalType":"address"},{"name":"veTokenImplementation_","type":"address","internalType":"address"},{"name":"daoImplementation_","type":"address","internalType":"address"},{"name":"tbaRegistry_","type":"address","internalType":"address"},{"name":"assetToken_","type":"address","internalType":"address"},{"name":"nft_","type":"address","internalType":"address"},{"name":"vault_","type":"address","internalType":"address"},{"name":"nextId_","type":"uint256","internalType":"uint256"}],"outputs":[],"stateMutability":"nonpayable"},{"type":"function","name":"maturityDuration","inputs":[],"outputs":[{"name":"","type":"uint256","internalType":"uint256"}],"stateMutability":"view"},{"type":"function","name":"nextIdBase","inputs":[],"outputs":[{"name":"","type":"uint256","internalType":"uint256"}],"stateMutability":"view"},{"type":"function","name":"nft","inputs":[],"outputs":[{"name":"","type":"address","internalType":"address"}],"stateMutability":"view"},{"type":"function","name":"pause","inputs":[],"outputs":[],"stateMutability":"nonpayable"},{"type":"function","name":"paused","inputs":[],"outputs":[{"name":"","type":"bool","internalType":"bool"}],"stateMutability":"view"},{"type":"function","name":"removeBlacklistAddress","inputs":[{"name":"token","type":"address","internalType":"address"},{"name":"blacklistAddress","type":"address","internalType":"address"}],"outputs":[],"stateMutability":"nonpayable"},{"type":"function","name":"removeLpLiquidity","inputs":[{"name":"veToken","type":"address","internalType":"address"},{"name":"recipient","type":"address","internalType":"address"},{"name":"veTokenAmount","type":"uint256","internalType":"uint256"},{"name":"amountAMin","type":"uint256","internalType":"uint256"},{"name":"amountBMin","type":"uint256","internalType":"uint256"},{"name":"deadline","type":"uint256","internalType":"uint256"}],"outputs":[],"stateMutability":"nonpayable"},{"type":"function","name":"renounceRole","inputs":[{"name":"role","type":"bytes32","internalType":"bytes32"},{"name":"callerConfirmation","type":"address","internalType":"address"}],"outputs":[],"stateMutability":"nonpayable"},{"type":"function","name":"revokeRole","inputs":[{"name":"role","type":"bytes32","internalType":"bytes32"},{"name":"account","type":"address","internalType":"address"}],"outputs":[],"stateMutability":"nonpayable"},{"type":"function","name":"setImplementations","inputs":[{"name":"token","type":"address","internalType":"address"},{"name":"veToken","type":"address","internalType":"address"},{"name":"dao","type":"address","internalType":"address"}],"outputs":[],"stateMutability":"nonpayable"},{"type":"function","name":"setParams","inputs":[{"name":"newMaturityDuration","type":"uint256","internalType":"uint256"},{"name":"newRouter","type":"address","internalType":"address"},{"name":"newDelegatee","type":"address","internalType":"address"},{"name":"newTokenAdmin","type":"address","internalType":"address"}],"outputs":[],"stateMutability":"nonpayable"},{"type":"function","name":"setTokenParams","inputs":[{"name":"projectBuyTaxBasisPoints","type":"uint256","internalType":"uint256"},{"name":"projectSellTaxBasisPoints","type":"uint256","internalType":"uint256"},{"name":"taxSwapThresholdBasisPoints","type":"uint256","internalType":"uint256"},{"name":"projectTaxRecipient","type":"address","internalType":"address"}],"outputs":[],"stateMutability":"nonpayable"},{"type":"function","name":"setVault","inputs":[{"name":"newVault","type":"address","internalType":"address"}],"outputs":[],"stateMutability":"nonpayable"},{"type":"function","name":"supportsInterface","inputs":[{"name":"interfaceId","type":"bytes4","internalType":"bytes4"}],"outputs":[{"name":"","type":"bool","internalType":"bool"}],"stateMutability":"view"},{"type":"function","name":"tbaRegistry","inputs":[],"outputs":[{"name":"","type":"address","internalType":"address"}],"stateMutability":"view"},{"type":"function","name":"tokenImplementation","inputs":[],"outputs":[{"name":"","type":"address","internalType":"address"}],"stateMutability":"view"},{"type":"function","name":"totalAgents","inputs":[],"outputs":[{"name":"","type":"uint256","internalType":"uint256"}],"stateMutability":"view"},{"type":"function","name":"unpause","inputs":[],"outputs":[],"stateMutability":"nonpayable"},{"type":"function","name":"updateApplicationThresholdWithApplicationId","inputs":[{"name":"id","type":"uint256","internalType":"uint256"},{"name":"applicationThreshold_","type":"uint256","internalType":"uint256"}],"outputs":[],"stateMutability":"nonpayable"},{"type":"function","name":"veTokenImplementation","inputs":[],"outputs":[{"name":"","type":"address","internalType":"address"}],"stateMutability":"view"},{"type":"function","name":"withdraw","inputs":[{"name":"id","type":"uint256","internalType":"uint256"}],"outputs":[],"stateMutability":"nonpayable"},{"type":"event","name":"ApplicationThresholdUpdated","inputs":[{"name":"newThreshold","type":"uint256","indexed":false,"internalType":"uint256"}],"anonymous":false},{"type":"event","name":"GovUpdated","inputs":[{"name":"newGov","type":"address","indexed":false,"internalType":"address"}],"anonymous":false},{"type":"event","name":"ImplContractsUpdated","inputs":[{"name":"token","type":"address","indexed":false,"internalType":"address"},{"name":"dao","type":"address","indexed":false,"internalType":"address"}],"anonymous":false},{"type":"event","name":"Initialized","inputs":[{"name":"version","type":"uint64","indexed":false,"internalType":"uint64"}],"anonymous":false},{"type":"event","name":"NewApplication","inputs":[{"name":"id","type":"uint256","indexed":false,"internalType":"uint256"}],"anonymous":false},{"type":"event","name":"NewPersona","inputs":[{"name":"virtualId","type":"uint256","indexed":false,"internalType":"uint256"},{"name":"token","type":"address","indexed":false,"internalType":"address"},{"name":"dao","type":"address","indexed":false,"internalType":"address"},{"name":"tba","type":"address","indexed":false,"internalType":"address"},{"name":"veToken","type":"address","indexed":false,"internalType":"address"},{"name":"lp","type":"address","indexed":false,"internalType":"address"}],"anonymous":false},{"type":"event","name":"Paused","inputs":[{"name":"account","type":"address","indexed":false,"internalType":"address"}],"anonymous":false},{"type":"event","name":"RoleAdminChanged","inputs":[{"name":"role","type":"bytes32","indexed":true,"internalType":"bytes32"},{"name":"previousAdminRole","type":"bytes32","indexed":true,"internalType":"bytes32"},{"name":"newAdminRole","type":"bytes32","indexed":true,"internalType":"bytes32"}],"anonymous":false},{"type":"event","name":"RoleGranted","inputs":[{"name":"role","type":"bytes32","indexed":true,"internalType":"bytes32"},{"name":"account","type":"address","indexed":true,"internalType":"address"},{"name":"sender","type":"address","indexed":true,"internalType":"address"}],"anonymous":false},{"type":"event","name":"RoleRevoked","inputs":[{"name":"role","type":"bytes32","indexed":true,"internalType":"bytes32"},{"name":"account","type":"address","indexed":true,"internalType":"address"},{"name":"sender","type":"address","indexed":true,"internalType":"address"}],"anonymous":false},{"type":"event","name":"Unpaused","inputs":[{"name":"account","type":"address","indexed":false,"internalType":"address"}],"anonymous":false},{"type":"error","name":"AccessControlBadConfirmation","inputs":[]},{"type":"error","name":"AccessControlUnauthorizedAccount","inputs":[{"name":"account","type":"address","internalType":"address"},{"name":"neededRole","type":"bytes32","internalType":"bytes32"}]},{"type":"error","name":"AddressEmptyCode","inputs":[{"name":"target","type":"address","internalType":"address"}]},{"type":"error","name":"AddressInsufficientBalance","inputs":[{"name":"account","type":"address","internalType":"address"}]},{"type":"error","name":"AgentAlreadyExists","inputs":[]},{"type":"error","name":"ERC1167FailedCreateClone","inputs":[]},{"type":"error","name":"EnforcedPause","inputs":[]},{"type":"error","name":"ExpectedPause","inputs":[]},{"type":"error","name":"FailedInnerCall","inputs":[]},{"type":"error","name":"InvalidInitialization","inputs":[]},{"type":"error","name":"NotInitializing","inputs":[]},{"type":"error","name":"SafeERC20FailedOperation","inputs":[{"name":"token","type":"address","internalType":"address"}]}],"bytecode":{"object":"0x6080806040523460d0577ff0c57e16840df040f15088dc2f81fe391c3923bec73e23a9662efc9c229c6a005460ff8160401c1660c1576002600160401b03196001600160401b03821601605c575b6040516144a990816100d58239f35b6001600160401b0319166001600160401b039081177ff0c57e16840df040f15088dc2f81fe391c3923bec73e23a9662efc9c229c6a005581527fc7f505b2f371ae2175ee4913f4499e1f2633a7b5936321eed1cdaeb6115181d290602090a15f80604d565b63f92ee8a960e01b5f5260045ffd5b5f80fdfe60806040526004361015610011575f80fd5b5f803560e01c8062ab8b6014613bc357806301ffc9a714613b6d578063063513b714613b505780630c4cb55c14613b285780631083f76114613b0057806312d43a5114613ad85780631f2f4bfd14613282578063248a9ca3146132505780632c87eedd146130c15780632cf404dc146130495780632e1a7d4d14612eb65780632f2ff15d14612e795780632f3a3d5d14612e515780633094afb314612e1757806336568abe14612dd15780633f4ba83a14612d53578063468d198d14612d2b57806347ccca0214612d035780634d6070ec146122e15780634e8156981461226c5780635c975abb1461223d578063634282af146121d057806364777ac9146120bd5780636817031b1461207d5780637e841d54146120425780638456cb5914611fcf5780638830191114611d385780638a7dc9b214611d1857806391d1485414611ccf5780639300d23814611c5a5780639cbe0bac14611c315780639d69932614611c08578063a217fddf14611bec578063b4136bd814611b7f578063c505371214611b61578063d2f585591461036b578063d547741f14610324578063e02023a1146102e9578063e887b1cc146102685763fa2d84b6146101d1575f80fd5b3461025657604036600319011261025657806101eb613c71565b6101f3613c2f565b906101fc613f25565b6001600160a01b031690813b1561026457604051634806735d60e11b81526001600160a01b0390911660048201529082908290602490829084905af18015610259576102455750f35b8161024f91613ca3565b6102565780f35b80fd5b6040513d84823e3d90fd5b5050fd5b50346102565760203660031901126102565760043590600d5482101561025657600d548210156102d557600d81527fd7b6990105719101dabeb77144f2a3385c8033acd3af97e9423a695e81ad1eb59091015460405160039290921b1c6001600160a01b03168152602090f35b634e487b7160e01b81526032600452602490fd5b503461025657806003193601126102565760206040517f5d8e12c39142ff96d79d04d15d1ba1269e4fe57bb9d26f43523628b34ba108ec8152f35b503461025657604036600319011261025657610367600435610344613c2f565b9061036261035d825f525f602052600160405f20015490565b613fe3565b61421e565b5080f35b50346102565760a03660031901126102565760043560443560243561038e613c19565b90610397613f25565b600c546103aa60ff8260a01c1615613e88565b60ff60a01b1916600160a01b17600c55828103818111611b4d5791610409939161010093604051938260208601526040850152606084015280608084015260a08301528560c083015260018060a01b031660e082015260e08152613ca3565b808252600a60205260ff6003604084200154166003811015611b395761042f9015613ec5565b6011546001600160a01b031615611afe57808252600a602052604082206004810180549084905560038201805460ff19166001179055600c8201546001600160a01b031691908215611aba5760405163d6efd7c360e01b81528581600481875afa908115611aaf578691611a17575b50805115611a0357602001516008546001600160a01b03918216926104c792909186911661401b565b823b15610efe57604051631672aef960e21b81523060048201528590818160248183895af18015610259576119ee575b505060405166029ba30b5b2b2160cd1b602082015261052b8161051d60278201866142c5565b03601f198101835282613ca3565b604051607360f81b602082015261054c8161051d60218201600188016142c5565b600584018054600f54608881901c62ffffff16763d602d80600a3d3981f3363d3d373d3d3d363d73000000178a5260781b6effffffffffffffffffffffffffffff19166e5af43d82803e903d91602b57fd5bf3176020529091906001600160a01b0390811690603760098bf0169384156119df576009544201908142116119cb576004548b94936001600160a01b03909116929190873b156119c757859361061493610626604051978896879663b2193b4d60e01b885260e0600489015260e4880190613bf5565b86810360031901602488015290613bf5565b9260448501528a6064850152608484015260a4830152600160c4830152038183885af18015610259576119ae575b5050600654600160401b81101561199a5780600161067792016006556006613d4a565b81546001600160a01b0360039290921b91821b19169084901b179055604051946106c36004876106aa60208201896142c5565b632044414f60e01b815203601b19810189520187613ca3565b600a85019163ffffffff835460a01c1696600b8701549060018060a01b036106f760843560018060a01b0360035416614347565b1698898c52601660205260ff60408d20541661198b576004548c93926001600160a01b0390911691908b3b15610efe578492610750926040519586948594631c63df3560e21b865260a0600487015260a4860190613bf5565b928c60248601526044850152606484015260848301520381838d5af1801561025957611972575b5050600754600160401b81101561195e5780600161079a92016007556007613d4a565b81546001600160a01b0360039290921b82811b19909116908a901b1790915560048054604051632fd77c0d60e11b815298921690602090899081845afa978815611953578b9861191f575b50600c548354604051631f889aa560e11b8152600481018b90526001600160a01b03928316602482015261010060448201528d9594939092909160068501918b918e911661083a610104870160028901613dab565b91606487015260848601526003198582030160a4860152602083549182815201928852602088209088915b81601f84011061176c5786946020969486948c948694549181811061175a575b818110611744575b81811061172e575b818110611718575b818110611704575b8181106116ee575b8181106116d8575b8181106116c2575b8181106116ac575b818110611696575b818110611680575b81811061166a575b818110611654575b81811061163e575b818110611628575b818110611612575b8181106115fc575b8181106115e6575b8181106115d0575b8181106115ba575b8181106115a4575b81811061158e575b818110611578575b818110611562575b81811061154c575b818110611536575b818110611520575b81811061150a575b8181106114f4575b8181106114de575b8181106114c8575b106114b9575b5060c48301528b60e483015203925af180156114ae57611478575b5060088101889055600554945460099091015460048054604051638a54c52f60e01b81526001600160a01b0394851692810192909252602482019290925246604482015290821660648201526084810189905294602091869160a49183918791165af193841561025957829461143c575b506004546001600160a01b031693843b15610ef25782809160446040518094819363190b373360e31b83528d600484015260018060a01b0316998a60248401525af19081156113ef578391611427575b505060405163095ea7b360e01b8152600481018690525f196024820152602081604481868b5af180156113ef576113fa575b506040516370a0823160e01b8152306004820152906020826024818a5afa9182156113ef5783926113b4575b50546012546001600160a01b039081169116863b15610efa576040519263a7d545db60e01b8452600484015260248301526044820152818160648183895af1801561025957611391575b5050907ff9d151d23a5253296eb20ab40959cf48828ea2732d337416716e302ed83ca6589560c095949392604051958652602086015260408501526060840152608083015260a0820152a18152600a60205260408120604051610b6181613c87565b604051610b7981610b728186613dab565b0382613ca3565b8152604051610b8f81610b728160018701613dab565b6020820152604051610ba881610b728160028701613dab565b6040820152610bc160ff60038401541660608301613e2c565b6004820154608082015260058201546001600160a01b031660a0820152604051600683018054808352908552602080862091839182019087905b80601f8301106111e957610d119454918181106111d5575b8181106111be575b8181106111a7575b818110611190575b81811061117a575b818110611163575b81811061114c575b818110611135575b81811061111e575b818110611107575b8181106110f0575b8181106110d9575b8181106110c2575b8181106110ab575b818110611094575b81811061107d575b818110611066575b81811061104f575b818110611038575b818110611021575b81811061100a575b818110610ff3575b818110610fdc575b818110610fc5575b818110610fae575b818110610f97575b818110610f80575b818110610f69575b818110610f52575b818110610f3b575b818110610f24575b10610f16575b500382613ca3565b60c0820152600782015460e08201526101a060088301549283610100840152600981015461012084015263ffffffff600a82015460018060a01b03811661014086015260a01c16610160840152600b810154610180840152600c60018060a01b03910154169101528160018060a01b036004541691602460405180948193635652386760e11b835260048301525afa908115610259578291610dd3575b602082810151600c805460ff60a01b191690556040516001600160a01b039091168152f35b90503d8083833e610de48183613ca3565b810190602081830312610ef2578051906001600160401b038211610efa57019060a082820312610ef2576040519160a083018381106001600160401b03821117610f0257604052610e3481613f11565b8352610e4260208201613f11565b6020840152610e5360408201613f11565b6040840152610e6460608201613f11565b60608401526080810151906001600160401b038211610efe57019080601f83011215610efa57815193610e9685613d33565b92610ea46040519485613ca3565b85845260208085019660051b820101928311610ef657602001945b828610610ed8575050506020925060808201525f610dae565b855160ff81168103610ef257815260209586019501610ebf565b8280fd5b5080fd5b8380fd5b8480fd5b634e487b7160e01b85526041600452602485fd5b60f81c81526020015f610d09565b92602060019160ff8560f01c168152019301610d03565b92602060019160ff8560e81c168152019301610cfb565b92602060019160ff8560e01c168152019301610cf3565b92602060019160ff8560d81c168152019301610ceb565b92602060019160ff8560d01c168152019301610ce3565b92602060019160ff8560c81c168152019301610cdb565b92602060019160ff8560c01c168152019301610cd3565b92602060019160ff8560b81c168152019301610ccb565b92602060019160ff8560b01c168152019301610cc3565b92602060019160ff8560a81c168152019301610cbb565b92602060019160ff8560a01c168152019301610cb3565b92602060019160ff8560981c168152019301610cab565b92602060019160ff8560901c168152019301610ca3565b92602060019160ff8560881c168152019301610c9b565b92602060019160ff8560801c168152019301610c93565b92602060019160ff8560781c168152019301610c8b565b92602060019160ff8560701c168152019301610c83565b92602060019160ff8560681c168152019301610c7b565b92602060019160ff8560601c168152019301610c73565b92602060019160ff8560581c168152019301610c6b565b92602060019160ff8560501c168152019301610c63565b92602060019160ff8560481c168152019301610c5b565b92602060019160ff8560401c168152019301610c53565b92602060019160ff8560381c168152019301610c4b565b92602060019160ff8560301c168152019301610c43565b92602060019160ff8560281c168152019301610c3b565b92602060019160ff85831c168152019301610c33565b92602060019160ff8560181c168152019301610c2b565b92602060019160ff8560101c168152019301610c23565b92602060019160ff8560081c168152019301610c1b565b92602060019160ff85168152019301610c13565b916020919350610400600191865460ff8116825260ff8160081c168583015260ff8160101c16604083015260ff8160181c16606083015260ff81861c16608083015260ff8160281c1660a083015260ff8160301c1660c083015260ff8160381c1660e083015260ff8160401c1661010083015260ff8160481c1661012083015260ff8160501c1661014083015260ff8160581c1661016083015260ff8160601c1661018083015260ff8160681c166101a083015260ff8160701c166101c083015260ff8160781c166101e083015260ff8160801c1661020083015260ff8160881c1661022083015260ff8160901c1661024083015260ff8160981c1661026083015260ff8160a01c1661028083015260ff8160a81c166102a083015260ff8160b01c166102c083015260ff8160b81c166102e083015260ff8160c01c1661030083015260ff8160c81c1661032083015260ff8160d01c1661034083015260ff8160d81c1661036083015260ff8160e01c1661038083015260ff8160e81c166103a083015260ff8160f01c166103c083015260f81c6103e0820152019401920184929391610bfb565b816113a191979695949397613ca3565b6113b05790919293875f610aff565b8780fd5b925090506020823d6020116113e7575b816113d160209383613ca3565b810103126113e357899151905f610ab5565b5f80fd5b3d91506113c4565b6040513d85823e3d90fd5b61141b9060203d602011611420575b6114138183613ca3565b81019061432f565b610a89565b503d611409565b8161143191613ca3565b610ef657815f610a57565b9093506020813d602011611470575b8161145860209383613ca3565b81010312610ef65761146990613f11565b925f610a07565b3d915061144b565b9092506020813d6020116114a6575b8161149460209383613ca3565b810103126113e3575089916020610996565b3d9150611487565b6040513d86823e3d90fd5b60f81c8252908701905f61097b565b938a60019160ff8560f01c168152019401610975565b938a60019160ff8560e81c16815201940161096d565b938a60019160ff8560e01c168152019401610965565b938a60019160ff8560d81c16815201940161095d565b938a60019160ff8560d01c168152019401610955565b938a60019160ff8560c81c16815201940161094d565b938a60019160ff8560c01c168152019401610945565b938a60019160ff8560b81c16815201940161093d565b938a60019160ff8560b01c168152019401610935565b938a60019160ff8560a81c16815201940161092d565b938a60019160ff8560a01c168152019401610925565b938a60019160ff8560981c16815201940161091d565b938a60019160ff8560901c168152019401610915565b938a60019160ff8560881c16815201940161090d565b938a60019160ff8560801c168152019401610905565b938a60019160ff8560781c1681520194016108fd565b938a60019160ff8560701c1681520194016108f5565b938a60019160ff8560681c1681520194016108ed565b938a60019160ff8560601c1681520194016108e5565b938a60019160ff8560581c1681520194016108dd565b938a60019160ff8560501c1681520194016108d5565b938a60019160ff8560481c1681520194016108cd565b938a60019160ff8560401c1681520194016108c5565b938a60019160ff8560381c1681520194016108bd565b938a60019160ff8560301c1681520194016108b5565b938a60019160ff8560281c1681520194016108ad565b828b1c60ff168552938a01936001016108a5565b938a60019160ff8560181c16815201940161089d565b938a60019160ff8560101c168152019401610895565b938a60019160ff8560081c16815201940161088d565b60ff83168552938a0193600101610885565b9495969798509150916001610400602092865460ff8116825260ff8160081c168583015260ff8160101c16604083015260ff8160181c16606083015260ff81861c16608083015260ff8160281c1660a083015260ff8160301c1660c083015260ff8160381c1660e083015260ff8160401c1661010083015260ff8160481c1661012083015260ff8160501c1661014083015260ff8160581c1661016083015260ff8160601c1661018083015260ff8160681c166101a083015260ff8160701c166101c083015260ff8160781c166101e083015260ff8160801c1661020083015260ff8160881c1661022083015260ff8160901c1661024083015260ff8160981c1661026083015260ff8160a01c1661028083015260ff8160a81c166102a083015260ff8160b01c166102c083015260ff8160b81c166102e083015260ff8160c01c1661030083015260ff8160c81c1661032083015260ff8160d01c1661034083015260ff8160d81c1661036083015260ff8160e01c1661038083015260ff8160e81c166103a083015260ff8160f01c166103c083015260f81c6103e082015201940192018f979695949392918c92610865565b9097506020813d60201161194b575b8161193b60209383613ca3565b810103126113e35751965f6107e5565b3d915061192e565b6040513d8d823e3d90fd5b634e487b7160e01b8a52604160045260248afd5b8161197c91613ca3565b61198757885f610777565b8880fd5b630d82532d60e21b8c5260048cfd5b634e487b7160e01b88526041600452602488fd5b816119b891613ca3565b6119c357865f610654565b8680fd5b8580fd5b634e487b7160e01b8b52601160045260248bfd5b6330be1a3d60e21b8a5260048afd5b816119f891613ca3565b610efe57845f6104f7565b634e487b7160e01b86526032600452602486fd5b90503d8087833e611a288183613ca3565b8101906020818303126119c3578051906001600160401b0382116113b057019080601f830112156119c3578151611a5e81613d33565b92611a6c6040519485613ca3565b81845260208085019260051b82010192831161198757602001905b828210611a97575050505f61049e565b60208091611aa484613f11565b815201910190611a87565b6040513d88823e3d90fd5b606460405162461bcd60e51b815260206004820152602060248201527f6170706c69636174696f6e20746f6b656e41646472657373206e6f74207365746044820152fd5b60405162461bcd60e51b8152602060048201526013602482015272151bdad95b8818591b5a5b881b9bdd081cd95d606a1b6044820152606490fd5b634e487b7160e01b83526021600452602483fd5b634e487b7160e01b86526011600452602486fd5b50346102565780600319360112610256576020600654604051908152f35b50346102565760203660031901126102565760043590600754821015610256576007548210156102d557600781527fa66cc928b5edb82af9bd49922954155ab7b0942694bea4ce44661d9a8736c6889091015460405160039290921b1c6001600160a01b03168152602090f35b5034610256578060031936011261025657602090604051908152f35b50346102565780600319360112610256576003546040516001600160a01b039091168152602090f35b5034610256578060031936011261025657600f546040516001600160a01b039091168152602090f35b503461025657606036600319011261025657611c74613c71565b611c7c613c2f565b90611c85613c45565b90611c8e613f94565b600280546001600160a01b03199081166001600160a01b039384161790915560038054821693831693909317909255600f8054909216921691909117905580f35b5034610256576040366003190112610256576040611ceb613c2f565b91600435815280602052209060018060a01b03165f52602052602060ff60405f2054166040519015158152f35b50346102565780600319360112610256576020604051640df84758008152f35b50346102565761010036600319011261025657611d53613c71565b611d5b613c2f565b611d63613c45565b90611d6c613c19565b6084356001600160a01b03811691908290036119c757611d8a613c5b565b9160c4359460018060a01b0386168096036113b05760e435945f80516020614454833981519152549760ff8960401c1615986001600160401b03811680159081611fc7575b6001149081611fbd575b159081611fb4575b50611fa55767ffffffffffffffff1981166001175f805160206144548339815191525589611f79575b50611e136143aa565b611e1b6143aa565b60ff195f8051602061443483398151915254165f805160206144348339815191525560018060a01b03166001600160601b0360a01b600254161760025560018060a01b03166001600160601b0360a01b600f541617600f5560018060a01b03166001600160601b0360a01b60035416176003556001600160601b0360a01b600854161760085560018060a01b03166001600160601b0360a01b600554161760055560018060a01b03166001600160601b0360a01b6004541617600455640df84758008101809111611f6557600155611ef2336140e7565b506001600160601b0360a01b600c541617600c55611f0d5780f35b68ff0000000000000000195f8051602061445483398151915254165f80516020614454833981519152557fc7f505b2f371ae2175ee4913f4499e1f2633a7b5936321eed1cdaeb6115181d2602060405160018152a180f35b634e487b7160e01b84526011600452602484fd5b68ffffffffffffffffff191668010000000000000001175f80516020614454833981519152555f611e0a565b63f92ee8a960e01b8b5260048bfd5b9050155f611de1565b303b159150611dd9565b8b9150611dcf565b5034610256578060031936011261025657611fe8613f94565b611ff061429e565b600160ff195f805160206144348339815191525416175f80516020614434833981519152557f62e78cea01bee320cd4e420270b5ea74000d11b0c9f74754ebdbfc544b05a2586020604051338152a180f35b503461025657806003193601126102565760206040517f99a732c1592dacad61c17aa1d8c4a304ed8aa6966133090e2df7f7c3ec3c66f78152f35b503461025657602036600319011261025657612097613c71565b61209f613f94565b60018060a01b03166001600160601b0360a01b600c541617600c5580f35b50346102565760c0366003190112610256576120d7613c71565b906120e0613c2f565b7f99a732c1592dacad61c17aa1d8c4a304ed8aa6966133090e2df7f7c3ec3c66f7825260208281526040808420335f908152925290205460ff161561219957600e54919283926001600160a01b0391821692911690823b156121945760c4849283604051958694859363937764e560e01b85526004850152604435602485015260018060a01b031660448401526064356064840152608435608484015260a43560a48401525af18015610259576102455750f35b505050fd5b63e2517d3f60e01b8252336004527f99a732c1592dacad61c17aa1d8c4a304ed8aa6966133090e2df7f7c3ec3c66f7602452604482fd5b50346102565760203660031901126102565760043590600654821015610256576006548210156102d557600681527ff652222313e28459528d920b65115c16c04f3efc82aaedc97be59f3f377c0d3f9091015460405160039290921b1c6001600160a01b03168152602090f35b5034610256578060031936011261025657602060ff5f8051602061443483398151915254166040519015158152f35b50346102565760403660031901126102565780612287613c71565b61228f613c2f565b90612298613f25565b6001600160a01b031690813b15610264576040516316a02f6f60e11b81526001600160a01b0390911660048201529082908290602490829084905af18015610259576102455750f35b50346113e3576101403660031901126113e3576004356001600160401b0381116113e357612313903690600401613d15565b906024356001600160401b0381116113e357612333903690600401613d15565b916044356001600160401b0381116113e357366023820112156113e357612364903690602481600401359101613cdf565b91606435916001600160401b0383116113e357366023840112156113e357826004013561239081613d33565b9361239e6040519586613ca3565b8185526024602086019260051b820101903682116113e357602401915b818310612ce9575050506123cd613c5b565b60c4359063ffffffff82168092036113e357610124356001600160a01b03811695908690036113e3576123fe61429e565b612406613f25565b600c5461241960ff8260a01c1615613e88565b60ff60a01b1916600160a01b17600c55805115612cab57600154975f198914612c97576001898101905560025461245a908a906001600160a01b0316614347565b9760018060a01b0389165f52601660205260ff60405f205416612c88576001600160a01b0389165f9081526016602052604090819020805460ff191660011790555190606082016001600160401b03811183821017612c745760409081526011546001600160a01b039081168452600e5481166020808601919091526008549091168483015281519081019190915261250f8161051d6124fd606083018c613bf5565b828103601f1901604084015287613bf5565b6001600160a01b038b163b156113e357604051634258efa960e11b8152925f600485015b60038210612c5457505050906125576125699260c0606486015260c4850190613bf5565b83810360031901608485015290613bf5565b6003198282030160a4830152815f916014549061258582613d73565b8082529160018116908115612c345750600114612bd3575b505f92829003905081836001600160a01b038e165af18015612bc857612bb3575b50600d54600160401b811015612b9f578060016125e09201600d55600d613d4a565b81546001600160a01b038b811660039390931b92831b921b19161790556040519461260a86613c87565b855260208501526020956040516126218882613ca3565b868152604086015285606086015261010435608086015260a085015260c08401524360e08401528361010084015260843561012084015260018060a01b031661014083015261016082015260e43561018082015260018060a01b0384166101a0820152848252600a8352604082209181518051906001600160401b038211612ab7576126b7826126b18754613d73565b87613e4e565b8590601f8311600114612b38576126e59291849183612a3f575b50508160011b915f199060031b1c19161790565b83555b60208201518051906001600160401b038211612ab7576127188261270f6001880154613d73565b60018801613e4e565b8590601f8311600114612acb576127459291849183612a3f5750508160011b915f199060031b1c19161790565b60018401555b60408201518051906001600160401b038211612ab75761277b826127726002880154613d73565b60028801613e4e565b8590601f8311600114612a4a576127a89291849183612a3f5750508160011b915f199060031b1c19161790565b60028401555b6003830160608301516003811015611b3957815460ff191660ff919091161790556080820151600484015560a08201516005840180546001600160a01b039092166001600160a01b031990921691909117905560c0820151805160068501916001600160401b038211612a2b57600160401b8211612a2b57869083548385558084106129e1575b500191835285832091835b8260051c81106129a35750601f19821690818303612935575b60e0860151600788015561010086015160088801556101208601516009880155610140860151600a880180546101608901516001600160c01b03199091166001600160a01b039384161760a09190911b63ffffffff60a01b16179055610180870151600b8901556101a0870151600c890180546001600160a01b031916919092161790556040518a81528a908a907f0ff47c4a3dc48719ecfd1876116e80d7d76ec7cb67248ae49449f9104747af29908b90a1600c805460ff60a01b19169055604080516001600160a01b039290921682526020820192909252f35b90845b81840381106129745750505060051c0155600c7f0ff47c4a3dc48719ecfd1876116e80d7d76ec7cb67248ae49449f9104747af295f8080612859565b909194886129996001928460ff8a5116919060ff809160031b9316831b921b19161790565b9601929101612938565b84855b898082106129bc57505084820155600101612840565b845191949260019260ff600388901b81811b19909316911690911b17920193016129a6565b612a0b90858752838720601f80870160051c82019281881680612a11575b500160051c0190613e38565b5f612835565b5f198501908154905f19908a0360031b1c1690555f6129ff565b634e487b7160e01b84526041600452602484fd5b015190505f806126d1565b91906002860184528684209084935b88601f1985168610612a9e57506001945083601f19811610612a86575b505050811b0160028401556127ae565b01515f1960f88460031b161c191690555f8080612a76565b8282015184559485019460019093019290910190612a59565b634e487b7160e01b83526041600452602483fd5b91906001860184528684209084935b88601f1985168610612b1f57506001945083601f19811610612b07575b505050811b01600184015561274b565b01515f1960f88460031b161c191690555f8080612af7565b8282015184559485019460019093019290910190612ada565b91908584528684209084935b88601f1985168610612b8657506001945083601f19811610612b6e575b505050811b0183556126e8565b01515f1960f88460031b161c191690555f8080612b61565b8282015184559485019460019093019290910190612b44565b634e487b7160e01b87526041600452602487fd5b612bc09196505f90613ca3565b5f945f6125be565b6040513d5f823e3d90fd5b60145f908152909350907fce6d7b5282bd9a3661ae061feed1dbda4e52ab073b1f9285be6e155d9c38d4ec5b818310612c16575050602082915f9401019261259d565b60209194935080600191548385870101520191019092849293612bff565b5f9550602092915092849360ff191683830152151560051b01019261259d565b82516001600160a01b031681526020928301926001929092019101612533565b634e487b7160e01b5f52604160045260245ffd5b630d82532d60e21b5f5260045ffd5b634e487b7160e01b5f52601160045260245ffd5b60405162461bcd60e51b815260206004820152601660248201527510dbdc995cc81b5d5cdd081899481c1c9bdd9a59195960521b6044820152606490fd5b823560ff811681036113e3578152602092830192016123bb565b346113e3575f3660031901126113e3576004546040516001600160a01b039091168152602090f35b346113e3575f3660031901126113e3576005546040516001600160a01b039091168152602090f35b346113e3575f3660031901126113e357612d6b613f94565b5f805160206144348339815191525460ff811615612dc25760ff19165f80516020614434833981519152557f5db9ee0a495bf2e6ff9c91a7834c1ba4fdd244a5e8aa4e537bd38aeae4b073aa6020604051338152a1005b638dfc202b60e01b5f5260045ffd5b346113e35760403660031901126113e357612dea613c2f565b336001600160a01b03821603612e0857612e069060043561421e565b005b63334bd91960e11b5f5260045ffd5b346113e3575f3660031901126113e35760206040517f360f1ba4dc07a42c6671063d838f69946ccc4187f391399e06fd8ed4605900f38152f35b346113e3575f3660031901126113e3576002546040516001600160a01b039091168152602090f35b346113e35760403660031901126113e357612e06600435612e98613c2f565b90612eb161035d825f525f602052600160405f20015490565b614196565b346113e35760203660031901126113e357600c54612eda60ff8260a01c1615613e88565b60ff60a01b1916600160a01b17600c556004355f908152600a60205260409020600581018054336001600160a01b0391909116148015613012575b15612fde57600382019060ff8254166003811015612fca57612f379015613ec5565b6007830154431115612f855760049290920180545f909155815460ff19166002179091556008549154612f76926001600160a01b03918216911661401b565b600c805460ff60a01b19169055005b60405162461bcd60e51b815260206004820152601e60248201527f4170706c69636174696f6e206973206e6f74206d6174757265642079657400006044820152606490fd5b634e487b7160e01b5f52602160045260245ffd5b60405162461bcd60e51b815260206004820152600c60248201526b2737ba10383937b837b9b2b960a11b6044820152606490fd5b50335f9081527f20be27040b8e00df40bca0df34743417f3574a156386188f7d7f14369e5ee82b602052604090205460ff16612f15565b346113e35760803660031901126113e357613062613c2f565b61306a613c45565b613072613c19565b9161307b613f94565b600435600955600e80546001600160a01b03199081166001600160a01b039384161790915560128054821693831693909317909255601180549092169216919091179055005b346113e35760803660031901126113e3576130da613c19565b6130e2613f94565b6040519060043560208301526024356040830152604435606083015260018060a01b031660808201526080815261311a60a082613ca3565b80516001600160401b038111612c7457613135601454613d73565b601f81116131f7575b50602091601f821160011461317c5761316c925f91836131715750508160011b915f199060031b1c19161790565b601455005b0151905083806126d1565b601f1982169260145f527fce6d7b5282bd9a3661ae061feed1dbda4e52ab073b1f9285be6e155d9c38d4ec915f5b8581106131df575083600195106131c7575b505050811b01601455005b01515f1960f88460031b161c191690558280806131bc565b919260206001819286850151815501940192016131aa565b60145f52613240907fce6d7b5282bd9a3661ae061feed1dbda4e52ab073b1f9285be6e155d9c38d4ec601f840160051c81019160208510613246575b601f0160051c0190613e38565b8261313e565b9091508190613233565b346113e35760203660031901126113e357602061327a6004355f525f602052600160405f20015490565b604051908152f35b346113e35760203660031901126113e3575f6101a06040516132a381613c87565b6060815260606020820152606060408201528260608201528260808201528260a0820152606060c08201528260e0820152826101008201528261012082015282610140820152826101608201528261018082015201526004355f52600a60205260405f2060405161331381613c87565b60405161332481610b728186613dab565b8152604051916133428361333b8160018501613dab565b0384613ca3565b60208201928352604051926133658461335e8160028601613dab565b0385613ca3565b6040830193845260ff60038301541691613383606085019384613e2c565b60048101546080850190815260058201546001600160a01b031660a086019081526040516006840180548083525f9182526020808320959a95849391840192905b81601f84011061393057549181811061391c575b818110613905575b8181106138ee575b8181106138d7575b8181106138c1575b8181106138aa575b818110613893575b81811061387c575b818110613865575b81811061384e575b818110613837575b818110613820575b818110613809575b8181106137f2575b8181106137db575b8181106137c4575b8181106137ad575b818110613796575b81811061377f575b818110613768575b818110613751575b81811061373a575b818110613723575b81811061370c575b8181106136f5575b8181106136de575b8181106136c7575b8181106136b0575b818110613699575b818110613682575b81811061366b575b1061365d575b50036134da9082613ca3565b60c08701908152600784015460e0880190815260088501549161010089019283526009860154936101208a01948552600a8701549a6101408b0196600160a01b600190038d1688526101608c019c60a01c63ffffffff168d52600b890154986101808d01998a52600160a01b6001900390600c015416996101a08d019a8b526040519c60208e52518d602081016101c090526101e00161357991613bf5565b90518d8203601f190160408f01526135919190613bf5565b90518c8203601f190160608e01526135a99190613bf5565b99516003811015612fca5760808c01525160a08b0152516001600160a01b031660c08a015251888803601f190160e08a01528051808952602098890198909101905f5b8181106136445750509051610100890152505161012087015251610140860152516001600160a01b03908116610160860152945163ffffffff16610180850152516101a0840152519092166101c08201529081900390f35b825160ff168a526020998a0199909201916001016135ec565b60f81c81526020018a6134ce565b92602060019160ff8560f01c1681520193016134c8565b92602060019160ff8560e81c1681520193016134c0565b92602060019160ff8560e01c1681520193016134b8565b92602060019160ff8560d81c1681520193016134b0565b92602060019160ff8560d01c1681520193016134a8565b92602060019160ff8560c81c1681520193016134a0565b92602060019160ff8560c01c168152019301613498565b92602060019160ff8560b81c168152019301613490565b92602060019160ff8560b01c168152019301613488565b92602060019160ff8560a81c168152019301613480565b92602060019160ff8560a01c168152019301613478565b92602060019160ff8560981c168152019301613470565b92602060019160ff8560901c168152019301613468565b92602060019160ff8560881c168152019301613460565b92602060019160ff8560801c168152019301613458565b92602060019160ff8560781c168152019301613450565b92602060019160ff8560701c168152019301613448565b92602060019160ff8560681c168152019301613440565b92602060019160ff8560601c168152019301613438565b92602060019160ff8560581c168152019301613430565b92602060019160ff8560501c168152019301613428565b92602060019160ff8560481c168152019301613420565b92602060019160ff8560401c168152019301613418565b92602060019160ff8560381c168152019301613410565b92602060019160ff8560301c168152019301613408565b92602060019160ff8560281c168152019301613400565b92602060019160ff85831c1681520193016133f8565b92602060019160ff8560181c1681520193016133f0565b92602060019160ff8560101c1681520193016133e8565b92602060019160ff8560081c1681520193016133e0565b92602060019160ff851681520193016133d8565b935090916001610400602092865460ff8116825260ff8160081c168583015260ff8160101c16604083015260ff8160181c16606083015260ff81861c16608083015260ff8160281c1660a083015260ff8160301c1660c083015260ff8160381c1660e083015260ff8160401c1661010083015260ff8160481c1661012083015260ff8160501c1661014083015260ff8160581c1661016083015260ff8160601c1661018083015260ff8160681c166101a083015260ff8160701c166101c083015260ff8160781c166101e083015260ff8160801c1661020083015260ff8160881c1661022083015260ff8160901c1661024083015260ff8160981c1661026083015260ff8160a01c1661028083015260ff8160a81c166102a083015260ff8160b01c166102c083015260ff8160b81c166102e083015260ff8160c01c1661030083015260ff8160c81c1661032083015260ff8160d01c1661034083015260ff8160d81c1661036083015260ff8160e01c1661038083015260ff8160e81c166103a083015260ff8160f01c166103c083015260f81c6103e08201520194019201908493926133c4565b346113e3575f3660031901126113e357600b546040516001600160a01b039091168152602090f35b346113e3575f3660031901126113e3576008546040516001600160a01b039091168152602090f35b346113e3575f3660031901126113e3576012546040516001600160a01b039091168152602090f35b346113e3575f3660031901126113e3576020600954604051908152f35b346113e35760203660031901126113e35760043563ffffffff60e01b81168091036113e357602090637965db0b60e01b8114908115613bb2575b506040519015158152f35b6301ffc9a760e01b14905082613ba7565b346113e35760403660031901126113e357613bdc613f25565b6004355f52600a602052602435600460405f2001555f80f35b805180835260209291819084018484015e5f828201840152601f01601f1916010190565b606435906001600160a01b03821682036113e357565b602435906001600160a01b03821682036113e357565b604435906001600160a01b03821682036113e357565b60a435906001600160a01b03821682036113e357565b600435906001600160a01b03821682036113e357565b6101c081019081106001600160401b03821117612c7457604052565b90601f801991011681019081106001600160401b03821117612c7457604052565b6001600160401b038111612c7457601f01601f191660200190565b929192613ceb82613cc4565b91613cf96040519384613ca3565b8294818452818301116113e3578281602093845f960137010152565b9080601f830112156113e357816020613d3093359101613cdf565b90565b6001600160401b038111612c745760051b60200190565b8054821015613d5f575f5260205f2001905f90565b634e487b7160e01b5f52603260045260245ffd5b90600182811c92168015613da1575b6020831014613d8d57565b634e487b7160e01b5f52602260045260245ffd5b91607f1691613d82565b5f9291815491613dba83613d73565b8083529260018116908115613e0f5750600114613dd657505050565b5f9081526020812093945091925b838310613df5575060209250010190565b600181602092949394548385870101520191019190613de4565b915050602093945060ff929192191683830152151560051b010190565b6003821015612fca5752565b818110613e43575050565b5f8155600101613e38565b9190601f8111613e5d57505050565b613e86925f5260205f20906020601f840160051c8301931061324657601f0160051c0190613e38565b565b15613e8f57565b60405162461bcd60e51b815260206004820152600e60248201526d31b0b73737ba103932b2b73a32b960911b6044820152606490fd5b15613ecc57565b60405162461bcd60e51b815260206004820152601960248201527f4170706c69636174696f6e206973206e6f7420616374697665000000000000006044820152606490fd5b51906001600160a01b03821682036113e357565b335f9081527f47fa3846800aa0e8a0094e76ddd8b6215145788c21499f1987cd67ad6fc41810602052604090205460ff1615613f5d57565b63e2517d3f60e01b5f52336004527f360f1ba4dc07a42c6671063d838f69946ccc4187f391399e06fd8ed4605900f360245260445ffd5b335f9081527fad3228b676f7d3cd4284a5443f17f1962b36e491b30a40b2405849e597ba5fb5602052604090205460ff1615613fcc57565b63e2517d3f60e01b5f52336004525f60245260445ffd5b5f8181526020818152604080832033845290915290205460ff16156140055750565b63e2517d3f60e01b5f523360045260245260445ffd5b60405163a9059cbb60e01b602082019081526001600160a01b0393909316602482015260448082019490945292835261409c915f9182919061405e606487613ca3565b60018060a01b031694519082865af13d156140df573d9061407e82613cc4565b9161408c6040519384613ca3565b82523d5f602084013e5b836143d5565b80519081151591826140c4575b50506140b25750565b635274afe760e01b5f5260045260245ffd5b6140d7925060208091830101910161432f565b155f806140a9565b606090614096565b6001600160a01b0381165f9081527fad3228b676f7d3cd4284a5443f17f1962b36e491b30a40b2405849e597ba5fb5602052604090205460ff16614191576001600160a01b03165f8181527fad3228b676f7d3cd4284a5443f17f1962b36e491b30a40b2405849e597ba5fb560205260408120805460ff191660011790553391907f2f8788117e7eff1d82e926ec794901d17c78024a50270940304540a733656f0d8180a4600190565b505f90565b5f818152602081815260408083206001600160a01b038616845290915290205460ff16614218575f818152602081815260408083206001600160a01b0395909516808452949091528120805460ff19166001179055339291907f2f8788117e7eff1d82e926ec794901d17c78024a50270940304540a733656f0d9080a4600190565b50505f90565b5f818152602081815260408083206001600160a01b038616845290915290205460ff1615614218575f818152602081815260408083206001600160a01b0395909516808452949091528120805460ff19169055339291907ff6391f5c32d9c69d2a47ea670b442974b53935d1edc7fd64eb21e047a839171b9080a4600190565b60ff5f8051602061443483398151915254166142b657565b63d93c066560e01b5f5260045ffd5b5f92918154916142d483613d73565b926001811690811561431c57506001146142ed57505050565b90919293505f5260205f205f905b8382106143085750500190565b6001816020925484860152019101906142fb565b60ff191683525050811515909102019150565b908160209103126113e3575180151581036113e35790565b6e5af43d82803e903d91602b57fd5bf390763d602d80600a3d3981f3363d3d373d3d3d363d7300000062ffffff8260881c16175f5260781b17602052603760095ff5906001600160a01b0382161561439b57565b6330be1a3d60e21b5f5260045ffd5b60ff5f805160206144548339815191525460401c16156143c657565b631afcd79f60e31b5f5260045ffd5b906143f957508051156143ea57805190602001fd5b630a12f52160e11b5f5260045ffd5b8151158061442a575b61440a575090565b639996b31560e01b5f9081526001600160a01b0391909116600452602490fd5b50803b1561440256fecd5ed15c6e187e77e9aee88184c21f4f2182ab5827cb3b7e07fbedcd63f03300f0c57e16840df040f15088dc2f81fe391c3923bec73e23a9662efc9c229c6a00a26469706673582212204f292d146b069fad9cd9f603f10328d942640574e7c8b328d327ec20ba874ecc64736f6c634300081a0033","linkReferences":{}},"methodIdentifiers":{"BONDING_ROLE()":"3094afb3","DEFAULT_ADMIN_ROLE()":"a217fddf","REMOVE_LIQUIDITY_ROLE()":"7e841d54","WITHDRAW_ROLE()":"e02023a1","addBlacklistAddress(address,address)":"fa2d84b6","allDAOs(uint256)":"b4136bd8","allTokens(uint256)":"634282af","allTradingTokens(uint256)":"e887b1cc","assetToken()":"1083f761","createNewAgentTokenAndApplication(string,string,bytes,uint8[],bytes32,address,uint32,uint256,uint256,address)":"4d6070ec","daoImplementation()":"9d699326","defaultDelegatee()":"0c4cb55c","executeBondingCurveApplicationSalt(uint256,uint256,uint256,address,bytes32)":"d2f58559","getApplication(uint256)":"1f2f4bfd","getRoleAdmin(bytes32)":"248a9ca3","gov()":"12d43a51","grantRole(bytes32,address)":"2f2ff15d","hasRole(bytes32,address)":"91d14854","initialize(address,address,address,address,address,address,address,uint256)":"88301911","maturityDuration()":"063513b7","nextIdBase()":"8a7dc9b2","nft()":"47ccca02","pause()":"8456cb59","paused()":"5c975abb","removeBlacklistAddress(address,address)":"4e815698","removeLpLiquidity(address,address,uint256,uint256,uint256,uint256)":"64777ac9","renounceRole(bytes32,address)":"36568abe","revokeRole(bytes32,address)":"d547741f","setImplementations(address,address,address)":"9300d238","setParams(uint256,address,address,address)":"2cf404dc","setTokenParams(uint256,uint256,uint256,address)":"2c87eedd","setVault(address)":"6817031b","supportsInterface(bytes4)":"01ffc9a7","tbaRegistry()":"468d198d","tokenImplementation()":"2f3a3d5d","totalAgents()":"c5053712","unpause()":"3f4ba83a","updateApplicationThresholdWithApplicationId(uint256,uint256)":"00ab8b60","veTokenImplementation()":"9cbe0bac","withdraw(uint256)":"2e1a7d4d"},"id":95}