{"abi":[{"type":"constructor","inputs":[{"name":"token","type":"address","internalType":"contract IVotes"},{"name":"initialVotingDelay","type":"uint48","internalType":"uint48"},{"name":"initialVotingPeriod","type":"uint32","internalType":"uint32"},{"name":"initialProposalThreshold","type":"uint256","internalType":"uint256"},{"name":"initialQuorumNumerator","type":"uint256","internalType":"uint256"}],"stateMutability":"nonpayable"},{"type":"receive","stateMutability":"payable"},{"type":"function","name":"BALLOT_TYPEHASH","inputs":[],"outputs":[{"name":"","type":"bytes32","internalType":"bytes32"}],"stateMutability":"view"},{"type":"function","name":"CLOCK_MODE","inputs":[],"outputs":[{"name":"","type":"string","internalType":"string"}],"stateMutability":"view"},{"type":"function","name":"COUNTING_MODE","inputs":[],"outputs":[{"name":"","type":"string","internalType":"string"}],"stateMutability":"pure"},{"type":"function","name":"EXTENDED_BALLOT_TYPEHASH","inputs":[],"outputs":[{"name":"","type":"bytes32","internalType":"bytes32"}],"stateMutability":"view"},{"type":"function","name":"cancel","inputs":[{"name":"proposalId","type":"uint256","internalType":"uint256"}],"outputs":[],"stateMutability":"nonpayable"},{"type":"function","name":"cancel","inputs":[{"name":"targets","type":"address[]","internalType":"address[]"},{"name":"values","type":"uint256[]","internalType":"uint256[]"},{"name":"calldatas","type":"bytes[]","internalType":"bytes[]"},{"name":"descriptionHash","type":"bytes32","internalType":"bytes32"}],"outputs":[{"name":"","type":"uint256","internalType":"uint256"}],"stateMutability":"nonpayable"},{"type":"function","name":"castVote","inputs":[{"name":"proposalId","type":"uint256","internalType":"uint256"},{"name":"support","type":"uint8","internalType":"uint8"}],"outputs":[{"name":"","type":"uint256","internalType":"uint256"}],"stateMutability":"nonpayable"},{"type":"function","name":"castVoteBySig","inputs":[{"name":"proposalId","type":"uint256","internalType":"uint256"},{"name":"support","type":"uint8","internalType":"uint8"},{"name":"voter","type":"address","internalType":"address"},{"name":"signature","type":"bytes","internalType":"bytes"}],"outputs":[{"name":"","type":"uint256","internalType":"uint256"}],"stateMutability":"nonpayable"},{"type":"function","name":"castVoteWithReason","inputs":[{"name":"proposalId","type":"uint256","internalType":"uint256"},{"name":"support","type":"uint8","internalType":"uint8"},{"name":"reason","type":"string","internalType":"string"}],"outputs":[{"name":"","type":"uint256","internalType":"uint256"}],"stateMutability":"nonpayable"},{"type":"function","name":"castVoteWithReasonAndParams","inputs":[{"name":"proposalId","type":"uint256","internalType":"uint256"},{"name":"support","type":"uint8","internalType":"uint8"},{"name":"reason","type":"string","internalType":"string"},{"name":"params","type":"bytes","internalType":"bytes"}],"outputs":[{"name":"","type":"uint256","internalType":"uint256"}],"stateMutability":"nonpayable"},{"type":"function","name":"castVoteWithReasonAndParamsBySig","inputs":[{"name":"proposalId","type":"uint256","internalType":"uint256"},{"name":"support","type":"uint8","internalType":"uint8"},{"name":"voter","type":"address","internalType":"address"},{"name":"reason","type":"string","internalType":"string"},{"name":"params","type":"bytes","internalType":"bytes"},{"name":"signature","type":"bytes","internalType":"bytes"}],"outputs":[{"name":"","type":"uint256","internalType":"uint256"}],"stateMutability":"nonpayable"},{"type":"function","name":"clock","inputs":[],"outputs":[{"name":"","type":"uint48","internalType":"uint48"}],"stateMutability":"view"},{"type":"function","name":"eip712Domain","inputs":[],"outputs":[{"name":"fields","type":"bytes1","internalType":"bytes1"},{"name":"name","type":"string","internalType":"string"},{"name":"version","type":"string","internalType":"string"},{"name":"chainId","type":"uint256","internalType":"uint256"},{"name":"verifyingContract","type":"address","internalType":"address"},{"name":"salt","type":"bytes32","internalType":"bytes32"},{"name":"extensions","type":"uint256[]","internalType":"uint256[]"}],"stateMutability":"view"},{"type":"function","name":"execute","inputs":[{"name":"targets","type":"address[]","internalType":"address[]"},{"name":"values","type":"uint256[]","internalType":"uint256[]"},{"name":"calldatas","type":"bytes[]","internalType":"bytes[]"},{"name":"descriptionHash","type":"bytes32","internalType":"bytes32"}],"outputs":[{"name":"","type":"uint256","internalType":"uint256"}],"stateMutability":"payable"},{"type":"function","name":"execute","inputs":[{"name":"proposalId","type":"uint256","internalType":"uint256"}],"outputs":[],"stateMutability":"payable"},{"type":"function","name":"getVotes","inputs":[{"name":"account","type":"address","internalType":"address"},{"name":"timepoint","type":"uint256","internalType":"uint256"}],"outputs":[{"name":"","type":"uint256","internalType":"uint256"}],"stateMutability":"view"},{"type":"function","name":"getVotesWithParams","inputs":[{"name":"account","type":"address","internalType":"address"},{"name":"timepoint","type":"uint256","internalType":"uint256"},{"name":"params","type":"bytes","internalType":"bytes"}],"outputs":[{"name":"","type":"uint256","internalType":"uint256"}],"stateMutability":"view"},{"type":"function","name":"hasVoted","inputs":[{"name":"proposalId","type":"uint256","internalType":"uint256"},{"name":"account","type":"address","internalType":"address"}],"outputs":[{"name":"","type":"bool","internalType":"bool"}],"stateMutability":"view"},{"type":"function","name":"hashProposal","inputs":[{"name":"targets","type":"address[]","internalType":"address[]"},{"name":"values","type":"uint256[]","internalType":"uint256[]"},{"name":"calldatas","type":"bytes[]","internalType":"bytes[]"},{"name":"descriptionHash","type":"bytes32","internalType":"bytes32"}],"outputs":[{"name":"","type":"uint256","internalType":"uint256"}],"stateMutability":"pure"},{"type":"function","name":"name","inputs":[],"outputs":[{"name":"","type":"string","internalType":"string"}],"stateMutability":"view"},{"type":"function","name":"nonces","inputs":[{"name":"owner","type":"address","internalType":"address"}],"outputs":[{"name":"","type":"uint256","internalType":"uint256"}],"stateMutability":"view"},{"type":"function","name":"onERC1155BatchReceived","inputs":[{"name":"","type":"address","internalType":"address"},{"name":"","type":"address","internalType":"address"},{"name":"","type":"uint256[]","internalType":"uint256[]"},{"name":"","type":"uint256[]","internalType":"uint256[]"},{"name":"","type":"bytes","internalType":"bytes"}],"outputs":[{"name":"","type":"bytes4","internalType":"bytes4"}],"stateMutability":"nonpayable"},{"type":"function","name":"onERC1155Received","inputs":[{"name":"","type":"address","internalType":"address"},{"name":"","type":"address","internalType":"address"},{"name":"","type":"uint256","internalType":"uint256"},{"name":"","type":"uint256","internalType":"uint256"},{"name":"","type":"bytes","internalType":"bytes"}],"outputs":[{"name":"","type":"bytes4","internalType":"bytes4"}],"stateMutability":"nonpayable"},{"type":"function","name":"onERC721Received","inputs":[{"name":"","type":"address","internalType":"address"},{"name":"","type":"address","internalType":"address"},{"name":"","type":"uint256","internalType":"uint256"},{"name":"","type":"bytes","internalType":"bytes"}],"outputs":[{"name":"","type":"bytes4","internalType":"bytes4"}],"stateMutability":"nonpayable"},{"type":"function","name":"proposalCount","inputs":[],"outputs":[{"name":"","type":"uint256","internalType":"uint256"}],"stateMutability":"view"},{"type":"function","name":"proposalDeadline","inputs":[{"name":"proposalId","type":"uint256","internalType":"uint256"}],"outputs":[{"name":"","type":"uint256","internalType":"uint256"}],"stateMutability":"view"},{"type":"function","name":"proposalDetails","inputs":[{"name":"proposalId","type":"uint256","internalType":"uint256"}],"outputs":[{"name":"","type":"address[]","internalType":"address[]"},{"name":"","type":"uint256[]","internalType":"uint256[]"},{"name":"","type":"bytes[]","internalType":"bytes[]"},{"name":"","type":"bytes32","internalType":"bytes32"}],"stateMutability":"view"},{"type":"function","name":"proposalDetailsAt","inputs":[{"name":"index","type":"uint256","internalType":"uint256"}],"outputs":[{"name":"","type":"uint256","internalType":"uint256"},{"name":"","type":"address[]","internalType":"address[]"},{"name":"","type":"uint256[]","internalType":"uint256[]"},{"name":"","type":"bytes[]","internalType":"bytes[]"},{"name":"","type":"bytes32","internalType":"bytes32"}],"stateMutability":"view"},{"type":"function","name":"proposalEta","inputs":[{"name":"proposalId","type":"uint256","internalType":"uint256"}],"outputs":[{"name":"","type":"uint256","internalType":"uint256"}],"stateMutability":"view"},{"type":"function","name":"proposalNeedsQueuing","inputs":[{"name":"","type":"uint256","internalType":"uint256"}],"outputs":[{"name":"","type":"bool","internalType":"bool"}],"stateMutability":"view"},{"type":"function","name":"proposalProposer","inputs":[{"name":"proposalId","type":"uint256","internalType":"uint256"}],"outputs":[{"name":"","type":"address","internalType":"address"}],"stateMutability":"view"},{"type":"function","name":"proposalSnapshot","inputs":[{"name":"proposalId","type":"uint256","internalType":"uint256"}],"outputs":[{"name":"","type":"uint256","internalType":"uint256"}],"stateMutability":"view"},{"type":"function","name":"proposalThreshold","inputs":[],"outputs":[{"name":"","type":"uint256","internalType":"uint256"}],"stateMutability":"view"},{"type":"function","name":"proposalVotes","inputs":[{"name":"proposalId","type":"uint256","internalType":"uint256"}],"outputs":[{"name":"againstVotes","type":"uint256","internalType":"uint256"},{"name":"forVotes","type":"uint256","internalType":"uint256"},{"name":"abstainVotes","type":"uint256","internalType":"uint256"}],"stateMutability":"view"},{"type":"function","name":"propose","inputs":[{"name":"targets","type":"address[]","internalType":"address[]"},{"name":"values","type":"uint256[]","internalType":"uint256[]"},{"name":"calldatas","type":"bytes[]","internalType":"bytes[]"},{"name":"description","type":"string","internalType":"string"}],"outputs":[{"name":"","type":"uint256","internalType":"uint256"}],"stateMutability":"nonpayable"},{"type":"function","name":"queue","inputs":[{"name":"targets","type":"address[]","internalType":"address[]"},{"name":"values","type":"uint256[]","internalType":"uint256[]"},{"name":"calldatas","type":"bytes[]","internalType":"bytes[]"},{"name":"descriptionHash","type":"bytes32","internalType":"bytes32"}],"outputs":[{"name":"","type":"uint256","internalType":"uint256"}],"stateMutability":"nonpayable"},{"type":"function","name":"queue","inputs":[{"name":"proposalId","type":"uint256","internalType":"uint256"}],"outputs":[],"stateMutability":"nonpayable"},{"type":"function","name":"quorum","inputs":[{"name":"blockNumber","type":"uint256","internalType":"uint256"}],"outputs":[{"name":"","type":"uint256","internalType":"uint256"}],"stateMutability":"view"},{"type":"function","name":"quorumDenominator","inputs":[],"outputs":[{"name":"","type":"uint256","internalType":"uint256"}],"stateMutability":"pure"},{"type":"function","name":"quorumNumerator","inputs":[{"name":"timepoint","type":"uint256","internalType":"uint256"}],"outputs":[{"name":"","type":"uint256","internalType":"uint256"}],"stateMutability":"view"},{"type":"function","name":"quorumNumerator","inputs":[],"outputs":[{"name":"","type":"uint256","internalType":"uint256"}],"stateMutability":"view"},{"type":"function","name":"relay","inputs":[{"name":"target","type":"address","internalType":"address"},{"name":"value","type":"uint256","internalType":"uint256"},{"name":"data","type":"bytes","internalType":"bytes"}],"outputs":[],"stateMutability":"payable"},{"type":"function","name":"setProposalThreshold","inputs":[{"name":"newProposalThreshold","type":"uint256","internalType":"uint256"}],"outputs":[],"stateMutability":"nonpayable"},{"type":"function","name":"setVotingDelay","inputs":[{"name":"newVotingDelay","type":"uint48","internalType":"uint48"}],"outputs":[],"stateMutability":"nonpayable"},{"type":"function","name":"setVotingPeriod","inputs":[{"name":"newVotingPeriod","type":"uint32","internalType":"uint32"}],"outputs":[],"stateMutability":"nonpayable"},{"type":"function","name":"state","inputs":[{"name":"proposalId","type":"uint256","internalType":"uint256"}],"outputs":[{"name":"","type":"uint8","internalType":"enum IGovernor.ProposalState"}],"stateMutability":"view"},{"type":"function","name":"supportsInterface","inputs":[{"name":"interfaceId","type":"bytes4","internalType":"bytes4"}],"outputs":[{"name":"","type":"bool","internalType":"bool"}],"stateMutability":"view"},{"type":"function","name":"token","inputs":[],"outputs":[{"name":"","type":"address","internalType":"contract IERC5805"}],"stateMutability":"view"},{"type":"function","name":"updateQuorumNumerator","inputs":[{"name":"newQuorumNumerator","type":"uint256","internalType":"uint256"}],"outputs":[],"stateMutability":"nonpayable"},{"type":"function","name":"version","inputs":[],"outputs":[{"name":"","type":"string","internalType":"string"}],"stateMutability":"view"},{"type":"function","name":"votingDelay","inputs":[],"outputs":[{"name":"","type":"uint256","internalType":"uint256"}],"stateMutability":"view"},{"type":"function","name":"votingPeriod","inputs":[],"outputs":[{"name":"","type":"uint256","internalType":"uint256"}],"stateMutability":"view"},{"type":"event","name":"EIP712DomainChanged","inputs":[],"anonymous":false},{"type":"event","name":"ProposalCanceled","inputs":[{"name":"proposalId","type":"uint256","indexed":false,"internalType":"uint256"}],"anonymous":false},{"type":"event","name":"ProposalCreated","inputs":[{"name":"proposalId","type":"uint256","indexed":false,"internalType":"uint256"},{"name":"proposer","type":"address","indexed":false,"internalType":"address"},{"name":"targets","type":"address[]","indexed":false,"internalType":"address[]"},{"name":"values","type":"uint256[]","indexed":false,"internalType":"uint256[]"},{"name":"signatures","type":"string[]","indexed":false,"internalType":"string[]"},{"name":"calldatas","type":"bytes[]","indexed":false,"internalType":"bytes[]"},{"name":"voteStart","type":"uint256","indexed":false,"internalType":"uint256"},{"name":"voteEnd","type":"uint256","indexed":false,"internalType":"uint256"},{"name":"description","type":"string","indexed":false,"internalType":"string"}],"anonymous":false},{"type":"event","name":"ProposalExecuted","inputs":[{"name":"proposalId","type":"uint256","indexed":false,"internalType":"uint256"}],"anonymous":false},{"type":"event","name":"ProposalQueued","inputs":[{"name":"proposalId","type":"uint256","indexed":false,"internalType":"uint256"},{"name":"etaSeconds","type":"uint256","indexed":false,"internalType":"uint256"}],"anonymous":false},{"type":"event","name":"ProposalThresholdSet","inputs":[{"name":"oldProposalThreshold","type":"uint256","indexed":false,"internalType":"uint256"},{"name":"newProposalThreshold","type":"uint256","indexed":false,"internalType":"uint256"}],"anonymous":false},{"type":"event","name":"QuorumNumeratorUpdated","inputs":[{"name":"oldQuorumNumerator","type":"uint256","indexed":false,"internalType":"uint256"},{"name":"newQuorumNumerator","type":"uint256","indexed":false,"internalType":"uint256"}],"anonymous":false},{"type":"event","name":"VoteCast","inputs":[{"name":"voter","type":"address","indexed":true,"internalType":"address"},{"name":"proposalId","type":"uint256","indexed":false,"internalType":"uint256"},{"name":"support","type":"uint8","indexed":false,"internalType":"uint8"},{"name":"weight","type":"uint256","indexed":false,"internalType":"uint256"},{"name":"reason","type":"string","indexed":false,"internalType":"string"}],"anonymous":false},{"type":"event","name":"VoteCastWithParams","inputs":[{"name":"voter","type":"address","indexed":true,"internalType":"address"},{"name":"proposalId","type":"uint256","indexed":false,"internalType":"uint256"},{"name":"support","type":"uint8","indexed":false,"internalType":"uint8"},{"name":"weight","type":"uint256","indexed":false,"internalType":"uint256"},{"name":"reason","type":"string","indexed":false,"internalType":"string"},{"name":"params","type":"bytes","indexed":false,"internalType":"bytes"}],"anonymous":false},{"type":"event","name":"VotingDelaySet","inputs":[{"name":"oldVotingDelay","type":"uint256","indexed":false,"internalType":"uint256"},{"name":"newVotingDelay","type":"uint256","indexed":false,"internalType":"uint256"}],"anonymous":false},{"type":"event","name":"VotingPeriodSet","inputs":[{"name":"oldVotingPeriod","type":"uint256","indexed":false,"internalType":"uint256"},{"name":"newVotingPeriod","type":"uint256","indexed":false,"internalType":"uint256"}],"anonymous":false},{"type":"error","name":"CheckpointUnorderedInsertion","inputs":[]},{"type":"error","name":"FailedInnerCall","inputs":[]},{"type":"error","name":"GovernorAlreadyCastVote","inputs":[{"name":"voter","type":"address","internalType":"address"}]},{"type":"error","name":"GovernorAlreadyQueuedProposal","inputs":[{"name":"proposalId","type":"uint256","internalType":"uint256"}]},{"type":"error","name":"GovernorDisabledDeposit","inputs":[]},{"type":"error","name":"GovernorInsufficientProposerVotes","inputs":[{"name":"proposer","type":"address","internalType":"address"},{"name":"votes","type":"uint256","internalType":"uint256"},{"name":"threshold","type":"uint256","internalType":"uint256"}]},{"type":"error","name":"GovernorInvalidProposalLength","inputs":[{"name":"targets","type":"uint256","internalType":"uint256"},{"name":"calldatas","type":"uint256","internalType":"uint256"},{"name":"values","type":"uint256","internalType":"uint256"}]},{"type":"error","name":"GovernorInvalidQuorumFraction","inputs":[{"name":"quorumNumerator","type":"uint256","internalType":"uint256"},{"name":"quorumDenominator","type":"uint256","internalType":"uint256"}]},{"type":"error","name":"GovernorInvalidSignature","inputs":[{"name":"voter","type":"address","internalType":"address"}]},{"type":"error","name":"GovernorInvalidVoteType","inputs":[]},{"type":"error","name":"GovernorInvalidVotingPeriod","inputs":[{"name":"votingPeriod","type":"uint256","internalType":"uint256"}]},{"type":"error","name":"GovernorNonexistentProposal","inputs":[{"name":"proposalId","type":"uint256","internalType":"uint256"}]},{"type":"error","name":"GovernorNotQueuedProposal","inputs":[{"name":"proposalId","type":"uint256","internalType":"uint256"}]},{"type":"error","name":"GovernorOnlyExecutor","inputs":[{"name":"account","type":"address","internalType":"address"}]},{"type":"error","name":"GovernorOnlyProposer","inputs":[{"name":"account","type":"address","internalType":"address"}]},{"type":"error","name":"GovernorQueueNotImplemented","inputs":[]},{"type":"error","name":"GovernorRestrictedProposer","inputs":[{"name":"proposer","type":"address","internalType":"address"}]},{"type":"error","name":"GovernorUnexpectedProposalState","inputs":[{"name":"proposalId","type":"uint256","internalType":"uint256"},{"name":"current","type":"uint8","internalType":"enum IGovernor.ProposalState"},{"name":"expectedStates","type":"bytes32","internalType":"bytes32"}]},{"type":"error","name":"InvalidAccountNonce","inputs":[{"name":"account","type":"address","internalType":"address"},{"name":"currentNonce","type":"uint256","internalType":"uint256"}]},{"type":"error","name":"InvalidShortString","inputs":[]},{"type":"error","name":"QueueEmpty","inputs":[]},{"type":"error","name":"QueueFull","inputs":[]},{"type":"error","name":"SafeCastOverflowedUintDowncast","inputs":[{"name":"bits","type":"uint8","internalType":"uint8"},{"name":"value","type":"uint256","internalType":"uint256"}]},{"type":"error","name":"StringTooLong","inputs":[{"name":"str","type":"string","internalType":"string"}]}],"bytecode":{"object":"0x610180604052346100b15761001e610015610115565b939290926101a9565b604051613acf9081610af4823960805181612c25015260a05181612cdc015260c05181612bef015260e05181612c7401526101005181612c9a0152610120518161111b0152610140518161114701526101605181818161139e015281816117e201528181611900015281816119a00152818161201101528181612344015281816126ce015281816129400152612ab50152f35b5f80fd5b634e487b7160e01b5f52604160045260245ffd5b601f909101601f19168101906001600160401b038211908210176100ec57604052565b6100b5565b604051906101006040836100c9565b565b519065ffffffffffff821682036100b157565b6145e39060a0823803928360405194859261013082856100c9565b8339810103126100b1578151916001600160a01b03831683036100b15761015960208201610102565b9260408201519263ffffffff841684036100b15760806060840151930151919493929190565b6040519061018e6040836100c9565b600f8252565b604051906101a36040836100c9565b60018252565b919261028c6101009594610287610291946102826101c561017f565b602081016e159a5c9d1d585b141c9bdd1bd8dbdb608a1b81526101e6610194565b906020820190603160f81b82526101fc846105e0565b61012052610209836106d0565b6101405283519020918260e05251902080610100524660a0526040519060208201927f8b73c3c69bb8fe3d512ecc4cf759cc79239f7b179b0ffacaa9a75d522b39400f8452604083015260608201524660808201523060a082015260a0815261027360c0826100c9565b5190206080523060c05261032a565b6104d9565b610526565b6105a7565b6001600160a01b03166101605261040f565b90600182811c921680156102d1575b60208310146102bd57565b634e487b7160e01b5f52602260045260245ffd5b91607f16916102b2565b601f82116102e857505050565b5f5260205f20906020601f840160051c83019310610320575b601f0160051c01905b818110610315575050565b5f815560010161030a565b9091508190610301565b80519091906001600160401b0381116100ec576103538161034c6003546102a3565b60036102db565b602092601f821160011461039357610383929382915f92610388575b50508160011b915f199060031b1c19161790565b600355565b015190505f8061036f565b60035f52601f198216937fc2575a0e9e593c00f959f8c92f12db2869c3395a3b0502d05e2516446f71f85b915f5b8681106103f757508360019596106103df575b505050811b01600355565b01515f1960f88460031b161c191690555f80806103d4565b919260206001819286850151815501940192016103c1565b61271081116104c157600c549081610461575f805160206145c383398151915291505f5b61044d61043e6107c2565b61044784610864565b906109ab565b5050604080519182526020820192909252a1565b815f198101116104ad57600c5f527fdf6966c971051c3d54ec59162606531493a51404a002842f56009d7e5cf4a8c691909101545f805160206145c3833981519152919060301c610433565b634e487b7160e01b5f52601160045260245ffd5b63243e544560e01b5f5260045261271060245260445ffd5b6008547fc565b045403dc03c2eea82b81a0465edad9e2e7fc4d97e11421c209da93d7a93604065ffffffffffff81519481851686521693846020820152a165ffffffffffff191617600855565b63ffffffff81169081156105945769ffffffff000000000000907f7e3f7f0708a84de9203036abaa450dccc85ad5ff52f78c170f3edb55cf5e882860406008549481519063ffffffff8760301c1682526020820152a160301b169069ffffffff000000000000191617600855565b63f1cfbf0560e01b5f525f60045260245ffd5b60075460408051918252602082018390527fccb45da8d5717e6c4544694297c4ba5cf151d455c9bb0ed4fc7a38411bc0546191a1600755565b908151602081105f146105fb5750906105f890610895565b90565b6001600160401b0381116100ec5761061d816106175f546102a3565b5f6102db565b602092601f82116001146106535761064c929382915f926103885750508160011b915f199060031b1c19161790565b5f5560ff90565b5f8052601f198216937f290decd9548b62a8d60345a988386fc84ba6bc95484008f6362f93160ef3e563915f5b8681106106b857508360019596106106a0575b505050811b015f5560ff90565b01515f1960f88460031b161c191690555f8080610693565b91926020600181928685015181550194019201610680565b908151602081105f146106e85750906105f890610895565b6001600160401b0381116100ec5761070c816107056001546102a3565b60016102db565b602092601f82116001146107435761073b929382915f926103885750508160011b915f199060031b1c19161790565b60015560ff90565b60015f52601f198216937fb10e2d527612073b26eecdfd717e6a320cf44b4afac2b0732d9fcbe2b7fa0cf6915f5b8681106107aa5750836001959610610792575b505050811b0160015560ff90565b01515f1960f88460031b161c191690555f8080610784565b91926020600181928685015181550194019201610771565b610160516040516324776b7d60e21b815290602090829060049082906001600160a01b03165afa5f9181610828575b506105f8575065ffffffffffff43116108105765ffffffffffff431690565b6306dfcc6560e41b5f5260306004524360245260445ffd5b9091506020813d60201161085c575b81610844602093836100c9565b810103126100b15761085590610102565b905f6107f1565b3d9150610837565b6001600160d01b03811161087e576001600160d01b031690565b6306dfcc6560e41b5f5260d060045260245260445ffd5b601f8151116108c05760208151910151602082106108b1571790565b5f198260200360031b1b161790565b604460209160405192839163305a27a960e01b83528160048401528051918291826024860152018484015e5f828201840152601f01601f19168101030190fd5b5f198101919082116104ad57565b908154680100000000000000008110156100ec5760018101808455811015610961575f9283526020928390208251929093015160301b65ffffffffffff191665ffffffffffff9290921691909117910155565b634e487b7160e01b5f52603260045260245ffd5b604080519192919081016001600160401b038111828210176100ec57604052915465ffffffffffff8116835260301c6020830152565b600c54919291908115610aca57816109fd6109f86109cf65ffffffffffff95610900565b600c5f527fdf6966c971051c3d54ec59162606531493a51404a002842f56009d7e5cf4a8c70190565b610975565b90610a0e825165ffffffffffff1690565b8484169485911611610abb5785602093610a7c95610a40610a35865165ffffffffffff1690565b65ffffffffffff1690565b03610a805750610a556109cf610a6e93610900565b9065ffffffffffff82549181199060301b169116179055565b01516001600160d01b031690565b9190565b9050610ab69150610aa0610a926100f1565b65ffffffffffff9092168252565b6001600160d01b038716818501525b600c61090e565b610a6e565b632520601d60e01b5f5260045ffd5b610aee9150610ada610a926100f1565b6001600160d01b0384166020820152610aaf565b5f919056fe6080604052600436101561001a575b3615610018575f80fd5b005b5f3560e01c806301ffc9a71461035957806302a251a31461035457806306f3f9e61461034f57806306fdde031461034a578063143489d014610345578063150b7a0214610340578063160cbed71461033b57806316e9eaec146103365780632656227d146103315780632d63f6931461032c5780632e82db94146103275780632fe3e261146103225780633932abb11461031d5780633e4f49e61461031857806340e58ee514610313578063438596321461030e578063452115d6146103095780634bf5d7e914610304578063544ffc9c146102ff57806354fd4d50146102fa57806356781388146102f55780635b8d0e0d146102f05780635f398a14146102eb57806360c4247f146102e657806379051887146102e15780637b3c71d3146102dc5780637d5e81e2146102d75780637ecebe00146102d257806384b0196e146102cd5780638ff262e3146102c857806391ddadf4146102c357806397c3d334146102be5780639a802a6d146102b9578063a7713a70146102b4578063a9a95294146102af578063ab58fb8e146102aa578063b58131b0146102a5578063bc197c81146102a0578063c01f9e371461029b578063c28bc2fa14610296578063c59057e414610291578063da35c6641461028c578063dd4e2ba514610287578063ddf0b00914610282578063deaaa7cc1461027d578063e540d01d14610278578063eb9019d414610273578063ece40cc11461026e578063f23a6e6114610269578063f8ce560a14610264578063fc0c546a1461025f5763fe0d94c10361000e576119cf565b61198b565b6118cf565b61187a565b611825565b611784565b6116de565b6116a4565b61165e565b6115ff565b6115e2565b6115c6565b61155f565b611541565b6114ac565b61148f565b61145c565b611441565b611416565b611330565b611314565b6112ea565b6111d3565b611103565b6110cb565b61101d565b610fc8565b610f56565b610f28565b610ea8565b610e06565b610da0565b610d4d565b610d0c565b610cdd565b610cc1565b610c6f565b610c1f565b610bf0565b610ba4565b610b6a565b610ac9565b610a94565b610a75565b610a46565b610929565b610705565b6105cb565b6104f1565b6103f1565b6103cb565b346103c75760203660031901126103c75760043563ffffffff60e01b81168091036103c7576020906332a2ad4360e11b81149081156103b6575b81156103a5575b506040519015158152f35b6301ffc9a760e01b1490505f61039a565b630271189760e51b81149150610393565b5f80fd5b346103c7575f3660031901126103c757602063ffffffff60085460301c16604051908152f35b346103c75760203660031901126103c75760043561040d612466565b61271081116104a1576001600160d01b03610426612b64565b169061043061232f565b916001600160d01b038211610489577f0553476bf02ef2726e8ce5ced78d63e26e602e4a2257b1f559418e24b463399792610475906001600160d01b038416906131e2565b5050604080519182526020820192909252a1005b506306dfcc6560e41b5f5260d060045260245260445ffd5b63243e544560e01b5f5260045261271060245260445ffd5b805180835260209291819084018484015e5f828201840152601f01601f1916010190565b9060206104ee9281815201906104b9565b90565b346103c7575f3660031901126103c7576040515f60035461051181611a13565b80845290600181169081156105a75750600114610549575b6105458361053981850382610653565b604051918291826104dd565b0390f35b60035f9081527fc2575a0e9e593c00f959f8c92f12db2869c3395a3b0502d05e2516446f71f85b939250905b80821061058d57509091508101602001610539610529565b919260018160209254838588010152019101909291610575565b60ff191660208086019190915291151560051b840190910191506105399050610529565b346103c75760203660031901126103c7576004355f526004602052602060018060a01b0360405f205416604051908152f35b600435906001600160a01b03821682036103c757565b602435906001600160a01b03821682036103c757565b604435906001600160a01b03821682036103c757565b634e487b7160e01b5f52604160045260245ffd5b90601f801991011681019081106001600160401b0382111761067457604052565b61063f565b60405190610688604083610653565b565b60405190610688608083610653565b6001600160401b03811161067457601f01601f191660200190565b9291926106c082610699565b916106ce6040519384610653565b8294818452818301116103c7578281602093845f960137010152565b9080601f830112156103c7578160206104ee933591016106b4565b346103c75760803660031901126103c75761071e6105fd565b50610727610613565b506064356001600160401b0381116103c7576107479036906004016106ea565b50604051630a85bd0160e11b8152602090f35b6001600160401b0381116106745760051b60200190565b9080601f830112156103c7578135906107898261075a565b926107976040519485610653565b82845260208085019360051b8201019182116103c757602001915b8183106107bf5750505090565b82356001600160a01b03811681036103c7578152602092830192016107b2565b9080601f830112156103c75781356107f68161075a565b926108046040519485610653565b81845260208085019260051b8201019283116103c757602001905b82821061082c5750505090565b813581526020918201910161081f565b9080601f830112156103c75781356108538161075a565b926108616040519485610653565b81845260208085019260051b820101918383116103c75760208201905b83821061088d57505050505090565b81356001600160401b0381116103c7576020916108af878480948801016106ea565b81520191019061087e565b60806003198201126103c7576004356001600160401b0381116103c757816108e491600401610771565b916024356001600160401b0381116103c75782610903916004016107df565b91604435906001600160401b0382116103c7576109229160040161083c565b9060643590565b346103c757610937366108ba565b92919091611acc565b90602080835192838152019201905f5b81811061095d5750505090565b82516001600160a01b0316845260209384019390920191600101610950565b90602080835192838152019201905f5b8181106109995750505090565b825184526020938401939092019160010161098c565b9080602083519182815201916020808360051b8301019401925f915b8383106109da57505050505090565b90919293946020806109f8600193601f1986820301875289516104b9565b970193019301919392906109cb565b949392610a33606093610a25610a419460808a5260808a0190610940565b9088820360208a015261097c565b9086820360408801526109af565b930152565b346103c75760203660031901126103c757610545610a65600435611bed565b9060409492945194859485610a07565b6020610a8c610a83366108ba565b92919091611ca5565b604051908152f35b346103c75760203660031901126103c7576004355f526004602052602065ffffffffffff60405f205460a01c16604051908152f35b346103c75760203660031901126103c757600435600954811015610b6557610b4d9060095f527f6e1540171b6c0c960b71a7020d9f60077f6af931a8bbf590da0223dacf75c7af0154610b5b610b1e82611bed565b9392959091610b3f604051978897885260a0602089015260a0880190610940565b90868203604088015261097c565b9084820360608601526109af565b9060808301520390f35b611c7d565b346103c7575f3660031901126103c75760206040517f3e83946653575f9a39005e1545185629e92736b7528ab20ca3816f315424a8118152f35b346103c7575f3660031901126103c757602065ffffffffffff60085416604051908152f35b634e487b7160e01b5f52602160045260245ffd5b6008811015610beb57602452565b610bc9565b346103c75760203660031901126103c757610c0c600435611dd4565b6040516008821015610beb576020918152f35b346103c75760203660031901126103c7576004355f52600a60205261001860405f20600381015490610c5081611af0565b90610c696002610c6260018401611b41565b9201611b89565b91611eee565b346103c75760403660031901126103c757602060ff610cb5600435610c92610613565b905f52600b8452600360405f20019060018060a01b03165f5260205260405f2090565b54166040519015158152f35b346103c7576020610a8c610cd4366108ba565b92919091611eee565b346103c7575f3660031901126103c757610545610cf8611ffd565b6040519182916020835260208301906104b9565b346103c75760203660031901126103c7576004355f52600b602052606060405f20805490600260018201549101549060405192835260208301526040820152f35b346103c7575f3660031901126103c757610545604051610d6e604082610653565b60018152603160f81b60208201526040519182916020835260208301906104b9565b6024359060ff821682036103c757565b346103c75760403660031901126103c7576020610a8c600435610dc1610d90565b60405191610dcf8584610653565b5f8352339061275d565b9181601f840112156103c7578235916001600160401b0383116103c757602083818601950101116103c757565b346103c75760c03660031901126103c757600435610e22610d90565b90610e2b610629565b906064356001600160401b0381116103c757610e4b903690600401610dd9565b6084356001600160401b0381116103c757610e6a9036906004016106ea565b9160a435946001600160401b0386116103c75761054596610e92610e989736906004016106ea565b956120cc565b6040519081529081906020820190565b346103c75760803660031901126103c757600435610ec4610d90565b906044356001600160401b0381116103c757610ee4903690600401610dd9565b9190926064356001600160401b0381116103c757610f1d94610f0d610f159236906004016106ea565b9436916106b4565b9133906128d7565b604051908152602090f35b346103c75760203660031901126103c7576020610a8c6004356121ef565b65ffffffffffff8116036103c757565b346103c75760203660031901126103c757600435610f7381610f46565b610f7b612466565b6008547fc565b045403dc03c2eea82b81a0465edad9e2e7fc4d97e11421c209da93d7a93604065ffffffffffff81519481851686521693846020820152a165ffffffffffff191617600855005b346103c75760603660031901126103c757600435610fe4610d90565b90604435906001600160401b0382116103c75760209261101561100e610a8c943690600401610dd9565b36916106b4565b91339061275d565b346103c75760803660031901126103c7576004356001600160401b0381116103c75761104d903690600401610771565b6024356001600160401b0381116103c75761106c9036906004016107df565b906044356001600160401b0381116103c75761108c90369060040161083c565b90606435916001600160401b0383116103c757366023840112156103c757610545936110c5610e989436906024816004013591016106b4565b92612a45565b346103c75760203660031901126103c7576001600160a01b036110ec6105fd565b165f526002602052602060405f2054604051908152f35b346103c7575f3660031901126103c7576111a561113f7f00000000000000000000000000000000000000000000000000000000000000006130d2565b61054561116b7f000000000000000000000000000000000000000000000000000000000000000061312a565b6111b36040519161117d602084610653565b5f808452366020850137604051958695600f60f81b875260e0602088015260e08701906104b9565b9085820360408701526104b9565b904660608501523060808501525f60a085015283820360c085015261097c565b346103c75760803660031901126103c7576004356111ef610d90565b906111f8610629565b916064356001600160401b0381116103c7576112ac61121e6112b09236906004016106ea565b6001600160a01b0386165f9081526002602052604090208054600181019091556112a69060405160208101917ff2aad550cf55f045cb27e9c559f9889fdfb6e6cdaa032301d6ea397784ae51d7835288604083015260ff8816606083015260018060a01b038a16608083015260a082015260a0815261129e60c082610653565b51902061277a565b866127aa565b1590565b6112cb5790610e9891610545936112c5611fae565b9261275d565b6394ab6c0760e01b5f526001600160a01b03831660045260245ffd5b5ffd5b346103c7575f3660031901126103c757602061130461232f565b65ffffffffffff60405191168152f35b346103c7575f3660031901126103c75760206040516127108152f35b346103c75760603660031901126103c7576113496105fd565b6024356044356001600160401b0381116103c75761136b9036906004016106ea565b50604051630748d63560e31b81526001600160a01b039283166004820152602481019190915290602090829060449082907f0000000000000000000000000000000000000000000000000000000000000000165afa801561141157610545915f916113e2575b506040519081529081906020820190565b611404915060203d60201161140a575b6113fc8183610653565b810190612b55565b5f6113d1565b503d6113f2565b611fa3565b346103c7575f3660031901126103c75760206001600160d01b03611438612b64565b16604051908152f35b346103c75760203660031901126103c75760206040515f8152f35b346103c75760203660031901126103c7576020610a8c6004355f52600460205265ffffffffffff600160405f2001541690565b346103c7575f3660031901126103c7576020600754604051908152f35b346103c75760a03660031901126103c7576114c56105fd565b506114ce610613565b506044356001600160401b0381116103c7576114ee9036906004016107df565b506064356001600160401b0381116103c75761150e9036906004016107df565b506084356001600160401b0381116103c75761152e9036906004016106ea565b5060405163bc197c8160e01b8152602090f35b346103c75760203660031901126103c7576020610a8c6004356123c2565b60603660031901126103c7576115736105fd565b6024356044356001600160401b0381116103c757610018925f9261159c84933690600401610dd9565b91906115a6612466565b826040519384928337810185815203925af16115c0612409565b90612ba8565b346103c7576020610a8c6115d9366108ba565b92919091612438565b346103c7575f3660031901126103c7576020600954604051908152f35b346103c7575f3660031901126103c757610545604051611620604082610653565b602081527f737570706f72743d627261766f2671756f72756d3d666f722c6162737461696e60208201526040519182916020835260208301906104b9565b346103c75760203660031901126103c7576004355f52600a60205260405f2060038101549061168c81611af0565b9061169e6002610c6260018401611b41565b91611acc565b346103c7575f3660031901126103c75760206040517ff2aad550cf55f045cb27e9c559f9889fdfb6e6cdaa032301d6ea397784ae51d78152f35b346103c75760203660031901126103c75760043563ffffffff8116908181036103c757611709612466565b81156117715769ffffffff000000000000907f7e3f7f0708a84de9203036abaa450dccc85ad5ff52f78c170f3edb55cf5e882860406008549481519063ffffffff8760301c1682526020820152a160301b169069ffffffff0000000000001916176008555f80f35b63f1cfbf0560e01b5f525f60045260245ffd5b346103c75760403660031901126103c75761179d6105fd565b6024355f6040516117af602082610653565b52604051630748d63560e31b81526001600160a01b039283166004820152602481019190915290602090829060449082907f0000000000000000000000000000000000000000000000000000000000000000165afa801561141157610545915f916113e257506040519081529081906020820190565b346103c75760203660031901126103c757600435611841612466565b60075460408051918252602082018390527fccb45da8d5717e6c4544694297c4ba5cf151d455c9bb0ed4fc7a38411bc0546191a1600755005b346103c75760a03660031901126103c7576118936105fd565b5061189c610613565b506084356001600160401b0381116103c7576118bc9036906004016106ea565b5060405163f23a6e6160e01b8152602090f35b346103c75760203660031901126103c757600435604051632394e7a360e21b815260048101829052906020826024817f00000000000000000000000000000000000000000000000000000000000000006001600160a01b03165afa918215611411575f92611966575b50611942906121ef565b9081810291818304149015171561196157610545906127109004610e98565b6121be565b6119429192506119849060203d60201161140a576113fc8183610653565b9190611938565b346103c7575f3660031901126103c7576040517f00000000000000000000000000000000000000000000000000000000000000006001600160a01b03168152602090f35b60203660031901126103c7576004355f52600a60205261001860405f206003810154906119fb81611af0565b90611a0d6002610c6260018401611b41565b91611ca5565b90600182811c92168015611a41575b6020831014611a2d57565b634e487b7160e01b5f52602260045260245ffd5b91607f1691611a22565b5f9291815491611a5a83611a13565b8083529260018116908115611aaf5750600114611a7657505050565b5f9081526020812093945091925b838310611a95575060209250010190565b600181602092949394548385870101520191019190611a84565b915050602093945060ff929192191683830152151560051b010190565b91611ae09391611adb93612438565b6124ae565b50634844252360e11b5f5260045ffd5b90604051918281549182825260208201905f5260205f20925f5b818110611b1f57505061068892500383610653565b84546001600160a01b0316835260019485019487945060209093019201611b0a565b90604051918281549182825260208201905f5260205f20925f5b818110611b7057505061068892500383610653565b8454835260019485019487945060209093019201611b5b565b908154611b958161075a565b92611ba36040519485610653565b81845260208401905f5260205f205f915b838310611bc15750505050565b600160208192604051611bdf81611bd88189611a4b565b0382610653565b815201920192019190611bb4565b805f52600a60205260405f209160405190608082018281106001600160401b0382111761067457604052611c2084611af0565b8252611c2e60018501611b41565b91602081019283526003611c4460028701611b89565b9560408301968752015493606082019480865215611c6b5750519151935192519193929190565b636ad0607560e01b5f5260045260245ffd5b634e487b7160e01b5f52603260045260245ffd5b8051821015610b655760209160051b010190565b919092611cb490828585612438565b92602092611cc360308661256e565b50611cec611cd9865f52600460205260405f2090565b805460ff60f01b1916600160f01b179055565b5f935b5090611cfb929161260b565b80611d43575b611d3a575b6040518181527f712ae1383f79ac853f8d882153778e0260ef8f03b504e2866e0593e04d2b291f9080602081015b0390a190565b5f600555611d06565b50611d5f6112ac6005546001600160801b0381169060801c1490565b611d01565b8451811015611dc45760019030611d9a611d8e611d81848a611c91565b516001600160a01b031690565b6001600160a01b031690565b14611da6575b01611d64565b611dbf611db38289611c91565b518a81519101206125ac565b611da0565b5091955093909291611cfb611cef565b611de6815f52600460205260405f2090565b5460f881901c9060f01c60ff16611ee757611ee157611e2d611e22611e13835f52600460205260405f2090565b5460a01c65ffffffffffff1690565b65ffffffffffff1690565b8015611ecd57611e3e611e2261232f565b80911015611ec757611e4f826123c2565b10611e5a5750600190565b611e666112ac82612687565b8015611ea4575b15611e785750600390565b611e96905f52600460205265ffffffffffff600160405f2001541690565b611e9f57600490565b600590565b50611ec26112ac825f52600b60205260405f20600181015490541090565b611e6d565b50505f90565b636ad0607560e01b5f52600482905260245ffd5b50600290565b5050600790565b929190611efd83838387612438565b611f06816124ee565b505f908152600460205260409020546001600160a01b03163303611f9057611f2d93612438565b611f38603b8261256e565b50611f4b815f52600460205260405f2090565b80546001600160f81b0316600160f81b1790556040518181527f789cf55be980739dad1d0699b93b58e806b51c9d96619bfa8fe0a28abaa7b30c908060208101611d34565b63233d98e360e01b5f523360045260245ffd5b6040513d5f823e3d90fd5b60405190611fbd602083610653565b5f8252565b60405190611fd1604083610653565b601d82527f6d6f64653d626c6f636b6e756d6265722666726f6d3d64656661756c740000006020830152565b604051634bf5d7e960e01b81525f816004817f00000000000000000000000000000000000000000000000000000000000000006001600160a01b03165afa5f9181612051575b506104ee57506104ee611fc2565b9091503d805f833e6120638183610653565b8101906020818303126103c7578051906001600160401b0382116103c7570181601f820112156103c75780519061209982610699565b926120a76040519485610653565b828452602083830101116103c757815f9260208093018386015e83010152905f612043565b9390929196956112ac612187916121818a6121008160018060a01b03165f52600260205260405f2080549060018201905590565b61210b36888a6106b4565b602081519101208b5160208d0120906040519260208401947f3e83946653575f9a39005e1545185629e92736b7528ab20ca3816f315424a81186528d604086015260ff8d16606086015260018060a01b0316608085015260a084015260c083015260e082015260e0815261129e61010082610653565b8a6127aa565b6121a2576104ee95969161219c9136916106b4565b926128d7565b6394ab6c0760e01b5f526001600160a01b03871660045260245ffd5b634e487b7160e01b5f52601160045260245ffd5b5f1981019190821161196157565b60271981019190821161196157565b600c54905f19820182811161196157821115610b6557600c5f527fdf6966c971051c3d54ec59162606531493a51404a002842f56009d7e5cf4a8c68201548165ffffffffffff82161115612326575061224790612a16565b5f8291600584116122b5575b61225d9350612f91565b8061226757505f90565b6122a96122a26122796104ee936121d2565b600c5f527fdf6966c971051c3d54ec59162606531493a51404a002842f56009d7e5cf4a8c70190565b5460301c90565b6001600160d01b031690565b91926122c081612e1e565b81039081116119615761225d93600c5f5265ffffffffffff827fdf6966c971051c3d54ec59162606531493a51404a002842f56009d7e5cf4a8c701541665ffffffffffff8516105f14612314575091612253565b9291506123209061266c565b90612253565b91505060301c90565b6040516324776b7d60e21b81526020816004817f00000000000000000000000000000000000000000000000000000000000000006001600160a01b03165afa5f9181612385575b506104ee57506104ee43612a16565b9091506020813d6020116123ba575b816123a160209383610653565b810103126103c757516123b381610f46565b905f612376565b3d9150612394565b805f52600460205265ffffffffffff60405f205460a01c16905f52600460205263ffffffff60405f205460d01c160165ffffffffffff81116119615765ffffffffffff1690565b3d15612433573d9061241a82610699565b916124286040519384610653565b82523d5f602084013e565b606090565b929061245261246092604051948593602085019788610a07565b03601f198101835282610653565b51902090565b33300361246f57565b6347096e4760e01b5f523360045260245ffd5b6008811015610beb5760ff600191161b90565b600452606491906008811015610beb576024525f604452565b6124b781611dd4565b9060106124c383612482565b16156124cd575090565b6331b75e4d60e01b5f526004526124e49150610bdd565b601060445260645ffd5b6124f781611dd4565b90600161250383612482565b161561250d575090565b6331b75e4d60e01b5f526004526125249150610bdd565b600160445260645ffd5b61253781611dd4565b90600261254383612482565b161561254d575090565b6331b75e4d60e01b5f526004526125649150610bdd565b600260445260645ffd5b9061257882611dd4565b918161258384612482565b161561258e57505090565b6331b75e4d60e01b5f526004526125a482610bdd565b60445260645ffd5b600554908160801c6001600160801b036001820193166001600160801b038416146125fc575f52600660205260405f20556001600160801b036005549181199082199060801b1616911617600555565b638acb5f2760e01b5f5260045ffd5b9291925f5b81518110156126655760019061265e5f806001600160a01b036126338588611c91565b511661263f8589611c91565b519061264b868c611c91565b5191602083519301915af16115c0612409565b5001612610565b5050509050565b906001820180921161196157565b9190820180921161196157565b805f52600b60205260405f20905f52600460205265ffffffffffff60405f205460a01c1660405190632394e7a360e21b825280600483015260208260248160018060a01b037f0000000000000000000000000000000000000000000000000000000000000000165afa918215611411575f92612738575b50612708906121ef565b908181029181830414901517156119615761273390612710900491600260018201549101549061267a565b101590565b6127089192506127569060203d60201161140a576113fc8183610653565b91906126fe565b916104ee939160405193612772602086610653565b5f85526128d7565b604290612785612bec565b906040519161190160f01b8352600283015260228201522090565b60041115610beb57565b906127b58382612d02565b506127c2819592956127a0565b159384612861575b5083156127d8575b50505090565b5f9350906124526128108594936040519283916020830195630b135d3f60e11b875260248401526040604484015260648301906104b9565b51915afa61281c612409565b81612853575b81612831575b505f80806127d2565b90506020818051810103126103c75760200151630b135d3f60e11b145f612828565b905060208151101590612822565b6001600160a01b0384811691161493505f6127ca565b93909260ff6128a3936104ee97958752166020860152604085015260a0606085015260a08401906104b9565b9160808184039101526104b9565b909260ff6080936104ee96958452166020830152604082015281606082015201906104b9565b93929190936128e58161252e565b50805f52600460205265ffffffffffff61290c60405f2065ffffffffffff905460a01c1690565b169360405195630748d63560e31b875260018060a01b03811695866004890152602488015260208760448160018060a01b037f0000000000000000000000000000000000000000000000000000000000000000165afa968715611411575f976129ef575b50868461297d9285612d3c565b80516129bc57506129b67fb8e138887d0aa13bab447e82de9d5c1777041ecd21ca36ba824ff1e6c07ddda49386604051948594856128b1565b0390a290565b6129b6907fe2babfbac5889a709b63bb7f598b324e08bc5a4fb9ec647fb3cbc9ec07eb8712948760405195869586612877565b84975090612a0e61297d9260203d60201161140a576113fc8183610653565b975090612970565b65ffffffffffff8111612a2e5765ffffffffffff1690565b6306dfcc6560e41b5f52603060045260245260445ffd5b9193929093612a54823361301b565b15612b42575f1965ffffffffffff612a6a61232f565b16019465ffffffffffff8611611961575f604051612a89602082610653565b52604051630748d63560e31b815233600482015265ffffffffffff9690961660248701526020866044817f00000000000000000000000000000000000000000000000000000000000000006001600160a01b03165afa958615611411575f96612b21575b50600754808710612b0657506104ee9495503393613752565b636121770b60e11b5f5233600452602487905260445260645ffd5b612b3b91965060203d60201161140a576113fc8183610653565b945f612aed565b63d9b3955760e01b5f523360045260245ffd5b908160209103126103c7575190565b600c5480612b7157505f90565b805f1981011161196157600c5f527fdf6966c971051c3d54ec59162606531493a51404a002842f56009d7e5cf4a8c6015460301c90565b9091906106885750805115612bbf57805190602001fd5b630a12f52160e11b5f5260045ffd5b8115612bd8570490565b634e487b7160e01b5f52601260045260245ffd5b307f00000000000000000000000000000000000000000000000000000000000000006001600160a01b03161480612cd9575b15612c47577f000000000000000000000000000000000000000000000000000000000000000090565b60405160208101907f8b73c3c69bb8fe3d512ecc4cf759cc79239f7b179b0ffacaa9a75d522b39400f82527f000000000000000000000000000000000000000000000000000000000000000060408201527f000000000000000000000000000000000000000000000000000000000000000060608201524660808201523060a082015260a0815261246060c082610653565b507f00000000000000000000000000000000000000000000000000000000000000004614612c1e565b8151919060418303612d3257612d2b9250602082015190606060408401519301515f1a906132f6565b9192909190565b50505f9160029190565b612d5060ff915f52600b60205260405f2090565b92169060038214612e18576001600160a01b0381165f90815260038401602081905260409091205460ff16612dfc57612da991612d9c919060018060a01b03165f5260205260405f2090565b805460ff19166001179055565b80612dbf575090612dbb90825461267a565b9055565b60018103612dd757506001612dbb910191825461267a565b600203612ded576002612dbb910191825461267a565b6303599be160e11b5f5260045ffd5b6371c6af4960e01b5f526001600160a01b03821660045260245ffd5b50505050565b8015612f8c576104ee90612f22612f1b612f11612f07612efd612ef3612ee9612edf6001612ecd5f8b608081901c80612f7e575b5080612e61612ec39260401c90565b80612f71575b50612e728160201c90565b80612f64575b50612e838160101c90565b80612f57575b50612e948160081c90565b80612f4a575b50612ea58160041c90565b80612f3d575b50612eb68160021c90565b80612f30575b5060011c90565b612f285760011c90565b1b612ed8818b612bce565b0160011c90565b612ed8818a612bce565b612ed88189612bce565b612ed88188612bce565b612ed88187612bce565b612ed88186612bce565b612ed88185612bce565b8092612bce565b90613378565b820160011c90565b600291509201915f612ebc565b600491509201915f612eab565b600891509201915f612e9a565b601091509201915f612e89565b602091509201915f612e78565b604091509201915f612e67565b608092509050612ec3612e52565b505f90565b905b828110612f9f57505090565b90918082169080831860011c820180921161196157600c5f527fdf6966c971051c3d54ec59162606531493a51404a002842f56009d7e5cf4a8c782015465ffffffffffff9081169085161015612ff85750915b90612f93565b9291506130049061266c565b90612ff2565b908151811015610b65570160200190565b8151603481106130ca5760131981840101516001600160a01b0319166b1b91f1b211f2119351b859f160a31b016130ca57915f92613058816121e0565b915b818310613075575050506001600160a01b0391821691161490565b90919361309b613096613088878561300a565b516001600160f81b03191690565b61338a565b90156130bf5760019160ff9060041b6010600160a01b03169116179401919061305a565b505050505050600190565b505050600190565b60ff81146131185760ff811690601f821161310957604051916130f6604084610653565b6020808452838101919036833783525290565b632cd44ac360e21b5f5260045ffd5b506040516104ee81611bd8815f611a4b565b60ff811461314e5760ff811690601f821161310957604051916130f6604084610653565b506040516104ee81611bd8816001611a4b565b805490600160401b8210156106745760018201808255821015610b65575f9081526020902001815160209092015160301b65ffffffffffff191665ffffffffffff92909216919091179055565b90604051604081018181106001600160401b0382111761067457604052915465ffffffffffff8116835260301c6020830152565b600c549192919081156132cd578161320b61320661227965ffffffffffff956121d2565b6131ae565b9061321c825165ffffffffffff1690565b84841694859116116132be578560209361327f95613243611e22865165ffffffffffff1690565b036132835750613258612279613271936121d2565b9065ffffffffffff82549181199060301b169116179055565b01516001600160d01b031690565b9190565b90506132b991506132a3613295610679565b65ffffffffffff9092168252565b6001600160d01b038716818501525b600c613161565b613271565b632520601d60e01b5f5260045ffd5b6132f191506132dd613295610679565b6001600160d01b03841660208201526132b2565b5f9190565b91907f7fffffffffffffffffffffffffffffff5d576e7357a4501ddfe92f46681b20a0841161336d579160209360809260ff5f9560405194855216868401526040830152606082015282805260015afa15611411575f516001600160a01b0381161561336357905f905f90565b505f906001905f90565b5050505f9160039190565b9080821015613385575090565b905090565b60f81c9081602f10806133fd575b156133aa57600191602f190160ff1690565b81604010806133f3575b156133c6576001916036190160ff1690565b81606010806133e9575b156133e2576001916056190160ff1690565b5f91508190565b50606782106133d0565b50604782106133b4565b50603a8210613398565b600954600160401b8110156106745760018101600955600954811015610b655760095f527f6e1540171b6c0c960b71a7020d9f60077f6af931a8bbf590da0223dacf75c7af0155565b81811061345b575050565b5f8155600101613450565b9181811061347357505050565b610688925f5260205f209182019101613450565b8151916001600160401b03831161067457600160401b8311610674576020906134b584845481865585613466565b01905f5260205f205f5b8381106134cc5750505050565b6001906020845194019381840155016134bf565b9190601f81116134ef57505050565b610688925f5260205f20906020601f840160051c83019310613519575b601f0160051c0190613450565b909150819061350c565b91909182516001600160401b0381116106745761354a816135448454611a13565b846134e0565b6020601f8211600114613585578190612dbb9394955f9261357a575b50508160011b915f199060031b1c19161790565b015190505f80613566565b601f19821690613598845f5260205f2090565b915f5b8181106135d2575095836001959697106135ba575b505050811b019055565b01515f1960f88460031b161c191690555f80806135b0565b9192602060018192868b01518155019401920161359b565b815191600160401b8311610674578154838355808410613644575b5060206136179101915f5260205f2090565b5f915b8383106136275750505050565b600160208261363883945186613523565b0192019201919061361a565b825f528360205f2091820191015b81811061365f5750613605565b8061366c60019254611a13565b80613679575b5001613652565b601f8111831461368e57505f81555b5f613672565b6136b09083601f6136a2855f5260205f2090565b920160051c82019101613450565b5f8181526020812081835555613688565b9080518051906001600160401b03821161067457600160401b8211610674576020906136f283865481885587613466565b01835f5260205f205f5b838110613735575050505060608161371d6020600394015160018601613487565b61372e6040820151600286016135ea565b0151910155565b82516001600160a01b0316818301556020909201916001016136fc565b91949394835161376a60208601918220838587612438565b94845184519081811480159061394e575b8015613946575b61392957505065ffffffffffff6137a4611e13885f52600460205260405f2090565b1661390c577f7d84a6263ae0d98d3329bd7b46bb4e8d6f98cd35a7adb45c274c8b7fd5ebd5e08697986104ee976138cb84896138036137e161232f565b65ffffffffffff6137fc611e2265ffffffffffff6008541690565b911661267a565b8961382261381963ffffffff60085460301c1690565b63ffffffff1690565b6138a9613837885f52600460205260405f2090565b80546001600160a01b0319166001600160a01b038b1617815561388061385c86612a16565b825465ffffffffffff60a01b191660a09190911b65ffffffffffff60a01b16178255565b61388983613a6e565b815463ffffffff60d01b191660d09190911b63ffffffff60d01b16179055565b8c6138be6138b78651613959565b928561267a565b94604051998a998a6139a2565b0390a16138d787613407565b519020916138e361068a565b938452602084015260408301526060820152613907835f52600a60205260405f2090565b6136c1565b6112e78661391981611dd4565b6331b75e4d60e01b5f5290612495565b8451630447b05d60e41b5f5260049190915260245260445260645ffd5b508015613782565b50845181141561377b565b906139638261075a565b6139706040519182610653565b8281528092613981601f199161075a565b01905f5b82811061399157505050565b806060602080938501015201613985565b9599989697949391926139e3936139d592885260018060a01b031660208801526101206040880152610120870190610940565b90858203606087015261097c565b968388036080850152815180895260208901906020808260051b8c01019401915f905b828210613a4257505050506104ee96975090613a299184820360a08601526109af565b9360c083015260e08201526101008184039101526104b9565b90919294602080613a606001938f601f1990820301865289516104b9565b970192019201909291613a06565b63ffffffff8111613a825763ffffffff1690565b6306dfcc6560e41b5f52602060045260245260445ffdfea26469706673582212205b1558a2fb3c8b2e463f093c70c74e538e1e66b98a8291b67b256e8face6bdbe64736f6c634300081a00330553476bf02ef2726e8ce5ced78d63e26e602e4a2257b1f559418e24b4633997","linkReferences":{}},"methodIdentifiers":{"BALLOT_TYPEHASH()":"deaaa7cc","CLOCK_MODE()":"4bf5d7e9","COUNTING_MODE()":"dd4e2ba5","EXTENDED_BALLOT_TYPEHASH()":"2fe3e261","cancel(address[],uint256[],bytes[],bytes32)":"452115d6","cancel(uint256)":"40e58ee5","castVote(uint256,uint8)":"56781388","castVoteBySig(uint256,uint8,address,bytes)":"8ff262e3","castVoteWithReason(uint256,uint8,string)":"7b3c71d3","castVoteWithReasonAndParams(uint256,uint8,string,bytes)":"5f398a14","castVoteWithReasonAndParamsBySig(uint256,uint8,address,string,bytes,bytes)":"5b8d0e0d","clock()":"91ddadf4","eip712Domain()":"84b0196e","execute(address[],uint256[],bytes[],bytes32)":"2656227d","execute(uint256)":"fe0d94c1","getVotes(address,uint256)":"eb9019d4","getVotesWithParams(address,uint256,bytes)":"9a802a6d","hasVoted(uint256,address)":"43859632","hashProposal(address[],uint256[],bytes[],bytes32)":"c59057e4","name()":"06fdde03","nonces(address)":"7ecebe00","onERC1155BatchReceived(address,address,uint256[],uint256[],bytes)":"bc197c81","onERC1155Received(address,address,uint256,uint256,bytes)":"f23a6e61","onERC721Received(address,address,uint256,bytes)":"150b7a02","proposalCount()":"da35c664","proposalDeadline(uint256)":"c01f9e37","proposalDetails(uint256)":"16e9eaec","proposalDetailsAt(uint256)":"2e82db94","proposalEta(uint256)":"ab58fb8e","proposalNeedsQueuing(uint256)":"a9a95294","proposalProposer(uint256)":"143489d0","proposalSnapshot(uint256)":"2d63f693","proposalThreshold()":"b58131b0","proposalVotes(uint256)":"544ffc9c","propose(address[],uint256[],bytes[],string)":"7d5e81e2","queue(address[],uint256[],bytes[],bytes32)":"160cbed7","queue(uint256)":"ddf0b009","quorum(uint256)":"f8ce560a","quorumDenominator()":"97c3d334","quorumNumerator()":"a7713a70","quorumNumerator(uint256)":"60c4247f","relay(address,uint256,bytes)":"c28bc2fa","setProposalThreshold(uint256)":"ece40cc1","setVotingDelay(uint48)":"79051887","setVotingPeriod(uint32)":"e540d01d","state(uint256)":"3e4f49e6","supportsInterface(bytes4)":"01ffc9a7","token()":"fc0c546a","updateQuorumNumerator(uint256)":"06f3f9e6","version()":"54fd4d50","votingDelay()":"3932abb1","votingPeriod()":"02a251a3"},"id":37}