{"abi":[{"type":"function","name":"ADMIN_ROLE","inputs":[],"outputs":[{"name":"","type":"bytes32","internalType":"bytes32"}],"stateMutability":"view"},{"type":"function","name":"CLOCK_MODE","inputs":[],"outputs":[{"name":"","type":"string","internalType":"string"}],"stateMutability":"view"},{"type":"function","name":"DEFAULT_ADMIN_ROLE","inputs":[],"outputs":[{"name":"","type":"bytes32","internalType":"bytes32"}],"stateMutability":"view"},{"type":"function","name":"DENOM","inputs":[],"outputs":[{"name":"","type":"uint16","internalType":"uint16"}],"stateMutability":"view"},{"type":"function","name":"MAX_POSITIONS","inputs":[],"outputs":[{"name":"","type":"uint256","internalType":"uint256"}],"stateMutability":"view"},{"type":"function","name":"adminUnlocked","inputs":[],"outputs":[{"name":"","type":"bool","internalType":"bool"}],"stateMutability":"view"},{"type":"function","name":"balanceOf","inputs":[{"name":"account","type":"address","internalType":"address"}],"outputs":[{"name":"","type":"uint256","internalType":"uint256"}],"stateMutability":"view"},{"type":"function","name":"balanceOfAt","inputs":[{"name":"account","type":"address","internalType":"address"},{"name":"timestamp","type":"uint256","internalType":"uint256"}],"outputs":[{"name":"","type":"uint256","internalType":"uint256"}],"stateMutability":"view"},{"type":"function","name":"balanceOfLock","inputs":[{"name":"account","type":"address","internalType":"address"},{"name":"index","type":"uint256","internalType":"uint256"}],"outputs":[{"name":"","type":"uint256","internalType":"uint256"}],"stateMutability":"view"},{"type":"function","name":"baseToken","inputs":[],"outputs":[{"name":"","type":"address","internalType":"address"}],"stateMutability":"view"},{"type":"function","name":"clock","inputs":[],"outputs":[{"name":"","type":"uint48","internalType":"uint48"}],"stateMutability":"view"},{"type":"function","name":"decimals","inputs":[],"outputs":[{"name":"","type":"uint8","internalType":"uint8"}],"stateMutability":"pure"},{"type":"function","name":"delegate","inputs":[{"name":"delegatee","type":"address","internalType":"address"}],"outputs":[],"stateMutability":"nonpayable"},{"type":"function","name":"delegateBySig","inputs":[{"name":"delegatee","type":"address","internalType":"address"},{"name":"nonce","type":"uint256","internalType":"uint256"},{"name":"expiry","type":"uint256","internalType":"uint256"},{"name":"v","type":"uint8","internalType":"uint8"},{"name":"r","type":"bytes32","internalType":"bytes32"},{"name":"s","type":"bytes32","internalType":"bytes32"}],"outputs":[],"stateMutability":"nonpayable"},{"type":"function","name":"delegates","inputs":[{"name":"account","type":"address","internalType":"address"}],"outputs":[{"name":"","type":"address","internalType":"address"}],"stateMutability":"view"},{"type":"function","name":"eip712Domain","inputs":[],"outputs":[{"name":"fields","type":"bytes1","internalType":"bytes1"},{"name":"name","type":"string","internalType":"string"},{"name":"version","type":"string","internalType":"string"},{"name":"chainId","type":"uint256","internalType":"uint256"},{"name":"verifyingContract","type":"address","internalType":"address"},{"name":"salt","type":"bytes32","internalType":"bytes32"},{"name":"extensions","type":"uint256[]","internalType":"uint256[]"}],"stateMutability":"view"},{"type":"function","name":"extend","inputs":[{"name":"id","type":"uint256","internalType":"uint256"},{"name":"numWeeks","type":"uint8","internalType":"uint8"}],"outputs":[],"stateMutability":"nonpayable"},{"type":"function","name":"getMaturity","inputs":[{"name":"account","type":"address","internalType":"address"},{"name":"id","type":"uint256","internalType":"uint256"}],"outputs":[{"name":"","type":"uint256","internalType":"uint256"}],"stateMutability":"view"},{"type":"function","name":"getPastTotalSupply","inputs":[{"name":"timepoint","type":"uint256","internalType":"uint256"}],"outputs":[{"name":"","type":"uint256","internalType":"uint256"}],"stateMutability":"view"},{"type":"function","name":"getPastVotes","inputs":[{"name":"account","type":"address","internalType":"address"},{"name":"timepoint","type":"uint256","internalType":"uint256"}],"outputs":[{"name":"","type":"uint256","internalType":"uint256"}],"stateMutability":"view"},{"type":"function","name":"getPositions","inputs":[{"name":"account","type":"address","internalType":"address"},{"name":"start","type":"uint256","internalType":"uint256"},{"name":"count","type":"uint256","internalType":"uint256"}],"outputs":[{"name":"","type":"tuple[]","internalType":"struct StakedToken.Lock[]","components":[{"name":"amount","type":"uint256","internalType":"uint256"},{"name":"start","type":"uint256","internalType":"uint256"},{"name":"end","type":"uint256","internalType":"uint256"},{"name":"numWeeks","type":"uint8","internalType":"uint8"},{"name":"autoRenew","type":"bool","internalType":"bool"},{"name":"id","type":"uint256","internalType":"uint256"}]}],"stateMutability":"view"},{"type":"function","name":"getRoleAdmin","inputs":[{"name":"role","type":"bytes32","internalType":"bytes32"}],"outputs":[{"name":"","type":"bytes32","internalType":"bytes32"}],"stateMutability":"view"},{"type":"function","name":"getVotes","inputs":[{"name":"account","type":"address","internalType":"address"}],"outputs":[{"name":"","type":"uint256","internalType":"uint256"}],"stateMutability":"view"},{"type":"function","name":"grantRole","inputs":[{"name":"role","type":"bytes32","internalType":"bytes32"},{"name":"account","type":"address","internalType":"address"}],"outputs":[],"stateMutability":"nonpayable"},{"type":"function","name":"hasRole","inputs":[{"name":"role","type":"bytes32","internalType":"bytes32"},{"name":"account","type":"address","internalType":"address"}],"outputs":[{"name":"","type":"bool","internalType":"bool"}],"stateMutability":"view"},{"type":"function","name":"initialize","inputs":[{"name":"baseToken_","type":"address","internalType":"address"},{"name":"maxWeeks_","type":"uint8","internalType":"uint8"},{"name":"name_","type":"string","internalType":"string"},{"name":"symbol_","type":"string","internalType":"string"}],"outputs":[],"stateMutability":"nonpayable"},{"type":"function","name":"locks","inputs":[{"name":"","type":"address","internalType":"address"},{"name":"","type":"uint256","internalType":"uint256"}],"outputs":[{"name":"amount","type":"uint256","internalType":"uint256"},{"name":"start","type":"uint256","internalType":"uint256"},{"name":"end","type":"uint256","internalType":"uint256"},{"name":"numWeeks","type":"uint8","internalType":"uint8"},{"name":"autoRenew","type":"bool","internalType":"bool"},{"name":"id","type":"uint256","internalType":"uint256"}],"stateMutability":"view"},{"type":"function","name":"maxWeeks","inputs":[],"outputs":[{"name":"","type":"uint8","internalType":"uint8"}],"stateMutability":"view"},{"type":"function","name":"name","inputs":[],"outputs":[{"name":"","type":"string","internalType":"string"}],"stateMutability":"view"},{"type":"function","name":"nonces","inputs":[{"name":"owner","type":"address","internalType":"address"}],"outputs":[{"name":"","type":"uint256","internalType":"uint256"}],"stateMutability":"view"},{"type":"function","name":"numPositions","inputs":[{"name":"account","type":"address","internalType":"address"}],"outputs":[{"name":"","type":"uint256","internalType":"uint256"}],"stateMutability":"view"},{"type":"function","name":"renounceRole","inputs":[{"name":"role","type":"bytes32","internalType":"bytes32"},{"name":"callerConfirmation","type":"address","internalType":"address"}],"outputs":[],"stateMutability":"nonpayable"},{"type":"function","name":"revokeRole","inputs":[{"name":"role","type":"bytes32","internalType":"bytes32"},{"name":"account","type":"address","internalType":"address"}],"outputs":[],"stateMutability":"nonpayable"},{"type":"function","name":"setAdminUnlocked","inputs":[{"name":"adminUnlocked_","type":"bool","internalType":"bool"}],"outputs":[],"stateMutability":"nonpayable"},{"type":"function","name":"setMaxWeeks","inputs":[{"name":"maxWeeks_","type":"uint8","internalType":"uint8"}],"outputs":[],"stateMutability":"nonpayable"},{"type":"function","name":"stake","inputs":[{"name":"amount","type":"uint256","internalType":"uint256"}],"outputs":[],"stateMutability":"nonpayable"},{"type":"function","name":"stakedAmountOf","inputs":[{"name":"account","type":"address","internalType":"address"}],"outputs":[{"name":"","type":"uint256","internalType":"uint256"}],"stateMutability":"view"},{"type":"function","name":"supportsInterface","inputs":[{"name":"interfaceId","type":"bytes4","internalType":"bytes4"}],"outputs":[{"name":"","type":"bool","internalType":"bool"}],"stateMutability":"view"},{"type":"function","name":"symbol","inputs":[],"outputs":[{"name":"","type":"string","internalType":"string"}],"stateMutability":"view"},{"type":"function","name":"toggleAutoRenew","inputs":[{"name":"id","type":"uint256","internalType":"uint256"}],"outputs":[],"stateMutability":"nonpayable"},{"type":"function","name":"withdraw","inputs":[{"name":"id","type":"uint256","internalType":"uint256"}],"outputs":[],"stateMutability":"nonpayable"},{"type":"event","name":"AdminUnlocked","inputs":[{"name":"adminUnlocked","type":"bool","indexed":false,"internalType":"bool"}],"anonymous":false},{"type":"event","name":"AutoRenew","inputs":[{"name":"user","type":"address","indexed":true,"internalType":"address"},{"name":"id","type":"uint256","indexed":false,"internalType":"uint256"},{"name":"autoRenew","type":"bool","indexed":false,"internalType":"bool"}],"anonymous":false},{"type":"event","name":"DelegateChanged","inputs":[{"name":"delegator","type":"address","indexed":true,"internalType":"address"},{"name":"fromDelegate","type":"address","indexed":true,"internalType":"address"},{"name":"toDelegate","type":"address","indexed":true,"internalType":"address"}],"anonymous":false},{"type":"event","name":"DelegateVotesChanged","inputs":[{"name":"delegate","type":"address","indexed":true,"internalType":"address"},{"name":"previousVotes","type":"uint256","indexed":false,"internalType":"uint256"},{"name":"newVotes","type":"uint256","indexed":false,"internalType":"uint256"}],"anonymous":false},{"type":"event","name":"EIP712DomainChanged","inputs":[],"anonymous":false},{"type":"event","name":"Extend","inputs":[{"name":"user","type":"address","indexed":true,"internalType":"address"},{"name":"id","type":"uint256","indexed":false,"internalType":"uint256"},{"name":"numWeeks","type":"uint8","indexed":false,"internalType":"uint8"}],"anonymous":false},{"type":"event","name":"Initialized","inputs":[{"name":"version","type":"uint64","indexed":false,"internalType":"uint64"}],"anonymous":false},{"type":"event","name":"RoleAdminChanged","inputs":[{"name":"role","type":"bytes32","indexed":true,"internalType":"bytes32"},{"name":"previousAdminRole","type":"bytes32","indexed":true,"internalType":"bytes32"},{"name":"newAdminRole","type":"bytes32","indexed":true,"internalType":"bytes32"}],"anonymous":false},{"type":"event","name":"RoleGranted","inputs":[{"name":"role","type":"bytes32","indexed":true,"internalType":"bytes32"},{"name":"account","type":"address","indexed":true,"internalType":"address"},{"name":"sender","type":"address","indexed":true,"internalType":"address"}],"anonymous":false},{"type":"event","name":"RoleRevoked","inputs":[{"name":"role","type":"bytes32","indexed":true,"internalType":"bytes32"},{"name":"account","type":"address","indexed":true,"internalType":"address"},{"name":"sender","type":"address","indexed":true,"internalType":"address"}],"anonymous":false},{"type":"event","name":"Stake","inputs":[{"name":"user","type":"address","indexed":true,"internalType":"address"},{"name":"id","type":"uint256","indexed":false,"internalType":"uint256"},{"name":"amount","type":"uint256","indexed":false,"internalType":"uint256"},{"name":"numWeeks","type":"uint8","indexed":false,"internalType":"uint8"}],"anonymous":false},{"type":"event","name":"Withdraw","inputs":[{"name":"user","type":"address","indexed":true,"internalType":"address"},{"name":"id","type":"uint256","indexed":false,"internalType":"uint256"},{"name":"amount","type":"uint256","indexed":false,"internalType":"uint256"}],"anonymous":false},{"type":"error","name":"AccessControlBadConfirmation","inputs":[]},{"type":"error","name":"AccessControlUnauthorizedAccount","inputs":[{"name":"account","type":"address","internalType":"address"},{"name":"neededRole","type":"bytes32","internalType":"bytes32"}]},{"type":"error","name":"AddressEmptyCode","inputs":[{"name":"target","type":"address","internalType":"address"}]},{"type":"error","name":"AddressInsufficientBalance","inputs":[{"name":"account","type":"address","internalType":"address"}]},{"type":"error","name":"CheckpointUnorderedInsertion","inputs":[]},{"type":"error","name":"ECDSAInvalidSignature","inputs":[]},{"type":"error","name":"ECDSAInvalidSignatureLength","inputs":[{"name":"length","type":"uint256","internalType":"uint256"}]},{"type":"error","name":"ECDSAInvalidSignatureS","inputs":[{"name":"s","type":"bytes32","internalType":"bytes32"}]},{"type":"error","name":"ERC5805FutureLookup","inputs":[{"name":"timepoint","type":"uint256","internalType":"uint256"},{"name":"clock","type":"uint48","internalType":"uint48"}]},{"type":"error","name":"ERC6372InconsistentClock","inputs":[]},{"type":"error","name":"FailedInnerCall","inputs":[]},{"type":"error","name":"InvalidAccountNonce","inputs":[{"name":"account","type":"address","internalType":"address"},{"name":"currentNonce","type":"uint256","internalType":"uint256"}]},{"type":"error","name":"InvalidInitialization","inputs":[]},{"type":"error","name":"NotInitializing","inputs":[]},{"type":"error","name":"ReentrancyGuardReentrantCall","inputs":[]},{"type":"error","name":"SafeCastOverflowedUintDowncast","inputs":[{"name":"bits","type":"uint8","internalType":"uint8"},{"name":"value","type":"uint256","internalType":"uint256"}]},{"type":"error","name":"SafeERC20FailedOperation","inputs":[{"name":"token","type":"address","internalType":"address"}]},{"type":"error","name":"VotesExpiredSignature","inputs":[{"name":"expiry","type":"uint256","internalType":"uint256"}]}],"bytecode":{"object":"0x60808060405234601557613926908161001a8239f35b5f80fdfe60806040526004361015610011575f80fd5b5f3560e01c806301ffc9a7146102a457806306fdde031461029f57806316343da41461029a578063248a9ca314610295578063288b1c68146102905780632b4bce311461028b5780632e1a7d4d146102865780632f2ff15d14610281578063313ce5671461027c57806336568abe146102775780633a46b1a81461027257806342fe09801461026d5780634bf5d7e9146102685780634ee2cd7e1461026357806355168c931461025e578063587cde1e146102595780635c19a95c146102545780635fcdad911461024f578063605830ef1461024a5780636e7ed07b1461024557806370a082311461024057806375b238fc1461023b5780637e530d2f146102365780637ecebe001461023157806384b0196e1461022c5780638e539e8c1461022757806391d148541461022257806391ddadf41461021d57806395d89b41146102185780639ab24eb014610213578063a217fddf1461020e578063a694fc3a14610209578063b425f80214610204578063b7d7702c146101ff578063be3956bf146101fa578063c3cda520146101f5578063c55dae63146101f0578063d547741f146101eb578063de6e659c146101e6578063f48355b9146101e15763f7b24e08146101dc575f80fd5b61199b565b6118a3565b61185a565b611829565b611802565b6116c7565b611656565b611614565b61157d565b6113de565b6113c4565b611388565b6112e3565b6112b8565b61125d565b611125565b611055565b610f7b565b610f56565b610f1c565b610ef7565b610ec1565b610e9a565b610e77565b610e55565b610e09565b610ce0565b610cb9565b610c29565b610a6e565b610863565b61081f565b610804565b6107ce565b610649565b610629565b6104f2565b61042c565b610410565b610336565b346102fa5760203660031901126102fa5760043563ffffffff60e01b81168091036102fa57602090637965db0b60e01b81149081156102e9575b506040519015158152f35b6301ffc9a760e01b1490505f6102de565b5f80fd5b805180835260209291819084018484015e5f828201840152601f01601f1916010190565b9060206103339281815201906102fe565b90565b346102fa575f3660031901126102fa576040515f600454610356816119b6565b80845290600181169081156103ec575060011461038e575b61038a8361037e818503826109cc565b60405191829182610322565b0390f35b60045f9081527f8a35acfbc15ff81a39ae7d344fd709f28e8600b4aa8c65c6b64bfe7fe36bd19b939250905b8082106103d25750909150810160200161037e61036e565b9192600181602092548385880101520191019092916103ba565b60ff191660208086019190915291151560051b8401909101915061037e905061036e565b346102fa575f3660031901126102fa5760206040516127108152f35b346102fa5760203660031901126102fa57602061044a600435611b68565b604051908152f35b600435906001600160a01b03821682036102fa57565b602435906001600160a01b03821682036102fa57565b60206040818301928281528451809452019201905f5b8181106104a15750505090565b909192602060c060019260a087518051835284810151858401526040810151604084015260ff6060820151166060840152608081015115156080840152015160a08201520194019101919091610494565b346102fa5760603660031901126102fa5761050b610452565b60243560443561051a81611b86565b9261052860405194856109cc565b818452601f1961053783611b86565b015f5b8181106105ee5750505f9183925b6105528286611bcd565b8410806105ce575b156105c057906105b76105b1610552936105966105908861058b8960018060a01b03165f52600160205260405f2090565b61155f565b50611bee565b6105a0828b611bda565b526105ab818a611bda565b50611bb1565b94611bb1565b93909150610548565b6040518061038a888261047e565b506001600160a01b0383165f90815260016020526040902054841061055a565b6020906040516105fd816109ac565b5f81525f838201525f60408201525f60608201525f60808201525f60a08201528282890101520161053a565b346102fa575f3660031901126102fa57602060ff60035416604051908152f35b346102fa5760203660031901126102fa57610763600435610668612709565b6106728133612741565b906106946105908361058b3360018060a01b03165f52600160205260405f2090565b604081015142108015906107bf575b6106ac90611c3a565b6106c26106bc6080830151151590565b15611c7c565b51335f9081526001602052604090209092906106de9054611cc0565b9081810361077b575b5050335f90815260016020526040902061070090611d67565b5f546107299083903390610724906001600160a01b03165b6001600160a01b031690565b6127c6565b604080519182526020820183905233917ff279e6a1f5e320cca91135676d9cb6e44ca8a08c0b88342bcdb1144f6511b5689190a233612806565b61077960015f805160206138b183398151915255565b005b335f9081526001602052604090206107b8926107b29161079b919061155f565b50335f90815260016020526040902090929061155f565b90611cee565b5f806106e7565b5060035460081c60ff166106a3565b346102fa5760403660031901126102fa576107796004356107ed610468565b906107ff6107fa82611b68565b61298b565b612b54565b346102fa575f3660031901126102fa57602060405160128152f35b346102fa5760403660031901126102fa5760043561083b610468565b336001600160a01b038216036108545761077991612bfc565b63334bd91960e11b5f5260045ffd5b346102fa5760403660031901126102fa5761087c610452565b6024359065ffffffffffff61089043612c9c565b168083101561096257506108a66108ac91611513565b91612c9c565b8154905f82916005841161090a575b6108c6935084613353565b90816108ed57505061038a5f5b6040516001600160d01b0390911681529081906020820190565b6108f961038a92611cc0565b905f5260205f20015460301c6108d3565b9192610915816131e5565b810390811161095d576108c693855f5265ffffffffffff8260205f2001541665ffffffffffff8516105f1461094b5750916108bb565b92915061095790611bbf565b906108bb565b611b9d565b82637669fc0f60e11b5f5260045260245260445ffd5b6024359060ff821682036102fa57565b6064359060ff821682036102fa57565b634e487b7160e01b5f52604160045260245ffd5b60c081019081106001600160401b038211176109c757604052565b610998565b90601f801991011681019081106001600160401b038211176109c757604052565b604051906109fc60c0836109cc565b565b604051906109fc6040836109cc565b6001600160401b0381116109c757601f01601f191660200190565b81601f820112156102fa57803590610a3f82610a0d565b92610a4d60405194856109cc565b828452602083830101116102fa57815f926020809301838601378301015290565b346102fa5760803660031901126102fa57610a87610452565b610a8f610978565b906044356001600160401b0381116102fa57610aaf903690600401610a28565b6064356001600160401b0381116102fa57610ace903690600401610a28565b905f805160206138d183398151915254936001600160401b03610b0c610aff610afb8860ff9060401c1690565b1590565b966001600160401b031690565b1680159081610c21575b6001149081610c17575b159081610c0e575b50610bff57610b6b9385610b6260016001600160401b03195f805160206138d18339815191525416175f805160206138d183398151915255565b610bca57612167565b610b7157005b610b9b60ff60401b195f805160206138d183398151915254165f805160206138d183398151915255565b604051600181527fc7f505b2f371ae2175ee4913f4499e1f2633a7b5936321eed1cdaeb6115181d290602090a1005b610bfa600160401b60ff60401b195f805160206138d18339815191525416175f805160206138d183398151915255565b612167565b63f92ee8a960e01b5f5260045ffd5b9050155f610b28565b303b159150610b20565b869150610b16565b346102fa575f3660031901126102fa57610c4243612c9c565b65ffffffffffff80610c5343612c9c565b16911603610caa5761038a604051610c6c6040826109cc565b601d81527f6d6f64653d626c6f636b6e756d6265722666726f6d3d64656661756c7400000060208201526040519182916020835260208301906102fe565b6301bfc1c560e61b5f5260045ffd5b346102fa5760403660031901126102fa57602061044a610cd7610452565b602435906123be565b346102fa5760403660031901126102fa576004357f2b1bad57ed45c0298a4d6a14dc8850fb68015d5bd10457c2ec5ff8b587230173610df0610d20610978565b610d28612709565b610d48610d358533612741565b335f90815260016020526040902061155f565b5060038101610dd46002825493610d666106bc8660ff9060081c1690565b0191610dc685610dc0610d86865497610d8089421061241d565b60ff1690565b96610dae610d94848a61245b565b60ff610da5610d8060035460ff1690565b9116111561246f565b610dba60ff84166124c9565b90611bcd565b9561245b565b60ff1660ff19825416179055565b556040805194855260ff90911660208501523393918291820190565b0390a261077960015f805160206138b183398151915255565b346102fa5760203660031901126102fa576001600160a01b03610e2a610452565b165f525f80516020613811833981519152602052602060018060a01b0360405f205416604051908152f35b346102fa5760203660031901126102fa57610779610e71610452565b33612da8565b346102fa5760203660031901126102fa57602061044a610e95610452565b61250e565b346102fa5760403660031901126102fa57602061044a610eb8610452565b60243590612562565b346102fa5760203660031901126102fa5760043560ff81168091036102fa57610ee861291c565b60ff1960035416176003555f80f35b346102fa5760203660031901126102fa57602061044a610f15610452565b42906123be565b346102fa575f3660031901126102fa5760206040517fa49807205ce4d355092ef5a8a18f56e8913cf4a201fbe287825b095693c217758152f35b346102fa575f3660031901126102fa57602060ff60035460081c166040519015158152f35b346102fa5760203660031901126102fa576001600160a01b03610f9c610452565b165f527f5ab42ced628888259c08ac98db1eb0cf702fc1501344311d8b100cd1bfe4bb00602052602060405f2054604051908152f35b929391610ff461100292600f60f81b865260e0602087015260e08601906102fe565b9084820360408601526102fe565b92606083015260018060a01b031660808201525f60a082015260c0818303910152602080835192838152019201905f5b81811061103f5750505090565b8251845260209384019390920191600101611032565b346102fa575f3660031901126102fa577fa16a46d94261c7517cc8ff89f61c0ce93598e3c849801011dee649a6a557d1005415806110fc575b156110bf5761109b6119ee565b6110a3611abb565b9061038a6110af6125dc565b6040519384933091469186610fd2565b60405162461bcd60e51b81526020600482015260156024820152741152540dcc4c8e88155b9a5b9a5d1a585b1a5e9959605a1b6044820152606490fd5b507fa16a46d94261c7517cc8ff89f61c0ce93598e3c849801011dee649a6a557d101541561108e565b346102fa5760203660031901126102fa5760043565ffffffffffff61114943612c9c565b1690818110156112485761115c90612c9c565b5f8051602061387183398151915254905f8291600584116111e8575b61119093505f80516020613871833981519152613353565b806111a157506040515f8152602090f35b6111ad61038a91611cc0565b5f805160206138718339815191525f527f88c46c62109817164d0ae1873830d4299a82e5daf552a3d8e989b27638fcf748015460301c6108d3565b91926111f3816131e5565b810390811161095d57611190935f805160206138718339815191525f5265ffffffffffff8260205f2001541665ffffffffffff8516105f14611236575091611178565b92915061124290611bbf565b90611178565b637669fc0f60e11b5f5260045260245260445ffd5b346102fa5760403660031901126102fa57602060ff6112ac600435611280610468565b905f525f80516020613891833981519152845260405f209060018060a01b03165f5260205260405f2090565b54166040519015158152f35b346102fa575f3660031901126102fa5760206112d343612c9c565b65ffffffffffff60405191168152f35b346102fa575f3660031901126102fa576040515f600554611303816119b6565b80845290600181169081156103ec575060011461132a5761038a8361037e818503826109cc565b60055f9081527f036b6384b5eca791c62761152d0c79bb0604c104a5fb6f4eb0703f3154bb3db0939250905b80821061136e5750909150810160200161037e61036e565b919260018160209254838588010152019101909291611356565b346102fa5760203660031901126102fa5760206001600160d01b036113bb6113b66113b1610452565b611513565b612e20565b16604051908152f35b346102fa575f3660031901126102fa5760206040515f8152f35b346102fa5760203660031901126102fa576107636004356113fd612709565b6114088115156125f7565b335f9081526001602052604090206114249060c8905410612643565b5f5461144790829061143e906001600160a01b0316610718565b30903390612e4a565b60035460ff167f6fa2f6021ee337436cdf2b2570285886da18bc06402ce284d296504a0fe8f87561150a61148361147d846124c9565b42611bcd565b6114e36002549161149b61149684611bb1565b600255565b6114a36109ed565b9087825242602083015260408201526114c286606083019060ff169052565b6001608082015260a08101928352335f908152600160205260409020612684565b51926040519182918633968491604091949360ff9160608501968552602085015216910152565b0390a233612897565b6001600160a01b03165f9081527fe8b26c30fad74198956032a3533d903385d56dd795af560196f9c78d4af40d016020526040902090565b634e487b7160e01b5f52603260045260245ffd5b8054821015611578575f52600560205f20910201905f90565b61154b565b346102fa5760403660031901126102fa57611596610452565b6001600160a01b03165f9081526001602052604090208054602435908110156102fa576115c29161155f565b5080546001820154600283015460038401546004909401546040805194855260208501939093529183015260ff808416606084015260089390931c9092161515608082015260a081019190915260c090f35b346102fa5760203660031901126102fa576001600160a01b03611635610452565b165f526001602052602060405f2054604051908152f35b801515036102fa57565b346102fa5760203660031901126102fa577f1664fc9d2adc81edeb38788b177fdfe12c9c15bd10b40663e9744e1af1c56a8660206004356116968161164c565b61169e61291c565b61ff0060035491151560081b169061ff001916178060035560ff6040519160081c1615158152a1005b346102fa5760c03660031901126102fa576116e0610452565b604435906024356116ef610988565b60843560a435918542116117ef57916117e3916117ea9360426107799860405160208101917fe48329057bfd03d55e49b547132e39cffd9c1820ad7b9d4c5307691425d15adf835260018060a01b038b16604083015289606083015260808201526080815261175f60a0826109cc565b51902061176a613703565b61177261376d565b6040519060208201927f8b73c3c69bb8fe3d512ecc4cf759cc79239f7b179b0ffacaa9a75d522b39400f8452604083015260608201524660808201523060a082015260a081526117c360c0826109cc565b519020906040519161190160f01b83526002830152602282015220612e8e565b9182612ea6565b612da8565b85632341d78760e11b5f5260045260245ffd5b346102fa575f3660031901126102fa575f546040516001600160a01b039091168152602090f35b346102fa5760403660031901126102fa57610779600435611848610468565b906118556107fa82611b68565b612bfc565b346102fa5760403660031901126102fa57602061044a61189c61059061187e610452565b6001600160a01b03165f90815260018552604090206024359061155f565b4290612ce9565b346102fa5760203660031901126102fa576004356118bf612709565b7f1d94e785ca79528225ae3b538b0fc686337b6c73da42dbfee64c8d01b0779913610df06119826119046118f38533612741565b335f52600160205260405f2061155f565b50600381019061193561191f610afb845460ff9060081c1690565b835461ff00191690151560081b61ff0016178355565b61195461194460035460ff1690565b835460ff191660ff909116178355565b426001820155600261197561147d611970610d80865460ff1690565b6124c9565b9101555460081c60ff1690565b6040805194855290151560208501523393918291820190565b346102fa575f3660031901126102fa57602060405160c88152f35b90600182811c921680156119e4575b60208310146119d057565b634e487b7160e01b5f52602260045260245ffd5b91607f16916119c5565b604051905f825f805160206138318339815191525491611a0d836119b6565b8083529260018116908115611a9c5750600114611a31575b6109fc925003836109cc565b505f805160206138318339815191525f90815290917f42ad5d3e1f2e6e70edcf6d991b8a3023d3fca8047a131592f9edb9fd9b89d57d5b818310611a805750509060206109fc92820101611a25565b6020919350806001915483858901015201910190918492611a68565b602092506109fc94915060ff191682840152151560051b820101611a25565b604051905f825f805160206138518339815191525491611ada836119b6565b8083529260018116908115611a9c5750600114611afd576109fc925003836109cc565b505f805160206138518339815191525f90815290917f5f9ce34815f8e11431c7bb75a8e6886a91478f7ffc1dbb0a98dc240fddd76b755b818310611b4c5750509060206109fc92820101611a25565b6020919350806001915483858901015201910190918492611b34565b5f525f80516020613891833981519152602052600160405f20015490565b6001600160401b0381116109c75760051b60200190565b634e487b7160e01b5f52601160045260245ffd5b5f19811461095d5760010190565b906001820180921161095d57565b9190820180921161095d57565b80518210156115785760209160051b010190565b90604051611bfb816109ac565b60a06004829480548452600181015460208501526002810154604085015260ff6003820154818116606087015260081c16151560808501520154910152565b15611c4157565b60405162461bcd60e51b8152602060048201526013602482015272131bd8dac81a5cc81b9bdd08195e1c1a5c9959606a1b6044820152606490fd5b15611c8357565b60405162461bcd60e51b81526020600482015260156024820152744c6f636b206973206175746f2d72656e6577696e6760581b6044820152606490fd5b5f1981019190821161095d57565b9190820391821161095d57565b634e487b7160e01b5f525f60045260245ffd5b9190611d6257808203611cff575050565b60048181925484556001810154600185015560028101546002850155611d5b6003850160ff60038401611d3f82825416849060ff1660ff19825416179055565b5460081c1661ff00825491151560081b169061ff001916179055565b0154910155565b611cdb565b80548015611d9f575f190190611d7d828261155f565b611d62576004815f809355826001820155826002820155826003820155015555565b634e487b7160e01b5f52603160045260245ffd5b15611dba57565b60405162461bcd60e51b815260206004820152600d60248201526c24b73b30b634b2103a37b5b2b760991b6044820152606490fd5b601f8111611dfb575050565b5f805160206138318339815191525f5260205f20906020601f840160051c83019310611e41575b601f0160051c01905b818110611e36575050565b5f8155600101611e2b565b9091508190611e22565b601f8211611e5857505050565b5f5260205f20906020601f840160051c83019310611e90575b601f0160051c01905b818110611e85575050565b5f8155600101611e7a565b9091508190611e71565b9081516001600160401b0381116109c757611ed981611ec65f80516020613851833981519152546119b6565b5f80516020613851833981519152611e4b565b602092601f8211600114611f2557611f09929382915f92611f1a575b50508160011b915f199060031b1c19161790565b5f8051602061385183398151915255565b015190505f80611ef5565b5f805160206138518339815191525f52601f198216937f5f9ce34815f8e11431c7bb75a8e6886a91478f7ffc1dbb0a98dc240fddd76b75915f5b868110611fa15750836001959610611f89575b505050811b015f8051602061385183398151915255565b01515f1960f88460031b161c191690555f8080611f72565b91926020600181928685015181550194019201611f5f565b9081516001600160401b0381116109c757611fe081611fd96004546119b6565b6004611e4b565b602092601f82116001146120145761200f929382915f92611f1a5750508160011b915f199060031b1c19161790565b600455565b60045f52601f198216937f8a35acfbc15ff81a39ae7d344fd709f28e8600b4aa8c65c6b64bfe7fe36bd19b915f5b8681106120785750836001959610612060575b505050811b01600455565b01515f1960f88460031b161c191690555f8080612055565b91926020600181928685015181550194019201612042565b9081516001600160401b0381116109c7576120b7816120b06005546119b6565b6005611e4b565b602092601f82116001146120eb576120e6929382915f92611f1a5750508160011b915f199060031b1c19161790565b600555565b60055f52601f198216937f036b6384b5eca791c62761152d0c79bb0604c104a5fb6f4eb0703f3154bb3db0915f5b86811061214f5750836001959610612137575b505050811b01600555565b01515f1960f88460031b161c191690555f808061212c565b91926020600181928685015181550194019201612119565b61216f6133b7565b6121776133b7565b60015f805160206138b1833981519152556121906133b7565b6121986133b7565b6040516121a66040826109cc565b60018152603160f81b60208201526121bc6133b7565b6121c46133b7565b83516001600160401b0381116109c7576121f4816121ef5f80516020613831833981519152546119b6565b611def565b6020601f8211600114612312576122f19695936122496122dd94612235856122ec99966122cd965f91612307575b508160011b915f199060031b1c19161790565b5f8051602061383183398151915255611e9a565b6122715f7fa16a46d94261c7517cc8ff89f61c0ce93598e3c849801011dee649a6a557d10055565b6122995f7fa16a46d94261c7517cc8ff89f61c0ce93598e3c849801011dee649a6a557d10155565b6122ad6001600160a01b0382161515611db3565b60018060a01b03166bffffffffffffffffffffffff60a01b5f5416175f55565b60ff1660ff196003541617600355565b6122e76001600255565b611fb9565b612090565b6122fa336129d1565b5061230433612a80565b50565b90508901515f612222565b5f805160206138318339815191525f52601f198216907f42ad5d3e1f2e6e70edcf6d991b8a3023d3fca8047a131592f9edb9fd9b89d57d915f5b8181106123a657506122dd946001856122cd956122f19c9b99956122ec9b98612249961061238e575b5050811b015f8051602061383183398151915255611e9a565b8a01515f1960f88460031b161c191690555f80612375565b9192602060018192868c01518155019401920161234c565b5f91825b6001600160a01b0383165f81815260016020526040902054851015612415575f526001602052612401826123fc6105908760405f2061155f565b612ce9565b810180911161095d576001909301926123c2565b509250505090565b1561242457565b60405162461bcd60e51b815260206004820152600f60248201526e131bd8dac81a5cc8195e1c1a5c9959608a1b6044820152606490fd5b9060ff8091169116019060ff821161095d57565b1561247657565b60405162461bcd60e51b815260206004820152602560248201527f4e756d207765656b73206d757374206265206c657373207468616e206d6178206044820152647765656b7360d81b6064820152608490fd5b9062093a8082029180830462093a80149015171561095d57565b90612710820291808304612710149015171561095d57565b8181029291811591840414171561095d57565b5f91825b6001600160a01b0383165f8181526001602052604090205485101561255b575f5260016020526125458460405f2061155f565b5054810180911161095d57600190930192612512565b5092509050565b9061256d9082612741565b9060018060a01b0316805f52600160205260806125906105908460405f2061155f565b0151156125bf57505060035460ff1662093a800262ffffff811690810361095d576103339062ffffff1661147d565b6002916125d6915f52600160205260405f2061155f565b50015490565b604051906125eb6020836109cc565b5f808352366020840137565b156125fe57565b60405162461bcd60e51b815260206004820152601d60248201527f416d6f756e74206d7573742062652067726561746572207468616e20300000006044820152606490fd5b1561264a57565b60405162461bcd60e51b81526020600482015260126024820152714f766572206d617820706f736974696f6e7360701b6044820152606490fd5b8054600160401b8110156109c7576126a19160018201815561155f565b919091611d625760a0816004925184556020810151600185015560408101516002850155612702600385016126e760ff606085015116829060ff1660ff19825416179055565b6080830151815461ff00191690151560081b61ff0016179055565b0151910155565b60025f805160206138b183398151915254146127325760025f805160206138b183398151915255565b633ee5aeb560e01b5f5260045ffd5b905f5b6001600160a01b0383165f81815260016020526040902054821015612790575f52600160205281600461277a8360405f2061155f565b5001541461278a57600101612744565b91505090565b60405162461bcd60e51b815260206004820152600e60248201526d131bd8dac81b9bdd08199bdd5b9960921b6044820152606490fd5b60405163a9059cbb60e01b60208201526001600160a01b0390921660248301526044808301939093529181526109fc916128016064836109cc565b612f05565b6109fc91906001600160a01b0316801561287f575b61282c61282783612faa565b61302c565b50505f9081525f8051602061381183398151915260205260408120549080527fd4fb29e10204005f1a39963c6862b79a755e22f0177c53f05cdc3786c702f974546001600160a01b0390811691166130e1565b61289061288b83612faa565b612fdb565b505061281b565b906109fc916128a861288b83612faa565b50506001600160a01b03168015612909575b5f805160206138118339815191526020527fd4fb29e10204005f1a39963c6862b79a755e22f0177c53f05cdc3786c702f974545f9182526040909120546001600160a01b0390811691166130e1565b61291561282783612faa565b50506128ba565b335f9081527fb16e88c42fd4e48df2dd6a2eabd6bc9aec654ec170056b470819f8892cc6431c602052604090205460ff161561295457565b63e2517d3f60e01b5f52336004527fa49807205ce4d355092ef5a8a18f56e8913cf4a201fbe287825b095693c2177560245260445ffd5b5f8181525f805160206138918339815191526020908152604080832033845290915290205460ff16156129bb5750565b63e2517d3f60e01b5f523360045260245260445ffd5b6001600160a01b0381165f9081527fb7db2dd08fcb62d0c9e08c51941cae53c267786a0b75803fb7960902fc8ef97d602052604090205460ff16612a7b576001600160a01b03165f8181527fb7db2dd08fcb62d0c9e08c51941cae53c267786a0b75803fb7960902fc8ef97d60205260408120805460ff191660011790553391907f2f8788117e7eff1d82e926ec794901d17c78024a50270940304540a733656f0d8180a4600190565b505f90565b6001600160a01b0381165f9081527fb16e88c42fd4e48df2dd6a2eabd6bc9aec654ec170056b470819f8892cc6431c602052604090205460ff16612a7b576001600160a01b0381165f9081527fb16e88c42fd4e48df2dd6a2eabd6bc9aec654ec170056b470819f8892cc6431c60205260409020805460ff1916600117905533906001600160a01b03167fa49807205ce4d355092ef5a8a18f56e8913cf4a201fbe287825b095693c217757f2f8788117e7eff1d82e926ec794901d17c78024a50270940304540a733656f0d5f80a4600190565b5f8181525f80516020613891833981519152602090815260408083206001600160a01b038616845290915290205460ff16612bf6575f8181525f80516020613891833981519152602090815260408083206001600160a01b03861684529091529020805460ff1916600117905533916001600160a01b0316907f2f8788117e7eff1d82e926ec794901d17c78024a50270940304540a733656f0d5f80a4600190565b50505f90565b5f8181525f80516020613891833981519152602090815260408083206001600160a01b038616845290915290205460ff1615612bf6575f8181525f80516020613891833981519152602090815260408083206001600160a01b03861684529091529020805460ff1916905533916001600160a01b0316907ff6391f5c32d9c69d2a47ea670b442974b53935d1edc7fd64eb21e047a839171b5f80a4600190565b65ffffffffffff8111612cb45765ffffffffffff1690565b6306dfcc6560e41b5f52603060045260245260445ffd5b8115612cd5570490565b634e487b7160e01b5f52601260045260245ffd5b90815190612d1b612d146080850193612d028551151590565b15612d9b5760035460ff165b906133e2565b9251151590565b612d955760208301908151918282108015612d87575b612d7e57612d6a612d5b612d7093612d53612d789660406103339a0151611cce565b935190611cce565b91612d65866124e3565b612ccb565b906124fb565b612710900490565b90611cce565b50505050505f90565b506040850151821015612d31565b50905090565b606086015160ff16612d0e565b6001600160a01b038181165f8181525f805160206138118339815191526020526040812080548685166001600160a01b0319821681179092556109fc96941694612e1a9390928691907f3134e8a2e6d97e929a7e54011ea5485d7d196dd5f0ba4d4ef95803e8e3fc257f9080a461250e565b916130e1565b80549081612e2e5750505f90565b815f1981011161095d575f525f199060205f2001015460301c90565b6040516323b872dd60e01b60208201526001600160a01b0392831660248201529290911660448301526064808301939093529181526109fc916128016084836109cc565b916103339391612e9d93613415565b909291926134c0565b6001600160a01b03165f8181527f5ab42ced628888259c08ac98db1eb0cf702fc1501344311d8b100cd1bfe4bb006020526040902080546001810190915591829003612ef0575050565b6301d4b62360e61b5f5260045260245260445ffd5b5f80612f4d9260018060a01b03169360208151910182865af13d15612fa2573d90612f2f82610a0d565b91612f3d60405193846109cc565b82523d5f602084013e5b836137b2565b80518015159182612f7d575b5050612f625750565b635274afe760e01b5f526001600160a01b031660045260245ffd5b6020818101935091810103126102fa57612f9b9051610afb8161164c565b5f80612f59565b606090612f47565b6001600160d01b038111612fc4576001600160d01b031690565b6306dfcc6560e41b5f5260d060045260245260445ffd5b612fe443612c9c565b90612ffb5f80516020613871833981519152612e20565b6001600160d01b039182169082160190811161095d57613028915f805160206138718339815191526135d0565b9091565b61303543612c9c565b9061304c5f80516020613871833981519152612e20565b6001600160d01b039182169082160390811161095d57613028915f805160206138718339815191526135d0565b9061308343612c9c565b9061308d83612e20565b6001600160d01b03918216908216039190821161095d57613028926135d0565b906130b743612c9c565b906130c183612e20565b6001600160d01b03918216908216019190821161095d57613028926135d0565b6001600160a01b038083169392919081169081851415806131dc575b613109575b5050505050565b8161317e575b50508261311e575b8080613102565b7fdec2bacdd2f05b59de34da9b523dff8be42e5e38e818c82fdb0bae774387a7249161315561314f61315b93611513565b91612faa565b906130ad565b604080516001600160d01b039384168152919092166020820152a25f8080613117565b6131ba6131ab7fdec2bacdd2f05b59de34da9b523dff8be42e5e38e818c82fdb0bae774387a72492611513565b6131b486612faa565b90613079565b604080516001600160d01b039384168152919092166020820152a25f8061310f565b508315156130fd565b8015612a7b57610333906132e96132e26132d86132ce6132c46132ba6132b06132a660016132945f8b608081901c80613345575b508061322861328a9260401c90565b80613338575b506132398160201c90565b8061332b575b5061324a8160101c90565b8061331e575b5061325b8160081c90565b80613311575b5061326c8160041c90565b80613304575b5061327d8160021c90565b806132f7575b5060011c90565b6132ef5760011c90565b1b61329f818b612ccb565b0160011c90565b61329f818a612ccb565b61329f8189612ccb565b61329f8188612ccb565b61329f8187612ccb565b61329f8186612ccb565b61329f8185612ccb565b8092612ccb565b9061353c565b820160011c90565b600291509201915f613283565b600491509201915f613272565b600891509201915f613261565b601091509201915f613250565b602091509201915f61323f565b604091509201915f61322e565b60809250905061328a613219565b91905b8382106133635750505090565b9091928083169080841860011c820180921161095d57845f5265ffffffffffff8260205f2001541665ffffffffffff8416105f146133a55750925b9190613356565b9392506133b190611bbf565b9161339e565b60ff5f805160206138d18339815191525460401c16156133d357565b631afcd79f60e31b5f5260045ffd5b60035461271092613405929160ff918216911680821061340957505082906124fb565b0490565b612d65612d6a926124e3565b91907f7fffffffffffffffffffffffffffffff5d576e7357a4501ddfe92f46681b20a08411613497579160209360809260ff5f9560405194855216868401526040830152606082015282805260015afa1561348c575f516001600160a01b0381161561348257905f905f90565b505f906001905f90565b6040513d5f823e3d90fd5b5050505f9160039190565b600411156134ac57565b634e487b7160e01b5f52602160045260245ffd5b6134c9816134a2565b806134d2575050565b6134db816134a2565b600181036134f25763f645eedf60e01b5f5260045ffd5b6134fb816134a2565b60028103613516575063fce698f760e01b5f5260045260245ffd5b806135226003926134a2565b1461352a5750565b6335e2f38360e21b5f5260045260245ffd5b9080821015613549575090565b905090565b908154600160401b8110156109c75760018101808455811015611578575f9283526020928390208251929093015160301b65ffffffffffff191665ffffffffffff9290921691909117910155565b90604051604081018181106001600160401b038211176109c757604052915465ffffffffffff8116835260301c6020830152565b8054929392919082156136da576135fc6135f76135ec85611cc0565b835f5260205f200190565b61359c565b9065ffffffffffff613614835165ffffffffffff1690565b81851691829116116136cb5761368f94602094889261364761363c875165ffffffffffff1690565b65ffffffffffff1690565b0361369357506136819261365d61366892611cc0565b905f5260205f200190565b9065ffffffffffff82549181199060301b169116179055565b01516001600160d01b031690565b9190565b9150506136c6916136b36136a56109fe565b65ffffffffffff9093168352565b6001600160d01b0388168286015261354e565b613681565b632520601d60e01b5f5260045ffd5b6136fe92506136ea6136a56109fe565b6001600160d01b038516602083015261354e565b5f9190565b61370b6119ee565b805190811561371b576020012090565b50507fa16a46d94261c7517cc8ff89f61c0ce93598e3c849801011dee649a6a557d1005480156137485790565b507fc5d2460186f7233c927e7db2dcc703c0e500b653ca82273b7bfad8045d85a47090565b613775611abb565b8051908115613785576020012090565b50507fa16a46d94261c7517cc8ff89f61c0ce93598e3c849801011dee649a6a557d1015480156137485790565b906137d657508051156137c757805190602001fd5b630a12f52160e11b5f5260045ffd5b81511580613807575b6137e7575090565b639996b31560e01b5f9081526001600160a01b0391909116600452602490fd5b50803b156137df56fee8b26c30fad74198956032a3533d903385d56dd795af560196f9c78d4af40d00a16a46d94261c7517cc8ff89f61c0ce93598e3c849801011dee649a6a557d102a16a46d94261c7517cc8ff89f61c0ce93598e3c849801011dee649a6a557d103e8b26c30fad74198956032a3533d903385d56dd795af560196f9c78d4af40d0202dd7bc7dec4dceedda775e58dd541e08a116c6c53815c0bd028192f7b6268009b779b17422d0df92223018b32b4d1fa46e071723d6817e2486d003becc55f00f0c57e16840df040f15088dc2f81fe391c3923bec73e23a9662efc9c229c6a00a2646970667358221220419b225cdc40155fec669c71f72757bab9da5bd1a742ed5f831a124d78649c6764736f6c634300081a0033","linkReferences":{}},"methodIdentifiers":{"ADMIN_ROLE()":"75b238fc","CLOCK_MODE()":"4bf5d7e9","DEFAULT_ADMIN_ROLE()":"a217fddf","DENOM()":"16343da4","MAX_POSITIONS()":"f7b24e08","adminUnlocked()":"7e530d2f","balanceOf(address)":"70a08231","balanceOfAt(address,uint256)":"4ee2cd7e","balanceOfLock(address,uint256)":"de6e659c","baseToken()":"c55dae63","clock()":"91ddadf4","decimals()":"313ce567","delegate(address)":"5c19a95c","delegateBySig(address,uint256,uint256,uint8,bytes32,bytes32)":"c3cda520","delegates(address)":"587cde1e","eip712Domain()":"84b0196e","extend(uint256,uint8)":"55168c93","getMaturity(address,uint256)":"605830ef","getPastTotalSupply(uint256)":"8e539e8c","getPastVotes(address,uint256)":"3a46b1a8","getPositions(address,uint256,uint256)":"288b1c68","getRoleAdmin(bytes32)":"248a9ca3","getVotes(address)":"9ab24eb0","grantRole(bytes32,address)":"2f2ff15d","hasRole(bytes32,address)":"91d14854","initialize(address,uint8,string,string)":"42fe0980","locks(address,uint256)":"b425f802","maxWeeks()":"2b4bce31","name()":"06fdde03","nonces(address)":"7ecebe00","numPositions(address)":"b7d7702c","renounceRole(bytes32,address)":"36568abe","revokeRole(bytes32,address)":"d547741f","setAdminUnlocked(bool)":"be3956bf","setMaxWeeks(uint8)":"6e7ed07b","stake(uint256)":"a694fc3a","stakedAmountOf(address)":"5fcdad91","supportsInterface(bytes4)":"01ffc9a7","symbol()":"95d89b41","toggleAutoRenew(uint256)":"f48355b9","withdraw(uint256)":"2e1a7d4d"},"id":87}