{"abi":[{"type":"constructor","inputs":[],"stateMutability":"nonpayable"},{"type":"receive","stateMutability":"payable"},{"type":"function","name":"ADMIN_ROLE","inputs":[],"outputs":[{"name":"","type":"bytes32","internalType":"bytes32"}],"stateMutability":"view"},{"type":"function","name":"DEFAULT_ADMIN_ROLE","inputs":[],"outputs":[{"name":"","type":"bytes32","internalType":"bytes32"}],"stateMutability":"view"},{"type":"function","name":"DENOM","inputs":[],"outputs":[{"name":"","type":"uint256","internalType":"uint256"}],"stateMutability":"view"},{"type":"function","name":"OPS_ROLE","inputs":[],"outputs":[{"name":"","type":"bytes32","internalType":"bytes32"}],"stateMutability":"view"},{"type":"function","name":"castVote","inputs":[{"name":"proposalId","type":"uint256","internalType":"uint256"},{"name":"support","type":"uint8","internalType":"enum Defender.VoteType"}],"outputs":[],"stateMutability":"nonpayable"},{"type":"function","name":"countVotes","inputs":[{"name":"proposalId","type":"uint256","internalType":"uint256"},{"name":"voterIndexes","type":"uint256[]","internalType":"uint256[]"}],"outputs":[],"stateMutability":"nonpayable"},{"type":"function","name":"defendedCount","inputs":[{"name":"voter","type":"address","internalType":"address"}],"outputs":[{"name":"defendedCount","type":"uint8","internalType":"uint8"}],"stateMutability":"view"},{"type":"function","name":"finalize","inputs":[{"name":"proposalId","type":"uint256","internalType":"uint256"},{"name":"totalVEVirtual","type":"uint256","internalType":"uint256"},{"name":"finalizedAt","type":"uint256","internalType":"uint256"}],"outputs":[],"stateMutability":"nonpayable"},{"type":"function","name":"getRoleAdmin","inputs":[{"name":"role","type":"bytes32","internalType":"bytes32"}],"outputs":[{"name":"","type":"bytes32","internalType":"bytes32"}],"stateMutability":"view"},{"type":"function","name":"grantRole","inputs":[{"name":"role","type":"bytes32","internalType":"bytes32"},{"name":"account","type":"address","internalType":"address"}],"outputs":[],"stateMutability":"nonpayable"},{"type":"function","name":"hasRole","inputs":[{"name":"role","type":"bytes32","internalType":"bytes32"},{"name":"account","type":"address","internalType":"address"}],"outputs":[{"name":"","type":"bool","internalType":"bool"}],"stateMutability":"view"},{"type":"function","name":"hasVoted","inputs":[{"name":"proposalId","type":"uint256","internalType":"uint256"},{"name":"account","type":"address","internalType":"address"}],"outputs":[{"name":"","type":"bool","internalType":"bool"}],"stateMutability":"view"},{"type":"function","name":"hashProposal","inputs":[{"name":"genesisId","type":"uint256","internalType":"uint256"},{"name":"version","type":"uint256","internalType":"uint256"}],"outputs":[{"name":"","type":"uint256","internalType":"uint256"}],"stateMutability":"pure"},{"type":"function","name":"initialize","inputs":[{"name":"admin_","type":"address","internalType":"address"},{"name":"maxDefendCount_","type":"uint8","internalType":"uint8"},{"name":"veVirtual_","type":"address","internalType":"address"}],"outputs":[],"stateMutability":"nonpayable"},{"type":"function","name":"maxDefendCount","inputs":[],"outputs":[{"name":"","type":"uint8","internalType":"uint8"}],"stateMutability":"view"},{"type":"function","name":"proposalVoterCount","inputs":[{"name":"proposalId","type":"uint256","internalType":"uint256"}],"outputs":[{"name":"","type":"uint256","internalType":"uint256"}],"stateMutability":"view"},{"type":"function","name":"proposalVotes","inputs":[{"name":"proposalId","type":"uint256","internalType":"uint256"}],"outputs":[{"name":"againstVotes","type":"uint256","internalType":"uint256"},{"name":"forVotes","type":"uint256","internalType":"uint256"},{"name":"initialAgainstVotes","type":"uint256","internalType":"uint256"},{"name":"initialForVotes","type":"uint256","internalType":"uint256"},{"name":"totalVEVirtual","type":"uint256","internalType":"uint256"},{"name":"voterCount","type":"uint256","internalType":"uint256"}],"stateMutability":"view"},{"type":"function","name":"proposals","inputs":[{"name":"proposalId","type":"uint256","internalType":"uint256"}],"outputs":[{"name":"totalVEVirtual","type":"uint256","internalType":"uint256"},{"name":"finalizedAt","type":"uint256","internalType":"uint256"},{"name":"createdAt","type":"uint256","internalType":"uint256"},{"name":"state","type":"uint8","internalType":"enum Defender.ProposalState"}],"stateMutability":"view"},{"type":"function","name":"propose","inputs":[{"name":"genesisId","type":"uint256","internalType":"uint256"},{"name":"version","type":"uint256","internalType":"uint256"}],"outputs":[{"name":"","type":"uint256","internalType":"uint256"}],"stateMutability":"nonpayable"},{"type":"function","name":"quorum","inputs":[{"name":"timestamp","type":"uint256","internalType":"uint256"}],"outputs":[{"name":"","type":"uint256","internalType":"uint256"}],"stateMutability":"view"},{"type":"function","name":"renounceRole","inputs":[{"name":"role","type":"bytes32","internalType":"bytes32"},{"name":"callerConfirmation","type":"address","internalType":"address"}],"outputs":[],"stateMutability":"nonpayable"},{"type":"function","name":"revokeRole","inputs":[{"name":"role","type":"bytes32","internalType":"bytes32"},{"name":"account","type":"address","internalType":"address"}],"outputs":[],"stateMutability":"nonpayable"},{"type":"function","name":"setMaxDefendCount","inputs":[{"name":"maxDefendCount_","type":"uint8","internalType":"uint8"}],"outputs":[],"stateMutability":"nonpayable"},{"type":"function","name":"supportsInterface","inputs":[{"name":"interfaceId","type":"bytes4","internalType":"bytes4"}],"outputs":[{"name":"","type":"bool","internalType":"bool"}],"stateMutability":"view"},{"type":"function","name":"updateQuorum","inputs":[{"name":"newQuorum","type":"uint224","internalType":"uint224"}],"outputs":[],"stateMutability":"nonpayable"},{"type":"function","name":"veVirtual","inputs":[],"outputs":[{"name":"","type":"address","internalType":"contract IVEVirtual"}],"stateMutability":"view"},{"type":"function","name":"voteByAccount","inputs":[{"name":"proposalId","type":"uint256","internalType":"uint256"},{"name":"account","type":"address","internalType":"address"}],"outputs":[{"name":"","type":"uint8","internalType":"enum Defender.VoteType"},{"name":"","type":"uint256","internalType":"uint256"}],"stateMutability":"view"},{"type":"event","name":"CastVote","inputs":[{"name":"proposalId","type":"uint256","indexed":true,"internalType":"uint256"},{"name":"voter","type":"address","indexed":true,"internalType":"address"},{"name":"support","type":"uint8","indexed":false,"internalType":"enum Defender.VoteType"}],"anonymous":false},{"type":"event","name":"Finalized","inputs":[{"name":"proposalId","type":"uint256","indexed":true,"internalType":"uint256"},{"name":"totalVEVirtual","type":"uint256","indexed":false,"internalType":"uint256"},{"name":"againstVotes","type":"uint256","indexed":false,"internalType":"uint256"},{"name":"forVotes","type":"uint256","indexed":false,"internalType":"uint256"},{"name":"state","type":"uint8","indexed":false,"internalType":"enum Defender.ProposalState"}],"anonymous":false},{"type":"event","name":"Initialized","inputs":[{"name":"version","type":"uint64","indexed":false,"internalType":"uint64"}],"anonymous":false},{"type":"event","name":"ProposalCreated","inputs":[{"name":"genesisId","type":"uint256","indexed":true,"internalType":"uint256"},{"name":"version","type":"uint256","indexed":false,"internalType":"uint256"},{"name":"proposalId","type":"uint256","indexed":false,"internalType":"uint256"}],"anonymous":false},{"type":"event","name":"QuorumUpdated","inputs":[{"name":"oldQuorum","type":"uint224","indexed":false,"internalType":"uint224"},{"name":"newQuorum","type":"uint224","indexed":false,"internalType":"uint224"}],"anonymous":false},{"type":"event","name":"RoleAdminChanged","inputs":[{"name":"role","type":"bytes32","indexed":true,"internalType":"bytes32"},{"name":"previousAdminRole","type":"bytes32","indexed":true,"internalType":"bytes32"},{"name":"newAdminRole","type":"bytes32","indexed":true,"internalType":"bytes32"}],"anonymous":false},{"type":"event","name":"RoleGranted","inputs":[{"name":"role","type":"bytes32","indexed":true,"internalType":"bytes32"},{"name":"account","type":"address","indexed":true,"internalType":"address"},{"name":"sender","type":"address","indexed":true,"internalType":"address"}],"anonymous":false},{"type":"event","name":"RoleRevoked","inputs":[{"name":"role","type":"bytes32","indexed":true,"internalType":"bytes32"},{"name":"account","type":"address","indexed":true,"internalType":"address"},{"name":"sender","type":"address","indexed":true,"internalType":"address"}],"anonymous":false},{"type":"error","name":"AccessControlBadConfirmation","inputs":[]},{"type":"error","name":"AccessControlUnauthorizedAccount","inputs":[{"name":"account","type":"address","internalType":"address"},{"name":"neededRole","type":"bytes32","internalType":"bytes32"}]},{"type":"error","name":"CheckpointUnorderedInsertion","inputs":[]},{"type":"error","name":"DisabledDeposit","inputs":[]},{"type":"error","name":"ExceededMaxDefendCount","inputs":[{"name":"currentDefendCount","type":"uint8","internalType":"uint8"},{"name":"maxDefendCount","type":"uint8","internalType":"uint8"}]},{"type":"error","name":"InvalidInitialization","inputs":[]},{"type":"error","name":"NotInitializing","inputs":[]},{"type":"error","name":"ReentrancyGuardReentrantCall","inputs":[]},{"type":"error","name":"SafeCastOverflowedUintDowncast","inputs":[{"name":"bits","type":"uint8","internalType":"uint8"},{"name":"value","type":"uint256","internalType":"uint256"}]}],"bytecode":{"object":"0x6080806040523460d0577ff0c57e16840df040f15088dc2f81fe391c3923bec73e23a9662efc9c229c6a005460ff8160401c1660c1576002600160401b03196001600160401b03821601605c575b60405161219490816100d58239f35b6001600160401b0319166001600160401b039081177ff0c57e16840df040f15088dc2f81fe391c3923bec73e23a9662efc9c229c6a005581527fc7f505b2f371ae2175ee4913f4499e1f2633a7b5936321eed1cdaeb6115181d290602090a15f80604d565b63f92ee8a960e01b5f5260045ffd5b5f80fdfe6080604052600436101561001d575b3615610018575f80fd5b6116ed565b5f3560e01c8063013cf08b146101cc57806301ffc9a7146101c75780630f3ba023146101c257806316343da4146101bd578063248a9ca3146101b85780632f2ff15d146101b357806336568abe146101ae57806343859632146101a957806351f78976146101a4578063544ffc9c1461019f578063567813881461019a5780635b206ec5146101955780635b4c9c591461019057806375b238fc1461018b578063780779c21461018657806391d1485414610181578063935a66921461017c57806397ad3b6f146101775780639823a56814610172578063a217fddf1461016d578063a71b80b414610168578063cd39e1e214610163578063d547741f1461015e578063e644c94d14610159578063eb28600414610154578063f35f9e451461014f5763f8ce560a0361000e57610de5565b610c66565b610c30565b610bf3565b610bc2565b610b88565b610b36565b610b1c565b610afc565b6109fb565b6109da565b61097f565b61091d565b6108e3565b61081a565b610747565b61050c565b610453565b610427565b6103f6565b6103b2565b61037a565b610312565b6102f6565b6102bc565b610266565b61021a565b634e487b7160e01b5f52602160045260245ffd5b600511156101ef57565b6101d1565b919493929094608083019583526020830152604082015260058210156101ef5760600152565b34610262576020366003190112610262576004355f52600260205260405f20805461025e60018301549260ff600360028301549201541690604051948594856101f4565b0390f35b5f80fd5b346102625760203660031901126102625760043563ffffffff60e01b811680910361026257602090637965db0b60e01b81149081156102ab575b506040519015158152f35b6301ffc9a760e01b1490505f6102a0565b34610262575f3660031901126102625760206040517f65aa5eac1b32fde55d4db583460221274367300ae805596cf543907b5d458c008152f35b34610262575f3660031901126102625760206040516127108152f35b34610262576020366003190112610262576020610330600435610e03565b604051908152f35b602435906001600160a01b038216820361026257565b600435906001600160a01b038216820361026257565b604435906001600160a01b038216820361026257565b34610262576040366003190112610262576103b0600435610399610338565b906103ab6103a682610e03565b6117da565b6119a3565b005b34610262576040366003190112610262576004356103ce610338565b336001600160a01b038216036103e7576103b091611a4b565b63334bd91960e11b5f5260045ffd5b3461026257604036600319011261026257602061041d600435610417610338565b90610e21565b6040519015158152f35b34610262575f3660031901126102625760045460405160089190911c6001600160a01b03168152602090f35b3461026257602036600319011261026257600435805f5260026020526104bd60405f20916104af60ff60036040519561048b87610e70565b80548752600181015460208801526002810154604088015201541660608501610e50565b5f52600160205260405f2090565b9061025e82549160018401549360038101549160086002830154915192015492604051968796879260a094919796959260c0850198855260208501526040840152606083015260808201520152565b3461026257604036600319011261026257602435600435600382101561026257805f52600260205260ff600360405f2001541660058110156101ef5760016105549114610f1a565b60025f8051602061211f83398151915254146107385760025f8051602061211f8339815191525561058482610b71565b60028214808015610725575b61059990610f5c565b335f9081526003602052604090206105b3905b5460ff1690565b60045460ff90811691168111156106eb5750335f9081526003602052604090206105f8906105ea6105e5825460ff1690565b610fab565b60ff1660ff19825416179055565b61061161060c6106083385610e21565b1590565b610fbc565b610623825f52600160205260405f2090565b335f9081526004820160205260409020909190610648905b805460ff19166001179055565b6106553360088401611026565b61065e84610b71565b156106d757335f9081526005820160205260409020600291906106809061063b565b0161068b8154611067565b90555b7face7ade783ab8c8689636e5bc78af9ff5d4c4d937a9a6e54092ea4ff945dacc9604051806106be339582611075565b0390a36103b060015f8051602061211f83398151915255565b6003016106e48154611067565b905561068e565b335f9081526003602052604090206107229190610707906105ac565b63fc64c51f60e01b5f5260ff90811660045216602452604490565b5ffd5b5061072f83610b71565b60018314610590565b633ee5aeb560e01b5f5260045ffd5b34610262576060366003190112610262576024356044356004356107696116fc565b805f52600260205260ff600360405f2001541660058110156101ef5760016107919114610f1a565b5f52600260205260405f20428211158061080d575b156107d257826003926107bd6103b0951515611085565b6001830155815501805460ff19166002179055565b60405162461bcd60e51b8152602060048201526013602482015272125b9d985b1a5908199a5b985b1a5e9959105d606a1b6044820152606490fd5b50600281015482116107a6565b34610262576040366003190112610262576024356004356108396116fc565b6108438282611456565b9060405161085081610e70565b5f8152602081015f815260408201428152606083019160018352855f52600260205260405f20935184555160018401555160028301555160058110156101ef5761025e946108c3859260037fa6a21b90631faacde52b977eb6e15e5707522fbbba8eddef55ed173ffde48efa95016110ca565b604080519182526020820192909252a26040519081529081906020820190565b34610262575f3660031901126102625760206040517fa49807205ce4d355092ef5a8a18f56e8913cf4a201fbe287825b095693c217758152f35b346102625760403660031901126102625760243560043567ffffffffffffffff821161026257366023830112156102625781600401359067ffffffffffffffff8211610262573660248360051b850101116102625760246103b0930190611182565b3461026257604036600319011261026257602060ff6109ce6004356109a2610338565b905f525f805160206120ff833981519152845260405f209060018060a01b03165f5260205260405f2090565b54166040519015158152f35b34610262576040366003190112610262576020610330602435600435611456565b34610262576020366003190112610262576004356001600160e01b0381169081810361026257610a2961176b565b5f5480610abf57505f5b610a3c42611bb9565b926001600160d01b038111610aa857507fcd95ef72661846d9156e45d16b0aba02495d0bdff56c28057171e9464f3fc27092610a82906001600160d01b03841690611d7e565b5050604080516001600160e01b039283168152929091166020830152819081015b0390a1005b6306dfcc6560e41b5f5260d060045260245260445ffd5b805f19810111610af7575f80527f290decd9548b62a8d60345a988386fc84ba6bc95484008f6362f93160ef3e562015460201c610a33565b610f97565b34610262575f36600319011261026257602060ff60045416604051908152f35b34610262575f3660031901126102625760206040515f8152f35b34610262576020366003190112610262576001600160a01b03610b5761034e565b165f526003602052602060ff60405f205416604051908152f35b600311156101ef57565b9060038210156101ef5752565b34610262576040366003190112610262576040610baf600435610ba9610338565b9061147c565b610bbb83518093610b7b565b6020820152f35b34610262576040366003190112610262576103b0600435610be1610338565b90610bee6103a682610e03565b611a4b565b34610262576020366003190112610262576004355f5260016020526020600860405f200154604051908152f35b6024359060ff8216820361026257565b346102625760203660031901126102625760043560ff811680910361026257610c5761176b565b60ff1960045416176004555f80f35b3461026257606036600319011261026257610c7f61034e565b610c87610c20565b90610c90610364565b5f8051602061213f833981519152549267ffffffffffffffff610cc360ff604087901c16159567ffffffffffffffff1690565b1680159081610ddd575b6001149081610dd3575b159081610dca575b50610dbb57610d239284610d1a600167ffffffffffffffff195f8051602061213f8339815191525416175f8051602061213f83398151915255565b610d8657611517565b610d2957005b610d5360ff60401b195f8051602061213f83398151915254165f8051602061213f83398151915255565b604051600181527fc7f505b2f371ae2175ee4913f4499e1f2633a7b5936321eed1cdaeb6115181d2908060208101610aa3565b610db6600160401b60ff60401b195f8051602061213f8339815191525416175f8051602061213f83398151915255565b611517565b63f92ee8a960e01b5f5260045ffd5b9050155f610cdf565b303b159150610cd7565b859150610ccd565b3461026257602036600319011261026257602061033060043561164e565b5f525f805160206120ff833981519152602052600160405f20015490565b60ff91610e4b915f526001602052600460405f20019060018060a01b03165f5260205260405f2090565b541690565b60058210156101ef5752565b634e487b7160e01b5f52604160045260245ffd5b6080810190811067ffffffffffffffff821117610e8c57604052565b610e5c565b6040810190811067ffffffffffffffff821117610e8c57604052565b90601f8019910116810190811067ffffffffffffffff821117610e8c57604052565b60405190610ede604083610ead565b565b90610ede604051610ef081610e70565b606060ff600383968054855260018101546020860152600281015460408601520154169101610e50565b15610f2157565b60405162461bcd60e51b815260206004820152601360248201527250726f706f73616c206e6f742061637469766560681b6044820152606490fd5b15610f6357565b60405162461bcd60e51b815260206004820152600c60248201526b496e76616c696420766f746560a01b6044820152606490fd5b634e487b7160e01b5f52601160045260245ffd5b60ff1660ff8114610af75760010190565b15610fc357565b60405162461bcd60e51b815260206004820152600d60248201526c105b1c9958591e481d9bdd1959609a1b6044820152606490fd5b634e487b7160e01b5f52603260045260245ffd5b8054821015611021575f5260205f2001905f90565b610ff8565b8054600160401b811015610e8c576110439160018201815561100c565b81546001600160a01b0393841660039290921b91821b9390911b1916919091179055565b5f198114610af75760010190565b602081019291610ede9190610b7b565b1561108c57565b60405162461bcd60e51b8152602060048201526016602482015275125b9d985b1a59081d1bdd185b1591559a5c9d1d585b60521b6044820152606490fd5b9060058110156101ef5760ff80198354169116179055565b156110e957565b60405162461bcd60e51b815260206004820152601760248201527f50726f706f73616c206e6f742066696e616c697a696e670000000000000000006044820152606490fd5b91908110156110215760051b0190565b90816020910312610262575190565b6040513d5f823e3d90fd5b9060018201809211610af757565b91908201809211610af757565b60ff168015610af7575f190190565b919061119e611199845f52600260205260405f2090565b610ee0565b906111b1845f52600160205260405f2090565b916111d4600260608301516111c5816101e5565b6111ce816101e5565b146110e2565b5f90600884019460048501925b818110611204575050505050600901549054146111fb5750565b610ede90611aeb565b61123161121c61121583858961112e565b358961100c565b905460039190911b1c6001600160a01b031690565b9061124f6105ac83879060018060a01b03165f5260205260405f2090565b8061142a575b611264575b60019150016111e1565b6004546112b2929060209060081c6001600160a01b03168682015160405163277166bf60e11b81526001600160a01b0385166004820152602481019190915294859190829081906044820190565b03915afa8015611425576001935f916113f7575b5060078901906112e683839060018060a01b03165f5260205260405f2090565b556001600160a01b0382165f90815260068a01602052604090206113099061063b565b6001600160a01b0382165f90815260058a0160205260409020829061132d906105ac565b156113cd576001600160a01b03165f9081526020919091526040902054611358848a01918254611166565b90555b600988016113698154611067565b90556001600160a01b0381165f90815260036020526040902060ff9061138e906105ac565b1661139a575b5061125a565b6001600160a01b03165f9081526003602052604090206113c7906105ea6113c2825460ff1690565b611173565b5f611394565b6001600160a01b03165f908152602091909152604090206113f090548954611166565b885561135b565b611418915060203d811161141e575b6114108183610ead565b81019061113e565b5f6112c6565b503d611406565b61114d565b506001600160a01b0382165f908152600688016020526040902061145190610608906105ac565b611255565b604080516020810192835280820193909352825290611476606082610ead565b51902090565b5f52600160205260405f209060ff6114a782600485019060018060a01b03165f5260205260405f2090565b54161561150f576001600160a01b0381165f90815260058301602052604090205460ff166114ef576001600160a01b03165f9081526007919091016020526040902054600191565b6001600160a01b03165f9081526007919091016020526040902054600291565b50505f905f90565b919091611522611f33565b61152a611f33565b611532611f33565b60015f8051602061211f8339815191525561154c33611820565b50611556816118cf565b506001600160a01b031615611603576001600160a01b031680156115be5761158b6115b29260ff1660ff196004541617600455565b60048054610100600160a81b03191660089290921b610100600160a81b0316919091179055565b6115ba611e8f565b5050565b60405162461bcd60e51b815260206004820152601960248201527f496e76616c69642076655669727475616c2061646472657373000000000000006044820152606490fd5b60405162461bcd60e51b8152602060048201526015602482015274496e76616c69642061646d696e206164647265737360581b6044820152606490fd5b5f19810191908211610af757565b5f545f198101908111610af75761166490611bb9565b5f602060405161167381610e91565b82815201525f54811015611021575f805261169c905f805160206120df83398151915201611be4565b80516020909101516001600160e01b03169063ffffffff168210156116df57506116d06116cb6116dc92611bb9565b611c06565b6001600160e01b031690565b90565b6001600160e01b0316919050565b636df9fbff60e11b5f5260045ffd5b335f9081527ff9232fdb47376373f124299514419be5e88f294fb4878ffd53802c02c557618f602052604090205460ff161561173457565b63e2517d3f60e01b5f52336004527f65aa5eac1b32fde55d4db583460221274367300ae805596cf543907b5d458c0060245260445ffd5b335f9081527fb16e88c42fd4e48df2dd6a2eabd6bc9aec654ec170056b470819f8892cc6431c602052604090205460ff16156117a357565b63e2517d3f60e01b5f52336004527fa49807205ce4d355092ef5a8a18f56e8913cf4a201fbe287825b095693c2177560245260445ffd5b5f8181525f805160206120ff8339815191526020908152604080832033845290915290205460ff161561180a5750565b63e2517d3f60e01b5f523360045260245260445ffd5b6001600160a01b0381165f9081527fb7db2dd08fcb62d0c9e08c51941cae53c267786a0b75803fb7960902fc8ef97d602052604090205460ff166118ca576001600160a01b03165f8181527fb7db2dd08fcb62d0c9e08c51941cae53c267786a0b75803fb7960902fc8ef97d60205260408120805460ff191660011790553391907f2f8788117e7eff1d82e926ec794901d17c78024a50270940304540a733656f0d8180a4600190565b505f90565b6001600160a01b0381165f9081527fb16e88c42fd4e48df2dd6a2eabd6bc9aec654ec170056b470819f8892cc6431c602052604090205460ff166118ca576001600160a01b0381165f9081527fb16e88c42fd4e48df2dd6a2eabd6bc9aec654ec170056b470819f8892cc6431c60205260409020805460ff1916600117905533906001600160a01b03167fa49807205ce4d355092ef5a8a18f56e8913cf4a201fbe287825b095693c217757f2f8788117e7eff1d82e926ec794901d17c78024a50270940304540a733656f0d5f80a4600190565b5f8181525f805160206120ff833981519152602090815260408083206001600160a01b038616845290915290205460ff16611a45575f8181525f805160206120ff833981519152602090815260408083206001600160a01b03861684529091529020805460ff1916600117905533916001600160a01b0316907f2f8788117e7eff1d82e926ec794901d17c78024a50270940304540a733656f0d5f80a4600190565b50505f90565b5f8181525f805160206120ff833981519152602090815260408083206001600160a01b038616845290915290205460ff1615611a45575f8181525f805160206120ff833981519152602090815260408083206001600160a01b03861684529091529020805460ff1916905533916001600160a01b0316907ff6391f5c32d9c69d2a47ea670b442974b53935d1edc7fd64eb21e047a839171b5f80a4600190565b805f52600260205260405f20815f52600160205260405f20908054918054926001820192835480860195868111610af757611b254261164e565b93848102948186041490151715610af7577f207f8973b67001ee985ac587c4386a6eca28cb29e02aa7c988e7de09bd55d50696612710611b9f950411159182611baf575b505015611ba457611b926004915b611b856003820193846110ca565b5493549454915460ff1690565b90604051948594856101f4565b0390a2565b611b92600391611b77565b1190505f80611b69565b63ffffffff8111611bcd5763ffffffff1690565b6306dfcc6560e41b5f52602060045260245260445ffd5b90604051611bf181610e91565b602081935463ffffffff81168352811c910152565b5f54905f918060058211611cb0575b63ffffffff9150929116905b828110611c5f57505080611c3457505f90565b611c58611c436116dc92611640565b5f80525f805160206120df8339815191520190565b5460201c90565b90918082169080831860011c8201809211610af7575f80525f805160206120df83398151915282015463ffffffff16841015611c9e5750915b90611c21565b929150611caa90611158565b90611c98565b611cb982611f5e565b8203918211610af7575f80525f805160206120df83398151915282015463ffffffff9081169084161015611cf3575063ffffffff90611c15565b9250611d0363ffffffff91611158565b92611c15565b8115611d13570490565b634e487b7160e01b5f52601260045260245ffd5b8054600160401b811015610e8c57611d449160018201815561100c565b611d6b57815160209283015190921b63ffffffff191663ffffffff92909216919091179055565b634e487b7160e01b5f525f60045260245ffd5b5f54919291908115611e665781611da4611d9f611c4363ffffffff95611640565b611be4565b90611db3825163ffffffff1690565b8484169485911611611e575785602093611e1b95611de1611dd8865163ffffffff1690565b63ffffffff1690565b03611e1f5750611df6611c43611e0d93611640565b9063ffffffff82549181199060201b169116179055565b01516001600160e01b031690565b9190565b9050611e529150611e3d611e31610ecf565b63ffffffff9092168252565b6001600160e01b038716818501525b5f611d27565b611e0d565b632520601d60e01b5f5260045ffd5b611e8a9150611e76611e31610ecf565b6001600160e01b0384166020820152611e4c565b5f9190565b5f548015611f0f57611ea6611d9f611c4383611640565b9063ffffffff611eba835163ffffffff1690565b16611e575781602091611ed7611dd8611eed955163ffffffff1690565b611ef457610bb8611df6611c43611e0d93611640565b90610bb890565b50611e52611f00610ecf565b5f8152610bb881850152611e4c565b50611f2b611f1b610ecf565b5f8152610bb86020820152611e4c565b5f90610bb890565b60ff5f8051602061213f8339815191525460401c1615611f4f57565b631afcd79f60e31b5f5260045ffd5b80156118ca576116dc9061206261205b61205161204761203d61203361202961201f600161200d5f8b608081901c806120be575b5080611fa16120039260401c90565b806120b1575b50611fb28160201c90565b806120a4575b50611fc38160101c90565b80612097575b50611fd48160081c90565b8061208a575b50611fe58160041c90565b8061207d575b50611ff68160021c90565b80612070575b5060011c90565b6120685760011c90565b1b612018818b611d09565b0160011c90565b612018818a611d09565b6120188189611d09565b6120188188611d09565b6120188187611d09565b6120188186611d09565b6120188185611d09565b8092611d09565b906120cc565b820160011c90565b600291509201915f611ffc565b600491509201915f611feb565b600891509201915f611fda565b601091509201915f611fc9565b602091509201915f611fb8565b604091509201915f611fa7565b608092509050612003611f92565b90808210156120d9575090565b90509056fe290decd9548b62a8d60345a988386fc84ba6bc95484008f6362f93160ef3e56302dd7bc7dec4dceedda775e58dd541e08a116c6c53815c0bd028192f7b6268009b779b17422d0df92223018b32b4d1fa46e071723d6817e2486d003becc55f00f0c57e16840df040f15088dc2f81fe391c3923bec73e23a9662efc9c229c6a00a26469706673582212205d6e96042ae5b5d000bab72420e42f1788ea08a66ecd63e3ed2b4cf44923a6a964736f6c634300081a0033","linkReferences":{}},"methodIdentifiers":{"ADMIN_ROLE()":"75b238fc","DEFAULT_ADMIN_ROLE()":"a217fddf","DENOM()":"16343da4","OPS_ROLE()":"0f3ba023","castVote(uint256,uint8)":"56781388","countVotes(uint256,uint256[])":"780779c2","defendedCount(address)":"a71b80b4","finalize(uint256,uint256,uint256)":"5b206ec5","getRoleAdmin(bytes32)":"248a9ca3","grantRole(bytes32,address)":"2f2ff15d","hasRole(bytes32,address)":"91d14854","hasVoted(uint256,address)":"43859632","hashProposal(uint256,uint256)":"935a6692","initialize(address,uint8,address)":"f35f9e45","maxDefendCount()":"9823a568","proposalVoterCount(uint256)":"e644c94d","proposalVotes(uint256)":"544ffc9c","proposals(uint256)":"013cf08b","propose(uint256,uint256)":"5b4c9c59","quorum(uint256)":"f8ce560a","renounceRole(bytes32,address)":"36568abe","revokeRole(bytes32,address)":"d547741f","setMaxDefendCount(uint8)":"eb286004","supportsInterface(bytes4)":"01ffc9a7","updateQuorum(uint224)":"97ad3b6f","veVirtual()":"51f78976","voteByAccount(uint256,address)":"cd39e1e2"},"id":33}