{"abi":[{"type":"constructor","inputs":[],"stateMutability":"nonpayable"},{"type":"function","name":"K","inputs":[],"outputs":[{"name":"","type":"uint256","internalType":"uint256"}],"stateMutability":"view"},{"type":"function","name":"VirtualIdBase","inputs":[],"outputs":[{"name":"","type":"uint256","internalType":"uint256"}],"stateMutability":"view"},{"type":"function","name":"acpSkillLaunchFee","inputs":[],"outputs":[{"name":"","type":"uint256","internalType":"uint256"}],"stateMutability":"view"},{"type":"function","name":"agentFactory","inputs":[],"outputs":[{"name":"","type":"address","internalType":"address"}],"stateMutability":"view"},{"type":"function","name":"assetRate","inputs":[],"outputs":[{"name":"","type":"uint256","internalType":"uint256"}],"stateMutability":"view"},{"type":"function","name":"buy","inputs":[{"name":"amountIn","type":"uint256","internalType":"uint256"},{"name":"tokenAddress","type":"address","internalType":"address"},{"name":"amountOutMin","type":"uint256","internalType":"uint256"},{"name":"deadline","type":"uint256","internalType":"uint256"}],"outputs":[{"name":"","type":"bool","internalType":"bool"}],"stateMutability":"payable"},{"type":"function","name":"cancelLaunch","inputs":[{"name":"_tokenAddress","type":"address","internalType":"address"}],"outputs":[],"stateMutability":"nonpayable"},{"type":"function","name":"factory","inputs":[],"outputs":[{"name":"","type":"address","internalType":"contract FFactoryV2"}],"stateMutability":"view"},{"type":"function","name":"fee","inputs":[],"outputs":[{"name":"","type":"uint256","internalType":"uint256"}],"stateMutability":"view"},{"type":"function","name":"gradThreshold","inputs":[],"outputs":[{"name":"","type":"uint256","internalType":"uint256"}],"stateMutability":"view"},{"type":"function","name":"initialSupply","inputs":[],"outputs":[{"name":"","type":"uint256","internalType":"uint256"}],"stateMutability":"view"},{"type":"function","name":"initialize","inputs":[{"name":"factory_","type":"address","internalType":"address"},{"name":"router_","type":"address","internalType":"address"},{"name":"feeTo_","type":"address","internalType":"address"},{"name":"fee_","type":"uint256","internalType":"uint256"},{"name":"initialSupply_","type":"uint256","internalType":"uint256"},{"name":"assetRate_","type":"uint256","internalType":"uint256"},{"name":"maxTx_","type":"uint256","internalType":"uint256"},{"name":"agentFactory_","type":"address","internalType":"address"},{"name":"gradThreshold_","type":"uint256","internalType":"uint256"},{"name":"startTimeDelay_","type":"uint256","internalType":"uint256"}],"outputs":[],"stateMutability":"nonpayable"},{"type":"function","name":"isAcpSkillLaunch","inputs":[{"name":"","type":"address","internalType":"address"}],"outputs":[{"name":"","type":"bool","internalType":"bool"}],"stateMutability":"view"},{"type":"function","name":"isAcpSkillLauncher","inputs":[{"name":"","type":"address","internalType":"address"}],"outputs":[{"name":"","type":"bool","internalType":"bool"}],"stateMutability":"view"},{"type":"function","name":"isProjectXLaunch","inputs":[{"name":"","type":"address","internalType":"address"}],"outputs":[{"name":"","type":"bool","internalType":"bool"}],"stateMutability":"view"},{"type":"function","name":"isXLauncher","inputs":[{"name":"","type":"address","internalType":"address"}],"outputs":[{"name":"","type":"bool","internalType":"bool"}],"stateMutability":"view"},{"type":"function","name":"launch","inputs":[{"name":"_tokenAddress","type":"address","internalType":"address"}],"outputs":[{"name":"","type":"address","internalType":"address"},{"name":"","type":"address","internalType":"address"},{"name":"","type":"uint256","internalType":"uint256"},{"name":"","type":"uint256","internalType":"uint256"}],"stateMutability":"nonpayable"},{"type":"function","name":"launchParams","inputs":[],"outputs":[{"name":"startTimeDelay","type":"uint256","internalType":"uint256"},{"name":"teamTokenReservedSupply","type":"uint256","internalType":"uint256"},{"name":"teamTokenReservedWallet","type":"address","internalType":"address"}],"stateMutability":"view"},{"type":"function","name":"maxTx","inputs":[],"outputs":[{"name":"","type":"uint256","internalType":"uint256"}],"stateMutability":"view"},{"type":"function","name":"owner","inputs":[],"outputs":[{"name":"","type":"address","internalType":"address"}],"stateMutability":"view"},{"type":"function","name":"preLaunch","inputs":[{"name":"_name","type":"string","internalType":"string"},{"name":"_ticker","type":"string","internalType":"string"},{"name":"cores","type":"uint8[]","internalType":"uint8[]"},{"name":"desc","type":"string","internalType":"string"},{"name":"img","type":"string","internalType":"string"},{"name":"urls","type":"string[4]","internalType":"string[4]"},{"name":"purchaseAmount","type":"uint256","internalType":"uint256"},{"name":"startTime","type":"uint256","internalType":"uint256"},{"name":"launchMode_","type":"uint8","internalType":"uint8"}],"outputs":[{"name":"","type":"address","internalType":"address"},{"name":"","type":"address","internalType":"address"},{"name":"","type":"uint256","internalType":"uint256"},{"name":"","type":"uint256","internalType":"uint256"}],"stateMutability":"nonpayable"},{"type":"function","name":"projectXLaunchFee","inputs":[],"outputs":[{"name":"","type":"uint256","internalType":"uint256"}],"stateMutability":"view"},{"type":"function","name":"renounceOwnership","inputs":[],"outputs":[],"stateMutability":"nonpayable"},{"type":"function","name":"router","inputs":[],"outputs":[{"name":"","type":"address","internalType":"contract FRouterV2"}],"stateMutability":"view"},{"type":"function","name":"sell","inputs":[{"name":"amountIn","type":"uint256","internalType":"uint256"},{"name":"tokenAddress","type":"address","internalType":"address"},{"name":"amountOutMin","type":"uint256","internalType":"uint256"},{"name":"deadline","type":"uint256","internalType":"uint256"}],"outputs":[{"name":"","type":"bool","internalType":"bool"}],"stateMutability":"nonpayable"},{"type":"function","name":"setAcpSkillLaunchFee","inputs":[{"name":"newAcpSkillLaunchFee","type":"uint256","internalType":"uint256"}],"outputs":[],"stateMutability":"nonpayable"},{"type":"function","name":"setAcpSkillLauncher","inputs":[{"name":"launcher","type":"address","internalType":"address"},{"name":"allowed","type":"bool","internalType":"bool"}],"outputs":[],"stateMutability":"nonpayable"},{"type":"function","name":"setDeployParams","inputs":[{"name":"params","type":"tuple","internalType":"struct BondingV4.DeployParams","components":[{"name":"tbaSalt","type":"bytes32","internalType":"bytes32"},{"name":"tbaImplementation","type":"address","internalType":"address"},{"name":"daoVotingPeriod","type":"uint32","internalType":"uint32"},{"name":"daoThreshold","type":"uint256","internalType":"uint256"}]}],"outputs":[],"stateMutability":"nonpayable"},{"type":"function","name":"setLaunchParams","inputs":[{"name":"params","type":"tuple","internalType":"struct BondingV4.LaunchParams","components":[{"name":"startTimeDelay","type":"uint256","internalType":"uint256"},{"name":"teamTokenReservedSupply","type":"uint256","internalType":"uint256"},{"name":"teamTokenReservedWallet","type":"address","internalType":"address"}]}],"outputs":[],"stateMutability":"nonpayable"},{"type":"function","name":"setProjectXLaunchFee","inputs":[{"name":"newProjectXLaunchFee","type":"uint256","internalType":"uint256"}],"outputs":[],"stateMutability":"nonpayable"},{"type":"function","name":"setTokenParams","inputs":[{"name":"newSupply","type":"uint256","internalType":"uint256"},{"name":"newGradThreshold","type":"uint256","internalType":"uint256"},{"name":"newMaxTx","type":"uint256","internalType":"uint256"},{"name":"newAssetRate","type":"uint256","internalType":"uint256"},{"name":"newFee","type":"uint256","internalType":"uint256"},{"name":"newFeeTo","type":"address","internalType":"address"}],"outputs":[],"stateMutability":"nonpayable"},{"type":"function","name":"setXLauncher","inputs":[{"name":"launcher","type":"address","internalType":"address"},{"name":"allowed","type":"bool","internalType":"bool"}],"outputs":[],"stateMutability":"nonpayable"},{"type":"function","name":"tokenInfo","inputs":[{"name":"","type":"address","internalType":"address"}],"outputs":[{"name":"creator","type":"address","internalType":"address"},{"name":"token","type":"address","internalType":"address"},{"name":"pair","type":"address","internalType":"address"},{"name":"agentToken","type":"address","internalType":"address"},{"name":"data","type":"tuple","internalType":"struct BondingV4.Data","components":[{"name":"token","type":"address","internalType":"address"},{"name":"name","type":"string","internalType":"string"},{"name":"_name","type":"string","internalType":"string"},{"name":"ticker","type":"string","internalType":"string"},{"name":"supply","type":"uint256","internalType":"uint256"},{"name":"price","type":"uint256","internalType":"uint256"},{"name":"marketCap","type":"uint256","internalType":"uint256"},{"name":"liquidity","type":"uint256","internalType":"uint256"},{"name":"volume","type":"uint256","internalType":"uint256"},{"name":"volume24H","type":"uint256","internalType":"uint256"},{"name":"prevPrice","type":"uint256","internalType":"uint256"},{"name":"lastUpdated","type":"uint256","internalType":"uint256"}]},{"name":"description","type":"string","internalType":"string"},{"name":"image","type":"string","internalType":"string"},{"name":"twitter","type":"string","internalType":"string"},{"name":"telegram","type":"string","internalType":"string"},{"name":"youtube","type":"string","internalType":"string"},{"name":"website","type":"string","internalType":"string"},{"name":"trading","type":"bool","internalType":"bool"},{"name":"tradingOnUniswap","type":"bool","internalType":"bool"},{"name":"applicationId","type":"uint256","internalType":"uint256"},{"name":"initialPurchase","type":"uint256","internalType":"uint256"},{"name":"virtualId","type":"uint256","internalType":"uint256"},{"name":"launchExecuted","type":"bool","internalType":"bool"}],"stateMutability":"view"},{"type":"function","name":"tokenInfos","inputs":[{"name":"","type":"uint256","internalType":"uint256"}],"outputs":[{"name":"","type":"address","internalType":"address"}],"stateMutability":"view"},{"type":"function","name":"transferOwnership","inputs":[{"name":"newOwner","type":"address","internalType":"address"}],"outputs":[],"stateMutability":"nonpayable"},{"type":"event","name":"CancelledLaunch","inputs":[{"name":"token","type":"address","indexed":true,"internalType":"address"},{"name":"pair","type":"address","indexed":true,"internalType":"address"},{"name":"","type":"uint256","indexed":false,"internalType":"uint256"},{"name":"initialPurchase","type":"uint256","indexed":false,"internalType":"uint256"}],"anonymous":false},{"type":"event","name":"Deployed","inputs":[{"name":"token","type":"address","indexed":true,"internalType":"address"},{"name":"amount0","type":"uint256","indexed":false,"internalType":"uint256"},{"name":"amount1","type":"uint256","indexed":false,"internalType":"uint256"}],"anonymous":false},{"type":"event","name":"Graduated","inputs":[{"name":"token","type":"address","indexed":true,"internalType":"address"},{"name":"agentToken","type":"address","indexed":false,"internalType":"address"}],"anonymous":false},{"type":"event","name":"Initialized","inputs":[{"name":"version","type":"uint64","indexed":false,"internalType":"uint64"}],"anonymous":false},{"type":"event","name":"Launched","inputs":[{"name":"token","type":"address","indexed":true,"internalType":"address"},{"name":"pair","type":"address","indexed":true,"internalType":"address"},{"name":"","type":"uint256","indexed":false,"internalType":"uint256"},{"name":"initialPurchase","type":"uint256","indexed":false,"internalType":"uint256"},{"name":"initialPurchasedAmount","type":"uint256","indexed":false,"internalType":"uint256"}],"anonymous":false},{"type":"event","name":"OwnershipTransferred","inputs":[{"name":"previousOwner","type":"address","indexed":true,"internalType":"address"},{"name":"newOwner","type":"address","indexed":true,"internalType":"address"}],"anonymous":false},{"type":"event","name":"PreLaunched","inputs":[{"name":"token","type":"address","indexed":true,"internalType":"address"},{"name":"pair","type":"address","indexed":true,"internalType":"address"},{"name":"","type":"uint256","indexed":false,"internalType":"uint256"},{"name":"initialPurchase","type":"uint256","indexed":false,"internalType":"uint256"}],"anonymous":false},{"type":"error","name":"AddressEmptyCode","inputs":[{"name":"target","type":"address","internalType":"address"}]},{"type":"error","name":"AddressInsufficientBalance","inputs":[{"name":"account","type":"address","internalType":"address"}]},{"type":"error","name":"FailedInnerCall","inputs":[]},{"type":"error","name":"InvalidInitialization","inputs":[]},{"type":"error","name":"InvalidInput","inputs":[]},{"type":"error","name":"InvalidTokenStatus","inputs":[]},{"type":"error","name":"NotInitializing","inputs":[]},{"type":"error","name":"OwnableInvalidOwner","inputs":[{"name":"owner","type":"address","internalType":"address"}]},{"type":"error","name":"OwnableUnauthorizedAccount","inputs":[{"name":"account","type":"address","internalType":"address"}]},{"type":"error","name":"ReentrancyGuardReentrantCall","inputs":[]},{"type":"error","name":"SafeERC20FailedOperation","inputs":[{"name":"token","type":"address","internalType":"address"}]},{"type":"error","name":"SlippageTooHigh","inputs":[]},{"type":"error","name":"UnauthorizedLauncher","inputs":[]}],"bytecode":{"object":"0x6080806040523460d0577ff0c57e16840df040f15088dc2f81fe391c3923bec73e23a9662efc9c229c6a005460ff8160401c1660c1576002600160401b03196001600160401b03821601605c575b604051612ee590816100d58239f35b6001600160401b0319166001600160401b039081177ff0c57e16840df040f15088dc2f81fe391c3923bec73e23a9662efc9c229c6a005581527fc7f505b2f371ae2175ee4913f4499e1f2633a7b5936321eed1cdaeb6115181d290602090a15f80604d565b63f92ee8a960e01b5f5260045ffd5b5f80fdfe60a0806040526004361015610012575f80fd5b5f905f3560e01c90816306a9f4ef14611ffe57508063214013ca1461127e578063378dc3dc14611260578063398d50e11461123d5780633b85d7711461121d5780634034bc00146111ff5780634141919c146111c057806343fb4d24146111255780634aa74a26146111025780635421575e14610f3c5780635939afe414610efd5780636edd12e014610edf578063706910ff14610e70578063715018a614610e075780637437681e14610de95780637c13774b14610d895780637df107ea14610d605780638da5cb5b14610d2b5780639e6e0c8914610c9b578063a76897f714610c7d578063a932492f14610c5c578063b20c84c814610c25578063b233e05614610ade578063b5d85c211461089b578063b701972a1461085c578063c45a015514610833578063cd6d4386146107f4578063ddca3f43146107d6578063e24780c714610797578063e33d206f146105f6578063e8e6ed69146105d8578063f2fde38b146105ab578063f5dab71114610245578063f887ea401461021c5763ff0049e11461019f575f80fd5b346102195760c03660031901126102195760a4356001600160a01b0381169060643590829003610215576101d1612cb9565b8015610206576004356003556024356006556044356007556005556084356004556001600160601b0360a01b82541617815580f35b63b4fa3fb360e01b8352600483fd5b8280fd5b80fd5b50346102195780600319360112610219576002546040516001600160a01b039091168152602090f35b5034610219576020366003190112610219576001600160a01b03610267612037565b168152600c6020526040808220805460018201546002830154600384015494516001600160a01b0395861696938616959283169392909116916101808201908282106001600160401b03831117610597575060405260048401546001600160a01b031681526102d8600585016121af565b60208201526102e9600685016121af565b60408201526102fa600785016121af565b606082015260088401546080820152600984015460a0820152600a84015460c0820152600b84015460e0820152600c840154610100820152600d840154610120820152600e840154610140820152600f84015461016082015261035f601085016121af565b61036b601286016121af565b610377601387016121af565b610383601488016121af565b91610390601589016121af565b9361039d60168a016121af565b9560178a01549b60188b01549860198c01549a601a8d01549c601b015460ff169d604051608052608051526080516020015260805160400152608051606001526080516080016102209052600160a01b60019003815116608051610220015260208101516080516102400161018090526080516103a00161041d9161227b565b60408201519061021f19608051820301608051610260015261043e9161227b565b60608201519061021f19608051820301608051610280015261045f9161227b565b9060808101516080516102a0015260a08101516080516102c0015260c08101516080516102e0015260e0810151608051610300015261010081015160805161032001526101208101516080516103400152610140810151608051610360015261016001516080516103800152608051810360805160a001526104e09161227b565b608051810360805160c001526104f59161227b565b608051810360805160e0015261050a9161227b565b608051810360805161010001526105209161227b565b608051810360805161012001526105369161227b565b6080518103608051610140015261054c9161227b565b9460ff81161515608051610160015260081c60ff16151560805161018001526080516101a001526080516101c001526080516101e00152151560805161020001526080519003608051f35b634e487b7160e01b81526041600452602490fd5b5034610219576020366003190112610219576105d56105c8612037565b6105d0612cb9565b6122ea565b80f35b50346102195780600319360112610219576020600554604051908152f35b5034610219576020366003190112610219576001600160a01b03610618612037565b16808252600c6020526040822060018101546001600160a01b0316158015610782575b6102065780546001600160a01b03163381900361077357601b82019060ff82541661076457849060198401908154806106cc575b505055600160ff19825416179055600260018060a01b039101541690808352600c6020527f7f9759070d2e707c297824b408d7d1739aa72e3329ae1bf3f77fb321d6856f936040601a81862001548151908152856020820152a380f35b600254604051631083f76160e01b81529290602090849060049082906001600160a01b03165afa801561075957859061071a575b61071393506001600160a01b0316612c7d565b5f8061066f565b506020833d602011610751575b81610734602093836120a8565b8101031261074d576107486107139361229f565b610700565b8480fd5b3d9150610727565b6040513d87823e3d90fd5b63d4181deb60e01b8552600485fd5b63b4fa3fb360e01b8452600484fd5b5060028101546001600160a01b03161561063b565b5034610219576105d56107a936612152565b906107b2612cb9565b60018060a01b031683526016602052604083209060ff801983541691151516179055565b50346102195780600319360112610219576020600454604051908152f35b50346102195760203660031901126102195760209060ff906040906001600160a01b0361081f612037565b168152601384522054166040519015158152f35b50346102195780600319360112610219576001546040516001600160a01b039091168152602090f35b50346102195760203660031901126102195760209060ff906040906001600160a01b03610887612037565b168152601184522054166040519015158152f35b503461021957610140366003190112610219576108b6612037565b6108be61204d565b6108c6612063565b60e4356001600160a01b038116926064359291849003610ada575f80516020612e90833981519152549460ff8660401c1615956001600160401b03811680159081610ad2575b6001149081610ac8575b159081610abf575b50610ab05767ffffffffffffffff1981166001175f80516020612e908339815191525586610a84575b50610950612d86565b610958612d86565b610961336122ea565b610969612d86565b610971612d86565b60015f80516020612e7083398151915281905580546001600160a01b03199081166001600160a01b03938416179091556002805482169383169390931790925586549091169116178455670de0b6b3a76400008181029180159083049091141715610a70576103e8900460045560843560035560a43560055560c4356007556001600160601b0360a01b60085416176008556101043560065561012435600e55610a185780f35b68ff0000000000000000195f80516020612e9083398151915254165f80516020612e90833981519152557fc7f505b2f371ae2175ee4913f4499e1f2633a7b5936321eed1cdaeb6115181d2602060405160018152a180f35b634e487b7160e01b84526011600452602484fd5b68ffffffffffffffffff191668010000000000000001175f80516020612e90833981519152555f610947565b63f92ee8a960e01b8852600488fd5b9050155f61091e565b303b159150610916565b88915061090c565b8580fd5b503461021957610aed36612181565b6001600160a01b03909216808552600c6020526040852060170154909391929060ff161561076457838552600c60205260ff601b6040872001541615610764574211610773579060408492606460018060a01b03600254169183519586938492636f08e17760e01b845260048401528860248401523360448401525af1918215610c1a578492610be7575b508115918215610bdd575b5050610bce57808252600c60205262015180610ba6600f604085200154426122b3565b11610bb7575b602060405160018152f35b8152600c602052600f604042922001555f80610bac565b63428637bb60e11b8252600482fd5b1090505f80610b83565b610c0a91925060403d604011610c13575b610c0281836120a8565b8101906122d4565b9050905f610b78565b503d610bf8565b6040513d86823e3d90fd5b50346102195780600319360112610219576060600e54600f5460018060a01b03601054169060405192835260208301526040820152f35b50346102195780600319360112610219576020604051650297913cd4008152f35b50346102195780600319360112610219576020601454604051908152f35b503461021957606036600319011261021957604051606081018181106001600160401b03821117610d17576040526004358152602081016024358152610cdf612063565b9160408101928352610cef612cb9565b51600e5551600f5560018060a01b039051166001600160601b0360a01b601054161760105580f35b634e487b7160e01b83526041600452602483fd5b50346102195780600319360112610219575f80516020612e50833981519152546040516001600160a01b039091168152602090f35b50346102195780600319360112610219576008546040516001600160a01b039091168152602090f35b503461021957602036600319011261021957600435600d54811015610de557600d9091527fd7b6990105719101dabeb77144f2a3385c8033acd3af97e9423a695e81ad1eb501546040516001600160a01b039091168152602090f35b5080fd5b50346102195780600319360112610219576020600754604051908152f35b5034610219578060031936011261021957610e20612cb9565b5f80516020612e5083398151915280546001600160a01b0319811690915581906001600160a01b03167f8be0079c531659141344cd1fd0a4f28419497f9722a3daafe3b4186f6b6457e08280a380f35b50610e7a36612181565b6001600160a01b038316808652600c602052604086206017015491949293929160ff1615610ed0578552600c60205260ff601b604087200154161561076457610ec49450336123ab565b50602060405160018152f35b63d4181deb60e01b8652600486fd5b50346102195780600319360112610219576020600654604051908152f35b5034610219576105d5610f0f36612152565b90610f18612cb9565b60018060a01b031683526015602052604083209060ff801983541691151516179055565b503461021957610120366003190112610219576004356001600160401b038111610de557610f6e9036906004016120e4565b506024356001600160401b038111610de557610f8e9036906004016120e4565b506044356001600160401b038111610de55736602382011215610de55780600401359060246020610fbe8461212a565b610fcb60405191826120a8565b848152019260051b820101903682116110fe57602401915b8183106110e457836064356001600160401b038111610de55761100a9036906004016120e4565b506084356001600160401b038111610de55761102a9036906004016120e4565b5060a435906001600160401b03821161021957366023830112156102195760405161105481612079565b60848301913683116102195783600401915b8383106110b557611075612141565b5061107e61235b565b60405162461bcd60e51b815260206004820152600f60248201526e139bdd081a5b5c1b195b595b9d1959608a1b6044820152606490fd5b82356001600160401b038111610215576020916110d98392600436918a01016120e4565b815201920191611066565b823560ff8116810361074d57815260209283019201610fe3565b8380fd5b50346102195760203660031901126102195761111c612cb9565b60043560125580f35b50346102195760803660031901126102195760405161114381612079565b600435815261115061204d565b602082019081526044359063ffffffff821682036110fe576040830191825260608301926064358452611181612cb9565b5160095551600a8054925163ffffffff60a01b60a09190911b166001600160a01b039092166001600160c01b03199093169290921717905551600b5580f35b50346102195760203660031901126102195760209060ff906040906001600160a01b036111eb612037565b168152601684522054166040519015158152f35b50346102195780600319360112610219576020601254604051908152f35b503461021957806003193601126102195760206040516409502f90008152f35b503461021957602036600319011261021957611257612cb9565b60043560145580f35b50346102195780600319360112610219576020600354604051908152f35b5034611c36576020366003190112611c3657611298612037565b6112a061235b565b6001600160a01b038181165f818152600c602052604090206001810154919392909116158015611fe9575b611f9957601b81019060ff825416611fda576002810180546040516378e9792560e01b81526001600160a01b0390911690602081600481855afa908115611f8e575f91611fa8575b504210611f99576002546001600160a01b0316803b15611c36576040516344f85e2960e11b81526001600160a01b039290921660048301524260248301525f908290604490829084905af18015611f8e57611f79575b5060198692019384549485611401575b5050608095606093601a93875f80516020612e1083398151915260409560018060a01b03905416978893838752600c6020528888882001549088519182528b602083015288820152a3600160ff19825416179055858152600c6020522001549060015f80516020612e7083398151915255604051938452602084015260408301526060820152f35b90925060018060a01b0360025416604051631083f76160e01b8152602081600481855afa908115611db3578991611f3f575b5060405163095ea7b360e01b602082019081526001600160a01b03848116602484015260448084018b905283529192909116908a9081906114756064866120a8565b84519082855af1611484612cec565b81611f10575b5080611f06575b15611ec1575b50505061012c42014211611ead57600154600254604051631083f76160e01b81526001600160a01b03918216959290911690602081600481895afa908115611a4a578a91611e6b575b5060405163e6a4390560e01b81526001600160a01b03808516600483015290911660248201529060209082908180604481015b03915afa908115611db3578991611e2d575b5060408051630240bc6b60e21b81526001600160a01b0392909216919081600481855afa908115611a4a578a91611e0d575b5060408960848a8d84519a8b948593632eb9e9ed60e21b855260048501526024840152306044840152600160648401525af1958615611a4a578a96611dea575b5085158015611de3575b611dd457856115af916122b3565b888a52600c602052620151806115cc600f60408d200154426122b3565b11611dbe575b60065410159081611d3e575b5080611d25575b61162f575b509560609383875f80516020612e108339815191526040958560809c601a995061161f8660018060a01b036010541687612c7d565b5595505050935093819750611379565b868852600c60205260408820906017820191825460ff8160081c16908115611d19575b50611d0a57600154600254604051631083f76160e01b81526001600160a01b03918216949290911690602081600481885afa908115611c74578d91611cc8575b5060405163e6a4390560e01b81526001600160a01b03808516600483015290911660248201529060209082908180604481015b03915afa908115611cbd578c91611c7f575b5060405163c66f245560e01b81526001600160a01b03919091169190602081600481865afa908115611c74578d91611c42575b506040516316d3df1560e31b8152948d90602087600481885afa968715611abb578297611c07575b50803b15610de5578180918f602490604051948593849263ff6d8d0560e01b845260048401525af18015611abb57611bf2575b50600254604051631083f76160e01b81529190602090839060049082906001600160a01b03165afa8015611be557839190611ba4575b6008546117b593506001600160a01b039081169116612c7d565b60085460188501805490928f926001600160a01b03169190823b156110fe576044849283604051958694859362055c5b60e51b8552600485015260248401525af18015611abb57611b8f575b508060048e9260018060a01b0360085416936040519283809263d6efd7c360e01b82525afa918215611b83578092611ada575b5050805115611ac657602001518e916001600160a01b0390911690803b15610215576040516309d02ad360e31b81526001600160a01b03868116600483015292909216602483015282908290604490829084905af1908115611abb578e85918993611a9a575b506118a59350612c7d565b54918215611a55576020928d60a49260018060a01b036008541690670de0b6b3a764000060088901540495604051888101913360601b83524260348301526001600160601b03199060601b166054820152604881526119056068826120a8565b51902090670de0b6b3a76400006040519a8b98899763d2f5855960e01b895260048901526024880152046044860152606485015260848401525af1918215611a4a578a926119c8575b505f80516020612e108339815191526040958b60809c9660609a968d5f80516020612e308339815191526020601a9d996003849a0160018060a01b0382166001600160601b0360a01b8254161790558d519060018060a01b03168152a261010061ffff1982541617905596509b50955050509350936115ea565b9091506020813d602011611a42575b816119e4602093836120a8565b81010312611a3e575f80516020612e108339815191526040958b60809c9660609a968d5f80516020612e308339815191526020601a9d996003611a27859b61229f565b9b9f50509850505050969a5096509b50955061194e565b8980fd5b3d91506119d7565b6040513d8c823e3d90fd5b60405162461bcd60e51b815260206004820152601760248201527f4170706c69636174696f6e4964206e6f7420666f756e640000000000000000006044820152606490fd5b9050611aa992508391506120a8565b611ab7578c85838e5f61189a565b8c80fd5b6040513d84823e3d90fd5b634e487b7160e01b8f52603260045260248ffd5b9091503d8091833e611aec81836120a8565b810190602081830312611b7a578051906001600160401b038211611b7e57019080601f83011215611b7a578151611b228161212a565b92611b3060405194856120a8565b81845260208085019260051b820101928311611b7457602001905b828210611b5c575050505f8f611834565b60208091611b698461229f565b815201910190611b4b565b50508f80fd5b8f80fd5b508f80fd5b604051903d90823e3d90fd5b81611b99916120a8565b611ab7578c5f611801565b50506020813d602011611bdd575b81611bbf602093836120a8565b81010312611bd95781611bd46117b59261229f565b61179b565b8d80fd5b3d9150611bb2565b50604051903d90823e3d90fd5b81611bfc916120a8565b611ab7578c5f611765565b915095506020813d602011611c3a575b81611c24602093836120a8565b81010312611c36578d9051955f611732565b5f80fd5b3d9150611c17565b90506020813d602011611c6c575b81611c5d602093836120a8565b81010312611c3657515f61170a565b3d9150611c50565b6040513d8f823e3d90fd5b90506020813d602011611cb5575b81611c9a602093836120a8565b81010312611cb157611cab9061229f565b5f6116d7565b8b80fd5b3d9150611c8d565b6040513d8e823e3d90fd5b90506020813d602011611d02575b81611ce3602093836120a8565b81010312611ab7576116c591611cfa60209261229f565b915091611692565b3d9150611cd6565b63d4181deb60e01b8a5260048afd5b60ff915016155f611652565b50868852600c60205260ff601760408a200154166115e5565b600254604051635d52e65160e11b81526004810192909252909150602090829060249082906001600160a01b03165afa908115611db3578991611d84575b50155f6115de565b611da6915060203d602011611dac575b611d9e81836120a8565b810190612393565b5f611d7c565b503d611d94565b6040513d8b823e3d90fd5b888a52600c60205242600f60408c2001556115d2565b63428637bb60e11b8a5260048afd5b50896115a1565b611e0491965060403d604011610c1357610c0281836120a8565b9050945f611597565b611e26915060403d604011610c1357610c0281836120a8565b505f611557565b90506020813d602011611e63575b81611e48602093836120a8565b81010312611e5f57611e599061229f565b5f611525565b8880fd5b3d9150611e3b565b90506020813d602011611ea5575b81611e86602093836120a8565b81010312611a3e5761151391611e9d60209261229f565b9150916114e0565b3d9150611e79565b634e487b7160e01b87526011600452602487fd5b611ef9611efe936040519063095ea7b360e01b602083015260248201528b604482015260448152611ef36064826120a8565b82612d1b565b612d1b565b5f8080611497565b50803b1515611491565b8051801592508215611f25575b50505f61148a565b611f389250602080918301019101612393565b5f80611f1d565b90506020813d602011611f71575b81611f5a602093836120a8565b81010312611e5f57611f6b9061229f565b5f611433565b3d9150611f4d565b611f869196505f906120a8565b5f945f611369565b6040513d5f823e3d90fd5b63b4fa3fb360e01b5f5260045ffd5b90506020813d602011611fd2575b81611fc3602093836120a8565b81010312611c3657515f611313565b3d9150611fb6565b63d4181deb60e01b5f5260045ffd5b5060028101546001600160a01b0316156112cb565b34611c36576020366003190112611c36576020906001600160a01b03612022612037565b165f526015825260ff60405f20541615158152f35b600435906001600160a01b0382168203611c3657565b602435906001600160a01b0382168203611c3657565b604435906001600160a01b0382168203611c3657565b608081019081106001600160401b0382111761209457604052565b634e487b7160e01b5f52604160045260245ffd5b90601f801991011681019081106001600160401b0382111761209457604052565b6001600160401b03811161209457601f01601f191660200190565b81601f82011215611c36578035906120fb826120c9565b9261210960405194856120a8565b82845260208383010111611c3657815f926020809301838601378301015290565b6001600160401b0381116120945760051b60200190565b610104359060ff82168203611c3657565b6040906003190112611c36576004356001600160a01b0381168103611c3657906024358015158103611c365790565b6080906003190112611c3657600435906024356001600160a01b0381168103611c3657906044359060643590565b90604051915f8154908160011c9260018316928315612271575b60208510841461225d57848752869390811561223b57506001146121f7575b506121f5925003836120a8565b565b90505f9291925260205f20905f915b81831061221f5750509060206121f5928201015f6121e8565b6020919350806001915483858901015201910190918492612206565b9050602092506121f594915060ff191682840152151560051b8201015f6121e8565b634e487b7160e01b5f52602260045260245ffd5b93607f16936121c9565b805180835260209291819084018484015e5f828201840152601f01601f1916010190565b51906001600160a01b0382168203611c3657565b919082039182116122c057565b634e487b7160e01b5f52601160045260245ffd5b9190826040910312611c36576020825192015190565b6001600160a01b03168015612348575f80516020612e5083398151915280546001600160a01b0319811683179091556001600160a01b03167f8be0079c531659141344cd1fd0a4f28419497f9722a3daafe3b4186f6b6457e05f80a3565b631e4fbdf760e01b5f525f60045260245ffd5b60025f80516020612e7083398151915254146123845760025f80516020612e7083398151915255565b633ee5aeb560e01b5f5260045ffd5b90816020910312611c3657518015158103611c365790565b91929390935f914211611f9957600154600254604051631083f76160e01b81526001600160a01b039182169792909116906020816004818b5afa908115611f8e575f91612c3b575b5060405163e6a4390560e01b81526001600160a01b03808916600483015290911660248201529060209082908180604481015b03915afa908115611f8e575f91612c01575b5060408051630240bc6b60e21b8152976001600160a01b039290921693919088600481875afa928315611f8e575f988994612bd9575b5060408051632eb9e9ed60e21b815260048101929092526001600160a01b038981166024840181905298166044830152606482018a90529098909189916084918391905af1968715611f8e575f97612bb6575b508615908115612bac575b50612b9d57856124db916122b3565b835f52600c602052620151806124f8600f60405f200154426122b3565b11612b87575b60065410159081612b22575b5080612b09575b61251c575b50505090565b815f52600c60205260405f20906017820193845460ff8160081c16908115612afd575b50611fda57600154600254604051631083f76160e01b81526001600160a01b03918216939290911690602081600481875afa908115611f8e575f91612abb575b5060405163e6a4390560e01b81526001600160a01b03808516600483015290911660248201529060209082908180604481015b03915afa908115611f8e575f91612a81575b5060405163c66f245560e01b81526001600160a01b03919091169190602081600481865afa908115611f8e575f91612a4f575b506040516316d3df1560e31b815293602085600481875afa948515611f8e575f95612a1b575b50803b15611c36575f809160246040518094819363ff6d8d0560e01b83528d60048401525af18015611f8e57612a06575b50600254604051631083f76160e01b815290602090829060049082906001600160a01b03165afa80156128ea57829087906129c9575b60085461269e93506001600160a01b039081169116612c7d565b60018060a01b036008541660188701918254823b156129a557906044889283604051958694859362055c5b60e51b8552600485015260248401525af180156128ea579086916129b4575b505060085460405163d6efd7c360e01b81526001600160a01b039091169086816004818c5afa9081156129a957879161290d575b508051156128f957602001516001600160a01b0316813b156128f5576040516309d02ad360e31b81526001600160a01b0385811660048301529190911660248201529086908290604490829084905af180156128ea579086916128d5575b5050612787848389612c7d565b54918215611a55576020928560a49260018060a01b036008541690670de0b6b3a764000060088b01540495604051888101913360601b83524260348301526001600160601b03199060601b166054820152604881526127e76068826120a8565b51902090670de0b6b3a7640000604051998a98899763d2f5855960e01b895260048901526024880152046044860152606485015260848401525af1918215611b83578092612882575b505060039190910180546001600160a01b0319166001600160a01b0390921691821790556040519081525f80516020612e3083398151915290602090a2805461ffff19166101001790555f8080612516565b9091506020823d6020116128cd575b8161289e602093836120a8565b8101031261021957505f80516020612e308339815191529160036128c360209361229f565b9250819350612830565b3d9150612891565b816128df916120a8565b61074d57845f61277a565b6040513d88823e3d90fd5b8680fd5b634e487b7160e01b87526032600452602487fd5b90503d8088833e61291e81836120a8565b8101906020818303126129a5578051906001600160401b038211611e5f57019080601f830112156129a55781516129548161212a565b9261296260405194856120a8565b81845260208085019260051b820101928311611a3e57602001905b82821061298d575050505f61271c565b6020809161299a8461229f565b81520191019061297d565b8780fd5b6040513d89823e3d90fd5b816129be916120a8565b61074d57845f6126e8565b50506020813d6020116129fe575b816129e4602093836120a8565b81010312610ada57816129f961269e9261229f565b612684565b3d91506129d7565b612a139195505f906120a8565b5f935f61264e565b9094506020813d602011612a47575b81612a37602093836120a8565b81010312611c365751935f61261d565b3d9150612a2a565b90506020813d602011612a79575b81612a6a602093836120a8565b81010312611c3657515f6125f7565b3d9150612a5d565b90506020813d602011612ab3575b81612a9c602093836120a8565b81010312611c3657612aad9061229f565b5f6125c4565b3d9150612a8f565b90506020813d602011612af5575b81612ad6602093836120a8565b81010312611c36576125b291612aed60209261229f565b91509161257f565b3d9150612ac9565b60ff915016155f61253f565b50815f52600c60205260ff601760405f20015416612511565b600254604051635d52e65160e11b81526004810192909252909150602090829060249082906001600160a01b03165afa908115611f8e575f91612b68575b50155f61250a565b612b81915060203d602011611dac57611d9e81836120a8565b5f612b60565b835f52600c60205242600f60405f2001556124fe565b63428637bb60e11b5f5260045ffd5b905086105f6124cc565b612bd091975060403d604011610c1357610c0281836120a8565b9050955f6124c1565b604092919450612bf7608491843d8611610c1357610c0281836120a8565b509491925061246e565b90506020813d602011612c33575b81612c1c602093836120a8565b81010312611c3657612c2d9061229f565b5f612438565b3d9150612c0f565b90506020813d602011612c75575b81612c56602093836120a8565b81010312611c365761242691612c6d60209261229f565b9150916123f3565b3d9150612c49565b60405163a9059cbb60e01b60208201526001600160a01b039290921660248301526044808301939093529181526121f591611ef96064836120a8565b5f80516020612e50833981519152546001600160a01b03163303612cd957565b63118cdaa760e01b5f523360045260245ffd5b3d15612d16573d90612cfd826120c9565b91612d0b60405193846120a8565b82523d5f602084013e565b606090565b5f80612d439260018060a01b03169360208151910182865af1612d3c612cec565b9083612db1565b8051908115159182612d6b575b5050612d595750565b635274afe760e01b5f5260045260245ffd5b612d7e9250602080918301019101612393565b155f80612d50565b60ff5f80516020612e908339815191525460401c1615612da257565b631afcd79f60e31b5f5260045ffd5b90612dd55750805115612dc657805190602001fd5b630a12f52160e11b5f5260045ffd5b81511580612e06575b612de6575090565b639996b31560e01b5f9081526001600160a01b0391909116600452602490fd5b50803b15612dde56fed113672859919fb75607f9e7df716114585bc03e2c4cb89ca2b2a7e8220c90bc381d54fa425631e6266af114239150fae1d5db67bb65b4fa9ecc65013107e07e9016d09d72d40fdae2fd8ceac6b6234c7706214fd39c1cd1e609a0528c1993009b779b17422d0df92223018b32b4d1fa46e071723d6817e2486d003becc55f00f0c57e16840df040f15088dc2f81fe391c3923bec73e23a9662efc9c229c6a00a2646970667358221220b483ed0c6159922b8583050a417ee3e3ee9b6e3764c19a376e86734a77da210f64736f6c634300081a0033","linkReferences":{}},"methodIdentifiers":{"K()":"a932492f","VirtualIdBase()":"3b85d771","acpSkillLaunchFee()":"a76897f7","agentFactory()":"7df107ea","assetRate()":"e8e6ed69","buy(uint256,address,uint256,uint256)":"706910ff","cancelLaunch(address)":"e33d206f","factory()":"c45a0155","fee()":"ddca3f43","gradThreshold()":"6edd12e0","initialSupply()":"378dc3dc","initialize(address,address,address,uint256,uint256,uint256,uint256,address,uint256,uint256)":"b5d85c21","isAcpSkillLaunch(address)":"cd6d4386","isAcpSkillLauncher(address)":"06a9f4ef","isProjectXLaunch(address)":"b701972a","isXLauncher(address)":"4141919c","launch(address)":"214013ca","launchParams()":"b20c84c8","maxTx()":"7437681e","owner()":"8da5cb5b","preLaunch(string,string,uint8[],string,string,string[4],uint256,uint256,uint8)":"5421575e","projectXLaunchFee()":"4034bc00","renounceOwnership()":"715018a6","router()":"f887ea40","sell(uint256,address,uint256,uint256)":"b233e056","setAcpSkillLaunchFee(uint256)":"398d50e1","setAcpSkillLauncher(address,bool)":"5939afe4","setDeployParams((bytes32,address,uint32,uint256))":"43fb4d24","setLaunchParams((uint256,uint256,address))":"9e6e0c89","setProjectXLaunchFee(uint256)":"4aa74a26","setTokenParams(uint256,uint256,uint256,uint256,uint256,address)":"ff0049e1","setXLauncher(address,bool)":"e24780c7","tokenInfo(address)":"f5dab711","tokenInfos(uint256)":"7c13774b","transferOwnership(address)":"f2fde38b"},"id":42}