{"abi":[{"type":"constructor","inputs":[{"name":"router_","type":"address","internalType":"address"},{"name":"tokenIn_","type":"address","internalType":"address"},{"name":"tokenOut_","type":"address","internalType":"address"},{"name":"factory_","type":"address","internalType":"address"}],"stateMutability":"nonpayable"},{"type":"function","name":"factory","inputs":[],"outputs":[{"name":"","type":"address","internalType":"address"}],"stateMutability":"view"},{"type":"function","name":"getAmountsOut","inputs":[{"name":"amountIn","type":"uint256","internalType":"uint256"},{"name":"path","type":"address[]","internalType":"address[]"}],"outputs":[{"name":"amounts","type":"uint256[]","internalType":"uint256[]"}],"stateMutability":"view"},{"type":"function","name":"router","inputs":[],"outputs":[{"name":"","type":"address","internalType":"address"}],"stateMutability":"view"},{"type":"function","name":"swapExactTokensForTokens","inputs":[{"name":"amountIn","type":"uint256","internalType":"uint256"},{"name":"amountOutMin","type":"uint256","internalType":"uint256"},{"name":"path","type":"address[]","internalType":"address[]"},{"name":"to","type":"address","internalType":"address"},{"name":"deadline","type":"uint256","internalType":"uint256"}],"outputs":[{"name":"amounts","type":"uint256[]","internalType":"uint256[]"}],"stateMutability":"nonpayable"},{"type":"function","name":"tokenIn","inputs":[],"outputs":[{"name":"","type":"address","internalType":"address"}],"stateMutability":"view"},{"type":"function","name":"tokenOut","inputs":[],"outputs":[{"name":"","type":"address","internalType":"address"}],"stateMutability":"view"},{"type":"error","name":"AddressEmptyCode","inputs":[{"name":"target","type":"address","internalType":"address"}]},{"type":"error","name":"AddressInsufficientBalance","inputs":[{"name":"account","type":"address","internalType":"address"}]},{"type":"error","name":"FailedInnerCall","inputs":[]},{"type":"error","name":"SafeERC20FailedOperation","inputs":[{"name":"token","type":"address","internalType":"address"}]}],"bytecode":{"object":"0x6080806040523461018f576080816109bb803803809161001f8285610193565b83398101031261018f57610032816101ca565b9061003f602082016101ca565b916100586060610051604085016101ca565b93016101ca565b5f80546001600160a01b03199081166001600160a01b039485169081178355600180548316978616978817905560028054831696861696909617909555600380549091169390921692909217905560405163095ea7b360e01b60208201908152602482018490525f1960448084019190915282529293909290919081906100e0606486610193565b84519082855af16100ef6101de565b81610160575b5080610156575b15610111575b6040516106bd90816102fe8239f35b61014961014e936040519063095ea7b360e01b602083015260248201525f604482015260448152610143606482610193565b82610234565b610234565b5f8080610102565b50803b15156100fc565b8051801592508215610175575b50505f6100f5565b610188925060208091830101910161021c565b5f8061016d565b5f80fd5b601f909101601f19168101906001600160401b038211908210176101b657604052565b634e487b7160e01b5f52604160045260245ffd5b51906001600160a01b038216820361018f57565b3d15610217573d906001600160401b0382116101b6576040519161020c601f8201601f191660200184610193565b82523d5f602084013e565b606090565b9081602091031261018f5751801515810361018f5790565b5f8061025c9260018060a01b03169360208151910182865af16102556101de565b908361029f565b8051908115159182610284575b50506102725750565b635274afe760e01b5f5260045260245ffd5b610297925060208091830101910161021c565b155f80610269565b906102c357508051156102b457805190602001fd5b630a12f52160e11b5f5260045ffd5b815115806102f4575b6102d4575090565b639996b31560e01b5f9081526001600160a01b0391909116600452602490fd5b50803b156102cc56fe60806040526004361015610011575f80fd5b5f3560e01c806338ed1739146102115780636daf390b146101e9578063c45a0155146101c1578063d0202d3b14610199578063d06ca61f146100865763f887ea401461005b575f80fd5b34610082575f366003190112610082575f546040516001600160a01b039091168152602090f35b5f80fd5b346100825760403660031901126100825760243567ffffffffffffffff8111610082576100b790369060040161040e565b50506101465f6100c56104ce565b600154600254600354604051926001600160a01b0391821692821691166100eb84610478565b83526020830152836040830152606082015261010682610526565b5261011081610526565b5060018060a01b038254166040518080958194631542686b60e21b835260043560048401526040602484015260448301906105c1565b03915afa801561018e57610168915f9161016c575b506040519182918261043f565b0390f35b61018891503d805f833e6101808183610494565b810190610547565b8261015b565b6040513d5f823e3d90fd5b34610082575f366003190112610082576002546040516001600160a01b039091168152602090f35b34610082575f366003190112610082576003546040516001600160a01b039091168152602090f35b34610082575f366003190112610082576001546040516001600160a01b039091168152602090f35b346100825760a03660031901126100825760043560443567ffffffffffffffff81116100825761024590369060040161040e565b50506064356001600160a01b0381169190829003610082576102656104ce565b6001546002546003546040516001600160a01b03938416939092918116911661028d83610478565b83835260208301525f604083015260608201526102a983610526565b526102b382610526565b505f8060405160208101906323b872dd60e01b8252336024820152306044820152866064820152606481526102e9608482610494565b519082855af13d15610402573d67ffffffffffffffff81116103ee5761033191604051916103216020601f19601f8401160184610494565b82523d5f602084013e5b83610629565b80519081151591826103ca575b50506103b857505f91610389918360018060a01b03815416926040519687958694859363cac88ea960e01b85526004850152602435602485015260a0604485015260a48401906105c1565b906064830152608435608483015203925af1801561018e57610168915f9161016c57506040519182918261043f565b635274afe760e01b5f5260045260245ffd5b8192509060209181010312610082576020015180159081150361008257858061033e565b634e487b7160e01b5f52604160045260245ffd5b6103319060609061032b565b9181601f840112156100825782359167ffffffffffffffff8311610082576020808501948460051b01011161008257565b60206040818301928281528451809452019201905f5b8181106104625750505090565b8251845260209384019390920191600101610455565b6080810190811067ffffffffffffffff8211176103ee57604052565b90601f8019910116810190811067ffffffffffffffff8211176103ee57604052565b67ffffffffffffffff81116103ee5760051b60200190565b604080519091906104df8382610494565b6001815291601f1901825f5b8281106104f757505050565b60209060405161050681610478565b5f81525f838201525f60408201525f6060820152828285010152016104eb565b8051156105335760200190565b634e487b7160e01b5f52603260045260245ffd5b6020818303126100825780519067ffffffffffffffff821161008257019080601f8301121561008257815161057b816104b6565b926105896040519485610494565b81845260208085019260051b82010192831161008257602001905b8282106105b15750505090565b81518152602091820191016105a4565b90602080835192838152019201905f5b8181106105de5750505090565b825180516001600160a01b03908116865260208281015182168188015260408084015115159088015260609283015190911691860191909152608090940193909201916001016105d1565b9061064d575080511561063e57805190602001fd5b630a12f52160e11b5f5260045ffd5b8151158061067e575b61065e575090565b639996b31560e01b5f9081526001600160a01b0391909116600452602490fd5b50803b1561065656fea26469706673582212205a46fb7e33a4daee0ac301bed98a39e32cb081618eb8346a4a0a019211f168b764736f6c634300081a0033","linkReferences":{}},"methodIdentifiers":{"factory()":"c45a0155","getAmountsOut(uint256,address[])":"d06ca61f","router()":"f887ea40","swapExactTokensForTokens(uint256,uint256,address[],address,uint256)":"38ed1739","tokenIn()":"6daf390b","tokenOut()":"d0202d3b"},"id":67}