{"abi":[{"type":"constructor","inputs":[],"stateMutability":"nonpayable"},{"type":"function","name":"CLOCK_MODE","inputs":[],"outputs":[{"name":"","type":"string","internalType":"string"}],"stateMutability":"view"},{"type":"function","name":"acceptOwnership","inputs":[],"outputs":[],"stateMutability":"nonpayable"},{"type":"function","name":"agentNft","inputs":[],"outputs":[{"name":"","type":"address","internalType":"address"}],"stateMutability":"view"},{"type":"function","name":"allowance","inputs":[{"name":"owner","type":"address","internalType":"address"},{"name":"spender","type":"address","internalType":"address"}],"outputs":[{"name":"","type":"uint256","internalType":"uint256"}],"stateMutability":"view"},{"type":"function","name":"approve","inputs":[{"name":"","type":"address","internalType":"address"},{"name":"","type":"uint256","internalType":"uint256"}],"outputs":[{"name":"","type":"bool","internalType":"bool"}],"stateMutability":"nonpayable"},{"type":"function","name":"assetToken","inputs":[],"outputs":[{"name":"","type":"address","internalType":"address"}],"stateMutability":"view"},{"type":"function","name":"balanceOf","inputs":[{"name":"account","type":"address","internalType":"address"}],"outputs":[{"name":"","type":"uint256","internalType":"uint256"}],"stateMutability":"view"},{"type":"function","name":"canStake","inputs":[],"outputs":[{"name":"","type":"bool","internalType":"bool"}],"stateMutability":"view"},{"type":"function","name":"checkpoints","inputs":[{"name":"account","type":"address","internalType":"address"},{"name":"pos","type":"uint32","internalType":"uint32"}],"outputs":[{"name":"","type":"tuple","internalType":"struct Checkpoints.Checkpoint208","components":[{"name":"_key","type":"uint48","internalType":"uint48"},{"name":"_value","type":"uint208","internalType":"uint208"}]}],"stateMutability":"view"},{"type":"function","name":"clock","inputs":[],"outputs":[{"name":"","type":"uint48","internalType":"uint48"}],"stateMutability":"view"},{"type":"function","name":"decimals","inputs":[],"outputs":[{"name":"","type":"uint8","internalType":"uint8"}],"stateMutability":"view"},{"type":"function","name":"delegate","inputs":[{"name":"delegatee","type":"address","internalType":"address"}],"outputs":[],"stateMutability":"nonpayable"},{"type":"function","name":"delegateBySig","inputs":[{"name":"delegatee","type":"address","internalType":"address"},{"name":"nonce","type":"uint256","internalType":"uint256"},{"name":"expiry","type":"uint256","internalType":"uint256"},{"name":"v","type":"uint8","internalType":"uint8"},{"name":"r","type":"bytes32","internalType":"bytes32"},{"name":"s","type":"bytes32","internalType":"bytes32"}],"outputs":[],"stateMutability":"nonpayable"},{"type":"function","name":"delegates","inputs":[{"name":"account","type":"address","internalType":"address"}],"outputs":[{"name":"","type":"address","internalType":"address"}],"stateMutability":"view"},{"type":"function","name":"eip712Domain","inputs":[],"outputs":[{"name":"fields","type":"bytes1","internalType":"bytes1"},{"name":"name","type":"string","internalType":"string"},{"name":"version","type":"string","internalType":"string"},{"name":"chainId","type":"uint256","internalType":"uint256"},{"name":"verifyingContract","type":"address","internalType":"address"},{"name":"salt","type":"bytes32","internalType":"bytes32"},{"name":"extensions","type":"uint256[]","internalType":"uint256[]"}],"stateMutability":"view"},{"type":"function","name":"founder","inputs":[],"outputs":[{"name":"","type":"address","internalType":"address"}],"stateMutability":"view"},{"type":"function","name":"getPastBalanceOf","inputs":[{"name":"account","type":"address","internalType":"address"},{"name":"timepoint","type":"uint256","internalType":"uint256"}],"outputs":[{"name":"","type":"uint256","internalType":"uint256"}],"stateMutability":"view"},{"type":"function","name":"getPastDelegates","inputs":[{"name":"account","type":"address","internalType":"address"},{"name":"timepoint","type":"uint256","internalType":"uint256"}],"outputs":[{"name":"","type":"address","internalType":"address"}],"stateMutability":"view"},{"type":"function","name":"getPastTotalSupply","inputs":[{"name":"timepoint","type":"uint256","internalType":"uint256"}],"outputs":[{"name":"","type":"uint256","internalType":"uint256"}],"stateMutability":"view"},{"type":"function","name":"getPastVotes","inputs":[{"name":"account","type":"address","internalType":"address"},{"name":"timepoint","type":"uint256","internalType":"uint256"}],"outputs":[{"name":"","type":"uint256","internalType":"uint256"}],"stateMutability":"view"},{"type":"function","name":"getVotes","inputs":[{"name":"account","type":"address","internalType":"address"}],"outputs":[{"name":"","type":"uint256","internalType":"uint256"}],"stateMutability":"view"},{"type":"function","name":"initialLock","inputs":[],"outputs":[{"name":"","type":"uint256","internalType":"uint256"}],"stateMutability":"view"},{"type":"function","name":"initialize","inputs":[{"name":"_name","type":"string","internalType":"string"},{"name":"_symbol","type":"string","internalType":"string"},{"name":"_founder","type":"address","internalType":"address"},{"name":"_assetToken","type":"address","internalType":"address"},{"name":"_matureAt","type":"uint256","internalType":"uint256"},{"name":"_agentNft","type":"address","internalType":"address"},{"name":"_canStake","type":"bool","internalType":"bool"}],"outputs":[],"stateMutability":"nonpayable"},{"type":"function","name":"matureAt","inputs":[],"outputs":[{"name":"","type":"uint256","internalType":"uint256"}],"stateMutability":"view"},{"type":"function","name":"name","inputs":[],"outputs":[{"name":"","type":"string","internalType":"string"}],"stateMutability":"view"},{"type":"function","name":"nonces","inputs":[{"name":"owner","type":"address","internalType":"address"}],"outputs":[{"name":"","type":"uint256","internalType":"uint256"}],"stateMutability":"view"},{"type":"function","name":"numCheckpoints","inputs":[{"name":"account","type":"address","internalType":"address"}],"outputs":[{"name":"","type":"uint32","internalType":"uint32"}],"stateMutability":"view"},{"type":"function","name":"owner","inputs":[],"outputs":[{"name":"","type":"address","internalType":"address"}],"stateMutability":"view"},{"type":"function","name":"pendingOwner","inputs":[],"outputs":[{"name":"","type":"address","internalType":"address"}],"stateMutability":"view"},{"type":"function","name":"removeLpLiquidity","inputs":[{"name":"uniswapRouter","type":"address","internalType":"address"},{"name":"veTokenAmount","type":"uint256","internalType":"uint256"},{"name":"recipient","type":"address","internalType":"address"},{"name":"amountAMin","type":"uint256","internalType":"uint256"},{"name":"amountBMin","type":"uint256","internalType":"uint256"},{"name":"deadline","type":"uint256","internalType":"uint256"}],"outputs":[],"stateMutability":"nonpayable"},{"type":"function","name":"renounceOwnership","inputs":[],"outputs":[],"stateMutability":"nonpayable"},{"type":"function","name":"setCanStake","inputs":[{"name":"_canStake","type":"bool","internalType":"bool"}],"outputs":[],"stateMutability":"nonpayable"},{"type":"function","name":"setMatureAt","inputs":[{"name":"_matureAt","type":"uint256","internalType":"uint256"}],"outputs":[],"stateMutability":"nonpayable"},{"type":"function","name":"stake","inputs":[{"name":"amount","type":"uint256","internalType":"uint256"},{"name":"receiver","type":"address","internalType":"address"},{"name":"delegatee","type":"address","internalType":"address"}],"outputs":[],"stateMutability":"nonpayable"},{"type":"function","name":"symbol","inputs":[],"outputs":[{"name":"","type":"string","internalType":"string"}],"stateMutability":"view"},{"type":"function","name":"totalSupply","inputs":[],"outputs":[{"name":"","type":"uint256","internalType":"uint256"}],"stateMutability":"view"},{"type":"function","name":"transfer","inputs":[{"name":"","type":"address","internalType":"address"},{"name":"","type":"uint256","internalType":"uint256"}],"outputs":[{"name":"","type":"bool","internalType":"bool"}],"stateMutability":"nonpayable"},{"type":"function","name":"transferFrom","inputs":[{"name":"","type":"address","internalType":"address"},{"name":"","type":"address","internalType":"address"},{"name":"","type":"uint256","internalType":"uint256"}],"outputs":[{"name":"","type":"bool","internalType":"bool"}],"stateMutability":"nonpayable"},{"type":"function","name":"transferOwnership","inputs":[{"name":"newOwner","type":"address","internalType":"address"}],"outputs":[],"stateMutability":"nonpayable"},{"type":"function","name":"withdraw","inputs":[{"name":"amount","type":"uint256","internalType":"uint256"}],"outputs":[],"stateMutability":"nonpayable"},{"type":"event","name":"Approval","inputs":[{"name":"owner","type":"address","indexed":true,"internalType":"address"},{"name":"spender","type":"address","indexed":true,"internalType":"address"},{"name":"value","type":"uint256","indexed":false,"internalType":"uint256"}],"anonymous":false},{"type":"event","name":"DelegateChanged","inputs":[{"name":"delegator","type":"address","indexed":true,"internalType":"address"},{"name":"fromDelegate","type":"address","indexed":true,"internalType":"address"},{"name":"toDelegate","type":"address","indexed":true,"internalType":"address"}],"anonymous":false},{"type":"event","name":"DelegateVotesChanged","inputs":[{"name":"delegate","type":"address","indexed":true,"internalType":"address"},{"name":"previousVotes","type":"uint256","indexed":false,"internalType":"uint256"},{"name":"newVotes","type":"uint256","indexed":false,"internalType":"uint256"}],"anonymous":false},{"type":"event","name":"EIP712DomainChanged","inputs":[],"anonymous":false},{"type":"event","name":"Initialized","inputs":[{"name":"version","type":"uint64","indexed":false,"internalType":"uint64"}],"anonymous":false},{"type":"event","name":"LiquidityRemoved","inputs":[{"name":"veTokenHolder","type":"address","indexed":true,"internalType":"address"},{"name":"veTokenAmount","type":"uint256","indexed":false,"internalType":"uint256"},{"name":"amountA","type":"uint256","indexed":false,"internalType":"uint256"},{"name":"amountB","type":"uint256","indexed":false,"internalType":"uint256"},{"name":"recipient","type":"address","indexed":true,"internalType":"address"}],"anonymous":false},{"type":"event","name":"OwnershipTransferStarted","inputs":[{"name":"previousOwner","type":"address","indexed":true,"internalType":"address"},{"name":"newOwner","type":"address","indexed":true,"internalType":"address"}],"anonymous":false},{"type":"event","name":"OwnershipTransferred","inputs":[{"name":"previousOwner","type":"address","indexed":true,"internalType":"address"},{"name":"newOwner","type":"address","indexed":true,"internalType":"address"}],"anonymous":false},{"type":"event","name":"Transfer","inputs":[{"name":"from","type":"address","indexed":true,"internalType":"address"},{"name":"to","type":"address","indexed":true,"internalType":"address"},{"name":"value","type":"uint256","indexed":false,"internalType":"uint256"}],"anonymous":false},{"type":"error","name":"AdapterParamsMustBeEmpty","inputs":[]},{"type":"error","name":"AdditionToPoolIsBelowPerTransactionMinimum","inputs":[]},{"type":"error","name":"AdditionToPoolWouldExceedPerAddressCap","inputs":[]},{"type":"error","name":"AdditionToPoolWouldExceedPoolCap","inputs":[]},{"type":"error","name":"AddressAlreadySet","inputs":[]},{"type":"error","name":"AddressEmptyCode","inputs":[{"name":"target","type":"address","internalType":"address"}]},{"type":"error","name":"AddressInsufficientBalance","inputs":[{"name":"account","type":"address","internalType":"address"}]},{"type":"error","name":"AllowanceDecreasedBelowZero","inputs":[]},{"type":"error","name":"AlreadyInitialised","inputs":[]},{"type":"error","name":"ApprovalCallerNotOwnerNorApproved","inputs":[]},{"type":"error","name":"ApprovalQueryForNonexistentToken","inputs":[]},{"type":"error","name":"ApproveFromTheZeroAddress","inputs":[]},{"type":"error","name":"ApproveToTheZeroAddress","inputs":[]},{"type":"error","name":"AuctionStatusIsNotEnded","inputs":[]},{"type":"error","name":"AuctionStatusIsNotOpen","inputs":[]},{"type":"error","name":"AuxCallFailed","inputs":[{"name":"modules","type":"address[]","internalType":"address[]"},{"name":"value","type":"uint256","internalType":"uint256"},{"name":"data","type":"bytes","internalType":"bytes"},{"name":"txGas","type":"uint256","internalType":"uint256"}]},{"type":"error","name":"BalanceMismatch","inputs":[]},{"type":"error","name":"BalanceQueryForZeroAddress","inputs":[]},{"type":"error","name":"BidMustBeBelowTheFloorForRefundDuringAuction","inputs":[]},{"type":"error","name":"BidMustBeBelowTheFloorWhenReducingQuantity","inputs":[]},{"type":"error","name":"BondingCurveError","inputs":[{"name":"error","type":"uint8","internalType":"enum IErrors.BondingCurveErrorType"}]},{"type":"error","name":"BurnExceedsBalance","inputs":[]},{"type":"error","name":"BurnFromTheZeroAddress","inputs":[]},{"type":"error","name":"CallerIsNotAdminNorFactory","inputs":[]},{"type":"error","name":"CallerIsNotDepositBoxOwner","inputs":[]},{"type":"error","name":"CallerIsNotFactory","inputs":[]},{"type":"error","name":"CallerIsNotFactoryOrProjectOwner","inputs":[]},{"type":"error","name":"CallerIsNotFactoryProjectOwnerOrPool","inputs":[]},{"type":"error","name":"CallerIsNotPlatformAdmin","inputs":[{"name":"caller","type":"address","internalType":"address"}]},{"type":"error","name":"CallerIsNotSuperAdmin","inputs":[{"name":"caller","type":"address","internalType":"address"}]},{"type":"error","name":"CallerIsNotTheManager","inputs":[]},{"type":"error","name":"CallerIsNotTheOwner","inputs":[]},{"type":"error","name":"CallerMustBeLzApp","inputs":[]},{"type":"error","name":"CanOnlyReduce","inputs":[]},{"type":"error","name":"CannotAddLiquidityOnCreateAndUseDRIPool","inputs":[]},{"type":"error","name":"CannotSetNewManagerToTheZeroAddress","inputs":[]},{"type":"error","name":"CannotSetNewOwnerToTheZeroAddress","inputs":[]},{"type":"error","name":"CannotSetToZeroAddress","inputs":[]},{"type":"error","name":"CannotWithdrawThisToken","inputs":[]},{"type":"error","name":"CheckpointUnorderedInsertion","inputs":[]},{"type":"error","name":"CheckpointUnorderedInsertion","inputs":[]},{"type":"error","name":"CollectionAlreadyRevealed","inputs":[]},{"type":"error","name":"ContractIsDecommissioned","inputs":[]},{"type":"error","name":"ContractIsNotPaused","inputs":[]},{"type":"error","name":"ContractIsPaused","inputs":[]},{"type":"error","name":"DecreasedAllowanceBelowZero","inputs":[]},{"type":"error","name":"DeployerOnly","inputs":[]},{"type":"error","name":"DeploymentError","inputs":[]},{"type":"error","name":"DepositBoxIsNotOpen","inputs":[]},{"type":"error","name":"DestinationIsNotTrustedSource","inputs":[]},{"type":"error","name":"DriPoolAddressCannotBeAddressZero","inputs":[]},{"type":"error","name":"ECDSAInvalidSignature","inputs":[]},{"type":"error","name":"ECDSAInvalidSignatureLength","inputs":[{"name":"length","type":"uint256","internalType":"uint256"}]},{"type":"error","name":"ECDSAInvalidSignatureS","inputs":[{"name":"s","type":"bytes32","internalType":"bytes32"}]},{"type":"error","name":"ERC20ExceededSafeSupply","inputs":[{"name":"increasedSupply","type":"uint256","internalType":"uint256"},{"name":"cap","type":"uint256","internalType":"uint256"}]},{"type":"error","name":"ERC20InsufficientAllowance","inputs":[{"name":"spender","type":"address","internalType":"address"},{"name":"allowance","type":"uint256","internalType":"uint256"},{"name":"needed","type":"uint256","internalType":"uint256"}]},{"type":"error","name":"ERC20InsufficientBalance","inputs":[{"name":"sender","type":"address","internalType":"address"},{"name":"balance","type":"uint256","internalType":"uint256"},{"name":"needed","type":"uint256","internalType":"uint256"}]},{"type":"error","name":"ERC20InvalidApprover","inputs":[{"name":"approver","type":"address","internalType":"address"}]},{"type":"error","name":"ERC20InvalidReceiver","inputs":[{"name":"receiver","type":"address","internalType":"address"}]},{"type":"error","name":"ERC20InvalidSender","inputs":[{"name":"sender","type":"address","internalType":"address"}]},{"type":"error","name":"ERC20InvalidSpender","inputs":[{"name":"spender","type":"address","internalType":"address"}]},{"type":"error","name":"ERC5805FutureLookup","inputs":[{"name":"timepoint","type":"uint256","internalType":"uint256"},{"name":"clock","type":"uint48","internalType":"uint48"}]},{"type":"error","name":"ERC6372InconsistentClock","inputs":[]},{"type":"error","name":"FailedInnerCall","inputs":[]},{"type":"error","name":"GasLimitIsTooLow","inputs":[]},{"type":"error","name":"IncorrectConfirmationValue","inputs":[]},{"type":"error","name":"IncorrectPayment","inputs":[]},{"type":"error","name":"InitialLiquidityAlreadyAdded","inputs":[]},{"type":"error","name":"InitialLiquidityNotYetAdded","inputs":[]},{"type":"error","name":"InsufficientAllowance","inputs":[]},{"type":"error","name":"InvalidAccountNonce","inputs":[{"name":"account","type":"address","internalType":"address"},{"name":"currentNonce","type":"uint256","internalType":"uint256"}]},{"type":"error","name":"InvalidAdapterParams","inputs":[]},{"type":"error","name":"InvalidAddress","inputs":[]},{"type":"error","name":"InvalidEndpointCaller","inputs":[]},{"type":"error","name":"InvalidInitialization","inputs":[]},{"type":"error","name":"InvalidMinGas","inputs":[]},{"type":"error","name":"InvalidOracleSignature","inputs":[]},{"type":"error","name":"InvalidPayload","inputs":[]},{"type":"error","name":"InvalidReceiver","inputs":[]},{"type":"error","name":"InvalidSourceSendingContract","inputs":[]},{"type":"error","name":"InvalidTotalShares","inputs":[]},{"type":"error","name":"LPLockUpMustFitUint88","inputs":[]},{"type":"error","name":"LimitsCanOnlyBeRaised","inputs":[]},{"type":"error","name":"LiquidityPoolCannotBeAddressZero","inputs":[]},{"type":"error","name":"LiquidityPoolMustBeAContractAddress","inputs":[]},{"type":"error","name":"ListLengthMismatch","inputs":[]},{"type":"error","name":"MachineAddressCannotBeAddressZero","inputs":[]},{"type":"error","name":"ManagerUnauthorizedAccount","inputs":[]},{"type":"error","name":"MaxBidQuantityIs255","inputs":[]},{"type":"error","name":"MaxPublicMintAllowanceExceeded","inputs":[{"name":"requested","type":"uint256","internalType":"uint256"},{"name":"alreadyMinted","type":"uint256","internalType":"uint256"},{"name":"maxAllowance","type":"uint256","internalType":"uint256"}]},{"type":"error","name":"MaxSupplyTooHigh","inputs":[]},{"type":"error","name":"MaxTokensPerTxnExceeded","inputs":[]},{"type":"error","name":"MaxTokensPerWalletExceeded","inputs":[]},{"type":"error","name":"MetadataIsLocked","inputs":[]},{"type":"error","name":"MinGasLimitNotSet","inputs":[]},{"type":"error","name":"MintERC2309QuantityExceedsLimit","inputs":[]},{"type":"error","name":"MintToZeroAddress","inputs":[]},{"type":"error","name":"MintZeroQuantity","inputs":[]},{"type":"error","name":"MintingIsClosedForever","inputs":[]},{"type":"error","name":"NewBuyTaxBasisPointsExceedsMaximum","inputs":[]},{"type":"error","name":"NewSellTaxBasisPointsExceedsMaximum","inputs":[]},{"type":"error","name":"NoETHForLiquidityPair","inputs":[]},{"type":"error","name":"NoPaymentDue","inputs":[]},{"type":"error","name":"NoRefundForCaller","inputs":[]},{"type":"error","name":"NoStoredMessage","inputs":[]},{"type":"error","name":"NoTokenForLiquidityPair","inputs":[]},{"type":"error","name":"NoTrustedPathRecord","inputs":[]},{"type":"error","name":"NotInitializing","inputs":[]},{"type":"error","name":"NothingToClaim","inputs":[]},{"type":"error","name":"OperationDidNotSucceed","inputs":[]},{"type":"error","name":"OracleSignatureHasExpired","inputs":[]},{"type":"error","name":"OwnableInvalidOwner","inputs":[{"name":"owner","type":"address","internalType":"address"}]},{"type":"error","name":"OwnableUnauthorizedAccount","inputs":[{"name":"account","type":"address","internalType":"address"}]},{"type":"error","name":"OwnerQueryForNonexistentToken","inputs":[]},{"type":"error","name":"OwnershipNotInitializedForExtraData","inputs":[]},{"type":"error","name":"ParamTooLargeEndDate","inputs":[]},{"type":"error","name":"ParamTooLargeMinETH","inputs":[]},{"type":"error","name":"ParamTooLargePerAddressMax","inputs":[]},{"type":"error","name":"ParamTooLargePoolPerTxnMinETH","inputs":[]},{"type":"error","name":"ParamTooLargePoolSupply","inputs":[]},{"type":"error","name":"ParamTooLargeStartDate","inputs":[]},{"type":"error","name":"ParamTooLargeVestingDays","inputs":[]},{"type":"error","name":"ParametersDoNotMatchSignedMessage","inputs":[]},{"type":"error","name":"PassedConfigDoesNotMatchApproved","inputs":[]},{"type":"error","name":"PauseCutOffHasPassed","inputs":[]},{"type":"error","name":"PaymentMustCoverPerMintFee","inputs":[]},{"type":"error","name":"PermitDidNotSucceed","inputs":[]},{"type":"error","name":"PlatformAdminCannotBeAddressZero","inputs":[]},{"type":"error","name":"PlatformTreasuryCannotBeAddressZero","inputs":[]},{"type":"error","name":"PoolIsAboveMinimum","inputs":[]},{"type":"error","name":"PoolIsBelowMinimum","inputs":[]},{"type":"error","name":"PoolPhaseIsClosed","inputs":[]},{"type":"error","name":"PoolPhaseIsNotAfter","inputs":[]},{"type":"error","name":"PoolVestingNotYetComplete","inputs":[]},{"type":"error","name":"ProjectOwnerCannotBeAddressZero","inputs":[]},{"type":"error","name":"ProofInvalid","inputs":[]},{"type":"error","name":"QuantityExceedsMaxPossibleCollectionSupply","inputs":[]},{"type":"error","name":"QuantityExceedsRemainingCollectionSupply","inputs":[]},{"type":"error","name":"QuantityExceedsRemainingPhaseSupply","inputs":[]},{"type":"error","name":"ReferralIdAlreadyUsed","inputs":[]},{"type":"error","name":"RequestingMoreThanAvailableBalance","inputs":[]},{"type":"error","name":"RequestingMoreThanRemainingAllocation","inputs":[{"name":"previouslyMinted","type":"uint256","internalType":"uint256"},{"name":"requested","type":"uint256","internalType":"uint256"},{"name":"remainingAllocation","type":"uint256","internalType":"uint256"}]},{"type":"error","name":"RoyaltyFeeWillExceedSalePrice","inputs":[]},{"type":"error","name":"SafeCastOverflowedUintDowncast","inputs":[{"name":"bits","type":"uint8","internalType":"uint8"},{"name":"value","type":"uint256","internalType":"uint256"}]},{"type":"error","name":"SafeERC20FailedOperation","inputs":[{"name":"token","type":"address","internalType":"address"}]},{"type":"error","name":"ShareTotalCannotBeZero","inputs":[]},{"type":"error","name":"SliceOutOfBounds","inputs":[]},{"type":"error","name":"SliceOverflow","inputs":[]},{"type":"error","name":"SuperAdminCannotBeAddressZero","inputs":[]},{"type":"error","name":"SupplyTotalMismatch","inputs":[]},{"type":"error","name":"SupportWindowIsNotOpen","inputs":[]},{"type":"error","name":"TaxFreeAddressCannotBeAddressZero","inputs":[]},{"type":"error","name":"TaxPeriodStillInForce","inputs":[]},{"type":"error","name":"TemplateCannotBeAddressZero","inputs":[]},{"type":"error","name":"TemplateNotFound","inputs":[]},{"type":"error","name":"ThisMintIsClosed","inputs":[]},{"type":"error","name":"TotalSharesMustMatchDenominator","inputs":[]},{"type":"error","name":"TransferAmountExceedsBalance","inputs":[]},{"type":"error","name":"TransferCallerNotOwnerNorApproved","inputs":[]},{"type":"error","name":"TransferFailed","inputs":[]},{"type":"error","name":"TransferFromIncorrectOwner","inputs":[]},{"type":"error","name":"TransferFromZeroAddress","inputs":[]},{"type":"error","name":"TransferToBlacklistedAddress","inputs":[]},{"type":"error","name":"TransferToNonERC721ReceiverImplementer","inputs":[]},{"type":"error","name":"TransferToZeroAddress","inputs":[]},{"type":"error","name":"URIQueryForNonexistentToken","inputs":[]},{"type":"error","name":"UnrecognisedVRFMode","inputs":[]},{"type":"error","name":"VRFCoordinatorCannotBeAddressZero","inputs":[]},{"type":"error","name":"ValueExceedsMaximum","inputs":[]},{"type":"error","name":"VotesExpiredSignature","inputs":[{"name":"expiry","type":"uint256","internalType":"uint256"}]}],"bytecode":{"object":"0x6080806040523460d0577ff0c57e16840df040f15088dc2f81fe391c3923bec73e23a9662efc9c229c6a005460ff8160401c1660c1576002600160401b03196001600160401b03821601605c575b6040516139ef90816100d58239f35b6001600160401b0319166001600160401b039081177ff0c57e16840df040f15088dc2f81fe391c3923bec73e23a9662efc9c229c6a005581527fc7f505b2f371ae2175ee4913f4499e1f2633a7b5936321eed1cdaeb6115181d290602090a15f80604d565b63f92ee8a960e01b5f5260045ffd5b5f80fdfe60806040526004361015610011575f80fd5b5f3560e01c806306fdde0314610294578063095ea7b31461028f5780631083f7611461028a57806318160ddd1461028557806323b872dd146102805780632e1a7d4d1461027b578063313ce567146102765780633a46b1a8146102715780634bf5d7e91461026c5780634d853ee514610267578063587cde1e146102625780635c19a95c1461025d5780635ec80600146102585780636fcfff451461025357806370a082311461024e578063715018a61461024957806379ba5097146102445780637e893f801461023f5780637ecebe001461023a578063836f8f201461023557806384b0196e146102305780638da5cb5b1461022b5780638e539e8c1461022657806391ddadf414610221578063937764e51461021c57806395d89b41146102175780639ab24eb0146102125780639cbef4a91461020d5780639ed2780914610208578063a5e881b314610203578063a7d545db146101fe578063a9059cbb146101f9578063b2193b4d146101f4578063c3cda520146101ef578063d7b7d405146101ea578063dd62ed3e146101e5578063e30c3978146101e0578063e8867180146101db578063f1127ed8146101d65763f2fde38b146101d1575f80fd5b611aff565b611a74565b6119fe565b6119ca565b611951565b6118be565b61177a565b6116ea565b6115fa565b611309565b6112ec565b6112ca565b6112a2565b61125f565b6111a2565b610dfd565b610dd2565b610c86565b610c52565b610b82565b610ae2565b610a88565b6109cd565b610923565b6108a6565b610877565b61081e565b6106fa565b6106d4565b610685565b61065d565b6105cd565b61054c565b610531565b6104b8565b61048c565b610463565b61043b565b6103e2565b6102df565b5f9103126102a357565b5f80fd5b805180835260209291819084018484015e5f828201840152601f01601f1916010190565b9060206102dc9281815201906102a7565b90565b346102a3575f3660031901126102a3576040515f5f805160206138da8339815191525461030b81611b87565b80845290600181169081156103ad5750600114610343575b61033f836103338185038261164b565b604051918291826102cb565b0390f35b5f805160206138da8339815191525f9081527f2ae08a8e29253f69ac5d979a101956ab8f8d9d7ded63fa7a83b16fc47648eab0939250905b80821061039357509091508101602001610333610323565b91926001816020925483858801015201910190929161037b565b60ff191660208086019190915291151560051b840190910191506103339050610323565b6001600160a01b038116036102a357565b346102a35760403660031901126102a3576103fe6004356103d1565b60405162461bcd60e51b8152602060048201526015602482015274105c1c1c9bdd99481b9bdd081cdd5c1c1bdc9d1959605a1b6044820152606490fd5b346102a3575f3660031901126102a3576002546040516001600160a01b039091168152602090f35b346102a3575f3660031901126102a35760205f8051602061393a83398151915254604051908152f35b346102a35760603660031901126102a3576104a86004356103d1565b6104b36024356103d1565b611d85565b346102a35760203660031901126102a35760085460043560ff82166104fb5760016104ea9260ff191617600855611e9f565b6104f960ff1960085416600855565b005b60405162461bcd60e51b815260206004820152600e60248201526d31b0b73737ba103932b2b73a32b960911b6044820152606490fd5b346102a3575f3660031901126102a357602060405160128152f35b346102a35760403660031901126102a357600435610569816103d1565b6024359065ffffffffffff61057d43612806565b16808310156105b757506105936105ab91611e2f565b6001600160d01b03926105a590612806565b90612843565b60405191168152602090f35b82637669fc0f60e11b5f5260045260245260445ffd5b346102a3575f3660031901126102a3576105e643612806565b65ffffffffffff806105f743612806565b1691160361064e5761033f60405161061060408261164b565b601d81527f6d6f64653d626c6f636b6e756d6265722666726f6d3d64656661756c7400000060208201526040519182916020835260208301906102a7565b6301bfc1c560e61b5f5260045ffd5b346102a3575f3660031901126102a3576001546040516001600160a01b039091168152602090f35b346102a35760203660031901126102a3576004356106a2816103d1565b60018060a01b03165f525f805160206138ba833981519152602052602060018060a01b0360405f205416604051908152f35b346102a35760203660031901126102a3576104f96004356106f4816103d1565b336128dd565b346102a35760403660031901126102a357600435610717816103d1565b6024359065ffffffffffff61072b43612806565b16808310156105b7575060018060a01b03165f525f60205261075060405f2091612806565b8154905f8291600584116107c0575b61076a935084613533565b908161079157505061033f5f5b6040516001600160a01b0390911681529081906020820190565b6107aa6107bb916107a461033f94611dd7565b90612c28565b505460301c6001600160a01b031690565b610777565b916107ca84612ea7565b84039384116108195765ffffffffffff6107e48587612c28565b50541665ffffffffffff84161015610801575061076a929161075f565b919050600183018093116108195761076a929061075f565b611dc3565b346102a35760203660031901126102a35761084360043561083e816103d1565b611e2f565b5463ffffffff81116108605760209063ffffffff60405191168152f35b6306dfcc6560e41b5f52602060045260245260445ffd5b346102a35760203660031901126102a357602061089e600435610899816103d1565b611f90565b604051908152f35b346102a3575f3660031901126102a3576108be612a57565b5f8051602061399a83398151915280546001600160a01b03199081169091555f8051602061391a833981519152805491821690555f906001600160a01b03167f8be0079c531659141344cd1fd0a4f28419497f9722a3daafe3b4186f6b6457e08280a3005b346102a3575f3660031901126102a3575f8051602061399a83398151915254336001600160a01b03909116036109ba575f8051602061399a83398151915280546001600160a01b03199081169091555f8051602061391a83398151915280543392811683179091556001600160a01b03167f8be0079c531659141344cd1fd0a4f28419497f9722a3daafe3b4186f6b6457e05f80a3005b63118cdaa760e01b5f523360045260245ffd5b346102a35760203660031901126102a3576044600435600354604051632474521560e21b81527fa49807205ce4d355092ef5a8a18f56e8913cf4a201fbe287825b095693c2177560048201523360248201529260209184919082906001600160a01b03165afa918215610a83576104f992610a4f915f91610a54575b50611fe9565b600455565b610a76915060203d602011610a7c575b610a6e818361164b565b810190611fc9565b5f610a49565b503d610a64565b611fde565b346102a35760203660031901126102a357600435610aa5816103d1565b60018060a01b03165f527f5ab42ced628888259c08ac98db1eb0cf702fc1501344311d8b100cd1bfe4bb00602052602060405f2054604051908152f35b346102a3575f3660031901126102a3576020600654604051908152f35b929391610b21610b2f92600f60f81b865260e0602087015260e08601906102a7565b9084820360408601526102a7565b92606083015260018060a01b031660808201525f60a082015260c0818303910152602080835192838152019201905f5b818110610b6c5750505090565b8251845260209384019390920191600101610b5f565b346102a3575f3660031901126102a3577fa16a46d94261c7517cc8ff89f61c0ce93598e3c849801011dee649a6a557d100541580610c29575b15610bec57610bc8611bbf565b610bd0611cb2565b9061033f610bdc612021565b6040519384933091469186610aff565b60405162461bcd60e51b81526020600482015260156024820152741152540dcc4c8e88155b9a5b9a5d1a585b1a5e9959605a1b6044820152606490fd5b507fa16a46d94261c7517cc8ff89f61c0ce93598e3c849801011dee649a6a557d1015415610bbb565b346102a3575f3660031901126102a3575f8051602061391a833981519152546040516001600160a01b039091168152602090f35b346102a35760203660031901126102a35760043565ffffffffffff610caa43612806565b169081811015610dbd57610cbd90612806565b5f8051602061395a83398151915254905f829160058411610d5d575b610cf193505f8051602061395a83398151915261301a565b80610d16575061033f5f5b6040516001600160d01b0390911681529081906020820190565b610d2261033f91611dd7565b5f8051602061395a8339815191525f527f88c46c62109817164d0ae1873830d4299a82e5daf552a3d8e989b27638fcf748015460301c610cfc565b9192610d6881612ea7565b810390811161081957610cf1935f8051602061395a8339815191525f5265ffffffffffff8260205f2001541665ffffffffffff8516105f14610dab575091610cd9565b929150610db790612835565b90610cd9565b637669fc0f60e11b5f5260045260245260445ffd5b346102a3575f3660031901126102a3576020610ded43612806565b65ffffffffffff60405191168152f35b346102a35760c03660031901126102a357600435610e1a816103d1565b604435602435610e29826103d1565b6064359160843560a4359460018060a01b035f8051602061391a83398151915254163314158061118a575b61117b576001600160a01b03811690610e6e82151561203c565b610e79851515612094565b600154610e9b908690610e94906001600160a01b0316611f90565b10156120ec565b6001600160a01b03841696610eb1881515612138565b610ebc428211612183565b600254610edf90610ed3906001600160a01b031681565b6001600160a01b031690565b604051630dfe168160e01b81529091602082600481865afa918215610a83575f9261115a575b5060405163d21220a760e01b8152602081600481875afa938415610a835789915f95611122575b5060405163095ea7b360e01b81526001600160a01b03909616600487015260248601919091529293926020908490815f81604481015b03925af1908115610a835760409789975f95610fd794611105575b508951635d5155ef60e11b81526001600160a01b03958616600482015296851660248801526044870198909852606486019a909a526084850196909652971660a483015260c48201939093529485928391829060e4820190565b03925af191825f915f946110d2575b506110305760405162461bcd60e51b815260206004820152601860248201527f4c69717569646974792072656d6f76616c206661696c656400000000000000006044820152606490fd5b6001547f941e65c2e86e52e4d4bf73adc9a87775f81da9fa2aff39eda7322e562b08fd6e929061106a9082906001600160a01b03166126e9565b6001546001600160a01b03165f8181526007602052604090206110a7916110a161109c61109643612806565b92611f90565b612794565b91612cd4565b5050600154604080519283526020830193909352918101939093526001600160a01b031691606090a3005b9093506110f7915060403d6040116110fe575b6110ef818361164b565b8101906121e4565b925f610fe6565b503d6110e5565b61111d9060203d602011610a7c57610a6e818361164b565b610f7d565b610f6295509061114a60209392843d8611611153575b611142818361164b565b8101906121cf565b95509091610f2c565b503d611138565b61117491925060203d60201161115357611142818361164b565b905f610f05565b63faa39fbf60e01b5f5260045ffd5b5060088054901c6001600160a01b0316331415610e54565b346102a3575f3660031901126102a3576040515f5f805160206138fa833981519152546111ce81611b87565b80845290600181169081156103ad57506001146111f55761033f836103338185038261164b565b5f805160206138fa8339815191525f9081527f46a2803e59a4de4e7a4c574b1243f25977ac4c77d5a1a4a609b5394cebb4a2aa939250905b80821061124557509091508101602001610333610323565b91926001816020925483858801015201910190929161122d565b346102a35760203660031901126102a357602060043561127e816103d1565b6001600160d01b03906112999061129490611e2f565b612a77565b16604051908152f35b346102a3575f3660031901126102a3576003546040516001600160a01b039091168152602090f35b346102a3575f3660031901126102a357602060ff600554166040519015158152f35b346102a3575f3660031901126102a3576020600454604051908152f35b346102a35760603660031901126102a357600435602435611329816103d1565b604435611335816103d1565b60055460ff1680156115d9575b61134b906121fa565b611356831515612254565b60025461136d90610ed3906001600160a01b031681565b6040516370a0823160e01b8152336004820152602081602481855afa908115610a83576113a59186915f916115ba575b5010156122a0565b604051636eb1769f60e11b815233600482015230602482015290602090829060449082905afa908115610a83576113e79185915f9161159b575b5010156122eb565b6003546113fe90610ed3906001600160a01b031681565b60405163225742f560e11b81523060048201529190602083602481845afa928315610a83575f9361156a575b50604051634752f9ef60e01b815260048101849052602081602481855afa8015610a8357611460915f9161154b575b5015612342565b5f8051602061393a833981519152541561153d575b803b156102a357604051634b56175360e01b815260048101939093526001600160a01b03821660248401525f908390604490829084905af18015610a83576104f9946114f0936114ea92611523575b506114e48130336114df610ed360025460018060a01b031690565b612aa1565b84612ae5565b826128dd565b6001600160a01b0381165f908152600760205260409020906110a161151d61151743612806565b92611e67565b54612794565b806115315f6115379361164b565b80610299565b5f6114c4565b61154685600655565b611475565b611564915060203d602011610a7c57610a6e818361164b565b5f611459565b61158d91935060203d602011611594575b611585818361164b565b810190612291565b915f61142a565b503d61157b565b6115b4915060203d60201161159457611585818361164b565b5f6113df565b6115d3915060203d60201161159457611585818361164b565b5f61139d565b5061134b6115f25f8051602061393a8339815191525490565b159050611342565b346102a35760403660031901126102a3576104b36004356103d1565b634e487b7160e01b5f52604160045260245ffd5b6040810190811067ffffffffffffffff82111761164657604052565b611616565b90601f8019910116810190811067ffffffffffffffff82111761164657604052565b6040519061167c60408361164b565b565b67ffffffffffffffff811161164657601f01601f191660200190565b81601f820112156102a3578035906116b18261167e565b926116bf604051948561164b565b828452602083830101116102a357815f926020809301838601378301015290565b801515036102a357565b346102a35760e03660031901126102a35760043567ffffffffffffffff81116102a35761171b90369060040161169a565b6024359067ffffffffffffffff82116102a35761173f6104f992369060040161169a565b60443561174b816103d1565b606435611757816103d1565b6084359160a43593611768856103d1565b60c43595611775876116e0565b612382565b346102a35760c03660031901126102a357600435611797816103d1565b6044359060243560643560ff811681036102a35760843560a435918542116118ab579161189f916118a69360426104f99860405160208101917fe48329057bfd03d55e49b547132e39cffd9c1820ad7b9d4c5307691425d15adf835260018060a01b038b16604083015289606083015260808201526080815261181b60a08261164b565b5190206118266137ac565b61182e613816565b6040519060208201927f8b73c3c69bb8fe3d512ecc4cf759cc79239f7b179b0ffacaa9a75d522b39400f8452604083015260608201524660808201523060a082015260a0815261187f60c08261164b565b519020906040519161190160f01b83526002830152602282015220612bb1565b9182612bc9565b6128dd565b85632341d78760e11b5f5260045260245ffd5b346102a35760403660031901126102a3576004356118db816103d1565b60243565ffffffffffff6118ee43612806565b16918282101561193b576001600160a01b03165f90815260076020526040902061033f92506001600160d01b039161192a91906105a590612806565b604051911681529081906020820190565b50637669fc0f60e11b5f5260045260245260445ffd5b346102a35760403660031901126102a35760043561196e816103d1565b6024359061197b826103d1565b60018060a01b03165f527f52c63247e1f47db19d5ce0460030c497f067ca4cebf71ba98eeadabe20bace0160205260405f209060018060a01b03165f52602052602060405f2054604051908152f35b346102a3575f3660031901126102a3575f8051602061399a833981519152546040516001600160a01b039091168152602090f35b346102a35760203660031901126102a357600435611a1b816116e0565b6001546001600160a01b03163303611a415760ff80196005541691151516176005555f80f35b60405162461bcd60e51b815260206004820152600b60248201526a2737ba103337bab73232b960a91b6044820152606490fd5b346102a35760403660031901126102a357600435611a91816103d1565b60243563ffffffff811681036102a357611ad3611ad991611ac5604094611ab66126d1565b50611abf6126d1565b50611e2f565b611acd6126d1565b50612c28565b50612cb0565b8151815165ffffffffffff1681526020918201516001600160d01b031691810191909152f35b346102a35760203660031901126102a357600435611b1c816103d1565b611b24612a57565b5f8051602061399a83398151915280546001600160a01b0319166001600160a01b039283169081179091555f8051602061391a833981519152549091167f38d16b8cac22d99fc7c124b9cd0de2d3fa1faef420bfe791d8c362d765e227005f80a3005b90600182811c92168015611bb5575b6020831014611ba157565b634e487b7160e01b5f52602260045260245ffd5b91607f1691611b96565b604051905f827fa16a46d94261c7517cc8ff89f61c0ce93598e3c849801011dee649a6a557d1025491611bf183611b87565b8083529260018116908115611c935750600114611c15575b61167c9250038361164b565b507fa16a46d94261c7517cc8ff89f61c0ce93598e3c849801011dee649a6a557d1025f90815290917f42ad5d3e1f2e6e70edcf6d991b8a3023d3fca8047a131592f9edb9fd9b89d57d5b818310611c7757505090602061167c92820101611c09565b6020919350806001915483858901015201910190918492611c5f565b6020925061167c94915060ff191682840152151560051b820101611c09565b604051905f827fa16a46d94261c7517cc8ff89f61c0ce93598e3c849801011dee649a6a557d1035491611ce483611b87565b8083529260018116908115611c935750600114611d075761167c9250038361164b565b507fa16a46d94261c7517cc8ff89f61c0ce93598e3c849801011dee649a6a557d1035f90815290917f5f9ce34815f8e11431c7bb75a8e6886a91478f7ffc1dbb0a98dc240fddd76b755b818310611d6957505090602061167c92820101611c09565b6020919350806001915483858901015201910190918492611d51565b60405162461bcd60e51b8152602060048201526016602482015275151c985b9cd9995c881b9bdd081cdd5c1c1bdc9d195960521b6044820152606490fd5b634e487b7160e01b5f52601160045260245ffd5b5f1981019190821161081957565b9190820391821161081957565b15611df957565b60405162461bcd60e51b815260206004820152600e60248201526d139bdd081b585d1d5c99481e595d60921b6044820152606490fd5b6001600160a01b03165f9081527fe8b26c30fad74198956032a3533d903385d56dd795af560196f9c78d4af40d016020526040902090565b6001600160a01b03165f9081527f52c63247e1f47db19d5ce0460030c497f067ca4cebf71ba98eeadabe20bace006020526040902090565b80611ea933611e67565b5410611f545760015461167c9190611ec9906001600160a01b0316610ed3565b331480611f37575b611f24575b611ee081336126e9565b335f908152600760205260409020611f0690611efa6128d4565b6110a161151d33611e67565b50506002543390611f1f906001600160a01b0316610ed3565b6127c5565b611f32600454421015611df2565b611ed6565b50611f4b81611f4533611e67565b54611de5565b60065411611ed1565b60405162461bcd60e51b8152602060048201526014602482015273496e73756666696369656e742062616c616e636560601b6044820152606490fd5b6001600160a01b03165f9081527f52c63247e1f47db19d5ce0460030c497f067ca4cebf71ba98eeadabe20bace00602052604090205490565b908160209103126102a357516102dc816116e0565b6040513d5f823e3d90fd5b15611ff057565b60405162461bcd60e51b81526020600482015260096024820152682737ba1030b236b4b760b91b6044820152606490fd5b6040519061203060208361164b565b5f808352366020840137565b1561204357565b60405162461bcd60e51b8152602060048201526024808201527f756e6973776170526f757465722063616e6e6f74206265207a65726f206164646044820152637265737360e01b6064820152608490fd5b1561209b57565b60405162461bcd60e51b8152602060048201526024808201527f7665546f6b656e416d6f756e74206d75737420626520677265617465722074686044820152630616e20360e41b6064820152608490fd5b156120f357565b60405162461bcd60e51b815260206004820152601c60248201527f496e73756666696369656e74207665546f6b656e2062616c616e6365000000006044820152606490fd5b1561213f57565b606460405162461bcd60e51b815260206004820152602060248201527f726563697069656e742063616e6e6f74206265207a65726f20616464726573736044820152fd5b1561218a57565b60405162461bcd60e51b815260206004820152601e60248201527f646561646c696e65206d75737420626520696e207468652066757475726500006044820152606490fd5b908160209103126102a357516102dc816103d1565b91908260409103126102a3576020825192015190565b1561220157565b60405162461bcd60e51b815260206004820152602560248201527f5374616b696e672069732064697361626c656420666f722070726976617465206044820152641859d95b9d60da1b6064820152608490fd5b1561225b57565b60405162461bcd60e51b815260206004820152600e60248201526d043616e6e6f74207374616b6520360941b6044820152606490fd5b908160209103126102a3575190565b156122a757565b606460405162461bcd60e51b815260206004820152602060248201527f496e73756666696369656e7420617373657420746f6b656e2062616c616e63656044820152fd5b156122f257565b60405162461bcd60e51b815260206004820152602260248201527f496e73756666696369656e7420617373657420746f6b656e20616c6c6f77616e604482015261636560f01b6064820152608490fd5b1561234957565b60405162461bcd60e51b81526020600482015260116024820152701059d95b9d08109b1858dadb1a5cdd1959607a1b6044820152606490fd5b9492909593915f8051602061397a833981519152549667ffffffffffffffff6123c26123b460ff8b60401c1615151590565b9967ffffffffffffffff1690565b16801590816124d8575b60011490816124ce575b1590816124c5575b506124b6576124229688612419600167ffffffffffffffff195f8051602061397a8339815191525416175f8051602061397a83398151915255565b612481576124e0565b61242857565b61245260ff60401b195f8051602061397a83398151915254165f8051602061397a83398151915255565b604051600181527fc7f505b2f371ae2175ee4913f4499e1f2633a7b5936321eed1cdaeb6115181d290602090a1565b6124b1600160401b60ff60401b195f8051602061397a8339815191525416175f8051602061397a83398151915255565b6124e0565b63f92ee8a960e01b5f5260045ffd5b9050155f6123de565b303b1591506123d6565b8991506123cc565b9392936124eb613076565b6124f3613076565b80519067ffffffffffffffff821161164657612525826125205f805160206138da83398151915254611b87565b6130a1565b602090601f831160011461261e576125c3946125816125e0989561256d866125a6976125f29e9d9b97610a4f975f92612613575b50508160011b915f199060031b1c19161790565b5f805160206138da8339815191525561314c565b612589613076565b60018060a01b03166001600160601b0360a01b6001541617600155565b60018060a01b03166001600160601b0360a01b6002541617600255565b60018060a01b03166001600160601b0360a01b6003541617600355565b60ff8019600554169115151617600555565b60088054610100600160a81b03191633821b610100600160a81b0316179055565b015190505f80612559565b5f805160206138da8339815191525f52601f19831691907f2ae08a8e29253f69ac5d979a101956ab8f8d9d7ded63fa7a83b16fc47648eab0925f5b8181106126b957506125e098956001866125f29d9c9a96610a4f966125c39b966125a69a61258197106126a1575b505050811b015f805160206138da8339815191525561314c565b01515f1960f88460031b161c191690555f8080612687565b92936020600181928786015181550195019301612659565b604051906126de8261162a565b5f6020838281520152565b6001600160a01b03811692919083156127815761270581611e67565b548281106127665761167c9394835f920361271f84611e67565b555f8051602061393a833981519152805485900390556040518481527fddf252ad1be2c89b69c2b068fc378daa952ba7f163c4a11628f55a4df523b3ef90602090a3613590565b90508363391434e360e21b5f5260045260245260445260645ffd5b634b637e8f60e11b5f525f60045260245ffd5b6001600160d01b0381116127ae576001600160d01b031690565b6306dfcc6560e41b5f5260d060045260245260445ffd5b60405163a9059cbb60e01b60208201526001600160a01b0392909216602483015260448083019390935291815261167c9161280160648361164b565b612ded565b65ffffffffffff811161281e5765ffffffffffff1690565b6306dfcc6560e41b5f52603060045260245260445ffd5b906001820180921161081957565b908154905f829160058411612881575b61285e93508461301a565b806128695750505f90565b61287290611dd7565b905f5260205f20015460301c90565b919261288c81612ea7565b81039081116108195761285e93855f5265ffffffffffff8260205f2001541665ffffffffffff8516105f146128c2575091612853565b9291506128ce90612835565b90612853565b6102dc43612806565b6001600160a01b038181165f8181525f805160206138ba8339815191526020526040812080548685166001600160a01b031982168117909255929461295b94939093169286926129559290859088907f3134e8a2e6d97e929a7e54011ea5485d7d196dd5f0ba4d4ef95803e8e3fc257f9080a4611f90565b916133a3565b5f525f60205260405f209061296f43612806565b825492908315612a105765ffffffffffff61299b61299561298f87611dd7565b85612c28565b50613506565b805165ffffffffffff168284169283911611612a4857516129ca9065ffffffffffff165b65ffffffffffff1690565b03612a1057506129e0906107a461167c94611dd7565b5080546601000000000000600160d01b03191660309290921b6601000000000000600160d01b0316919091179055565b9161167c9350612a4390612a33612a2561166d565b65ffffffffffff9095168552565b6001600160a01b03166020840152565b6134a7565b632520601d60e01b5f5260045ffd5b5f8051602061391a833981519152546001600160a01b031633036109ba57565b80549081612a855750505f90565b815f19810111610819575f525f199060205f2001015460301c90565b6040516323b872dd60e01b60208201526001600160a01b03928316602482015292909116604483015260648083019390935291815261167c9161280160848361164b565b91906001600160a01b0383168015612b9e575f8051602061393a83398151915254828101809111610819575f8051602061393a83398151915255612b2884611e67565b8054830190556040518281525f907fddf252ad1be2c89b69c2b068fc378daa952ba7f163c4a11628f55a4df523b3ef90602090a35f8051602061393a83398151915254926001600160d01b03808511612b87575061167c929350613621565b630e58ae9360e11b5f52600485905260245260445ffd5b63ec442f0560e01b5f525f60045260245ffd5b916102dc9391612bc093613260565b90929192613300565b6001600160a01b03165f8181527f5ab42ced628888259c08ac98db1eb0cf702fc1501344311d8b100cd1bfe4bb006020526040902080546001810190915591829003612c13575050565b6301d4b62360e61b5f5260045260245260445ffd5b8054821015612c3d575f5260205f2001905f90565b634e487b7160e01b5f52603260045260245ffd5b634e487b7160e01b5f525f60045260245ffd5b8054600160401b81101561164657612c8191600182018155612c28565b612cab57815160209092015160301b65ffffffffffff191665ffffffffffff909216919091179055565b612c51565b90604051612cbd8161162a565b915465ffffffffffff8116835260301c6020830152565b805492939291908215612dc457612d00612cfb612cf085611dd7565b835f5260205f200190565b612cb0565b9065ffffffffffff612d18835165ffffffffffff1690565b8185169182911611612a4857612d88946020948892612d406129bf875165ffffffffffff1690565b03612d8c5750612d7a92612d56612d6192611dd7565b905f5260205f200190565b9065ffffffffffff82549181199060301b169116179055565b01516001600160d01b031690565b9190565b915050612dbf91612dac612d9e61166d565b65ffffffffffff9093168352565b6001600160d01b03881682860152612c64565b612d7a565b612de89250612dd4612d9e61166d565b6001600160d01b0385166020830152612c64565b5f9190565b5f80612e359260018060a01b03169360208151910182865af13d15612e81573d90612e178261167e565b91612e25604051938461164b565b82523d5f602084013e5b8361385b565b8051908115159182612e66575b5050612e4b5750565b635274afe760e01b5f526001600160a01b031660045260245ffd5b612e799250602080918301019101611fc9565b155f80612e42565b606090612e2f565b8115612e93570490565b634e487b7160e01b5f52601260045260245ffd5b8015613015576102dc90612fab612fa4612f9a612f90612f86612f7c612f72612f686001612f565f8b608081901c80613007575b5080612eea612f4c9260401c90565b80612ffa575b50612efb8160201c90565b80612fed575b50612f0c8160101c90565b80612fe0575b50612f1d8160081c90565b80612fd3575b50612f2e8160041c90565b80612fc6575b50612f3f8160021c90565b80612fb9575b5060011c90565b612fb15760011c90565b1b612f61818b612e89565b0160011c90565b612f61818a612e89565b612f618189612e89565b612f618188612e89565b612f618187612e89565b612f618186612e89565b612f618185612e89565b8092612e89565b9061337c565b820160011c90565b600291509201915f612f45565b600491509201915f612f34565b600891509201915f612f23565b601091509201915f612f12565b602091509201915f612f01565b604091509201915f612ef0565b608092509050612f4c612edb565b505f90565b905b8383106130295750505090565b909192613036818561338e565b90835f5265ffffffffffff8260205f2001541665ffffffffffff8416105f146130635750925b919061301c565b9350600181018091111561305c57611dc3565b60ff5f8051602061397a8339815191525460401c161561309257565b631afcd79f60e31b5f5260045ffd5b601f81116130ad575050565b5f805160206138da8339815191525f5260205f20906020601f840160051c830193106130f3575b601f0160051c01905b8181106130e8575050565b5f81556001016130dd565b90915081906130d4565b601f821161310a57505050565b5f5260205f20906020601f840160051c83019310613142575b601f0160051c01905b818110613137575050565b5f815560010161312c565b9091508190613123565b90815167ffffffffffffffff81116116465761318c816131795f805160206138fa83398151915254611b87565b5f805160206138fa8339815191526130fd565b602092601f82116001146131cc576131bb929382915f926126135750508160011b915f199060031b1c19161790565b5f805160206138fa83398151915255565b5f805160206138fa8339815191525f52601f198216937f46a2803e59a4de4e7a4c574b1243f25977ac4c77d5a1a4a609b5394cebb4a2aa915f5b8681106132485750836001959610613230575b505050811b015f805160206138fa83398151915255565b01515f1960f88460031b161c191690555f8080613219565b91926020600181928685015181550194019201613206565b91907f7fffffffffffffffffffffffffffffff5d576e7357a4501ddfe92f46681b20a084116132d7579160209360809260ff5f9560405194855216868401526040830152606082015282805260015afa15610a83575f516001600160a01b038116156132cd57905f905f90565b505f906001905f90565b5050505f9160039190565b600411156132ec57565b634e487b7160e01b5f52602160045260245ffd5b613309816132e2565b80613312575050565b61331b816132e2565b600181036133325763f645eedf60e01b5f5260045ffd5b61333b816132e2565b60028103613356575063fce698f760e01b5f5260045260245ffd5b806133626003926132e2565b1461336a5750565b6335e2f38360e21b5f5260045260245ffd5b9080821015613389575090565b905090565b90808216911860011c81018091116108195790565b6001600160a01b0380831693929190811690818514158061349e575b6133cb575b5050505050565b81613440575b5050826133e0575b80806133c4565b7fdec2bacdd2f05b59de34da9b523dff8be42e5e38e818c82fdb0bae774387a7249161341761341161341d93611e2f565b91612794565b906136de565b604080516001600160d01b039384168152919092166020820152a25f80806133d9565b61347c61346d7fdec2bacdd2f05b59de34da9b523dff8be42e5e38e818c82fdb0bae774387a72492611e2f565b61347686612794565b906136a6565b604080516001600160d01b039384168152919092166020820152a25f806133d1565b508315156133bf565b8054600160401b811015611646576134c491600182018155612c28565b612cab57815181546020909301516601000000000000600160d01b0360309190911b166001600160d01b031990931665ffffffffffff90911617919091179055565b906040516135138161162a565b915465ffffffffffff8116835260301c6001600160a01b03166020830152565b905b8383106135425750505090565b90919261354f818561338e565b9065ffffffffffff6135618386612c28565b50541665ffffffffffff8416101561357d5750925b9190613535565b9350600181018091111561357657611dc3565b61167c91906001600160a01b03168015613609575b6135b66135b183612794565b61375f565b50505f9081525f805160206138ba83398151915260205260408120549080527fd4fb29e10204005f1a39963c6862b79a755e22f0177c53f05cdc3786c702f974546001600160a01b0390811691166133a3565b61361a61361583612794565b613712565b50506135a5565b9061167c9161363261361583612794565b50506001600160a01b03168015613693575b5f805160206138ba8339815191526020527fd4fb29e10204005f1a39963c6862b79a755e22f0177c53f05cdc3786c702f974545f9182526040909120546001600160a01b0390811691166133a3565b61369f6135b183612794565b5050613644565b906136b043612806565b906136ba83612a77565b6001600160d01b039182169082160391908211610819576136da92612cd4565b9091565b906136e843612806565b906136f283612a77565b6001600160d01b039182169082160191908211610819576136da92612cd4565b61371b43612806565b906137325f8051602061395a833981519152612a77565b6001600160d01b0391821690821601908111610819576136da915f8051602061395a833981519152612cd4565b61376843612806565b9061377f5f8051602061395a833981519152612a77565b6001600160d01b0391821690821603908111610819576136da915f8051602061395a833981519152612cd4565b6137b4611bbf565b80519081156137c4576020012090565b50507fa16a46d94261c7517cc8ff89f61c0ce93598e3c849801011dee649a6a557d1005480156137f15790565b507fc5d2460186f7233c927e7db2dcc703c0e500b653ca82273b7bfad8045d85a47090565b61381e611cb2565b805190811561382e576020012090565b50507fa16a46d94261c7517cc8ff89f61c0ce93598e3c849801011dee649a6a557d1015480156137f15790565b9061387f575080511561387057805190602001fd5b630a12f52160e11b5f5260045ffd5b815115806138b0575b613890575090565b639996b31560e01b5f9081526001600160a01b0391909116600452602490fd5b50803b1561388856fee8b26c30fad74198956032a3533d903385d56dd795af560196f9c78d4af40d0052c63247e1f47db19d5ce0460030c497f067ca4cebf71ba98eeadabe20bace0352c63247e1f47db19d5ce0460030c497f067ca4cebf71ba98eeadabe20bace049016d09d72d40fdae2fd8ceac6b6234c7706214fd39c1cd1e609a0528c19930052c63247e1f47db19d5ce0460030c497f067ca4cebf71ba98eeadabe20bace02e8b26c30fad74198956032a3533d903385d56dd795af560196f9c78d4af40d02f0c57e16840df040f15088dc2f81fe391c3923bec73e23a9662efc9c229c6a00237e158222e3e6968b72b9db0d8043aacf074ad9f650f0d1606b4d82ee432c00a2646970667358221220c82ce4756819260b95a3678369e4e443539072858771a69c508d0b130fcf1c3b64736f6c634300081a0033","linkReferences":{}},"methodIdentifiers":{"CLOCK_MODE()":"4bf5d7e9","acceptOwnership()":"79ba5097","agentNft()":"9cbef4a9","allowance(address,address)":"dd62ed3e","approve(address,uint256)":"095ea7b3","assetToken()":"1083f761","balanceOf(address)":"70a08231","canStake()":"9ed27809","checkpoints(address,uint32)":"f1127ed8","clock()":"91ddadf4","decimals()":"313ce567","delegate(address)":"5c19a95c","delegateBySig(address,uint256,uint256,uint8,bytes32,bytes32)":"c3cda520","delegates(address)":"587cde1e","eip712Domain()":"84b0196e","founder()":"4d853ee5","getPastBalanceOf(address,uint256)":"d7b7d405","getPastDelegates(address,uint256)":"5ec80600","getPastTotalSupply(uint256)":"8e539e8c","getPastVotes(address,uint256)":"3a46b1a8","getVotes(address)":"9ab24eb0","initialLock()":"836f8f20","initialize(string,string,address,address,uint256,address,bool)":"b2193b4d","matureAt()":"a5e881b3","name()":"06fdde03","nonces(address)":"7ecebe00","numCheckpoints(address)":"6fcfff45","owner()":"8da5cb5b","pendingOwner()":"e30c3978","removeLpLiquidity(address,uint256,address,uint256,uint256,uint256)":"937764e5","renounceOwnership()":"715018a6","setCanStake(bool)":"e8867180","setMatureAt(uint256)":"7e893f80","stake(uint256,address,address)":"a7d545db","symbol()":"95d89b41","totalSupply()":"18160ddd","transfer(address,uint256)":"a9059cbb","transferFrom(address,address,uint256)":"23b872dd","transferOwnership(address)":"f2fde38b","withdraw(uint256)":"2e1a7d4d"},"id":103}