{"abi":[{"type":"constructor","inputs":[],"stateMutability":"nonpayable"},{"type":"function","name":"CLOCK_MODE","inputs":[],"outputs":[{"name":"","type":"string","internalType":"string"}],"stateMutability":"view"},{"type":"function","name":"agentNft","inputs":[],"outputs":[{"name":"","type":"address","internalType":"address"}],"stateMutability":"view"},{"type":"function","name":"allowance","inputs":[{"name":"owner","type":"address","internalType":"address"},{"name":"spender","type":"address","internalType":"address"}],"outputs":[{"name":"","type":"uint256","internalType":"uint256"}],"stateMutability":"view"},{"type":"function","name":"approve","inputs":[{"name":"","type":"address","internalType":"address"},{"name":"","type":"uint256","internalType":"uint256"}],"outputs":[{"name":"","type":"bool","internalType":"bool"}],"stateMutability":"nonpayable"},{"type":"function","name":"assetToken","inputs":[],"outputs":[{"name":"","type":"address","internalType":"address"}],"stateMutability":"view"},{"type":"function","name":"balanceOf","inputs":[{"name":"account","type":"address","internalType":"address"}],"outputs":[{"name":"","type":"uint256","internalType":"uint256"}],"stateMutability":"view"},{"type":"function","name":"canStake","inputs":[],"outputs":[{"name":"","type":"bool","internalType":"bool"}],"stateMutability":"view"},{"type":"function","name":"checkpoints","inputs":[{"name":"account","type":"address","internalType":"address"},{"name":"pos","type":"uint32","internalType":"uint32"}],"outputs":[{"name":"","type":"tuple","internalType":"struct Checkpoints.Checkpoint208","components":[{"name":"_key","type":"uint48","internalType":"uint48"},{"name":"_value","type":"uint208","internalType":"uint208"}]}],"stateMutability":"view"},{"type":"function","name":"clock","inputs":[],"outputs":[{"name":"","type":"uint48","internalType":"uint48"}],"stateMutability":"view"},{"type":"function","name":"decimals","inputs":[],"outputs":[{"name":"","type":"uint8","internalType":"uint8"}],"stateMutability":"view"},{"type":"function","name":"delegate","inputs":[{"name":"delegatee","type":"address","internalType":"address"}],"outputs":[],"stateMutability":"nonpayable"},{"type":"function","name":"delegateBySig","inputs":[{"name":"delegatee","type":"address","internalType":"address"},{"name":"nonce","type":"uint256","internalType":"uint256"},{"name":"expiry","type":"uint256","internalType":"uint256"},{"name":"v","type":"uint8","internalType":"uint8"},{"name":"r","type":"bytes32","internalType":"bytes32"},{"name":"s","type":"bytes32","internalType":"bytes32"}],"outputs":[],"stateMutability":"nonpayable"},{"type":"function","name":"delegates","inputs":[{"name":"account","type":"address","internalType":"address"}],"outputs":[{"name":"","type":"address","internalType":"address"}],"stateMutability":"view"},{"type":"function","name":"eip712Domain","inputs":[],"outputs":[{"name":"fields","type":"bytes1","internalType":"bytes1"},{"name":"name","type":"string","internalType":"string"},{"name":"version","type":"string","internalType":"string"},{"name":"chainId","type":"uint256","internalType":"uint256"},{"name":"verifyingContract","type":"address","internalType":"address"},{"name":"salt","type":"bytes32","internalType":"bytes32"},{"name":"extensions","type":"uint256[]","internalType":"uint256[]"}],"stateMutability":"view"},{"type":"function","name":"founder","inputs":[],"outputs":[{"name":"","type":"address","internalType":"address"}],"stateMutability":"view"},{"type":"function","name":"getPastBalanceOf","inputs":[{"name":"account","type":"address","internalType":"address"},{"name":"timepoint","type":"uint256","internalType":"uint256"}],"outputs":[{"name":"","type":"uint256","internalType":"uint256"}],"stateMutability":"view"},{"type":"function","name":"getPastDelegates","inputs":[{"name":"account","type":"address","internalType":"address"},{"name":"timepoint","type":"uint256","internalType":"uint256"}],"outputs":[{"name":"","type":"address","internalType":"address"}],"stateMutability":"view"},{"type":"function","name":"getPastTotalSupply","inputs":[{"name":"timepoint","type":"uint256","internalType":"uint256"}],"outputs":[{"name":"","type":"uint256","internalType":"uint256"}],"stateMutability":"view"},{"type":"function","name":"getPastVotes","inputs":[{"name":"account","type":"address","internalType":"address"},{"name":"timepoint","type":"uint256","internalType":"uint256"}],"outputs":[{"name":"","type":"uint256","internalType":"uint256"}],"stateMutability":"view"},{"type":"function","name":"getVotes","inputs":[{"name":"account","type":"address","internalType":"address"}],"outputs":[{"name":"","type":"uint256","internalType":"uint256"}],"stateMutability":"view"},{"type":"function","name":"initialLock","inputs":[],"outputs":[{"name":"","type":"uint256","internalType":"uint256"}],"stateMutability":"view"},{"type":"function","name":"initialize","inputs":[{"name":"_name","type":"string","internalType":"string"},{"name":"_symbol","type":"string","internalType":"string"},{"name":"_founder","type":"address","internalType":"address"},{"name":"_assetToken","type":"address","internalType":"address"},{"name":"_matureAt","type":"uint256","internalType":"uint256"},{"name":"_agentNft","type":"address","internalType":"address"},{"name":"_canStake","type":"bool","internalType":"bool"}],"outputs":[],"stateMutability":"nonpayable"},{"type":"function","name":"matureAt","inputs":[],"outputs":[{"name":"","type":"uint256","internalType":"uint256"}],"stateMutability":"view"},{"type":"function","name":"name","inputs":[],"outputs":[{"name":"","type":"string","internalType":"string"}],"stateMutability":"view"},{"type":"function","name":"nonces","inputs":[{"name":"owner","type":"address","internalType":"address"}],"outputs":[{"name":"","type":"uint256","internalType":"uint256"}],"stateMutability":"view"},{"type":"function","name":"numCheckpoints","inputs":[{"name":"account","type":"address","internalType":"address"}],"outputs":[{"name":"","type":"uint32","internalType":"uint32"}],"stateMutability":"view"},{"type":"function","name":"setCanStake","inputs":[{"name":"_canStake","type":"bool","internalType":"bool"}],"outputs":[],"stateMutability":"nonpayable"},{"type":"function","name":"setMatureAt","inputs":[{"name":"_matureAt","type":"uint256","internalType":"uint256"}],"outputs":[],"stateMutability":"nonpayable"},{"type":"function","name":"stake","inputs":[{"name":"amount","type":"uint256","internalType":"uint256"},{"name":"receiver","type":"address","internalType":"address"},{"name":"delegatee","type":"address","internalType":"address"}],"outputs":[],"stateMutability":"nonpayable"},{"type":"function","name":"symbol","inputs":[],"outputs":[{"name":"","type":"string","internalType":"string"}],"stateMutability":"view"},{"type":"function","name":"totalSupply","inputs":[],"outputs":[{"name":"","type":"uint256","internalType":"uint256"}],"stateMutability":"view"},{"type":"function","name":"transfer","inputs":[{"name":"","type":"address","internalType":"address"},{"name":"","type":"uint256","internalType":"uint256"}],"outputs":[{"name":"","type":"bool","internalType":"bool"}],"stateMutability":"nonpayable"},{"type":"function","name":"transferFrom","inputs":[{"name":"","type":"address","internalType":"address"},{"name":"","type":"address","internalType":"address"},{"name":"","type":"uint256","internalType":"uint256"}],"outputs":[{"name":"","type":"bool","internalType":"bool"}],"stateMutability":"nonpayable"},{"type":"function","name":"withdraw","inputs":[{"name":"amount","type":"uint256","internalType":"uint256"}],"outputs":[],"stateMutability":"nonpayable"},{"type":"event","name":"Approval","inputs":[{"name":"owner","type":"address","indexed":true,"internalType":"address"},{"name":"spender","type":"address","indexed":true,"internalType":"address"},{"name":"value","type":"uint256","indexed":false,"internalType":"uint256"}],"anonymous":false},{"type":"event","name":"DelegateChanged","inputs":[{"name":"delegator","type":"address","indexed":true,"internalType":"address"},{"name":"fromDelegate","type":"address","indexed":true,"internalType":"address"},{"name":"toDelegate","type":"address","indexed":true,"internalType":"address"}],"anonymous":false},{"type":"event","name":"DelegateVotesChanged","inputs":[{"name":"delegate","type":"address","indexed":true,"internalType":"address"},{"name":"previousVotes","type":"uint256","indexed":false,"internalType":"uint256"},{"name":"newVotes","type":"uint256","indexed":false,"internalType":"uint256"}],"anonymous":false},{"type":"event","name":"EIP712DomainChanged","inputs":[],"anonymous":false},{"type":"event","name":"Initialized","inputs":[{"name":"version","type":"uint64","indexed":false,"internalType":"uint64"}],"anonymous":false},{"type":"event","name":"Transfer","inputs":[{"name":"from","type":"address","indexed":true,"internalType":"address"},{"name":"to","type":"address","indexed":true,"internalType":"address"},{"name":"value","type":"uint256","indexed":false,"internalType":"uint256"}],"anonymous":false},{"type":"error","name":"AddressEmptyCode","inputs":[{"name":"target","type":"address","internalType":"address"}]},{"type":"error","name":"AddressInsufficientBalance","inputs":[{"name":"account","type":"address","internalType":"address"}]},{"type":"error","name":"CheckpointUnorderedInsertion","inputs":[]},{"type":"error","name":"CheckpointUnorderedInsertion","inputs":[]},{"type":"error","name":"ECDSAInvalidSignature","inputs":[]},{"type":"error","name":"ECDSAInvalidSignatureLength","inputs":[{"name":"length","type":"uint256","internalType":"uint256"}]},{"type":"error","name":"ECDSAInvalidSignatureS","inputs":[{"name":"s","type":"bytes32","internalType":"bytes32"}]},{"type":"error","name":"ERC20ExceededSafeSupply","inputs":[{"name":"increasedSupply","type":"uint256","internalType":"uint256"},{"name":"cap","type":"uint256","internalType":"uint256"}]},{"type":"error","name":"ERC20InsufficientAllowance","inputs":[{"name":"spender","type":"address","internalType":"address"},{"name":"allowance","type":"uint256","internalType":"uint256"},{"name":"needed","type":"uint256","internalType":"uint256"}]},{"type":"error","name":"ERC20InsufficientBalance","inputs":[{"name":"sender","type":"address","internalType":"address"},{"name":"balance","type":"uint256","internalType":"uint256"},{"name":"needed","type":"uint256","internalType":"uint256"}]},{"type":"error","name":"ERC20InvalidApprover","inputs":[{"name":"approver","type":"address","internalType":"address"}]},{"type":"error","name":"ERC20InvalidReceiver","inputs":[{"name":"receiver","type":"address","internalType":"address"}]},{"type":"error","name":"ERC20InvalidSender","inputs":[{"name":"sender","type":"address","internalType":"address"}]},{"type":"error","name":"ERC20InvalidSpender","inputs":[{"name":"spender","type":"address","internalType":"address"}]},{"type":"error","name":"ERC5805FutureLookup","inputs":[{"name":"timepoint","type":"uint256","internalType":"uint256"},{"name":"clock","type":"uint48","internalType":"uint48"}]},{"type":"error","name":"ERC6372InconsistentClock","inputs":[]},{"type":"error","name":"FailedInnerCall","inputs":[]},{"type":"error","name":"InvalidAccountNonce","inputs":[{"name":"account","type":"address","internalType":"address"},{"name":"currentNonce","type":"uint256","internalType":"uint256"}]},{"type":"error","name":"InvalidInitialization","inputs":[]},{"type":"error","name":"NotInitializing","inputs":[]},{"type":"error","name":"SafeCastOverflowedUintDowncast","inputs":[{"name":"bits","type":"uint8","internalType":"uint8"},{"name":"value","type":"uint256","internalType":"uint256"}]},{"type":"error","name":"SafeERC20FailedOperation","inputs":[{"name":"token","type":"address","internalType":"address"}]},{"type":"error","name":"VotesExpiredSignature","inputs":[{"name":"expiry","type":"uint256","internalType":"uint256"}]}],"bytecode":{"object":"0x6080806040523460d0577ff0c57e16840df040f15088dc2f81fe391c3923bec73e23a9662efc9c229c6a005460ff8160401c1660c1576002600160401b03196001600160401b03821601605c575b6040516131d090816100d58239f35b6001600160401b0319166001600160401b039081177ff0c57e16840df040f15088dc2f81fe391c3923bec73e23a9662efc9c229c6a005581527fc7f505b2f371ae2175ee4913f4499e1f2633a7b5936321eed1cdaeb6115181d290602090a15f80604d565b63f92ee8a960e01b5f5260045ffd5b5f80fdfe60806040526004361015610011575f80fd5b5f3560e01c806306fdde0314610234578063095ea7b31461022f5780631083f7611461022a57806318160ddd1461022557806323b872dd146102205780632e1a7d4d1461021b578063313ce567146102165780633a46b1a8146102115780634bf5d7e91461020c5780634d853ee514610207578063587cde1e146102025780635c19a95c146101fd5780635ec80600146101f85780636fcfff45146101f357806370a08231146101ee5780637e893f80146101e95780637ecebe00146101e4578063836f8f20146101df57806384b0196e146101da5780638e539e8c146101d557806391ddadf4146101d057806395d89b41146101cb5780639ab24eb0146101c65780639cbef4a9146101c15780639ed27809146101bc578063a5e881b3146101b7578063a7d545db146101b2578063a9059cbb146101ad578063b2193b4d146101a8578063c3cda520146101a3578063d7b7d4051461019e578063dd62ed3e14610199578063e8867180146101945763f1127ed81461018f575f80fd5b611526565b6114b0565b611441565b6113b2565b611272565b6111e0565b6110f3565b610df8565b610ddb565b610db9565b610d91565b610d5a565b610c9d565b610c72565b610b26565b610a56565b6109b6565b61095f565b6108a4565b610845565b6107f0565b6106d0565b6106ae565b610662565b61063a565b6105aa565b61052d565b610512565b610499565b610471565b610448565b610420565b6103c9565b61027f565b5f91031261024357565b5f80fd5b805180835260209291819084018484015e5f828201840152601f01601f1916010190565b90602061027c928181520190610247565b90565b34610243575f366003190112610243576040515f5f805160206130fb833981519152546102ab816115ad565b808452906001811690811561034d57506001146102e3575b6102df836102d381850382611141565b6040519182918261026b565b0390f35b5f805160206130fb8339815191525f9081527f2ae08a8e29253f69ac5d979a101956ab8f8d9d7ded63fa7a83b16fc47648eab0939250905b808210610333575090915081016020016102d36102c3565b91926001816020925483858801015201910190929161031b565b60ff191660208086019190915291151560051b840190910191506102d390506102c3565b600435906001600160a01b038216820361024357565b602435906001600160a01b038216820361024357565b604435906001600160a01b038216820361024357565b60a435906001600160a01b038216820361024357565b34610243576040366003190112610243576103e2610371565b5060405162461bcd60e51b8152602060048201526015602482015274105c1c1c9bdd99481b9bdd081cdd5c1c1bdc9d1959605a1b6044820152606490fd5b34610243575f366003190112610243576002546040516001600160a01b039091168152602090f35b34610243575f3660031901126102435760205f8051602061313b83398151915254604051908152f35b346102435760603660031901126102435761048a610371565b50610493610387565b506117ab565b346102435760203660031901126102435760085460043560ff82166104dc5760016104cb9260ff1916176008556118c5565b6104da60ff1960085416600855565b005b60405162461bcd60e51b815260206004820152600e60248201526d31b0b73737ba103932b2b73a32b960911b6044820152606490fd5b34610243575f36600319011261024357602060405160128152f35b3461024357604036600319011261024357610546610371565b6024359065ffffffffffff61055a43612013565b1680831015610594575061057061058891611855565b6001600160d01b039261058290612013565b90612050565b60405191168152602090f35b82637669fc0f60e11b5f5260045260245260445ffd5b34610243575f366003190112610243576105c343612013565b65ffffffffffff806105d443612013565b1691160361062b576102df6040516105ed604082611141565b601d81527f6d6f64653d626c6f636b6e756d6265722666726f6d3d64656661756c740000006020820152604051918291602083526020830190610247565b6301bfc1c560e61b5f5260045ffd5b34610243575f366003190112610243576001546040516001600160a01b039091168152602090f35b34610243576020366003190112610243576001600160a01b03610683610371565b165f525f805160206130db833981519152602052602060018060a01b0360405f205416604051908152f35b34610243576020366003190112610243576104da6106ca610371565b336120ea565b34610243576040366003190112610243576106e9610371565b6024359065ffffffffffff6106fd43612013565b1680831015610594575060018060a01b03165f525f60205261072260405f2091612013565b8154905f829160058411610792575b61073c935084612d54565b90816107635750506102df5f5b6040516001600160a01b0390911681529081906020820190565b61077c61078d916107766102df946117fd565b90612449565b505460301c6001600160a01b031690565b610749565b9161079c846126c8565b84039384116107eb5765ffffffffffff6107b68587612449565b50541665ffffffffffff841610156107d3575061073c9291610731565b919050600183018093116107eb5761073c9290610731565b6117e9565b346102435760203660031901126102435761081161080c610371565b611855565b5463ffffffff811161082e5760209063ffffffff60405191168152f35b6306dfcc6560e41b5f52602060045260245260445ffd5b3461024357602036600319011261024357602061089c610863610371565b6001600160a01b03165f9081527f52c63247e1f47db19d5ce0460030c497f067ca4cebf71ba98eeadabe20bace00602052604090205490565b604051908152f35b34610243576020366003190112610243576044600435600354604051632474521560e21b81527fa49807205ce4d355092ef5a8a18f56e8913cf4a201fbe287825b095693c2177560048201523360248201529260209184919082906001600160a01b03165afa91821561095a576104da92610926915f9161092b575b506119d6565b600455565b61094d915060203d602011610953575b6109458183611141565b8101906119b6565b5f610920565b503d61093b565b6119cb565b34610243576020366003190112610243576001600160a01b03610980610371565b165f527f5ab42ced628888259c08ac98db1eb0cf702fc1501344311d8b100cd1bfe4bb00602052602060405f2054604051908152f35b34610243575f366003190112610243576020600654604051908152f35b9293916109f5610a0392600f60f81b865260e0602087015260e0860190610247565b908482036040860152610247565b92606083015260018060a01b031660808201525f60a082015260c0818303910152602080835192838152019201905f5b818110610a405750505090565b8251845260209384019390920191600101610a33565b34610243575f366003190112610243577fa16a46d94261c7517cc8ff89f61c0ce93598e3c849801011dee649a6a557d100541580610afd575b15610ac057610a9c6115e5565b610aa46116d8565b906102df610ab0611a0e565b60405193849330914691866109d3565b60405162461bcd60e51b81526020600482015260156024820152741152540dcc4c8e88155b9a5b9a5d1a585b1a5e9959605a1b6044820152606490fd5b507fa16a46d94261c7517cc8ff89f61c0ce93598e3c849801011dee649a6a557d1015415610a8f565b346102435760203660031901126102435760043565ffffffffffff610b4a43612013565b169081811015610c5d57610b5d90612013565b5f8051602061315b83398151915254905f829160058411610bfd575b610b9193505f8051602061315b83398151915261283b565b80610bb657506102df5f5b6040516001600160d01b0390911681529081906020820190565b610bc26102df916117fd565b5f8051602061315b8339815191525f527f88c46c62109817164d0ae1873830d4299a82e5daf552a3d8e989b27638fcf748015460301c610b9c565b9192610c08816126c8565b81039081116107eb57610b91935f8051602061315b8339815191525f5265ffffffffffff8260205f2001541665ffffffffffff8516105f14610c4b575091610b79565b929150610c5790612042565b90610b79565b637669fc0f60e11b5f5260045260245260445ffd5b34610243575f366003190112610243576020610c8d43612013565b65ffffffffffff60405191168152f35b34610243575f366003190112610243576040515f5f8051602061311b83398151915254610cc9816115ad565b808452906001811690811561034d5750600114610cf0576102df836102d381850382611141565b5f8051602061311b8339815191525f9081527f46a2803e59a4de4e7a4c574b1243f25977ac4c77d5a1a4a609b5394cebb4a2aa939250905b808210610d40575090915081016020016102d36102c3565b919260018160209254838588010152019101909291610d28565b346102435760203660031901126102435760206001600160d01b03610d88610d8361080c610371565b612298565b16604051908152f35b34610243575f366003190112610243576003546040516001600160a01b039091168152602090f35b34610243575f36600319011261024357602060ff600554166040519015158152f35b34610243575f366003190112610243576020600454604051908152f35b3461024357606036600319011261024357600435610e14610387565b610e1c61039d565b60055460ff1680156110d2575b610e3290611a29565b610e3d831515611a83565b600254610e6090610e54906001600160a01b031681565b6001600160a01b031690565b6040516370a0823160e01b8152336004820152602081602481855afa90811561095a57610e989186915f916110b3575b501015611acf565b604051636eb1769f60e11b815233600482015230602482015290602090829060449082905afa90811561095a57610eda9185915f91611094575b501015611b1a565b600354610ef190610e54906001600160a01b031681565b60405163225742f560e11b81523060048201529190602083602481845afa92831561095a575f93611063575b50604051634752f9ef60e01b815260048101849052602081602481855afa801561095a57610f53915f91611044575b5015611b71565b5f8051602061313b8339815191525415611036575b803b1561024357604051634b56175360e01b815260048101939093526001600160a01b03821660248401525f908390604490829084905af1801561095a576104da94610fe393610fdd9261101c575b50610fd7813033610fd2610e5460025460018060a01b031690565b6122c2565b84612306565b826120ea565b6001600160a01b0381165f9081526007602052604090209061101661101061100a43612013565b9261188d565b54611fa2565b916124f5565b8061102a5f61103093611141565b80610239565b5f610fb7565b61103f85600655565b610f68565b61105d915060203d602011610953576109458183611141565b5f610f4c565b61108691935060203d60201161108d575b61107e8183611141565b810190611ac0565b915f610f1d565b503d611074565b6110ad915060203d60201161108d5761107e8183611141565b5f610ed2565b6110cc915060203d60201161108d5761107e8183611141565b5f610e90565b50610e326110eb5f8051602061313b8339815191525490565b159050610e29565b3461024357604036600319011261024357610493610371565b634e487b7160e01b5f52604160045260245ffd5b6040810190811067ffffffffffffffff82111761113c57604052565b61110c565b90601f8019910116810190811067ffffffffffffffff82111761113c57604052565b60405190611172604083611141565b565b67ffffffffffffffff811161113c57601f01601f191660200190565b81601f82011215610243578035906111a782611174565b926111b56040519485611141565b8284526020838301011161024357815f926020809301838601378301015290565b8015150361024357565b346102435760e03660031901126102435760043567ffffffffffffffff811161024357611211903690600401611190565b60243567ffffffffffffffff811161024357611231903690600401611190565b9061123a61039d565b60643592906001600160a01b0384168403610243576104da936084359161125f6103b3565b9360c4359561126d876111d6565b611bb1565b346102435760c03660031901126102435761128b610371565b6044359060243560643560ff811681036102435760843560a4359185421161139f57916113939161139a9360426104da9860405160208101917fe48329057bfd03d55e49b547132e39cffd9c1820ad7b9d4c5307691425d15adf835260018060a01b038b16604083015289606083015260808201526080815261130f60a082611141565b51902061131a612fcd565b611322613037565b6040519060208201927f8b73c3c69bb8fe3d512ecc4cf759cc79239f7b179b0ffacaa9a75d522b39400f8452604083015260608201524660808201523060a082015260a0815261137360c082611141565b519020906040519161190160f01b835260028301526022820152206123d2565b91826123ea565b6120ea565b85632341d78760e11b5f5260045260245ffd5b34610243576040366003190112610243576113cb610371565b60243565ffffffffffff6113de43612013565b16918282101561142b576001600160a01b03165f9081526007602052604090206102df92506001600160d01b039161141a919061058290612013565b604051911681529081906020820190565b50637669fc0f60e11b5f5260045260245260445ffd5b346102435760403660031901126102435761145a610371565b611462610387565b6001600160a01b039182165f9081527f52c63247e1f47db19d5ce0460030c497f067ca4cebf71ba98eeadabe20bace0160209081526040808320949093168252928352819020549051908152f35b34610243576020366003190112610243576004356114cd816111d6565b6001546001600160a01b031633036114f35760ff80196005541691151516176005555f80f35b60405162461bcd60e51b815260206004820152600b60248201526a2737ba103337bab73232b960a91b6044820152606490fd5b346102435760403660031901126102435761153f610371565b60243563ffffffff811681036102435761158161158791611573604094611564611edf565b5061156d611edf565b50611855565b61157b611edf565b50612449565b506124d1565b8151815165ffffffffffff1681526020918201516001600160d01b031691810191909152f35b90600182811c921680156115db575b60208310146115c757565b634e487b7160e01b5f52602260045260245ffd5b91607f16916115bc565b604051905f827fa16a46d94261c7517cc8ff89f61c0ce93598e3c849801011dee649a6a557d1025491611617836115ad565b80835292600181169081156116b9575060011461163b575b61117292500383611141565b507fa16a46d94261c7517cc8ff89f61c0ce93598e3c849801011dee649a6a557d1025f90815290917f42ad5d3e1f2e6e70edcf6d991b8a3023d3fca8047a131592f9edb9fd9b89d57d5b81831061169d5750509060206111729282010161162f565b6020919350806001915483858901015201910190918492611685565b6020925061117294915060ff191682840152151560051b82010161162f565b604051905f827fa16a46d94261c7517cc8ff89f61c0ce93598e3c849801011dee649a6a557d103549161170a836115ad565b80835292600181169081156116b9575060011461172d5761117292500383611141565b507fa16a46d94261c7517cc8ff89f61c0ce93598e3c849801011dee649a6a557d1035f90815290917f5f9ce34815f8e11431c7bb75a8e6886a91478f7ffc1dbb0a98dc240fddd76b755b81831061178f5750509060206111729282010161162f565b6020919350806001915483858901015201910190918492611777565b60405162461bcd60e51b8152602060048201526016602482015275151c985b9cd9995c881b9bdd081cdd5c1c1bdc9d195960521b6044820152606490fd5b634e487b7160e01b5f52601160045260245ffd5b5f198101919082116107eb57565b919082039182116107eb57565b1561181f57565b60405162461bcd60e51b815260206004820152600e60248201526d139bdd081b585d1d5c99481e595d60921b6044820152606490fd5b6001600160a01b03165f9081527fe8b26c30fad74198956032a3533d903385d56dd795af560196f9c78d4af40d016020526040902090565b6001600160a01b03165f9081527f52c63247e1f47db19d5ce0460030c497f067ca4cebf71ba98eeadabe20bace006020526040902090565b806118cf3361188d565b541061197a5760015461117291906118ef906001600160a01b0316610e54565b33148061195d575b61194a575b6119068133611ef7565b335f90815260076020526040902061192c906119206120e1565b6110166110103361188d565b50506002543390611945906001600160a01b0316610e54565b611fd3565b611958600454421015611818565b6118fc565b506119718161196b3361188d565b5461180b565b600654116118f7565b60405162461bcd60e51b8152602060048201526014602482015273496e73756666696369656e742062616c616e636560601b6044820152606490fd5b90816020910312610243575161027c816111d6565b6040513d5f823e3d90fd5b156119dd57565b60405162461bcd60e51b81526020600482015260096024820152682737ba1030b236b4b760b91b6044820152606490fd5b60405190611a1d602083611141565b5f808352366020840137565b15611a3057565b60405162461bcd60e51b815260206004820152602560248201527f5374616b696e672069732064697361626c656420666f722070726976617465206044820152641859d95b9d60da1b6064820152608490fd5b15611a8a57565b60405162461bcd60e51b815260206004820152600e60248201526d043616e6e6f74207374616b6520360941b6044820152606490fd5b90816020910312610243575190565b15611ad657565b606460405162461bcd60e51b815260206004820152602060248201527f496e73756666696369656e7420617373657420746f6b656e2062616c616e63656044820152fd5b15611b2157565b60405162461bcd60e51b815260206004820152602260248201527f496e73756666696369656e7420617373657420746f6b656e20616c6c6f77616e604482015261636560f01b6064820152608490fd5b15611b7857565b60405162461bcd60e51b81526020600482015260116024820152701059d95b9d08109b1858dadb1a5cdd1959607a1b6044820152606490fd5b9492909593915f8051602061317b833981519152549667ffffffffffffffff611bf1611be360ff8b60401c1615151590565b9967ffffffffffffffff1690565b1680159081611d07575b6001149081611cfd575b159081611cf4575b50611ce557611c519688611c48600167ffffffffffffffff195f8051602061317b8339815191525416175f8051602061317b83398151915255565b611cb057611d0f565b611c5757565b611c8160ff60401b195f8051602061317b83398151915254165f8051602061317b83398151915255565b604051600181527fc7f505b2f371ae2175ee4913f4499e1f2633a7b5936321eed1cdaeb6115181d290602090a1565b611ce0600160401b60ff60401b195f8051602061317b8339815191525416175f8051602061317b83398151915255565b611d0f565b63f92ee8a960e01b5f5260045ffd5b9050155f611c0d565b303b159150611c05565b899150611bfb565b939293611d1a612897565b611d22612897565b80519067ffffffffffffffff821161113c57611d5482611d4f5f805160206130fb833981519152546115ad565b6128c2565b602090601f8311600114611e2c57611df294611db0611e0f9895611d9c86611dd5976111729e9d9b97610926975f92611e21575b50508160011b915f199060031b1c19161790565b5f805160206130fb8339815191525561296d565b611db8612897565b60018060a01b03166001600160601b0360a01b6001541617600155565b60018060a01b03166001600160601b0360a01b6002541617600255565b60018060a01b03166001600160601b0360a01b6003541617600355565b60ff8019600554169115151617600555565b015190505f80611d88565b5f805160206130fb8339815191525f52601f19831691907f2ae08a8e29253f69ac5d979a101956ab8f8d9d7ded63fa7a83b16fc47648eab0925f5b818110611ec75750611e0f98956001866111729d9c9a9661092696611df29b96611dd59a611db09710611eaf575b505050811b015f805160206130fb8339815191525561296d565b01515f1960f88460031b161c191690555f8080611e95565b92936020600181928786015181550195019301611e67565b60405190611eec82611120565b5f6020838281520152565b6001600160a01b0381169291908315611f8f57611f138161188d565b54828110611f74576111729394835f9203611f2d8461188d565b555f8051602061313b833981519152805485900390556040518481527fddf252ad1be2c89b69c2b068fc378daa952ba7f163c4a11628f55a4df523b3ef90602090a3612db1565b90508363391434e360e21b5f5260045260245260445260645ffd5b634b637e8f60e11b5f525f60045260245ffd5b6001600160d01b038111611fbc576001600160d01b031690565b6306dfcc6560e41b5f5260d060045260245260445ffd5b60405163a9059cbb60e01b60208201526001600160a01b0390921660248301526044808301939093529181526111729161200e606483611141565b61260e565b65ffffffffffff811161202b5765ffffffffffff1690565b6306dfcc6560e41b5f52603060045260245260445ffd5b90600182018092116107eb57565b908154905f82916005841161208e575b61206b93508461283b565b806120765750505f90565b61207f906117fd565b905f5260205f20015460301c90565b9192612099816126c8565b81039081116107eb5761206b93855f5265ffffffffffff8260205f2001541665ffffffffffff8516105f146120cf575091612060565b9291506120db90612042565b90612060565b61027c43612013565b6001600160a01b038181165f8181525f805160206130db8339815191526020526040812080548685166001600160a01b031982168117909255929461219c94939093169286926121969290859088907f3134e8a2e6d97e929a7e54011ea5485d7d196dd5f0ba4d4ef95803e8e3fc257f9080a46001600160a01b03165f9081527f52c63247e1f47db19d5ce0460030c497f067ca4cebf71ba98eeadabe20bace00602052604090205490565b91612bc4565b5f525f60205260405f20906121b043612013565b8254929083156122515765ffffffffffff6121dc6121d66121d0876117fd565b85612449565b50612d27565b805165ffffffffffff168284169283911611612289575161220b9065ffffffffffff165b65ffffffffffff1690565b03612251575061222190610776611172946117fd565b5080546601000000000000600160d01b03191660309290921b6601000000000000600160d01b0316919091179055565b91611172935061228490612274612266611163565b65ffffffffffff9095168552565b6001600160a01b03166020840152565b612cc8565b632520601d60e01b5f5260045ffd5b805490816122a65750505f90565b815f198101116107eb575f525f199060205f2001015460301c90565b6040516323b872dd60e01b60208201526001600160a01b0392831660248201529290911660448301526064808301939093529181526111729161200e608483611141565b91906001600160a01b03831680156123bf575f8051602061313b833981519152548281018091116107eb575f8051602061313b833981519152556123498461188d565b8054830190556040518281525f907fddf252ad1be2c89b69c2b068fc378daa952ba7f163c4a11628f55a4df523b3ef90602090a35f8051602061313b83398151915254926001600160d01b038085116123a85750611172929350612e42565b630e58ae9360e11b5f52600485905260245260445ffd5b63ec442f0560e01b5f525f60045260245ffd5b9161027c93916123e193612a81565b90929192612b21565b6001600160a01b03165f8181527f5ab42ced628888259c08ac98db1eb0cf702fc1501344311d8b100cd1bfe4bb006020526040902080546001810190915591829003612434575050565b6301d4b62360e61b5f5260045260245260445ffd5b805482101561245e575f5260205f2001905f90565b634e487b7160e01b5f52603260045260245ffd5b634e487b7160e01b5f525f60045260245ffd5b8054600160401b81101561113c576124a291600182018155612449565b6124cc57815160209092015160301b65ffffffffffff191665ffffffffffff909216919091179055565b612472565b906040516124de81611120565b915465ffffffffffff8116835260301c6020830152565b8054929392919082156125e55761252161251c612511856117fd565b835f5260205f200190565b6124d1565b9065ffffffffffff612539835165ffffffffffff1690565b8185169182911611612289576125a9946020948892612561612200875165ffffffffffff1690565b036125ad575061259b92612577612582926117fd565b905f5260205f200190565b9065ffffffffffff82549181199060301b169116179055565b01516001600160d01b031690565b9190565b9150506125e0916125cd6125bf611163565b65ffffffffffff9093168352565b6001600160d01b03881682860152612485565b61259b565b61260992506125f56125bf611163565b6001600160d01b0385166020830152612485565b5f9190565b5f806126569260018060a01b03169360208151910182865af13d156126a2573d9061263882611174565b916126466040519384611141565b82523d5f602084013e5b8361307c565b8051908115159182612687575b505061266c5750565b635274afe760e01b5f526001600160a01b031660045260245ffd5b61269a92506020809183010191016119b6565b155f80612663565b606090612650565b81156126b4570490565b634e487b7160e01b5f52601260045260245ffd5b80156128365761027c906127cc6127c56127bb6127b16127a761279d61279361278960016127775f8b608081901c80612828575b508061270b61276d9260401c90565b8061281b575b5061271c8160201c90565b8061280e575b5061272d8160101c90565b80612801575b5061273e8160081c90565b806127f4575b5061274f8160041c90565b806127e7575b506127608160021c90565b806127da575b5060011c90565b6127d25760011c90565b1b612782818b6126aa565b0160011c90565b612782818a6126aa565b61278281896126aa565b61278281886126aa565b61278281876126aa565b61278281866126aa565b61278281856126aa565b80926126aa565b90612b9d565b820160011c90565b600291509201915f612766565b600491509201915f612755565b600891509201915f612744565b601091509201915f612733565b602091509201915f612722565b604091509201915f612711565b60809250905061276d6126fc565b505f90565b905b83831061284a5750505090565b9091926128578185612baf565b90835f5265ffffffffffff8260205f2001541665ffffffffffff8416105f146128845750925b919061283d565b9350600181018091111561287d576117e9565b60ff5f8051602061317b8339815191525460401c16156128b357565b631afcd79f60e31b5f5260045ffd5b601f81116128ce575050565b5f805160206130fb8339815191525f5260205f20906020601f840160051c83019310612914575b601f0160051c01905b818110612909575050565b5f81556001016128fe565b90915081906128f5565b601f821161292b57505050565b5f5260205f20906020601f840160051c83019310612963575b601f0160051c01905b818110612958575050565b5f815560010161294d565b9091508190612944565b90815167ffffffffffffffff811161113c576129ad8161299a5f8051602061311b833981519152546115ad565b5f8051602061311b83398151915261291e565b602092601f82116001146129ed576129dc929382915f92611e215750508160011b915f199060031b1c19161790565b5f8051602061311b83398151915255565b5f8051602061311b8339815191525f52601f198216937f46a2803e59a4de4e7a4c574b1243f25977ac4c77d5a1a4a609b5394cebb4a2aa915f5b868110612a695750836001959610612a51575b505050811b015f8051602061311b83398151915255565b01515f1960f88460031b161c191690555f8080612a3a565b91926020600181928685015181550194019201612a27565b91907f7fffffffffffffffffffffffffffffff5d576e7357a4501ddfe92f46681b20a08411612af8579160209360809260ff5f9560405194855216868401526040830152606082015282805260015afa1561095a575f516001600160a01b03811615612aee57905f905f90565b505f906001905f90565b5050505f9160039190565b60041115612b0d57565b634e487b7160e01b5f52602160045260245ffd5b612b2a81612b03565b80612b33575050565b612b3c81612b03565b60018103612b535763f645eedf60e01b5f5260045ffd5b612b5c81612b03565b60028103612b77575063fce698f760e01b5f5260045260245ffd5b80612b83600392612b03565b14612b8b5750565b6335e2f38360e21b5f5260045260245ffd5b9080821015612baa575090565b905090565b90808216911860011c81018091116107eb5790565b6001600160a01b03808316939291908116908185141580612cbf575b612bec575b5050505050565b81612c61575b505082612c01575b8080612be5565b7fdec2bacdd2f05b59de34da9b523dff8be42e5e38e818c82fdb0bae774387a72491612c38612c32612c3e93611855565b91611fa2565b90612eff565b604080516001600160d01b039384168152919092166020820152a25f8080612bfa565b612c9d612c8e7fdec2bacdd2f05b59de34da9b523dff8be42e5e38e818c82fdb0bae774387a72492611855565b612c9786611fa2565b90612ec7565b604080516001600160d01b039384168152919092166020820152a25f80612bf2565b50831515612be0565b8054600160401b81101561113c57612ce591600182018155612449565b6124cc57815181546020909301516601000000000000600160d01b0360309190911b166001600160d01b031990931665ffffffffffff90911617919091179055565b90604051612d3481611120565b915465ffffffffffff8116835260301c6001600160a01b03166020830152565b905b838310612d635750505090565b909192612d708185612baf565b9065ffffffffffff612d828386612449565b50541665ffffffffffff84161015612d9e5750925b9190612d56565b93506001810180911115612d97576117e9565b61117291906001600160a01b03168015612e2a575b612dd7612dd283611fa2565b612f80565b50505f9081525f805160206130db83398151915260205260408120549080527fd4fb29e10204005f1a39963c6862b79a755e22f0177c53f05cdc3786c702f974546001600160a01b039081169116612bc4565b612e3b612e3683611fa2565b612f33565b5050612dc6565b9061117291612e53612e3683611fa2565b50506001600160a01b03168015612eb4575b5f805160206130db8339815191526020527fd4fb29e10204005f1a39963c6862b79a755e22f0177c53f05cdc3786c702f974545f9182526040909120546001600160a01b039081169116612bc4565b612ec0612dd283611fa2565b5050612e65565b90612ed143612013565b90612edb83612298565b6001600160d01b0391821690821603919082116107eb57612efb926124f5565b9091565b90612f0943612013565b90612f1383612298565b6001600160d01b0391821690821601919082116107eb57612efb926124f5565b612f3c43612013565b90612f535f8051602061315b833981519152612298565b6001600160d01b03918216908216019081116107eb57612efb915f8051602061315b8339815191526124f5565b612f8943612013565b90612fa05f8051602061315b833981519152612298565b6001600160d01b03918216908216039081116107eb57612efb915f8051602061315b8339815191526124f5565b612fd56115e5565b8051908115612fe5576020012090565b50507fa16a46d94261c7517cc8ff89f61c0ce93598e3c849801011dee649a6a557d1005480156130125790565b507fc5d2460186f7233c927e7db2dcc703c0e500b653ca82273b7bfad8045d85a47090565b61303f6116d8565b805190811561304f576020012090565b50507fa16a46d94261c7517cc8ff89f61c0ce93598e3c849801011dee649a6a557d1015480156130125790565b906130a0575080511561309157805190602001fd5b630a12f52160e11b5f5260045ffd5b815115806130d1575b6130b1575090565b639996b31560e01b5f9081526001600160a01b0391909116600452602490fd5b50803b156130a956fee8b26c30fad74198956032a3533d903385d56dd795af560196f9c78d4af40d0052c63247e1f47db19d5ce0460030c497f067ca4cebf71ba98eeadabe20bace0352c63247e1f47db19d5ce0460030c497f067ca4cebf71ba98eeadabe20bace0452c63247e1f47db19d5ce0460030c497f067ca4cebf71ba98eeadabe20bace02e8b26c30fad74198956032a3533d903385d56dd795af560196f9c78d4af40d02f0c57e16840df040f15088dc2f81fe391c3923bec73e23a9662efc9c229c6a00a26469706673582212201937fbaad0f3067bc0da9028c4e9a31dd4e77a2eecc76fcffe54cfc4beeb9f7064736f6c634300081a0033","linkReferences":{}},"methodIdentifiers":{"CLOCK_MODE()":"4bf5d7e9","agentNft()":"9cbef4a9","allowance(address,address)":"dd62ed3e","approve(address,uint256)":"095ea7b3","assetToken()":"1083f761","balanceOf(address)":"70a08231","canStake()":"9ed27809","checkpoints(address,uint32)":"f1127ed8","clock()":"91ddadf4","decimals()":"313ce567","delegate(address)":"5c19a95c","delegateBySig(address,uint256,uint256,uint8,bytes32,bytes32)":"c3cda520","delegates(address)":"587cde1e","eip712Domain()":"84b0196e","founder()":"4d853ee5","getPastBalanceOf(address,uint256)":"d7b7d405","getPastDelegates(address,uint256)":"5ec80600","getPastTotalSupply(uint256)":"8e539e8c","getPastVotes(address,uint256)":"3a46b1a8","getVotes(address)":"9ab24eb0","initialLock()":"836f8f20","initialize(string,string,address,address,uint256,address,bool)":"b2193b4d","matureAt()":"a5e881b3","name()":"06fdde03","nonces(address)":"7ecebe00","numCheckpoints(address)":"6fcfff45","setCanStake(bool)":"e8867180","setMatureAt(uint256)":"7e893f80","stake(uint256,address,address)":"a7d545db","symbol()":"95d89b41","totalSupply()":"18160ddd","transfer(address,uint256)":"a9059cbb","transferFrom(address,address,uint256)":"23b872dd","withdraw(uint256)":"2e1a7d4d"},"id":102}