{"abi":[{"type":"constructor","inputs":[{"name":"assetToken_","type":"address","internalType":"address"},{"name":"taxRecipient_","type":"address","internalType":"address"},{"name":"router_","type":"address","internalType":"address"},{"name":"initialOwner_","type":"address","internalType":"address"},{"name":"maxSwapAmount_","type":"uint256","internalType":"uint256"}],"stateMutability":"nonpayable"},{"type":"function","name":"DEFAULT_ADMIN_ROLE","inputs":[],"outputs":[{"name":"","type":"bytes32","internalType":"bytes32"}],"stateMutability":"view"},{"type":"function","name":"OPS_ROLE","inputs":[],"outputs":[{"name":"","type":"bytes32","internalType":"bytes32"}],"stateMutability":"view"},{"type":"function","name":"assetToken","inputs":[],"outputs":[{"name":"","type":"address","internalType":"address"}],"stateMutability":"view"},{"type":"function","name":"getRoleAdmin","inputs":[{"name":"role","type":"bytes32","internalType":"bytes32"}],"outputs":[{"name":"","type":"bytes32","internalType":"bytes32"}],"stateMutability":"view"},{"type":"function","name":"grantRole","inputs":[{"name":"role","type":"bytes32","internalType":"bytes32"},{"name":"account","type":"address","internalType":"address"}],"outputs":[],"stateMutability":"nonpayable"},{"type":"function","name":"hasRole","inputs":[{"name":"role","type":"bytes32","internalType":"bytes32"},{"name":"account","type":"address","internalType":"address"}],"outputs":[{"name":"","type":"bool","internalType":"bool"}],"stateMutability":"view"},{"type":"function","name":"manualSwapTax","inputs":[{"name":"token","type":"address","internalType":"address"}],"outputs":[],"stateMutability":"nonpayable"},{"type":"function","name":"maxAmountByToken","inputs":[{"name":"","type":"address","internalType":"address"}],"outputs":[{"name":"","type":"uint256","internalType":"uint256"}],"stateMutability":"view"},{"type":"function","name":"maxSwapAmount","inputs":[],"outputs":[{"name":"","type":"uint256","internalType":"uint256"}],"stateMutability":"view"},{"type":"function","name":"renounceRole","inputs":[{"name":"role","type":"bytes32","internalType":"bytes32"},{"name":"callerConfirmation","type":"address","internalType":"address"}],"outputs":[],"stateMutability":"nonpayable"},{"type":"function","name":"revokeRole","inputs":[{"name":"role","type":"bytes32","internalType":"bytes32"},{"name":"account","type":"address","internalType":"address"}],"outputs":[],"stateMutability":"nonpayable"},{"type":"function","name":"setMaxAmountByToken","inputs":[{"name":"token","type":"address","internalType":"address"},{"name":"maxAmount","type":"uint256","internalType":"uint256"}],"outputs":[],"stateMutability":"nonpayable"},{"type":"function","name":"setMaxSwapAmount","inputs":[{"name":"maxSwapAmount_","type":"uint256","internalType":"uint256"}],"outputs":[],"stateMutability":"nonpayable"},{"type":"function","name":"setTaxRecipient","inputs":[{"name":"taxRecipient_","type":"address","internalType":"address"}],"outputs":[],"stateMutability":"nonpayable"},{"type":"function","name":"supportsInterface","inputs":[{"name":"interfaceId","type":"bytes4","internalType":"bytes4"}],"outputs":[{"name":"","type":"bool","internalType":"bool"}],"stateMutability":"view"},{"type":"function","name":"swapTax","inputs":[{"name":"token","type":"address","internalType":"address"}],"outputs":[],"stateMutability":"nonpayable"},{"type":"function","name":"taxManager","inputs":[],"outputs":[{"name":"","type":"address","internalType":"address"}],"stateMutability":"view"},{"type":"function","name":"taxRecipient","inputs":[],"outputs":[{"name":"","type":"address","internalType":"address"}],"stateMutability":"view"},{"type":"function","name":"withdraw","inputs":[{"name":"token","type":"address","internalType":"address"}],"outputs":[],"stateMutability":"nonpayable"},{"type":"event","name":"RoleAdminChanged","inputs":[{"name":"role","type":"bytes32","indexed":true,"internalType":"bytes32"},{"name":"previousAdminRole","type":"bytes32","indexed":true,"internalType":"bytes32"},{"name":"newAdminRole","type":"bytes32","indexed":true,"internalType":"bytes32"}],"anonymous":false},{"type":"event","name":"RoleGranted","inputs":[{"name":"role","type":"bytes32","indexed":true,"internalType":"bytes32"},{"name":"account","type":"address","indexed":true,"internalType":"address"},{"name":"sender","type":"address","indexed":true,"internalType":"address"}],"anonymous":false},{"type":"event","name":"RoleRevoked","inputs":[{"name":"role","type":"bytes32","indexed":true,"internalType":"bytes32"},{"name":"account","type":"address","indexed":true,"internalType":"address"},{"name":"sender","type":"address","indexed":true,"internalType":"address"}],"anonymous":false},{"type":"event","name":"SwapTax","inputs":[{"name":"token","type":"address","indexed":true,"internalType":"address"},{"name":"amount","type":"uint256","indexed":false,"internalType":"uint256"}],"anonymous":false},{"type":"error","name":"AccessControlBadConfirmation","inputs":[]},{"type":"error","name":"AccessControlUnauthorizedAccount","inputs":[{"name":"account","type":"address","internalType":"address"},{"name":"neededRole","type":"bytes32","internalType":"bytes32"}]}],"bytecode":{"object":"0x60e0346100df57601f610e0238819003918201601f19168301916001600160401b038311848410176100e35780849260a0946040528339810103126100df578061004b6100ad926100f7565b610057602083016100f7565b610063604084016100f7565b906080610072606086016100f7565b940151608093909352600180546001600160a01b0319166001600160a01b039283161790551660c0526002556100a78161010b565b50610181565b50604051610b8d9081610215823960805181818161059e015261085d015260a051816103f5015260c051816108940152f35b5f80fd5b634e487b7160e01b5f52604160045260245ffd5b51906001600160a01b03821682036100df57565b6001600160a01b0381165f9081525f80516020610de2833981519152602052604090205460ff1661017c576001600160a01b03165f8181525f80516020610de283398151915260205260408120805460ff191660011790553391905f80516020610da28339815191528180a4600190565b505f90565b6001600160a01b0381165f9081525f80516020610dc2833981519152602052604090205460ff1661017c576001600160a01b03165f8181525f80516020610dc283398151915260205260408120805460ff191660011790553391907f65aa5eac1b32fde55d4db583460221274367300ae805596cf543907b5d458c00905f80516020610da28339815191529080a460019056fe6080806040526004361015610012575f80fd5b5f905f3560e01c90816301ffc9a714610607575080630f3ba023146105cd5780631083f7611461058957806316ebba691461055e578063248a9ca31461052c5780632d0b0f1a146104a75780632f2ff15d1461046957806336568abe146104245780634d237730146103df57806351cff8d9146102c3578063737ea06e1461029a57806378e3079e146102555780638467ba191461021757806391d14854146101ce578063a217fddf146101b2578063a5f7f99d1461018f578063cce987d414610171578063d547741f1461012a5763dd9327ae146100ef575f80fd5b34610127576020366003190112610127576020906040906001600160a01b0361011661065a565b168152600383522054604051908152f35b80fd5b50346101275760403660031901126101275761016d60043561014a610670565b90610168610163825f525f602052600160405f20015490565b610792565b610ad7565b5080f35b50346101275780600319360112610127576020600254604051908152f35b5034610127576020366003190112610127576101a9610743565b60043560025580f35b5034610127578060031936011261012757602090604051908152f35b50346101275760403660031901126101275760406101ea610670565b91600435815280602052209060018060a01b03165f52602052602060ff60405f2054166040519015158152f35b50346101275760403660031901126101275761023161065a565b610239610743565b6001600160a01b03168152600360205260408120602435905580f35b50346101275760203660031901126101275761026f61065a565b610277610743565b60018060a01b03166bffffffffffffffffffffffff60a01b600154161760015580f35b50346101275780600319360112610127576001546040516001600160a01b039091168152602090f35b5034610127576020366003190112610127576102dd61065a565b6102e5610743565b6001546040516370a0823160e01b81523060048201526001600160a01b0392831692909116602082602481865afa9182156103d457849261039a575b5060405163a9059cbb60e01b81526001600160a01b0390911660048201526024810191909152906020908290818581604481015b03925af1801561038f57610367575080f35b61016d9060203d602011610388575b6103808183610686565b8101906106bc565b503d610376565b6040513d84823e3d90fd5b91506020823d6020116103cc575b816103b560209383610686565b810103126103c857905190610355610321565b5f80fd5b3d91506103a8565b6040513d86823e3d90fd5b50346101275780600319360112610127576040517f00000000000000000000000000000000000000000000000000000000000000006001600160a01b03168152602090f35b50346101275760403660031901126101275761043e610670565b336001600160a01b0382160361045a5761016d90600435610ad7565b63334bd91960e11b8252600482fd5b50346101275760403660031901126101275761016d600435610489610670565b906104a2610163825f525f602052600160405f20015490565b610a4f565b50346103c85760203660031901126103c8576104c161065a565b6104c96106d4565b6001600160a01b038116803b156103c8575f8091600460405180948193632ead095560e01b83525af180156105215761050a575b50610507906107ca565b80f35b6105179192505f90610686565b5f906105076104fd565b6040513d5f823e3d90fd5b346103c85760203660031901126103c85760206105566004355f525f602052600160405f20015490565b604051908152f35b346103c85760203660031901126103c85761058761057a61065a565b6105826106d4565b6107ca565b005b346103c8575f3660031901126103c8576040517f00000000000000000000000000000000000000000000000000000000000000006001600160a01b03168152602090f35b346103c8575f3660031901126103c85760206040517f65aa5eac1b32fde55d4db583460221274367300ae805596cf543907b5d458c008152f35b346103c85760203660031901126103c8576004359063ffffffff60e01b82168092036103c857602091637965db0b60e01b8114908115610649575b5015158152f35b6301ffc9a760e01b14905083610642565b600435906001600160a01b03821682036103c857565b602435906001600160a01b03821682036103c857565b90601f8019910116810190811067ffffffffffffffff8211176106a857604052565b634e487b7160e01b5f52604160045260245ffd5b908160209103126103c8575180151581036103c85790565b335f9081527fbba426faf2fa6c605fcea7d37b66adcb48511335be947cead39bb99304ad6d59602052604090205460ff161561070c57565b63e2517d3f60e01b5f52336004527f65aa5eac1b32fde55d4db583460221274367300ae805596cf543907b5d458c0060245260445ffd5b335f9081527fad3228b676f7d3cd4284a5443f17f1962b36e491b30a40b2405849e597ba5fb5602052604090205460ff161561077b57565b63e2517d3f60e01b5f52336004525f60245260445ffd5b5f8181526020818152604080832033845290915290205460ff16156107b45750565b63e2517d3f60e01b5f523360045260245260445ffd5b6001600160a01b03165f818152600360205260409020548015610a46575b6040516370a0823160e01b815230600482015290602082602481865afa918215610521575f92610a12575b50808211610a0a575b508015610a065760405190610832606083610686565b600282526020820160403682378251156109f2578381528251600110156109f2576001600160a01b037f000000000000000000000000000000000000000000000000000000000000000081166040858101919091525163095ea7b360e01b81527f0000000000000000000000000000000000000000000000000000000000000000909116600482018190526024820184905291906020816044815f8a5af18015610521576109d5575b50600154426102588101916001600160a01b03169082106109c157833b156103c857949190604051958693635c11d79560e01b855260a48501908760048701525f602487015260a060448701525180915260c4850193905f5b81811061099f57505050835f9593819387936064840152608483015203925af1908115610521577fd0da9e2058152e744dac4bf3145516a8154c03de5befc664eb34623bf71b5ac89260209261098f575b50604051908152a2565b5f61099991610686565b5f610985565b82516001600160a01b0316865289965060209586019590920191600101610934565b634e487b7160e01b5f52601160045260245ffd5b6109ed9060203d602011610388576103808183610686565b6108db565b634e487b7160e01b5f52603260045260245ffd5b5050565b90505f61081c565b9091506020813d602011610a3e575b81610a2e60209383610686565b810103126103c85751905f610813565b3d9150610a21565b506002546107e8565b5f818152602081815260408083206001600160a01b038616845290915290205460ff16610ad1575f818152602081815260408083206001600160a01b0395909516808452949091528120805460ff19166001179055339291907f2f8788117e7eff1d82e926ec794901d17c78024a50270940304540a733656f0d9080a4600190565b50505f90565b5f818152602081815260408083206001600160a01b038616845290915290205460ff1615610ad1575f818152602081815260408083206001600160a01b0395909516808452949091528120805460ff19169055339291907ff6391f5c32d9c69d2a47ea670b442974b53935d1edc7fd64eb21e047a839171b9080a460019056fea2646970667358221220a71643133aa9984b6bb74ff2aad009cb8198b477cc5f51e0e034f26105e88d3564736f6c634300081a00332f8788117e7eff1d82e926ec794901d17c78024a50270940304540a733656f0dbba426faf2fa6c605fcea7d37b66adcb48511335be947cead39bb99304ad6d59ad3228b676f7d3cd4284a5443f17f1962b36e491b30a40b2405849e597ba5fb5","linkReferences":{}},"methodIdentifiers":{"DEFAULT_ADMIN_ROLE()":"a217fddf","OPS_ROLE()":"0f3ba023","assetToken()":"1083f761","getRoleAdmin(bytes32)":"248a9ca3","grantRole(bytes32,address)":"2f2ff15d","hasRole(bytes32,address)":"91d14854","manualSwapTax(address)":"16ebba69","maxAmountByToken(address)":"dd9327ae","maxSwapAmount()":"cce987d4","renounceRole(bytes32,address)":"36568abe","revokeRole(bytes32,address)":"d547741f","setMaxAmountByToken(address,uint256)":"8467ba19","setMaxSwapAmount(uint256)":"a5f7f99d","setTaxRecipient(address)":"78e3079e","supportsInterface(bytes4)":"01ffc9a7","swapTax(address)":"2d0b0f1a","taxManager()":"4d237730","taxRecipient()":"737ea06e","withdraw(address)":"51cff8d9"},"id":82}