{"abi":[{"type":"constructor","inputs":[],"stateMutability":"nonpayable"},{"type":"function","name":"DENOM","inputs":[],"outputs":[{"name":"","type":"uint256","internalType":"uint256"}],"stateMutability":"view"},{"type":"function","name":"agentNft","inputs":[],"outputs":[{"name":"","type":"address","internalType":"address"}],"stateMutability":"view"},{"type":"function","name":"contributionNft","inputs":[],"outputs":[{"name":"","type":"address","internalType":"address"}],"stateMutability":"view"},{"type":"function","name":"impactMulOverrides","inputs":[{"name":"","type":"uint256","internalType":"uint256"}],"outputs":[{"name":"","type":"uint256","internalType":"uint256"}],"stateMutability":"view"},{"type":"function","name":"impactMultiplier","inputs":[],"outputs":[{"name":"","type":"uint256","internalType":"uint256"}],"stateMutability":"view"},{"type":"function","name":"initialize","inputs":[{"name":"serviceAddress","type":"address","internalType":"address"},{"name":"contributionAddress","type":"address","internalType":"address"},{"name":"agentAddress","type":"address","internalType":"address"},{"name":"ipShare_","type":"uint256","internalType":"uint256"},{"name":"impactMultiplier_","type":"uint256","internalType":"uint256"},{"name":"ipVault_","type":"address","internalType":"address"},{"name":"agentFactory_","type":"address","internalType":"address"},{"name":"initialOwner","type":"address","internalType":"address"},{"name":"maxImpact_","type":"uint256","internalType":"uint256"}],"outputs":[],"stateMutability":"nonpayable"},{"type":"function","name":"ipShare","inputs":[],"outputs":[{"name":"","type":"uint256","internalType":"uint256"}],"stateMutability":"view"},{"type":"function","name":"ipShareOverrides","inputs":[{"name":"","type":"uint256","internalType":"uint256"}],"outputs":[{"name":"","type":"uint256","internalType":"uint256"}],"stateMutability":"view"},{"type":"function","name":"ipVault","inputs":[],"outputs":[{"name":"","type":"address","internalType":"address"}],"stateMutability":"view"},{"type":"function","name":"maxImpact","inputs":[],"outputs":[{"name":"","type":"uint256","internalType":"uint256"}],"stateMutability":"view"},{"type":"function","name":"mint","inputs":[{"name":"nftId","type":"uint256","internalType":"uint256"}],"outputs":[],"stateMutability":"nonpayable"},{"type":"function","name":"owner","inputs":[],"outputs":[{"name":"","type":"address","internalType":"address"}],"stateMutability":"view"},{"type":"function","name":"renounceOwnership","inputs":[],"outputs":[],"stateMutability":"nonpayable"},{"type":"function","name":"saveToken","inputs":[{"name":"_token","type":"address","internalType":"address"},{"name":"_receiver","type":"address","internalType":"address"},{"name":"_amount","type":"uint256","internalType":"uint256"}],"outputs":[],"stateMutability":"nonpayable"},{"type":"function","name":"serviceNft","inputs":[],"outputs":[{"name":"","type":"address","internalType":"address"}],"stateMutability":"view"},{"type":"function","name":"setAgentFactory","inputs":[{"name":"_factory","type":"address","internalType":"address"}],"outputs":[],"stateMutability":"nonpayable"},{"type":"function","name":"setContributionNft","inputs":[{"name":"contributionAddress","type":"address","internalType":"address"}],"outputs":[],"stateMutability":"nonpayable"},{"type":"function","name":"setIPShare","inputs":[{"name":"_ipShare","type":"uint256","internalType":"uint256"}],"outputs":[],"stateMutability":"nonpayable"},{"type":"function","name":"setIPShareOverride","inputs":[{"name":"virtualId","type":"uint256","internalType":"uint256"},{"name":"_ipShare","type":"uint256","internalType":"uint256"}],"outputs":[],"stateMutability":"nonpayable"},{"type":"function","name":"setIPVault","inputs":[{"name":"_ipVault","type":"address","internalType":"address"}],"outputs":[],"stateMutability":"nonpayable"},{"type":"function","name":"setImpactMulOverride","inputs":[{"name":"virtualId","type":"uint256","internalType":"uint256"},{"name":"mul","type":"uint256","internalType":"uint256"}],"outputs":[],"stateMutability":"nonpayable"},{"type":"function","name":"setImpactMultiplier","inputs":[{"name":"_multiplier","type":"uint256","internalType":"uint256"}],"outputs":[],"stateMutability":"nonpayable"},{"type":"function","name":"setMaxImpact","inputs":[{"name":"maxImpact_","type":"uint256","internalType":"uint256"}],"outputs":[],"stateMutability":"nonpayable"},{"type":"function","name":"setServiceNft","inputs":[{"name":"serviceAddress","type":"address","internalType":"address"}],"outputs":[],"stateMutability":"nonpayable"},{"type":"function","name":"transferOwnership","inputs":[{"name":"newOwner","type":"address","internalType":"address"}],"outputs":[],"stateMutability":"nonpayable"},{"type":"event","name":"AgentIPShareUpdated","inputs":[{"name":"virtualId","type":"uint256","indexed":true,"internalType":"uint256"},{"name":"newMultiplier","type":"uint256","indexed":false,"internalType":"uint256"}],"anonymous":false},{"type":"event","name":"AgentImpactMultiplierUpdated","inputs":[{"name":"virtualId","type":"uint256","indexed":true,"internalType":"uint256"},{"name":"newMultiplier","type":"uint256","indexed":false,"internalType":"uint256"}],"anonymous":false},{"type":"event","name":"IPShareUpdated","inputs":[{"name":"newMultiplier","type":"uint256","indexed":false,"internalType":"uint256"}],"anonymous":false},{"type":"event","name":"ImpactMultiplierUpdated","inputs":[{"name":"newMultiplier","type":"uint256","indexed":false,"internalType":"uint256"}],"anonymous":false},{"type":"event","name":"Initialized","inputs":[{"name":"version","type":"uint64","indexed":false,"internalType":"uint64"}],"anonymous":false},{"type":"event","name":"OwnershipTransferred","inputs":[{"name":"previousOwner","type":"address","indexed":true,"internalType":"address"},{"name":"newOwner","type":"address","indexed":true,"internalType":"address"}],"anonymous":false},{"type":"event","name":"TokenSaved","inputs":[{"name":"by","type":"address","indexed":true,"internalType":"address"},{"name":"receiver","type":"address","indexed":true,"internalType":"address"},{"name":"token","type":"address","indexed":true,"internalType":"address"},{"name":"amount","type":"uint256","indexed":false,"internalType":"uint256"}],"anonymous":false},{"type":"error","name":"AddressEmptyCode","inputs":[{"name":"target","type":"address","internalType":"address"}]},{"type":"error","name":"AddressInsufficientBalance","inputs":[{"name":"account","type":"address","internalType":"address"}]},{"type":"error","name":"FailedInnerCall","inputs":[]},{"type":"error","name":"InvalidInitialization","inputs":[]},{"type":"error","name":"NotInitializing","inputs":[]},{"type":"error","name":"OwnableInvalidOwner","inputs":[{"name":"owner","type":"address","internalType":"address"}]},{"type":"error","name":"OwnableUnauthorizedAccount","inputs":[{"name":"account","type":"address","internalType":"address"}]},{"type":"error","name":"SafeERC20FailedOperation","inputs":[{"name":"token","type":"address","internalType":"address"}]}],"bytecode":{"object":"0x6080806040523460d0577ff0c57e16840df040f15088dc2f81fe391c3923bec73e23a9662efc9c229c6a005460ff8160401c1660c1576002600160401b03196001600160401b03821601605c575b60405161141890816100d58239f35b6001600160401b0319166001600160401b039081177ff0c57e16840df040f15088dc2f81fe391c3923bec73e23a9662efc9c229c6a005581527fc7f505b2f371ae2175ee4913f4499e1f2633a7b5936321eed1cdaeb6115181d290602090a15f80604d565b63f92ee8a960e01b5f5260045ffd5b5f80fdfe6080806040526004361015610012575f80fd5b5f3560e01c90816307c1aa1a1461109f575080630a2f51dc1461105c5780630dceec231461103b57806316343da41461101f5780631c56b1df14610fdc5780632a964f7e14610fbf5780632bfd2dd814610d8c5780634ad4c19c14610d625780635423771814610d455780636846545414610cf9578063715018a614610c925780637a6649e114610c465780637caf907314610bfe5780637cc1ce9e14610bbc5780638da5cb5b14610b885780639863bbe514610b5e5780639afdb2c214610a0b5780639cbef4a9146109e3578063a0712d6814610321578063a414a372146102f9578063d11a675c146102dc578063e56efef5146102b5578063f2fde38b1461028a578063f62d5008146102385763fb720a161461012f575f80fd5b346102345761013d366110ee565b600254604051635652386760e11b815260048101849052905f90829060249082906001600160a01b03165afa908115610229575f91610207575b50516001600160a01b031633036101c25760207f321b7627bf4bead82276d804d9f54a66c3da4fa43a3619ccea184b233a34278591835f52600982528060405f2055604051908152a2005b60405162461bcd60e51b815260206004820152601a60248201527f4f6e6c79204167656e742044414f2063616e206f7065726174650000000000006044820152606490fd5b61022391503d805f833e61021b8183611104565b81019061113a565b5f610177565b6040513d5f823e3d90fd5b5f80fd5b346102345760207f9aaa975f1dff38a27549d33f7427d17b874eca174092041f2487ce5d8edaed56610269366110ee565b6102749391936112e6565b835f52600882528060405f2055604051908152a2005b34610234576020366003190112610234576102b36102a66110c2565b6102ae6112e6565b611275565b005b34610234575f366003190112610234575f546040516001600160a01b039091168152602090f35b34610234575f366003190112610234576020600554604051908152f35b34610234575f366003190112610234576003546040516001600160a01b039091168152602090f35b3461023457602036600319011261023457600435600a5460ff81166109ad5760ff1916600117600a555f8181526007602052604090205460ff166109775760015460405163ccc16f6960e01b81526004810183905290602090829060249082906001600160a01b03165afa908115610229575f91610945575b50801561090e575f82815260076020526040808220805460ff191660011790556002549051635652386760e11b8152600481018490529190829060249082906001600160a01b03165afa908115610229575f916108f4575b50602090810151600154604051638209c69960e01b8152600481018690526001600160a01b0392831694929091169281602481865afa908115610229575f916108d5575b5015610890575f52600860205260405f20548015610887575b6040516360a58cbd60e11b81526004810185905290602082602481865afa918215610229575f92610853575b505f5460405163e6aed85760e01b8152600481018790526001600160a01b0390911690602081602481855afa80156102295783905f9061081d575b6006546104cc9350808211610815575b50611262565b670de0b6b3a7640000810290808204670de0b6b3a764000014901517156107c45761271090049083151592835f1461080c5760206024926040519384809263e6aed85760e01b82528960048301525afa8015610229575f906107d8575b6105339250611262565b670de0b6b3a7640000810290808204670de0b6b3a764000014901517156107c4576127109004935b8482018083116107c4576105756127109160045490611262565b0496826106f1575b50505061060f575b505081610599575b600a805460ff19169055005b60035460405163a9059cbb60e01b81526001600160a01b0390911660048201526024810192909252602090829060449082905f905af18015610229576105e0575b8061058d565b6106019060203d602011610608575b6105f98183611104565b81019061124a565b50806105da565b503d6105ef565b6001546040516331a9108f60e11b81526004810192909252602090829060249082906001600160a01b03165afa908115610229575f916106af575b5060405163a9059cbb60e01b81526001600160a01b039091166004820152602481019190915260208180604481015b03815f865af1801561022957610690575b80610585565b6106a89060203d602011610608576105f98183611104565b508261068a565b90506020813d6020116106e9575b816106ca60209383611104565b8101031261023457610679916106e1602092611126565b91509161064a565b3d91506106bd565b6020906024604051809481936331a9108f60e11b835260048301525afa908115610229575f91610782575b5060405163a9059cbb60e01b81526001600160a01b039091166004820152602481019190915260208180604481015b03815f895af1801561022957610763575b808061057d565b61077b9060203d602011610608576105f98183611104565b508561075c565b90506020813d6020116107bc575b8161079d60209383611104565b810103126102345761074b916107b4602092611126565b91509161071c565b3d9150610790565b634e487b7160e01b5f52601160045260245ffd5b506020823d602011610804575b816107f260209383611104565b81010312610234576105339151610529565b3d91506107e5565b50505f9361055b565b9050896104c6565b50506020813d60201161084b575b8161083860209383611104565b8101031261023457826104cc91516104b6565b3d915061082b565b9091506020813d60201161087f575b8161086f60209383611104565b810103126102345751908561047b565b3d9150610862565b5060055461044f565b60405162461bcd60e51b815260206004820152601860248201527f4e6f742061206d6f64656c20636f6e747269627574696f6e00000000000000006044820152606490fd5b6108ee915060203d602011610608576105f98183611104565b85610436565b61090891503d805f833e61021b8183611104565b836103f2565b60405162461bcd60e51b815260206004820152600f60248201526e1059d95b9d081b9bdd08199bdd5b99608a1b6044820152606490fd5b90506020813d60201161096f575b8161096060209383611104565b8101031261023457518261039a565b3d9150610953565b60405162461bcd60e51b815260206004820152600e60248201526d105b1c9958591e481b5a5b9d195960921b6044820152606490fd5b60405162461bcd60e51b815260206004820152600e60248201526d31b0b73737ba103932b2b73a32b960911b6044820152606490fd5b34610234575f366003190112610234576002546040516001600160a01b039091168152602090f35b3461023457606036600319011261023457610a246110c2565b610a2c6110d8565b9060443590610a396112e6565b60405163a9059cbb60e01b602082019081526001600160a01b038581166024840152604480840186905283529290921693915f91829190610a7b606482611104565b519082875af13d15610b52573d67ffffffffffffffff8111610b3e57610ac39160405191610ab36020601f19601f8401160184611104565b82523d5f602084013e5b85611344565b8051908115159182610b23575b5050610b10576040519182526001600160a01b03169033907f30d87cec6b4c56cede1018725d1e6d9304e2f7ee6d25b004b7e2183f793f26bc90602090a4005b82635274afe760e01b5f5260045260245ffd5b610b36925060208091830101910161124a565b158480610ad0565b634e487b7160e01b5f52604160045260245ffd5b610ac390606090610abd565b34610234576020366003190112610234576004355f526009602052602060405f2054604051908152f35b34610234575f366003190112610234575f805160206113a3833981519152546040516001600160a01b039091168152602090f35b3461023457602036600319011261023457610bd56110c2565b610bdd6112e6565b5f80546001600160a01b0319166001600160a01b0392909216919091179055005b3461023457602036600319011261023457610c176110c2565b610c1f6112e6565b600a8054610100600160a81b03191660089290921b610100600160a81b0316919091179055005b34610234576020366003190112610234577f9e4bbaa2f4ca6ad925ae5b0cf0127f1b1c7efb69bdb88fac377ccc1fde7668b66020600435610c856112e6565b80600455604051908152a1005b34610234575f36600319011261023457610caa6112e6565b5f805160206113a383398151915280546001600160a01b031981169091555f906001600160a01b03167f8be0079c531659141344cd1fd0a4f28419497f9722a3daafe3b4186f6b6457e08280a3005b34610234576020366003190112610234577ffd7acb0863c4ee814c494dda5a7889b7823328b7b3518cfd0d5881c6b7de46946020600435610d386112e6565b80600555604051908152a1005b34610234575f366003190112610234576020600654604051908152f35b34610234576020366003190112610234576004355f526008602052602060405f2054604051908152f35b346102345761012036600319011261023457610da66110c2565b610dae6110d8565b6044356001600160a01b038116908190036102345760a4356001600160a01b03811691908290036102345760c435926001600160a01b03841684036102345760e435946001600160a01b0386168603610234575f805160206113c38339815191525460ff8160401c16159667ffffffffffffffff821680159081610fb7575b6001149081610fad575b159081610fa4575b50610f955767ffffffffffffffff1982166001175f805160206113c383398151915255610e7d9188610f69575b50610e75611319565b6102ae611319565b60018060a01b03166001600160601b0360a01b5f5416175f5560018060a01b03166001600160601b0360a01b60015416176001556001600160601b0360a01b60025416176002556064356004556084356005556001600160601b0360a01b6003541617600355600a5490610100600160a81b039060081b1690610100600160a81b03191617600a5561010435600655610f1257005b68ff0000000000000000195f805160206113c383398151915254165f805160206113c3833981519152557fc7f505b2f371ae2175ee4913f4499e1f2633a7b5936321eed1cdaeb6115181d2602060405160018152a1005b68ffffffffffffffffff191668010000000000000001175f805160206113c38339815191525588610e6c565b63f92ee8a960e01b5f5260045ffd5b90501589610e3f565b303b159150610e37565b899150610e2d565b34610234575f366003190112610234576020600454604051908152f35b3461023457602036600319011261023457610ff56110c2565b610ffd6112e6565b600180546001600160a01b0319166001600160a01b0392909216919091179055005b34610234575f3660031901126102345760206040516127108152f35b34610234576020366003190112610234576110546112e6565b600435600655005b34610234576020366003190112610234576110756110c2565b61107d6112e6565b600380546001600160a01b0319166001600160a01b0392909216919091179055005b34610234575f366003190112610234576001546001600160a01b03168152602090f35b600435906001600160a01b038216820361023457565b602435906001600160a01b038216820361023457565b6040906003190112610234576004359060243590565b90601f8019910116810190811067ffffffffffffffff821117610b3e57604052565b51906001600160a01b038216820361023457565b6020818303126102345780519067ffffffffffffffff821161023457019060a082820312610234576040519160a0830183811067ffffffffffffffff821117610b3e5760405261118981611126565b835261119760208201611126565b60208401526111a860408201611126565b60408401526111b960608201611126565b606084015260808101519067ffffffffffffffff8211610234570181601f820112156102345780519167ffffffffffffffff8311610b3e578260051b91604051936112076020850186611104565b845260208085019382010191821161023457602001915b81831061123057505050608082015290565b825160ff811681036102345781526020928301920161121e565b90816020910312610234575180151581036102345790565b818102929181159184041417156107c457565b6001600160a01b031680156112d3575f805160206113a383398151915280546001600160a01b0319811683179091556001600160a01b03167f8be0079c531659141344cd1fd0a4f28419497f9722a3daafe3b4186f6b6457e05f80a3565b631e4fbdf760e01b5f525f60045260245ffd5b5f805160206113a3833981519152546001600160a01b0316330361130657565b63118cdaa760e01b5f523360045260245ffd5b60ff5f805160206113c38339815191525460401c161561133557565b631afcd79f60e31b5f5260045ffd5b90611368575080511561135957805190602001fd5b630a12f52160e11b5f5260045ffd5b81511580611399575b611379575090565b639996b31560e01b5f9081526001600160a01b0391909116600452602490fd5b50803b1561137156fe9016d09d72d40fdae2fd8ceac6b6234c7706214fd39c1cd1e609a0528c199300f0c57e16840df040f15088dc2f81fe391c3923bec73e23a9662efc9c229c6a00a264697066735822122050782a4f315be0a6c4d7256764de1fa46735bf602b50e8b6531ec80277b37acd64736f6c634300081a0033","linkReferences":{}},"methodIdentifiers":{"DENOM()":"16343da4","agentNft()":"9cbef4a9","contributionNft()":"07c1aa1a","impactMulOverrides(uint256)":"4ad4c19c","impactMultiplier()":"d11a675c","initialize(address,address,address,uint256,uint256,address,address,address,uint256)":"2bfd2dd8","ipShare()":"2a964f7e","ipShareOverrides(uint256)":"9863bbe5","ipVault()":"a414a372","maxImpact()":"54237718","mint(uint256)":"a0712d68","owner()":"8da5cb5b","renounceOwnership()":"715018a6","saveToken(address,address,uint256)":"9afdb2c2","serviceNft()":"e56efef5","setAgentFactory(address)":"7caf9073","setContributionNft(address)":"1c56b1df","setIPShare(uint256)":"7a6649e1","setIPShareOverride(uint256,uint256)":"fb720a16","setIPVault(address)":"0a2f51dc","setImpactMulOverride(uint256,uint256)":"f62d5008","setImpactMultiplier(uint256)":"68465454","setMaxImpact(uint256)":"0dceec23","setServiceNft(address)":"7cc1ce9e","transferOwnership(address)":"f2fde38b"},"id":86}