{"abi":[{"type":"constructor","inputs":[],"stateMutability":"nonpayable"},{"type":"function","name":"ADMIN_ROLE","inputs":[],"outputs":[{"name":"","type":"bytes32","internalType":"bytes32"}],"stateMutability":"view"},{"type":"function","name":"DEFAULT_ADMIN_ROLE","inputs":[],"outputs":[{"name":"","type":"bytes32","internalType":"bytes32"}],"stateMutability":"view"},{"type":"function","name":"EXECUTOR_ROLE","inputs":[],"outputs":[{"name":"","type":"bytes32","internalType":"bytes32"}],"stateMutability":"view"},{"type":"function","name":"REGISTER_ROLE","inputs":[],"outputs":[{"name":"","type":"bytes32","internalType":"bytes32"}],"stateMutability":"view"},{"type":"function","name":"SWAP_ROLE","inputs":[],"outputs":[{"name":"","type":"bytes32","internalType":"bytes32"}],"stateMutability":"view"},{"type":"function","name":"assetToken","inputs":[],"outputs":[{"name":"","type":"address","internalType":"address"}],"stateMutability":"view"},{"type":"function","name":"batchSwapForTokenAddress","inputs":[{"name":"tokenAddresses","type":"address[]","internalType":"address[]"},{"name":"minOutputs","type":"uint256[]","internalType":"uint256[]"}],"outputs":[],"stateMutability":"nonpayable"},{"type":"function","name":"bondingV5","inputs":[],"outputs":[{"name":"","type":"address","internalType":"contract IBondingV5ForTaxV2"}],"stateMutability":"view"},{"type":"function","name":"depositTax","inputs":[{"name":"tokenAddress","type":"address","internalType":"address"},{"name":"amount","type":"uint256","internalType":"uint256"}],"outputs":[],"stateMutability":"nonpayable"},{"type":"function","name":"feeRate","inputs":[],"outputs":[{"name":"","type":"uint16","internalType":"uint16"}],"stateMutability":"view"},{"type":"function","name":"getRoleAdmin","inputs":[{"name":"role","type":"bytes32","internalType":"bytes32"}],"outputs":[{"name":"","type":"bytes32","internalType":"bytes32"}],"stateMutability":"view"},{"type":"function","name":"getTokenRecipient","inputs":[{"name":"tokenAddress","type":"address","internalType":"address"}],"outputs":[{"name":"tba","type":"address","internalType":"address"},{"name":"creator","type":"address","internalType":"address"}],"stateMutability":"view"},{"type":"function","name":"getTokenTaxAmounts","inputs":[{"name":"tokenAddress","type":"address","internalType":"address"}],"outputs":[{"name":"amountCollected","type":"uint256","internalType":"uint256"},{"name":"amountSwapped","type":"uint256","internalType":"uint256"}],"stateMutability":"view"},{"type":"function","name":"grantRole","inputs":[{"name":"role","type":"bytes32","internalType":"bytes32"},{"name":"account","type":"address","internalType":"address"}],"outputs":[],"stateMutability":"nonpayable"},{"type":"function","name":"hasRole","inputs":[{"name":"role","type":"bytes32","internalType":"bytes32"},{"name":"account","type":"address","internalType":"address"}],"outputs":[{"name":"","type":"bool","internalType":"bool"}],"stateMutability":"view"},{"type":"function","name":"initialize","inputs":[{"name":"defaultAdmin_","type":"address","internalType":"address"},{"name":"assetToken_","type":"address","internalType":"address"},{"name":"taxToken_","type":"address","internalType":"address"},{"name":"router_","type":"address","internalType":"address"},{"name":"treasury_","type":"address","internalType":"address"},{"name":"minSwapThreshold_","type":"uint256","internalType":"uint256"},{"name":"maxSwapThreshold_","type":"uint256","internalType":"uint256"},{"name":"feeRate_","type":"uint16","internalType":"uint16"}],"outputs":[],"stateMutability":"nonpayable"},{"type":"function","name":"maxSwapThreshold","inputs":[],"outputs":[{"name":"","type":"uint256","internalType":"uint256"}],"stateMutability":"view"},{"type":"function","name":"minSwapThreshold","inputs":[],"outputs":[{"name":"","type":"uint256","internalType":"uint256"}],"stateMutability":"view"},{"type":"function","name":"registerToken","inputs":[{"name":"tokenAddress","type":"address","internalType":"address"},{"name":"tba","type":"address","internalType":"address"},{"name":"creator","type":"address","internalType":"address"}],"outputs":[],"stateMutability":"nonpayable"},{"type":"function","name":"renounceRole","inputs":[{"name":"role","type":"bytes32","internalType":"bytes32"},{"name":"callerConfirmation","type":"address","internalType":"address"}],"outputs":[],"stateMutability":"nonpayable"},{"type":"function","name":"revokeRole","inputs":[{"name":"role","type":"bytes32","internalType":"bytes32"},{"name":"account","type":"address","internalType":"address"}],"outputs":[],"stateMutability":"nonpayable"},{"type":"function","name":"router","inputs":[],"outputs":[{"name":"","type":"address","internalType":"contract IRouter"}],"stateMutability":"view"},{"type":"function","name":"setBondingV5","inputs":[{"name":"bondingV5_","type":"address","internalType":"address"}],"outputs":[],"stateMutability":"nonpayable"},{"type":"function","name":"supportsInterface","inputs":[{"name":"interfaceId","type":"bytes4","internalType":"bytes4"}],"outputs":[{"name":"","type":"bool","internalType":"bool"}],"stateMutability":"view"},{"type":"function","name":"swapForTokenAddress","inputs":[{"name":"tokenAddress","type":"address","internalType":"address"},{"name":"minOutput","type":"uint256","internalType":"uint256"}],"outputs":[],"stateMutability":"nonpayable"},{"type":"function","name":"taxToken","inputs":[],"outputs":[{"name":"","type":"address","internalType":"address"}],"stateMutability":"view"},{"type":"function","name":"tokenRecipients","inputs":[{"name":"tokenAddress","type":"address","internalType":"address"}],"outputs":[{"name":"tba","type":"address","internalType":"address"},{"name":"creator","type":"address","internalType":"address"}],"stateMutability":"view"},{"type":"function","name":"tokenTaxAmounts","inputs":[{"name":"tokenAddress","type":"address","internalType":"address"}],"outputs":[{"name":"amountCollected","type":"uint256","internalType":"uint256"},{"name":"amountSwapped","type":"uint256","internalType":"uint256"}],"stateMutability":"view"},{"type":"function","name":"treasury","inputs":[],"outputs":[{"name":"","type":"address","internalType":"address"}],"stateMutability":"view"},{"type":"function","name":"updateCreator","inputs":[{"name":"tokenAddress","type":"address","internalType":"address"},{"name":"newCreator","type":"address","internalType":"address"}],"outputs":[],"stateMutability":"nonpayable"},{"type":"function","name":"updateCreatorForSpecialLaunchAgents","inputs":[{"name":"tokenAddress","type":"address","internalType":"address"},{"name":"tba","type":"address","internalType":"address"},{"name":"creator","type":"address","internalType":"address"}],"outputs":[],"stateMutability":"nonpayable"},{"type":"function","name":"updateSwapParams","inputs":[{"name":"router_","type":"address","internalType":"address"},{"name":"assetToken_","type":"address","internalType":"address"},{"name":"feeRate_","type":"uint16","internalType":"uint16"}],"outputs":[],"stateMutability":"nonpayable"},{"type":"function","name":"updateSwapThresholds","inputs":[{"name":"minSwapThreshold_","type":"uint256","internalType":"uint256"},{"name":"maxSwapThreshold_","type":"uint256","internalType":"uint256"}],"outputs":[],"stateMutability":"nonpayable"},{"type":"function","name":"updateTreasury","inputs":[{"name":"treasury_","type":"address","internalType":"address"}],"outputs":[],"stateMutability":"nonpayable"},{"type":"function","name":"withdraw","inputs":[{"name":"token","type":"address","internalType":"address"}],"outputs":[],"stateMutability":"nonpayable"},{"type":"event","name":"CreatorUpdated","inputs":[{"name":"tokenAddress","type":"address","indexed":true,"internalType":"address"},{"name":"oldCreator","type":"address","indexed":false,"internalType":"address"},{"name":"newCreator","type":"address","indexed":false,"internalType":"address"}],"anonymous":false},{"type":"event","name":"Initialized","inputs":[{"name":"version","type":"uint64","indexed":false,"internalType":"uint64"}],"anonymous":false},{"type":"event","name":"RoleAdminChanged","inputs":[{"name":"role","type":"bytes32","indexed":true,"internalType":"bytes32"},{"name":"previousAdminRole","type":"bytes32","indexed":true,"internalType":"bytes32"},{"name":"newAdminRole","type":"bytes32","indexed":true,"internalType":"bytes32"}],"anonymous":false},{"type":"event","name":"RoleGranted","inputs":[{"name":"role","type":"bytes32","indexed":true,"internalType":"bytes32"},{"name":"account","type":"address","indexed":true,"internalType":"address"},{"name":"sender","type":"address","indexed":true,"internalType":"address"}],"anonymous":false},{"type":"event","name":"RoleRevoked","inputs":[{"name":"role","type":"bytes32","indexed":true,"internalType":"bytes32"},{"name":"account","type":"address","indexed":true,"internalType":"address"},{"name":"sender","type":"address","indexed":true,"internalType":"address"}],"anonymous":false},{"type":"event","name":"SwapExecuted","inputs":[{"name":"tokenAddress","type":"address","indexed":true,"internalType":"address"},{"name":"taxTokenAmount","type":"uint256","indexed":false,"internalType":"uint256"},{"name":"assetTokenAmount","type":"uint256","indexed":false,"internalType":"uint256"}],"anonymous":false},{"type":"event","name":"SwapFailed","inputs":[{"name":"tokenAddress","type":"address","indexed":true,"internalType":"address"},{"name":"taxTokenAmount","type":"uint256","indexed":false,"internalType":"uint256"}],"anonymous":false},{"type":"event","name":"SwapParamsUpdated","inputs":[{"name":"oldRouter","type":"address","indexed":false,"internalType":"address"},{"name":"newRouter","type":"address","indexed":false,"internalType":"address"},{"name":"oldAsset","type":"address","indexed":false,"internalType":"address"},{"name":"newAsset","type":"address","indexed":false,"internalType":"address"},{"name":"oldFeeRate","type":"uint16","indexed":false,"internalType":"uint16"},{"name":"newFeeRate","type":"uint16","indexed":false,"internalType":"uint16"}],"anonymous":false},{"type":"event","name":"SwapThresholdUpdated","inputs":[{"name":"oldMinThreshold","type":"uint256","indexed":false,"internalType":"uint256"},{"name":"newMinThreshold","type":"uint256","indexed":false,"internalType":"uint256"},{"name":"oldMaxThreshold","type":"uint256","indexed":false,"internalType":"uint256"},{"name":"newMaxThreshold","type":"uint256","indexed":false,"internalType":"uint256"}],"anonymous":false},{"type":"event","name":"TaxDeposited","inputs":[{"name":"tokenAddress","type":"address","indexed":true,"internalType":"address"},{"name":"amount","type":"uint256","indexed":false,"internalType":"uint256"}],"anonymous":false},{"type":"event","name":"TokenRegistered","inputs":[{"name":"tokenAddress","type":"address","indexed":true,"internalType":"address"},{"name":"creator","type":"address","indexed":true,"internalType":"address"},{"name":"tba","type":"address","indexed":false,"internalType":"address"}],"anonymous":false},{"type":"event","name":"TreasuryUpdated","inputs":[{"name":"oldTreasury","type":"address","indexed":false,"internalType":"address"},{"name":"newTreasury","type":"address","indexed":false,"internalType":"address"}],"anonymous":false},{"type":"error","name":"AccessControlBadConfirmation","inputs":[]},{"type":"error","name":"AccessControlUnauthorizedAccount","inputs":[{"name":"account","type":"address","internalType":"address"},{"name":"neededRole","type":"bytes32","internalType":"bytes32"}]},{"type":"error","name":"AddressEmptyCode","inputs":[{"name":"target","type":"address","internalType":"address"}]},{"type":"error","name":"AddressInsufficientBalance","inputs":[{"name":"account","type":"address","internalType":"address"}]},{"type":"error","name":"FailedInnerCall","inputs":[]},{"type":"error","name":"InvalidInitialization","inputs":[]},{"type":"error","name":"NotInitializing","inputs":[]},{"type":"error","name":"SafeERC20FailedOperation","inputs":[{"name":"token","type":"address","internalType":"address"}]}],"bytecode":{"object":"0x6080806040523460d0577ff0c57e16840df040f15088dc2f81fe391c3923bec73e23a9662efc9c229c6a005460ff8160401c1660c1576002600160401b03196001600160401b03821601605c575b6040516123b490816100d58239f35b6001600160401b0319166001600160401b039081177ff0c57e16840df040f15088dc2f81fe391c3923bec73e23a9662efc9c229c6a005581527fc7f505b2f371ae2175ee4913f4499e1f2633a7b5936321eed1cdaeb6115181d290602090a15f80604d565b63f92ee8a960e01b5f5260045ffd5b5f80fdfe6080806040526004361015610012575f80fd5b5f3560e01c90816301ffc9a71461177b5750806307bd0265146117415780631083f7611461171a57806315c862ba146116d957806315ca79ac1461166f5780631f0242dd1461157a5780631f5b396d146113a65780631fc928ae1461137e5780632012a58a146112fa578063248a9ca3146112d457806328eb219b146111695780632cb4c4fa146111015780632f2ff15d146110d057806336568abe1461108c578063489b58f91461106457806351cff8d914610fba57806361d027b314610f92578063688aea4414610f06578063708019c414610db857806374f5331714610d7e57806375b238fc14610d445780637f51bb1f14610c855780638764495314610c6857806391d1485414610c1357806394d39c0b14610bbe578063978bbdb914610b9a578063a217fddf14610b80578063acef1a4414610b63578063b015ba9814610830578063b18464cd1461063b578063b48ce6a7146105e5578063be74d6ec1461023b578063d4b7f40314610201578063d547741f146101c95763f887ea401461019d575f80fd5b346101c5575f3660031901126101c5576002546040516001600160a01b039091168152602090f35b5f80fd5b346101c55760403660031901126101c5576101ff6004356101e86117e4565b906101fa6101f582611916565b611ad9565b612060565b005b346101c5575f3660031901126101c55760206040517f499b8dbdbe4f7b12284c4a222a9951ce4488b43af4d09f42655d67f73b612fe18152f35b346101c55760603660031901126101c5576102546117ce565b61025c6117e4565b6102646117fa565b335f9081527f52fce5e8a5d0d9e8d1ea29f4525e512e9c27bf92cae50374d497f918ab48f382602052604090205460ff16156105ae576008546001600160a01b0316928315610575576001600160a01b0316926102c2841515611934565b6001600160a01b03831615610542576102e56001600160a01b0383161515611978565b60405163165e279560e01b81526004810185905290602082602481845afa918215610472575f92610521575b5081156104cf575b811561047d575b811561040e575b50156103be577f23c7bf40a4385714a78a5764985a90d92d38dbfa4f640a1532e1821a103b181691835f52600660205260405f20600181019060018060a01b03825416926103768415156118d3565b81546001600160a01b03199081166001600160a01b0392831617909255825490911693811693841790915560408051929091168252602082019290925290819081015b0390a2005b60405162461bcd60e51b815260206004820152602260248201527f546f6b656e206973206e6f742061207370656369616c206c61756e6368207479604482015261706560f01b6064820152608490fd5b6024915060209060405192838092632a5b53ed60e01b82528860048301525afa908115610472575f91610443575b5084610327565b610465915060203d60201161046b575b61045d8183611840565b8101906119f6565b8461043c565b503d610453565b6040513d5f823e3d90fd5b90506040516366b6a1c360e11b8152846004820152602081602481855afa908115610472575f916104b0575b5090610320565b6104c9915060203d60201161046b5761045d8183611840565b856104a9565b9050604051635b80cb9560e11b8152846004820152602081602481855afa908115610472575f91610502575b5090610319565b61051b915060203d60201161046b5761045d8183611840565b856104fb565b61053b91925060203d60201161046b5761045d8183611840565b9085610311565b60405162461bcd60e51b815260206004820152600b60248201526a496e76616c69642054424160a81b6044820152606490fd5b60405162461bcd60e51b8152602060048201526011602482015270109bdb991a5b99d58d481b9bdd081cd95d607a1b6044820152606490fd5b63e2517d3f60e01b5f52336004527fd8aa0f3194971a2a116679f7c2090f6939c8d4e01a2a8d7e41d55e5351469e6360245260445ffd5b346101c55760203660031901126101c5576001600160a01b036106066117ce565b165f5260076020526040805f206020825161062081611810565b60018354938483520154918291015282519182526020820152f35b346101c55760603660031901126101c5576106546117ce565b61065c6117e4565b6044359061ffff82168083036101c5577f587bb77b71846725053e80527336133c084bad5ea8ad8e90a53238d2102351c19360c093610699611a0e565b6106a76127108411156119b6565b60018060a01b03600254169360018060a01b035f54169061ffff60035460a01c169360018060a01b03600154166040515f806020830163095ea7b360e01b81528b602485015281604485015260448452610702606485611840565b83519082865af1610711612281565b81610801575b50806107f7575b156107b3575b505060015461073d9082906001600160a01b0316612139565b60018060a01b031690816001600160601b0360a01b600254161760025560018060a01b031692836001600160601b0360a01b5f5416175f556003549061ffff60a01b9060a01b169061ffff60a01b191617600355604051958652602086015260408501526060840152608083015260a0820152a1005b6107f0916107eb60405163095ea7b360e01b60208201528b60248201525f6044820152604481526107e5606482611840565b82612216565b612216565b8980610724565b50813b151561071e565b8051801592508215610816575b50508c610717565b61082992506020809183010191016119f6565b8c8061080e565b346101c5576101003660031901126101c55761084a6117ce565b6108526117e4565b9061085b6117fa565b91606435916001600160a01b0383168084036101c5576084356001600160a01b03811692908390036101c55760a4359260c4359260e4359261ffff8416908185036101c5575f8051602061235f833981519152549960ff8b60401c16159a67ffffffffffffffff811680159081610b5b575b6001149081610b51575b159081610b48575b50610b395767ffffffffffffffff1981166001175f8051602061235f833981519152558b610b0d575b5060ff5f8051602061235f8339815191525460401c1615610afe576001600160a01b03908116981690818914610aa9577f9a406f83dc9a92c8bd8f5abc852923a196fe3a87dd6d9ebe8272e928bd5d94fd996080997f587bb77b71846725053e80527336133c084bad5ea8ad8e90a53238d2102351c19760c0976109a6610a12956109976127108a11156119b6565b6109a081611e67565b50611f12565b50856001600160601b0360a01b5f5416175f55826001600160601b0360a01b6001541617600155876001600160601b0360a01b6002541617600255600354918c6004558b60055561ffff60a01b9060a01b169169ffffffffffffffffffff60b01b161717600355612139565b604051925f845260208401525f604084015260608301525f8783015260a0820152a1604051915f835260208301525f60408301526060820152a1610a5257005b68ff0000000000000000195f8051602061235f83398151915254165f8051602061235f833981519152557fc7f505b2f371ae2175ee4913f4499e1f2633a7b5936321eed1cdaeb6115181d2602060405160018152a1005b60405162461bcd60e51b815260206004820152602760248201527f417373657420746f6b656e2063616e6e6f742062652073616d652061732074616044820152663c103a37b5b2b760c91b6064820152608490fd5b631afcd79f60e31b5f5260045ffd5b68ffffffffffffffffff191668010000000000000001175f8051602061235f833981519152558b610908565b63f92ee8a960e01b5f5260045ffd5b9050158d6108df565b303b1591506108d7565b8d91506108cd565b346101c5575f3660031901126101c5576020600554604051908152f35b346101c5575f3660031901126101c55760206040515f8152f35b346101c5575f3660031901126101c557602061ffff60035460a01c16604051908152f35b346101c55760203660031901126101c5576001600160a01b03610bdf6117ce565b165f90815260066020908152604091829020805460019091015483516001600160a01b039283168152911691810191909152f35b346101c55760403660031901126101c557610c2c6117e4565b6004355f525f8051602061233f83398151915260205260405f209060018060a01b03165f52602052602060ff60405f2054166040519015158152f35b346101c5575f3660031901126101c5576020600454604051908152f35b346101c55760203660031901126101c557610c9e6117ce565b610ca6611a0e565b6001600160a01b038116908115610d0c57600380546001600160a01b03198116939093179055604080516001600160a01b0393841681529190921660208201527f4ab5be82436d353e61ca18726e984e561f5c1cc7c6d38b29d2553c790434705a9190a1005b60405162461bcd60e51b815260206004820152601060248201526f496e76616c696420747265617375727960801b6044820152606490fd5b346101c5575f3660031901126101c55760206040517fa49807205ce4d355092ef5a8a18f56e8913cf4a201fbe287825b095693c217758152f35b346101c5575f3660031901126101c55760206040517fd1f21ec03a6eb050fba156f5316dad461735df521fb446dd42c5a4728e9c70fe8152f35b346101c55760603660031901126101c557610dd16117ce565b610dd96117e4565b90610de26117fa565b335f9081527fb67170d0b146ec82154cfbefab9922c418f2f0261bb1f3236d1fd1aaf0c1ec8b602052604090205490919060ff1615610ecf576001600160a01b0316907f8c768b5da89e637b23caac626ccd760ef89b9e8eaa2f45bbf8c9d68e231dabef90602090610e55841515611934565b6001600160a01b031693610e6a851515611978565b60405190610e7782611810565b6001600160a01b039081168083528383018781525f87815260068652604090819020945185549085166001600160a01b03199182161786559151600190950180549590941694909116939093179091559051908152a3005b63e2517d3f60e01b5f52336004527fd1f21ec03a6eb050fba156f5316dad461735df521fb446dd42c5a4728e9c70fe60245260445ffd5b346101c55760203660031901126101c557610f1f6117ce565b610f27611a0e565b6001600160a01b03168015610f4d576001600160601b0360a01b60085416176008555f80f35b60405162461bcd60e51b815260206004820152601960248201527f496e76616c696420426f6e64696e6756352061646472657373000000000000006044820152606490fd5b346101c5575f3660031901126101c5576003546040516001600160a01b039091168152602090f35b346101c55760203660031901126101c557610fd36117ce565b610fdb611a0e565b6040516370a0823160e01b81523060048201526001600160a01b039190911690602081602481855afa908115610472575f91611032575b508061101a57005b6003546101ff926001600160a01b03909116906120fc565b90506020813d60201161105c575b8161104d60209383611840565b810103126101c5575182611012565b3d9150611040565b346101c5575f3660031901126101c5576008546040516001600160a01b039091168152602090f35b346101c55760403660031901126101c5576110a56117e4565b336001600160a01b038216036110c1576101ff90600435612060565b63334bd91960e11b5f5260045ffd5b346101c55760403660031901126101c5576101ff6004356110ef6117e4565b906110fc6101f582611916565b611fbc565b346101c55760203660031901126101c5576001600160a01b036111226117ce565b165f526006602052602060405f2060405161113c81611810565b81546001600160a01b03908116808352600190930154169201829052604080519182526020820192909252f35b346101c55760403660031901126101c5576111826117ce565b61118a6117e4565b6001600160a01b039182165f81815260066020526040902060010180549193909291166111b88115156118d3565b6001600160a01b03821615611299578033148015611275575b156112315782546001600160a01b0319166001600160a01b039283169081179093556040805191909216815260208101929092527f23c7bf40a4385714a78a5764985a90d92d38dbfa4f640a1532e1821a103b18169190819081016103b9565b606460405162461bcd60e51b815260206004820152602060248201527f4f6e6c792063726561746f72206f722061646d696e2063616e207570646174656044820152fd5b50335f9081525f8051602061231f833981519152602052604090205460ff166111d1565b60405162461bcd60e51b815260206004820152601360248201527224b73b30b634b2103732bb9031b932b0ba37b960691b6044820152606490fd5b346101c55760203660031901126101c55760206112f2600435611916565b604051908152f35b346101c55760403660031901126101c5576101ff6113166117ce565b61131e611a6a565b60018060a01b03811690815f52600660205260405f20916113696040519361134585611810565b80546001600160a01b039081168652600190910154166020850181905215156118d3565b5f5260076020526024359160405f2091611b2c565b346101c5575f3660031901126101c5576001546040516001600160a01b039091168152602090f35b346101c55760403660031901126101c55760043567ffffffffffffffff81116101c557366023820112156101c55780600401356113e281611862565b916113f06040519384611840565b8183526024602084019260051b820101903682116101c557602401915b81831061155a578360243567ffffffffffffffff81116101c557366023820112156101c55780600401359061144182611862565b9161144f6040519384611840565b8083526024602084019160051b830101913683116101c557602401905b82821061154a5750505061147e611a6a565b8151815103611513575f5b82518110156101ff576001906001600160a01b036114a782866118bf565b5116805f52600660205260405f2090604051916114c383611810565b848060a01b03815416835284808060a01b03910154168060208401521561150c5761150691815f52600760205260405f20906114ff85886118bf565b5192611b2c565b01611489565b5050611506565b60405162461bcd60e51b815260206004820152600f60248201526e098cadccee8d040dad2e6dac2e8c6d608b1b6044820152606490fd5b813581526020918201910161146c565b82356001600160a01b03811681036101c55781526020928301920161140d565b346101c55760403660031901126101c5576115936117ce565b60243590811561162a5760207f757569bd328813ddfbaa77c622f949a78f438c47099167c4504739acf70fefab9161160060018060a01b0360015416604051906323b872dd60e01b85830152336024830152306044830152866064830152606482526107eb608483611840565b60018060a01b031692835f526007825260405f2061161f82825461187a565b9055604051908152a2005b60405162461bcd60e51b815260206004820152601d60248201527f416d6f756e74206d7573742062652067726561746572207468616e20300000006044820152606490fd5b346101c55760403660031901126101c5577f9a406f83dc9a92c8bd8f5abc852923a196fe3a87dd6d9ebe8272e928bd5d94fd60806004356024356116b1611a0e565b60045491600554908060045582600555604051938452602084015260408301526060820152a1005b346101c55760203660031901126101c5576001600160a01b036116fa6117ce565b165f5260076020526040805f206001815491015482519182526020820152f35b346101c5575f3660031901126101c5575f546040516001600160a01b039091168152602090f35b346101c5575f3660031901126101c55760206040517fd8aa0f3194971a2a116679f7c2090f6939c8d4e01a2a8d7e41d55e5351469e638152f35b346101c55760203660031901126101c5576004359063ffffffff60e01b82168092036101c557602091637965db0b60e01b81149081156117bd575b5015158152f35b6301ffc9a760e01b149050836117b6565b600435906001600160a01b03821682036101c557565b602435906001600160a01b03821682036101c557565b604435906001600160a01b03821682036101c557565b6040810190811067ffffffffffffffff82111761182c57604052565b634e487b7160e01b5f52604160045260245ffd5b90601f8019910116810190811067ffffffffffffffff82111761182c57604052565b67ffffffffffffffff811161182c5760051b60200190565b9190820180921161188757565b634e487b7160e01b5f52601160045260245ffd5b8051600110156118ab5760400190565b634e487b7160e01b5f52603260045260245ffd5b80518210156118ab5760209160051b010190565b156118da57565b60405162461bcd60e51b8152602060048201526014602482015273151bdad95b881b9bdd081c9959da5cdd195c995960621b6044820152606490fd5b5f525f8051602061233f833981519152602052600160405f20015490565b1561193b57565b60405162461bcd60e51b8152602060048201526015602482015274496e76616c696420746f6b656e206164647265737360581b6044820152606490fd5b1561197f57565b60405162461bcd60e51b815260206004820152600f60248201526e24b73b30b634b21031b932b0ba37b960891b6044820152606490fd5b156119bd57565b60405162461bcd60e51b815260206004820152601160248201527008ccaca40e4c2e8ca40e8dede40d0d2ced607b1b6044820152606490fd5b908160209103126101c5575180151581036101c55790565b335f9081525f8051602061231f833981519152602052604090205460ff1615611a3357565b63e2517d3f60e01b5f52336004527fa49807205ce4d355092ef5a8a18f56e8913cf4a201fbe287825b095693c2177560245260445ffd5b335f9081527f8e947d2f35e7b160d3c28af9e3cac9b71517995ac0804fcb212bfb4ca3a75cc4602052604090205460ff1615611aa257565b63e2517d3f60e01b5f52336004527f499b8dbdbe4f7b12284c4a222a9951ce4488b43af4d09f42655d67f73b612fe160245260445ffd5b5f8181525f8051602061233f8339815191526020908152604080832033845290915290205460ff1615611b095750565b63e2517d3f60e01b5f523360045260245260445ffd5b9190820391821161188757565b9190611b4060018354930192835490611b1f565b936004548510611e6057600554808611611e58575b506001546040516370a0823160e01b81523060048201526001600160a01b039091169190602081602481865afa80156104725787915f91611e23575b5010611e1b5760405191611ba6606084611840565b60028352602083019060403683378351156118ab5781525f546001600160a01b0316611bd18461189b565b526002546001600160a01b0316914261012c810191908210611887576040516338ed173960e01b8152600481018a9052602481019190915260a06044820152935160a48501819052849260c4840192915f5b818110611df9575050505f838195938193306064840152608483015203925af15f9181611d66575b50611c8a575050604051928352506001600160a01b0316907ec9330a3897f639e425ff64405a7c1291464157cf3e7d55612267b8bc60c55890602090a2565b611c999094929493919361189b565b51604080518481526020810183905291926001600160a01b0316917f2d043ce009ff53fd444b0f4f5ff4c3f4ee293265203f77f156eeb33b595dfc4f9190a261ffff60035460a01c169283820293828504148215171561188757611d05612710611d1b95048093611b1f565b80611d41575b505080611d1f575b50825461187a565b9055565b5f54600354611d3b92916001600160a01b0391821691166120fc565b5f611d13565b5f54602090920151611d5f926001600160a01b0391821691166120fc565b5f80611d0b565b9091503d805f833e611d788183611840565b8101906020818303126101c55780519067ffffffffffffffff82116101c557019080601f830112156101c5578151611daf81611862565b92611dbd6040519485611840565b81845260208085019260051b8201019283116101c557602001905b828210611de957505050905f611c4b565b8151815260209182019101611dd8565b82516001600160a01b0316855287955060209485019490920191600101611c23565b505050505050565b9150506020813d602011611e50575b81611e3f60209383611840565b810103126101c5578690515f611b91565b3d9150611e32565b94505f611b55565b5050505050565b6001600160a01b0381165f9081525f8051602061231f833981519152602052604090205460ff16611f0d576001600160a01b03165f8181525f8051602061231f83398151915260205260408120805460ff191660011790553391907fa49807205ce4d355092ef5a8a18f56e8913cf4a201fbe287825b095693c21775907f2f8788117e7eff1d82e926ec794901d17c78024a50270940304540a733656f0d9080a4600190565b505f90565b6001600160a01b0381165f9081527fb7db2dd08fcb62d0c9e08c51941cae53c267786a0b75803fb7960902fc8ef97d602052604090205460ff16611f0d576001600160a01b03165f8181527fb7db2dd08fcb62d0c9e08c51941cae53c267786a0b75803fb7960902fc8ef97d60205260408120805460ff191660011790553391907f2f8788117e7eff1d82e926ec794901d17c78024a50270940304540a733656f0d8180a4600190565b5f8181525f8051602061233f833981519152602090815260408083206001600160a01b038616845290915290205460ff1661205a575f8181525f8051602061233f833981519152602090815260408083206001600160a01b0395909516808452949091528120805460ff19166001179055339291907f2f8788117e7eff1d82e926ec794901d17c78024a50270940304540a733656f0d9080a4600190565b50505f90565b5f8181525f8051602061233f833981519152602090815260408083206001600160a01b038616845290915290205460ff161561205a575f8181525f8051602061233f833981519152602090815260408083206001600160a01b0395909516808452949091528120805460ff19169055339291907ff6391f5c32d9c69d2a47ea670b442974b53935d1edc7fd64eb21e047a839171b9080a4600190565b60405163a9059cbb60e01b60208201526001600160a01b039092166024830152604480830193909352918152612137916107eb606483611840565b565b60405190602082019263095ea7b360e01b845260018060a01b0316928360248401525f19604484015260448352612171606484611840565b82516001600160a01b038316915f91829182855af19061218f612281565b826121e4575b50816121d9575b50156121a757505050565b6107eb612137936040519063095ea7b360e01b602083015260248201525f6044820152604481526107e5606482611840565b90503b15155f61219c565b805191925081159182156121fc575b5050905f612195565b61220f92506020809183010191016119f6565b5f806121f3565b5f8061223e9260018060a01b03169360208151910182865af1612237612281565b90836122c0565b8051908115159182612266575b50506122545750565b635274afe760e01b5f5260045260245ffd5b61227992506020809183010191016119f6565b155f8061224b565b3d156122bb573d9067ffffffffffffffff821161182c57604051916122b0601f8201601f191660200184611840565b82523d5f602084013e565b606090565b906122e457508051156122d557805190602001fd5b630a12f52160e11b5f5260045ffd5b81511580612315575b6122f5575090565b639996b31560e01b5f9081526001600160a01b0391909116600452602490fd5b50803b156122ed56feb16e88c42fd4e48df2dd6a2eabd6bc9aec654ec170056b470819f8892cc6431c02dd7bc7dec4dceedda775e58dd541e08a116c6c53815c0bd028192f7b626800f0c57e16840df040f15088dc2f81fe391c3923bec73e23a9662efc9c229c6a00a264697066735822122008482afcadd07c6575f435816d7f7a4a52d946b3b70d504e68c3193857da163764736f6c634300081a0033","linkReferences":{}},"methodIdentifiers":{"ADMIN_ROLE()":"75b238fc","DEFAULT_ADMIN_ROLE()":"a217fddf","EXECUTOR_ROLE()":"07bd0265","REGISTER_ROLE()":"74f53317","SWAP_ROLE()":"d4b7f403","assetToken()":"1083f761","batchSwapForTokenAddress(address[],uint256[])":"1f5b396d","bondingV5()":"489b58f9","depositTax(address,uint256)":"1f0242dd","feeRate()":"978bbdb9","getRoleAdmin(bytes32)":"248a9ca3","getTokenRecipient(address)":"2cb4c4fa","getTokenTaxAmounts(address)":"b48ce6a7","grantRole(bytes32,address)":"2f2ff15d","hasRole(bytes32,address)":"91d14854","initialize(address,address,address,address,address,uint256,uint256,uint16)":"b015ba98","maxSwapThreshold()":"acef1a44","minSwapThreshold()":"87644953","registerToken(address,address,address)":"708019c4","renounceRole(bytes32,address)":"36568abe","revokeRole(bytes32,address)":"d547741f","router()":"f887ea40","setBondingV5(address)":"688aea44","supportsInterface(bytes4)":"01ffc9a7","swapForTokenAddress(address,uint256)":"2012a58a","taxToken()":"1fc928ae","tokenRecipients(address)":"94d39c0b","tokenTaxAmounts(address)":"15c862ba","treasury()":"61d027b3","updateCreator(address,address)":"28eb219b","updateCreatorForSpecialLaunchAgents(address,address,address)":"be74d6ec","updateSwapParams(address,address,uint16)":"b18464cd","updateSwapThresholds(uint256,uint256)":"15ca79ac","updateTreasury(address)":"7f51bb1f","withdraw(address)":"51cff8d9"},"id":76}