{"abi":[{"type":"constructor","inputs":[],"stateMutability":"nonpayable"},{"type":"function","name":"ADMIN_ROLE","inputs":[],"outputs":[{"name":"","type":"bytes32","internalType":"bytes32"}],"stateMutability":"view"},{"type":"function","name":"DEFAULT_ADMIN_ROLE","inputs":[],"outputs":[{"name":"","type":"bytes32","internalType":"bytes32"}],"stateMutability":"view"},{"type":"function","name":"EXECUTOR_ROLE","inputs":[],"outputs":[{"name":"","type":"bytes32","internalType":"bytes32"}],"stateMutability":"view"},{"type":"function","name":"EXECUTOR_V2_ROLE","inputs":[],"outputs":[{"name":"","type":"bytes32","internalType":"bytes32"}],"stateMutability":"view"},{"type":"function","name":"agentNft","inputs":[],"outputs":[{"name":"","type":"address","internalType":"contract IAgentNft"}],"stateMutability":"view"},{"type":"function","name":"agentTaxAmounts","inputs":[{"name":"agentId","type":"uint256","internalType":"uint256"}],"outputs":[{"name":"amountCollected","type":"uint256","internalType":"uint256"},{"name":"amountSwapped","type":"uint256","internalType":"uint256"}],"stateMutability":"view"},{"type":"function","name":"assetToken","inputs":[],"outputs":[{"name":"","type":"address","internalType":"address"}],"stateMutability":"view"},{"type":"function","name":"bondingV2","inputs":[],"outputs":[{"name":"","type":"address","internalType":"contract IBondingV2ForTax"}],"stateMutability":"view"},{"type":"function","name":"bondingV4","inputs":[],"outputs":[{"name":"","type":"address","internalType":"contract IBondingV4ForTax"}],"stateMutability":"view"},{"type":"function","name":"creatorFeeRate","inputs":[],"outputs":[{"name":"","type":"uint16","internalType":"uint16"}],"stateMutability":"view"},{"type":"function","name":"dcaSell","inputs":[{"name":"agentIds","type":"uint256[]","internalType":"uint256[]"},{"name":"minConversionRate","type":"uint256","internalType":"uint256"},{"name":"rateDenom","type":"uint256","internalType":"uint256"},{"name":"maxOverride","type":"uint256","internalType":"uint256"}],"outputs":[],"stateMutability":"nonpayable"},{"type":"function","name":"feeRate","inputs":[],"outputs":[{"name":"","type":"uint16","internalType":"uint16"}],"stateMutability":"view"},{"type":"function","name":"getRoleAdmin","inputs":[{"name":"role","type":"bytes32","internalType":"bytes32"}],"outputs":[{"name":"","type":"bytes32","internalType":"bytes32"}],"stateMutability":"view"},{"type":"function","name":"grantRole","inputs":[{"name":"role","type":"bytes32","internalType":"bytes32"},{"name":"account","type":"address","internalType":"address"}],"outputs":[],"stateMutability":"nonpayable"},{"type":"function","name":"handleAgentTaxes","inputs":[{"name":"agentId","type":"uint256","internalType":"uint256"},{"name":"txhashes","type":"bytes32[]","internalType":"bytes32[]"},{"name":"amounts","type":"uint256[]","internalType":"uint256[]"},{"name":"minOutput","type":"uint256","internalType":"uint256"}],"outputs":[],"stateMutability":"nonpayable"},{"type":"function","name":"hasRole","inputs":[{"name":"role","type":"bytes32","internalType":"bytes32"},{"name":"account","type":"address","internalType":"address"}],"outputs":[{"name":"","type":"bool","internalType":"bool"}],"stateMutability":"view"},{"type":"function","name":"initialize","inputs":[{"name":"defaultAdmin_","type":"address","internalType":"address"},{"name":"assetToken_","type":"address","internalType":"address"},{"name":"taxToken_","type":"address","internalType":"address"},{"name":"router_","type":"address","internalType":"address"},{"name":"treasury_","type":"address","internalType":"address"},{"name":"minSwapThreshold_","type":"uint256","internalType":"uint256"},{"name":"maxSwapThreshold_","type":"uint256","internalType":"uint256"},{"name":"nft_","type":"address","internalType":"address"}],"outputs":[],"stateMutability":"nonpayable"},{"type":"function","name":"maxSwapThreshold","inputs":[],"outputs":[{"name":"","type":"uint256","internalType":"uint256"}],"stateMutability":"view"},{"type":"function","name":"minSwapThreshold","inputs":[],"outputs":[{"name":"","type":"uint256","internalType":"uint256"}],"stateMutability":"view"},{"type":"function","name":"renounceRole","inputs":[{"name":"role","type":"bytes32","internalType":"bytes32"},{"name":"callerConfirmation","type":"address","internalType":"address"}],"outputs":[],"stateMutability":"nonpayable"},{"type":"function","name":"revokeRole","inputs":[{"name":"role","type":"bytes32","internalType":"bytes32"},{"name":"account","type":"address","internalType":"address"}],"outputs":[],"stateMutability":"nonpayable"},{"type":"function","name":"router","inputs":[],"outputs":[{"name":"","type":"address","internalType":"contract IRouter"}],"stateMutability":"view"},{"type":"function","name":"setBondingV2","inputs":[{"name":"bondingV2_","type":"address","internalType":"address"}],"outputs":[],"stateMutability":"nonpayable"},{"type":"function","name":"setBondingV4","inputs":[{"name":"bondingV4_","type":"address","internalType":"address"}],"outputs":[],"stateMutability":"nonpayable"},{"type":"function","name":"supportsInterface","inputs":[{"name":"interfaceId","type":"bytes4","internalType":"bytes4"}],"outputs":[{"name":"","type":"bool","internalType":"bool"}],"stateMutability":"view"},{"type":"function","name":"taxHistory","inputs":[{"name":"txhash","type":"bytes32","internalType":"bytes32"}],"outputs":[{"name":"agentId","type":"uint256","internalType":"uint256"},{"name":"amount","type":"uint256","internalType":"uint256"}],"stateMutability":"view"},{"type":"function","name":"taxToken","inputs":[],"outputs":[{"name":"","type":"address","internalType":"address"}],"stateMutability":"view"},{"type":"function","name":"tbaBonus","inputs":[],"outputs":[{"name":"","type":"address","internalType":"contract ITBABonus"}],"stateMutability":"view"},{"type":"function","name":"treasury","inputs":[],"outputs":[{"name":"","type":"address","internalType":"address"}],"stateMutability":"view"},{"type":"function","name":"updateCreator","inputs":[{"name":"agentId","type":"uint256","internalType":"uint256"},{"name":"creator","type":"address","internalType":"address"}],"outputs":[],"stateMutability":"nonpayable"},{"type":"function","name":"updateCreatorForProject60daysAgents","inputs":[{"name":"agentId","type":"uint256","internalType":"uint256"},{"name":"tba","type":"address","internalType":"address"},{"name":"creator","type":"address","internalType":"address"}],"outputs":[],"stateMutability":"nonpayable"},{"type":"function","name":"updateCreatorForProjectXLaunchAgents","inputs":[{"name":"agentId","type":"uint256","internalType":"uint256"},{"name":"tba","type":"address","internalType":"address"},{"name":"creator","type":"address","internalType":"address"}],"outputs":[],"stateMutability":"nonpayable"},{"type":"function","name":"updateCreatorForPrototypeV2Agents","inputs":[{"name":"agentId","type":"uint256","internalType":"uint256"},{"name":"tba","type":"address","internalType":"address"},{"name":"creator","type":"address","internalType":"address"}],"outputs":[],"stateMutability":"nonpayable"},{"type":"function","name":"updateSwapParams","inputs":[{"name":"router_","type":"address","internalType":"address"},{"name":"assetToken_","type":"address","internalType":"address"},{"name":"feeRate_","type":"uint16","internalType":"uint16"},{"name":"creatorFeeRate_","type":"uint16","internalType":"uint16"}],"outputs":[],"stateMutability":"nonpayable"},{"type":"function","name":"updateSwapThresholds","inputs":[{"name":"minSwapThreshold_","type":"uint256","internalType":"uint256"},{"name":"maxSwapThreshold_","type":"uint256","internalType":"uint256"}],"outputs":[],"stateMutability":"nonpayable"},{"type":"function","name":"updateTbaBonus","inputs":[{"name":"tbaBonus_","type":"address","internalType":"address"}],"outputs":[],"stateMutability":"nonpayable"},{"type":"function","name":"updateTreasury","inputs":[{"name":"treasury_","type":"address","internalType":"address"}],"outputs":[],"stateMutability":"nonpayable"},{"type":"function","name":"withdraw","inputs":[{"name":"token","type":"address","internalType":"address"}],"outputs":[],"stateMutability":"nonpayable"},{"type":"event","name":"CreatorUpdated","inputs":[{"name":"agentId","type":"uint256","indexed":false,"internalType":"uint256"},{"name":"oldCreator","type":"address","indexed":false,"internalType":"address"},{"name":"newCreator","type":"address","indexed":false,"internalType":"address"}],"anonymous":false},{"type":"event","name":"Initialized","inputs":[{"name":"version","type":"uint64","indexed":false,"internalType":"uint64"}],"anonymous":false},{"type":"event","name":"RoleAdminChanged","inputs":[{"name":"role","type":"bytes32","indexed":true,"internalType":"bytes32"},{"name":"previousAdminRole","type":"bytes32","indexed":true,"internalType":"bytes32"},{"name":"newAdminRole","type":"bytes32","indexed":true,"internalType":"bytes32"}],"anonymous":false},{"type":"event","name":"RoleGranted","inputs":[{"name":"role","type":"bytes32","indexed":true,"internalType":"bytes32"},{"name":"account","type":"address","indexed":true,"internalType":"address"},{"name":"sender","type":"address","indexed":true,"internalType":"address"}],"anonymous":false},{"type":"event","name":"RoleRevoked","inputs":[{"name":"role","type":"bytes32","indexed":true,"internalType":"bytes32"},{"name":"account","type":"address","indexed":true,"internalType":"address"},{"name":"sender","type":"address","indexed":true,"internalType":"address"}],"anonymous":false},{"type":"event","name":"SwapExecuted","inputs":[{"name":"agentId","type":"uint256","indexed":true,"internalType":"uint256"},{"name":"taxTokenAmount","type":"uint256","indexed":false,"internalType":"uint256"},{"name":"assetTokenAmount","type":"uint256","indexed":false,"internalType":"uint256"}],"anonymous":false},{"type":"event","name":"SwapFailed","inputs":[{"name":"agentId","type":"uint256","indexed":true,"internalType":"uint256"},{"name":"taxTokenAmount","type":"uint256","indexed":false,"internalType":"uint256"}],"anonymous":false},{"type":"event","name":"SwapParamsUpdated2","inputs":[{"name":"oldRouter","type":"address","indexed":false,"internalType":"address"},{"name":"newRouter","type":"address","indexed":false,"internalType":"address"},{"name":"oldAsset","type":"address","indexed":false,"internalType":"address"},{"name":"newAsset","type":"address","indexed":false,"internalType":"address"},{"name":"oldFeeRate","type":"uint16","indexed":false,"internalType":"uint16"},{"name":"newFeeRate","type":"uint16","indexed":false,"internalType":"uint16"},{"name":"oldCreatorFeeRate","type":"uint16","indexed":false,"internalType":"uint16"},{"name":"newCreatorFeeRate","type":"uint16","indexed":false,"internalType":"uint16"}],"anonymous":false},{"type":"event","name":"SwapThresholdUpdated","inputs":[{"name":"oldMinThreshold","type":"uint256","indexed":false,"internalType":"uint256"},{"name":"newMinThreshold","type":"uint256","indexed":false,"internalType":"uint256"},{"name":"oldMaxThreshold","type":"uint256","indexed":false,"internalType":"uint256"},{"name":"newMaxThreshold","type":"uint256","indexed":false,"internalType":"uint256"}],"anonymous":false},{"type":"event","name":"TaxCollected","inputs":[{"name":"txhash","type":"bytes32","indexed":true,"internalType":"bytes32"},{"name":"agentId","type":"uint256","indexed":false,"internalType":"uint256"},{"name":"amount","type":"uint256","indexed":false,"internalType":"uint256"}],"anonymous":false},{"type":"event","name":"TreasuryUpdated","inputs":[{"name":"oldTreasury","type":"address","indexed":false,"internalType":"address"},{"name":"newTreasury","type":"address","indexed":false,"internalType":"address"}],"anonymous":false},{"type":"error","name":"AccessControlBadConfirmation","inputs":[]},{"type":"error","name":"AccessControlUnauthorizedAccount","inputs":[{"name":"account","type":"address","internalType":"address"},{"name":"neededRole","type":"bytes32","internalType":"bytes32"}]},{"type":"error","name":"AddressEmptyCode","inputs":[{"name":"target","type":"address","internalType":"address"}]},{"type":"error","name":"AddressInsufficientBalance","inputs":[{"name":"account","type":"address","internalType":"address"}]},{"type":"error","name":"FailedInnerCall","inputs":[]},{"type":"error","name":"InvalidInitialization","inputs":[]},{"type":"error","name":"NotInitializing","inputs":[]},{"type":"error","name":"SafeERC20FailedOperation","inputs":[{"name":"token","type":"address","internalType":"address"}]},{"type":"error","name":"TxHashExists","inputs":[{"name":"txhash","type":"bytes32","internalType":"bytes32"}]}],"bytecode":{"object":"0x6080806040523460d0577ff0c57e16840df040f15088dc2f81fe391c3923bec73e23a9662efc9c229c6a005460ff8160401c1660c1576002600160401b03196001600160401b03821601605c575b604051612a5090816100d58239f35b6001600160401b0319166001600160401b039081177ff0c57e16840df040f15088dc2f81fe391c3923bec73e23a9662efc9c229c6a005581527fc7f505b2f371ae2175ee4913f4499e1f2633a7b5936321eed1cdaeb6115181d290602090a15f80604d565b63f92ee8a960e01b5f5260045ffd5b5f80fdfe6080806040526004361015610012575f80fd5b5f3560e01c90816301ffc9a71461197a5750806305a1189d1461194757806307bd02651461190d5780631083f761146118e657806315ca79ac1461187c57806315d478cb146118545780631fc928ae1461182c578063248a9ca3146118065780632f2ff15d146117d557806335f159011461164157806336568abe146115fd57806338c27698146115ca578063467678c8146115a257806351cff8d9146115065780635416be161461128d57806361d027b31461126557806375b238fc1461122b5780637f51bb1f146111ba578063876449531461119d57806391d148541461114857806395fafd6614610ed1578063978bbdb914610ead5780639cbef4a914610e85578063a217fddf14610e6b578063acef1a4414610e4e578063ae3c53ec14610ccb578063afb360cb14610ae2578063b283aaf814610a56578063ba86f605146108a3578063bdc1776114610817578063c16dabaf146104ae578063d547741f14610476578063d628547c1461042c578063dc0685ac14610400578063df394293146103df578063ebd8ef60146103a5578063f8361bab146101ea5763f887ea40146101be575f80fd5b346101e6575f3660031901126101e6576002546040516001600160a01b039091168152602090f35b5f80fd5b346101e65760403660031901126101e6576004356102066119cd565b5f828152600a6020526040902080549192916001600160a01b0316156102fd575b60010180546001600160a01b0316919033831480156102d9575b156102945780546001600160a01b0319166001600160a01b0394851690811790915560408051928352929093166020820152908101919091525f8051602061299b8339815191529080606081015b0390a1005b60405162461bcd60e51b815260206004820152601760248201527f4f6e6c792063726561746f722063616e207570646174650000000000000000006044820152606490fd5b50335f9081525f805160206129bb833981519152602052604090205460ff16610241565b600654604051635652386760e11b81526004810184905291905f90839060249082906001600160a01b03165afa801561039a576001925f91610378575b50606081015182546001600160a01b031990811660a086901b8690039283161784556040909201519383018054909216931692909217909155610227565b61039491503d805f833e61038c8183611a63565b810190611b2c565b8561033a565b6040513d5f823e3d90fd5b346101e6575f3660031901126101e65760206040517f5fb5c681277e9db623b939c66d7b975c365defc358dafa636db472e5296ffc548152f35b346101e6575f3660031901126101e657602061ffff600b5416604051908152f35b346101e6575f3660031901126101e657600b5460405160109190911c6001600160a01b03168152602090f35b346101e65760203660031901126101e6576104456119e3565b61044d611d66565b600b805462010000600160b01b03191660109290921b62010000600160b01b0316919091179055005b346101e65760403660031901126101e6576104ac6004356104956119cd565b906104a76104a282611afa565b611ea0565b6120df565b005b346101e6576101003660031901126101e6576104c86119e3565b6104d06119cd565b906044356001600160a01b03811691908290036101e657606435916001600160a01b0383168084036101e6576084356001600160a01b03811694908590036101e65760a4359260c4359260e4359660018060a01b0388168098036101e6575f805160206129fb833981519152549860ff8a60401c16159967ffffffffffffffff81168015908161080f575b6001149081610805575b1590816107fc575b506107ed5767ffffffffffffffff1981166001175f805160206129fb833981519152558a6107c1575b5060ff5f805160206129fb8339815191525460401c16156107b2576001600160a01b031683811461075d577f9a406f83dc9a92c8bd8f5abc852923a196fe3a87dd6d9ebe8272e928bd5d94fd986106807f029844987e5c6b8033062ec47457a6f7814112b3bc0a600614c8900bd56ba0c1966101009661ffff956106258d61061f60809f611ee6565b50611f91565b50856001600160601b0360a01b5f5416175f55816001600160601b0360a01b6001541617600155876001600160601b0360a01b60025416176002556001600160601b0360a01b60035416176003558a600455896005556121b8565b6001600160601b0360a01b6006541617600655601960a21b8260a01b1960035416179081600355610bb88319600b541617600b55604051935f855260208501525f604085015260608401525f8884015260a01c1660a08201525f60c0820152610bb860e0820152a1604051915f835260208301525f60408301526060820152a161070657005b68ff0000000000000000195f805160206129fb83398151915254165f805160206129fb833981519152557fc7f505b2f371ae2175ee4913f4499e1f2633a7b5936321eed1cdaeb6115181d2602060405160018152a1005b60405162461bcd60e51b815260206004820152602760248201527f417373657420746f6b656e2063616e6e6f742062652073616d652061732074616044820152663c103a37b5b2b760c91b6064820152608490fd5b631afcd79f60e31b5f5260045ffd5b68ffffffffffffffffff191668010000000000000001175f805160206129fb833981519152558a610596565b63f92ee8a960e01b5f5260045ffd5b9050158c61056d565b303b159150610565565b8c915061055b565b346101e65760203660031901126101e6576108306119e3565b610838611d66565b6001600160a01b0316801561085e576001600160601b0360a01b600d541617600d555f80f35b60405162461bcd60e51b815260206004820152601960248201527f496e76616c696420426f6e64696e6756342061646472657373000000000000006044820152606490fd5b346101e6576108b1366119f9565b916108ba611dc2565b64e8d4a510008110610a11576108da6001600160a01b0383161515611c89565b6108ee6001600160a01b0384161515611cc3565b5f818152600a6020526040902080549093906001600160a01b03161561096a575b60018401805485546001600160a01b03199081166001600160a01b0396871617909655948516918416918217905560408051928352939092166020820152918201525f8051602061299b83398151915290806060810161028f565b600654604051635652386760e11b81526004810184905291905f90839060249082906001600160a01b03165afa94851561039a575f8051602061299b8339815191529561028f935f916109f7575b50606081015182546001600160a01b03199081166001600160a01b0392831617845560409092015160018401805490931691161790559450905061090f565b610a0b91503d805f833e61038c8183611a63565b876109b8565b60405162461bcd60e51b815260206004820152601c60248201527f4f6e6c7920666f722070726f746f74797065207632206167656e7473000000006044820152606490fd5b346101e65760203660031901126101e657610a6f6119e3565b610a77611d66565b6001600160a01b03168015610a9d576001600160601b0360a01b600c541617600c555f80f35b60405162461bcd60e51b815260206004820152601960248201527f496e76616c696420426f6e64696e6756322061646472657373000000000000006044820152606490fd5b346101e65760803660031901126101e65760243560043567ffffffffffffffff82116101e657366023830112156101e657816004013591610b2283611a85565b92610b306040519485611a63565b8084526024602085019160051b830101913683116101e657602401905b828210610cbb5750505060443567ffffffffffffffff81116101e657610b77903690600401611a9d565b90610b80611e31565b8251825103610c8357805f52600960205260405f20915f935f945b8151861015610c6457610bae8683611d25565b5195865f52600860205260405f2054610c5157610c0f600192610bd18387611d25565b518460405191610be083611a33565b898352602083019081528b5f52600860205260405f209251835551910155610c088387611d25565b5190611d59565b967fd49b6c44504dd22ab80e4edc533a6c4bd5463f09b51c0478676f82c588f62e1a6040610c3d8488611d25565b518151908982526020820152a20194610b9b565b866374e8729760e11b5f5260045260245ffd5b8385610c746104ac938254611d59565b9055600554906064359061234b565b60405162461bcd60e51b815260206004820152601060248201526f556e6d61746368656420696e7075747360801b6044820152606490fd5b8135815260209182019101610b4d565b346101e65760803660031901126101e65760043567ffffffffffffffff81116101e657610cfc903690600401611a9d565b60443590602435606435610d0e611e31565b8115610e095783159182610dc4575f5b84518110156104ac57610d318186611d25565b5190815f526009602052610d64602060405f20604051610d5081611a33565b600182549283835201549283910152611d39565b6004548110610dba5783858211610db2575b610d7f91611d46565b9185610d9e5784610d959189600195049061234b565b50505b01610d1e565b634e487b7160e01b5f52601260045260245ffd5b859150610d76565b5060019150610d98565b60405162461bcd60e51b815260206004820152601860248201527f496e76616c696420726174652064656e6f6d696e61746f7200000000000000006044820152606490fd5b60405162461bcd60e51b815260206004820152601760248201527f496e76616c696420636f6e76657273696f6e20726174650000000000000000006044820152606490fd5b346101e6575f3660031901126101e6576020600554604051908152f35b346101e6575f3660031901126101e65760206040515f8152f35b346101e6575f3660031901126101e6576006546040516001600160a01b039091168152602090f35b346101e6575f3660031901126101e657602061ffff60035460a01c16604051908152f35b346101e65760803660031901126101e657610eea6119e3565b610ef26119cd565b906044359061ffff8216918281036101e65760643561ffff81168091036101e657610f1b611d66565b80840161ffff81116111345761ffff6127109116036110fb577f029844987e5c6b8033062ec47457a6f7814112b3bc0a600614c8900bd56ba0c1946101009461ffff80936002549560018060a01b0387169761103e5f549160035494600b549860018060a01b031694856001600160601b0360a01b8616175f5560018060a01b038316809c6001600160601b0360a01b16176002558760a01b9060a01b168760a01b198716176003558619891617600b558a60018060a01b0360015416604051905f806020840163095ea7b360e01b815285602486015281604486015260448552611007606486611a63565b84519082855af16110166128fd565b816110cc575b50806110c2575b1561107d575b50506001546001600160a01b031690506121b8565b83600b541697604051998a5260208a015260018060a01b03166040890152606088015260a01c16608086015260a08501521660c083015260e0820152a1005b6110b56110ba936040519063095ea7b360e01b602083015260248201525f6044820152604481526110af606482611a63565b82612892565b612892565b8a8e80611029565b50803b1515611023565b80518015925082156110e1575b50505f61101c565b6110f49250602080918301019101611c71565b5f806110d9565b60405162461bcd60e51b8152602060048201526011602482015270496e76616c69642066656520726174657360781b6044820152606490fd5b634e487b7160e01b5f52601160045260245ffd5b346101e65760403660031901126101e6576111616119cd565b6004355f525f805160206129db83398151915260205260405f209060018060a01b03165f52602052602060ff60405f2054166040519015158152f35b346101e6575f3660031901126101e6576020600454604051908152f35b346101e65760203660031901126101e6577f4ab5be82436d353e61ca18726e984e561f5c1cc7c6d38b29d2553c790434705a60406111f66119e3565b6111fe611d66565b600380546001600160a01b039283166001600160a01b0319821681179092558351921682526020820152a1005b346101e6575f3660031901126101e65760206040517fa49807205ce4d355092ef5a8a18f56e8913cf4a201fbe287825b095693c217758152f35b346101e6575f3660031901126101e6576003546040516001600160a01b039091168152602090f35b346101e65761129b366119f9565b916112a4611dc2565b600d546001600160a01b031680156114cd57600654604051635652386760e11b815260048101849052905f90829060249082906001600160a01b03165afa90811561039a575f916114b3575b50602001516001600160a01b03169061130a821515611c33565b604051635b80cb9560e11b81526004810183905291602083602481855afa92831561039a575f93611492575b50821561142e575b5050156113de575f8051602061299b8339815191529261028f9061136c6001600160a01b0385161515611c89565b6113806001600160a01b0382161515611cc3565b5f838152600a602090815260409182902060018101805482546001600160a01b03998a166001600160a01b03199182161790935594881691851682179055825195865295909216918401919091528201929092529081906060820190565b60405162461bcd60e51b815260206004820152602260248201527f546f6b656e206973206e6f7420585f4c41554e4348206f72204143505f534b49604482015261131360f21b6064820152608490fd5b60209192506024604051809481936366b6a1c360e11b835260048301525afa90811561039a575f91611463575b50848061133e565b611485915060203d60201161148b575b61147d8183611a63565b810190611c71565b8461145b565b503d611473565b6114ac91935060203d60201161148b5761147d8183611a63565b9186611336565b6114c791503d805f833e61038c8183611a63565b856112f0565b60405162461bcd60e51b8152602060048201526011602482015270109bdb991a5b99d58d081b9bdd081cd95d607a1b6044820152606490fd5b346101e65760203660031901126101e65761151f6119e3565b611527611d66565b6003546040516370a0823160e01b8152306004820152916001600160a01b039081169116602083602481855afa91821561039a575f9261156c575b6104ac935061217b565b91506020833d60201161159a575b8161158760209383611a63565b810103126101e6576104ac925191611562565b3d915061157a565b346101e6575f3660031901126101e657600d546040516001600160a01b039091168152602090f35b346101e65760203660031901126101e6576004355f5260096020526040805f206001815491015482519182526020820152f35b346101e65760403660031901126101e6576116166119cd565b336001600160a01b03821603611632576104ac906004356120df565b63334bd91960e11b5f5260045ffd5b346101e65761164f366119f9565b91611658611dc2565b600c546001600160a01b0316801561179c57600654604051635652386760e11b815260048101849052905f90829060249082906001600160a01b03165afa801561039a576020915f91611782575b508101516001600160a01b03166116be811515611c33565b60246040518094819363165e279560e01b835260048301525afa90811561039a575f91611763575b5015611713575f8051602061299b8339815191529261028f9061136c6001600160a01b0385161515611c89565b60405162461bcd60e51b815260206004820152602260248201527f546f6b656e206973206e6f7420612050726f6a65637436306461797320746f6b60448201526132b760f11b6064820152608490fd5b61177c915060203d60201161148b5761147d8183611a63565b846116e6565b61179691503d805f833e61038c8183611a63565b866116a6565b60405162461bcd60e51b8152602060048201526011602482015270109bdb991a5b99d58c881b9bdd081cd95d607a1b6044820152606490fd5b346101e65760403660031901126101e6576104ac6004356117f46119cd565b906118016104a282611afa565b61203b565b346101e65760203660031901126101e6576020611824600435611afa565b604051908152f35b346101e6575f3660031901126101e6576001546040516001600160a01b039091168152602090f35b346101e6575f3660031901126101e657600c546040516001600160a01b039091168152602090f35b346101e65760403660031901126101e6577f9a406f83dc9a92c8bd8f5abc852923a196fe3a87dd6d9ebe8272e928bd5d94fd60806004356024356118be611d66565b60045491600554908060045582600555604051938452602084015260408301526060820152a1005b346101e6575f3660031901126101e6575f546040516001600160a01b039091168152602090f35b346101e6575f3660031901126101e65760206040517fd8aa0f3194971a2a116679f7c2090f6939c8d4e01a2a8d7e41d55e5351469e638152f35b346101e65760203660031901126101e6576004355f5260086020526040805f206001815491015482519182526020820152f35b346101e65760203660031901126101e6576004359063ffffffff60e01b82168092036101e657602091637965db0b60e01b81149081156119bc575b5015158152f35b6301ffc9a760e01b149050836119b5565b602435906001600160a01b03821682036101e657565b600435906001600160a01b03821682036101e657565b60609060031901126101e657600435906024356001600160a01b03811681036101e657906044356001600160a01b03811681036101e65790565b6040810190811067ffffffffffffffff821117611a4f57604052565b634e487b7160e01b5f52604160045260245ffd5b90601f8019910116810190811067ffffffffffffffff821117611a4f57604052565b67ffffffffffffffff8111611a4f5760051b60200190565b9080601f830112156101e6578135611ab481611a85565b92611ac26040519485611a63565b81845260208085019260051b8201019283116101e657602001905b828210611aea5750505090565b8135815260209182019101611add565b5f525f805160206129db833981519152602052600160405f20015490565b51906001600160a01b03821682036101e657565b6020818303126101e65780519067ffffffffffffffff82116101e657019060a0828203126101e6576040519160a0830183811067ffffffffffffffff821117611a4f57604052611b7b81611b18565b8352611b8960208201611b18565b6020840152611b9a60408201611b18565b6040840152611bab60608201611b18565b606084015260808101519067ffffffffffffffff82116101e657019080601f830112156101e657815190611bde82611a85565b92611bec6040519485611a63565b82845260208085019360051b8201019182116101e657602001915b818310611c1957505050608082015290565b825160ff811681036101e657815260209283019201611c07565b15611c3a57565b60405162461bcd60e51b815260206004820152600f60248201526e151bdad95b881b9bdd08199bdd5b99608a1b6044820152606490fd5b908160209103126101e6575180151581036101e65790565b15611c9057565b60405162461bcd60e51b815260206004820152600b60248201526a496e76616c69642054424160a81b6044820152606490fd5b15611cca57565b60405162461bcd60e51b815260206004820152600f60248201526e24b73b30b634b21031b932b0ba37b960891b6044820152606490fd5b805160011015611d115760400190565b634e487b7160e01b5f52603260045260245ffd5b8051821015611d115760209160051b010190565b9190820391821161113457565b8181029291811591840414171561113457565b9190820180921161113457565b335f9081525f805160206129bb833981519152602052604090205460ff1615611d8b57565b63e2517d3f60e01b5f52336004527fa49807205ce4d355092ef5a8a18f56e8913cf4a201fbe287825b095693c2177560245260445ffd5b335f9081527fa4b223a1a66e46973075da23ff5dc7b62b2edb2d69941e931f8cde5e8339ded7602052604090205460ff1615611dfa57565b63e2517d3f60e01b5f52336004527f5fb5c681277e9db623b939c66d7b975c365defc358dafa636db472e5296ffc5460245260445ffd5b335f9081527f52fce5e8a5d0d9e8d1ea29f4525e512e9c27bf92cae50374d497f918ab48f382602052604090205460ff1615611e6957565b63e2517d3f60e01b5f52336004527fd8aa0f3194971a2a116679f7c2090f6939c8d4e01a2a8d7e41d55e5351469e6360245260445ffd5b5f8181525f805160206129db8339815191526020908152604080832033845290915290205460ff1615611ed05750565b63e2517d3f60e01b5f523360045260245260445ffd5b6001600160a01b0381165f9081525f805160206129bb833981519152602052604090205460ff16611f8c576001600160a01b03165f8181525f805160206129bb83398151915260205260408120805460ff191660011790553391907fa49807205ce4d355092ef5a8a18f56e8913cf4a201fbe287825b095693c21775907f2f8788117e7eff1d82e926ec794901d17c78024a50270940304540a733656f0d9080a4600190565b505f90565b6001600160a01b0381165f9081527fb7db2dd08fcb62d0c9e08c51941cae53c267786a0b75803fb7960902fc8ef97d602052604090205460ff16611f8c576001600160a01b03165f8181527fb7db2dd08fcb62d0c9e08c51941cae53c267786a0b75803fb7960902fc8ef97d60205260408120805460ff191660011790553391907f2f8788117e7eff1d82e926ec794901d17c78024a50270940304540a733656f0d8180a4600190565b5f8181525f805160206129db833981519152602090815260408083206001600160a01b038616845290915290205460ff166120d9575f8181525f805160206129db833981519152602090815260408083206001600160a01b0395909516808452949091528120805460ff19166001179055339291907f2f8788117e7eff1d82e926ec794901d17c78024a50270940304540a733656f0d9080a4600190565b50505f90565b5f8181525f805160206129db833981519152602090815260408083206001600160a01b038616845290915290205460ff16156120d9575f8181525f805160206129db833981519152602090815260408083206001600160a01b0395909516808452949091528120805460ff19169055339291907ff6391f5c32d9c69d2a47ea670b442974b53935d1edc7fd64eb21e047a839171b9080a4600190565b60405163a9059cbb60e01b60208201526001600160a01b0390921660248301526044808301939093529181526121b6916110b5606483611a63565b565b60405190602082019263095ea7b360e01b845260018060a01b0316928360248401525f196044840152604483526121f0606484611a63565b82516001600160a01b038316915f91829182855af19061220e6128fd565b82612263575b5081612258575b501561222657505050565b6110b56121b6936040519063095ea7b360e01b602083015260248201525f6044820152604481526110af606482611a63565b90503b15155f61221b565b8051919250811591821561227b575b5050905f612214565b61228e9250602080918301019101611c71565b5f80612272565b6020818303126101e65780519067ffffffffffffffff82116101e657019080601f830112156101e65781516122c981611a85565b926122d76040519485611a63565b81845260208085019260051b8201019283116101e657602001905b8282106122ff5750505090565b81518152602091820191016122f2565b90602080835192838152019201905f5b81811061232c5750505090565b82516001600160a01b031684526020938401939092019160010161231f565b9092915f93825f52600960205260405f2061236e60018254920191825490611d39565b6001546040516370a0823160e01b815230600482015291949190602090829060249082906001600160a01b03165afa801561039a5785915f9161285d575b5010612821575f60206040516123c181611a33565b82815201525f858152600a6020526040902080549091906001600160a01b031615612792575b604051916123f483611a33565b80546001600160a01b039081168085526001909201541660209093019283521561274d57600454851061273f57808511612737575b50604051612438606082611a63565b6002815260208101604036823760018060a01b036001541690825115611d1157525f546001600160a01b031661246d82611d01565b5260018060a01b03600254169360405163d06ca61f60e01b8152866004820152604060248201525f81806124a4604482018761230f565b0381895afa801561039a576001915f9161271d575b505111156126d85761012c420194854211611134575f928361250593604051988995869485936338ed173960e01b85528d6004860152602485015260a0604485015260a484019061230f565b90306064840152608483015203925af15f93816126b4575b506125545750505060207f0995a3a8a2e2612b6b89854de70b658cfa9d5b2239a4723cea9c9588b70f755391604051908152a28190565b61256383959294969793611d01565b5191807f4d3257edb95914b701655f9bf4b58e4b422017a7b94dad03a20dae00f4b1cbb7604080518a8152866020820152a26125b66127106125ae61ffff60035460a01c1686611d46565b048094611d39565b9182612608575b505050936125d891856125df966125e5575b50508254611d59565b9055611d01565b51600191565b905460035461260192916001600160a01b03918216911661217b565b5f806125cf565b5f5481516126249185916001600160a01b03908116911661217b565b600b5460101c6001600160a01b03169081612640575b506125bd565b5192979394926001600160a01b031690803b156101e6575f92836064926040519b8c9586946339bc978360e01b86526004860152602485015260448401525af192831561039a576125df966125d89461269f575b81939783955061263a565b6126ac9192505f90611a63565b5f905f612694565b6126d19194503d805f833e6126c98183611a63565b810190612295565b925f61251d565b60405162461bcd60e51b815260206004820152601b60248201527f4661696c656420746f20666574636820746f6b656e20707269636500000000006044820152606490fd5b61273191503d805f833e6126c98183611a63565b5f6124b9565b93505f612429565b50505050505090505f905f90565b60405162461bcd60e51b815260206004820152601760248201527f4167656e7420646f6573206e6f742068617665205442410000000000000000006044820152606490fd5b600654604051635652386760e11b815260048101889052905f90829060249082906001600160a01b03165afa90811561039a575f91612807575b50606081015183546001600160a01b03199081166001600160a01b0392831617855560409092015160018501805490931691161790556123e7565b61281b91503d805f833e61038c8183611a63565b5f6127cc565b60405162461bcd60e51b8152602060048201526014602482015273496e73756666696369656e742062616c616e636560601b6044820152606490fd5b9150506020813d60201161288a575b8161287960209383611a63565b810103126101e6578490515f6123ac565b3d915061286c565b5f806128ba9260018060a01b03169360208151910182865af16128b36128fd565b908361293c565b80519081151591826128e2575b50506128d05750565b635274afe760e01b5f5260045260245ffd5b6128f59250602080918301019101611c71565b155f806128c7565b3d15612937573d9067ffffffffffffffff8211611a4f576040519161292c601f8201601f191660200184611a63565b82523d5f602084013e565b606090565b90612960575080511561295157805190602001fd5b630a12f52160e11b5f5260045ffd5b81511580612991575b612971575090565b639996b31560e01b5f9081526001600160a01b0391909116600452602490fd5b50803b1561296956fe39c3f4941511e634a0c6b084e012b034d79512f771d654ac69a50c86ad1dea7db16e88c42fd4e48df2dd6a2eabd6bc9aec654ec170056b470819f8892cc6431c02dd7bc7dec4dceedda775e58dd541e08a116c6c53815c0bd028192f7b626800f0c57e16840df040f15088dc2f81fe391c3923bec73e23a9662efc9c229c6a00a264697066735822122094fa4c992b83e3219e7dc835ed2824e2dec8b8ab2aa160f1f09a9700d2ca330f64736f6c634300081a0033","linkReferences":{}},"methodIdentifiers":{"ADMIN_ROLE()":"75b238fc","DEFAULT_ADMIN_ROLE()":"a217fddf","EXECUTOR_ROLE()":"07bd0265","EXECUTOR_V2_ROLE()":"ebd8ef60","agentNft()":"9cbef4a9","agentTaxAmounts(uint256)":"38c27698","assetToken()":"1083f761","bondingV2()":"15d478cb","bondingV4()":"467678c8","creatorFeeRate()":"df394293","dcaSell(uint256[],uint256,uint256,uint256)":"ae3c53ec","feeRate()":"978bbdb9","getRoleAdmin(bytes32)":"248a9ca3","grantRole(bytes32,address)":"2f2ff15d","handleAgentTaxes(uint256,bytes32[],uint256[],uint256)":"afb360cb","hasRole(bytes32,address)":"91d14854","initialize(address,address,address,address,address,uint256,uint256,address)":"c16dabaf","maxSwapThreshold()":"acef1a44","minSwapThreshold()":"87644953","renounceRole(bytes32,address)":"36568abe","revokeRole(bytes32,address)":"d547741f","router()":"f887ea40","setBondingV2(address)":"b283aaf8","setBondingV4(address)":"bdc17761","supportsInterface(bytes4)":"01ffc9a7","taxHistory(bytes32)":"05a1189d","taxToken()":"1fc928ae","tbaBonus()":"dc0685ac","treasury()":"61d027b3","updateCreator(uint256,address)":"f8361bab","updateCreatorForProject60daysAgents(uint256,address,address)":"35f15901","updateCreatorForProjectXLaunchAgents(uint256,address,address)":"5416be16","updateCreatorForPrototypeV2Agents(uint256,address,address)":"ba86f605","updateSwapParams(address,address,uint16,uint16)":"95fafd66","updateSwapThresholds(uint256,uint256)":"15ca79ac","updateTbaBonus(address)":"d628547c","updateTreasury(address)":"7f51bb1f","withdraw(address)":"51cff8d9"},"id":75}