{"abi":[{"type":"function","name":"account","inputs":[{"name":"implementation","type":"address","internalType":"address"},{"name":"chainId","type":"uint256","internalType":"uint256"},{"name":"tokenContract","type":"address","internalType":"address"},{"name":"tokenId","type":"uint256","internalType":"uint256"},{"name":"salt","type":"uint256","internalType":"uint256"}],"outputs":[{"name":"","type":"address","internalType":"address"}],"stateMutability":"view"},{"type":"function","name":"createAccount","inputs":[{"name":"implementation","type":"address","internalType":"address"},{"name":"salt","type":"bytes32","internalType":"bytes32"},{"name":"chainId","type":"uint256","internalType":"uint256"},{"name":"tokenContract","type":"address","internalType":"address"},{"name":"tokenId","type":"uint256","internalType":"uint256"}],"outputs":[{"name":"","type":"address","internalType":"address"}],"stateMutability":"nonpayable"},{"type":"event","name":"AccountCreated","inputs":[{"name":"account","type":"address","indexed":false,"internalType":"address"},{"name":"implementation","type":"address","indexed":true,"internalType":"address"},{"name":"chainId","type":"uint256","indexed":false,"internalType":"uint256"},{"name":"tokenContract","type":"address","indexed":true,"internalType":"address"},{"name":"tokenId","type":"uint256","indexed":true,"internalType":"uint256"},{"name":"salt","type":"uint256","indexed":false,"internalType":"uint256"}],"anonymous":false},{"type":"error","name":"InitializationFailed","inputs":[]}],"bytecode":{"object":"0x6080806040523460155761011c908161001a8239f35b5f80fdfe60808060405260043610156011575f80fd5b5f3560e01c9081635e9bc53614606e5750638a54c52f14602f575f80fd5b34606a5760a0366003190112606a57604460a7565b50604b60d1565b506020604051739965507d1a55bcc2695c58ba16fb37d819b0a4dc8152f35b5f80fd5b34606a5760a0366003190112606a57602090608660a7565b50608d60bc565b50739965507d1a55bcc2695c58ba16fb37d819b0a4dc8152f35b600435906001600160a01b0382168203606a57565b604435906001600160a01b0382168203606a57565b606435906001600160a01b0382168203606a5756fea26469706673582212209c37f96364ceeab5ca92b60c7babd2fac1438f577c52d90d15d9087f0c75bf6c64736f6c634300081a0033","linkReferences":{}},"methodIdentifiers":{"account(address,uint256,address,uint256,uint256)":"5e9bc536","createAccount(address,bytes32,uint256,address,uint256)":"8a54c52f"},"id":14}