{"abi":[{"type":"constructor","inputs":[{"name":"agentNft_","type":"address","internalType":"address"}],"stateMutability":"nonpayable"},{"type":"function","name":"daoImplementation","inputs":[],"outputs":[{"name":"","type":"address","internalType":"address"}],"stateMutability":"view"},{"type":"function","name":"initialAmount","inputs":[],"outputs":[{"name":"","type":"uint256","internalType":"uint256"}],"stateMutability":"view"},{"type":"function","name":"maturityDuration","inputs":[],"outputs":[{"name":"","type":"uint256","internalType":"uint256"}],"stateMutability":"view"},{"type":"function","name":"migrateAgent","inputs":[{"name":"id","type":"uint256","internalType":"uint256"},{"name":"name","type":"string","internalType":"string"},{"name":"symbol","type":"string","internalType":"string"},{"name":"canStake","type":"bool","internalType":"bool"}],"outputs":[],"stateMutability":"nonpayable"},{"type":"function","name":"migratedAgents","inputs":[{"name":"","type":"uint256","internalType":"uint256"}],"outputs":[{"name":"","type":"bool","internalType":"bool"}],"stateMutability":"view"},{"type":"function","name":"owner","inputs":[],"outputs":[{"name":"","type":"address","internalType":"address"}],"stateMutability":"view"},{"type":"function","name":"pause","inputs":[],"outputs":[],"stateMutability":"nonpayable"},{"type":"function","name":"paused","inputs":[],"outputs":[{"name":"","type":"bool","internalType":"bool"}],"stateMutability":"view"},{"type":"function","name":"renounceOwnership","inputs":[],"outputs":[],"stateMutability":"nonpayable"},{"type":"function","name":"reset","inputs":[{"name":"id","type":"uint256","internalType":"uint256"}],"outputs":[],"stateMutability":"nonpayable"},{"type":"function","name":"setImplementations","inputs":[{"name":"token","type":"address","internalType":"address"},{"name":"veToken","type":"address","internalType":"address"},{"name":"dao","type":"address","internalType":"address"}],"outputs":[],"stateMutability":"nonpayable"},{"type":"function","name":"setInitParams","inputs":[{"name":"tokenAdmin_","type":"address","internalType":"address"},{"name":"assetToken_","type":"address","internalType":"address"},{"name":"uniswapRouter_","type":"address","internalType":"address"},{"name":"initialAmount_","type":"uint256","internalType":"uint256"},{"name":"maturityDuration_","type":"uint256","internalType":"uint256"}],"outputs":[],"stateMutability":"nonpayable"},{"type":"function","name":"setTokenSupplyParams","inputs":[{"name":"maxSupply","type":"uint256","internalType":"uint256"},{"name":"lpSupply","type":"uint256","internalType":"uint256"},{"name":"vaultSupply","type":"uint256","internalType":"uint256"},{"name":"maxTokensPerWallet","type":"uint256","internalType":"uint256"},{"name":"maxTokensPerTxn","type":"uint256","internalType":"uint256"},{"name":"botProtectionDurationInSeconds","type":"uint256","internalType":"uint256"},{"name":"vault","type":"address","internalType":"address"}],"outputs":[],"stateMutability":"nonpayable"},{"type":"function","name":"setTokenTaxParams","inputs":[{"name":"projectBuyTaxBasisPoints","type":"uint256","internalType":"uint256"},{"name":"projectSellTaxBasisPoints","type":"uint256","internalType":"uint256"},{"name":"taxSwapThresholdBasisPoints","type":"uint256","internalType":"uint256"},{"name":"projectTaxRecipient","type":"address","internalType":"address"}],"outputs":[],"stateMutability":"nonpayable"},{"type":"function","name":"tokenImplementation","inputs":[],"outputs":[{"name":"","type":"address","internalType":"address"}],"stateMutability":"view"},{"type":"function","name":"transferOwnership","inputs":[{"name":"newOwner","type":"address","internalType":"address"}],"outputs":[],"stateMutability":"nonpayable"},{"type":"function","name":"unpause","inputs":[],"outputs":[],"stateMutability":"nonpayable"},{"type":"function","name":"veTokenImplementation","inputs":[],"outputs":[{"name":"","type":"address","internalType":"address"}],"stateMutability":"view"},{"type":"event","name":"AgentMigrated","inputs":[{"name":"virtualId","type":"uint256","indexed":false,"internalType":"uint256"},{"name":"dao","type":"address","indexed":false,"internalType":"address"},{"name":"token","type":"address","indexed":false,"internalType":"address"},{"name":"lp","type":"address","indexed":false,"internalType":"address"},{"name":"veToken","type":"address","indexed":false,"internalType":"address"}],"anonymous":false},{"type":"event","name":"OwnershipTransferred","inputs":[{"name":"previousOwner","type":"address","indexed":true,"internalType":"address"},{"name":"newOwner","type":"address","indexed":true,"internalType":"address"}],"anonymous":false},{"type":"event","name":"Paused","inputs":[{"name":"account","type":"address","indexed":false,"internalType":"address"}],"anonymous":false},{"type":"event","name":"Unpaused","inputs":[{"name":"account","type":"address","indexed":false,"internalType":"address"}],"anonymous":false},{"type":"error","name":"ERC1167FailedCreateClone","inputs":[]},{"type":"error","name":"EnforcedPause","inputs":[]},{"type":"error","name":"ExpectedPause","inputs":[]},{"type":"error","name":"OwnableInvalidOwner","inputs":[{"name":"owner","type":"address","internalType":"address"}]},{"type":"error","name":"OwnableUnauthorizedAccount","inputs":[{"name":"account","type":"address","internalType":"address"}]}],"bytecode":{"object":"0x60803460d357601f6118d238819003918201601f19168301916001600160401b0383118484101760d75780849260209460405283398101031260d357516001600160a01b0381169081900360d357331560c0575f8054604051929133906001600160a01b038316907f8be0079c531659141344cd1fd0a4f28419497f9722a3daafe3b4186f6b6457e09080a36001600160a81b0319163360ff60a01b1916175f55600180546001600160a01b0319169190911790556117e690816100ec8239f35b631e4fbdf760e01b5f525f60045260245ffd5b5f80fd5b634e487b7160e01b5f52604160045260245ffdfe6080806040526004361015610012575f80fd5b5f905f3560e01c908163063513b71461152c575080632a7d4a1f1461133d5780632f3a3d5d14611315578063310bd74b146112e25780633f4ba83a146112765780635c975abb146112525780635ca3cedf14611059578063715018a6146110025780638456cb5914610fa25780638da5cb5b14610f7b5780639300d23814610f085780639cbe0bac14610ee05780639d69932614610eb8578063b2c0212d14610239578063bd5f20db1461020a578063f2fde38b14610184578063f984cf12146101045763fc1ed437146100e4575f80fd5b346101015780600319360112610101576020600754604051908152f35b80fd5b50346101015760a03660031901126101015761011e611546565b61012661155c565b61012e611572565b916101376116a6565b600480546001600160a01b03199081166001600160a01b039384161790915560058054821693831693909317909255600680549092169216919091179055606435600755608435600b5580f35b50346101015760203660031901126101015761019e611546565b6101a66116a6565b6001600160a01b031680156101f65781546001600160a01b03198116821783556001600160a01b03167f8be0079c531659141344cd1fd0a4f28419497f9722a3daafe3b4186f6b6457e08380a380f35b631e4fbdf760e01b82526004829052602482fd5b50346101015760203660031901126101015760ff60406020926004358152600c84522054166040519015158152f35b5034610946576080366003190112610946576004356024356001600160401b0381116109465761026d9036906004016115c4565b906044356001600160401b0381116109465761028d9036906004016115c4565b9060643580151580910361094657600d5460ff8116610e825760ff1916600117600d556102b86116cc565b815f52600c60205260ff60405f205416610e4457600154604051635652386760e11b815260048101849052905f90829060249082906001600160a01b03165afa908115610be3575f91610d29575b5060408101516001600160a01b031693338503610cf657600854610332906001600160a01b031661170d565b6040516001600160a01b0382169791939190606081016001600160401b03811182821017610ce25760409081526004546001600160a01b0390811683526006548116602080850191909152600554909116838301528151908101919091526103c4816103b66103a460608301876116e9565b828103601f19016040840152886116e9565b03601f198101835282611588565b893b1561094657604051634258efa960e11b8152915f600484015b60038210610cc2575050506103ff9060c0606484015260c48301906116e9565b8181036003190160848301526002545f916104198261162b565b8082529160018116908115610ca35750600114610c5c575b50506003198282030160a4830152815f916003549061044f8261162b565b8082529160018116908115610c3c5750600114610bee575b5050805f920381838d5af18015610be357610bce575b5060405163d6efd7c360e01b815289816004818c5afa908115610bc3578a91610b1f575b50805115610b0b579089939291602060018060a01b03910151169860018060a01b0360055416602060075460648c8960405195869485936323b872dd60e01b8552600485015288602485015260448401525af18015610b0057610ae3575b50803b15610ab157848091602460405180948193631672aef960e21b83523060048401525af19081156109f3578591610ace575b50506105a860216020946105796027879560405198899166029ba30b5b2b2160cd1b828401528051918291018484015e81018a838201520301601f198101885287611588565b604051938491607360f81b828401528051918291018484015e810187838201520301601f198101835282611588565b600a546105bd906001600160a01b031661170d565b9560018060a01b038716936105d4600b544261160a565b6001546001600160a01b03169190863b15610aca578793610618938d928f61062a604051998a98899863b2193b4d60e01b8a5260e060048b015260e48a01906116e9565b8881036003190160248a0152906116e9565b9460448701526064860152608485015260a484015260c4830152038183875af1908115610952578491610ab5575b5050516040516306fdde0360e01b81526001600160a01b03909116969083816004818b5afa908115610952578491610a38575b506040516302a251a360e01b815297602089600481845afa9889156109f35785996109fe575b5090602060049260405193848092630b58131b60e41b82525afa9182156109f35785926109bc575b506009546001600160a01b03906106f190821661170d565b169860018060a01b0360015416918a3b156109b857869263ffffffff610734936040519687958695631c63df3560e21b875260a0600488015260a48701906116e9565b938a6024870152604486015260648501521660848301520381838c5af19081156109525784916109a3575b50506001546001600160a01b0316803b15610913576040516374aa04c560e01b8152600481018890526001600160a01b03898116602483015286811660448301528a8116606483015287166084820152908490829060a490829084905af190811561095257849161098a575b505060405163095ea7b360e01b8152600481018390525f196024820152602081604481878d5af180156109525761095d575b506040516370a0823160e01b8152306004820152906020826024818c5afa918215610952578492610917575b50823b15610913576064849283604051958694859363a7d545db60e01b8552600485015280602485015260448401525af18015610908576108eb575b50946108db9291847fe67c497f66d4b22604304fed8e8782e0ebe7e5b42e35e6eff9d8d3a54732afaf9752600c60205260408820600160ff19825416179055604051958695869081526001600160a01b039182166020820152918116604083015291821660608201529116608082015260a00190565b0390a160ff19600d5416600d5580f35b816108f891949394611588565b6109045790855f610865565b8580fd5b6040513d84823e3d90fd5b8380fd5b935090506020833d60201161094a575b8161093460209383611588565b8101031261094657889251905f610829565b5f80fd5b3d9150610927565b6040513d86823e3d90fd5b61097e9060203d602011610983575b6109768183611588565b81019061168e565b6107fd565b503d61096c565b8161099491611588565b61099f57825f6107cb565b8280fd5b816109ad91611588565b61099f57825f61075f565b8680fd5b945090506020843d6020116109eb575b816109d960209383611588565b8101031261094657899351905f6106d9565b3d91506109cc565b6040513d87823e3d90fd5b91945097506020813d602011610a30575b81610a1c60209383611588565b8101031261094657519689939060206106b1565b3d9150610a0f565b90503d8085833e610a498183611588565b810190602081830312610ab1578051906001600160401b038211610904570181601f82011215610ab157805190610a7f826115a9565b92610a8d6040519485611588565b828452602083830101116109045781869260208093018386015e830101525f61068b565b8480fd5b81610abf91611588565b61099f57825f610658565b8780fd5b81610ad891611588565b61091357835f610533565b610afb9060203d602011610983576109768183611588565b6104ff565b6040513d88823e3d90fd5b634e487b7160e01b8a52603260045260248afd5b90503d808b833e610b308183611588565b810190602081830312610bbb578051906001600160401b038211610bbf57019080601f83011215610bbb578151610b6681611677565b92610b746040519485611588565b81845260208085019260051b820101928311610bb757602001905b828210610b9f575050505f6104a1565b60208091610bac84611663565b815201910190610b8f565b8c80fd5b8a80fd5b8b80fd5b6040513d8c823e3d90fd5b610bdb9199505f90611588565b5f975f61047d565b6040513d5f823e3d90fd5b60035f908152909350905f805160206117918339815191525b818310610c1e575050602082915f94010192610467565b60209194935080600191548385870101520191019092849293610c07565b5f9550602092915092849360ff191683830152151560051b010192610467565b60025f9081529192505f805160206117718339815191525b838310610c8957506020925001015f80610431565b600181602092949394548385870101520191019190610c74565b90506020935060ff929192191683830152151560051b01015f80610431565b82516001600160a01b0316815260209283019260019290920191016103df565b634e487b7160e01b5f52604160045260245ffd5b60405162461bcd60e51b815260206004820152600b60248201526a2737ba103337bab73232b960a91b6044820152606490fd5b90503d805f833e610d3a8183611588565b810190602081830312610946578051906001600160401b03821161094657019060a082820312610946576040519160a083018381106001600160401b03821117610ce257604052610d8a81611663565b8352610d9860208201611663565b6020840152610da960408201611663565b6040840152610dba60608201611663565b60608401526080810151906001600160401b03821161094657019080601f8301121561094657815190610dec82611677565b92610dfa6040519485611588565b82845260208085019360051b82010191821161094657602001915b818310610e2a5750505060808201525f610306565b825160ff8116810361094657815260209283019201610e15565b60405162461bcd60e51b81526020600482015260166024820152751059d95b9d08185b1c9958591e481b5a59dc985d195960521b6044820152606490fd5b60405162461bcd60e51b815260206004820152600e60248201526d31b0b73737ba103932b2b73a32b960911b6044820152606490fd5b34610946575f366003190112610946576009546040516001600160a01b039091168152602090f35b34610946575f36600319011261094657600a546040516001600160a01b039091168152602090f35b3461094657606036600319011261094657610f21611546565b610f2961155c565b90610f32611572565b90610f3b6116a6565b600880546001600160a01b03199081166001600160a01b039384161790915560098054821693831693909317909255600a80549092169216919091179055005b34610946575f366003190112610946575f546040516001600160a01b039091168152602090f35b34610946575f36600319011261094657610fba6116a6565b610fc26116cc565b5f805460ff60a01b1916600160a01b1790556040513381527f62e78cea01bee320cd4e420270b5ea74000d11b0c9f74754ebdbfc544b05a25890602090a1005b34610946575f3660031901126109465761101a6116a6565b5f80546001600160a01b0319811682556001600160a01b03167f8be0079c531659141344cd1fd0a4f28419497f9722a3daafe3b4186f6b6457e08280a3005b34610946576080366003190112610946576004356064356001600160a01b038116906044359060243590839003610946576110926116a6565b61271084111580611246575b8061123a575b1561120057604051936020850152604084015260608301526080820152608081526110d060a082611588565b80516001600160401b038111610ce2576110eb60035461162b565b601f8111611198575b50602091601f8211600114611130579181925f92611125575b50508160011b915f199060031b1c1916176003555f80f35b01519050828061110d565b601f1982169260035f525f80516020611791833981519152915f5b85811061118057508360019510611168575b505050811b01600355005b01515f1960f88460031b161c1916905582808061115d565b9192602060018192868501518155019401920161114b565b60035f52601f820160051c5f805160206117918339815191520190602083106111eb575b601f0160051c5f8051602061179183398151915201905b8181106111e057506110f4565b5f81556001016111d3565b5f8051602061179183398151915291506111bc565b60405162461bcd60e51b8152602060048201526012602482015271496e76616c69642074617820706172616d7360701b6044820152606490fd5b506127108211156110a4565b5061271081111561109e565b34610946575f36600319011261094657602060ff5f5460a01c166040519015158152f35b34610946575f3660031901126109465761128e6116a6565b5f5460ff8160a01c16156112d35760ff60a01b19165f556040513381527f5db9ee0a495bf2e6ff9c91a7834c1ba4fdd244a5e8aa4e537bd38aeae4b073aa90602090a1005b638dfc202b60e01b5f5260045ffd5b34610946576020366003190112610946576112fb6116a6565b6004355f908152600c60205260409020805460ff19169055005b34610946575f366003190112610946576008546040516001600160a01b039091168152602090f35b346109465760e03660031901126109465760043560c4356001600160a01b038116906044359060243590839003610946576113766116a6565b83611381838361160a565b116114f65760405193602085015260408401526060830152606435608083015260843560a083015260a43560c083015260e082015260e081526113c661010082611588565b80516001600160401b038111610ce2576113e160025461162b565b601f811161148e575b50602091601f8211600114611426579181925f9261141b575b50505f19600383901b1c191660019190911b17600255005b015190508280611403565b601f1982169260025f525f80516020611771833981519152915f5b8581106114765750836001951061145e575b505050811b01600255005b01515f1960f88460031b161c19169055828080611453565b91926020600181928685015181550194019201611441565b60025f52601f820160051c5f805160206117718339815191520190602083106114e1575b601f0160051c5f8051602061177183398151915201905b8181106114d657506113ea565b5f81556001016114c9565b5f8051602061177183398151915291506114b2565b60405162461bcd60e51b815260206004820152600e60248201526d496e76616c696420737570706c7960901b6044820152606490fd5b34610946575f36600319011261094657602090600b548152f35b600435906001600160a01b038216820361094657565b602435906001600160a01b038216820361094657565b604435906001600160a01b038216820361094657565b90601f801991011681019081106001600160401b03821117610ce257604052565b6001600160401b038111610ce257601f01601f191660200190565b81601f82011215610946578035906115db826115a9565b926115e96040519485611588565b8284526020838301011161094657815f926020809301838601378301015290565b9190820180921161161757565b634e487b7160e01b5f52601160045260245ffd5b90600182811c92168015611659575b602083101461164557565b634e487b7160e01b5f52602260045260245ffd5b91607f169161163a565b51906001600160a01b038216820361094657565b6001600160401b038111610ce25760051b60200190565b90816020910312610946575180151581036109465790565b5f546001600160a01b031633036116b957565b63118cdaa760e01b5f523360045260245ffd5b60ff5f5460a01c166116da57565b63d93c066560e01b5f5260045ffd5b805180835260209291819084018484015e5f828201840152601f01601f1916010190565b6e5af43d82803e903d91602b57fd5bf390763d602d80600a3d3981f3363d3d373d3d3d363d7300000062ffffff8260881c16175f5260781b17602052603760095ff0906001600160a01b0382161561176157565b6330be1a3d60e21b5f5260045ffdfe405787fa12a823e0f2b7631cc41b3ba8828b3321ca811111fa75cd3aa3bb5acec2575a0e9e593c00f959f8c92f12db2869c3395a3b0502d05e2516446f71f85ba264697066735822122014798a666841f72d58479c5436a68dba9513f412c63bfa47e2c55fd9866bd68e64736f6c634300081a0033","linkReferences":{}},"methodIdentifiers":{"daoImplementation()":"9d699326","initialAmount()":"fc1ed437","maturityDuration()":"063513b7","migrateAgent(uint256,string,string,bool)":"b2c0212d","migratedAgents(uint256)":"bd5f20db","owner()":"8da5cb5b","pause()":"8456cb59","paused()":"5c975abb","renounceOwnership()":"715018a6","reset(uint256)":"310bd74b","setImplementations(address,address,address)":"9300d238","setInitParams(address,address,address,uint256,uint256)":"f984cf12","setTokenSupplyParams(uint256,uint256,uint256,uint256,uint256,uint256,address)":"2a7d4a1f","setTokenTaxParams(uint256,uint256,uint256,address)":"5ca3cedf","tokenImplementation()":"2f3a3d5d","transferOwnership(address)":"f2fde38b","unpause()":"3f4ba83a","veTokenImplementation()":"9cbe0bac"},"id":97}