{"abi":[{"type":"constructor","inputs":[],"stateMutability":"nonpayable"},{"type":"receive","stateMutability":"payable"},{"type":"function","name":"acceptOwnership","inputs":[],"outputs":[],"stateMutability":"nonpayable"},{"type":"function","name":"addInitialLiquidity","inputs":[{"name":"lpOwner","type":"address","internalType":"address"}],"outputs":[],"stateMutability":"nonpayable"},{"type":"function","name":"addLiquidityPool","inputs":[{"name":"newLiquidityPool_","type":"address","internalType":"address"}],"outputs":[],"stateMutability":"nonpayable"},{"type":"function","name":"addValidCaller","inputs":[{"name":"newValidCallerHash_","type":"bytes32","internalType":"bytes32"}],"outputs":[],"stateMutability":"nonpayable"},{"type":"function","name":"allowance","inputs":[{"name":"owner","type":"address","internalType":"address"},{"name":"spender","type":"address","internalType":"address"}],"outputs":[{"name":"","type":"uint256","internalType":"uint256"}],"stateMutability":"view"},{"type":"function","name":"approve","inputs":[{"name":"spender","type":"address","internalType":"address"},{"name":"amount","type":"uint256","internalType":"uint256"}],"outputs":[{"name":"","type":"bool","internalType":"bool"}],"stateMutability":"nonpayable"},{"type":"function","name":"balanceOf","inputs":[{"name":"account","type":"address","internalType":"address"}],"outputs":[{"name":"","type":"uint256","internalType":"uint256"}],"stateMutability":"view"},{"type":"function","name":"botProtectionDurationInSeconds","inputs":[],"outputs":[{"name":"","type":"uint256","internalType":"uint256"}],"stateMutability":"view"},{"type":"function","name":"burn","inputs":[{"name":"value","type":"uint256","internalType":"uint256"}],"outputs":[],"stateMutability":"nonpayable"},{"type":"function","name":"burnFrom","inputs":[{"name":"account","type":"address","internalType":"address"},{"name":"value","type":"uint256","internalType":"uint256"}],"outputs":[],"stateMutability":"nonpayable"},{"type":"function","name":"decimals","inputs":[],"outputs":[{"name":"","type":"uint8","internalType":"uint8"}],"stateMutability":"view"},{"type":"function","name":"decreaseAllowance","inputs":[{"name":"spender","type":"address","internalType":"address"},{"name":"subtractedValue","type":"uint256","internalType":"uint256"}],"outputs":[{"name":"","type":"bool","internalType":"bool"}],"stateMutability":"nonpayable"},{"type":"function","name":"distributeTaxTokens","inputs":[],"outputs":[],"stateMutability":"nonpayable"},{"type":"function","name":"fundedDate","inputs":[],"outputs":[{"name":"","type":"uint32","internalType":"uint32"}],"stateMutability":"view"},{"type":"function","name":"increaseAllowance","inputs":[{"name":"spender","type":"address","internalType":"address"},{"name":"addedValue","type":"uint256","internalType":"uint256"}],"outputs":[{"name":"","type":"bool","internalType":"bool"}],"stateMutability":"nonpayable"},{"type":"function","name":"initialize","inputs":[{"name":"integrationAddresses_","type":"address[3]","internalType":"address[3]"},{"name":"baseParams_","type":"bytes","internalType":"bytes"},{"name":"supplyParams_","type":"bytes","internalType":"bytes"},{"name":"taxParams_","type":"bytes","internalType":"bytes"}],"outputs":[],"stateMutability":"nonpayable"},{"type":"function","name":"isLiquidityPool","inputs":[{"name":"queryAddress_","type":"address","internalType":"address"}],"outputs":[{"name":"","type":"bool","internalType":"bool"}],"stateMutability":"view"},{"type":"function","name":"isValidCaller","inputs":[{"name":"queryHash_","type":"bytes32","internalType":"bytes32"}],"outputs":[{"name":"","type":"bool","internalType":"bool"}],"stateMutability":"view"},{"type":"function","name":"liquidityPools","inputs":[],"outputs":[{"name":"liquidityPools_","type":"address[]","internalType":"address[]"}],"stateMutability":"view"},{"type":"function","name":"name","inputs":[],"outputs":[{"name":"","type":"string","internalType":"string"}],"stateMutability":"view"},{"type":"function","name":"owner","inputs":[],"outputs":[{"name":"","type":"address","internalType":"address"}],"stateMutability":"view"},{"type":"function","name":"pairToken","inputs":[],"outputs":[{"name":"","type":"address","internalType":"address"}],"stateMutability":"view"},{"type":"function","name":"pendingOwner","inputs":[],"outputs":[{"name":"","type":"address","internalType":"address"}],"stateMutability":"view"},{"type":"function","name":"projectBuyTaxBasisPoints","inputs":[],"outputs":[{"name":"","type":"uint16","internalType":"uint16"}],"stateMutability":"view"},{"type":"function","name":"projectSellTaxBasisPoints","inputs":[],"outputs":[{"name":"","type":"uint16","internalType":"uint16"}],"stateMutability":"view"},{"type":"function","name":"projectTaxPendingSwap","inputs":[],"outputs":[{"name":"","type":"uint128","internalType":"uint128"}],"stateMutability":"view"},{"type":"function","name":"projectTaxRecipient","inputs":[],"outputs":[{"name":"","type":"address","internalType":"address"}],"stateMutability":"view"},{"type":"function","name":"removeLiquidityPool","inputs":[{"name":"removedLiquidityPool_","type":"address","internalType":"address"}],"outputs":[],"stateMutability":"nonpayable"},{"type":"function","name":"removeValidCaller","inputs":[{"name":"removedValidCallerHash_","type":"bytes32","internalType":"bytes32"}],"outputs":[],"stateMutability":"nonpayable"},{"type":"function","name":"renounceOwnership","inputs":[],"outputs":[],"stateMutability":"nonpayable"},{"type":"function","name":"setProjectTaxRates","inputs":[{"name":"newProjectBuyTaxBasisPoints_","type":"uint16","internalType":"uint16"},{"name":"newProjectSellTaxBasisPoints_","type":"uint16","internalType":"uint16"}],"outputs":[],"stateMutability":"nonpayable"},{"type":"function","name":"setProjectTaxRecipient","inputs":[{"name":"projectTaxRecipient_","type":"address","internalType":"address"}],"outputs":[],"stateMutability":"nonpayable"},{"type":"function","name":"setSwapThresholdBasisPoints","inputs":[{"name":"swapThresholdBasisPoints_","type":"uint16","internalType":"uint16"}],"outputs":[],"stateMutability":"nonpayable"},{"type":"function","name":"swapThresholdBasisPoints","inputs":[],"outputs":[{"name":"","type":"uint16","internalType":"uint16"}],"stateMutability":"view"},{"type":"function","name":"symbol","inputs":[],"outputs":[{"name":"","type":"string","internalType":"string"}],"stateMutability":"view"},{"type":"function","name":"totalBuyTaxBasisPoints","inputs":[],"outputs":[{"name":"","type":"uint256","internalType":"uint256"}],"stateMutability":"view"},{"type":"function","name":"totalSellTaxBasisPoints","inputs":[],"outputs":[{"name":"","type":"uint256","internalType":"uint256"}],"stateMutability":"view"},{"type":"function","name":"totalSupply","inputs":[],"outputs":[{"name":"","type":"uint256","internalType":"uint256"}],"stateMutability":"view"},{"type":"function","name":"transfer","inputs":[{"name":"to","type":"address","internalType":"address"},{"name":"amount","type":"uint256","internalType":"uint256"}],"outputs":[{"name":"","type":"bool","internalType":"bool"}],"stateMutability":"nonpayable"},{"type":"function","name":"transferFrom","inputs":[{"name":"from","type":"address","internalType":"address"},{"name":"to","type":"address","internalType":"address"},{"name":"amount","type":"uint256","internalType":"uint256"}],"outputs":[{"name":"","type":"bool","internalType":"bool"}],"stateMutability":"nonpayable"},{"type":"function","name":"transferOwnership","inputs":[{"name":"newOwner","type":"address","internalType":"address"}],"outputs":[],"stateMutability":"nonpayable"},{"type":"function","name":"uniswapV2Pair","inputs":[],"outputs":[{"name":"","type":"address","internalType":"address"}],"stateMutability":"view"},{"type":"function","name":"validCallers","inputs":[],"outputs":[{"name":"validCallerHashes_","type":"bytes32[]","internalType":"bytes32[]"}],"stateMutability":"view"},{"type":"function","name":"vault","inputs":[],"outputs":[{"name":"","type":"address","internalType":"address"}],"stateMutability":"view"},{"type":"function","name":"withdrawERC20","inputs":[{"name":"token_","type":"address","internalType":"address"},{"name":"amount_","type":"uint256","internalType":"uint256"}],"outputs":[],"stateMutability":"nonpayable"},{"type":"function","name":"withdrawETH","inputs":[{"name":"amount_","type":"uint256","internalType":"uint256"}],"outputs":[],"stateMutability":"nonpayable"},{"type":"event","name":"Approval","inputs":[{"name":"owner","type":"address","indexed":true,"internalType":"address"},{"name":"spender","type":"address","indexed":true,"internalType":"address"},{"name":"value","type":"uint256","indexed":false,"internalType":"uint256"}],"anonymous":false},{"type":"event","name":"AutoSwapThresholdUpdated","inputs":[{"name":"oldThreshold","type":"uint256","indexed":false,"internalType":"uint256"},{"name":"newThreshold","type":"uint256","indexed":false,"internalType":"uint256"}],"anonymous":false},{"type":"event","name":"ExternalCallError","inputs":[{"name":"identifier","type":"uint256","indexed":false,"internalType":"uint256"}],"anonymous":false},{"type":"event","name":"InitialLiquidityAdded","inputs":[{"name":"tokenA","type":"uint256","indexed":false,"internalType":"uint256"},{"name":"tokenB","type":"uint256","indexed":false,"internalType":"uint256"},{"name":"lpToken","type":"uint256","indexed":false,"internalType":"uint256"}],"anonymous":false},{"type":"event","name":"Initialized","inputs":[{"name":"version","type":"uint64","indexed":false,"internalType":"uint64"}],"anonymous":false},{"type":"event","name":"LimitsUpdated","inputs":[{"name":"oldMaxTokensPerTransaction","type":"uint256","indexed":false,"internalType":"uint256"},{"name":"newMaxTokensPerTransaction","type":"uint256","indexed":false,"internalType":"uint256"},{"name":"oldMaxTokensPerWallet","type":"uint256","indexed":false,"internalType":"uint256"},{"name":"newMaxTokensPerWallet","type":"uint256","indexed":false,"internalType":"uint256"}],"anonymous":false},{"type":"event","name":"LiquidityPoolAdded","inputs":[{"name":"addedPool","type":"address","indexed":false,"internalType":"address"}],"anonymous":false},{"type":"event","name":"LiquidityPoolCreated","inputs":[{"name":"addedPool","type":"address","indexed":false,"internalType":"address"}],"anonymous":false},{"type":"event","name":"LiquidityPoolRemoved","inputs":[{"name":"removedPool","type":"address","indexed":false,"internalType":"address"}],"anonymous":false},{"type":"event","name":"OwnershipTransferStarted","inputs":[{"name":"previousOwner","type":"address","indexed":true,"internalType":"address"},{"name":"newOwner","type":"address","indexed":true,"internalType":"address"}],"anonymous":false},{"type":"event","name":"OwnershipTransferred","inputs":[{"name":"previousOwner","type":"address","indexed":true,"internalType":"address"},{"name":"newOwner","type":"address","indexed":true,"internalType":"address"}],"anonymous":false},{"type":"event","name":"ProjectTaxBasisPointsChanged","inputs":[{"name":"oldBuyBasisPoints","type":"uint256","indexed":false,"internalType":"uint256"},{"name":"newBuyBasisPoints","type":"uint256","indexed":false,"internalType":"uint256"},{"name":"oldSellBasisPoints","type":"uint256","indexed":false,"internalType":"uint256"},{"name":"newSellBasisPoints","type":"uint256","indexed":false,"internalType":"uint256"}],"anonymous":false},{"type":"event","name":"ProjectTaxRecipientUpdated","inputs":[{"name":"treasury","type":"address","indexed":false,"internalType":"address"}],"anonymous":false},{"type":"event","name":"RevenueAutoSwap","inputs":[],"anonymous":false},{"type":"event","name":"Transfer","inputs":[{"name":"from","type":"address","indexed":true,"internalType":"address"},{"name":"to","type":"address","indexed":true,"internalType":"address"},{"name":"value","type":"uint256","indexed":false,"internalType":"uint256"}],"anonymous":false},{"type":"event","name":"ValidCallerAdded","inputs":[{"name":"addedValidCaller","type":"bytes32","indexed":false,"internalType":"bytes32"}],"anonymous":false},{"type":"event","name":"ValidCallerRemoved","inputs":[{"name":"removedValidCaller","type":"bytes32","indexed":false,"internalType":"bytes32"}],"anonymous":false},{"type":"error","name":"AdapterParamsMustBeEmpty","inputs":[]},{"type":"error","name":"AdditionToPoolIsBelowPerTransactionMinimum","inputs":[]},{"type":"error","name":"AdditionToPoolWouldExceedPerAddressCap","inputs":[]},{"type":"error","name":"AdditionToPoolWouldExceedPoolCap","inputs":[]},{"type":"error","name":"AddressAlreadySet","inputs":[]},{"type":"error","name":"AddressEmptyCode","inputs":[{"name":"target","type":"address","internalType":"address"}]},{"type":"error","name":"AddressInsufficientBalance","inputs":[{"name":"account","type":"address","internalType":"address"}]},{"type":"error","name":"AllowanceDecreasedBelowZero","inputs":[]},{"type":"error","name":"AlreadyInitialised","inputs":[]},{"type":"error","name":"ApprovalCallerNotOwnerNorApproved","inputs":[]},{"type":"error","name":"ApprovalQueryForNonexistentToken","inputs":[]},{"type":"error","name":"ApproveFromTheZeroAddress","inputs":[]},{"type":"error","name":"ApproveToTheZeroAddress","inputs":[]},{"type":"error","name":"AuctionStatusIsNotEnded","inputs":[]},{"type":"error","name":"AuctionStatusIsNotOpen","inputs":[]},{"type":"error","name":"AuxCallFailed","inputs":[{"name":"modules","type":"address[]","internalType":"address[]"},{"name":"value","type":"uint256","internalType":"uint256"},{"name":"data","type":"bytes","internalType":"bytes"},{"name":"txGas","type":"uint256","internalType":"uint256"}]},{"type":"error","name":"BalanceMismatch","inputs":[]},{"type":"error","name":"BalanceQueryForZeroAddress","inputs":[]},{"type":"error","name":"BidMustBeBelowTheFloorForRefundDuringAuction","inputs":[]},{"type":"error","name":"BidMustBeBelowTheFloorWhenReducingQuantity","inputs":[]},{"type":"error","name":"BondingCurveError","inputs":[{"name":"error","type":"uint8","internalType":"enum IErrors.BondingCurveErrorType"}]},{"type":"error","name":"BurnExceedsBalance","inputs":[]},{"type":"error","name":"BurnFromTheZeroAddress","inputs":[]},{"type":"error","name":"CallerIsNotAdminNorFactory","inputs":[]},{"type":"error","name":"CallerIsNotDepositBoxOwner","inputs":[]},{"type":"error","name":"CallerIsNotFactory","inputs":[]},{"type":"error","name":"CallerIsNotFactoryOrProjectOwner","inputs":[]},{"type":"error","name":"CallerIsNotFactoryProjectOwnerOrPool","inputs":[]},{"type":"error","name":"CallerIsNotPlatformAdmin","inputs":[{"name":"caller","type":"address","internalType":"address"}]},{"type":"error","name":"CallerIsNotSuperAdmin","inputs":[{"name":"caller","type":"address","internalType":"address"}]},{"type":"error","name":"CallerIsNotTheManager","inputs":[]},{"type":"error","name":"CallerIsNotTheOwner","inputs":[]},{"type":"error","name":"CallerMustBeLzApp","inputs":[]},{"type":"error","name":"CanOnlyReduce","inputs":[]},{"type":"error","name":"CannotAddLiquidityOnCreateAndUseDRIPool","inputs":[]},{"type":"error","name":"CannotSetNewManagerToTheZeroAddress","inputs":[]},{"type":"error","name":"CannotSetNewOwnerToTheZeroAddress","inputs":[]},{"type":"error","name":"CannotSetToZeroAddress","inputs":[]},{"type":"error","name":"CannotWithdrawThisToken","inputs":[]},{"type":"error","name":"CollectionAlreadyRevealed","inputs":[]},{"type":"error","name":"ContractIsDecommissioned","inputs":[]},{"type":"error","name":"ContractIsNotPaused","inputs":[]},{"type":"error","name":"ContractIsPaused","inputs":[]},{"type":"error","name":"DecreasedAllowanceBelowZero","inputs":[]},{"type":"error","name":"DeployerOnly","inputs":[]},{"type":"error","name":"DeploymentError","inputs":[]},{"type":"error","name":"DepositBoxIsNotOpen","inputs":[]},{"type":"error","name":"DestinationIsNotTrustedSource","inputs":[]},{"type":"error","name":"DriPoolAddressCannotBeAddressZero","inputs":[]},{"type":"error","name":"FailedInnerCall","inputs":[]},{"type":"error","name":"GasLimitIsTooLow","inputs":[]},{"type":"error","name":"IncorrectConfirmationValue","inputs":[]},{"type":"error","name":"IncorrectPayment","inputs":[]},{"type":"error","name":"InitialLiquidityAlreadyAdded","inputs":[]},{"type":"error","name":"InitialLiquidityNotYetAdded","inputs":[]},{"type":"error","name":"InsufficientAllowance","inputs":[]},{"type":"error","name":"InvalidAdapterParams","inputs":[]},{"type":"error","name":"InvalidAddress","inputs":[]},{"type":"error","name":"InvalidEndpointCaller","inputs":[]},{"type":"error","name":"InvalidInitialization","inputs":[]},{"type":"error","name":"InvalidMinGas","inputs":[]},{"type":"error","name":"InvalidOracleSignature","inputs":[]},{"type":"error","name":"InvalidPayload","inputs":[]},{"type":"error","name":"InvalidReceiver","inputs":[]},{"type":"error","name":"InvalidSourceSendingContract","inputs":[]},{"type":"error","name":"InvalidTotalShares","inputs":[]},{"type":"error","name":"LPLockUpMustFitUint88","inputs":[]},{"type":"error","name":"LimitsCanOnlyBeRaised","inputs":[]},{"type":"error","name":"LiquidityPoolCannotBeAddressZero","inputs":[]},{"type":"error","name":"LiquidityPoolMustBeAContractAddress","inputs":[]},{"type":"error","name":"ListLengthMismatch","inputs":[]},{"type":"error","name":"MachineAddressCannotBeAddressZero","inputs":[]},{"type":"error","name":"ManagerUnauthorizedAccount","inputs":[]},{"type":"error","name":"MaxBidQuantityIs255","inputs":[]},{"type":"error","name":"MaxPublicMintAllowanceExceeded","inputs":[{"name":"requested","type":"uint256","internalType":"uint256"},{"name":"alreadyMinted","type":"uint256","internalType":"uint256"},{"name":"maxAllowance","type":"uint256","internalType":"uint256"}]},{"type":"error","name":"MaxSupplyTooHigh","inputs":[]},{"type":"error","name":"MaxTokensPerTxnExceeded","inputs":[]},{"type":"error","name":"MaxTokensPerWalletExceeded","inputs":[]},{"type":"error","name":"MetadataIsLocked","inputs":[]},{"type":"error","name":"MinGasLimitNotSet","inputs":[]},{"type":"error","name":"MintERC2309QuantityExceedsLimit","inputs":[]},{"type":"error","name":"MintToZeroAddress","inputs":[]},{"type":"error","name":"MintZeroQuantity","inputs":[]},{"type":"error","name":"MintingIsClosedForever","inputs":[]},{"type":"error","name":"NewBuyTaxBasisPointsExceedsMaximum","inputs":[]},{"type":"error","name":"NewSellTaxBasisPointsExceedsMaximum","inputs":[]},{"type":"error","name":"NoETHForLiquidityPair","inputs":[]},{"type":"error","name":"NoPaymentDue","inputs":[]},{"type":"error","name":"NoRefundForCaller","inputs":[]},{"type":"error","name":"NoStoredMessage","inputs":[]},{"type":"error","name":"NoTokenForLiquidityPair","inputs":[]},{"type":"error","name":"NoTrustedPathRecord","inputs":[]},{"type":"error","name":"NotInitializing","inputs":[]},{"type":"error","name":"NothingToClaim","inputs":[]},{"type":"error","name":"OperationDidNotSucceed","inputs":[]},{"type":"error","name":"OracleSignatureHasExpired","inputs":[]},{"type":"error","name":"OwnableInvalidOwner","inputs":[{"name":"owner","type":"address","internalType":"address"}]},{"type":"error","name":"OwnableUnauthorizedAccount","inputs":[{"name":"account","type":"address","internalType":"address"}]},{"type":"error","name":"OwnerQueryForNonexistentToken","inputs":[]},{"type":"error","name":"OwnershipNotInitializedForExtraData","inputs":[]},{"type":"error","name":"ParamTooLargeEndDate","inputs":[]},{"type":"error","name":"ParamTooLargeMinETH","inputs":[]},{"type":"error","name":"ParamTooLargePerAddressMax","inputs":[]},{"type":"error","name":"ParamTooLargePoolPerTxnMinETH","inputs":[]},{"type":"error","name":"ParamTooLargePoolSupply","inputs":[]},{"type":"error","name":"ParamTooLargeStartDate","inputs":[]},{"type":"error","name":"ParamTooLargeVestingDays","inputs":[]},{"type":"error","name":"ParametersDoNotMatchSignedMessage","inputs":[]},{"type":"error","name":"PassedConfigDoesNotMatchApproved","inputs":[]},{"type":"error","name":"PauseCutOffHasPassed","inputs":[]},{"type":"error","name":"PaymentMustCoverPerMintFee","inputs":[]},{"type":"error","name":"PermitDidNotSucceed","inputs":[]},{"type":"error","name":"PlatformAdminCannotBeAddressZero","inputs":[]},{"type":"error","name":"PlatformTreasuryCannotBeAddressZero","inputs":[]},{"type":"error","name":"PoolIsAboveMinimum","inputs":[]},{"type":"error","name":"PoolIsBelowMinimum","inputs":[]},{"type":"error","name":"PoolPhaseIsClosed","inputs":[]},{"type":"error","name":"PoolPhaseIsNotAfter","inputs":[]},{"type":"error","name":"PoolVestingNotYetComplete","inputs":[]},{"type":"error","name":"ProjectOwnerCannotBeAddressZero","inputs":[]},{"type":"error","name":"ProofInvalid","inputs":[]},{"type":"error","name":"QuantityExceedsMaxPossibleCollectionSupply","inputs":[]},{"type":"error","name":"QuantityExceedsRemainingCollectionSupply","inputs":[]},{"type":"error","name":"QuantityExceedsRemainingPhaseSupply","inputs":[]},{"type":"error","name":"ReferralIdAlreadyUsed","inputs":[]},{"type":"error","name":"RequestingMoreThanAvailableBalance","inputs":[]},{"type":"error","name":"RequestingMoreThanRemainingAllocation","inputs":[{"name":"previouslyMinted","type":"uint256","internalType":"uint256"},{"name":"requested","type":"uint256","internalType":"uint256"},{"name":"remainingAllocation","type":"uint256","internalType":"uint256"}]},{"type":"error","name":"RoyaltyFeeWillExceedSalePrice","inputs":[]},{"type":"error","name":"SafeERC20FailedOperation","inputs":[{"name":"token","type":"address","internalType":"address"}]},{"type":"error","name":"ShareTotalCannotBeZero","inputs":[]},{"type":"error","name":"SliceOutOfBounds","inputs":[]},{"type":"error","name":"SliceOverflow","inputs":[]},{"type":"error","name":"SuperAdminCannotBeAddressZero","inputs":[]},{"type":"error","name":"SupplyTotalMismatch","inputs":[]},{"type":"error","name":"SupportWindowIsNotOpen","inputs":[]},{"type":"error","name":"TaxFreeAddressCannotBeAddressZero","inputs":[]},{"type":"error","name":"TaxPeriodStillInForce","inputs":[]},{"type":"error","name":"TemplateCannotBeAddressZero","inputs":[]},{"type":"error","name":"TemplateNotFound","inputs":[]},{"type":"error","name":"ThisMintIsClosed","inputs":[]},{"type":"error","name":"TotalSharesMustMatchDenominator","inputs":[]},{"type":"error","name":"TransferAmountExceedsBalance","inputs":[]},{"type":"error","name":"TransferCallerNotOwnerNorApproved","inputs":[]},{"type":"error","name":"TransferFailed","inputs":[]},{"type":"error","name":"TransferFromIncorrectOwner","inputs":[]},{"type":"error","name":"TransferFromZeroAddress","inputs":[]},{"type":"error","name":"TransferToBlacklistedAddress","inputs":[]},{"type":"error","name":"TransferToNonERC721ReceiverImplementer","inputs":[]},{"type":"error","name":"TransferToZeroAddress","inputs":[]},{"type":"error","name":"URIQueryForNonexistentToken","inputs":[]},{"type":"error","name":"UnrecognisedVRFMode","inputs":[]},{"type":"error","name":"VRFCoordinatorCannotBeAddressZero","inputs":[]},{"type":"error","name":"ValueExceedsMaximum","inputs":[]}],"bytecode":{"object":"0x6080806040523460d0577ff0c57e16840df040f15088dc2f81fe391c3923bec73e23a9662efc9c229c6a005460ff8160401c1660c1576002600160401b03196001600160401b03821601605c575b60405161312a90816100d58239f35b6001600160401b0319166001600160401b039081177ff0c57e16840df040f15088dc2f81fe391c3923bec73e23a9662efc9c229c6a005581527fc7f505b2f371ae2175ee4913f4499e1f2633a7b5936321eed1cdaeb6115181d290602090a15f80604d565b63f92ee8a960e01b5f5260045ffd5b5f80fdfe608080604052600436101561001c575b50361561001a575f80fd5b005b5f3560e01c908163038272b614611faa5750806306fdde0314611f18578063095ea7b314611ef257806310b828c914611ecc57806318160ddd14611eaf57806323b872dd14611e5c5780632ead095514611e09578063313ce56714611dee578063326b3b8b14611d495780633950935114611cfb5780633de35b7914611cd357806342966c6814611cb657806349bd5a5e14611c8f5780634bed5ad214611c6b57806359cabbe4146117ae57806363a9c1f21461179157806370a0823114611759578063715018a6146116dc57806379ba50971461169057806379cc67901461166057806384b1df5214610cb85780638589287a14610c3e5780638da5cb5b14610c0a578063936b293414610ae557806395d89b4114610a225780639808751d14610983578063a1db97821461087f578063a457c2d714610820578063a45cae0214610355578063a9059cbb146107cd578063ae22107f14610743578063b0d750971461071d578063b2c5c9eb146106f9578063b498d39f14610643578063bfe3098f14610617578063d6efd7c31461058b578063dd62ed3e1461053b578063e30c397814610507578063e37d9e951461048d578063e85455d714610460578063ea8b242414610438578063ee6a934c14610379578063eeae0f9714610355578063f14210a6146102d2578063f2fde38b1461024e5763fbfa77cf14610222575f61000f565b3461024a575f36600319011261024a576006546040516001600160a01b039091168152602090f35b5f80fd5b3461024a57602036600319011261024a57610267611ff5565b61026f612bbe565b5f805160206130d583398151915280546001600160a01b0319166001600160a01b039283169081179091555f80516020613035833981519152549091167f38d16b8cac22d99fc7c124b9cd0de2d3fa1faef420bfe791d8c362d765e227005f80a3005b3461024a57602036600319011261024a575f80516020613035833981519152546001600160a01b031633141580610340575b610331575f808080600435335af161031a61218b565b501561032257005b6312171d8360e31b5f5260045ffd5b63faa39fbf60e01b5f5260045ffd5b506010546001600160a01b0316331415610304565b3461024a575f36600319011261024a57602061ffff60025460c81c16604051908152f35b3461024a57602036600319011261024a57610392611ff5565b5f80516020613035833981519152546001600160a01b031633141580610423575b610331576001600160a01b038116908115610414573b15610405576020816103fb7fb893f883ef734b712208a877459424ee509832c57e0461fb1ac99ed4d42f2d8993612f14565b50604051908152a1005b630f9da0c760e41b5f5260045ffd5b63b47cdee560e01b5f5260045ffd5b506010546001600160a01b03163314156103b3565b3461024a575f36600319011261024a576004546040516001600160a01b039091168152602090f35b3461024a57602036600319011261024a57602061048361047e611ff5565b61215c565b6040519015158152f35b3461024a57602036600319011261024a5760043560018060a01b035f805160206130358339815191525416331415806104f2575b610331576020816103fb7ff7d7abaf8b0e82705f2ef671054dd11a306d870da0bbb8be1ff24bd0096de7ba93612f69565b506010546001600160a01b03163314156104c1565b3461024a575f36600319011261024a575f805160206130d5833981519152546040516001600160a01b039091168152602090f35b3461024a57604036600319011261024a57610554611ff5565b61055c61200b565b6001600160a01b039182165f908152600b60209081526040808320949093168252928352819020549051908152f35b3461024a575f36600319011261024a57604051806020600e54918281520190600e5f527fbb7b4a454dc3493923482f07822329ed19e8244eff582cc204f8554c3620c3fd905f5b818110610601576105fd856105e981870382612032565b6040519182916020835260208301906120b4565b0390f35b82548452602090930192600192830192016105d2565b3461024a57602036600319011261024a576004355f52600d602052602060405f20541515604051908152f35b3461024a575f36600319011261024a57604051806020600c5492838152018092600c5f527fdf6966c971051c3d54ec59162606531493a51404a002842f56009d7e5cf4a8c7905f5b8181106106e357505050816106a1910382612032565b604051918291602083019060208452518091526040830191905f5b8181106106ca575050500390f35b82518452859450602093840193909201916001016106bc565b825484526020909301926001928301920161068b565b3461024a575f36600319011261024a57602061ffff60025460d81c16604051908152f35b3461024a575f36600319011261024a5760206001600160801b0360055416604051908152f35b3461024a57602036600319011261024a5761075c611ff5565b5f80516020613035833981519152546001600160a01b0316331415806107b8575b610331577f59c3fbcae88f30e9b0e35c132a7f68c53231dffa4722f197c7ecb0ee013eee60906020906001600160a01b03166103fb81612e69565b506010546001600160a01b031633141561077d565b3461024a57604036600319011261024a576108046107e9611ff5565b6107f23361215c565b90811561080f575b602435903361279a565b602060405160018152f35b905061081a8161215c565b906107fa565b3461024a57604036600319011261024a57610839611ff5565b60243590335f52600b60205260405f2060018060a01b0382165f5260205260405f20549180831061087057610804920390336121ba565b637b5591b560e11b5f5260045ffd5b3461024a57604036600319011261024a57610898611ff5565b5f80516020613035833981519152546001600160a01b03163314158061096e575b610331576001600160a01b031630811461095f5760405163a9059cbb60e01b602082019081523360248084019190915235604480840191909152825261091d915f918291610908606482612032565b519082865af161091661218b565b9083612fd6565b8051908115159182610944575b505061093257005b635274afe760e01b5f5260045260245ffd5b6109579250602080918301019101612ba6565b15828061092a565b63992501b360e01b5f5260045ffd5b506010546001600160a01b03163314156108b9565b3461024a57602036600319011261024a5761099c611ff5565b5f80516020613035833981519152546001600160a01b031633141580610a0d575b61033157600480546001600160a01b0319166001600160a01b0390921691821790556040519081527fa4eea51cd2f21eac6612ba054a363ae2fd59698fc258ab414313cd73f69f2b8590602090a1005b506010546001600160a01b03163314156109bd565b3461024a575f36600319011261024a576040515f600854610a42816120f0565b8084529060018116908115610ac15750600114610a76575b6105fd83610a6a81850382612032565b60405191829182611fcb565b91905060085f525f80516020613075833981519152915f905b808210610aa757509091508101602001610a6a610a5a565b919260018160209254838588010152019101909291610a8f565b60ff191660208086019190915291151560051b84019091019150610a6a9050610a5a565b3461024a57604036600319011261024a57610afe612021565b6024359061ffff82169081830361024a575f80516020613035833981519152546001600160a01b031633141580610bf5575b610331576002549161ffff60c81b8260c81b169361ffff60d81b9060d81b1692838563ffffffff60c81b198316171761ffff808260d81c169160c81c16019061ffff8211610be1577f8da1f77a22734510b762a9625e69e737d7c0cc48984e810e5802fb341eb80a3e9560809560ff61ffff8095161515169160ff63ffffffff60c81b011984161717176002558160405194818360c81c16865216602085015260d81c1660408301526060820152a1005b634e487b7160e01b5f52601160045260245ffd5b506010546001600160a01b0316331415610b30565b3461024a575f36600319011261024a575f80516020613035833981519152546040516001600160a01b039091168152602090f35b3461024a57602036600319011261024a5760043560018060a01b035f80516020613035833981519152541633141580610ca3575b610331576020816103fb7fdd5aeaec2032ed464aed048b9014721d48de827cef3d77f78f0a76f1f0136dd493612d8e565b506010546001600160a01b0316331415610c72565b3461024a5760c036600319011261024a57366023121561024a57604051606081018181106001600160401b038211176113fa57604052803660641161024a576004905b6064821061164057826064356001600160401b03811161024a57610d2390369060040161206e565b906084356001600160401b03811161024a57610d4390369060040161206e565b9060a4356001600160401b03811161024a57610d6390369060040161206e565b905f805160206130b5833981519152549360ff8560401c1615946001600160401b03811680159081611638575b600114908161162e575b159081611625575b506116165767ffffffffffffffff1981166001175f805160206130b583398151915255856115ea575b508151610de0906001600160a01b0316612bde565b80518101906040816020840193031261024a5760208101516001600160401b03811161024a57826020610e1592840101612c49565b916040820151916001600160401b03831161024a57610e379201602001612c49565b8051906001600160401b0382116113fa578190610e556008546120f0565b601f8111611578575b50602090601f8311600114611507575f926114fc575b50508160011b915f199060031b1c1916176008555b8051906001600160401b0382116113fa578190610ea76007546120f0565b601f811161148a575b50602090601f8311600114611419575f9261140e575b50508160011b915f199060031b1c1916176007555b602081015160028054610100600160a81b03191660089290921b610100600160a81b031691909117905560400151600380546001600160a01b0319166001600160a01b0392909216919091179055815160e09083018390031261024a5760405160e081018181106001600160401b038211176113fa576040526020830151815260408301519160208201928352606084015192604083019384526080850151606084015260a08501516080840152610fa160e060c08701519660a0860197885201612135565b60c0840190815260808380518101031261024a5760405190608082018281106001600160401b038211176113fa576040526020840151825260408401516020830152610ffb60806060860151956040850196875201612135565b946060830195865280516110128851865190612128565b036113eb576001600160801b039051116113dc57611070926110669160018060a01b039051166001600160601b0360a01b60065416176006555161105f670de0b6b3a76400008092612149565b9651612149565b9551600155612c8f565b15159060ff6002549161ffff60e81b905160e81b1692169061010062ff000160e81b0316171760025560018060a01b039051166001600160601b0360a01b6004541617600455806113cc575b50806113b0575b5060025460405163c45a015560e01b81529060081c6001600160a01b0316602082600481845afa9182156112e9575f92611374575b5060035460405163e6a4390560e01b81523060048201526001600160a01b0391821660248201819052909390929160209185916044918391165afa9283156112e9575f93611338575b506001600160a01b038316156111fc575b50506001600160a01b031661116681612f14565b506001600160601b0360a01b5f5416175f55336001600160601b0360a01b6010541617601055600160a01b60ff60a01b1960035416176003556111a557005b68ff0000000000000000195f805160206130b583398151915254165f805160206130b5833981519152557fc7f505b2f371ae2175ee4913f4499e1f2633a7b5936321eed1cdaeb6115181d2602060405160018152a1005b60405163c45a015560e01b81529250602090839060049082905afa9182156112e9575f926112f4575b506040516364e329cb60e11b81523060048201526001600160a01b039091166024820152906020908290815f81604481015b03926001600160a01b03165af19081156112e9575f916112af575b506040516001600160a01b03821681527f969ffc8569f9af3993220e04ac05164e5db4e3d9f8b1a47f64e7de9a04b8ea2f90602090a18280611152565b90506020813d6020116112e1575b816112ca60209383612032565b8101031261024a576112db90612135565b82611272565b3d91506112bd565b6040513d5f823e3d90fd5b91506020823d602011611330575b8161130f60209383612032565b8101031261024a576112576020916113275f94612135565b93509150611225565b3d9150611302565b9092506020813d60201161136c575b8161135460209383612032565b8101031261024a5761136590612135565b9184611141565b3d9150611347565b9091506020813d6020116113a8575b8161139060209383612032565b8101031261024a576113a190612135565b90836110f8565b3d9150611383565b6006546113c691906001600160a01b0316612d03565b816110c3565b6113d69030612d03565b826110bc565b637f47720f60e11b5f5260045ffd5b6361cf53d560e01b5f5260045ffd5b634e487b7160e01b5f52604160045260245ffd5b015190508680610ec6565b60075f9081525f805160206130558339815191529350601f198516905b818110611472575090846001959493921061145a575b505050811b01600755610edb565b01515f1960f88460031b161c1916905586808061144c565b92936020600181928786015181550195019301611436565b90915060075f52601f830160051c5f805160206130558339815191520190602084106114e7575b90601f8493920160051c5f8051602061305583398151915201905b8181106114d95750610eb0565b5f81558493506001016114cc565b5f8051602061305583398151915291506114b1565b015190508780610e74565b60085f9081525f805160206130758339815191529350601f198516905b8181106115605750908460019594939210611548575b505050811b01600855610e89565b01515f1960f88460031b161c1916905587808061153a565b92936020600181928786015181550195019301611524565b90915060085f52601f830160051c5f805160206130758339815191520190602084106115d5575b90601f8493920160051c5f8051602061307583398151915201905b8181106115c75750610e5e565b5f81558493506001016115ba565b5f80516020613075833981519152915061159f565b68ffffffffffffffffff191668010000000000000001175f805160206130b58339815191525585610dcb565b63f92ee8a960e01b5f5260045ffd5b90501587610da2565b303b159150610d9a565b879150610d90565b81356001600160a01b038116810361024a57815260209182019101610cfb565b3461024a57604036600319011261024a5761001a61167c611ff5565b6024359061168b82338361221d565b612b29565b3461024a575f36600319011261024a575f805160206130d583398151915254336001600160a01b03909116036116c95761001a33612bde565b63118cdaa760e01b5f523360045260245ffd5b3461024a575f36600319011261024a576116f4612bbe565b5f805160206130d583398151915280546001600160a01b03199081169091555f80516020613035833981519152805491821690555f906001600160a01b03167f8be0079c531659141344cd1fd0a4f28419497f9722a3daafe3b4186f6b6457e08280a3005b3461024a57602036600319011261024a576001600160a01b0361177a611ff5565b165f52600a602052602060405f2054604051908152f35b3461024a575f36600319011261024a576020600154604051908152f35b3461024a57602036600319011261024a576117c7611ff5565b5f80516020613035833981519152546001600160a01b031633141580611c56575b6103315760025463ffffffff8160a81c16611c475763ffffffff60a81b19164260a81b63ffffffff60a81b16176002819055305f908152600a602052604090205415611c385760081c6001600160a01b03163015611c29578015611c1a57305f52600b60205260405f2060018060a01b0382165f5260205260405f205f1990556040515f1981527f8c5be1e5ebec7d5bd14f71427d1e84f3dd0314c0f7b2291e5b200ac8c7c3b92560203092a360035460025460405163095ea7b360e01b81526001600160a01b0360089290921c821660048201525f19602482015291602091839160449183915f91165af180156112e957611bfd575b5060025460405163c45a015560e01b8152906020908290600490829060081c6001600160a01b03165afa9081156112e9575f91611bc3575b5060035460405163e6a4390560e01b81523060048201526001600160a01b0391821660248201819052939092909160209184916044918391165afa9182156112e9575f92611b87575b50305f52600a6020526024602060405f205494604051928380926370a0823160e01b82523060048301525afa9081156112e9575f91611b55575b506119a684843061228c565b60035460405163a9059cbb60e01b81526001600160a01b03858116600483015260248201849052909491602091869160449183915f91165af19081156112e9575f94602092611b3a575b506040516335313c2160e11b815230600482015294859160249183916001600160a01b03165af19283156112e9575f93611ae4575b50907fbf59dda00152e02f20e18cab7307c8afe0714e7f69cf24a1377cbbddcb40f9bb6060611aac956020959460405191825286820152846040820152a16003805460ff60a01b191690555f805460405163a9059cbb60e01b81526001600160a01b0393841660048201526024810194909452929485939092169183919082906044820190565b03925af180156112e957611abc57005b61001a9060203d602011611add575b611ad58183612032565b810190612ba6565b503d611acb565b9250906020833d602011611b32575b81611b0060209383612032565b8101031261024a57915191907fbf59dda00152e02f20e18cab7307c8afe0714e7f69cf24a1377cbbddcb40f9bb611a25565b3d9150611af3565b611b5090833d8511611add57611ad58183612032565b6119f0565b90506020813d602011611b7f575b81611b7060209383612032565b8101031261024a57518461199a565b3d9150611b63565b9091506020813d602011611bbb575b81611ba360209383612032565b8101031261024a57611bb490612135565b9083611960565b3d9150611b96565b90506020813d602011611bf5575b81611bde60209383612032565b8101031261024a57611bef90612135565b82611917565b3d9150611bd1565b611c159060203d602011611add57611ad58183612032565b6118df565b63b2fa1ef360e01b5f5260045ffd5b6356fdae6560e11b5f5260045ffd5b6330d86fb160e11b5f5260045ffd5b63b1f3376760e01b5f5260045ffd5b506010546001600160a01b03163314156117e8565b3461024a575f36600319011261024a57602061ffff60025460e81c16604051908152f35b3461024a575f36600319011261024a575f546040516001600160a01b039091168152602090f35b3461024a57602036600319011261024a5761001a60043533612b29565b3461024a575f36600319011261024a576003546040516001600160a01b039091168152602090f35b3461024a57604036600319011261024a57610804611d17611ff5565b335f52600b60205260405f2060018060a01b0382165f52602052611d4260405f206024359054612128565b90336121ba565b3461024a57602036600319011261024a57611d62612021565b5f80516020613035833981519152546001600160a01b031633141580611dd9575b6103315760407fe4351c45b53ffb7ebad0b66cc0f1a3dfe2963c099421eeaded141104df39206a9161ffff600254918160e81b8160e81b168260e81b198416176002558184519360e81c168352166020820152a1005b506010546001600160a01b0316331415611d83565b3461024a575f36600319011261024a57602060405160128152f35b3461024a575f36600319011261024a576005546001600160801b03811680611e2d57005b6fffffffffffffffffffffffffffffffff1990911660055560045461001a91906001600160a01b03163061228c565b3461024a57606036600319011261024a57610804611e78611ff5565b611e8061200b565b60443590611e8f82338561221d565b611e988361215c565b928361279a579250611ea98161215c565b9261279a565b3461024a575f36600319011261024a576020600954604051908152f35b3461024a575f36600319011261024a57602063ffffffff60025460a81c16604051908152f35b3461024a57604036600319011261024a57610804611f0e611ff5565b60243590336121ba565b3461024a575f36600319011261024a576040515f600754611f38816120f0565b8084529060018116908115610ac15750600114611f5f576105fd83610a6a81850382612032565b91905060075f525f80516020613055833981519152915f905b808210611f9057509091508101602001610a6a610a5a565b919260018160209254838588010152019101909291611f78565b3461024a575f36600319011261024a5760209061ffff60025460d81c168152f35b602060409281835280519182918282860152018484015e5f828201840152601f01601f1916010190565b600435906001600160a01b038216820361024a57565b602435906001600160a01b038216820361024a57565b6004359061ffff8216820361024a57565b90601f801991011681019081106001600160401b038211176113fa57604052565b6001600160401b0381116113fa57601f01601f191660200190565b81601f8201121561024a5780359061208582612053565b926120936040519485612032565b8284526020838301011161024a57815f926020809301838601378301015290565b90602080835192838152019201905f5b8181106120d15750505090565b82516001600160a01b03168452602093840193909201916001016120c4565b90600182811c9216801561211e575b602083101461210a57565b634e487b7160e01b5f52602260045260245ffd5b91607f16916120ff565b91908201809211610be157565b51906001600160a01b038216820361024a57565b81810292918115918404141715610be157565b5f546001600160a01b0391821691168114908115612178575090565b90505f52600f60205260405f2054151590565b3d156121b5573d9061219c82612053565b916121aa6040519384612032565b82523d5f602084013e565b606090565b6001600160a01b0316908115611c29576001600160a01b0316918215611c1a5760207f8c5be1e5ebec7d5bd14f71427d1e84f3dd0314c0f7b2291e5b200ac8c7c3b92591835f52600b825260405f20855f5282528060405f2055604051908152a3565b6001600160a01b038082165f908152600b60209081526040808320938616835292905220549290919060018401612255575b50505050565b808410612270576122679303916121ba565b5f80808061224f565b6313be252b60e01b5f5260045ffd5b91908203918211610be157565b5f80546001600160a01b03808516959493929116851480612787575b80612774575b612765576001600160a01b03821693841561275657851561274757845f52600a60205260405f2054938185106127385760025460ff8116612477575b5091602093915f80516020613095833981519152959381936002549060ff821680612470575b80612460575b612354575b50505061232b906040939461227f565b868252600a855282822055868152600a845220612349828254612128565b9055604051908152a3565b61235e859361215c565b80612450575b156123e957505061ffff60025460d81c16806123b8575b505b8061238a575b808061231b565b604093509061232b91308452600a875284842081815401905584518181528989893093a38103935090612383565b61271090830204906005546001600160801b038084168183160116906001600160801b03191617600555015f61237b565b6123f29061215c565b80612440575b612403575b5061237d565b60c81c61ffff1680156123fd5761271091508202046005546001600160801b038083168183160116906001600160801b031916176005555f6123fd565b5061ffff8160c81c1615156123f8565b5061ffff8260d81c161515612364565b5060ff60035460a01c1615612316565b5084612310565b305f52600a60205260405f2054809161271061249d60095461ffff8460e81c1690612149565b04908183101580612728575b80612718575b80612701575b806126ea575b806126e0575b6124ce575b5050506122ea565b6003805460ff60a01b198116600160a01b179091559160148082029180159083049091141715610be1578084116126d8575b5060405191612510606084612032565b6002835260403660208501373061252684612fb9565b526001600160a01b031661253983612fc6565b526004546001600160a01b0390811692914261025881019260089290921c909116908210610be157803b1561024a5761259f5f809460405196879586948593635c11d79560e01b85528b600486015285602486015260a0604486015260a48501906120b4565b916064840152608483015203925af190816126c3575b5061261557505091602093915f8051602061309583398151915295937f60dc41faad9fe4f70f304dcef26d96d71e98ec8e21e4a340921d94dfe46307dc8660405160058152a15b60ff60a01b19600354166003559193958193955f6124c6565b81811015612697576001600160801b0361263e600554936126398386169485612149565b612ce5565b1690036001600160801b038111612683579160209593916001600160801b035f8051602061309583398151915298969416906001600160801b031916176005556125fc565b634e487b7160e01b85526011600452602485fd5b505091602093915f8051602061309583398151915295936001600160801b0319600554166005556125fc565b6126d09196505f90612032565b5f945f6125b5565b92505f612500565b50308a14156124c1565b50600881901c6001600160a01b03168b14156124bb565b50600881901c6001600160a01b03168a14156124b5565b506127228861215c565b156124af565b5060ff60035460a01c16156124a9565b635dd58b8b60e01b5f5260045ffd5b633a954ecd60e21b5f5260045ffd5b630b07e54560e11b5f5260045ffd5b630d970b4560e21b5f5260045ffd5b5063ffffffff60025460a81c16156122ae565b506001600160a01b0382163014156122a8565b5f80546001600160a01b038085169694959116861480612b16575b80612b03575b612765576001600160a01b03831694851561275657861561274757855f52600a60205260405f2054948286106127385760025460ff8116612843575b50918391602095935f8051602061309583398151915297955082946002549160ff8316908161283b575b5080612460576123545750505061232b906040939461227f565b90505f612821565b305f52600a60205260405f2054809161271061286960095461ffff8460e81c1690612149565b04908183101580612af3575b80612ae3575b80612acc575b80612ab5575b80612aab575b61289a575b5050506127f7565b6003805460ff60a01b198116600160a01b179091559160148082029180159083049091141715610be157808411612aa3575b50604051916128dc606084612032565b600283526040366020850137306128f284612fb9565b526001600160a01b031661290583612fc6565b526004546001600160a01b0390811692914261025881019260089290921c909116908210610be157803b1561024a5761296b5f809460405196879586948593635c11d79560e01b85528b600486015285602486015260a0604486015260a48501906120b4565b916064840152608483015203925af19081612a8e575b506129e3575050915f80516020613095833981519152959391602095937f60dc41faad9fe4f70f304dcef26d96d71e98ec8e21e4a340921d94dfe46307dc8760405160058152a15b60ff60a01b1960035416600355919395819395975f612892565b81811015612a61576001600160801b03612a07600554936126398386169485612149565b1690036001600160801b038111612a4d57915f80516020613095833981519152979593916001600160801b03602098969416906001600160801b031916176005556129c9565b634e487b7160e01b86526011600452602486fd5b5050915f80516020613095833981519152959391602095936001600160801b0319600554166005556129c9565b612a9b9197505f90612032565b5f955f612981565b92505f6128cc565b50308b141561288d565b50600881901c6001600160a01b03168c1415612887565b50600881901c6001600160a01b03168b1415612881565b50612aed8961215c565b1561287b565b5060ff60035460a01c1615612875565b5063ffffffff60025460a81c16156127bb565b506001600160a01b0383163014156127b5565b6001600160a01b03168015612b9757805f52600a60205260405f205491808310612b88576020815f80516020613095833981519152925f95858752600a84520360408620556001600160801b03811660095403600955604051908152a3565b63588569f760e01b5f5260045ffd5b6304fca6bd60e41b5f5260045ffd5b9081602091031261024a5751801515810361024a5790565b5f80516020613035833981519152546001600160a01b031633036116c957565b5f805160206130d583398151915280546001600160a01b03199081169091555f8051602061303583398151915280549182166001600160a01b0393841690811790915591167f8be0079c531659141344cd1fd0a4f28419497f9722a3daafe3b4186f6b6457e05f80a3565b81601f8201121561024a57805190612c6082612053565b92612c6e6040519485612032565b8284526020838301011161024a57815f9260208093018386015e8301015290565b805190811580612cd9575b15612ca55750505f90565b60025490602061ffff60d81b91015160d81b169161ffff60c81b9060c81b169063ffffffff60c81b19161717600255600190565b50602081015115612c9a565b8115612cef570490565b634e487b7160e01b5f52601260045260245ffd5b6001600160a01b0316908115612d57575f80516020613095833981519152602082612d3a6001600160801b035f9516600954612128565b600955848452600a825260408420818154019055604051908152a3565b622e076360e81b5f5260045ffd5b8054821015612d7a575f5260205f2001905f90565b634e487b7160e01b5f52603260045260245ffd5b5f818152600d60205260409020548015612e63575f198101818111610be157600c545f19810191908211610be157818103612e15575b505050600c548015612e01575f1901612dde81600c612d65565b8154905f199060031b1b19169055600c555f52600d6020525f6040812055600190565b634e487b7160e01b5f52603160045260245ffd5b612e4d612e26612e3793600c612d65565b90549060031b1c928392600c612d65565b819391549060031b91821b915f19901b19161790565b90555f52600d60205260405f20555f8080612dc4565b50505f90565b5f818152600f60205260409020548015612e63575f198101818111610be157600e545f19810191908211610be157818103612edc575b505050600e548015612e01575f1901612eb981600e612d65565b8154905f199060031b1b19169055600e555f52600f6020525f6040812055600190565b612efe612eed612e3793600e612d65565b90549060031b1c928392600e612d65565b90555f52600f60205260405f20555f8080612e9f565b805f52600f60205260405f2054155f14612f6457600e54600160401b8110156113fa57612f4d612e37826001859401600e55600e612d65565b9055600e54905f52600f60205260405f2055600190565b505f90565b805f52600d60205260405f2054155f14612f6457600c54600160401b8110156113fa57612fa2612e37826001859401600c55600c612d65565b9055600c54905f52600d60205260405f2055600190565b805115612d7a5760200190565b805160011015612d7a5760400190565b90612ffa5750805115612feb57805190602001fd5b630a12f52160e11b5f5260045ffd5b8151158061302b575b61300b575090565b639996b31560e01b5f9081526001600160a01b0391909116600452602490fd5b50803b1561300356fe9016d09d72d40fdae2fd8ceac6b6234c7706214fd39c1cd1e609a0528c199300a66cc928b5edb82af9bd49922954155ab7b0942694bea4ce44661d9a8736c688f3f7a9fe364faab93b216da50a3214154f22a0a2b415b23a84c8169e8b636ee3ddf252ad1be2c89b69c2b068fc378daa952ba7f163c4a11628f55a4df523b3eff0c57e16840df040f15088dc2f81fe391c3923bec73e23a9662efc9c229c6a00237e158222e3e6968b72b9db0d8043aacf074ad9f650f0d1606b4d82ee432c00a2646970667358221220a2d6f9f179878c4437a9d2cc2b039966e4ade35fd01363386e0a636dafcae9e964736f6c634300081a0033","linkReferences":{}},"methodIdentifiers":{"acceptOwnership()":"79ba5097","addInitialLiquidity(address)":"59cabbe4","addLiquidityPool(address)":"ee6a934c","addValidCaller(bytes32)":"e37d9e95","allowance(address,address)":"dd62ed3e","approve(address,uint256)":"095ea7b3","balanceOf(address)":"70a08231","botProtectionDurationInSeconds()":"63a9c1f2","burn(uint256)":"42966c68","burnFrom(address,uint256)":"79cc6790","decimals()":"313ce567","decreaseAllowance(address,uint256)":"a457c2d7","distributeTaxTokens()":"2ead0955","fundedDate()":"10b828c9","increaseAllowance(address,uint256)":"39509351","initialize(address[3],bytes,bytes,bytes)":"84b1df52","isLiquidityPool(address)":"e85455d7","isValidCaller(bytes32)":"bfe3098f","liquidityPools()":"d6efd7c3","name()":"06fdde03","owner()":"8da5cb5b","pairToken()":"3de35b79","pendingOwner()":"e30c3978","projectBuyTaxBasisPoints()":"a45cae02","projectSellTaxBasisPoints()":"b2c5c9eb","projectTaxPendingSwap()":"b0d75097","projectTaxRecipient()":"ea8b2424","removeLiquidityPool(address)":"ae22107f","removeValidCaller(bytes32)":"8589287a","renounceOwnership()":"715018a6","setProjectTaxRates(uint16,uint16)":"936b2934","setProjectTaxRecipient(address)":"9808751d","setSwapThresholdBasisPoints(uint16)":"326b3b8b","swapThresholdBasisPoints()":"4bed5ad2","symbol()":"95d89b41","totalBuyTaxBasisPoints()":"eeae0f97","totalSellTaxBasisPoints()":"038272b6","totalSupply()":"18160ddd","transfer(address,uint256)":"a9059cbb","transferFrom(address,address,uint256)":"23b872dd","transferOwnership(address)":"f2fde38b","uniswapV2Pair()":"49bd5a5e","validCallers()":"b498d39f","vault()":"fbfa77cf","withdrawERC20(address,uint256)":"a1db9782","withdrawETH(uint256)":"f14210a6"},"id":99}