{"abi":[{"type":"constructor","inputs":[],"stateMutability":"nonpayable"},{"type":"function","name":"ADMIN_ROLE","inputs":[],"outputs":[{"name":"","type":"bytes32","internalType":"bytes32"}],"stateMutability":"view"},{"type":"function","name":"DEFAULT_ADMIN_ROLE","inputs":[],"outputs":[{"name":"","type":"bytes32","internalType":"bytes32"}],"stateMutability":"view"},{"type":"function","name":"assetToken","inputs":[],"outputs":[{"name":"","type":"address","internalType":"address"}],"stateMutability":"view"},{"type":"function","name":"bondingRouter","inputs":[],"outputs":[{"name":"","type":"address","internalType":"address"}],"stateMutability":"view"},{"type":"function","name":"getRoleAdmin","inputs":[{"name":"role","type":"bytes32","internalType":"bytes32"}],"outputs":[{"name":"","type":"bytes32","internalType":"bytes32"}],"stateMutability":"view"},{"type":"function","name":"grantRole","inputs":[{"name":"role","type":"bytes32","internalType":"bytes32"},{"name":"account","type":"address","internalType":"address"}],"outputs":[],"stateMutability":"nonpayable"},{"type":"function","name":"hasRole","inputs":[{"name":"role","type":"bytes32","internalType":"bytes32"},{"name":"account","type":"address","internalType":"address"}],"outputs":[{"name":"","type":"bool","internalType":"bool"}],"stateMutability":"view"},{"type":"function","name":"initialize","inputs":[{"name":"defaultAdmin_","type":"address","internalType":"address"},{"name":"assetToken_","type":"address","internalType":"address"},{"name":"taxToken_","type":"address","internalType":"address"},{"name":"router_","type":"address","internalType":"address"},{"name":"bondingRouter_","type":"address","internalType":"address"},{"name":"treasury_","type":"address","internalType":"address"},{"name":"minSwapThreshold_","type":"uint256","internalType":"uint256"},{"name":"maxSwapThreshold_","type":"uint256","internalType":"uint256"}],"outputs":[],"stateMutability":"nonpayable"},{"type":"function","name":"maxSwapThreshold","inputs":[],"outputs":[{"name":"","type":"uint256","internalType":"uint256"}],"stateMutability":"view"},{"type":"function","name":"minSwapThreshold","inputs":[],"outputs":[{"name":"","type":"uint256","internalType":"uint256"}],"stateMutability":"view"},{"type":"function","name":"renounceRole","inputs":[{"name":"role","type":"bytes32","internalType":"bytes32"},{"name":"callerConfirmation","type":"address","internalType":"address"}],"outputs":[],"stateMutability":"nonpayable"},{"type":"function","name":"revokeRole","inputs":[{"name":"role","type":"bytes32","internalType":"bytes32"},{"name":"account","type":"address","internalType":"address"}],"outputs":[],"stateMutability":"nonpayable"},{"type":"function","name":"router","inputs":[],"outputs":[{"name":"","type":"address","internalType":"contract IRouter"}],"stateMutability":"view"},{"type":"function","name":"supportsInterface","inputs":[{"name":"interfaceId","type":"bytes4","internalType":"bytes4"}],"outputs":[{"name":"","type":"bool","internalType":"bool"}],"stateMutability":"view"},{"type":"function","name":"swapForAsset","inputs":[],"outputs":[{"name":"","type":"bool","internalType":"bool"},{"name":"","type":"uint256","internalType":"uint256"}],"stateMutability":"nonpayable"},{"type":"function","name":"taxToken","inputs":[],"outputs":[{"name":"","type":"address","internalType":"address"}],"stateMutability":"view"},{"type":"function","name":"treasury","inputs":[],"outputs":[{"name":"","type":"address","internalType":"address"}],"stateMutability":"view"},{"type":"function","name":"updateSwapParams","inputs":[{"name":"router_","type":"address","internalType":"address"},{"name":"bondingRouter_","type":"address","internalType":"address"},{"name":"assetToken_","type":"address","internalType":"address"},{"name":"slippage_","type":"uint16","internalType":"uint16"}],"outputs":[],"stateMutability":"nonpayable"},{"type":"function","name":"updateSwapThresholds","inputs":[{"name":"minSwapThreshold_","type":"uint256","internalType":"uint256"},{"name":"maxSwapThreshold_","type":"uint256","internalType":"uint256"}],"outputs":[],"stateMutability":"nonpayable"},{"type":"function","name":"updateTreasury","inputs":[{"name":"treasury_","type":"address","internalType":"address"}],"outputs":[],"stateMutability":"nonpayable"},{"type":"function","name":"withdraw","inputs":[{"name":"token","type":"address","internalType":"address"}],"outputs":[],"stateMutability":"nonpayable"},{"type":"event","name":"Initialized","inputs":[{"name":"version","type":"uint64","indexed":false,"internalType":"uint64"}],"anonymous":false},{"type":"event","name":"RoleAdminChanged","inputs":[{"name":"role","type":"bytes32","indexed":true,"internalType":"bytes32"},{"name":"previousAdminRole","type":"bytes32","indexed":true,"internalType":"bytes32"},{"name":"newAdminRole","type":"bytes32","indexed":true,"internalType":"bytes32"}],"anonymous":false},{"type":"event","name":"RoleGranted","inputs":[{"name":"role","type":"bytes32","indexed":true,"internalType":"bytes32"},{"name":"account","type":"address","indexed":true,"internalType":"address"},{"name":"sender","type":"address","indexed":true,"internalType":"address"}],"anonymous":false},{"type":"event","name":"RoleRevoked","inputs":[{"name":"role","type":"bytes32","indexed":true,"internalType":"bytes32"},{"name":"account","type":"address","indexed":true,"internalType":"address"},{"name":"sender","type":"address","indexed":true,"internalType":"address"}],"anonymous":false},{"type":"event","name":"SwapExecuted","inputs":[{"name":"taxTokenAmount","type":"uint256","indexed":false,"internalType":"uint256"},{"name":"assetTokenAmount","type":"uint256","indexed":false,"internalType":"uint256"}],"anonymous":false},{"type":"event","name":"SwapFailed","inputs":[{"name":"taxTokenAmount","type":"uint256","indexed":false,"internalType":"uint256"}],"anonymous":false},{"type":"event","name":"SwapParamsUpdated","inputs":[{"name":"oldRouter","type":"address","indexed":false,"internalType":"address"},{"name":"newRouter","type":"address","indexed":false,"internalType":"address"},{"name":"oldBondingRouter","type":"address","indexed":false,"internalType":"address"},{"name":"newBondingRouter","type":"address","indexed":false,"internalType":"address"},{"name":"oldAsset","type":"address","indexed":false,"internalType":"address"},{"name":"newAsset","type":"address","indexed":false,"internalType":"address"}],"anonymous":false},{"type":"event","name":"SwapThresholdUpdated","inputs":[{"name":"oldMinThreshold","type":"uint256","indexed":false,"internalType":"uint256"},{"name":"newMinThreshold","type":"uint256","indexed":false,"internalType":"uint256"},{"name":"oldMaxThreshold","type":"uint256","indexed":false,"internalType":"uint256"},{"name":"newMaxThreshold","type":"uint256","indexed":false,"internalType":"uint256"}],"anonymous":false},{"type":"event","name":"TreasuryUpdated","inputs":[{"name":"oldTreasury","type":"address","indexed":false,"internalType":"address"},{"name":"newTreasury","type":"address","indexed":false,"internalType":"address"}],"anonymous":false},{"type":"error","name":"AccessControlBadConfirmation","inputs":[]},{"type":"error","name":"AccessControlUnauthorizedAccount","inputs":[{"name":"account","type":"address","internalType":"address"},{"name":"neededRole","type":"bytes32","internalType":"bytes32"}]},{"type":"error","name":"AddressEmptyCode","inputs":[{"name":"target","type":"address","internalType":"address"}]},{"type":"error","name":"AddressInsufficientBalance","inputs":[{"name":"account","type":"address","internalType":"address"}]},{"type":"error","name":"FailedInnerCall","inputs":[]},{"type":"error","name":"InvalidInitialization","inputs":[]},{"type":"error","name":"NotInitializing","inputs":[]},{"type":"error","name":"SafeERC20FailedOperation","inputs":[{"name":"token","type":"address","internalType":"address"}]}],"bytecode":{"object":"0x6080806040523460d0577ff0c57e16840df040f15088dc2f81fe391c3923bec73e23a9662efc9c229c6a005460ff8160401c1660c1576002600160401b03196001600160401b03821601605c575b60405161147890816100d58239f35b6001600160401b0319166001600160401b039081177ff0c57e16840df040f15088dc2f81fe391c3923bec73e23a9662efc9c229c6a005581527fc7f505b2f371ae2175ee4913f4499e1f2633a7b5936321eed1cdaeb6115181d290602090a15f80604d565b63f92ee8a960e01b5f5260045ffd5b5f80fdfe6080806040526004361015610012575f80fd5b5f3560e01c90816301ffc9a7146109de575080631083f761146109b757806315ca79ac1461094d5780631fc928ae14610925578063248a9ca3146108ff5780632f2ff15d146108ce57806336568abe1461088a57806351cff8d9146107ad57806361d027b31461078557806375b238fc1461074b5780637f51bb1f146106da57806387644953146106bd57806391d1485414610668578063951d833d146105f35780639fdfbea91461041c578063a217fddf14610402578063acef1a44146103e5578063b0205927146103bd578063c740671f14610167578063d547741f1461012f5763f887ea4014610103575f80fd5b3461012b575f36600319011261012b576002546040516001600160a01b039091168152602090f35b5f80fd5b3461012b57604036600319011261012b5761016560043561014e610a31565b9061016061015b82610a73565b610f02565b611167565b005b3461012b5761010036600319011261012b57610181610a47565b610189610a31565b90610192610a5d565b606435906001600160a01b0382169081830361012b576084356001600160a01b0381169081900361012b5760a4356001600160a01b038116929083900361012b575f80516020611423833981519152549660ff8860401c16159767ffffffffffffffff8116801590816103b5575b60011490816103ab575b1590816103a2575b506103935767ffffffffffffffff1981166001175f805160206114238339815191525588610367575b5060ff5f805160206114238339815191525460401c16156103585761026c876102666102ed99610f48565b50611019565b5060018060a01b03166001600160601b0360a01b5f5416175f5560018060a01b031692836001600160601b0360a01b60015416176001556001600160601b0360a01b60025416176002556001600160601b0360a01b60035416176003556001600160601b0360a01b600454161760045560c43560055560e435600655611203565b606461ffff19600754161760075561030157005b68ff0000000000000000195f8051602061142383398151915254165f80516020611423833981519152557fc7f505b2f371ae2175ee4913f4499e1f2633a7b5936321eed1cdaeb6115181d2602060405160018152a1005b631afcd79f60e31b5f5260045ffd5b68ffffffffffffffffff191668010000000000000001175f80516020611423833981519152558861023b565b63f92ee8a960e01b5f5260045ffd5b9050158a610212565b303b15915061020a565b8a9150610200565b3461012b575f36600319011261012b576003546040516001600160a01b039091168152602090f35b3461012b575f36600319011261012b576020600654604051908152f35b3461012b575f36600319011261012b5760206040515f8152f35b3461012b57608036600319011261012b57610435610a47565b61043d610a31565b610445610a5d565b916064359161ffff831680930361012b577febffc51a0a7498708af30e8f6cb80c598904ace1680c3d3511fa2215b5808b929360c093610483610e93565b60028054600380545f80546001600160a01b039788166001600160a01b031980831682179093558a8916838716811790975598881691831682179093556007805461ffff1916969096179095556001549286169791959093926104e7929116611203565b60018060a01b03600154166040515f806020830163095ea7b360e01b81528a602485015281604485015260448452610520606485610a91565b83519082865af161052f611365565b816105c4575b50806105ba575b15610576575b5050604051958652602086015260018060a01b03166040850152606084015260018060a01b0316608083015260a0820152a1005b6105b3916105ae60405163095ea7b360e01b60208201528a60248201525f6044820152604481526105a8606482610a91565b826112fa565b6112fa565b8880610542565b50813b151561053c565b80518015925082156105d9575b50508b610535565b6105ec92506020809183010191016112e2565b8b806105d1565b3461012b575f36600319011261012b576003546001600160a01b0316330361062d57604061061f610bad565b825191151582526020820152f35b60405162461bcd60e51b815260206004820152601360248201527227b7363c903137b73234b733903937baba32b960691b6044820152606490fd5b3461012b57604036600319011261012b57610681610a31565b6004355f525f8051602061140383398151915260205260405f209060018060a01b03165f52602052602060ff60405f2054166040519015158152f35b3461012b575f36600319011261012b576020600554604051908152f35b3461012b57602036600319011261012b577f4ab5be82436d353e61ca18726e984e561f5c1cc7c6d38b29d2553c790434705a6040610716610a47565b61071e610e93565b600480546001600160a01b039283166001600160a01b0319821681179092558351921682526020820152a1005b3461012b575f36600319011261012b5760206040517fa49807205ce4d355092ef5a8a18f56e8913cf4a201fbe287825b095693c217758152f35b3461012b575f36600319011261012b576004546040516001600160a01b039091168152602090f35b3461012b57602036600319011261012b576107c6610a47565b6107ce610e93565b600480546040516370a0823160e01b8152309281019290925290916001600160a01b039182169116602083602481845afa92831561087f575f93610849575b5060405163a9059cbb60e01b60208201526001600160a01b039092166024830152604480830193909352918152610165916105ae606483610a91565b92506020833d602011610877575b8161086460209383610a91565b8101031261012b579151916105ae61080d565b3d9150610857565b6040513d5f823e3d90fd5b3461012b57604036600319011261012b576108a3610a31565b336001600160a01b038216036108bf5761016590600435611167565b63334bd91960e11b5f5260045ffd5b3461012b57604036600319011261012b576101656004356108ed610a31565b906108fa61015b82610a73565b6110c3565b3461012b57602036600319011261012b57602061091d600435610a73565b604051908152f35b3461012b575f36600319011261012b576001546040516001600160a01b039091168152602090f35b3461012b57604036600319011261012b577f9a406f83dc9a92c8bd8f5abc852923a196fe3a87dd6d9ebe8272e928bd5d94fd608060043560243561098f610e93565b60055491600654908060055582600655604051938452602084015260408301526060820152a1005b3461012b575f36600319011261012b575f546040516001600160a01b039091168152602090f35b3461012b57602036600319011261012b576004359063ffffffff60e01b821680920361012b57602091637965db0b60e01b8114908115610a20575b5015158152f35b6301ffc9a760e01b14905083610a19565b602435906001600160a01b038216820361012b57565b600435906001600160a01b038216820361012b57565b604435906001600160a01b038216820361012b57565b5f525f80516020611403833981519152602052600160405f20015490565b90601f8019910116810190811067ffffffffffffffff821117610ab357604052565b634e487b7160e01b5f52604160045260245ffd5b805160011015610ad75760400190565b634e487b7160e01b5f52603260045260245ffd5b60208183031261012b5780519067ffffffffffffffff821161012b57019080601f8301121561012b5781519167ffffffffffffffff8311610ab3578260051b906020820193610b3d6040519586610a91565b845260208085019282010192831161012b57602001905b828210610b615750505090565b8151815260209182019101610b54565b90602080835192838152019201905f5b818110610b8e5750505090565b82516001600160a01b0316845260209384019390920191600101610b81565b6001546040516370a0823160e01b8152306004820152906001600160a01b0316602082602481845afa91821561087f575f92610e5f575b508160055481108015610e57575b610e4e57600654809111610e46575b5060405190610c11606083610a91565b60028252602082016040368237825115610ad757525f546001600160a01b0316610c3a82610ac7565b5260018060a01b03600254169060405163d06ca61f60e01b8152836004820152604060248201525f8180610c716044820186610b71565b0381865afa90811561087f575f91610e2c575b50600181511115610de757610c9890610ac7565b519061ffff600754166127100361ffff8111610dd35761ffff1691828102928184041490151715610dd3576004544261012c810194916001600160a01b0316908510610dd3575f809461271092610d1a97604051988997889687956338ed173960e01b87528d600488015204602486015260a0604486015260a4850190610b71565b916064840152608483015203925af15f9181610daf575b50610d68575060207ff9e10ddceffcb10b96e8833202366240699b814c91f371ddd9befa3aee9bc60f91604051908152a15f905f90565b7f4f73e5828387c436ef01a51b03853873e76d7a5551556837d452cbeb6f285cb56040610da993610d9884610ac7565b5182519182526020820152a1610ac7565b51600191565b610dcc9192503d805f833e610dc48183610a91565b810190610aeb565b905f610d31565b634e487b7160e01b5f52601160045260245ffd5b60405162461bcd60e51b815260206004820152601b60248201527f4661696c656420746f20666574636820746f6b656e20707269636500000000006044820152606490fd5b610e4091503d805f833e610dc48183610a91565b5f610c84565b91505f610c01565b5050505f905f90565b508015610bf2565b9091506020813d602011610e8b575b81610e7b60209383610a91565b8101031261012b5751905f610be4565b3d9150610e6e565b335f9081527fb16e88c42fd4e48df2dd6a2eabd6bc9aec654ec170056b470819f8892cc6431c602052604090205460ff1615610ecb57565b63e2517d3f60e01b5f52336004527fa49807205ce4d355092ef5a8a18f56e8913cf4a201fbe287825b095693c2177560245260445ffd5b5f8181525f805160206114038339815191526020908152604080832033845290915290205460ff1615610f325750565b63e2517d3f60e01b5f523360045260245260445ffd5b6001600160a01b0381165f9081527fb16e88c42fd4e48df2dd6a2eabd6bc9aec654ec170056b470819f8892cc6431c602052604090205460ff16611014576001600160a01b03165f8181527fb16e88c42fd4e48df2dd6a2eabd6bc9aec654ec170056b470819f8892cc6431c60205260408120805460ff191660011790553391907fa49807205ce4d355092ef5a8a18f56e8913cf4a201fbe287825b095693c21775907f2f8788117e7eff1d82e926ec794901d17c78024a50270940304540a733656f0d9080a4600190565b505f90565b6001600160a01b0381165f9081527fb7db2dd08fcb62d0c9e08c51941cae53c267786a0b75803fb7960902fc8ef97d602052604090205460ff16611014576001600160a01b03165f8181527fb7db2dd08fcb62d0c9e08c51941cae53c267786a0b75803fb7960902fc8ef97d60205260408120805460ff191660011790553391907f2f8788117e7eff1d82e926ec794901d17c78024a50270940304540a733656f0d8180a4600190565b5f8181525f80516020611403833981519152602090815260408083206001600160a01b038616845290915290205460ff16611161575f8181525f80516020611403833981519152602090815260408083206001600160a01b0395909516808452949091528120805460ff19166001179055339291907f2f8788117e7eff1d82e926ec794901d17c78024a50270940304540a733656f0d9080a4600190565b50505f90565b5f8181525f80516020611403833981519152602090815260408083206001600160a01b038616845290915290205460ff1615611161575f8181525f80516020611403833981519152602090815260408083206001600160a01b0395909516808452949091528120805460ff19169055339291907ff6391f5c32d9c69d2a47ea670b442974b53935d1edc7fd64eb21e047a839171b9080a4600190565b60405190602082019263095ea7b360e01b845260018060a01b0316928360248401525f1960448401526044835261123b606484610a91565b82516001600160a01b038316915f91829182855af190611259611365565b826112b0575b50816112a5575b501561127157505050565b6105ae6112a3936040519063095ea7b360e01b602083015260248201525f6044820152604481526105a8606482610a91565b565b90503b15155f611266565b805191925081159182156112c8575b5050905f61125f565b6112db92506020809183010191016112e2565b5f806112bf565b9081602091031261012b5751801515810361012b5790565b5f806113229260018060a01b03169360208151910182865af161131b611365565b90836113a4565b805190811515918261134a575b50506113385750565b635274afe760e01b5f5260045260245ffd5b61135d92506020809183010191016112e2565b155f8061132f565b3d1561139f573d9067ffffffffffffffff8211610ab35760405191611394601f8201601f191660200184610a91565b82523d5f602084013e565b606090565b906113c857508051156113b957805190602001fd5b630a12f52160e11b5f5260045ffd5b815115806113f9575b6113d9575090565b639996b31560e01b5f9081526001600160a01b0391909116600452602490fd5b50803b156113d156fe02dd7bc7dec4dceedda775e58dd541e08a116c6c53815c0bd028192f7b626800f0c57e16840df040f15088dc2f81fe391c3923bec73e23a9662efc9c229c6a00a264697066735822122013fd5605567b7ae9654cc2bbc1a4c11d315c988f74d24c24c88e680c5ee46d6364736f6c634300081a0033","linkReferences":{}},"methodIdentifiers":{"ADMIN_ROLE()":"75b238fc","DEFAULT_ADMIN_ROLE()":"a217fddf","assetToken()":"1083f761","bondingRouter()":"b0205927","getRoleAdmin(bytes32)":"248a9ca3","grantRole(bytes32,address)":"2f2ff15d","hasRole(bytes32,address)":"91d14854","initialize(address,address,address,address,address,address,uint256,uint256)":"c740671f","maxSwapThreshold()":"acef1a44","minSwapThreshold()":"87644953","renounceRole(bytes32,address)":"36568abe","revokeRole(bytes32,address)":"d547741f","router()":"f887ea40","supportsInterface(bytes4)":"01ffc9a7","swapForAsset()":"951d833d","taxToken()":"1fc928ae","treasury()":"61d027b3","updateSwapParams(address,address,address,uint16)":"9fdfbea9","updateSwapThresholds(uint256,uint256)":"15ca79ac","updateTreasury(address)":"7f51bb1f","withdraw(address)":"51cff8d9"},"id":77}